{
  "_format": "hh-sol-artifact-1",
  "contractName": "TestValidationLib",
  "sourceName": "src/TestValidationLib.sol",
  "abi": [
    {
      "inputs": [
        {
          "internalType": "uint256",
          "name": "score",
          "type": "uint256"
        },
        {
          "internalType": "uint256",
          "name": "medianScore",
          "type": "uint256"
        }
      ],
      "name": "testDeviation",
      "outputs": [
        {
          "internalType": "uint256",
          "name": "",
          "type": "uint256"
        }
      ],
      "stateMutability": "pure",
      "type": "function"
    },
    {
      "inputs": [
        {
          "internalType": "uint256",
          "name": "totalReward",
          "type": "uint256"
        },
        {
          "internalType": "uint256",
          "name": "validatorCount",
          "type": "uint256"
        }
      ],
      "name": "testEqualSplit",
      "outputs": [
        {
          "internalType": "uint256",
          "name": "share",
          "type": "uint256"
        },
        {
          "internalType": "uint256",
          "name": "remainder",
          "type": "uint256"
        }
      ],
      "stateMutability": "pure",
      "type": "function"
    },
    {
      "inputs": [
        {
          "internalType": "uint256[]",
          "name": "scores",
          "type": "uint256[]"
        }
      ],
      "name": "testInsertionSort",
      "outputs": [
        {
          "internalType": "uint256[]",
          "name": "",
          "type": "uint256[]"
        }
      ],
      "stateMutability": "pure",
      "type": "function"
    },
    {
      "inputs": [
        {
          "internalType": "uint256[]",
          "name": "scores",
          "type": "uint256[]"
        }
      ],
      "name": "testSortAndMedian",
      "outputs": [
        {
          "internalType": "uint256",
          "name": "",
          "type": "uint256"
        }
      ],
      "stateMutability": "pure",
      "type": "function"
    }
  ],
  "bytecode": "0x6080806040523461001657610482908161001c8239f35b600080fdfe604060808152600436101561001357600080fd5b6000803560e01c8063063639b71461016457806344e62d3a1461013957806363431db9146100dc5763f61282641461004a57600080fd5b346100d95761005836610180565b9081156100a5576100698282610264565b9282840292848404148415171561009157509061008591610241565b82519182526020820152f35b634e487b7160e01b81526011600452602490fd5b835162461bcd60e51b815260206004820152600d60248201526c4e6f2076616c696461746f727360981b6044820152606490fd5b80fd5b509034610135576100ec3661019b565b6100f5816102ff565b815192839260208080860192818752855180945286019401925b82811061011e57505050500390f35b83518552869550938101939281019260010161010f565b5080fd5b5090346101355760209061015d61014f3661019b565b610158816102ff565b6103c0565b9051908152f35b5090346101355760209061015d61017a36610180565b90610284565b6040906003190112610196576004359060243590565b600080fd5b6020806003198301126101965767ffffffffffffffff9160043583811161019657816023820112156101965780600401359084821161022b578160051b9160405195601f19603f8501168701908782109082111761022b5760405285526024602086019282010192831161019657602401905b82821061021c575050505090565b8135815290830190830161020e565b634e487b7160e01b600052604160045260246000fd5b9190820391821161024e57565b634e487b7160e01b600052601160045260246000fd5b811561026e570490565b634e487b7160e01b600052601260045260246000fd5b81156102ce5781808211156102be5761029c91610241565b905b6127109182810292818404149015171561024e576102bb91610264565b90565b906102c891610241565b9061029e565b5050600090565b80518210156102e95760209160051b010190565b634e487b7160e01b600052603260045260246000fd5b805160019160015b8281106103145750505050565b806103208592846102d5565b5181835b61033a575b61033390856102d5565b5201610307565b8091929350158681158061039f575b1561039557506000198201918083116103805761037161036984886102d5565b5191876102d5565b52610380578592919083610324565b60246000634e487b7160e01b81526011600452fd5b9392919050610329565b5050600019820182811161038057836103b98992886102d5565b5111610349565b80518015610418576001818116036103e457906103e09160011c906102d5565b5190565b60011c60001981019080821161024e5761040161040892846102d5565b51926102d5565b51810180911161024e5760011c90565b60405162461bcd60e51b815260206004820152600c60248201526b456d7074792073636f72657360a01b6044820152606490fdfea2646970667358221220a4557a1520af0d8e079cbd4b6b30ed1fca54cbac6a972bc296ac7a9c287f911064736f6c63430008180033",
  "linkReferences": {},
  "deployedLinkReferences": {}
}