{
  "_format": "hh-sol-artifact-1",
  "contractName": "StakingVaultV2",
  "sourceName": "src/StakingVaultV2.sol",
  "abi": [
    {
      "inputs": [
        {
          "internalType": "address",
          "name": "_mdtToken",
          "type": "address"
        }
      ],
      "stateMutability": "nonpayable",
      "type": "constructor"
    },
    {
      "anonymous": false,
      "inputs": [
        {
          "indexed": false,
          "internalType": "uint256",
          "name": "oldValue",
          "type": "uint256"
        },
        {
          "indexed": false,
          "internalType": "uint256",
          "name": "newValue",
          "type": "uint256"
        }
      ],
      "name": "DecayIntervalUpdated",
      "type": "event"
    },
    {
      "anonymous": false,
      "inputs": [
        {
          "indexed": false,
          "internalType": "uint256",
          "name": "oldValue",
          "type": "uint256"
        },
        {
          "indexed": false,
          "internalType": "uint256",
          "name": "newValue",
          "type": "uint256"
        }
      ],
      "name": "MinHolderStakeUpdated",
      "type": "event"
    },
    {
      "anonymous": false,
      "inputs": [
        {
          "indexed": false,
          "internalType": "uint256",
          "name": "oldValue",
          "type": "uint256"
        },
        {
          "indexed": false,
          "internalType": "uint256",
          "name": "newValue",
          "type": "uint256"
        }
      ],
      "name": "MinMinerStakeUpdated",
      "type": "event"
    },
    {
      "anonymous": false,
      "inputs": [
        {
          "indexed": false,
          "internalType": "uint256",
          "name": "oldValue",
          "type": "uint256"
        },
        {
          "indexed": false,
          "internalType": "uint256",
          "name": "newValue",
          "type": "uint256"
        }
      ],
      "name": "MinValidatorStakeUpdated",
      "type": "event"
    },
    {
      "anonymous": false,
      "inputs": [
        {
          "indexed": true,
          "internalType": "address",
          "name": "previousOwner",
          "type": "address"
        },
        {
          "indexed": true,
          "internalType": "address",
          "name": "newOwner",
          "type": "address"
        }
      ],
      "name": "OwnershipTransferred",
      "type": "event"
    },
    {
      "anonymous": false,
      "inputs": [
        {
          "indexed": false,
          "internalType": "address",
          "name": "account",
          "type": "address"
        }
      ],
      "name": "Paused",
      "type": "event"
    },
    {
      "anonymous": false,
      "inputs": [
        {
          "indexed": true,
          "internalType": "address",
          "name": "user",
          "type": "address"
        },
        {
          "indexed": false,
          "internalType": "uint256",
          "name": "feeAmount",
          "type": "uint256"
        },
        {
          "indexed": false,
          "internalType": "uint256",
          "name": "newBaseFee",
          "type": "uint256"
        }
      ],
      "name": "RegFeeBurned",
      "type": "event"
    },
    {
      "anonymous": false,
      "inputs": [
        {
          "indexed": false,
          "internalType": "uint256",
          "name": "oldValue",
          "type": "uint256"
        },
        {
          "indexed": false,
          "internalType": "uint256",
          "name": "newValue",
          "type": "uint256"
        }
      ],
      "name": "RegFeeCeilingUpdated",
      "type": "event"
    },
    {
      "anonymous": false,
      "inputs": [
        {
          "indexed": false,
          "internalType": "uint256",
          "name": "oldValue",
          "type": "uint256"
        },
        {
          "indexed": false,
          "internalType": "uint256",
          "name": "newValue",
          "type": "uint256"
        }
      ],
      "name": "RegFeeFloorUpdated",
      "type": "event"
    },
    {
      "anonymous": false,
      "inputs": [
        {
          "indexed": false,
          "internalType": "uint256",
          "name": "oldFee",
          "type": "uint256"
        },
        {
          "indexed": false,
          "internalType": "uint256",
          "name": "newFee",
          "type": "uint256"
        },
        {
          "indexed": false,
          "internalType": "string",
          "name": "reason",
          "type": "string"
        }
      ],
      "name": "RegFeeUpdated",
      "type": "event"
    },
    {
      "anonymous": false,
      "inputs": [
        {
          "indexed": true,
          "internalType": "address",
          "name": "user",
          "type": "address"
        },
        {
          "indexed": false,
          "internalType": "uint256",
          "name": "amount",
          "type": "uint256"
        }
      ],
      "name": "RewardClaimed",
      "type": "event"
    },
    {
      "anonymous": false,
      "inputs": [
        {
          "indexed": false,
          "internalType": "uint256",
          "name": "amount",
          "type": "uint256"
        },
        {
          "indexed": false,
          "internalType": "uint256",
          "name": "newAccPerShare",
          "type": "uint256"
        }
      ],
      "name": "RewardDeposited",
      "type": "event"
    },
    {
      "anonymous": false,
      "inputs": [
        {
          "indexed": true,
          "internalType": "address",
          "name": "user",
          "type": "address"
        },
        {
          "indexed": false,
          "internalType": "uint256",
          "name": "amount",
          "type": "uint256"
        },
        {
          "indexed": false,
          "internalType": "string",
          "name": "reason",
          "type": "string"
        }
      ],
      "name": "Slashed",
      "type": "event"
    },
    {
      "anonymous": false,
      "inputs": [
        {
          "indexed": true,
          "internalType": "address",
          "name": "user",
          "type": "address"
        },
        {
          "indexed": false,
          "internalType": "uint256",
          "name": "additionalAmount",
          "type": "uint256"
        },
        {
          "indexed": false,
          "internalType": "uint256",
          "name": "newTotal",
          "type": "uint256"
        }
      ],
      "name": "StakeIncreased",
      "type": "event"
    },
    {
      "anonymous": false,
      "inputs": [
        {
          "indexed": true,
          "internalType": "address",
          "name": "user",
          "type": "address"
        },
        {
          "indexed": false,
          "internalType": "uint256",
          "name": "amount",
          "type": "uint256"
        },
        {
          "indexed": false,
          "internalType": "enum StakingVaultV2.StakeRole",
          "name": "role",
          "type": "uint8"
        },
        {
          "indexed": false,
          "internalType": "uint256",
          "name": "regFeePaid",
          "type": "uint256"
        }
      ],
      "name": "Staked",
      "type": "event"
    },
    {
      "anonymous": false,
      "inputs": [
        {
          "indexed": false,
          "internalType": "address",
          "name": "account",
          "type": "address"
        }
      ],
      "name": "Unpaused",
      "type": "event"
    },
    {
      "anonymous": false,
      "inputs": [
        {
          "indexed": false,
          "internalType": "uint256",
          "name": "oldValue",
          "type": "uint256"
        },
        {
          "indexed": false,
          "internalType": "uint256",
          "name": "newValue",
          "type": "uint256"
        }
      ],
      "name": "UnstakeCooldownUpdated",
      "type": "event"
    },
    {
      "anonymous": false,
      "inputs": [
        {
          "indexed": true,
          "internalType": "address",
          "name": "user",
          "type": "address"
        },
        {
          "indexed": false,
          "internalType": "uint256",
          "name": "amount",
          "type": "uint256"
        }
      ],
      "name": "UnstakeRequested",
      "type": "event"
    },
    {
      "anonymous": false,
      "inputs": [
        {
          "indexed": true,
          "internalType": "address",
          "name": "user",
          "type": "address"
        },
        {
          "indexed": false,
          "internalType": "uint256",
          "name": "amount",
          "type": "uint256"
        }
      ],
      "name": "Withdrawn",
      "type": "event"
    },
    {
      "inputs": [],
      "name": "BURN_ADDRESS",
      "outputs": [
        {
          "internalType": "address",
          "name": "",
          "type": "address"
        }
      ],
      "stateMutability": "view",
      "type": "function"
    },
    {
      "inputs": [],
      "name": "accRewardPerShare",
      "outputs": [
        {
          "internalType": "uint256",
          "name": "",
          "type": "uint256"
        }
      ],
      "stateMutability": "view",
      "type": "function"
    },
    {
      "inputs": [],
      "name": "activeHolderCount",
      "outputs": [
        {
          "internalType": "uint256",
          "name": "",
          "type": "uint256"
        }
      ],
      "stateMutability": "view",
      "type": "function"
    },
    {
      "inputs": [],
      "name": "activeMinerCount",
      "outputs": [
        {
          "internalType": "uint256",
          "name": "",
          "type": "uint256"
        }
      ],
      "stateMutability": "view",
      "type": "function"
    },
    {
      "inputs": [],
      "name": "activeValidatorCount",
      "outputs": [
        {
          "internalType": "uint256",
          "name": "",
          "type": "uint256"
        }
      ],
      "stateMutability": "view",
      "type": "function"
    },
    {
      "inputs": [],
      "name": "claimRewards",
      "outputs": [],
      "stateMutability": "nonpayable",
      "type": "function"
    },
    {
      "inputs": [],
      "name": "decayInterval",
      "outputs": [
        {
          "internalType": "uint256",
          "name": "",
          "type": "uint256"
        }
      ],
      "stateMutability": "view",
      "type": "function"
    },
    {
      "inputs": [
        {
          "internalType": "uint256",
          "name": "amount",
          "type": "uint256"
        }
      ],
      "name": "depositRewards",
      "outputs": [],
      "stateMutability": "nonpayable",
      "type": "function"
    },
    {
      "inputs": [],
      "name": "feeBumpDenominator",
      "outputs": [
        {
          "internalType": "uint256",
          "name": "",
          "type": "uint256"
        }
      ],
      "stateMutability": "view",
      "type": "function"
    },
    {
      "inputs": [],
      "name": "feeBumpNumerator",
      "outputs": [
        {
          "internalType": "uint256",
          "name": "",
          "type": "uint256"
        }
      ],
      "stateMutability": "view",
      "type": "function"
    },
    {
      "inputs": [],
      "name": "getCurrentRegFee",
      "outputs": [
        {
          "internalType": "uint256",
          "name": "",
          "type": "uint256"
        }
      ],
      "stateMutability": "view",
      "type": "function"
    },
    {
      "inputs": [],
      "name": "getPoolStats",
      "outputs": [
        {
          "internalType": "uint256",
          "name": "_totalStaked",
          "type": "uint256"
        },
        {
          "internalType": "uint256",
          "name": "_totalRewards",
          "type": "uint256"
        },
        {
          "internalType": "uint256",
          "name": "_totalClaimed",
          "type": "uint256"
        },
        {
          "internalType": "uint256",
          "name": "_totalBurned",
          "type": "uint256"
        },
        {
          "internalType": "uint256",
          "name": "_currentRegFee",
          "type": "uint256"
        },
        {
          "internalType": "uint256",
          "name": "_activeMinerCount",
          "type": "uint256"
        },
        {
          "internalType": "uint256",
          "name": "_activeValidatorCount",
          "type": "uint256"
        },
        {
          "internalType": "uint256",
          "name": "_activeHolderCount",
          "type": "uint256"
        }
      ],
      "stateMutability": "view",
      "type": "function"
    },
    {
      "inputs": [
        {
          "internalType": "address",
          "name": "user",
          "type": "address"
        }
      ],
      "name": "getStakeAmount",
      "outputs": [
        {
          "internalType": "uint256",
          "name": "",
          "type": "uint256"
        }
      ],
      "stateMutability": "view",
      "type": "function"
    },
    {
      "inputs": [
        {
          "internalType": "address",
          "name": "user",
          "type": "address"
        }
      ],
      "name": "getStakeInfo",
      "outputs": [
        {
          "internalType": "uint256",
          "name": "amount",
          "type": "uint256"
        },
        {
          "internalType": "enum StakingVaultV2.StakeRole",
          "name": "role",
          "type": "uint8"
        },
        {
          "internalType": "uint256",
          "name": "stakedAt",
          "type": "uint256"
        },
        {
          "internalType": "uint256",
          "name": "unstakeRequestedAt",
          "type": "uint256"
        },
        {
          "internalType": "bool",
          "name": "isActive",
          "type": "bool"
        },
        {
          "internalType": "uint256",
          "name": "pendingReward",
          "type": "uint256"
        }
      ],
      "stateMutability": "view",
      "type": "function"
    },
    {
      "inputs": [
        {
          "internalType": "address",
          "name": "user",
          "type": "address"
        }
      ],
      "name": "isMiner",
      "outputs": [
        {
          "internalType": "bool",
          "name": "",
          "type": "bool"
        }
      ],
      "stateMutability": "view",
      "type": "function"
    },
    {
      "inputs": [
        {
          "internalType": "address",
          "name": "user",
          "type": "address"
        }
      ],
      "name": "isStaked",
      "outputs": [
        {
          "internalType": "bool",
          "name": "",
          "type": "bool"
        }
      ],
      "stateMutability": "view",
      "type": "function"
    },
    {
      "inputs": [
        {
          "internalType": "address",
          "name": "user",
          "type": "address"
        }
      ],
      "name": "isValidator",
      "outputs": [
        {
          "internalType": "bool",
          "name": "",
          "type": "bool"
        }
      ],
      "stateMutability": "view",
      "type": "function"
    },
    {
      "inputs": [],
      "name": "lastRegTimestamp",
      "outputs": [
        {
          "internalType": "uint256",
          "name": "",
          "type": "uint256"
        }
      ],
      "stateMutability": "view",
      "type": "function"
    },
    {
      "inputs": [],
      "name": "mdtToken",
      "outputs": [
        {
          "internalType": "contract IERC20",
          "name": "",
          "type": "address"
        }
      ],
      "stateMutability": "view",
      "type": "function"
    },
    {
      "inputs": [],
      "name": "minHolderStake",
      "outputs": [
        {
          "internalType": "uint256",
          "name": "",
          "type": "uint256"
        }
      ],
      "stateMutability": "view",
      "type": "function"
    },
    {
      "inputs": [],
      "name": "minMinerStake",
      "outputs": [
        {
          "internalType": "uint256",
          "name": "",
          "type": "uint256"
        }
      ],
      "stateMutability": "view",
      "type": "function"
    },
    {
      "inputs": [],
      "name": "minValidatorStake",
      "outputs": [
        {
          "internalType": "uint256",
          "name": "",
          "type": "uint256"
        }
      ],
      "stateMutability": "view",
      "type": "function"
    },
    {
      "inputs": [],
      "name": "owner",
      "outputs": [
        {
          "internalType": "address",
          "name": "",
          "type": "address"
        }
      ],
      "stateMutability": "view",
      "type": "function"
    },
    {
      "inputs": [],
      "name": "pause",
      "outputs": [],
      "stateMutability": "nonpayable",
      "type": "function"
    },
    {
      "inputs": [],
      "name": "paused",
      "outputs": [
        {
          "internalType": "bool",
          "name": "",
          "type": "bool"
        }
      ],
      "stateMutability": "view",
      "type": "function"
    },
    {
      "inputs": [
        {
          "internalType": "address",
          "name": "user",
          "type": "address"
        }
      ],
      "name": "pendingRewards",
      "outputs": [
        {
          "internalType": "uint256",
          "name": "",
          "type": "uint256"
        }
      ],
      "stateMutability": "view",
      "type": "function"
    },
    {
      "inputs": [],
      "name": "regBaseFee",
      "outputs": [
        {
          "internalType": "uint256",
          "name": "",
          "type": "uint256"
        }
      ],
      "stateMutability": "view",
      "type": "function"
    },
    {
      "inputs": [],
      "name": "regFeeCeiling",
      "outputs": [
        {
          "internalType": "uint256",
          "name": "",
          "type": "uint256"
        }
      ],
      "stateMutability": "view",
      "type": "function"
    },
    {
      "inputs": [],
      "name": "regFeeFloor",
      "outputs": [
        {
          "internalType": "uint256",
          "name": "",
          "type": "uint256"
        }
      ],
      "stateMutability": "view",
      "type": "function"
    },
    {
      "inputs": [],
      "name": "renounceOwnership",
      "outputs": [],
      "stateMutability": "nonpayable",
      "type": "function"
    },
    {
      "inputs": [],
      "name": "requestUnstake",
      "outputs": [],
      "stateMutability": "nonpayable",
      "type": "function"
    },
    {
      "inputs": [
        {
          "internalType": "uint256",
          "name": "_d",
          "type": "uint256"
        }
      ],
      "name": "setDecayInterval",
      "outputs": [],
      "stateMutability": "nonpayable",
      "type": "function"
    },
    {
      "inputs": [
        {
          "internalType": "uint256",
          "name": "_min",
          "type": "uint256"
        }
      ],
      "name": "setMinHolderStake",
      "outputs": [],
      "stateMutability": "nonpayable",
      "type": "function"
    },
    {
      "inputs": [
        {
          "internalType": "uint256",
          "name": "_min",
          "type": "uint256"
        }
      ],
      "name": "setMinMinerStake",
      "outputs": [],
      "stateMutability": "nonpayable",
      "type": "function"
    },
    {
      "inputs": [
        {
          "internalType": "uint256",
          "name": "_min",
          "type": "uint256"
        }
      ],
      "name": "setMinValidatorStake",
      "outputs": [],
      "stateMutability": "nonpayable",
      "type": "function"
    },
    {
      "inputs": [
        {
          "internalType": "uint256",
          "name": "_c",
          "type": "uint256"
        }
      ],
      "name": "setRegFeeCeiling",
      "outputs": [],
      "stateMutability": "nonpayable",
      "type": "function"
    },
    {
      "inputs": [
        {
          "internalType": "uint256",
          "name": "_f",
          "type": "uint256"
        }
      ],
      "name": "setRegFeeFloor",
      "outputs": [],
      "stateMutability": "nonpayable",
      "type": "function"
    },
    {
      "inputs": [
        {
          "internalType": "uint256",
          "name": "_c",
          "type": "uint256"
        }
      ],
      "name": "setUnstakeCooldown",
      "outputs": [],
      "stateMutability": "nonpayable",
      "type": "function"
    },
    {
      "inputs": [
        {
          "internalType": "address",
          "name": "user",
          "type": "address"
        },
        {
          "internalType": "uint256",
          "name": "basisPoints",
          "type": "uint256"
        },
        {
          "internalType": "string",
          "name": "reason",
          "type": "string"
        }
      ],
      "name": "slash",
      "outputs": [],
      "stateMutability": "nonpayable",
      "type": "function"
    },
    {
      "inputs": [
        {
          "internalType": "uint256",
          "name": "amount",
          "type": "uint256"
        },
        {
          "internalType": "enum StakingVaultV2.StakeRole",
          "name": "role",
          "type": "uint8"
        }
      ],
      "name": "stake",
      "outputs": [],
      "stateMutability": "nonpayable",
      "type": "function"
    },
    {
      "inputs": [
        {
          "internalType": "address",
          "name": "",
          "type": "address"
        }
      ],
      "name": "stakes",
      "outputs": [
        {
          "internalType": "uint256",
          "name": "amount",
          "type": "uint256"
        },
        {
          "internalType": "enum StakingVaultV2.StakeRole",
          "name": "role",
          "type": "uint8"
        },
        {
          "internalType": "uint256",
          "name": "stakedAt",
          "type": "uint256"
        },
        {
          "internalType": "uint256",
          "name": "unstakeRequestedAt",
          "type": "uint256"
        },
        {
          "internalType": "bool",
          "name": "isActive",
          "type": "bool"
        },
        {
          "internalType": "uint256",
          "name": "rewardDebt",
          "type": "uint256"
        }
      ],
      "stateMutability": "view",
      "type": "function"
    },
    {
      "inputs": [],
      "name": "totalFeesBurned",
      "outputs": [
        {
          "internalType": "uint256",
          "name": "",
          "type": "uint256"
        }
      ],
      "stateMutability": "view",
      "type": "function"
    },
    {
      "inputs": [],
      "name": "totalRewardsClaimed",
      "outputs": [
        {
          "internalType": "uint256",
          "name": "",
          "type": "uint256"
        }
      ],
      "stateMutability": "view",
      "type": "function"
    },
    {
      "inputs": [],
      "name": "totalRewardsDeposited",
      "outputs": [
        {
          "internalType": "uint256",
          "name": "",
          "type": "uint256"
        }
      ],
      "stateMutability": "view",
      "type": "function"
    },
    {
      "inputs": [],
      "name": "totalSlashed",
      "outputs": [
        {
          "internalType": "uint256",
          "name": "",
          "type": "uint256"
        }
      ],
      "stateMutability": "view",
      "type": "function"
    },
    {
      "inputs": [],
      "name": "totalStaked",
      "outputs": [
        {
          "internalType": "uint256",
          "name": "",
          "type": "uint256"
        }
      ],
      "stateMutability": "view",
      "type": "function"
    },
    {
      "inputs": [
        {
          "internalType": "address",
          "name": "newOwner",
          "type": "address"
        }
      ],
      "name": "transferOwnership",
      "outputs": [],
      "stateMutability": "nonpayable",
      "type": "function"
    },
    {
      "inputs": [],
      "name": "unpause",
      "outputs": [],
      "stateMutability": "nonpayable",
      "type": "function"
    },
    {
      "inputs": [],
      "name": "unstakeCooldown",
      "outputs": [
        {
          "internalType": "uint256",
          "name": "",
          "type": "uint256"
        }
      ],
      "stateMutability": "view",
      "type": "function"
    },
    {
      "inputs": [],
      "name": "withdraw",
      "outputs": [],
      "stateMutability": "nonpayable",
      "type": "function"
    }
  ],
  "bytecode": "0x60803461014f57601f61235938819003918201601f19168301916001600160401b038311848410176101545780849260209460405283398101031261014f57516001600160a01b038082169182900361014f57600160005560015460405191339082167f8be0079c531659141344cd1fd0a4f28419497f9722a3daafe3b4186f6b6457e0600080a36001600160a81b0319163360ff60a01b1916176001908155633b9aca00600355640ba43b740060048190556305f5e100600581905562093a80600655631dcd6500600d55600e55600f55610e106010556013556008601455811561010d5750600280546001600160a01b031916919091179055426011556040516121ee908161016b8239f35b62461bcd60e51b815260206004820152601560248201527f496e76616c696420746f6b656e206164647265737300000000000000000000006044820152606490fd5b600080fd5b634e487b7160e01b600052604160045260246000fdfe608060408181526004918236101561001657600080fd5b600092833560e01c918263017ddd3514611533575081630c2eb403146114fb57816310087fb1146114c457816316934fc414611464578163180c0624146114455781631f4c74fd146114265781632340e8d31461140757816331d7a262146113e1578163372500ab146113b85781633ccfd60b1461124e5781633f4ba83a146111b257816342d18cca146111935781634911e5be146111225781634ffacbc51461107e5781635c975abb146110575781636177fd181461101757816366de6f0714610ff3578163678b3ee214610cd85781636c53f79614610cb9578163701b70ac14610c4d578163715018a614610bed57816372ccd69e14610bce5781637eefd5ae14610baf578163805f231e14610b07578163817b1cd214610ae85781638456cb5914610a875781638a76004814610a685781638bdf67f2146109615781638da5cb5b146109385781638f13429a14610919578163939d6237146108fa578163a201bbdd146108db578163a3158b5314610869578163a34b0f761461084a578163b6334aee1461082b578163b6fbdc3f1461080c578163bad84533146107ed578163bbb851881461078c578163c3453153146106e8578163c69aaedf146106c9578163d11fa42914610657578163d3601585146105e7578163d90ac431146105c8578163e1d3ac2c146105a9578163e981543014610538578163f2fde38b1461046c578163f70b5c0614610443578163facd743b146103c3578163fc63958e1461026a575063fccc28131461024b57600080fd5b346102665781600319360112610266576020905161dead8152f35b5080fd5b9050346103bf57826003193601126103bf57610284611d37565b33835260096020528183209080820160ff8154161561038f57600383018054610358576102b033611dd4565b429055805460ff19169055600182015460ff16908082101561034557506001810361031857506102e1600a54611cbb565b600a555b5490519081527f828764c21e74c28710e19919735825aba966621c95cbd913f8ed65a2d298f48c60203392a26001815580f35b6002036103325761032a600b54611cbb565b600b556102e5565b61033d600c54611cbb565b600c556102e5565b634e487b7160e01b855260219052602484fd5b845162461bcd60e51b81526020818501526011602482015270105b1c9958591e481c995c5d595cdd1959607a1b6044820152606490fd5b835162461bcd60e51b8152602081840152600a602482015269139bdd081cdd185ad95960b21b6044820152606490fd5b8280fd5b838334610266576020366003190112610266576001600160a01b036103e661154e565b16825260096020528082209160ff8484015416928361040c575b60208484519015158152f35b60ff9192935060010154169280841015610430575050600260209214908380610400565b634e487b7160e01b825260219052602490fd5b50503461026657816003193601126102665760025490516001600160a01b039091168152602090f35b9050346103bf5760203660031901126103bf5761048761154e565b90610490611f16565b6001600160a01b039182169283156104e6575050600154826bffffffffffffffffffffffff60a01b821617600155167f8be0079c531659141344cd1fd0a4f28419497f9722a3daafe3b4186f6b6457e08380a380f35b906020608492519162461bcd60e51b8352820152602660248201527f4f776e61626c653a206e6577206f776e657220697320746865207a65726f206160448201526564647265737360d01b6064820152fd5b919050346103bf5760203660031901126103bf577f82c1c7fa4ef56e3773fe5de4fa7fd3cc6255a6d6884b45fa98503caf21d562899135610577611f16565b610584603c821015611cc8565b61059362093a80821115611d00565b601054908060105582519182526020820152a180f35b5050346102665781600319360112610266576020906011549051908152f35b505034610266578160031936011261026657602090600c549051908152f35b919050346103bf5760203660031901126103bf57817fe2b67d0d7e29dde0f951b80feee996892a097edff2b2f9ad81de807e4231ed869235610627611f16565b610632811515611c0a565b610644655af3107a4000821115611c44565b808254925582519182526020820152a180f35b919050346103bf5760203660031901126103bf577fbf4554f905e1b4391d5cef31c1e7b4285a1974aae46774539ee6a274f7fdcb249135610696611f16565b6106a1811515611c0a565b6106b36509184e72a000821115611c44565b600354908060035582519182526020820152a180f35b505034610266578160031936011261026657602090600a549051908152f35b8383346102665760203660031901126102665761074a906001600160a01b0361070f61154e565b168352600960205280832092908354938461074e575b60ff6001820154169560ff60028301549160038401549301541692519687968761158c565b0390f35b670de0b6b3a764000061076360155487611622565b04600582015490818111610779575b5050610725565b610784929450611ba7565b918680610772565b5050346102665781600319360112610266576101009060075490601654906017546012546107b8611c7b565b90600a5492600b5494600c5496815198895260208901528701526060860152608085015260a084015260c083015260e0820152f35b5050346102665781600319360112610266576020906014549051908152f35b505034610266578160031936011261026657602090600d549051908152f35b5050346102665781600319360112610266576020906010549051908152f35b5050346102665781600319360112610266576020906017549051908152f35b919050346103bf5760203660031901126103bf577f2a39b166fe0871f09742b63b77a4de216789aaa99f883b61b9b0299f65d1a6f891356108a8611f16565b6108b6610e10821015611cc8565b6108c56276a700821115611d00565b600654908060065582519182526020820152a180f35b5050346102665781600319360112610266576020906008549051908152f35b5050346102665781600319360112610266576020906015549051908152f35b505034610266578160031936011261026657602090600e549051908152f35b50503461026657816003193601126102665760015490516001600160a01b039091168152602090f35b83833461026657602036600319011261026657823561097e611d37565b801561098a81156115be565b60075415610a38576002546109ad908390309033906001600160a01b0316611e99565b670de0b6b3a76400009081830291838304141715610a255790610a006109f87fbf2ebcc991369bcf488ef5738352a5d8998bd7a2c138128ca91ec96afe123fd6949360075490611635565b6015546115ff565b80601555610a10826016546115ff565b60165582519182526020820152a16001815580f35b634e487b7160e01b845260118552602484fd5b825162461bcd60e51b8152602081870152600a6024820152694e6f207374616b65727360b01b6044820152606490fd5b5050346102665781600319360112610266576020906013549051908152f35b50503461026657816003193601126102665760207f62e78cea01bee320cd4e420270b5ea74000d11b0c9f74754ebdbfc544b05a25891610ac5611f16565b610acd611d8d565b6001805460ff60a01b1916600160a01b17905551338152a180f35b5050346102665781600319360112610266576020906007549051908152f35b9050346103bf5760203660031901126103bf57803590610b25611f16565b600e54821115610b7a57509081610b6464e8d4a510007f2fbfd3c597abf5e1cb836855d8200fe74f1d9e43160edc0c2dfb1a519187a795941115611c44565b600f549080600f5582519182526020820152a180f35b606490602084519162461bcd60e51b8352820152600f60248201526e26bab9ba103132901f10333637b7b960891b6044820152fd5b5050346102665781600319360112610266576020906006549051908152f35b5050346102665781600319360112610266576020906012549051908152f35b8334610c4a5780600319360112610c4a57610c06611f16565b600180546001600160a01b0319811690915581906001600160a01b03167f8be0079c531659141344cd1fd0a4f28419497f9722a3daafe3b4186f6b6457e08280a380f35b80fd5b838334610266576020366003190112610266576001600160a01b03610c7061154e565b16825260096020528082209160ff84840154169283610c955760208484519015158152f35b60ff9192935060010154169280841015610430575050600160209214908380610400565b505034610266578160031936011261026657602090600f549051908152f35b83833461026657606036600319011261026657610cf361154e565b9060249384359060443567ffffffffffffffff91828211610fef5736602383011215610fef5781810135928311610fef5736888484010111610fef57610d37611f16565b610d3f611d37565b83151580610fe3575b15610faa5760018060a01b039081871696878952600960205286892090815415610f7457610d7590611dd4565b610d8f612710610d8783549889611622565b048097611ba7565b8155610d9d86600754611ba7565b600755610dac866008546115ff565b600855805491670de0b6b3a7640000610dc760155485611622565b04600583015560ff60018301541691818310159081610f625760028414948515610f45578354905b1080610f38575b610e92575b50505050509180887f7e947095ed288d8885423bdaef4015b7420ffa9b84d62ef67c402e8bc36a8ea9969593610e606060966002541688519063a9059cbb60e01b602083015261dead8583015287604483015260448252610e5b82611655565b611f6e565b828751978896875280602088015286015201848401378181018301879052601f01601f19168101030190a26001815580f35b8201805460ff19169055610f26575092610e608594937f7e947095ed288d8885423bdaef4015b7420ffa9b84d62ef67c402e8bc36a8ea9999a9b936001606099989614600014610efb5750610ee8600a54611cbb565b600a555b939596839b9a99839650610dfb565b15610f1357610f0b600b54611cbb565b600b55610eec565b610f1e600c54611cbb565b600c55610eec565b634e487b7160e01b8a52602190528989fd5b5060ff8382015416610df6565b8c925060018503610f5a576003545b90610def565b600554610f54565b634e487b7160e01b8c52602183528c8cfd5b875162461bcd60e51b81526020818501526011818d01527009cde40e6e8c2d6ca40e8de40e6d8c2e6d607b1b6044820152606490fd5b606490601489602088519362461bcd60e51b855284015282015273496e76616c696420626173697320706f696e747360601b6044820152fd5b50612710841115610d48565b8680fd5b505034610266578160031936011261026657602090611010611c7b565b9051908152f35b9050346103bf5760203660031901126103bf5760209260ff919083906001600160a01b0361104361154e565b168152600986522001541690519015158152f35b50503461026657816003193601126102665760209060ff60015460a01c1690519015158152f35b9050346103bf5760203660031901126103bf5780359061109c611f16565b6110a7821515611c0a565b600f548210156110eb5750907f4fc2f0e6f69c9cadc85cc2cf4fe1d1f882d39f1cfbefba0d5d91f0ca9dfaa24391600e549080600e5582519182526020820152a180f35b606490602084519162461bcd60e51b835282015260116024820152704d757374206265203c206365696c696e6760781b6044820152fd5b919050346103bf5760203660031901126103bf577f4334dca64f00b974f4b5965ddbb8affcc1c71bb0dd18c41e909e24197833da2b9135611161611f16565b61116c811515611c0a565b61117d64e8d4a51000821115611c44565b600554908060055582519182526020820152a180f35b5050346102665781600319360112610266576020906003549051908152f35b9050346103bf57826003193601126103bf576111cc611f16565b6001549060ff8260a01c1615611214575060ff60a01b1916600155513381527f5db9ee0a495bf2e6ff9c91a7834c1ba4fdd244a5e8aa4e537bd38aeae4b073aa90602090a180f35b606490602084519162461bcd60e51b8352820152601460248201527314185d5cd8589b194e881b9bdd081c185d5cd95960621b6044820152fd5b919050346103bf57826003193601126103bf57611269611d37565b338352600960205280832060038101805480156113805760065461128c916115ff565b421061134657815493841561130d57508185600592818095556001830160ff1981541690555501556112c082600754611ba7565b6007556002546112dc90839033906001600160a01b0316611edd565b519081527f7084f5476618d8e60b11ef0d7d3f06914655adb8793e28ff7f018d4c76d505d560203392a26001815580f35b606490602085519162461bcd60e51b835282015260136024820152724e6f7468696e6720746f20776974686472617760681b6044820152fd5b825162461bcd60e51b8152602081860152601460248201527310dbdbdb191bdddb881b9bdd08195e1c1a5c995960621b6044820152606490fd5b835162461bcd60e51b81526020818701526012602482015271139bc81d5b9cdd185ad9481c995c5d595cdd60721b6044820152606490fd5b8334610c4a5780600319360112610c4a576113d1611d37565b6113da33611dd4565b6001815580f35b5050346102665760203660031901126102665760209061101061140261154e565b611bb4565b505034610266578160031936011261026657602090600b549051908152f35b5050346102665781600319360112610266576020906016549051908152f35b5050346102665781600319360112610266576020906005549051908152f35b828434610c4a576020366003190112610c4a5761074a9082906001600160a01b0361148d61154e565b1681526009602052209182549260ff600182015416946002820154600560ff6003850154938501541693015493519687968761158c565b919050346103bf5736600319011261026657602435818110156103bf576113da916114ed611d37565b6114f5611d8d565b356116b2565b5050346102665760203660031901126102665760209181906001600160a01b0361152361154e565b1681526009845220549051908152f35b8491346103bf57826003193601126103bf5760209250548152f35b600435906001600160a01b038216820361156457565b600080fd5b9060048210156115765752565b634e487b7160e01b600052602160045260246000fd5b926115a960a095929897969360c086019986526020860190611569565b60408401526060830152151560808201520152565b156115c557565b60405162461bcd60e51b81526020600482015260126024820152710416d6f756e74206d757374206265203e20360741b6044820152606490fd5b9190820180921161160c57565b634e487b7160e01b600052601160045260246000fd5b8181029291811591840414171561160c57565b811561163f570490565b634e487b7160e01b600052601260045260246000fd5b6080810190811067ffffffffffffffff82111761167157604052565b634e487b7160e01b600052604160045260246000fd5b60a0810190811067ffffffffffffffff82111761167157604052565b600019811461160c5760010190565b60049291838110159081611b92576001811490818015611b84575b838115611b5f575b5015611b2c576116e68415156115be565b6000923384526020906009825260409384862060ff8a820154166119df5750816119cc57600284149182156119b45789545b881061197b57611726611c7b565b966117f08960018060a01b0361176a81600254168b51906323b872dd60e01b8b83015233602483015261dead60448301528d606483015260648252610e5b82611687565b6117768b6012546115ff565b60125561179d600d5461179761178e60135483611622565b60145490611635565b906115ff565b80600d55600f54809111611972575b5042601155600d548a51908c8252898201527f8ded03e7039a8dea1f36b98e438f2db6a5fbc9f3a45906048791a2dd4c4902cb8b3392a26002541630903390611e99565b670de0b6b3a76400006118056015548b611622565b049087519260c0840184811067ffffffffffffffff82111761195e5789528a84528684019061194b5780888e9252898501428152606086019184835260808701946001865260a0880196875233815260098b528c8120975188556001880191519485101561193457509e6118de9b9c9d9e9f9260ff9260059796959484199585878354169116179055516002890155516003880155860192511515918354169116179055519101556118b9886007546115ff565b6007551561190957506118cd600a546116a3565b600a555b8351958652850190611569565b8201527fbde7f0ba1630d25515c7ab99ba47d5640b7ffb4c673b2a5464ae67919558929860603392a2565b1561192157611919600b546116a3565b600b556118d1565b61192c600c546116a3565b600c556118d1565b9150506024915060218f634e487b7160e01b835252fd5b634e487b7160e01b825260218d52602482fd5b50634e487b7160e01b825260418d52602482fd5b600d55386117ac565b855162461bcd60e51b8152808b01859052601360248201527242656c6f77206d696e696d756d207374616b6560681b6044820152606490fd5b508581156119c457600354611718565b600554611718565b634e487b7160e01b865260218952602486fd5b94969798939295905060ff60018601541691611b195783821015611b19575003611ad6576003820154611a9d5750907fe6afb5ca7cc84435baf09da39fcb42fc0fb8bdfef6c3ff2ce9fce2c70a18f8219291611a3a33611dd4565b611a458582546115ff565b8155611a53856007546115ff565b600755670de0b6b3a7640000611a6d825460155490611622565b046005820155600254611a8e908690309033906001600160a01b0316611e99565b549082519485528401523392a2565b835162461bcd60e51b81529081018390526013602482015272556e7374616b6520696e2070726f677265737360681b6044820152606490fd5b835162461bcd60e51b8152908101839052601f60248201527f43616e6e6f74206368616e676520726f6c65207768696c65207374616b6564006044820152606490fd5b634e487b7160e01b815260218452602490fd5b60405162461bcd60e51b8152602081880152600c60248201526b496e76616c696420726f6c6560a01b6044820152606490fd5b9050611b6f5760038114836116d5565b602186634e487b7160e01b6000525260246000fd5b5060009250600281146116cd565b602185634e487b7160e01b6000525260246000fd5b9190820391821161160c57565b6001600160a01b0316600090815260096020526040902080548015611c0357670de0b6b3a7640000611beb60059260155490611622565b0491015480821115611c0357611c0091611ba7565b90565b5050600090565b15611c1157565b60405162461bcd60e51b815260206004820152600b60248201526a04d757374206265203e20360ac1b6044820152606490fd5b15611c4b57565b60405162461bcd60e51b81526020600482015260086024820152670a8dede40d0d2ced60c31b6044820152606490fd5b600d54611c96611c8d60115442611ba7565b60105490611635565b60148111611cb3575b1c600e54808210611cae575090565b905090565b506014611c9f565b801561160c576000190190565b15611ccf57565b60405162461bcd60e51b8152602060048201526009602482015268151bdbc81cda1bdc9d60ba1b6044820152606490fd5b15611d0757565b60405162461bcd60e51b8152602060048201526008602482015267546f6f206c6f6e6760c01b6044820152606490fd5b600260005414611d48576002600055565b60405162461bcd60e51b815260206004820152601f60248201527f5265656e7472616e637947756172643a207265656e7472616e742063616c6c006044820152606490fd5b60ff60015460a01c16611d9c57565b60405162461bcd60e51b815260206004820152601060248201526f14185d5cd8589b194e881c185d5cd95960821b6044820152606490fd5b6001600160a01b0381811660008181526009602052604090208054919392918015611e9257611e0f670de0b6b3a76400009160155490611622565b046005600092018054808311611e7f575b505580611e2e575b50505050565b611e60817f106f923f993c2149d49b4255ff723acafa1f2d94393f561d3eda32ae348f72419460209460025416611edd565b611e6c816017546115ff565b601755604051908152a238808080611e28565b611e8b91935082611ba7565b9138611e20565b5050505050565b6040516323b872dd60e01b60208201526001600160a01b039283166024820152929091166044830152606480830193909352918152611edb91610e5b82611687565b565b60405163a9059cbb60e01b60208201526001600160a01b039092166024830152604480830193909352918152611edb91610e5b82611655565b6001546001600160a01b03163303611f2a57565b606460405162461bcd60e51b815260206004820152602060248201527f4f776e61626c653a2063616c6c6572206973206e6f7420746865206f776e65726044820152fd5b6040805167ffffffffffffffff94936001600160a01b039093169290808301868111828210176116715783526020938482527f5361666545524332303a206c6f772d6c6576656c2063616c6c206661696c6564858301526000808487829651910182855af13d156120d7573d918883116120c357601f1992865193603f81601f8401160116840199848b10908b11176120af578697989961201996975283528286893d92013e6120e4565b80519182159185831561208b575b505050905015612035575050565b60849250519062461bcd60e51b82526004820152602a60248201527f5361666545524332303a204552433230206f7065726174696f6e20646964206e6044820152691bdd081cdd58d8d9595960b21b6064820152fd5b91938180945001031261026657830151908115158203610c4a575080388085612027565b634e487b7160e01b86526041600452602486fd5b634e487b7160e01b85526041600452602485fd5b6120199394959697506060915b9192901561214657508151156120f8575090565b3b156121015790565b60405162461bcd60e51b815260206004820152601d60248201527f416464726573733a2063616c6c20746f206e6f6e2d636f6e74726163740000006044820152606490fd5b8251909150156121595750805190602001fd5b6040519062461bcd60e51b82528160208060048301528251908160248401526000935b82851061219f575050604492506000838284010152601f80199101168101030190fd5b848101820151868601604401529381019385935061217c56fea2646970667358221220d7d6422a5ebd73174cb0141314518d177bf0a84f4b28fa0623fa22104439f8ca64736f6c63430008180033",
  "linkReferences": {},
  "deployedLinkReferences": {}
}