{
  "_format": "hh-sol-artifact-1",
  "contractName": "StakingVaultV2",
  "sourceName": "src/StakingVaultV2.sol",
  "abi": [
    {
      "inputs": [
        {
          "internalType": "address",
          "name": "_mdtToken",
          "type": "address"
        }
      ],
      "stateMutability": "nonpayable",
      "type": "constructor"
    },
    {
      "anonymous": false,
      "inputs": [
        {
          "indexed": true,
          "internalType": "address",
          "name": "user",
          "type": "address"
        },
        {
          "indexed": false,
          "internalType": "uint256",
          "name": "amount",
          "type": "uint256"
        }
      ],
      "name": "DepositRecorded",
      "type": "event"
    },
    {
      "anonymous": false,
      "inputs": [
        {
          "indexed": false,
          "internalType": "uint256",
          "name": "oldValue",
          "type": "uint256"
        },
        {
          "indexed": false,
          "internalType": "uint256",
          "name": "newValue",
          "type": "uint256"
        }
      ],
      "name": "MinHolderStakeUpdated",
      "type": "event"
    },
    {
      "anonymous": false,
      "inputs": [
        {
          "indexed": false,
          "internalType": "uint256",
          "name": "oldValue",
          "type": "uint256"
        },
        {
          "indexed": false,
          "internalType": "uint256",
          "name": "newValue",
          "type": "uint256"
        }
      ],
      "name": "MinMinerStakeUpdated",
      "type": "event"
    },
    {
      "anonymous": false,
      "inputs": [
        {
          "indexed": false,
          "internalType": "uint256",
          "name": "oldValue",
          "type": "uint256"
        },
        {
          "indexed": false,
          "internalType": "uint256",
          "name": "newValue",
          "type": "uint256"
        }
      ],
      "name": "MinValidatorStakeUpdated",
      "type": "event"
    },
    {
      "anonymous": false,
      "inputs": [
        {
          "indexed": true,
          "internalType": "address",
          "name": "previousOwner",
          "type": "address"
        },
        {
          "indexed": true,
          "internalType": "address",
          "name": "newOwner",
          "type": "address"
        }
      ],
      "name": "OwnershipTransferred",
      "type": "event"
    },
    {
      "anonymous": false,
      "inputs": [
        {
          "indexed": false,
          "internalType": "address",
          "name": "account",
          "type": "address"
        }
      ],
      "name": "Paused",
      "type": "event"
    },
    {
      "anonymous": false,
      "inputs": [
        {
          "indexed": true,
          "internalType": "address",
          "name": "user",
          "type": "address"
        },
        {
          "indexed": false,
          "internalType": "uint256",
          "name": "feeAmount",
          "type": "uint256"
        },
        {
          "indexed": false,
          "internalType": "uint256",
          "name": "newBaseFee",
          "type": "uint256"
        }
      ],
      "name": "RegFeeBurned",
      "type": "event"
    },
    {
      "anonymous": false,
      "inputs": [
        {
          "indexed": true,
          "internalType": "address",
          "name": "user",
          "type": "address"
        },
        {
          "indexed": false,
          "internalType": "uint256",
          "name": "amount",
          "type": "uint256"
        }
      ],
      "name": "RewardClaimed",
      "type": "event"
    },
    {
      "anonymous": false,
      "inputs": [
        {
          "indexed": false,
          "internalType": "uint256",
          "name": "amount",
          "type": "uint256"
        },
        {
          "indexed": false,
          "internalType": "uint256",
          "name": "newAccPerShare",
          "type": "uint256"
        }
      ],
      "name": "RewardDeposited",
      "type": "event"
    },
    {
      "anonymous": false,
      "inputs": [
        {
          "indexed": true,
          "internalType": "address",
          "name": "user",
          "type": "address"
        },
        {
          "indexed": false,
          "internalType": "uint256",
          "name": "amount",
          "type": "uint256"
        },
        {
          "indexed": false,
          "internalType": "string",
          "name": "reason",
          "type": "string"
        }
      ],
      "name": "Slashed",
      "type": "event"
    },
    {
      "anonymous": false,
      "inputs": [
        {
          "indexed": true,
          "internalType": "address",
          "name": "user",
          "type": "address"
        },
        {
          "indexed": false,
          "internalType": "uint256",
          "name": "additionalAmount",
          "type": "uint256"
        },
        {
          "indexed": false,
          "internalType": "uint256",
          "name": "newTotal",
          "type": "uint256"
        }
      ],
      "name": "StakeIncreased",
      "type": "event"
    },
    {
      "anonymous": false,
      "inputs": [
        {
          "indexed": true,
          "internalType": "address",
          "name": "user",
          "type": "address"
        },
        {
          "indexed": false,
          "internalType": "uint256",
          "name": "amount",
          "type": "uint256"
        },
        {
          "indexed": false,
          "internalType": "enum StakingVaultV2.StakeRole",
          "name": "role",
          "type": "uint8"
        },
        {
          "indexed": false,
          "internalType": "uint256",
          "name": "regFeePaid",
          "type": "uint256"
        }
      ],
      "name": "Staked",
      "type": "event"
    },
    {
      "anonymous": false,
      "inputs": [
        {
          "indexed": false,
          "internalType": "address",
          "name": "account",
          "type": "address"
        }
      ],
      "name": "Unpaused",
      "type": "event"
    },
    {
      "anonymous": false,
      "inputs": [
        {
          "indexed": false,
          "internalType": "uint256",
          "name": "oldValue",
          "type": "uint256"
        },
        {
          "indexed": false,
          "internalType": "uint256",
          "name": "newValue",
          "type": "uint256"
        }
      ],
      "name": "UnstakeCooldownUpdated",
      "type": "event"
    },
    {
      "anonymous": false,
      "inputs": [
        {
          "indexed": true,
          "internalType": "address",
          "name": "user",
          "type": "address"
        },
        {
          "indexed": false,
          "internalType": "uint256",
          "name": "amount",
          "type": "uint256"
        }
      ],
      "name": "UnstakeRequested",
      "type": "event"
    },
    {
      "anonymous": false,
      "inputs": [
        {
          "indexed": true,
          "internalType": "address",
          "name": "user",
          "type": "address"
        },
        {
          "indexed": false,
          "internalType": "uint256",
          "name": "amount",
          "type": "uint256"
        }
      ],
      "name": "Withdrawn",
      "type": "event"
    },
    {
      "inputs": [],
      "name": "BURN_ADDRESS",
      "outputs": [
        {
          "internalType": "address",
          "name": "",
          "type": "address"
        }
      ],
      "stateMutability": "view",
      "type": "function"
    },
    {
      "inputs": [],
      "name": "accRewardPerShare",
      "outputs": [
        {
          "internalType": "uint256",
          "name": "",
          "type": "uint256"
        }
      ],
      "stateMutability": "view",
      "type": "function"
    },
    {
      "inputs": [],
      "name": "activeHolderCount",
      "outputs": [
        {
          "internalType": "uint256",
          "name": "",
          "type": "uint256"
        }
      ],
      "stateMutability": "view",
      "type": "function"
    },
    {
      "inputs": [],
      "name": "activeMinerCount",
      "outputs": [
        {
          "internalType": "uint256",
          "name": "",
          "type": "uint256"
        }
      ],
      "stateMutability": "view",
      "type": "function"
    },
    {
      "inputs": [],
      "name": "activeValidatorCount",
      "outputs": [
        {
          "internalType": "uint256",
          "name": "",
          "type": "uint256"
        }
      ],
      "stateMutability": "view",
      "type": "function"
    },
    {
      "inputs": [],
      "name": "claimRewards",
      "outputs": [],
      "stateMutability": "nonpayable",
      "type": "function"
    },
    {
      "inputs": [],
      "name": "decayInterval",
      "outputs": [
        {
          "internalType": "uint256",
          "name": "",
          "type": "uint256"
        }
      ],
      "stateMutability": "view",
      "type": "function"
    },
    {
      "inputs": [
        {
          "internalType": "uint256",
          "name": "amount",
          "type": "uint256"
        }
      ],
      "name": "depositRewards",
      "outputs": [],
      "stateMutability": "nonpayable",
      "type": "function"
    },
    {
      "inputs": [],
      "name": "feeBumpDenominator",
      "outputs": [
        {
          "internalType": "uint256",
          "name": "",
          "type": "uint256"
        }
      ],
      "stateMutability": "view",
      "type": "function"
    },
    {
      "inputs": [],
      "name": "feeBumpNumerator",
      "outputs": [
        {
          "internalType": "uint256",
          "name": "",
          "type": "uint256"
        }
      ],
      "stateMutability": "view",
      "type": "function"
    },
    {
      "inputs": [],
      "name": "getCurrentRegFee",
      "outputs": [
        {
          "internalType": "uint256",
          "name": "",
          "type": "uint256"
        }
      ],
      "stateMutability": "view",
      "type": "function"
    },
    {
      "inputs": [],
      "name": "getPoolStats",
      "outputs": [
        {
          "internalType": "uint256",
          "name": "_totalStaked",
          "type": "uint256"
        },
        {
          "internalType": "uint256",
          "name": "_activeMinerCount",
          "type": "uint256"
        },
        {
          "internalType": "uint256",
          "name": "_activeValidatorCount",
          "type": "uint256"
        },
        {
          "internalType": "uint256",
          "name": "_activeHolderCount",
          "type": "uint256"
        },
        {
          "internalType": "uint256",
          "name": "_totalRewardsDeposited",
          "type": "uint256"
        },
        {
          "internalType": "uint256",
          "name": "_totalRewardsClaimed",
          "type": "uint256"
        },
        {
          "internalType": "uint256",
          "name": "_totalFeesBurned",
          "type": "uint256"
        },
        {
          "internalType": "uint256",
          "name": "_currentRegFee",
          "type": "uint256"
        }
      ],
      "stateMutability": "view",
      "type": "function"
    },
    {
      "inputs": [
        {
          "internalType": "address",
          "name": "user",
          "type": "address"
        }
      ],
      "name": "getStakeAmount",
      "outputs": [
        {
          "internalType": "uint256",
          "name": "",
          "type": "uint256"
        }
      ],
      "stateMutability": "view",
      "type": "function"
    },
    {
      "inputs": [
        {
          "internalType": "address",
          "name": "user",
          "type": "address"
        }
      ],
      "name": "getStakeInfo",
      "outputs": [
        {
          "internalType": "uint256",
          "name": "amount",
          "type": "uint256"
        },
        {
          "internalType": "enum StakingVaultV2.StakeRole",
          "name": "role",
          "type": "uint8"
        },
        {
          "internalType": "uint256",
          "name": "stakedAt",
          "type": "uint256"
        },
        {
          "internalType": "uint256",
          "name": "unstakeRequestedAt",
          "type": "uint256"
        },
        {
          "internalType": "bool",
          "name": "isActive",
          "type": "bool"
        },
        {
          "internalType": "uint256",
          "name": "pendingReward",
          "type": "uint256"
        }
      ],
      "stateMutability": "view",
      "type": "function"
    },
    {
      "inputs": [
        {
          "internalType": "address",
          "name": "user",
          "type": "address"
        }
      ],
      "name": "isMiner",
      "outputs": [
        {
          "internalType": "bool",
          "name": "",
          "type": "bool"
        }
      ],
      "stateMutability": "view",
      "type": "function"
    },
    {
      "inputs": [
        {
          "internalType": "address",
          "name": "user",
          "type": "address"
        }
      ],
      "name": "isStaked",
      "outputs": [
        {
          "internalType": "bool",
          "name": "",
          "type": "bool"
        }
      ],
      "stateMutability": "view",
      "type": "function"
    },
    {
      "inputs": [
        {
          "internalType": "address",
          "name": "user",
          "type": "address"
        }
      ],
      "name": "isValidator",
      "outputs": [
        {
          "internalType": "bool",
          "name": "",
          "type": "bool"
        }
      ],
      "stateMutability": "view",
      "type": "function"
    },
    {
      "inputs": [],
      "name": "lastRegTimestamp",
      "outputs": [
        {
          "internalType": "uint256",
          "name": "",
          "type": "uint256"
        }
      ],
      "stateMutability": "view",
      "type": "function"
    },
    {
      "inputs": [],
      "name": "mdtToken",
      "outputs": [
        {
          "internalType": "address",
          "name": "",
          "type": "address"
        }
      ],
      "stateMutability": "view",
      "type": "function"
    },
    {
      "inputs": [],
      "name": "minHolderStake",
      "outputs": [
        {
          "internalType": "uint256",
          "name": "",
          "type": "uint256"
        }
      ],
      "stateMutability": "view",
      "type": "function"
    },
    {
      "inputs": [],
      "name": "minMinerStake",
      "outputs": [
        {
          "internalType": "uint256",
          "name": "",
          "type": "uint256"
        }
      ],
      "stateMutability": "view",
      "type": "function"
    },
    {
      "inputs": [],
      "name": "minValidatorStake",
      "outputs": [
        {
          "internalType": "uint256",
          "name": "",
          "type": "uint256"
        }
      ],
      "stateMutability": "view",
      "type": "function"
    },
    {
      "inputs": [],
      "name": "owner",
      "outputs": [
        {
          "internalType": "address",
          "name": "",
          "type": "address"
        }
      ],
      "stateMutability": "view",
      "type": "function"
    },
    {
      "inputs": [],
      "name": "pause",
      "outputs": [],
      "stateMutability": "nonpayable",
      "type": "function"
    },
    {
      "inputs": [],
      "name": "paused",
      "outputs": [
        {
          "internalType": "bool",
          "name": "",
          "type": "bool"
        }
      ],
      "stateMutability": "view",
      "type": "function"
    },
    {
      "inputs": [
        {
          "internalType": "address",
          "name": "",
          "type": "address"
        }
      ],
      "name": "pendingDeposit",
      "outputs": [
        {
          "internalType": "uint256",
          "name": "",
          "type": "uint256"
        }
      ],
      "stateMutability": "view",
      "type": "function"
    },
    {
      "inputs": [
        {
          "internalType": "address",
          "name": "user",
          "type": "address"
        }
      ],
      "name": "pendingRewards",
      "outputs": [
        {
          "internalType": "uint256",
          "name": "",
          "type": "uint256"
        }
      ],
      "stateMutability": "view",
      "type": "function"
    },
    {
      "inputs": [
        {
          "internalType": "address",
          "name": "user",
          "type": "address"
        },
        {
          "internalType": "uint256",
          "name": "amount",
          "type": "uint256"
        }
      ],
      "name": "recordDeposit",
      "outputs": [],
      "stateMutability": "nonpayable",
      "type": "function"
    },
    {
      "inputs": [
        {
          "internalType": "address[]",
          "name": "users",
          "type": "address[]"
        },
        {
          "internalType": "uint256[]",
          "name": "amounts",
          "type": "uint256[]"
        }
      ],
      "name": "recordDepositBatch",
      "outputs": [],
      "stateMutability": "nonpayable",
      "type": "function"
    },
    {
      "inputs": [],
      "name": "regBaseFee",
      "outputs": [
        {
          "internalType": "uint256",
          "name": "",
          "type": "uint256"
        }
      ],
      "stateMutability": "view",
      "type": "function"
    },
    {
      "inputs": [],
      "name": "regFeeCeiling",
      "outputs": [
        {
          "internalType": "uint256",
          "name": "",
          "type": "uint256"
        }
      ],
      "stateMutability": "view",
      "type": "function"
    },
    {
      "inputs": [],
      "name": "regFeeFloor",
      "outputs": [
        {
          "internalType": "uint256",
          "name": "",
          "type": "uint256"
        }
      ],
      "stateMutability": "view",
      "type": "function"
    },
    {
      "inputs": [],
      "name": "renounceOwnership",
      "outputs": [],
      "stateMutability": "nonpayable",
      "type": "function"
    },
    {
      "inputs": [],
      "name": "requestUnstake",
      "outputs": [],
      "stateMutability": "nonpayable",
      "type": "function"
    },
    {
      "inputs": [
        {
          "internalType": "uint256",
          "name": "_d",
          "type": "uint256"
        }
      ],
      "name": "setDecayInterval",
      "outputs": [],
      "stateMutability": "nonpayable",
      "type": "function"
    },
    {
      "inputs": [
        {
          "internalType": "uint256",
          "name": "_min",
          "type": "uint256"
        }
      ],
      "name": "setMinHolderStake",
      "outputs": [],
      "stateMutability": "nonpayable",
      "type": "function"
    },
    {
      "inputs": [
        {
          "internalType": "uint256",
          "name": "_min",
          "type": "uint256"
        }
      ],
      "name": "setMinMinerStake",
      "outputs": [],
      "stateMutability": "nonpayable",
      "type": "function"
    },
    {
      "inputs": [
        {
          "internalType": "uint256",
          "name": "_min",
          "type": "uint256"
        }
      ],
      "name": "setMinValidatorStake",
      "outputs": [],
      "stateMutability": "nonpayable",
      "type": "function"
    },
    {
      "inputs": [
        {
          "internalType": "uint256",
          "name": "_c",
          "type": "uint256"
        }
      ],
      "name": "setRegFeeCeiling",
      "outputs": [],
      "stateMutability": "nonpayable",
      "type": "function"
    },
    {
      "inputs": [
        {
          "internalType": "uint256",
          "name": "_f",
          "type": "uint256"
        }
      ],
      "name": "setRegFeeFloor",
      "outputs": [],
      "stateMutability": "nonpayable",
      "type": "function"
    },
    {
      "inputs": [
        {
          "internalType": "uint256",
          "name": "_c",
          "type": "uint256"
        }
      ],
      "name": "setUnstakeCooldown",
      "outputs": [],
      "stateMutability": "nonpayable",
      "type": "function"
    },
    {
      "inputs": [
        {
          "internalType": "address",
          "name": "user",
          "type": "address"
        },
        {
          "internalType": "uint256",
          "name": "amount",
          "type": "uint256"
        },
        {
          "internalType": "string",
          "name": "reason",
          "type": "string"
        }
      ],
      "name": "slash",
      "outputs": [],
      "stateMutability": "nonpayable",
      "type": "function"
    },
    {
      "inputs": [
        {
          "internalType": "uint256",
          "name": "amount",
          "type": "uint256"
        },
        {
          "internalType": "enum StakingVaultV2.StakeRole",
          "name": "role",
          "type": "uint8"
        }
      ],
      "name": "stake",
      "outputs": [],
      "stateMutability": "nonpayable",
      "type": "function"
    },
    {
      "inputs": [
        {
          "internalType": "address",
          "name": "",
          "type": "address"
        }
      ],
      "name": "stakes",
      "outputs": [
        {
          "internalType": "uint256",
          "name": "amount",
          "type": "uint256"
        },
        {
          "internalType": "enum StakingVaultV2.StakeRole",
          "name": "role",
          "type": "uint8"
        },
        {
          "internalType": "uint256",
          "name": "stakedAt",
          "type": "uint256"
        },
        {
          "internalType": "uint256",
          "name": "unstakeRequestedAt",
          "type": "uint256"
        },
        {
          "internalType": "bool",
          "name": "isActive",
          "type": "bool"
        },
        {
          "internalType": "uint256",
          "name": "rewardDebt",
          "type": "uint256"
        }
      ],
      "stateMutability": "view",
      "type": "function"
    },
    {
      "inputs": [],
      "name": "totalFeesBurned",
      "outputs": [
        {
          "internalType": "uint256",
          "name": "",
          "type": "uint256"
        }
      ],
      "stateMutability": "view",
      "type": "function"
    },
    {
      "inputs": [],
      "name": "totalRewardsClaimed",
      "outputs": [
        {
          "internalType": "uint256",
          "name": "",
          "type": "uint256"
        }
      ],
      "stateMutability": "view",
      "type": "function"
    },
    {
      "inputs": [],
      "name": "totalRewardsDeposited",
      "outputs": [
        {
          "internalType": "uint256",
          "name": "",
          "type": "uint256"
        }
      ],
      "stateMutability": "view",
      "type": "function"
    },
    {
      "inputs": [],
      "name": "totalSlashed",
      "outputs": [
        {
          "internalType": "uint256",
          "name": "",
          "type": "uint256"
        }
      ],
      "stateMutability": "view",
      "type": "function"
    },
    {
      "inputs": [],
      "name": "totalStaked",
      "outputs": [
        {
          "internalType": "uint256",
          "name": "",
          "type": "uint256"
        }
      ],
      "stateMutability": "view",
      "type": "function"
    },
    {
      "inputs": [
        {
          "internalType": "address",
          "name": "newOwner",
          "type": "address"
        }
      ],
      "name": "transferOwnership",
      "outputs": [],
      "stateMutability": "nonpayable",
      "type": "function"
    },
    {
      "inputs": [],
      "name": "unpause",
      "outputs": [],
      "stateMutability": "nonpayable",
      "type": "function"
    },
    {
      "inputs": [],
      "name": "unstakeCooldown",
      "outputs": [
        {
          "internalType": "uint256",
          "name": "",
          "type": "uint256"
        }
      ],
      "stateMutability": "view",
      "type": "function"
    },
    {
      "inputs": [],
      "name": "withdraw",
      "outputs": [],
      "stateMutability": "nonpayable",
      "type": "function"
    }
  ],
  "bytecode": "0x60803461014f57601f61201238819003918201601f19168301916001600160401b038311848410176101545780849260209460405283398101031261014f57516001600160a01b038082169182900361014f57600160005560015460405191339082167f8be0079c531659141344cd1fd0a4f28419497f9722a3daafe3b4186f6b6457e0600080a36001600160a81b0319163360ff60a01b1916176001908155633b9aca00600455640ba43b740060058190556305f5e100600681905562093a80600755631dcd6500600e55600f55601055610e106011556014556008601555811561010d5750600280546001600160a01b03191691909117905542601255604051611ea7908161016b8239f35b62461bcd60e51b815260206004820152601560248201527f496e76616c696420746f6b656e206164647265737300000000000000000000006044820152606490fd5b600080fd5b634e487b7160e01b600052604160045260246000fdfe608060408181526004918236101561001657600080fd5b600092833560e01c918263017ddd3514611487575081630c2eb4031461144f57816310087fb11461141857816316934fc4146113b8578163180c0624146113995781631e578bae146112e05781631f4c74fd146112c15781632340e8d3146112a257816331d7a2621461127c578163372500ab146112535781633a64b4921461121b5781633ccfd60b146110645781633f4ba83a14610fc857816342d18cca14610faa5781634911e5be14610f345781634ffacbc514610f125781635c975abb14610eeb5781636177fd1814610eab57816366de6f0714610e87578163678b3ee214610d2a5781636c53f79614610d0b578163701b70ac14610c9f578163715018a614610c3f57816372ccd69e14610c205781637eefd5ae14610c01578163805f231e14610bdf578163817b1cd214610bc05781638456cb5914610b5f5781638a76004814610b405781638bdf67f214610a4e5781638da5cb5b14610a255781638f13429a14610a06578163939d6237146109e7578163a201bbdd146109c8578163a3158b5314610951578163a34b0f7614610932578163b6334aee14610913578163b664c3e0146107da578163b6fbdc3f146107bb578163bad845331461079c578163bbb851881461073b578163c345315314610697578163c69aaedf14610678578163d11fa42914610603578163d36015851461058c578163d90ac4311461056d578163e1d3ac2c1461054e578163e98154301461052c578163f2fde38b14610460578163f70b5c0614610437578163facd743b146103b7578163fc63958e1461028b575063fccc28131461026c57600080fd5b346102875781600319360112610287576020905161dead8152f35b5080fd5b9050346103b357826003193601126103b3576102a5611cc3565b338352600a602052818320908082016102c160ff825416611c43565b60038301805461037c576102d433611d60565b429055805460ff19169055600182015460ff16908082101561036957506001810361033c5750610305600b54611cb6565b600b555b5490519081527f828764c21e74c28710e19919735825aba966621c95cbd913f8ed65a2d298f48c60203392a26001815580f35b6002036103565761034e600c54611cb6565b600c55610309565b610361600d54611cb6565b600d55610309565b634e487b7160e01b855260219052602484fd5b845162461bcd60e51b81526020818501526011602482015270105b1c9958591e481c995c5d595cdd1959607a1b6044820152606490fd5b8280fd5b838334610287576020366003190112610287576001600160a01b036103da6114a3565b168252600a6020528082209160ff84840154169283610400575b60208484519015158152f35b60ff91929350600101541692808410156104245750506002602092149083806103f4565b634e487b7160e01b825260219052602490fd5b50503461028757816003193601126102875760025490516001600160a01b039091168152602090f35b9050346103b35760203660031901126103b35761047b6114a3565b90610484611e19565b6001600160a01b039182169283156104da575050600154826bffffffffffffffffffffffff60a01b821617600155167f8be0079c531659141344cd1fd0a4f28419497f9722a3daafe3b4186f6b6457e08380a380f35b906020608492519162461bcd60e51b8352820152602660248201527f4f776e61626c653a206e6577206f776e657220697320746865207a65726f206160448201526564647265737360d01b6064820152fd5b83903461028757602036600319011261028757610547611e19565b3560115580f35b5050346102875781600319360112610287576020906012549051908152f35b505034610287578160031936011261028757602090600d549051908152f35b919050346103b35760203660031901126103b3577fe2b67d0d7e29dde0f951b80feee996892a097edff2b2f9ad81de807e4231ed8691356105cb611e19565b801515806105f3575b6105dd90611bbd565b600554908060055582519182526020820152a180f35b50655af3107a40008111156105d4565b919050346103b35760203660031901126103b357817fbf4554f905e1b4391d5cef31c1e7b4285a1974aae46774539ee6a274f7fdcb249235610643611e19565b80151580610668575b61065590611bbd565b808254925582519182526020820152a180f35b506509184e72a00081111561064c565b505034610287578160031936011261028757602090600b549051908152f35b838334610287576020366003190112610287576106f9906001600160a01b036106be6114a3565b168352600a6020528083209290835493846106fd575b60ff6001820154169560ff6002830154916003840154930154169251968796876114e1565b0390f35b670de0b6b3a7640000610712601654876115b5565b04600582015490818111610728575b50506106d4565b610733929450611585565b918680610721565b5050346102875781600319360112610287576101009060085490600b5490600c54600d54601754906018549260135494610773611bf8565b96815198895260208901528701526060860152608085015260a084015260c083015260e0820152f35b5050346102875781600319360112610287576020906015549051908152f35b505034610287578160031936011261028757602090600e549051908152f35b919050346103b357806003193601126103b35767ffffffffffffffff91803583811161090f5761080d9036908301611513565b909360243590811161090b576108269036908401611513565b919092610831611e19565b8282036108d65750855b818110610846578680f35b80827f741a0277a612f71e4836430fe80cc831a4e28c01d2121c0ab1a4451bc88f909e6108766001948789611c7c565b358961089261088d86888060a01b03968794611c7c565b611ca2565b168b52602090600382526108aa8a8d209182546115a8565b90556108ba61088d85888d611c7c565b926108c685898b611c7c565b35938a519485521692a20161083b565b606490602086519162461bcd60e51b8352820152600f60248201526e098cadccee8d040dad2e6dac2e8c6d608b1b6044820152fd5b8580fd5b8480fd5b5050346102875781600319360112610287576020906011549051908152f35b5050346102875781600319360112610287576020906018549051908152f35b919050346103b35760203660031901126103b3577f2a39b166fe0871f09742b63b77a4de216789aaa99f883b61b9b0299f65d1a6f89135610990611e19565b610e10811015806109bb575b6109a590611bbd565b600754908060075582519182526020820152a180f35b506276a70081111561099c565b5050346102875781600319360112610287576020906009549051908152f35b5050346102875781600319360112610287576020906016549051908152f35b505034610287578160031936011261028757602090600f549051908152f35b50503461028757816003193601126102875760015490516001600160a01b039091168152602090f35b838334610287576020366003190112610287578235610a6b611e19565b610a73611cc3565b6008548015610b10578115610a888115611544565b670de0b6b3a76400009081840291848304141715610afd57610ad07fbf2ebcc991369bcf488ef5738352a5d8998bd7a2c138128ca91ec96afe123fd6949392610ad8926115c8565b6016546115a8565b80601655610ae8826017546115a8565b60175582519182526020820152a16001815580f35b634e487b7160e01b855260118652602485fd5b825162461bcd60e51b8152602081870152600a6024820152694e6f207374616b65727360b01b6044820152606490fd5b5050346102875781600319360112610287576020906014549051908152f35b50503461028757816003193601126102875760207f62e78cea01bee320cd4e420270b5ea74000d11b0c9f74754ebdbfc544b05a25891610b9d611e19565b610ba5611d19565b6001805460ff60a01b1916600160a01b17905551338152a180f35b5050346102875781600319360112610287576020906008549051908152f35b83903461028757602036600319011261028757610bfa611e19565b3560105580f35b5050346102875781600319360112610287576020906007549051908152f35b5050346102875781600319360112610287576020906013549051908152f35b8334610c9c5780600319360112610c9c57610c58611e19565b600180546001600160a01b0319811690915581906001600160a01b03167f8be0079c531659141344cd1fd0a4f28419497f9722a3daafe3b4186f6b6457e08280a380f35b80fd5b838334610287576020366003190112610287576001600160a01b03610cc26114a3565b168252600a6020528082209160ff84840154169283610ce75760208484519015158152f35b60ff91929350600101541692808410156104245750506001602092149083806103f4565b5050346102875781600319360112610287576020906010549051908152f35b919050346103b35760603660031901126103b357610d466114a3565b6024359060443567ffffffffffffffff91828211610e835736602383011215610e835781860135928311610e83573660248484010111610e8357610d88611e19565b610d90611cc3565b6001600160a01b0316808752600a6020528487208087015491969091610db89060ff16611c43565b815490818611610e4a575092602485938293610df87f7e947095ed288d8885423bdaef4015b7420ffa9b84d62ef67c402e8bc36a8ea99998606098611585565b9055610e0685600854611585565b600855610e15856009546115a8565b600955828751978896875280602088015286015201848401378181018301879052601f01601f19168101030190a26001815580f35b606490602088519162461bcd60e51b83528201526013602482015272536c6173682065786365656473207374616b6560681b6044820152fd5b8680fd5b505034610287578160031936011261028757602090610ea4611bf8565b9051908152f35b9050346103b35760203660031901126103b35760209260ff919083906001600160a01b03610ed76114a3565b168152600a86522001541690519015158152f35b50503461028757816003193601126102875760209060ff60015460a01c1690519015158152f35b83903461028757602036600319011261028757610f2d611e19565b35600f5580f35b919050346103b35760203660031901126103b3577f4334dca64f00b974f4b5965ddbb8affcc1c71bb0dd18c41e909e24197833da2b9135610f73611e19565b80151580610f9b575b610f8590611bbd565b600654908060065582519182526020820152a180f35b5064e8d4a51000811115610f7c565b9050346103b357826003193601126103b35760209250549051908152f35b9050346103b357826003193601126103b357610fe2611e19565b6001549060ff8260a01c161561102a575060ff60a01b1916600155513381527f5db9ee0a495bf2e6ff9c91a7834c1ba4fdd244a5e8aa4e537bd38aeae4b073aa90602090a180f35b606490602084519162461bcd60e51b8352820152601460248201527314185d5cd8589b194e881b9bdd081c185d5cd95960621b6044820152fd5b919050346103b357826003193601126103b35761107f611cc3565b338352602090600a825280842060ff84820154166111d95760038101805480156111a1576007546110af916115a8565b421061116757815494851561112e5750600582878093817f7084f5476618d8e60b11ef0d7d3f06914655adb8793e28ff7f018d4c76d505d5989796556001830160ff19815416905555015561110684600854611585565b6008553385526003825280852061111e8582546115a8565b9055519283523392a26001815580f35b835162461bcd60e51b815290810185905260136024820152724e6f7468696e6720746f20776974686472617760681b6044820152606490fd5b50505162461bcd60e51b815291820152601460248201527310dbdbdb191bdddb881b9bdd08195b185c1cd95960621b604482015260649150fd5b835162461bcd60e51b81528087018690526012602482015271139bc81d5b9cdd185ad9481c995c5d595cdd60721b6044820152606490fd5b505162461bcd60e51b815291820152601a60248201527f4d757374207265717565737420756e7374616b65206669727374000000000000604482015260649150fd5b5050346102875760203660031901126102875760209181906001600160a01b036112436114a3565b1681526003845220549051908152f35b8334610c9c5780600319360112610c9c5761126c611cc3565b61127533611d60565b6001815580f35b50503461028757602036600319011261028757602090610ea461129d6114a3565b611b65565b505034610287578160031936011261028757602090600c549051908152f35b5050346102875781600319360112610287576020906017549051908152f35b919050346103b357806003193601126103b3576112fb6114a3565b9060243591611308611e19565b6001600160a01b03169283156113685750816020916113497f741a0277a612f71e4836430fe80cc831a4e28c01d2121c0ab1a4451bc88f909e941515611544565b8486526003835280862061135e8382546115a8565b905551908152a280f35b6020606492519162461bcd60e51b8352820152600c60248201526b24b73b30b634b2103ab9b2b960a11b6044820152fd5b5050346102875781600319360112610287576020906006549051908152f35b828434610c9c576020366003190112610c9c576106f99082906001600160a01b036113e16114a3565b168152600a602052209182549260ff600182015416946002820154600560ff600385015493850154169301549351968796876114e1565b919050346103b35736600319011261028757602435818110156103b35761127591611441611cc3565b611449611d19565b356115f7565b5050346102875760203660031901126102875760209181906001600160a01b036114776114a3565b168152600a845220549051908152f35b8490346102875781600319360112610287576020906005548152f35b600435906001600160a01b03821682036114b957565b600080fd5b9060048210156114cb5752565b634e487b7160e01b600052602160045260246000fd5b926114fe60a095929897969360c0860199865260208601906114be565b60408401526060830152151560808201520152565b9181601f840112156114b95782359167ffffffffffffffff83116114b9576020808501948460051b0101116114b957565b1561154b57565b60405162461bcd60e51b81526020600482015260126024820152710416d6f756e74206d757374206265203e20360741b6044820152606490fd5b9190820391821161159257565b634e487b7160e01b600052601160045260246000fd5b9190820180921161159257565b8181029291811591840414171561159257565b81156115d2570490565b634e487b7160e01b600052601260045260246000fd5b60001981146115925760010190565b60049291838110159081611b50576001811490818015611b42575b838115611b1d575b5015611aea5761162b841515611544565b600092338452602090600a825260409384862060ff8a8201541661196057508161194d5760028414918215611936576005545b88106118fd5761166c611bf8565b9661167789896115a8565b338252600386528088832054106118a3573382526003865261169d888320918254611585565b90556116ab886013546115a8565b6013556116d2600e546116cc6116c3601454836115b5565b601554906115c8565b906115a8565b80600e5560105480911161189a575b5042601255600e54875190898252868201527f8ded03e7039a8dea1f36b98e438f2db6a5fbc9f3a45906048791a2dd4c4902cb883392a2670de0b6b3a764000061172d6016548b6115b5565b049087519260c0840184811067ffffffffffffffff8211176118865789528a8452868401906118735780888e9252898501428152606086019184835260808701946001865260a08801968752338152600a8b528c8120975188556001880191519485101561185c57509e6118069b9c9d9e9f9260ff9260059796959484199585878354169116179055516002890155516003880155860192511515918354169116179055519101556117e1886008546115a8565b6008551561183157506117f5600b546115e8565b600b555b83519586528501906114be565b8201527fbde7f0ba1630d25515c7ab99ba47d5640b7ffb4c673b2a5464ae67919558929860603392a2565b1561184957611841600c546115e8565b600c556117f9565b611854600d546115e8565b600d556117f9565b9150506024915060218f634e487b7160e01b835252fd5b634e487b7160e01b825260218d52602482fd5b50634e487b7160e01b825260418d52602482fd5b600e55386116e1565b875162461bcd60e51b8152808d01879052602e60248201527f496e73756666696369656e74206465706f736974202d2073656e64204d44542060448201526d1d1bc81d985d5b1d08199a5c9cdd60921b6064820152608490fd5b855162461bcd60e51b8152808b01859052601360248201527242656c6f77206d696e696d756d207374616b6560681b6044820152606490fd5b5085811561194557895461165e565b60065461165e565b634e487b7160e01b865260218952602486fd5b949598929391905060ff60018601541690611ad75782811015611ad75703611a96576003830154611a5f5733875260038252848488205410611a275750827fe6afb5ca7cc84435baf09da39fcb42fc0fb8bdfef6c3ff2ce9fce2c70a18f8219495966119cb33611d60565b33815260038352206119de868254611585565b90556119eb8583546115a8565b82556119f9856008546115a8565b6008558154916005670de0b6b3a7640000611a16601654866115b5565b0491015582519485528401523392a2565b60649184519162461bcd60e51b83528201526014602482015273125b9cdd59999a58da595b9d0819195c1bdcda5d60621b6044820152fd5b60649184519162461bcd60e51b83528201526013602482015272556e7374616b6520696e2070726f677265737360681b6044820152fd5b60649184519162461bcd60e51b8352820152601f60248201527f43616e6e6f74206368616e676520726f6c65207768696c65207374616b6564006044820152fd5b634e487b7160e01b895260218352602489fd5b60405162461bcd60e51b8152602081880152600c60248201526b496e76616c696420726f6c6560a01b6044820152606490fd5b9050611b2d57600381148361161a565b602186634e487b7160e01b6000525260246000fd5b506000925060028114611612565b602185634e487b7160e01b6000525260246000fd5b6001600160a01b03166000908152600a6020526040902080548015611bb657670de0b6b3a7640000611b9c600592601654906115b5565b04910154808211600014611bb657611bb391611585565b90565b5050600090565b15611bc457565b60405162461bcd60e51b815260206004820152600c60248201526b4f7574206f662072616e676560a01b6044820152606490fd5b600e546012548015611c3f57611c11611c1a9142611585565b601154906115c8565b60148111611c37575b1c600f54808210611c32575090565b905090565b506014611c23565b5090565b15611c4a57565b60405162461bcd60e51b815260206004820152600a602482015269139bdd081cdd185ad95960b21b6044820152606490fd5b9190811015611c8c5760051b0190565b634e487b7160e01b600052603260045260246000fd5b356001600160a01b03811681036114b95790565b8015611592576000190190565b600260005414611cd4576002600055565b60405162461bcd60e51b815260206004820152601f60248201527f5265656e7472616e637947756172643a207265656e7472616e742063616c6c006044820152606490fd5b60ff60015460a01c16611d2857565b60405162461bcd60e51b815260206004820152601060248201526f14185d5cd8589b194e881c185d5cd95960821b6044820152606490fd5b6001600160a01b03166000818152600a6020526040902080548015611e1457670de0b6b3a7640000611d97600592601654906115b5565b049101805490818311611dab575b50505050565b82611dd96020937f106f923f993c2149d49b4255ff723acafa1f2d94393f561d3eda32ae348f724195611585565b915583600052600382526040600020611df38282546115a8565b9055611e01816018546115a8565b601855604051908152a238808080611da5565b505050565b6001546001600160a01b03163303611e2d57565b606460405162461bcd60e51b815260206004820152602060248201527f4f776e61626c653a2063616c6c6572206973206e6f7420746865206f776e65726044820152fdfea26469706673582212207ee42f2f1c48708007e51f3ac32e70e9f9c5383a1e948197cbb1921936e537a964736f6c63430008180033",
  "linkReferences": {},
  "deployedLinkReferences": {}
}