{
  "_format": "hh-sol-artifact-1",
  "contractName": "SubnetRegistryV2",
  "sourceName": "src/SubnetRegistryV2.sol",
  "abi": [
    {
      "inputs": [
        {
          "internalType": "address",
          "name": "_mdtToken",
          "type": "address"
        },
        {
          "internalType": "address",
          "name": "_treasury",
          "type": "address"
        },
        {
          "internalType": "address",
          "name": "_stakingVault",
          "type": "address"
        }
      ],
      "stateMutability": "nonpayable",
      "type": "constructor"
    },
    {
      "anonymous": false,
      "inputs": [
        {
          "indexed": true,
          "internalType": "uint256",
          "name": "taskId",
          "type": "uint256"
        },
        {
          "indexed": false,
          "internalType": "uint256",
          "name": "minerIndex",
          "type": "uint256"
        },
        {
          "indexed": false,
          "internalType": "uint256",
          "name": "medianScore",
          "type": "uint256"
        },
        {
          "indexed": false,
          "internalType": "uint256",
          "name": "validatorCount",
          "type": "uint256"
        }
      ],
      "name": "ConsensusReached",
      "type": "event"
    },
    {
      "anonymous": false,
      "inputs": [
        {
          "indexed": true,
          "internalType": "address",
          "name": "account",
          "type": "address"
        },
        {
          "indexed": false,
          "internalType": "uint256",
          "name": "amount",
          "type": "uint256"
        }
      ],
      "name": "EarningsWithdrawn",
      "type": "event"
    },
    {
      "anonymous": false,
      "inputs": [
        {
          "indexed": true,
          "internalType": "uint256",
          "name": "subnetId",
          "type": "uint256"
        },
        {
          "indexed": true,
          "internalType": "address",
          "name": "miner",
          "type": "address"
        }
      ],
      "name": "MinerRegistered",
      "type": "event"
    },
    {
      "anonymous": false,
      "inputs": [
        {
          "indexed": true,
          "internalType": "address",
          "name": "previousOwner",
          "type": "address"
        },
        {
          "indexed": true,
          "internalType": "address",
          "name": "newOwner",
          "type": "address"
        }
      ],
      "name": "OwnershipTransferred",
      "type": "event"
    },
    {
      "anonymous": false,
      "inputs": [
        {
          "indexed": false,
          "internalType": "address",
          "name": "account",
          "type": "address"
        }
      ],
      "name": "Paused",
      "type": "event"
    },
    {
      "anonymous": false,
      "inputs": [
        {
          "indexed": true,
          "internalType": "address",
          "name": "validator",
          "type": "address"
        },
        {
          "indexed": false,
          "internalType": "uint256",
          "name": "fromSubnet",
          "type": "uint256"
        },
        {
          "indexed": false,
          "internalType": "uint256",
          "name": "toSubnet",
          "type": "uint256"
        },
        {
          "indexed": false,
          "internalType": "uint256",
          "name": "portedScore",
          "type": "uint256"
        }
      ],
      "name": "ReputationPorted",
      "type": "event"
    },
    {
      "anonymous": false,
      "inputs": [
        {
          "indexed": true,
          "internalType": "address",
          "name": "validator",
          "type": "address"
        },
        {
          "indexed": false,
          "internalType": "uint256",
          "name": "score",
          "type": "uint256"
        },
        {
          "indexed": false,
          "internalType": "uint256",
          "name": "totalValidations",
          "type": "uint256"
        },
        {
          "indexed": false,
          "internalType": "uint256",
          "name": "accurateValidations",
          "type": "uint256"
        }
      ],
      "name": "ReputationUpdated",
      "type": "event"
    },
    {
      "anonymous": false,
      "inputs": [
        {
          "indexed": true,
          "internalType": "uint256",
          "name": "taskId",
          "type": "uint256"
        },
        {
          "indexed": false,
          "internalType": "uint256",
          "name": "amount",
          "type": "uint256"
        }
      ],
      "name": "StakingPoolFunded",
      "type": "event"
    },
    {
      "anonymous": false,
      "inputs": [
        {
          "indexed": true,
          "internalType": "uint256",
          "name": "taskId",
          "type": "uint256"
        },
        {
          "indexed": true,
          "internalType": "address",
          "name": "miner",
          "type": "address"
        },
        {
          "indexed": false,
          "internalType": "string",
          "name": "resultHash",
          "type": "string"
        }
      ],
      "name": "SubmissionReceived",
      "type": "event"
    },
    {
      "anonymous": false,
      "inputs": [
        {
          "indexed": true,
          "internalType": "uint256",
          "name": "taskId",
          "type": "uint256"
        },
        {
          "indexed": true,
          "internalType": "address",
          "name": "miner",
          "type": "address"
        },
        {
          "indexed": false,
          "internalType": "uint256",
          "name": "score",
          "type": "uint256"
        },
        {
          "indexed": false,
          "internalType": "address",
          "name": "validator",
          "type": "address"
        }
      ],
      "name": "SubmissionValidated",
      "type": "event"
    },
    {
      "anonymous": false,
      "inputs": [
        {
          "indexed": true,
          "internalType": "uint256",
          "name": "subnetId",
          "type": "uint256"
        },
        {
          "indexed": false,
          "internalType": "string",
          "name": "name",
          "type": "string"
        },
        {
          "indexed": true,
          "internalType": "address",
          "name": "owner",
          "type": "address"
        },
        {
          "indexed": false,
          "internalType": "uint256",
          "name": "feeRate",
          "type": "uint256"
        }
      ],
      "name": "SubnetCreated",
      "type": "event"
    },
    {
      "anonymous": false,
      "inputs": [
        {
          "indexed": true,
          "internalType": "uint256",
          "name": "taskId",
          "type": "uint256"
        },
        {
          "indexed": true,
          "internalType": "uint256",
          "name": "subnetId",
          "type": "uint256"
        },
        {
          "indexed": true,
          "internalType": "address",
          "name": "winner",
          "type": "address"
        },
        {
          "indexed": false,
          "internalType": "uint256",
          "name": "minerReward",
          "type": "uint256"
        },
        {
          "indexed": false,
          "internalType": "uint256",
          "name": "protocolFee",
          "type": "uint256"
        },
        {
          "indexed": false,
          "internalType": "uint256",
          "name": "stakingPoolFee",
          "type": "uint256"
        }
      ],
      "name": "TaskCompleted",
      "type": "event"
    },
    {
      "anonymous": false,
      "inputs": [
        {
          "indexed": true,
          "internalType": "uint256",
          "name": "taskId",
          "type": "uint256"
        },
        {
          "indexed": true,
          "internalType": "uint256",
          "name": "subnetId",
          "type": "uint256"
        },
        {
          "indexed": true,
          "internalType": "address",
          "name": "requester",
          "type": "address"
        },
        {
          "indexed": false,
          "internalType": "uint256",
          "name": "rewardAmount",
          "type": "uint256"
        }
      ],
      "name": "TaskCreated",
      "type": "event"
    },
    {
      "anonymous": false,
      "inputs": [
        {
          "indexed": false,
          "internalType": "address",
          "name": "account",
          "type": "address"
        }
      ],
      "name": "Unpaused",
      "type": "event"
    },
    {
      "anonymous": false,
      "inputs": [
        {
          "indexed": true,
          "internalType": "uint256",
          "name": "subnetId",
          "type": "uint256"
        },
        {
          "indexed": true,
          "internalType": "address",
          "name": "validator",
          "type": "address"
        }
      ],
      "name": "ValidatorAdded",
      "type": "event"
    },
    {
      "anonymous": false,
      "inputs": [
        {
          "indexed": true,
          "internalType": "uint256",
          "name": "taskId",
          "type": "uint256"
        },
        {
          "indexed": true,
          "internalType": "address",
          "name": "validator",
          "type": "address"
        },
        {
          "indexed": false,
          "internalType": "uint256",
          "name": "deviation",
          "type": "uint256"
        }
      ],
      "name": "ValidatorPenalized",
      "type": "event"
    },
    {
      "anonymous": false,
      "inputs": [
        {
          "indexed": true,
          "internalType": "uint256",
          "name": "subnetId",
          "type": "uint256"
        },
        {
          "indexed": true,
          "internalType": "address",
          "name": "validator",
          "type": "address"
        }
      ],
      "name": "ValidatorRemoved",
      "type": "event"
    },
    {
      "anonymous": false,
      "inputs": [
        {
          "indexed": true,
          "internalType": "uint256",
          "name": "taskId",
          "type": "uint256"
        },
        {
          "indexed": true,
          "internalType": "address",
          "name": "validator",
          "type": "address"
        },
        {
          "indexed": false,
          "internalType": "uint256",
          "name": "reward",
          "type": "uint256"
        },
        {
          "indexed": false,
          "internalType": "uint256",
          "name": "deviation",
          "type": "uint256"
        }
      ],
      "name": "ValidatorRewarded",
      "type": "event"
    },
    {
      "inputs": [],
      "name": "HIGH_VALUE_THRESHOLD",
      "outputs": [
        {
          "internalType": "uint256",
          "name": "",
          "type": "uint256"
        }
      ],
      "stateMutability": "view",
      "type": "function"
    },
    {
      "inputs": [],
      "name": "MAX_SUBNET_FEE_RATE",
      "outputs": [
        {
          "internalType": "uint256",
          "name": "",
          "type": "uint256"
        }
      ],
      "stateMutability": "view",
      "type": "function"
    },
    {
      "inputs": [],
      "name": "PORT_COOLDOWN",
      "outputs": [
        {
          "internalType": "uint256",
          "name": "",
          "type": "uint256"
        }
      ],
      "stateMutability": "view",
      "type": "function"
    },
    {
      "inputs": [],
      "name": "PROTOCOL_FEE_RATE",
      "outputs": [
        {
          "internalType": "uint256",
          "name": "",
          "type": "uint256"
        }
      ],
      "stateMutability": "view",
      "type": "function"
    },
    {
      "inputs": [],
      "name": "REPUTATION_DECAY_FACTOR",
      "outputs": [
        {
          "internalType": "uint256",
          "name": "",
          "type": "uint256"
        }
      ],
      "stateMutability": "view",
      "type": "function"
    },
    {
      "inputs": [],
      "name": "STAKING_POOL_RATE",
      "outputs": [
        {
          "internalType": "uint256",
          "name": "",
          "type": "uint256"
        }
      ],
      "stateMutability": "view",
      "type": "function"
    },
    {
      "inputs": [],
      "name": "SUBNET_REGISTRATION_COST",
      "outputs": [
        {
          "internalType": "uint256",
          "name": "",
          "type": "uint256"
        }
      ],
      "stateMutability": "view",
      "type": "function"
    },
    {
      "inputs": [],
      "name": "ULTRA_VALUE_THRESHOLD",
      "outputs": [
        {
          "internalType": "uint256",
          "name": "",
          "type": "uint256"
        }
      ],
      "stateMutability": "view",
      "type": "function"
    },
    {
      "inputs": [],
      "name": "VALIDATOR_REWARD_RATE",
      "outputs": [
        {
          "internalType": "uint256",
          "name": "",
          "type": "uint256"
        }
      ],
      "stateMutability": "view",
      "type": "function"
    },
    {
      "inputs": [
        {
          "internalType": "uint256",
          "name": "subnetId",
          "type": "uint256"
        },
        {
          "internalType": "address",
          "name": "validator",
          "type": "address"
        }
      ],
      "name": "addValidator",
      "outputs": [],
      "stateMutability": "nonpayable",
      "type": "function"
    },
    {
      "inputs": [
        {
          "internalType": "uint256",
          "name": "subnetId",
          "type": "uint256"
        },
        {
          "internalType": "string",
          "name": "taskHash",
          "type": "string"
        },
        {
          "internalType": "uint256",
          "name": "rewardAmount",
          "type": "uint256"
        },
        {
          "internalType": "uint256",
          "name": "duration",
          "type": "uint256"
        }
      ],
      "name": "createTask",
      "outputs": [
        {
          "internalType": "uint256",
          "name": "taskId",
          "type": "uint256"
        }
      ],
      "stateMutability": "nonpayable",
      "type": "function"
    },
    {
      "inputs": [
        {
          "internalType": "uint256",
          "name": "taskId",
          "type": "uint256"
        }
      ],
      "name": "expireTask",
      "outputs": [],
      "stateMutability": "nonpayable",
      "type": "function"
    },
    {
      "inputs": [
        {
          "internalType": "uint256",
          "name": "taskId",
          "type": "uint256"
        }
      ],
      "name": "finalizeTask",
      "outputs": [],
      "stateMutability": "nonpayable",
      "type": "function"
    },
    {
      "inputs": [
        {
          "internalType": "uint256",
          "name": "subnetId",
          "type": "uint256"
        },
        {
          "internalType": "uint256",
          "name": "rewardAmount",
          "type": "uint256"
        }
      ],
      "name": "getAdaptiveMinValidations",
      "outputs": [
        {
          "internalType": "uint256",
          "name": "",
          "type": "uint256"
        }
      ],
      "stateMutability": "view",
      "type": "function"
    },
    {
      "inputs": [
        {
          "internalType": "uint256",
          "name": "id",
          "type": "uint256"
        }
      ],
      "name": "getSubmissionCount",
      "outputs": [
        {
          "internalType": "uint256",
          "name": "",
          "type": "uint256"
        }
      ],
      "stateMutability": "view",
      "type": "function"
    },
    {
      "inputs": [
        {
          "internalType": "uint256",
          "name": "id",
          "type": "uint256"
        }
      ],
      "name": "getSubmissions",
      "outputs": [
        {
          "components": [
            {
              "internalType": "address",
              "name": "miner",
              "type": "address"
            },
            {
              "internalType": "string",
              "name": "resultHash",
              "type": "string"
            },
            {
              "internalType": "uint256",
              "name": "score",
              "type": "uint256"
            },
            {
              "internalType": "bool",
              "name": "validated",
              "type": "bool"
            },
            {
              "internalType": "uint256",
              "name": "submittedAt",
              "type": "uint256"
            },
            {
              "internalType": "uint256",
              "name": "validationCount",
              "type": "uint256"
            }
          ],
          "internalType": "struct SubnetRegistryV2.MinerSubmission[]",
          "name": "",
          "type": "tuple[]"
        }
      ],
      "stateMutability": "view",
      "type": "function"
    },
    {
      "inputs": [
        {
          "internalType": "uint256",
          "name": "id",
          "type": "uint256"
        }
      ],
      "name": "getSubnet",
      "outputs": [
        {
          "components": [
            {
              "internalType": "uint256",
              "name": "id",
              "type": "uint256"
            },
            {
              "internalType": "string",
              "name": "name",
              "type": "string"
            },
            {
              "internalType": "string",
              "name": "description",
              "type": "string"
            },
            {
              "internalType": "address",
              "name": "owner",
              "type": "address"
            },
            {
              "internalType": "uint256",
              "name": "feeRate",
              "type": "uint256"
            },
            {
              "internalType": "uint256",
              "name": "minTaskReward",
              "type": "uint256"
            },
            {
              "internalType": "uint256",
              "name": "totalVolume",
              "type": "uint256"
            },
            {
              "internalType": "uint256",
              "name": "totalTasks",
              "type": "uint256"
            },
            {
              "internalType": "uint256",
              "name": "activeMiners",
              "type": "uint256"
            },
            {
              "internalType": "enum SubnetRegistryV2.SubnetStatus",
              "name": "status",
              "type": "uint8"
            },
            {
              "internalType": "uint256",
              "name": "createdAt",
              "type": "uint256"
            }
          ],
          "internalType": "struct SubnetRegistryV2.Subnet",
          "name": "",
          "type": "tuple"
        }
      ],
      "stateMutability": "view",
      "type": "function"
    },
    {
      "inputs": [
        {
          "internalType": "uint256",
          "name": "id",
          "type": "uint256"
        }
      ],
      "name": "getTask",
      "outputs": [
        {
          "components": [
            {
              "internalType": "uint256",
              "name": "id",
              "type": "uint256"
            },
            {
              "internalType": "uint256",
              "name": "subnetId",
              "type": "uint256"
            },
            {
              "internalType": "address",
              "name": "requester",
              "type": "address"
            },
            {
              "internalType": "string",
              "name": "taskHash",
              "type": "string"
            },
            {
              "internalType": "uint256",
              "name": "totalDeposit",
              "type": "uint256"
            },
            {
              "internalType": "uint256",
              "name": "rewardAmount",
              "type": "uint256"
            },
            {
              "internalType": "uint256",
              "name": "protocolFee",
              "type": "uint256"
            },
            {
              "internalType": "uint256",
              "name": "validatorReward",
              "type": "uint256"
            },
            {
              "internalType": "uint256",
              "name": "stakingPoolFee",
              "type": "uint256"
            },
            {
              "internalType": "uint256",
              "name": "subnetFee",
              "type": "uint256"
            },
            {
              "internalType": "uint256",
              "name": "deadline",
              "type": "uint256"
            },
            {
              "internalType": "enum SubnetRegistryV2.TaskStatus",
              "name": "status",
              "type": "uint8"
            },
            {
              "internalType": "address",
              "name": "winningMiner",
              "type": "address"
            },
            {
              "internalType": "uint256",
              "name": "winningScore",
              "type": "uint256"
            },
            {
              "internalType": "uint256",
              "name": "createdAt",
              "type": "uint256"
            }
          ],
          "internalType": "struct SubnetRegistryV2.Task",
          "name": "",
          "type": "tuple"
        }
      ],
      "stateMutability": "view",
      "type": "function"
    },
    {
      "inputs": [
        {
          "internalType": "address",
          "name": "v",
          "type": "address"
        }
      ],
      "name": "getValidatorReputation",
      "outputs": [
        {
          "internalType": "uint256",
          "name": "totalValidations",
          "type": "uint256"
        },
        {
          "internalType": "uint256",
          "name": "accurateValidations",
          "type": "uint256"
        },
        {
          "internalType": "uint256",
          "name": "reputationScore",
          "type": "uint256"
        },
        {
          "internalType": "uint256",
          "name": "lastActiveAt",
          "type": "uint256"
        }
      ],
      "stateMutability": "view",
      "type": "function"
    },
    {
      "inputs": [
        {
          "internalType": "uint256",
          "name": "",
          "type": "uint256"
        },
        {
          "internalType": "address",
          "name": "",
          "type": "address"
        }
      ],
      "name": "hasMinerSubmitted",
      "outputs": [
        {
          "internalType": "bool",
          "name": "",
          "type": "bool"
        }
      ],
      "stateMutability": "view",
      "type": "function"
    },
    {
      "inputs": [
        {
          "internalType": "uint256",
          "name": "",
          "type": "uint256"
        },
        {
          "internalType": "uint256",
          "name": "",
          "type": "uint256"
        },
        {
          "internalType": "address",
          "name": "",
          "type": "address"
        }
      ],
      "name": "hasValidatorScored",
      "outputs": [
        {
          "internalType": "bool",
          "name": "",
          "type": "bool"
        }
      ],
      "stateMutability": "view",
      "type": "function"
    },
    {
      "inputs": [
        {
          "internalType": "uint256",
          "name": "sid",
          "type": "uint256"
        },
        {
          "internalType": "address",
          "name": "m",
          "type": "address"
        }
      ],
      "name": "isMiner",
      "outputs": [
        {
          "internalType": "bool",
          "name": "",
          "type": "bool"
        }
      ],
      "stateMutability": "view",
      "type": "function"
    },
    {
      "inputs": [
        {
          "internalType": "uint256",
          "name": "sid",
          "type": "uint256"
        },
        {
          "internalType": "address",
          "name": "v",
          "type": "address"
        }
      ],
      "name": "isValidator",
      "outputs": [
        {
          "internalType": "bool",
          "name": "",
          "type": "bool"
        }
      ],
      "stateMutability": "view",
      "type": "function"
    },
    {
      "inputs": [
        {
          "internalType": "address",
          "name": "",
          "type": "address"
        }
      ],
      "name": "lastPortedAt",
      "outputs": [
        {
          "internalType": "uint256",
          "name": "",
          "type": "uint256"
        }
      ],
      "stateMutability": "view",
      "type": "function"
    },
    {
      "inputs": [],
      "name": "maxSubmissionsPerTask",
      "outputs": [
        {
          "internalType": "uint256",
          "name": "",
          "type": "uint256"
        }
      ],
      "stateMutability": "view",
      "type": "function"
    },
    {
      "inputs": [],
      "name": "mdtToken",
      "outputs": [
        {
          "internalType": "contract IERC20",
          "name": "",
          "type": "address"
        }
      ],
      "stateMutability": "view",
      "type": "function"
    },
    {
      "inputs": [
        {
          "internalType": "address",
          "name": "",
          "type": "address"
        }
      ],
      "name": "minerEarnings",
      "outputs": [
        {
          "internalType": "uint256",
          "name": "",
          "type": "uint256"
        }
      ],
      "stateMutability": "view",
      "type": "function"
    },
    {
      "inputs": [],
      "name": "owner",
      "outputs": [
        {
          "internalType": "address",
          "name": "",
          "type": "address"
        }
      ],
      "stateMutability": "view",
      "type": "function"
    },
    {
      "inputs": [],
      "name": "pause",
      "outputs": [],
      "stateMutability": "nonpayable",
      "type": "function"
    },
    {
      "inputs": [],
      "name": "paused",
      "outputs": [
        {
          "internalType": "bool",
          "name": "",
          "type": "bool"
        }
      ],
      "stateMutability": "view",
      "type": "function"
    },
    {
      "inputs": [
        {
          "internalType": "address",
          "name": "",
          "type": "address"
        }
      ],
      "name": "pendingWithdrawals",
      "outputs": [
        {
          "internalType": "uint256",
          "name": "",
          "type": "uint256"
        }
      ],
      "stateMutability": "view",
      "type": "function"
    },
    {
      "inputs": [
        {
          "internalType": "uint256",
          "name": "fromSubnetId",
          "type": "uint256"
        },
        {
          "internalType": "uint256",
          "name": "toSubnetId",
          "type": "uint256"
        }
      ],
      "name": "portReputation",
      "outputs": [],
      "stateMutability": "nonpayable",
      "type": "function"
    },
    {
      "inputs": [
        {
          "internalType": "address",
          "name": "",
          "type": "address"
        },
        {
          "internalType": "uint256",
          "name": "",
          "type": "uint256"
        }
      ],
      "name": "portedReputationBoost",
      "outputs": [
        {
          "internalType": "uint256",
          "name": "",
          "type": "uint256"
        }
      ],
      "stateMutability": "view",
      "type": "function"
    },
    {
      "inputs": [],
      "name": "protocolTreasury",
      "outputs": [
        {
          "internalType": "address",
          "name": "",
          "type": "address"
        }
      ],
      "stateMutability": "view",
      "type": "function"
    },
    {
      "inputs": [
        {
          "internalType": "uint256",
          "name": "subnetId",
          "type": "uint256"
        }
      ],
      "name": "registerMiner",
      "outputs": [],
      "stateMutability": "nonpayable",
      "type": "function"
    },
    {
      "inputs": [
        {
          "internalType": "string",
          "name": "name",
          "type": "string"
        },
        {
          "internalType": "string",
          "name": "description",
          "type": "string"
        },
        {
          "internalType": "uint256",
          "name": "feeRate",
          "type": "uint256"
        }
      ],
      "name": "registerSubnet",
      "outputs": [
        {
          "internalType": "uint256",
          "name": "subnetId",
          "type": "uint256"
        }
      ],
      "stateMutability": "nonpayable",
      "type": "function"
    },
    {
      "inputs": [
        {
          "internalType": "uint256",
          "name": "subnetId",
          "type": "uint256"
        },
        {
          "internalType": "address",
          "name": "validator",
          "type": "address"
        }
      ],
      "name": "removeValidator",
      "outputs": [],
      "stateMutability": "nonpayable",
      "type": "function"
    },
    {
      "inputs": [],
      "name": "renounceOwnership",
      "outputs": [],
      "stateMutability": "nonpayable",
      "type": "function"
    },
    {
      "inputs": [
        {
          "internalType": "uint256",
          "name": "sid",
          "type": "uint256"
        },
        {
          "internalType": "uint256",
          "name": "min",
          "type": "uint256"
        }
      ],
      "name": "setMinValidations",
      "outputs": [],
      "stateMutability": "nonpayable",
      "type": "function"
    },
    {
      "inputs": [
        {
          "internalType": "address",
          "name": "t",
          "type": "address"
        }
      ],
      "name": "setProtocolTreasury",
      "outputs": [],
      "stateMutability": "nonpayable",
      "type": "function"
    },
    {
      "inputs": [
        {
          "internalType": "address",
          "name": "v",
          "type": "address"
        }
      ],
      "name": "setStakingVault",
      "outputs": [],
      "stateMutability": "nonpayable",
      "type": "function"
    },
    {
      "inputs": [],
      "name": "stakingVault",
      "outputs": [
        {
          "internalType": "contract IStakingVaultV2",
          "name": "",
          "type": "address"
        }
      ],
      "stateMutability": "view",
      "type": "function"
    },
    {
      "inputs": [
        {
          "internalType": "uint256",
          "name": "taskId",
          "type": "uint256"
        },
        {
          "internalType": "string",
          "name": "resultHash",
          "type": "string"
        }
      ],
      "name": "submitResult",
      "outputs": [],
      "stateMutability": "nonpayable",
      "type": "function"
    },
    {
      "inputs": [],
      "name": "subnetCount",
      "outputs": [
        {
          "internalType": "uint256",
          "name": "",
          "type": "uint256"
        }
      ],
      "stateMutability": "view",
      "type": "function"
    },
    {
      "inputs": [
        {
          "internalType": "uint256",
          "name": "",
          "type": "uint256"
        }
      ],
      "name": "subnetMinValidations",
      "outputs": [
        {
          "internalType": "uint256",
          "name": "",
          "type": "uint256"
        }
      ],
      "stateMutability": "view",
      "type": "function"
    },
    {
      "inputs": [
        {
          "internalType": "uint256",
          "name": "",
          "type": "uint256"
        }
      ],
      "name": "subnetMinerCount",
      "outputs": [
        {
          "internalType": "uint256",
          "name": "",
          "type": "uint256"
        }
      ],
      "stateMutability": "view",
      "type": "function"
    },
    {
      "inputs": [
        {
          "internalType": "uint256",
          "name": "",
          "type": "uint256"
        },
        {
          "internalType": "address",
          "name": "",
          "type": "address"
        }
      ],
      "name": "subnetMiners",
      "outputs": [
        {
          "internalType": "bool",
          "name": "",
          "type": "bool"
        }
      ],
      "stateMutability": "view",
      "type": "function"
    },
    {
      "inputs": [
        {
          "internalType": "uint256",
          "name": "",
          "type": "uint256"
        }
      ],
      "name": "subnetValidatorCount",
      "outputs": [
        {
          "internalType": "uint256",
          "name": "",
          "type": "uint256"
        }
      ],
      "stateMutability": "view",
      "type": "function"
    },
    {
      "inputs": [
        {
          "internalType": "uint256",
          "name": "",
          "type": "uint256"
        },
        {
          "internalType": "address",
          "name": "",
          "type": "address"
        }
      ],
      "name": "subnetValidators",
      "outputs": [
        {
          "internalType": "bool",
          "name": "",
          "type": "bool"
        }
      ],
      "stateMutability": "view",
      "type": "function"
    },
    {
      "inputs": [
        {
          "internalType": "uint256",
          "name": "",
          "type": "uint256"
        }
      ],
      "name": "subnets",
      "outputs": [
        {
          "internalType": "uint256",
          "name": "id",
          "type": "uint256"
        },
        {
          "internalType": "string",
          "name": "name",
          "type": "string"
        },
        {
          "internalType": "string",
          "name": "description",
          "type": "string"
        },
        {
          "internalType": "address",
          "name": "owner",
          "type": "address"
        },
        {
          "internalType": "uint256",
          "name": "feeRate",
          "type": "uint256"
        },
        {
          "internalType": "uint256",
          "name": "minTaskReward",
          "type": "uint256"
        },
        {
          "internalType": "uint256",
          "name": "totalVolume",
          "type": "uint256"
        },
        {
          "internalType": "uint256",
          "name": "totalTasks",
          "type": "uint256"
        },
        {
          "internalType": "uint256",
          "name": "activeMiners",
          "type": "uint256"
        },
        {
          "internalType": "enum SubnetRegistryV2.SubnetStatus",
          "name": "status",
          "type": "uint8"
        },
        {
          "internalType": "uint256",
          "name": "createdAt",
          "type": "uint256"
        }
      ],
      "stateMutability": "view",
      "type": "function"
    },
    {
      "inputs": [
        {
          "internalType": "uint256",
          "name": "",
          "type": "uint256"
        },
        {
          "internalType": "uint256",
          "name": "",
          "type": "uint256"
        }
      ],
      "name": "taskSubmissions",
      "outputs": [
        {
          "internalType": "address",
          "name": "miner",
          "type": "address"
        },
        {
          "internalType": "string",
          "name": "resultHash",
          "type": "string"
        },
        {
          "internalType": "uint256",
          "name": "score",
          "type": "uint256"
        },
        {
          "internalType": "bool",
          "name": "validated",
          "type": "bool"
        },
        {
          "internalType": "uint256",
          "name": "submittedAt",
          "type": "uint256"
        },
        {
          "internalType": "uint256",
          "name": "validationCount",
          "type": "uint256"
        }
      ],
      "stateMutability": "view",
      "type": "function"
    },
    {
      "inputs": [
        {
          "internalType": "uint256",
          "name": "",
          "type": "uint256"
        }
      ],
      "name": "tasks",
      "outputs": [
        {
          "internalType": "uint256",
          "name": "id",
          "type": "uint256"
        },
        {
          "internalType": "uint256",
          "name": "subnetId",
          "type": "uint256"
        },
        {
          "internalType": "address",
          "name": "requester",
          "type": "address"
        },
        {
          "internalType": "string",
          "name": "taskHash",
          "type": "string"
        },
        {
          "internalType": "uint256",
          "name": "totalDeposit",
          "type": "uint256"
        },
        {
          "internalType": "uint256",
          "name": "rewardAmount",
          "type": "uint256"
        },
        {
          "internalType": "uint256",
          "name": "protocolFee",
          "type": "uint256"
        },
        {
          "internalType": "uint256",
          "name": "validatorReward",
          "type": "uint256"
        },
        {
          "internalType": "uint256",
          "name": "stakingPoolFee",
          "type": "uint256"
        },
        {
          "internalType": "uint256",
          "name": "subnetFee",
          "type": "uint256"
        },
        {
          "internalType": "uint256",
          "name": "deadline",
          "type": "uint256"
        },
        {
          "internalType": "enum SubnetRegistryV2.TaskStatus",
          "name": "status",
          "type": "uint8"
        },
        {
          "internalType": "address",
          "name": "winningMiner",
          "type": "address"
        },
        {
          "internalType": "uint256",
          "name": "winningScore",
          "type": "uint256"
        },
        {
          "internalType": "uint256",
          "name": "createdAt",
          "type": "uint256"
        }
      ],
      "stateMutability": "view",
      "type": "function"
    },
    {
      "inputs": [],
      "name": "totalProtocolFees",
      "outputs": [
        {
          "internalType": "uint256",
          "name": "",
          "type": "uint256"
        }
      ],
      "stateMutability": "view",
      "type": "function"
    },
    {
      "inputs": [
        {
          "internalType": "address",
          "name": "newOwner",
          "type": "address"
        }
      ],
      "name": "transferOwnership",
      "outputs": [],
      "stateMutability": "nonpayable",
      "type": "function"
    },
    {
      "inputs": [],
      "name": "unpause",
      "outputs": [],
      "stateMutability": "nonpayable",
      "type": "function"
    },
    {
      "inputs": [
        {
          "internalType": "uint256",
          "name": "taskId",
          "type": "uint256"
        },
        {
          "internalType": "uint256",
          "name": "submissionIndex",
          "type": "uint256"
        },
        {
          "internalType": "uint256",
          "name": "score",
          "type": "uint256"
        }
      ],
      "name": "validateSubmission",
      "outputs": [],
      "stateMutability": "nonpayable",
      "type": "function"
    },
    {
      "inputs": [
        {
          "internalType": "address",
          "name": "",
          "type": "address"
        }
      ],
      "name": "validatorEarnings",
      "outputs": [
        {
          "internalType": "uint256",
          "name": "",
          "type": "uint256"
        }
      ],
      "stateMutability": "view",
      "type": "function"
    },
    {
      "inputs": [
        {
          "internalType": "address",
          "name": "",
          "type": "address"
        }
      ],
      "name": "validatorReputation",
      "outputs": [
        {
          "internalType": "uint256",
          "name": "totalValidations",
          "type": "uint256"
        },
        {
          "internalType": "uint256",
          "name": "accurateValidations",
          "type": "uint256"
        },
        {
          "internalType": "uint256",
          "name": "reputationScore",
          "type": "uint256"
        },
        {
          "internalType": "uint256",
          "name": "lastActiveAt",
          "type": "uint256"
        }
      ],
      "stateMutability": "view",
      "type": "function"
    },
    {
      "inputs": [
        {
          "internalType": "uint256",
          "name": "",
          "type": "uint256"
        },
        {
          "internalType": "uint256",
          "name": "",
          "type": "uint256"
        },
        {
          "internalType": "address",
          "name": "",
          "type": "address"
        }
      ],
      "name": "validatorScores",
      "outputs": [
        {
          "internalType": "uint256",
          "name": "",
          "type": "uint256"
        }
      ],
      "stateMutability": "view",
      "type": "function"
    },
    {
      "inputs": [],
      "name": "withdrawEarnings",
      "outputs": [],
      "stateMutability": "nonpayable",
      "type": "function"
    },
    {
      "inputs": [],
      "name": "withdrawProtocolFees",
      "outputs": [],
      "stateMutability": "nonpayable",
      "type": "function"
    }
  ],
  "bytecode": "0x6080604090808252346200022b57606081620045e1803803809162000025828562000230565b8339810103126200022b576200003b816200026a565b9060206200005884620000508385016200026a565b93016200026a565b600093600185556001549360018060a01b038092885196338382167f8be0079c531659141344cd1fd0a4f28419497f9722a3daafe3b4186f6b6457e08b80a36001600160a81b0319163360ff60a01b191617600155600a60075516948515620001f957508116918215620001c257169081156200017e5760018060a01b03199084826002541617600255816004541617600455600354161760035583519163248a35ef60e11b835230600484015260248301528082604481866101675af18015620001745762000132575b83516143619081620002808239f35b81813d83116200016c575b62000149818362000230565b810103126200016857518060070b036200016557808062000123565b80fd5b5080fd5b503d6200013d565b84513d85823e3d90fd5b855162461bcd60e51b815260048101849052601560248201527f496e76616c6964207374616b696e67207661756c7400000000000000000000006044820152606490fd5b865162461bcd60e51b815260048101859052601060248201526f496e76616c696420747265617375727960801b6044820152606490fd5b62461bcd60e51b815260048101859052600d60248201526c24b73b30b634b2103a37b5b2b760991b6044820152606490fd5b600080fd5b601f909101601f19168101906001600160401b038211908210176200025457604052565b634e487b7160e01b600052604160045260246000fd5b51906001600160a01b03821682036200022b5756fe60a0604052600436101561001257600080fd5b6000803560e01c8063072f4fc01461349c5780630c5a61f81461345c5780630f0da719146134235780630fb6d805146133e457806310c6bd25146133ba57806310f0dde41461339e57806313e1f4fd1461338157806316c53ced1461321d5780631d65e77e14612ff05780631dc375b914612fc957806323f2a73f14612f8057806324c3fd2f14612f5e57806324e7964a14612f355780632fa70f4814612f0b5780633370f06e14612eee5780633938800614612eb557806339b1185d14612e975780633f4ba83a14612dfa578063475726f714612d225780634af9398814612d055780634b56175314612a8357806351b15b8a14612a5957806353eea875146129bd57806358ca7504146128055780635c975abb146127df5780635cc9bca91461231057806362ecc47a146121f557806365617a35146121d55780636a0cd1f5146121025780636f5474bf14611f3b578063715018a614611ede5780637be24cb814611eb45780637ca0ad2d14611e705780637d7fcda014611e52578063803db96d14611e295780638456cb5914611dc65780638795cccb14611d5057806388488c3314611a195780638c0a4a05146113c05780638c0dd79a146115395780638d977672146114355780638da5cb5b1461140c5780638ee9f6dc146113c0578063916a5c5b146113a2578063927229c614610e9357806393af007614610e7657806396511dcd14610e3d578063a3be1eab14610df1578063ac64c82214610da5578063b73c6ce914610ce6578063b7ee5eda146107c4578063be123323146104f7578063ca7b64bb146104f2578063d127048514610444578063d53580de146104af578063d71c4c0914610444578063f2fde38b1461037e578063f3f4370314610345578063f526e39a14610327578063f70b5c06146102fe5763fe560792146102bc57600080fd5b346102fb5760203660031901126102fb576102d56134c1565b6102dd6139d6565b60018060a01b03166001600160601b0360a01b600354161760035580f35b80fd5b50346102fb57806003193601126102fb576002546040516001600160a01b039091168152602090f35b50346102fb57806003193601126102fb576020600854604051908152f35b50346102fb5760203660031901126102fb576020906040906001600160a01b0361036d6134c1565b168152601583522054604051908152f35b50346102fb5760203660031901126102fb576103986134c1565b6103a06139d6565b6001600160a01b039081169081156103f057600154826001600160601b0360a01b821617600155167f8be0079c531659141344cd1fd0a4f28419497f9722a3daafe3b4186f6b6457e0600080a380f35b60405162461bcd60e51b815260206004820152602660248201527f4f776e61626c653a206e6577206f776e657220697320746865207a65726f206160448201526564647265737360d01b6064820152608490fd5b50346102fb5760203660031901126102fb576040906001600160a01b036104696134c1565b16815260166020522080546104ab6001830154926003600282015491015490604051948594859094939260609260808301968352602083015260408201520152565b0390f35b50346102fb5760403660031901126102fb576020906040906001600160a01b036104d76134c1565b16815260198352818120602435825283522054604051908152f35b61349c565b50346102fb576105063661357a565b9190808252602092600d84526040832033600052845260ff604060002054161561077f57808352600d84526040832033600052845260ff604060002054161561073a5780821461070757338352601a845260408320546201518081018091116106f35742106106b757338352601684526040832080541561067a576002015490611388918281029080820484149015171561066657612710900491821061061557601a7f28712f42bb62447cac6809da4bee68e8b6d1786eff0b73558cac4884c0fb64b6939495338752601981526040872083885281528360408820553387525242604086205561060f6040519283923396846040919493926060820195825260208201520152565b0390a280f35b60405162461bcd60e51b8152600481018690526024808201527f506f727465642073636f7265206e6f7420626574746572207468616e20646566604482015263185d5b1d60e21b6064820152608490fd5b634e487b7160e01b85526011600452602485fd5b60405162461bcd60e51b8152600481018690526015602482015274139bc81c995c1d5d185d1a5bdb881d1bc81c1bdc9d605a1b6044820152606490fd5b60405162461bcd60e51b8152600481018590526014602482015273506f727420636f6f6c646f776e2061637469766560601b6044820152606490fd5b634e487b7160e01b84526011600452602484fd5b60405162461bcd60e51b815260048101859052600b60248201526a14d85b59481cdd589b995d60aa1b6044820152606490fd5b60405162461bcd60e51b815260048101859052601e60248201527f4e6f742076616c696461746f7220696e20746172676574207375626e657400006044820152606490fd5b60405162461bcd60e51b815260048101859052601e60248201527f4e6f742076616c696461746f7220696e20736f75726365207375626e657400006044820152606490fd5b50346102fb5760603660031901126102fb5760446004358252600b602052604082209060ff600b830154166006811015610cd257600203610c995760018201548352600d602052604083203360005260205261082760ff60406000205416613952565b6004358352600c60205260408320546024351015610c6557612710813511610c315760043583526013602052604083206024358452602052604083203360005260205260ff60406000205416610bfc576004358352600c60205261089060243560408520613721565b509060ff600383015416610bc05760043584526012602052604084206024358552602052604084203360005260205280356040600020556004358452601360205260408420602435855260205260408420336000526020526040600020600160ff198254161790556004358452601460205260408420602435855260205260408420805490600160401b821015610bac5790610931916001820181556139be565b81546001600160a01b0360039290921b91821b19163390911b179055600582015461095b9061387e565b9081600584015560018060a01b0383541690604051903581523360208201527f424e5ad88b2accc1579e610100b12e0f295d8c9e0b02abb61ad1e413e3d63d02604060043592a36109b560018401546005850154906137ba565b8110156109c0578380f35b6109c981613b07565b906004358552601460205260408520602435865260205260408520855b828110610b5a5750505080516001905b808210610abd57505060057fff2fc693bb2d4a09f21f0c403fce5ecb4b5b0b57e81c7253deb5386bb8a8ae7792610a2f610a7d93614208565b94856002830155600160ff19600384015416176003830155600c8101908682548111610a87575b50505001546040805160243581526020810195909552840152600435929081906060820190565b0390a23880808380f35b9091558154600b919091018054610100600160a81b03191660089290921b610100600160a81b0316919091179055388086610a56565b90919293610acb8385613b39565b5194835b80151580610b3b575b15610b21576000198101818111610b0d5790610af7610b089288613b39565b51610b028289613b39565b52613990565b610acf565b634e487b7160e01b89526011600452602489fd5b95610b33600193979695929686613b39565b5201906109f6565b506000198101818111610b0d57610b53889188613b39565b5111610ad8565b6001906004358852601260205260408820602435895260205260408820610b8182856139be565b848060a01b0391549060031b1c16600052602052604060002054610ba58287613b39565b52016109e6565b634e487b7160e01b86526041600452602486fd5b60649074416c72656164792068617320636f6e73656e73757360581b6040519162461bcd60e51b83526020600484015260156024840152820152fd5b6064906d105b1c9958591e481cd8dbdc995960921b6040519162461bcd60e51b835260206004840152600e6024840152820152fd5b6064906c496e76616c69642073636f726560981b6040519162461bcd60e51b835260206004840152600d6024840152820152fd5b6064906c092dcecc2d8d2c840d2dcc8caf609b1b6040519162461bcd60e51b835260206004840152600d6024840152820152fd5b606490714e6f742070656e64696e672072657669657760701b6040519162461bcd60e51b83526020600484015260126024840152820152fd5b634e487b7160e01b84526021600452602484fd5b50346102fb57806003193601126102fb57610cff613a2e565b338152601560205260408120548015610d6a57610d639033835260156020528260408120556040518181527f48dc35af7b45e2a81fffad55f6e2fafacdb1d3d0d50d24ebdc16324f5ba757f160203392a260025433906001600160a01b0316613acb565b6001815580f35b60405162461bcd60e51b81526020600482015260136024820152724e6f2070656e64696e67206561726e696e677360681b6044820152606490fd5b50346102fb5760403660031901126102fb576040610dc16134d7565b9160043581526011602052209060018060a01b0316600052602052602060ff604060002054166040519015158152f35b50346102fb5760403660031901126102fb576040610e0d6134d7565b916004358152600d602052209060018060a01b0316600052602052602060ff604060002054166040519015158152f35b50346102fb5760203660031901126102fb576020906040906001600160a01b03610e656134c1565b168152601a83522054604051908152f35b50346102fb57806003193601126102fb5760206040516103208152f35b50346102fb5760603660031901126102fb576004356001600160401b03811161139e57610ec4903690600401613753565b6024356001600160401b03811161139a57610ee3903690600401613753565b610eee939193613a2e565b610ef6613a84565b6103e860443511611366578215611334576002546040516323b872dd60e01b602082015233602482015230604482015264174876e8006064808301919091528152610f52916001600160a01b0316610f4d82613633565b614099565b610f8c60055494610f628661387e565b60055560405192610f7284613617565b868452610f8036878761391b565b6020850152369161391b565b604082015233606082015260443560808201526305f5e10060a08201528460c08201528460e0820152846101008201528461012082015242610140820152838552600a60205260408520908051825560208101518051906001600160401b0382116112565781906110006001860154613590565b601f81116112e4575b50602090601f831160011461127557899261126a575b50508160011b916000199060031b1c19161760018301555b60408101518051906001600160401b03821161125657819061105c6002860154613590565b601f8111611206575b50602090601f831160011461119757899261118c575b50508160011b916000199060031b1c19161760028301555b6003820160018060a01b036060830151166001600160601b0360a01b8254161790556080810151600483015560a0810151600583015560c0810151600683015560e081015160078301556101008101516008830155600982016101208201516003811015611178576020979460019694600a6101408a967f8e46dcab88334408205dfdff058de646a02ab7fddb35b9923e924e49ce505c30966111619660ff80198354169116179055015191015583865260098952600260408720556040519460408652604086019161399d565b92604435888201528033940390a355604051908152f35b634e487b7160e01b88526021600452602488fd5b01519050388061107b565b9250600285018952602089209089935b601f19841685106111eb576001945083601f198116106111d2575b505050811b016002830155611093565b015160001960f88460031b161c191690553880806111c2565b818101518355602094850194600190930192909101906111a7565b90915060028501895260208920601f840160051c81016020851061124f575b90849392915b601f830160051c82018110611241575050611065565b8b815585945060010161122b565b5080611225565b634e487b7160e01b88526041600452602488fd5b01519050388061101f565b9250600185018952602089209089935b601f19841685106112c9576001945083601f198116106112b0575b505050811b016001830155611037565b015160001960f88460031b161c191690553880806112a0565b81810151835560209485019460019093019290910190611285565b90915060018501895260208920601f840160051c81016020851061132d575b90849392915b601f830160051c8201811061131f575050611009565b8b8155859450600101611309565b5080611303565b60405162461bcd60e51b815260206004820152600a602482015269456d707479206e616d6560b01b6044820152606490fd5b60405162461bcd60e51b815260206004820152600c60248201526b08ccaca40e8dede40d0d2ced60a31b6044820152606490fd5b8380fd5b5080fd5b50346102fb57806003193601126102fb576020600554604051908152f35b50346102fb5760403660031901126102fb5760406113dc6134d7565b916004358152600f602052209060018060a01b0316600052602052602060ff604060002054166040519015158152f35b50346102fb57806003193601126102fb576001546040516001600160a01b039091168152602090f35b50346102fb5760203660031901126102fb576004358152600b6020526040902080546001820154600283015491926001600160a01b03909216919061147c6003830161366f565b91600481015492600582015460068301546007840154600885015490600986015492600a87015494600b88015496600c89015498600d0154996040519d8e809e6101e0938493835260208301526040820152606001528c016114dd91613517565b9960808c015260a08b015260c08a015260e0890152610100880152610120870152610140860152610160850160ff82169061151791613557565b60081c6001600160a01b03166101808501526101a08401526101c08301520390f35b50346102fb5760403660031901126102fb576024356001600160401b03811161139e5761156a903690600401613753565b611572613a2e565b6004358352600b6020526040832060ff600b82015416600681101590816117cb578015918215611a0b575b82156119e6575b5050156119b157600a81015442101561197d5760018101548452600f602052604084203360005260205260ff60406000205416156119385760043584526011602052604084203360005260205260ff604060002054166118ff576004358452600c602052604084205460075411156118c8576004358452601160205260408420336000526020526040600020600160ff198254161790556004358452600c6020526040842060405190611656826135ca565b33825261166436858761391b565b60208301528560408301528560608301524260808301528560a0830152805490600160401b8210156118b457906116a091600182018155613721565b9190916118a057805182546001600160a01b0319166001600160a01b039190911617825560208101518051906001600160401b038211611256576116e76001850154613590565b601f811161185c575b50602090601f83116001146117ea5791806005949260a0948b926117df575b50508160011b916000199060031b1c19161760018501555b60408101516002850155600384016060820151151560ff80198354169116179055608081015160048501550151910155600b81015460ff811660068110156117cb57156117b7575b50507fa3dcf7cebcc4cf0937f4f95d95392671977ba143b4ff236240650322a106e8dc60405160208152806117ad339560043595602084019161399d565b0390a36001815580f35b6002600b9160ff191617910155388061176f565b634e487b7160e01b86526021600452602486fd5b01519050388061170f565b906001850189526020892091895b601f19851681106118445750926005949260019260a09583601f1981161061182b575b505050811b016001850155611727565b015160001960f88460031b161c1916905538808061181b565b919260206001819286850151815501940192016117f8565b60018501895260208920601f840160051c810160208510611899575b601f830160051c8201811061188e5750506116f0565b8a8155600101611878565b5080611878565b634e487b7160e01b86526004869052602486fd5b634e487b7160e01b87526041600452602487fd5b60405162461bcd60e51b815260206004820152600f60248201526e4d6178207375626d697373696f6e7360881b6044820152606490fd5b60405162461bcd60e51b8152602060048201526011602482015270105b1c9958591e481cdd589b5a5d1d1959607a1b6044820152606490fd5b60405162461bcd60e51b815260206004820152601860248201527f4e6f74207265676973746572656420696e207375626e657400000000000000006044820152606490fd5b60405162461bcd60e51b815260206004820152600c60248201526b15185cdac8195e1c1a5c995960a21b6044820152606490fd5b60405162461bcd60e51b815260206004820152600d60248201526c10d85b9b9bdd081cdd589b5a5d609a1b6044820152606490fd5b9091506119f75760021438806115a4565b634e487b7160e01b85526021600452602485fd5b50600181149150600061159d565b50346102fb5760208060031936011261139e5760043590611a38613a2e565b818352600b815260408320600b81019081549060ff82166006811015611d3c57600203611d0b576001600160a01b0391600881901c8316918215611cda5790867fae64f0a069112683796fc01e7d04ea7e255a3cd070a7dce992fdcdecbc1e6d528360058b979695015460068201549160078101549060088101549a6003600160098401549301549860ff1916179055868a52600a8c52600660408b2001611ae1848254613797565b9055868a52600a8c52600760408b2001611afb815461387e565b9055611b0984600854613797565b600855878a5260158c5260408a20611b22848254613797565b905580611cac575b5080611c9c575b50604080519182526020820192909252908101889052606090a482611b59575b506001815580f35b60025460035460405163095ea7b360e01b81529083166001600160a01b0316600482015260248101859052908590829084168186816044810103925af18015611c9157611c64575b5060035416803b1561139e5781906024604051809481936345efb3f960e11b83528760048401525af18015611c5957611c0a575b50907fb93904c11174de0f6927442b2af252b8bdc1eebb2c7bbad30056c60e9b63972191604051908152a23880808381611b51565b6001600160401b038195929511611c4557604052927fb93904c11174de0f6927442b2af252b8bdc1eebb2c7bbad30056c60e9b639721611bd5565b634e487b7160e01b82526041600452602482fd5b6040513d87823e3d90fd5b611c8390853d8711611c8a575b611c7b818361364e565b810190613866565b5038611ba1565b503d611c71565b6040513d85823e3d90fd5b611ca69085613b5a565b38611b31565b868a52600a8c5288600360408c200154168a5260158c52611cd260408b20918254613797565b905538611b2a565b60405162461bcd60e51b81526004810187905260096024820152682737903bb4b73732b960b91b6044820152606490fd5b60405162461bcd60e51b81526004810185905260096024820152684e6f7420726561647960b81b6044820152606490fd5b634e487b7160e01b87526021600452602487fd5b50346102fb57806003193601126102fb57611d696139d6565b6008548015611d97576008829055600254600454611d9492916001600160a01b039182169116613acb565b80f35b60405162461bcd60e51b81526020600482015260076024820152664e6f206665657360c81b6044820152606490fd5b50346102fb57806003193601126102fb57611ddf6139d6565b611de7613a84565b6001805460ff60a01b1916600160a01b1790556040513381527f62e78cea01bee320cd4e420270b5ea74000d11b0c9f74754ebdbfc544b05a25890602090a180f35b50346102fb57806003193601126102fb576004546040516001600160a01b039091168152602090f35b50346102fb57806003193601126102fb576020604051620151808152f35b50346102fb5760ff6040602092611e86366134ed565b9183526013865283832090835285528282206001600160a01b03909116825284522054604051911615158152f35b50346102fb5760203660031901126102fb5760406020916004358152600c83522054604051908152f35b50346102fb57806003193601126102fb57611ef76139d6565b600180546001600160a01b0319811690915581906001600160a01b03167f8be0079c531659141344cd1fd0a4f28419497f9722a3daafe3b4186f6b6457e08280a380f35b50346102fb5760208060031936011261139e5760043590818352600a815260ff6009604085200154166003811015610cd257611f77901561388d565b818352600f815260408320338452815260ff6040842054166120c957600354604051631c06dc2b60e21b8152336004820152908290829060249082906001600160a01b03165afa9081156120be5784916120a1575b501561204b57600a90828452600f815260408420338552815260408420600160ff198254161790558284526010815260408420612009815461387e565b90558284525260086040832001612020815461387e565b905533907fbaae7a2be0ecfa867d60fcdae77877a3dda7484c504290098d77f256415abab28380a380f35b6084906040519062461bcd60e51b82526004820152602960248201527f4d757374207374616b65206173204d696e657220696e205374616b696e6756616044820152681d5b1d08199a5c9cdd60ba1b6064820152fd5b6120b89150823d8411611c8a57611c7b818361364e565b38611fcc565b6040513d86823e3d90fd5b6064906040519062461bcd60e51b825260048201526012602482015271105b1c9958591e481c9959da5cdd195c995960721b6044820152fd5b50346102fb5760403660031901126102fb5760043561211f6134d7565b90808352600e6020600a815260018060a01b0380600360408820015416331480156121c8575b61214e90613829565b838652600d825260408620941693848652815261217160ff604087205416613952565b828552600d81526040852084865281526040852060ff198154169055828552526040832061219f8154613990565b90557f7126bef88d1149ccdff9681ed5aecd3ba5ae70c96517551de250af09cebd1a0b8380a380f35b5060015481163314612145565b50346102fb57806003193601126102fb57602060405164e8d4a510008152f35b50346102fb5760203660031901126102fb5761220f613a2e565b6004358152600b60205260408120600b81019081549060ff8216600681101590816117cb578015918215612303575b82156122f2575b5050156122bd57600a81015442111561228657600481015460ff1990921660051790925560028054920154610d63926001600160a01b039182169116613acb565b60405162461bcd60e51b815260206004820152600f60248201526e139bdd081e595d08195e1c1a5c9959608a1b6044820152606490fd5b60405162461bcd60e51b815260206004820152600d60248201526c4e6f7420657870697261626c6560981b6044820152606490fd5b9091506119f7576002143880612245565b506001811491508561223e565b50346102fb5760803660031901126102fb576024356001600160401b03811161139e57612341903690600401613753565b612349613a2e565b612351613a84565b6004358352600a602052604083209160ff60098401541660038110156119f75761237b901561388d565b6005830154604435106127a95760643515158061279a575b156127625760c8604435029260443515604435850460c81481171561274e57604435610320818102939184041482171561273a576101f491604435808402048314171561273a5790612710806123f06004829501546044356138cd565b04938161241b86612416838760443502046124168d61241687808a049204604435613797565b613797565b6002546040516323b872dd60e01b602082015233602482015230604482015260648082018490528152919a9161245d916001600160a01b0316610f4d82613633565b61246860065461387e565b998a6006556124a261247c60643542613797565b996040519b61248a8d6135fb565b8d8d5260043560208e01523360408e0152369161391b565b60608b015260808a015260443560a08a01520460c08801520460e086015260443502046101008401526101208301526101408201528261016082015282610180820152826101a0820152426101c0820152818352600b602052604083209080518255602081015160018301556002820160018060a01b036040830151166001600160601b0360a01b82541617905560608101518051906001600160401b038211610bac5781906125556003860154613590565b601f81116126ea575b50602090601f831160011461267b578792612670575b50508160011b916000199060031b1c19161760038301555b6080810151600483015560a0810151600583015560c0810151600683015560e0810151600783015561010081015160088301556101208101516009830155610140810151600a830155600b820161016082015160068110156117cb578154610180840151610100600160a81b0360089190911b1660ff929092166001600160a81b0319909116171790556020936001929091600d906101c0906101a0810151600c850155015191015560405160443581523390847f428f55877ee911b6c5acc83ef215f08675d3787bdfac5018bbe41876df710f498760043593a455604051908152f35b015190503880612574565b9250600385018752602087209087935b601f19841685106126cf576001945083601f198116106126b6575b505050811b01600383015561258c565b015160001960f88460031b161c191690553880806126a6565b8181015183556020948501946001909301929091019061268b565b90915060038501875260208720601f840160051c810160208510612733575b90849392915b601f830160051c8201811061272557505061255e565b89815585945060010161270f565b5080612709565b634e487b7160e01b87526011600452602487fd5b634e487b7160e01b86526011600452602486fd5b60405162461bcd60e51b815260206004820152601060248201526f24b73b30b634b210323ab930ba34b7b760811b6044820152606490fd5b5062093a806064351115612393565b60405162461bcd60e51b815260206004820152600e60248201526d52657761726420746f6f206c6f7760901b6044820152606490fd5b50346102fb57806003193601126102fb57602060ff60015460a01c166040519015158152f35b50346102fb5760203660031901126102fb578061014060405161282781613617565b82815260606020820152606060408201528260608201528260808201528260a08201528260c08201528260e0820152826101008201528261012082015201526004358152600a602052604081206040519061288182613617565b805482526128916001820161366f565b60208301526128a26002820161366f565b60408301526003818101546001600160a01b0316606084015260048201546080840152600582015460a0840152600682015460c0840152600782015460e08401526008820154610100840152600982015460ff1690811015610cd25790600a9161012084015201546101408201526040518091602082528051602083015261014061295761294160208401516101606040870152610180860190613517565b6040840151858203601f19016060870152613517565b9160018060a01b036060820151166080850152608081015160a085015260a081015160c085015260c081015160e085015260e08101516101008501526101008101516101208501526129b161012082015183860190613714565b01516101608301520390f35b50346102fb576129cc3661357a565b908252600c602052604082208054821015612a55576129eb9250613721565b5080546001600160a01b0316612a036001830161366f565b9160028101549060ff600382015416906005600482015491015491612a3a604051968796875260c0602088015260c0870190613517565b93604086015215156060850152608084015260a08301520390f35b8280fd5b50346102fb5760203660031901126102fb5760406020916004358152600e83522054604051908152f35b50346102fb5760403660031901126102fb57600435612aa06134d7565b818352600a602090815260408420600301546001600160a01b0393928491821633148015612cf8575b612ad290613829565b16928315612cc157828552600d825260408520848652825260ff604086205416612c885781602491600354166040519283809263facd743b60e01b82528860048301525afa908115611c59578591612c6b575b5015612c1157818452600d815260408420838552815260408420600160ff19825416179055818452600e815260408420612b5f815461387e565b905582845260168152604084206002810154159081612c07575b50612ba7575b507f7429a06e9412e469f0d64f9d222640b0af359f556b709e2913588c227851b88d8380a380f35b60405190608082018281106001600160401b03821117610bac57906003916040528583528083018681526040840190611388825260166060860193428552888a525260408820945185555160018501555160028401555191015538612b7f565b9050541538612b79565b6084906040519062461bcd60e51b82526004820152602d60248201527f4d757374207374616b652061732056616c696461746f7220696e205374616b6960448201526c1b99d5985d5b1d08199a5c9cdd609a1b6064820152fd5b612c829150823d8411611c8a57611c7b818361364e565b38612b25565b60405162461bcd60e51b815260048101839052601160248201527020b63932b0b23c903b30b634b230ba37b960791b6044820152606490fd5b60405162461bcd60e51b815260048101839052600f60248201526e496e76616c6964206164647265737360881b6044820152606490fd5b5060015482163314612ac9565b50346102fb57806003193601126102fb5760206040516103e88152f35b50346102fb5760203660031901126102fb576040906004358152600a602052208054612d506001830161366f565b91612d5d6002820161366f565b612df060018060a01b0360038401541692600481015460058201546006830154600784015491600885015493612dc5600a60ff60098901541697015498612db76040519d8e9d8e6101609181528160208201520190613517565b8c810360408e015290613517565b9860608b015260808a015260a089015260c088015260e0870152610100860152610120850190613714565b6101408301520390f35b50346102fb57806003193601126102fb57612e136139d6565b60015460ff8160a01c1615612e5b5760ff60a01b19166001556040513381527f5db9ee0a495bf2e6ff9c91a7834c1ba4fdd244a5e8aa4e537bd38aeae4b073aa90602090a180f35b60405162461bcd60e51b815260206004820152601460248201527314185d5cd8589b194e881b9bdd081c185d5cd95960621b6044820152606490fd5b50346102fb57806003193601126102fb576020600754604051908152f35b50346102fb5760203660031901126102fb576020906040906001600160a01b03612edd6134c1565b168152601783522054604051908152f35b50346102fb57806003193601126102fb5760206040516113888152f35b50346102fb5760203660031901126102fb5760406020916004358152601083522054604051908152f35b50346102fb57806003193601126102fb576003546040516001600160a01b039091168152602090f35b50346102fb576020612f78612f723661357a565b906137ba565b604051908152f35b50346102fb5760403660031901126102fb5760ff6040602092612fa16134d7565b6004358252600d85528282206001600160a01b03909116825284522054604051911615158152f35b50346102fb57612fd83661357a565b90612fe16139d6565b82526009602052604082205580f35b50346102fb5760203660031901126102fb57806101c0604051613012816135fb565b8281528260208201528260408201526060808201528260808201528260a08201528260c08201528260e08201528261010082015282610120820152826101408201528261016082015282610180820152826101a082015201526004358152600b6020526040812060405190613086826135fb565b805482526001810154602083015260028101546001600160a01b031660408301526130b36003820161366f565b606083015260048101546080830152600581015460a0830152600681015460c0830152600781015460e083015260088101546101008301526009810154610120830152600a810154610140830152600b810154600660ff82161015610cd257908160ff600d931661016085015260018060a01b039060081c16610180840152600c8101546101a084015201546101c0820152604051809160208252805160208301526020810151604083015260018060a01b0360408201511660608301526101c061318f60608301516101e06080860152610200850190613517565b91608081015160a085015260a081015160c085015260c081015160e085015260e08101516101008501526101008101516101208501526101208101516101408501526101408101516101608501526131f1610160820151610180860190613557565b6101808101516001600160a01b03166101a0858101919091528101518285015201516101e08301520390f35b50346102fb5760208060031936011261139e57906004358152600c82526040812080549161324a83613780565b92613258604051948561364e565b8084528484018093835285832083915b8383106133125750505050604051928484019085855251809152604084019460408260051b8601019392955b8287106132a15785850386f35b909192938280600192603f198982030185528751906132d860c0868060a01b03845116835284840151908086850152830190613517565b91604081015160408301526060808201511515908301526080808201519083015260a0809101519101529601920196019592919092613294565b60068860019260409a99979a51613328816135ca565b848060a01b03865416815261333e85870161366f565b838201526002860154604082015260ff6003870154161515606082015260048601546080820152600586015460a082015281520192019201919096939596613268565b50346102fb57806003193601126102fb5760206040516101f48152f35b50346102fb57806003193601126102fb57602060405160c88152f35b50346102fb5760203660031901126102fb5760406020916004358152600983522054604051908152f35b50346102fb5760406020916133f8366134ed565b9183526012855283832090835284528282206001600160a01b03909116825283522054604051908152f35b50346102fb5760203660031901126102fb576020906040906001600160a01b0361344b6134c1565b168152601883522054604051908152f35b50346102fb5760203660031901126102fb576134766134c1565b61347e6139d6565b60018060a01b03166001600160601b0360a01b600454161760045580f35b346134bc5760003660031901126134bc57602060405164174876e8008152f35b600080fd5b600435906001600160a01b03821682036134bc57565b602435906001600160a01b03821682036134bc57565b60609060031901126134bc5760043590602435906044356001600160a01b03811681036134bc5790565b919082519283825260005b848110613543575050826000602080949584010152601f8019910116010190565b602081830181015184830182015201613522565b9060068210156135645752565b634e487b7160e01b600052602160045260246000fd5b60409060031901126134bc576004359060243590565b90600182811c921680156135c0575b60208310146135aa57565b634e487b7160e01b600052602260045260246000fd5b91607f169161359f565b60c081019081106001600160401b038211176135e557604052565b634e487b7160e01b600052604160045260246000fd5b6101e081019081106001600160401b038211176135e557604052565b61016081019081106001600160401b038211176135e557604052565b60a081019081106001600160401b038211176135e557604052565b90601f801991011681019081106001600160401b038211176135e557604052565b9060405191826000825461368281613590565b908184526020946001916001811690816000146136f257506001146136b3575b5050506136b19250038361364e565b565b600090815285812095935091905b8183106136da5750506136b193508201013880806136a2565b855488840185015294850194879450918301916136c1565b925050506136b194925060ff191682840152151560051b8201013880806136a2565b9060038210156135645752565b805482101561373d576000526006602060002091020190600090565b634e487b7160e01b600052603260045260246000fd5b9181601f840112156134bc578235916001600160401b0383116134bc57602083818601950101116134bc57565b6001600160401b0381116135e55760051b60200190565b919082018092116137a457565b634e487b7160e01b600052601160045260246000fd5b600090815260096020526040812054918215613820575b64e8d4a5100081106138015750600282018092116137ed575090565b634e487b7160e01b81526011600452602490fd5b64174876e8001115613811575090565b600182018092116137ed575090565b600292506137d1565b1561383057565b60405162461bcd60e51b815260206004820152600e60248201526d139bdd08185d5d1a1bdc9a5e995960921b6044820152606490fd5b908160209103126134bc575180151581036134bc5790565b60001981146137a45760010190565b1561389457565b60405162461bcd60e51b81526020600482015260116024820152705375626e6574206e6f742061637469766560781b6044820152606490fd5b818102929181159184041417156137a457565b81156138ea570490565b634e487b7160e01b600052601260045260246000fd5b6001600160401b0381116135e557601f01601f191660200190565b92919261392782613900565b91613935604051938461364e565b8294818452818301116134bc578281602093846000960137010152565b1561395957565b60405162461bcd60e51b815260206004820152600f60248201526e2737ba1030903b30b634b230ba37b960891b6044820152606490fd5b80156137a4576000190190565b908060209392818452848401376000828201840152601f01601f1916010190565b805482101561373d5760005260206000200190600090565b6001546001600160a01b031633036139ea57565b606460405162461bcd60e51b815260206004820152602060248201527f4f776e61626c653a2063616c6c6572206973206e6f7420746865206f776e65726044820152fd5b600260005414613a3f576002600055565b60405162461bcd60e51b815260206004820152601f60248201527f5265656e7472616e637947756172643a207265656e7472616e742063616c6c006044820152606490fd5b60ff60015460a01c16613a9357565b60405162461bcd60e51b815260206004820152601060248201526f14185d5cd8589b194e881c185d5cd95960821b6044820152606490fd5b60405163a9059cbb60e01b60208201526001600160a01b039290921660248301526044808301939093529181526136b191610f4d60648361364e565b90613b1182613780565b613b1e604051918261364e565b8281528092613b2f601f1991613780565b0190602036910137565b805182101561373d5760209160051b010190565b919082039182116137a457565b6000818152600b6020818152604080842092830154600c90925283208054929594909360001993919260081c6001600160a01b0316905b82811061404a575b5050506000198214613ce557806000526014602052604060002082600052602052604060002091825493841561403857613bd882600292989498613721565b50015490613be585613b07565b926000976000935b878510613cf55750505050508415613ce55760009460005b848110613c36575050505050808210613c1c575050565b613c3191613c2991613b4d565b600854613797565b600855565b80613c4360019285613b39565b5115613ce057613c70613c6984613c64613c5d8589613b39565b518b6138cd565b6138e0565b8099613797565b97613c7b82876139be565b905490600391858060a01b0391831b1c1660005260176020526040600020613ca4838254613797565b9055613cb083886139be565b858060a09493941b039254911b1c166000526015602052613cd76040600020918254613797565b90555b01613c05565b613cda565b505050613c319150600854613797565b9091929398613d048a886139be565b9a90549184600052601260205260406000208760005260205260406000208c8460018060a01b039160031b1c166000526020528b613d47856040600020546141b7565b60018060a01b03858360031b1c1660005260166020526040600020608052613d716080515461387e565b608051908155426003909101556107d08111613fa157600160805101613d97815461387e565b9055867f3d70426d5de70b5ac8bff45c3c0cd89db0e473153868b8c61a938d42002584e860406064948151946000865260208601528860018060a01b039160031b1c1693a35b608051549c8d613f6a575b60038054604051630c2eb40360e01b81526001600160a01b039284901b88901c83166004820152969160209188916024918391165afa928315613f5e578b96600094613f27575b508315613f1e575b60805160020154908195600160a01b60019003848660031b1c166000526019602052604060002060018d0154600052602052604060002054888482119a612710613ebf7fc2fd17ad7e9f23b8607f0bd02d7a6cdcccd5a964fa99ce5a066ed34c5b4bb55b9a613eba60019f99613ed799613ed098613f099c613f16575b506138cd565b6138cd565b04613eca8383613b39565b52613b39565b5190613797565b9f876080510154906040519485948a8060a01b039160031b1c1696846040919493926060820195825260208201520152565b0390a20193929190613bed565b915038613eb4565b60019350613e37565b965092506020863d602011613f56575b81613f446020938361364e565b810103126134bc578a95519238613e2f565b3d9150613f37565b6040513d6000823e3d90fd5b60016080510154946127109580878102048714811517156137a4578f602497613f9392026138e0565b600260805101559450613de8565b6113888111613ff257867f3d70426d5de70b5ac8bff45c3c0cd89db0e473153868b8c61a938d42002584e860406032948151946000865260208601528860018060a01b039160031b1c1693a3613ddd565b60405190815260009160031b85901c6001600160a01b03169087907f3b3050df353576101845973a6b18bbcf16a0187f1c80d60d83d95be509203c5190602090a3613ddd565b5050505050613c319150600854613797565b816140558288613721565b50546001600160a01b03161480614081575b61407357600101613b91565b929350505090388080613b99565b5060ff60036140908389613721565b50015416614067565b60408051908101916001600160a01b03166001600160401b038311828410176135e557614127926040526000806020958685527f5361666545524332303a206c6f772d6c6576656c2063616c6c206661696c656487860152868151910182855af13d156141af573d9161410b83613900565b92614119604051948561364e565b83523d60008785013e61428e565b805190828215928315614197575b505050156141405750565b6084906040519062461bcd60e51b82526004820152602a60248201527f5361666545524332303a204552433230206f7065726174696f6e20646964206e6044820152691bdd081cdd58d8d9595960b21b6064820152fd5b6141a79350820181019101613866565b388281614135565b60609161428e565b81156142015781808211156141f1576141cf91613b4d565b905b612710918281029281840414901517156137a4576141ee916138e0565b90565b906141fb91613b4d565b906141d1565b5050600090565b8051801561425a5760018181160361422c57906142289160011c90613b39565b5190565b60011c9060001982018281116137a4576142549261424d613ed09284613b39565b5192613b39565b60011c90565b60405162461bcd60e51b815260206004820152600c60248201526b456d7074792073636f72657360a01b6044820152606490fd5b919290156142f057508151156142a2575090565b3b156142ab5790565b60405162461bcd60e51b815260206004820152601d60248201527f416464726573733a2063616c6c20746f206e6f6e2d636f6e74726163740000006044820152606490fd5b8251909150156143035750805190602001fd5b60405162461bcd60e51b815260206004820152908190614327906024830190613517565b0390fdfea2646970667358221220fe29a7f35370b9161080b16fd7ed17871d5b083fcf0b9e56c3b64408a0c7adc764736f6c63430008180033",
  "linkReferences": {},
  "deployedLinkReferences": {}
}