{
  "_format": "hh-sol-artifact-1",
  "contractName": "PaymentEscrow",
  "sourceName": "src/PaymentEscrow.sol",
  "abi": [
    {
      "inputs": [
        {
          "internalType": "address",
          "name": "_mdtToken",
          "type": "address"
        }
      ],
      "stateMutability": "nonpayable",
      "type": "constructor"
    },
    {
      "anonymous": false,
      "inputs": [
        {
          "indexed": true,
          "internalType": "uint256",
          "name": "taskId",
          "type": "uint256"
        },
        {
          "indexed": false,
          "internalType": "uint256",
          "name": "baseMin",
          "type": "uint256"
        },
        {
          "indexed": false,
          "internalType": "uint256",
          "name": "adaptiveMin",
          "type": "uint256"
        }
      ],
      "name": "AdaptiveValidationsApplied",
      "type": "event"
    },
    {
      "anonymous": false,
      "inputs": [
        {
          "indexed": false,
          "internalType": "uint256",
          "name": "commitDuration",
          "type": "uint256"
        },
        {
          "indexed": false,
          "internalType": "uint256",
          "name": "revealDuration",
          "type": "uint256"
        }
      ],
      "name": "CommitPhaseConfigUpdated",
      "type": "event"
    },
    {
      "anonymous": false,
      "inputs": [
        {
          "indexed": true,
          "internalType": "uint256",
          "name": "taskId",
          "type": "uint256"
        },
        {
          "indexed": false,
          "internalType": "uint256",
          "name": "minerIndex",
          "type": "uint256"
        },
        {
          "indexed": false,
          "internalType": "uint256",
          "name": "medianScore",
          "type": "uint256"
        },
        {
          "indexed": false,
          "internalType": "uint256",
          "name": "validatorCount",
          "type": "uint256"
        }
      ],
      "name": "ConsensusReached",
      "type": "event"
    },
    {
      "anonymous": false,
      "inputs": [
        {
          "indexed": false,
          "internalType": "uint256",
          "name": "oldPeriod",
          "type": "uint256"
        },
        {
          "indexed": false,
          "internalType": "uint256",
          "name": "newPeriod",
          "type": "uint256"
        }
      ],
      "name": "DisputeGracePeriodUpdated",
      "type": "event"
    },
    {
      "anonymous": false,
      "inputs": [
        {
          "indexed": true,
          "internalType": "uint256",
          "name": "taskId",
          "type": "uint256"
        },
        {
          "indexed": true,
          "internalType": "address",
          "name": "requester",
          "type": "address"
        },
        {
          "indexed": false,
          "internalType": "uint256",
          "name": "disputeDeadline",
          "type": "uint256"
        }
      ],
      "name": "DisputeOpened",
      "type": "event"
    },
    {
      "anonymous": false,
      "inputs": [
        {
          "indexed": true,
          "internalType": "uint256",
          "name": "taskId",
          "type": "uint256"
        },
        {
          "indexed": true,
          "internalType": "address",
          "name": "winner",
          "type": "address"
        },
        {
          "indexed": false,
          "internalType": "uint256",
          "name": "amount",
          "type": "uint256"
        }
      ],
      "name": "DisputeResolved",
      "type": "event"
    },
    {
      "anonymous": false,
      "inputs": [
        {
          "indexed": true,
          "internalType": "address",
          "name": "account",
          "type": "address"
        },
        {
          "indexed": false,
          "internalType": "uint256",
          "name": "amount",
          "type": "uint256"
        }
      ],
      "name": "EarningsWithdrawn",
      "type": "event"
    },
    {
      "anonymous": false,
      "inputs": [
        {
          "indexed": true,
          "internalType": "address",
          "name": "to",
          "type": "address"
        },
        {
          "indexed": false,
          "internalType": "uint256",
          "name": "amount",
          "type": "uint256"
        }
      ],
      "name": "FeesWithdrawn",
      "type": "event"
    },
    {
      "anonymous": false,
      "inputs": [
        {
          "indexed": false,
          "internalType": "uint256",
          "name": "oldMin",
          "type": "uint256"
        },
        {
          "indexed": false,
          "internalType": "uint256",
          "name": "newMin",
          "type": "uint256"
        }
      ],
      "name": "MinValidationsUpdated",
      "type": "event"
    },
    {
      "anonymous": false,
      "inputs": [
        {
          "indexed": true,
          "internalType": "address",
          "name": "previousOwner",
          "type": "address"
        },
        {
          "indexed": true,
          "internalType": "address",
          "name": "newOwner",
          "type": "address"
        }
      ],
      "name": "OwnershipTransferred",
      "type": "event"
    },
    {
      "anonymous": false,
      "inputs": [
        {
          "indexed": false,
          "internalType": "address",
          "name": "account",
          "type": "address"
        }
      ],
      "name": "Paused",
      "type": "event"
    },
    {
      "anonymous": false,
      "inputs": [
        {
          "indexed": false,
          "internalType": "uint256",
          "name": "oldRate",
          "type": "uint256"
        },
        {
          "indexed": false,
          "internalType": "uint256",
          "name": "newRate",
          "type": "uint256"
        }
      ],
      "name": "PlatformFeeUpdated",
      "type": "event"
    },
    {
      "anonymous": false,
      "inputs": [
        {
          "indexed": true,
          "internalType": "address",
          "name": "validator",
          "type": "address"
        },
        {
          "indexed": false,
          "internalType": "uint256",
          "name": "newScore",
          "type": "uint256"
        },
        {
          "indexed": false,
          "internalType": "uint256",
          "name": "totalValidations",
          "type": "uint256"
        },
        {
          "indexed": false,
          "internalType": "uint256",
          "name": "accurateValidations",
          "type": "uint256"
        }
      ],
      "name": "ReputationUpdated",
      "type": "event"
    },
    {
      "anonymous": false,
      "inputs": [
        {
          "indexed": true,
          "internalType": "uint256",
          "name": "taskId",
          "type": "uint256"
        },
        {
          "indexed": false,
          "internalType": "uint256",
          "name": "minerIndex",
          "type": "uint256"
        },
        {
          "indexed": true,
          "internalType": "address",
          "name": "validator",
          "type": "address"
        }
      ],
      "name": "ScoreCommitted",
      "type": "event"
    },
    {
      "anonymous": false,
      "inputs": [
        {
          "indexed": true,
          "internalType": "uint256",
          "name": "taskId",
          "type": "uint256"
        },
        {
          "indexed": false,
          "internalType": "uint256",
          "name": "minerIndex",
          "type": "uint256"
        },
        {
          "indexed": true,
          "internalType": "address",
          "name": "validator",
          "type": "address"
        },
        {
          "indexed": false,
          "internalType": "uint256",
          "name": "score",
          "type": "uint256"
        }
      ],
      "name": "ScoreRevealed",
      "type": "event"
    },
    {
      "anonymous": false,
      "inputs": [
        {
          "indexed": true,
          "internalType": "uint256",
          "name": "taskId",
          "type": "uint256"
        },
        {
          "indexed": true,
          "internalType": "address",
          "name": "miner",
          "type": "address"
        },
        {
          "indexed": false,
          "internalType": "string",
          "name": "resultHash",
          "type": "string"
        }
      ],
      "name": "SubmissionReceived",
      "type": "event"
    },
    {
      "anonymous": false,
      "inputs": [
        {
          "indexed": true,
          "internalType": "uint256",
          "name": "taskId",
          "type": "uint256"
        },
        {
          "indexed": true,
          "internalType": "address",
          "name": "miner",
          "type": "address"
        },
        {
          "indexed": false,
          "internalType": "uint256",
          "name": "score",
          "type": "uint256"
        },
        {
          "indexed": false,
          "internalType": "address",
          "name": "validator",
          "type": "address"
        }
      ],
      "name": "SubmissionValidated",
      "type": "event"
    },
    {
      "anonymous": false,
      "inputs": [
        {
          "indexed": true,
          "internalType": "uint256",
          "name": "taskId",
          "type": "uint256"
        },
        {
          "indexed": true,
          "internalType": "address",
          "name": "miner",
          "type": "address"
        }
      ],
      "name": "TaskAccepted",
      "type": "event"
    },
    {
      "anonymous": false,
      "inputs": [
        {
          "indexed": true,
          "internalType": "uint256",
          "name": "taskId",
          "type": "uint256"
        },
        {
          "indexed": true,
          "internalType": "address",
          "name": "requester",
          "type": "address"
        },
        {
          "indexed": false,
          "internalType": "uint256",
          "name": "refundAmount",
          "type": "uint256"
        }
      ],
      "name": "TaskCancelled",
      "type": "event"
    },
    {
      "anonymous": false,
      "inputs": [
        {
          "indexed": true,
          "internalType": "uint256",
          "name": "taskId",
          "type": "uint256"
        },
        {
          "indexed": true,
          "internalType": "address",
          "name": "winner",
          "type": "address"
        },
        {
          "indexed": false,
          "internalType": "uint256",
          "name": "reward",
          "type": "uint256"
        },
        {
          "indexed": false,
          "internalType": "uint256",
          "name": "score",
          "type": "uint256"
        }
      ],
      "name": "TaskCompleted",
      "type": "event"
    },
    {
      "anonymous": false,
      "inputs": [
        {
          "indexed": true,
          "internalType": "uint256",
          "name": "taskId",
          "type": "uint256"
        },
        {
          "indexed": true,
          "internalType": "address",
          "name": "requester",
          "type": "address"
        },
        {
          "indexed": false,
          "internalType": "uint256",
          "name": "rewardAmount",
          "type": "uint256"
        },
        {
          "indexed": false,
          "internalType": "uint256",
          "name": "deadline",
          "type": "uint256"
        },
        {
          "indexed": false,
          "internalType": "string",
          "name": "taskHash",
          "type": "string"
        }
      ],
      "name": "TaskCreated",
      "type": "event"
    },
    {
      "anonymous": false,
      "inputs": [
        {
          "indexed": true,
          "internalType": "uint256",
          "name": "taskId",
          "type": "uint256"
        }
      ],
      "name": "TaskExpired",
      "type": "event"
    },
    {
      "anonymous": false,
      "inputs": [
        {
          "indexed": true,
          "internalType": "uint256",
          "name": "taskId",
          "type": "uint256"
        },
        {
          "indexed": true,
          "internalType": "address",
          "name": "miner",
          "type": "address"
        },
        {
          "indexed": false,
          "internalType": "uint256",
          "name": "amount",
          "type": "uint256"
        }
      ],
      "name": "TaskRewardClaimed",
      "type": "event"
    },
    {
      "anonymous": false,
      "inputs": [
        {
          "indexed": true,
          "internalType": "uint256",
          "name": "taskId",
          "type": "uint256"
        },
        {
          "indexed": false,
          "internalType": "uint256",
          "name": "amount",
          "type": "uint256"
        }
      ],
      "name": "TokensBurned",
      "type": "event"
    },
    {
      "anonymous": false,
      "inputs": [
        {
          "indexed": false,
          "internalType": "address",
          "name": "account",
          "type": "address"
        }
      ],
      "name": "Unpaused",
      "type": "event"
    },
    {
      "anonymous": false,
      "inputs": [
        {
          "indexed": true,
          "internalType": "address",
          "name": "validator",
          "type": "address"
        }
      ],
      "name": "ValidatorAdded",
      "type": "event"
    },
    {
      "anonymous": false,
      "inputs": [
        {
          "indexed": true,
          "internalType": "uint256",
          "name": "taskId",
          "type": "uint256"
        },
        {
          "indexed": true,
          "internalType": "address",
          "name": "validator",
          "type": "address"
        },
        {
          "indexed": false,
          "internalType": "uint256",
          "name": "deviation",
          "type": "uint256"
        }
      ],
      "name": "ValidatorPenalized",
      "type": "event"
    },
    {
      "anonymous": false,
      "inputs": [
        {
          "indexed": true,
          "internalType": "address",
          "name": "validator",
          "type": "address"
        }
      ],
      "name": "ValidatorRemoved",
      "type": "event"
    },
    {
      "anonymous": false,
      "inputs": [
        {
          "indexed": true,
          "internalType": "uint256",
          "name": "taskId",
          "type": "uint256"
        },
        {
          "indexed": true,
          "internalType": "address",
          "name": "validator",
          "type": "address"
        },
        {
          "indexed": false,
          "internalType": "uint256",
          "name": "amount",
          "type": "uint256"
        },
        {
          "indexed": false,
          "internalType": "uint256",
          "name": "deviation",
          "type": "uint256"
        }
      ],
      "name": "ValidatorRewarded",
      "type": "event"
    },
    {
      "inputs": [],
      "name": "BURN_ADDRESS",
      "outputs": [
        {
          "internalType": "address",
          "name": "",
          "type": "address"
        }
      ],
      "stateMutability": "view",
      "type": "function"
    },
    {
      "inputs": [],
      "name": "HIGH_VALUE_THRESHOLD",
      "outputs": [
        {
          "internalType": "uint256",
          "name": "",
          "type": "uint256"
        }
      ],
      "stateMutability": "view",
      "type": "function"
    },
    {
      "inputs": [],
      "name": "ULTRA_VALUE_THRESHOLD",
      "outputs": [
        {
          "internalType": "uint256",
          "name": "",
          "type": "uint256"
        }
      ],
      "stateMutability": "view",
      "type": "function"
    },
    {
      "inputs": [
        {
          "internalType": "uint256",
          "name": "taskId",
          "type": "uint256"
        }
      ],
      "name": "acceptTask",
      "outputs": [],
      "stateMutability": "nonpayable",
      "type": "function"
    },
    {
      "inputs": [
        {
          "internalType": "address",
          "name": "",
          "type": "address"
        }
      ],
      "name": "activeTaskCount",
      "outputs": [
        {
          "internalType": "uint256",
          "name": "",
          "type": "uint256"
        }
      ],
      "stateMutability": "view",
      "type": "function"
    },
    {
      "inputs": [
        {
          "internalType": "address",
          "name": "validator",
          "type": "address"
        }
      ],
      "name": "addValidator",
      "outputs": [],
      "stateMutability": "nonpayable",
      "type": "function"
    },
    {
      "inputs": [
        {
          "internalType": "uint256",
          "name": "taskId",
          "type": "uint256"
        }
      ],
      "name": "cancelTask",
      "outputs": [],
      "stateMutability": "nonpayable",
      "type": "function"
    },
    {
      "inputs": [
        {
          "internalType": "uint256",
          "name": "taskId",
          "type": "uint256"
        }
      ],
      "name": "claimTaskReward",
      "outputs": [],
      "stateMutability": "nonpayable",
      "type": "function"
    },
    {
      "inputs": [],
      "name": "collectedFees",
      "outputs": [
        {
          "internalType": "uint256",
          "name": "",
          "type": "uint256"
        }
      ],
      "stateMutability": "view",
      "type": "function"
    },
    {
      "inputs": [
        {
          "internalType": "uint256",
          "name": "",
          "type": "uint256"
        },
        {
          "internalType": "uint256",
          "name": "",
          "type": "uint256"
        }
      ],
      "name": "commitCount",
      "outputs": [
        {
          "internalType": "uint256",
          "name": "",
          "type": "uint256"
        }
      ],
      "stateMutability": "view",
      "type": "function"
    },
    {
      "inputs": [],
      "name": "commitPhaseDuration",
      "outputs": [
        {
          "internalType": "uint256",
          "name": "",
          "type": "uint256"
        }
      ],
      "stateMutability": "view",
      "type": "function"
    },
    {
      "inputs": [
        {
          "internalType": "uint256",
          "name": "",
          "type": "uint256"
        },
        {
          "internalType": "uint256",
          "name": "",
          "type": "uint256"
        }
      ],
      "name": "commitPhaseStart",
      "outputs": [
        {
          "internalType": "uint256",
          "name": "",
          "type": "uint256"
        }
      ],
      "stateMutability": "view",
      "type": "function"
    },
    {
      "inputs": [
        {
          "internalType": "uint256",
          "name": "taskId",
          "type": "uint256"
        },
        {
          "internalType": "uint256",
          "name": "minerIndex",
          "type": "uint256"
        },
        {
          "internalType": "bytes32",
          "name": "commitHash",
          "type": "bytes32"
        }
      ],
      "name": "commitScore",
      "outputs": [],
      "stateMutability": "nonpayable",
      "type": "function"
    },
    {
      "inputs": [
        {
          "internalType": "string",
          "name": "taskHash",
          "type": "string"
        },
        {
          "internalType": "uint256",
          "name": "rewardAmount",
          "type": "uint256"
        },
        {
          "internalType": "uint256",
          "name": "duration",
          "type": "uint256"
        }
      ],
      "name": "createTask",
      "outputs": [
        {
          "internalType": "uint256",
          "name": "taskId",
          "type": "uint256"
        }
      ],
      "stateMutability": "nonpayable",
      "type": "function"
    },
    {
      "inputs": [
        {
          "internalType": "uint256",
          "name": "",
          "type": "uint256"
        }
      ],
      "name": "disputeDeadlines",
      "outputs": [
        {
          "internalType": "uint256",
          "name": "",
          "type": "uint256"
        }
      ],
      "stateMutability": "view",
      "type": "function"
    },
    {
      "inputs": [],
      "name": "disputeDuration",
      "outputs": [
        {
          "internalType": "uint256",
          "name": "",
          "type": "uint256"
        }
      ],
      "stateMutability": "view",
      "type": "function"
    },
    {
      "inputs": [],
      "name": "disputeGracePeriod",
      "outputs": [
        {
          "internalType": "uint256",
          "name": "",
          "type": "uint256"
        }
      ],
      "stateMutability": "view",
      "type": "function"
    },
    {
      "inputs": [
        {
          "internalType": "uint256",
          "name": "taskId",
          "type": "uint256"
        }
      ],
      "name": "expireTask",
      "outputs": [],
      "stateMutability": "nonpayable",
      "type": "function"
    },
    {
      "inputs": [
        {
          "internalType": "uint256",
          "name": "taskId",
          "type": "uint256"
        }
      ],
      "name": "finalizeTask",
      "outputs": [],
      "stateMutability": "nonpayable",
      "type": "function"
    },
    {
      "inputs": [
        {
          "internalType": "uint256",
          "name": "rewardAmount",
          "type": "uint256"
        }
      ],
      "name": "getAdaptiveMinValidations",
      "outputs": [
        {
          "internalType": "uint256",
          "name": "",
          "type": "uint256"
        }
      ],
      "stateMutability": "view",
      "type": "function"
    },
    {
      "inputs": [
        {
          "internalType": "uint256",
          "name": "score",
          "type": "uint256"
        },
        {
          "internalType": "bytes32",
          "name": "salt",
          "type": "bytes32"
        }
      ],
      "name": "getCommitHash",
      "outputs": [
        {
          "internalType": "bytes32",
          "name": "",
          "type": "bytes32"
        }
      ],
      "stateMutability": "pure",
      "type": "function"
    },
    {
      "inputs": [
        {
          "internalType": "uint256",
          "name": "taskId",
          "type": "uint256"
        }
      ],
      "name": "getSubmissionCount",
      "outputs": [
        {
          "internalType": "uint256",
          "name": "",
          "type": "uint256"
        }
      ],
      "stateMutability": "view",
      "type": "function"
    },
    {
      "inputs": [
        {
          "internalType": "uint256",
          "name": "taskId",
          "type": "uint256"
        }
      ],
      "name": "getSubmissions",
      "outputs": [
        {
          "components": [
            {
              "internalType": "address",
              "name": "miner",
              "type": "address"
            },
            {
              "internalType": "string",
              "name": "resultHash",
              "type": "string"
            },
            {
              "internalType": "uint256",
              "name": "score",
              "type": "uint256"
            },
            {
              "internalType": "bool",
              "name": "validated",
              "type": "bool"
            },
            {
              "internalType": "uint256",
              "name": "submittedAt",
              "type": "uint256"
            },
            {
              "internalType": "uint256",
              "name": "validationCount",
              "type": "uint256"
            }
          ],
          "internalType": "struct PaymentEscrow.MinerSubmission[]",
          "name": "",
          "type": "tuple[]"
        }
      ],
      "stateMutability": "view",
      "type": "function"
    },
    {
      "inputs": [
        {
          "internalType": "uint256",
          "name": "taskId",
          "type": "uint256"
        }
      ],
      "name": "getTask",
      "outputs": [
        {
          "components": [
            {
              "internalType": "uint256",
              "name": "id",
              "type": "uint256"
            },
            {
              "internalType": "address",
              "name": "requester",
              "type": "address"
            },
            {
              "internalType": "string",
              "name": "taskHash",
              "type": "string"
            },
            {
              "internalType": "uint256",
              "name": "rewardAmount",
              "type": "uint256"
            },
            {
              "internalType": "uint256",
              "name": "platformFee",
              "type": "uint256"
            },
            {
              "internalType": "uint256",
              "name": "validatorReward",
              "type": "uint256"
            },
            {
              "internalType": "uint256",
              "name": "deadline",
              "type": "uint256"
            },
            {
              "internalType": "enum PaymentEscrow.TaskStatus",
              "name": "status",
              "type": "uint8"
            },
            {
              "internalType": "address",
              "name": "assignedMiner",
              "type": "address"
            },
            {
              "internalType": "address",
              "name": "winningMiner",
              "type": "address"
            },
            {
              "internalType": "uint256",
              "name": "winningScore",
              "type": "uint256"
            },
            {
              "internalType": "uint256",
              "name": "createdAt",
              "type": "uint256"
            },
            {
              "internalType": "uint256",
              "name": "completedAt",
              "type": "uint256"
            }
          ],
          "internalType": "struct PaymentEscrow.Task",
          "name": "",
          "type": "tuple"
        }
      ],
      "stateMutability": "view",
      "type": "function"
    },
    {
      "inputs": [
        {
          "internalType": "uint256",
          "name": "taskId",
          "type": "uint256"
        },
        {
          "internalType": "uint256",
          "name": "minerIndex",
          "type": "uint256"
        },
        {
          "internalType": "address",
          "name": "validator",
          "type": "address"
        }
      ],
      "name": "getValidatorScore",
      "outputs": [
        {
          "internalType": "uint256",
          "name": "score",
          "type": "uint256"
        },
        {
          "internalType": "bool",
          "name": "hasScored",
          "type": "bool"
        }
      ],
      "stateMutability": "view",
      "type": "function"
    },
    {
      "inputs": [
        {
          "internalType": "uint256",
          "name": "",
          "type": "uint256"
        },
        {
          "internalType": "address",
          "name": "",
          "type": "address"
        }
      ],
      "name": "hasMinerSubmitted",
      "outputs": [
        {
          "internalType": "bool",
          "name": "",
          "type": "bool"
        }
      ],
      "stateMutability": "view",
      "type": "function"
    },
    {
      "inputs": [
        {
          "internalType": "uint256",
          "name": "",
          "type": "uint256"
        },
        {
          "internalType": "uint256",
          "name": "",
          "type": "uint256"
        },
        {
          "internalType": "address",
          "name": "",
          "type": "address"
        }
      ],
      "name": "hasValidatorScored",
      "outputs": [
        {
          "internalType": "bool",
          "name": "",
          "type": "bool"
        }
      ],
      "stateMutability": "view",
      "type": "function"
    },
    {
      "inputs": [
        {
          "internalType": "uint256",
          "name": "",
          "type": "uint256"
        }
      ],
      "name": "isDisputed",
      "outputs": [
        {
          "internalType": "bool",
          "name": "",
          "type": "bool"
        }
      ],
      "stateMutability": "view",
      "type": "function"
    },
    {
      "inputs": [
        {
          "internalType": "address",
          "name": "account",
          "type": "address"
        }
      ],
      "name": "isValidator",
      "outputs": [
        {
          "internalType": "bool",
          "name": "",
          "type": "bool"
        }
      ],
      "stateMutability": "view",
      "type": "function"
    },
    {
      "inputs": [],
      "name": "maxSubmissionsPerTask",
      "outputs": [
        {
          "internalType": "uint256",
          "name": "",
          "type": "uint256"
        }
      ],
      "stateMutability": "view",
      "type": "function"
    },
    {
      "inputs": [],
      "name": "maxTaskDuration",
      "outputs": [
        {
          "internalType": "uint256",
          "name": "",
          "type": "uint256"
        }
      ],
      "stateMutability": "view",
      "type": "function"
    },
    {
      "inputs": [],
      "name": "mdtToken",
      "outputs": [
        {
          "internalType": "contract IERC20",
          "name": "",
          "type": "address"
        }
      ],
      "stateMutability": "view",
      "type": "function"
    },
    {
      "inputs": [],
      "name": "minTaskReward",
      "outputs": [
        {
          "internalType": "uint256",
          "name": "",
          "type": "uint256"
        }
      ],
      "stateMutability": "view",
      "type": "function"
    },
    {
      "inputs": [],
      "name": "minValidations",
      "outputs": [
        {
          "internalType": "uint256",
          "name": "",
          "type": "uint256"
        }
      ],
      "stateMutability": "view",
      "type": "function"
    },
    {
      "inputs": [
        {
          "internalType": "address",
          "name": "",
          "type": "address"
        }
      ],
      "name": "minerEarnings",
      "outputs": [
        {
          "internalType": "uint256",
          "name": "",
          "type": "uint256"
        }
      ],
      "stateMutability": "view",
      "type": "function"
    },
    {
      "inputs": [
        {
          "internalType": "uint256",
          "name": "taskId",
          "type": "uint256"
        }
      ],
      "name": "openDispute",
      "outputs": [],
      "stateMutability": "nonpayable",
      "type": "function"
    },
    {
      "inputs": [],
      "name": "owner",
      "outputs": [
        {
          "internalType": "address",
          "name": "",
          "type": "address"
        }
      ],
      "stateMutability": "view",
      "type": "function"
    },
    {
      "inputs": [],
      "name": "pause",
      "outputs": [],
      "stateMutability": "nonpayable",
      "type": "function"
    },
    {
      "inputs": [],
      "name": "paused",
      "outputs": [
        {
          "internalType": "bool",
          "name": "",
          "type": "bool"
        }
      ],
      "stateMutability": "view",
      "type": "function"
    },
    {
      "inputs": [
        {
          "internalType": "address",
          "name": "",
          "type": "address"
        }
      ],
      "name": "pendingWithdrawals",
      "outputs": [
        {
          "internalType": "uint256",
          "name": "",
          "type": "uint256"
        }
      ],
      "stateMutability": "view",
      "type": "function"
    },
    {
      "inputs": [],
      "name": "platformFeeRate",
      "outputs": [
        {
          "internalType": "uint256",
          "name": "",
          "type": "uint256"
        }
      ],
      "stateMutability": "view",
      "type": "function"
    },
    {
      "inputs": [
        {
          "internalType": "address",
          "name": "validator",
          "type": "address"
        }
      ],
      "name": "removeValidator",
      "outputs": [],
      "stateMutability": "nonpayable",
      "type": "function"
    },
    {
      "inputs": [],
      "name": "renounceOwnership",
      "outputs": [],
      "stateMutability": "nonpayable",
      "type": "function"
    },
    {
      "inputs": [
        {
          "internalType": "uint256",
          "name": "taskId",
          "type": "uint256"
        },
        {
          "internalType": "bool",
          "name": "requesterWins",
          "type": "bool"
        }
      ],
      "name": "resolveDispute",
      "outputs": [],
      "stateMutability": "nonpayable",
      "type": "function"
    },
    {
      "inputs": [
        {
          "internalType": "uint256",
          "name": "",
          "type": "uint256"
        },
        {
          "internalType": "uint256",
          "name": "",
          "type": "uint256"
        }
      ],
      "name": "revealCount",
      "outputs": [
        {
          "internalType": "uint256",
          "name": "",
          "type": "uint256"
        }
      ],
      "stateMutability": "view",
      "type": "function"
    },
    {
      "inputs": [],
      "name": "revealPhaseDuration",
      "outputs": [
        {
          "internalType": "uint256",
          "name": "",
          "type": "uint256"
        }
      ],
      "stateMutability": "view",
      "type": "function"
    },
    {
      "inputs": [
        {
          "internalType": "uint256",
          "name": "taskId",
          "type": "uint256"
        },
        {
          "internalType": "uint256",
          "name": "minerIndex",
          "type": "uint256"
        },
        {
          "internalType": "uint256",
          "name": "score",
          "type": "uint256"
        },
        {
          "internalType": "bytes32",
          "name": "salt",
          "type": "bytes32"
        }
      ],
      "name": "revealScore",
      "outputs": [],
      "stateMutability": "nonpayable",
      "type": "function"
    },
    {
      "inputs": [
        {
          "internalType": "uint256",
          "name": "_commitDuration",
          "type": "uint256"
        },
        {
          "internalType": "uint256",
          "name": "_revealDuration",
          "type": "uint256"
        }
      ],
      "name": "setCommitRevealConfig",
      "outputs": [],
      "stateMutability": "nonpayable",
      "type": "function"
    },
    {
      "inputs": [
        {
          "internalType": "uint256",
          "name": "newPeriod",
          "type": "uint256"
        }
      ],
      "name": "setDisputeGracePeriod",
      "outputs": [],
      "stateMutability": "nonpayable",
      "type": "function"
    },
    {
      "inputs": [
        {
          "internalType": "uint256",
          "name": "newMin",
          "type": "uint256"
        }
      ],
      "name": "setMinValidations",
      "outputs": [],
      "stateMutability": "nonpayable",
      "type": "function"
    },
    {
      "inputs": [
        {
          "internalType": "uint256",
          "name": "newRate",
          "type": "uint256"
        }
      ],
      "name": "setPlatformFeeRate",
      "outputs": [],
      "stateMutability": "nonpayable",
      "type": "function"
    },
    {
      "inputs": [
        {
          "internalType": "uint256",
          "name": "taskId",
          "type": "uint256"
        },
        {
          "internalType": "string",
          "name": "resultHash",
          "type": "string"
        }
      ],
      "name": "submitResult",
      "outputs": [],
      "stateMutability": "nonpayable",
      "type": "function"
    },
    {
      "inputs": [
        {
          "internalType": "uint256",
          "name": "",
          "type": "uint256"
        }
      ],
      "name": "taskClaimableAt",
      "outputs": [
        {
          "internalType": "uint256",
          "name": "",
          "type": "uint256"
        }
      ],
      "stateMutability": "view",
      "type": "function"
    },
    {
      "inputs": [
        {
          "internalType": "uint256",
          "name": "",
          "type": "uint256"
        }
      ],
      "name": "taskRewardHold",
      "outputs": [
        {
          "internalType": "uint256",
          "name": "",
          "type": "uint256"
        }
      ],
      "stateMutability": "view",
      "type": "function"
    },
    {
      "inputs": [
        {
          "internalType": "uint256",
          "name": "",
          "type": "uint256"
        },
        {
          "internalType": "uint256",
          "name": "",
          "type": "uint256"
        }
      ],
      "name": "taskSubmissions",
      "outputs": [
        {
          "internalType": "address",
          "name": "miner",
          "type": "address"
        },
        {
          "internalType": "string",
          "name": "resultHash",
          "type": "string"
        },
        {
          "internalType": "uint256",
          "name": "score",
          "type": "uint256"
        },
        {
          "internalType": "bool",
          "name": "validated",
          "type": "bool"
        },
        {
          "internalType": "uint256",
          "name": "submittedAt",
          "type": "uint256"
        },
        {
          "internalType": "uint256",
          "name": "validationCount",
          "type": "uint256"
        }
      ],
      "stateMutability": "view",
      "type": "function"
    },
    {
      "inputs": [
        {
          "internalType": "uint256",
          "name": "",
          "type": "uint256"
        }
      ],
      "name": "tasks",
      "outputs": [
        {
          "internalType": "uint256",
          "name": "id",
          "type": "uint256"
        },
        {
          "internalType": "address",
          "name": "requester",
          "type": "address"
        },
        {
          "internalType": "string",
          "name": "taskHash",
          "type": "string"
        },
        {
          "internalType": "uint256",
          "name": "rewardAmount",
          "type": "uint256"
        },
        {
          "internalType": "uint256",
          "name": "platformFee",
          "type": "uint256"
        },
        {
          "internalType": "uint256",
          "name": "validatorReward",
          "type": "uint256"
        },
        {
          "internalType": "uint256",
          "name": "deadline",
          "type": "uint256"
        },
        {
          "internalType": "enum PaymentEscrow.TaskStatus",
          "name": "status",
          "type": "uint8"
        },
        {
          "internalType": "address",
          "name": "assignedMiner",
          "type": "address"
        },
        {
          "internalType": "address",
          "name": "winningMiner",
          "type": "address"
        },
        {
          "internalType": "uint256",
          "name": "winningScore",
          "type": "uint256"
        },
        {
          "internalType": "uint256",
          "name": "createdAt",
          "type": "uint256"
        },
        {
          "internalType": "uint256",
          "name": "completedAt",
          "type": "uint256"
        }
      ],
      "stateMutability": "view",
      "type": "function"
    },
    {
      "inputs": [],
      "name": "totalTasks",
      "outputs": [
        {
          "internalType": "uint256",
          "name": "",
          "type": "uint256"
        }
      ],
      "stateMutability": "view",
      "type": "function"
    },
    {
      "inputs": [
        {
          "internalType": "address",
          "name": "newOwner",
          "type": "address"
        }
      ],
      "name": "transferOwnership",
      "outputs": [],
      "stateMutability": "nonpayable",
      "type": "function"
    },
    {
      "inputs": [],
      "name": "unpause",
      "outputs": [],
      "stateMutability": "nonpayable",
      "type": "function"
    },
    {
      "inputs": [
        {
          "internalType": "uint256",
          "name": "taskId",
          "type": "uint256"
        },
        {
          "internalType": "uint256",
          "name": "minerIndex",
          "type": "uint256"
        },
        {
          "internalType": "uint256",
          "name": "score",
          "type": "uint256"
        }
      ],
      "name": "validateSubmission",
      "outputs": [],
      "stateMutability": "nonpayable",
      "type": "function"
    },
    {
      "inputs": [
        {
          "internalType": "uint256",
          "name": "",
          "type": "uint256"
        },
        {
          "internalType": "uint256",
          "name": "",
          "type": "uint256"
        },
        {
          "internalType": "address",
          "name": "",
          "type": "address"
        }
      ],
      "name": "validationCommits",
      "outputs": [
        {
          "internalType": "bytes32",
          "name": "commitHash",
          "type": "bytes32"
        },
        {
          "internalType": "uint256",
          "name": "committedAt",
          "type": "uint256"
        },
        {
          "internalType": "bool",
          "name": "revealed",
          "type": "bool"
        },
        {
          "internalType": "uint256",
          "name": "revealedScore",
          "type": "uint256"
        }
      ],
      "stateMutability": "view",
      "type": "function"
    },
    {
      "inputs": [],
      "name": "validatorCount",
      "outputs": [
        {
          "internalType": "uint256",
          "name": "",
          "type": "uint256"
        }
      ],
      "stateMutability": "view",
      "type": "function"
    },
    {
      "inputs": [
        {
          "internalType": "address",
          "name": "",
          "type": "address"
        }
      ],
      "name": "validatorEarnings",
      "outputs": [
        {
          "internalType": "uint256",
          "name": "",
          "type": "uint256"
        }
      ],
      "stateMutability": "view",
      "type": "function"
    },
    {
      "inputs": [
        {
          "internalType": "address",
          "name": "",
          "type": "address"
        }
      ],
      "name": "validatorReputation",
      "outputs": [
        {
          "internalType": "uint256",
          "name": "totalValidations",
          "type": "uint256"
        },
        {
          "internalType": "uint256",
          "name": "accurateValidations",
          "type": "uint256"
        },
        {
          "internalType": "uint256",
          "name": "reputationScore",
          "type": "uint256"
        },
        {
          "internalType": "uint256",
          "name": "lastActiveAt",
          "type": "uint256"
        }
      ],
      "stateMutability": "view",
      "type": "function"
    },
    {
      "inputs": [],
      "name": "validatorRewardRate",
      "outputs": [
        {
          "internalType": "uint256",
          "name": "",
          "type": "uint256"
        }
      ],
      "stateMutability": "view",
      "type": "function"
    },
    {
      "inputs": [
        {
          "internalType": "uint256",
          "name": "",
          "type": "uint256"
        },
        {
          "internalType": "uint256",
          "name": "",
          "type": "uint256"
        },
        {
          "internalType": "address",
          "name": "",
          "type": "address"
        }
      ],
      "name": "validatorScores",
      "outputs": [
        {
          "internalType": "uint256",
          "name": "",
          "type": "uint256"
        }
      ],
      "stateMutability": "view",
      "type": "function"
    },
    {
      "inputs": [
        {
          "internalType": "address",
          "name": "",
          "type": "address"
        }
      ],
      "name": "validators",
      "outputs": [
        {
          "internalType": "bool",
          "name": "",
          "type": "bool"
        }
      ],
      "stateMutability": "view",
      "type": "function"
    },
    {
      "inputs": [],
      "name": "withdrawEarnings",
      "outputs": [],
      "stateMutability": "nonpayable",
      "type": "function"
    },
    {
      "inputs": [
        {
          "internalType": "address",
          "name": "to",
          "type": "address"
        }
      ],
      "name": "withdrawFees",
      "outputs": [],
      "stateMutability": "nonpayable",
      "type": "function"
    }
  ],
  "bytecode": "0x6080346200014d57601f62004c7638819003918201601f19168301916001600160401b0383118484101762000152578084926020946040528339810103126200014d57516001600160a01b03808216918290036200014d57600160005560015460405191339082167f8be0079c531659141344cd1fd0a4f28419497f9722a3daafe3b4186f6b6457e0600080a36001600160a81b0319163360ff60a01b1916176001556101f46003556105dc6004556305f5e10060055562093a806006819055600a6007556002600b55610e10601a55610708601b55601d556202a300601e5581156200010b5750600280546001600160a01b031916919091179055604051614b0d9081620001698239f35b62461bcd60e51b815260206004820152601560248201527f496e76616c696420746f6b656e206164647265737300000000000000000000006044820152606490fd5b600080fd5b634e487b7160e01b600052604160045260246000fdfe6080604052600436101561001257600080fd5b60003560e01c8063059378ea146135a45780630b63a6e1146135865780630d88d4091461355a5780630ebac45a146135275780630f0da719146134ed5780630f43a677146134cf5780630fb6d805146134885780630fcc505a1461345c578063164e68de146133a157806316c53ced146132395780631bf6912d146130ea5780631d65e77e14612eea5780631dd73e0d14612b875780631ed5c43c14612b4d57806327d00fb01461298c5780632b52d8c3146128875780632e44085d1461286957806332e540e91461284357806334b25ee21461262557806339388006146125eb57806339b1185d146125cd5780633c9a6bf31461255f5780633f422ef3146124835780633f4ba83a146123e7578063403eceaf146123bb5780634052a9c71461217657806340a141ff146120e6578063483b4039146120c85780634d238c8e14611f8d57806353eea87514611ef45780635c975abb14611ece57806362ecc47a14611cdd57806365617a3514611cbd578063680038c714611c9f57806368a7f8261461184b578063715018a6146117ee57806377ad68da146117bb5780637be24cb81461178f5780637ca0ad2d146117435780637ccc586e146117135780637eec20a8146115995780638456cb591461153757806388488c33146112a85780638c0dd79a14610dcc5780638d97767214610cea5780638da5cb5b14610cc15780639003adfe14610ca3578063927fef2e14610c115780639d7eea9f14610bd2578063ac64c82214610b80578063b46e742414610b4d578063b6b6cc1314610b2f578063b73c6ce914610a6c578063b7ee5eda146106b9578063c058779f1461061d578063c0be15ec146105ff578063ca7b64bb146105df578063d127048514610583578063d22c81e514610565578063d65314b3146104f5578063dfc75372146104d7578063eeca08f0146104b9578063f0992c971461049b578063f2fde38b146103d7578063f3f437031461039d578063f70b5c0614610374578063fa52c7d814610335578063facd743b146103355763fccc28131461031357600080fd5b3461033057600036600319011261033057602060405161dead8152f35b600080fd5b34610330576020366003190112610330576001600160a01b03610356613ab5565b166000526009602052602060ff604060002054166040519015158152f35b34610330576000366003190112610330576002546040516001600160a01b039091168152602090f35b34610330576020366003190112610330576001600160a01b036103be613ab5565b1660005260136020526020604060002054604051908152f35b34610330576020366003190112610330576103f0613ab5565b6103f8614120565b6001600160a01b0390811690811561044757600154826001600160601b0360a01b821617600155167f8be0079c531659141344cd1fd0a4f28419497f9722a3daafe3b4186f6b6457e0600080a3005b60405162461bcd60e51b815260206004820152602660248201527f4f776e61626c653a206e6577206f776e657220697320746865207a65726f206160448201526564647265737360d01b6064820152608490fd5b34610330576000366003190112610330576020600554604051908152f35b34610330576000366003190112610330576020600354604051908152f35b34610330576000366003190112610330576020601b54604051908152f35b3461033057604061050536613acb565b82600052602091600f835284600020816000528352846000209160018060a01b03169182600052835260ff85600020541693600052600e835284600020906000528252836000209060005281528260002054918351928352151590820152f35b34610330576000366003190112610330576020600854604051908152f35b34610330576020366003190112610330576001600160a01b036105a4613ab5565b166000526014602052608060406000208054906001810154906003600282015491015491604051938452602084015260408301526060820152f35b3461033057600036600319011261033057602060405164174876e8008152f35b34610330576000366003190112610330576020600654604051908152f35b3461033057602036600319011261033057600435610639614120565b62127500811161067c5760407fc644d89d38f6123a9d8f429b97468696fe4ff4d34772c414b52c37347f1b4e4e91601e549080601e5582519182526020820152a1005b60405162461bcd60e51b8152602060048201526015602482015274477261636520706572696f6420746f6f206c6f6e6760581b6044820152606490fd5b346103305760603660031901126103305760043560243560443533600052602091600983526106ef60ff60406000205416613e86565b83151580610a56575b61070190613e0e565b6107096140d9565b83600052600c835260406000209260ff6007850154166007811015610a405780600261073e9214908115610a35575b50613ec4565b84600052600d81526107566040600020548310613f10565b610764612710841115613fec565b84600052600f81526040600020826000528152604060002033600052815260ff604060002054166109e05784600052600d81526107a5826040600020613b42565b5092600384019460ff86541661099d5786600052601c8352604060002084600052835260406000205461093e5786600052600e8352604060002084600052835260406000203360005283528160406000205586600052600f83526040600020846000528352604060002033600052835260406000209460ff199560018782541617905587600052602384526040600020856000528452610849336040600020614048565b60058101926108588454613d37565b94858555897f424e5ad88b2accc1579e610100b12e0f295d8c9e0b02abb61ad1e413e3d63d02604060018060a01b0394858754169482519182523390820152a3600b548510156108a457005b7fff2fc693bb2d4a09f21f0c403fce5ecb4b5b0b57e81c7253deb5386bb8a8ae779760016108d661091597898d6141f7565b988960028601558254161790556009830191878354811161091a575b505050505054604051938493846040919493926060820195825260208201520152565b0390a2005b6008935554169101906001600160601b0360a01b82541617905586808080876108f2565b60405162461bcd60e51b815260048101849052603160248201527f436f6d6d69742d72657665616c206163746976653a2075736520636f6d6d697460448201527053636f72652f72657665616c53636f726560781b6064820152608490fd5b6064836040519062461bcd60e51b825280600483015260248201527f5375626d697373696f6e20616c72656164792068617320636f6e73656e7375736044820152fd5b6084906040519062461bcd60e51b82526004820152602860248201527f56616c696461746f7220616c72656164792073636f72656420746869732073756044820152673136b4b9b9b4b7b760c11b6064820152fd5b600191501487610738565b634e487b7160e01b600052602160045260246000fd5b506000848152600c8452604090205484146106f8565b3461033057600036600319011261033057610a85614083565b3360005260136020526040600020548015610af457610aed90336000526013602052600060408120556040518181527f48dc35af7b45e2a81fffad55f6e2fafacdb1d3d0d50d24ebdc16324f5ba757f160203392a260025433906001600160a01b0316614178565b6001600055005b60405162461bcd60e51b81526020600482015260136024820152724e6f2070656e64696e67206561726e696e677360681b6044820152606490fd5b34610330576000366003190112610330576020601d54604051908152f35b3461033057610b5b36613a9f565b9060005260196020526040600020906000526020526020604060002054604051908152f35b34610330576040366003190112610330576024356001600160a01b03811690819003610330576004356000526015602052604060002090600052602052602060ff604060002054166040519015158152f35b34610330576040366003190112610330576020604051818101906004358252602435604082015260408152610c0681613c00565b519020604051908152f35b3461033057602036600319011261033057600435610c2d614120565b6103e88111610c6f5760407fd347e206f25a89b917fc9482f1a2d294d749baa4dc9bde7fb495ee11fe49164391600354908060035582519182526020820152a1005b60405162461bcd60e51b815260206004820152600c60248201526b08ccaca40e8dede40d0d2ced60a31b6044820152606490fd5b34610330576000366003190112610330576020601654604051908152f35b34610330576000366003190112610330576001546040516001600160a01b039091168152602090f35b3461033057602036600319011261033057600435600052600c6020526040600020604081549160018060a01b03908160018201541690610d2c60028201613c3c565b600382015493600483015490600584015460068501546007860154918360088801541694610d81600989015497600b600a8b01549a01549a8d519e8f9e8f6101a09384938252602082015201528d0190613af5565b9960608c015260808b015260a08a015260c0890152610da660e0890160ff8316613b35565b60081c166101008701526101208601526101408501526101608401526101808301520390f35b34610330576040366003190112610330576001600160401b0360243581811161033057610dfd903690600401613a72565b909160043515158061128f575b610e1390613e0e565b610e1b6140d9565b600435600052600c60205260406000209060ff60078301541660078110159081610a40578015918215611281575b8215611270575b50501561122b57610e6660068301544210613e4b565b82156111f257600435600052601560205260406000203360005260205260ff604060002054166111ad57600435600052600d60205260406000205460075411156111685760043560005260156020526040600020336000526020526040600020600160ff19825416179055600435600052600d60205260406000209060405190610eef82613bca565b338252610efd368688613d61565b92602083019384526000604084015260006060840152426080840152600060a08401528054600160401b81101561113c57610f3d91600182018155613b42565b93909361115257825184546001600160a01b0319166001600160a01b039190911617845551805191821161113c57610f786001850154613b74565b601f81116110f5575b50602090601f83116001146110805791806005949260a094600092611075575b50508160011b916000199060031b1c19161760018501555b60408101516002850155610fe260608201511515600386019060ff801983541691151516179055565b608081015160048501550151910155600781015460ff81166007811015610a4057801590811561106a575b50611056575b50507fa3dcf7cebcc4cf0937f4f95d95392671977ba143b4ff236240650322a106e8dc60405160208152806110513395600435956020840191613d98565b0390a3005b600260079160ff1916179101558280611013565b60019150148561100d565b015190508980610fa1565b906001850160005260206000209160005b601f19851681106110dd5750926005949260019260a09583601f198116106110c4575b505050811b016001850155610fb9565b015160001960f88460031b161c191690558980806110b4565b91926020600181928685015181550194019201611091565b600185016000526020600020601f840160051c810160208510611135575b601f830160051c82018110611129575050610f81565b60008155600101611113565b5080611113565b634e487b7160e01b600052604160045260246000fd5b634e487b7160e01b600052600060045260246000fd5b60405162461bcd60e51b815260206004820152601760248201527f4d6178207375626d697373696f6e7320726561636865640000000000000000006044820152606490fd5b60405162461bcd60e51b815260206004820152601760248201527f4d696e657220616c7265616479207375626d69747465640000000000000000006044820152606490fd5b60405162461bcd60e51b815260206004820152601160248201527008adae0e8f240e4cae6ead8e840d0c2e6d607b1b6044820152606490fd5b60405162461bcd60e51b815260206004820152601a60248201527f43616e6e6f74207375626d697420746f2074686973207461736b0000000000006044820152606490fd5b909150610a40576002148580610e50565b506001811491506000610e49565b506004356000818152600c602052604090205414610e0a565b3461033057602080600319360112610330576004356112c5614083565b80151580611521575b6112d790613e0e565b80600052600c82526040600020600781019081549360ff85166007811015610a40576002036114dd5760088201546001600160a01b039290831680156114a157857fefef8593ec020b84769ddb5cf4469accbbd22d882a354bee97694405126ca69460408299876001879b9a9b0154169060038701549160048801549760058101549c600360098301549460ff1916179055600b4291015560005260108852826000206113848154613fdf565b905561139f6113978860011c8099613fd2565b601654613d2a565b6016558560005260118852826000206113b9838254613d2a565b9055601e54611475578560005260138852826000206113d9838254613d2a565b90555b825191825287820152a38061140c575b50505050806113fc576001600055005b611405916143d8565b8080610aed565b60025460405163a9059cbb60e01b8482015261dead6024820152604480820184905281527f8bc81353cf6671d259d22783e39ed930583c86f3f4cf7e981298e6a872dfb15d94611465921661146082613be5565b61482b565b604051908152a2818380806113ec565b846000526021885281836000205561148f601e5442613d2a565b856000526022895283600020556113dc565b60405162461bcd60e51b81526004810184905260146024820152734e6f2076616c6964207375626d697373696f6e7360601b6044820152606490fd5b6064906040519062461bcd60e51b82526004820152601f60248201527f5461736b206e6f7420726561647920666f722066696e616c697a6174696f6e006044820152fd5b506000818152600c8352604090205481146112ce565b3461033057600036600319011261033057611550614120565b6115586140d9565b6001805460ff60a01b1916600160a01b1790556040513381527f62e78cea01bee320cd4e420270b5ea74000d11b0c9f74754ebdbfc544b05a25890602090a1005b3461033057602080600319360112610330576004356115b6614083565b801515806116fd575b6115c890613e0e565b6000818152600c835260409020600181015490926001600160a01b0391821633036116c857600784019283549360ff85166007811015610a405761168357600461162c8760056116236003610aed9b01548584015490613d2a565b91015490613d2a565b9560ff19161790553360005260108252604060002061164b8154613fdf565b90557f06f63d695245e4cf8f0b7aae0b8da95876a4b173ba8d0d4466cc83c357dda3a8604051928584523393a3339060025416614178565b60405162461bcd60e51b815260048101849052601760248201527f43616e6e6f742063616e63656c2074686973207461736b0000000000000000006044820152606490fd5b6064906040519062461bcd60e51b82526004820152600e60248201526d2737ba103a30b9b59037bbb732b960911b6044820152fd5b506000818152600c8352604090205481146115bf565b346103305760203660031901126103305760043560005260208052602060ff604060002054166040519015158152f35b346103305761175136613acb565b91600052600f60205260406000209060005260205260406000209060018060a01b0316600052602052602060ff604060002054166040519015158152f35b3461033057602036600319011261033057600435600052600d6020526020604060002054604051908152f35b34610330576117c936613a9f565b90600052601c6020526040600020906000526020526020604060002054604051908152f35b3461033057600036600319011261033057611807614120565b600180546001600160a01b031981169091556000906001600160a01b03167f8be0079c531659141344cd1fd0a4f28419497f9722a3daafe3b4186f6b6457e08280a3005b34610330576080366003190112610330576004356024803560449081356064336000526020906009825261188660ff60406000205416613e86565b86151580611c89575b61189890613e0e565b6118a06140d9565b86600052600c825260406000209060ff6007830154166007811015611c74578060026118d49214908115611c695750613ec4565b87600052600d83526118ec6040600020548610613f10565b6118fa612710851115613fec565b87600052600d8352611910856040600020613b42565b5090600382019761192560ff8a541615613f52565b89600052601c8552604060002087600052855261194a604060002054601a5490613d2a565b611956601b5482613d2a565b90421115611c28574211611bf3578960005260178552604060002087600052855260406000203360005285526040600020918254988915611bc157600284019283549a60ff8c16611b8d57604051898101908b825285356040820152604081526119bf81613c00565b51902003611b5d575050508591600391600160ff19809b1617905501558760005260198352604060002085600052835260406000206119fe8154613d37565b905587600052600e8352604060002085600052835260406000203360005283528360406000205587600052600f835260406000208560005283526040600020336000528352604060002060018782541617905587600052602383526040600020856000528352611a72336040600020614048565b6005810192611a818454613d37565b9485855560405191878352820152887f23def086b3dc14dbd150f69d2e6af648dfc789cdf251ba7d720feecbc0625f8560403393a3600b54841015611ac257005b7fff2fc693bb2d4a09f21f0c403fce5ecb4b5b0b57e81c7253deb5386bb8a8ae77966001611af461091596888c6141f7565b9788600285015582541617905560098201908682548111611b32575b5050505054604051938493846040919493926060820195825260208201520152565b6008925560018060a01b039054169101906001600160601b0360a01b82541617905586808086611b10565b8791600d6c090c2e6d040dad2e6dac2e8c6d609b1b926040519462461bcd60e51b86526004860152840152820152fd5b50879160106f105b1c9958591e481c995d99585b195960821b926040519462461bcd60e51b86526004860152840152820152fd5b6e139bc818dbdb5b5a5d08199bdd5b99608a1b8791600f856040519462461bcd60e51b86526004860152840152820152fd5b7114995d99585b081c1a185cd948195b99195960721b88601287936040519462461bcd60e51b86526004860152840152820152fd5b507f436f6d6d6974207068617365206e6f7420656e6465642079657400000000000088601a87936040519462461bcd60e51b86526004860152840152820152fd5b60019150148a610738565b87634e487b7160e01b60005260216004526000fd5b506000878152600c83526040902054871461188f565b34610330576000366003190112610330576020600b54604051908152f35b3461033057600036600319011261033057602060405164e8d4a510008152f35b346103305760208060031936011261033057600435611cfa614083565b80151580611eb8575b611d0c90613e0e565b80600052600c82526040600020916007830180549260ff841660078110159081610a40578015918215611eaa575b8215611e99575b505015611e5f576006850154421115611e235760088501546001600160a01b0392908316611dea576001866010926005611d94611d8a6003610aed9c0154600486015490613d2a565b8285015490613d2a565b9860ff1916179055019383855416600052526040600020611db58154613fdf565b90557f7c2ecd5e2b7188ac57f3a370681639cb447c9cbfbbbace0c070adea6c73eaa54600080a2806002541691541690614178565b60405162461bcd60e51b81526004810185905260116024820152702a30b9b5903430b99030903bb4b73732b960791b6044820152606490fd5b60405162461bcd60e51b815260048101849052601460248201527315185cdac81b9bdd081e595d08195e1c1a5c995960621b6044820152606490fd5b60405162461bcd60e51b81526004810184905260126024820152715461736b206e6f7420657870697261626c6560701b6044820152606490fd5b909150610a40576002148680611d41565b506001811491506000611d3a565b506000818152600c835260409020548114611d03565b3461033057600036600319011261033057602060ff60015460a01c166040519015158152f35b3461033057611f0236613a9f565b90600052600d602052604060002090815481101561033057611f2391613b42565b5080546001600160a01b0316611f3b60018301613c3c565b9160028101549060ff600382015416906005600482015491015491611f72604051968796875260c0602088015260c0870190613af5565b93604086015215156060850152608084015260a08301520390f35b346103305760208060031936011261033057611fa7613ab5565b611faf614120565b6001600160a01b031690611fc4821515613db9565b816000526009815260ff604060002054166120905781600052600981526040600020600160ff19825416179055611ffc600a54613d37565b600a5581600052601481526002604060002001541561203e575b507fe366c1c0452ed8eec96861e9e54141ebff23c9ec89fe27b996b45f5ec3884987600080a2005b60036040519161204d83613be5565b6000835280830160008152604084019061138882526014606086019342855287600052526040600020945185555160018501555160028401555191015581612016565b6064906040519062461bcd60e51b82526004820152601160248201527020b63932b0b23c903b30b634b230ba37b960791b6044820152fd5b34610330576000366003190112610330576020601a54604051908152f35b34610330576020366003190112610330576120ff613ab5565b612107614120565b6001600160a01b031660008181526009602052604090205461212b9060ff16613e86565b806000526009602052604060002060ff19815416905561214c600a54613fdf565b600a557fe1434e25d6611e0db941968fdc97811c982ac1602e951637d206f5fdda9dd8f1600080a2005b346103305760208060031936011261033057600435612193614083565b801515806123a5575b6121a590613e0e565b6000818152600c83526040902060088101546001600160a01b0316330361236857600760ff910154166007811015610a405760030361232e578060005281805260ff604060002054166122f157806000526022825260406000205442106122ac578060005260218252604060002054918215612276577f39853ba28b2acf0a75685a04695528be328b8c0a69b9d54743126d76820730a09082600052602181526000604081205533600052601381526040600020612264858254613d2a565b90556040519384523393a36001600055005b6064906040519062461bcd60e51b82526004820152600f60248201526e105b1c9958591e4818db185a5b5959608a1b6044820152fd5b60405162461bcd60e51b815260048101839052601b60248201527f4469737075746520677261636520706572696f642061637469766500000000006044820152606490fd5b60405162461bcd60e51b81526004810183905260156024820152745461736b20697320756e646572206469737075746560581b6044820152606490fd5b60405162461bcd60e51b815260048101839052601260248201527115185cdac81b9bdd0818dbdb5c1b195d195960721b6044820152606490fd5b60405162461bcd60e51b81526004810184905260156024820152742737ba103a3432903bb4b73734b7339036b4b732b960591b6044820152606490fd5b506000818152600c83526040902054811461219c565b346103305760203660031901126103305760043560005260226020526020604060002054604051908152f35b3461033057600036600319011261033057612400614120565b60015460ff8160a01c16156124475760ff60a01b19166001556040513381527f5db9ee0a495bf2e6ff9c91a7834c1ba4fdd244a5e8aa4e537bd38aeae4b073aa90602090a1005b60405162461bcd60e51b815260206004820152601460248201527314185d5cd8589b194e881b9bdd081c185d5cd95960621b6044820152606490fd5b346103305761249136613a9f565b612499614120565b61012c8083106125215781106124e357816040917f54333de66970050ba341fd48b02b1e37c55d85ae724ee00e32233e89e072bea893601a5580601b5582519182526020820152a1005b60405162461bcd60e51b815260206004820152601660248201527514995d99585b081c1a185cd9481d1bdbc81cda1bdc9d60521b6044820152606490fd5b60405162461bcd60e51b815260206004820152601660248201527510dbdb5b5a5d081c1a185cd9481d1bdbc81cda1bdc9d60521b6044820152606490fd5b346103305761256d36613acb565b91600052601760205260406000209060005260205260406000209060018060a01b031660005260205260806040600020805490600181015490600360ff600283015416910154916040519384526020840152151560408301526060820152f35b34610330576000366003190112610330576020600754604051908152f35b34610330576020366003190112610330576001600160a01b0361260c613ab5565b1660005260126020526020604060002054604051908152f35b346103305760403660031901126103305760243560043581151582036103305761264d614120565b612655614083565b8015158061282c575b61266790613e0e565b80600052602091600c8352604060002090600782019081549060ff82166007811015610a40576006036127f657156127af57506008820154600084815260218652604090205491926001600160a01b0391821683156127585785927fdf0baf5489595ea17a097d16827d60793e2f57f3b85a982e5d7e02838b841ee692889285600052602184526000604081205560005260118352604060002061270c878254613fd2565b905561272686600184600254169301928484541690614178565b541693604051908152a3805460ff191660041790555b6000528052604060002060ff1981541690556001600055600080f35b60405162461bcd60e51b815260048101889052602960248201527f52657761726420616c726561647920636c61696d6564202d2063616e6e6f7420604482015268636c6177206261636b60b81b6064820152608490fd5b60039060ff1916179055600860018060a01b0391015416817fdf0baf5489595ea17a097d16827d60793e2f57f3b85a982e5d7e02838b841ee68460405160008152a361273c565b60405162461bcd60e51b815260048101879052600e60248201526d4e6f7420696e206469737075746560901b6044820152606490fd5b506000818152600c6020526040902054811461265e565b34610330576020366003190112610330576020612861600435613f96565b604051908152f35b34610330576000366003190112610330576020600454604051908152f35b34610330576020366003190112610330576004356128a3614120565b6001811061294757600a548082119081159161293e575b50156128f95760407fb6db129b84dbdef2d15fbb03e44fe1050995a5b1f855b6faf62b419185e53dc891600b549080600b5582519182526020820152a1005b60405162461bcd60e51b815260206004820152601d60248201527f43616e6e6f74206578636565642076616c696461746f7220636f756e740000006044820152606490fd5b905015826128ba565b60405162461bcd60e51b815260206004820152601c60248201527f4d696e2076616c69646174696f6e73206d757374206265203e3d2031000000006044820152606490fd5b3461033057602080600319360112610330576004356129a9614083565b80151580612b37575b6129bb90613e0e565b6000818152600c83526040902060018101546001600160a01b03163303612af25760070180549060ff82166007811015610a4057600303612aaf578260005283805260ff60406000205416612a7757600660ff198093161790558160005282805260016040600020918254161790557f45c6ef09865025319c9f2a574b08ae087defce1c8b3640347d830c463909ce7b612a57601d5442613d2a565b9282600052601f8152836040600020556040519384523393a36001600055005b60405162461bcd60e51b815260048101859052601060248201526f105b1c9958591e48191a5cdc1d5d195960821b6044820152606490fd5b6064846040519062461bcd60e51b825280600483015260248201527f43616e206f6e6c79206469737075746520636f6d706c65746564207461736b736044820152fd5b60405162461bcd60e51b815260048101849052601a60248201527f4f6e6c79207265717565737465722063616e20646973707574650000000000006044820152606490fd5b506000818152600c8352604090205481146129b2565b34610330576020366003190112610330576001600160a01b03612b6e613ab5565b1660005260106020526020604060002054604051908152f35b34610330576060366003190112610330576004356024908135906044353360005260209060098252612bc060ff60406000205416613e86565b82151580612ed4575b612bd290613e0e565b612bda6140d9565b82600052600c825260ff600760406000200154166007811015612ebf57806002612c0c9214908115610a355750613ec4565b82600052600d8252612c246040600020548510613f10565b8015612e875782600052600d8252612c5160ff6003612c47876040600020613b42565b5001541615613f52565b826000526017825260406000208460005282526040600020336000528252604060002054612e4f5782600052600f82526040600020846000528252604060002033600052825260ff60406000205416612e0b5782600052601c8252604060002084600052825260406000205415612dec575b82600052601c82526040600020846000528252612ce8604060002054601a5490613d2a565b4211612db3576040517f96e134fdbcf6f2b8942aa1450973cc1e5914913673abacabebf1f0b14fe4a5529291612d1d82613be5565b81526003828201428152612d806040840160008152606085019260008452886000526017875260406000208a60005287526040600020336000528752604060002095518655516001860155511515600285019060ff801983541691151516179055565b51910155826000526018815260406000208460005281526040600020612da68154613d37565b90556040519384523393a3005b60405162461bcd60e51b8152600481018390526012818701527110dbdb5b5a5d081c1a185cd948195b99195960721b6044820152606490fd5b82600052601c8252604060002084600052825242604060002055612cc3565b60405162461bcd60e51b8152600481018390526017818701527f416c72656164792073636f726564206469726563746c790000000000000000006044820152606490fd5b60405162461bcd60e51b81526004810183905260118187015270105b1c9958591e4818dbdb5b5a5d1d1959607a1b6044820152606490fd5b60405162461bcd60e51b8152600481018390526011818701527008adae0e8f240c6dedadad2e840d0c2e6d607b1b6044820152606490fd5b85634e487b7160e01b60005260216004526000fd5b506000838152600c835260409020548314612bc9565b34610330576020366003190112610330576000610180604051612f0c81613bae565b828152826020820152606060408201528260608201528260808201528260a08201528260c08201528260e0820152826101008201528261012082015282610140820152826101608201520152600435600052600c602052604060002060405190612f7582613bae565b8054825260018101546001600160a01b03166020830152612f9860028201613c3c565b60408301526003810154606083015260048101546080830152600581015460a0830152600681015460c083015260078101549060ff8216916007831015610a4057600b9260e085015260018060a01b039060081c1661010084015260018060a01b036008820154166101208401526009810154610140840152600a81015461016084015201546101808201526040518091602082528051602083015260018060a01b03602082015116604083015261018061306460408301516101a060608601526101c0850190613af5565b9160608101516080850152608081015160a085015260a081015160c085015260c081015160e08501526130a060e0820151610100860190613b35565b60018060a01b036101008201511661012085015260018060a01b03610120820151166101408501526101408101516101608501526101608101518285015201516101a08301520390f35b346103305760203660031901126103305760043580151580613222575b61311090613e0e565b6131186140d9565b80600052600c6020526040600020600781019081549060ff82166007811015610a40576131e857600661314e9101544210613e4b565b60081c6001600160a01b03166131b0578054610100600160a81b0319163360081b610100600160a81b0316178155805460ff1916600117905533907fc8717b61398fb9d7cacf49fe1e296b2f10e9711226b532842b6ffd642cb6a2c6600080a3005b60405162461bcd60e51b815260206004820152601060248201526f105b1c9958591e48185cdcda59db995960821b6044820152606490fd5b60405162461bcd60e51b81526020600482015260126024820152715461736b206e6f7420617661696c61626c6560701b6044820152606490fd5b506000818152600c60205260409020548114613107565b346103305760208060031936011261033057600435600052600d815260406000209081549161326783613df7565b926132756040519485613c1b565b8084528284018092600052836000206000915b8383106133345750505050604051918083019381845251809452604083019360408160051b85010192916000955b8287106132c35785850386f35b909192938280600192603f198982030185528751906132fa60c0868060a01b03845116835284840151908086850152830190613af5565b91604081015160408301526060808201511515908301526080808201519083015260a08091015191015296019201960195929190926132b6565b60068660019260409998995161334981613bca565b848060a01b03865416815261335f858701613c3c565b838201526002860154604082015260ff6003870154161515606082015260048601546080820152600586015460a0820152815201920192019190959495613288565b34610330576020366003190112610330576133ba613ab5565b6133c2614120565b6001600160a01b03818116916133d9831515613db9565b6016549182156134215761341f9360006016557fc0819c13be868895eb93e40eaceb96de976442fa1d404e5c55f14bb65a8c489a6020604051868152a260025416614178565b005b60405162461bcd60e51b81526020600482015260136024820152724e6f206665657320746f20776974686472617760681b6044820152606490fd5b346103305760203660031901126103305760043560005260216020526020604060002054604051908152f35b346103305761349636613acb565b91600052600e60205260406000209060005260205260406000209060018060a01b03166000526020526020604060002054604051908152f35b34610330576000366003190112610330576020600a54604051908152f35b34610330576020366003190112610330576001600160a01b0361350e613ab5565b1660005260116020526020604060002054604051908152f35b346103305761353536613a9f565b9060005260186020526040600020906000526020526020604060002054604051908152f35b3461033057602036600319011261033057600435600052601f6020526020604060002054604051908152f35b34610330576000366003190112610330576020601e54604051908152f35b34610330576060366003190112610330576004356001600160401b038111610330576135d4903690600401613a72565b6135dc614083565b6135e46140d9565b8015613a3b5760055460243510613a05576044351515806139f7575b156139bf576127109081613618600354602435613ce1565b0491613628600454602435613ce1565b049161363f8361363a83602435613d2a565b613d2a565b6002546040516323b872dd60e01b60208201523360248201523060448201526064808201939093529182526001600160a01b0316906001600160401b0360a082019081119082111761113c5761369b9160a0820160405261482b565b6136a6600854613d37565b92836008556136b760443542613d2a565b90604051926136c584613bae565b8584523360208501526136d9368689613d61565b60408501526024356060850152608084015260a083015260c0820152600060e082015260006101008201526000610120820152600061014082015242610160820152600061018082015282600052600c602052604060002093815185556001850160018060a01b036020840151166001600160601b0360a01b82541617905560408201518051906001600160401b03821161113c57819061377d6002890154613b74565b601f811161396c575b50602090601f83116001146138fa576000926138ef575b50508160011b916000199060031b1c19161760028601555b606082015160038601556080820151600486015560a0820151600586015560c0820151600686015560e0820151906007821015610a4057600786018054610100850151610100600160a81b0360089190911b1660ff949094166001600160a81b0319909116179290921790915560209484927fb5e5fbf3346e9f5c610406862e51622b9d1e7fefd46de0e79367de79c2b74890929190600b90610180906008840160018060a01b03610120830151166001600160601b0360a01b8254161790556101408101516009850155610160810151600a8501550151910155336000526010865260406000206138a78154613d37565b905582600052600c86526006604060002001546138df6040519283926024358452898401526060604084015233966060840191613d98565b0390a36001600055604051908152f35b01519050878061379d565b9250600288016000526020600020906000935b601f1984168510613951576001945083601f19811610613938575b505050811b0160028601556137b5565b015160001960f88460031b161c19169055878080613928565b8181015183556020948501946001909301929091019061390d565b909150600288016000526020600020601f840160051c8101602085106139b8575b90849392915b601f830160051c820181106139a9575050613786565b60008155859450600101613993565b508061398d565b60405162461bcd60e51b815260206004820152601060248201526f24b73b30b634b210323ab930ba34b7b760811b6044820152606490fd5b506006546044351115613600565b60405162461bcd60e51b815260206004820152600e60248201526d52657761726420746f6f206c6f7760901b6044820152606490fd5b60405162461bcd60e51b815260206004820152600f60248201526e08adae0e8f240e8c2e6d640d0c2e6d608b1b6044820152606490fd5b9181601f84011215610330578235916001600160401b038311610330576020838186019501011161033057565b6040906003190112610330576004359060243590565b600435906001600160a01b038216820361033057565b60609060031901126103305760043590602435906044356001600160a01b03811681036103305790565b919082519283825260005b848110613b21575050826000602080949584010152601f8019910116010190565b602081830181015184830182015201613b00565b906007821015610a405752565b8054821015613b5e576000526006602060002091020190600090565b634e487b7160e01b600052603260045260246000fd5b90600182811c92168015613ba4575b6020831014613b8e57565b634e487b7160e01b600052602260045260246000fd5b91607f1691613b83565b6101a081019081106001600160401b0382111761113c57604052565b60c081019081106001600160401b0382111761113c57604052565b608081019081106001600160401b0382111761113c57604052565b606081019081106001600160401b0382111761113c57604052565b90601f801991011681019081106001600160401b0382111761113c57604052565b90604051918260008254613c4f81613b74565b90818452602094600191600181169081600014613cbf5750600114613c80575b505050613c7e92500383613c1b565b565b600090815285812095935091905b818310613ca7575050613c7e9350820101388080613c6f565b85548884018501529485019487945091830191613c8e565b92505050613c7e94925060ff191682840152151560051b820101388080613c6f565b81810292918115918404141715613cf457565b634e487b7160e01b600052601160045260246000fd5b8115613d14570490565b634e487b7160e01b600052601260045260246000fd5b91908201809211613cf457565b6000198114613cf45760010190565b6001600160401b03811161113c57601f01601f191660200190565b929192613d6d82613d46565b91613d7b6040519384613c1b565b829481845281830111610330578281602093846000960137010152565b908060209392818452848401376000828201840152601f01601f1916010190565b15613dc057565b60405162461bcd60e51b815260206004820152600f60248201526e496e76616c6964206164647265737360881b6044820152606490fd5b6001600160401b03811161113c5760051b60200190565b15613e1557565b60405162461bcd60e51b815260206004820152600e60248201526d15185cdac81b9bdd08199bdd5b9960921b6044820152606490fd5b15613e5257565b60405162461bcd60e51b815260206004820152600c60248201526b15185cdac8195e1c1a5c995960a21b6044820152606490fd5b15613e8d57565b60405162461bcd60e51b815260206004820152600f60248201526e2737ba1030903b30b634b230ba37b960891b6044820152606490fd5b15613ecb57565b60405162461bcd60e51b815260206004820152601760248201527f5461736b206e6f742070656e64696e67207265766965770000000000000000006044820152606490fd5b15613f1757565b60405162461bcd60e51b8152602060048201526013602482015272092dcecc2d8d2c840dad2dccae440d2dcc8caf606b1b6044820152606490fd5b15613f5957565b60405162461bcd60e51b8152602060048201526015602482015274416c72656164792068617320636f6e73656e73757360581b6044820152606490fd5b600b549064e8d4a510008110613fb5575060028101809111613cf45790565b64174876e8001115613fc45790565b60018101809111613cf45790565b91908203918211613cf457565b8015613cf4576000190190565b15613ff357565b60405162461bcd60e51b8152602060048201526015602482015274053636f7265206d75737420626520302d313030303605c1b6044820152606490fd5b8054821015613b5e5760005260206000200190600090565b8054600160401b81101561113c5761406591600182018155614030565b60018060a09493941b038084549260031b9316831b921b1916179055565b600260005414614094576002600055565b60405162461bcd60e51b815260206004820152601f60248201527f5265656e7472616e637947756172643a207265656e7472616e742063616c6c006044820152606490fd5b60ff60015460a01c166140e857565b60405162461bcd60e51b815260206004820152601060248201526f14185d5cd8589b194e881c185d5cd95960821b6044820152606490fd5b6001546001600160a01b0316330361413457565b606460405162461bcd60e51b815260206004820152602060248201527f4f776e61626c653a2063616c6c6572206973206e6f7420746865206f776e65726044820152fd5b60405163a9059cbb60e01b60208201526001600160a01b039092166024830152604480830193909352918152613c7e9161146082613be5565b906141bb82613df7565b6141c86040519182613c1b565b82815280926141d9601f1991613df7565b0190602036910137565b8051821015613b5e5760209160051b010190565b929190614203826141b1565b91600091858352602060238152604091828520818652825282852097885498858a036143945784518a815290875283872090998a9081860190895b87828210614375575050506142559250038a613c1b565b855b8581106143325750505050505090809293505160019160015b82811061428757505050506142849061495f565b90565b806142938592876141e3565b5181835b6142ad575b6142a690886141e3565b5201614270565b90919281151580614311575b15614309575060001981018181116142f55786916142da6142eb928a6141e3565b516142e5828b6141e3565b52613fdf565b9092919083614297565b634e487b7160e01b85526011600452602485fd5b92919061429c565b505060001981018181116142f5578261432b88928a6141e3565b51116142b9565b818752600e84528487208388528452848720600191906001600160a01b0361435a838e6141e3565b5116895285528588205461436e828b6141e3565b5201614257565b85546001600160a01b031684526001958601958f95509301920161423e565b845162461bcd60e51b815260048101859052601b60248201527f56616c696461746f7220747261636b696e67206d69736d6174636800000000006044820152606490fd5b9081600052600c60205260018060a01b0360086040600020015416600019600d6020526040600020916000908354915b8281106147de575b50505060001981146147cf5783600052602360205260406000208160005260205260406000209081549283156147be5761444c82600292613b42565b50015494614459846141b1565b9160009660005b86811061455f5750505050841561454f5760009460005b8481106144a057505050505080821061448e575050565b61449b9161139791613fd2565b601655565b806144ad600192856141e3565b511561454a576144da6144d3846144ce6144c785896141e3565b518b613ce1565b613d0a565b8099613d2a565b976144e58287614030565b905490600391858060a01b0391831b1c166000526012602052604060002061450e838254613d2a565b905561451a8388614030565b858060a09493941b039254911b1c1660005260136020526145416040600020918254613d2a565b90555b01614477565b614544565b50505061449b9150601654613d2a565b6145698187614030565b9990549985600052600e602052604060002085600052602052604060002060018060a01b038c8360031b1c166000526020526145aa846040600020546149ec565b9a60018060a01b03818360031b1c16600052601460205260406000209b6145d18d54613d37565b8d554260038e01556107d081116147165760018d016145f08154613d37565b905560646145fe868b6141e3565b5260405190600082526020820152877f3d70426d5de70b5ac8bff45c3c0cd89db0e473153868b8c61a938d42002584e8604060018060a01b03858760031b1c1693a35b8b805493846146e6575b614655868b6141e3565b519160020154918261466691613ce1565b6127109004614675878c6141e3565b52614680868b6141e3565b5161468a91613d2a565b60019d909d0154604080519283526020830195909552938101939093526001600160a01b0360039290921b1c16907fc2fd17ad7e9f23b8607f0bd02d7a6cdcccd5a964fa99ce5a066ed34c5b4bb55b90606090a2600101614460565b9060010154906127108281810204811483151715613cf457858f939161470c9202613d0a565b600283015561464b565b611388811161477257603261472b868b6141e3565b5260405190600082526020820152877f3d70426d5de70b5ac8bff45c3c0cd89db0e473153868b8c61a938d42002584e8604060018060a01b03858760031b1c1693a3614641565b600061477e868b6141e3565b52604051908152877f3b3050df353576101845973a6b18bbcf16a0187f1c80d60d83d95be509203c51602060018060a01b03858760031b1c1693a3614641565b5050505061449b9150601654613d2a565b505061449b9150601654613d2a565b816147e98287613b42565b50546001600160a01b03161480614813575b61480757600101614408565b92505050388080614410565b5060ff60036148228388613b42565b500154166147fb565b60018060a01b03169060405160408101908082106001600160401b0383111761113c576148ba916040526020938482527f5361666545524332303a206c6f772d6c6576656c2063616c6c206661696c6564858301526000808587829751910182855af13d15614957573d9161489f83613d46565b926148ad6040519485613c1b565b83523d868885013e614a3a565b80519182159184831561492c575b5050509050156148d55750565b6084906040519062461bcd60e51b82526004820152602a60248201527f5361666545524332303a204552433230206f7065726174696f6e20646964206e6044820152691bdd081cdd58d8d9595960b21b6064820152fd5b919381809450010312614953578201519081151582036149505750803880846148c8565b80fd5b5080fd5b606091614a3a565b805180156149b857600181811603614983579061497f9160011c906141e3565b5190565b60011c906000198201828111613cf4576149b2926149a46149ab92846141e3565b51926141e3565b5190613d2a565b60011c90565b60405162461bcd60e51b815260206004820152600c60248201526b456d7074792073636f72657360a01b6044820152606490fd5b8115614a33578180821115614a2357614a0491613fd2565b905b61271091828102928184041490151715613cf45761428491613d0a565b90614a2d91613fd2565b90614a06565b5050600090565b91929015614a9c5750815115614a4e575090565b3b15614a575790565b60405162461bcd60e51b815260206004820152601d60248201527f416464726573733a2063616c6c20746f206e6f6e2d636f6e74726163740000006044820152606490fd5b825190915015614aaf5750805190602001fd5b60405162461bcd60e51b815260206004820152908190614ad3906024830190613af5565b0390fdfea26469706673582212204a8ccfbf7e45b8eb44248b012ce9d5b4aacb7617afe75360664e1eba8662f38f64736f6c63430008180033",
  "linkReferences": {},
  "deployedLinkReferences": {}
}