{
  "_format": "hh-sol-artifact-1",
  "contractName": "PaymentEscrow",
  "sourceName": "src/PaymentEscrow.sol",
  "abi": [
    {
      "inputs": [
        {
          "internalType": "address",
          "name": "_mdtToken",
          "type": "address"
        }
      ],
      "stateMutability": "nonpayable",
      "type": "constructor"
    },
    {
      "anonymous": false,
      "inputs": [
        {
          "indexed": true,
          "internalType": "uint256",
          "name": "taskId",
          "type": "uint256"
        },
        {
          "indexed": false,
          "internalType": "uint256",
          "name": "baseMin",
          "type": "uint256"
        },
        {
          "indexed": false,
          "internalType": "uint256",
          "name": "adaptiveMin",
          "type": "uint256"
        }
      ],
      "name": "AdaptiveValidationsApplied",
      "type": "event"
    },
    {
      "anonymous": false,
      "inputs": [
        {
          "indexed": false,
          "internalType": "uint256",
          "name": "commitDuration",
          "type": "uint256"
        },
        {
          "indexed": false,
          "internalType": "uint256",
          "name": "revealDuration",
          "type": "uint256"
        }
      ],
      "name": "CommitPhaseConfigUpdated",
      "type": "event"
    },
    {
      "anonymous": false,
      "inputs": [
        {
          "indexed": true,
          "internalType": "uint256",
          "name": "taskId",
          "type": "uint256"
        },
        {
          "indexed": false,
          "internalType": "uint256",
          "name": "minerIndex",
          "type": "uint256"
        },
        {
          "indexed": false,
          "internalType": "uint256",
          "name": "medianScore",
          "type": "uint256"
        },
        {
          "indexed": false,
          "internalType": "uint256",
          "name": "validatorCount",
          "type": "uint256"
        }
      ],
      "name": "ConsensusReached",
      "type": "event"
    },
    {
      "anonymous": false,
      "inputs": [
        {
          "indexed": false,
          "internalType": "uint256",
          "name": "oldPeriod",
          "type": "uint256"
        },
        {
          "indexed": false,
          "internalType": "uint256",
          "name": "newPeriod",
          "type": "uint256"
        }
      ],
      "name": "DisputeGracePeriodUpdated",
      "type": "event"
    },
    {
      "anonymous": false,
      "inputs": [
        {
          "indexed": true,
          "internalType": "uint256",
          "name": "taskId",
          "type": "uint256"
        },
        {
          "indexed": true,
          "internalType": "address",
          "name": "requester",
          "type": "address"
        },
        {
          "indexed": false,
          "internalType": "uint256",
          "name": "disputeDeadline",
          "type": "uint256"
        }
      ],
      "name": "DisputeOpened",
      "type": "event"
    },
    {
      "anonymous": false,
      "inputs": [
        {
          "indexed": true,
          "internalType": "uint256",
          "name": "taskId",
          "type": "uint256"
        },
        {
          "indexed": true,
          "internalType": "address",
          "name": "winner",
          "type": "address"
        },
        {
          "indexed": false,
          "internalType": "uint256",
          "name": "amount",
          "type": "uint256"
        }
      ],
      "name": "DisputeResolved",
      "type": "event"
    },
    {
      "anonymous": false,
      "inputs": [
        {
          "indexed": true,
          "internalType": "address",
          "name": "account",
          "type": "address"
        },
        {
          "indexed": false,
          "internalType": "uint256",
          "name": "amount",
          "type": "uint256"
        }
      ],
      "name": "EarningsWithdrawn",
      "type": "event"
    },
    {
      "anonymous": false,
      "inputs": [
        {
          "indexed": true,
          "internalType": "address",
          "name": "to",
          "type": "address"
        },
        {
          "indexed": false,
          "internalType": "uint256",
          "name": "amount",
          "type": "uint256"
        }
      ],
      "name": "FeesWithdrawn",
      "type": "event"
    },
    {
      "anonymous": false,
      "inputs": [
        {
          "indexed": false,
          "internalType": "uint256",
          "name": "oldMin",
          "type": "uint256"
        },
        {
          "indexed": false,
          "internalType": "uint256",
          "name": "newMin",
          "type": "uint256"
        }
      ],
      "name": "MinValidationsUpdated",
      "type": "event"
    },
    {
      "anonymous": false,
      "inputs": [
        {
          "indexed": true,
          "internalType": "address",
          "name": "previousOwner",
          "type": "address"
        },
        {
          "indexed": true,
          "internalType": "address",
          "name": "newOwner",
          "type": "address"
        }
      ],
      "name": "OwnershipTransferred",
      "type": "event"
    },
    {
      "anonymous": false,
      "inputs": [
        {
          "indexed": false,
          "internalType": "address",
          "name": "account",
          "type": "address"
        }
      ],
      "name": "Paused",
      "type": "event"
    },
    {
      "anonymous": false,
      "inputs": [
        {
          "indexed": false,
          "internalType": "uint256",
          "name": "oldRate",
          "type": "uint256"
        },
        {
          "indexed": false,
          "internalType": "uint256",
          "name": "newRate",
          "type": "uint256"
        }
      ],
      "name": "PlatformFeeUpdated",
      "type": "event"
    },
    {
      "anonymous": false,
      "inputs": [
        {
          "indexed": true,
          "internalType": "address",
          "name": "validator",
          "type": "address"
        },
        {
          "indexed": false,
          "internalType": "uint256",
          "name": "newScore",
          "type": "uint256"
        },
        {
          "indexed": false,
          "internalType": "uint256",
          "name": "totalValidations",
          "type": "uint256"
        },
        {
          "indexed": false,
          "internalType": "uint256",
          "name": "accurateValidations",
          "type": "uint256"
        }
      ],
      "name": "ReputationUpdated",
      "type": "event"
    },
    {
      "anonymous": false,
      "inputs": [
        {
          "indexed": true,
          "internalType": "uint256",
          "name": "taskId",
          "type": "uint256"
        },
        {
          "indexed": false,
          "internalType": "uint256",
          "name": "minerIndex",
          "type": "uint256"
        },
        {
          "indexed": true,
          "internalType": "address",
          "name": "validator",
          "type": "address"
        }
      ],
      "name": "ScoreCommitted",
      "type": "event"
    },
    {
      "anonymous": false,
      "inputs": [
        {
          "indexed": true,
          "internalType": "uint256",
          "name": "taskId",
          "type": "uint256"
        },
        {
          "indexed": false,
          "internalType": "uint256",
          "name": "minerIndex",
          "type": "uint256"
        },
        {
          "indexed": true,
          "internalType": "address",
          "name": "validator",
          "type": "address"
        },
        {
          "indexed": false,
          "internalType": "uint256",
          "name": "score",
          "type": "uint256"
        }
      ],
      "name": "ScoreRevealed",
      "type": "event"
    },
    {
      "anonymous": false,
      "inputs": [
        {
          "indexed": true,
          "internalType": "uint256",
          "name": "taskId",
          "type": "uint256"
        },
        {
          "indexed": true,
          "internalType": "address",
          "name": "miner",
          "type": "address"
        },
        {
          "indexed": false,
          "internalType": "string",
          "name": "resultHash",
          "type": "string"
        }
      ],
      "name": "SubmissionReceived",
      "type": "event"
    },
    {
      "anonymous": false,
      "inputs": [
        {
          "indexed": true,
          "internalType": "uint256",
          "name": "taskId",
          "type": "uint256"
        },
        {
          "indexed": true,
          "internalType": "address",
          "name": "miner",
          "type": "address"
        },
        {
          "indexed": false,
          "internalType": "uint256",
          "name": "score",
          "type": "uint256"
        },
        {
          "indexed": false,
          "internalType": "address",
          "name": "validator",
          "type": "address"
        }
      ],
      "name": "SubmissionValidated",
      "type": "event"
    },
    {
      "anonymous": false,
      "inputs": [
        {
          "indexed": true,
          "internalType": "uint256",
          "name": "taskId",
          "type": "uint256"
        },
        {
          "indexed": true,
          "internalType": "address",
          "name": "miner",
          "type": "address"
        }
      ],
      "name": "TaskAccepted",
      "type": "event"
    },
    {
      "anonymous": false,
      "inputs": [
        {
          "indexed": true,
          "internalType": "uint256",
          "name": "taskId",
          "type": "uint256"
        },
        {
          "indexed": true,
          "internalType": "address",
          "name": "requester",
          "type": "address"
        },
        {
          "indexed": false,
          "internalType": "uint256",
          "name": "refundAmount",
          "type": "uint256"
        }
      ],
      "name": "TaskCancelled",
      "type": "event"
    },
    {
      "anonymous": false,
      "inputs": [
        {
          "indexed": true,
          "internalType": "uint256",
          "name": "taskId",
          "type": "uint256"
        },
        {
          "indexed": true,
          "internalType": "address",
          "name": "winner",
          "type": "address"
        },
        {
          "indexed": false,
          "internalType": "uint256",
          "name": "reward",
          "type": "uint256"
        },
        {
          "indexed": false,
          "internalType": "uint256",
          "name": "score",
          "type": "uint256"
        }
      ],
      "name": "TaskCompleted",
      "type": "event"
    },
    {
      "anonymous": false,
      "inputs": [
        {
          "indexed": true,
          "internalType": "uint256",
          "name": "taskId",
          "type": "uint256"
        },
        {
          "indexed": true,
          "internalType": "address",
          "name": "requester",
          "type": "address"
        },
        {
          "indexed": false,
          "internalType": "uint256",
          "name": "rewardAmount",
          "type": "uint256"
        },
        {
          "indexed": false,
          "internalType": "uint256",
          "name": "deadline",
          "type": "uint256"
        },
        {
          "indexed": false,
          "internalType": "string",
          "name": "taskHash",
          "type": "string"
        }
      ],
      "name": "TaskCreated",
      "type": "event"
    },
    {
      "anonymous": false,
      "inputs": [
        {
          "indexed": true,
          "internalType": "uint256",
          "name": "taskId",
          "type": "uint256"
        }
      ],
      "name": "TaskExpired",
      "type": "event"
    },
    {
      "anonymous": false,
      "inputs": [
        {
          "indexed": true,
          "internalType": "uint256",
          "name": "taskId",
          "type": "uint256"
        },
        {
          "indexed": true,
          "internalType": "address",
          "name": "miner",
          "type": "address"
        },
        {
          "indexed": false,
          "internalType": "uint256",
          "name": "amount",
          "type": "uint256"
        }
      ],
      "name": "TaskRewardClaimed",
      "type": "event"
    },
    {
      "anonymous": false,
      "inputs": [
        {
          "indexed": true,
          "internalType": "uint256",
          "name": "taskId",
          "type": "uint256"
        },
        {
          "indexed": false,
          "internalType": "uint256",
          "name": "amount",
          "type": "uint256"
        }
      ],
      "name": "TokensBurned",
      "type": "event"
    },
    {
      "anonymous": false,
      "inputs": [
        {
          "indexed": false,
          "internalType": "address",
          "name": "account",
          "type": "address"
        }
      ],
      "name": "Unpaused",
      "type": "event"
    },
    {
      "anonymous": false,
      "inputs": [
        {
          "indexed": true,
          "internalType": "address",
          "name": "validator",
          "type": "address"
        }
      ],
      "name": "ValidatorAdded",
      "type": "event"
    },
    {
      "anonymous": false,
      "inputs": [
        {
          "indexed": true,
          "internalType": "uint256",
          "name": "taskId",
          "type": "uint256"
        },
        {
          "indexed": true,
          "internalType": "address",
          "name": "validator",
          "type": "address"
        },
        {
          "indexed": false,
          "internalType": "uint256",
          "name": "deviation",
          "type": "uint256"
        }
      ],
      "name": "ValidatorPenalized",
      "type": "event"
    },
    {
      "anonymous": false,
      "inputs": [
        {
          "indexed": true,
          "internalType": "address",
          "name": "validator",
          "type": "address"
        }
      ],
      "name": "ValidatorRemoved",
      "type": "event"
    },
    {
      "anonymous": false,
      "inputs": [
        {
          "indexed": true,
          "internalType": "uint256",
          "name": "taskId",
          "type": "uint256"
        },
        {
          "indexed": true,
          "internalType": "address",
          "name": "validator",
          "type": "address"
        },
        {
          "indexed": false,
          "internalType": "uint256",
          "name": "amount",
          "type": "uint256"
        },
        {
          "indexed": false,
          "internalType": "uint256",
          "name": "deviation",
          "type": "uint256"
        }
      ],
      "name": "ValidatorRewarded",
      "type": "event"
    },
    {
      "inputs": [],
      "name": "BURN_ADDRESS",
      "outputs": [
        {
          "internalType": "address",
          "name": "",
          "type": "address"
        }
      ],
      "stateMutability": "view",
      "type": "function"
    },
    {
      "inputs": [],
      "name": "HIGH_VALUE_THRESHOLD",
      "outputs": [
        {
          "internalType": "uint256",
          "name": "",
          "type": "uint256"
        }
      ],
      "stateMutability": "view",
      "type": "function"
    },
    {
      "inputs": [],
      "name": "ULTRA_VALUE_THRESHOLD",
      "outputs": [
        {
          "internalType": "uint256",
          "name": "",
          "type": "uint256"
        }
      ],
      "stateMutability": "view",
      "type": "function"
    },
    {
      "inputs": [
        {
          "internalType": "uint256",
          "name": "taskId",
          "type": "uint256"
        }
      ],
      "name": "acceptTask",
      "outputs": [],
      "stateMutability": "nonpayable",
      "type": "function"
    },
    {
      "inputs": [
        {
          "internalType": "address",
          "name": "",
          "type": "address"
        }
      ],
      "name": "activeTaskCount",
      "outputs": [
        {
          "internalType": "uint256",
          "name": "",
          "type": "uint256"
        }
      ],
      "stateMutability": "view",
      "type": "function"
    },
    {
      "inputs": [
        {
          "internalType": "address",
          "name": "validator",
          "type": "address"
        }
      ],
      "name": "addValidator",
      "outputs": [],
      "stateMutability": "nonpayable",
      "type": "function"
    },
    {
      "inputs": [
        {
          "internalType": "uint256",
          "name": "taskId",
          "type": "uint256"
        }
      ],
      "name": "cancelTask",
      "outputs": [],
      "stateMutability": "nonpayable",
      "type": "function"
    },
    {
      "inputs": [
        {
          "internalType": "uint256",
          "name": "taskId",
          "type": "uint256"
        }
      ],
      "name": "claimTaskReward",
      "outputs": [],
      "stateMutability": "nonpayable",
      "type": "function"
    },
    {
      "inputs": [],
      "name": "collectedFees",
      "outputs": [
        {
          "internalType": "uint256",
          "name": "",
          "type": "uint256"
        }
      ],
      "stateMutability": "view",
      "type": "function"
    },
    {
      "inputs": [
        {
          "internalType": "uint256",
          "name": "",
          "type": "uint256"
        },
        {
          "internalType": "uint256",
          "name": "",
          "type": "uint256"
        }
      ],
      "name": "commitCount",
      "outputs": [
        {
          "internalType": "uint256",
          "name": "",
          "type": "uint256"
        }
      ],
      "stateMutability": "view",
      "type": "function"
    },
    {
      "inputs": [],
      "name": "commitPhaseDuration",
      "outputs": [
        {
          "internalType": "uint256",
          "name": "",
          "type": "uint256"
        }
      ],
      "stateMutability": "view",
      "type": "function"
    },
    {
      "inputs": [
        {
          "internalType": "uint256",
          "name": "",
          "type": "uint256"
        },
        {
          "internalType": "uint256",
          "name": "",
          "type": "uint256"
        }
      ],
      "name": "commitPhaseStart",
      "outputs": [
        {
          "internalType": "uint256",
          "name": "",
          "type": "uint256"
        }
      ],
      "stateMutability": "view",
      "type": "function"
    },
    {
      "inputs": [
        {
          "internalType": "uint256",
          "name": "taskId",
          "type": "uint256"
        },
        {
          "internalType": "uint256",
          "name": "minerIndex",
          "type": "uint256"
        },
        {
          "internalType": "bytes32",
          "name": "commitHash",
          "type": "bytes32"
        }
      ],
      "name": "commitScore",
      "outputs": [],
      "stateMutability": "nonpayable",
      "type": "function"
    },
    {
      "inputs": [
        {
          "internalType": "string",
          "name": "taskHash",
          "type": "string"
        },
        {
          "internalType": "uint256",
          "name": "rewardAmount",
          "type": "uint256"
        },
        {
          "internalType": "uint256",
          "name": "duration",
          "type": "uint256"
        }
      ],
      "name": "createTask",
      "outputs": [
        {
          "internalType": "uint256",
          "name": "taskId",
          "type": "uint256"
        }
      ],
      "stateMutability": "nonpayable",
      "type": "function"
    },
    {
      "inputs": [
        {
          "internalType": "uint256",
          "name": "",
          "type": "uint256"
        }
      ],
      "name": "disputeDeadlines",
      "outputs": [
        {
          "internalType": "uint256",
          "name": "",
          "type": "uint256"
        }
      ],
      "stateMutability": "view",
      "type": "function"
    },
    {
      "inputs": [],
      "name": "disputeDuration",
      "outputs": [
        {
          "internalType": "uint256",
          "name": "",
          "type": "uint256"
        }
      ],
      "stateMutability": "view",
      "type": "function"
    },
    {
      "inputs": [],
      "name": "disputeGracePeriod",
      "outputs": [
        {
          "internalType": "uint256",
          "name": "",
          "type": "uint256"
        }
      ],
      "stateMutability": "view",
      "type": "function"
    },
    {
      "inputs": [
        {
          "internalType": "uint256",
          "name": "taskId",
          "type": "uint256"
        }
      ],
      "name": "expireTask",
      "outputs": [],
      "stateMutability": "nonpayable",
      "type": "function"
    },
    {
      "inputs": [
        {
          "internalType": "uint256",
          "name": "taskId",
          "type": "uint256"
        }
      ],
      "name": "finalizeTask",
      "outputs": [],
      "stateMutability": "nonpayable",
      "type": "function"
    },
    {
      "inputs": [
        {
          "internalType": "uint256",
          "name": "rewardAmount",
          "type": "uint256"
        }
      ],
      "name": "getAdaptiveMinValidations",
      "outputs": [
        {
          "internalType": "uint256",
          "name": "",
          "type": "uint256"
        }
      ],
      "stateMutability": "view",
      "type": "function"
    },
    {
      "inputs": [
        {
          "internalType": "uint256",
          "name": "score",
          "type": "uint256"
        },
        {
          "internalType": "bytes32",
          "name": "salt",
          "type": "bytes32"
        }
      ],
      "name": "getCommitHash",
      "outputs": [
        {
          "internalType": "bytes32",
          "name": "",
          "type": "bytes32"
        }
      ],
      "stateMutability": "pure",
      "type": "function"
    },
    {
      "inputs": [
        {
          "internalType": "uint256",
          "name": "taskId",
          "type": "uint256"
        }
      ],
      "name": "getSubmissionCount",
      "outputs": [
        {
          "internalType": "uint256",
          "name": "",
          "type": "uint256"
        }
      ],
      "stateMutability": "view",
      "type": "function"
    },
    {
      "inputs": [
        {
          "internalType": "uint256",
          "name": "taskId",
          "type": "uint256"
        }
      ],
      "name": "getSubmissions",
      "outputs": [
        {
          "components": [
            {
              "internalType": "address",
              "name": "miner",
              "type": "address"
            },
            {
              "internalType": "string",
              "name": "resultHash",
              "type": "string"
            },
            {
              "internalType": "uint256",
              "name": "score",
              "type": "uint256"
            },
            {
              "internalType": "bool",
              "name": "validated",
              "type": "bool"
            },
            {
              "internalType": "uint256",
              "name": "submittedAt",
              "type": "uint256"
            },
            {
              "internalType": "uint256",
              "name": "validationCount",
              "type": "uint256"
            }
          ],
          "internalType": "struct PaymentEscrow.MinerSubmission[]",
          "name": "",
          "type": "tuple[]"
        }
      ],
      "stateMutability": "view",
      "type": "function"
    },
    {
      "inputs": [
        {
          "internalType": "uint256",
          "name": "taskId",
          "type": "uint256"
        }
      ],
      "name": "getTask",
      "outputs": [
        {
          "components": [
            {
              "internalType": "uint256",
              "name": "id",
              "type": "uint256"
            },
            {
              "internalType": "address",
              "name": "requester",
              "type": "address"
            },
            {
              "internalType": "string",
              "name": "taskHash",
              "type": "string"
            },
            {
              "internalType": "uint256",
              "name": "rewardAmount",
              "type": "uint256"
            },
            {
              "internalType": "uint256",
              "name": "platformFee",
              "type": "uint256"
            },
            {
              "internalType": "uint256",
              "name": "validatorReward",
              "type": "uint256"
            },
            {
              "internalType": "uint256",
              "name": "deadline",
              "type": "uint256"
            },
            {
              "internalType": "enum PaymentEscrow.TaskStatus",
              "name": "status",
              "type": "uint8"
            },
            {
              "internalType": "address",
              "name": "assignedMiner",
              "type": "address"
            },
            {
              "internalType": "address",
              "name": "winningMiner",
              "type": "address"
            },
            {
              "internalType": "uint256",
              "name": "winningScore",
              "type": "uint256"
            },
            {
              "internalType": "uint256",
              "name": "createdAt",
              "type": "uint256"
            },
            {
              "internalType": "uint256",
              "name": "completedAt",
              "type": "uint256"
            }
          ],
          "internalType": "struct PaymentEscrow.Task",
          "name": "",
          "type": "tuple"
        }
      ],
      "stateMutability": "view",
      "type": "function"
    },
    {
      "inputs": [
        {
          "internalType": "uint256",
          "name": "taskId",
          "type": "uint256"
        },
        {
          "internalType": "uint256",
          "name": "minerIndex",
          "type": "uint256"
        },
        {
          "internalType": "address",
          "name": "validator",
          "type": "address"
        }
      ],
      "name": "getValidatorScore",
      "outputs": [
        {
          "internalType": "uint256",
          "name": "score",
          "type": "uint256"
        },
        {
          "internalType": "bool",
          "name": "hasScored",
          "type": "bool"
        }
      ],
      "stateMutability": "view",
      "type": "function"
    },
    {
      "inputs": [
        {
          "internalType": "uint256",
          "name": "",
          "type": "uint256"
        },
        {
          "internalType": "address",
          "name": "",
          "type": "address"
        }
      ],
      "name": "hasMinerSubmitted",
      "outputs": [
        {
          "internalType": "bool",
          "name": "",
          "type": "bool"
        }
      ],
      "stateMutability": "view",
      "type": "function"
    },
    {
      "inputs": [
        {
          "internalType": "uint256",
          "name": "",
          "type": "uint256"
        },
        {
          "internalType": "uint256",
          "name": "",
          "type": "uint256"
        },
        {
          "internalType": "address",
          "name": "",
          "type": "address"
        }
      ],
      "name": "hasValidatorScored",
      "outputs": [
        {
          "internalType": "bool",
          "name": "",
          "type": "bool"
        }
      ],
      "stateMutability": "view",
      "type": "function"
    },
    {
      "inputs": [
        {
          "internalType": "uint256",
          "name": "",
          "type": "uint256"
        }
      ],
      "name": "isDisputed",
      "outputs": [
        {
          "internalType": "bool",
          "name": "",
          "type": "bool"
        }
      ],
      "stateMutability": "view",
      "type": "function"
    },
    {
      "inputs": [
        {
          "internalType": "address",
          "name": "account",
          "type": "address"
        }
      ],
      "name": "isValidator",
      "outputs": [
        {
          "internalType": "bool",
          "name": "",
          "type": "bool"
        }
      ],
      "stateMutability": "view",
      "type": "function"
    },
    {
      "inputs": [],
      "name": "maxSubmissionsPerTask",
      "outputs": [
        {
          "internalType": "uint256",
          "name": "",
          "type": "uint256"
        }
      ],
      "stateMutability": "view",
      "type": "function"
    },
    {
      "inputs": [],
      "name": "maxTaskDuration",
      "outputs": [
        {
          "internalType": "uint256",
          "name": "",
          "type": "uint256"
        }
      ],
      "stateMutability": "view",
      "type": "function"
    },
    {
      "inputs": [],
      "name": "mdtToken",
      "outputs": [
        {
          "internalType": "contract IERC20",
          "name": "",
          "type": "address"
        }
      ],
      "stateMutability": "view",
      "type": "function"
    },
    {
      "inputs": [],
      "name": "minTaskReward",
      "outputs": [
        {
          "internalType": "uint256",
          "name": "",
          "type": "uint256"
        }
      ],
      "stateMutability": "view",
      "type": "function"
    },
    {
      "inputs": [],
      "name": "minValidations",
      "outputs": [
        {
          "internalType": "uint256",
          "name": "",
          "type": "uint256"
        }
      ],
      "stateMutability": "view",
      "type": "function"
    },
    {
      "inputs": [
        {
          "internalType": "address",
          "name": "",
          "type": "address"
        }
      ],
      "name": "minerEarnings",
      "outputs": [
        {
          "internalType": "uint256",
          "name": "",
          "type": "uint256"
        }
      ],
      "stateMutability": "view",
      "type": "function"
    },
    {
      "inputs": [
        {
          "internalType": "uint256",
          "name": "taskId",
          "type": "uint256"
        }
      ],
      "name": "openDispute",
      "outputs": [],
      "stateMutability": "nonpayable",
      "type": "function"
    },
    {
      "inputs": [],
      "name": "owner",
      "outputs": [
        {
          "internalType": "address",
          "name": "",
          "type": "address"
        }
      ],
      "stateMutability": "view",
      "type": "function"
    },
    {
      "inputs": [],
      "name": "pause",
      "outputs": [],
      "stateMutability": "nonpayable",
      "type": "function"
    },
    {
      "inputs": [],
      "name": "paused",
      "outputs": [
        {
          "internalType": "bool",
          "name": "",
          "type": "bool"
        }
      ],
      "stateMutability": "view",
      "type": "function"
    },
    {
      "inputs": [
        {
          "internalType": "address",
          "name": "",
          "type": "address"
        }
      ],
      "name": "pendingWithdrawals",
      "outputs": [
        {
          "internalType": "uint256",
          "name": "",
          "type": "uint256"
        }
      ],
      "stateMutability": "view",
      "type": "function"
    },
    {
      "inputs": [],
      "name": "platformFeeRate",
      "outputs": [
        {
          "internalType": "uint256",
          "name": "",
          "type": "uint256"
        }
      ],
      "stateMutability": "view",
      "type": "function"
    },
    {
      "inputs": [
        {
          "internalType": "address",
          "name": "validator",
          "type": "address"
        }
      ],
      "name": "removeValidator",
      "outputs": [],
      "stateMutability": "nonpayable",
      "type": "function"
    },
    {
      "inputs": [],
      "name": "renounceOwnership",
      "outputs": [],
      "stateMutability": "nonpayable",
      "type": "function"
    },
    {
      "inputs": [
        {
          "internalType": "uint256",
          "name": "taskId",
          "type": "uint256"
        },
        {
          "internalType": "bool",
          "name": "requesterWins",
          "type": "bool"
        }
      ],
      "name": "resolveDispute",
      "outputs": [],
      "stateMutability": "nonpayable",
      "type": "function"
    },
    {
      "inputs": [
        {
          "internalType": "uint256",
          "name": "taskId",
          "type": "uint256"
        },
        {
          "internalType": "uint256",
          "name": "minerIndex",
          "type": "uint256"
        }
      ],
      "name": "resolveUnrevealedCommits",
      "outputs": [],
      "stateMutability": "nonpayable",
      "type": "function"
    },
    {
      "inputs": [
        {
          "internalType": "uint256",
          "name": "",
          "type": "uint256"
        },
        {
          "internalType": "uint256",
          "name": "",
          "type": "uint256"
        }
      ],
      "name": "revealCount",
      "outputs": [
        {
          "internalType": "uint256",
          "name": "",
          "type": "uint256"
        }
      ],
      "stateMutability": "view",
      "type": "function"
    },
    {
      "inputs": [],
      "name": "revealPhaseDuration",
      "outputs": [
        {
          "internalType": "uint256",
          "name": "",
          "type": "uint256"
        }
      ],
      "stateMutability": "view",
      "type": "function"
    },
    {
      "inputs": [
        {
          "internalType": "uint256",
          "name": "taskId",
          "type": "uint256"
        },
        {
          "internalType": "uint256",
          "name": "minerIndex",
          "type": "uint256"
        },
        {
          "internalType": "uint256",
          "name": "score",
          "type": "uint256"
        },
        {
          "internalType": "bytes32",
          "name": "salt",
          "type": "bytes32"
        }
      ],
      "name": "revealScore",
      "outputs": [],
      "stateMutability": "nonpayable",
      "type": "function"
    },
    {
      "inputs": [
        {
          "internalType": "uint256",
          "name": "_commitDuration",
          "type": "uint256"
        },
        {
          "internalType": "uint256",
          "name": "_revealDuration",
          "type": "uint256"
        }
      ],
      "name": "setCommitRevealConfig",
      "outputs": [],
      "stateMutability": "nonpayable",
      "type": "function"
    },
    {
      "inputs": [
        {
          "internalType": "uint256",
          "name": "newPeriod",
          "type": "uint256"
        }
      ],
      "name": "setDisputeGracePeriod",
      "outputs": [],
      "stateMutability": "nonpayable",
      "type": "function"
    },
    {
      "inputs": [
        {
          "internalType": "uint256",
          "name": "newMin",
          "type": "uint256"
        }
      ],
      "name": "setMinValidations",
      "outputs": [],
      "stateMutability": "nonpayable",
      "type": "function"
    },
    {
      "inputs": [
        {
          "internalType": "uint256",
          "name": "newRate",
          "type": "uint256"
        }
      ],
      "name": "setPlatformFeeRate",
      "outputs": [],
      "stateMutability": "nonpayable",
      "type": "function"
    },
    {
      "inputs": [
        {
          "internalType": "uint256",
          "name": "taskId",
          "type": "uint256"
        },
        {
          "internalType": "string",
          "name": "resultHash",
          "type": "string"
        }
      ],
      "name": "submitResult",
      "outputs": [],
      "stateMutability": "nonpayable",
      "type": "function"
    },
    {
      "inputs": [
        {
          "internalType": "uint256",
          "name": "",
          "type": "uint256"
        }
      ],
      "name": "taskClaimableAt",
      "outputs": [
        {
          "internalType": "uint256",
          "name": "",
          "type": "uint256"
        }
      ],
      "stateMutability": "view",
      "type": "function"
    },
    {
      "inputs": [
        {
          "internalType": "uint256",
          "name": "",
          "type": "uint256"
        }
      ],
      "name": "taskRewardHold",
      "outputs": [
        {
          "internalType": "uint256",
          "name": "",
          "type": "uint256"
        }
      ],
      "stateMutability": "view",
      "type": "function"
    },
    {
      "inputs": [
        {
          "internalType": "uint256",
          "name": "",
          "type": "uint256"
        },
        {
          "internalType": "uint256",
          "name": "",
          "type": "uint256"
        }
      ],
      "name": "taskSubmissions",
      "outputs": [
        {
          "internalType": "address",
          "name": "miner",
          "type": "address"
        },
        {
          "internalType": "string",
          "name": "resultHash",
          "type": "string"
        },
        {
          "internalType": "uint256",
          "name": "score",
          "type": "uint256"
        },
        {
          "internalType": "bool",
          "name": "validated",
          "type": "bool"
        },
        {
          "internalType": "uint256",
          "name": "submittedAt",
          "type": "uint256"
        },
        {
          "internalType": "uint256",
          "name": "validationCount",
          "type": "uint256"
        }
      ],
      "stateMutability": "view",
      "type": "function"
    },
    {
      "inputs": [
        {
          "internalType": "uint256",
          "name": "",
          "type": "uint256"
        }
      ],
      "name": "tasks",
      "outputs": [
        {
          "internalType": "uint256",
          "name": "id",
          "type": "uint256"
        },
        {
          "internalType": "address",
          "name": "requester",
          "type": "address"
        },
        {
          "internalType": "string",
          "name": "taskHash",
          "type": "string"
        },
        {
          "internalType": "uint256",
          "name": "rewardAmount",
          "type": "uint256"
        },
        {
          "internalType": "uint256",
          "name": "platformFee",
          "type": "uint256"
        },
        {
          "internalType": "uint256",
          "name": "validatorReward",
          "type": "uint256"
        },
        {
          "internalType": "uint256",
          "name": "deadline",
          "type": "uint256"
        },
        {
          "internalType": "enum PaymentEscrow.TaskStatus",
          "name": "status",
          "type": "uint8"
        },
        {
          "internalType": "address",
          "name": "assignedMiner",
          "type": "address"
        },
        {
          "internalType": "address",
          "name": "winningMiner",
          "type": "address"
        },
        {
          "internalType": "uint256",
          "name": "winningScore",
          "type": "uint256"
        },
        {
          "internalType": "uint256",
          "name": "createdAt",
          "type": "uint256"
        },
        {
          "internalType": "uint256",
          "name": "completedAt",
          "type": "uint256"
        }
      ],
      "stateMutability": "view",
      "type": "function"
    },
    {
      "inputs": [],
      "name": "totalTasks",
      "outputs": [
        {
          "internalType": "uint256",
          "name": "",
          "type": "uint256"
        }
      ],
      "stateMutability": "view",
      "type": "function"
    },
    {
      "inputs": [
        {
          "internalType": "address",
          "name": "newOwner",
          "type": "address"
        }
      ],
      "name": "transferOwnership",
      "outputs": [],
      "stateMutability": "nonpayable",
      "type": "function"
    },
    {
      "inputs": [],
      "name": "unpause",
      "outputs": [],
      "stateMutability": "nonpayable",
      "type": "function"
    },
    {
      "inputs": [
        {
          "internalType": "uint256",
          "name": "taskId",
          "type": "uint256"
        },
        {
          "internalType": "uint256",
          "name": "minerIndex",
          "type": "uint256"
        },
        {
          "internalType": "uint256",
          "name": "score",
          "type": "uint256"
        }
      ],
      "name": "validateSubmission",
      "outputs": [],
      "stateMutability": "nonpayable",
      "type": "function"
    },
    {
      "inputs": [
        {
          "internalType": "uint256",
          "name": "",
          "type": "uint256"
        },
        {
          "internalType": "uint256",
          "name": "",
          "type": "uint256"
        },
        {
          "internalType": "address",
          "name": "",
          "type": "address"
        }
      ],
      "name": "validationCommits",
      "outputs": [
        {
          "internalType": "bytes32",
          "name": "commitHash",
          "type": "bytes32"
        },
        {
          "internalType": "uint256",
          "name": "committedAt",
          "type": "uint256"
        },
        {
          "internalType": "bool",
          "name": "revealed",
          "type": "bool"
        },
        {
          "internalType": "uint256",
          "name": "revealedScore",
          "type": "uint256"
        }
      ],
      "stateMutability": "view",
      "type": "function"
    },
    {
      "inputs": [],
      "name": "validatorCount",
      "outputs": [
        {
          "internalType": "uint256",
          "name": "",
          "type": "uint256"
        }
      ],
      "stateMutability": "view",
      "type": "function"
    },
    {
      "inputs": [
        {
          "internalType": "address",
          "name": "",
          "type": "address"
        }
      ],
      "name": "validatorEarnings",
      "outputs": [
        {
          "internalType": "uint256",
          "name": "",
          "type": "uint256"
        }
      ],
      "stateMutability": "view",
      "type": "function"
    },
    {
      "inputs": [
        {
          "internalType": "address",
          "name": "",
          "type": "address"
        }
      ],
      "name": "validatorReputation",
      "outputs": [
        {
          "internalType": "uint256",
          "name": "totalValidations",
          "type": "uint256"
        },
        {
          "internalType": "uint256",
          "name": "accurateValidations",
          "type": "uint256"
        },
        {
          "internalType": "uint256",
          "name": "reputationScore",
          "type": "uint256"
        },
        {
          "internalType": "uint256",
          "name": "lastActiveAt",
          "type": "uint256"
        }
      ],
      "stateMutability": "view",
      "type": "function"
    },
    {
      "inputs": [],
      "name": "validatorRewardRate",
      "outputs": [
        {
          "internalType": "uint256",
          "name": "",
          "type": "uint256"
        }
      ],
      "stateMutability": "view",
      "type": "function"
    },
    {
      "inputs": [
        {
          "internalType": "uint256",
          "name": "",
          "type": "uint256"
        },
        {
          "internalType": "uint256",
          "name": "",
          "type": "uint256"
        },
        {
          "internalType": "address",
          "name": "",
          "type": "address"
        }
      ],
      "name": "validatorScores",
      "outputs": [
        {
          "internalType": "uint256",
          "name": "",
          "type": "uint256"
        }
      ],
      "stateMutability": "view",
      "type": "function"
    },
    {
      "inputs": [
        {
          "internalType": "address",
          "name": "",
          "type": "address"
        }
      ],
      "name": "validators",
      "outputs": [
        {
          "internalType": "bool",
          "name": "",
          "type": "bool"
        }
      ],
      "stateMutability": "view",
      "type": "function"
    },
    {
      "inputs": [],
      "name": "withdrawEarnings",
      "outputs": [],
      "stateMutability": "nonpayable",
      "type": "function"
    },
    {
      "inputs": [
        {
          "internalType": "address",
          "name": "to",
          "type": "address"
        }
      ],
      "name": "withdrawFees",
      "outputs": [],
      "stateMutability": "nonpayable",
      "type": "function"
    }
  ],
  "bytecode": "0x6080346200014d57601f62004fcb38819003918201601f19168301916001600160401b0383118484101762000152578084926020946040528339810103126200014d57516001600160a01b03808216918290036200014d57600160005560015460405191339082167f8be0079c531659141344cd1fd0a4f28419497f9722a3daafe3b4186f6b6457e0600080a36001600160a81b0319163360ff60a01b1916176001556101f46003556105dc6004556305f5e10060055562093a806006819055600a6007556002600b55610e10601a55610708601b55601d556202a300601e5581156200010b5750600280546001600160a01b031916919091179055604051614e629081620001698239f35b62461bcd60e51b815260206004820152601560248201527f496e76616c696420746f6b656e206164647265737300000000000000000000006044820152606490fd5b600080fd5b634e487b7160e01b600052604160045260246000fdfe6080604052600436101561001257600080fd5b60003560e01c8063059378ea146138ad5780630b63a6e11461388f5780630d88d409146138635780630ebac45a146138305780630f0da719146137f65780630f43a677146137d85780630fb6d805146137915780630fcc505a14613765578063164e68de146136aa57806316c53ced146135425780631bf6912d146133f35780631d65e77e146131f35780631dd73e0d14612e7a5780631ed5c43c14612e4057806327d00fb014612c7f5780632b52d8c314612b7a5780632e44085d14612b5c57806332e540e914612b3657806334b25ee21461291857806339388006146128de57806339b1185d146128c05780633c9a6bf3146128525780633f422ef3146127765780633f4ba83a146126da578063403eceaf146126ae5780634052a9c71461246957806340a141ff146123d9578063483b4039146123bb5780634d238c8e1461228057806353eea875146121e75780635c975abb146121c157806362ecc47a14611fd057806365617a3514611fb0578063680038c714611f9257806368a7f82614611b3e578063715018a614611ae157806377ad68da14611aae5780637be24cb814611a825780637ca0ad2d14611a365780637ccc586e14611a065780637eec20a81461188c5780638456cb591461182a57806388488c331461159b5780638c0dd79a146110bf5780638d97767214610fdd5780638da5cb5b14610fb45780639003adfe14610f96578063927fef2e14610f045780639d7eea9f14610ec55780639f3b989714610bf1578063ac64c82214610b9f578063b46e742414610b6c578063b6b6cc1314610b4e578063b73c6ce914610a8b578063b7ee5eda146106c4578063c058779f14610628578063c0be15ec1461060a578063ca7b64bb146105ea578063d12704851461058e578063d22c81e514610570578063d65314b314610500578063dfc75372146104e2578063eeca08f0146104c4578063f0992c97146104a6578063f2fde38b146103e2578063f3f43703146103a8578063f70b5c061461037f578063fa52c7d814610340578063facd743b146103405763fccc28131461031e57600080fd5b3461033b57600036600319011261033b57602060405161dead8152f35b600080fd5b3461033b57602036600319011261033b576001600160a01b03610361613dbe565b166000526009602052602060ff604060002054166040519015158152f35b3461033b57600036600319011261033b576002546040516001600160a01b039091168152602090f35b3461033b57602036600319011261033b576001600160a01b036103c9613dbe565b1660005260136020526020604060002054604051908152f35b3461033b57602036600319011261033b576103fb613dbe565b610403614475565b6001600160a01b0390811690811561045257600154826001600160601b0360a01b821617600155167f8be0079c531659141344cd1fd0a4f28419497f9722a3daafe3b4186f6b6457e0600080a3005b60405162461bcd60e51b815260206004820152602660248201527f4f776e61626c653a206e6577206f776e657220697320746865207a65726f206160448201526564647265737360d01b6064820152608490fd5b3461033b57600036600319011261033b576020600554604051908152f35b3461033b57600036600319011261033b576020600354604051908152f35b3461033b57600036600319011261033b576020601b54604051908152f35b3461033b57604061051036613dd4565b82600052602091600f835284600020816000528352846000209160018060a01b03169182600052835260ff85600020541693600052600e835284600020906000528252836000209060005281528260002054918351928352151590820152f35b3461033b57600036600319011261033b576020600854604051908152f35b3461033b57602036600319011261033b576001600160a01b036105af613dbe565b166000526014602052608060406000208054906001810154906003600282015491015491604051938452602084015260408301526060820152f35b3461033b57600036600319011261033b57602060405164174876e8008152f35b3461033b57600036600319011261033b576020600654604051908152f35b3461033b57602036600319011261033b57600435610644614475565b6212750081116106875760407fc644d89d38f6123a9d8f429b97468696fe4ff4d34772c414b52c37347f1b4e4e91601e549080601e5582519182526020820152a1005b60405162461bcd60e51b8152602060048201526015602482015274477261636520706572696f6420746f6f206c6f6e6760581b6044820152606490fd5b3461033b57606036600319011261033b576004356024356044359033600052602090600982526106fb60ff6040600020541661418f565b83151580610a75575b61070d90614117565b61071561442e565b83600052600c825260406000209260ff6007850154166007811015610a5f5780600261074a9214908115610a54575b506141cd565b84600052600d83526107626040600020548310614219565b610770612710821115614341565b84600052600f83526040600020826000528352604060002033600052835260ff604060002054166109fe5784600052600d83526107b1826040600020613e4b565b5092600384019460ff8654166109bb5784546001600160a01b0395906107db90871633141561429f565b87600052601c8352604060002085600052835260406000205461095c5787600052600e8352604060002085600052835260406000203360005283528360406000205587600052600f83526040600020856000528352604060002033600052835260406000209560ff19966001888254161790558860005260238452604060002086600052845261086f33604060002061439d565b6005820193897f424e5ad88b2accc1579e610100b12e0f295d8c9e0b02abb61ad1e413e3d63d0260406108a28854614040565b98898955858754169482519182523390820152a3600b548510156108c257005b7fff2fc693bb2d4a09f21f0c403fce5ecb4b5b0b57e81c7253deb5386bb8a8ae779760016108f461093397898d61454c565b9889600286015582541617905560098301918783548111610938575b505050505054604051938493846040919493926060820195825260208201520152565b0390a2005b6008935554169101906001600160601b0360a01b8254161790558680808087610910565b60405162461bcd60e51b815260048101849052603160248201527f436f6d6d69742d72657665616c206163746976653a2075736520636f6d6d697460448201527053636f72652f72657665616c53636f726560781b6064820152608490fd5b6064826040519062461bcd60e51b825280600483015260248201527f5375626d697373696f6e20616c72656164792068617320636f6e73656e7375736044820152fd5b60405162461bcd60e51b815260048101849052602860248201527f56616c696461746f7220616c72656164792073636f72656420746869732073756044820152673136b4b9b9b4b7b760c11b6064820152608490fd5b600191501487610744565b634e487b7160e01b600052602160045260246000fd5b506000848152600c835260409020548414610704565b3461033b57600036600319011261033b57610aa46143d8565b3360005260136020526040600020548015610b1357610b0c90336000526013602052600060408120556040518181527f48dc35af7b45e2a81fffad55f6e2fafacdb1d3d0d50d24ebdc16324f5ba757f160203392a260025433906001600160a01b03166144cd565b6001600055005b60405162461bcd60e51b81526020600482015260136024820152724e6f2070656e64696e67206561726e696e677360681b6044820152606490fd5b3461033b57600036600319011261033b576020601d54604051908152f35b3461033b57610b7a36613da8565b9060005260196020526040600020906000526020526020604060002054604051908152f35b3461033b57604036600319011261033b576024356001600160a01b0381169081900361033b576004356000526015602052604060002090600052602052602060ff604060002054166040519015158152f35b3461033b57610bff36613da8565b610c076143d8565b81151580610eae575b610c1990614117565b81600052602090600c825260406000209160ff6007840154166007811015610a5f5760028114908115610ea3575b5015610e6a5783600052600d8152604060002054821015610e365783600052600d8152610c78826040600020613e4b565b50926003840193610c8d60ff8654161561425b565b85600052601c835260406000208460005283526040600020548015610df157610cbc610cc591601a5490614033565b601b5490614033565b421115610dac576005810154600b549093908410610d89575091610d54918493610d12837fff2fc693bb2d4a09f21f0c403fce5ecb4b5b0b57e81c7253deb5386bb8a8ae7798978a61454c565b95866002830155600160ff1982541617905560098201908682548111610d5e575b50505050604051938493846040919493926060820195825260208201520152565b0390a26001600055005b6008925560018060a01b039054169101906001600160601b0360a01b82541617905586808086610d33565b945050505091600052601c81526040600020916000525260006040812055610b0c565b60405162461bcd60e51b815260048101849052601a60248201527f52657665616c207068617365206e6f7420656e646564207965740000000000006044820152606490fd5b60405162461bcd60e51b815260048101859052601860248201527f4e6f20636f6d6d69742d72657665616c207374617274656400000000000000006044820152606490fd5b6064906040519062461bcd60e51b82526004820152600d60248201526c092dcecc2d8d2c840d2dcc8caf609b1b6044820152fd5b6064906040519062461bcd60e51b8252600482015260126024820152714e6f742070656e64696e672072657669657760701b6044820152fd5b600191501485610c47565b506000828152600c60205260409020548214610c10565b3461033b57604036600319011261033b576020604051818101906004358252602435604082015260408152610ef981613f09565b519020604051908152f35b3461033b57602036600319011261033b57600435610f20614475565b6103e88111610f625760407fd347e206f25a89b917fc9482f1a2d294d749baa4dc9bde7fb495ee11fe49164391600354908060035582519182526020820152a1005b60405162461bcd60e51b815260206004820152600c60248201526b08ccaca40e8dede40d0d2ced60a31b6044820152606490fd5b3461033b57600036600319011261033b576020601654604051908152f35b3461033b57600036600319011261033b576001546040516001600160a01b039091168152602090f35b3461033b57602036600319011261033b57600435600052600c6020526040600020604081549160018060a01b0390816001820154169061101f60028201613f45565b600382015493600483015490600584015460068501546007860154918360088801541694611074600989015497600b600a8b01549a01549a8d519e8f9e8f6101a09384938252602082015201528d0190613dfe565b9960608c015260808b015260a08a015260c089015261109960e0890160ff8316613e3e565b60081c166101008701526101208601526101408501526101608401526101808301520390f35b3461033b57604036600319011261033b576001600160401b0360243581811161033b576110f0903690600401613d7b565b9091600435151580611582575b61110690614117565b61110e61442e565b600435600052600c60205260406000209060ff60078301541660078110159081610a5f578015918215611574575b8215611563575b50501561151e5761115960068301544210614154565b82156114e557600435600052601560205260406000203360005260205260ff604060002054166114a057600435600052600d602052604060002054600754111561145b5760043560005260156020526040600020336000526020526040600020600160ff19825416179055600435600052600d602052604060002090604051906111e282613ed3565b3382526111f036868861406a565b92602083019384526000604084015260006060840152426080840152600060a08401528054600160401b81101561142f5761123091600182018155613e4b565b93909361144557825184546001600160a01b0319166001600160a01b039190911617845551805191821161142f5761126b6001850154613e7d565b601f81116113e8575b50602090601f83116001146113735791806005949260a094600092611368575b50508160011b916000199060031b1c19161760018501555b604081015160028501556112d560608201511515600386019060ff801983541691151516179055565b608081015160048501550151910155600781015460ff81166007811015610a5f57801590811561135d575b50611349575b50507fa3dcf7cebcc4cf0937f4f95d95392671977ba143b4ff236240650322a106e8dc604051602081528061134433956004359560208401916140a1565b0390a3005b600260079160ff1916179101558280611306565b600191501485611300565b015190508980611294565b906001850160005260206000209160005b601f19851681106113d05750926005949260019260a09583601f198116106113b7575b505050811b0160018501556112ac565b015160001960f88460031b161c191690558980806113a7565b91926020600181928685015181550194019201611384565b600185016000526020600020601f840160051c810160208510611428575b601f830160051c8201811061141c575050611274565b60008155600101611406565b5080611406565b634e487b7160e01b600052604160045260246000fd5b634e487b7160e01b600052600060045260246000fd5b60405162461bcd60e51b815260206004820152601760248201527f4d6178207375626d697373696f6e7320726561636865640000000000000000006044820152606490fd5b60405162461bcd60e51b815260206004820152601760248201527f4d696e657220616c7265616479207375626d69747465640000000000000000006044820152606490fd5b60405162461bcd60e51b815260206004820152601160248201527008adae0e8f240e4cae6ead8e840d0c2e6d607b1b6044820152606490fd5b60405162461bcd60e51b815260206004820152601a60248201527f43616e6e6f74207375626d697420746f2074686973207461736b0000000000006044820152606490fd5b909150610a5f576002148580611143565b50600181149150600061113c565b506004356000818152600c6020526040902054146110fd565b3461033b5760208060031936011261033b576004356115b86143d8565b80151580611814575b6115ca90614117565b80600052600c82526040600020600781019081549360ff85166007811015610a5f576002036117d05760088201546001600160a01b0392908316801561179457857fefef8593ec020b84769ddb5cf4469accbbd22d882a354bee97694405126ca69460408299876001879b9a9b0154169060038701549160048801549760058101549c600360098301549460ff1916179055600b4291015560005260108852826000206116778154614334565b905561169261168a8860011c8099614327565b601654614033565b6016558560005260118852826000206116ac838254614033565b9055601e54611768578560005260138852826000206116cc838254614033565b90555b825191825287820152a3806116ff575b50505050806116ef576001600055005b6116f89161472d565b8080610b0c565b60025460405163a9059cbb60e01b8482015261dead6024820152604480820184905281527f8bc81353cf6671d259d22783e39ed930583c86f3f4cf7e981298e6a872dfb15d94611758921661175382613eee565b614b80565b604051908152a2818380806116df565b8460005260218852818360002055611782601e5442614033565b856000526022895283600020556116cf565b60405162461bcd60e51b81526004810184905260146024820152734e6f2076616c6964207375626d697373696f6e7360601b6044820152606490fd5b6064906040519062461bcd60e51b82526004820152601f60248201527f5461736b206e6f7420726561647920666f722066696e616c697a6174696f6e006044820152fd5b506000818152600c8352604090205481146115c1565b3461033b57600036600319011261033b57611843614475565b61184b61442e565b6001805460ff60a01b1916600160a01b1790556040513381527f62e78cea01bee320cd4e420270b5ea74000d11b0c9f74754ebdbfc544b05a25890602090a1005b3461033b5760208060031936011261033b576004356118a96143d8565b801515806119f0575b6118bb90614117565b6000818152600c835260409020600181015490926001600160a01b0391821633036119bb57600784019283549360ff85166007811015610a5f5761197657600461191f8760056119166003610b0c9b01548584015490614033565b91015490614033565b9560ff19161790553360005260108252604060002061193e8154614334565b90557f06f63d695245e4cf8f0b7aae0b8da95876a4b173ba8d0d4466cc83c357dda3a8604051928584523393a33390600254166144cd565b60405162461bcd60e51b815260048101849052601760248201527f43616e6e6f742063616e63656c2074686973207461736b0000000000000000006044820152606490fd5b6064906040519062461bcd60e51b82526004820152600e60248201526d2737ba103a30b9b59037bbb732b960911b6044820152fd5b506000818152600c8352604090205481146118b2565b3461033b57602036600319011261033b5760043560005260208052602060ff604060002054166040519015158152f35b3461033b57611a4436613dd4565b91600052600f60205260406000209060005260205260406000209060018060a01b0316600052602052602060ff604060002054166040519015158152f35b3461033b57602036600319011261033b57600435600052600d6020526020604060002054604051908152f35b3461033b57611abc36613da8565b90600052601c6020526040600020906000526020526020604060002054604051908152f35b3461033b57600036600319011261033b57611afa614475565b600180546001600160a01b031981169091556000906001600160a01b03167f8be0079c531659141344cd1fd0a4f28419497f9722a3daafe3b4186f6b6457e08280a3005b3461033b57608036600319011261033b5760043560248035604490813560643360005260209060098252611b7960ff6040600020541661418f565b86151580611f7c575b611b8b90614117565b611b9361442e565b86600052600c825260406000209060ff6007830154166007811015611f6757806002611bc79214908115611f5c57506141cd565b87600052600d8352611bdf6040600020548610614219565b611bed612710851115614341565b87600052600d8352611c03856040600020613e4b565b50906003820197611c1860ff8a54161561425b565b89600052601c85526040600020876000528552611c3d604060002054601a5490614033565b611c49601b5482614033565b90421115611f1b574211611ee6578960005260178552604060002087600052855260406000203360005285526040600020918254988915611eb457600284019283549a60ff8c16611e8057604051898101908b82528535604082015260408152611cb281613f09565b51902003611e50575050508591600391600160ff19809b161790550155876000526019835260406000208560005283526040600020611cf18154614040565b905587600052600e8352604060002085600052835260406000203360005283528360406000205587600052600f835260406000208560005283526040600020336000528352604060002060018782541617905587600052602383526040600020856000528352611d6533604060002061439d565b6005810192611d748454614040565b9485855560405191878352820152887f23def086b3dc14dbd150f69d2e6af648dfc789cdf251ba7d720feecbc0625f8560403393a3600b54841015611db557005b7fff2fc693bb2d4a09f21f0c403fce5ecb4b5b0b57e81c7253deb5386bb8a8ae77966001611de761093396888c61454c565b9788600285015582541617905560098201908682548111611e25575b5050505054604051938493846040919493926060820195825260208201520152565b6008925560018060a01b039054169101906001600160601b0360a01b82541617905586808086611e03565b8791600d6c090c2e6d040dad2e6dac2e8c6d609b1b926040519462461bcd60e51b86526004860152840152820152fd5b50879160106f105b1c9958591e481c995d99585b195960821b926040519462461bcd60e51b86526004860152840152820152fd5b6e139bc818dbdb5b5a5d08199bdd5b99608a1b8791600f856040519462461bcd60e51b86526004860152840152820152fd5b7114995d99585b081c1a185cd948195b99195960721b88601287936040519462461bcd60e51b86526004860152840152820152fd5b507f436f6d6d6974207068617365206e6f7420656e6465642079657400000000000088601a87936040519462461bcd60e51b86526004860152840152820152fd5b60019150148a610744565b87634e487b7160e01b60005260216004526000fd5b506000878152600c835260409020548714611b82565b3461033b57600036600319011261033b576020600b54604051908152f35b3461033b57600036600319011261033b57602060405164e8d4a510008152f35b3461033b5760208060031936011261033b57600435611fed6143d8565b801515806121ab575b611fff90614117565b80600052600c82526040600020916007830180549260ff841660078110159081610a5f57801591821561219d575b821561218c575b5050156121525760068501544211156121165760088501546001600160a01b03929083166120dd57600186601092600561208761207d6003610b0c9c0154600486015490614033565b8285015490614033565b9860ff19161790550193838554166000525260406000206120a88154614334565b90557f7c2ecd5e2b7188ac57f3a370681639cb447c9cbfbbbace0c070adea6c73eaa54600080a28060025416915416906144cd565b60405162461bcd60e51b81526004810185905260116024820152702a30b9b5903430b99030903bb4b73732b960791b6044820152606490fd5b60405162461bcd60e51b815260048101849052601460248201527315185cdac81b9bdd081e595d08195e1c1a5c995960621b6044820152606490fd5b60405162461bcd60e51b81526004810184905260126024820152715461736b206e6f7420657870697261626c6560701b6044820152606490fd5b909150610a5f576002148680612034565b50600181149150600061202d565b506000818152600c835260409020548114611ff6565b3461033b57600036600319011261033b57602060ff60015460a01c166040519015158152f35b3461033b576121f536613da8565b90600052600d602052604060002090815481101561033b5761221691613e4b565b5080546001600160a01b031661222e60018301613f45565b9160028101549060ff600382015416906005600482015491015491612265604051968796875260c0602088015260c0870190613dfe565b93604086015215156060850152608084015260a08301520390f35b3461033b5760208060031936011261033b5761229a613dbe565b6122a2614475565b6001600160a01b0316906122b78215156140c2565b816000526009815260ff604060002054166123835781600052600981526040600020600160ff198254161790556122ef600a54614040565b600a55816000526014815260026040600020015415612331575b507fe366c1c0452ed8eec96861e9e54141ebff23c9ec89fe27b996b45f5ec3884987600080a2005b60036040519161234083613eee565b6000835280830160008152604084019061138882526014606086019342855287600052526040600020945185555160018501555160028401555191015581612309565b6064906040519062461bcd60e51b82526004820152601160248201527020b63932b0b23c903b30b634b230ba37b960791b6044820152fd5b3461033b57600036600319011261033b576020601a54604051908152f35b3461033b57602036600319011261033b576123f2613dbe565b6123fa614475565b6001600160a01b031660008181526009602052604090205461241e9060ff1661418f565b806000526009602052604060002060ff19815416905561243f600a54614334565b600a557fe1434e25d6611e0db941968fdc97811c982ac1602e951637d206f5fdda9dd8f1600080a2005b3461033b5760208060031936011261033b576004356124866143d8565b80151580612698575b61249890614117565b6000818152600c83526040902060088101546001600160a01b0316330361265b57600760ff910154166007811015610a5f57600303612621578060005281805260ff604060002054166125e4578060005260228252604060002054421061259f578060005260218252604060002054918215612569577f39853ba28b2acf0a75685a04695528be328b8c0a69b9d54743126d76820730a09082600052602181526000604081205533600052601381526040600020612557858254614033565b90556040519384523393a36001600055005b6064906040519062461bcd60e51b82526004820152600f60248201526e105b1c9958591e4818db185a5b5959608a1b6044820152fd5b60405162461bcd60e51b815260048101839052601b60248201527f4469737075746520677261636520706572696f642061637469766500000000006044820152606490fd5b60405162461bcd60e51b81526004810183905260156024820152745461736b20697320756e646572206469737075746560581b6044820152606490fd5b60405162461bcd60e51b815260048101839052601260248201527115185cdac81b9bdd0818dbdb5c1b195d195960721b6044820152606490fd5b60405162461bcd60e51b81526004810184905260156024820152742737ba103a3432903bb4b73734b7339036b4b732b960591b6044820152606490fd5b506000818152600c83526040902054811461248f565b3461033b57602036600319011261033b5760043560005260226020526020604060002054604051908152f35b3461033b57600036600319011261033b576126f3614475565b60015460ff8160a01c161561273a5760ff60a01b19166001556040513381527f5db9ee0a495bf2e6ff9c91a7834c1ba4fdd244a5e8aa4e537bd38aeae4b073aa90602090a1005b60405162461bcd60e51b815260206004820152601460248201527314185d5cd8589b194e881b9bdd081c185d5cd95960621b6044820152606490fd5b3461033b5761278436613da8565b61278c614475565b61012c8083106128145781106127d657816040917f54333de66970050ba341fd48b02b1e37c55d85ae724ee00e32233e89e072bea893601a5580601b5582519182526020820152a1005b60405162461bcd60e51b815260206004820152601660248201527514995d99585b081c1a185cd9481d1bdbc81cda1bdc9d60521b6044820152606490fd5b60405162461bcd60e51b815260206004820152601660248201527510dbdb5b5a5d081c1a185cd9481d1bdbc81cda1bdc9d60521b6044820152606490fd5b3461033b5761286036613dd4565b91600052601760205260406000209060005260205260406000209060018060a01b031660005260205260806040600020805490600181015490600360ff600283015416910154916040519384526020840152151560408301526060820152f35b3461033b57600036600319011261033b576020600754604051908152f35b3461033b57602036600319011261033b576001600160a01b036128ff613dbe565b1660005260126020526020604060002054604051908152f35b3461033b57604036600319011261033b57602435600435811515820361033b57612940614475565b6129486143d8565b80151580612b1f575b61295a90614117565b80600052602091600c8352604060002090600782019081549060ff82166007811015610a5f57600603612ae95715612aa257506008820154600084815260218652604090205491926001600160a01b039182168315612a4b5785927fdf0baf5489595ea17a097d16827d60793e2f57f3b85a982e5d7e02838b841ee69288928560005260218452600060408120556000526011835260406000206129ff878254614327565b9055612a19866001846002541693019284845416906144cd565b541693604051908152a3805460ff191660041790555b6000528052604060002060ff1981541690556001600055600080f35b60405162461bcd60e51b815260048101889052602960248201527f52657761726420616c726561647920636c61696d6564202d2063616e6e6f7420604482015268636c6177206261636b60b81b6064820152608490fd5b60039060ff1916179055600860018060a01b0391015416817fdf0baf5489595ea17a097d16827d60793e2f57f3b85a982e5d7e02838b841ee68460405160008152a3612a2f565b60405162461bcd60e51b815260048101879052600e60248201526d4e6f7420696e206469737075746560901b6044820152606490fd5b506000818152600c60205260409020548114612951565b3461033b57602036600319011261033b576020612b546004356142eb565b604051908152f35b3461033b57600036600319011261033b576020600454604051908152f35b3461033b57602036600319011261033b57600435612b96614475565b60018110612c3a57600a5480821190811591612c31575b5015612bec5760407fb6db129b84dbdef2d15fbb03e44fe1050995a5b1f855b6faf62b419185e53dc891600b549080600b5582519182526020820152a1005b60405162461bcd60e51b815260206004820152601d60248201527f43616e6e6f74206578636565642076616c696461746f7220636f756e740000006044820152606490fd5b90501582612bad565b60405162461bcd60e51b815260206004820152601c60248201527f4d696e2076616c69646174696f6e73206d757374206265203e3d2031000000006044820152606490fd5b3461033b5760208060031936011261033b57600435612c9c6143d8565b80151580612e2a575b612cae90614117565b6000818152600c83526040902060018101546001600160a01b03163303612de55760070180549060ff82166007811015610a5f57600303612da2578260005283805260ff60406000205416612d6a57600660ff198093161790558160005282805260016040600020918254161790557f45c6ef09865025319c9f2a574b08ae087defce1c8b3640347d830c463909ce7b612d4a601d5442614033565b9282600052601f8152836040600020556040519384523393a36001600055005b60405162461bcd60e51b815260048101859052601060248201526f105b1c9958591e48191a5cdc1d5d195960821b6044820152606490fd5b6064846040519062461bcd60e51b825280600483015260248201527f43616e206f6e6c79206469737075746520636f6d706c65746564207461736b736044820152fd5b60405162461bcd60e51b815260048101849052601a60248201527f4f6e6c79207265717565737465722063616e20646973707574650000000000006044820152606490fd5b506000818152600c835260409020548114612ca5565b3461033b57602036600319011261033b576001600160a01b03612e61613dbe565b1660005260106020526020604060002054604051908152f35b3461033b57606036600319011261033b576004356024908135906044353360005260209060098252612eb360ff6040600020541661418f565b821515806131dd575b612ec590614117565b612ecd61442e565b82600052600c825260ff6007604060002001541660078110156131c857806002612eff9214908115610a5457506141cd565b82600052600d8252612f176040600020548510614219565b80156131905782600052600d8252612f5a612f36856040600020613e4b565b50612f4860ff6003830154161561425b565b546001600160a01b031633141561429f565b8260005260178252604060002084600052825260406000203360005282526040600020546131585782600052600f82526040600020846000528252604060002033600052825260ff604060002054166131145782600052601c82526040600020846000528252604060002054156130f5575b82600052601c82526040600020846000528252612ff1604060002054601a5490614033565b42116130bc576040517f96e134fdbcf6f2b8942aa1450973cc1e5914913673abacabebf1f0b14fe4a552929161302682613eee565b815260038282014281526130896040840160008152606085019260008452886000526017875260406000208a60005287526040600020336000528752604060002095518655516001860155511515600285019060ff801983541691151516179055565b519101558260005260188152604060002084600052815260406000206130af8154614040565b90556040519384523393a3005b60405162461bcd60e51b8152600481018390526012818701527110dbdb5b5a5d081c1a185cd948195b99195960721b6044820152606490fd5b82600052601c8252604060002084600052825242604060002055612fcc565b60405162461bcd60e51b8152600481018390526017818701527f416c72656164792073636f726564206469726563746c790000000000000000006044820152606490fd5b60405162461bcd60e51b81526004810183905260118187015270105b1c9958591e4818dbdb5b5a5d1d1959607a1b6044820152606490fd5b60405162461bcd60e51b8152600481018390526011818701527008adae0e8f240c6dedadad2e840d0c2e6d607b1b6044820152606490fd5b85634e487b7160e01b60005260216004526000fd5b506000838152600c835260409020548314612ebc565b3461033b57602036600319011261033b57600061018060405161321581613eb7565b828152826020820152606060408201528260608201528260808201528260a08201528260c08201528260e0820152826101008201528261012082015282610140820152826101608201520152600435600052600c60205260406000206040519061327e82613eb7565b8054825260018101546001600160a01b031660208301526132a160028201613f45565b60408301526003810154606083015260048101546080830152600581015460a0830152600681015460c083015260078101549060ff8216916007831015610a5f57600b9260e085015260018060a01b039060081c1661010084015260018060a01b036008820154166101208401526009810154610140840152600a81015461016084015201546101808201526040518091602082528051602083015260018060a01b03602082015116604083015261018061336d60408301516101a060608601526101c0850190613dfe565b9160608101516080850152608081015160a085015260a081015160c085015260c081015160e08501526133a960e0820151610100860190613e3e565b60018060a01b036101008201511661012085015260018060a01b03610120820151166101408501526101408101516101608501526101608101518285015201516101a08301520390f35b3461033b57602036600319011261033b576004358015158061352b575b61341990614117565b61342161442e565b80600052600c6020526040600020600781019081549060ff82166007811015610a5f576134f15760066134579101544210614154565b60081c6001600160a01b03166134b9578054610100600160a81b0319163360081b610100600160a81b0316178155805460ff1916600117905533907fc8717b61398fb9d7cacf49fe1e296b2f10e9711226b532842b6ffd642cb6a2c6600080a3005b60405162461bcd60e51b815260206004820152601060248201526f105b1c9958591e48185cdcda59db995960821b6044820152606490fd5b60405162461bcd60e51b81526020600482015260126024820152715461736b206e6f7420617661696c61626c6560701b6044820152606490fd5b506000818152600c60205260409020548114613410565b3461033b5760208060031936011261033b57600435600052600d815260406000209081549161357083614100565b9261357e6040519485613f24565b8084528284018092600052836000206000915b83831061363d5750505050604051918083019381845251809452604083019360408160051b85010192916000955b8287106135cc5785850386f35b909192938280600192603f1989820301855287519061360360c0868060a01b03845116835284840151908086850152830190613dfe565b91604081015160408301526060808201511515908301526080808201519083015260a08091015191015296019201960195929190926135bf565b60068660019260409998995161365281613ed3565b848060a01b038654168152613668858701613f45565b838201526002860154604082015260ff6003870154161515606082015260048601546080820152600586015460a0820152815201920192019190959495613591565b3461033b57602036600319011261033b576136c3613dbe565b6136cb614475565b6001600160a01b03818116916136e28315156140c2565b60165491821561372a576137289360006016557fc0819c13be868895eb93e40eaceb96de976442fa1d404e5c55f14bb65a8c489a6020604051868152a2600254166144cd565b005b60405162461bcd60e51b81526020600482015260136024820152724e6f206665657320746f20776974686472617760681b6044820152606490fd5b3461033b57602036600319011261033b5760043560005260216020526020604060002054604051908152f35b3461033b5761379f36613dd4565b91600052600e60205260406000209060005260205260406000209060018060a01b03166000526020526020604060002054604051908152f35b3461033b57600036600319011261033b576020600a54604051908152f35b3461033b57602036600319011261033b576001600160a01b03613817613dbe565b1660005260116020526020604060002054604051908152f35b3461033b5761383e36613da8565b9060005260186020526040600020906000526020526020604060002054604051908152f35b3461033b57602036600319011261033b57600435600052601f6020526020604060002054604051908152f35b3461033b57600036600319011261033b576020601e54604051908152f35b3461033b57606036600319011261033b576004356001600160401b03811161033b576138dd903690600401613d7b565b6138e56143d8565b6138ed61442e565b8015613d445760055460243510613d0e57604435151580613d00575b15613cc8576127109081613921600354602435613fea565b0491613931600454602435613fea565b04916139488361394383602435614033565b614033565b6002546040516323b872dd60e01b60208201523360248201523060448201526064808201939093529182526001600160a01b0316906001600160401b0360a082019081119082111761142f576139a49160a08201604052614b80565b6139af600854614040565b92836008556139c060443542614033565b90604051926139ce84613eb7565b8584523360208501526139e236868961406a565b60408501526024356060850152608084015260a083015260c0820152600060e082015260006101008201526000610120820152600061014082015242610160820152600061018082015282600052600c602052604060002093815185556001850160018060a01b036020840151166001600160601b0360a01b82541617905560408201518051906001600160401b03821161142f578190613a866002890154613e7d565b601f8111613c75575b50602090601f8311600114613c0357600092613bf8575b50508160011b916000199060031b1c19161760028601555b606082015160038601556080820151600486015560a0820151600586015560c0820151600686015560e0820151906007821015610a5f57600786018054610100850151610100600160a81b0360089190911b1660ff949094166001600160a81b0319909116179290921790915560209484927fb5e5fbf3346e9f5c610406862e51622b9d1e7fefd46de0e79367de79c2b74890929190600b90610180906008840160018060a01b03610120830151166001600160601b0360a01b8254161790556101408101516009850155610160810151600a850155015191015533600052601086526040600020613bb08154614040565b905582600052600c8652600660406000200154613be860405192839260243584528984015260606040840152339660608401916140a1565b0390a36001600055604051908152f35b015190508780613aa6565b9250600288016000526020600020906000935b601f1984168510613c5a576001945083601f19811610613c41575b505050811b016002860155613abe565b015160001960f88460031b161c19169055878080613c31565b81810151835560209485019460019093019290910190613c16565b909150600288016000526020600020601f840160051c810160208510613cc1575b90849392915b601f830160051c82018110613cb2575050613a8f565b60008155859450600101613c9c565b5080613c96565b60405162461bcd60e51b815260206004820152601060248201526f24b73b30b634b210323ab930ba34b7b760811b6044820152606490fd5b506006546044351115613909565b60405162461bcd60e51b815260206004820152600e60248201526d52657761726420746f6f206c6f7760901b6044820152606490fd5b60405162461bcd60e51b815260206004820152600f60248201526e08adae0e8f240e8c2e6d640d0c2e6d608b1b6044820152606490fd5b9181601f8401121561033b578235916001600160401b03831161033b576020838186019501011161033b57565b604090600319011261033b576004359060243590565b600435906001600160a01b038216820361033b57565b606090600319011261033b5760043590602435906044356001600160a01b038116810361033b5790565b919082519283825260005b848110613e2a575050826000602080949584010152601f8019910116010190565b602081830181015184830182015201613e09565b906007821015610a5f5752565b8054821015613e67576000526006602060002091020190600090565b634e487b7160e01b600052603260045260246000fd5b90600182811c92168015613ead575b6020831014613e9757565b634e487b7160e01b600052602260045260246000fd5b91607f1691613e8c565b6101a081019081106001600160401b0382111761142f57604052565b60c081019081106001600160401b0382111761142f57604052565b608081019081106001600160401b0382111761142f57604052565b606081019081106001600160401b0382111761142f57604052565b90601f801991011681019081106001600160401b0382111761142f57604052565b90604051918260008254613f5881613e7d565b90818452602094600191600181169081600014613fc85750600114613f89575b505050613f8792500383613f24565b565b600090815285812095935091905b818310613fb0575050613f879350820101388080613f78565b85548884018501529485019487945091830191613f97565b92505050613f8794925060ff191682840152151560051b820101388080613f78565b81810292918115918404141715613ffd57565b634e487b7160e01b600052601160045260246000fd5b811561401d570490565b634e487b7160e01b600052601260045260246000fd5b91908201809211613ffd57565b6000198114613ffd5760010190565b6001600160401b03811161142f57601f01601f191660200190565b9291926140768261404f565b916140846040519384613f24565b82948184528183011161033b578281602093846000960137010152565b908060209392818452848401376000828201840152601f01601f1916010190565b156140c957565b60405162461bcd60e51b815260206004820152600f60248201526e496e76616c6964206164647265737360881b6044820152606490fd5b6001600160401b03811161142f5760051b60200190565b1561411e57565b60405162461bcd60e51b815260206004820152600e60248201526d15185cdac81b9bdd08199bdd5b9960921b6044820152606490fd5b1561415b57565b60405162461bcd60e51b815260206004820152600c60248201526b15185cdac8195e1c1a5c995960a21b6044820152606490fd5b1561419657565b60405162461bcd60e51b815260206004820152600f60248201526e2737ba1030903b30b634b230ba37b960891b6044820152606490fd5b156141d457565b60405162461bcd60e51b815260206004820152601760248201527f5461736b206e6f742070656e64696e67207265766965770000000000000000006044820152606490fd5b1561422057565b60405162461bcd60e51b8152602060048201526013602482015272092dcecc2d8d2c840dad2dccae440d2dcc8caf606b1b6044820152606490fd5b1561426257565b60405162461bcd60e51b8152602060048201526015602482015274416c72656164792068617320636f6e73656e73757360581b6044820152606490fd5b156142a657565b60405162461bcd60e51b815260206004820152601e60248201527f43616e6e6f742076616c6964617465206f776e207375626d697373696f6e00006044820152606490fd5b600b549064e8d4a51000811061430a575060028101809111613ffd5790565b64174876e80011156143195790565b60018101809111613ffd5790565b91908203918211613ffd57565b8015613ffd576000190190565b1561434857565b60405162461bcd60e51b8152602060048201526015602482015274053636f7265206d75737420626520302d313030303605c1b6044820152606490fd5b8054821015613e675760005260206000200190600090565b8054600160401b81101561142f576143ba91600182018155614385565b60018060a09493941b038084549260031b9316831b921b1916179055565b6002600054146143e9576002600055565b60405162461bcd60e51b815260206004820152601f60248201527f5265656e7472616e637947756172643a207265656e7472616e742063616c6c006044820152606490fd5b60ff60015460a01c1661443d57565b60405162461bcd60e51b815260206004820152601060248201526f14185d5cd8589b194e881c185d5cd95960821b6044820152606490fd5b6001546001600160a01b0316330361448957565b606460405162461bcd60e51b815260206004820152602060248201527f4f776e61626c653a2063616c6c6572206973206e6f7420746865206f776e65726044820152fd5b60405163a9059cbb60e01b60208201526001600160a01b039092166024830152604480830193909352918152613f879161175382613eee565b9061451082614100565b61451d6040519182613f24565b828152809261452e601f1991614100565b0190602036910137565b8051821015613e675760209160051b010190565b92919061455882614506565b91600091858352602060238152604091828520818652825282852097885498858a036146e95784518a815290875283872090998a9081860190895b878282106146ca575050506145aa9250038a613f24565b855b8581106146875750505050505090809293505160019160015b8281106145dc57505050506145d990614cb4565b90565b806145e8859287614538565b5181835b614602575b6145fb9088614538565b52016145c5565b90919281151580614666575b1561465e5750600019810181811161464a57869161462f614640928a614538565b5161463a828b614538565b52614334565b90929190836145ec565b634e487b7160e01b85526011600452602485fd5b9291906145f1565b5050600019810181811161464a578261468088928a614538565b511161460e565b818752600e84528487208388528452848720600191906001600160a01b036146af838e614538565b511689528552858820546146c3828b614538565b52016145ac565b85546001600160a01b031684526001958601958f955093019201614593565b845162461bcd60e51b815260048101859052601b60248201527f56616c696461746f7220747261636b696e67206d69736d6174636800000000006044820152606490fd5b9081600052600c60205260018060a01b0360086040600020015416600019600d6020526040600020916000908354915b828110614b33575b5050506000198114614b24578360005260236020526040600020816000526020526040600020908154928315614b13576147a182600292613e4b565b500154946147ae84614506565b9160009660005b8681106148b4575050505084156148a45760009460005b8481106147f55750505050508082106147e3575050565b6147f09161168a91614327565b601655565b8061480260019285614538565b511561489f5761482f6148288461482361481c8589614538565b518b613fea565b614013565b8099614033565b9761483a8287614385565b905490600391858060a01b0391831b1c1660005260126020526040600020614863838254614033565b905561486f8388614385565b858060a09493941b039254911b1c1660005260136020526148966040600020918254614033565b90555b016147cc565b614899565b5050506147f09150601654614033565b6148be8187614385565b9990549985600052600e602052604060002085600052602052604060002060018060a01b038c8360031b1c166000526020526148ff84604060002054614d41565b9a60018060a01b03818360031b1c16600052601460205260406000209b6149268d54614040565b8d554260038e01556107d08111614a6b5760018d016149458154614040565b90556064614953868b614538565b5260405190600082526020820152877f3d70426d5de70b5ac8bff45c3c0cd89db0e473153868b8c61a938d42002584e8604060018060a01b03858760031b1c1693a35b8b80549384614a3b575b6149aa868b614538565b51916002015491826149bb91613fea565b61271090046149ca878c614538565b526149d5868b614538565b516149df91614033565b60019d909d0154604080519283526020830195909552938101939093526001600160a01b0360039290921b1c16907fc2fd17ad7e9f23b8607f0bd02d7a6cdcccd5a964fa99ce5a066ed34c5b4bb55b90606090a26001016147b5565b9060010154906127108281810204811483151715613ffd57858f9391614a619202614013565b60028301556149a0565b6113888111614ac7576032614a80868b614538565b5260405190600082526020820152877f3d70426d5de70b5ac8bff45c3c0cd89db0e473153868b8c61a938d42002584e8604060018060a01b03858760031b1c1693a3614996565b6000614ad3868b614538565b52604051908152877f3b3050df353576101845973a6b18bbcf16a0187f1c80d60d83d95be509203c51602060018060a01b03858760031b1c1693a3614996565b505050506147f09150601654614033565b50506147f09150601654614033565b81614b3e8287613e4b565b50546001600160a01b03161480614b68575b614b5c5760010161475d565b92505050388080614765565b5060ff6003614b778388613e4b565b50015416614b50565b60018060a01b03169060405160408101908082106001600160401b0383111761142f57614c0f916040526020938482527f5361666545524332303a206c6f772d6c6576656c2063616c6c206661696c6564858301526000808587829751910182855af13d15614cac573d91614bf48361404f565b92614c026040519485613f24565b83523d868885013e614d8f565b805191821591848315614c81575b505050905015614c2a5750565b6084906040519062461bcd60e51b82526004820152602a60248201527f5361666545524332303a204552433230206f7065726174696f6e20646964206e6044820152691bdd081cdd58d8d9595960b21b6064820152fd5b919381809450010312614ca857820151908115158203614ca5575080388084614c1d565b80fd5b5080fd5b606091614d8f565b80518015614d0d57600181811603614cd85790614cd49160011c90614538565b5190565b60011c906000198201828111613ffd57614d0792614cf9614d009284614538565b5192614538565b5190614033565b60011c90565b60405162461bcd60e51b815260206004820152600c60248201526b456d7074792073636f72657360a01b6044820152606490fd5b8115614d88578180821115614d7857614d5991614327565b905b61271091828102928184041490151715613ffd576145d991614013565b90614d8291614327565b90614d5b565b5050600090565b91929015614df15750815115614da3575090565b3b15614dac5790565b60405162461bcd60e51b815260206004820152601d60248201527f416464726573733a2063616c6c20746f206e6f6e2d636f6e74726163740000006044820152606490fd5b825190915015614e045750805190602001fd5b60405162461bcd60e51b815260206004820152908190614e28906024830190613dfe565b0390fdfea264697066735822122062d998a38acc79d95701fda520b6219f4ce361eaba4d89a2de49ba48ddae6ae164736f6c63430008180033",
  "linkReferences": {},
  "deployedLinkReferences": {}
}