{
  "_format": "hh-sol-artifact-1",
  "contractName": "PaymentEscrow",
  "sourceName": "src/PaymentEscrow.sol",
  "abi": [
    {
      "inputs": [
        {
          "internalType": "address",
          "name": "_mdtToken",
          "type": "address"
        }
      ],
      "stateMutability": "nonpayable",
      "type": "constructor"
    },
    {
      "anonymous": false,
      "inputs": [
        {
          "indexed": true,
          "internalType": "uint256",
          "name": "taskId",
          "type": "uint256"
        },
        {
          "indexed": false,
          "internalType": "uint256",
          "name": "baseMin",
          "type": "uint256"
        },
        {
          "indexed": false,
          "internalType": "uint256",
          "name": "adaptiveMin",
          "type": "uint256"
        }
      ],
      "name": "AdaptiveValidationsApplied",
      "type": "event"
    },
    {
      "anonymous": false,
      "inputs": [
        {
          "indexed": false,
          "internalType": "uint256",
          "name": "commitDuration",
          "type": "uint256"
        },
        {
          "indexed": false,
          "internalType": "uint256",
          "name": "revealDuration",
          "type": "uint256"
        }
      ],
      "name": "CommitPhaseConfigUpdated",
      "type": "event"
    },
    {
      "anonymous": false,
      "inputs": [
        {
          "indexed": true,
          "internalType": "uint256",
          "name": "taskId",
          "type": "uint256"
        },
        {
          "indexed": false,
          "internalType": "uint256",
          "name": "minerIndex",
          "type": "uint256"
        },
        {
          "indexed": false,
          "internalType": "uint256",
          "name": "medianScore",
          "type": "uint256"
        },
        {
          "indexed": false,
          "internalType": "uint256",
          "name": "validatorCount",
          "type": "uint256"
        }
      ],
      "name": "ConsensusReached",
      "type": "event"
    },
    {
      "anonymous": false,
      "inputs": [
        {
          "indexed": true,
          "internalType": "address",
          "name": "account",
          "type": "address"
        },
        {
          "indexed": false,
          "internalType": "uint256",
          "name": "amount",
          "type": "uint256"
        }
      ],
      "name": "EarningsWithdrawn",
      "type": "event"
    },
    {
      "anonymous": false,
      "inputs": [
        {
          "indexed": true,
          "internalType": "address",
          "name": "to",
          "type": "address"
        },
        {
          "indexed": false,
          "internalType": "uint256",
          "name": "amount",
          "type": "uint256"
        }
      ],
      "name": "FeesWithdrawn",
      "type": "event"
    },
    {
      "anonymous": false,
      "inputs": [
        {
          "indexed": false,
          "internalType": "uint256",
          "name": "oldMin",
          "type": "uint256"
        },
        {
          "indexed": false,
          "internalType": "uint256",
          "name": "newMin",
          "type": "uint256"
        }
      ],
      "name": "MinValidationsUpdated",
      "type": "event"
    },
    {
      "anonymous": false,
      "inputs": [
        {
          "indexed": true,
          "internalType": "address",
          "name": "previousOwner",
          "type": "address"
        },
        {
          "indexed": true,
          "internalType": "address",
          "name": "newOwner",
          "type": "address"
        }
      ],
      "name": "OwnershipTransferred",
      "type": "event"
    },
    {
      "anonymous": false,
      "inputs": [
        {
          "indexed": false,
          "internalType": "address",
          "name": "account",
          "type": "address"
        }
      ],
      "name": "Paused",
      "type": "event"
    },
    {
      "anonymous": false,
      "inputs": [
        {
          "indexed": false,
          "internalType": "uint256",
          "name": "oldRate",
          "type": "uint256"
        },
        {
          "indexed": false,
          "internalType": "uint256",
          "name": "newRate",
          "type": "uint256"
        }
      ],
      "name": "PlatformFeeUpdated",
      "type": "event"
    },
    {
      "anonymous": false,
      "inputs": [
        {
          "indexed": true,
          "internalType": "address",
          "name": "validator",
          "type": "address"
        },
        {
          "indexed": false,
          "internalType": "uint256",
          "name": "newScore",
          "type": "uint256"
        },
        {
          "indexed": false,
          "internalType": "uint256",
          "name": "totalValidations",
          "type": "uint256"
        },
        {
          "indexed": false,
          "internalType": "uint256",
          "name": "accurateValidations",
          "type": "uint256"
        }
      ],
      "name": "ReputationUpdated",
      "type": "event"
    },
    {
      "anonymous": false,
      "inputs": [
        {
          "indexed": true,
          "internalType": "uint256",
          "name": "taskId",
          "type": "uint256"
        },
        {
          "indexed": false,
          "internalType": "uint256",
          "name": "minerIndex",
          "type": "uint256"
        },
        {
          "indexed": true,
          "internalType": "address",
          "name": "validator",
          "type": "address"
        }
      ],
      "name": "ScoreCommitted",
      "type": "event"
    },
    {
      "anonymous": false,
      "inputs": [
        {
          "indexed": true,
          "internalType": "uint256",
          "name": "taskId",
          "type": "uint256"
        },
        {
          "indexed": false,
          "internalType": "uint256",
          "name": "minerIndex",
          "type": "uint256"
        },
        {
          "indexed": true,
          "internalType": "address",
          "name": "validator",
          "type": "address"
        },
        {
          "indexed": false,
          "internalType": "uint256",
          "name": "score",
          "type": "uint256"
        }
      ],
      "name": "ScoreRevealed",
      "type": "event"
    },
    {
      "anonymous": false,
      "inputs": [
        {
          "indexed": true,
          "internalType": "uint256",
          "name": "taskId",
          "type": "uint256"
        },
        {
          "indexed": true,
          "internalType": "address",
          "name": "miner",
          "type": "address"
        },
        {
          "indexed": false,
          "internalType": "string",
          "name": "resultHash",
          "type": "string"
        }
      ],
      "name": "SubmissionReceived",
      "type": "event"
    },
    {
      "anonymous": false,
      "inputs": [
        {
          "indexed": true,
          "internalType": "uint256",
          "name": "taskId",
          "type": "uint256"
        },
        {
          "indexed": true,
          "internalType": "address",
          "name": "miner",
          "type": "address"
        },
        {
          "indexed": false,
          "internalType": "uint256",
          "name": "score",
          "type": "uint256"
        },
        {
          "indexed": false,
          "internalType": "address",
          "name": "validator",
          "type": "address"
        }
      ],
      "name": "SubmissionValidated",
      "type": "event"
    },
    {
      "anonymous": false,
      "inputs": [
        {
          "indexed": true,
          "internalType": "uint256",
          "name": "taskId",
          "type": "uint256"
        },
        {
          "indexed": true,
          "internalType": "address",
          "name": "miner",
          "type": "address"
        }
      ],
      "name": "TaskAccepted",
      "type": "event"
    },
    {
      "anonymous": false,
      "inputs": [
        {
          "indexed": true,
          "internalType": "uint256",
          "name": "taskId",
          "type": "uint256"
        },
        {
          "indexed": true,
          "internalType": "address",
          "name": "requester",
          "type": "address"
        },
        {
          "indexed": false,
          "internalType": "uint256",
          "name": "refundAmount",
          "type": "uint256"
        }
      ],
      "name": "TaskCancelled",
      "type": "event"
    },
    {
      "anonymous": false,
      "inputs": [
        {
          "indexed": true,
          "internalType": "uint256",
          "name": "taskId",
          "type": "uint256"
        },
        {
          "indexed": true,
          "internalType": "address",
          "name": "winner",
          "type": "address"
        },
        {
          "indexed": false,
          "internalType": "uint256",
          "name": "reward",
          "type": "uint256"
        },
        {
          "indexed": false,
          "internalType": "uint256",
          "name": "score",
          "type": "uint256"
        }
      ],
      "name": "TaskCompleted",
      "type": "event"
    },
    {
      "anonymous": false,
      "inputs": [
        {
          "indexed": true,
          "internalType": "uint256",
          "name": "taskId",
          "type": "uint256"
        },
        {
          "indexed": true,
          "internalType": "address",
          "name": "requester",
          "type": "address"
        },
        {
          "indexed": false,
          "internalType": "uint256",
          "name": "rewardAmount",
          "type": "uint256"
        },
        {
          "indexed": false,
          "internalType": "uint256",
          "name": "deadline",
          "type": "uint256"
        },
        {
          "indexed": false,
          "internalType": "string",
          "name": "taskHash",
          "type": "string"
        }
      ],
      "name": "TaskCreated",
      "type": "event"
    },
    {
      "anonymous": false,
      "inputs": [
        {
          "indexed": true,
          "internalType": "uint256",
          "name": "taskId",
          "type": "uint256"
        }
      ],
      "name": "TaskExpired",
      "type": "event"
    },
    {
      "anonymous": false,
      "inputs": [
        {
          "indexed": false,
          "internalType": "address",
          "name": "account",
          "type": "address"
        }
      ],
      "name": "Unpaused",
      "type": "event"
    },
    {
      "anonymous": false,
      "inputs": [
        {
          "indexed": true,
          "internalType": "address",
          "name": "validator",
          "type": "address"
        }
      ],
      "name": "ValidatorAdded",
      "type": "event"
    },
    {
      "anonymous": false,
      "inputs": [
        {
          "indexed": true,
          "internalType": "uint256",
          "name": "taskId",
          "type": "uint256"
        },
        {
          "indexed": true,
          "internalType": "address",
          "name": "validator",
          "type": "address"
        },
        {
          "indexed": false,
          "internalType": "uint256",
          "name": "deviation",
          "type": "uint256"
        }
      ],
      "name": "ValidatorPenalized",
      "type": "event"
    },
    {
      "anonymous": false,
      "inputs": [
        {
          "indexed": true,
          "internalType": "address",
          "name": "validator",
          "type": "address"
        }
      ],
      "name": "ValidatorRemoved",
      "type": "event"
    },
    {
      "anonymous": false,
      "inputs": [
        {
          "indexed": true,
          "internalType": "uint256",
          "name": "taskId",
          "type": "uint256"
        },
        {
          "indexed": true,
          "internalType": "address",
          "name": "validator",
          "type": "address"
        },
        {
          "indexed": false,
          "internalType": "uint256",
          "name": "amount",
          "type": "uint256"
        },
        {
          "indexed": false,
          "internalType": "uint256",
          "name": "deviation",
          "type": "uint256"
        }
      ],
      "name": "ValidatorRewarded",
      "type": "event"
    },
    {
      "inputs": [],
      "name": "HIGH_VALUE_THRESHOLD",
      "outputs": [
        {
          "internalType": "uint256",
          "name": "",
          "type": "uint256"
        }
      ],
      "stateMutability": "view",
      "type": "function"
    },
    {
      "inputs": [],
      "name": "ULTRA_VALUE_THRESHOLD",
      "outputs": [
        {
          "internalType": "uint256",
          "name": "",
          "type": "uint256"
        }
      ],
      "stateMutability": "view",
      "type": "function"
    },
    {
      "inputs": [
        {
          "internalType": "uint256",
          "name": "taskId",
          "type": "uint256"
        }
      ],
      "name": "acceptTask",
      "outputs": [],
      "stateMutability": "nonpayable",
      "type": "function"
    },
    {
      "inputs": [
        {
          "internalType": "address",
          "name": "",
          "type": "address"
        }
      ],
      "name": "activeTaskCount",
      "outputs": [
        {
          "internalType": "uint256",
          "name": "",
          "type": "uint256"
        }
      ],
      "stateMutability": "view",
      "type": "function"
    },
    {
      "inputs": [
        {
          "internalType": "address",
          "name": "validator",
          "type": "address"
        }
      ],
      "name": "addValidator",
      "outputs": [],
      "stateMutability": "nonpayable",
      "type": "function"
    },
    {
      "inputs": [
        {
          "internalType": "uint256",
          "name": "taskId",
          "type": "uint256"
        }
      ],
      "name": "cancelTask",
      "outputs": [],
      "stateMutability": "nonpayable",
      "type": "function"
    },
    {
      "inputs": [],
      "name": "collectedFees",
      "outputs": [
        {
          "internalType": "uint256",
          "name": "",
          "type": "uint256"
        }
      ],
      "stateMutability": "view",
      "type": "function"
    },
    {
      "inputs": [
        {
          "internalType": "uint256",
          "name": "",
          "type": "uint256"
        },
        {
          "internalType": "uint256",
          "name": "",
          "type": "uint256"
        }
      ],
      "name": "commitCount",
      "outputs": [
        {
          "internalType": "uint256",
          "name": "",
          "type": "uint256"
        }
      ],
      "stateMutability": "view",
      "type": "function"
    },
    {
      "inputs": [],
      "name": "commitPhaseDuration",
      "outputs": [
        {
          "internalType": "uint256",
          "name": "",
          "type": "uint256"
        }
      ],
      "stateMutability": "view",
      "type": "function"
    },
    {
      "inputs": [
        {
          "internalType": "uint256",
          "name": "",
          "type": "uint256"
        },
        {
          "internalType": "uint256",
          "name": "",
          "type": "uint256"
        }
      ],
      "name": "commitPhaseStart",
      "outputs": [
        {
          "internalType": "uint256",
          "name": "",
          "type": "uint256"
        }
      ],
      "stateMutability": "view",
      "type": "function"
    },
    {
      "inputs": [
        {
          "internalType": "uint256",
          "name": "taskId",
          "type": "uint256"
        },
        {
          "internalType": "uint256",
          "name": "minerIndex",
          "type": "uint256"
        },
        {
          "internalType": "bytes32",
          "name": "commitHash",
          "type": "bytes32"
        }
      ],
      "name": "commitScore",
      "outputs": [],
      "stateMutability": "nonpayable",
      "type": "function"
    },
    {
      "inputs": [
        {
          "internalType": "string",
          "name": "taskHash",
          "type": "string"
        },
        {
          "internalType": "uint256",
          "name": "rewardAmount",
          "type": "uint256"
        },
        {
          "internalType": "uint256",
          "name": "duration",
          "type": "uint256"
        }
      ],
      "name": "createTask",
      "outputs": [
        {
          "internalType": "uint256",
          "name": "taskId",
          "type": "uint256"
        }
      ],
      "stateMutability": "nonpayable",
      "type": "function"
    },
    {
      "inputs": [
        {
          "internalType": "uint256",
          "name": "taskId",
          "type": "uint256"
        }
      ],
      "name": "expireTask",
      "outputs": [],
      "stateMutability": "nonpayable",
      "type": "function"
    },
    {
      "inputs": [
        {
          "internalType": "uint256",
          "name": "taskId",
          "type": "uint256"
        }
      ],
      "name": "finalizeTask",
      "outputs": [],
      "stateMutability": "nonpayable",
      "type": "function"
    },
    {
      "inputs": [
        {
          "internalType": "uint256",
          "name": "rewardAmount",
          "type": "uint256"
        }
      ],
      "name": "getAdaptiveMinValidations",
      "outputs": [
        {
          "internalType": "uint256",
          "name": "",
          "type": "uint256"
        }
      ],
      "stateMutability": "view",
      "type": "function"
    },
    {
      "inputs": [
        {
          "internalType": "uint256",
          "name": "score",
          "type": "uint256"
        },
        {
          "internalType": "bytes32",
          "name": "salt",
          "type": "bytes32"
        }
      ],
      "name": "getCommitHash",
      "outputs": [
        {
          "internalType": "bytes32",
          "name": "",
          "type": "bytes32"
        }
      ],
      "stateMutability": "pure",
      "type": "function"
    },
    {
      "inputs": [
        {
          "internalType": "uint256",
          "name": "taskId",
          "type": "uint256"
        }
      ],
      "name": "getSubmissionCount",
      "outputs": [
        {
          "internalType": "uint256",
          "name": "",
          "type": "uint256"
        }
      ],
      "stateMutability": "view",
      "type": "function"
    },
    {
      "inputs": [
        {
          "internalType": "uint256",
          "name": "taskId",
          "type": "uint256"
        }
      ],
      "name": "getSubmissions",
      "outputs": [
        {
          "components": [
            {
              "internalType": "address",
              "name": "miner",
              "type": "address"
            },
            {
              "internalType": "string",
              "name": "resultHash",
              "type": "string"
            },
            {
              "internalType": "uint256",
              "name": "score",
              "type": "uint256"
            },
            {
              "internalType": "bool",
              "name": "validated",
              "type": "bool"
            },
            {
              "internalType": "uint256",
              "name": "submittedAt",
              "type": "uint256"
            },
            {
              "internalType": "uint256",
              "name": "validationCount",
              "type": "uint256"
            }
          ],
          "internalType": "struct PaymentEscrow.MinerSubmission[]",
          "name": "",
          "type": "tuple[]"
        }
      ],
      "stateMutability": "view",
      "type": "function"
    },
    {
      "inputs": [
        {
          "internalType": "uint256",
          "name": "taskId",
          "type": "uint256"
        }
      ],
      "name": "getTask",
      "outputs": [
        {
          "components": [
            {
              "internalType": "uint256",
              "name": "id",
              "type": "uint256"
            },
            {
              "internalType": "address",
              "name": "requester",
              "type": "address"
            },
            {
              "internalType": "string",
              "name": "taskHash",
              "type": "string"
            },
            {
              "internalType": "uint256",
              "name": "rewardAmount",
              "type": "uint256"
            },
            {
              "internalType": "uint256",
              "name": "platformFee",
              "type": "uint256"
            },
            {
              "internalType": "uint256",
              "name": "validatorReward",
              "type": "uint256"
            },
            {
              "internalType": "uint256",
              "name": "deadline",
              "type": "uint256"
            },
            {
              "internalType": "enum PaymentEscrow.TaskStatus",
              "name": "status",
              "type": "uint8"
            },
            {
              "internalType": "address",
              "name": "assignedMiner",
              "type": "address"
            },
            {
              "internalType": "address",
              "name": "winningMiner",
              "type": "address"
            },
            {
              "internalType": "uint256",
              "name": "winningScore",
              "type": "uint256"
            },
            {
              "internalType": "uint256",
              "name": "createdAt",
              "type": "uint256"
            },
            {
              "internalType": "uint256",
              "name": "completedAt",
              "type": "uint256"
            }
          ],
          "internalType": "struct PaymentEscrow.Task",
          "name": "",
          "type": "tuple"
        }
      ],
      "stateMutability": "view",
      "type": "function"
    },
    {
      "inputs": [
        {
          "internalType": "uint256",
          "name": "taskId",
          "type": "uint256"
        },
        {
          "internalType": "uint256",
          "name": "minerIndex",
          "type": "uint256"
        },
        {
          "internalType": "address",
          "name": "validator",
          "type": "address"
        }
      ],
      "name": "getValidatorScore",
      "outputs": [
        {
          "internalType": "uint256",
          "name": "score",
          "type": "uint256"
        },
        {
          "internalType": "bool",
          "name": "hasScored",
          "type": "bool"
        }
      ],
      "stateMutability": "view",
      "type": "function"
    },
    {
      "inputs": [
        {
          "internalType": "uint256",
          "name": "",
          "type": "uint256"
        },
        {
          "internalType": "address",
          "name": "",
          "type": "address"
        }
      ],
      "name": "hasMinerSubmitted",
      "outputs": [
        {
          "internalType": "bool",
          "name": "",
          "type": "bool"
        }
      ],
      "stateMutability": "view",
      "type": "function"
    },
    {
      "inputs": [
        {
          "internalType": "uint256",
          "name": "",
          "type": "uint256"
        },
        {
          "internalType": "uint256",
          "name": "",
          "type": "uint256"
        },
        {
          "internalType": "address",
          "name": "",
          "type": "address"
        }
      ],
      "name": "hasValidatorScored",
      "outputs": [
        {
          "internalType": "bool",
          "name": "",
          "type": "bool"
        }
      ],
      "stateMutability": "view",
      "type": "function"
    },
    {
      "inputs": [
        {
          "internalType": "address",
          "name": "account",
          "type": "address"
        }
      ],
      "name": "isValidator",
      "outputs": [
        {
          "internalType": "bool",
          "name": "",
          "type": "bool"
        }
      ],
      "stateMutability": "view",
      "type": "function"
    },
    {
      "inputs": [],
      "name": "maxTaskDuration",
      "outputs": [
        {
          "internalType": "uint256",
          "name": "",
          "type": "uint256"
        }
      ],
      "stateMutability": "view",
      "type": "function"
    },
    {
      "inputs": [],
      "name": "mdtToken",
      "outputs": [
        {
          "internalType": "contract IERC20",
          "name": "",
          "type": "address"
        }
      ],
      "stateMutability": "view",
      "type": "function"
    },
    {
      "inputs": [],
      "name": "minTaskReward",
      "outputs": [
        {
          "internalType": "uint256",
          "name": "",
          "type": "uint256"
        }
      ],
      "stateMutability": "view",
      "type": "function"
    },
    {
      "inputs": [],
      "name": "minValidations",
      "outputs": [
        {
          "internalType": "uint256",
          "name": "",
          "type": "uint256"
        }
      ],
      "stateMutability": "view",
      "type": "function"
    },
    {
      "inputs": [
        {
          "internalType": "address",
          "name": "",
          "type": "address"
        }
      ],
      "name": "minerEarnings",
      "outputs": [
        {
          "internalType": "uint256",
          "name": "",
          "type": "uint256"
        }
      ],
      "stateMutability": "view",
      "type": "function"
    },
    {
      "inputs": [],
      "name": "owner",
      "outputs": [
        {
          "internalType": "address",
          "name": "",
          "type": "address"
        }
      ],
      "stateMutability": "view",
      "type": "function"
    },
    {
      "inputs": [],
      "name": "pause",
      "outputs": [],
      "stateMutability": "nonpayable",
      "type": "function"
    },
    {
      "inputs": [],
      "name": "paused",
      "outputs": [
        {
          "internalType": "bool",
          "name": "",
          "type": "bool"
        }
      ],
      "stateMutability": "view",
      "type": "function"
    },
    {
      "inputs": [
        {
          "internalType": "address",
          "name": "",
          "type": "address"
        }
      ],
      "name": "pendingWithdrawals",
      "outputs": [
        {
          "internalType": "uint256",
          "name": "",
          "type": "uint256"
        }
      ],
      "stateMutability": "view",
      "type": "function"
    },
    {
      "inputs": [],
      "name": "platformFeeRate",
      "outputs": [
        {
          "internalType": "uint256",
          "name": "",
          "type": "uint256"
        }
      ],
      "stateMutability": "view",
      "type": "function"
    },
    {
      "inputs": [
        {
          "internalType": "address",
          "name": "validator",
          "type": "address"
        }
      ],
      "name": "removeValidator",
      "outputs": [],
      "stateMutability": "nonpayable",
      "type": "function"
    },
    {
      "inputs": [],
      "name": "renounceOwnership",
      "outputs": [],
      "stateMutability": "nonpayable",
      "type": "function"
    },
    {
      "inputs": [
        {
          "internalType": "uint256",
          "name": "",
          "type": "uint256"
        },
        {
          "internalType": "uint256",
          "name": "",
          "type": "uint256"
        }
      ],
      "name": "revealCount",
      "outputs": [
        {
          "internalType": "uint256",
          "name": "",
          "type": "uint256"
        }
      ],
      "stateMutability": "view",
      "type": "function"
    },
    {
      "inputs": [],
      "name": "revealPhaseDuration",
      "outputs": [
        {
          "internalType": "uint256",
          "name": "",
          "type": "uint256"
        }
      ],
      "stateMutability": "view",
      "type": "function"
    },
    {
      "inputs": [
        {
          "internalType": "uint256",
          "name": "taskId",
          "type": "uint256"
        },
        {
          "internalType": "uint256",
          "name": "minerIndex",
          "type": "uint256"
        },
        {
          "internalType": "uint256",
          "name": "score",
          "type": "uint256"
        },
        {
          "internalType": "bytes32",
          "name": "salt",
          "type": "bytes32"
        }
      ],
      "name": "revealScore",
      "outputs": [],
      "stateMutability": "nonpayable",
      "type": "function"
    },
    {
      "inputs": [
        {
          "internalType": "uint256",
          "name": "_commitDuration",
          "type": "uint256"
        },
        {
          "internalType": "uint256",
          "name": "_revealDuration",
          "type": "uint256"
        }
      ],
      "name": "setCommitRevealConfig",
      "outputs": [],
      "stateMutability": "nonpayable",
      "type": "function"
    },
    {
      "inputs": [
        {
          "internalType": "uint256",
          "name": "newMin",
          "type": "uint256"
        }
      ],
      "name": "setMinValidations",
      "outputs": [],
      "stateMutability": "nonpayable",
      "type": "function"
    },
    {
      "inputs": [
        {
          "internalType": "uint256",
          "name": "newRate",
          "type": "uint256"
        }
      ],
      "name": "setPlatformFeeRate",
      "outputs": [],
      "stateMutability": "nonpayable",
      "type": "function"
    },
    {
      "inputs": [
        {
          "internalType": "uint256",
          "name": "taskId",
          "type": "uint256"
        },
        {
          "internalType": "string",
          "name": "resultHash",
          "type": "string"
        }
      ],
      "name": "submitResult",
      "outputs": [],
      "stateMutability": "nonpayable",
      "type": "function"
    },
    {
      "inputs": [
        {
          "internalType": "uint256",
          "name": "",
          "type": "uint256"
        },
        {
          "internalType": "uint256",
          "name": "",
          "type": "uint256"
        }
      ],
      "name": "taskSubmissions",
      "outputs": [
        {
          "internalType": "address",
          "name": "miner",
          "type": "address"
        },
        {
          "internalType": "string",
          "name": "resultHash",
          "type": "string"
        },
        {
          "internalType": "uint256",
          "name": "score",
          "type": "uint256"
        },
        {
          "internalType": "bool",
          "name": "validated",
          "type": "bool"
        },
        {
          "internalType": "uint256",
          "name": "submittedAt",
          "type": "uint256"
        },
        {
          "internalType": "uint256",
          "name": "validationCount",
          "type": "uint256"
        }
      ],
      "stateMutability": "view",
      "type": "function"
    },
    {
      "inputs": [
        {
          "internalType": "uint256",
          "name": "",
          "type": "uint256"
        }
      ],
      "name": "tasks",
      "outputs": [
        {
          "internalType": "uint256",
          "name": "id",
          "type": "uint256"
        },
        {
          "internalType": "address",
          "name": "requester",
          "type": "address"
        },
        {
          "internalType": "string",
          "name": "taskHash",
          "type": "string"
        },
        {
          "internalType": "uint256",
          "name": "rewardAmount",
          "type": "uint256"
        },
        {
          "internalType": "uint256",
          "name": "platformFee",
          "type": "uint256"
        },
        {
          "internalType": "uint256",
          "name": "validatorReward",
          "type": "uint256"
        },
        {
          "internalType": "uint256",
          "name": "deadline",
          "type": "uint256"
        },
        {
          "internalType": "enum PaymentEscrow.TaskStatus",
          "name": "status",
          "type": "uint8"
        },
        {
          "internalType": "address",
          "name": "assignedMiner",
          "type": "address"
        },
        {
          "internalType": "address",
          "name": "winningMiner",
          "type": "address"
        },
        {
          "internalType": "uint256",
          "name": "winningScore",
          "type": "uint256"
        },
        {
          "internalType": "uint256",
          "name": "createdAt",
          "type": "uint256"
        },
        {
          "internalType": "uint256",
          "name": "completedAt",
          "type": "uint256"
        }
      ],
      "stateMutability": "view",
      "type": "function"
    },
    {
      "inputs": [],
      "name": "totalTasks",
      "outputs": [
        {
          "internalType": "uint256",
          "name": "",
          "type": "uint256"
        }
      ],
      "stateMutability": "view",
      "type": "function"
    },
    {
      "inputs": [
        {
          "internalType": "address",
          "name": "newOwner",
          "type": "address"
        }
      ],
      "name": "transferOwnership",
      "outputs": [],
      "stateMutability": "nonpayable",
      "type": "function"
    },
    {
      "inputs": [],
      "name": "unpause",
      "outputs": [],
      "stateMutability": "nonpayable",
      "type": "function"
    },
    {
      "inputs": [
        {
          "internalType": "uint256",
          "name": "taskId",
          "type": "uint256"
        },
        {
          "internalType": "uint256",
          "name": "minerIndex",
          "type": "uint256"
        },
        {
          "internalType": "uint256",
          "name": "score",
          "type": "uint256"
        }
      ],
      "name": "validateSubmission",
      "outputs": [],
      "stateMutability": "nonpayable",
      "type": "function"
    },
    {
      "inputs": [
        {
          "internalType": "uint256",
          "name": "",
          "type": "uint256"
        },
        {
          "internalType": "uint256",
          "name": "",
          "type": "uint256"
        },
        {
          "internalType": "address",
          "name": "",
          "type": "address"
        }
      ],
      "name": "validationCommits",
      "outputs": [
        {
          "internalType": "bytes32",
          "name": "commitHash",
          "type": "bytes32"
        },
        {
          "internalType": "uint256",
          "name": "committedAt",
          "type": "uint256"
        },
        {
          "internalType": "bool",
          "name": "revealed",
          "type": "bool"
        },
        {
          "internalType": "uint256",
          "name": "revealedScore",
          "type": "uint256"
        }
      ],
      "stateMutability": "view",
      "type": "function"
    },
    {
      "inputs": [],
      "name": "validatorCount",
      "outputs": [
        {
          "internalType": "uint256",
          "name": "",
          "type": "uint256"
        }
      ],
      "stateMutability": "view",
      "type": "function"
    },
    {
      "inputs": [
        {
          "internalType": "address",
          "name": "",
          "type": "address"
        }
      ],
      "name": "validatorEarnings",
      "outputs": [
        {
          "internalType": "uint256",
          "name": "",
          "type": "uint256"
        }
      ],
      "stateMutability": "view",
      "type": "function"
    },
    {
      "inputs": [
        {
          "internalType": "address",
          "name": "",
          "type": "address"
        }
      ],
      "name": "validatorReputation",
      "outputs": [
        {
          "internalType": "uint256",
          "name": "totalValidations",
          "type": "uint256"
        },
        {
          "internalType": "uint256",
          "name": "accurateValidations",
          "type": "uint256"
        },
        {
          "internalType": "uint256",
          "name": "reputationScore",
          "type": "uint256"
        },
        {
          "internalType": "uint256",
          "name": "lastActiveAt",
          "type": "uint256"
        }
      ],
      "stateMutability": "view",
      "type": "function"
    },
    {
      "inputs": [],
      "name": "validatorRewardRate",
      "outputs": [
        {
          "internalType": "uint256",
          "name": "",
          "type": "uint256"
        }
      ],
      "stateMutability": "view",
      "type": "function"
    },
    {
      "inputs": [
        {
          "internalType": "uint256",
          "name": "",
          "type": "uint256"
        },
        {
          "internalType": "uint256",
          "name": "",
          "type": "uint256"
        },
        {
          "internalType": "address",
          "name": "",
          "type": "address"
        }
      ],
      "name": "validatorScores",
      "outputs": [
        {
          "internalType": "uint256",
          "name": "",
          "type": "uint256"
        }
      ],
      "stateMutability": "view",
      "type": "function"
    },
    {
      "inputs": [
        {
          "internalType": "address",
          "name": "",
          "type": "address"
        }
      ],
      "name": "validators",
      "outputs": [
        {
          "internalType": "bool",
          "name": "",
          "type": "bool"
        }
      ],
      "stateMutability": "view",
      "type": "function"
    },
    {
      "inputs": [],
      "name": "withdrawEarnings",
      "outputs": [],
      "stateMutability": "nonpayable",
      "type": "function"
    },
    {
      "inputs": [
        {
          "internalType": "address",
          "name": "to",
          "type": "address"
        }
      ],
      "name": "withdrawFees",
      "outputs": [],
      "stateMutability": "nonpayable",
      "type": "function"
    }
  ],
  "bytecode": "0x6080346200013c57601f620041c238819003918201601f19168301916001600160401b0383118484101762000141578084926020946040528339810103126200013c57516001600160a01b03808216918290036200013c57600160005560015460405191339082167f8be0079c531659141344cd1fd0a4f28419497f9722a3daafe3b4186f6b6457e0600080a36001600160a81b0319163360ff60a01b1916176001556101f46003556105dc6004556305f5e10060055562093a806006556002600a55610e10601955610708601a558115620000fa5750600280546001600160a01b03191691909117905560405161406a9081620001588239f35b62461bcd60e51b815260206004820152601560248201527f496e76616c696420746f6b656e206164647265737300000000000000000000006044820152606490fd5b600080fd5b634e487b7160e01b600052604160045260246000fdfe6080604052600436101561001257600080fd5b60003560e01c8063059378ea14612b3c5780630ebac45a14612b095780630f0da71914612acf5780630f43a67714612ab15780630fb6d80514612a6a578063164e68de146129b157806316c53ced146128495780631bf6912d146126fa5780631d65e77e146124fa5780631dd73e0d146121975780631ed5c43c1461215d5780632b52d8c3146120585780632e44085d1461203a57806332e540e9146120145780633938800614611fda5780633c9a6bf314611f6c5780633f422ef314611e905780633f4ba83a14611df457806340a141ff14611d64578063483b403914611d465780634d238c8e14611c0b57806353eea87514611b725780635c975abb14611b4c57806362ecc47a146119c257806365617a35146119a2578063680038c71461198457806368a7f82614611530578063715018a6146114d357806377ad68da146114a05780637be24cb8146114745780637ca0ad2d146114285780637eec20a8146112ae5780638456cb591461124c57806388488c33146110725780638c0dd79a14610bf55780638d97767214610b135780638da5cb5b14610aea5780639003adfe14610acc578063927fef2e14610a3a5780639d7eea9f146109fb578063ac64c822146109a9578063b46e742414610976578063b73c6ce9146108b3578063b7ee5eda1461057c578063c0be15ec1461055e578063ca7b64bb1461053e578063d1270485146104e2578063d22c81e5146104c4578063d65314b314610454578063dfc7537214610436578063eeca08f014610418578063f0992c97146103fa578063f2fde38b14610336578063f3f43703146102fc578063f70b5c06146102d3578063fa52c7d81461028f5763facd743b1461028f57600080fd5b346102ce5760203660031901126102ce576001600160a01b036102b061304d565b166000526008602052602060ff604060002054166040519015158152f35b600080fd5b346102ce5760003660031901126102ce576002546040516001600160a01b039091168152602090f35b346102ce5760203660031901126102ce576001600160a01b0361031d61304d565b1660005260126020526020604060002054604051908152f35b346102ce5760203660031901126102ce5761034f61304d565b6103576136ab565b6001600160a01b039081169081156103a657600154826001600160601b0360a01b821617600155167f8be0079c531659141344cd1fd0a4f28419497f9722a3daafe3b4186f6b6457e0600080a3005b60405162461bcd60e51b815260206004820152602660248201527f4f776e61626c653a206e6577206f776e657220697320746865207a65726f206160448201526564647265737360d01b6064820152608490fd5b346102ce5760003660031901126102ce576020600554604051908152f35b346102ce5760003660031901126102ce576020600354604051908152f35b346102ce5760003660031901126102ce576020601a54604051908152f35b346102ce57604061046436613063565b82600052602091600e835284600020816000528352846000209160018060a01b03169182600052835260ff85600020541693600052600d835284600020906000528252836000209060005281528260002054918351928352151590820152f35b346102ce5760003660031901126102ce576020600754604051908152f35b346102ce5760203660031901126102ce576001600160a01b0361050361304d565b166000526013602052608060406000208054906001810154906003600282015491015491604051938452602084015260408301526060820152f35b346102ce5760003660031901126102ce57602060405164174876e8008152f35b346102ce5760003660031901126102ce576020600654604051908152f35b346102ce5760603660031901126102ce5760043560243560443533600052602091600883526105b260ff6040600020541661341e565b8315158061089d575b6105c4906133a6565b6105cc613664565b83600052600b835260406000209260ff600785015416600781101561088757806002610601921490811561087c575b5061345c565b84600052600c815261061960406000205483106134a8565b610627612710841115613577565b84600052600e81526040600020826000528152604060002033600052815260ff604060002054166108275784600052600c81526106688260406000206130da565b5092600384019460ff8654166107e45786600052600d8352604060002084600052835260406000203360005283528160406000205586600052600e83526040600020846000528352604060002033600052835260406000209460ff199560018782541617905587600052601c845260406000208560005284526106ef3360406000206135d3565b60058101926106fe84546132cf565b94858555897f424e5ad88b2accc1579e610100b12e0f295d8c9e0b02abb61ad1e413e3d63d02604060018060a01b0394858754169482519182523390820152a3600a5485101561074a57005b7fff2fc693bb2d4a09f21f0c403fce5ecb4b5b0b57e81c7253deb5386bb8a8ae7797600161077c6107bb97898d613794565b98896002860155825416179055600983019187835481116107c0575b505050505054604051938493846040919493926060820195825260208201520152565b0390a2005b6008935554169101906001600160601b0360a01b8254161790558680808087610798565b6064836040519062461bcd60e51b825280600483015260248201527f5375626d697373696f6e20616c72656164792068617320636f6e73656e7375736044820152fd5b6084906040519062461bcd60e51b82526004820152602860248201527f56616c696461746f7220616c72656164792073636f72656420746869732073756044820152673136b4b9b9b4b7b760c11b6064820152fd5b6001915014876105fb565b634e487b7160e01b600052602160045260246000fd5b506000848152600b8452604090205484146105bb565b346102ce5760003660031901126102ce576108cc61360e565b336000526012602052604060002054801561093b5761093490336000526012602052600060408120556040518181527f48dc35af7b45e2a81fffad55f6e2fafacdb1d3d0d50d24ebdc16324f5ba757f160203392a260025433906001600160a01b0316613703565b6001600055005b60405162461bcd60e51b81526020600482015260136024820152724e6f2070656e64696e67206561726e696e677360681b6044820152606490fd5b346102ce5761098436613037565b9060005260186020526040600020906000526020526020604060002054604051908152f35b346102ce5760403660031901126102ce576024356001600160a01b038116908190036102ce576004356000526014602052604060002090600052602052602060ff604060002054166040519015158152f35b346102ce5760403660031901126102ce576020604051818101906004358252602435604082015260408152610a2f81613198565b519020604051908152f35b346102ce5760203660031901126102ce57600435610a566136ab565b6103e88111610a985760407fd347e206f25a89b917fc9482f1a2d294d749baa4dc9bde7fb495ee11fe49164391600354908060035582519182526020820152a1005b60405162461bcd60e51b815260206004820152600c60248201526b08ccaca40e8dede40d0d2ced60a31b6044820152606490fd5b346102ce5760003660031901126102ce576020601554604051908152f35b346102ce5760003660031901126102ce576001546040516001600160a01b039091168152602090f35b346102ce5760203660031901126102ce57600435600052600b6020526040600020604081549160018060a01b03908160018201541690610b55600282016131d4565b600382015493600483015490600584015460068501546007860154918360088801541694610baa600989015497600b600a8b01549a01549a8d519e8f9e8f6101a09384938252602082015201528d019061308d565b9960608c015260808b015260a08a015260c0890152610bcf60e0890160ff83166130cd565b60081c166101008701526101208601526101408501526101608401526101808301520390f35b346102ce5760403660031901126102ce576001600160401b036024358181116102ce57610c2690369060040161300a565b9091600435151580611059575b610c3c906133a6565b610c44613664565b600435600052600b60205260406000209060ff6007830154166007811015908161088757801591821561104b575b821561103a575b505015610ff557610c8f600683015442106133e3565b8215610fbc57600435600052601460205260406000203360005260205260ff60406000205416610f775760043560005260146020526040600020336000526020526040600020600160ff19825416179055600435600052600c60205260406000209060405190610cfe82613162565b338252610d0c3686886132f9565b92602083019384526000604084015260006060840152426080840152600060a08401528054600160401b811015610f4b57610d4c916001820181556130da565b939093610f6157825184546001600160a01b0319166001600160a01b0391909116178455518051918211610f4b57610d87600185015461310c565b601f8111610f04575b50602090601f8311600114610e8f5791806005949260a094600092610e84575b50508160011b916000199060031b1c19161760018501555b60408101516002850155610df160608201511515600386019060ff801983541691151516179055565b608081015160048501550151910155600781015460ff81166007811015610887578015908115610e79575b50610e65575b50507fa3dcf7cebcc4cf0937f4f95d95392671977ba143b4ff236240650322a106e8dc6040516020815280610e603395600435956020840191613330565b0390a3005b600260079160ff1916179101558280610e22565b600191501485610e1c565b015190508980610db0565b906001850160005260206000209160005b601f1985168110610eec5750926005949260019260a09583601f19811610610ed3575b505050811b016001850155610dc8565b015160001960f88460031b161c19169055898080610ec3565b91926020600181928685015181550194019201610ea0565b600185016000526020600020601f840160051c810160208510610f44575b601f830160051c82018110610f38575050610d90565b60008155600101610f22565b5080610f22565b634e487b7160e01b600052604160045260246000fd5b634e487b7160e01b600052600060045260246000fd5b60405162461bcd60e51b815260206004820152601760248201527f4d696e657220616c7265616479207375626d69747465640000000000000000006044820152606490fd5b60405162461bcd60e51b815260206004820152601160248201527008adae0e8f240e4cae6ead8e840d0c2e6d607b1b6044820152606490fd5b60405162461bcd60e51b815260206004820152601a60248201527f43616e6e6f74207375626d697420746f2074686973207461736b0000000000006044820152606490fd5b909150610887576002148580610c79565b506001811491506000610c72565b506004356000818152600b602052604090205414610c33565b346102ce576020806003193601126102ce576004359061109061360e565b81151580611236575b6110a2906133a6565b81600052600b81526040600020906007820191825460ff81166007811015610887576002036111f15760088201546001600160a01b03908116939084156111b557927fefef8593ec020b84769ddb5cf4469accbbd22d882a354bee97694405126ca6949260409261115b89966001850154169360038101549460048201549160058101549b600360098301549760ff1916179055600b42910155600052600f835285600020611151815461356a565b90556015546132c2565b6015558660005260108152836000206111758482546132c2565b905586600052601281528360002061118e8482546132c2565b90558351928352820152a3806111a5576001600055005b6111ae916139b7565b8080610934565b60405162461bcd60e51b81526004810183905260146024820152734e6f2076616c6964207375626d697373696f6e7360601b6044820152606490fd5b60405162461bcd60e51b815260048101849052601f60248201527f5461736b206e6f7420726561647920666f722066696e616c697a6174696f6e006044820152606490fd5b506000828152600b825260409020548214611099565b346102ce5760003660031901126102ce576112656136ab565b61126d613664565b6001805460ff60a01b1916600160a01b1790556040513381527f62e78cea01bee320cd4e420270b5ea74000d11b0c9f74754ebdbfc544b05a25890602090a1005b346102ce576020806003193601126102ce576004356112cb61360e565b80151580611412575b6112dd906133a6565b6000818152600b835260409020600181015490926001600160a01b0391821633036113dd57600784019283549360ff851660078110156108875761139857600461134187600561133860036109349b015485840154906132c2565b910154906132c2565b9560ff191617905533600052600f82526040600020611360815461356a565b90557f06f63d695245e4cf8f0b7aae0b8da95876a4b173ba8d0d4466cc83c357dda3a8604051928584523393a3339060025416613703565b60405162461bcd60e51b815260048101849052601760248201527f43616e6e6f742063616e63656c2074686973207461736b0000000000000000006044820152606490fd5b6064906040519062461bcd60e51b82526004820152600e60248201526d2737ba103a30b9b59037bbb732b960911b6044820152fd5b506000818152600b8352604090205481146112d4565b346102ce5761143636613063565b91600052600e60205260406000209060005260205260406000209060018060a01b0316600052602052602060ff604060002054166040519015158152f35b346102ce5760203660031901126102ce57600435600052600c6020526020604060002054604051908152f35b346102ce576114ae36613037565b90600052601b6020526040600020906000526020526020604060002054604051908152f35b346102ce5760003660031901126102ce576114ec6136ab565b600180546001600160a01b031981169091556000906001600160a01b03167f8be0079c531659141344cd1fd0a4f28419497f9722a3daafe3b4186f6b6457e08280a3005b346102ce5760803660031901126102ce576004356024803560449081356064336000526020906008825261156b60ff6040600020541661341e565b8615158061196e575b61157d906133a6565b611585613664565b86600052600b825260406000209060ff6007830154166007811015611959578060026115b9921490811561194e575061345c565b87600052600c83526115d160406000205486106134a8565b6115df612710851115613577565b87600052600c83526115f58560406000206130da565b5090600382019761160a60ff8a5416156134ea565b89600052601b8552604060002087600052855261162f604060002054601954906132c2565b61163b601a54826132c2565b9042111561190d5742116118d85789600052601685526040600020876000528552604060002033600052855260406000209182549889156118a657600284019283549a60ff8c1661187257604051898101908b825285356040820152604081526116a481613198565b51902003611842575050508591600391600160ff19809b1617905501558760005260188352604060002085600052835260406000206116e381546132cf565b905587600052600d8352604060002085600052835260406000203360005283528360406000205587600052600e835260406000208560005283526040600020336000528352604060002060018782541617905587600052601c835260406000208560005283526117573360406000206135d3565b600581019261176684546132cf565b9485855560405191878352820152887f23def086b3dc14dbd150f69d2e6af648dfc789cdf251ba7d720feecbc0625f8560403393a3600a548410156117a757005b7fff2fc693bb2d4a09f21f0c403fce5ecb4b5b0b57e81c7253deb5386bb8a8ae779660016117d96107bb96888c613794565b9788600285015582541617905560098201908682548111611817575b5050505054604051938493846040919493926060820195825260208201520152565b6008925560018060a01b039054169101906001600160601b0360a01b825416179055868080866117f5565b8791600d6c090c2e6d040dad2e6dac2e8c6d609b1b926040519462461bcd60e51b86526004860152840152820152fd5b50879160106f105b1c9958591e481c995d99585b195960821b926040519462461bcd60e51b86526004860152840152820152fd5b6e139bc818dbdb5b5a5d08199bdd5b99608a1b8791600f856040519462461bcd60e51b86526004860152840152820152fd5b7114995d99585b081c1a185cd948195b99195960721b88601287936040519462461bcd60e51b86526004860152840152820152fd5b507f436f6d6d6974207068617365206e6f7420656e6465642079657400000000000088601a87936040519462461bcd60e51b86526004860152840152820152fd5b60019150148a6105fb565b87634e487b7160e01b60005260216004526000fd5b506000878152600b835260409020548714611574565b346102ce5760003660031901126102ce576020600a54604051908152f35b346102ce5760003660031901126102ce57602060405164e8d4a510008152f35b346102ce576020806003193601126102ce5760043580151580611b36575b6119e9906133a6565b6119f1613664565b80600052600b825260406000206007810180549260ff84166007811015610887578015908115611b2b575b5015611ae65760068301544210611aaa57600f611aa89560018060a01b03936005611a5c86600189015416978261133860038301546004840154906132c2565b9760ff191617905584600052526040600020611a78815461356a565b90557f7c2ecd5e2b7188ac57f3a370681639cb447c9cbfbbbace0c070adea6c73eaa54600080a260025416613703565b005b60405162461bcd60e51b815260048101869052601460248201527315185cdac81b9bdd08195e1c1a5c9959081e595d60621b6044820152606490fd5b60405162461bcd60e51b815260048101869052601760248201527f43616e6e6f74206578706972652074686973207461736b0000000000000000006044820152606490fd5b600191501486611a1c565b506000818152600b8352604090205481146119e0565b346102ce5760003660031901126102ce57602060ff60015460a01c166040519015158152f35b346102ce57611b8036613037565b90600052600c60205260406000209081548110156102ce57611ba1916130da565b5080546001600160a01b0316611bb9600183016131d4565b9160028101549060ff600382015416906005600482015491015491611bf0604051968796875260c0602088015260c087019061308d565b93604086015215156060850152608084015260a08301520390f35b346102ce576020806003193601126102ce57611c2561304d565b611c2d6136ab565b6001600160a01b031690611c42821515613351565b816000526008815260ff60406000205416611d0e5781600052600881526040600020600160ff19825416179055611c7a6009546132cf565b600955816000526013815260026040600020015415611cbc575b507fe366c1c0452ed8eec96861e9e54141ebff23c9ec89fe27b996b45f5ec3884987600080a2005b600360405191611ccb8361317d565b6000835280830160008152604084019061138882526013606086019342855287600052526040600020945185555160018501555160028401555191015581611c94565b6064906040519062461bcd60e51b82526004820152601160248201527020b63932b0b23c903b30b634b230ba37b960791b6044820152fd5b346102ce5760003660031901126102ce576020601954604051908152f35b346102ce5760203660031901126102ce57611d7d61304d565b611d856136ab565b6001600160a01b0316600081815260086020526040902054611da99060ff1661341e565b806000526008602052604060002060ff198154169055611dca60095461356a565b6009557fe1434e25d6611e0db941968fdc97811c982ac1602e951637d206f5fdda9dd8f1600080a2005b346102ce5760003660031901126102ce57611e0d6136ab565b60015460ff8160a01c1615611e545760ff60a01b19166001556040513381527f5db9ee0a495bf2e6ff9c91a7834c1ba4fdd244a5e8aa4e537bd38aeae4b073aa90602090a1005b60405162461bcd60e51b815260206004820152601460248201527314185d5cd8589b194e881b9bdd081c185d5cd95960621b6044820152606490fd5b346102ce57611e9e36613037565b611ea66136ab565b61012c808310611f2e578110611ef057816040917f54333de66970050ba341fd48b02b1e37c55d85ae724ee00e32233e89e072bea89360195580601a5582519182526020820152a1005b60405162461bcd60e51b815260206004820152601660248201527514995d99585b081c1a185cd9481d1bdbc81cda1bdc9d60521b6044820152606490fd5b60405162461bcd60e51b815260206004820152601660248201527510dbdb5b5a5d081c1a185cd9481d1bdbc81cda1bdc9d60521b6044820152606490fd5b346102ce57611f7a36613063565b91600052601660205260406000209060005260205260406000209060018060a01b031660005260205260806040600020805490600181015490600360ff600283015416910154916040519384526020840152151560408301526060820152f35b346102ce5760203660031901126102ce576001600160a01b03611ffb61304d565b1660005260116020526020604060002054604051908152f35b346102ce5760203660031901126102ce57602061203260043561352e565b604051908152f35b346102ce5760003660031901126102ce576020600454604051908152f35b346102ce5760203660031901126102ce576004356120746136ab565b60018110612118576009548082119081159161210f575b50156120ca5760407fb6db129b84dbdef2d15fbb03e44fe1050995a5b1f855b6faf62b419185e53dc891600a549080600a5582519182526020820152a1005b60405162461bcd60e51b815260206004820152601d60248201527f43616e6e6f74206578636565642076616c696461746f7220636f756e740000006044820152606490fd5b9050158261208b565b60405162461bcd60e51b815260206004820152601c60248201527f4d696e2076616c69646174696f6e73206d757374206265203e3d2031000000006044820152606490fd5b346102ce5760203660031901126102ce576001600160a01b0361217e61304d565b16600052600f6020526020604060002054604051908152f35b346102ce5760603660031901126102ce5760043560249081359060443533600052602090600882526121d060ff6040600020541661341e565b821515806124e4575b6121e2906133a6565b6121ea613664565b82600052600b825260ff6007604060002001541660078110156124cf5780600261221c921490811561087c575061345c565b82600052600c825261223460406000205485106134a8565b80156124975782600052600c825261226160ff60036122578760406000206130da565b50015416156134ea565b82600052601682526040600020846000528252604060002033600052825260406000205461245f5782600052600e82526040600020846000528252604060002033600052825260ff6040600020541661241b5782600052601b82526040600020846000528252604060002054156123fc575b82600052601b825260406000208460005282526122f8604060002054601954906132c2565b42116123c3576040517f96e134fdbcf6f2b8942aa1450973cc1e5914913673abacabebf1f0b14fe4a552929161232d8261317d565b815260038282014281526123906040840160008152606085019260008452886000526016875260406000208a60005287526040600020336000528752604060002095518655516001860155511515600285019060ff801983541691151516179055565b519101558260005260178152604060002084600052815260406000206123b681546132cf565b90556040519384523393a3005b60405162461bcd60e51b8152600481018390526012818701527110dbdb5b5a5d081c1a185cd948195b99195960721b6044820152606490fd5b82600052601b82526040600020846000528252426040600020556122d3565b60405162461bcd60e51b8152600481018390526017818701527f416c72656164792073636f726564206469726563746c790000000000000000006044820152606490fd5b60405162461bcd60e51b81526004810183905260118187015270105b1c9958591e4818dbdb5b5a5d1d1959607a1b6044820152606490fd5b60405162461bcd60e51b8152600481018390526011818701527008adae0e8f240c6dedadad2e840d0c2e6d607b1b6044820152606490fd5b85634e487b7160e01b60005260216004526000fd5b506000838152600b8352604090205483146121d9565b346102ce5760203660031901126102ce57600061018060405161251c81613146565b828152826020820152606060408201528260608201528260808201528260a08201528260c08201528260e0820152826101008201528261012082015282610140820152826101608201520152600435600052600b60205260406000206040519061258582613146565b8054825260018101546001600160a01b031660208301526125a8600282016131d4565b60408301526003810154606083015260048101546080830152600581015460a0830152600681015460c083015260078101549060ff821691600783101561088757600b9260e085015260018060a01b039060081c1661010084015260018060a01b036008820154166101208401526009810154610140840152600a81015461016084015201546101808201526040518091602082528051602083015260018060a01b03602082015116604083015261018061267460408301516101a060608601526101c085019061308d565b9160608101516080850152608081015160a085015260a081015160c085015260c081015160e08501526126b060e08201516101008601906130cd565b60018060a01b036101008201511661012085015260018060a01b03610120820151166101408501526101408101516101608501526101608101518285015201516101a08301520390f35b346102ce5760203660031901126102ce5760043580151580612832575b612720906133a6565b612728613664565b80600052600b6020526040600020600781019081549060ff82166007811015610887576127f857600661275e91015442106133e3565b60081c6001600160a01b03166127c0578054610100600160a81b0319163360081b610100600160a81b0316178155805460ff1916600117905533907fc8717b61398fb9d7cacf49fe1e296b2f10e9711226b532842b6ffd642cb6a2c6600080a3005b60405162461bcd60e51b815260206004820152601060248201526f105b1c9958591e48185cdcda59db995960821b6044820152606490fd5b60405162461bcd60e51b81526020600482015260126024820152715461736b206e6f7420617661696c61626c6560701b6044820152606490fd5b506000818152600b60205260409020548114612717565b346102ce576020806003193601126102ce57600435600052600c81526040600020908154916128778361338f565b9261288560405194856131b3565b8084528284018092600052836000206000915b8383106129445750505050604051918083019381845251809452604083019360408160051b85010192916000955b8287106128d35785850386f35b909192938280600192603f1989820301855287519061290a60c0868060a01b0384511683528484015190808685015283019061308d565b91604081015160408301526060808201511515908301526080808201519083015260a08091015191015296019201960195929190926128c6565b60068660019260409998995161295981613162565b848060a01b03865416815261296f8587016131d4565b838201526002860154604082015260ff6003870154161515606082015260048601546080820152600586015460a0820152815201920192019190959495612898565b346102ce5760203660031901126102ce576129ca61304d565b6129d26136ab565b6001600160a01b03818116916129e9831515613351565b601554918215612a2f57611aa89360006015557fc0819c13be868895eb93e40eaceb96de976442fa1d404e5c55f14bb65a8c489a6020604051868152a260025416613703565b60405162461bcd60e51b81526020600482015260136024820152724e6f206665657320746f20776974686472617760681b6044820152606490fd5b346102ce57612a7836613063565b91600052600d60205260406000209060005260205260406000209060018060a01b03166000526020526020604060002054604051908152f35b346102ce5760003660031901126102ce576020600954604051908152f35b346102ce5760203660031901126102ce576001600160a01b03612af061304d565b1660005260106020526020604060002054604051908152f35b346102ce57612b1736613037565b9060005260176020526040600020906000526020526020604060002054604051908152f35b346102ce5760603660031901126102ce576004356001600160401b0381116102ce57612b6c90369060040161300a565b612b7461360e565b612b7c613664565b8015612fd35760055460243510612f9d57604435151580612f8f575b15612f57576127109081612bb0600354602435613279565b0491612bc0600454602435613279565b0491612bd783612bd2836024356132c2565b6132c2565b6002546040516323b872dd60e01b60208201523360248201523060448201526064808201939093529182526001600160a01b0316906001600160401b0360a0820190811190821117610f4b57612c339160a08201604052613e12565b612c3e6007546132cf565b9283600755612c4f604435426132c2565b9060405192612c5d84613146565b858452336020850152612c713686896132f9565b60408501526024356060850152608084015260a083015260c0820152600060e082015260006101008201526000610120820152600061014082015242610160820152600061018082015282600052600b602052604060002093815185556001850160018060a01b036020840151166001600160601b0360a01b82541617905560408201518051906001600160401b038211610f4b578190612d15600289015461310c565b601f8111612f04575b50602090601f8311600114612e9257600092612e87575b50508160011b916000199060031b1c19161760028601555b606082015160038601556080820151600486015560a0820151600586015560c0820151600686015560e082015190600782101561088757600786018054610100850151610100600160a81b0360089190911b1660ff949094166001600160a81b0319909116179290921790915560209484927fb5e5fbf3346e9f5c610406862e51622b9d1e7fefd46de0e79367de79c2b74890929190600b90610180906008840160018060a01b03610120830151166001600160601b0360a01b8254161790556101408101516009850155610160810151600a850155015191015533600052600f86526040600020612e3f81546132cf565b905582600052600b8652600660406000200154612e776040519283926024358452898401526060604084015233966060840191613330565b0390a36001600055604051908152f35b015190508780612d35565b9250600288016000526020600020906000935b601f1984168510612ee9576001945083601f19811610612ed0575b505050811b016002860155612d4d565b015160001960f88460031b161c19169055878080612ec0565b81810151835560209485019460019093019290910190612ea5565b909150600288016000526020600020601f840160051c810160208510612f50575b90849392915b601f830160051c82018110612f41575050612d1e565b60008155859450600101612f2b565b5080612f25565b60405162461bcd60e51b815260206004820152601060248201526f24b73b30b634b210323ab930ba34b7b760811b6044820152606490fd5b506006546044351115612b98565b60405162461bcd60e51b815260206004820152600e60248201526d52657761726420746f6f206c6f7760901b6044820152606490fd5b60405162461bcd60e51b815260206004820152600f60248201526e08adae0e8f240e8c2e6d640d0c2e6d608b1b6044820152606490fd5b9181601f840112156102ce578235916001600160401b0383116102ce57602083818601950101116102ce57565b60409060031901126102ce576004359060243590565b600435906001600160a01b03821682036102ce57565b60609060031901126102ce5760043590602435906044356001600160a01b03811681036102ce5790565b919082519283825260005b8481106130b9575050826000602080949584010152601f8019910116010190565b602081830181015184830182015201613098565b9060078210156108875752565b80548210156130f6576000526006602060002091020190600090565b634e487b7160e01b600052603260045260246000fd5b90600182811c9216801561313c575b602083101461312657565b634e487b7160e01b600052602260045260246000fd5b91607f169161311b565b6101a081019081106001600160401b03821117610f4b57604052565b60c081019081106001600160401b03821117610f4b57604052565b608081019081106001600160401b03821117610f4b57604052565b606081019081106001600160401b03821117610f4b57604052565b90601f801991011681019081106001600160401b03821117610f4b57604052565b906040519182600082546131e78161310c565b908184526020946001916001811690816000146132575750600114613218575b505050613216925003836131b3565b565b600090815285812095935091905b81831061323f5750506132169350820101388080613207565b85548884018501529485019487945091830191613226565b9250505061321694925060ff191682840152151560051b820101388080613207565b8181029291811591840414171561328c57565b634e487b7160e01b600052601160045260246000fd5b81156132ac570490565b634e487b7160e01b600052601260045260246000fd5b9190820180921161328c57565b600019811461328c5760010190565b6001600160401b038111610f4b57601f01601f191660200190565b929192613305826132de565b9161331360405193846131b3565b8294818452818301116102ce578281602093846000960137010152565b908060209392818452848401376000828201840152601f01601f1916010190565b1561335857565b60405162461bcd60e51b815260206004820152600f60248201526e496e76616c6964206164647265737360881b6044820152606490fd5b6001600160401b038111610f4b5760051b60200190565b156133ad57565b60405162461bcd60e51b815260206004820152600e60248201526d15185cdac81b9bdd08199bdd5b9960921b6044820152606490fd5b156133ea57565b60405162461bcd60e51b815260206004820152600c60248201526b15185cdac8195e1c1a5c995960a21b6044820152606490fd5b1561342557565b60405162461bcd60e51b815260206004820152600f60248201526e2737ba1030903b30b634b230ba37b960891b6044820152606490fd5b1561346357565b60405162461bcd60e51b815260206004820152601760248201527f5461736b206e6f742070656e64696e67207265766965770000000000000000006044820152606490fd5b156134af57565b60405162461bcd60e51b8152602060048201526013602482015272092dcecc2d8d2c840dad2dccae440d2dcc8caf606b1b6044820152606490fd5b156134f157565b60405162461bcd60e51b8152602060048201526015602482015274416c72656164792068617320636f6e73656e73757360581b6044820152606490fd5b600a549064e8d4a51000811061354d57506002810180911161328c5790565b64174876e800111561355c5790565b6001810180911161328c5790565b801561328c576000190190565b1561357e57565b60405162461bcd60e51b8152602060048201526015602482015274053636f7265206d75737420626520302d313030303605c1b6044820152606490fd5b80548210156130f65760005260206000200190600090565b8054600160401b811015610f4b576135f0916001820181556135bb565b60018060a09493941b038084549260031b9316831b921b1916179055565b60026000541461361f576002600055565b60405162461bcd60e51b815260206004820152601f60248201527f5265656e7472616e637947756172643a207265656e7472616e742063616c6c006044820152606490fd5b60ff60015460a01c1661367357565b60405162461bcd60e51b815260206004820152601060248201526f14185d5cd8589b194e881c185d5cd95960821b6044820152606490fd5b6001546001600160a01b031633036136bf57565b606460405162461bcd60e51b815260206004820152602060248201527f4f776e61626c653a2063616c6c6572206973206e6f7420746865206f776e65726044820152fd5b60405163a9059cbb60e01b60208201526001600160a01b0390921660248301526044808301939093529181526132169161373c8261317d565b613e12565b9061374b8261338f565b61375860405191826131b3565b8281528092613769601f199161338f565b0190602036910137565b80518210156130f65760209160051b010190565b9190820391821161328c57565b929161379f81613741565b9160005b8281106139a15750846000526020601c815260409081600020836000528152816000209081549185830361395d57918192845190819482848794520190600052836000209260005b8582821061393e57505050613802925003836131b3565b60005b8581106138f75750505050509091925060015b818110613871575060018181160361383c57906138389160011c90613773565b5190565b60011c90600019820182811161328c5761386b9261385d6138649284613773565b5192613773565b51906132c2565b60011c90565b9061387e82849594613773565b5192825b801515806138d8575b156138c05760001981019080821161328c576138aa6138bb9288613773565b516138b58289613773565b5261356a565b613882565b936138d16001939492969586613773565b5201613818565b50600019810181811161328c576138f0869188613773565b511161388b565b6000898152600d83528481208682528352849020600191906001600160a01b036139218387613773565b511660005283528460002054613937828a613773565b5201613805565b85546001600160a01b03168452600195860195889550930192016137eb565b835162461bcd60e51b815260048101839052601b60248201527f56616c696461746f7220747261636b696e67206d69736d6174636800000000006044820152606490fd5b8060006139b060019387613773565b52016137a3565b9081600052600b60205260018060a01b0360086040600020015416600019600c6020526040600020916000908354915b828110613dc5575b5050506000198114613db65783600052601c6020526040600020816000526020526040600020908154928315613da557613a2b826002926130da565b50015494613a3884613741565b9160009660005b868110613b4657505050508415613b365760009460005b848110613a87575050505050808210613a6d575050565b613a8291613a7a91613787565b6015546132c2565b601555565b80613a9460019285613773565b5115613b3157613ac1613aba84613ab5613aae8589613773565b518b613279565b6132a2565b80996132c2565b97613acc82876135bb565b905490600391858060a01b0391831b1c1660005260116020526040600020613af58382546132c2565b9055613b0183886135bb565b858060a09493941b039254911b1c166000526012602052613b2860406000209182546132c2565b90555b01613a56565b613b2b565b505050613a8291506015546132c2565b613b5081876135bb565b9990549985600052600d602052604060002085600052602052604060002060018060a01b038c8360031b1c16600052602052613b9184604060002054613f46565b9a60018060a01b03818360031b1c16600052601360205260406000209b613bb88d546132cf565b8d554260038e01556107d08111613cfd5760018d01613bd781546132cf565b90556064613be5868b613773565b5260405190600082526020820152877f3d70426d5de70b5ac8bff45c3c0cd89db0e473153868b8c61a938d42002584e8604060018060a01b03858760031b1c1693a35b8b80549384613ccd575b613c3c868b613773565b5191600201549182613c4d91613279565b6127109004613c5c878c613773565b52613c67868b613773565b51613c71916132c2565b60019d909d0154604080519283526020830195909552938101939093526001600160a01b0360039290921b1c16907fc2fd17ad7e9f23b8607f0bd02d7a6cdcccd5a964fa99ce5a066ed34c5b4bb55b90606090a2600101613a3f565b906001015490612710828181020481148315171561328c57858f9391613cf392026132a2565b6002830155613c32565b6113888111613d59576032613d12868b613773565b5260405190600082526020820152877f3d70426d5de70b5ac8bff45c3c0cd89db0e473153868b8c61a938d42002584e8604060018060a01b03858760031b1c1693a3613c28565b6000613d65868b613773565b52604051908152877f3b3050df353576101845973a6b18bbcf16a0187f1c80d60d83d95be509203c51602060018060a01b03858760031b1c1693a3613c28565b50505050613a8291506015546132c2565b5050613a8291506015546132c2565b81613dd082876130da565b50546001600160a01b03161480613dfa575b613dee576001016139e7565b925050503880806139ef565b5060ff6003613e0983886130da565b50015416613de2565b60018060a01b03169060405160408101908082106001600160401b03831117610f4b57613ea1916040526020938482527f5361666545524332303a206c6f772d6c6576656c2063616c6c206661696c6564858301526000808587829751910182855af13d15613f3e573d91613e86836132de565b92613e9460405194856131b3565b83523d868885013e613f97565b805191821591848315613f13575b505050905015613ebc5750565b6084906040519062461bcd60e51b82526004820152602a60248201527f5361666545524332303a204552433230206f7065726174696f6e20646964206e6044820152691bdd081cdd58d8d9595960b21b6064820152fd5b919381809450010312613f3a57820151908115158203613f37575080388084613eaf565b80fd5b5080fd5b606091613f97565b8115613f90578180821115613f8057613f5e91613787565b905b6127109182810292818404149015171561328c57613f7d916132a2565b90565b90613f8a91613787565b90613f60565b5050600090565b91929015613ff95750815115613fab575090565b3b15613fb45790565b60405162461bcd60e51b815260206004820152601d60248201527f416464726573733a2063616c6c20746f206e6f6e2d636f6e74726163740000006044820152606490fd5b82519091501561400c5750805190602001fd5b60405162461bcd60e51b81526020600482015290819061403090602483019061308d565b0390fdfea2646970667358221220c26a5537bf659a9547a3db42769e16628443b2b28edc5e2c9e0161f755aa688c64736f6c63430008180033",
  "linkReferences": {},
  "deployedLinkReferences": {}
}