{"src/SubnetRegistry.sol":{"SubnetRegistry":{"abi":[{"inputs":[{"internalType":"address","name":"_mdtToken","type":"address"},{"internalType":"address","name":"_treasury","type":"address"}],"stateMutability":"nonpayable","type":"constructor"},{"anonymous":false,"inputs":[{"indexed":true,"internalType":"uint256","name":"taskId","type":"uint256"},{"indexed":false,"internalType":"uint256","name":"baseMin","type":"uint256"},{"indexed":false,"internalType":"uint256","name":"adaptiveMin","type":"uint256"}],"name":"AdaptiveValidationsApplied","type":"event"},{"anonymous":false,"inputs":[{"indexed":false,"internalType":"uint256","name":"commitDuration","type":"uint256"},{"indexed":false,"internalType":"uint256","name":"revealDuration","type":"uint256"}],"name":"CommitPhaseConfigUpdated","type":"event"},{"anonymous":false,"inputs":[{"indexed":true,"internalType":"uint256","name":"taskId","type":"uint256"},{"indexed":false,"internalType":"uint256","name":"minerIndex","type":"uint256"},{"indexed":false,"internalType":"uint256","name":"medianScore","type":"uint256"},{"indexed":false,"internalType":"uint256","name":"validatorCount","type":"uint256"}],"name":"ConsensusReached","type":"event"},{"anonymous":false,"inputs":[{"indexed":true,"internalType":"address","name":"account","type":"address"},{"indexed":false,"internalType":"uint256","name":"amount","type":"uint256"}],"name":"EarningsWithdrawn","type":"event"},{"anonymous":false,"inputs":[{"indexed":true,"internalType":"uint256","name":"subnetId","type":"uint256"},{"indexed":true,"internalType":"address","name":"miner","type":"address"}],"name":"MinerRegistered","type":"event"},{"anonymous":false,"inputs":[{"indexed":true,"internalType":"address","name":"previousOwner","type":"address"},{"indexed":true,"internalType":"address","name":"newOwner","type":"address"}],"name":"OwnershipTransferred","type":"event"},{"anonymous":false,"inputs":[{"indexed":false,"internalType":"address","name":"account","type":"address"}],"name":"Paused","type":"event"},{"anonymous":false,"inputs":[{"indexed":true,"internalType":"address","name":"to","type":"address"},{"indexed":false,"internalType":"uint256","name":"amount","type":"uint256"}],"name":"ProtocolFeesWithdrawn","type":"event"},{"anonymous":false,"inputs":[{"indexed":true,"internalType":"address","name":"validator","type":"address"},{"indexed":false,"internalType":"uint256","name":"fromSubnet","type":"uint256"},{"indexed":false,"internalType":"uint256","name":"toSubnet","type":"uint256"},{"indexed":false,"internalType":"uint256","name":"portedScore","type":"uint256"}],"name":"ReputationPorted","type":"event"},{"anonymous":false,"inputs":[{"indexed":true,"internalType":"address","name":"validator","type":"address"},{"indexed":false,"internalType":"uint256","name":"newScore","type":"uint256"},{"indexed":false,"internalType":"uint256","name":"totalValidations","type":"uint256"},{"indexed":false,"internalType":"uint256","name":"accurateValidations","type":"uint256"}],"name":"ReputationUpdated","type":"event"},{"anonymous":false,"inputs":[{"indexed":true,"internalType":"uint256","name":"taskId","type":"uint256"},{"indexed":false,"internalType":"uint256","name":"minerIndex","type":"uint256"},{"indexed":true,"internalType":"address","name":"validator","type":"address"}],"name":"ScoreCommitted","type":"event"},{"anonymous":false,"inputs":[{"indexed":true,"internalType":"uint256","name":"taskId","type":"uint256"},{"indexed":false,"internalType":"uint256","name":"minerIndex","type":"uint256"},{"indexed":true,"internalType":"address","name":"validator","type":"address"},{"indexed":false,"internalType":"uint256","name":"score","type":"uint256"}],"name":"ScoreRevealed","type":"event"},{"anonymous":false,"inputs":[{"indexed":true,"internalType":"uint256","name":"taskId","type":"uint256"},{"indexed":true,"internalType":"address","name":"miner","type":"address"},{"indexed":false,"internalType":"string","name":"resultHash","type":"string"}],"name":"SubmissionReceived","type":"event"},{"anonymous":false,"inputs":[{"indexed":true,"internalType":"uint256","name":"taskId","type":"uint256"},{"indexed":true,"internalType":"address","name":"miner","type":"address"},{"indexed":false,"internalType":"uint256","name":"score","type":"uint256"},{"indexed":false,"internalType":"address","name":"validator","type":"address"}],"name":"SubmissionValidated","type":"event"},{"anonymous":false,"inputs":[{"indexed":true,"internalType":"uint256","name":"subnetId","type":"uint256"},{"indexed":false,"internalType":"string","name":"name","type":"string"},{"indexed":true,"internalType":"address","name":"owner","type":"address"},{"indexed":false,"internalType":"uint256","name":"feeRate","type":"uint256"}],"name":"SubnetCreated","type":"event"},{"anonymous":false,"inputs":[{"indexed":true,"internalType":"uint256","name":"subnetId","type":"uint256"},{"indexed":false,"internalType":"uint256","name":"newFeeRate","type":"uint256"},{"indexed":false,"internalType":"enum SubnetRegistry.SubnetStatus","name":"newStatus","type":"uint8"}],"name":"SubnetUpdated","type":"event"},{"anonymous":false,"inputs":[{"indexed":true,"internalType":"uint256","name":"taskId","type":"uint256"},{"indexed":true,"internalType":"uint256","name":"subnetId","type":"uint256"},{"indexed":true,"internalType":"address","name":"winner","type":"address"},{"indexed":false,"internalType":"uint256","name":"minerReward","type":"uint256"},{"indexed":false,"internalType":"uint256","name":"protocolFee","type":"uint256"},{"indexed":false,"internalType":"uint256","name":"subnetFee","type":"uint256"}],"name":"TaskCompleted","type":"event"},{"anonymous":false,"inputs":[{"indexed":true,"internalType":"uint256","name":"taskId","type":"uint256"},{"indexed":true,"internalType":"uint256","name":"subnetId","type":"uint256"},{"indexed":true,"internalType":"address","name":"requester","type":"address"},{"indexed":false,"internalType":"uint256","name":"rewardAmount","type":"uint256"}],"name":"TaskCreated","type":"event"},{"anonymous":false,"inputs":[{"indexed":false,"internalType":"address","name":"account","type":"address"}],"name":"Unpaused","type":"event"},{"anonymous":false,"inputs":[{"indexed":true,"internalType":"uint256","name":"subnetId","type":"uint256"},{"indexed":true,"internalType":"address","name":"validator","type":"address"}],"name":"ValidatorAdded","type":"event"},{"anonymous":false,"inputs":[{"indexed":true,"internalType":"uint256","name":"taskId","type":"uint256"},{"indexed":true,"internalType":"address","name":"validator","type":"address"},{"indexed":false,"internalType":"uint256","name":"deviation","type":"uint256"}],"name":"ValidatorPenalized","type":"event"},{"anonymous":false,"inputs":[{"indexed":true,"internalType":"uint256","name":"subnetId","type":"uint256"},{"indexed":true,"internalType":"address","name":"validator","type":"address"}],"name":"ValidatorRemoved","type":"event"},{"anonymous":false,"inputs":[{"indexed":true,"internalType":"uint256","name":"taskId","type":"uint256"},{"indexed":true,"internalType":"address","name":"validator","type":"address"},{"indexed":false,"internalType":"uint256","name":"amount","type":"uint256"},{"indexed":false,"internalType":"uint256","name":"deviation","type":"uint256"}],"name":"ValidatorRewarded","type":"event"},{"inputs":[],"name":"HIGH_VALUE_THRESHOLD","outputs":[{"internalType":"uint256","name":"","type":"uint256"}],"stateMutability":"view","type":"function"},{"inputs":[],"name":"MAX_SUBNET_FEE_RATE","outputs":[{"internalType":"uint256","name":"","type":"uint256"}],"stateMutability":"view","type":"function"},{"inputs":[],"name":"PROTOCOL_FEE_RATE","outputs":[{"internalType":"uint256","name":"","type":"uint256"}],"stateMutability":"view","type":"function"},{"inputs":[],"name":"REPUTATION_DECAY_FACTOR","outputs":[{"internalType":"uint256","name":"","type":"uint256"}],"stateMutability":"view","type":"function"},{"inputs":[],"name":"SUBNET_REGISTRATION_COST","outputs":[{"internalType":"uint256","name":"","type":"uint256"}],"stateMutability":"view","type":"function"},{"inputs":[],"name":"ULTRA_VALUE_THRESHOLD","outputs":[{"internalType":"uint256","name":"","type":"uint256"}],"stateMutability":"view","type":"function"},{"inputs":[],"name":"VALIDATOR_REWARD_RATE","outputs":[{"internalType":"uint256","name":"","type":"uint256"}],"stateMutability":"view","type":"function"},{"inputs":[{"internalType":"uint256","name":"subnetId","type":"uint256"},{"internalType":"address","name":"validator","type":"address"}],"name":"addValidator","outputs":[],"stateMutability":"nonpayable","type":"function"},{"inputs":[{"internalType":"uint256","name":"","type":"uint256"},{"internalType":"uint256","name":"","type":"uint256"}],"name":"commitCount","outputs":[{"internalType":"uint256","name":"","type":"uint256"}],"stateMutability":"view","type":"function"},{"inputs":[],"name":"commitPhaseDuration","outputs":[{"internalType":"uint256","name":"","type":"uint256"}],"stateMutability":"view","type":"function"},{"inputs":[{"internalType":"uint256","name":"","type":"uint256"},{"internalType":"uint256","name":"","type":"uint256"}],"name":"commitPhaseStart","outputs":[{"internalType":"uint256","name":"","type":"uint256"}],"stateMutability":"view","type":"function"},{"inputs":[{"internalType":"uint256","name":"taskId","type":"uint256"},{"internalType":"uint256","name":"minerIndex","type":"uint256"},{"internalType":"bytes32","name":"commitHash","type":"bytes32"}],"name":"commitScore","outputs":[],"stateMutability":"nonpayable","type":"function"},{"inputs":[{"internalType":"uint256","name":"subnetId","type":"uint256"},{"internalType":"string","name":"taskHash","type":"string"},{"internalType":"uint256","name":"rewardAmount","type":"uint256"},{"internalType":"uint256","name":"duration","type":"uint256"}],"name":"createTask","outputs":[{"internalType":"uint256","name":"taskId","type":"uint256"}],"stateMutability":"nonpayable","type":"function"},{"inputs":[{"internalType":"uint256","name":"taskId","type":"uint256"}],"name":"expireTask","outputs":[],"stateMutability":"nonpayable","type":"function"},{"inputs":[{"internalType":"uint256","name":"taskId","type":"uint256"}],"name":"finalizeTask","outputs":[],"stateMutability":"nonpayable","type":"function"},{"inputs":[],"name":"getActiveSubnetCount","outputs":[{"internalType":"uint256","name":"count","type":"uint256"}],"stateMutability":"view","type":"function"},{"inputs":[{"internalType":"uint256","name":"subnetId","type":"uint256"},{"internalType":"uint256","name":"rewardAmount","type":"uint256"}],"name":"getAdaptiveMinValidations","outputs":[{"internalType":"uint256","name":"","type":"uint256"}],"stateMutability":"view","type":"function"},{"inputs":[{"internalType":"uint256","name":"score","type":"uint256"},{"internalType":"bytes32","name":"salt","type":"bytes32"}],"name":"getCommitHash","outputs":[{"internalType":"bytes32","name":"","type":"bytes32"}],"stateMutability":"pure","type":"function"},{"inputs":[{"internalType":"uint256","name":"taskId","type":"uint256"}],"name":"getSubmissionCount","outputs":[{"internalType":"uint256","name":"","type":"uint256"}],"stateMutability":"view","type":"function"},{"inputs":[{"internalType":"uint256","name":"taskId","type":"uint256"}],"name":"getSubmissions","outputs":[{"components":[{"internalType":"address","name":"miner","type":"address"},{"internalType":"string","name":"resultHash","type":"string"},{"internalType":"uint256","name":"score","type":"uint256"},{"internalType":"bool","name":"validated","type":"bool"},{"internalType":"uint256","name":"submittedAt","type":"uint256"},{"internalType":"uint256","name":"validationCount","type":"uint256"}],"internalType":"struct SubnetRegistry.MinerSubmission[]","name":"","type":"tuple[]"}],"stateMutability":"view","type":"function"},{"inputs":[{"internalType":"uint256","name":"subnetId","type":"uint256"}],"name":"getSubnet","outputs":[{"components":[{"internalType":"uint256","name":"id","type":"uint256"},{"internalType":"string","name":"name","type":"string"},{"internalType":"string","name":"description","type":"string"},{"internalType":"address","name":"owner","type":"address"},{"internalType":"uint256","name":"feeRate","type":"uint256"},{"internalType":"uint256","name":"minTaskReward","type":"uint256"},{"internalType":"uint256","name":"totalVolume","type":"uint256"},{"internalType":"uint256","name":"totalTasks","type":"uint256"},{"internalType":"uint256","name":"activeMiners","type":"uint256"},{"internalType":"enum SubnetRegistry.SubnetStatus","name":"status","type":"uint8"},{"internalType":"uint256","name":"createdAt","type":"uint256"}],"internalType":"struct SubnetRegistry.Subnet","name":"","type":"tuple"}],"stateMutability":"view","type":"function"},{"inputs":[{"internalType":"uint256","name":"taskId","type":"uint256"}],"name":"getTask","outputs":[{"components":[{"internalType":"uint256","name":"id","type":"uint256"},{"internalType":"uint256","name":"subnetId","type":"uint256"},{"internalType":"address","name":"requester","type":"address"},{"internalType":"string","name":"taskHash","type":"string"},{"internalType":"uint256","name":"rewardAmount","type":"uint256"},{"internalType":"uint256","name":"protocolFee","type":"uint256"},{"internalType":"uint256","name":"validatorReward","type":"uint256"},{"internalType":"uint256","name":"subnetFee","type":"uint256"},{"internalType":"uint256","name":"deadline","type":"uint256"},{"internalType":"enum SubnetRegistry.TaskStatus","name":"status","type":"uint8"},{"internalType":"address","name":"winningMiner","type":"address"},{"internalType":"uint256","name":"winningScore","type":"uint256"},{"internalType":"uint256","name":"createdAt","type":"uint256"}],"internalType":"struct SubnetRegistry.Task","name":"","type":"tuple"}],"stateMutability":"view","type":"function"},{"inputs":[{"internalType":"uint256","name":"taskId","type":"uint256"},{"internalType":"uint256","name":"minerIndex","type":"uint256"},{"internalType":"address","name":"validator","type":"address"}],"name":"getValidatorScore","outputs":[{"internalType":"uint256","name":"score","type":"uint256"},{"internalType":"bool","name":"scored","type":"bool"}],"stateMutability":"view","type":"function"},{"inputs":[{"internalType":"uint256","name":"","type":"uint256"},{"internalType":"address","name":"","type":"address"}],"name":"hasMinerSubmitted","outputs":[{"internalType":"bool","name":"","type":"bool"}],"stateMutability":"view","type":"function"},{"inputs":[{"internalType":"uint256","name":"","type":"uint256"},{"internalType":"uint256","name":"","type":"uint256"},{"internalType":"address","name":"","type":"address"}],"name":"hasValidatorScored","outputs":[{"internalType":"bool","name":"","type":"bool"}],"stateMutability":"view","type":"function"},{"inputs":[{"internalType":"uint256","name":"subnetId","type":"uint256"},{"internalType":"address","name":"miner","type":"address"}],"name":"isMiner","outputs":[{"internalType":"bool","name":"","type":"bool"}],"stateMutability":"view","type":"function"},{"inputs":[{"internalType":"uint256","name":"subnetId","type":"uint256"},{"internalType":"address","name":"validator","type":"address"}],"name":"isValidator","outputs":[{"internalType":"bool","name":"","type":"bool"}],"stateMutability":"view","type":"function"},{"inputs":[],"name":"maxSubmissionsPerTask","outputs":[{"internalType":"uint256","name":"","type":"uint256"}],"stateMutability":"view","type":"function"},{"inputs":[],"name":"mdtToken","outputs":[{"internalType":"contract IERC20","name":"","type":"address"}],"stateMutability":"view","type":"function"},{"inputs":[{"internalType":"address","name":"","type":"address"}],"name":"minerEarnings","outputs":[{"internalType":"uint256","name":"","type":"uint256"}],"stateMutability":"view","type":"function"},{"inputs":[],"name":"owner","outputs":[{"internalType":"address","name":"","type":"address"}],"stateMutability":"view","type":"function"},{"inputs":[],"name":"paused","outputs":[{"internalType":"bool","name":"","type":"bool"}],"stateMutability":"view","type":"function"},{"inputs":[{"internalType":"address","name":"","type":"address"}],"name":"pendingWithdrawals","outputs":[{"internalType":"uint256","name":"","type":"uint256"}],"stateMutability":"view","type":"function"},{"inputs":[{"internalType":"uint256","name":"fromSubnetId","type":"uint256"},{"internalType":"uint256","name":"toSubnetId","type":"uint256"}],"name":"portReputation","outputs":[],"stateMutability":"nonpayable","type":"function"},{"inputs":[],"name":"protocolTreasury","outputs":[{"internalType":"address","name":"","type":"address"}],"stateMutability":"view","type":"function"},{"inputs":[{"internalType":"uint256","name":"subnetId","type":"uint256"}],"name":"registerMiner","outputs":[],"stateMutability":"nonpayable","type":"function"},{"inputs":[{"internalType":"string","name":"name","type":"string"},{"internalType":"string","name":"description","type":"string"},{"internalType":"uint256","name":"feeRate","type":"uint256"}],"name":"registerSubnet","outputs":[{"internalType":"uint256","name":"subnetId","type":"uint256"}],"stateMutability":"nonpayable","type":"function"},{"inputs":[{"internalType":"uint256","name":"subnetId","type":"uint256"},{"internalType":"address","name":"validator","type":"address"}],"name":"removeValidator","outputs":[],"stateMutability":"nonpayable","type":"function"},{"inputs":[],"name":"renounceOwnership","outputs":[],"stateMutability":"nonpayable","type":"function"},{"inputs":[{"internalType":"uint256","name":"","type":"uint256"},{"internalType":"uint256","name":"","type":"uint256"}],"name":"revealCount","outputs":[{"internalType":"uint256","name":"","type":"uint256"}],"stateMutability":"view","type":"function"},{"inputs":[],"name":"revealPhaseDuration","outputs":[{"internalType":"uint256","name":"","type":"uint256"}],"stateMutability":"view","type":"function"},{"inputs":[{"internalType":"uint256","name":"taskId","type":"uint256"},{"internalType":"uint256","name":"minerIndex","type":"uint256"},{"internalType":"uint256","name":"score","type":"uint256"},{"internalType":"bytes32","name":"salt","type":"bytes32"}],"name":"revealScore","outputs":[],"stateMutability":"nonpayable","type":"function"},{"inputs":[{"internalType":"uint256","name":"_commitDuration","type":"uint256"},{"internalType":"uint256","name":"_revealDuration","type":"uint256"}],"name":"setCommitRevealConfig","outputs":[],"stateMutability":"nonpayable","type":"function"},{"inputs":[{"internalType":"uint256","name":"subnetId","type":"uint256"},{"internalType":"uint256","name":"newMin","type":"uint256"}],"name":"setMinValidations","outputs":[],"stateMutability":"nonpayable","type":"function"},{"inputs":[{"internalType":"address","name":"newTreasury","type":"address"}],"name":"setProtocolTreasury","outputs":[],"stateMutability":"nonpayable","type":"function"},{"inputs":[{"internalType":"uint256","name":"taskId","type":"uint256"},{"internalType":"string","name":"resultHash","type":"string"}],"name":"submitResult","outputs":[],"stateMutability":"nonpayable","type":"function"},{"inputs":[],"name":"subnetCount","outputs":[{"internalType":"uint256","name":"","type":"uint256"}],"stateMutability":"view","type":"function"},{"inputs":[{"internalType":"uint256","name":"","type":"uint256"}],"name":"subnetMinValidations","outputs":[{"internalType":"uint256","name":"","type":"uint256"}],"stateMutability":"view","type":"function"},{"inputs":[{"internalType":"uint256","name":"","type":"uint256"}],"name":"subnetMinerCount","outputs":[{"internalType":"uint256","name":"","type":"uint256"}],"stateMutability":"view","type":"function"},{"inputs":[{"internalType":"uint256","name":"","type":"uint256"},{"internalType":"address","name":"","type":"address"}],"name":"subnetMiners","outputs":[{"internalType":"bool","name":"","type":"bool"}],"stateMutability":"view","type":"function"},{"inputs":[{"internalType":"uint256","name":"","type":"uint256"}],"name":"subnetValidatorCount","outputs":[{"internalType":"uint256","name":"","type":"uint256"}],"stateMutability":"view","type":"function"},{"inputs":[{"internalType":"uint256","name":"","type":"uint256"},{"internalType":"address","name":"","type":"address"}],"name":"subnetValidators","outputs":[{"internalType":"bool","name":"","type":"bool"}],"stateMutability":"view","type":"function"},{"inputs":[{"internalType":"uint256","name":"","type":"uint256"}],"name":"subnets","outputs":[{"internalType":"uint256","name":"id","type":"uint256"},{"internalType":"string","name":"name","type":"string"},{"internalType":"string","name":"description","type":"string"},{"internalType":"address","name":"owner","type":"address"},{"internalType":"uint256","name":"feeRate","type":"uint256"},{"internalType":"uint256","name":"minTaskReward","type":"uint256"},{"internalType":"uint256","name":"totalVolume","type":"uint256"},{"internalType":"uint256","name":"totalTasks","type":"uint256"},{"internalType":"uint256","name":"activeMiners","type":"uint256"},{"internalType":"enum SubnetRegistry.SubnetStatus","name":"status","type":"uint8"},{"internalType":"uint256","name":"createdAt","type":"uint256"}],"stateMutability":"view","type":"function"},{"inputs":[{"internalType":"uint256","name":"","type":"uint256"},{"internalType":"uint256","name":"","type":"uint256"}],"name":"taskSubmissions","outputs":[{"internalType":"address","name":"miner","type":"address"},{"internalType":"string","name":"resultHash","type":"string"},{"internalType":"uint256","name":"score","type":"uint256"},{"internalType":"bool","name":"validated","type":"bool"},{"internalType":"uint256","name":"submittedAt","type":"uint256"},{"internalType":"uint256","name":"validationCount","type":"uint256"}],"stateMutability":"view","type":"function"},{"inputs":[{"internalType":"uint256","name":"","type":"uint256"}],"name":"tasks","outputs":[{"internalType":"uint256","name":"id","type":"uint256"},{"internalType":"uint256","name":"subnetId","type":"uint256"},{"internalType":"address","name":"requester","type":"address"},{"internalType":"string","name":"taskHash","type":"string"},{"internalType":"uint256","name":"rewardAmount","type":"uint256"},{"internalType":"uint256","name":"protocolFee","type":"uint256"},{"internalType":"uint256","name":"validatorReward","type":"uint256"},{"internalType":"uint256","name":"subnetFee","type":"uint256"},{"internalType":"uint256","name":"deadline","type":"uint256"},{"internalType":"enum SubnetRegistry.TaskStatus","name":"status","type":"uint8"},{"internalType":"address","name":"winningMiner","type":"address"},{"internalType":"uint256","name":"winningScore","type":"uint256"},{"internalType":"uint256","name":"createdAt","type":"uint256"}],"stateMutability":"view","type":"function"},{"inputs":[],"name":"totalProtocolFees","outputs":[{"internalType":"uint256","name":"","type":"uint256"}],"stateMutability":"view","type":"function"},{"inputs":[{"internalType":"address","name":"newOwner","type":"address"}],"name":"transferOwnership","outputs":[],"stateMutability":"nonpayable","type":"function"},{"inputs":[{"internalType":"uint256","name":"subnetId","type":"uint256"}],"name":"unregisterSubnet","outputs":[],"stateMutability":"nonpayable","type":"function"},{"inputs":[{"internalType":"uint256","name":"subnetId","type":"uint256"},{"internalType":"uint256","name":"newFeeRate","type":"uint256"},{"internalType":"enum SubnetRegistry.SubnetStatus","name":"newStatus","type":"uint8"}],"name":"updateSubnet","outputs":[],"stateMutability":"nonpayable","type":"function"},{"inputs":[{"internalType":"uint256","name":"taskId","type":"uint256"},{"internalType":"uint256","name":"submissionIndex","type":"uint256"},{"internalType":"uint256","name":"score","type":"uint256"}],"name":"validateSubmission","outputs":[],"stateMutability":"nonpayable","type":"function"},{"inputs":[{"internalType":"uint256","name":"","type":"uint256"},{"internalType":"uint256","name":"","type":"uint256"},{"internalType":"address","name":"","type":"address"}],"name":"validationCommits","outputs":[{"internalType":"bytes32","name":"commitHash","type":"bytes32"},{"internalType":"uint256","name":"committedAt","type":"uint256"},{"internalType":"bool","name":"revealed","type":"bool"},{"internalType":"uint256","name":"revealedScore","type":"uint256"}],"stateMutability":"view","type":"function"},{"inputs":[{"internalType":"address","name":"","type":"address"}],"name":"validatorEarnings","outputs":[{"internalType":"uint256","name":"","type":"uint256"}],"stateMutability":"view","type":"function"},{"inputs":[{"internalType":"address","name":"","type":"address"}],"name":"validatorReputation","outputs":[{"internalType":"uint256","name":"totalValidations","type":"uint256"},{"internalType":"uint256","name":"accurateValidations","type":"uint256"},{"internalType":"uint256","name":"reputationScore","type":"uint256"},{"internalType":"uint256","name":"lastActiveAt","type":"uint256"}],"stateMutability":"view","type":"function"},{"inputs":[{"internalType":"uint256","name":"","type":"uint256"},{"internalType":"uint256","name":"","type":"uint256"},{"internalType":"address","name":"","type":"address"}],"name":"validatorScores","outputs":[{"internalType":"uint256","name":"","type":"uint256"}],"stateMutability":"view","type":"function"},{"inputs":[],"name":"withdrawEarnings","outputs":[],"stateMutability":"nonpayable","type":"function"},{"inputs":[],"name":"withdrawProtocolFees","outputs":[],"stateMutability":"nonpayable","type":"function"}],"evm":{"bytecode":{"linkReferences":{},"object":"6080346200069657601f6200524c38819003918201601f19168301916001600160401b038311848410176200051a57808492604094855283398101031262000696576200005a60206200005283620006bb565b9201620006bb565b600160005560015491604051923360018060a01b0382167f8be0079c531659141344cd1fd0a4f28419497f9722a3daafe3b4186f6b6457e0600080a36001600160a81b0319163360ff60a01b191617600155600a600555610e10601c55610708601d556001600160a01b03169182156200066457506001600160a01b03169081156200062c5760018060a01b0319600254161760025560018060a01b031960065416176006556200010a6200069b565b601481527f47656e6572616c20496e74656c6c6967656e636500000000000000000000000060208201526200013e6200069b565b602081527f546578742c20436f64652c20616e642047656e6572616c204149205461736b736020820152600354906000198214620006165760018201600355604051906001600160401b036101608301908111908311176200051a57610160820160405282825283602083015260408201523360608201526101f460808201526305f5e10060a0820152600060c0820152600060e0820152600061010082015260006101208201524261014082015281600052600960205260406000209080518255602081015180519060018060401b0382116200051a57600184015490600182811c921680156200060b575b6020831014620004f95781601f849311620005b3575b50602090601f83116001146200053c5760009262000530575b50508160011b916000199060031b1c19161760018301555b60408101518051906001600160401b0382116200051a57600284015490600182811c921680156200050f575b6020831014620004f95781601f849311620004a1575b50602090601f83116001146200042a576000926200041e575b50508160011b916000199060031b1c19161760028301555b6060810151600383810180546001600160a01b0319166001600160a01b0393909316929092179091556080820151600484015560a0820151600584015560c0820151600684015560e082015160078401556101008201516008840155610120820151600984019290918210156200040857600a926101409260ff80198354169116179055015191015580600052600860205260026040600020556040516040815282519283604083015260005b848110620003f15750508060006060857f8e46dcab88334408205dfdff058de646a02ab7fddb35b9923e924e49ce505c30940101526101f460208201526060813395601f80199101168101030190a3604051614b7b9081620006d18239f35b806020809284010151606082860101520162000392565b634e487b7160e01b600052602160045260246000fd5b015190503880620002cd565b9250600285016000526020600020906000935b601f198416851062000485576001945083601f198116106200046b575b505050811b016002830155620002e5565b015160001960f88460031b161c191690553880806200045a565b818101518355602094850194600190930192909101906200043d565b909150600285016000526020600020601f840160051c810160208510620004f1575b90849392915b601f830160051c82018110620004e1575050620002b4565b60008155859450600101620004c9565b5080620004c3565b634e487b7160e01b600052602260045260246000fd5b91607f16916200029e565b634e487b7160e01b600052604160045260246000fd5b0151905038806200025a565b9250600185016000526020600020906000935b601f198416851062000597576001945083601f198116106200057d575b505050811b01600183015562000272565b015160001960f88460031b161c191690553880806200056c565b818101518355602094850194600190930192909101906200054f565b909150600185016000526020600020601f840160051c81016020851062000603575b90849392915b601f830160051c82018110620005f357505062000241565b60008155859450600101620005db565b5080620005d5565b91607f16916200022b565b634e487b7160e01b600052601160045260246000fd5b60405162461bcd60e51b815260206004820152601060248201526f496e76616c696420747265617375727960801b6044820152606490fd5b62461bcd60e51b815260206004820152600d60248201526c24b73b30b634b2103a37b5b2b760991b6044820152606490fd5b600080fd5b60408051919082016001600160401b038111838210176200051a57604052565b51906001600160a01b0382168203620006965756fe6080604052600436101561001257600080fd5b60003560e01c8063072f4fc014613a855780630c5a61f814613a385780630ebac45a14613a055780630f0da719146139cb5780630fb6d8051461398457806310c6bd251461395857806310f0dde41461393b57806316c53ced146137d35780631d65e77e146135e05780631dc375b9146135355780631dd73e0d146131e857806323f2a73f14610de657806324c3fd2f146131c75780632fa70f481461319b5780633370f06e1461317e578063393880061461314457806339b1185d146131265780633c9a6bf3146130b85780633f422ef314612fdc578063475726f714612f03578063483b403914612ee55780634af9398814612ec85780634b56175314612d2957806351b15b8a14612cfd57806353eea87514612c6457806358ca750414612aaa5780635c975abb14612a845780635cc9bca91461262057806362ecc47a1461248f57806365617a351461248a57806368a7f8261461202f5780636a0cd1f514611f515780636f5474bf14611e3a578063715018a614611ddd57806377ad68da14611daa5780637b61748214611d095780637be24cb814611cdd5780637ca0ad2d14611c91578063803db96d14611c685780638795cccb14611bcb57806388488c33146119df5780638c0a4a051461137f5780638c0dd79a146114da5780638d977672146113f55780638da5cb5b146113cc5780638ee9f6dc1461137f578063916a5c5b14611361578063927229c614610e8f57806393af007614610e725780639d7eea9f14610e33578063a3be1eab14610de6578063ac64c82214610d99578063b46e742414610d66578063b73c6ce914610caa578063b7ee5eda14610907578063be123323146106bd578063c6a1a01a14610653578063ca7b64bb14610633578063d1270485146105d7578063d1faf406146104ca578063d65314b31461045a578063dfc753721461043c578063f2fde38b14610378578063f3f437031461033e578063f526e39a146103205763f70b5c06146102f257600080fd5b3461031b57600036600319011261031b576002546040516001600160a01b039091168152602090f35b600080fd5b3461031b57600036600319011261031b576020600754604051908152f35b3461031b57602036600319011261031b576001600160a01b0361035f613aa5565b1660005260166020526020604060002054604051908152f35b3461031b57602036600319011261031b57610391613aa5565b61039961417d565b6001600160a01b039081169081156103e857600154826001600160601b0360a01b821617600155167f8be0079c531659141344cd1fd0a4f28419497f9722a3daafe3b4186f6b6457e0600080a3005b60405162461bcd60e51b815260206004820152602660248201527f4f776e61626c653a206e6577206f776e657220697320746865207a65726f206160448201526564647265737360d01b6064820152608490fd5b3461031b57600036600319011261031b576020601d54604051908152f35b3461031b57604061046a36613ae7565b826000526020916012835284600020816000528352846000209160018060a01b03169182600052835260ff856000205416936000526011835284600020906000528252836000209060005281528260002054918351928352151590820152f35b3461031b57602036600319011261031b576104e36141d5565b60043560005260096020526040600020600960018060a01b039161050e8360038301541633146140eb565b019081549160ff831660038110156105c15780159081156105b6575b501561057c5760026105759360ff1916179055600254166040519063a9059cbb60e01b602083015233602483015264e8d4a5100060448301526044825261057082613bcf565b614923565b6001600055005b60405162461bcd60e51b8152602060048201526012602482015271105b1c9958591e4819195c1c9958d85d195960721b6044820152606490fd5b60019150148461052a565b634e487b7160e01b600052602160045260246000fd5b3461031b57602036600319011261031b576001600160a01b036105f8613aa5565b166000526017602052608060406000208054906001810154906003600282015491015491604051938452602084015260408301526060820152f35b3461031b57600036600319011261031b57602060405164174876e8008152f35b3461031b57600036600319011261031b5760038054600090815b81811061067f57602083604051908152f35b8060005260ff6009806020526040600020015416848110156105c157156106a9575b60010161066d565b916106b5600191613f0c565b9290506106a1565b3461031b576106cb36613ad1565b9080600052602091600c8352604060002033600052835260ff60406000205416156108c25780600052600c8352604060002033600052835260ff604060002054161561087d5780821461084a573360005260178352604060002080541561080d576002015490611388918281028181048414821517156107f7576127109004928311156107a6577f28712f42bb62447cac6809da4bee68e8b6d1786eff0b73558cac4884c0fb64b693945080831161079e575b50604080519485526020850191909152830152339180606081015b0390a2005b91508461077e565b60405162461bcd60e51b8152600481018690526024808201527f506f727465642073636f7265206e6f7420626574746572207468616e20646566604482015263185d5b1d60e21b6064820152608490fd5b634e487b7160e01b600052601160045260246000fd5b60405162461bcd60e51b8152600481018590526015602482015274139bc81c995c1d5d185d1a5bdb881d1bc81c1bdc9d605a1b6044820152606490fd5b60405162461bcd60e51b815260048101849052600b60248201526a14d85b59481cdd589b995d60aa1b6044820152606490fd5b60405162461bcd60e51b815260048101849052601e60248201527f4e6f742076616c696461746f7220696e20746172676574207375626e657400006044820152606490fd5b60405162461bcd60e51b815260048101849052601e60248201527f4e6f742076616c696461746f7220696e20736f75726365207375626e657400006044820152606490fd5b3461031b57606036600319011261031b576004356024356044359082600052602090600a8252604060002092600984019260ff84541660068110156105c15780600261095c9214908115610c9f575b50613e00565b60018501938454600052600c8252604060002033600052825261098660ff60406000205416613e41565b86600052600b825261099e6040600020548510613e7f565b6109ac61271084111561404f565b86600052601282526040600020846000528252604060002033600052825260ff60406000205416610c495786600052600b82526109ed846040600020613d0f565b5090600382019360ff855416610c065788600052601b84526040600020866000528452604060002054610ba7578860005260118452604060002086600052845260406000203360005284528060406000205588600052601284526040600020866000528452604060002033600052845260406000209660ff199760018982541617905589600052601385526040600020876000528552610a913360406000206140a3565b60086005850195610aa28754613f0c565b9283885560018060a01b03948d7f424e5ad88b2accc1579e610100b12e0f295d8c9e0b02abb61ad1e413e3d63d026040888b54169381519081523387820152a354600052526040600020548015610b9f575b811015610afd57005b7fff2fc693bb2d4a09f21f0c403fce5ecb4b5b0b57e81c7253deb5386bb8a8ae7798610799966001610b32600a948b8f6142fe565b9a8b600289015582541617905501928784548111610b6e575b505050505054604051938493846040919493926060820195825260208201520152565b90935591548154610100600160a81b031916921660081b610100600160a81b03169190911790558680808087610b4b565b506002610af4565b60405162461bcd60e51b815260048101859052603160248201527f436f6d6d69742d72657665616c206163746976653a2075736520636f6d6d697460448201527053636f72652f72657665616c53636f726560781b6064820152608490fd5b6064846040519062461bcd60e51b825280600483015260248201527f5375626d697373696f6e20616c72656164792068617320636f6e73656e7375736044820152fd5b60405162461bcd60e51b815260048101839052602860248201527f56616c696461746f7220616c72656164792073636f72656420746869732073756044820152673136b4b9b9b4b7b760c11b6064820152608490fd5b600191501488610956565b3461031b57600036600319011261031b57610cc36141d5565b3360005260166020526040600020548015610d2b5761057590336000526016602052600060408120556040518181527f48dc35af7b45e2a81fffad55f6e2fafacdb1d3d0d50d24ebdc16324f5ba757f160203392a260025433906001600160a01b0316614272565b60405162461bcd60e51b81526020600482015260136024820152724e6f2070656e64696e67206561726e696e677360681b6044820152606490fd5b3461031b57610d7436613ad1565b90600052601a6020526040600020906000526020526020604060002054604051908152f35b3461031b57604036600319011261031b57610db2613abb565b600435600052601060205260406000209060018060a01b0316600052602052602060ff604060002054166040519015158152f35b3461031b57604036600319011261031b57610dff613abb565b600435600052600c60205260406000209060018060a01b0316600052602052602060ff604060002054166040519015158152f35b3461031b57604036600319011261031b576020604051818101906004358252602435604082015260408152610e6781613c21565b519020604051908152f35b3461031b57600036600319011261031b5760206040516105dc8152f35b3461031b57606036600319011261031b576004356001600160401b03811161031b57610ebf903690600401613d41565b906024356001600160401b03811161031b57610edf903690600401613d41565b92610ee86141d5565b610ef061422b565b801561132f57610f6392610f5b91610f0e6107d0604435111561412a565b6002546040516323b872dd60e01b602082015233602482015230604482015264e8d4a510006064808301919091528152610f54916001600160a01b031661057082613c06565b3691614018565b923691614018565b9060035490610f7182613f0c565b60035560405192610f8184613bea565b828452816020850152604084015233606084015260443560808401526305f5e10060a0840152600060c0840152600060e0840152600061010084015260006101208401524261014084015281600052600960205260406000208351815560208401518051906001600160401b0382116112495781906110036001850154613b5e565b601f81116112dc575b50602090601f831160011461126a5760009261125f575b50508160011b916000199060031b1c19161760018201555b60408401518051906001600160401b0382116112495781906110606002850154613b5e565b601f81116111f6575b50602090601f831160011461118457600092611179575b50508160011b916000199060031b1c19161760028201555b6003810160018060a01b036060860151166001600160601b0360a01b8254161790556080840151600482015560a0840151600582015560c0840151600682015560e0840151600782015561010084015160088201556101208401519360038510156105c157610140600a9161111260209760098601614165565b015191015581600052600883526002604060002055817f8e46dcab88334408205dfdff058de646a02ab7fddb35b9923e924e49ce505c3061115e60405193604085526040850190613b11565b92604435868201528033940390a36001600055604051908152f35b015190508680611080565b9250600284016000526020600020906000935b601f19841685106111db576001945083601f198116106111c2575b505050811b016002820155611098565b015160001960f88460031b161c191690558680806111b2565b81810151835560209485019460019093019290910190611197565b909150600284016000526020600020601f840160051c810160208510611242575b90849392915b601f830160051c82018110611233575050611069565b6000815585945060010161121d565b5080611217565b634e487b7160e01b600052604160045260246000fd5b015190508680611023565b9250600184016000526020600020906000935b601f19841685106112c1576001945083601f198116106112a8575b505050811b01600182015561103b565b015160001960f88460031b161c19169055868080611298565b8181015183556020948501946001909301929091019061127d565b909150600184016000526020600020601f840160051c810160208510611328575b90849392915b601f830160051c8201811061131957505061100c565b60008155859450600101611303565b50806112fd565b60405162461bcd60e51b815260206004820152600a602482015269456d707479206e616d6560b01b6044820152606490fd5b3461031b57600036600319011261031b576020600354604051908152f35b3461031b57604036600319011261031b57611398613abb565b600435600052600e60205260406000209060018060a01b0316600052602052602060ff604060002054166040519015158152f35b3461031b57600036600319011261031b576001546040516001600160a01b039091168152602090f35b3461031b57602036600319011261031b576004356000908152600a602052604090208054600182015460028301546060936001600160a01b03918216939161143f60038301613c5d565b9360048301549460058401546006850154600786015491611494600888015494600989015496600b600a8b01549a01549a6040519e8f9e8f906101a094859483526020830152604082015201528c0190613b11565b9860808b015260a08a015260c089015260e08801526101008701526114c0610120870160ff8316613b51565b60081c166101408501526101608401526101808301520390f35b3461031b57604036600319011261031b576024356001600160401b03811161031b5761150a903690600401613d41565b6115126141d5565b600435600052600a602052604060002060ff600982015416600681101590816105c15780159182156119d1575b82156119c0575b50501561198b576008810154421015611957576001810154600052600e60205260406000203360005260205260ff604060002054161561191257600435600052601060205260406000203360005260205260ff604060002054166118cd57600435600052600b60205260406000205460055411156118885760043560005260106020526040600020336000526020526040600020600160ff19825416179055600435600052600b60205260406000206040519061160282613b98565b338252611610368587614018565b60208301526000604083015260006060830152426080830152600060a08301528054600160401b8110156112495761164d91600182018155613d0f565b91909161187257805182546001600160a01b0319166001600160a01b039190911617825560208101518051906001600160401b038211611249576116946001850154613b5e565b601f811161182b575b50602090601f83116001146117b65791806005949260a0946000926117ab575b50508160011b916000199060031b1c19161760018501555b604081015160028501556116fe60608201511515600386019060ff801983541691151516179055565b608081015160048501550151910155600981015460ff811660068110156105c15780159081156117a0575b5061178c575b505080604051926020845281602085015260408401376000604082840101527fa3dcf7cebcc4cf0937f4f95d95392671977ba143b4ff236240650322a106e8dc339260408160043594601f80199101168101030190a36001600055005b600260099160ff191617910155828061172f565b600191501485611729565b0151905089806116bd565b906001850160005260206000209160005b601f19851681106118135750926005949260019260a09583601f198116106117fa575b505050811b0160018501556116d5565b015160001960f88460031b161c191690558980806117ea565b919260206001819286850151815501940192016117c7565b600185016000526020600020601f840160051c81016020851061186b575b601f830160051c8201811061185f57505061169d565b60008155600101611849565b5080611849565b634e487b7160e01b600052600060045260246000fd5b60405162461bcd60e51b815260206004820152601760248201527f4d6178207375626d697373696f6e7320726561636865640000000000000000006044820152606490fd5b60405162461bcd60e51b815260206004820152601760248201527f4d696e657220616c7265616479207375626d69747465640000000000000000006044820152606490fd5b60405162461bcd60e51b815260206004820152601860248201527f4e6f74207265676973746572656420696e207375626e657400000000000000006044820152606490fd5b60405162461bcd60e51b815260206004820152600c60248201526b15185cdac8195e1c1a5c995960a21b6044820152606490fd5b60405162461bcd60e51b815260206004820152600d60248201526c10d85b9b9bdd081cdd589b5a5d609a1b6044820152606490fd5b9091506105c1576002148480611546565b50600181149150600061153f565b3461031b5760208060031936011261031b57600435906119fd6141d5565b81600052600a8152604060002090600982019081549160ff831660068110156105c157600203611b9a576001600160a01b03600884901c811693908415611b69578692611b247fae64f0a069112683796fc01e7d04ea7e255a3cd070a7dce992fdcdecbc1e6d5293889360018501549760048601549460036007600660058a01549901549d01549460ff1916179055886000526009815260406000209160068301611aa9878254613eff565b905560078301611ab98154613f0c565b9055611ac787600754613eff565b6007558a600052601582526040600020611ae2878254613eff565b90558a600052601682526040600020611afc878254613eff565b905583611b43575b505050604051938493846040919493926060820195825260208201520152565b0390a480611b33576001600055005b611b3c916144c5565b8080610575565b6003601693015416600052526040600020611b5f828254613eff565b90558a8080611b04565b60405162461bcd60e51b81526004810185905260096024820152682737903bb4b73732b960b91b6044820152606490fd5b60405162461bcd60e51b81526004810183905260096024820152684e6f7420726561647960b81b6044820152606490fd5b3461031b57600036600319011261031b57611be461417d565b6007548015611c3957611c3790600060075560018060a01b03806006541690817fa087657e3d85162090ffd700fbfdf5070d816f63aa5da00063f6ffd369c8a6db6020604051868152a260025416614272565b005b60405162461bcd60e51b81526020600482015260076024820152664e6f206665657360c81b6044820152606490fd5b3461031b57600036600319011261031b576006546040516001600160a01b039091168152602090f35b3461031b57611c9f36613ae7565b91600052601260205260406000209060005260205260406000209060018060a01b0316600052602052602060ff604060002054166040519015158152f35b3461031b57602036600319011261031b57600435600052600b6020526020604060002054604051908152f35b3461031b57606036600319011261031b57600435602435604435600381101561031b577fa2191efe487e08892e9d1920150485aaf7591f089bdde895929d692ea8c4e08a91611da7604092856000526009602052611d9881600986600020611d7e60018060a01b0360038301541633146140eb565b611d8c6107d088111561412a565b86600482015501614165565b83519283526020830190613d02565ba2005b3461031b57611db836613ad1565b90600052601b6020526040600020906000526020526020604060002054604051908152f35b3461031b57600036600319011261031b57611df661417d565b600180546001600160a01b031981169091556000906001600160a01b03167f8be0079c531659141344cd1fd0a4f28419497f9722a3daafe3b4186f6b6457e08280a3005b3461031b5760208060031936011261031b5760043590816000526009815260ff6009604060002001541660038110156105c157611e779015613f8a565b81600052600e8152604060002033600052815260ff60406000205416611f185760099082600052600e815260406000203360005281526040600020600160ff1982541617905582600052600f81526040600020611ed48154613f0c565b905582600052526008604060002001611eed8154613f0c565b905533907fbaae7a2be0ecfa867d60fcdae77877a3dda7484c504290098d77f256415abab2600080a3005b6064906040519062461bcd60e51b825260048201526012602482015271105b1c9958591e481c9959da5cdd195c995960721b6044820152fd5b3461031b57604036600319011261031b57600435611f6d613abb565b9080600052600d60206009815260018060a01b03806003604060002001541633148015612022575b611f9e90613dc3565b83600052600c82526040600020941693846000528152611fc560ff60406000205416613e41565b82600052600c81526040600020846000528152604060002060ff19815416905582600052526040600020611ff981546140de565b90557f7126bef88d1149ccdff9681ed5aecd3ba5ae70c96517551de250af09cebd1a0b600080a3005b5060015481163314611f95565b3461031b57608036600319011261031b576004356024908135604490813591606484600052602090600a8252604060002094600986019060ff825416600681101561247557806002612089921490811561246a5750613e00565b60018701938454600052600c815260406000203360005281526120b360ff60406000205416613e41565b88600052600b81526120cb6040600020548810613e7f565b6120d961271083111561404f565b88600052600b81526120ef876040600020613d0f565b5093600385019661210460ff89541615613ebb565b8a600052601b83526040600020896000528352612129604060002054601c5490613eff565b612135601d5482613eff565b904211156124295742116123f4578a600052601883526040600020896000528352604060002033600052835260406000209182549182156123c15760ff9b9c9d600285019384549d8e1661238d576040518781019089825285356040820152604081526121a181613c21565b5190200361235d575050506003600893928592600160ff19809e1617905501558a600052601a8152604060002088600052815260406000206121e38154613f0c565b90558a6000526011815260406000208860005281526040600020336000528152826040600020558a6000526012815260406000208860005281526040600020336000528152604060002060018a8254161790558a6000526013815260406000208860005281526122573360406000206140a3565b60058501956122668754613f0c565b93848855604051908a8252838201528c7f23def086b3dc14dbd150f69d2e6af648dfc789cdf251ba7d720feecbc0625f8560403393a354600052526040600020548015612355575b8110156122b757005b7fff2fc693bb2d4a09f21f0c403fce5ecb4b5b0b57e81c7253deb5386bb8a8ae77976107999560016122ec600a948a8e6142fe565b998a600288015582541617905501918683548111612327575b5050505054604051938493846040919493926060820195825260208201520152565b90925590548154610100600160a81b03191660089190911b610100600160a81b031617905586808086612305565b5060026122ae565b8591600d6c090c2e6d040dad2e6dac2e8c6d609b1b926040519462461bcd60e51b86526004860152840152820152fd5b50859160106f105b1c9958591e481c995d99585b195960821b926040519462461bcd60e51b86526004860152840152820152fd5b6e139bc818dbdb5b5a5d08199bdd5b99608a1b85918f600f906040519462461bcd60e51b86526004860152840152820152fd5b7114995d99585b081c1a185cd948195b99195960721b839160128e6040519462461bcd60e51b86526004860152840152820152fd5b507f436f6d6d6974207068617365206e6f7420656e646564207965740000000000008391601a8e6040519462461bcd60e51b86526004860152840152820152fd5b60019150148b610956565b89634e487b7160e01b60005260216004526000fd5b613a85565b3461031b57602036600319011261031b576124a86141d5565b600435600052600a6020526040600020600981019081549060ff8216600681101590816105c1578015918215612612575b8215612601575b5050156125c757600881015442111561258b576001600160a01b03600883901c81166125525761057593600561253a61252f61252460048701548488015490613eff565b600687015490613eff565b600786015490613eff565b9460ff19161790556002818154169201541690614272565b60405162461bcd60e51b81526020600482015260116024820152702a30b9b5903430b99030903bb4b73732b960791b6044820152606490fd5b60405162461bcd60e51b815260206004820152601460248201527315185cdac81b9bdd081e595d08195e1c1a5c995960621b6044820152606490fd5b60405162461bcd60e51b81526020600482015260126024820152715461736b206e6f7420657870697261626c6560701b6044820152606490fd5b9091506105c15760021484806124e0565b5060018114915060006124d9565b3461031b57608036600319011261031b576024356001600160401b03811161031b57612650903690600401613d41565b6126586141d5565b61266061422b565b600435600052600960205260406000209160ff60098401541660038110156105c15761268c9015613f8a565b600583015460443510612a4e57606435151580612a3f575b15612a07576101f480604435029360443515916044358604148217156107f757612710906105dc9283604435029360443585041417156107f7576126ef600483920154604435613fca565b049161274e6127118461270c85850461270c878c04604435613eff565b613eff565b6002546040516323b872dd60e01b60208201523360248201523060448201526064808201939093529182526001600160a01b031661057082613c06565b816004549661275c88613f0c565b60045561279461276e60643542613eff565b966040519861277c8a613bb3565b8a8a5260043560208b01523360408b01523691614018565b606088015260443560808801520460a08601520460c084015260e08301526101008201526000610120820152600061014082015260006101608201524261018082015281600052600a60205260406000209181518355602082015160018401556002830160018060a01b036040840151166001600160601b0360a01b82541617905560608201519283516001600160401b038111611249576128396003830154613b5e565b601f81116129c0575b506020601f8211600114612951578192939495600092612946575b50508160011b916000199060031b1c19161760038201555b6080830151600482015560a0830151600582015560c0830151600682015560e083015160078201556101008301516008820155600981016101208401519060068210156105c1578054610140860151610100600160a81b0360089190911b1660ff939093166001600160a81b031990911617919091179055602092600b9061018090610160810151600a850155015191015560405160443581523390827f428f55877ee911b6c5acc83ef215f08675d3787bdfac5018bbe41876df710f498560043593a46001600055604051908152f35b01519050858061285d565b6003830160005260206000209060005b601f19841681106129a8575060019394959683601f1981161061298f575b505050811b016003820155612875565b015160001960f88460031b161c1916905585808061297f565b9091602060018192858b015181550193019101612961565b600383016000526020600020601f830160051c810160208410612a00575b601f830160051c820181106129f4575050612842565b600081556001016129de565b50806129de565b60405162461bcd60e51b815260206004820152601060248201526f24b73b30b634b210323ab930ba34b7b760811b6044820152606490fd5b5062093a8060643511156126a4565b60405162461bcd60e51b815260206004820152600e60248201526d52657761726420746f6f206c6f7760901b6044820152606490fd5b3461031b57600036600319011261031b57602060ff60015460a01c166040519015158152f35b3461031b57602036600319011261031b576000610140604051612acc81613bea565b82815260606020820152606060408201528260608201528260808201528260a08201528260c08201528260e0820152826101008201528261012082015201526004356000526009602052604060002060405190612b2882613bea565b80548252612b3860018201613c5d565b6020830152612b4960028201613c5d565b60408301526003818101546001600160a01b0316606084015260048201546080840152600582015460a0840152600682015460c0840152600782015460e08401526008820154610100840152600982015460ff1691908210156105c157600a91610120840152015461014082015260405180916020825280516020830152610140612bfe612be860208401516101606040870152610180860190613b11565b6040840151858203601f19016060870152613b11565b9160018060a01b036060820151166080850152608081015160a085015260a081015160c085015260c081015160e085015260e0810151610100850152610100810151610120850152612c5861012082015183860190613d02565b01516101608301520390f35b3461031b57612c7236613ad1565b90600052600b602052604060002090815481101561031b57612c9391613d0f565b5080546001600160a01b0316612cab60018301613c5d565b9160028101549060ff600382015416906005600482015491015491612ce2604051968796875260c0602088015260c0870190613b11565b93604086015215156060850152608084015260a08301520390f35b3461031b57602036600319011261031b57600435600052600d6020526020604060002054604051908152f35b3461031b57604036600319011261031b57600435612d45613abb565b90806000526020916009835260018060a01b0390816003604060002001541633148015612ebb575b612d7690613dc3565b1691612d83831515613d6e565b81600052600c8152604060002083600052815260ff60406000205416612e835781600052600c815260406000208360005281526040600020600160ff1982541617905581600052600d81526040600020612ddd8154613f0c565b9055826000526017815260406000206002810154159081612e79575b50612e27575b507f7429a06e9412e469f0d64f9d222640b0af359f556b709e2913588c227851b88d600080a3005b600360405191612e3683613bcf565b6000835280830160008152604084019061138882526017606086019342855288600052526040600020945185555160018501555160028401555191015582612dff565b9050541584612df9565b6064906040519062461bcd60e51b82526004820152601160248201527020b63932b0b23c903b30b634b230ba37b960791b6044820152fd5b5060015482163314612d6d565b3461031b57600036600319011261031b5760206040516107d08152f35b3461031b57600036600319011261031b576020601c54604051908152f35b3461031b57602036600319011261031b57600435600052600960205260406000208054612f3260018301613c5d565b91612f3f60028201613c5d565b612fd260018060a01b0360038401541692600481015460058201546006830154600784015491600885015493612fa7600a60ff60098901541697015498612f996040519d8e9d8e6101609181528160208201520190613b11565b8c810360408e015290613b11565b9860608b015260808a015260a089015260c088015260e0870152610100860152610120850190613d02565b6101408301520390f35b3461031b57612fea36613ad1565b612ff261417d565b61012c80831061307a57811061303c57816040917f54333de66970050ba341fd48b02b1e37c55d85ae724ee00e32233e89e072bea893601c5580601d5582519182526020820152a1005b60405162461bcd60e51b815260206004820152601660248201527514995d99585b081c1a185cd9481d1bdbc81cda1bdc9d60521b6044820152606490fd5b60405162461bcd60e51b815260206004820152601660248201527510dbdb5b5a5d081c1a185cd9481d1bdbc81cda1bdc9d60521b6044820152606490fd5b3461031b576130c636613ae7565b91600052601860205260406000209060005260205260406000209060018060a01b031660005260205260806040600020805490600181015490600360ff600283015416910154916040519384526020840152151560408301526060820152f35b3461031b57600036600319011261031b576020600554604051908152f35b3461031b57602036600319011261031b576001600160a01b03613165613aa5565b1660005260146020526020604060002054604051908152f35b3461031b57600036600319011261031b5760206040516113888152f35b3461031b57602036600319011261031b57600435600052600f6020526020604060002054604051908152f35b3461031b5760206131e06131da36613ad1565b90613f1b565b604051908152f35b3461031b57606036600319011261031b5760043560249081359060443581600052602090600a8252604060002060ff6009820154169060068210156135205761323e826002600194149081156135165750613e00565b0154600052600c8252604060002033600052825261326360ff60406000205416613e41565b82600052600b825261327b6040600020548510613e7f565b80156134de5782600052600b82526132a860ff600361329e876040600020613d0f565b5001541615613ebb565b8260005260188252604060002084600052825260406000203360005282526040600020546134a65782600052601282526040600020846000528252604060002033600052825260ff604060002054166134625782600052601b8252604060002084600052825260406000205415613443575b82600052601b8252604060002084600052825261333f604060002054601c5490613eff565b421161340a576040517f96e134fdbcf6f2b8942aa1450973cc1e5914913673abacabebf1f0b14fe4a552929161337482613bcf565b815260038282014281526133d76040840160008152606085019260008452886000526018875260406000208a60005287526040600020336000528752604060002095518655516001860155511515600285019060ff801983541691151516179055565b519101558260005260198152604060002084600052815260406000206133fd8154613f0c565b90556040519384523393a3005b60405162461bcd60e51b8152600481018390526012818701527110dbdb5b5a5d081c1a185cd948195b99195960721b6044820152606490fd5b82600052601b825260406000208460005282524260406000205561331a565b60405162461bcd60e51b8152600481018390526017818701527f416c72656164792073636f726564206469726563746c790000000000000000006044820152606490fd5b60405162461bcd60e51b81526004810183905260118187015270105b1c9958591e4818dbdb5b5a5d1d1959607a1b6044820152606490fd5b60405162461bcd60e51b8152600481018390526011818701527008adae0e8f240c6dedadad2e840d0c2e6d607b1b6044820152606490fd5b8491501489610956565b86634e487b7160e01b60005260216004526000fd5b3461031b5761354336613ad1565b9080600052600960205261357260018060a01b03806003604060002001541633149081156135d2575b50613dc3565b6001821061358d576000526008602052604060002055600080f35b60405162461bcd60e51b815260206004820152601c60248201527f4d696e2076616c69646174696f6e73206d757374206265203e3d2031000000006044820152606490fd5b90506001541633148461356c565b3461031b57602036600319011261031b57600061018060405161360281613bb3565b8281528260208201528260408201526060808201528260808201528260a08201528260c08201528260e0820152826101008201528261012082015282610140820152826101608201520152600435600052600a60205260406000206040519061366a82613bb3565b805482526001810154602083015260028101546001600160a01b0316604083015261369760038201613c5d565b606083015260048101546080830152600581015460a0830152600681015460c0830152600781015460e08301526008810154610100830152600981015490600660ff831610156105c1578160ff600b931661012085015260018060a01b039060081c16610140840152600a8101546101608401520154610180820152604051809160208252805160208301526020810151604083015260018060a01b03604082015116606083015261018061375d60608301516101a060808601526101c0850190613b11565b91608081015160a085015260a081015160c085015260c081015160e085015260e08101516101008501526101008101516101208501526137a7610120820151610140860190613b51565b6101408101516001600160a01b0316610160858101919091528101518285015201516101a08301520390f35b3461031b5760208060031936011261031b57600435600052600b815260406000209081549161380183613dac565b9261380f6040519485613c3c565b8084528284018092600052836000206000915b8383106138ce5750505050604051918083019381845251809452604083019360408160051b85010192916000955b82871061385d5785850386f35b909192938280600192603f1989820301855287519061389460c0868060a01b03845116835284840151908086850152830190613b11565b91604081015160408301526060808201511515908301526080808201519083015260a0809101519101529601920196019592919092613850565b6006866001926040999899516138e381613b98565b848060a01b0386541681526138f9858701613c5d565b838201526002860154604082015260ff6003870154161515606082015260048601546080820152600586015460a0820152815201920192019190959495613822565b3461031b57600036600319011261031b5760206040516101f48152f35b3461031b57602036600319011261031b5760043560005260086020526020604060002054604051908152f35b3461031b5761399236613ae7565b91600052601160205260406000209060005260205260406000209060018060a01b03166000526020526020604060002054604051908152f35b3461031b57602036600319011261031b576001600160a01b036139ec613aa5565b1660005260156020526020604060002054604051908152f35b3461031b57613a1336613ad1565b9060005260196020526040600020906000526020526020604060002054604051908152f35b3461031b57602036600319011261031b57613a51613aa5565b613a5961417d565b6001600160a01b0316613a6d811515613d6e565b6001600160601b0360a01b6006541617600655600080f35b3461031b57600036600319011261031b57602060405164e8d4a510008152f35b600435906001600160a01b038216820361031b57565b602435906001600160a01b038216820361031b57565b604090600319011261031b576004359060243590565b606090600319011261031b5760043590602435906044356001600160a01b038116810361031b5790565b919082519283825260005b848110613b3d575050826000602080949584010152601f8019910116010190565b602081830181015184830182015201613b1c565b9060068210156105c15752565b90600182811c92168015613b8e575b6020831014613b7857565b634e487b7160e01b600052602260045260246000fd5b91607f1691613b6d565b60c081019081106001600160401b0382111761124957604052565b6101a081019081106001600160401b0382111761124957604052565b608081019081106001600160401b0382111761124957604052565b61016081019081106001600160401b0382111761124957604052565b60a081019081106001600160401b0382111761124957604052565b606081019081106001600160401b0382111761124957604052565b90601f801991011681019081106001600160401b0382111761124957604052565b90604051918260008254613c7081613b5e565b90818452602094600191600181169081600014613ce05750600114613ca1575b505050613c9f92500383613c3c565b565b600090815285812095935091905b818310613cc8575050613c9f9350820101388080613c90565b85548884018501529485019487945091830191613caf565b92505050613c9f94925060ff191682840152151560051b820101388080613c90565b9060038210156105c15752565b8054821015613d2b576000526006602060002091020190600090565b634e487b7160e01b600052603260045260246000fd5b9181601f8401121561031b578235916001600160401b03831161031b576020838186019501011161031b57565b15613d7557565b60405162461bcd60e51b815260206004820152600f60248201526e496e76616c6964206164647265737360881b6044820152606490fd5b6001600160401b0381116112495760051b60200190565b15613dca57565b60405162461bcd60e51b815260206004820152600e60248201526d139bdd08185d5d1a1bdc9a5e995960921b6044820152606490fd5b15613e0757565b60405162461bcd60e51b81526020600482015260126024820152714e6f742070656e64696e672072657669657760701b6044820152606490fd5b15613e4857565b60405162461bcd60e51b815260206004820152600f60248201526e2737ba1030903b30b634b230ba37b960891b6044820152606490fd5b15613e8657565b60405162461bcd60e51b815260206004820152600d60248201526c092dcecc2d8d2c840d2dcc8caf609b1b6044820152606490fd5b15613ec257565b60405162461bcd60e51b8152602060048201526015602482015274416c72656164792068617320636f6e73656e73757360581b6044820152606490fd5b919082018092116107f757565b60001981146107f75760010190565b600090815260086020526040812054918215613f81575b64e8d4a510008110613f62575060028201809211613f4e575090565b634e487b7160e01b81526011600452602490fd5b64174876e8001115613f72575090565b60018201809211613f4e575090565b60029250613f32565b15613f9157565b60405162461bcd60e51b81526020600482015260116024820152705375626e6574206e6f742061637469766560781b6044820152606490fd5b818102929181159184041417156107f757565b8115613fe7570490565b634e487b7160e01b600052601260045260246000fd5b6001600160401b03811161124957601f01601f191660200190565b92919261402482613ffd565b916140326040519384613c3c565b82948184528183011161031b578281602093846000960137010152565b1561405657565b60405162461bcd60e51b815260206004820152600d60248201526c496e76616c69642073636f726560981b6044820152606490fd5b8054821015613d2b5760005260206000200190600090565b8054600160401b811015611249576140c09160018201815561408b565b60018060a09493941b038084549260031b9316831b921b1916179055565b80156107f7576000190190565b156140f257565b60405162461bcd60e51b815260206004820152601060248201526f2737ba1039bab13732ba1037bbb732b960811b6044820152606490fd5b1561413157565b60405162461bcd60e51b815260206004820152600c60248201526b08ccaca40e8dede40d0d2ced60a31b6044820152606490fd5b9060038110156105c15760ff80198354169116179055565b6001546001600160a01b0316330361419157565b606460405162461bcd60e51b815260206004820152602060248201527f4f776e61626c653a2063616c6c6572206973206e6f7420746865206f776e65726044820152fd5b6002600054146141e6576002600055565b60405162461bcd60e51b815260206004820152601f60248201527f5265656e7472616e637947756172643a207265656e7472616e742063616c6c006044820152606490fd5b60ff60015460a01c1661423a57565b60405162461bcd60e51b815260206004820152601060248201526f14185d5cd8589b194e881c185d5cd95960821b6044820152606490fd5b60405163a9059cbb60e01b60208201526001600160a01b039092166024830152604480830193909352918152613c9f9161057082613bcf565b906142b582613dac565b6142c26040519182613c3c565b82815280926142d3601f1991613dac565b0190602036910137565b8051821015613d2b5760209160051b010190565b919082039182116107f757565b9190614309826142ab565b92600091818352602090601382526040918285208286528152828520918683540361448157855b87811061443b5750505050505060015b82811061439e57506001828116036143655750906143619160011c906142dd565b5190565b9060011c90600019820190828211613f4e5750829161438a61439192614398956142dd565b51926142dd565b5190613eff565b60011c90565b909392916143ac82846142dd565b5193825b8015158061441c575b156144025760001981018181116143ee57906143d86143e992876142dd565b516143e382886142dd565b526140de565b6143b0565b634e487b7160e01b88526011600452602488fd5b94614415600193959697949297876142dd565b5201614340565b5060001981018181116143ee576144348791876142dd565b51116143b9565b60019086885260118452858820838952845285882061445a828761408b565b848060a01b0391549060031b1c16895284528588205461447a828c6142dd565b5201614330565b835162461bcd60e51b815260048101839052601b60248201527f56616c696461746f7220747261636b696e67206d69736d6174636800000000006044820152606490fd5b9081600052600a60205260018060a01b0360096040600020015460081c16600019600b6020526040600020916000908354915b8281106148d6575b50505060001981146148c75783600052601360205260406000208160005260205260406000209081549283156148b65761453c82600292613d0f565b50015494614549846142ab565b9160009660005b868110614657575050505084156146475760009460005b84811061459857505050505080821061457e575050565b6145939161458b916142f1565b600754613eff565b600755565b806145a5600192856142dd565b5115614642576145d26145cb846145c66145bf85896142dd565b518b613fca565b613fdd565b8099613eff565b976145dd828761408b565b905490600391858060a01b0391831b1c1660005260146020526040600020614606838254613eff565b9055614612838861408b565b858060a09493941b039254911b1c1660005260166020526146396040600020918254613eff565b90555b01614567565b61463c565b5050506145939150600754613eff565b614661818761408b565b99905499856000526011602052604060002085600052602052604060002060018060a01b038c8360031b1c166000526020526146a284604060002054614a57565b9a60018060a01b03818360031b1c16600052601760205260406000209b6146c98d54613f0c565b8d554260038e01556107d0811161480e5760018d016146e88154613f0c565b905560646146f6868b6142dd565b5260405190600082526020820152877f3d70426d5de70b5ac8bff45c3c0cd89db0e473153868b8c61a938d42002584e8604060018060a01b03858760031b1c1693a35b8b805493846147de575b61474d868b6142dd565b519160020154918261475e91613fca565b612710900461476d878c6142dd565b52614778868b6142dd565b5161478291613eff565b60019d909d0154604080519283526020830195909552938101939093526001600160a01b0360039290921b1c16907fc2fd17ad7e9f23b8607f0bd02d7a6cdcccd5a964fa99ce5a066ed34c5b4bb55b90606090a2600101614550565b90600101549061271082818102048114831517156107f757858f93916148049202613fdd565b6002830155614743565b611388811161486a576032614823868b6142dd565b5260405190600082526020820152877f3d70426d5de70b5ac8bff45c3c0cd89db0e473153868b8c61a938d42002584e8604060018060a01b03858760031b1c1693a3614739565b6000614876868b6142dd565b52604051908152877f3b3050df353576101845973a6b18bbcf16a0187f1c80d60d83d95be509203c51602060018060a01b03858760031b1c1693a3614739565b505050506145939150600754613eff565b50506145939150600754613eff565b816148e18287613d0f565b50546001600160a01b0316148061490b575b6148ff576001016144f8565b92505050388080614500565b5060ff600361491a8388613d0f565b500154166148f3565b60018060a01b03169060405160408101908082106001600160401b03831117611249576149b2916040526020938482527f5361666545524332303a206c6f772d6c6576656c2063616c6c206661696c6564858301526000808587829751910182855af13d15614a4f573d9161499783613ffd565b926149a56040519485613c3c565b83523d868885013e614aa8565b805191821591848315614a24575b5050509050156149cd5750565b6084906040519062461bcd60e51b82526004820152602a60248201527f5361666545524332303a204552433230206f7065726174696f6e20646964206e6044820152691bdd081cdd58d8d9595960b21b6064820152fd5b919381809450010312614a4b57820151908115158203614a485750803880846149c0565b80fd5b5080fd5b606091614aa8565b8115614aa1578180821115614a9157614a6f916142f1565b905b612710918281029281840414901517156107f757614a8e91613fdd565b90565b90614a9b916142f1565b90614a71565b5050600090565b91929015614b0a5750815115614abc575090565b3b15614ac55790565b60405162461bcd60e51b815260206004820152601d60248201527f416464726573733a2063616c6c20746f206e6f6e2d636f6e74726163740000006044820152606490fd5b825190915015614b1d5750805190602001fd5b60405162461bcd60e51b815260206004820152908190614b41906024830190613b11565b0390fdfea26469706673582212206229f6a907b89b111444ba58bc51b64e2cd84e05d64054871585c92bd3ebabec64736f6c63430008180033","opcodes":"PUSH1 0x80 CALLVALUE PUSH3 0x696 JUMPI PUSH1 0x1F PUSH3 0x524C CODESIZE DUP2 SWAP1 SUB SWAP2 DUP3 ADD PUSH1 0x1F NOT AND DUP4 ADD SWAP2 PUSH1 0x1 PUSH1 0x1 PUSH1 0x40 SHL SUB DUP4 GT DUP5 DUP5 LT OR PUSH3 0x51A JUMPI DUP1 DUP5 SWAP3 PUSH1 0x40 SWAP5 DUP6 MSTORE DUP4 CODECOPY DUP2 ADD SUB SLT PUSH3 0x696 JUMPI PUSH3 0x5A PUSH1 0x20 PUSH3 0x52 DUP4 PUSH3 0x6BB JUMP JUMPDEST SWAP3 ADD PUSH3 0x6BB JUMP JUMPDEST PUSH1 0x1 PUSH1 0x0 SSTORE PUSH1 0x1 SLOAD SWAP2 PUSH1 0x40 MLOAD SWAP3 CALLER PUSH1 0x1 DUP1 PUSH1 0xA0 SHL SUB DUP3 AND PUSH32 0x8BE0079C531659141344CD1FD0A4F28419497F9722A3DAAFE3B4186F6B6457E0 PUSH1 0x0 DUP1 LOG3 PUSH1 0x1 PUSH1 0x1 PUSH1 0xA8 SHL SUB NOT AND CALLER PUSH1 0xFF PUSH1 0xA0 SHL NOT AND OR PUSH1 0x1 SSTORE PUSH1 0xA PUSH1 0x5 SSTORE PUSH2 0xE10 PUSH1 0x1C SSTORE PUSH2 0x708 PUSH1 0x1D SSTORE PUSH1 0x1 PUSH1 0x1 PUSH1 0xA0 SHL SUB AND SWAP2 DUP3 ISZERO PUSH3 0x664 JUMPI POP PUSH1 0x1 PUSH1 0x1 PUSH1 0xA0 SHL SUB AND SWAP1 DUP2 ISZERO PUSH3 0x62C JUMPI PUSH1 0x1 DUP1 PUSH1 0xA0 SHL SUB NOT PUSH1 0x2 SLOAD AND OR PUSH1 0x2 SSTORE PUSH1 0x1 DUP1 PUSH1 0xA0 SHL SUB NOT PUSH1 0x6 SLOAD AND OR PUSH1 0x6 SSTORE PUSH3 0x10A PUSH3 0x69B JUMP JUMPDEST PUSH1 0x14 DUP2 MSTORE PUSH32 0x47656E6572616C20496E74656C6C6967656E6365000000000000000000000000 PUSH1 0x20 DUP3 ADD MSTORE PUSH3 0x13E PUSH3 0x69B JUMP JUMPDEST PUSH1 0x20 DUP2 MSTORE PUSH32 0x546578742C20436F64652C20616E642047656E6572616C204149205461736B73 PUSH1 0x20 DUP3 ADD MSTORE PUSH1 0x3 SLOAD SWAP1 PUSH1 0x0 NOT DUP3 EQ PUSH3 0x616 JUMPI PUSH1 0x1 DUP3 ADD PUSH1 0x3 SSTORE PUSH1 0x40 MLOAD SWAP1 PUSH1 0x1 PUSH1 0x1 PUSH1 0x40 SHL SUB PUSH2 0x160 DUP4 ADD SWAP1 DUP2 GT SWAP1 DUP4 GT OR PUSH3 0x51A JUMPI PUSH2 0x160 DUP3 ADD PUSH1 0x40 MSTORE DUP3 DUP3 MSTORE DUP4 PUSH1 0x20 DUP4 ADD MSTORE PUSH1 0x40 DUP3 ADD MSTORE CALLER PUSH1 0x60 DUP3 ADD MSTORE PUSH2 0x1F4 PUSH1 0x80 DUP3 ADD MSTORE PUSH4 0x5F5E100 PUSH1 0xA0 DUP3 ADD MSTORE PUSH1 0x0 PUSH1 0xC0 DUP3 ADD MSTORE PUSH1 0x0 PUSH1 0xE0 DUP3 ADD MSTORE PUSH1 0x0 PUSH2 0x100 DUP3 ADD MSTORE PUSH1 0x0 PUSH2 0x120 DUP3 ADD MSTORE TIMESTAMP PUSH2 0x140 DUP3 ADD MSTORE DUP2 PUSH1 0x0 MSTORE PUSH1 0x9 PUSH1 0x20 MSTORE PUSH1 0x40 PUSH1 0x0 KECCAK256 SWAP1 DUP1 MLOAD DUP3 SSTORE PUSH1 0x20 DUP2 ADD MLOAD DUP1 MLOAD SWAP1 PUSH1 0x1 DUP1 PUSH1 0x40 SHL SUB DUP3 GT PUSH3 0x51A JUMPI PUSH1 0x1 DUP5 ADD SLOAD SWAP1 PUSH1 0x1 DUP3 DUP2 SHR SWAP3 AND DUP1 ISZERO PUSH3 0x60B JUMPI JUMPDEST PUSH1 0x20 DUP4 LT EQ PUSH3 0x4F9 JUMPI DUP2 PUSH1 0x1F DUP5 SWAP4 GT PUSH3 0x5B3 JUMPI JUMPDEST POP PUSH1 0x20 SWAP1 PUSH1 0x1F DUP4 GT PUSH1 0x1 EQ PUSH3 0x53C JUMPI PUSH1 0x0 SWAP3 PUSH3 0x530 JUMPI JUMPDEST POP POP DUP2 PUSH1 0x1 SHL SWAP2 PUSH1 0x0 NOT SWAP1 PUSH1 0x3 SHL SHR NOT AND OR PUSH1 0x1 DUP4 ADD SSTORE JUMPDEST PUSH1 0x40 DUP2 ADD MLOAD DUP1 MLOAD SWAP1 PUSH1 0x1 PUSH1 0x1 PUSH1 0x40 SHL SUB DUP3 GT PUSH3 0x51A JUMPI PUSH1 0x2 DUP5 ADD SLOAD SWAP1 PUSH1 0x1 DUP3 DUP2 SHR SWAP3 AND DUP1 ISZERO PUSH3 0x50F JUMPI JUMPDEST PUSH1 0x20 DUP4 LT EQ PUSH3 0x4F9 JUMPI DUP2 PUSH1 0x1F DUP5 SWAP4 GT PUSH3 0x4A1 JUMPI JUMPDEST POP PUSH1 0x20 SWAP1 PUSH1 0x1F DUP4 GT PUSH1 0x1 EQ PUSH3 0x42A JUMPI PUSH1 0x0 SWAP3 PUSH3 0x41E JUMPI JUMPDEST POP POP DUP2 PUSH1 0x1 SHL SWAP2 PUSH1 0x0 NOT SWAP1 PUSH1 0x3 SHL SHR NOT AND OR PUSH1 0x2 DUP4 ADD SSTORE JUMPDEST PUSH1 0x60 DUP2 ADD MLOAD PUSH1 0x3 DUP4 DUP2 ADD DUP1 SLOAD PUSH1 0x1 PUSH1 0x1 PUSH1 0xA0 SHL SUB NOT AND PUSH1 0x1 PUSH1 0x1 PUSH1 0xA0 SHL SUB SWAP4 SWAP1 SWAP4 AND SWAP3 SWAP1 SWAP3 OR SWAP1 SWAP2 SSTORE PUSH1 0x80 DUP3 ADD MLOAD PUSH1 0x4 DUP5 ADD SSTORE PUSH1 0xA0 DUP3 ADD MLOAD PUSH1 0x5 DUP5 ADD SSTORE PUSH1 0xC0 DUP3 ADD MLOAD PUSH1 0x6 DUP5 ADD SSTORE PUSH1 0xE0 DUP3 ADD MLOAD PUSH1 0x7 DUP5 ADD SSTORE PUSH2 0x100 DUP3 ADD MLOAD PUSH1 0x8 DUP5 ADD SSTORE PUSH2 0x120 DUP3 ADD MLOAD PUSH1 0x9 DUP5 ADD SWAP3 SWAP1 SWAP2 DUP3 LT ISZERO PUSH3 0x408 JUMPI PUSH1 0xA SWAP3 PUSH2 0x140 SWAP3 PUSH1 0xFF DUP1 NOT DUP4 SLOAD AND SWAP2 AND OR SWAP1 SSTORE ADD MLOAD SWAP2 ADD SSTORE DUP1 PUSH1 0x0 MSTORE PUSH1 0x8 PUSH1 0x20 MSTORE PUSH1 0x2 PUSH1 0x40 PUSH1 0x0 KECCAK256 SSTORE PUSH1 0x40 MLOAD PUSH1 0x40 DUP2 MSTORE DUP3 MLOAD SWAP3 DUP4 PUSH1 0x40 DUP4 ADD MSTORE PUSH1 0x0 JUMPDEST DUP5 DUP2 LT PUSH3 0x3F1 JUMPI POP POP DUP1 PUSH1 0x0 PUSH1 0x60 DUP6 PUSH32 0x8E46DCAB88334408205DFDFF058DE646A02AB7FDDB35B9923E924E49CE505C30 SWAP5 ADD ADD MSTORE PUSH2 0x1F4 PUSH1 0x20 DUP3 ADD MSTORE PUSH1 0x60 DUP2 CALLER SWAP6 PUSH1 0x1F DUP1 NOT SWAP2 ADD AND DUP2 ADD SUB ADD SWAP1 LOG3 PUSH1 0x40 MLOAD PUSH2 0x4B7B SWAP1 DUP2 PUSH3 0x6D1 DUP3 CODECOPY RETURN JUMPDEST DUP1 PUSH1 0x20 DUP1 SWAP3 DUP5 ADD ADD MLOAD PUSH1 0x60 DUP3 DUP7 ADD ADD MSTORE ADD PUSH3 0x392 JUMP JUMPDEST PUSH4 0x4E487B71 PUSH1 0xE0 SHL PUSH1 0x0 MSTORE PUSH1 0x21 PUSH1 0x4 MSTORE PUSH1 0x24 PUSH1 0x0 REVERT JUMPDEST ADD MLOAD SWAP1 POP CODESIZE DUP1 PUSH3 0x2CD JUMP JUMPDEST SWAP3 POP PUSH1 0x2 DUP6 ADD PUSH1 0x0 MSTORE PUSH1 0x20 PUSH1 0x0 KECCAK256 SWAP1 PUSH1 0x0 SWAP4 JUMPDEST PUSH1 0x1F NOT DUP5 AND DUP6 LT PUSH3 0x485 JUMPI PUSH1 0x1 SWAP5 POP DUP4 PUSH1 0x1F NOT DUP2 AND LT PUSH3 0x46B JUMPI JUMPDEST POP POP POP DUP2 SHL ADD PUSH1 0x2 DUP4 ADD SSTORE PUSH3 0x2E5 JUMP JUMPDEST ADD MLOAD PUSH1 0x0 NOT PUSH1 0xF8 DUP5 PUSH1 0x3 SHL AND SHR NOT AND SWAP1 SSTORE CODESIZE DUP1 DUP1 PUSH3 0x45A JUMP JUMPDEST DUP2 DUP2 ADD MLOAD DUP4 SSTORE PUSH1 0x20 SWAP5 DUP6 ADD SWAP5 PUSH1 0x1 SWAP1 SWAP4 ADD SWAP3 SWAP1 SWAP2 ADD SWAP1 PUSH3 0x43D JUMP JUMPDEST SWAP1 SWAP2 POP PUSH1 0x2 DUP6 ADD PUSH1 0x0 MSTORE PUSH1 0x20 PUSH1 0x0 KECCAK256 PUSH1 0x1F DUP5 ADD PUSH1 0x5 SHR DUP2 ADD PUSH1 0x20 DUP6 LT PUSH3 0x4F1 JUMPI JUMPDEST SWAP1 DUP5 SWAP4 SWAP3 SWAP2 JUMPDEST PUSH1 0x1F DUP4 ADD PUSH1 0x5 SHR DUP3 ADD DUP2 LT PUSH3 0x4E1 JUMPI POP POP PUSH3 0x2B4 JUMP JUMPDEST PUSH1 0x0 DUP2 SSTORE DUP6 SWAP5 POP PUSH1 0x1 ADD PUSH3 0x4C9 JUMP JUMPDEST POP DUP1 PUSH3 0x4C3 JUMP JUMPDEST PUSH4 0x4E487B71 PUSH1 0xE0 SHL PUSH1 0x0 MSTORE PUSH1 0x22 PUSH1 0x4 MSTORE PUSH1 0x24 PUSH1 0x0 REVERT JUMPDEST SWAP2 PUSH1 0x7F AND SWAP2 PUSH3 0x29E JUMP JUMPDEST PUSH4 0x4E487B71 PUSH1 0xE0 SHL PUSH1 0x0 MSTORE PUSH1 0x41 PUSH1 0x4 MSTORE PUSH1 0x24 PUSH1 0x0 REVERT JUMPDEST ADD MLOAD SWAP1 POP CODESIZE DUP1 PUSH3 0x25A JUMP JUMPDEST SWAP3 POP PUSH1 0x1 DUP6 ADD PUSH1 0x0 MSTORE PUSH1 0x20 PUSH1 0x0 KECCAK256 SWAP1 PUSH1 0x0 SWAP4 JUMPDEST PUSH1 0x1F NOT DUP5 AND DUP6 LT PUSH3 0x597 JUMPI PUSH1 0x1 SWAP5 POP DUP4 PUSH1 0x1F NOT DUP2 AND LT PUSH3 0x57D JUMPI JUMPDEST POP POP POP DUP2 SHL ADD PUSH1 0x1 DUP4 ADD SSTORE PUSH3 0x272 JUMP JUMPDEST ADD MLOAD PUSH1 0x0 NOT PUSH1 0xF8 DUP5 PUSH1 0x3 SHL AND SHR NOT AND SWAP1 SSTORE CODESIZE DUP1 DUP1 PUSH3 0x56C JUMP JUMPDEST DUP2 DUP2 ADD MLOAD DUP4 SSTORE PUSH1 0x20 SWAP5 DUP6 ADD SWAP5 PUSH1 0x1 SWAP1 SWAP4 ADD SWAP3 SWAP1 SWAP2 ADD SWAP1 PUSH3 0x54F JUMP JUMPDEST SWAP1 SWAP2 POP PUSH1 0x1 DUP6 ADD PUSH1 0x0 MSTORE PUSH1 0x20 PUSH1 0x0 KECCAK256 PUSH1 0x1F DUP5 ADD PUSH1 0x5 SHR DUP2 ADD PUSH1 0x20 DUP6 LT PUSH3 0x603 JUMPI JUMPDEST SWAP1 DUP5 SWAP4 SWAP3 SWAP2 JUMPDEST PUSH1 0x1F DUP4 ADD PUSH1 0x5 SHR DUP3 ADD DUP2 LT PUSH3 0x5F3 JUMPI POP POP PUSH3 0x241 JUMP JUMPDEST PUSH1 0x0 DUP2 SSTORE DUP6 SWAP5 POP PUSH1 0x1 ADD PUSH3 0x5DB JUMP JUMPDEST POP DUP1 PUSH3 0x5D5 JUMP JUMPDEST SWAP2 PUSH1 0x7F AND SWAP2 PUSH3 0x22B JUMP JUMPDEST PUSH4 0x4E487B71 PUSH1 0xE0 SHL PUSH1 0x0 MSTORE PUSH1 0x11 PUSH1 0x4 MSTORE PUSH1 0x24 PUSH1 0x0 REVERT JUMPDEST PUSH1 0x40 MLOAD PUSH3 0x461BCD PUSH1 0xE5 SHL DUP2 MSTORE PUSH1 0x20 PUSH1 0x4 DUP3 ADD MSTORE PUSH1 0x10 PUSH1 0x24 DUP3 ADD MSTORE PUSH16 0x496E76616C6964207472656173757279 PUSH1 0x80 SHL PUSH1 0x44 DUP3 ADD MSTORE PUSH1 0x64 SWAP1 REVERT JUMPDEST PUSH3 0x461BCD PUSH1 0xE5 SHL DUP2 MSTORE PUSH1 0x20 PUSH1 0x4 DUP3 ADD MSTORE PUSH1 0xD PUSH1 0x24 DUP3 ADD MSTORE PUSH13 0x24B73B30B634B2103A37B5B2B7 PUSH1 0x99 SHL PUSH1 0x44 DUP3 ADD MSTORE PUSH1 0x64 SWAP1 REVERT JUMPDEST PUSH1 0x0 DUP1 REVERT JUMPDEST PUSH1 0x40 DUP1 MLOAD SWAP2 SWAP1 DUP3 ADD PUSH1 0x1 PUSH1 0x1 PUSH1 0x40 SHL SUB DUP2 GT DUP4 DUP3 LT OR PUSH3 0x51A JUMPI PUSH1 0x40 MSTORE JUMP JUMPDEST MLOAD SWAP1 PUSH1 0x1 PUSH1 0x1 PUSH1 0xA0 SHL SUB DUP3 AND DUP3 SUB PUSH3 0x696 JUMPI JUMP INVALID PUSH1 0x80 PUSH1 0x40 MSTORE PUSH1 0x4 CALLDATASIZE LT ISZERO PUSH2 0x12 JUMPI PUSH1 0x0 DUP1 REVERT JUMPDEST PUSH1 0x0 CALLDATALOAD PUSH1 0xE0 SHR DUP1 PUSH4 0x72F4FC0 EQ PUSH2 0x3A85 JUMPI DUP1 PUSH4 0xC5A61F8 EQ PUSH2 0x3A38 JUMPI DUP1 PUSH4 0xEBAC45A EQ PUSH2 0x3A05 JUMPI DUP1 PUSH4 0xF0DA719 EQ PUSH2 0x39CB JUMPI DUP1 PUSH4 0xFB6D805 EQ PUSH2 0x3984 JUMPI DUP1 PUSH4 0x10C6BD25 EQ PUSH2 0x3958 JUMPI DUP1 PUSH4 0x10F0DDE4 EQ PUSH2 0x393B JUMPI DUP1 PUSH4 0x16C53CED EQ PUSH2 0x37D3 JUMPI DUP1 PUSH4 0x1D65E77E EQ PUSH2 0x35E0 JUMPI DUP1 PUSH4 0x1DC375B9 EQ PUSH2 0x3535 JUMPI DUP1 PUSH4 0x1DD73E0D EQ PUSH2 0x31E8 JUMPI DUP1 PUSH4 0x23F2A73F EQ PUSH2 0xDE6 JUMPI DUP1 PUSH4 0x24C3FD2F EQ PUSH2 0x31C7 JUMPI DUP1 PUSH4 0x2FA70F48 EQ PUSH2 0x319B JUMPI DUP1 PUSH4 0x3370F06E EQ PUSH2 0x317E JUMPI DUP1 PUSH4 0x39388006 EQ PUSH2 0x3144 JUMPI DUP1 PUSH4 0x39B1185D EQ PUSH2 0x3126 JUMPI DUP1 PUSH4 0x3C9A6BF3 EQ PUSH2 0x30B8 JUMPI DUP1 PUSH4 0x3F422EF3 EQ PUSH2 0x2FDC JUMPI DUP1 PUSH4 0x475726F7 EQ PUSH2 0x2F03 JUMPI DUP1 PUSH4 0x483B4039 EQ PUSH2 0x2EE5 JUMPI DUP1 PUSH4 0x4AF93988 EQ PUSH2 0x2EC8 JUMPI DUP1 PUSH4 0x4B561753 EQ PUSH2 0x2D29 JUMPI DUP1 PUSH4 0x51B15B8A EQ PUSH2 0x2CFD JUMPI DUP1 PUSH4 0x53EEA875 EQ PUSH2 0x2C64 JUMPI DUP1 PUSH4 0x58CA7504 EQ PUSH2 0x2AAA JUMPI DUP1 PUSH4 0x5C975ABB EQ PUSH2 0x2A84 JUMPI DUP1 PUSH4 0x5CC9BCA9 EQ PUSH2 0x2620 JUMPI DUP1 PUSH4 0x62ECC47A EQ PUSH2 0x248F JUMPI DUP1 PUSH4 0x65617A35 EQ PUSH2 0x248A JUMPI DUP1 PUSH4 0x68A7F826 EQ PUSH2 0x202F JUMPI DUP1 PUSH4 0x6A0CD1F5 EQ PUSH2 0x1F51 JUMPI DUP1 PUSH4 0x6F5474BF EQ PUSH2 0x1E3A JUMPI DUP1 PUSH4 0x715018A6 EQ PUSH2 0x1DDD JUMPI DUP1 PUSH4 0x77AD68DA EQ PUSH2 0x1DAA JUMPI DUP1 PUSH4 0x7B617482 EQ PUSH2 0x1D09 JUMPI DUP1 PUSH4 0x7BE24CB8 EQ PUSH2 0x1CDD JUMPI DUP1 PUSH4 0x7CA0AD2D EQ PUSH2 0x1C91 JUMPI DUP1 PUSH4 0x803DB96D EQ PUSH2 0x1C68 JUMPI DUP1 PUSH4 0x8795CCCB EQ PUSH2 0x1BCB JUMPI DUP1 PUSH4 0x88488C33 EQ PUSH2 0x19DF JUMPI DUP1 PUSH4 0x8C0A4A05 EQ PUSH2 0x137F JUMPI DUP1 PUSH4 0x8C0DD79A EQ PUSH2 0x14DA JUMPI DUP1 PUSH4 0x8D977672 EQ PUSH2 0x13F5 JUMPI DUP1 PUSH4 0x8DA5CB5B EQ PUSH2 0x13CC JUMPI DUP1 PUSH4 0x8EE9F6DC EQ PUSH2 0x137F JUMPI DUP1 PUSH4 0x916A5C5B EQ PUSH2 0x1361 JUMPI DUP1 PUSH4 0x927229C6 EQ PUSH2 0xE8F JUMPI DUP1 PUSH4 0x93AF0076 EQ PUSH2 0xE72 JUMPI DUP1 PUSH4 0x9D7EEA9F EQ PUSH2 0xE33 JUMPI DUP1 PUSH4 0xA3BE1EAB EQ PUSH2 0xDE6 JUMPI DUP1 PUSH4 0xAC64C822 EQ PUSH2 0xD99 JUMPI DUP1 PUSH4 0xB46E7424 EQ PUSH2 0xD66 JUMPI DUP1 PUSH4 0xB73C6CE9 EQ PUSH2 0xCAA JUMPI DUP1 PUSH4 0xB7EE5EDA EQ PUSH2 0x907 JUMPI DUP1 PUSH4 0xBE123323 EQ PUSH2 0x6BD JUMPI DUP1 PUSH4 0xC6A1A01A EQ PUSH2 0x653 JUMPI DUP1 PUSH4 0xCA7B64BB EQ PUSH2 0x633 JUMPI DUP1 PUSH4 0xD1270485 EQ PUSH2 0x5D7 JUMPI DUP1 PUSH4 0xD1FAF406 EQ PUSH2 0x4CA JUMPI DUP1 PUSH4 0xD65314B3 EQ PUSH2 0x45A JUMPI DUP1 PUSH4 0xDFC75372 EQ PUSH2 0x43C JUMPI DUP1 PUSH4 0xF2FDE38B EQ PUSH2 0x378 JUMPI DUP1 PUSH4 0xF3F43703 EQ PUSH2 0x33E JUMPI DUP1 PUSH4 0xF526E39A EQ PUSH2 0x320 JUMPI PUSH4 0xF70B5C06 EQ PUSH2 0x2F2 JUMPI PUSH1 0x0 DUP1 REVERT JUMPDEST CALLVALUE PUSH2 0x31B JUMPI PUSH1 0x0 CALLDATASIZE PUSH1 0x3 NOT ADD SLT PUSH2 0x31B JUMPI PUSH1 0x2 SLOAD PUSH1 0x40 MLOAD PUSH1 0x1 PUSH1 0x1 PUSH1 0xA0 SHL SUB SWAP1 SWAP2 AND DUP2 MSTORE PUSH1 0x20 SWAP1 RETURN JUMPDEST PUSH1 0x0 DUP1 REVERT JUMPDEST CALLVALUE PUSH2 0x31B JUMPI PUSH1 0x0 CALLDATASIZE PUSH1 0x3 NOT ADD SLT PUSH2 0x31B JUMPI PUSH1 0x20 PUSH1 0x7 SLOAD PUSH1 0x40 MLOAD SWAP1 DUP2 MSTORE RETURN JUMPDEST CALLVALUE PUSH2 0x31B JUMPI PUSH1 0x20 CALLDATASIZE PUSH1 0x3 NOT ADD SLT PUSH2 0x31B JUMPI PUSH1 0x1 PUSH1 0x1 PUSH1 0xA0 SHL SUB PUSH2 0x35F PUSH2 0x3AA5 JUMP JUMPDEST AND PUSH1 0x0 MSTORE PUSH1 0x16 PUSH1 0x20 MSTORE PUSH1 0x20 PUSH1 0x40 PUSH1 0x0 KECCAK256 SLOAD PUSH1 0x40 MLOAD SWAP1 DUP2 MSTORE RETURN JUMPDEST CALLVALUE PUSH2 0x31B JUMPI PUSH1 0x20 CALLDATASIZE PUSH1 0x3 NOT ADD SLT PUSH2 0x31B JUMPI PUSH2 0x391 PUSH2 0x3AA5 JUMP JUMPDEST PUSH2 0x399 PUSH2 0x417D JUMP JUMPDEST PUSH1 0x1 PUSH1 0x1 PUSH1 0xA0 SHL SUB SWAP1 DUP2 AND SWAP1 DUP2 ISZERO PUSH2 0x3E8 JUMPI PUSH1 0x1 SLOAD DUP3 PUSH1 0x1 PUSH1 0x1 PUSH1 0x60 SHL SUB PUSH1 0xA0 SHL DUP3 AND OR PUSH1 0x1 SSTORE AND PUSH32 0x8BE0079C531659141344CD1FD0A4F28419497F9722A3DAAFE3B4186F6B6457E0 PUSH1 0x0 DUP1 LOG3 STOP JUMPDEST PUSH1 0x40 MLOAD PUSH3 0x461BCD PUSH1 0xE5 SHL DUP2 MSTORE PUSH1 0x20 PUSH1 0x4 DUP3 ADD MSTORE PUSH1 0x26 PUSH1 0x24 DUP3 ADD MSTORE PUSH32 0x4F776E61626C653A206E6577206F776E657220697320746865207A65726F2061 PUSH1 0x44 DUP3 ADD MSTORE PUSH6 0x646472657373 PUSH1 0xD0 SHL PUSH1 0x64 DUP3 ADD MSTORE PUSH1 0x84 SWAP1 REVERT JUMPDEST CALLVALUE PUSH2 0x31B JUMPI PUSH1 0x0 CALLDATASIZE PUSH1 0x3 NOT ADD SLT PUSH2 0x31B JUMPI PUSH1 0x20 PUSH1 0x1D SLOAD PUSH1 0x40 MLOAD SWAP1 DUP2 MSTORE RETURN JUMPDEST CALLVALUE PUSH2 0x31B JUMPI PUSH1 0x40 PUSH2 0x46A CALLDATASIZE PUSH2 0x3AE7 JUMP JUMPDEST DUP3 PUSH1 0x0 MSTORE PUSH1 0x20 SWAP2 PUSH1 0x12 DUP4 MSTORE DUP5 PUSH1 0x0 KECCAK256 DUP2 PUSH1 0x0 MSTORE DUP4 MSTORE DUP5 PUSH1 0x0 KECCAK256 SWAP2 PUSH1 0x1 DUP1 PUSH1 0xA0 SHL SUB AND SWAP2 DUP3 PUSH1 0x0 MSTORE DUP4 MSTORE PUSH1 0xFF DUP6 PUSH1 0x0 KECCAK256 SLOAD AND SWAP4 PUSH1 0x0 MSTORE PUSH1 0x11 DUP4 MSTORE DUP5 PUSH1 0x0 KECCAK256 SWAP1 PUSH1 0x0 MSTORE DUP3 MSTORE DUP4 PUSH1 0x0 KECCAK256 SWAP1 PUSH1 0x0 MSTORE DUP2 MSTORE DUP3 PUSH1 0x0 KECCAK256 SLOAD SWAP2 DUP4 MLOAD SWAP3 DUP4 MSTORE ISZERO ISZERO SWAP1 DUP3 ADD MSTORE RETURN JUMPDEST CALLVALUE PUSH2 0x31B JUMPI PUSH1 0x20 CALLDATASIZE PUSH1 0x3 NOT ADD SLT PUSH2 0x31B JUMPI PUSH2 0x4E3 PUSH2 0x41D5 JUMP JUMPDEST PUSH1 0x4 CALLDATALOAD PUSH1 0x0 MSTORE PUSH1 0x9 PUSH1 0x20 MSTORE PUSH1 0x40 PUSH1 0x0 KECCAK256 PUSH1 0x9 PUSH1 0x1 DUP1 PUSH1 0xA0 SHL SUB SWAP2 PUSH2 0x50E DUP4 PUSH1 0x3 DUP4 ADD SLOAD AND CALLER EQ PUSH2 0x40EB JUMP JUMPDEST ADD SWAP1 DUP2 SLOAD SWAP2 PUSH1 0xFF DUP4 AND PUSH1 0x3 DUP2 LT ISZERO PUSH2 0x5C1 JUMPI DUP1 ISZERO SWAP1 DUP2 ISZERO PUSH2 0x5B6 JUMPI JUMPDEST POP ISZERO PUSH2 0x57C JUMPI PUSH1 0x2 PUSH2 0x575 SWAP4 PUSH1 0xFF NOT AND OR SWAP1 SSTORE PUSH1 0x2 SLOAD AND PUSH1 0x40 MLOAD SWAP1 PUSH4 0xA9059CBB PUSH1 0xE0 SHL PUSH1 0x20 DUP4 ADD MSTORE CALLER PUSH1 0x24 DUP4 ADD MSTORE PUSH5 0xE8D4A51000 PUSH1 0x44 DUP4 ADD MSTORE PUSH1 0x44 DUP3 MSTORE PUSH2 0x570 DUP3 PUSH2 0x3BCF JUMP JUMPDEST PUSH2 0x4923 JUMP JUMPDEST PUSH1 0x1 PUSH1 0x0 SSTORE STOP JUMPDEST PUSH1 0x40 MLOAD PUSH3 0x461BCD PUSH1 0xE5 SHL DUP2 MSTORE PUSH1 0x20 PUSH1 0x4 DUP3 ADD MSTORE PUSH1 0x12 PUSH1 0x24 DUP3 ADD MSTORE PUSH18 0x105B1C9958591E4819195C1C9958D85D1959 PUSH1 0x72 SHL PUSH1 0x44 DUP3 ADD MSTORE PUSH1 0x64 SWAP1 REVERT JUMPDEST PUSH1 0x1 SWAP2 POP EQ DUP5 PUSH2 0x52A JUMP JUMPDEST PUSH4 0x4E487B71 PUSH1 0xE0 SHL PUSH1 0x0 MSTORE PUSH1 0x21 PUSH1 0x4 MSTORE PUSH1 0x24 PUSH1 0x0 REVERT JUMPDEST CALLVALUE PUSH2 0x31B JUMPI PUSH1 0x20 CALLDATASIZE PUSH1 0x3 NOT ADD SLT PUSH2 0x31B JUMPI PUSH1 0x1 PUSH1 0x1 PUSH1 0xA0 SHL SUB PUSH2 0x5F8 PUSH2 0x3AA5 JUMP JUMPDEST AND PUSH1 0x0 MSTORE PUSH1 0x17 PUSH1 0x20 MSTORE PUSH1 0x80 PUSH1 0x40 PUSH1 0x0 KECCAK256 DUP1 SLOAD SWAP1 PUSH1 0x1 DUP2 ADD SLOAD SWAP1 PUSH1 0x3 PUSH1 0x2 DUP3 ADD SLOAD SWAP2 ADD SLOAD SWAP2 PUSH1 0x40 MLOAD SWAP4 DUP5 MSTORE PUSH1 0x20 DUP5 ADD MSTORE PUSH1 0x40 DUP4 ADD MSTORE PUSH1 0x60 DUP3 ADD MSTORE RETURN JUMPDEST CALLVALUE PUSH2 0x31B JUMPI PUSH1 0x0 CALLDATASIZE PUSH1 0x3 NOT ADD SLT PUSH2 0x31B JUMPI PUSH1 0x20 PUSH1 0x40 MLOAD PUSH5 0x174876E800 DUP2 MSTORE RETURN JUMPDEST CALLVALUE PUSH2 0x31B JUMPI PUSH1 0x0 CALLDATASIZE PUSH1 0x3 NOT ADD SLT PUSH2 0x31B JUMPI PUSH1 0x3 DUP1 SLOAD PUSH1 0x0 SWAP1 DUP2 JUMPDEST DUP2 DUP2 LT PUSH2 0x67F JUMPI PUSH1 0x20 DUP4 PUSH1 0x40 MLOAD SWAP1 DUP2 MSTORE RETURN JUMPDEST DUP1 PUSH1 0x0 MSTORE PUSH1 0xFF PUSH1 0x9 DUP1 PUSH1 0x20 MSTORE PUSH1 0x40 PUSH1 0x0 KECCAK256 ADD SLOAD AND DUP5 DUP2 LT ISZERO PUSH2 0x5C1 JUMPI ISZERO PUSH2 0x6A9 JUMPI JUMPDEST PUSH1 0x1 ADD PUSH2 0x66D JUMP JUMPDEST SWAP2 PUSH2 0x6B5 PUSH1 0x1 SWAP2 PUSH2 0x3F0C JUMP JUMPDEST SWAP3 SWAP1 POP PUSH2 0x6A1 JUMP JUMPDEST CALLVALUE PUSH2 0x31B JUMPI PUSH2 0x6CB CALLDATASIZE PUSH2 0x3AD1 JUMP JUMPDEST SWAP1 DUP1 PUSH1 0x0 MSTORE PUSH1 0x20 SWAP2 PUSH1 0xC DUP4 MSTORE PUSH1 0x40 PUSH1 0x0 KECCAK256 CALLER PUSH1 0x0 MSTORE DUP4 MSTORE PUSH1 0xFF PUSH1 0x40 PUSH1 0x0 KECCAK256 SLOAD AND ISZERO PUSH2 0x8C2 JUMPI DUP1 PUSH1 0x0 MSTORE PUSH1 0xC DUP4 MSTORE PUSH1 0x40 PUSH1 0x0 KECCAK256 CALLER PUSH1 0x0 MSTORE DUP4 MSTORE PUSH1 0xFF PUSH1 0x40 PUSH1 0x0 KECCAK256 SLOAD AND ISZERO PUSH2 0x87D JUMPI DUP1 DUP3 EQ PUSH2 0x84A JUMPI CALLER PUSH1 0x0 MSTORE PUSH1 0x17 DUP4 MSTORE PUSH1 0x40 PUSH1 0x0 KECCAK256 DUP1 SLOAD ISZERO PUSH2 0x80D JUMPI PUSH1 0x2 ADD SLOAD SWAP1 PUSH2 0x1388 SWAP2 DUP3 DUP2 MUL DUP2 DUP2 DIV DUP5 EQ DUP3 ISZERO OR ISZERO PUSH2 0x7F7 JUMPI PUSH2 0x2710 SWAP1 DIV SWAP3 DUP4 GT ISZERO PUSH2 0x7A6 JUMPI PUSH32 0x28712F42BB62447CAC6809DA4BEE68E8B6D1786EFF0B73558CAC4884C0FB64B6 SWAP4 SWAP5 POP DUP1 DUP4 GT PUSH2 0x79E JUMPI JUMPDEST POP PUSH1 0x40 DUP1 MLOAD SWAP5 DUP6 MSTORE PUSH1 0x20 DUP6 ADD SWAP2 SWAP1 SWAP2 MSTORE DUP4 ADD MSTORE CALLER SWAP2 DUP1 PUSH1 0x60 DUP2 ADD JUMPDEST SUB SWAP1 LOG2 STOP JUMPDEST SWAP2 POP DUP5 PUSH2 0x77E JUMP JUMPDEST PUSH1 0x40 MLOAD PUSH3 0x461BCD PUSH1 0xE5 SHL DUP2 MSTORE PUSH1 0x4 DUP2 ADD DUP7 SWAP1 MSTORE PUSH1 0x24 DUP1 DUP3 ADD MSTORE PUSH32 0x506F727465642073636F7265206E6F7420626574746572207468616E20646566 PUSH1 0x44 DUP3 ADD MSTORE PUSH4 0x185D5B1D PUSH1 0xE2 SHL PUSH1 0x64 DUP3 ADD MSTORE PUSH1 0x84 SWAP1 REVERT JUMPDEST PUSH4 0x4E487B71 PUSH1 0xE0 SHL PUSH1 0x0 MSTORE PUSH1 0x11 PUSH1 0x4 MSTORE PUSH1 0x24 PUSH1 0x0 REVERT JUMPDEST PUSH1 0x40 MLOAD PUSH3 0x461BCD PUSH1 0xE5 SHL DUP2 MSTORE PUSH1 0x4 DUP2 ADD DUP6 SWAP1 MSTORE PUSH1 0x15 PUSH1 0x24 DUP3 ADD MSTORE PUSH21 0x139BC81C995C1D5D185D1A5BDB881D1BC81C1BDC9D PUSH1 0x5A SHL PUSH1 0x44 DUP3 ADD MSTORE PUSH1 0x64 SWAP1 REVERT JUMPDEST PUSH1 0x40 MLOAD PUSH3 0x461BCD PUSH1 0xE5 SHL DUP2 MSTORE PUSH1 0x4 DUP2 ADD DUP5 SWAP1 MSTORE PUSH1 0xB PUSH1 0x24 DUP3 ADD MSTORE PUSH11 0x14D85B59481CDD589B995D PUSH1 0xAA SHL PUSH1 0x44 DUP3 ADD MSTORE PUSH1 0x64 SWAP1 REVERT JUMPDEST PUSH1 0x40 MLOAD PUSH3 0x461BCD PUSH1 0xE5 SHL DUP2 MSTORE PUSH1 0x4 DUP2 ADD DUP5 SWAP1 MSTORE PUSH1 0x1E PUSH1 0x24 DUP3 ADD MSTORE PUSH32 0x4E6F742076616C696461746F7220696E20746172676574207375626E65740000 PUSH1 0x44 DUP3 ADD MSTORE PUSH1 0x64 SWAP1 REVERT JUMPDEST PUSH1 0x40 MLOAD PUSH3 0x461BCD PUSH1 0xE5 SHL DUP2 MSTORE PUSH1 0x4 DUP2 ADD DUP5 SWAP1 MSTORE PUSH1 0x1E PUSH1 0x24 DUP3 ADD MSTORE PUSH32 0x4E6F742076616C696461746F7220696E20736F75726365207375626E65740000 PUSH1 0x44 DUP3 ADD MSTORE PUSH1 0x64 SWAP1 REVERT JUMPDEST CALLVALUE PUSH2 0x31B JUMPI PUSH1 0x60 CALLDATASIZE PUSH1 0x3 NOT ADD SLT PUSH2 0x31B JUMPI PUSH1 0x4 CALLDATALOAD PUSH1 0x24 CALLDATALOAD PUSH1 0x44 CALLDATALOAD SWAP1 DUP3 PUSH1 0x0 MSTORE PUSH1 0x20 SWAP1 PUSH1 0xA DUP3 MSTORE PUSH1 0x40 PUSH1 0x0 KECCAK256 SWAP3 PUSH1 0x9 DUP5 ADD SWAP3 PUSH1 0xFF DUP5 SLOAD AND PUSH1 0x6 DUP2 LT ISZERO PUSH2 0x5C1 JUMPI DUP1 PUSH1 0x2 PUSH2 0x95C SWAP3 EQ SWAP1 DUP2 ISZERO PUSH2 0xC9F JUMPI JUMPDEST POP PUSH2 0x3E00 JUMP JUMPDEST PUSH1 0x1 DUP6 ADD SWAP4 DUP5 SLOAD PUSH1 0x0 MSTORE PUSH1 0xC DUP3 MSTORE PUSH1 0x40 PUSH1 0x0 KECCAK256 CALLER PUSH1 0x0 MSTORE DUP3 MSTORE PUSH2 0x986 PUSH1 0xFF PUSH1 0x40 PUSH1 0x0 KECCAK256 SLOAD AND PUSH2 0x3E41 JUMP JUMPDEST DUP7 PUSH1 0x0 MSTORE PUSH1 0xB DUP3 MSTORE PUSH2 0x99E PUSH1 0x40 PUSH1 0x0 KECCAK256 SLOAD DUP6 LT PUSH2 0x3E7F JUMP JUMPDEST PUSH2 0x9AC PUSH2 0x2710 DUP5 GT ISZERO PUSH2 0x404F JUMP JUMPDEST DUP7 PUSH1 0x0 MSTORE PUSH1 0x12 DUP3 MSTORE PUSH1 0x40 PUSH1 0x0 KECCAK256 DUP5 PUSH1 0x0 MSTORE DUP3 MSTORE PUSH1 0x40 PUSH1 0x0 KECCAK256 CALLER PUSH1 0x0 MSTORE DUP3 MSTORE PUSH1 0xFF PUSH1 0x40 PUSH1 0x0 KECCAK256 SLOAD AND PUSH2 0xC49 JUMPI DUP7 PUSH1 0x0 MSTORE PUSH1 0xB DUP3 MSTORE PUSH2 0x9ED DUP5 PUSH1 0x40 PUSH1 0x0 KECCAK256 PUSH2 0x3D0F JUMP JUMPDEST POP SWAP1 PUSH1 0x3 DUP3 ADD SWAP4 PUSH1 0xFF DUP6 SLOAD AND PUSH2 0xC06 JUMPI DUP9 PUSH1 0x0 MSTORE PUSH1 0x1B DUP5 MSTORE PUSH1 0x40 PUSH1 0x0 KECCAK256 DUP7 PUSH1 0x0 MSTORE DUP5 MSTORE PUSH1 0x40 PUSH1 0x0 KECCAK256 SLOAD PUSH2 0xBA7 JUMPI DUP9 PUSH1 0x0 MSTORE PUSH1 0x11 DUP5 MSTORE PUSH1 0x40 PUSH1 0x0 KECCAK256 DUP7 PUSH1 0x0 MSTORE DUP5 MSTORE PUSH1 0x40 PUSH1 0x0 KECCAK256 CALLER PUSH1 0x0 MSTORE DUP5 MSTORE DUP1 PUSH1 0x40 PUSH1 0x0 KECCAK256 SSTORE DUP9 PUSH1 0x0 MSTORE PUSH1 0x12 DUP5 MSTORE PUSH1 0x40 PUSH1 0x0 KECCAK256 DUP7 PUSH1 0x0 MSTORE DUP5 MSTORE PUSH1 0x40 PUSH1 0x0 KECCAK256 CALLER PUSH1 0x0 MSTORE DUP5 MSTORE PUSH1 0x40 PUSH1 0x0 KECCAK256 SWAP7 PUSH1 0xFF NOT SWAP8 PUSH1 0x1 DUP10 DUP3 SLOAD AND OR SWAP1 SSTORE DUP10 PUSH1 0x0 MSTORE PUSH1 0x13 DUP6 MSTORE PUSH1 0x40 PUSH1 0x0 KECCAK256 DUP8 PUSH1 0x0 MSTORE DUP6 MSTORE PUSH2 0xA91 CALLER PUSH1 0x40 PUSH1 0x0 KECCAK256 PUSH2 0x40A3 JUMP JUMPDEST PUSH1 0x8 PUSH1 0x5 DUP6 ADD SWAP6 PUSH2 0xAA2 DUP8 SLOAD PUSH2 0x3F0C JUMP JUMPDEST SWAP3 DUP4 DUP9 SSTORE PUSH1 0x1 DUP1 PUSH1 0xA0 SHL SUB SWAP5 DUP14 PUSH32 0x424E5AD88B2ACCC1579E610100B12E0F295D8C9E0B02ABB61AD1E413E3D63D02 PUSH1 0x40 DUP9 DUP12 SLOAD AND SWAP4 DUP2 MLOAD SWAP1 DUP2 MSTORE CALLER DUP8 DUP3 ADD MSTORE LOG3 SLOAD PUSH1 0x0 MSTORE MSTORE PUSH1 0x40 PUSH1 0x0 KECCAK256 SLOAD DUP1 ISZERO PUSH2 0xB9F JUMPI JUMPDEST DUP2 LT ISZERO PUSH2 0xAFD JUMPI STOP JUMPDEST PUSH32 0xFF2FC693BB2D4A09F21F0C403FCE5ECB4B5B0B57E81C7253DEB5386BB8A8AE77 SWAP9 PUSH2 0x799 SWAP7 PUSH1 0x1 PUSH2 0xB32 PUSH1 0xA SWAP5 DUP12 DUP16 PUSH2 0x42FE JUMP JUMPDEST SWAP11 DUP12 PUSH1 0x2 DUP10 ADD SSTORE DUP3 SLOAD AND OR SWAP1 SSTORE ADD SWAP3 DUP8 DUP5 SLOAD DUP2 GT PUSH2 0xB6E JUMPI JUMPDEST POP POP POP POP POP SLOAD PUSH1 0x40 MLOAD SWAP4 DUP5 SWAP4 DUP5 PUSH1 0x40 SWAP2 SWAP5 SWAP4 SWAP3 PUSH1 0x60 DUP3 ADD SWAP6 DUP3 MSTORE PUSH1 0x20 DUP3 ADD MSTORE ADD MSTORE JUMP JUMPDEST SWAP1 SWAP4 SSTORE SWAP2 SLOAD DUP2 SLOAD PUSH2 0x100 PUSH1 0x1 PUSH1 0xA8 SHL SUB NOT AND SWAP3 AND PUSH1 0x8 SHL PUSH2 0x100 PUSH1 0x1 PUSH1 0xA8 SHL SUB AND SWAP2 SWAP1 SWAP2 OR SWAP1 SSTORE DUP7 DUP1 DUP1 DUP1 DUP8 PUSH2 0xB4B JUMP JUMPDEST POP PUSH1 0x2 PUSH2 0xAF4 JUMP JUMPDEST PUSH1 0x40 MLOAD PUSH3 0x461BCD PUSH1 0xE5 SHL DUP2 MSTORE PUSH1 0x4 DUP2 ADD DUP6 SWAP1 MSTORE PUSH1 0x31 PUSH1 0x24 DUP3 ADD MSTORE PUSH32 0x436F6D6D69742D72657665616C206163746976653A2075736520636F6D6D6974 PUSH1 0x44 DUP3 ADD MSTORE PUSH17 0x53636F72652F72657665616C53636F7265 PUSH1 0x78 SHL PUSH1 0x64 DUP3 ADD MSTORE PUSH1 0x84 SWAP1 REVERT JUMPDEST PUSH1 0x64 DUP5 PUSH1 0x40 MLOAD SWAP1 PUSH3 0x461BCD PUSH1 0xE5 SHL DUP3 MSTORE DUP1 PUSH1 0x4 DUP4 ADD MSTORE PUSH1 0x24 DUP3 ADD MSTORE PUSH32 0x5375626D697373696F6E20616C72656164792068617320636F6E73656E737573 PUSH1 0x44 DUP3 ADD MSTORE REVERT JUMPDEST PUSH1 0x40 MLOAD PUSH3 0x461BCD PUSH1 0xE5 SHL DUP2 MSTORE PUSH1 0x4 DUP2 ADD DUP4 SWAP1 MSTORE PUSH1 0x28 PUSH1 0x24 DUP3 ADD MSTORE PUSH32 0x56616C696461746F7220616C72656164792073636F7265642074686973207375 PUSH1 0x44 DUP3 ADD MSTORE PUSH8 0x3136B4B9B9B4B7B7 PUSH1 0xC1 SHL PUSH1 0x64 DUP3 ADD MSTORE PUSH1 0x84 SWAP1 REVERT JUMPDEST PUSH1 0x1 SWAP2 POP EQ DUP9 PUSH2 0x956 JUMP JUMPDEST CALLVALUE PUSH2 0x31B JUMPI PUSH1 0x0 CALLDATASIZE PUSH1 0x3 NOT ADD SLT PUSH2 0x31B JUMPI PUSH2 0xCC3 PUSH2 0x41D5 JUMP JUMPDEST CALLER PUSH1 0x0 MSTORE PUSH1 0x16 PUSH1 0x20 MSTORE PUSH1 0x40 PUSH1 0x0 KECCAK256 SLOAD DUP1 ISZERO PUSH2 0xD2B JUMPI PUSH2 0x575 SWAP1 CALLER PUSH1 0x0 MSTORE PUSH1 0x16 PUSH1 0x20 MSTORE PUSH1 0x0 PUSH1 0x40 DUP2 KECCAK256 SSTORE PUSH1 0x40 MLOAD DUP2 DUP2 MSTORE PUSH32 0x48DC35AF7B45E2A81FFFAD55F6E2FAFACDB1D3D0D50D24EBDC16324F5BA757F1 PUSH1 0x20 CALLER SWAP3 LOG2 PUSH1 0x2 SLOAD CALLER SWAP1 PUSH1 0x1 PUSH1 0x1 PUSH1 0xA0 SHL SUB AND PUSH2 0x4272 JUMP JUMPDEST PUSH1 0x40 MLOAD PUSH3 0x461BCD PUSH1 0xE5 SHL DUP2 MSTORE PUSH1 0x20 PUSH1 0x4 DUP3 ADD MSTORE PUSH1 0x13 PUSH1 0x24 DUP3 ADD MSTORE PUSH19 0x4E6F2070656E64696E67206561726E696E6773 PUSH1 0x68 SHL PUSH1 0x44 DUP3 ADD MSTORE PUSH1 0x64 SWAP1 REVERT JUMPDEST CALLVALUE PUSH2 0x31B JUMPI PUSH2 0xD74 CALLDATASIZE PUSH2 0x3AD1 JUMP JUMPDEST SWAP1 PUSH1 0x0 MSTORE PUSH1 0x1A PUSH1 0x20 MSTORE PUSH1 0x40 PUSH1 0x0 KECCAK256 SWAP1 PUSH1 0x0 MSTORE PUSH1 0x20 MSTORE PUSH1 0x20 PUSH1 0x40 PUSH1 0x0 KECCAK256 SLOAD PUSH1 0x40 MLOAD SWAP1 DUP2 MSTORE RETURN JUMPDEST CALLVALUE PUSH2 0x31B JUMPI PUSH1 0x40 CALLDATASIZE PUSH1 0x3 NOT ADD SLT PUSH2 0x31B JUMPI PUSH2 0xDB2 PUSH2 0x3ABB JUMP JUMPDEST PUSH1 0x4 CALLDATALOAD PUSH1 0x0 MSTORE PUSH1 0x10 PUSH1 0x20 MSTORE PUSH1 0x40 PUSH1 0x0 KECCAK256 SWAP1 PUSH1 0x1 DUP1 PUSH1 0xA0 SHL SUB AND PUSH1 0x0 MSTORE PUSH1 0x20 MSTORE PUSH1 0x20 PUSH1 0xFF PUSH1 0x40 PUSH1 0x0 KECCAK256 SLOAD AND PUSH1 0x40 MLOAD SWAP1 ISZERO ISZERO DUP2 MSTORE RETURN JUMPDEST CALLVALUE PUSH2 0x31B JUMPI PUSH1 0x40 CALLDATASIZE PUSH1 0x3 NOT ADD SLT PUSH2 0x31B JUMPI PUSH2 0xDFF PUSH2 0x3ABB JUMP JUMPDEST PUSH1 0x4 CALLDATALOAD PUSH1 0x0 MSTORE PUSH1 0xC PUSH1 0x20 MSTORE PUSH1 0x40 PUSH1 0x0 KECCAK256 SWAP1 PUSH1 0x1 DUP1 PUSH1 0xA0 SHL SUB AND PUSH1 0x0 MSTORE PUSH1 0x20 MSTORE PUSH1 0x20 PUSH1 0xFF PUSH1 0x40 PUSH1 0x0 KECCAK256 SLOAD AND PUSH1 0x40 MLOAD SWAP1 ISZERO ISZERO DUP2 MSTORE RETURN JUMPDEST CALLVALUE PUSH2 0x31B JUMPI PUSH1 0x40 CALLDATASIZE PUSH1 0x3 NOT ADD SLT PUSH2 0x31B JUMPI PUSH1 0x20 PUSH1 0x40 MLOAD DUP2 DUP2 ADD SWAP1 PUSH1 0x4 CALLDATALOAD DUP3 MSTORE PUSH1 0x24 CALLDATALOAD PUSH1 0x40 DUP3 ADD MSTORE PUSH1 0x40 DUP2 MSTORE PUSH2 0xE67 DUP2 PUSH2 0x3C21 JUMP JUMPDEST MLOAD SWAP1 KECCAK256 PUSH1 0x40 MLOAD SWAP1 DUP2 MSTORE RETURN JUMPDEST CALLVALUE PUSH2 0x31B JUMPI PUSH1 0x0 CALLDATASIZE PUSH1 0x3 NOT ADD SLT PUSH2 0x31B JUMPI PUSH1 0x20 PUSH1 0x40 MLOAD PUSH2 0x5DC DUP2 MSTORE RETURN JUMPDEST CALLVALUE PUSH2 0x31B JUMPI PUSH1 0x60 CALLDATASIZE PUSH1 0x3 NOT ADD SLT PUSH2 0x31B JUMPI PUSH1 0x4 CALLDATALOAD PUSH1 0x1 PUSH1 0x1 PUSH1 0x40 SHL SUB DUP2 GT PUSH2 0x31B JUMPI PUSH2 0xEBF SWAP1 CALLDATASIZE SWAP1 PUSH1 0x4 ADD PUSH2 0x3D41 JUMP JUMPDEST SWAP1 PUSH1 0x24 CALLDATALOAD PUSH1 0x1 PUSH1 0x1 PUSH1 0x40 SHL SUB DUP2 GT PUSH2 0x31B JUMPI PUSH2 0xEDF SWAP1 CALLDATASIZE SWAP1 PUSH1 0x4 ADD PUSH2 0x3D41 JUMP JUMPDEST SWAP3 PUSH2 0xEE8 PUSH2 0x41D5 JUMP JUMPDEST PUSH2 0xEF0 PUSH2 0x422B JUMP JUMPDEST DUP1 ISZERO PUSH2 0x132F JUMPI PUSH2 0xF63 SWAP3 PUSH2 0xF5B SWAP2 PUSH2 0xF0E PUSH2 0x7D0 PUSH1 0x44 CALLDATALOAD GT ISZERO PUSH2 0x412A JUMP JUMPDEST PUSH1 0x2 SLOAD PUSH1 0x40 MLOAD PUSH4 0x23B872DD PUSH1 0xE0 SHL PUSH1 0x20 DUP3 ADD MSTORE CALLER PUSH1 0x24 DUP3 ADD MSTORE ADDRESS PUSH1 0x44 DUP3 ADD MSTORE PUSH5 0xE8D4A51000 PUSH1 0x64 DUP1 DUP4 ADD SWAP2 SWAP1 SWAP2 MSTORE DUP2 MSTORE PUSH2 0xF54 SWAP2 PUSH1 0x1 PUSH1 0x1 PUSH1 0xA0 SHL SUB AND PUSH2 0x570 DUP3 PUSH2 0x3C06 JUMP JUMPDEST CALLDATASIZE SWAP2 PUSH2 0x4018 JUMP JUMPDEST SWAP3 CALLDATASIZE SWAP2 PUSH2 0x4018 JUMP JUMPDEST SWAP1 PUSH1 0x3 SLOAD SWAP1 PUSH2 0xF71 DUP3 PUSH2 0x3F0C JUMP JUMPDEST PUSH1 0x3 SSTORE PUSH1 0x40 MLOAD SWAP3 PUSH2 0xF81 DUP5 PUSH2 0x3BEA JUMP JUMPDEST DUP3 DUP5 MSTORE DUP2 PUSH1 0x20 DUP6 ADD MSTORE PUSH1 0x40 DUP5 ADD MSTORE CALLER PUSH1 0x60 DUP5 ADD MSTORE PUSH1 0x44 CALLDATALOAD PUSH1 0x80 DUP5 ADD MSTORE PUSH4 0x5F5E100 PUSH1 0xA0 DUP5 ADD MSTORE PUSH1 0x0 PUSH1 0xC0 DUP5 ADD MSTORE PUSH1 0x0 PUSH1 0xE0 DUP5 ADD MSTORE PUSH1 0x0 PUSH2 0x100 DUP5 ADD MSTORE PUSH1 0x0 PUSH2 0x120 DUP5 ADD MSTORE TIMESTAMP PUSH2 0x140 DUP5 ADD MSTORE DUP2 PUSH1 0x0 MSTORE PUSH1 0x9 PUSH1 0x20 MSTORE PUSH1 0x40 PUSH1 0x0 KECCAK256 DUP4 MLOAD DUP2 SSTORE PUSH1 0x20 DUP5 ADD MLOAD DUP1 MLOAD SWAP1 PUSH1 0x1 PUSH1 0x1 PUSH1 0x40 SHL SUB DUP3 GT PUSH2 0x1249 JUMPI DUP2 SWAP1 PUSH2 0x1003 PUSH1 0x1 DUP6 ADD SLOAD PUSH2 0x3B5E JUMP JUMPDEST PUSH1 0x1F DUP2 GT PUSH2 0x12DC JUMPI JUMPDEST POP PUSH1 0x20 SWAP1 PUSH1 0x1F DUP4 GT PUSH1 0x1 EQ PUSH2 0x126A JUMPI PUSH1 0x0 SWAP3 PUSH2 0x125F JUMPI JUMPDEST POP POP DUP2 PUSH1 0x1 SHL SWAP2 PUSH1 0x0 NOT SWAP1 PUSH1 0x3 SHL SHR NOT AND OR PUSH1 0x1 DUP3 ADD SSTORE JUMPDEST PUSH1 0x40 DUP5 ADD MLOAD DUP1 MLOAD SWAP1 PUSH1 0x1 PUSH1 0x1 PUSH1 0x40 SHL SUB DUP3 GT PUSH2 0x1249 JUMPI DUP2 SWAP1 PUSH2 0x1060 PUSH1 0x2 DUP6 ADD SLOAD PUSH2 0x3B5E JUMP JUMPDEST PUSH1 0x1F DUP2 GT PUSH2 0x11F6 JUMPI JUMPDEST POP PUSH1 0x20 SWAP1 PUSH1 0x1F DUP4 GT PUSH1 0x1 EQ PUSH2 0x1184 JUMPI PUSH1 0x0 SWAP3 PUSH2 0x1179 JUMPI JUMPDEST POP POP DUP2 PUSH1 0x1 SHL SWAP2 PUSH1 0x0 NOT SWAP1 PUSH1 0x3 SHL SHR NOT AND OR PUSH1 0x2 DUP3 ADD SSTORE JUMPDEST PUSH1 0x3 DUP2 ADD PUSH1 0x1 DUP1 PUSH1 0xA0 SHL SUB PUSH1 0x60 DUP7 ADD MLOAD AND PUSH1 0x1 PUSH1 0x1 PUSH1 0x60 SHL SUB PUSH1 0xA0 SHL DUP3 SLOAD AND OR SWAP1 SSTORE PUSH1 0x80 DUP5 ADD MLOAD PUSH1 0x4 DUP3 ADD SSTORE PUSH1 0xA0 DUP5 ADD MLOAD PUSH1 0x5 DUP3 ADD SSTORE PUSH1 0xC0 DUP5 ADD MLOAD PUSH1 0x6 DUP3 ADD SSTORE PUSH1 0xE0 DUP5 ADD MLOAD PUSH1 0x7 DUP3 ADD SSTORE PUSH2 0x100 DUP5 ADD MLOAD PUSH1 0x8 DUP3 ADD SSTORE PUSH2 0x120 DUP5 ADD MLOAD SWAP4 PUSH1 0x3 DUP6 LT ISZERO PUSH2 0x5C1 JUMPI PUSH2 0x140 PUSH1 0xA SWAP2 PUSH2 0x1112 PUSH1 0x20 SWAP8 PUSH1 0x9 DUP7 ADD PUSH2 0x4165 JUMP JUMPDEST ADD MLOAD SWAP2 ADD SSTORE DUP2 PUSH1 0x0 MSTORE PUSH1 0x8 DUP4 MSTORE PUSH1 0x2 PUSH1 0x40 PUSH1 0x0 KECCAK256 SSTORE DUP2 PUSH32 0x8E46DCAB88334408205DFDFF058DE646A02AB7FDDB35B9923E924E49CE505C30 PUSH2 0x115E PUSH1 0x40 MLOAD SWAP4 PUSH1 0x40 DUP6 MSTORE PUSH1 0x40 DUP6 ADD SWAP1 PUSH2 0x3B11 JUMP JUMPDEST SWAP3 PUSH1 0x44 CALLDATALOAD DUP7 DUP3 ADD MSTORE DUP1 CALLER SWAP5 SUB SWAP1 LOG3 PUSH1 0x1 PUSH1 0x0 SSTORE PUSH1 0x40 MLOAD SWAP1 DUP2 MSTORE RETURN JUMPDEST ADD MLOAD SWAP1 POP DUP7 DUP1 PUSH2 0x1080 JUMP JUMPDEST SWAP3 POP PUSH1 0x2 DUP5 ADD PUSH1 0x0 MSTORE PUSH1 0x20 PUSH1 0x0 KECCAK256 SWAP1 PUSH1 0x0 SWAP4 JUMPDEST PUSH1 0x1F NOT DUP5 AND DUP6 LT PUSH2 0x11DB JUMPI PUSH1 0x1 SWAP5 POP DUP4 PUSH1 0x1F NOT DUP2 AND LT PUSH2 0x11C2 JUMPI JUMPDEST POP POP POP DUP2 SHL ADD PUSH1 0x2 DUP3 ADD SSTORE PUSH2 0x1098 JUMP JUMPDEST ADD MLOAD PUSH1 0x0 NOT PUSH1 0xF8 DUP5 PUSH1 0x3 SHL AND SHR NOT AND SWAP1 SSTORE DUP7 DUP1 DUP1 PUSH2 0x11B2 JUMP JUMPDEST DUP2 DUP2 ADD MLOAD DUP4 SSTORE PUSH1 0x20 SWAP5 DUP6 ADD SWAP5 PUSH1 0x1 SWAP1 SWAP4 ADD SWAP3 SWAP1 SWAP2 ADD SWAP1 PUSH2 0x1197 JUMP JUMPDEST SWAP1 SWAP2 POP PUSH1 0x2 DUP5 ADD PUSH1 0x0 MSTORE PUSH1 0x20 PUSH1 0x0 KECCAK256 PUSH1 0x1F DUP5 ADD PUSH1 0x5 SHR DUP2 ADD PUSH1 0x20 DUP6 LT PUSH2 0x1242 JUMPI JUMPDEST SWAP1 DUP5 SWAP4 SWAP3 SWAP2 JUMPDEST PUSH1 0x1F DUP4 ADD PUSH1 0x5 SHR DUP3 ADD DUP2 LT PUSH2 0x1233 JUMPI POP POP PUSH2 0x1069 JUMP JUMPDEST PUSH1 0x0 DUP2 SSTORE DUP6 SWAP5 POP PUSH1 0x1 ADD PUSH2 0x121D JUMP JUMPDEST POP DUP1 PUSH2 0x1217 JUMP JUMPDEST PUSH4 0x4E487B71 PUSH1 0xE0 SHL PUSH1 0x0 MSTORE PUSH1 0x41 PUSH1 0x4 MSTORE PUSH1 0x24 PUSH1 0x0 REVERT JUMPDEST ADD MLOAD SWAP1 POP DUP7 DUP1 PUSH2 0x1023 JUMP JUMPDEST SWAP3 POP PUSH1 0x1 DUP5 ADD PUSH1 0x0 MSTORE PUSH1 0x20 PUSH1 0x0 KECCAK256 SWAP1 PUSH1 0x0 SWAP4 JUMPDEST PUSH1 0x1F NOT DUP5 AND DUP6 LT PUSH2 0x12C1 JUMPI PUSH1 0x1 SWAP5 POP DUP4 PUSH1 0x1F NOT DUP2 AND LT PUSH2 0x12A8 JUMPI JUMPDEST POP POP POP DUP2 SHL ADD PUSH1 0x1 DUP3 ADD SSTORE PUSH2 0x103B JUMP JUMPDEST ADD MLOAD PUSH1 0x0 NOT PUSH1 0xF8 DUP5 PUSH1 0x3 SHL AND SHR NOT AND SWAP1 SSTORE DUP7 DUP1 DUP1 PUSH2 0x1298 JUMP JUMPDEST DUP2 DUP2 ADD MLOAD DUP4 SSTORE PUSH1 0x20 SWAP5 DUP6 ADD SWAP5 PUSH1 0x1 SWAP1 SWAP4 ADD SWAP3 SWAP1 SWAP2 ADD SWAP1 PUSH2 0x127D JUMP JUMPDEST SWAP1 SWAP2 POP PUSH1 0x1 DUP5 ADD PUSH1 0x0 MSTORE PUSH1 0x20 PUSH1 0x0 KECCAK256 PUSH1 0x1F DUP5 ADD PUSH1 0x5 SHR DUP2 ADD PUSH1 0x20 DUP6 LT PUSH2 0x1328 JUMPI JUMPDEST SWAP1 DUP5 SWAP4 SWAP3 SWAP2 JUMPDEST PUSH1 0x1F DUP4 ADD PUSH1 0x5 SHR DUP3 ADD DUP2 LT PUSH2 0x1319 JUMPI POP POP PUSH2 0x100C JUMP JUMPDEST PUSH1 0x0 DUP2 SSTORE DUP6 SWAP5 POP PUSH1 0x1 ADD PUSH2 0x1303 JUMP JUMPDEST POP DUP1 PUSH2 0x12FD JUMP JUMPDEST PUSH1 0x40 MLOAD PUSH3 0x461BCD PUSH1 0xE5 SHL DUP2 MSTORE PUSH1 0x20 PUSH1 0x4 DUP3 ADD MSTORE PUSH1 0xA PUSH1 0x24 DUP3 ADD MSTORE PUSH10 0x456D707479206E616D65 PUSH1 0xB0 SHL PUSH1 0x44 DUP3 ADD MSTORE PUSH1 0x64 SWAP1 REVERT JUMPDEST CALLVALUE PUSH2 0x31B JUMPI PUSH1 0x0 CALLDATASIZE PUSH1 0x3 NOT ADD SLT PUSH2 0x31B JUMPI PUSH1 0x20 PUSH1 0x3 SLOAD PUSH1 0x40 MLOAD SWAP1 DUP2 MSTORE RETURN JUMPDEST CALLVALUE PUSH2 0x31B JUMPI PUSH1 0x40 CALLDATASIZE PUSH1 0x3 NOT ADD SLT PUSH2 0x31B JUMPI PUSH2 0x1398 PUSH2 0x3ABB JUMP JUMPDEST PUSH1 0x4 CALLDATALOAD PUSH1 0x0 MSTORE PUSH1 0xE PUSH1 0x20 MSTORE PUSH1 0x40 PUSH1 0x0 KECCAK256 SWAP1 PUSH1 0x1 DUP1 PUSH1 0xA0 SHL SUB AND PUSH1 0x0 MSTORE PUSH1 0x20 MSTORE PUSH1 0x20 PUSH1 0xFF PUSH1 0x40 PUSH1 0x0 KECCAK256 SLOAD AND PUSH1 0x40 MLOAD SWAP1 ISZERO ISZERO DUP2 MSTORE RETURN JUMPDEST CALLVALUE PUSH2 0x31B JUMPI PUSH1 0x0 CALLDATASIZE PUSH1 0x3 NOT ADD SLT PUSH2 0x31B JUMPI PUSH1 0x1 SLOAD PUSH1 0x40 MLOAD PUSH1 0x1 PUSH1 0x1 PUSH1 0xA0 SHL SUB SWAP1 SWAP2 AND DUP2 MSTORE PUSH1 0x20 SWAP1 RETURN JUMPDEST CALLVALUE PUSH2 0x31B JUMPI PUSH1 0x20 CALLDATASIZE PUSH1 0x3 NOT ADD SLT PUSH2 0x31B JUMPI PUSH1 0x4 CALLDATALOAD PUSH1 0x0 SWAP1 DUP2 MSTORE PUSH1 0xA PUSH1 0x20 MSTORE PUSH1 0x40 SWAP1 KECCAK256 DUP1 SLOAD PUSH1 0x1 DUP3 ADD SLOAD PUSH1 0x2 DUP4 ADD SLOAD PUSH1 0x60 SWAP4 PUSH1 0x1 PUSH1 0x1 PUSH1 0xA0 SHL SUB SWAP2 DUP3 AND SWAP4 SWAP2 PUSH2 0x143F PUSH1 0x3 DUP4 ADD PUSH2 0x3C5D JUMP JUMPDEST SWAP4 PUSH1 0x4 DUP4 ADD SLOAD SWAP5 PUSH1 0x5 DUP5 ADD SLOAD PUSH1 0x6 DUP6 ADD SLOAD PUSH1 0x7 DUP7 ADD SLOAD SWAP2 PUSH2 0x1494 PUSH1 0x8 DUP9 ADD SLOAD SWAP5 PUSH1 0x9 DUP10 ADD SLOAD SWAP7 PUSH1 0xB PUSH1 0xA DUP12 ADD SLOAD SWAP11 ADD SLOAD SWAP11 PUSH1 0x40 MLOAD SWAP15 DUP16 SWAP15 DUP16 SWAP1 PUSH2 0x1A0 SWAP5 DUP6 SWAP5 DUP4 MSTORE PUSH1 0x20 DUP4 ADD MSTORE PUSH1 0x40 DUP3 ADD MSTORE ADD MSTORE DUP13 ADD SWAP1 PUSH2 0x3B11 JUMP JUMPDEST SWAP9 PUSH1 0x80 DUP12 ADD MSTORE PUSH1 0xA0 DUP11 ADD MSTORE PUSH1 0xC0 DUP10 ADD MSTORE PUSH1 0xE0 DUP9 ADD MSTORE PUSH2 0x100 DUP8 ADD MSTORE PUSH2 0x14C0 PUSH2 0x120 DUP8 ADD PUSH1 0xFF DUP4 AND PUSH2 0x3B51 JUMP JUMPDEST PUSH1 0x8 SHR AND PUSH2 0x140 DUP6 ADD MSTORE PUSH2 0x160 DUP5 ADD MSTORE PUSH2 0x180 DUP4 ADD MSTORE SUB SWAP1 RETURN JUMPDEST CALLVALUE PUSH2 0x31B JUMPI PUSH1 0x40 CALLDATASIZE PUSH1 0x3 NOT ADD SLT PUSH2 0x31B JUMPI PUSH1 0x24 CALLDATALOAD PUSH1 0x1 PUSH1 0x1 PUSH1 0x40 SHL SUB DUP2 GT PUSH2 0x31B JUMPI PUSH2 0x150A SWAP1 CALLDATASIZE SWAP1 PUSH1 0x4 ADD PUSH2 0x3D41 JUMP JUMPDEST PUSH2 0x1512 PUSH2 0x41D5 JUMP JUMPDEST PUSH1 0x4 CALLDATALOAD PUSH1 0x0 MSTORE PUSH1 0xA PUSH1 0x20 MSTORE PUSH1 0x40 PUSH1 0x0 KECCAK256 PUSH1 0xFF PUSH1 0x9 DUP3 ADD SLOAD AND PUSH1 0x6 DUP2 LT ISZERO SWAP1 DUP2 PUSH2 0x5C1 JUMPI DUP1 ISZERO SWAP2 DUP3 ISZERO PUSH2 0x19D1 JUMPI JUMPDEST DUP3 ISZERO PUSH2 0x19C0 JUMPI JUMPDEST POP POP ISZERO PUSH2 0x198B JUMPI PUSH1 0x8 DUP2 ADD SLOAD TIMESTAMP LT ISZERO PUSH2 0x1957 JUMPI PUSH1 0x1 DUP2 ADD SLOAD PUSH1 0x0 MSTORE PUSH1 0xE PUSH1 0x20 MSTORE PUSH1 0x40 PUSH1 0x0 KECCAK256 CALLER PUSH1 0x0 MSTORE PUSH1 0x20 MSTORE PUSH1 0xFF PUSH1 0x40 PUSH1 0x0 KECCAK256 SLOAD AND ISZERO PUSH2 0x1912 JUMPI PUSH1 0x4 CALLDATALOAD PUSH1 0x0 MSTORE PUSH1 0x10 PUSH1 0x20 MSTORE PUSH1 0x40 PUSH1 0x0 KECCAK256 CALLER PUSH1 0x0 MSTORE PUSH1 0x20 MSTORE PUSH1 0xFF PUSH1 0x40 PUSH1 0x0 KECCAK256 SLOAD AND PUSH2 0x18CD JUMPI PUSH1 0x4 CALLDATALOAD PUSH1 0x0 MSTORE PUSH1 0xB PUSH1 0x20 MSTORE PUSH1 0x40 PUSH1 0x0 KECCAK256 SLOAD PUSH1 0x5 SLOAD GT ISZERO PUSH2 0x1888 JUMPI PUSH1 0x4 CALLDATALOAD PUSH1 0x0 MSTORE PUSH1 0x10 PUSH1 0x20 MSTORE PUSH1 0x40 PUSH1 0x0 KECCAK256 CALLER PUSH1 0x0 MSTORE PUSH1 0x20 MSTORE PUSH1 0x40 PUSH1 0x0 KECCAK256 PUSH1 0x1 PUSH1 0xFF NOT DUP3 SLOAD AND OR SWAP1 SSTORE PUSH1 0x4 CALLDATALOAD PUSH1 0x0 MSTORE PUSH1 0xB PUSH1 0x20 MSTORE PUSH1 0x40 PUSH1 0x0 KECCAK256 PUSH1 0x40 MLOAD SWAP1 PUSH2 0x1602 DUP3 PUSH2 0x3B98 JUMP JUMPDEST CALLER DUP3 MSTORE PUSH2 0x1610 CALLDATASIZE DUP6 DUP8 PUSH2 0x4018 JUMP JUMPDEST PUSH1 0x20 DUP4 ADD MSTORE PUSH1 0x0 PUSH1 0x40 DUP4 ADD MSTORE PUSH1 0x0 PUSH1 0x60 DUP4 ADD MSTORE TIMESTAMP PUSH1 0x80 DUP4 ADD MSTORE PUSH1 0x0 PUSH1 0xA0 DUP4 ADD MSTORE DUP1 SLOAD PUSH1 0x1 PUSH1 0x40 SHL DUP2 LT ISZERO PUSH2 0x1249 JUMPI PUSH2 0x164D SWAP2 PUSH1 0x1 DUP3 ADD DUP2 SSTORE PUSH2 0x3D0F JUMP JUMPDEST SWAP2 SWAP1 SWAP2 PUSH2 0x1872 JUMPI DUP1 MLOAD DUP3 SLOAD PUSH1 0x1 PUSH1 0x1 PUSH1 0xA0 SHL SUB NOT AND PUSH1 0x1 PUSH1 0x1 PUSH1 0xA0 SHL SUB SWAP2 SWAP1 SWAP2 AND OR DUP3 SSTORE PUSH1 0x20 DUP2 ADD MLOAD DUP1 MLOAD SWAP1 PUSH1 0x1 PUSH1 0x1 PUSH1 0x40 SHL SUB DUP3 GT PUSH2 0x1249 JUMPI PUSH2 0x1694 PUSH1 0x1 DUP6 ADD SLOAD PUSH2 0x3B5E JUMP JUMPDEST PUSH1 0x1F DUP2 GT PUSH2 0x182B JUMPI JUMPDEST POP PUSH1 0x20 SWAP1 PUSH1 0x1F DUP4 GT PUSH1 0x1 EQ PUSH2 0x17B6 JUMPI SWAP2 DUP1 PUSH1 0x5 SWAP5 SWAP3 PUSH1 0xA0 SWAP5 PUSH1 0x0 SWAP3 PUSH2 0x17AB JUMPI JUMPDEST POP POP DUP2 PUSH1 0x1 SHL SWAP2 PUSH1 0x0 NOT SWAP1 PUSH1 0x3 SHL SHR NOT AND OR PUSH1 0x1 DUP6 ADD SSTORE JUMPDEST PUSH1 0x40 DUP2 ADD MLOAD PUSH1 0x2 DUP6 ADD SSTORE PUSH2 0x16FE PUSH1 0x60 DUP3 ADD MLOAD ISZERO ISZERO PUSH1 0x3 DUP7 ADD SWAP1 PUSH1 0xFF DUP1 NOT DUP4 SLOAD AND SWAP2 ISZERO ISZERO AND OR SWAP1 SSTORE JUMP JUMPDEST PUSH1 0x80 DUP2 ADD MLOAD PUSH1 0x4 DUP6 ADD SSTORE ADD MLOAD SWAP2 ADD SSTORE PUSH1 0x9 DUP2 ADD SLOAD PUSH1 0xFF DUP2 AND PUSH1 0x6 DUP2 LT ISZERO PUSH2 0x5C1 JUMPI DUP1 ISZERO SWAP1 DUP2 ISZERO PUSH2 0x17A0 JUMPI JUMPDEST POP PUSH2 0x178C JUMPI JUMPDEST POP POP DUP1 PUSH1 0x40 MLOAD SWAP3 PUSH1 0x20 DUP5 MSTORE DUP2 PUSH1 0x20 DUP6 ADD MSTORE PUSH1 0x40 DUP5 ADD CALLDATACOPY PUSH1 0x0 PUSH1 0x40 DUP3 DUP5 ADD ADD MSTORE PUSH32 0xA3DCF7CEBCC4CF0937F4F95D95392671977BA143B4FF236240650322A106E8DC CALLER SWAP3 PUSH1 0x40 DUP2 PUSH1 0x4 CALLDATALOAD SWAP5 PUSH1 0x1F DUP1 NOT SWAP2 ADD AND DUP2 ADD SUB ADD SWAP1 LOG3 PUSH1 0x1 PUSH1 0x0 SSTORE STOP JUMPDEST PUSH1 0x2 PUSH1 0x9 SWAP2 PUSH1 0xFF NOT AND OR SWAP2 ADD SSTORE DUP3 DUP1 PUSH2 0x172F JUMP JUMPDEST PUSH1 0x1 SWAP2 POP EQ DUP6 PUSH2 0x1729 JUMP JUMPDEST ADD MLOAD SWAP1 POP DUP10 DUP1 PUSH2 0x16BD JUMP JUMPDEST SWAP1 PUSH1 0x1 DUP6 ADD PUSH1 0x0 MSTORE PUSH1 0x20 PUSH1 0x0 KECCAK256 SWAP2 PUSH1 0x0 JUMPDEST PUSH1 0x1F NOT DUP6 AND DUP2 LT PUSH2 0x1813 JUMPI POP SWAP3 PUSH1 0x5 SWAP5 SWAP3 PUSH1 0x1 SWAP3 PUSH1 0xA0 SWAP6 DUP4 PUSH1 0x1F NOT DUP2 AND LT PUSH2 0x17FA JUMPI JUMPDEST POP POP POP DUP2 SHL ADD PUSH1 0x1 DUP6 ADD SSTORE PUSH2 0x16D5 JUMP JUMPDEST ADD MLOAD PUSH1 0x0 NOT PUSH1 0xF8 DUP5 PUSH1 0x3 SHL AND SHR NOT AND SWAP1 SSTORE DUP10 DUP1 DUP1 PUSH2 0x17EA JUMP JUMPDEST SWAP2 SWAP3 PUSH1 0x20 PUSH1 0x1 DUP2 SWAP3 DUP7 DUP6 ADD MLOAD DUP2 SSTORE ADD SWAP5 ADD SWAP3 ADD PUSH2 0x17C7 JUMP JUMPDEST PUSH1 0x1 DUP6 ADD PUSH1 0x0 MSTORE PUSH1 0x20 PUSH1 0x0 KECCAK256 PUSH1 0x1F DUP5 ADD PUSH1 0x5 SHR DUP2 ADD PUSH1 0x20 DUP6 LT PUSH2 0x186B JUMPI JUMPDEST PUSH1 0x1F DUP4 ADD PUSH1 0x5 SHR DUP3 ADD DUP2 LT PUSH2 0x185F JUMPI POP POP PUSH2 0x169D JUMP JUMPDEST PUSH1 0x0 DUP2 SSTORE PUSH1 0x1 ADD PUSH2 0x1849 JUMP JUMPDEST POP DUP1 PUSH2 0x1849 JUMP JUMPDEST PUSH4 0x4E487B71 PUSH1 0xE0 SHL PUSH1 0x0 MSTORE PUSH1 0x0 PUSH1 0x4 MSTORE PUSH1 0x24 PUSH1 0x0 REVERT JUMPDEST PUSH1 0x40 MLOAD PUSH3 0x461BCD PUSH1 0xE5 SHL DUP2 MSTORE PUSH1 0x20 PUSH1 0x4 DUP3 ADD MSTORE PUSH1 0x17 PUSH1 0x24 DUP3 ADD MSTORE PUSH32 0x4D6178207375626D697373696F6E732072656163686564000000000000000000 PUSH1 0x44 DUP3 ADD MSTORE PUSH1 0x64 SWAP1 REVERT JUMPDEST PUSH1 0x40 MLOAD PUSH3 0x461BCD PUSH1 0xE5 SHL DUP2 MSTORE PUSH1 0x20 PUSH1 0x4 DUP3 ADD MSTORE PUSH1 0x17 PUSH1 0x24 DUP3 ADD MSTORE PUSH32 0x4D696E657220616C7265616479207375626D6974746564000000000000000000 PUSH1 0x44 DUP3 ADD MSTORE PUSH1 0x64 SWAP1 REVERT JUMPDEST PUSH1 0x40 MLOAD PUSH3 0x461BCD PUSH1 0xE5 SHL DUP2 MSTORE PUSH1 0x20 PUSH1 0x4 DUP3 ADD MSTORE PUSH1 0x18 PUSH1 0x24 DUP3 ADD MSTORE PUSH32 0x4E6F74207265676973746572656420696E207375626E65740000000000000000 PUSH1 0x44 DUP3 ADD MSTORE PUSH1 0x64 SWAP1 REVERT JUMPDEST PUSH1 0x40 MLOAD PUSH3 0x461BCD PUSH1 0xE5 SHL DUP2 MSTORE PUSH1 0x20 PUSH1 0x4 DUP3 ADD MSTORE PUSH1 0xC PUSH1 0x24 DUP3 ADD MSTORE PUSH12 0x15185CDAC8195E1C1A5C9959 PUSH1 0xA2 SHL PUSH1 0x44 DUP3 ADD MSTORE PUSH1 0x64 SWAP1 REVERT JUMPDEST PUSH1 0x40 MLOAD PUSH3 0x461BCD PUSH1 0xE5 SHL DUP2 MSTORE PUSH1 0x20 PUSH1 0x4 DUP3 ADD MSTORE PUSH1 0xD PUSH1 0x24 DUP3 ADD MSTORE PUSH13 0x10D85B9B9BDD081CDD589B5A5D PUSH1 0x9A SHL PUSH1 0x44 DUP3 ADD MSTORE PUSH1 0x64 SWAP1 REVERT JUMPDEST SWAP1 SWAP2 POP PUSH2 0x5C1 JUMPI PUSH1 0x2 EQ DUP5 DUP1 PUSH2 0x1546 JUMP JUMPDEST POP PUSH1 0x1 DUP2 EQ SWAP2 POP PUSH1 0x0 PUSH2 0x153F JUMP JUMPDEST CALLVALUE PUSH2 0x31B JUMPI PUSH1 0x20 DUP1 PUSH1 0x3 NOT CALLDATASIZE ADD SLT PUSH2 0x31B JUMPI PUSH1 0x4 CALLDATALOAD SWAP1 PUSH2 0x19FD PUSH2 0x41D5 JUMP JUMPDEST DUP2 PUSH1 0x0 MSTORE PUSH1 0xA DUP2 MSTORE PUSH1 0x40 PUSH1 0x0 KECCAK256 SWAP1 PUSH1 0x9 DUP3 ADD SWAP1 DUP2 SLOAD SWAP2 PUSH1 0xFF DUP4 AND PUSH1 0x6 DUP2 LT ISZERO PUSH2 0x5C1 JUMPI PUSH1 0x2 SUB PUSH2 0x1B9A JUMPI PUSH1 0x1 PUSH1 0x1 PUSH1 0xA0 SHL SUB PUSH1 0x8 DUP5 SWAP1 SHR DUP2 AND SWAP4 SWAP1 DUP5 ISZERO PUSH2 0x1B69 JUMPI DUP7 SWAP3 PUSH2 0x1B24 PUSH32 0xAE64F0A069112683796FC01E7D04EA7E255A3CD070A7DCE992FDCDECBC1E6D52 SWAP4 DUP9 SWAP4 PUSH1 0x1 DUP6 ADD SLOAD SWAP8 PUSH1 0x4 DUP7 ADD SLOAD SWAP5 PUSH1 0x3 PUSH1 0x7 PUSH1 0x6 PUSH1 0x5 DUP11 ADD SLOAD SWAP10 ADD SLOAD SWAP14 ADD SLOAD SWAP5 PUSH1 0xFF NOT AND OR SWAP1 SSTORE DUP9 PUSH1 0x0 MSTORE PUSH1 0x9 DUP2 MSTORE PUSH1 0x40 PUSH1 0x0 KECCAK256 SWAP2 PUSH1 0x6 DUP4 ADD PUSH2 0x1AA9 DUP8 DUP3 SLOAD PUSH2 0x3EFF JUMP JUMPDEST SWAP1 SSTORE PUSH1 0x7 DUP4 ADD PUSH2 0x1AB9 DUP2 SLOAD PUSH2 0x3F0C JUMP JUMPDEST SWAP1 SSTORE PUSH2 0x1AC7 DUP8 PUSH1 0x7 SLOAD PUSH2 0x3EFF JUMP JUMPDEST PUSH1 0x7 SSTORE DUP11 PUSH1 0x0 MSTORE PUSH1 0x15 DUP3 MSTORE PUSH1 0x40 PUSH1 0x0 KECCAK256 PUSH2 0x1AE2 DUP8 DUP3 SLOAD PUSH2 0x3EFF JUMP JUMPDEST SWAP1 SSTORE DUP11 PUSH1 0x0 MSTORE PUSH1 0x16 DUP3 MSTORE PUSH1 0x40 PUSH1 0x0 KECCAK256 PUSH2 0x1AFC DUP8 DUP3 SLOAD PUSH2 0x3EFF JUMP JUMPDEST SWAP1 SSTORE DUP4 PUSH2 0x1B43 JUMPI JUMPDEST POP POP POP PUSH1 0x40 MLOAD SWAP4 DUP5 SWAP4 DUP5 PUSH1 0x40 SWAP2 SWAP5 SWAP4 SWAP3 PUSH1 0x60 DUP3 ADD SWAP6 DUP3 MSTORE PUSH1 0x20 DUP3 ADD MSTORE ADD MSTORE JUMP JUMPDEST SUB SWAP1 LOG4 DUP1 PUSH2 0x1B33 JUMPI PUSH1 0x1 PUSH1 0x0 SSTORE STOP JUMPDEST PUSH2 0x1B3C SWAP2 PUSH2 0x44C5 JUMP JUMPDEST DUP1 DUP1 PUSH2 0x575 JUMP JUMPDEST PUSH1 0x3 PUSH1 0x16 SWAP4 ADD SLOAD AND PUSH1 0x0 MSTORE MSTORE PUSH1 0x40 PUSH1 0x0 KECCAK256 PUSH2 0x1B5F DUP3 DUP3 SLOAD PUSH2 0x3EFF JUMP JUMPDEST SWAP1 SSTORE DUP11 DUP1 DUP1 PUSH2 0x1B04 JUMP JUMPDEST PUSH1 0x40 MLOAD PUSH3 0x461BCD PUSH1 0xE5 SHL DUP2 MSTORE PUSH1 0x4 DUP2 ADD DUP6 SWAP1 MSTORE PUSH1 0x9 PUSH1 0x24 DUP3 ADD MSTORE PUSH9 0x2737903BB4B73732B9 PUSH1 0xB9 SHL PUSH1 0x44 DUP3 ADD MSTORE PUSH1 0x64 SWAP1 REVERT JUMPDEST PUSH1 0x40 MLOAD PUSH3 0x461BCD PUSH1 0xE5 SHL DUP2 MSTORE PUSH1 0x4 DUP2 ADD DUP4 SWAP1 MSTORE PUSH1 0x9 PUSH1 0x24 DUP3 ADD MSTORE PUSH9 0x4E6F74207265616479 PUSH1 0xB8 SHL PUSH1 0x44 DUP3 ADD MSTORE PUSH1 0x64 SWAP1 REVERT JUMPDEST CALLVALUE PUSH2 0x31B JUMPI PUSH1 0x0 CALLDATASIZE PUSH1 0x3 NOT ADD SLT PUSH2 0x31B JUMPI PUSH2 0x1BE4 PUSH2 0x417D JUMP JUMPDEST PUSH1 0x7 SLOAD DUP1 ISZERO PUSH2 0x1C39 JUMPI PUSH2 0x1C37 SWAP1 PUSH1 0x0 PUSH1 0x7 SSTORE PUSH1 0x1 DUP1 PUSH1 0xA0 SHL SUB DUP1 PUSH1 0x6 SLOAD AND SWAP1 DUP2 PUSH32 0xA087657E3D85162090FFD700FBFDF5070D816F63AA5DA00063F6FFD369C8A6DB PUSH1 0x20 PUSH1 0x40 MLOAD DUP7 DUP2 MSTORE LOG2 PUSH1 0x2 SLOAD AND PUSH2 0x4272 JUMP JUMPDEST STOP JUMPDEST PUSH1 0x40 MLOAD PUSH3 0x461BCD PUSH1 0xE5 SHL DUP2 MSTORE PUSH1 0x20 PUSH1 0x4 DUP3 ADD MSTORE PUSH1 0x7 PUSH1 0x24 DUP3 ADD MSTORE PUSH7 0x4E6F2066656573 PUSH1 0xC8 SHL PUSH1 0x44 DUP3 ADD MSTORE PUSH1 0x64 SWAP1 REVERT JUMPDEST CALLVALUE PUSH2 0x31B JUMPI PUSH1 0x0 CALLDATASIZE PUSH1 0x3 NOT ADD SLT PUSH2 0x31B JUMPI PUSH1 0x6 SLOAD PUSH1 0x40 MLOAD PUSH1 0x1 PUSH1 0x1 PUSH1 0xA0 SHL SUB SWAP1 SWAP2 AND DUP2 MSTORE PUSH1 0x20 SWAP1 RETURN JUMPDEST CALLVALUE PUSH2 0x31B JUMPI PUSH2 0x1C9F CALLDATASIZE PUSH2 0x3AE7 JUMP JUMPDEST SWAP2 PUSH1 0x0 MSTORE PUSH1 0x12 PUSH1 0x20 MSTORE PUSH1 0x40 PUSH1 0x0 KECCAK256 SWAP1 PUSH1 0x0 MSTORE PUSH1 0x20 MSTORE PUSH1 0x40 PUSH1 0x0 KECCAK256 SWAP1 PUSH1 0x1 DUP1 PUSH1 0xA0 SHL SUB AND PUSH1 0x0 MSTORE PUSH1 0x20 MSTORE PUSH1 0x20 PUSH1 0xFF PUSH1 0x40 PUSH1 0x0 KECCAK256 SLOAD AND PUSH1 0x40 MLOAD SWAP1 ISZERO ISZERO DUP2 MSTORE RETURN JUMPDEST CALLVALUE PUSH2 0x31B JUMPI PUSH1 0x20 CALLDATASIZE PUSH1 0x3 NOT ADD SLT PUSH2 0x31B JUMPI PUSH1 0x4 CALLDATALOAD PUSH1 0x0 MSTORE PUSH1 0xB PUSH1 0x20 MSTORE PUSH1 0x20 PUSH1 0x40 PUSH1 0x0 KECCAK256 SLOAD PUSH1 0x40 MLOAD SWAP1 DUP2 MSTORE RETURN JUMPDEST CALLVALUE PUSH2 0x31B JUMPI PUSH1 0x60 CALLDATASIZE PUSH1 0x3 NOT ADD SLT PUSH2 0x31B JUMPI PUSH1 0x4 CALLDATALOAD PUSH1 0x24 CALLDATALOAD PUSH1 0x44 CALLDATALOAD PUSH1 0x3 DUP2 LT ISZERO PUSH2 0x31B JUMPI PUSH32 0xA2191EFE487E08892E9D1920150485AAF7591F089BDDE895929D692EA8C4E08A SWAP2 PUSH2 0x1DA7 PUSH1 0x40 SWAP3 DUP6 PUSH1 0x0 MSTORE PUSH1 0x9 PUSH1 0x20 MSTORE PUSH2 0x1D98 DUP2 PUSH1 0x9 DUP7 PUSH1 0x0 KECCAK256 PUSH2 0x1D7E PUSH1 0x1 DUP1 PUSH1 0xA0 SHL SUB PUSH1 0x3 DUP4 ADD SLOAD AND CALLER EQ PUSH2 0x40EB JUMP JUMPDEST PUSH2 0x1D8C PUSH2 0x7D0 DUP9 GT ISZERO PUSH2 0x412A JUMP JUMPDEST DUP7 PUSH1 0x4 DUP3 ADD SSTORE ADD PUSH2 0x4165 JUMP JUMPDEST DUP4 MLOAD SWAP3 DUP4 MSTORE PUSH1 0x20 DUP4 ADD SWAP1 PUSH2 0x3D02 JUMP JUMPDEST LOG2 STOP JUMPDEST CALLVALUE PUSH2 0x31B JUMPI PUSH2 0x1DB8 CALLDATASIZE PUSH2 0x3AD1 JUMP JUMPDEST SWAP1 PUSH1 0x0 MSTORE PUSH1 0x1B PUSH1 0x20 MSTORE PUSH1 0x40 PUSH1 0x0 KECCAK256 SWAP1 PUSH1 0x0 MSTORE PUSH1 0x20 MSTORE PUSH1 0x20 PUSH1 0x40 PUSH1 0x0 KECCAK256 SLOAD PUSH1 0x40 MLOAD SWAP1 DUP2 MSTORE RETURN JUMPDEST CALLVALUE PUSH2 0x31B JUMPI PUSH1 0x0 CALLDATASIZE PUSH1 0x3 NOT ADD SLT PUSH2 0x31B JUMPI PUSH2 0x1DF6 PUSH2 0x417D JUMP JUMPDEST PUSH1 0x1 DUP1 SLOAD PUSH1 0x1 PUSH1 0x1 PUSH1 0xA0 SHL SUB NOT DUP2 AND SWAP1 SWAP2 SSTORE PUSH1 0x0 SWAP1 PUSH1 0x1 PUSH1 0x1 PUSH1 0xA0 SHL SUB AND PUSH32 0x8BE0079C531659141344CD1FD0A4F28419497F9722A3DAAFE3B4186F6B6457E0 DUP3 DUP1 LOG3 STOP JUMPDEST CALLVALUE PUSH2 0x31B JUMPI PUSH1 0x20 DUP1 PUSH1 0x3 NOT CALLDATASIZE ADD SLT PUSH2 0x31B JUMPI PUSH1 0x4 CALLDATALOAD SWAP1 DUP2 PUSH1 0x0 MSTORE PUSH1 0x9 DUP2 MSTORE PUSH1 0xFF PUSH1 0x9 PUSH1 0x40 PUSH1 0x0 KECCAK256 ADD SLOAD AND PUSH1 0x3 DUP2 LT ISZERO PUSH2 0x5C1 JUMPI PUSH2 0x1E77 SWAP1 ISZERO PUSH2 0x3F8A JUMP JUMPDEST DUP2 PUSH1 0x0 MSTORE PUSH1 0xE DUP2 MSTORE PUSH1 0x40 PUSH1 0x0 KECCAK256 CALLER PUSH1 0x0 MSTORE DUP2 MSTORE PUSH1 0xFF PUSH1 0x40 PUSH1 0x0 KECCAK256 SLOAD AND PUSH2 0x1F18 JUMPI PUSH1 0x9 SWAP1 DUP3 PUSH1 0x0 MSTORE PUSH1 0xE DUP2 MSTORE PUSH1 0x40 PUSH1 0x0 KECCAK256 CALLER PUSH1 0x0 MSTORE DUP2 MSTORE PUSH1 0x40 PUSH1 0x0 KECCAK256 PUSH1 0x1 PUSH1 0xFF NOT DUP3 SLOAD AND OR SWAP1 SSTORE DUP3 PUSH1 0x0 MSTORE PUSH1 0xF DUP2 MSTORE PUSH1 0x40 PUSH1 0x0 KECCAK256 PUSH2 0x1ED4 DUP2 SLOAD PUSH2 0x3F0C JUMP JUMPDEST SWAP1 SSTORE DUP3 PUSH1 0x0 MSTORE MSTORE PUSH1 0x8 PUSH1 0x40 PUSH1 0x0 KECCAK256 ADD PUSH2 0x1EED DUP2 SLOAD PUSH2 0x3F0C JUMP JUMPDEST SWAP1 SSTORE CALLER SWAP1 PUSH32 0xBAAE7A2BE0ECFA867D60FCDAE77877A3DDA7484C504290098D77F256415ABAB2 PUSH1 0x0 DUP1 LOG3 STOP JUMPDEST PUSH1 0x64 SWAP1 PUSH1 0x40 MLOAD SWAP1 PUSH3 0x461BCD PUSH1 0xE5 SHL DUP3 MSTORE PUSH1 0x4 DUP3 ADD MSTORE PUSH1 0x12 PUSH1 0x24 DUP3 ADD MSTORE PUSH18 0x105B1C9958591E481C9959DA5CDD195C9959 PUSH1 0x72 SHL PUSH1 0x44 DUP3 ADD MSTORE REVERT JUMPDEST CALLVALUE PUSH2 0x31B JUMPI PUSH1 0x40 CALLDATASIZE PUSH1 0x3 NOT ADD SLT PUSH2 0x31B JUMPI PUSH1 0x4 CALLDATALOAD PUSH2 0x1F6D PUSH2 0x3ABB JUMP JUMPDEST SWAP1 DUP1 PUSH1 0x0 MSTORE PUSH1 0xD PUSH1 0x20 PUSH1 0x9 DUP2 MSTORE PUSH1 0x1 DUP1 PUSH1 0xA0 SHL SUB DUP1 PUSH1 0x3 PUSH1 0x40 PUSH1 0x0 KECCAK256 ADD SLOAD AND CALLER EQ DUP1 ISZERO PUSH2 0x2022 JUMPI JUMPDEST PUSH2 0x1F9E SWAP1 PUSH2 0x3DC3 JUMP JUMPDEST DUP4 PUSH1 0x0 MSTORE PUSH1 0xC DUP3 MSTORE PUSH1 0x40 PUSH1 0x0 KECCAK256 SWAP5 AND SWAP4 DUP5 PUSH1 0x0 MSTORE DUP2 MSTORE PUSH2 0x1FC5 PUSH1 0xFF PUSH1 0x40 PUSH1 0x0 KECCAK256 SLOAD AND PUSH2 0x3E41 JUMP JUMPDEST DUP3 PUSH1 0x0 MSTORE PUSH1 0xC DUP2 MSTORE PUSH1 0x40 PUSH1 0x0 KECCAK256 DUP5 PUSH1 0x0 MSTORE DUP2 MSTORE PUSH1 0x40 PUSH1 0x0 KECCAK256 PUSH1 0xFF NOT DUP2 SLOAD AND SWAP1 SSTORE DUP3 PUSH1 0x0 MSTORE MSTORE PUSH1 0x40 PUSH1 0x0 KECCAK256 PUSH2 0x1FF9 DUP2 SLOAD PUSH2 0x40DE JUMP JUMPDEST SWAP1 SSTORE PUSH32 0x7126BEF88D1149CCDFF9681ED5AECD3BA5AE70C96517551DE250AF09CEBD1A0B PUSH1 0x0 DUP1 LOG3 STOP JUMPDEST POP PUSH1 0x1 SLOAD DUP2 AND CALLER EQ PUSH2 0x1F95 JUMP JUMPDEST CALLVALUE PUSH2 0x31B JUMPI PUSH1 0x80 CALLDATASIZE PUSH1 0x3 NOT ADD SLT PUSH2 0x31B JUMPI PUSH1 0x4 CALLDATALOAD PUSH1 0x24 SWAP1 DUP2 CALLDATALOAD PUSH1 0x44 SWAP1 DUP2 CALLDATALOAD SWAP2 PUSH1 0x64 DUP5 PUSH1 0x0 MSTORE PUSH1 0x20 SWAP1 PUSH1 0xA DUP3 MSTORE PUSH1 0x40 PUSH1 0x0 KECCAK256 SWAP5 PUSH1 0x9 DUP7 ADD SWAP1 PUSH1 0xFF DUP3 SLOAD AND PUSH1 0x6 DUP2 LT ISZERO PUSH2 0x2475 JUMPI DUP1 PUSH1 0x2 PUSH2 0x2089 SWAP3 EQ SWAP1 DUP2 ISZERO PUSH2 0x246A JUMPI POP PUSH2 0x3E00 JUMP JUMPDEST PUSH1 0x1 DUP8 ADD SWAP4 DUP5 SLOAD PUSH1 0x0 MSTORE PUSH1 0xC DUP2 MSTORE PUSH1 0x40 PUSH1 0x0 KECCAK256 CALLER PUSH1 0x0 MSTORE DUP2 MSTORE PUSH2 0x20B3 PUSH1 0xFF PUSH1 0x40 PUSH1 0x0 KECCAK256 SLOAD AND PUSH2 0x3E41 JUMP JUMPDEST DUP9 PUSH1 0x0 MSTORE PUSH1 0xB DUP2 MSTORE PUSH2 0x20CB PUSH1 0x40 PUSH1 0x0 KECCAK256 SLOAD DUP9 LT PUSH2 0x3E7F JUMP JUMPDEST PUSH2 0x20D9 PUSH2 0x2710 DUP4 GT ISZERO PUSH2 0x404F JUMP JUMPDEST DUP9 PUSH1 0x0 MSTORE PUSH1 0xB DUP2 MSTORE PUSH2 0x20EF DUP8 PUSH1 0x40 PUSH1 0x0 KECCAK256 PUSH2 0x3D0F JUMP JUMPDEST POP SWAP4 PUSH1 0x3 DUP6 ADD SWAP7 PUSH2 0x2104 PUSH1 0xFF DUP10 SLOAD AND ISZERO PUSH2 0x3EBB JUMP JUMPDEST DUP11 PUSH1 0x0 MSTORE PUSH1 0x1B DUP4 MSTORE PUSH1 0x40 PUSH1 0x0 KECCAK256 DUP10 PUSH1 0x0 MSTORE DUP4 MSTORE PUSH2 0x2129 PUSH1 0x40 PUSH1 0x0 KECCAK256 SLOAD PUSH1 0x1C SLOAD SWAP1 PUSH2 0x3EFF JUMP JUMPDEST PUSH2 0x2135 PUSH1 0x1D SLOAD DUP3 PUSH2 0x3EFF JUMP JUMPDEST SWAP1 TIMESTAMP GT ISZERO PUSH2 0x2429 JUMPI TIMESTAMP GT PUSH2 0x23F4 JUMPI DUP11 PUSH1 0x0 MSTORE PUSH1 0x18 DUP4 MSTORE PUSH1 0x40 PUSH1 0x0 KECCAK256 DUP10 PUSH1 0x0 MSTORE DUP4 MSTORE PUSH1 0x40 PUSH1 0x0 KECCAK256 CALLER PUSH1 0x0 MSTORE DUP4 MSTORE PUSH1 0x40 PUSH1 0x0 KECCAK256 SWAP2 DUP3 SLOAD SWAP2 DUP3 ISZERO PUSH2 0x23C1 JUMPI PUSH1 0xFF SWAP12 SWAP13 SWAP14 PUSH1 0x2 DUP6 ADD SWAP4 DUP5 SLOAD SWAP14 DUP15 AND PUSH2 0x238D JUMPI PUSH1 0x40 MLOAD DUP8 DUP2 ADD SWAP1 DUP10 DUP3 MSTORE DUP6 CALLDATALOAD PUSH1 0x40 DUP3 ADD MSTORE PUSH1 0x40 DUP2 MSTORE PUSH2 0x21A1 DUP2 PUSH2 0x3C21 JUMP JUMPDEST MLOAD SWAP1 KECCAK256 SUB PUSH2 0x235D JUMPI POP POP POP PUSH1 0x3 PUSH1 0x8 SWAP4 SWAP3 DUP6 SWAP3 PUSH1 0x1 PUSH1 0xFF NOT DUP1 SWAP15 AND OR SWAP1 SSTORE ADD SSTORE DUP11 PUSH1 0x0 MSTORE PUSH1 0x1A DUP2 MSTORE PUSH1 0x40 PUSH1 0x0 KECCAK256 DUP9 PUSH1 0x0 MSTORE DUP2 MSTORE PUSH1 0x40 PUSH1 0x0 KECCAK256 PUSH2 0x21E3 DUP2 SLOAD PUSH2 0x3F0C JUMP JUMPDEST SWAP1 SSTORE DUP11 PUSH1 0x0 MSTORE PUSH1 0x11 DUP2 MSTORE PUSH1 0x40 PUSH1 0x0 KECCAK256 DUP9 PUSH1 0x0 MSTORE DUP2 MSTORE PUSH1 0x40 PUSH1 0x0 KECCAK256 CALLER PUSH1 0x0 MSTORE DUP2 MSTORE DUP3 PUSH1 0x40 PUSH1 0x0 KECCAK256 SSTORE DUP11 PUSH1 0x0 MSTORE PUSH1 0x12 DUP2 MSTORE PUSH1 0x40 PUSH1 0x0 KECCAK256 DUP9 PUSH1 0x0 MSTORE DUP2 MSTORE PUSH1 0x40 PUSH1 0x0 KECCAK256 CALLER PUSH1 0x0 MSTORE DUP2 MSTORE PUSH1 0x40 PUSH1 0x0 KECCAK256 PUSH1 0x1 DUP11 DUP3 SLOAD AND OR SWAP1 SSTORE DUP11 PUSH1 0x0 MSTORE PUSH1 0x13 DUP2 MSTORE PUSH1 0x40 PUSH1 0x0 KECCAK256 DUP9 PUSH1 0x0 MSTORE DUP2 MSTORE PUSH2 0x2257 CALLER PUSH1 0x40 PUSH1 0x0 KECCAK256 PUSH2 0x40A3 JUMP JUMPDEST PUSH1 0x5 DUP6 ADD SWAP6 PUSH2 0x2266 DUP8 SLOAD PUSH2 0x3F0C JUMP JUMPDEST SWAP4 DUP5 DUP9 SSTORE PUSH1 0x40 MLOAD SWAP1 DUP11 DUP3 MSTORE DUP4 DUP3 ADD MSTORE DUP13 PUSH32 0x23DEF086B3DC14DBD150F69D2E6AF648DFC789CDF251BA7D720FEECBC0625F85 PUSH1 0x40 CALLER SWAP4 LOG3 SLOAD PUSH1 0x0 MSTORE MSTORE PUSH1 0x40 PUSH1 0x0 KECCAK256 SLOAD DUP1 ISZERO PUSH2 0x2355 JUMPI JUMPDEST DUP2 LT ISZERO PUSH2 0x22B7 JUMPI STOP JUMPDEST PUSH32 0xFF2FC693BB2D4A09F21F0C403FCE5ECB4B5B0B57E81C7253DEB5386BB8A8AE77 SWAP8 PUSH2 0x799 SWAP6 PUSH1 0x1 PUSH2 0x22EC PUSH1 0xA SWAP5 DUP11 DUP15 PUSH2 0x42FE JUMP JUMPDEST SWAP10 DUP11 PUSH1 0x2 DUP9 ADD SSTORE DUP3 SLOAD AND OR SWAP1 SSTORE ADD SWAP2 DUP7 DUP4 SLOAD DUP2 GT PUSH2 0x2327 JUMPI JUMPDEST POP POP POP POP SLOAD PUSH1 0x40 MLOAD SWAP4 DUP5 SWAP4 DUP5 PUSH1 0x40 SWAP2 SWAP5 SWAP4 SWAP3 PUSH1 0x60 DUP3 ADD SWAP6 DUP3 MSTORE PUSH1 0x20 DUP3 ADD MSTORE ADD MSTORE JUMP JUMPDEST SWAP1 SWAP3 SSTORE SWAP1 SLOAD DUP2 SLOAD PUSH2 0x100 PUSH1 0x1 PUSH1 0xA8 SHL SUB NOT AND PUSH1 0x8 SWAP2 SWAP1 SWAP2 SHL PUSH2 0x100 PUSH1 0x1 PUSH1 0xA8 SHL SUB AND OR SWAP1 SSTORE DUP7 DUP1 DUP1 DUP7 PUSH2 0x2305 JUMP JUMPDEST POP PUSH1 0x2 PUSH2 0x22AE JUMP JUMPDEST DUP6 SWAP2 PUSH1 0xD PUSH13 0x90C2E6D040DAD2E6DAC2E8C6D PUSH1 0x9B SHL SWAP3 PUSH1 0x40 MLOAD SWAP5 PUSH3 0x461BCD PUSH1 0xE5 SHL DUP7 MSTORE PUSH1 0x4 DUP7 ADD MSTORE DUP5 ADD MSTORE DUP3 ADD MSTORE REVERT JUMPDEST POP DUP6 SWAP2 PUSH1 0x10 PUSH16 0x105B1C9958591E481C995D99585B1959 PUSH1 0x82 SHL SWAP3 PUSH1 0x40 MLOAD SWAP5 PUSH3 0x461BCD PUSH1 0xE5 SHL DUP7 MSTORE PUSH1 0x4 DUP7 ADD MSTORE DUP5 ADD MSTORE DUP3 ADD MSTORE REVERT JUMPDEST PUSH15 0x139BC818DBDB5B5A5D08199BDD5B99 PUSH1 0x8A SHL DUP6 SWAP2 DUP16 PUSH1 0xF SWAP1 PUSH1 0x40 MLOAD SWAP5 PUSH3 0x461BCD PUSH1 0xE5 SHL DUP7 MSTORE PUSH1 0x4 DUP7 ADD MSTORE DUP5 ADD MSTORE DUP3 ADD MSTORE REVERT JUMPDEST PUSH18 0x14995D99585B081C1A185CD948195B991959 PUSH1 0x72 SHL DUP4 SWAP2 PUSH1 0x12 DUP15 PUSH1 0x40 MLOAD SWAP5 PUSH3 0x461BCD PUSH1 0xE5 SHL DUP7 MSTORE PUSH1 0x4 DUP7 ADD MSTORE DUP5 ADD MSTORE DUP3 ADD MSTORE REVERT JUMPDEST POP PUSH32 0x436F6D6D6974207068617365206E6F7420656E64656420796574000000000000 DUP4 SWAP2 PUSH1 0x1A DUP15 PUSH1 0x40 MLOAD SWAP5 PUSH3 0x461BCD PUSH1 0xE5 SHL DUP7 MSTORE PUSH1 0x4 DUP7 ADD MSTORE DUP5 ADD MSTORE DUP3 ADD MSTORE REVERT JUMPDEST PUSH1 0x1 SWAP2 POP EQ DUP12 PUSH2 0x956 JUMP JUMPDEST DUP10 PUSH4 0x4E487B71 PUSH1 0xE0 SHL PUSH1 0x0 MSTORE PUSH1 0x21 PUSH1 0x4 MSTORE PUSH1 0x0 REVERT JUMPDEST PUSH2 0x3A85 JUMP JUMPDEST CALLVALUE PUSH2 0x31B JUMPI PUSH1 0x20 CALLDATASIZE PUSH1 0x3 NOT ADD SLT PUSH2 0x31B JUMPI PUSH2 0x24A8 PUSH2 0x41D5 JUMP JUMPDEST PUSH1 0x4 CALLDATALOAD PUSH1 0x0 MSTORE PUSH1 0xA PUSH1 0x20 MSTORE PUSH1 0x40 PUSH1 0x0 KECCAK256 PUSH1 0x9 DUP2 ADD SWAP1 DUP2 SLOAD SWAP1 PUSH1 0xFF DUP3 AND PUSH1 0x6 DUP2 LT ISZERO SWAP1 DUP2 PUSH2 0x5C1 JUMPI DUP1 ISZERO SWAP2 DUP3 ISZERO PUSH2 0x2612 JUMPI JUMPDEST DUP3 ISZERO PUSH2 0x2601 JUMPI JUMPDEST POP POP ISZERO PUSH2 0x25C7 JUMPI PUSH1 0x8 DUP2 ADD SLOAD TIMESTAMP GT ISZERO PUSH2 0x258B JUMPI PUSH1 0x1 PUSH1 0x1 PUSH1 0xA0 SHL SUB PUSH1 0x8 DUP4 SWAP1 SHR DUP2 AND PUSH2 0x2552 JUMPI PUSH2 0x575 SWAP4 PUSH1 0x5 PUSH2 0x253A PUSH2 0x252F PUSH2 0x2524 PUSH1 0x4 DUP8 ADD SLOAD DUP5 DUP9 ADD SLOAD SWAP1 PUSH2 0x3EFF JUMP JUMPDEST PUSH1 0x6 DUP8 ADD SLOAD SWAP1 PUSH2 0x3EFF JUMP JUMPDEST PUSH1 0x7 DUP7 ADD SLOAD SWAP1 PUSH2 0x3EFF JUMP JUMPDEST SWAP5 PUSH1 0xFF NOT AND OR SWAP1 SSTORE PUSH1 0x2 DUP2 DUP2 SLOAD AND SWAP3 ADD SLOAD AND SWAP1 PUSH2 0x4272 JUMP JUMPDEST PUSH1 0x40 MLOAD PUSH3 0x461BCD PUSH1 0xE5 SHL DUP2 MSTORE PUSH1 0x20 PUSH1 0x4 DUP3 ADD MSTORE PUSH1 0x11 PUSH1 0x24 DUP3 ADD MSTORE PUSH17 0x2A30B9B5903430B99030903BB4B73732B9 PUSH1 0x79 SHL PUSH1 0x44 DUP3 ADD MSTORE PUSH1 0x64 SWAP1 REVERT JUMPDEST PUSH1 0x40 MLOAD PUSH3 0x461BCD PUSH1 0xE5 SHL DUP2 MSTORE PUSH1 0x20 PUSH1 0x4 DUP3 ADD MSTORE PUSH1 0x14 PUSH1 0x24 DUP3 ADD MSTORE PUSH20 0x15185CDAC81B9BDD081E595D08195E1C1A5C9959 PUSH1 0x62 SHL PUSH1 0x44 DUP3 ADD MSTORE PUSH1 0x64 SWAP1 REVERT JUMPDEST PUSH1 0x40 MLOAD PUSH3 0x461BCD PUSH1 0xE5 SHL DUP2 MSTORE PUSH1 0x20 PUSH1 0x4 DUP3 ADD MSTORE PUSH1 0x12 PUSH1 0x24 DUP3 ADD MSTORE PUSH18 0x5461736B206E6F7420657870697261626C65 PUSH1 0x70 SHL PUSH1 0x44 DUP3 ADD MSTORE PUSH1 0x64 SWAP1 REVERT JUMPDEST SWAP1 SWAP2 POP PUSH2 0x5C1 JUMPI PUSH1 0x2 EQ DUP5 DUP1 PUSH2 0x24E0 JUMP JUMPDEST POP PUSH1 0x1 DUP2 EQ SWAP2 POP PUSH1 0x0 PUSH2 0x24D9 JUMP JUMPDEST CALLVALUE PUSH2 0x31B JUMPI PUSH1 0x80 CALLDATASIZE PUSH1 0x3 NOT ADD SLT PUSH2 0x31B JUMPI PUSH1 0x24 CALLDATALOAD PUSH1 0x1 PUSH1 0x1 PUSH1 0x40 SHL SUB DUP2 GT PUSH2 0x31B JUMPI PUSH2 0x2650 SWAP1 CALLDATASIZE SWAP1 PUSH1 0x4 ADD PUSH2 0x3D41 JUMP JUMPDEST PUSH2 0x2658 PUSH2 0x41D5 JUMP JUMPDEST PUSH2 0x2660 PUSH2 0x422B JUMP JUMPDEST PUSH1 0x4 CALLDATALOAD PUSH1 0x0 MSTORE PUSH1 0x9 PUSH1 0x20 MSTORE PUSH1 0x40 PUSH1 0x0 KECCAK256 SWAP2 PUSH1 0xFF PUSH1 0x9 DUP5 ADD SLOAD AND PUSH1 0x3 DUP2 LT ISZERO PUSH2 0x5C1 JUMPI PUSH2 0x268C SWAP1 ISZERO PUSH2 0x3F8A JUMP JUMPDEST PUSH1 0x5 DUP4 ADD SLOAD PUSH1 0x44 CALLDATALOAD LT PUSH2 0x2A4E JUMPI PUSH1 0x64 CALLDATALOAD ISZERO ISZERO DUP1 PUSH2 0x2A3F JUMPI JUMPDEST ISZERO PUSH2 0x2A07 JUMPI PUSH2 0x1F4 DUP1 PUSH1 0x44 CALLDATALOAD MUL SWAP4 PUSH1 0x44 CALLDATALOAD ISZERO SWAP2 PUSH1 0x44 CALLDATALOAD DUP7 DIV EQ DUP3 OR ISZERO PUSH2 0x7F7 JUMPI PUSH2 0x2710 SWAP1 PUSH2 0x5DC SWAP3 DUP4 PUSH1 0x44 CALLDATALOAD MUL SWAP4 PUSH1 0x44 CALLDATALOAD DUP6 DIV EQ OR ISZERO PUSH2 0x7F7 JUMPI PUSH2 0x26EF PUSH1 0x4 DUP4 SWAP3 ADD SLOAD PUSH1 0x44 CALLDATALOAD PUSH2 0x3FCA JUMP JUMPDEST DIV SWAP2 PUSH2 0x274E PUSH2 0x2711 DUP5 PUSH2 0x270C DUP6 DUP6 DIV PUSH2 0x270C DUP8 DUP13 DIV PUSH1 0x44 CALLDATALOAD PUSH2 0x3EFF JUMP JUMPDEST PUSH2 0x3EFF JUMP JUMPDEST PUSH1 0x2 SLOAD PUSH1 0x40 MLOAD PUSH4 0x23B872DD PUSH1 0xE0 SHL PUSH1 0x20 DUP3 ADD MSTORE CALLER PUSH1 0x24 DUP3 ADD MSTORE ADDRESS PUSH1 0x44 DUP3 ADD MSTORE PUSH1 0x64 DUP1 DUP3 ADD SWAP4 SWAP1 SWAP4 MSTORE SWAP2 DUP3 MSTORE PUSH1 0x1 PUSH1 0x1 PUSH1 0xA0 SHL SUB AND PUSH2 0x570 DUP3 PUSH2 0x3C06 JUMP JUMPDEST DUP2 PUSH1 0x4 SLOAD SWAP7 PUSH2 0x275C DUP9 PUSH2 0x3F0C JUMP JUMPDEST PUSH1 0x4 SSTORE PUSH2 0x2794 PUSH2 0x276E PUSH1 0x64 CALLDATALOAD TIMESTAMP PUSH2 0x3EFF JUMP JUMPDEST SWAP7 PUSH1 0x40 MLOAD SWAP9 PUSH2 0x277C DUP11 PUSH2 0x3BB3 JUMP JUMPDEST DUP11 DUP11 MSTORE PUSH1 0x4 CALLDATALOAD PUSH1 0x20 DUP12 ADD MSTORE CALLER PUSH1 0x40 DUP12 ADD MSTORE CALLDATASIZE SWAP2 PUSH2 0x4018 JUMP JUMPDEST PUSH1 0x60 DUP9 ADD MSTORE PUSH1 0x44 CALLDATALOAD PUSH1 0x80 DUP9 ADD MSTORE DIV PUSH1 0xA0 DUP7 ADD MSTORE DIV PUSH1 0xC0 DUP5 ADD MSTORE PUSH1 0xE0 DUP4 ADD MSTORE PUSH2 0x100 DUP3 ADD MSTORE PUSH1 0x0 PUSH2 0x120 DUP3 ADD MSTORE PUSH1 0x0 PUSH2 0x140 DUP3 ADD MSTORE PUSH1 0x0 PUSH2 0x160 DUP3 ADD MSTORE TIMESTAMP PUSH2 0x180 DUP3 ADD MSTORE DUP2 PUSH1 0x0 MSTORE PUSH1 0xA PUSH1 0x20 MSTORE PUSH1 0x40 PUSH1 0x0 KECCAK256 SWAP2 DUP2 MLOAD DUP4 SSTORE PUSH1 0x20 DUP3 ADD MLOAD PUSH1 0x1 DUP5 ADD SSTORE PUSH1 0x2 DUP4 ADD PUSH1 0x1 DUP1 PUSH1 0xA0 SHL SUB PUSH1 0x40 DUP5 ADD MLOAD AND PUSH1 0x1 PUSH1 0x1 PUSH1 0x60 SHL SUB PUSH1 0xA0 SHL DUP3 SLOAD AND OR SWAP1 SSTORE PUSH1 0x60 DUP3 ADD MLOAD SWAP3 DUP4 MLOAD PUSH1 0x1 PUSH1 0x1 PUSH1 0x40 SHL SUB DUP2 GT PUSH2 0x1249 JUMPI PUSH2 0x2839 PUSH1 0x3 DUP4 ADD SLOAD PUSH2 0x3B5E JUMP JUMPDEST PUSH1 0x1F DUP2 GT PUSH2 0x29C0 JUMPI JUMPDEST POP PUSH1 0x20 PUSH1 0x1F DUP3 GT PUSH1 0x1 EQ PUSH2 0x2951 JUMPI DUP2 SWAP3 SWAP4 SWAP5 SWAP6 PUSH1 0x0 SWAP3 PUSH2 0x2946 JUMPI JUMPDEST POP POP DUP2 PUSH1 0x1 SHL SWAP2 PUSH1 0x0 NOT SWAP1 PUSH1 0x3 SHL SHR NOT AND OR PUSH1 0x3 DUP3 ADD SSTORE JUMPDEST PUSH1 0x80 DUP4 ADD MLOAD PUSH1 0x4 DUP3 ADD SSTORE PUSH1 0xA0 DUP4 ADD MLOAD PUSH1 0x5 DUP3 ADD SSTORE PUSH1 0xC0 DUP4 ADD MLOAD PUSH1 0x6 DUP3 ADD SSTORE PUSH1 0xE0 DUP4 ADD MLOAD PUSH1 0x7 DUP3 ADD SSTORE PUSH2 0x100 DUP4 ADD MLOAD PUSH1 0x8 DUP3 ADD SSTORE PUSH1 0x9 DUP2 ADD PUSH2 0x120 DUP5 ADD MLOAD SWAP1 PUSH1 0x6 DUP3 LT ISZERO PUSH2 0x5C1 JUMPI DUP1 SLOAD PUSH2 0x140 DUP7 ADD MLOAD PUSH2 0x100 PUSH1 0x1 PUSH1 0xA8 SHL SUB PUSH1 0x8 SWAP2 SWAP1 SWAP2 SHL AND PUSH1 0xFF SWAP4 SWAP1 SWAP4 AND PUSH1 0x1 PUSH1 0x1 PUSH1 0xA8 SHL SUB NOT SWAP1 SWAP2 AND OR SWAP2 SWAP1 SWAP2 OR SWAP1 SSTORE PUSH1 0x20 SWAP3 PUSH1 0xB SWAP1 PUSH2 0x180 SWAP1 PUSH2 0x160 DUP2 ADD MLOAD PUSH1 0xA DUP6 ADD SSTORE ADD MLOAD SWAP2 ADD SSTORE PUSH1 0x40 MLOAD PUSH1 0x44 CALLDATALOAD DUP2 MSTORE CALLER SWAP1 DUP3 PUSH32 0x428F55877EE911B6C5ACC83EF215F08675D3787BDFAC5018BBE41876DF710F49 DUP6 PUSH1 0x4 CALLDATALOAD SWAP4 LOG4 PUSH1 0x1 PUSH1 0x0 SSTORE PUSH1 0x40 MLOAD SWAP1 DUP2 MSTORE RETURN JUMPDEST ADD MLOAD SWAP1 POP DUP6 DUP1 PUSH2 0x285D JUMP JUMPDEST PUSH1 0x3 DUP4 ADD PUSH1 0x0 MSTORE PUSH1 0x20 PUSH1 0x0 KECCAK256 SWAP1 PUSH1 0x0 JUMPDEST PUSH1 0x1F NOT DUP5 AND DUP2 LT PUSH2 0x29A8 JUMPI POP PUSH1 0x1 SWAP4 SWAP5 SWAP6 SWAP7 DUP4 PUSH1 0x1F NOT DUP2 AND LT PUSH2 0x298F JUMPI JUMPDEST POP POP POP DUP2 SHL ADD PUSH1 0x3 DUP3 ADD SSTORE PUSH2 0x2875 JUMP JUMPDEST ADD MLOAD PUSH1 0x0 NOT PUSH1 0xF8 DUP5 PUSH1 0x3 SHL AND SHR NOT AND SWAP1 SSTORE DUP6 DUP1 DUP1 PUSH2 0x297F JUMP JUMPDEST SWAP1 SWAP2 PUSH1 0x20 PUSH1 0x1 DUP2 SWAP3 DUP6 DUP12 ADD MLOAD DUP2 SSTORE ADD SWAP4 ADD SWAP2 ADD PUSH2 0x2961 JUMP JUMPDEST PUSH1 0x3 DUP4 ADD PUSH1 0x0 MSTORE PUSH1 0x20 PUSH1 0x0 KECCAK256 PUSH1 0x1F DUP4 ADD PUSH1 0x5 SHR DUP2 ADD PUSH1 0x20 DUP5 LT PUSH2 0x2A00 JUMPI JUMPDEST PUSH1 0x1F DUP4 ADD PUSH1 0x5 SHR DUP3 ADD DUP2 LT PUSH2 0x29F4 JUMPI POP POP PUSH2 0x2842 JUMP JUMPDEST PUSH1 0x0 DUP2 SSTORE PUSH1 0x1 ADD PUSH2 0x29DE JUMP JUMPDEST POP DUP1 PUSH2 0x29DE JUMP JUMPDEST PUSH1 0x40 MLOAD PUSH3 0x461BCD PUSH1 0xE5 SHL DUP2 MSTORE PUSH1 0x20 PUSH1 0x4 DUP3 ADD MSTORE PUSH1 0x10 PUSH1 0x24 DUP3 ADD MSTORE PUSH16 0x24B73B30B634B210323AB930BA34B7B7 PUSH1 0x81 SHL PUSH1 0x44 DUP3 ADD MSTORE PUSH1 0x64 SWAP1 REVERT JUMPDEST POP PUSH3 0x93A80 PUSH1 0x64 CALLDATALOAD GT ISZERO PUSH2 0x26A4 JUMP JUMPDEST PUSH1 0x40 MLOAD PUSH3 0x461BCD PUSH1 0xE5 SHL DUP2 MSTORE PUSH1 0x20 PUSH1 0x4 DUP3 ADD MSTORE PUSH1 0xE PUSH1 0x24 DUP3 ADD MSTORE PUSH14 0x52657761726420746F6F206C6F77 PUSH1 0x90 SHL PUSH1 0x44 DUP3 ADD MSTORE PUSH1 0x64 SWAP1 REVERT JUMPDEST CALLVALUE PUSH2 0x31B JUMPI PUSH1 0x0 CALLDATASIZE PUSH1 0x3 NOT ADD SLT PUSH2 0x31B JUMPI PUSH1 0x20 PUSH1 0xFF PUSH1 0x1 SLOAD PUSH1 0xA0 SHR AND PUSH1 0x40 MLOAD SWAP1 ISZERO ISZERO DUP2 MSTORE RETURN JUMPDEST CALLVALUE PUSH2 0x31B JUMPI PUSH1 0x20 CALLDATASIZE PUSH1 0x3 NOT ADD SLT PUSH2 0x31B JUMPI PUSH1 0x0 PUSH2 0x140 PUSH1 0x40 MLOAD PUSH2 0x2ACC DUP2 PUSH2 0x3BEA JUMP JUMPDEST DUP3 DUP2 MSTORE PUSH1 0x60 PUSH1 0x20 DUP3 ADD MSTORE PUSH1 0x60 PUSH1 0x40 DUP3 ADD MSTORE DUP3 PUSH1 0x60 DUP3 ADD MSTORE DUP3 PUSH1 0x80 DUP3 ADD MSTORE DUP3 PUSH1 0xA0 DUP3 ADD MSTORE DUP3 PUSH1 0xC0 DUP3 ADD MSTORE DUP3 PUSH1 0xE0 DUP3 ADD MSTORE DUP3 PUSH2 0x100 DUP3 ADD MSTORE DUP3 PUSH2 0x120 DUP3 ADD MSTORE ADD MSTORE PUSH1 0x4 CALLDATALOAD PUSH1 0x0 MSTORE PUSH1 0x9 PUSH1 0x20 MSTORE PUSH1 0x40 PUSH1 0x0 KECCAK256 PUSH1 0x40 MLOAD SWAP1 PUSH2 0x2B28 DUP3 PUSH2 0x3BEA JUMP JUMPDEST DUP1 SLOAD DUP3 MSTORE PUSH2 0x2B38 PUSH1 0x1 DUP3 ADD PUSH2 0x3C5D JUMP JUMPDEST PUSH1 0x20 DUP4 ADD MSTORE PUSH2 0x2B49 PUSH1 0x2 DUP3 ADD PUSH2 0x3C5D JUMP JUMPDEST PUSH1 0x40 DUP4 ADD MSTORE PUSH1 0x3 DUP2 DUP2 ADD SLOAD PUSH1 0x1 PUSH1 0x1 PUSH1 0xA0 SHL SUB AND PUSH1 0x60 DUP5 ADD MSTORE PUSH1 0x4 DUP3 ADD SLOAD PUSH1 0x80 DUP5 ADD MSTORE PUSH1 0x5 DUP3 ADD SLOAD PUSH1 0xA0 DUP5 ADD MSTORE PUSH1 0x6 DUP3 ADD SLOAD PUSH1 0xC0 DUP5 ADD MSTORE PUSH1 0x7 DUP3 ADD SLOAD PUSH1 0xE0 DUP5 ADD MSTORE PUSH1 0x8 DUP3 ADD SLOAD PUSH2 0x100 DUP5 ADD MSTORE PUSH1 0x9 DUP3 ADD SLOAD PUSH1 0xFF AND SWAP2 SWAP1 DUP3 LT ISZERO PUSH2 0x5C1 JUMPI PUSH1 0xA SWAP2 PUSH2 0x120 DUP5 ADD MSTORE ADD SLOAD PUSH2 0x140 DUP3 ADD MSTORE PUSH1 0x40 MLOAD DUP1 SWAP2 PUSH1 0x20 DUP3 MSTORE DUP1 MLOAD PUSH1 0x20 DUP4 ADD MSTORE PUSH2 0x140 PUSH2 0x2BFE PUSH2 0x2BE8 PUSH1 0x20 DUP5 ADD MLOAD PUSH2 0x160 PUSH1 0x40 DUP8 ADD MSTORE PUSH2 0x180 DUP7 ADD SWAP1 PUSH2 0x3B11 JUMP JUMPDEST PUSH1 0x40 DUP5 ADD MLOAD DUP6 DUP3 SUB PUSH1 0x1F NOT ADD PUSH1 0x60 DUP8 ADD MSTORE PUSH2 0x3B11 JUMP JUMPDEST SWAP2 PUSH1 0x1 DUP1 PUSH1 0xA0 SHL SUB PUSH1 0x60 DUP3 ADD MLOAD AND PUSH1 0x80 DUP6 ADD MSTORE PUSH1 0x80 DUP2 ADD MLOAD PUSH1 0xA0 DUP6 ADD MSTORE PUSH1 0xA0 DUP2 ADD MLOAD PUSH1 0xC0 DUP6 ADD MSTORE PUSH1 0xC0 DUP2 ADD MLOAD PUSH1 0xE0 DUP6 ADD MSTORE PUSH1 0xE0 DUP2 ADD MLOAD PUSH2 0x100 DUP6 ADD MSTORE PUSH2 0x100 DUP2 ADD MLOAD PUSH2 0x120 DUP6 ADD MSTORE PUSH2 0x2C58 PUSH2 0x120 DUP3 ADD MLOAD DUP4 DUP7 ADD SWAP1 PUSH2 0x3D02 JUMP JUMPDEST ADD MLOAD PUSH2 0x160 DUP4 ADD MSTORE SUB SWAP1 RETURN JUMPDEST CALLVALUE PUSH2 0x31B JUMPI PUSH2 0x2C72 CALLDATASIZE PUSH2 0x3AD1 JUMP JUMPDEST SWAP1 PUSH1 0x0 MSTORE PUSH1 0xB PUSH1 0x20 MSTORE PUSH1 0x40 PUSH1 0x0 KECCAK256 SWAP1 DUP2 SLOAD DUP2 LT ISZERO PUSH2 0x31B JUMPI PUSH2 0x2C93 SWAP2 PUSH2 0x3D0F JUMP JUMPDEST POP DUP1 SLOAD PUSH1 0x1 PUSH1 0x1 PUSH1 0xA0 SHL SUB AND PUSH2 0x2CAB PUSH1 0x1 DUP4 ADD PUSH2 0x3C5D JUMP JUMPDEST SWAP2 PUSH1 0x2 DUP2 ADD SLOAD SWAP1 PUSH1 0xFF PUSH1 0x3 DUP3 ADD SLOAD AND SWAP1 PUSH1 0x5 PUSH1 0x4 DUP3 ADD SLOAD SWAP2 ADD SLOAD SWAP2 PUSH2 0x2CE2 PUSH1 0x40 MLOAD SWAP7 DUP8 SWAP7 DUP8 MSTORE PUSH1 0xC0 PUSH1 0x20 DUP9 ADD MSTORE PUSH1 0xC0 DUP8 ADD SWAP1 PUSH2 0x3B11 JUMP JUMPDEST SWAP4 PUSH1 0x40 DUP7 ADD MSTORE ISZERO ISZERO PUSH1 0x60 DUP6 ADD MSTORE PUSH1 0x80 DUP5 ADD MSTORE PUSH1 0xA0 DUP4 ADD MSTORE SUB SWAP1 RETURN JUMPDEST CALLVALUE PUSH2 0x31B JUMPI PUSH1 0x20 CALLDATASIZE PUSH1 0x3 NOT ADD SLT PUSH2 0x31B JUMPI PUSH1 0x4 CALLDATALOAD PUSH1 0x0 MSTORE PUSH1 0xD PUSH1 0x20 MSTORE PUSH1 0x20 PUSH1 0x40 PUSH1 0x0 KECCAK256 SLOAD PUSH1 0x40 MLOAD SWAP1 DUP2 MSTORE RETURN JUMPDEST CALLVALUE PUSH2 0x31B JUMPI PUSH1 0x40 CALLDATASIZE PUSH1 0x3 NOT ADD SLT PUSH2 0x31B JUMPI PUSH1 0x4 CALLDATALOAD PUSH2 0x2D45 PUSH2 0x3ABB JUMP JUMPDEST SWAP1 DUP1 PUSH1 0x0 MSTORE PUSH1 0x20 SWAP2 PUSH1 0x9 DUP4 MSTORE PUSH1 0x1 DUP1 PUSH1 0xA0 SHL SUB SWAP1 DUP2 PUSH1 0x3 PUSH1 0x40 PUSH1 0x0 KECCAK256 ADD SLOAD AND CALLER EQ DUP1 ISZERO PUSH2 0x2EBB JUMPI JUMPDEST PUSH2 0x2D76 SWAP1 PUSH2 0x3DC3 JUMP JUMPDEST AND SWAP2 PUSH2 0x2D83 DUP4 ISZERO ISZERO PUSH2 0x3D6E JUMP JUMPDEST DUP2 PUSH1 0x0 MSTORE PUSH1 0xC DUP2 MSTORE PUSH1 0x40 PUSH1 0x0 KECCAK256 DUP4 PUSH1 0x0 MSTORE DUP2 MSTORE PUSH1 0xFF PUSH1 0x40 PUSH1 0x0 KECCAK256 SLOAD AND PUSH2 0x2E83 JUMPI DUP2 PUSH1 0x0 MSTORE PUSH1 0xC DUP2 MSTORE PUSH1 0x40 PUSH1 0x0 KECCAK256 DUP4 PUSH1 0x0 MSTORE DUP2 MSTORE PUSH1 0x40 PUSH1 0x0 KECCAK256 PUSH1 0x1 PUSH1 0xFF NOT DUP3 SLOAD AND OR SWAP1 SSTORE DUP2 PUSH1 0x0 MSTORE PUSH1 0xD DUP2 MSTORE PUSH1 0x40 PUSH1 0x0 KECCAK256 PUSH2 0x2DDD DUP2 SLOAD PUSH2 0x3F0C JUMP JUMPDEST SWAP1 SSTORE DUP3 PUSH1 0x0 MSTORE PUSH1 0x17 DUP2 MSTORE PUSH1 0x40 PUSH1 0x0 KECCAK256 PUSH1 0x2 DUP2 ADD SLOAD ISZERO SWAP1 DUP2 PUSH2 0x2E79 JUMPI JUMPDEST POP PUSH2 0x2E27 JUMPI JUMPDEST POP PUSH32 0x7429A06E9412E469F0D64F9D222640B0AF359F556B709E2913588C227851B88D PUSH1 0x0 DUP1 LOG3 STOP JUMPDEST PUSH1 0x3 PUSH1 0x40 MLOAD SWAP2 PUSH2 0x2E36 DUP4 PUSH2 0x3BCF JUMP JUMPDEST PUSH1 0x0 DUP4 MSTORE DUP1 DUP4 ADD PUSH1 0x0 DUP2 MSTORE PUSH1 0x40 DUP5 ADD SWAP1 PUSH2 0x1388 DUP3 MSTORE PUSH1 0x17 PUSH1 0x60 DUP7 ADD SWAP4 TIMESTAMP DUP6 MSTORE DUP9 PUSH1 0x0 MSTORE MSTORE PUSH1 0x40 PUSH1 0x0 KECCAK256 SWAP5 MLOAD DUP6 SSTORE MLOAD PUSH1 0x1 DUP6 ADD SSTORE MLOAD PUSH1 0x2 DUP5 ADD SSTORE MLOAD SWAP2 ADD SSTORE DUP3 PUSH2 0x2DFF JUMP JUMPDEST SWAP1 POP SLOAD ISZERO DUP5 PUSH2 0x2DF9 JUMP JUMPDEST PUSH1 0x64 SWAP1 PUSH1 0x40 MLOAD SWAP1 PUSH3 0x461BCD PUSH1 0xE5 SHL DUP3 MSTORE PUSH1 0x4 DUP3 ADD MSTORE PUSH1 0x11 PUSH1 0x24 DUP3 ADD MSTORE PUSH17 0x20B63932B0B23C903B30B634B230BA37B9 PUSH1 0x79 SHL PUSH1 0x44 DUP3 ADD MSTORE REVERT JUMPDEST POP PUSH1 0x1 SLOAD DUP3 AND CALLER EQ PUSH2 0x2D6D JUMP JUMPDEST CALLVALUE PUSH2 0x31B JUMPI PUSH1 0x0 CALLDATASIZE PUSH1 0x3 NOT ADD SLT PUSH2 0x31B JUMPI PUSH1 0x20 PUSH1 0x40 MLOAD PUSH2 0x7D0 DUP2 MSTORE RETURN JUMPDEST CALLVALUE PUSH2 0x31B JUMPI PUSH1 0x0 CALLDATASIZE PUSH1 0x3 NOT ADD SLT PUSH2 0x31B JUMPI PUSH1 0x20 PUSH1 0x1C SLOAD PUSH1 0x40 MLOAD SWAP1 DUP2 MSTORE RETURN JUMPDEST CALLVALUE PUSH2 0x31B JUMPI PUSH1 0x20 CALLDATASIZE PUSH1 0x3 NOT ADD SLT PUSH2 0x31B JUMPI PUSH1 0x4 CALLDATALOAD PUSH1 0x0 MSTORE PUSH1 0x9 PUSH1 0x20 MSTORE PUSH1 0x40 PUSH1 0x0 KECCAK256 DUP1 SLOAD PUSH2 0x2F32 PUSH1 0x1 DUP4 ADD PUSH2 0x3C5D JUMP JUMPDEST SWAP2 PUSH2 0x2F3F PUSH1 0x2 DUP3 ADD PUSH2 0x3C5D JUMP JUMPDEST PUSH2 0x2FD2 PUSH1 0x1 DUP1 PUSH1 0xA0 SHL SUB PUSH1 0x3 DUP5 ADD SLOAD AND SWAP3 PUSH1 0x4 DUP2 ADD SLOAD PUSH1 0x5 DUP3 ADD SLOAD PUSH1 0x6 DUP4 ADD SLOAD PUSH1 0x7 DUP5 ADD SLOAD SWAP2 PUSH1 0x8 DUP6 ADD SLOAD SWAP4 PUSH2 0x2FA7 PUSH1 0xA PUSH1 0xFF PUSH1 0x9 DUP10 ADD SLOAD AND SWAP8 ADD SLOAD SWAP9 PUSH2 0x2F99 PUSH1 0x40 MLOAD SWAP14 DUP15 SWAP14 DUP15 PUSH2 0x160 SWAP2 DUP2 MSTORE DUP2 PUSH1 0x20 DUP3 ADD MSTORE ADD SWAP1 PUSH2 0x3B11 JUMP JUMPDEST DUP13 DUP2 SUB PUSH1 0x40 DUP15 ADD MSTORE SWAP1 PUSH2 0x3B11 JUMP JUMPDEST SWAP9 PUSH1 0x60 DUP12 ADD MSTORE PUSH1 0x80 DUP11 ADD MSTORE PUSH1 0xA0 DUP10 ADD MSTORE PUSH1 0xC0 DUP9 ADD MSTORE PUSH1 0xE0 DUP8 ADD MSTORE PUSH2 0x100 DUP7 ADD MSTORE PUSH2 0x120 DUP6 ADD SWAP1 PUSH2 0x3D02 JUMP JUMPDEST PUSH2 0x140 DUP4 ADD MSTORE SUB SWAP1 RETURN JUMPDEST CALLVALUE PUSH2 0x31B JUMPI PUSH2 0x2FEA CALLDATASIZE PUSH2 0x3AD1 JUMP JUMPDEST PUSH2 0x2FF2 PUSH2 0x417D JUMP JUMPDEST PUSH2 0x12C DUP1 DUP4 LT PUSH2 0x307A JUMPI DUP2 LT PUSH2 0x303C JUMPI DUP2 PUSH1 0x40 SWAP2 PUSH32 0x54333DE66970050BA341FD48B02B1E37C55D85AE724EE00E32233E89E072BEA8 SWAP4 PUSH1 0x1C SSTORE DUP1 PUSH1 0x1D SSTORE DUP3 MLOAD SWAP2 DUP3 MSTORE PUSH1 0x20 DUP3 ADD MSTORE LOG1 STOP JUMPDEST PUSH1 0x40 MLOAD PUSH3 0x461BCD PUSH1 0xE5 SHL DUP2 MSTORE PUSH1 0x20 PUSH1 0x4 DUP3 ADD MSTORE PUSH1 0x16 PUSH1 0x24 DUP3 ADD MSTORE PUSH22 0x14995D99585B081C1A185CD9481D1BDBC81CDA1BDC9D PUSH1 0x52 SHL PUSH1 0x44 DUP3 ADD MSTORE PUSH1 0x64 SWAP1 REVERT JUMPDEST PUSH1 0x40 MLOAD PUSH3 0x461BCD PUSH1 0xE5 SHL DUP2 MSTORE PUSH1 0x20 PUSH1 0x4 DUP3 ADD MSTORE PUSH1 0x16 PUSH1 0x24 DUP3 ADD MSTORE PUSH22 0x10DBDB5B5A5D081C1A185CD9481D1BDBC81CDA1BDC9D PUSH1 0x52 SHL PUSH1 0x44 DUP3 ADD MSTORE PUSH1 0x64 SWAP1 REVERT JUMPDEST CALLVALUE PUSH2 0x31B JUMPI PUSH2 0x30C6 CALLDATASIZE PUSH2 0x3AE7 JUMP JUMPDEST SWAP2 PUSH1 0x0 MSTORE PUSH1 0x18 PUSH1 0x20 MSTORE PUSH1 0x40 PUSH1 0x0 KECCAK256 SWAP1 PUSH1 0x0 MSTORE PUSH1 0x20 MSTORE PUSH1 0x40 PUSH1 0x0 KECCAK256 SWAP1 PUSH1 0x1 DUP1 PUSH1 0xA0 SHL SUB AND PUSH1 0x0 MSTORE PUSH1 0x20 MSTORE PUSH1 0x80 PUSH1 0x40 PUSH1 0x0 KECCAK256 DUP1 SLOAD SWAP1 PUSH1 0x1 DUP2 ADD SLOAD SWAP1 PUSH1 0x3 PUSH1 0xFF PUSH1 0x2 DUP4 ADD SLOAD AND SWAP2 ADD SLOAD SWAP2 PUSH1 0x40 MLOAD SWAP4 DUP5 MSTORE PUSH1 0x20 DUP5 ADD MSTORE ISZERO ISZERO PUSH1 0x40 DUP4 ADD MSTORE PUSH1 0x60 DUP3 ADD MSTORE RETURN JUMPDEST CALLVALUE PUSH2 0x31B JUMPI PUSH1 0x0 CALLDATASIZE PUSH1 0x3 NOT ADD SLT PUSH2 0x31B JUMPI PUSH1 0x20 PUSH1 0x5 SLOAD PUSH1 0x40 MLOAD SWAP1 DUP2 MSTORE RETURN JUMPDEST CALLVALUE PUSH2 0x31B JUMPI PUSH1 0x20 CALLDATASIZE PUSH1 0x3 NOT ADD SLT PUSH2 0x31B JUMPI PUSH1 0x1 PUSH1 0x1 PUSH1 0xA0 SHL SUB PUSH2 0x3165 PUSH2 0x3AA5 JUMP JUMPDEST AND PUSH1 0x0 MSTORE PUSH1 0x14 PUSH1 0x20 MSTORE PUSH1 0x20 PUSH1 0x40 PUSH1 0x0 KECCAK256 SLOAD PUSH1 0x40 MLOAD SWAP1 DUP2 MSTORE RETURN JUMPDEST CALLVALUE PUSH2 0x31B JUMPI PUSH1 0x0 CALLDATASIZE PUSH1 0x3 NOT ADD SLT PUSH2 0x31B JUMPI PUSH1 0x20 PUSH1 0x40 MLOAD PUSH2 0x1388 DUP2 MSTORE RETURN JUMPDEST CALLVALUE PUSH2 0x31B JUMPI PUSH1 0x20 CALLDATASIZE PUSH1 0x3 NOT ADD SLT PUSH2 0x31B JUMPI PUSH1 0x4 CALLDATALOAD PUSH1 0x0 MSTORE PUSH1 0xF PUSH1 0x20 MSTORE PUSH1 0x20 PUSH1 0x40 PUSH1 0x0 KECCAK256 SLOAD PUSH1 0x40 MLOAD SWAP1 DUP2 MSTORE RETURN JUMPDEST CALLVALUE PUSH2 0x31B JUMPI PUSH1 0x20 PUSH2 0x31E0 PUSH2 0x31DA CALLDATASIZE PUSH2 0x3AD1 JUMP JUMPDEST SWAP1 PUSH2 0x3F1B JUMP JUMPDEST PUSH1 0x40 MLOAD SWAP1 DUP2 MSTORE RETURN JUMPDEST CALLVALUE PUSH2 0x31B JUMPI PUSH1 0x60 CALLDATASIZE PUSH1 0x3 NOT ADD SLT PUSH2 0x31B JUMPI PUSH1 0x4 CALLDATALOAD PUSH1 0x24 SWAP1 DUP2 CALLDATALOAD SWAP1 PUSH1 0x44 CALLDATALOAD DUP2 PUSH1 0x0 MSTORE PUSH1 0x20 SWAP1 PUSH1 0xA DUP3 MSTORE PUSH1 0x40 PUSH1 0x0 KECCAK256 PUSH1 0xFF PUSH1 0x9 DUP3 ADD SLOAD AND SWAP1 PUSH1 0x6 DUP3 LT ISZERO PUSH2 0x3520 JUMPI PUSH2 0x323E DUP3 PUSH1 0x2 PUSH1 0x1 SWAP5 EQ SWAP1 DUP2 ISZERO PUSH2 0x3516 JUMPI POP PUSH2 0x3E00 JUMP JUMPDEST ADD SLOAD PUSH1 0x0 MSTORE PUSH1 0xC DUP3 MSTORE PUSH1 0x40 PUSH1 0x0 KECCAK256 CALLER PUSH1 0x0 MSTORE DUP3 MSTORE PUSH2 0x3263 PUSH1 0xFF PUSH1 0x40 PUSH1 0x0 KECCAK256 SLOAD AND PUSH2 0x3E41 JUMP JUMPDEST DUP3 PUSH1 0x0 MSTORE PUSH1 0xB DUP3 MSTORE PUSH2 0x327B PUSH1 0x40 PUSH1 0x0 KECCAK256 SLOAD DUP6 LT PUSH2 0x3E7F JUMP JUMPDEST DUP1 ISZERO PUSH2 0x34DE JUMPI DUP3 PUSH1 0x0 MSTORE PUSH1 0xB DUP3 MSTORE PUSH2 0x32A8 PUSH1 0xFF PUSH1 0x3 PUSH2 0x329E DUP8 PUSH1 0x40 PUSH1 0x0 KECCAK256 PUSH2 0x3D0F JUMP JUMPDEST POP ADD SLOAD AND ISZERO PUSH2 0x3EBB JUMP JUMPDEST DUP3 PUSH1 0x0 MSTORE PUSH1 0x18 DUP3 MSTORE PUSH1 0x40 PUSH1 0x0 KECCAK256 DUP5 PUSH1 0x0 MSTORE DUP3 MSTORE PUSH1 0x40 PUSH1 0x0 KECCAK256 CALLER PUSH1 0x0 MSTORE DUP3 MSTORE PUSH1 0x40 PUSH1 0x0 KECCAK256 SLOAD PUSH2 0x34A6 JUMPI DUP3 PUSH1 0x0 MSTORE PUSH1 0x12 DUP3 MSTORE PUSH1 0x40 PUSH1 0x0 KECCAK256 DUP5 PUSH1 0x0 MSTORE DUP3 MSTORE PUSH1 0x40 PUSH1 0x0 KECCAK256 CALLER PUSH1 0x0 MSTORE DUP3 MSTORE PUSH1 0xFF PUSH1 0x40 PUSH1 0x0 KECCAK256 SLOAD AND PUSH2 0x3462 JUMPI DUP3 PUSH1 0x0 MSTORE PUSH1 0x1B DUP3 MSTORE PUSH1 0x40 PUSH1 0x0 KECCAK256 DUP5 PUSH1 0x0 MSTORE DUP3 MSTORE PUSH1 0x40 PUSH1 0x0 KECCAK256 SLOAD ISZERO PUSH2 0x3443 JUMPI JUMPDEST DUP3 PUSH1 0x0 MSTORE PUSH1 0x1B DUP3 MSTORE PUSH1 0x40 PUSH1 0x0 KECCAK256 DUP5 PUSH1 0x0 MSTORE DUP3 MSTORE PUSH2 0x333F PUSH1 0x40 PUSH1 0x0 KECCAK256 SLOAD PUSH1 0x1C SLOAD SWAP1 PUSH2 0x3EFF JUMP JUMPDEST TIMESTAMP GT PUSH2 0x340A JUMPI PUSH1 0x40 MLOAD PUSH32 0x96E134FDBCF6F2B8942AA1450973CC1E5914913673ABACABEBF1F0B14FE4A552 SWAP3 SWAP2 PUSH2 0x3374 DUP3 PUSH2 0x3BCF JUMP JUMPDEST DUP2 MSTORE PUSH1 0x3 DUP3 DUP3 ADD TIMESTAMP DUP2 MSTORE PUSH2 0x33D7 PUSH1 0x40 DUP5 ADD PUSH1 0x0 DUP2 MSTORE PUSH1 0x60 DUP6 ADD SWAP3 PUSH1 0x0 DUP5 MSTORE DUP9 PUSH1 0x0 MSTORE PUSH1 0x18 DUP8 MSTORE PUSH1 0x40 PUSH1 0x0 KECCAK256 DUP11 PUSH1 0x0 MSTORE DUP8 MSTORE PUSH1 0x40 PUSH1 0x0 KECCAK256 CALLER PUSH1 0x0 MSTORE DUP8 MSTORE PUSH1 0x40 PUSH1 0x0 KECCAK256 SWAP6 MLOAD DUP7 SSTORE MLOAD PUSH1 0x1 DUP7 ADD SSTORE MLOAD ISZERO ISZERO PUSH1 0x2 DUP6 ADD SWAP1 PUSH1 0xFF DUP1 NOT DUP4 SLOAD AND SWAP2 ISZERO ISZERO AND OR SWAP1 SSTORE JUMP JUMPDEST MLOAD SWAP2 ADD SSTORE DUP3 PUSH1 0x0 MSTORE PUSH1 0x19 DUP2 MSTORE PUSH1 0x40 PUSH1 0x0 KECCAK256 DUP5 PUSH1 0x0 MSTORE DUP2 MSTORE PUSH1 0x40 PUSH1 0x0 KECCAK256 PUSH2 0x33FD DUP2 SLOAD PUSH2 0x3F0C JUMP JUMPDEST SWAP1 SSTORE PUSH1 0x40 MLOAD SWAP4 DUP5 MSTORE CALLER SWAP4 LOG3 STOP JUMPDEST PUSH1 0x40 MLOAD PUSH3 0x461BCD PUSH1 0xE5 SHL DUP2 MSTORE PUSH1 0x4 DUP2 ADD DUP4 SWAP1 MSTORE PUSH1 0x12 DUP2 DUP8 ADD MSTORE PUSH18 0x10DBDB5B5A5D081C1A185CD948195B991959 PUSH1 0x72 SHL PUSH1 0x44 DUP3 ADD MSTORE PUSH1 0x64 SWAP1 REVERT JUMPDEST DUP3 PUSH1 0x0 MSTORE PUSH1 0x1B DUP3 MSTORE PUSH1 0x40 PUSH1 0x0 KECCAK256 DUP5 PUSH1 0x0 MSTORE DUP3 MSTORE TIMESTAMP PUSH1 0x40 PUSH1 0x0 KECCAK256 SSTORE PUSH2 0x331A JUMP JUMPDEST PUSH1 0x40 MLOAD PUSH3 0x461BCD PUSH1 0xE5 SHL DUP2 MSTORE PUSH1 0x4 DUP2 ADD DUP4 SWAP1 MSTORE PUSH1 0x17 DUP2 DUP8 ADD MSTORE PUSH32 0x416C72656164792073636F726564206469726563746C79000000000000000000 PUSH1 0x44 DUP3 ADD MSTORE PUSH1 0x64 SWAP1 REVERT JUMPDEST PUSH1 0x40 MLOAD PUSH3 0x461BCD PUSH1 0xE5 SHL DUP2 MSTORE PUSH1 0x4 DUP2 ADD DUP4 SWAP1 MSTORE PUSH1 0x11 DUP2 DUP8 ADD MSTORE PUSH17 0x105B1C9958591E4818DBDB5B5A5D1D1959 PUSH1 0x7A SHL PUSH1 0x44 DUP3 ADD MSTORE PUSH1 0x64 SWAP1 REVERT JUMPDEST PUSH1 0x40 MLOAD PUSH3 0x461BCD PUSH1 0xE5 SHL DUP2 MSTORE PUSH1 0x4 DUP2 ADD DUP4 SWAP1 MSTORE PUSH1 0x11 DUP2 DUP8 ADD MSTORE PUSH17 0x8ADAE0E8F240C6DEDADAD2E840D0C2E6D PUSH1 0x7B SHL PUSH1 0x44 DUP3 ADD MSTORE PUSH1 0x64 SWAP1 REVERT JUMPDEST DUP5 SWAP2 POP EQ DUP10 PUSH2 0x956 JUMP JUMPDEST DUP7 PUSH4 0x4E487B71 PUSH1 0xE0 SHL PUSH1 0x0 MSTORE PUSH1 0x21 PUSH1 0x4 MSTORE PUSH1 0x0 REVERT JUMPDEST CALLVALUE PUSH2 0x31B JUMPI PUSH2 0x3543 CALLDATASIZE PUSH2 0x3AD1 JUMP JUMPDEST SWAP1 DUP1 PUSH1 0x0 MSTORE PUSH1 0x9 PUSH1 0x20 MSTORE PUSH2 0x3572 PUSH1 0x1 DUP1 PUSH1 0xA0 SHL SUB DUP1 PUSH1 0x3 PUSH1 0x40 PUSH1 0x0 KECCAK256 ADD SLOAD AND CALLER EQ SWAP1 DUP2 ISZERO PUSH2 0x35D2 JUMPI JUMPDEST POP PUSH2 0x3DC3 JUMP JUMPDEST PUSH1 0x1 DUP3 LT PUSH2 0x358D JUMPI PUSH1 0x0 MSTORE PUSH1 0x8 PUSH1 0x20 MSTORE PUSH1 0x40 PUSH1 0x0 KECCAK256 SSTORE PUSH1 0x0 DUP1 RETURN JUMPDEST PUSH1 0x40 MLOAD PUSH3 0x461BCD PUSH1 0xE5 SHL DUP2 MSTORE PUSH1 0x20 PUSH1 0x4 DUP3 ADD MSTORE PUSH1 0x1C PUSH1 0x24 DUP3 ADD MSTORE PUSH32 0x4D696E2076616C69646174696F6E73206D757374206265203E3D203100000000 PUSH1 0x44 DUP3 ADD MSTORE PUSH1 0x64 SWAP1 REVERT JUMPDEST SWAP1 POP PUSH1 0x1 SLOAD AND CALLER EQ DUP5 PUSH2 0x356C JUMP JUMPDEST CALLVALUE PUSH2 0x31B JUMPI PUSH1 0x20 CALLDATASIZE PUSH1 0x3 NOT ADD SLT PUSH2 0x31B JUMPI PUSH1 0x0 PUSH2 0x180 PUSH1 0x40 MLOAD PUSH2 0x3602 DUP2 PUSH2 0x3BB3 JUMP JUMPDEST DUP3 DUP2 MSTORE DUP3 PUSH1 0x20 DUP3 ADD MSTORE DUP3 PUSH1 0x40 DUP3 ADD MSTORE PUSH1 0x60 DUP1 DUP3 ADD MSTORE DUP3 PUSH1 0x80 DUP3 ADD MSTORE DUP3 PUSH1 0xA0 DUP3 ADD MSTORE DUP3 PUSH1 0xC0 DUP3 ADD MSTORE DUP3 PUSH1 0xE0 DUP3 ADD MSTORE DUP3 PUSH2 0x100 DUP3 ADD MSTORE DUP3 PUSH2 0x120 DUP3 ADD MSTORE DUP3 PUSH2 0x140 DUP3 ADD MSTORE DUP3 PUSH2 0x160 DUP3 ADD MSTORE ADD MSTORE PUSH1 0x4 CALLDATALOAD PUSH1 0x0 MSTORE PUSH1 0xA PUSH1 0x20 MSTORE PUSH1 0x40 PUSH1 0x0 KECCAK256 PUSH1 0x40 MLOAD SWAP1 PUSH2 0x366A DUP3 PUSH2 0x3BB3 JUMP JUMPDEST DUP1 SLOAD DUP3 MSTORE PUSH1 0x1 DUP2 ADD SLOAD PUSH1 0x20 DUP4 ADD MSTORE PUSH1 0x2 DUP2 ADD SLOAD PUSH1 0x1 PUSH1 0x1 PUSH1 0xA0 SHL SUB AND PUSH1 0x40 DUP4 ADD MSTORE PUSH2 0x3697 PUSH1 0x3 DUP3 ADD PUSH2 0x3C5D JUMP JUMPDEST PUSH1 0x60 DUP4 ADD MSTORE PUSH1 0x4 DUP2 ADD SLOAD PUSH1 0x80 DUP4 ADD MSTORE PUSH1 0x5 DUP2 ADD SLOAD PUSH1 0xA0 DUP4 ADD MSTORE PUSH1 0x6 DUP2 ADD SLOAD PUSH1 0xC0 DUP4 ADD MSTORE PUSH1 0x7 DUP2 ADD SLOAD PUSH1 0xE0 DUP4 ADD MSTORE PUSH1 0x8 DUP2 ADD SLOAD PUSH2 0x100 DUP4 ADD MSTORE PUSH1 0x9 DUP2 ADD SLOAD SWAP1 PUSH1 0x6 PUSH1 0xFF DUP4 AND LT ISZERO PUSH2 0x5C1 JUMPI DUP2 PUSH1 0xFF PUSH1 0xB SWAP4 AND PUSH2 0x120 DUP6 ADD MSTORE PUSH1 0x1 DUP1 PUSH1 0xA0 SHL SUB SWAP1 PUSH1 0x8 SHR AND PUSH2 0x140 DUP5 ADD MSTORE PUSH1 0xA DUP2 ADD SLOAD PUSH2 0x160 DUP5 ADD MSTORE ADD SLOAD PUSH2 0x180 DUP3 ADD MSTORE PUSH1 0x40 MLOAD DUP1 SWAP2 PUSH1 0x20 DUP3 MSTORE DUP1 MLOAD PUSH1 0x20 DUP4 ADD MSTORE PUSH1 0x20 DUP2 ADD MLOAD PUSH1 0x40 DUP4 ADD MSTORE PUSH1 0x1 DUP1 PUSH1 0xA0 SHL SUB PUSH1 0x40 DUP3 ADD MLOAD AND PUSH1 0x60 DUP4 ADD MSTORE PUSH2 0x180 PUSH2 0x375D PUSH1 0x60 DUP4 ADD MLOAD PUSH2 0x1A0 PUSH1 0x80 DUP7 ADD MSTORE PUSH2 0x1C0 DUP6 ADD SWAP1 PUSH2 0x3B11 JUMP JUMPDEST SWAP2 PUSH1 0x80 DUP2 ADD MLOAD PUSH1 0xA0 DUP6 ADD MSTORE PUSH1 0xA0 DUP2 ADD MLOAD PUSH1 0xC0 DUP6 ADD MSTORE PUSH1 0xC0 DUP2 ADD MLOAD PUSH1 0xE0 DUP6 ADD MSTORE PUSH1 0xE0 DUP2 ADD MLOAD PUSH2 0x100 DUP6 ADD MSTORE PUSH2 0x100 DUP2 ADD MLOAD PUSH2 0x120 DUP6 ADD MSTORE PUSH2 0x37A7 PUSH2 0x120 DUP3 ADD MLOAD PUSH2 0x140 DUP7 ADD SWAP1 PUSH2 0x3B51 JUMP JUMPDEST PUSH2 0x140 DUP2 ADD MLOAD PUSH1 0x1 PUSH1 0x1 PUSH1 0xA0 SHL SUB AND PUSH2 0x160 DUP6 DUP2 ADD SWAP2 SWAP1 SWAP2 MSTORE DUP2 ADD MLOAD DUP3 DUP6 ADD MSTORE ADD MLOAD PUSH2 0x1A0 DUP4 ADD MSTORE SUB SWAP1 RETURN JUMPDEST CALLVALUE PUSH2 0x31B JUMPI PUSH1 0x20 DUP1 PUSH1 0x3 NOT CALLDATASIZE ADD SLT PUSH2 0x31B JUMPI PUSH1 0x4 CALLDATALOAD PUSH1 0x0 MSTORE PUSH1 0xB DUP2 MSTORE PUSH1 0x40 PUSH1 0x0 KECCAK256 SWAP1 DUP2 SLOAD SWAP2 PUSH2 0x3801 DUP4 PUSH2 0x3DAC JUMP JUMPDEST SWAP3 PUSH2 0x380F PUSH1 0x40 MLOAD SWAP5 DUP6 PUSH2 0x3C3C JUMP JUMPDEST DUP1 DUP5 MSTORE DUP3 DUP5 ADD DUP1 SWAP3 PUSH1 0x0 MSTORE DUP4 PUSH1 0x0 KECCAK256 PUSH1 0x0 SWAP2 JUMPDEST DUP4 DUP4 LT PUSH2 0x38CE JUMPI POP POP POP POP PUSH1 0x40 MLOAD SWAP2 DUP1 DUP4 ADD SWAP4 DUP2 DUP5 MSTORE MLOAD DUP1 SWAP5 MSTORE PUSH1 0x40 DUP4 ADD SWAP4 PUSH1 0x40 DUP2 PUSH1 0x5 SHL DUP6 ADD ADD SWAP3 SWAP2 PUSH1 0x0 SWAP6 JUMPDEST DUP3 DUP8 LT PUSH2 0x385D JUMPI DUP6 DUP6 SUB DUP7 RETURN JUMPDEST SWAP1 SWAP2 SWAP3 SWAP4 DUP3 DUP1 PUSH1 0x1 SWAP3 PUSH1 0x3F NOT DUP10 DUP3 SUB ADD DUP6 MSTORE DUP8 MLOAD SWAP1 PUSH2 0x3894 PUSH1 0xC0 DUP7 DUP1 PUSH1 0xA0 SHL SUB DUP5 MLOAD AND DUP4 MSTORE DUP5 DUP5 ADD MLOAD SWAP1 DUP1 DUP7 DUP6 ADD MSTORE DUP4 ADD SWAP1 PUSH2 0x3B11 JUMP JUMPDEST SWAP2 PUSH1 0x40 DUP2 ADD MLOAD PUSH1 0x40 DUP4 ADD MSTORE PUSH1 0x60 DUP1 DUP3 ADD MLOAD ISZERO ISZERO SWAP1 DUP4 ADD MSTORE PUSH1 0x80 DUP1 DUP3 ADD MLOAD SWAP1 DUP4 ADD MSTORE PUSH1 0xA0 DUP1 SWAP2 ADD MLOAD SWAP2 ADD MSTORE SWAP7 ADD SWAP3 ADD SWAP7 ADD SWAP6 SWAP3 SWAP2 SWAP1 SWAP3 PUSH2 0x3850 JUMP JUMPDEST PUSH1 0x6 DUP7 PUSH1 0x1 SWAP3 PUSH1 0x40 SWAP10 SWAP9 SWAP10 MLOAD PUSH2 0x38E3 DUP2 PUSH2 0x3B98 JUMP JUMPDEST DUP5 DUP1 PUSH1 0xA0 SHL SUB DUP7 SLOAD AND DUP2 MSTORE PUSH2 0x38F9 DUP6 DUP8 ADD PUSH2 0x3C5D JUMP JUMPDEST DUP4 DUP3 ADD MSTORE PUSH1 0x2 DUP7 ADD SLOAD PUSH1 0x40 DUP3 ADD MSTORE PUSH1 0xFF PUSH1 0x3 DUP8 ADD SLOAD AND ISZERO ISZERO PUSH1 0x60 DUP3 ADD MSTORE PUSH1 0x4 DUP7 ADD SLOAD PUSH1 0x80 DUP3 ADD MSTORE PUSH1 0x5 DUP7 ADD SLOAD PUSH1 0xA0 DUP3 ADD MSTORE DUP2 MSTORE ADD SWAP3 ADD SWAP3 ADD SWAP2 SWAP1 SWAP6 SWAP5 SWAP6 PUSH2 0x3822 JUMP JUMPDEST CALLVALUE PUSH2 0x31B JUMPI PUSH1 0x0 CALLDATASIZE PUSH1 0x3 NOT ADD SLT PUSH2 0x31B JUMPI PUSH1 0x20 PUSH1 0x40 MLOAD PUSH2 0x1F4 DUP2 MSTORE RETURN JUMPDEST CALLVALUE PUSH2 0x31B JUMPI PUSH1 0x20 CALLDATASIZE PUSH1 0x3 NOT ADD SLT PUSH2 0x31B JUMPI PUSH1 0x4 CALLDATALOAD PUSH1 0x0 MSTORE PUSH1 0x8 PUSH1 0x20 MSTORE PUSH1 0x20 PUSH1 0x40 PUSH1 0x0 KECCAK256 SLOAD PUSH1 0x40 MLOAD SWAP1 DUP2 MSTORE RETURN JUMPDEST CALLVALUE PUSH2 0x31B JUMPI PUSH2 0x3992 CALLDATASIZE PUSH2 0x3AE7 JUMP JUMPDEST SWAP2 PUSH1 0x0 MSTORE PUSH1 0x11 PUSH1 0x20 MSTORE PUSH1 0x40 PUSH1 0x0 KECCAK256 SWAP1 PUSH1 0x0 MSTORE PUSH1 0x20 MSTORE PUSH1 0x40 PUSH1 0x0 KECCAK256 SWAP1 PUSH1 0x1 DUP1 PUSH1 0xA0 SHL SUB AND PUSH1 0x0 MSTORE PUSH1 0x20 MSTORE PUSH1 0x20 PUSH1 0x40 PUSH1 0x0 KECCAK256 SLOAD PUSH1 0x40 MLOAD SWAP1 DUP2 MSTORE RETURN JUMPDEST CALLVALUE PUSH2 0x31B JUMPI PUSH1 0x20 CALLDATASIZE PUSH1 0x3 NOT ADD SLT PUSH2 0x31B JUMPI PUSH1 0x1 PUSH1 0x1 PUSH1 0xA0 SHL SUB PUSH2 0x39EC PUSH2 0x3AA5 JUMP JUMPDEST AND PUSH1 0x0 MSTORE PUSH1 0x15 PUSH1 0x20 MSTORE PUSH1 0x20 PUSH1 0x40 PUSH1 0x0 KECCAK256 SLOAD PUSH1 0x40 MLOAD SWAP1 DUP2 MSTORE RETURN JUMPDEST CALLVALUE PUSH2 0x31B JUMPI PUSH2 0x3A13 CALLDATASIZE PUSH2 0x3AD1 JUMP JUMPDEST SWAP1 PUSH1 0x0 MSTORE PUSH1 0x19 PUSH1 0x20 MSTORE PUSH1 0x40 PUSH1 0x0 KECCAK256 SWAP1 PUSH1 0x0 MSTORE PUSH1 0x20 MSTORE PUSH1 0x20 PUSH1 0x40 PUSH1 0x0 KECCAK256 SLOAD PUSH1 0x40 MLOAD SWAP1 DUP2 MSTORE RETURN JUMPDEST CALLVALUE PUSH2 0x31B JUMPI PUSH1 0x20 CALLDATASIZE PUSH1 0x3 NOT ADD SLT PUSH2 0x31B JUMPI PUSH2 0x3A51 PUSH2 0x3AA5 JUMP JUMPDEST PUSH2 0x3A59 PUSH2 0x417D JUMP JUMPDEST PUSH1 0x1 PUSH1 0x1 PUSH1 0xA0 SHL SUB AND PUSH2 0x3A6D DUP2 ISZERO ISZERO PUSH2 0x3D6E JUMP JUMPDEST PUSH1 0x1 PUSH1 0x1 PUSH1 0x60 SHL SUB PUSH1 0xA0 SHL PUSH1 0x6 SLOAD AND OR PUSH1 0x6 SSTORE PUSH1 0x0 DUP1 RETURN JUMPDEST CALLVALUE PUSH2 0x31B JUMPI PUSH1 0x0 CALLDATASIZE PUSH1 0x3 NOT ADD SLT PUSH2 0x31B JUMPI PUSH1 0x20 PUSH1 0x40 MLOAD PUSH5 0xE8D4A51000 DUP2 MSTORE RETURN JUMPDEST PUSH1 0x4 CALLDATALOAD SWAP1 PUSH1 0x1 PUSH1 0x1 PUSH1 0xA0 SHL SUB DUP3 AND DUP3 SUB PUSH2 0x31B JUMPI JUMP JUMPDEST PUSH1 0x24 CALLDATALOAD SWAP1 PUSH1 0x1 PUSH1 0x1 PUSH1 0xA0 SHL SUB DUP3 AND DUP3 SUB PUSH2 0x31B JUMPI JUMP JUMPDEST PUSH1 0x40 SWAP1 PUSH1 0x3 NOT ADD SLT PUSH2 0x31B JUMPI PUSH1 0x4 CALLDATALOAD SWAP1 PUSH1 0x24 CALLDATALOAD SWAP1 JUMP JUMPDEST PUSH1 0x60 SWAP1 PUSH1 0x3 NOT ADD SLT PUSH2 0x31B JUMPI PUSH1 0x4 CALLDATALOAD SWAP1 PUSH1 0x24 CALLDATALOAD SWAP1 PUSH1 0x44 CALLDATALOAD PUSH1 0x1 PUSH1 0x1 PUSH1 0xA0 SHL SUB DUP2 AND DUP2 SUB PUSH2 0x31B JUMPI SWAP1 JUMP JUMPDEST SWAP2 SWAP1 DUP3 MLOAD SWAP3 DUP4 DUP3 MSTORE PUSH1 0x0 JUMPDEST DUP5 DUP2 LT PUSH2 0x3B3D JUMPI POP POP DUP3 PUSH1 0x0 PUSH1 0x20 DUP1 SWAP5 SWAP6 DUP5 ADD ADD MSTORE PUSH1 0x1F DUP1 NOT SWAP2 ADD AND ADD ADD SWAP1 JUMP JUMPDEST PUSH1 0x20 DUP2 DUP4 ADD DUP2 ADD MLOAD DUP5 DUP4 ADD DUP3 ADD MSTORE ADD PUSH2 0x3B1C JUMP JUMPDEST SWAP1 PUSH1 0x6 DUP3 LT ISZERO PUSH2 0x5C1 JUMPI MSTORE JUMP JUMPDEST SWAP1 PUSH1 0x1 DUP3 DUP2 SHR SWAP3 AND DUP1 ISZERO PUSH2 0x3B8E JUMPI JUMPDEST PUSH1 0x20 DUP4 LT EQ PUSH2 0x3B78 JUMPI JUMP JUMPDEST PUSH4 0x4E487B71 PUSH1 0xE0 SHL PUSH1 0x0 MSTORE PUSH1 0x22 PUSH1 0x4 MSTORE PUSH1 0x24 PUSH1 0x0 REVERT JUMPDEST SWAP2 PUSH1 0x7F AND SWAP2 PUSH2 0x3B6D JUMP JUMPDEST PUSH1 0xC0 DUP2 ADD SWAP1 DUP2 LT PUSH1 0x1 PUSH1 0x1 PUSH1 0x40 SHL SUB DUP3 GT OR PUSH2 0x1249 JUMPI PUSH1 0x40 MSTORE JUMP JUMPDEST PUSH2 0x1A0 DUP2 ADD SWAP1 DUP2 LT PUSH1 0x1 PUSH1 0x1 PUSH1 0x40 SHL SUB DUP3 GT OR PUSH2 0x1249 JUMPI PUSH1 0x40 MSTORE JUMP JUMPDEST PUSH1 0x80 DUP2 ADD SWAP1 DUP2 LT PUSH1 0x1 PUSH1 0x1 PUSH1 0x40 SHL SUB DUP3 GT OR PUSH2 0x1249 JUMPI PUSH1 0x40 MSTORE JUMP JUMPDEST PUSH2 0x160 DUP2 ADD SWAP1 DUP2 LT PUSH1 0x1 PUSH1 0x1 PUSH1 0x40 SHL SUB DUP3 GT OR PUSH2 0x1249 JUMPI PUSH1 0x40 MSTORE JUMP JUMPDEST PUSH1 0xA0 DUP2 ADD SWAP1 DUP2 LT PUSH1 0x1 PUSH1 0x1 PUSH1 0x40 SHL SUB DUP3 GT OR PUSH2 0x1249 JUMPI PUSH1 0x40 MSTORE JUMP JUMPDEST PUSH1 0x60 DUP2 ADD SWAP1 DUP2 LT PUSH1 0x1 PUSH1 0x1 PUSH1 0x40 SHL SUB DUP3 GT OR PUSH2 0x1249 JUMPI PUSH1 0x40 MSTORE JUMP JUMPDEST SWAP1 PUSH1 0x1F DUP1 NOT SWAP2 ADD AND DUP2 ADD SWAP1 DUP2 LT PUSH1 0x1 PUSH1 0x1 PUSH1 0x40 SHL SUB DUP3 GT OR PUSH2 0x1249 JUMPI PUSH1 0x40 MSTORE JUMP JUMPDEST SWAP1 PUSH1 0x40 MLOAD SWAP2 DUP3 PUSH1 0x0 DUP3 SLOAD PUSH2 0x3C70 DUP2 PUSH2 0x3B5E JUMP JUMPDEST SWAP1 DUP2 DUP5 MSTORE PUSH1 0x20 SWAP5 PUSH1 0x1 SWAP2 PUSH1 0x1 DUP2 AND SWAP1 DUP2 PUSH1 0x0 EQ PUSH2 0x3CE0 JUMPI POP PUSH1 0x1 EQ PUSH2 0x3CA1 JUMPI JUMPDEST POP POP POP PUSH2 0x3C9F SWAP3 POP SUB DUP4 PUSH2 0x3C3C JUMP JUMPDEST JUMP JUMPDEST PUSH1 0x0 SWAP1 DUP2 MSTORE DUP6 DUP2 KECCAK256 SWAP6 SWAP4 POP SWAP2 SWAP1 JUMPDEST DUP2 DUP4 LT PUSH2 0x3CC8 JUMPI POP POP PUSH2 0x3C9F SWAP4 POP DUP3 ADD ADD CODESIZE DUP1 DUP1 PUSH2 0x3C90 JUMP JUMPDEST DUP6 SLOAD DUP9 DUP5 ADD DUP6 ADD MSTORE SWAP5 DUP6 ADD SWAP5 DUP8 SWAP5 POP SWAP2 DUP4 ADD SWAP2 PUSH2 0x3CAF JUMP JUMPDEST SWAP3 POP POP POP PUSH2 0x3C9F SWAP5 SWAP3 POP PUSH1 0xFF NOT AND DUP3 DUP5 ADD MSTORE ISZERO ISZERO PUSH1 0x5 SHL DUP3 ADD ADD CODESIZE DUP1 DUP1 PUSH2 0x3C90 JUMP JUMPDEST SWAP1 PUSH1 0x3 DUP3 LT ISZERO PUSH2 0x5C1 JUMPI MSTORE JUMP JUMPDEST DUP1 SLOAD DUP3 LT ISZERO PUSH2 0x3D2B JUMPI PUSH1 0x0 MSTORE PUSH1 0x6 PUSH1 0x20 PUSH1 0x0 KECCAK256 SWAP2 MUL ADD SWAP1 PUSH1 0x0 SWAP1 JUMP JUMPDEST PUSH4 0x4E487B71 PUSH1 0xE0 SHL PUSH1 0x0 MSTORE PUSH1 0x32 PUSH1 0x4 MSTORE PUSH1 0x24 PUSH1 0x0 REVERT JUMPDEST SWAP2 DUP2 PUSH1 0x1F DUP5 ADD SLT ISZERO PUSH2 0x31B JUMPI DUP3 CALLDATALOAD SWAP2 PUSH1 0x1 PUSH1 0x1 PUSH1 0x40 SHL SUB DUP4 GT PUSH2 0x31B JUMPI PUSH1 0x20 DUP4 DUP2 DUP7 ADD SWAP6 ADD ADD GT PUSH2 0x31B JUMPI JUMP JUMPDEST ISZERO PUSH2 0x3D75 JUMPI JUMP JUMPDEST PUSH1 0x40 MLOAD PUSH3 0x461BCD PUSH1 0xE5 SHL DUP2 MSTORE PUSH1 0x20 PUSH1 0x4 DUP3 ADD MSTORE PUSH1 0xF PUSH1 0x24 DUP3 ADD MSTORE PUSH15 0x496E76616C69642061646472657373 PUSH1 0x88 SHL PUSH1 0x44 DUP3 ADD MSTORE PUSH1 0x64 SWAP1 REVERT JUMPDEST PUSH1 0x1 PUSH1 0x1 PUSH1 0x40 SHL SUB DUP2 GT PUSH2 0x1249 JUMPI PUSH1 0x5 SHL PUSH1 0x20 ADD SWAP1 JUMP JUMPDEST ISZERO PUSH2 0x3DCA JUMPI JUMP JUMPDEST PUSH1 0x40 MLOAD PUSH3 0x461BCD PUSH1 0xE5 SHL DUP2 MSTORE PUSH1 0x20 PUSH1 0x4 DUP3 ADD MSTORE PUSH1 0xE PUSH1 0x24 DUP3 ADD MSTORE PUSH14 0x139BDD08185D5D1A1BDC9A5E9959 PUSH1 0x92 SHL PUSH1 0x44 DUP3 ADD MSTORE PUSH1 0x64 SWAP1 REVERT JUMPDEST ISZERO PUSH2 0x3E07 JUMPI JUMP JUMPDEST PUSH1 0x40 MLOAD PUSH3 0x461BCD PUSH1 0xE5 SHL DUP2 MSTORE PUSH1 0x20 PUSH1 0x4 DUP3 ADD MSTORE PUSH1 0x12 PUSH1 0x24 DUP3 ADD MSTORE PUSH18 0x4E6F742070656E64696E6720726576696577 PUSH1 0x70 SHL PUSH1 0x44 DUP3 ADD MSTORE PUSH1 0x64 SWAP1 REVERT JUMPDEST ISZERO PUSH2 0x3E48 JUMPI JUMP JUMPDEST PUSH1 0x40 MLOAD PUSH3 0x461BCD PUSH1 0xE5 SHL DUP2 MSTORE PUSH1 0x20 PUSH1 0x4 DUP3 ADD MSTORE PUSH1 0xF PUSH1 0x24 DUP3 ADD MSTORE PUSH15 0x2737BA1030903B30B634B230BA37B9 PUSH1 0x89 SHL PUSH1 0x44 DUP3 ADD MSTORE PUSH1 0x64 SWAP1 REVERT JUMPDEST ISZERO PUSH2 0x3E86 JUMPI JUMP JUMPDEST PUSH1 0x40 MLOAD PUSH3 0x461BCD PUSH1 0xE5 SHL DUP2 MSTORE PUSH1 0x20 PUSH1 0x4 DUP3 ADD MSTORE PUSH1 0xD PUSH1 0x24 DUP3 ADD MSTORE PUSH13 0x92DCECC2D8D2C840D2DCC8CAF PUSH1 0x9B SHL PUSH1 0x44 DUP3 ADD MSTORE PUSH1 0x64 SWAP1 REVERT JUMPDEST ISZERO PUSH2 0x3EC2 JUMPI JUMP JUMPDEST PUSH1 0x40 MLOAD PUSH3 0x461BCD PUSH1 0xE5 SHL DUP2 MSTORE PUSH1 0x20 PUSH1 0x4 DUP3 ADD MSTORE PUSH1 0x15 PUSH1 0x24 DUP3 ADD MSTORE PUSH21 0x416C72656164792068617320636F6E73656E737573 PUSH1 0x58 SHL PUSH1 0x44 DUP3 ADD MSTORE PUSH1 0x64 SWAP1 REVERT JUMPDEST SWAP2 SWAP1 DUP3 ADD DUP1 SWAP3 GT PUSH2 0x7F7 JUMPI JUMP JUMPDEST PUSH1 0x0 NOT DUP2 EQ PUSH2 0x7F7 JUMPI PUSH1 0x1 ADD SWAP1 JUMP JUMPDEST PUSH1 0x0 SWAP1 DUP2 MSTORE PUSH1 0x8 PUSH1 0x20 MSTORE PUSH1 0x40 DUP2 KECCAK256 SLOAD SWAP2 DUP3 ISZERO PUSH2 0x3F81 JUMPI JUMPDEST PUSH5 0xE8D4A51000 DUP2 LT PUSH2 0x3F62 JUMPI POP PUSH1 0x2 DUP3 ADD DUP1 SWAP3 GT PUSH2 0x3F4E JUMPI POP SWAP1 JUMP JUMPDEST PUSH4 0x4E487B71 PUSH1 0xE0 SHL DUP2 MSTORE PUSH1 0x11 PUSH1 0x4 MSTORE PUSH1 0x24 SWAP1 REVERT JUMPDEST PUSH5 0x174876E800 GT ISZERO PUSH2 0x3F72 JUMPI POP SWAP1 JUMP JUMPDEST PUSH1 0x1 DUP3 ADD DUP1 SWAP3 GT PUSH2 0x3F4E JUMPI POP SWAP1 JUMP JUMPDEST PUSH1 0x2 SWAP3 POP PUSH2 0x3F32 JUMP JUMPDEST ISZERO PUSH2 0x3F91 JUMPI JUMP JUMPDEST PUSH1 0x40 MLOAD PUSH3 0x461BCD PUSH1 0xE5 SHL DUP2 MSTORE PUSH1 0x20 PUSH1 0x4 DUP3 ADD MSTORE PUSH1 0x11 PUSH1 0x24 DUP3 ADD MSTORE PUSH17 0x5375626E6574206E6F7420616374697665 PUSH1 0x78 SHL PUSH1 0x44 DUP3 ADD MSTORE PUSH1 0x64 SWAP1 REVERT JUMPDEST DUP2 DUP2 MUL SWAP3 SWAP2 DUP2 ISZERO SWAP2 DUP5 DIV EQ OR ISZERO PUSH2 0x7F7 JUMPI JUMP JUMPDEST DUP2 ISZERO PUSH2 0x3FE7 JUMPI DIV SWAP1 JUMP JUMPDEST PUSH4 0x4E487B71 PUSH1 0xE0 SHL PUSH1 0x0 MSTORE PUSH1 0x12 PUSH1 0x4 MSTORE PUSH1 0x24 PUSH1 0x0 REVERT JUMPDEST PUSH1 0x1 PUSH1 0x1 PUSH1 0x40 SHL SUB DUP2 GT PUSH2 0x1249 JUMPI PUSH1 0x1F ADD PUSH1 0x1F NOT AND PUSH1 0x20 ADD SWAP1 JUMP JUMPDEST SWAP3 SWAP2 SWAP3 PUSH2 0x4024 DUP3 PUSH2 0x3FFD JUMP JUMPDEST SWAP2 PUSH2 0x4032 PUSH1 0x40 MLOAD SWAP4 DUP5 PUSH2 0x3C3C JUMP JUMPDEST DUP3 SWAP5 DUP2 DUP5 MSTORE DUP2 DUP4 ADD GT PUSH2 0x31B JUMPI DUP3 DUP2 PUSH1 0x20 SWAP4 DUP5 PUSH1 0x0 SWAP7 ADD CALLDATACOPY ADD ADD MSTORE JUMP JUMPDEST ISZERO PUSH2 0x4056 JUMPI JUMP JUMPDEST PUSH1 0x40 MLOAD PUSH3 0x461BCD PUSH1 0xE5 SHL DUP2 MSTORE PUSH1 0x20 PUSH1 0x4 DUP3 ADD MSTORE PUSH1 0xD PUSH1 0x24 DUP3 ADD MSTORE PUSH13 0x496E76616C69642073636F7265 PUSH1 0x98 SHL PUSH1 0x44 DUP3 ADD MSTORE PUSH1 0x64 SWAP1 REVERT JUMPDEST DUP1 SLOAD DUP3 LT ISZERO PUSH2 0x3D2B JUMPI PUSH1 0x0 MSTORE PUSH1 0x20 PUSH1 0x0 KECCAK256 ADD SWAP1 PUSH1 0x0 SWAP1 JUMP JUMPDEST DUP1 SLOAD PUSH1 0x1 PUSH1 0x40 SHL DUP2 LT ISZERO PUSH2 0x1249 JUMPI PUSH2 0x40C0 SWAP2 PUSH1 0x1 DUP3 ADD DUP2 SSTORE PUSH2 0x408B JUMP JUMPDEST PUSH1 0x1 DUP1 PUSH1 0xA0 SWAP5 SWAP4 SWAP5 SHL SUB DUP1 DUP5 SLOAD SWAP3 PUSH1 0x3 SHL SWAP4 AND DUP4 SHL SWAP3 SHL NOT AND OR SWAP1 SSTORE JUMP JUMPDEST DUP1 ISZERO PUSH2 0x7F7 JUMPI PUSH1 0x0 NOT ADD SWAP1 JUMP JUMPDEST ISZERO PUSH2 0x40F2 JUMPI JUMP JUMPDEST PUSH1 0x40 MLOAD PUSH3 0x461BCD PUSH1 0xE5 SHL DUP2 MSTORE PUSH1 0x20 PUSH1 0x4 DUP3 ADD MSTORE PUSH1 0x10 PUSH1 0x24 DUP3 ADD MSTORE PUSH16 0x2737BA1039BAB13732BA1037BBB732B9 PUSH1 0x81 SHL PUSH1 0x44 DUP3 ADD MSTORE PUSH1 0x64 SWAP1 REVERT JUMPDEST ISZERO PUSH2 0x4131 JUMPI JUMP JUMPDEST PUSH1 0x40 MLOAD PUSH3 0x461BCD PUSH1 0xE5 SHL DUP2 MSTORE PUSH1 0x20 PUSH1 0x4 DUP3 ADD MSTORE PUSH1 0xC PUSH1 0x24 DUP3 ADD MSTORE PUSH12 0x8CCACA40E8DEDE40D0D2CED PUSH1 0xA3 SHL PUSH1 0x44 DUP3 ADD MSTORE PUSH1 0x64 SWAP1 REVERT JUMPDEST SWAP1 PUSH1 0x3 DUP2 LT ISZERO PUSH2 0x5C1 JUMPI PUSH1 0xFF DUP1 NOT DUP4 SLOAD AND SWAP2 AND OR SWAP1 SSTORE JUMP JUMPDEST PUSH1 0x1 SLOAD PUSH1 0x1 PUSH1 0x1 PUSH1 0xA0 SHL SUB AND CALLER SUB PUSH2 0x4191 JUMPI JUMP JUMPDEST PUSH1 0x64 PUSH1 0x40 MLOAD PUSH3 0x461BCD PUSH1 0xE5 SHL DUP2 MSTORE PUSH1 0x20 PUSH1 0x4 DUP3 ADD MSTORE PUSH1 0x20 PUSH1 0x24 DUP3 ADD MSTORE PUSH32 0x4F776E61626C653A2063616C6C6572206973206E6F7420746865206F776E6572 PUSH1 0x44 DUP3 ADD MSTORE REVERT JUMPDEST PUSH1 0x2 PUSH1 0x0 SLOAD EQ PUSH2 0x41E6 JUMPI PUSH1 0x2 PUSH1 0x0 SSTORE JUMP JUMPDEST PUSH1 0x40 MLOAD PUSH3 0x461BCD PUSH1 0xE5 SHL DUP2 MSTORE PUSH1 0x20 PUSH1 0x4 DUP3 ADD MSTORE PUSH1 0x1F PUSH1 0x24 DUP3 ADD MSTORE PUSH32 0x5265656E7472616E637947756172643A207265656E7472616E742063616C6C00 PUSH1 0x44 DUP3 ADD MSTORE PUSH1 0x64 SWAP1 REVERT JUMPDEST PUSH1 0xFF PUSH1 0x1 SLOAD PUSH1 0xA0 SHR AND PUSH2 0x423A JUMPI JUMP JUMPDEST PUSH1 0x40 MLOAD PUSH3 0x461BCD PUSH1 0xE5 SHL DUP2 MSTORE PUSH1 0x20 PUSH1 0x4 DUP3 ADD MSTORE PUSH1 0x10 PUSH1 0x24 DUP3 ADD MSTORE PUSH16 0x14185D5CD8589B194E881C185D5CD959 PUSH1 0x82 SHL PUSH1 0x44 DUP3 ADD MSTORE PUSH1 0x64 SWAP1 REVERT JUMPDEST PUSH1 0x40 MLOAD PUSH4 0xA9059CBB PUSH1 0xE0 SHL PUSH1 0x20 DUP3 ADD MSTORE PUSH1 0x1 PUSH1 0x1 PUSH1 0xA0 SHL SUB SWAP1 SWAP3 AND PUSH1 0x24 DUP4 ADD MSTORE PUSH1 0x44 DUP1 DUP4 ADD SWAP4 SWAP1 SWAP4 MSTORE SWAP2 DUP2 MSTORE PUSH2 0x3C9F SWAP2 PUSH2 0x570 DUP3 PUSH2 0x3BCF JUMP JUMPDEST SWAP1 PUSH2 0x42B5 DUP3 PUSH2 0x3DAC JUMP JUMPDEST PUSH2 0x42C2 PUSH1 0x40 MLOAD SWAP2 DUP3 PUSH2 0x3C3C JUMP JUMPDEST DUP3 DUP2 MSTORE DUP1 SWAP3 PUSH2 0x42D3 PUSH1 0x1F NOT SWAP2 PUSH2 0x3DAC JUMP JUMPDEST ADD SWAP1 PUSH1 0x20 CALLDATASIZE SWAP2 ADD CALLDATACOPY JUMP JUMPDEST DUP1 MLOAD DUP3 LT ISZERO PUSH2 0x3D2B JUMPI PUSH1 0x20 SWAP2 PUSH1 0x5 SHL ADD ADD SWAP1 JUMP JUMPDEST SWAP2 SWAP1 DUP3 SUB SWAP2 DUP3 GT PUSH2 0x7F7 JUMPI JUMP JUMPDEST SWAP2 SWAP1 PUSH2 0x4309 DUP3 PUSH2 0x42AB JUMP JUMPDEST SWAP3 PUSH1 0x0 SWAP2 DUP2 DUP4 MSTORE PUSH1 0x20 SWAP1 PUSH1 0x13 DUP3 MSTORE PUSH1 0x40 SWAP2 DUP3 DUP6 KECCAK256 DUP3 DUP7 MSTORE DUP2 MSTORE DUP3 DUP6 KECCAK256 SWAP2 DUP7 DUP4 SLOAD SUB PUSH2 0x4481 JUMPI DUP6 JUMPDEST DUP8 DUP2 LT PUSH2 0x443B JUMPI POP POP POP POP POP POP PUSH1 0x1 JUMPDEST DUP3 DUP2 LT PUSH2 0x439E JUMPI POP PUSH1 0x1 DUP3 DUP2 AND SUB PUSH2 0x4365 JUMPI POP SWAP1 PUSH2 0x4361 SWAP2 PUSH1 0x1 SHR SWAP1 PUSH2 0x42DD JUMP JUMPDEST MLOAD SWAP1 JUMP JUMPDEST SWAP1 PUSH1 0x1 SHR SWAP1 PUSH1 0x0 NOT DUP3 ADD SWAP1 DUP3 DUP3 GT PUSH2 0x3F4E JUMPI POP DUP3 SWAP2 PUSH2 0x438A PUSH2 0x4391 SWAP3 PUSH2 0x4398 SWAP6 PUSH2 0x42DD JUMP JUMPDEST MLOAD SWAP3 PUSH2 0x42DD JUMP JUMPDEST MLOAD SWAP1 PUSH2 0x3EFF JUMP JUMPDEST PUSH1 0x1 SHR SWAP1 JUMP JUMPDEST SWAP1 SWAP4 SWAP3 SWAP2 PUSH2 0x43AC DUP3 DUP5 PUSH2 0x42DD JUMP JUMPDEST MLOAD SWAP4 DUP3 JUMPDEST DUP1 ISZERO ISZERO DUP1 PUSH2 0x441C JUMPI JUMPDEST ISZERO PUSH2 0x4402 JUMPI PUSH1 0x0 NOT DUP2 ADD DUP2 DUP2 GT PUSH2 0x43EE JUMPI SWAP1 PUSH2 0x43D8 PUSH2 0x43E9 SWAP3 DUP8 PUSH2 0x42DD JUMP JUMPDEST MLOAD PUSH2 0x43E3 DUP3 DUP9 PUSH2 0x42DD JUMP JUMPDEST MSTORE PUSH2 0x40DE JUMP JUMPDEST PUSH2 0x43B0 JUMP JUMPDEST PUSH4 0x4E487B71 PUSH1 0xE0 SHL DUP9 MSTORE PUSH1 0x11 PUSH1 0x4 MSTORE PUSH1 0x24 DUP9 REVERT JUMPDEST SWAP5 PUSH2 0x4415 PUSH1 0x1 SWAP4 SWAP6 SWAP7 SWAP8 SWAP5 SWAP3 SWAP8 DUP8 PUSH2 0x42DD JUMP JUMPDEST MSTORE ADD PUSH2 0x4340 JUMP JUMPDEST POP PUSH1 0x0 NOT DUP2 ADD DUP2 DUP2 GT PUSH2 0x43EE JUMPI PUSH2 0x4434 DUP8 SWAP2 DUP8 PUSH2 0x42DD JUMP JUMPDEST MLOAD GT PUSH2 0x43B9 JUMP JUMPDEST PUSH1 0x1 SWAP1 DUP7 DUP9 MSTORE PUSH1 0x11 DUP5 MSTORE DUP6 DUP9 KECCAK256 DUP4 DUP10 MSTORE DUP5 MSTORE DUP6 DUP9 KECCAK256 PUSH2 0x445A DUP3 DUP8 PUSH2 0x408B JUMP JUMPDEST DUP5 DUP1 PUSH1 0xA0 SHL SUB SWAP2 SLOAD SWAP1 PUSH1 0x3 SHL SHR AND DUP10 MSTORE DUP5 MSTORE DUP6 DUP9 KECCAK256 SLOAD PUSH2 0x447A DUP3 DUP13 PUSH2 0x42DD JUMP JUMPDEST MSTORE ADD PUSH2 0x4330 JUMP JUMPDEST DUP4 MLOAD PUSH3 0x461BCD PUSH1 0xE5 SHL DUP2 MSTORE PUSH1 0x4 DUP2 ADD DUP4 SWAP1 MSTORE PUSH1 0x1B PUSH1 0x24 DUP3 ADD MSTORE PUSH32 0x56616C696461746F7220747261636B696E67206D69736D617463680000000000 PUSH1 0x44 DUP3 ADD MSTORE PUSH1 0x64 SWAP1 REVERT JUMPDEST SWAP1 DUP2 PUSH1 0x0 MSTORE PUSH1 0xA PUSH1 0x20 MSTORE PUSH1 0x1 DUP1 PUSH1 0xA0 SHL SUB PUSH1 0x9 PUSH1 0x40 PUSH1 0x0 KECCAK256 ADD SLOAD PUSH1 0x8 SHR AND PUSH1 0x0 NOT PUSH1 0xB PUSH1 0x20 MSTORE PUSH1 0x40 PUSH1 0x0 KECCAK256 SWAP2 PUSH1 0x0 SWAP1 DUP4 SLOAD SWAP2 JUMPDEST DUP3 DUP2 LT PUSH2 0x48D6 JUMPI JUMPDEST POP POP POP PUSH1 0x0 NOT DUP2 EQ PUSH2 0x48C7 JUMPI DUP4 PUSH1 0x0 MSTORE PUSH1 0x13 PUSH1 0x20 MSTORE PUSH1 0x40 PUSH1 0x0 KECCAK256 DUP2 PUSH1 0x0 MSTORE PUSH1 0x20 MSTORE PUSH1 0x40 PUSH1 0x0 KECCAK256 SWAP1 DUP2 SLOAD SWAP3 DUP4 ISZERO PUSH2 0x48B6 JUMPI PUSH2 0x453C DUP3 PUSH1 0x2 SWAP3 PUSH2 0x3D0F JUMP JUMPDEST POP ADD SLOAD SWAP5 PUSH2 0x4549 DUP5 PUSH2 0x42AB JUMP JUMPDEST SWAP2 PUSH1 0x0 SWAP7 PUSH1 0x0 JUMPDEST DUP7 DUP2 LT PUSH2 0x4657 JUMPI POP POP POP POP DUP5 ISZERO PUSH2 0x4647 JUMPI PUSH1 0x0 SWAP5 PUSH1 0x0 JUMPDEST DUP5 DUP2 LT PUSH2 0x4598 JUMPI POP POP POP POP POP DUP1 DUP3 LT PUSH2 0x457E JUMPI POP POP JUMP JUMPDEST PUSH2 0x4593 SWAP2 PUSH2 0x458B SWAP2 PUSH2 0x42F1 JUMP JUMPDEST PUSH1 0x7 SLOAD PUSH2 0x3EFF JUMP JUMPDEST PUSH1 0x7 SSTORE JUMP JUMPDEST DUP1 PUSH2 0x45A5 PUSH1 0x1 SWAP3 DUP6 PUSH2 0x42DD JUMP JUMPDEST MLOAD ISZERO PUSH2 0x4642 JUMPI PUSH2 0x45D2 PUSH2 0x45CB DUP5 PUSH2 0x45C6 PUSH2 0x45BF DUP6 DUP10 PUSH2 0x42DD JUMP JUMPDEST MLOAD DUP12 PUSH2 0x3FCA JUMP JUMPDEST PUSH2 0x3FDD JUMP JUMPDEST DUP1 SWAP10 PUSH2 0x3EFF JUMP JUMPDEST SWAP8 PUSH2 0x45DD DUP3 DUP8 PUSH2 0x408B JUMP JUMPDEST SWAP1 SLOAD SWAP1 PUSH1 0x3 SWAP2 DUP6 DUP1 PUSH1 0xA0 SHL SUB SWAP2 DUP4 SHL SHR AND PUSH1 0x0 MSTORE PUSH1 0x14 PUSH1 0x20 MSTORE PUSH1 0x40 PUSH1 0x0 KECCAK256 PUSH2 0x4606 DUP4 DUP3 SLOAD PUSH2 0x3EFF JUMP JUMPDEST SWAP1 SSTORE PUSH2 0x4612 DUP4 DUP9 PUSH2 0x408B JUMP JUMPDEST DUP6 DUP1 PUSH1 0xA0 SWAP5 SWAP4 SWAP5 SHL SUB SWAP3 SLOAD SWAP2 SHL SHR AND PUSH1 0x0 MSTORE PUSH1 0x16 PUSH1 0x20 MSTORE PUSH2 0x4639 PUSH1 0x40 PUSH1 0x0 KECCAK256 SWAP2 DUP3 SLOAD PUSH2 0x3EFF JUMP JUMPDEST SWAP1 SSTORE JUMPDEST ADD PUSH2 0x4567 JUMP JUMPDEST PUSH2 0x463C JUMP JUMPDEST POP POP POP PUSH2 0x4593 SWAP2 POP PUSH1 0x7 SLOAD PUSH2 0x3EFF JUMP JUMPDEST PUSH2 0x4661 DUP2 DUP8 PUSH2 0x408B JUMP JUMPDEST SWAP10 SWAP1 SLOAD SWAP10 DUP6 PUSH1 0x0 MSTORE PUSH1 0x11 PUSH1 0x20 MSTORE PUSH1 0x40 PUSH1 0x0 KECCAK256 DUP6 PUSH1 0x0 MSTORE PUSH1 0x20 MSTORE PUSH1 0x40 PUSH1 0x0 KECCAK256 PUSH1 0x1 DUP1 PUSH1 0xA0 SHL SUB DUP13 DUP4 PUSH1 0x3 SHL SHR AND PUSH1 0x0 MSTORE PUSH1 0x20 MSTORE PUSH2 0x46A2 DUP5 PUSH1 0x40 PUSH1 0x0 KECCAK256 SLOAD PUSH2 0x4A57 JUMP JUMPDEST SWAP11 PUSH1 0x1 DUP1 PUSH1 0xA0 SHL SUB DUP2 DUP4 PUSH1 0x3 SHL SHR AND PUSH1 0x0 MSTORE PUSH1 0x17 PUSH1 0x20 MSTORE PUSH1 0x40 PUSH1 0x0 KECCAK256 SWAP12 PUSH2 0x46C9 DUP14 SLOAD PUSH2 0x3F0C JUMP JUMPDEST DUP14 SSTORE TIMESTAMP PUSH1 0x3 DUP15 ADD SSTORE PUSH2 0x7D0 DUP2 GT PUSH2 0x480E JUMPI PUSH1 0x1 DUP14 ADD PUSH2 0x46E8 DUP2 SLOAD PUSH2 0x3F0C JUMP JUMPDEST SWAP1 SSTORE PUSH1 0x64 PUSH2 0x46F6 DUP7 DUP12 PUSH2 0x42DD JUMP JUMPDEST MSTORE PUSH1 0x40 MLOAD SWAP1 PUSH1 0x0 DUP3 MSTORE PUSH1 0x20 DUP3 ADD MSTORE DUP8 PUSH32 0x3D70426D5DE70B5AC8BFF45C3C0CD89DB0E473153868B8C61A938D42002584E8 PUSH1 0x40 PUSH1 0x1 DUP1 PUSH1 0xA0 SHL SUB DUP6 DUP8 PUSH1 0x3 SHL SHR AND SWAP4 LOG3 JUMPDEST DUP12 DUP1 SLOAD SWAP4 DUP5 PUSH2 0x47DE JUMPI JUMPDEST PUSH2 0x474D DUP7 DUP12 PUSH2 0x42DD JUMP JUMPDEST MLOAD SWAP2 PUSH1 0x2 ADD SLOAD SWAP2 DUP3 PUSH2 0x475E SWAP2 PUSH2 0x3FCA JUMP JUMPDEST PUSH2 0x2710 SWAP1 DIV PUSH2 0x476D DUP8 DUP13 PUSH2 0x42DD JUMP JUMPDEST MSTORE PUSH2 0x4778 DUP7 DUP12 PUSH2 0x42DD JUMP JUMPDEST MLOAD PUSH2 0x4782 SWAP2 PUSH2 0x3EFF JUMP JUMPDEST PUSH1 0x1 SWAP14 SWAP1 SWAP14 ADD SLOAD PUSH1 0x40 DUP1 MLOAD SWAP3 DUP4 MSTORE PUSH1 0x20 DUP4 ADD SWAP6 SWAP1 SWAP6 MSTORE SWAP4 DUP2 ADD SWAP4 SWAP1 SWAP4 MSTORE PUSH1 0x1 PUSH1 0x1 PUSH1 0xA0 SHL SUB PUSH1 0x3 SWAP3 SWAP1 SWAP3 SHL SHR AND SWAP1 PUSH32 0xC2FD17AD7E9F23B8607F0BD02D7A6CDCCCD5A964FA99CE5A066ED34C5B4BB55B SWAP1 PUSH1 0x60 SWAP1 LOG2 PUSH1 0x1 ADD PUSH2 0x4550 JUMP JUMPDEST SWAP1 PUSH1 0x1 ADD SLOAD SWAP1 PUSH2 0x2710 DUP3 DUP2 DUP2 MUL DIV DUP2 EQ DUP4 ISZERO OR ISZERO PUSH2 0x7F7 JUMPI DUP6 DUP16 SWAP4 SWAP2 PUSH2 0x4804 SWAP3 MUL PUSH2 0x3FDD JUMP JUMPDEST PUSH1 0x2 DUP4 ADD SSTORE PUSH2 0x4743 JUMP JUMPDEST PUSH2 0x1388 DUP2 GT PUSH2 0x486A JUMPI PUSH1 0x32 PUSH2 0x4823 DUP7 DUP12 PUSH2 0x42DD JUMP JUMPDEST MSTORE PUSH1 0x40 MLOAD SWAP1 PUSH1 0x0 DUP3 MSTORE PUSH1 0x20 DUP3 ADD MSTORE DUP8 PUSH32 0x3D70426D5DE70B5AC8BFF45C3C0CD89DB0E473153868B8C61A938D42002584E8 PUSH1 0x40 PUSH1 0x1 DUP1 PUSH1 0xA0 SHL SUB DUP6 DUP8 PUSH1 0x3 SHL SHR AND SWAP4 LOG3 PUSH2 0x4739 JUMP JUMPDEST PUSH1 0x0 PUSH2 0x4876 DUP7 DUP12 PUSH2 0x42DD JUMP JUMPDEST MSTORE PUSH1 0x40 MLOAD SWAP1 DUP2 MSTORE DUP8 PUSH32 0x3B3050DF353576101845973A6B18BBCF16A0187F1C80D60D83D95BE509203C51 PUSH1 0x20 PUSH1 0x1 DUP1 PUSH1 0xA0 SHL SUB DUP6 DUP8 PUSH1 0x3 SHL SHR AND SWAP4 LOG3 PUSH2 0x4739 JUMP JUMPDEST POP POP POP POP PUSH2 0x4593 SWAP2 POP PUSH1 0x7 SLOAD PUSH2 0x3EFF JUMP JUMPDEST POP POP PUSH2 0x4593 SWAP2 POP PUSH1 0x7 SLOAD PUSH2 0x3EFF JUMP JUMPDEST DUP2 PUSH2 0x48E1 DUP3 DUP8 PUSH2 0x3D0F JUMP JUMPDEST POP SLOAD PUSH1 0x1 PUSH1 0x1 PUSH1 0xA0 SHL SUB AND EQ DUP1 PUSH2 0x490B JUMPI JUMPDEST PUSH2 0x48FF JUMPI PUSH1 0x1 ADD PUSH2 0x44F8 JUMP JUMPDEST SWAP3 POP POP POP CODESIZE DUP1 DUP1 PUSH2 0x4500 JUMP JUMPDEST POP PUSH1 0xFF PUSH1 0x3 PUSH2 0x491A DUP4 DUP9 PUSH2 0x3D0F JUMP JUMPDEST POP ADD SLOAD AND PUSH2 0x48F3 JUMP JUMPDEST PUSH1 0x1 DUP1 PUSH1 0xA0 SHL SUB AND SWAP1 PUSH1 0x40 MLOAD PUSH1 0x40 DUP2 ADD SWAP1 DUP1 DUP3 LT PUSH1 0x1 PUSH1 0x1 PUSH1 0x40 SHL SUB DUP4 GT OR PUSH2 0x1249 JUMPI PUSH2 0x49B2 SWAP2 PUSH1 0x40 MSTORE PUSH1 0x20 SWAP4 DUP5 DUP3 MSTORE PUSH32 0x5361666545524332303A206C6F772D6C6576656C2063616C6C206661696C6564 DUP6 DUP4 ADD MSTORE PUSH1 0x0 DUP1 DUP6 DUP8 DUP3 SWAP8 MLOAD SWAP2 ADD DUP3 DUP6 GAS CALL RETURNDATASIZE ISZERO PUSH2 0x4A4F JUMPI RETURNDATASIZE SWAP2 PUSH2 0x4997 DUP4 PUSH2 0x3FFD JUMP JUMPDEST SWAP3 PUSH2 0x49A5 PUSH1 0x40 MLOAD SWAP5 DUP6 PUSH2 0x3C3C JUMP JUMPDEST DUP4 MSTORE RETURNDATASIZE DUP7 DUP9 DUP6 ADD RETURNDATACOPY PUSH2 0x4AA8 JUMP JUMPDEST DUP1 MLOAD SWAP2 DUP3 ISZERO SWAP2 DUP5 DUP4 ISZERO PUSH2 0x4A24 JUMPI JUMPDEST POP POP POP SWAP1 POP ISZERO PUSH2 0x49CD JUMPI POP JUMP JUMPDEST PUSH1 0x84 SWAP1 PUSH1 0x40 MLOAD SWAP1 PUSH3 0x461BCD PUSH1 0xE5 SHL DUP3 MSTORE PUSH1 0x4 DUP3 ADD MSTORE PUSH1 0x2A PUSH1 0x24 DUP3 ADD MSTORE PUSH32 0x5361666545524332303A204552433230206F7065726174696F6E20646964206E PUSH1 0x44 DUP3 ADD MSTORE PUSH10 0x1BDD081CDD58D8D95959 PUSH1 0xB2 SHL PUSH1 0x64 DUP3 ADD MSTORE REVERT JUMPDEST SWAP2 SWAP4 DUP2 DUP1 SWAP5 POP ADD SUB SLT PUSH2 0x4A4B JUMPI DUP3 ADD MLOAD SWAP1 DUP2 ISZERO ISZERO DUP3 SUB PUSH2 0x4A48 JUMPI POP DUP1 CODESIZE DUP1 DUP5 PUSH2 0x49C0 JUMP JUMPDEST DUP1 REVERT JUMPDEST POP DUP1 REVERT JUMPDEST PUSH1 0x60 SWAP2 PUSH2 0x4AA8 JUMP JUMPDEST DUP2 ISZERO PUSH2 0x4AA1 JUMPI DUP2 DUP1 DUP3 GT ISZERO PUSH2 0x4A91 JUMPI PUSH2 0x4A6F SWAP2 PUSH2 0x42F1 JUMP JUMPDEST SWAP1 JUMPDEST PUSH2 0x2710 SWAP2 DUP3 DUP2 MUL SWAP3 DUP2 DUP5 DIV EQ SWAP1 ISZERO OR ISZERO PUSH2 0x7F7 JUMPI PUSH2 0x4A8E SWAP2 PUSH2 0x3FDD JUMP JUMPDEST SWAP1 JUMP JUMPDEST SWAP1 PUSH2 0x4A9B SWAP2 PUSH2 0x42F1 JUMP JUMPDEST SWAP1 PUSH2 0x4A71 JUMP JUMPDEST POP POP PUSH1 0x0 SWAP1 JUMP JUMPDEST SWAP2 SWAP3 SWAP1 ISZERO PUSH2 0x4B0A JUMPI POP DUP2 MLOAD ISZERO PUSH2 0x4ABC JUMPI POP SWAP1 JUMP JUMPDEST EXTCODESIZE ISZERO PUSH2 0x4AC5 JUMPI SWAP1 JUMP JUMPDEST PUSH1 0x40 MLOAD PUSH3 0x461BCD PUSH1 0xE5 SHL DUP2 MSTORE PUSH1 0x20 PUSH1 0x4 DUP3 ADD MSTORE PUSH1 0x1D PUSH1 0x24 DUP3 ADD MSTORE PUSH32 0x416464726573733A2063616C6C20746F206E6F6E2D636F6E7472616374000000 PUSH1 0x44 DUP3 ADD MSTORE PUSH1 0x64 SWAP1 REVERT JUMPDEST DUP3 MLOAD SWAP1 SWAP2 POP ISZERO PUSH2 0x4B1D JUMPI POP DUP1 MLOAD SWAP1 PUSH1 0x20 ADD REVERT JUMPDEST PUSH1 0x40 MLOAD PUSH3 0x461BCD PUSH1 0xE5 SHL DUP2 MSTORE PUSH1 0x20 PUSH1 0x4 DUP3 ADD MSTORE SWAP1 DUP2 SWAP1 PUSH2 0x4B41 SWAP1 PUSH1 0x24 DUP4 ADD SWAP1 PUSH2 0x3B11 JUMP JUMPDEST SUB SWAP1 REVERT INVALID LOG2 PUSH5 0x6970667358 0x22 SLT KECCAK256 PUSH3 0x29F6A9 SMOD 0xB8 SWAP12 GT EQ PREVRANDAO 0xBA PC 0xBC MLOAD 0xB6 0x4E 0x2C 0xD8 0x4E SDIV 0xD6 BLOCKHASH SLOAD DUP8 ISZERO DUP6 0xC9 0x2B 0xD3 0xEB 0xAB 0xEC PUSH5 0x736F6C6343 STOP ADDMOD XOR STOP CALLER "},"methodIdentifiers":{"HIGH_VALUE_THRESHOLD()":"ca7b64bb","MAX_SUBNET_FEE_RATE()":"4af93988","PROTOCOL_FEE_RATE()":"10f0dde4","REPUTATION_DECAY_FACTOR()":"3370f06e","SUBNET_REGISTRATION_COST()":"072f4fc0","ULTRA_VALUE_THRESHOLD()":"65617a35","VALIDATOR_REWARD_RATE()":"93af0076","addValidator(uint256,address)":"4b561753","commitCount(uint256,uint256)":"0ebac45a","commitPhaseDuration()":"483b4039","commitPhaseStart(uint256,uint256)":"77ad68da","commitScore(uint256,uint256,bytes32)":"1dd73e0d","createTask(uint256,string,uint256,uint256)":"5cc9bca9","expireTask(uint256)":"62ecc47a","finalizeTask(uint256)":"88488c33","getActiveSubnetCount()":"c6a1a01a","getAdaptiveMinValidations(uint256,uint256)":"24c3fd2f","getCommitHash(uint256,bytes32)":"9d7eea9f","getSubmissionCount(uint256)":"7be24cb8","getSubmissions(uint256)":"16c53ced","getSubnet(uint256)":"58ca7504","getTask(uint256)":"1d65e77e","getValidatorScore(uint256,uint256,address)":"d65314b3","hasMinerSubmitted(uint256,address)":"ac64c822","hasValidatorScored(uint256,uint256,address)":"7ca0ad2d","isMiner(uint256,address)":"8ee9f6dc","isValidator(uint256,address)":"23f2a73f","maxSubmissionsPerTask()":"39b1185d","mdtToken()":"f70b5c06","minerEarnings(address)":"0f0da719","owner()":"8da5cb5b","paused()":"5c975abb","pendingWithdrawals(address)":"f3f43703","portReputation(uint256,uint256)":"be123323","protocolTreasury()":"803db96d","registerMiner(uint256)":"6f5474bf","registerSubnet(string,string,uint256)":"927229c6","removeValidator(uint256,address)":"6a0cd1f5","renounceOwnership()":"715018a6","revealCount(uint256,uint256)":"b46e7424","revealPhaseDuration()":"dfc75372","revealScore(uint256,uint256,uint256,bytes32)":"68a7f826","setCommitRevealConfig(uint256,uint256)":"3f422ef3","setMinValidations(uint256,uint256)":"1dc375b9","setProtocolTreasury(address)":"0c5a61f8","submitResult(uint256,string)":"8c0dd79a","subnetCount()":"916a5c5b","subnetMinValidations(uint256)":"10c6bd25","subnetMinerCount(uint256)":"2fa70f48","subnetMiners(uint256,address)":"8c0a4a05","subnetValidatorCount(uint256)":"51b15b8a","subnetValidators(uint256,address)":"a3be1eab","subnets(uint256)":"475726f7","taskSubmissions(uint256,uint256)":"53eea875","tasks(uint256)":"8d977672","totalProtocolFees()":"f526e39a","transferOwnership(address)":"f2fde38b","unregisterSubnet(uint256)":"d1faf406","updateSubnet(uint256,uint256,uint8)":"7b617482","validateSubmission(uint256,uint256,uint256)":"b7ee5eda","validationCommits(uint256,uint256,address)":"3c9a6bf3","validatorEarnings(address)":"39388006","validatorReputation(address)":"d1270485","validatorScores(uint256,uint256,address)":"0fb6d805","withdrawEarnings()":"b73c6ce9","withdrawProtocolFees()":"8795cccb"}}}}}