{"src/StakingVault.sol":{"StakingVault":{"abi":[{"inputs":[{"internalType":"address","name":"_mdtToken","type":"address"}],"stateMutability":"nonpayable","type":"constructor"},{"anonymous":false,"inputs":[{"indexed":true,"internalType":"address","name":"previousOwner","type":"address"},{"indexed":true,"internalType":"address","name":"newOwner","type":"address"}],"name":"OwnershipTransferred","type":"event"},{"anonymous":false,"inputs":[{"indexed":false,"internalType":"address","name":"account","type":"address"}],"name":"Paused","type":"event"},{"anonymous":false,"inputs":[{"indexed":true,"internalType":"address","name":"user","type":"address"},{"indexed":false,"internalType":"uint256","name":"amount","type":"uint256"},{"indexed":false,"internalType":"string","name":"reason","type":"string"}],"name":"Slashed","type":"event"},{"anonymous":false,"inputs":[{"indexed":true,"internalType":"address","name":"user","type":"address"},{"indexed":false,"internalType":"uint256","name":"additionalAmount","type":"uint256"},{"indexed":false,"internalType":"uint256","name":"newTotal","type":"uint256"}],"name":"StakeIncreased","type":"event"},{"anonymous":false,"inputs":[{"indexed":true,"internalType":"address","name":"user","type":"address"},{"indexed":false,"internalType":"uint256","name":"amount","type":"uint256"},{"indexed":false,"internalType":"enum StakingVault.StakeRole","name":"role","type":"uint8"}],"name":"Staked","type":"event"},{"anonymous":false,"inputs":[{"indexed":false,"internalType":"address","name":"account","type":"address"}],"name":"Unpaused","type":"event"},{"anonymous":false,"inputs":[{"indexed":true,"internalType":"address","name":"user","type":"address"},{"indexed":false,"internalType":"uint256","name":"amount","type":"uint256"}],"name":"UnstakeRequested","type":"event"},{"anonymous":false,"inputs":[{"indexed":true,"internalType":"address","name":"user","type":"address"},{"indexed":false,"internalType":"uint256","name":"amount","type":"uint256"}],"name":"Withdrawn","type":"event"},{"inputs":[],"name":"BURN_ADDRESS","outputs":[{"internalType":"address","name":"","type":"address"}],"stateMutability":"view","type":"function"},{"inputs":[],"name":"activeMinerCount","outputs":[{"internalType":"uint256","name":"","type":"uint256"}],"stateMutability":"view","type":"function"},{"inputs":[],"name":"activeValidatorCount","outputs":[{"internalType":"uint256","name":"","type":"uint256"}],"stateMutability":"view","type":"function"},{"inputs":[{"internalType":"address","name":"user","type":"address"}],"name":"getStakeInfo","outputs":[{"internalType":"uint256","name":"amount","type":"uint256"},{"internalType":"enum StakingVault.StakeRole","name":"role","type":"uint8"},{"internalType":"uint256","name":"stakedAt","type":"uint256"},{"internalType":"uint256","name":"unstakeRequestedAt","type":"uint256"},{"internalType":"bool","name":"isActive","type":"bool"}],"stateMutability":"view","type":"function"},{"inputs":[{"internalType":"address","name":"user","type":"address"}],"name":"isMiner","outputs":[{"internalType":"bool","name":"","type":"bool"}],"stateMutability":"view","type":"function"},{"inputs":[{"internalType":"address","name":"user","type":"address"}],"name":"isStaked","outputs":[{"internalType":"bool","name":"","type":"bool"}],"stateMutability":"view","type":"function"},{"inputs":[{"internalType":"address","name":"user","type":"address"}],"name":"isValidator","outputs":[{"internalType":"bool","name":"","type":"bool"}],"stateMutability":"view","type":"function"},{"inputs":[],"name":"mdtToken","outputs":[{"internalType":"contract IERC20","name":"","type":"address"}],"stateMutability":"view","type":"function"},{"inputs":[],"name":"minMinerStake","outputs":[{"internalType":"uint256","name":"","type":"uint256"}],"stateMutability":"view","type":"function"},{"inputs":[],"name":"minValidatorStake","outputs":[{"internalType":"uint256","name":"","type":"uint256"}],"stateMutability":"view","type":"function"},{"inputs":[],"name":"owner","outputs":[{"internalType":"address","name":"","type":"address"}],"stateMutability":"view","type":"function"},{"inputs":[],"name":"pause","outputs":[],"stateMutability":"nonpayable","type":"function"},{"inputs":[],"name":"paused","outputs":[{"internalType":"bool","name":"","type":"bool"}],"stateMutability":"view","type":"function"},{"inputs":[],"name":"renounceOwnership","outputs":[],"stateMutability":"nonpayable","type":"function"},{"inputs":[],"name":"requestUnstake","outputs":[],"stateMutability":"nonpayable","type":"function"},{"inputs":[{"internalType":"uint256","name":"_min","type":"uint256"}],"name":"setMinMinerStake","outputs":[],"stateMutability":"nonpayable","type":"function"},{"inputs":[{"internalType":"uint256","name":"_min","type":"uint256"}],"name":"setMinValidatorStake","outputs":[],"stateMutability":"nonpayable","type":"function"},{"inputs":[{"internalType":"uint256","name":"_cooldown","type":"uint256"}],"name":"setUnstakeCooldown","outputs":[],"stateMutability":"nonpayable","type":"function"},{"inputs":[{"internalType":"address","name":"user","type":"address"},{"internalType":"uint256","name":"basisPoints","type":"uint256"},{"internalType":"string","name":"reason","type":"string"}],"name":"slash","outputs":[],"stateMutability":"nonpayable","type":"function"},{"inputs":[{"internalType":"uint256","name":"amount","type":"uint256"},{"internalType":"enum StakingVault.StakeRole","name":"role","type":"uint8"}],"name":"stake","outputs":[],"stateMutability":"nonpayable","type":"function"},{"inputs":[{"internalType":"address","name":"","type":"address"}],"name":"stakes","outputs":[{"internalType":"uint256","name":"amount","type":"uint256"},{"internalType":"enum StakingVault.StakeRole","name":"role","type":"uint8"},{"internalType":"uint256","name":"stakedAt","type":"uint256"},{"internalType":"uint256","name":"unstakeRequestedAt","type":"uint256"},{"internalType":"bool","name":"isActive","type":"bool"}],"stateMutability":"view","type":"function"},{"inputs":[],"name":"totalSlashed","outputs":[{"internalType":"uint256","name":"","type":"uint256"}],"stateMutability":"view","type":"function"},{"inputs":[],"name":"totalStaked","outputs":[{"internalType":"uint256","name":"","type":"uint256"}],"stateMutability":"view","type":"function"},{"inputs":[{"internalType":"address","name":"newOwner","type":"address"}],"name":"transferOwnership","outputs":[],"stateMutability":"nonpayable","type":"function"},{"inputs":[],"name":"unpause","outputs":[],"stateMutability":"nonpayable","type":"function"},{"inputs":[],"name":"unstakeCooldown","outputs":[{"internalType":"uint256","name":"","type":"uint256"}],"stateMutability":"view","type":"function"},{"inputs":[],"name":"withdraw","outputs":[],"stateMutability":"nonpayable","type":"function"}],"evm":{"bytecode":{"linkReferences":{},"object":"60803461012357601f6115e338819003918201601f19168301916001600160401b038311848410176101285780849260209460405283398101031261012357516001600160a01b038082169182900361012357600160005560015460405191339082167f8be0079c531659141344cd1fd0a4f28419497f9722a3daafe3b4186f6b6457e0600080a36001600160a81b0319163360ff60a01b19161760015564174876e80060035565048c2739500060045562093a8060055581156100e15750600280546001600160a01b0319169190911790556040516114a4908161013f8239f35b62461bcd60e51b815260206004820152601560248201527f496e76616c696420746f6b656e206164647265737300000000000000000000006044820152606490fd5b600080fd5b634e487b7160e01b600052604160045260246000fdfe608060408181526004918236101561001657600080fd5b600092833560e01c918263017ddd3514610c3f5750816310087fb114610c0057816316934fc41461047a5781632340e8d314610be15781633ccfd60b14610a5c5781633f4ba83a146109c057816342d18cca146109a15781635c975abb1461097a5781636177fd181461093a578163678b3ee2146106af578163701b70ac14610642578163715018a6146105e55781637eefd5ae146105c6578163817b1cd2146105a75781638456cb59146105465781638da5cb5b1461051d578163a201bbdd146104fe578163a3158b53146104dc578163c34531531461047a578163c69aaedf1461045b578163d11fa42914610439578163d360158514610417578163f2fde38b1461034b578163f70b5c0614610322578163facd743b146102a1578163fc63958e1461016d575063fccc28131461014e57600080fd5b346101695781600319360112610169576020905161dead8152f35b5080fd5b90503461029d578260031936011261029d576101876110d4565b338352600860205281832090808201805460ff81161561026d576003840180546102365742905560ff19169055600182015460ff169060038210156102235750600103610210576101d96009546110c7565b6009555b5490519081527f828764c21e74c28710e19919735825aba966621c95cbd913f8ed65a2d298f48c60203392a26001815580f35b61021b600a546110c7565b600a556101dd565b634e487b7160e01b855260219052602484fd5b855162461bcd60e51b81526020818601526011602482015270105b1c9958591e481c995c5d595cdd1959607a1b6044820152606490fd5b845162461bcd60e51b8152602081850152600a602482015269139bdd081cdd185ad95960b21b6044820152606490fd5b8280fd5b838334610169576020366003190112610169576001600160a01b036102c4610c5a565b16825260086020528082209160ff848401541692836102ea575b60208484519015158152f35b60ff91929350600101541692600384101561030f5750506002602092149083806102de565b634e487b7160e01b825260219052602490fd5b50503461016957816003193601126101695760025490516001600160a01b039091168152602090f35b90503461029d57602036600319011261029d57610366610c5a565b9061036f6111cc565b6001600160a01b039182169283156103c5575050600154826bffffffffffffffffffffffff60a01b821617600155167f8be0079c531659141344cd1fd0a4f28419497f9722a3daafe3b4186f6b6457e08380a380f35b906020608492519162461bcd60e51b8352820152602660248201527f4f776e61626c653a206e6577206f776e657220697320746865207a65726f206160448201526564647265737360d01b6064820152fd5b839034610169576020366003190112610169576104326111cc565b8035905580f35b839034610169576020366003190112610169576104546111cc565b3560035580f35b5050346101695781600319360112610169576020906009549051908152f35b8284346104d95760203660031901126104d9576104d59082906001600160a01b036104a3610c5a565b1681526008602052209182549260ff6001820154169460ff600283015491600384015493015416925195869586610c98565b0390f35b80fd5b839034610169576020366003190112610169576104f76111cc565b3560055580f35b5050346101695781600319360112610169576020906007549051908152f35b50503461016957816003193601126101695760015490516001600160a01b039091168152602090f35b50503461016957816003193601126101695760207f62e78cea01bee320cd4e420270b5ea74000d11b0c9f74754ebdbfc544b05a258916105846111cc565b61058c61112a565b6001805460ff60a01b1916600160a01b17905551338152a180f35b5050346101695781600319360112610169576020906006549051908152f35b5050346101695781600319360112610169576020906005549051908152f35b83346104d957806003193601126104d9576105fe6111cc565b600180546001600160a01b0319811690915581906001600160a01b03167f8be0079c531659141344cd1fd0a4f28419497f9722a3daafe3b4186f6b6457e08280a380f35b838334610169576020366003190112610169576001600160a01b03610665610c5a565b16825260086020528082209160ff8484015416928361068a5760208484519015158152f35b60ff91929350600101541692600384101561030f5750506001602092149083806102de565b83915034610169576060366003190112610169576106cb610c5a565b9260249384359060443567ffffffffffffffff918282116109365736602383011215610936578186013592831161093657368884840101116109365761070f6111cc565b6107176110d4565b8315158061092a575b156108f15760018060a01b038091169586885260086020528588209081549586156108bb5780870290878204036108a957612710610760910480976110ba565b825561076e866006546110ba565b60065561077d86600754610cc6565b60075560ff60018301541690600382101561089757936108148694606097948d947f7e947095ed288d8885423bdaef4015b7420ffa9b84d62ef67c402e8bc36a8ea99b9a986002821460001461088f5780545b83541080610882575b610846575b5050506002541688519063a9059cbb60e01b602083015261dead858301528760448301526044825261080f82610ce9565b611224565b828751978896875280602088015286015201848401378181018301879052601f01601f19168101030190a26001815580f35b909101805460ff1916905560010361086f576108636009546110c7565b6009555b8c80806107de565b61087a600a546110c7565b600a55610867565b5060ff81840154166107d9565b6003546107d0565b634e487b7160e01b8a52602190528989fd5b634e487b7160e01b8a52601182528a8afd5b875162461bcd60e51b81526020818401526011818d01527009cde40e6e8c2d6ca40e8de40e6d8c2e6d607b1b6044820152606490fd5b845162461bcd60e51b81526020818801526014818a015273496e76616c696420626173697320706f696e747360601b6044820152606490fd5b50612710841115610720565b8680fd5b90503461029d57602036600319011261029d5760209260ff919083906001600160a01b03610966610c5a565b168152600886522001541690519015158152f35b50503461016957816003193601126101695760209060ff60015460a01c1690519015158152f35b5050346101695781600319360112610169576020906003549051908152f35b90503461029d578260031936011261029d576109da6111cc565b6001549060ff8260a01c1615610a22575060ff60a01b1916600155513381527f5db9ee0a495bf2e6ff9c91a7834c1ba4fdd244a5e8aa4e537bd38aeae4b073aa90602090a180f35b606490602084519162461bcd60e51b8352820152601460248201527314185d5cd8589b194e881b9bdd081c185d5cd95960621b6044820152fd5b9190503461029d578260031936011261029d57610a776110d4565b33835260209060088252808420600381019081548015610ba957600554610a9d91610cc6565b4210610b6f578054948515610b3657507f7084f5476618d8e60b11ef0d7d3f06914655adb8793e28ff7f018d4c76d505d5939291600182888094550160ff19815416905555610aee846006546110ba565b600655600254815163a9059cbb60e01b8482015233602482015260448082018790528152610b28916001600160a01b031661080f82610ce9565b519283523392a26001815580f35b835162461bcd60e51b815290810185905260136024820152724e6f7468696e6720746f20776974686472617760681b6044820152606490fd5b50505162461bcd60e51b815291820152601460248201527310dbdbdb191bdddb881b9bdd08195e1c1a5c995960621b604482015260649150fd5b835162461bcd60e51b81528087018690526012602482015271139bc81d5b9cdd185ad9481c995c5d595cdd60721b6044820152606490fd5b505034610169578160031936011261016957602090600a549051908152f35b9190503461029d5736600319011261016957602435600381101561029d57610c3891610c2a6110d4565b610c3261112a565b35610d2a565b6001815580f35b84913461029d578260031936011261029d5760209250548152f35b600435906001600160a01b0382168203610c7057565b600080fd5b906003821015610c825752565b634e487b7160e01b600052602160045260246000fd5b939095949192610cb560809460a087019887526020870190610c75565b604085015260608401521515910152565b91908201809211610cd357565b634e487b7160e01b600052601160045260246000fd5b6080810190811067ffffffffffffffff821117610d0557604052565b634e487b7160e01b600052604160045260246000fd5b6000198114610cd35760010190565b600380831015939284610c825760018114918280156110ac575b1561107857831561103e57600092338452602091600883526040948581209860049960ff8b82015416610f175750610f045760028503610efd5788545b8710610ec457855160a0810181811067ffffffffffffffff821117610eb1578752878152848101928684528782014281526060830190848252608084019560018752338652600889528a8620945185556001850190519584871015610e9d5750927f8acf475137e0cd74ca7f611d16b1e6383ec9a9c71a8e5b85967781b9c7214d119b9c9d92610e859a99989796959260ff958619978789835416911617905551600284015551908201550192511515918354169116179055610e4687600654610cc6565b60065515610e8a57610e59600954610d1b565b6009555b600254610e78908790309033906001600160a01b0316611171565b8351958652850190610c75565b3392a2565b610e95600a54610d1b565b600a55610e5d565b634e487b7160e01b815260218f5260249150fd5b634e487b7160e01b835260418b52602483fd5b855162461bcd60e51b8152808a01859052601360248201527242656c6f77206d696e696d756d207374616b6560681b6044820152606490fd5b8154610d81565b634e487b7160e01b815260218952602490fd5b959293509060ff6001879b9698999a9b0154169161102b578382101561102b575003610fe857820154610faf57509081610f74857fe6afb5ca7cc84435baf09da39fcb42fc0fb8bdfef6c3ff2ce9fce2c70a18f821959454610cc6565b8155610f8285600654610cc6565b600655600254610fa0908690309033906001600160a01b0316611171565b549082519485528401523392a2565b835162461bcd60e51b81529081018390526013602482015272556e7374616b6520696e2070726f677265737360681b6044820152606490fd5b845162461bcd60e51b8152808301859052601f60248201527f43616e6e6f74206368616e676520726f6c65207768696c65207374616b6564006044820152606490fd5b634e487b7160e01b815260218552602490fd5b60405162461bcd60e51b81526020600482015260126024820152710416d6f756e74206d757374206265203e20360741b6044820152606490fd5b60405162461bcd60e51b815260206004820152600c60248201526b496e76616c696420726f6c6560a01b6044820152606490fd5b506000955060028214610d44565b91908203918211610cd357565b8015610cd3576000190190565b6002600054146110e5576002600055565b60405162461bcd60e51b815260206004820152601f60248201527f5265656e7472616e637947756172643a207265656e7472616e742063616c6c006044820152606490fd5b60ff60015460a01c1661113957565b60405162461bcd60e51b815260206004820152601060248201526f14185d5cd8589b194e881c185d5cd95960821b6044820152606490fd5b6040516323b872dd60e01b60208201526001600160a01b03928316602482015292909116604483015260648083019390935291815260a081019181831067ffffffffffffffff841117610d05576111ca92604052611224565b565b6001546001600160a01b031633036111e057565b606460405162461bcd60e51b815260206004820152602060248201527f4f776e61626c653a2063616c6c6572206973206e6f7420746865206f776e65726044820152fd5b6040805167ffffffffffffffff94936001600160a01b03909316929080830186811182821017610d055783526020938482527f5361666545524332303a206c6f772d6c6576656c2063616c6c206661696c6564858301526000808487829651910182855af13d1561138d573d9188831161137957601f1992865193603f81601f8401160116840199848b10908b111761136557869798996112cf96975283528286893d92013e61139a565b805191821591858315611341575b5050509050156112eb575050565b60849250519062461bcd60e51b82526004820152602a60248201527f5361666545524332303a204552433230206f7065726174696f6e20646964206e6044820152691bdd081cdd58d8d9595960b21b6064820152fd5b919381809450010312610169578301519081151582036104d95750803880856112dd565b634e487b7160e01b86526041600452602486fd5b634e487b7160e01b85526041600452602485fd5b6112cf9394959697506060915b919290156113fc57508151156113ae575090565b3b156113b75790565b60405162461bcd60e51b815260206004820152601d60248201527f416464726573733a2063616c6c20746f206e6f6e2d636f6e74726163740000006044820152606490fd5b82519091501561140f5750805190602001fd5b6040519062461bcd60e51b82528160208060048301528251908160248401526000935b828510611455575050604492506000838284010152601f80199101168101030190fd5b848101820151868601604401529381019385935061143256fea264697066735822122087446be3028011ad100ace53b29b58b6a79d48148eb8b17cc4ce1d58cecc371064736f6c63430008180033","opcodes":"PUSH1 0x80 CALLVALUE PUSH2 0x123 JUMPI PUSH1 0x1F PUSH2 0x15E3 CODESIZE DUP2 SWAP1 SUB SWAP2 DUP3 ADD PUSH1 0x1F NOT AND DUP4 ADD SWAP2 PUSH1 0x1 PUSH1 0x1 PUSH1 0x40 SHL SUB DUP4 GT DUP5 DUP5 LT OR PUSH2 0x128 JUMPI DUP1 DUP5 SWAP3 PUSH1 0x20 SWAP5 PUSH1 0x40 MSTORE DUP4 CODECOPY DUP2 ADD SUB SLT PUSH2 0x123 JUMPI MLOAD PUSH1 0x1 PUSH1 0x1 PUSH1 0xA0 SHL SUB DUP1 DUP3 AND SWAP2 DUP3 SWAP1 SUB PUSH2 0x123 JUMPI PUSH1 0x1 PUSH1 0x0 SSTORE PUSH1 0x1 SLOAD PUSH1 0x40 MLOAD SWAP2 CALLER SWAP1 DUP3 AND PUSH32 0x8BE0079C531659141344CD1FD0A4F28419497F9722A3DAAFE3B4186F6B6457E0 PUSH1 0x0 DUP1 LOG3 PUSH1 0x1 PUSH1 0x1 PUSH1 0xA8 SHL SUB NOT AND CALLER PUSH1 0xFF PUSH1 0xA0 SHL NOT AND OR PUSH1 0x1 SSTORE PUSH5 0x174876E800 PUSH1 0x3 SSTORE PUSH6 0x48C27395000 PUSH1 0x4 SSTORE PUSH3 0x93A80 PUSH1 0x5 SSTORE DUP2 ISZERO PUSH2 0xE1 JUMPI POP PUSH1 0x2 DUP1 SLOAD PUSH1 0x1 PUSH1 0x1 PUSH1 0xA0 SHL SUB NOT AND SWAP2 SWAP1 SWAP2 OR SWAP1 SSTORE PUSH1 0x40 MLOAD PUSH2 0x14A4 SWAP1 DUP2 PUSH2 0x13F DUP3 CODECOPY RETURN JUMPDEST PUSH3 0x461BCD PUSH1 0xE5 SHL DUP2 MSTORE PUSH1 0x20 PUSH1 0x4 DUP3 ADD MSTORE PUSH1 0x15 PUSH1 0x24 DUP3 ADD MSTORE PUSH32 0x496E76616C696420746F6B656E20616464726573730000000000000000000000 PUSH1 0x44 DUP3 ADD MSTORE PUSH1 0x64 SWAP1 REVERT JUMPDEST PUSH1 0x0 DUP1 REVERT JUMPDEST PUSH4 0x4E487B71 PUSH1 0xE0 SHL PUSH1 0x0 MSTORE PUSH1 0x41 PUSH1 0x4 MSTORE PUSH1 0x24 PUSH1 0x0 REVERT INVALID PUSH1 0x80 PUSH1 0x40 DUP2 DUP2 MSTORE PUSH1 0x4 SWAP2 DUP3 CALLDATASIZE LT ISZERO PUSH2 0x16 JUMPI PUSH1 0x0 DUP1 REVERT JUMPDEST PUSH1 0x0 SWAP3 DUP4 CALLDATALOAD PUSH1 0xE0 SHR SWAP2 DUP3 PUSH4 0x17DDD35 EQ PUSH2 0xC3F JUMPI POP DUP2 PUSH4 0x10087FB1 EQ PUSH2 0xC00 JUMPI DUP2 PUSH4 0x16934FC4 EQ PUSH2 0x47A JUMPI DUP2 PUSH4 0x2340E8D3 EQ PUSH2 0xBE1 JUMPI DUP2 PUSH4 0x3CCFD60B EQ PUSH2 0xA5C JUMPI DUP2 PUSH4 0x3F4BA83A EQ PUSH2 0x9C0 JUMPI DUP2 PUSH4 0x42D18CCA EQ PUSH2 0x9A1 JUMPI DUP2 PUSH4 0x5C975ABB EQ PUSH2 0x97A JUMPI DUP2 PUSH4 0x6177FD18 EQ PUSH2 0x93A JUMPI DUP2 PUSH4 0x678B3EE2 EQ PUSH2 0x6AF JUMPI DUP2 PUSH4 0x701B70AC EQ PUSH2 0x642 JUMPI DUP2 PUSH4 0x715018A6 EQ PUSH2 0x5E5 JUMPI DUP2 PUSH4 0x7EEFD5AE EQ PUSH2 0x5C6 JUMPI DUP2 PUSH4 0x817B1CD2 EQ PUSH2 0x5A7 JUMPI DUP2 PUSH4 0x8456CB59 EQ PUSH2 0x546 JUMPI DUP2 PUSH4 0x8DA5CB5B EQ PUSH2 0x51D JUMPI DUP2 PUSH4 0xA201BBDD EQ PUSH2 0x4FE JUMPI DUP2 PUSH4 0xA3158B53 EQ PUSH2 0x4DC JUMPI DUP2 PUSH4 0xC3453153 EQ PUSH2 0x47A JUMPI DUP2 PUSH4 0xC69AAEDF EQ PUSH2 0x45B JUMPI DUP2 PUSH4 0xD11FA429 EQ PUSH2 0x439 JUMPI DUP2 PUSH4 0xD3601585 EQ PUSH2 0x417 JUMPI DUP2 PUSH4 0xF2FDE38B EQ PUSH2 0x34B JUMPI DUP2 PUSH4 0xF70B5C06 EQ PUSH2 0x322 JUMPI DUP2 PUSH4 0xFACD743B EQ PUSH2 0x2A1 JUMPI DUP2 PUSH4 0xFC63958E EQ PUSH2 0x16D JUMPI POP PUSH4 0xFCCC2813 EQ PUSH2 0x14E JUMPI PUSH1 0x0 DUP1 REVERT JUMPDEST CALLVALUE PUSH2 0x169 JUMPI DUP2 PUSH1 0x3 NOT CALLDATASIZE ADD SLT PUSH2 0x169 JUMPI PUSH1 0x20 SWAP1 MLOAD PUSH2 0xDEAD DUP2 MSTORE RETURN JUMPDEST POP DUP1 REVERT JUMPDEST SWAP1 POP CALLVALUE PUSH2 0x29D JUMPI DUP3 PUSH1 0x3 NOT CALLDATASIZE ADD SLT PUSH2 0x29D JUMPI PUSH2 0x187 PUSH2 0x10D4 JUMP JUMPDEST CALLER DUP4 MSTORE PUSH1 0x8 PUSH1 0x20 MSTORE DUP2 DUP4 KECCAK256 SWAP1 DUP1 DUP3 ADD DUP1 SLOAD PUSH1 0xFF DUP2 AND ISZERO PUSH2 0x26D JUMPI PUSH1 0x3 DUP5 ADD DUP1 SLOAD PUSH2 0x236 JUMPI TIMESTAMP SWAP1 SSTORE PUSH1 0xFF NOT AND SWAP1 SSTORE PUSH1 0x1 DUP3 ADD SLOAD PUSH1 0xFF AND SWAP1 PUSH1 0x3 DUP3 LT ISZERO PUSH2 0x223 JUMPI POP PUSH1 0x1 SUB PUSH2 0x210 JUMPI PUSH2 0x1D9 PUSH1 0x9 SLOAD PUSH2 0x10C7 JUMP JUMPDEST PUSH1 0x9 SSTORE JUMPDEST SLOAD SWAP1 MLOAD SWAP1 DUP2 MSTORE PUSH32 0x828764C21E74C28710E19919735825ABA966621C95CBD913F8ED65A2D298F48C PUSH1 0x20 CALLER SWAP3 LOG2 PUSH1 0x1 DUP2 SSTORE DUP1 RETURN JUMPDEST PUSH2 0x21B PUSH1 0xA SLOAD PUSH2 0x10C7 JUMP JUMPDEST PUSH1 0xA SSTORE PUSH2 0x1DD JUMP JUMPDEST PUSH4 0x4E487B71 PUSH1 0xE0 SHL DUP6 MSTORE PUSH1 0x21 SWAP1 MSTORE PUSH1 0x24 DUP5 REVERT JUMPDEST DUP6 MLOAD PUSH3 0x461BCD PUSH1 0xE5 SHL DUP2 MSTORE PUSH1 0x20 DUP2 DUP7 ADD MSTORE PUSH1 0x11 PUSH1 0x24 DUP3 ADD MSTORE PUSH17 0x105B1C9958591E481C995C5D595CDD1959 PUSH1 0x7A SHL PUSH1 0x44 DUP3 ADD MSTORE PUSH1 0x64 SWAP1 REVERT JUMPDEST DUP5 MLOAD PUSH3 0x461BCD PUSH1 0xE5 SHL DUP2 MSTORE PUSH1 0x20 DUP2 DUP6 ADD MSTORE PUSH1 0xA PUSH1 0x24 DUP3 ADD MSTORE PUSH10 0x139BDD081CDD185AD959 PUSH1 0xB2 SHL PUSH1 0x44 DUP3 ADD MSTORE PUSH1 0x64 SWAP1 REVERT JUMPDEST DUP3 DUP1 REVERT JUMPDEST DUP4 DUP4 CALLVALUE PUSH2 0x169 JUMPI PUSH1 0x20 CALLDATASIZE PUSH1 0x3 NOT ADD SLT PUSH2 0x169 JUMPI PUSH1 0x1 PUSH1 0x1 PUSH1 0xA0 SHL SUB PUSH2 0x2C4 PUSH2 0xC5A JUMP JUMPDEST AND DUP3 MSTORE PUSH1 0x8 PUSH1 0x20 MSTORE DUP1 DUP3 KECCAK256 SWAP2 PUSH1 0xFF DUP5 DUP5 ADD SLOAD AND SWAP3 DUP4 PUSH2 0x2EA JUMPI JUMPDEST PUSH1 0x20 DUP5 DUP5 MLOAD SWAP1 ISZERO ISZERO DUP2 MSTORE RETURN JUMPDEST PUSH1 0xFF SWAP2 SWAP3 SWAP4 POP PUSH1 0x1 ADD SLOAD AND SWAP3 PUSH1 0x3 DUP5 LT ISZERO PUSH2 0x30F JUMPI POP POP PUSH1 0x2 PUSH1 0x20 SWAP3 EQ SWAP1 DUP4 DUP1 PUSH2 0x2DE JUMP JUMPDEST PUSH4 0x4E487B71 PUSH1 0xE0 SHL DUP3 MSTORE PUSH1 0x21 SWAP1 MSTORE PUSH1 0x24 SWAP1 REVERT JUMPDEST POP POP CALLVALUE PUSH2 0x169 JUMPI DUP2 PUSH1 0x3 NOT CALLDATASIZE ADD SLT PUSH2 0x169 JUMPI PUSH1 0x2 SLOAD SWAP1 MLOAD PUSH1 0x1 PUSH1 0x1 PUSH1 0xA0 SHL SUB SWAP1 SWAP2 AND DUP2 MSTORE PUSH1 0x20 SWAP1 RETURN JUMPDEST SWAP1 POP CALLVALUE PUSH2 0x29D JUMPI PUSH1 0x20 CALLDATASIZE PUSH1 0x3 NOT ADD SLT PUSH2 0x29D JUMPI PUSH2 0x366 PUSH2 0xC5A JUMP JUMPDEST SWAP1 PUSH2 0x36F PUSH2 0x11CC JUMP JUMPDEST PUSH1 0x1 PUSH1 0x1 PUSH1 0xA0 SHL SUB SWAP2 DUP3 AND SWAP3 DUP4 ISZERO PUSH2 0x3C5 JUMPI POP POP PUSH1 0x1 SLOAD DUP3 PUSH12 0xFFFFFFFFFFFFFFFFFFFFFFFF PUSH1 0xA0 SHL DUP3 AND OR PUSH1 0x1 SSTORE AND PUSH32 0x8BE0079C531659141344CD1FD0A4F28419497F9722A3DAAFE3B4186F6B6457E0 DUP4 DUP1 LOG3 DUP1 RETURN JUMPDEST SWAP1 PUSH1 0x20 PUSH1 0x84 SWAP3 MLOAD SWAP2 PUSH3 0x461BCD PUSH1 0xE5 SHL DUP4 MSTORE DUP3 ADD MSTORE PUSH1 0x26 PUSH1 0x24 DUP3 ADD MSTORE PUSH32 0x4F776E61626C653A206E6577206F776E657220697320746865207A65726F2061 PUSH1 0x44 DUP3 ADD MSTORE PUSH6 0x646472657373 PUSH1 0xD0 SHL PUSH1 0x64 DUP3 ADD MSTORE REVERT JUMPDEST DUP4 SWAP1 CALLVALUE PUSH2 0x169 JUMPI PUSH1 0x20 CALLDATASIZE PUSH1 0x3 NOT ADD SLT PUSH2 0x169 JUMPI PUSH2 0x432 PUSH2 0x11CC JUMP JUMPDEST DUP1 CALLDATALOAD SWAP1 SSTORE DUP1 RETURN JUMPDEST DUP4 SWAP1 CALLVALUE PUSH2 0x169 JUMPI PUSH1 0x20 CALLDATASIZE PUSH1 0x3 NOT ADD SLT PUSH2 0x169 JUMPI PUSH2 0x454 PUSH2 0x11CC JUMP JUMPDEST CALLDATALOAD PUSH1 0x3 SSTORE DUP1 RETURN JUMPDEST POP POP CALLVALUE PUSH2 0x169 JUMPI DUP2 PUSH1 0x3 NOT CALLDATASIZE ADD SLT PUSH2 0x169 JUMPI PUSH1 0x20 SWAP1 PUSH1 0x9 SLOAD SWAP1 MLOAD SWAP1 DUP2 MSTORE RETURN JUMPDEST DUP3 DUP5 CALLVALUE PUSH2 0x4D9 JUMPI PUSH1 0x20 CALLDATASIZE PUSH1 0x3 NOT ADD SLT PUSH2 0x4D9 JUMPI PUSH2 0x4D5 SWAP1 DUP3 SWAP1 PUSH1 0x1 PUSH1 0x1 PUSH1 0xA0 SHL SUB PUSH2 0x4A3 PUSH2 0xC5A JUMP JUMPDEST AND DUP2 MSTORE PUSH1 0x8 PUSH1 0x20 MSTORE KECCAK256 SWAP2 DUP3 SLOAD SWAP3 PUSH1 0xFF PUSH1 0x1 DUP3 ADD SLOAD AND SWAP5 PUSH1 0xFF PUSH1 0x2 DUP4 ADD SLOAD SWAP2 PUSH1 0x3 DUP5 ADD SLOAD SWAP4 ADD SLOAD AND SWAP3 MLOAD SWAP6 DUP7 SWAP6 DUP7 PUSH2 0xC98 JUMP JUMPDEST SUB SWAP1 RETURN JUMPDEST DUP1 REVERT JUMPDEST DUP4 SWAP1 CALLVALUE PUSH2 0x169 JUMPI PUSH1 0x20 CALLDATASIZE PUSH1 0x3 NOT ADD SLT PUSH2 0x169 JUMPI PUSH2 0x4F7 PUSH2 0x11CC JUMP JUMPDEST CALLDATALOAD PUSH1 0x5 SSTORE DUP1 RETURN JUMPDEST POP POP CALLVALUE PUSH2 0x169 JUMPI DUP2 PUSH1 0x3 NOT CALLDATASIZE ADD SLT PUSH2 0x169 JUMPI PUSH1 0x20 SWAP1 PUSH1 0x7 SLOAD SWAP1 MLOAD SWAP1 DUP2 MSTORE RETURN JUMPDEST POP POP CALLVALUE PUSH2 0x169 JUMPI DUP2 PUSH1 0x3 NOT CALLDATASIZE ADD SLT PUSH2 0x169 JUMPI PUSH1 0x1 SLOAD SWAP1 MLOAD PUSH1 0x1 PUSH1 0x1 PUSH1 0xA0 SHL SUB SWAP1 SWAP2 AND DUP2 MSTORE PUSH1 0x20 SWAP1 RETURN JUMPDEST POP POP CALLVALUE PUSH2 0x169 JUMPI DUP2 PUSH1 0x3 NOT CALLDATASIZE ADD SLT PUSH2 0x169 JUMPI PUSH1 0x20 PUSH32 0x62E78CEA01BEE320CD4E420270B5EA74000D11B0C9F74754EBDBFC544B05A258 SWAP2 PUSH2 0x584 PUSH2 0x11CC JUMP JUMPDEST PUSH2 0x58C PUSH2 0x112A JUMP JUMPDEST PUSH1 0x1 DUP1 SLOAD PUSH1 0xFF PUSH1 0xA0 SHL NOT AND PUSH1 0x1 PUSH1 0xA0 SHL OR SWAP1 SSTORE MLOAD CALLER DUP2 MSTORE LOG1 DUP1 RETURN JUMPDEST POP POP CALLVALUE PUSH2 0x169 JUMPI DUP2 PUSH1 0x3 NOT CALLDATASIZE ADD SLT PUSH2 0x169 JUMPI PUSH1 0x20 SWAP1 PUSH1 0x6 SLOAD SWAP1 MLOAD SWAP1 DUP2 MSTORE RETURN JUMPDEST POP POP CALLVALUE PUSH2 0x169 JUMPI DUP2 PUSH1 0x3 NOT CALLDATASIZE ADD SLT PUSH2 0x169 JUMPI PUSH1 0x20 SWAP1 PUSH1 0x5 SLOAD SWAP1 MLOAD SWAP1 DUP2 MSTORE RETURN JUMPDEST DUP4 CALLVALUE PUSH2 0x4D9 JUMPI DUP1 PUSH1 0x3 NOT CALLDATASIZE ADD SLT PUSH2 0x4D9 JUMPI PUSH2 0x5FE PUSH2 0x11CC JUMP JUMPDEST PUSH1 0x1 DUP1 SLOAD PUSH1 0x1 PUSH1 0x1 PUSH1 0xA0 SHL SUB NOT DUP2 AND SWAP1 SWAP2 SSTORE DUP2 SWAP1 PUSH1 0x1 PUSH1 0x1 PUSH1 0xA0 SHL SUB AND PUSH32 0x8BE0079C531659141344CD1FD0A4F28419497F9722A3DAAFE3B4186F6B6457E0 DUP3 DUP1 LOG3 DUP1 RETURN JUMPDEST DUP4 DUP4 CALLVALUE PUSH2 0x169 JUMPI PUSH1 0x20 CALLDATASIZE PUSH1 0x3 NOT ADD SLT PUSH2 0x169 JUMPI PUSH1 0x1 PUSH1 0x1 PUSH1 0xA0 SHL SUB PUSH2 0x665 PUSH2 0xC5A JUMP JUMPDEST AND DUP3 MSTORE PUSH1 0x8 PUSH1 0x20 MSTORE DUP1 DUP3 KECCAK256 SWAP2 PUSH1 0xFF DUP5 DUP5 ADD SLOAD AND SWAP3 DUP4 PUSH2 0x68A JUMPI PUSH1 0x20 DUP5 DUP5 MLOAD SWAP1 ISZERO ISZERO DUP2 MSTORE RETURN JUMPDEST PUSH1 0xFF SWAP2 SWAP3 SWAP4 POP PUSH1 0x1 ADD SLOAD AND SWAP3 PUSH1 0x3 DUP5 LT ISZERO PUSH2 0x30F JUMPI POP POP PUSH1 0x1 PUSH1 0x20 SWAP3 EQ SWAP1 DUP4 DUP1 PUSH2 0x2DE JUMP JUMPDEST DUP4 SWAP2 POP CALLVALUE PUSH2 0x169 JUMPI PUSH1 0x60 CALLDATASIZE PUSH1 0x3 NOT ADD SLT PUSH2 0x169 JUMPI PUSH2 0x6CB PUSH2 0xC5A JUMP JUMPDEST SWAP3 PUSH1 0x24 SWAP4 DUP5 CALLDATALOAD SWAP1 PUSH1 0x44 CALLDATALOAD PUSH8 0xFFFFFFFFFFFFFFFF SWAP2 DUP3 DUP3 GT PUSH2 0x936 JUMPI CALLDATASIZE PUSH1 0x23 DUP4 ADD SLT ISZERO PUSH2 0x936 JUMPI DUP2 DUP7 ADD CALLDATALOAD SWAP3 DUP4 GT PUSH2 0x936 JUMPI CALLDATASIZE DUP9 DUP5 DUP5 ADD ADD GT PUSH2 0x936 JUMPI PUSH2 0x70F PUSH2 0x11CC JUMP JUMPDEST PUSH2 0x717 PUSH2 0x10D4 JUMP JUMPDEST DUP4 ISZERO ISZERO DUP1 PUSH2 0x92A JUMPI JUMPDEST ISZERO PUSH2 0x8F1 JUMPI PUSH1 0x1 DUP1 PUSH1 0xA0 SHL SUB DUP1 SWAP2 AND SWAP6 DUP7 DUP9 MSTORE PUSH1 0x8 PUSH1 0x20 MSTORE DUP6 DUP9 KECCAK256 SWAP1 DUP2 SLOAD SWAP6 DUP7 ISZERO PUSH2 0x8BB JUMPI DUP1 DUP8 MUL SWAP1 DUP8 DUP3 DIV SUB PUSH2 0x8A9 JUMPI PUSH2 0x2710 PUSH2 0x760 SWAP2 DIV DUP1 SWAP8 PUSH2 0x10BA JUMP JUMPDEST DUP3 SSTORE PUSH2 0x76E DUP7 PUSH1 0x6 SLOAD PUSH2 0x10BA JUMP JUMPDEST PUSH1 0x6 SSTORE PUSH2 0x77D DUP7 PUSH1 0x7 SLOAD PUSH2 0xCC6 JUMP JUMPDEST PUSH1 0x7 SSTORE PUSH1 0xFF PUSH1 0x1 DUP4 ADD SLOAD AND SWAP1 PUSH1 0x3 DUP3 LT ISZERO PUSH2 0x897 JUMPI SWAP4 PUSH2 0x814 DUP7 SWAP5 PUSH1 0x60 SWAP8 SWAP5 DUP14 SWAP5 PUSH32 0x7E947095ED288D8885423BDAEF4015B7420FFA9B84D62EF67C402E8BC36A8EA9 SWAP12 SWAP11 SWAP9 PUSH1 0x2 DUP3 EQ PUSH1 0x0 EQ PUSH2 0x88F JUMPI DUP1 SLOAD JUMPDEST DUP4 SLOAD LT DUP1 PUSH2 0x882 JUMPI JUMPDEST PUSH2 0x846 JUMPI JUMPDEST POP POP POP PUSH1 0x2 SLOAD AND DUP9 MLOAD SWAP1 PUSH4 0xA9059CBB PUSH1 0xE0 SHL PUSH1 0x20 DUP4 ADD MSTORE PUSH2 0xDEAD DUP6 DUP4 ADD MSTORE DUP8 PUSH1 0x44 DUP4 ADD MSTORE PUSH1 0x44 DUP3 MSTORE PUSH2 0x80F DUP3 PUSH2 0xCE9 JUMP JUMPDEST PUSH2 0x1224 JUMP JUMPDEST DUP3 DUP8 MLOAD SWAP8 DUP9 SWAP7 DUP8 MSTORE DUP1 PUSH1 0x20 DUP9 ADD MSTORE DUP7 ADD MSTORE ADD DUP5 DUP5 ADD CALLDATACOPY DUP2 DUP2 ADD DUP4 ADD DUP8 SWAP1 MSTORE PUSH1 0x1F ADD PUSH1 0x1F NOT AND DUP2 ADD SUB ADD SWAP1 LOG2 PUSH1 0x1 DUP2 SSTORE DUP1 RETURN JUMPDEST SWAP1 SWAP2 ADD DUP1 SLOAD PUSH1 0xFF NOT AND SWAP1 SSTORE PUSH1 0x1 SUB PUSH2 0x86F JUMPI PUSH2 0x863 PUSH1 0x9 SLOAD PUSH2 0x10C7 JUMP JUMPDEST PUSH1 0x9 SSTORE JUMPDEST DUP13 DUP1 DUP1 PUSH2 0x7DE JUMP JUMPDEST PUSH2 0x87A PUSH1 0xA SLOAD PUSH2 0x10C7 JUMP JUMPDEST PUSH1 0xA SSTORE PUSH2 0x867 JUMP JUMPDEST POP PUSH1 0xFF DUP2 DUP5 ADD SLOAD AND PUSH2 0x7D9 JUMP JUMPDEST PUSH1 0x3 SLOAD PUSH2 0x7D0 JUMP JUMPDEST PUSH4 0x4E487B71 PUSH1 0xE0 SHL DUP11 MSTORE PUSH1 0x21 SWAP1 MSTORE DUP10 DUP10 REVERT JUMPDEST PUSH4 0x4E487B71 PUSH1 0xE0 SHL DUP11 MSTORE PUSH1 0x11 DUP3 MSTORE DUP11 DUP11 REVERT JUMPDEST DUP8 MLOAD PUSH3 0x461BCD PUSH1 0xE5 SHL DUP2 MSTORE PUSH1 0x20 DUP2 DUP5 ADD MSTORE PUSH1 0x11 DUP2 DUP14 ADD MSTORE PUSH17 0x9CDE40E6E8C2D6CA40E8DE40E6D8C2E6D PUSH1 0x7B SHL PUSH1 0x44 DUP3 ADD MSTORE PUSH1 0x64 SWAP1 REVERT JUMPDEST DUP5 MLOAD PUSH3 0x461BCD PUSH1 0xE5 SHL DUP2 MSTORE PUSH1 0x20 DUP2 DUP9 ADD MSTORE PUSH1 0x14 DUP2 DUP11 ADD MSTORE PUSH20 0x496E76616C696420626173697320706F696E7473 PUSH1 0x60 SHL PUSH1 0x44 DUP3 ADD MSTORE PUSH1 0x64 SWAP1 REVERT JUMPDEST POP PUSH2 0x2710 DUP5 GT ISZERO PUSH2 0x720 JUMP JUMPDEST DUP7 DUP1 REVERT JUMPDEST SWAP1 POP CALLVALUE PUSH2 0x29D JUMPI PUSH1 0x20 CALLDATASIZE PUSH1 0x3 NOT ADD SLT PUSH2 0x29D JUMPI PUSH1 0x20 SWAP3 PUSH1 0xFF SWAP2 SWAP1 DUP4 SWAP1 PUSH1 0x1 PUSH1 0x1 PUSH1 0xA0 SHL SUB PUSH2 0x966 PUSH2 0xC5A JUMP JUMPDEST AND DUP2 MSTORE PUSH1 0x8 DUP7 MSTORE KECCAK256 ADD SLOAD AND SWAP1 MLOAD SWAP1 ISZERO ISZERO DUP2 MSTORE RETURN JUMPDEST POP POP CALLVALUE PUSH2 0x169 JUMPI DUP2 PUSH1 0x3 NOT CALLDATASIZE ADD SLT PUSH2 0x169 JUMPI PUSH1 0x20 SWAP1 PUSH1 0xFF PUSH1 0x1 SLOAD PUSH1 0xA0 SHR AND SWAP1 MLOAD SWAP1 ISZERO ISZERO DUP2 MSTORE RETURN JUMPDEST POP POP CALLVALUE PUSH2 0x169 JUMPI DUP2 PUSH1 0x3 NOT CALLDATASIZE ADD SLT PUSH2 0x169 JUMPI PUSH1 0x20 SWAP1 PUSH1 0x3 SLOAD SWAP1 MLOAD SWAP1 DUP2 MSTORE RETURN JUMPDEST SWAP1 POP CALLVALUE PUSH2 0x29D JUMPI DUP3 PUSH1 0x3 NOT CALLDATASIZE ADD SLT PUSH2 0x29D JUMPI PUSH2 0x9DA PUSH2 0x11CC JUMP JUMPDEST PUSH1 0x1 SLOAD SWAP1 PUSH1 0xFF DUP3 PUSH1 0xA0 SHR AND ISZERO PUSH2 0xA22 JUMPI POP PUSH1 0xFF PUSH1 0xA0 SHL NOT AND PUSH1 0x1 SSTORE MLOAD CALLER DUP2 MSTORE PUSH32 0x5DB9EE0A495BF2E6FF9C91A7834C1BA4FDD244A5E8AA4E537BD38AEAE4B073AA SWAP1 PUSH1 0x20 SWAP1 LOG1 DUP1 RETURN JUMPDEST PUSH1 0x64 SWAP1 PUSH1 0x20 DUP5 MLOAD SWAP2 PUSH3 0x461BCD PUSH1 0xE5 SHL DUP4 MSTORE DUP3 ADD MSTORE PUSH1 0x14 PUSH1 0x24 DUP3 ADD MSTORE PUSH20 0x14185D5CD8589B194E881B9BDD081C185D5CD959 PUSH1 0x62 SHL PUSH1 0x44 DUP3 ADD MSTORE REVERT JUMPDEST SWAP2 SWAP1 POP CALLVALUE PUSH2 0x29D JUMPI DUP3 PUSH1 0x3 NOT CALLDATASIZE ADD SLT PUSH2 0x29D JUMPI PUSH2 0xA77 PUSH2 0x10D4 JUMP JUMPDEST CALLER DUP4 MSTORE PUSH1 0x20 SWAP1 PUSH1 0x8 DUP3 MSTORE DUP1 DUP5 KECCAK256 PUSH1 0x3 DUP2 ADD SWAP1 DUP2 SLOAD DUP1 ISZERO PUSH2 0xBA9 JUMPI PUSH1 0x5 SLOAD PUSH2 0xA9D SWAP2 PUSH2 0xCC6 JUMP JUMPDEST TIMESTAMP LT PUSH2 0xB6F JUMPI DUP1 SLOAD SWAP5 DUP6 ISZERO PUSH2 0xB36 JUMPI POP PUSH32 0x7084F5476618D8E60B11EF0D7D3F06914655ADB8793E28FF7F018D4C76D505D5 SWAP4 SWAP3 SWAP2 PUSH1 0x1 DUP3 DUP9 DUP1 SWAP5 SSTORE ADD PUSH1 0xFF NOT DUP2 SLOAD AND SWAP1 SSTORE SSTORE PUSH2 0xAEE DUP5 PUSH1 0x6 SLOAD PUSH2 0x10BA JUMP JUMPDEST PUSH1 0x6 SSTORE PUSH1 0x2 SLOAD DUP2 MLOAD PUSH4 0xA9059CBB PUSH1 0xE0 SHL DUP5 DUP3 ADD MSTORE CALLER PUSH1 0x24 DUP3 ADD MSTORE PUSH1 0x44 DUP1 DUP3 ADD DUP8 SWAP1 MSTORE DUP2 MSTORE PUSH2 0xB28 SWAP2 PUSH1 0x1 PUSH1 0x1 PUSH1 0xA0 SHL SUB AND PUSH2 0x80F DUP3 PUSH2 0xCE9 JUMP JUMPDEST MLOAD SWAP3 DUP4 MSTORE CALLER SWAP3 LOG2 PUSH1 0x1 DUP2 SSTORE DUP1 RETURN JUMPDEST DUP4 MLOAD PUSH3 0x461BCD PUSH1 0xE5 SHL DUP2 MSTORE SWAP1 DUP2 ADD DUP6 SWAP1 MSTORE PUSH1 0x13 PUSH1 0x24 DUP3 ADD MSTORE PUSH19 0x4E6F7468696E6720746F207769746864726177 PUSH1 0x68 SHL PUSH1 0x44 DUP3 ADD MSTORE PUSH1 0x64 SWAP1 REVERT JUMPDEST POP POP MLOAD PUSH3 0x461BCD PUSH1 0xE5 SHL DUP2 MSTORE SWAP2 DUP3 ADD MSTORE PUSH1 0x14 PUSH1 0x24 DUP3 ADD MSTORE PUSH20 0x10DBDBDB191BDDDB881B9BDD08195E1C1A5C9959 PUSH1 0x62 SHL PUSH1 0x44 DUP3 ADD MSTORE PUSH1 0x64 SWAP2 POP REVERT JUMPDEST DUP4 MLOAD PUSH3 0x461BCD PUSH1 0xE5 SHL DUP2 MSTORE DUP1 DUP8 ADD DUP7 SWAP1 MSTORE PUSH1 0x12 PUSH1 0x24 DUP3 ADD MSTORE PUSH18 0x139BC81D5B9CDD185AD9481C995C5D595CDD PUSH1 0x72 SHL PUSH1 0x44 DUP3 ADD MSTORE PUSH1 0x64 SWAP1 REVERT JUMPDEST POP POP CALLVALUE PUSH2 0x169 JUMPI DUP2 PUSH1 0x3 NOT CALLDATASIZE ADD SLT PUSH2 0x169 JUMPI PUSH1 0x20 SWAP1 PUSH1 0xA SLOAD SWAP1 MLOAD SWAP1 DUP2 MSTORE RETURN JUMPDEST SWAP2 SWAP1 POP CALLVALUE PUSH2 0x29D JUMPI CALLDATASIZE PUSH1 0x3 NOT ADD SLT PUSH2 0x169 JUMPI PUSH1 0x24 CALLDATALOAD PUSH1 0x3 DUP2 LT ISZERO PUSH2 0x29D JUMPI PUSH2 0xC38 SWAP2 PUSH2 0xC2A PUSH2 0x10D4 JUMP JUMPDEST PUSH2 0xC32 PUSH2 0x112A JUMP JUMPDEST CALLDATALOAD PUSH2 0xD2A JUMP JUMPDEST PUSH1 0x1 DUP2 SSTORE DUP1 RETURN JUMPDEST DUP5 SWAP2 CALLVALUE PUSH2 0x29D JUMPI DUP3 PUSH1 0x3 NOT CALLDATASIZE ADD SLT PUSH2 0x29D JUMPI PUSH1 0x20 SWAP3 POP SLOAD DUP2 MSTORE RETURN JUMPDEST PUSH1 0x4 CALLDATALOAD SWAP1 PUSH1 0x1 PUSH1 0x1 PUSH1 0xA0 SHL SUB DUP3 AND DUP3 SUB PUSH2 0xC70 JUMPI JUMP JUMPDEST PUSH1 0x0 DUP1 REVERT JUMPDEST SWAP1 PUSH1 0x3 DUP3 LT ISZERO PUSH2 0xC82 JUMPI MSTORE JUMP JUMPDEST PUSH4 0x4E487B71 PUSH1 0xE0 SHL PUSH1 0x0 MSTORE PUSH1 0x21 PUSH1 0x4 MSTORE PUSH1 0x24 PUSH1 0x0 REVERT JUMPDEST SWAP4 SWAP1 SWAP6 SWAP5 SWAP2 SWAP3 PUSH2 0xCB5 PUSH1 0x80 SWAP5 PUSH1 0xA0 DUP8 ADD SWAP9 DUP8 MSTORE PUSH1 0x20 DUP8 ADD SWAP1 PUSH2 0xC75 JUMP JUMPDEST PUSH1 0x40 DUP6 ADD MSTORE PUSH1 0x60 DUP5 ADD MSTORE ISZERO ISZERO SWAP2 ADD MSTORE JUMP JUMPDEST SWAP2 SWAP1 DUP3 ADD DUP1 SWAP3 GT PUSH2 0xCD3 JUMPI JUMP JUMPDEST PUSH4 0x4E487B71 PUSH1 0xE0 SHL PUSH1 0x0 MSTORE PUSH1 0x11 PUSH1 0x4 MSTORE PUSH1 0x24 PUSH1 0x0 REVERT JUMPDEST PUSH1 0x80 DUP2 ADD SWAP1 DUP2 LT PUSH8 0xFFFFFFFFFFFFFFFF DUP3 GT OR PUSH2 0xD05 JUMPI PUSH1 0x40 MSTORE JUMP JUMPDEST PUSH4 0x4E487B71 PUSH1 0xE0 SHL PUSH1 0x0 MSTORE PUSH1 0x41 PUSH1 0x4 MSTORE PUSH1 0x24 PUSH1 0x0 REVERT JUMPDEST PUSH1 0x0 NOT DUP2 EQ PUSH2 0xCD3 JUMPI PUSH1 0x1 ADD SWAP1 JUMP JUMPDEST PUSH1 0x3 DUP1 DUP4 LT ISZERO SWAP4 SWAP3 DUP5 PUSH2 0xC82 JUMPI PUSH1 0x1 DUP2 EQ SWAP2 DUP3 DUP1 ISZERO PUSH2 0x10AC JUMPI JUMPDEST ISZERO PUSH2 0x1078 JUMPI DUP4 ISZERO PUSH2 0x103E JUMPI PUSH1 0x0 SWAP3 CALLER DUP5 MSTORE PUSH1 0x20 SWAP2 PUSH1 0x8 DUP4 MSTORE PUSH1 0x40 SWAP5 DUP6 DUP2 KECCAK256 SWAP9 PUSH1 0x4 SWAP10 PUSH1 0xFF DUP12 DUP3 ADD SLOAD AND PUSH2 0xF17 JUMPI POP PUSH2 0xF04 JUMPI PUSH1 0x2 DUP6 SUB PUSH2 0xEFD JUMPI DUP9 SLOAD JUMPDEST DUP8 LT PUSH2 0xEC4 JUMPI DUP6 MLOAD PUSH1 0xA0 DUP2 ADD DUP2 DUP2 LT PUSH8 0xFFFFFFFFFFFFFFFF DUP3 GT OR PUSH2 0xEB1 JUMPI DUP8 MSTORE DUP8 DUP2 MSTORE DUP5 DUP2 ADD SWAP3 DUP7 DUP5 MSTORE DUP8 DUP3 ADD TIMESTAMP DUP2 MSTORE PUSH1 0x60 DUP4 ADD SWAP1 DUP5 DUP3 MSTORE PUSH1 0x80 DUP5 ADD SWAP6 PUSH1 0x1 DUP8 MSTORE CALLER DUP7 MSTORE PUSH1 0x8 DUP10 MSTORE DUP11 DUP7 KECCAK256 SWAP5 MLOAD DUP6 SSTORE PUSH1 0x1 DUP6 ADD SWAP1 MLOAD SWAP6 DUP5 DUP8 LT ISZERO PUSH2 0xE9D JUMPI POP SWAP3 PUSH32 0x8ACF475137E0CD74CA7F611D16B1E6383EC9A9C71A8E5B85967781B9C7214D11 SWAP12 SWAP13 SWAP14 SWAP3 PUSH2 0xE85 SWAP11 SWAP10 SWAP9 SWAP8 SWAP7 SWAP6 SWAP3 PUSH1 0xFF SWAP6 DUP7 NOT SWAP8 DUP8 DUP10 DUP4 SLOAD AND SWAP2 AND OR SWAP1 SSTORE MLOAD PUSH1 0x2 DUP5 ADD SSTORE MLOAD SWAP1 DUP3 ADD SSTORE ADD SWAP3 MLOAD ISZERO ISZERO SWAP2 DUP4 SLOAD AND SWAP2 AND OR SWAP1 SSTORE PUSH2 0xE46 DUP8 PUSH1 0x6 SLOAD PUSH2 0xCC6 JUMP JUMPDEST PUSH1 0x6 SSTORE ISZERO PUSH2 0xE8A JUMPI PUSH2 0xE59 PUSH1 0x9 SLOAD PUSH2 0xD1B JUMP JUMPDEST PUSH1 0x9 SSTORE JUMPDEST PUSH1 0x2 SLOAD PUSH2 0xE78 SWAP1 DUP8 SWAP1 ADDRESS SWAP1 CALLER SWAP1 PUSH1 0x1 PUSH1 0x1 PUSH1 0xA0 SHL SUB AND PUSH2 0x1171 JUMP JUMPDEST DUP4 MLOAD SWAP6 DUP7 MSTORE DUP6 ADD SWAP1 PUSH2 0xC75 JUMP JUMPDEST CALLER SWAP3 LOG2 JUMP JUMPDEST PUSH2 0xE95 PUSH1 0xA SLOAD PUSH2 0xD1B JUMP JUMPDEST PUSH1 0xA SSTORE PUSH2 0xE5D JUMP JUMPDEST PUSH4 0x4E487B71 PUSH1 0xE0 SHL DUP2 MSTORE PUSH1 0x21 DUP16 MSTORE PUSH1 0x24 SWAP2 POP REVERT JUMPDEST PUSH4 0x4E487B71 PUSH1 0xE0 SHL DUP4 MSTORE PUSH1 0x41 DUP12 MSTORE PUSH1 0x24 DUP4 REVERT JUMPDEST DUP6 MLOAD PUSH3 0x461BCD PUSH1 0xE5 SHL DUP2 MSTORE DUP1 DUP11 ADD DUP6 SWAP1 MSTORE PUSH1 0x13 PUSH1 0x24 DUP3 ADD MSTORE PUSH19 0x42656C6F77206D696E696D756D207374616B65 PUSH1 0x68 SHL PUSH1 0x44 DUP3 ADD MSTORE PUSH1 0x64 SWAP1 REVERT JUMPDEST DUP2 SLOAD PUSH2 0xD81 JUMP JUMPDEST PUSH4 0x4E487B71 PUSH1 0xE0 SHL DUP2 MSTORE PUSH1 0x21 DUP10 MSTORE PUSH1 0x24 SWAP1 REVERT JUMPDEST SWAP6 SWAP3 SWAP4 POP SWAP1 PUSH1 0xFF PUSH1 0x1 DUP8 SWAP12 SWAP7 SWAP9 SWAP10 SWAP11 SWAP12 ADD SLOAD AND SWAP2 PUSH2 0x102B JUMPI DUP4 DUP3 LT ISZERO PUSH2 0x102B JUMPI POP SUB PUSH2 0xFE8 JUMPI DUP3 ADD SLOAD PUSH2 0xFAF JUMPI POP SWAP1 DUP2 PUSH2 0xF74 DUP6 PUSH32 0xE6AFB5CA7CC84435BAF09DA39FCB42FC0FB8BDFEF6C3FF2CE9FCE2C70A18F821 SWAP6 SWAP5 SLOAD PUSH2 0xCC6 JUMP JUMPDEST DUP2 SSTORE PUSH2 0xF82 DUP6 PUSH1 0x6 SLOAD PUSH2 0xCC6 JUMP JUMPDEST PUSH1 0x6 SSTORE PUSH1 0x2 SLOAD PUSH2 0xFA0 SWAP1 DUP7 SWAP1 ADDRESS SWAP1 CALLER SWAP1 PUSH1 0x1 PUSH1 0x1 PUSH1 0xA0 SHL SUB AND PUSH2 0x1171 JUMP JUMPDEST SLOAD SWAP1 DUP3 MLOAD SWAP5 DUP6 MSTORE DUP5 ADD MSTORE CALLER SWAP3 LOG2 JUMP JUMPDEST DUP4 MLOAD PUSH3 0x461BCD PUSH1 0xE5 SHL DUP2 MSTORE SWAP1 DUP2 ADD DUP4 SWAP1 MSTORE PUSH1 0x13 PUSH1 0x24 DUP3 ADD MSTORE PUSH19 0x556E7374616B6520696E2070726F6772657373 PUSH1 0x68 SHL PUSH1 0x44 DUP3 ADD MSTORE PUSH1 0x64 SWAP1 REVERT JUMPDEST DUP5 MLOAD PUSH3 0x461BCD PUSH1 0xE5 SHL DUP2 MSTORE DUP1 DUP4 ADD DUP6 SWAP1 MSTORE PUSH1 0x1F PUSH1 0x24 DUP3 ADD MSTORE PUSH32 0x43616E6E6F74206368616E676520726F6C65207768696C65207374616B656400 PUSH1 0x44 DUP3 ADD MSTORE PUSH1 0x64 SWAP1 REVERT JUMPDEST PUSH4 0x4E487B71 PUSH1 0xE0 SHL DUP2 MSTORE PUSH1 0x21 DUP6 MSTORE PUSH1 0x24 SWAP1 REVERT JUMPDEST PUSH1 0x40 MLOAD PUSH3 0x461BCD PUSH1 0xE5 SHL DUP2 MSTORE PUSH1 0x20 PUSH1 0x4 DUP3 ADD MSTORE PUSH1 0x12 PUSH1 0x24 DUP3 ADD MSTORE PUSH18 0x416D6F756E74206D757374206265203E203 PUSH1 0x74 SHL PUSH1 0x44 DUP3 ADD MSTORE PUSH1 0x64 SWAP1 REVERT JUMPDEST PUSH1 0x40 MLOAD PUSH3 0x461BCD PUSH1 0xE5 SHL DUP2 MSTORE PUSH1 0x20 PUSH1 0x4 DUP3 ADD MSTORE PUSH1 0xC PUSH1 0x24 DUP3 ADD MSTORE PUSH12 0x496E76616C696420726F6C65 PUSH1 0xA0 SHL PUSH1 0x44 DUP3 ADD MSTORE PUSH1 0x64 SWAP1 REVERT JUMPDEST POP PUSH1 0x0 SWAP6 POP PUSH1 0x2 DUP3 EQ PUSH2 0xD44 JUMP JUMPDEST SWAP2 SWAP1 DUP3 SUB SWAP2 DUP3 GT PUSH2 0xCD3 JUMPI JUMP JUMPDEST DUP1 ISZERO PUSH2 0xCD3 JUMPI PUSH1 0x0 NOT ADD SWAP1 JUMP JUMPDEST PUSH1 0x2 PUSH1 0x0 SLOAD EQ PUSH2 0x10E5 JUMPI PUSH1 0x2 PUSH1 0x0 SSTORE JUMP JUMPDEST PUSH1 0x40 MLOAD PUSH3 0x461BCD PUSH1 0xE5 SHL DUP2 MSTORE PUSH1 0x20 PUSH1 0x4 DUP3 ADD MSTORE PUSH1 0x1F PUSH1 0x24 DUP3 ADD MSTORE PUSH32 0x5265656E7472616E637947756172643A207265656E7472616E742063616C6C00 PUSH1 0x44 DUP3 ADD MSTORE PUSH1 0x64 SWAP1 REVERT JUMPDEST PUSH1 0xFF PUSH1 0x1 SLOAD PUSH1 0xA0 SHR AND PUSH2 0x1139 JUMPI JUMP JUMPDEST PUSH1 0x40 MLOAD PUSH3 0x461BCD PUSH1 0xE5 SHL DUP2 MSTORE PUSH1 0x20 PUSH1 0x4 DUP3 ADD MSTORE PUSH1 0x10 PUSH1 0x24 DUP3 ADD MSTORE PUSH16 0x14185D5CD8589B194E881C185D5CD959 PUSH1 0x82 SHL PUSH1 0x44 DUP3 ADD MSTORE PUSH1 0x64 SWAP1 REVERT JUMPDEST PUSH1 0x40 MLOAD PUSH4 0x23B872DD PUSH1 0xE0 SHL PUSH1 0x20 DUP3 ADD MSTORE PUSH1 0x1 PUSH1 0x1 PUSH1 0xA0 SHL SUB SWAP3 DUP4 AND PUSH1 0x24 DUP3 ADD MSTORE SWAP3 SWAP1 SWAP2 AND PUSH1 0x44 DUP4 ADD MSTORE PUSH1 0x64 DUP1 DUP4 ADD SWAP4 SWAP1 SWAP4 MSTORE SWAP2 DUP2 MSTORE PUSH1 0xA0 DUP2 ADD SWAP2 DUP2 DUP4 LT PUSH8 0xFFFFFFFFFFFFFFFF DUP5 GT OR PUSH2 0xD05 JUMPI PUSH2 0x11CA SWAP3 PUSH1 0x40 MSTORE PUSH2 0x1224 JUMP JUMPDEST JUMP JUMPDEST PUSH1 0x1 SLOAD PUSH1 0x1 PUSH1 0x1 PUSH1 0xA0 SHL SUB AND CALLER SUB PUSH2 0x11E0 JUMPI JUMP JUMPDEST PUSH1 0x64 PUSH1 0x40 MLOAD PUSH3 0x461BCD PUSH1 0xE5 SHL DUP2 MSTORE PUSH1 0x20 PUSH1 0x4 DUP3 ADD MSTORE PUSH1 0x20 PUSH1 0x24 DUP3 ADD MSTORE PUSH32 0x4F776E61626C653A2063616C6C6572206973206E6F7420746865206F776E6572 PUSH1 0x44 DUP3 ADD MSTORE REVERT JUMPDEST PUSH1 0x40 DUP1 MLOAD PUSH8 0xFFFFFFFFFFFFFFFF SWAP5 SWAP4 PUSH1 0x1 PUSH1 0x1 PUSH1 0xA0 SHL SUB SWAP1 SWAP4 AND SWAP3 SWAP1 DUP1 DUP4 ADD DUP7 DUP2 GT DUP3 DUP3 LT OR PUSH2 0xD05 JUMPI DUP4 MSTORE PUSH1 0x20 SWAP4 DUP5 DUP3 MSTORE PUSH32 0x5361666545524332303A206C6F772D6C6576656C2063616C6C206661696C6564 DUP6 DUP4 ADD MSTORE PUSH1 0x0 DUP1 DUP5 DUP8 DUP3 SWAP7 MLOAD SWAP2 ADD DUP3 DUP6 GAS CALL RETURNDATASIZE ISZERO PUSH2 0x138D JUMPI RETURNDATASIZE SWAP2 DUP9 DUP4 GT PUSH2 0x1379 JUMPI PUSH1 0x1F NOT SWAP3 DUP7 MLOAD SWAP4 PUSH1 0x3F DUP2 PUSH1 0x1F DUP5 ADD AND ADD AND DUP5 ADD SWAP10 DUP5 DUP12 LT SWAP1 DUP12 GT OR PUSH2 0x1365 JUMPI DUP7 SWAP8 SWAP9 SWAP10 PUSH2 0x12CF SWAP7 SWAP8 MSTORE DUP4 MSTORE DUP3 DUP7 DUP10 RETURNDATASIZE SWAP3 ADD RETURNDATACOPY PUSH2 0x139A JUMP JUMPDEST DUP1 MLOAD SWAP2 DUP3 ISZERO SWAP2 DUP6 DUP4 ISZERO PUSH2 0x1341 JUMPI JUMPDEST POP POP POP SWAP1 POP ISZERO PUSH2 0x12EB JUMPI POP POP JUMP JUMPDEST PUSH1 0x84 SWAP3 POP MLOAD SWAP1 PUSH3 0x461BCD PUSH1 0xE5 SHL DUP3 MSTORE PUSH1 0x4 DUP3 ADD MSTORE PUSH1 0x2A PUSH1 0x24 DUP3 ADD MSTORE PUSH32 0x5361666545524332303A204552433230206F7065726174696F6E20646964206E PUSH1 0x44 DUP3 ADD MSTORE PUSH10 0x1BDD081CDD58D8D95959 PUSH1 0xB2 SHL PUSH1 0x64 DUP3 ADD MSTORE REVERT JUMPDEST SWAP2 SWAP4 DUP2 DUP1 SWAP5 POP ADD SUB SLT PUSH2 0x169 JUMPI DUP4 ADD MLOAD SWAP1 DUP2 ISZERO ISZERO DUP3 SUB PUSH2 0x4D9 JUMPI POP DUP1 CODESIZE DUP1 DUP6 PUSH2 0x12DD JUMP JUMPDEST PUSH4 0x4E487B71 PUSH1 0xE0 SHL DUP7 MSTORE PUSH1 0x41 PUSH1 0x4 MSTORE PUSH1 0x24 DUP7 REVERT JUMPDEST PUSH4 0x4E487B71 PUSH1 0xE0 SHL DUP6 MSTORE PUSH1 0x41 PUSH1 0x4 MSTORE PUSH1 0x24 DUP6 REVERT JUMPDEST PUSH2 0x12CF SWAP4 SWAP5 SWAP6 SWAP7 SWAP8 POP PUSH1 0x60 SWAP2 JUMPDEST SWAP2 SWAP3 SWAP1 ISZERO PUSH2 0x13FC JUMPI POP DUP2 MLOAD ISZERO PUSH2 0x13AE JUMPI POP SWAP1 JUMP JUMPDEST EXTCODESIZE ISZERO PUSH2 0x13B7 JUMPI SWAP1 JUMP JUMPDEST PUSH1 0x40 MLOAD PUSH3 0x461BCD PUSH1 0xE5 SHL DUP2 MSTORE PUSH1 0x20 PUSH1 0x4 DUP3 ADD MSTORE PUSH1 0x1D PUSH1 0x24 DUP3 ADD MSTORE PUSH32 0x416464726573733A2063616C6C20746F206E6F6E2D636F6E7472616374000000 PUSH1 0x44 DUP3 ADD MSTORE PUSH1 0x64 SWAP1 REVERT JUMPDEST DUP3 MLOAD SWAP1 SWAP2 POP ISZERO PUSH2 0x140F JUMPI POP DUP1 MLOAD SWAP1 PUSH1 0x20 ADD REVERT JUMPDEST PUSH1 0x40 MLOAD SWAP1 PUSH3 0x461BCD PUSH1 0xE5 SHL DUP3 MSTORE DUP2 PUSH1 0x20 DUP1 PUSH1 0x4 DUP4 ADD MSTORE DUP3 MLOAD SWAP1 DUP2 PUSH1 0x24 DUP5 ADD MSTORE PUSH1 0x0 SWAP4 JUMPDEST DUP3 DUP6 LT PUSH2 0x1455 JUMPI POP POP PUSH1 0x44 SWAP3 POP PUSH1 0x0 DUP4 DUP3 DUP5 ADD ADD MSTORE PUSH1 0x1F DUP1 NOT SWAP2 ADD AND DUP2 ADD SUB ADD SWAP1 REVERT JUMPDEST DUP5 DUP2 ADD DUP3 ADD MLOAD DUP7 DUP7 ADD PUSH1 0x44 ADD MSTORE SWAP4 DUP2 ADD SWAP4 DUP6 SWAP4 POP PUSH2 0x1432 JUMP INVALID LOG2 PUSH5 0x6970667358 0x22 SLT KECCAK256 DUP8 PREVRANDAO PUSH12 0xE3028011AD100ACE53B29B58 0xB6 0xA7 SWAP14 BASEFEE EQ DUP15 0xB8 0xB1 PUSH29 0xC4CE1D58CECC371064736F6C6343000818003300000000000000000000 "},"methodIdentifiers":{"BURN_ADDRESS()":"fccc2813","activeMinerCount()":"c69aaedf","activeValidatorCount()":"2340e8d3","getStakeInfo(address)":"c3453153","isMiner(address)":"701b70ac","isStaked(address)":"6177fd18","isValidator(address)":"facd743b","mdtToken()":"f70b5c06","minMinerStake()":"42d18cca","minValidatorStake()":"017ddd35","owner()":"8da5cb5b","pause()":"8456cb59","paused()":"5c975abb","renounceOwnership()":"715018a6","requestUnstake()":"fc63958e","setMinMinerStake(uint256)":"d11fa429","setMinValidatorStake(uint256)":"d3601585","setUnstakeCooldown(uint256)":"a3158b53","slash(address,uint256,string)":"678b3ee2","stake(uint256,uint8)":"10087fb1","stakes(address)":"16934fc4","totalSlashed()":"a201bbdd","totalStaked()":"817b1cd2","transferOwnership(address)":"f2fde38b","unpause()":"3f4ba83a","unstakeCooldown()":"7eefd5ae","withdraw()":"3ccfd60b"}}}}}