{"src/PaymentEscrow.sol":{"PaymentEscrow":{"abi":[{"inputs":[{"internalType":"address","name":"_mdtToken","type":"address"}],"stateMutability":"nonpayable","type":"constructor"},{"anonymous":false,"inputs":[{"indexed":true,"internalType":"uint256","name":"taskId","type":"uint256"},{"indexed":false,"internalType":"uint256","name":"baseMin","type":"uint256"},{"indexed":false,"internalType":"uint256","name":"adaptiveMin","type":"uint256"}],"name":"AdaptiveValidationsApplied","type":"event"},{"anonymous":false,"inputs":[{"indexed":false,"internalType":"uint256","name":"commitDuration","type":"uint256"},{"indexed":false,"internalType":"uint256","name":"revealDuration","type":"uint256"}],"name":"CommitPhaseConfigUpdated","type":"event"},{"anonymous":false,"inputs":[{"indexed":true,"internalType":"uint256","name":"taskId","type":"uint256"},{"indexed":false,"internalType":"uint256","name":"minerIndex","type":"uint256"},{"indexed":false,"internalType":"uint256","name":"medianScore","type":"uint256"},{"indexed":false,"internalType":"uint256","name":"validatorCount","type":"uint256"}],"name":"ConsensusReached","type":"event"},{"anonymous":false,"inputs":[{"indexed":true,"internalType":"uint256","name":"taskId","type":"uint256"},{"indexed":true,"internalType":"address","name":"requester","type":"address"},{"indexed":false,"internalType":"uint256","name":"disputeDeadline","type":"uint256"}],"name":"DisputeOpened","type":"event"},{"anonymous":false,"inputs":[{"indexed":true,"internalType":"uint256","name":"taskId","type":"uint256"},{"indexed":true,"internalType":"address","name":"winner","type":"address"},{"indexed":false,"internalType":"uint256","name":"amount","type":"uint256"}],"name":"DisputeResolved","type":"event"},{"anonymous":false,"inputs":[{"indexed":true,"internalType":"address","name":"account","type":"address"},{"indexed":false,"internalType":"uint256","name":"amount","type":"uint256"}],"name":"EarningsWithdrawn","type":"event"},{"anonymous":false,"inputs":[{"indexed":true,"internalType":"address","name":"to","type":"address"},{"indexed":false,"internalType":"uint256","name":"amount","type":"uint256"}],"name":"FeesWithdrawn","type":"event"},{"anonymous":false,"inputs":[{"indexed":false,"internalType":"uint256","name":"oldMin","type":"uint256"},{"indexed":false,"internalType":"uint256","name":"newMin","type":"uint256"}],"name":"MinValidationsUpdated","type":"event"},{"anonymous":false,"inputs":[{"indexed":true,"internalType":"address","name":"previousOwner","type":"address"},{"indexed":true,"internalType":"address","name":"newOwner","type":"address"}],"name":"OwnershipTransferred","type":"event"},{"anonymous":false,"inputs":[{"indexed":false,"internalType":"address","name":"account","type":"address"}],"name":"Paused","type":"event"},{"anonymous":false,"inputs":[{"indexed":false,"internalType":"uint256","name":"oldRate","type":"uint256"},{"indexed":false,"internalType":"uint256","name":"newRate","type":"uint256"}],"name":"PlatformFeeUpdated","type":"event"},{"anonymous":false,"inputs":[{"indexed":true,"internalType":"address","name":"validator","type":"address"},{"indexed":false,"internalType":"uint256","name":"newScore","type":"uint256"},{"indexed":false,"internalType":"uint256","name":"totalValidations","type":"uint256"},{"indexed":false,"internalType":"uint256","name":"accurateValidations","type":"uint256"}],"name":"ReputationUpdated","type":"event"},{"anonymous":false,"inputs":[{"indexed":true,"internalType":"uint256","name":"taskId","type":"uint256"},{"indexed":false,"internalType":"uint256","name":"minerIndex","type":"uint256"},{"indexed":true,"internalType":"address","name":"validator","type":"address"}],"name":"ScoreCommitted","type":"event"},{"anonymous":false,"inputs":[{"indexed":true,"internalType":"uint256","name":"taskId","type":"uint256"},{"indexed":false,"internalType":"uint256","name":"minerIndex","type":"uint256"},{"indexed":true,"internalType":"address","name":"validator","type":"address"},{"indexed":false,"internalType":"uint256","name":"score","type":"uint256"}],"name":"ScoreRevealed","type":"event"},{"anonymous":false,"inputs":[{"indexed":true,"internalType":"uint256","name":"taskId","type":"uint256"},{"indexed":true,"internalType":"address","name":"miner","type":"address"},{"indexed":false,"internalType":"string","name":"resultHash","type":"string"}],"name":"SubmissionReceived","type":"event"},{"anonymous":false,"inputs":[{"indexed":true,"internalType":"uint256","name":"taskId","type":"uint256"},{"indexed":true,"internalType":"address","name":"miner","type":"address"},{"indexed":false,"internalType":"uint256","name":"score","type":"uint256"},{"indexed":false,"internalType":"address","name":"validator","type":"address"}],"name":"SubmissionValidated","type":"event"},{"anonymous":false,"inputs":[{"indexed":true,"internalType":"uint256","name":"taskId","type":"uint256"},{"indexed":true,"internalType":"address","name":"miner","type":"address"}],"name":"TaskAccepted","type":"event"},{"anonymous":false,"inputs":[{"indexed":true,"internalType":"uint256","name":"taskId","type":"uint256"},{"indexed":true,"internalType":"address","name":"requester","type":"address"},{"indexed":false,"internalType":"uint256","name":"refundAmount","type":"uint256"}],"name":"TaskCancelled","type":"event"},{"anonymous":false,"inputs":[{"indexed":true,"internalType":"uint256","name":"taskId","type":"uint256"},{"indexed":true,"internalType":"address","name":"winner","type":"address"},{"indexed":false,"internalType":"uint256","name":"reward","type":"uint256"},{"indexed":false,"internalType":"uint256","name":"score","type":"uint256"}],"name":"TaskCompleted","type":"event"},{"anonymous":false,"inputs":[{"indexed":true,"internalType":"uint256","name":"taskId","type":"uint256"},{"indexed":true,"internalType":"address","name":"requester","type":"address"},{"indexed":false,"internalType":"uint256","name":"rewardAmount","type":"uint256"},{"indexed":false,"internalType":"uint256","name":"deadline","type":"uint256"},{"indexed":false,"internalType":"string","name":"taskHash","type":"string"}],"name":"TaskCreated","type":"event"},{"anonymous":false,"inputs":[{"indexed":true,"internalType":"uint256","name":"taskId","type":"uint256"}],"name":"TaskExpired","type":"event"},{"anonymous":false,"inputs":[{"indexed":true,"internalType":"uint256","name":"taskId","type":"uint256"},{"indexed":false,"internalType":"uint256","name":"amount","type":"uint256"}],"name":"TokensBurned","type":"event"},{"anonymous":false,"inputs":[{"indexed":false,"internalType":"address","name":"account","type":"address"}],"name":"Unpaused","type":"event"},{"anonymous":false,"inputs":[{"indexed":true,"internalType":"address","name":"validator","type":"address"}],"name":"ValidatorAdded","type":"event"},{"anonymous":false,"inputs":[{"indexed":true,"internalType":"uint256","name":"taskId","type":"uint256"},{"indexed":true,"internalType":"address","name":"validator","type":"address"},{"indexed":false,"internalType":"uint256","name":"deviation","type":"uint256"}],"name":"ValidatorPenalized","type":"event"},{"anonymous":false,"inputs":[{"indexed":true,"internalType":"address","name":"validator","type":"address"}],"name":"ValidatorRemoved","type":"event"},{"anonymous":false,"inputs":[{"indexed":true,"internalType":"uint256","name":"taskId","type":"uint256"},{"indexed":true,"internalType":"address","name":"validator","type":"address"},{"indexed":false,"internalType":"uint256","name":"amount","type":"uint256"},{"indexed":false,"internalType":"uint256","name":"deviation","type":"uint256"}],"name":"ValidatorRewarded","type":"event"},{"inputs":[],"name":"BURN_ADDRESS","outputs":[{"internalType":"address","name":"","type":"address"}],"stateMutability":"view","type":"function"},{"inputs":[],"name":"HIGH_VALUE_THRESHOLD","outputs":[{"internalType":"uint256","name":"","type":"uint256"}],"stateMutability":"view","type":"function"},{"inputs":[],"name":"ULTRA_VALUE_THRESHOLD","outputs":[{"internalType":"uint256","name":"","type":"uint256"}],"stateMutability":"view","type":"function"},{"inputs":[{"internalType":"uint256","name":"taskId","type":"uint256"}],"name":"acceptTask","outputs":[],"stateMutability":"nonpayable","type":"function"},{"inputs":[{"internalType":"address","name":"","type":"address"}],"name":"activeTaskCount","outputs":[{"internalType":"uint256","name":"","type":"uint256"}],"stateMutability":"view","type":"function"},{"inputs":[{"internalType":"address","name":"validator","type":"address"}],"name":"addValidator","outputs":[],"stateMutability":"nonpayable","type":"function"},{"inputs":[{"internalType":"uint256","name":"taskId","type":"uint256"}],"name":"cancelTask","outputs":[],"stateMutability":"nonpayable","type":"function"},{"inputs":[],"name":"collectedFees","outputs":[{"internalType":"uint256","name":"","type":"uint256"}],"stateMutability":"view","type":"function"},{"inputs":[{"internalType":"uint256","name":"","type":"uint256"},{"internalType":"uint256","name":"","type":"uint256"}],"name":"commitCount","outputs":[{"internalType":"uint256","name":"","type":"uint256"}],"stateMutability":"view","type":"function"},{"inputs":[],"name":"commitPhaseDuration","outputs":[{"internalType":"uint256","name":"","type":"uint256"}],"stateMutability":"view","type":"function"},{"inputs":[{"internalType":"uint256","name":"","type":"uint256"},{"internalType":"uint256","name":"","type":"uint256"}],"name":"commitPhaseStart","outputs":[{"internalType":"uint256","name":"","type":"uint256"}],"stateMutability":"view","type":"function"},{"inputs":[{"internalType":"uint256","name":"taskId","type":"uint256"},{"internalType":"uint256","name":"minerIndex","type":"uint256"},{"internalType":"bytes32","name":"commitHash","type":"bytes32"}],"name":"commitScore","outputs":[],"stateMutability":"nonpayable","type":"function"},{"inputs":[{"internalType":"string","name":"taskHash","type":"string"},{"internalType":"uint256","name":"rewardAmount","type":"uint256"},{"internalType":"uint256","name":"duration","type":"uint256"}],"name":"createTask","outputs":[{"internalType":"uint256","name":"taskId","type":"uint256"}],"stateMutability":"nonpayable","type":"function"},{"inputs":[{"internalType":"uint256","name":"","type":"uint256"}],"name":"disputeDeadlines","outputs":[{"internalType":"uint256","name":"","type":"uint256"}],"stateMutability":"view","type":"function"},{"inputs":[],"name":"disputeDuration","outputs":[{"internalType":"uint256","name":"","type":"uint256"}],"stateMutability":"view","type":"function"},{"inputs":[{"internalType":"uint256","name":"taskId","type":"uint256"}],"name":"expireTask","outputs":[],"stateMutability":"nonpayable","type":"function"},{"inputs":[{"internalType":"uint256","name":"taskId","type":"uint256"}],"name":"finalizeTask","outputs":[],"stateMutability":"nonpayable","type":"function"},{"inputs":[{"internalType":"uint256","name":"rewardAmount","type":"uint256"}],"name":"getAdaptiveMinValidations","outputs":[{"internalType":"uint256","name":"","type":"uint256"}],"stateMutability":"view","type":"function"},{"inputs":[{"internalType":"uint256","name":"score","type":"uint256"},{"internalType":"bytes32","name":"salt","type":"bytes32"}],"name":"getCommitHash","outputs":[{"internalType":"bytes32","name":"","type":"bytes32"}],"stateMutability":"pure","type":"function"},{"inputs":[{"internalType":"uint256","name":"taskId","type":"uint256"}],"name":"getSubmissionCount","outputs":[{"internalType":"uint256","name":"","type":"uint256"}],"stateMutability":"view","type":"function"},{"inputs":[{"internalType":"uint256","name":"taskId","type":"uint256"}],"name":"getSubmissions","outputs":[{"components":[{"internalType":"address","name":"miner","type":"address"},{"internalType":"string","name":"resultHash","type":"string"},{"internalType":"uint256","name":"score","type":"uint256"},{"internalType":"bool","name":"validated","type":"bool"},{"internalType":"uint256","name":"submittedAt","type":"uint256"},{"internalType":"uint256","name":"validationCount","type":"uint256"}],"internalType":"struct PaymentEscrow.MinerSubmission[]","name":"","type":"tuple[]"}],"stateMutability":"view","type":"function"},{"inputs":[{"internalType":"uint256","name":"taskId","type":"uint256"}],"name":"getTask","outputs":[{"components":[{"internalType":"uint256","name":"id","type":"uint256"},{"internalType":"address","name":"requester","type":"address"},{"internalType":"string","name":"taskHash","type":"string"},{"internalType":"uint256","name":"rewardAmount","type":"uint256"},{"internalType":"uint256","name":"platformFee","type":"uint256"},{"internalType":"uint256","name":"validatorReward","type":"uint256"},{"internalType":"uint256","name":"deadline","type":"uint256"},{"internalType":"enum PaymentEscrow.TaskStatus","name":"status","type":"uint8"},{"internalType":"address","name":"assignedMiner","type":"address"},{"internalType":"address","name":"winningMiner","type":"address"},{"internalType":"uint256","name":"winningScore","type":"uint256"},{"internalType":"uint256","name":"createdAt","type":"uint256"},{"internalType":"uint256","name":"completedAt","type":"uint256"}],"internalType":"struct PaymentEscrow.Task","name":"","type":"tuple"}],"stateMutability":"view","type":"function"},{"inputs":[{"internalType":"uint256","name":"taskId","type":"uint256"},{"internalType":"uint256","name":"minerIndex","type":"uint256"},{"internalType":"address","name":"validator","type":"address"}],"name":"getValidatorScore","outputs":[{"internalType":"uint256","name":"score","type":"uint256"},{"internalType":"bool","name":"hasScored","type":"bool"}],"stateMutability":"view","type":"function"},{"inputs":[{"internalType":"uint256","name":"","type":"uint256"},{"internalType":"address","name":"","type":"address"}],"name":"hasMinerSubmitted","outputs":[{"internalType":"bool","name":"","type":"bool"}],"stateMutability":"view","type":"function"},{"inputs":[{"internalType":"uint256","name":"","type":"uint256"},{"internalType":"uint256","name":"","type":"uint256"},{"internalType":"address","name":"","type":"address"}],"name":"hasValidatorScored","outputs":[{"internalType":"bool","name":"","type":"bool"}],"stateMutability":"view","type":"function"},{"inputs":[{"internalType":"uint256","name":"","type":"uint256"}],"name":"isDisputed","outputs":[{"internalType":"bool","name":"","type":"bool"}],"stateMutability":"view","type":"function"},{"inputs":[{"internalType":"address","name":"account","type":"address"}],"name":"isValidator","outputs":[{"internalType":"bool","name":"","type":"bool"}],"stateMutability":"view","type":"function"},{"inputs":[],"name":"maxSubmissionsPerTask","outputs":[{"internalType":"uint256","name":"","type":"uint256"}],"stateMutability":"view","type":"function"},{"inputs":[],"name":"maxTaskDuration","outputs":[{"internalType":"uint256","name":"","type":"uint256"}],"stateMutability":"view","type":"function"},{"inputs":[],"name":"mdtToken","outputs":[{"internalType":"contract IERC20","name":"","type":"address"}],"stateMutability":"view","type":"function"},{"inputs":[],"name":"minTaskReward","outputs":[{"internalType":"uint256","name":"","type":"uint256"}],"stateMutability":"view","type":"function"},{"inputs":[],"name":"minValidations","outputs":[{"internalType":"uint256","name":"","type":"uint256"}],"stateMutability":"view","type":"function"},{"inputs":[{"internalType":"address","name":"","type":"address"}],"name":"minerEarnings","outputs":[{"internalType":"uint256","name":"","type":"uint256"}],"stateMutability":"view","type":"function"},{"inputs":[{"internalType":"uint256","name":"taskId","type":"uint256"}],"name":"openDispute","outputs":[],"stateMutability":"nonpayable","type":"function"},{"inputs":[],"name":"owner","outputs":[{"internalType":"address","name":"","type":"address"}],"stateMutability":"view","type":"function"},{"inputs":[],"name":"pause","outputs":[],"stateMutability":"nonpayable","type":"function"},{"inputs":[],"name":"paused","outputs":[{"internalType":"bool","name":"","type":"bool"}],"stateMutability":"view","type":"function"},{"inputs":[{"internalType":"address","name":"","type":"address"}],"name":"pendingWithdrawals","outputs":[{"internalType":"uint256","name":"","type":"uint256"}],"stateMutability":"view","type":"function"},{"inputs":[],"name":"platformFeeRate","outputs":[{"internalType":"uint256","name":"","type":"uint256"}],"stateMutability":"view","type":"function"},{"inputs":[{"internalType":"address","name":"validator","type":"address"}],"name":"removeValidator","outputs":[],"stateMutability":"nonpayable","type":"function"},{"inputs":[],"name":"renounceOwnership","outputs":[],"stateMutability":"nonpayable","type":"function"},{"inputs":[{"internalType":"uint256","name":"taskId","type":"uint256"},{"internalType":"bool","name":"requesterWins","type":"bool"}],"name":"resolveDispute","outputs":[],"stateMutability":"nonpayable","type":"function"},{"inputs":[{"internalType":"uint256","name":"","type":"uint256"},{"internalType":"uint256","name":"","type":"uint256"}],"name":"revealCount","outputs":[{"internalType":"uint256","name":"","type":"uint256"}],"stateMutability":"view","type":"function"},{"inputs":[],"name":"revealPhaseDuration","outputs":[{"internalType":"uint256","name":"","type":"uint256"}],"stateMutability":"view","type":"function"},{"inputs":[{"internalType":"uint256","name":"taskId","type":"uint256"},{"internalType":"uint256","name":"minerIndex","type":"uint256"},{"internalType":"uint256","name":"score","type":"uint256"},{"internalType":"bytes32","name":"salt","type":"bytes32"}],"name":"revealScore","outputs":[],"stateMutability":"nonpayable","type":"function"},{"inputs":[{"internalType":"uint256","name":"_commitDuration","type":"uint256"},{"internalType":"uint256","name":"_revealDuration","type":"uint256"}],"name":"setCommitRevealConfig","outputs":[],"stateMutability":"nonpayable","type":"function"},{"inputs":[{"internalType":"uint256","name":"newMin","type":"uint256"}],"name":"setMinValidations","outputs":[],"stateMutability":"nonpayable","type":"function"},{"inputs":[{"internalType":"uint256","name":"newRate","type":"uint256"}],"name":"setPlatformFeeRate","outputs":[],"stateMutability":"nonpayable","type":"function"},{"inputs":[{"internalType":"uint256","name":"taskId","type":"uint256"},{"internalType":"string","name":"resultHash","type":"string"}],"name":"submitResult","outputs":[],"stateMutability":"nonpayable","type":"function"},{"inputs":[{"internalType":"uint256","name":"","type":"uint256"},{"internalType":"uint256","name":"","type":"uint256"}],"name":"taskSubmissions","outputs":[{"internalType":"address","name":"miner","type":"address"},{"internalType":"string","name":"resultHash","type":"string"},{"internalType":"uint256","name":"score","type":"uint256"},{"internalType":"bool","name":"validated","type":"bool"},{"internalType":"uint256","name":"submittedAt","type":"uint256"},{"internalType":"uint256","name":"validationCount","type":"uint256"}],"stateMutability":"view","type":"function"},{"inputs":[{"internalType":"uint256","name":"","type":"uint256"}],"name":"tasks","outputs":[{"internalType":"uint256","name":"id","type":"uint256"},{"internalType":"address","name":"requester","type":"address"},{"internalType":"string","name":"taskHash","type":"string"},{"internalType":"uint256","name":"rewardAmount","type":"uint256"},{"internalType":"uint256","name":"platformFee","type":"uint256"},{"internalType":"uint256","name":"validatorReward","type":"uint256"},{"internalType":"uint256","name":"deadline","type":"uint256"},{"internalType":"enum PaymentEscrow.TaskStatus","name":"status","type":"uint8"},{"internalType":"address","name":"assignedMiner","type":"address"},{"internalType":"address","name":"winningMiner","type":"address"},{"internalType":"uint256","name":"winningScore","type":"uint256"},{"internalType":"uint256","name":"createdAt","type":"uint256"},{"internalType":"uint256","name":"completedAt","type":"uint256"}],"stateMutability":"view","type":"function"},{"inputs":[],"name":"totalTasks","outputs":[{"internalType":"uint256","name":"","type":"uint256"}],"stateMutability":"view","type":"function"},{"inputs":[{"internalType":"address","name":"newOwner","type":"address"}],"name":"transferOwnership","outputs":[],"stateMutability":"nonpayable","type":"function"},{"inputs":[],"name":"unpause","outputs":[],"stateMutability":"nonpayable","type":"function"},{"inputs":[{"internalType":"uint256","name":"taskId","type":"uint256"},{"internalType":"uint256","name":"minerIndex","type":"uint256"},{"internalType":"uint256","name":"score","type":"uint256"}],"name":"validateSubmission","outputs":[],"stateMutability":"nonpayable","type":"function"},{"inputs":[{"internalType":"uint256","name":"","type":"uint256"},{"internalType":"uint256","name":"","type":"uint256"},{"internalType":"address","name":"","type":"address"}],"name":"validationCommits","outputs":[{"internalType":"bytes32","name":"commitHash","type":"bytes32"},{"internalType":"uint256","name":"committedAt","type":"uint256"},{"internalType":"bool","name":"revealed","type":"bool"},{"internalType":"uint256","name":"revealedScore","type":"uint256"}],"stateMutability":"view","type":"function"},{"inputs":[],"name":"validatorCount","outputs":[{"internalType":"uint256","name":"","type":"uint256"}],"stateMutability":"view","type":"function"},{"inputs":[{"internalType":"address","name":"","type":"address"}],"name":"validatorEarnings","outputs":[{"internalType":"uint256","name":"","type":"uint256"}],"stateMutability":"view","type":"function"},{"inputs":[{"internalType":"address","name":"","type":"address"}],"name":"validatorReputation","outputs":[{"internalType":"uint256","name":"totalValidations","type":"uint256"},{"internalType":"uint256","name":"accurateValidations","type":"uint256"},{"internalType":"uint256","name":"reputationScore","type":"uint256"},{"internalType":"uint256","name":"lastActiveAt","type":"uint256"}],"stateMutability":"view","type":"function"},{"inputs":[],"name":"validatorRewardRate","outputs":[{"internalType":"uint256","name":"","type":"uint256"}],"stateMutability":"view","type":"function"},{"inputs":[{"internalType":"uint256","name":"","type":"uint256"},{"internalType":"uint256","name":"","type":"uint256"},{"internalType":"address","name":"","type":"address"}],"name":"validatorScores","outputs":[{"internalType":"uint256","name":"","type":"uint256"}],"stateMutability":"view","type":"function"},{"inputs":[{"internalType":"address","name":"","type":"address"}],"name":"validators","outputs":[{"internalType":"bool","name":"","type":"bool"}],"stateMutability":"view","type":"function"},{"inputs":[],"name":"withdrawEarnings","outputs":[],"stateMutability":"nonpayable","type":"function"},{"inputs":[{"internalType":"address","name":"to","type":"address"}],"name":"withdrawFees","outputs":[],"stateMutability":"nonpayable","type":"function"}],"evm":{"bytecode":{"linkReferences":{},"object":"6080346200014657601f6200485d38819003918201601f19168301916001600160401b038311848410176200014b578084926020946040528339810103126200014657516001600160a01b03808216918290036200014657600160005560015460405191339082167f8be0079c531659141344cd1fd0a4f28419497f9722a3daafe3b4186f6b6457e0600080a36001600160a81b0319163360ff60a01b1916176001556101f46003556105dc6004556305f5e10060055562093a806006819055600a6007556002600b55610e10601a55610708601b55601d558115620001045750600280546001600160a01b0319169190911790556040516146fb9081620001628239f35b62461bcd60e51b815260206004820152601560248201527f496e76616c696420746f6b656e206164647265737300000000000000000000006044820152606490fd5b600080fd5b634e487b7160e01b600052604160045260246000fdfe6080604052600436101561001257600080fd5b60003560e01c8063059378ea146131dc5780630d88d409146131b05780630ebac45a1461317d5780630f0da719146131435780630f43a677146131255780630fb6d805146130de578063164e68de1461302357806316c53ced14612ebb5780631bf6912d14612d6c5780631d65e77e14612b6c5780631dd73e0d146128095780631ed5c43c146127cf57806327d00fb01461260c5780632b52d8c3146125075780632e44085d146124e957806332e540e9146124c357806334b25ee2146122ac578063393880061461227257806339b1185d146122545780633c9a6bf3146121e65780633f422ef31461210a5780633f4ba83a1461206e57806340a141ff14611fde578063483b403914611fc05780634d238c8e14611e8557806353eea87514611dec5780635c975abb14611dc657806362ecc47a14611bd557806365617a3514611bb5578063680038c714611b9757806368a7f82614611744578063715018a6146116e757806377ad68da146116b45780637be24cb8146116885780637ca0ad2d1461163c5780637ccc586e1461160b5780637eec20a8146114915780638456cb591461142f57806388488c33146111d45780638c0dd79a14610cf85780638d97767214610c165780638da5cb5b14610bed5780639003adfe14610bcf578063927fef2e14610b3d5780639d7eea9f14610afe578063ac64c82214610aac578063b46e742414610a79578063b6b6cc1314610a5b578063b73c6ce914610998578063b7ee5eda146105e6578063c0be15ec146105c8578063ca7b64bb146105a8578063d12704851461054c578063d22c81e51461052e578063d65314b3146104be578063dfc75372146104a0578063eeca08f014610482578063f0992c9714610464578063f2fde38b146103a0578063f3f4370314610366578063f70b5c061461033d578063fa52c7d8146102fe578063facd743b146102fe5763fccc2813146102dc57600080fd5b346102f95760003660031901126102f957602060405161dead8152f35b600080fd5b346102f95760203660031901126102f9576001600160a01b0361031f6136ed565b166000526009602052602060ff604060002054166040519015158152f35b346102f95760003660031901126102f9576002546040516001600160a01b039091168152602090f35b346102f95760203660031901126102f9576001600160a01b036103876136ed565b1660005260136020526020604060002054604051908152f35b346102f95760203660031901126102f9576103b96136ed565b6103c1613d58565b6001600160a01b0390811690811561041057600154826001600160601b0360a01b821617600155167f8be0079c531659141344cd1fd0a4f28419497f9722a3daafe3b4186f6b6457e0600080a3005b60405162461bcd60e51b815260206004820152602660248201527f4f776e61626c653a206e6577206f776e657220697320746865207a65726f206160448201526564647265737360d01b6064820152608490fd5b346102f95760003660031901126102f9576020600554604051908152f35b346102f95760003660031901126102f9576020600354604051908152f35b346102f95760003660031901126102f9576020601b54604051908152f35b346102f95760406104ce36613703565b82600052602091600f835284600020816000528352846000209160018060a01b03169182600052835260ff85600020541693600052600e835284600020906000528252836000209060005281528260002054918351928352151590820152f35b346102f95760003660031901126102f9576020600854604051908152f35b346102f95760203660031901126102f9576001600160a01b0361056d6136ed565b166000526014602052608060406000208054906001810154906003600282015491015491604051938452602084015260408301526060820152f35b346102f95760003660031901126102f957602060405164174876e8008152f35b346102f95760003660031901126102f9576020600654604051908152f35b346102f95760603660031901126102f957600435602435604435336000526020916009835261061c60ff60406000205416613abe565b83151580610982575b61062e90613a46565b610636613d11565b83600052600c835260406000209260ff600785015416600781101561096c5780600261066b9214908115610961575b50613afc565b84600052600d81526106836040600020548310613b48565b610691612710841115613c24565b84600052600f81526040600020826000528152604060002033600052815260ff6040600020541661090c5784600052600d81526106d282604060002061377a565b5092600384019460ff8654166108c95786600052601c8352604060002084600052835260406000205461086a5786600052600e8352604060002084600052835260406000203360005283528160406000205586600052600f83526040600020846000528352604060002033600052835260406000209460ff1995600187825416179055876000528380526040600020856000528452610775336040600020613c80565b6005810192610784845461396f565b94858555897f424e5ad88b2accc1579e610100b12e0f295d8c9e0b02abb61ad1e413e3d63d02604060018060a01b0394858754169482519182523390820152a3600b548510156107d057005b7fff2fc693bb2d4a09f21f0c403fce5ecb4b5b0b57e81c7253deb5386bb8a8ae7797600161080261084197898d613e2f565b9889600286015582541617905560098301918783548111610846575b505050505054604051938493846040919493926060820195825260208201520152565b0390a2005b6008935554169101906001600160601b0360a01b825416179055868080808761081e565b60405162461bcd60e51b815260048101849052603160248201527f436f6d6d69742d72657665616c206163746976653a2075736520636f6d6d697460448201527053636f72652f72657665616c53636f726560781b6064820152608490fd5b6064836040519062461bcd60e51b825280600483015260248201527f5375626d697373696f6e20616c72656164792068617320636f6e73656e7375736044820152fd5b6084906040519062461bcd60e51b82526004820152602860248201527f56616c696461746f7220616c72656164792073636f72656420746869732073756044820152673136b4b9b9b4b7b760c11b6064820152fd5b600191501487610665565b634e487b7160e01b600052602160045260246000fd5b506000848152600c845260409020548414610625565b346102f95760003660031901126102f9576109b1613cbb565b3360005260136020526040600020548015610a2057610a1990336000526013602052600060408120556040518181527f48dc35af7b45e2a81fffad55f6e2fafacdb1d3d0d50d24ebdc16324f5ba757f160203392a260025433906001600160a01b0316613db0565b6001600055005b60405162461bcd60e51b81526020600482015260136024820152724e6f2070656e64696e67206561726e696e677360681b6044820152606490fd5b346102f95760003660031901126102f9576020601d54604051908152f35b346102f957610a87366136d7565b9060005260196020526040600020906000526020526020604060002054604051908152f35b346102f95760403660031901126102f9576024356001600160a01b038116908190036102f9576004356000526015602052604060002090600052602052602060ff604060002054166040519015158152f35b346102f95760403660031901126102f9576020604051818101906004358252602435604082015260408152610b3281613838565b519020604051908152f35b346102f95760203660031901126102f957600435610b59613d58565b6103e88111610b9b5760407fd347e206f25a89b917fc9482f1a2d294d749baa4dc9bde7fb495ee11fe49164391600354908060035582519182526020820152a1005b60405162461bcd60e51b815260206004820152600c60248201526b08ccaca40e8dede40d0d2ced60a31b6044820152606490fd5b346102f95760003660031901126102f9576020601654604051908152f35b346102f95760003660031901126102f9576001546040516001600160a01b039091168152602090f35b346102f95760203660031901126102f957600435600052600c6020526040600020604081549160018060a01b03908160018201541690610c5860028201613874565b600382015493600483015490600584015460068501546007860154918360088801541694610cad600989015497600b600a8b01549a01549a8d519e8f9e8f6101a09384938252602082015201528d019061372d565b9960608c015260808b015260a08a015260c0890152610cd260e0890160ff831661376d565b60081c166101008701526101208601526101408501526101608401526101808301520390f35b346102f95760403660031901126102f9576001600160401b036024358181116102f957610d299036906004016136aa565b90916004351515806111bb575b610d3f90613a46565b610d47613d11565b600435600052600c60205260406000209060ff6007830154166007811015908161096c5780159182156111ad575b821561119c575b50501561115757610d9260068301544210613a83565b821561111e57600435600052601560205260406000203360005260205260ff604060002054166110d957600435600052600d60205260406000205460075411156110945760043560005260156020526040600020336000526020526040600020600160ff19825416179055600435600052600d60205260406000209060405190610e1b82613802565b338252610e29368688613999565b92602083019384526000604084015260006060840152426080840152600060a08401528054600160401b81101561106857610e699160018201815561377a565b93909361107e57825184546001600160a01b0319166001600160a01b039190911617845551805191821161106857610ea460018501546137ac565b601f8111611021575b50602090601f8311600114610fac5791806005949260a094600092610fa1575b50508160011b916000199060031b1c19161760018501555b60408101516002850155610f0e60608201511515600386019060ff801983541691151516179055565b608081015160048501550151910155600781015460ff8116600781101561096c578015908115610f96575b50610f82575b50507fa3dcf7cebcc4cf0937f4f95d95392671977ba143b4ff236240650322a106e8dc6040516020815280610f7d33956004359560208401916139d0565b0390a3005b600260079160ff1916179101558280610f3f565b600191501485610f39565b015190508980610ecd565b906001850160005260206000209160005b601f19851681106110095750926005949260019260a09583601f19811610610ff0575b505050811b016001850155610ee5565b015160001960f88460031b161c19169055898080610fe0565b91926020600181928685015181550194019201610fbd565b600185016000526020600020601f840160051c810160208510611061575b601f830160051c82018110611055575050610ead565b6000815560010161103f565b508061103f565b634e487b7160e01b600052604160045260246000fd5b634e487b7160e01b600052600060045260246000fd5b60405162461bcd60e51b815260206004820152601760248201527f4d6178207375626d697373696f6e7320726561636865640000000000000000006044820152606490fd5b60405162461bcd60e51b815260206004820152601760248201527f4d696e657220616c7265616479207375626d69747465640000000000000000006044820152606490fd5b60405162461bcd60e51b815260206004820152601160248201527008adae0e8f240e4cae6ead8e840d0c2e6d607b1b6044820152606490fd5b60405162461bcd60e51b815260206004820152601a60248201527f43616e6e6f74207375626d697420746f2074686973207461736b0000000000006044820152606490fd5b90915061096c576002148580610d7c565b506001811491506000610d75565b506004356000818152600c602052604090205414610d36565b346102f9576020806003193601126102f9576004356111f1613cbb565b80151580611419575b61120390613a46565b80600052600c82526040600020600781019081549360ff8516600781101561096c576002036113d55760088201546001600160a01b0392908316801561139957857fefef8593ec020b84769ddb5cf4469accbbd22d882a354bee97694405126ca69460408299876001879b9a9b0154169060038701549160048801549760058101549c600360098301549460ff1916179055600b4291015560005260108852826000206112b08154613c17565b90556112cb6112c38860011c8099613c0a565b601654613962565b6016558560005260118852826000206112e5838254613962565b90558560005260138852826000206112fe838254613962565b9055825191825287820152a380611330575b5050505080611320576001600055005b61132991614051565b8080610a19565b60025460405163a9059cbb60e01b8482015261dead6024820152604480820184905281527f8bc81353cf6671d259d22783e39ed930583c86f3f4cf7e981298e6a872dfb15d9461138992166113848261381d565b6144a3565b604051908152a281838080611310565b60405162461bcd60e51b81526004810184905260146024820152734e6f2076616c6964207375626d697373696f6e7360601b6044820152606490fd5b6064906040519062461bcd60e51b82526004820152601f60248201527f5461736b206e6f7420726561647920666f722066696e616c697a6174696f6e006044820152fd5b506000818152600c8352604090205481146111fa565b346102f95760003660031901126102f957611448613d58565b611450613d11565b6001805460ff60a01b1916600160a01b1790556040513381527f62e78cea01bee320cd4e420270b5ea74000d11b0c9f74754ebdbfc544b05a25890602090a1005b346102f9576020806003193601126102f9576004356114ae613cbb565b801515806115f5575b6114c090613a46565b6000818152600c835260409020600181015490926001600160a01b0391821633036115c057600784019283549360ff8516600781101561096c5761157b57600461152487600561151b6003610a199b01548584015490613962565b91015490613962565b9560ff1916179055336000526010825260406000206115438154613c17565b90557f06f63d695245e4cf8f0b7aae0b8da95876a4b173ba8d0d4466cc83c357dda3a8604051928584523393a3339060025416613db0565b60405162461bcd60e51b815260048101849052601760248201527f43616e6e6f742063616e63656c2074686973207461736b0000000000000000006044820152606490fd5b6064906040519062461bcd60e51b82526004820152600e60248201526d2737ba103a30b9b59037bbb732b960911b6044820152fd5b506000818152600c8352604090205481146114b7565b346102f95760203660031901126102f957600435600052601f602052602060ff604060002054166040519015158152f35b346102f95761164a36613703565b91600052600f60205260406000209060005260205260406000209060018060a01b0316600052602052602060ff604060002054166040519015158152f35b346102f95760203660031901126102f957600435600052600d6020526020604060002054604051908152f35b346102f9576116c2366136d7565b90600052601c6020526040600020906000526020526020604060002054604051908152f35b346102f95760003660031901126102f957611700613d58565b600180546001600160a01b031981169091556000906001600160a01b03167f8be0079c531659141344cd1fd0a4f28419497f9722a3daafe3b4186f6b6457e08280a3005b346102f95760803660031901126102f9576004356024803560449081356064336000526020906009825261177f60ff60406000205416613abe565b86151580611b81575b61179190613a46565b611799613d11565b86600052600c825260406000209060ff6007830154166007811015611b6c578060026117cd9214908115611b615750613afc565b87600052600d83526117e56040600020548610613b48565b6117f3612710851115613c24565b87600052600d835261180985604060002061377a565b5090600382019761181e60ff8a541615613b8a565b89600052601c85526040600020876000528552611843604060002054601a5490613962565b61184f601b5482613962565b90421115611b20574211611aeb578960005260178552604060002087600052855260406000203360005285526040600020918254988915611ab957600284019283549a60ff8c16611a8557604051898101908b825285356040820152604081526118b881613838565b51902003611a55575050508591600391600160ff19809b1617905501558760005260198352604060002085600052835260406000206118f7815461396f565b905587600052600e8352604060002085600052835260406000203360005283528360406000205587600052600f835260406000208560005283526040600020336000528352604060002060018782541617905587600052828052604060002085600052835261196a336040600020613c80565b6005810192611979845461396f565b9485855560405191878352820152887f23def086b3dc14dbd150f69d2e6af648dfc789cdf251ba7d720feecbc0625f8560403393a3600b548410156119ba57005b7fff2fc693bb2d4a09f21f0c403fce5ecb4b5b0b57e81c7253deb5386bb8a8ae779660016119ec61084196888c613e2f565b9788600285015582541617905560098201908682548111611a2a575b5050505054604051938493846040919493926060820195825260208201520152565b6008925560018060a01b039054169101906001600160601b0360a01b82541617905586808086611a08565b8791600d6c090c2e6d040dad2e6dac2e8c6d609b1b926040519462461bcd60e51b86526004860152840152820152fd5b50879160106f105b1c9958591e481c995d99585b195960821b926040519462461bcd60e51b86526004860152840152820152fd5b6e139bc818dbdb5b5a5d08199bdd5b99608a1b8791600f856040519462461bcd60e51b86526004860152840152820152fd5b7114995d99585b081c1a185cd948195b99195960721b88601287936040519462461bcd60e51b86526004860152840152820152fd5b507f436f6d6d6974207068617365206e6f7420656e6465642079657400000000000088601a87936040519462461bcd60e51b86526004860152840152820152fd5b60019150148a610665565b87634e487b7160e01b60005260216004526000fd5b506000878152600c835260409020548714611788565b346102f95760003660031901126102f9576020600b54604051908152f35b346102f95760003660031901126102f957602060405164e8d4a510008152f35b346102f9576020806003193601126102f957600435611bf2613cbb565b80151580611db0575b611c0490613a46565b80600052600c82526040600020916007830180549260ff84166007811015908161096c578015918215611da2575b8215611d91575b505015611d57576006850154421115611d1b5760088501546001600160a01b0392908316611ce2576001866010926005611c8c611c826003610a199c0154600486015490613962565b8285015490613962565b9860ff1916179055019383855416600052526040600020611cad8154613c17565b90557f7c2ecd5e2b7188ac57f3a370681639cb447c9cbfbbbace0c070adea6c73eaa54600080a2806002541691541690613db0565b60405162461bcd60e51b81526004810185905260116024820152702a30b9b5903430b99030903bb4b73732b960791b6044820152606490fd5b60405162461bcd60e51b815260048101849052601460248201527315185cdac81b9bdd081e595d08195e1c1a5c995960621b6044820152606490fd5b60405162461bcd60e51b81526004810184905260126024820152715461736b206e6f7420657870697261626c6560701b6044820152606490fd5b90915061096c576002148680611c39565b506001811491506000611c32565b506000818152600c835260409020548114611bfb565b346102f95760003660031901126102f957602060ff60015460a01c166040519015158152f35b346102f957611dfa366136d7565b90600052600d60205260406000209081548110156102f957611e1b9161377a565b5080546001600160a01b0316611e3360018301613874565b9160028101549060ff600382015416906005600482015491015491611e6a604051968796875260c0602088015260c087019061372d565b93604086015215156060850152608084015260a08301520390f35b346102f9576020806003193601126102f957611e9f6136ed565b611ea7613d58565b6001600160a01b031690611ebc8215156139f1565b816000526009815260ff60406000205416611f885781600052600981526040600020600160ff19825416179055611ef4600a5461396f565b600a55816000526014815260026040600020015415611f36575b507fe366c1c0452ed8eec96861e9e54141ebff23c9ec89fe27b996b45f5ec3884987600080a2005b600360405191611f458361381d565b6000835280830160008152604084019061138882526014606086019342855287600052526040600020945185555160018501555160028401555191015581611f0e565b6064906040519062461bcd60e51b82526004820152601160248201527020b63932b0b23c903b30b634b230ba37b960791b6044820152fd5b346102f95760003660031901126102f9576020601a54604051908152f35b346102f95760203660031901126102f957611ff76136ed565b611fff613d58565b6001600160a01b03166000818152600960205260409020546120239060ff16613abe565b806000526009602052604060002060ff198154169055612044600a54613c17565b600a557fe1434e25d6611e0db941968fdc97811c982ac1602e951637d206f5fdda9dd8f1600080a2005b346102f95760003660031901126102f957612087613d58565b60015460ff8160a01c16156120ce5760ff60a01b19166001556040513381527f5db9ee0a495bf2e6ff9c91a7834c1ba4fdd244a5e8aa4e537bd38aeae4b073aa90602090a1005b60405162461bcd60e51b815260206004820152601460248201527314185d5cd8589b194e881b9bdd081c185d5cd95960621b6044820152606490fd5b346102f957612118366136d7565b612120613d58565b61012c8083106121a857811061216a57816040917f54333de66970050ba341fd48b02b1e37c55d85ae724ee00e32233e89e072bea893601a5580601b5582519182526020820152a1005b60405162461bcd60e51b815260206004820152601660248201527514995d99585b081c1a185cd9481d1bdbc81cda1bdc9d60521b6044820152606490fd5b60405162461bcd60e51b815260206004820152601660248201527510dbdb5b5a5d081c1a185cd9481d1bdbc81cda1bdc9d60521b6044820152606490fd5b346102f9576121f436613703565b91600052601760205260406000209060005260205260406000209060018060a01b031660005260205260806040600020805490600181015490600360ff600283015416910154916040519384526020840152151560408301526060820152f35b346102f95760003660031901126102f9576020600754604051908152f35b346102f95760203660031901126102f9576001600160a01b036122936136ed565b1660005260126020526020604060002054604051908152f35b346102f95760403660031901126102f95760243560043581151582036102f9576122d4613d58565b6122dc613cbb565b801515806124ac575b6122ee90613a46565b80600052602090600c8252604060002060078101805460ff8116600781101561096c5760060361247657601f951561242f57509060018060a01b03908385836008840154169360038401549385600052601383528460406000205410156000146123f357857fdf0baf5489595ea17a097d16827d60793e2f57f3b85a982e5d7e02838b841ee694959660005260138452604060002061238e888254613c0a565b90556000526011835260406000206123a7878254613c0a565b90556123c186600184600254169301928484541690613db0565b541693604051908152a35b805460ff191660041790555b60005252604060002060ff1981541690556001600055600080f35b925093505060019150015416827fdf0baf5489595ea17a097d16827d60793e2f57f3b85a982e5d7e02838b841ee68560405160008152a36123cc565b60039060ff1916179055600860018060a01b0391015416817fdf0baf5489595ea17a097d16827d60793e2f57f3b85a982e5d7e02838b841ee68460405160008152a36123d8565b60405162461bcd60e51b815260048101869052600e60248201526d4e6f7420696e206469737075746560901b6044820152606490fd5b506000818152600c602052604090205481146122e5565b346102f95760203660031901126102f95760206124e1600435613bce565b604051908152f35b346102f95760003660031901126102f9576020600454604051908152f35b346102f95760203660031901126102f957600435612523613d58565b600181106125c757600a54808211908115916125be575b50156125795760407fb6db129b84dbdef2d15fbb03e44fe1050995a5b1f855b6faf62b419185e53dc891600b549080600b5582519182526020820152a1005b60405162461bcd60e51b815260206004820152601d60248201527f43616e6e6f74206578636565642076616c696461746f7220636f756e740000006044820152606490fd5b9050158261253a565b60405162461bcd60e51b815260206004820152601c60248201527f4d696e2076616c69646174696f6e73206d757374206265203e3d2031000000006044820152606490fd5b346102f9576020806003193601126102f957600435612629613cbb565b801515806127b9575b61263b90613a46565b6000818152600c83526040902060018101546001600160a01b031633036127745760070180549060ff8216600781101561096c576003036127315782600052601f845260ff604060002054166126f957600660ff1980931617905581600052601f835260016040600020918254161790557f45c6ef09865025319c9f2a574b08ae087defce1c8b3640347d830c463909ce7b6126d9601d5442613962565b9282600052601e8152836040600020556040519384523393a36001600055005b60405162461bcd60e51b815260048101859052601060248201526f105b1c9958591e48191a5cdc1d5d195960821b6044820152606490fd5b6064846040519062461bcd60e51b825280600483015260248201527f43616e206f6e6c79206469737075746520636f6d706c65746564207461736b736044820152fd5b60405162461bcd60e51b815260048101849052601a60248201527f4f6e6c79207265717565737465722063616e20646973707574650000000000006044820152606490fd5b506000818152600c835260409020548114612632565b346102f95760203660031901126102f9576001600160a01b036127f06136ed565b1660005260106020526020604060002054604051908152f35b346102f95760603660031901126102f957600435602490813590604435336000526020906009825261284260ff60406000205416613abe565b82151580612b56575b61285490613a46565b61285c613d11565b82600052600c825260ff600760406000200154166007811015612b415780600261288e92149081156109615750613afc565b82600052600d82526128a66040600020548510613b48565b8015612b095782600052600d82526128d360ff60036128c987604060002061377a565b5001541615613b8a565b826000526017825260406000208460005282526040600020336000528252604060002054612ad15782600052600f82526040600020846000528252604060002033600052825260ff60406000205416612a8d5782600052601c8252604060002084600052825260406000205415612a6e575b82600052601c8252604060002084600052825261296a604060002054601a5490613962565b4211612a35576040517f96e134fdbcf6f2b8942aa1450973cc1e5914913673abacabebf1f0b14fe4a552929161299f8261381d565b81526003828201428152612a026040840160008152606085019260008452886000526017875260406000208a60005287526040600020336000528752604060002095518655516001860155511515600285019060ff801983541691151516179055565b51910155826000526018815260406000208460005281526040600020612a28815461396f565b90556040519384523393a3005b60405162461bcd60e51b8152600481018390526012818701527110dbdb5b5a5d081c1a185cd948195b99195960721b6044820152606490fd5b82600052601c8252604060002084600052825242604060002055612945565b60405162461bcd60e51b8152600481018390526017818701527f416c72656164792073636f726564206469726563746c790000000000000000006044820152606490fd5b60405162461bcd60e51b81526004810183905260118187015270105b1c9958591e4818dbdb5b5a5d1d1959607a1b6044820152606490fd5b60405162461bcd60e51b8152600481018390526011818701527008adae0e8f240c6dedadad2e840d0c2e6d607b1b6044820152606490fd5b85634e487b7160e01b60005260216004526000fd5b506000838152600c83526040902054831461284b565b346102f95760203660031901126102f9576000610180604051612b8e816137e6565b828152826020820152606060408201528260608201528260808201528260a08201528260c08201528260e0820152826101008201528261012082015282610140820152826101608201520152600435600052600c602052604060002060405190612bf7826137e6565b8054825260018101546001600160a01b03166020830152612c1a60028201613874565b60408301526003810154606083015260048101546080830152600581015460a0830152600681015460c083015260078101549060ff821691600783101561096c57600b9260e085015260018060a01b039060081c1661010084015260018060a01b036008820154166101208401526009810154610140840152600a81015461016084015201546101808201526040518091602082528051602083015260018060a01b036020820151166040830152610180612ce660408301516101a060608601526101c085019061372d565b9160608101516080850152608081015160a085015260a081015160c085015260c081015160e0850152612d2260e082015161010086019061376d565b60018060a01b036101008201511661012085015260018060a01b03610120820151166101408501526101408101516101608501526101608101518285015201516101a08301520390f35b346102f95760203660031901126102f95760043580151580612ea4575b612d9290613a46565b612d9a613d11565b80600052600c6020526040600020600781019081549060ff8216600781101561096c57612e6a576006612dd09101544210613a83565b60081c6001600160a01b0316612e32578054610100600160a81b0319163360081b610100600160a81b0316178155805460ff1916600117905533907fc8717b61398fb9d7cacf49fe1e296b2f10e9711226b532842b6ffd642cb6a2c6600080a3005b60405162461bcd60e51b815260206004820152601060248201526f105b1c9958591e48185cdcda59db995960821b6044820152606490fd5b60405162461bcd60e51b81526020600482015260126024820152715461736b206e6f7420617661696c61626c6560701b6044820152606490fd5b506000818152600c60205260409020548114612d89565b346102f9576020806003193601126102f957600435600052600d8152604060002090815491612ee983613a2f565b92612ef76040519485613853565b8084528284018092600052836000206000915b838310612fb65750505050604051918083019381845251809452604083019360408160051b85010192916000955b828710612f455785850386f35b909192938280600192603f19898203018552875190612f7c60c0868060a01b0384511683528484015190808685015283019061372d565b91604081015160408301526060808201511515908301526080808201519083015260a0809101519101529601920196019592919092612f38565b600686600192604099989951612fcb81613802565b848060a01b038654168152612fe1858701613874565b838201526002860154604082015260ff6003870154161515606082015260048601546080820152600586015460a0820152815201920192019190959495612f0a565b346102f95760203660031901126102f95761303c6136ed565b613044613d58565b6001600160a01b038181169161305b8315156139f1565b6016549182156130a3576130a19360006016557fc0819c13be868895eb93e40eaceb96de976442fa1d404e5c55f14bb65a8c489a6020604051868152a260025416613db0565b005b60405162461bcd60e51b81526020600482015260136024820152724e6f206665657320746f20776974686472617760681b6044820152606490fd5b346102f9576130ec36613703565b91600052600e60205260406000209060005260205260406000209060018060a01b03166000526020526020604060002054604051908152f35b346102f95760003660031901126102f9576020600a54604051908152f35b346102f95760203660031901126102f9576001600160a01b036131646136ed565b1660005260116020526020604060002054604051908152f35b346102f95761318b366136d7565b9060005260186020526040600020906000526020526020604060002054604051908152f35b346102f95760203660031901126102f957600435600052601e6020526020604060002054604051908152f35b346102f95760603660031901126102f9576004356001600160401b0381116102f95761320c9036906004016136aa565b613214613cbb565b61321c613d11565b8015613673576005546024351061363d5760443515158061362f575b156135f7576127109081613250600354602435613919565b0491613260600454602435613919565b04916132778361327283602435613962565b613962565b6002546040516323b872dd60e01b60208201523360248201523060448201526064808201939093529182526001600160a01b0316906001600160401b0360a0820190811190821117611068576132d39160a082016040526144a3565b6132de60085461396f565b92836008556132ef60443542613962565b90604051926132fd846137e6565b858452336020850152613311368689613999565b60408501526024356060850152608084015260a083015260c0820152600060e082015260006101008201526000610120820152600061014082015242610160820152600061018082015282600052600c602052604060002093815185556001850160018060a01b036020840151166001600160601b0360a01b82541617905560408201518051906001600160401b0382116110685781906133b560028901546137ac565b601f81116135a4575b50602090601f831160011461353257600092613527575b50508160011b916000199060031b1c19161760028601555b606082015160038601556080820151600486015560a0820151600586015560c0820151600686015560e082015190600782101561096c57600786018054610100850151610100600160a81b0360089190911b1660ff949094166001600160a81b0319909116179290921790915560209484927fb5e5fbf3346e9f5c610406862e51622b9d1e7fefd46de0e79367de79c2b74890929190600b90610180906008840160018060a01b03610120830151166001600160601b0360a01b8254161790556101408101516009850155610160810151600a8501550151910155336000526010865260406000206134df815461396f565b905582600052600c865260066040600020015461351760405192839260243584528984015260606040840152339660608401916139d0565b0390a36001600055604051908152f35b0151905087806133d5565b9250600288016000526020600020906000935b601f1984168510613589576001945083601f19811610613570575b505050811b0160028601556133ed565b015160001960f88460031b161c19169055878080613560565b81810151835560209485019460019093019290910190613545565b909150600288016000526020600020601f840160051c8101602085106135f0575b90849392915b601f830160051c820181106135e15750506133be565b600081558594506001016135cb565b50806135c5565b60405162461bcd60e51b815260206004820152601060248201526f24b73b30b634b210323ab930ba34b7b760811b6044820152606490fd5b506006546044351115613238565b60405162461bcd60e51b815260206004820152600e60248201526d52657761726420746f6f206c6f7760901b6044820152606490fd5b60405162461bcd60e51b815260206004820152600f60248201526e08adae0e8f240e8c2e6d640d0c2e6d608b1b6044820152606490fd5b9181601f840112156102f9578235916001600160401b0383116102f957602083818601950101116102f957565b60409060031901126102f9576004359060243590565b600435906001600160a01b03821682036102f957565b60609060031901126102f95760043590602435906044356001600160a01b03811681036102f95790565b919082519283825260005b848110613759575050826000602080949584010152601f8019910116010190565b602081830181015184830182015201613738565b90600782101561096c5752565b8054821015613796576000526006602060002091020190600090565b634e487b7160e01b600052603260045260246000fd5b90600182811c921680156137dc575b60208310146137c657565b634e487b7160e01b600052602260045260246000fd5b91607f16916137bb565b6101a081019081106001600160401b0382111761106857604052565b60c081019081106001600160401b0382111761106857604052565b608081019081106001600160401b0382111761106857604052565b606081019081106001600160401b0382111761106857604052565b90601f801991011681019081106001600160401b0382111761106857604052565b90604051918260008254613887816137ac565b908184526020946001916001811690816000146138f757506001146138b8575b5050506138b692500383613853565b565b600090815285812095935091905b8183106138df5750506138b693508201013880806138a7565b855488840185015294850194879450918301916138c6565b925050506138b694925060ff191682840152151560051b8201013880806138a7565b8181029291811591840414171561392c57565b634e487b7160e01b600052601160045260246000fd5b811561394c570490565b634e487b7160e01b600052601260045260246000fd5b9190820180921161392c57565b600019811461392c5760010190565b6001600160401b03811161106857601f01601f191660200190565b9291926139a58261397e565b916139b36040519384613853565b8294818452818301116102f9578281602093846000960137010152565b908060209392818452848401376000828201840152601f01601f1916010190565b156139f857565b60405162461bcd60e51b815260206004820152600f60248201526e496e76616c6964206164647265737360881b6044820152606490fd5b6001600160401b0381116110685760051b60200190565b15613a4d57565b60405162461bcd60e51b815260206004820152600e60248201526d15185cdac81b9bdd08199bdd5b9960921b6044820152606490fd5b15613a8a57565b60405162461bcd60e51b815260206004820152600c60248201526b15185cdac8195e1c1a5c995960a21b6044820152606490fd5b15613ac557565b60405162461bcd60e51b815260206004820152600f60248201526e2737ba1030903b30b634b230ba37b960891b6044820152606490fd5b15613b0357565b60405162461bcd60e51b815260206004820152601760248201527f5461736b206e6f742070656e64696e67207265766965770000000000000000006044820152606490fd5b15613b4f57565b60405162461bcd60e51b8152602060048201526013602482015272092dcecc2d8d2c840dad2dccae440d2dcc8caf606b1b6044820152606490fd5b15613b9157565b60405162461bcd60e51b8152602060048201526015602482015274416c72656164792068617320636f6e73656e73757360581b6044820152606490fd5b600b549064e8d4a510008110613bed57506002810180911161392c5790565b64174876e8001115613bfc5790565b6001810180911161392c5790565b9190820391821161392c57565b801561392c576000190190565b15613c2b57565b60405162461bcd60e51b8152602060048201526015602482015274053636f7265206d75737420626520302d313030303605c1b6044820152606490fd5b80548210156137965760005260206000200190600090565b8054600160401b81101561106857613c9d91600182018155613c68565b60018060a09493941b038084549260031b9316831b921b1916179055565b600260005414613ccc576002600055565b60405162461bcd60e51b815260206004820152601f60248201527f5265656e7472616e637947756172643a207265656e7472616e742063616c6c006044820152606490fd5b60ff60015460a01c16613d2057565b60405162461bcd60e51b815260206004820152601060248201526f14185d5cd8589b194e881c185d5cd95960821b6044820152606490fd5b6001546001600160a01b03163303613d6c57565b606460405162461bcd60e51b815260206004820152602060248201527f4f776e61626c653a2063616c6c6572206973206e6f7420746865206f776e65726044820152fd5b60405163a9059cbb60e01b60208201526001600160a01b0390921660248301526044808301939093529181526138b6916113848261381d565b90613df382613a2f565b613e006040519182613853565b8281528092613e11601f1991613a2f565b0190602036910137565b80518210156137965760209160051b010190565b9291613e3a81613de9565b9160005b82811061403b5750846000526020808052604090816000208360005281528160002090815491858303613ff757918192845190819482848794520190600052836000209260005b85828210613fd857505050613e9c92500383613853565b60005b858110613f915750505050509091925060015b818110613f0b5750600181811603613ed65790613ed29160011c90613e1b565b5190565b60011c90600019820182811161392c57613f0592613ef7613efe9284613e1b565b5192613e1b565b5190613962565b60011c90565b90613f1882849594613e1b565b5192825b80151580613f72575b15613f5a5760001981019080821161392c57613f44613f559288613e1b565b51613f4f8289613e1b565b52613c17565b613f1c565b93613f6b6001939492969586613e1b565b5201613eb2565b50600019810181811161392c57613f8a869188613e1b565b5111613f25565b6000898152600e83528481208682528352849020600191906001600160a01b03613fbb8387613e1b565b511660005283528460002054613fd1828a613e1b565b5201613e9f565b85546001600160a01b0316845260019586019588955093019201613e85565b835162461bcd60e51b815260048101839052601b60248201527f56616c696461746f7220747261636b696e67206d69736d6174636800000000006044820152606490fd5b80600061404a60019387613e1b565b5201613e3e565b9081600052600c60205260018060a01b0360086040600020015416600019600d6020526040600020916000908354915b828110614456575b50505060001981146144475783600052602080526040600020816000526020526040600020908154928315614436576140c48260029261377a565b500154946140d184613de9565b9160009660005b8681106141d7575050505084156141c75760009460005b848110614118575050505050808210614106575050565b614113916112c391613c0a565b601655565b8061412560019285613e1b565b51156141c25761415261414b8461414661413f8589613e1b565b518b613919565b613942565b8099613962565b9761415d8287613c68565b905490600391858060a01b0391831b1c1660005260126020526040600020614186838254613962565b90556141928388613c68565b858060a09493941b039254911b1c1660005260136020526141b96040600020918254613962565b90555b016140ef565b6141bc565b5050506141139150601654613962565b6141e18187613c68565b9990549985600052600e602052604060002085600052602052604060002060018060a01b038c8360031b1c16600052602052614222846040600020546145d7565b9a60018060a01b03818360031b1c16600052601460205260406000209b6142498d5461396f565b8d554260038e01556107d0811161438e5760018d01614268815461396f565b90556064614276868b613e1b565b5260405190600082526020820152877f3d70426d5de70b5ac8bff45c3c0cd89db0e473153868b8c61a938d42002584e8604060018060a01b03858760031b1c1693a35b8b8054938461435e575b6142cd868b613e1b565b51916002015491826142de91613919565b61271090046142ed878c613e1b565b526142f8868b613e1b565b5161430291613962565b60019d909d0154604080519283526020830195909552938101939093526001600160a01b0360039290921b1c16907fc2fd17ad7e9f23b8607f0bd02d7a6cdcccd5a964fa99ce5a066ed34c5b4bb55b90606090a26001016140d8565b906001015490612710828181020481148315171561392c57858f93916143849202613942565b60028301556142c3565b61138881116143ea5760326143a3868b613e1b565b5260405190600082526020820152877f3d70426d5de70b5ac8bff45c3c0cd89db0e473153868b8c61a938d42002584e8604060018060a01b03858760031b1c1693a36142b9565b60006143f6868b613e1b565b52604051908152877f3b3050df353576101845973a6b18bbcf16a0187f1c80d60d83d95be509203c51602060018060a01b03858760031b1c1693a36142b9565b505050506141139150601654613962565b50506141139150601654613962565b81614461828761377a565b50546001600160a01b0316148061448b575b61447f57600101614081565b92505050388080614089565b5060ff600361449a838861377a565b50015416614473565b60018060a01b03169060405160408101908082106001600160401b0383111761106857614532916040526020938482527f5361666545524332303a206c6f772d6c6576656c2063616c6c206661696c6564858301526000808587829751910182855af13d156145cf573d916145178361397e565b926145256040519485613853565b83523d868885013e614628565b8051918215918483156145a4575b50505090501561454d5750565b6084906040519062461bcd60e51b82526004820152602a60248201527f5361666545524332303a204552433230206f7065726174696f6e20646964206e6044820152691bdd081cdd58d8d9595960b21b6064820152fd5b9193818094500103126145cb578201519081151582036145c8575080388084614540565b80fd5b5080fd5b606091614628565b8115614621578180821115614611576145ef91613c0a565b905b6127109182810292818404149015171561392c5761460e91613942565b90565b9061461b91613c0a565b906145f1565b5050600090565b9192901561468a575081511561463c575090565b3b156146455790565b60405162461bcd60e51b815260206004820152601d60248201527f416464726573733a2063616c6c20746f206e6f6e2d636f6e74726163740000006044820152606490fd5b82519091501561469d5750805190602001fd5b60405162461bcd60e51b8152602060048201529081906146c190602483019061372d565b0390fdfea2646970667358221220048847642b47c415678ed250780766555999859cdc2fc41959708f77fc8ddfc664736f6c63430008180033","opcodes":"PUSH1 0x80 CALLVALUE PUSH3 0x146 JUMPI PUSH1 0x1F PUSH3 0x485D CODESIZE DUP2 SWAP1 SUB SWAP2 DUP3 ADD PUSH1 0x1F NOT AND DUP4 ADD SWAP2 PUSH1 0x1 PUSH1 0x1 PUSH1 0x40 SHL SUB DUP4 GT DUP5 DUP5 LT OR PUSH3 0x14B JUMPI DUP1 DUP5 SWAP3 PUSH1 0x20 SWAP5 PUSH1 0x40 MSTORE DUP4 CODECOPY DUP2 ADD SUB SLT PUSH3 0x146 JUMPI MLOAD PUSH1 0x1 PUSH1 0x1 PUSH1 0xA0 SHL SUB DUP1 DUP3 AND SWAP2 DUP3 SWAP1 SUB PUSH3 0x146 JUMPI PUSH1 0x1 PUSH1 0x0 SSTORE PUSH1 0x1 SLOAD PUSH1 0x40 MLOAD SWAP2 CALLER SWAP1 DUP3 AND PUSH32 0x8BE0079C531659141344CD1FD0A4F28419497F9722A3DAAFE3B4186F6B6457E0 PUSH1 0x0 DUP1 LOG3 PUSH1 0x1 PUSH1 0x1 PUSH1 0xA8 SHL SUB NOT AND CALLER PUSH1 0xFF PUSH1 0xA0 SHL NOT AND OR PUSH1 0x1 SSTORE PUSH2 0x1F4 PUSH1 0x3 SSTORE PUSH2 0x5DC PUSH1 0x4 SSTORE PUSH4 0x5F5E100 PUSH1 0x5 SSTORE PUSH3 0x93A80 PUSH1 0x6 DUP2 SWAP1 SSTORE PUSH1 0xA PUSH1 0x7 SSTORE PUSH1 0x2 PUSH1 0xB SSTORE PUSH2 0xE10 PUSH1 0x1A SSTORE PUSH2 0x708 PUSH1 0x1B SSTORE PUSH1 0x1D SSTORE DUP2 ISZERO PUSH3 0x104 JUMPI POP PUSH1 0x2 DUP1 SLOAD PUSH1 0x1 PUSH1 0x1 PUSH1 0xA0 SHL SUB NOT AND SWAP2 SWAP1 SWAP2 OR SWAP1 SSTORE PUSH1 0x40 MLOAD PUSH2 0x46FB SWAP1 DUP2 PUSH3 0x162 DUP3 CODECOPY RETURN JUMPDEST PUSH3 0x461BCD PUSH1 0xE5 SHL DUP2 MSTORE PUSH1 0x20 PUSH1 0x4 DUP3 ADD MSTORE PUSH1 0x15 PUSH1 0x24 DUP3 ADD MSTORE PUSH32 0x496E76616C696420746F6B656E20616464726573730000000000000000000000 PUSH1 0x44 DUP3 ADD MSTORE PUSH1 0x64 SWAP1 REVERT JUMPDEST PUSH1 0x0 DUP1 REVERT JUMPDEST PUSH4 0x4E487B71 PUSH1 0xE0 SHL PUSH1 0x0 MSTORE PUSH1 0x41 PUSH1 0x4 MSTORE PUSH1 0x24 PUSH1 0x0 REVERT INVALID PUSH1 0x80 PUSH1 0x40 MSTORE PUSH1 0x4 CALLDATASIZE LT ISZERO PUSH2 0x12 JUMPI PUSH1 0x0 DUP1 REVERT JUMPDEST PUSH1 0x0 CALLDATALOAD PUSH1 0xE0 SHR DUP1 PUSH4 0x59378EA EQ PUSH2 0x31DC JUMPI DUP1 PUSH4 0xD88D409 EQ PUSH2 0x31B0 JUMPI DUP1 PUSH4 0xEBAC45A EQ PUSH2 0x317D JUMPI DUP1 PUSH4 0xF0DA719 EQ PUSH2 0x3143 JUMPI DUP1 PUSH4 0xF43A677 EQ PUSH2 0x3125 JUMPI DUP1 PUSH4 0xFB6D805 EQ PUSH2 0x30DE JUMPI DUP1 PUSH4 0x164E68DE EQ PUSH2 0x3023 JUMPI DUP1 PUSH4 0x16C53CED EQ PUSH2 0x2EBB JUMPI DUP1 PUSH4 0x1BF6912D EQ PUSH2 0x2D6C JUMPI DUP1 PUSH4 0x1D65E77E EQ PUSH2 0x2B6C JUMPI DUP1 PUSH4 0x1DD73E0D EQ PUSH2 0x2809 JUMPI DUP1 PUSH4 0x1ED5C43C EQ PUSH2 0x27CF JUMPI DUP1 PUSH4 0x27D00FB0 EQ PUSH2 0x260C JUMPI DUP1 PUSH4 0x2B52D8C3 EQ PUSH2 0x2507 JUMPI DUP1 PUSH4 0x2E44085D EQ PUSH2 0x24E9 JUMPI DUP1 PUSH4 0x32E540E9 EQ PUSH2 0x24C3 JUMPI DUP1 PUSH4 0x34B25EE2 EQ PUSH2 0x22AC JUMPI DUP1 PUSH4 0x39388006 EQ PUSH2 0x2272 JUMPI DUP1 PUSH4 0x39B1185D EQ PUSH2 0x2254 JUMPI DUP1 PUSH4 0x3C9A6BF3 EQ PUSH2 0x21E6 JUMPI DUP1 PUSH4 0x3F422EF3 EQ PUSH2 0x210A JUMPI DUP1 PUSH4 0x3F4BA83A EQ PUSH2 0x206E JUMPI DUP1 PUSH4 0x40A141FF EQ PUSH2 0x1FDE JUMPI DUP1 PUSH4 0x483B4039 EQ PUSH2 0x1FC0 JUMPI DUP1 PUSH4 0x4D238C8E EQ PUSH2 0x1E85 JUMPI DUP1 PUSH4 0x53EEA875 EQ PUSH2 0x1DEC JUMPI DUP1 PUSH4 0x5C975ABB EQ PUSH2 0x1DC6 JUMPI DUP1 PUSH4 0x62ECC47A EQ PUSH2 0x1BD5 JUMPI DUP1 PUSH4 0x65617A35 EQ PUSH2 0x1BB5 JUMPI DUP1 PUSH4 0x680038C7 EQ PUSH2 0x1B97 JUMPI DUP1 PUSH4 0x68A7F826 EQ PUSH2 0x1744 JUMPI DUP1 PUSH4 0x715018A6 EQ PUSH2 0x16E7 JUMPI DUP1 PUSH4 0x77AD68DA EQ PUSH2 0x16B4 JUMPI DUP1 PUSH4 0x7BE24CB8 EQ PUSH2 0x1688 JUMPI DUP1 PUSH4 0x7CA0AD2D EQ PUSH2 0x163C JUMPI DUP1 PUSH4 0x7CCC586E EQ PUSH2 0x160B JUMPI DUP1 PUSH4 0x7EEC20A8 EQ PUSH2 0x1491 JUMPI DUP1 PUSH4 0x8456CB59 EQ PUSH2 0x142F JUMPI DUP1 PUSH4 0x88488C33 EQ PUSH2 0x11D4 JUMPI DUP1 PUSH4 0x8C0DD79A EQ PUSH2 0xCF8 JUMPI DUP1 PUSH4 0x8D977672 EQ PUSH2 0xC16 JUMPI DUP1 PUSH4 0x8DA5CB5B EQ PUSH2 0xBED JUMPI DUP1 PUSH4 0x9003ADFE EQ PUSH2 0xBCF JUMPI DUP1 PUSH4 0x927FEF2E EQ PUSH2 0xB3D JUMPI DUP1 PUSH4 0x9D7EEA9F EQ PUSH2 0xAFE JUMPI DUP1 PUSH4 0xAC64C822 EQ PUSH2 0xAAC JUMPI DUP1 PUSH4 0xB46E7424 EQ PUSH2 0xA79 JUMPI DUP1 PUSH4 0xB6B6CC13 EQ PUSH2 0xA5B JUMPI DUP1 PUSH4 0xB73C6CE9 EQ PUSH2 0x998 JUMPI DUP1 PUSH4 0xB7EE5EDA EQ PUSH2 0x5E6 JUMPI DUP1 PUSH4 0xC0BE15EC EQ PUSH2 0x5C8 JUMPI DUP1 PUSH4 0xCA7B64BB EQ PUSH2 0x5A8 JUMPI DUP1 PUSH4 0xD1270485 EQ PUSH2 0x54C JUMPI DUP1 PUSH4 0xD22C81E5 EQ PUSH2 0x52E JUMPI DUP1 PUSH4 0xD65314B3 EQ PUSH2 0x4BE JUMPI DUP1 PUSH4 0xDFC75372 EQ PUSH2 0x4A0 JUMPI DUP1 PUSH4 0xEECA08F0 EQ PUSH2 0x482 JUMPI DUP1 PUSH4 0xF0992C97 EQ PUSH2 0x464 JUMPI DUP1 PUSH4 0xF2FDE38B EQ PUSH2 0x3A0 JUMPI DUP1 PUSH4 0xF3F43703 EQ PUSH2 0x366 JUMPI DUP1 PUSH4 0xF70B5C06 EQ PUSH2 0x33D JUMPI DUP1 PUSH4 0xFA52C7D8 EQ PUSH2 0x2FE JUMPI DUP1 PUSH4 0xFACD743B EQ PUSH2 0x2FE JUMPI PUSH4 0xFCCC2813 EQ PUSH2 0x2DC JUMPI PUSH1 0x0 DUP1 REVERT JUMPDEST CALLVALUE PUSH2 0x2F9 JUMPI PUSH1 0x0 CALLDATASIZE PUSH1 0x3 NOT ADD SLT PUSH2 0x2F9 JUMPI PUSH1 0x20 PUSH1 0x40 MLOAD PUSH2 0xDEAD DUP2 MSTORE RETURN JUMPDEST PUSH1 0x0 DUP1 REVERT JUMPDEST CALLVALUE PUSH2 0x2F9 JUMPI PUSH1 0x20 CALLDATASIZE PUSH1 0x3 NOT ADD SLT PUSH2 0x2F9 JUMPI PUSH1 0x1 PUSH1 0x1 PUSH1 0xA0 SHL SUB PUSH2 0x31F PUSH2 0x36ED JUMP JUMPDEST AND PUSH1 0x0 MSTORE PUSH1 0x9 PUSH1 0x20 MSTORE PUSH1 0x20 PUSH1 0xFF PUSH1 0x40 PUSH1 0x0 KECCAK256 SLOAD AND PUSH1 0x40 MLOAD SWAP1 ISZERO ISZERO DUP2 MSTORE RETURN JUMPDEST CALLVALUE PUSH2 0x2F9 JUMPI PUSH1 0x0 CALLDATASIZE PUSH1 0x3 NOT ADD SLT PUSH2 0x2F9 JUMPI PUSH1 0x2 SLOAD PUSH1 0x40 MLOAD PUSH1 0x1 PUSH1 0x1 PUSH1 0xA0 SHL SUB SWAP1 SWAP2 AND DUP2 MSTORE PUSH1 0x20 SWAP1 RETURN JUMPDEST CALLVALUE PUSH2 0x2F9 JUMPI PUSH1 0x20 CALLDATASIZE PUSH1 0x3 NOT ADD SLT PUSH2 0x2F9 JUMPI PUSH1 0x1 PUSH1 0x1 PUSH1 0xA0 SHL SUB PUSH2 0x387 PUSH2 0x36ED JUMP JUMPDEST AND PUSH1 0x0 MSTORE PUSH1 0x13 PUSH1 0x20 MSTORE PUSH1 0x20 PUSH1 0x40 PUSH1 0x0 KECCAK256 SLOAD PUSH1 0x40 MLOAD SWAP1 DUP2 MSTORE RETURN JUMPDEST CALLVALUE PUSH2 0x2F9 JUMPI PUSH1 0x20 CALLDATASIZE PUSH1 0x3 NOT ADD SLT PUSH2 0x2F9 JUMPI PUSH2 0x3B9 PUSH2 0x36ED JUMP JUMPDEST PUSH2 0x3C1 PUSH2 0x3D58 JUMP JUMPDEST PUSH1 0x1 PUSH1 0x1 PUSH1 0xA0 SHL SUB SWAP1 DUP2 AND SWAP1 DUP2 ISZERO PUSH2 0x410 JUMPI PUSH1 0x1 SLOAD DUP3 PUSH1 0x1 PUSH1 0x1 PUSH1 0x60 SHL SUB PUSH1 0xA0 SHL DUP3 AND OR PUSH1 0x1 SSTORE AND PUSH32 0x8BE0079C531659141344CD1FD0A4F28419497F9722A3DAAFE3B4186F6B6457E0 PUSH1 0x0 DUP1 LOG3 STOP JUMPDEST PUSH1 0x40 MLOAD PUSH3 0x461BCD PUSH1 0xE5 SHL DUP2 MSTORE PUSH1 0x20 PUSH1 0x4 DUP3 ADD MSTORE PUSH1 0x26 PUSH1 0x24 DUP3 ADD MSTORE PUSH32 0x4F776E61626C653A206E6577206F776E657220697320746865207A65726F2061 PUSH1 0x44 DUP3 ADD MSTORE PUSH6 0x646472657373 PUSH1 0xD0 SHL PUSH1 0x64 DUP3 ADD MSTORE PUSH1 0x84 SWAP1 REVERT JUMPDEST CALLVALUE PUSH2 0x2F9 JUMPI PUSH1 0x0 CALLDATASIZE PUSH1 0x3 NOT ADD SLT PUSH2 0x2F9 JUMPI PUSH1 0x20 PUSH1 0x5 SLOAD PUSH1 0x40 MLOAD SWAP1 DUP2 MSTORE RETURN JUMPDEST CALLVALUE PUSH2 0x2F9 JUMPI PUSH1 0x0 CALLDATASIZE PUSH1 0x3 NOT ADD SLT PUSH2 0x2F9 JUMPI PUSH1 0x20 PUSH1 0x3 SLOAD PUSH1 0x40 MLOAD SWAP1 DUP2 MSTORE RETURN JUMPDEST CALLVALUE PUSH2 0x2F9 JUMPI PUSH1 0x0 CALLDATASIZE PUSH1 0x3 NOT ADD SLT PUSH2 0x2F9 JUMPI PUSH1 0x20 PUSH1 0x1B SLOAD PUSH1 0x40 MLOAD SWAP1 DUP2 MSTORE RETURN JUMPDEST CALLVALUE PUSH2 0x2F9 JUMPI PUSH1 0x40 PUSH2 0x4CE CALLDATASIZE PUSH2 0x3703 JUMP JUMPDEST DUP3 PUSH1 0x0 MSTORE PUSH1 0x20 SWAP2 PUSH1 0xF DUP4 MSTORE DUP5 PUSH1 0x0 KECCAK256 DUP2 PUSH1 0x0 MSTORE DUP4 MSTORE DUP5 PUSH1 0x0 KECCAK256 SWAP2 PUSH1 0x1 DUP1 PUSH1 0xA0 SHL SUB AND SWAP2 DUP3 PUSH1 0x0 MSTORE DUP4 MSTORE PUSH1 0xFF DUP6 PUSH1 0x0 KECCAK256 SLOAD AND SWAP4 PUSH1 0x0 MSTORE PUSH1 0xE DUP4 MSTORE DUP5 PUSH1 0x0 KECCAK256 SWAP1 PUSH1 0x0 MSTORE DUP3 MSTORE DUP4 PUSH1 0x0 KECCAK256 SWAP1 PUSH1 0x0 MSTORE DUP2 MSTORE DUP3 PUSH1 0x0 KECCAK256 SLOAD SWAP2 DUP4 MLOAD SWAP3 DUP4 MSTORE ISZERO ISZERO SWAP1 DUP3 ADD MSTORE RETURN JUMPDEST CALLVALUE PUSH2 0x2F9 JUMPI PUSH1 0x0 CALLDATASIZE PUSH1 0x3 NOT ADD SLT PUSH2 0x2F9 JUMPI PUSH1 0x20 PUSH1 0x8 SLOAD PUSH1 0x40 MLOAD SWAP1 DUP2 MSTORE RETURN JUMPDEST CALLVALUE PUSH2 0x2F9 JUMPI PUSH1 0x20 CALLDATASIZE PUSH1 0x3 NOT ADD SLT PUSH2 0x2F9 JUMPI PUSH1 0x1 PUSH1 0x1 PUSH1 0xA0 SHL SUB PUSH2 0x56D PUSH2 0x36ED JUMP JUMPDEST AND PUSH1 0x0 MSTORE PUSH1 0x14 PUSH1 0x20 MSTORE PUSH1 0x80 PUSH1 0x40 PUSH1 0x0 KECCAK256 DUP1 SLOAD SWAP1 PUSH1 0x1 DUP2 ADD SLOAD SWAP1 PUSH1 0x3 PUSH1 0x2 DUP3 ADD SLOAD SWAP2 ADD SLOAD SWAP2 PUSH1 0x40 MLOAD SWAP4 DUP5 MSTORE PUSH1 0x20 DUP5 ADD MSTORE PUSH1 0x40 DUP4 ADD MSTORE PUSH1 0x60 DUP3 ADD MSTORE RETURN JUMPDEST CALLVALUE PUSH2 0x2F9 JUMPI PUSH1 0x0 CALLDATASIZE PUSH1 0x3 NOT ADD SLT PUSH2 0x2F9 JUMPI PUSH1 0x20 PUSH1 0x40 MLOAD PUSH5 0x174876E800 DUP2 MSTORE RETURN JUMPDEST CALLVALUE PUSH2 0x2F9 JUMPI PUSH1 0x0 CALLDATASIZE PUSH1 0x3 NOT ADD SLT PUSH2 0x2F9 JUMPI PUSH1 0x20 PUSH1 0x6 SLOAD PUSH1 0x40 MLOAD SWAP1 DUP2 MSTORE RETURN JUMPDEST CALLVALUE PUSH2 0x2F9 JUMPI PUSH1 0x60 CALLDATASIZE PUSH1 0x3 NOT ADD SLT PUSH2 0x2F9 JUMPI PUSH1 0x4 CALLDATALOAD PUSH1 0x24 CALLDATALOAD PUSH1 0x44 CALLDATALOAD CALLER PUSH1 0x0 MSTORE PUSH1 0x20 SWAP2 PUSH1 0x9 DUP4 MSTORE PUSH2 0x61C PUSH1 0xFF PUSH1 0x40 PUSH1 0x0 KECCAK256 SLOAD AND PUSH2 0x3ABE JUMP JUMPDEST DUP4 ISZERO ISZERO DUP1 PUSH2 0x982 JUMPI JUMPDEST PUSH2 0x62E SWAP1 PUSH2 0x3A46 JUMP JUMPDEST PUSH2 0x636 PUSH2 0x3D11 JUMP JUMPDEST DUP4 PUSH1 0x0 MSTORE PUSH1 0xC DUP4 MSTORE PUSH1 0x40 PUSH1 0x0 KECCAK256 SWAP3 PUSH1 0xFF PUSH1 0x7 DUP6 ADD SLOAD AND PUSH1 0x7 DUP2 LT ISZERO PUSH2 0x96C JUMPI DUP1 PUSH1 0x2 PUSH2 0x66B SWAP3 EQ SWAP1 DUP2 ISZERO PUSH2 0x961 JUMPI JUMPDEST POP PUSH2 0x3AFC JUMP JUMPDEST DUP5 PUSH1 0x0 MSTORE PUSH1 0xD DUP2 MSTORE PUSH2 0x683 PUSH1 0x40 PUSH1 0x0 KECCAK256 SLOAD DUP4 LT PUSH2 0x3B48 JUMP JUMPDEST PUSH2 0x691 PUSH2 0x2710 DUP5 GT ISZERO PUSH2 0x3C24 JUMP JUMPDEST DUP5 PUSH1 0x0 MSTORE PUSH1 0xF DUP2 MSTORE PUSH1 0x40 PUSH1 0x0 KECCAK256 DUP3 PUSH1 0x0 MSTORE DUP2 MSTORE PUSH1 0x40 PUSH1 0x0 KECCAK256 CALLER PUSH1 0x0 MSTORE DUP2 MSTORE PUSH1 0xFF PUSH1 0x40 PUSH1 0x0 KECCAK256 SLOAD AND PUSH2 0x90C JUMPI DUP5 PUSH1 0x0 MSTORE PUSH1 0xD DUP2 MSTORE PUSH2 0x6D2 DUP3 PUSH1 0x40 PUSH1 0x0 KECCAK256 PUSH2 0x377A JUMP JUMPDEST POP SWAP3 PUSH1 0x3 DUP5 ADD SWAP5 PUSH1 0xFF DUP7 SLOAD AND PUSH2 0x8C9 JUMPI DUP7 PUSH1 0x0 MSTORE PUSH1 0x1C DUP4 MSTORE PUSH1 0x40 PUSH1 0x0 KECCAK256 DUP5 PUSH1 0x0 MSTORE DUP4 MSTORE PUSH1 0x40 PUSH1 0x0 KECCAK256 SLOAD PUSH2 0x86A JUMPI DUP7 PUSH1 0x0 MSTORE PUSH1 0xE DUP4 MSTORE PUSH1 0x40 PUSH1 0x0 KECCAK256 DUP5 PUSH1 0x0 MSTORE DUP4 MSTORE PUSH1 0x40 PUSH1 0x0 KECCAK256 CALLER PUSH1 0x0 MSTORE DUP4 MSTORE DUP2 PUSH1 0x40 PUSH1 0x0 KECCAK256 SSTORE DUP7 PUSH1 0x0 MSTORE PUSH1 0xF DUP4 MSTORE PUSH1 0x40 PUSH1 0x0 KECCAK256 DUP5 PUSH1 0x0 MSTORE DUP4 MSTORE PUSH1 0x40 PUSH1 0x0 KECCAK256 CALLER PUSH1 0x0 MSTORE DUP4 MSTORE PUSH1 0x40 PUSH1 0x0 KECCAK256 SWAP5 PUSH1 0xFF NOT SWAP6 PUSH1 0x1 DUP8 DUP3 SLOAD AND OR SWAP1 SSTORE DUP8 PUSH1 0x0 MSTORE DUP4 DUP1 MSTORE PUSH1 0x40 PUSH1 0x0 KECCAK256 DUP6 PUSH1 0x0 MSTORE DUP5 MSTORE PUSH2 0x775 CALLER PUSH1 0x40 PUSH1 0x0 KECCAK256 PUSH2 0x3C80 JUMP JUMPDEST PUSH1 0x5 DUP2 ADD SWAP3 PUSH2 0x784 DUP5 SLOAD PUSH2 0x396F JUMP JUMPDEST SWAP5 DUP6 DUP6 SSTORE DUP10 PUSH32 0x424E5AD88B2ACCC1579E610100B12E0F295D8C9E0B02ABB61AD1E413E3D63D02 PUSH1 0x40 PUSH1 0x1 DUP1 PUSH1 0xA0 SHL SUB SWAP5 DUP6 DUP8 SLOAD AND SWAP5 DUP3 MLOAD SWAP2 DUP3 MSTORE CALLER SWAP1 DUP3 ADD MSTORE LOG3 PUSH1 0xB SLOAD DUP6 LT ISZERO PUSH2 0x7D0 JUMPI STOP JUMPDEST PUSH32 0xFF2FC693BB2D4A09F21F0C403FCE5ECB4B5B0B57E81C7253DEB5386BB8A8AE77 SWAP8 PUSH1 0x1 PUSH2 0x802 PUSH2 0x841 SWAP8 DUP10 DUP14 PUSH2 0x3E2F JUMP JUMPDEST SWAP9 DUP10 PUSH1 0x2 DUP7 ADD SSTORE DUP3 SLOAD AND OR SWAP1 SSTORE PUSH1 0x9 DUP4 ADD SWAP2 DUP8 DUP4 SLOAD DUP2 GT PUSH2 0x846 JUMPI JUMPDEST POP POP POP POP POP SLOAD PUSH1 0x40 MLOAD SWAP4 DUP5 SWAP4 DUP5 PUSH1 0x40 SWAP2 SWAP5 SWAP4 SWAP3 PUSH1 0x60 DUP3 ADD SWAP6 DUP3 MSTORE PUSH1 0x20 DUP3 ADD MSTORE ADD MSTORE JUMP JUMPDEST SUB SWAP1 LOG2 STOP JUMPDEST PUSH1 0x8 SWAP4 SSTORE SLOAD AND SWAP2 ADD SWAP1 PUSH1 0x1 PUSH1 0x1 PUSH1 0x60 SHL SUB PUSH1 0xA0 SHL DUP3 SLOAD AND OR SWAP1 SSTORE DUP7 DUP1 DUP1 DUP1 DUP8 PUSH2 0x81E JUMP JUMPDEST PUSH1 0x40 MLOAD PUSH3 0x461BCD PUSH1 0xE5 SHL DUP2 MSTORE PUSH1 0x4 DUP2 ADD DUP5 SWAP1 MSTORE PUSH1 0x31 PUSH1 0x24 DUP3 ADD MSTORE PUSH32 0x436F6D6D69742D72657665616C206163746976653A2075736520636F6D6D6974 PUSH1 0x44 DUP3 ADD MSTORE PUSH17 0x53636F72652F72657665616C53636F7265 PUSH1 0x78 SHL PUSH1 0x64 DUP3 ADD MSTORE PUSH1 0x84 SWAP1 REVERT JUMPDEST PUSH1 0x64 DUP4 PUSH1 0x40 MLOAD SWAP1 PUSH3 0x461BCD PUSH1 0xE5 SHL DUP3 MSTORE DUP1 PUSH1 0x4 DUP4 ADD MSTORE PUSH1 0x24 DUP3 ADD MSTORE PUSH32 0x5375626D697373696F6E20616C72656164792068617320636F6E73656E737573 PUSH1 0x44 DUP3 ADD MSTORE REVERT JUMPDEST PUSH1 0x84 SWAP1 PUSH1 0x40 MLOAD SWAP1 PUSH3 0x461BCD PUSH1 0xE5 SHL DUP3 MSTORE PUSH1 0x4 DUP3 ADD MSTORE PUSH1 0x28 PUSH1 0x24 DUP3 ADD MSTORE PUSH32 0x56616C696461746F7220616C72656164792073636F7265642074686973207375 PUSH1 0x44 DUP3 ADD MSTORE PUSH8 0x3136B4B9B9B4B7B7 PUSH1 0xC1 SHL PUSH1 0x64 DUP3 ADD MSTORE REVERT JUMPDEST PUSH1 0x1 SWAP2 POP EQ DUP8 PUSH2 0x665 JUMP JUMPDEST PUSH4 0x4E487B71 PUSH1 0xE0 SHL PUSH1 0x0 MSTORE PUSH1 0x21 PUSH1 0x4 MSTORE PUSH1 0x24 PUSH1 0x0 REVERT JUMPDEST POP PUSH1 0x0 DUP5 DUP2 MSTORE PUSH1 0xC DUP5 MSTORE PUSH1 0x40 SWAP1 KECCAK256 SLOAD DUP5 EQ PUSH2 0x625 JUMP JUMPDEST CALLVALUE PUSH2 0x2F9 JUMPI PUSH1 0x0 CALLDATASIZE PUSH1 0x3 NOT ADD SLT PUSH2 0x2F9 JUMPI PUSH2 0x9B1 PUSH2 0x3CBB JUMP JUMPDEST CALLER PUSH1 0x0 MSTORE PUSH1 0x13 PUSH1 0x20 MSTORE PUSH1 0x40 PUSH1 0x0 KECCAK256 SLOAD DUP1 ISZERO PUSH2 0xA20 JUMPI PUSH2 0xA19 SWAP1 CALLER PUSH1 0x0 MSTORE PUSH1 0x13 PUSH1 0x20 MSTORE PUSH1 0x0 PUSH1 0x40 DUP2 KECCAK256 SSTORE PUSH1 0x40 MLOAD DUP2 DUP2 MSTORE PUSH32 0x48DC35AF7B45E2A81FFFAD55F6E2FAFACDB1D3D0D50D24EBDC16324F5BA757F1 PUSH1 0x20 CALLER SWAP3 LOG2 PUSH1 0x2 SLOAD CALLER SWAP1 PUSH1 0x1 PUSH1 0x1 PUSH1 0xA0 SHL SUB AND PUSH2 0x3DB0 JUMP JUMPDEST PUSH1 0x1 PUSH1 0x0 SSTORE STOP JUMPDEST PUSH1 0x40 MLOAD PUSH3 0x461BCD PUSH1 0xE5 SHL DUP2 MSTORE PUSH1 0x20 PUSH1 0x4 DUP3 ADD MSTORE PUSH1 0x13 PUSH1 0x24 DUP3 ADD MSTORE PUSH19 0x4E6F2070656E64696E67206561726E696E6773 PUSH1 0x68 SHL PUSH1 0x44 DUP3 ADD MSTORE PUSH1 0x64 SWAP1 REVERT JUMPDEST CALLVALUE PUSH2 0x2F9 JUMPI PUSH1 0x0 CALLDATASIZE PUSH1 0x3 NOT ADD SLT PUSH2 0x2F9 JUMPI PUSH1 0x20 PUSH1 0x1D SLOAD PUSH1 0x40 MLOAD SWAP1 DUP2 MSTORE RETURN JUMPDEST CALLVALUE PUSH2 0x2F9 JUMPI PUSH2 0xA87 CALLDATASIZE PUSH2 0x36D7 JUMP JUMPDEST SWAP1 PUSH1 0x0 MSTORE PUSH1 0x19 PUSH1 0x20 MSTORE PUSH1 0x40 PUSH1 0x0 KECCAK256 SWAP1 PUSH1 0x0 MSTORE PUSH1 0x20 MSTORE PUSH1 0x20 PUSH1 0x40 PUSH1 0x0 KECCAK256 SLOAD PUSH1 0x40 MLOAD SWAP1 DUP2 MSTORE RETURN JUMPDEST CALLVALUE PUSH2 0x2F9 JUMPI PUSH1 0x40 CALLDATASIZE PUSH1 0x3 NOT ADD SLT PUSH2 0x2F9 JUMPI PUSH1 0x24 CALLDATALOAD PUSH1 0x1 PUSH1 0x1 PUSH1 0xA0 SHL SUB DUP2 AND SWAP1 DUP2 SWAP1 SUB PUSH2 0x2F9 JUMPI PUSH1 0x4 CALLDATALOAD PUSH1 0x0 MSTORE PUSH1 0x15 PUSH1 0x20 MSTORE PUSH1 0x40 PUSH1 0x0 KECCAK256 SWAP1 PUSH1 0x0 MSTORE PUSH1 0x20 MSTORE PUSH1 0x20 PUSH1 0xFF PUSH1 0x40 PUSH1 0x0 KECCAK256 SLOAD AND PUSH1 0x40 MLOAD SWAP1 ISZERO ISZERO DUP2 MSTORE RETURN JUMPDEST CALLVALUE PUSH2 0x2F9 JUMPI PUSH1 0x40 CALLDATASIZE PUSH1 0x3 NOT ADD SLT PUSH2 0x2F9 JUMPI PUSH1 0x20 PUSH1 0x40 MLOAD DUP2 DUP2 ADD SWAP1 PUSH1 0x4 CALLDATALOAD DUP3 MSTORE PUSH1 0x24 CALLDATALOAD PUSH1 0x40 DUP3 ADD MSTORE PUSH1 0x40 DUP2 MSTORE PUSH2 0xB32 DUP2 PUSH2 0x3838 JUMP JUMPDEST MLOAD SWAP1 KECCAK256 PUSH1 0x40 MLOAD SWAP1 DUP2 MSTORE RETURN JUMPDEST CALLVALUE PUSH2 0x2F9 JUMPI PUSH1 0x20 CALLDATASIZE PUSH1 0x3 NOT ADD SLT PUSH2 0x2F9 JUMPI PUSH1 0x4 CALLDATALOAD PUSH2 0xB59 PUSH2 0x3D58 JUMP JUMPDEST PUSH2 0x3E8 DUP2 GT PUSH2 0xB9B JUMPI PUSH1 0x40 PUSH32 0xD347E206F25A89B917FC9482F1A2D294D749BAA4DC9BDE7FB495EE11FE491643 SWAP2 PUSH1 0x3 SLOAD SWAP1 DUP1 PUSH1 0x3 SSTORE DUP3 MLOAD SWAP2 DUP3 MSTORE PUSH1 0x20 DUP3 ADD MSTORE LOG1 STOP JUMPDEST PUSH1 0x40 MLOAD PUSH3 0x461BCD PUSH1 0xE5 SHL DUP2 MSTORE PUSH1 0x20 PUSH1 0x4 DUP3 ADD MSTORE PUSH1 0xC PUSH1 0x24 DUP3 ADD MSTORE PUSH12 0x8CCACA40E8DEDE40D0D2CED PUSH1 0xA3 SHL PUSH1 0x44 DUP3 ADD MSTORE PUSH1 0x64 SWAP1 REVERT JUMPDEST CALLVALUE PUSH2 0x2F9 JUMPI PUSH1 0x0 CALLDATASIZE PUSH1 0x3 NOT ADD SLT PUSH2 0x2F9 JUMPI PUSH1 0x20 PUSH1 0x16 SLOAD PUSH1 0x40 MLOAD SWAP1 DUP2 MSTORE RETURN JUMPDEST CALLVALUE PUSH2 0x2F9 JUMPI PUSH1 0x0 CALLDATASIZE PUSH1 0x3 NOT ADD SLT PUSH2 0x2F9 JUMPI PUSH1 0x1 SLOAD PUSH1 0x40 MLOAD PUSH1 0x1 PUSH1 0x1 PUSH1 0xA0 SHL SUB SWAP1 SWAP2 AND DUP2 MSTORE PUSH1 0x20 SWAP1 RETURN JUMPDEST CALLVALUE PUSH2 0x2F9 JUMPI PUSH1 0x20 CALLDATASIZE PUSH1 0x3 NOT ADD SLT PUSH2 0x2F9 JUMPI PUSH1 0x4 CALLDATALOAD PUSH1 0x0 MSTORE PUSH1 0xC PUSH1 0x20 MSTORE PUSH1 0x40 PUSH1 0x0 KECCAK256 PUSH1 0x40 DUP2 SLOAD SWAP2 PUSH1 0x1 DUP1 PUSH1 0xA0 SHL SUB SWAP1 DUP2 PUSH1 0x1 DUP3 ADD SLOAD AND SWAP1 PUSH2 0xC58 PUSH1 0x2 DUP3 ADD PUSH2 0x3874 JUMP JUMPDEST PUSH1 0x3 DUP3 ADD SLOAD SWAP4 PUSH1 0x4 DUP4 ADD SLOAD SWAP1 PUSH1 0x5 DUP5 ADD SLOAD PUSH1 0x6 DUP6 ADD SLOAD PUSH1 0x7 DUP7 ADD SLOAD SWAP2 DUP4 PUSH1 0x8 DUP9 ADD SLOAD AND SWAP5 PUSH2 0xCAD PUSH1 0x9 DUP10 ADD SLOAD SWAP8 PUSH1 0xB PUSH1 0xA DUP12 ADD SLOAD SWAP11 ADD SLOAD SWAP11 DUP14 MLOAD SWAP15 DUP16 SWAP15 DUP16 PUSH2 0x1A0 SWAP4 DUP5 SWAP4 DUP3 MSTORE PUSH1 0x20 DUP3 ADD MSTORE ADD MSTORE DUP14 ADD SWAP1 PUSH2 0x372D JUMP JUMPDEST SWAP10 PUSH1 0x60 DUP13 ADD MSTORE PUSH1 0x80 DUP12 ADD MSTORE PUSH1 0xA0 DUP11 ADD MSTORE PUSH1 0xC0 DUP10 ADD MSTORE PUSH2 0xCD2 PUSH1 0xE0 DUP10 ADD PUSH1 0xFF DUP4 AND PUSH2 0x376D JUMP JUMPDEST PUSH1 0x8 SHR AND PUSH2 0x100 DUP8 ADD MSTORE PUSH2 0x120 DUP7 ADD MSTORE PUSH2 0x140 DUP6 ADD MSTORE PUSH2 0x160 DUP5 ADD MSTORE PUSH2 0x180 DUP4 ADD MSTORE SUB SWAP1 RETURN JUMPDEST CALLVALUE PUSH2 0x2F9 JUMPI PUSH1 0x40 CALLDATASIZE PUSH1 0x3 NOT ADD SLT PUSH2 0x2F9 JUMPI PUSH1 0x1 PUSH1 0x1 PUSH1 0x40 SHL SUB PUSH1 0x24 CALLDATALOAD DUP2 DUP2 GT PUSH2 0x2F9 JUMPI PUSH2 0xD29 SWAP1 CALLDATASIZE SWAP1 PUSH1 0x4 ADD PUSH2 0x36AA JUMP JUMPDEST SWAP1 SWAP2 PUSH1 0x4 CALLDATALOAD ISZERO ISZERO DUP1 PUSH2 0x11BB JUMPI JUMPDEST PUSH2 0xD3F SWAP1 PUSH2 0x3A46 JUMP JUMPDEST PUSH2 0xD47 PUSH2 0x3D11 JUMP JUMPDEST PUSH1 0x4 CALLDATALOAD PUSH1 0x0 MSTORE PUSH1 0xC PUSH1 0x20 MSTORE PUSH1 0x40 PUSH1 0x0 KECCAK256 SWAP1 PUSH1 0xFF PUSH1 0x7 DUP4 ADD SLOAD AND PUSH1 0x7 DUP2 LT ISZERO SWAP1 DUP2 PUSH2 0x96C JUMPI DUP1 ISZERO SWAP2 DUP3 ISZERO PUSH2 0x11AD JUMPI JUMPDEST DUP3 ISZERO PUSH2 0x119C JUMPI JUMPDEST POP POP ISZERO PUSH2 0x1157 JUMPI PUSH2 0xD92 PUSH1 0x6 DUP4 ADD SLOAD TIMESTAMP LT PUSH2 0x3A83 JUMP JUMPDEST DUP3 ISZERO PUSH2 0x111E JUMPI PUSH1 0x4 CALLDATALOAD PUSH1 0x0 MSTORE PUSH1 0x15 PUSH1 0x20 MSTORE PUSH1 0x40 PUSH1 0x0 KECCAK256 CALLER PUSH1 0x0 MSTORE PUSH1 0x20 MSTORE PUSH1 0xFF PUSH1 0x40 PUSH1 0x0 KECCAK256 SLOAD AND PUSH2 0x10D9 JUMPI PUSH1 0x4 CALLDATALOAD PUSH1 0x0 MSTORE PUSH1 0xD PUSH1 0x20 MSTORE PUSH1 0x40 PUSH1 0x0 KECCAK256 SLOAD PUSH1 0x7 SLOAD GT ISZERO PUSH2 0x1094 JUMPI PUSH1 0x4 CALLDATALOAD PUSH1 0x0 MSTORE PUSH1 0x15 PUSH1 0x20 MSTORE PUSH1 0x40 PUSH1 0x0 KECCAK256 CALLER PUSH1 0x0 MSTORE PUSH1 0x20 MSTORE PUSH1 0x40 PUSH1 0x0 KECCAK256 PUSH1 0x1 PUSH1 0xFF NOT DUP3 SLOAD AND OR SWAP1 SSTORE PUSH1 0x4 CALLDATALOAD PUSH1 0x0 MSTORE PUSH1 0xD PUSH1 0x20 MSTORE PUSH1 0x40 PUSH1 0x0 KECCAK256 SWAP1 PUSH1 0x40 MLOAD SWAP1 PUSH2 0xE1B DUP3 PUSH2 0x3802 JUMP JUMPDEST CALLER DUP3 MSTORE PUSH2 0xE29 CALLDATASIZE DUP7 DUP9 PUSH2 0x3999 JUMP JUMPDEST SWAP3 PUSH1 0x20 DUP4 ADD SWAP4 DUP5 MSTORE PUSH1 0x0 PUSH1 0x40 DUP5 ADD MSTORE PUSH1 0x0 PUSH1 0x60 DUP5 ADD MSTORE TIMESTAMP PUSH1 0x80 DUP5 ADD MSTORE PUSH1 0x0 PUSH1 0xA0 DUP5 ADD MSTORE DUP1 SLOAD PUSH1 0x1 PUSH1 0x40 SHL DUP2 LT ISZERO PUSH2 0x1068 JUMPI PUSH2 0xE69 SWAP2 PUSH1 0x1 DUP3 ADD DUP2 SSTORE PUSH2 0x377A JUMP JUMPDEST SWAP4 SWAP1 SWAP4 PUSH2 0x107E JUMPI DUP3 MLOAD DUP5 SLOAD PUSH1 0x1 PUSH1 0x1 PUSH1 0xA0 SHL SUB NOT AND PUSH1 0x1 PUSH1 0x1 PUSH1 0xA0 SHL SUB SWAP2 SWAP1 SWAP2 AND OR DUP5 SSTORE MLOAD DUP1 MLOAD SWAP2 DUP3 GT PUSH2 0x1068 JUMPI PUSH2 0xEA4 PUSH1 0x1 DUP6 ADD SLOAD PUSH2 0x37AC JUMP JUMPDEST PUSH1 0x1F DUP2 GT PUSH2 0x1021 JUMPI JUMPDEST POP PUSH1 0x20 SWAP1 PUSH1 0x1F DUP4 GT PUSH1 0x1 EQ PUSH2 0xFAC JUMPI SWAP2 DUP1 PUSH1 0x5 SWAP5 SWAP3 PUSH1 0xA0 SWAP5 PUSH1 0x0 SWAP3 PUSH2 0xFA1 JUMPI JUMPDEST POP POP DUP2 PUSH1 0x1 SHL SWAP2 PUSH1 0x0 NOT SWAP1 PUSH1 0x3 SHL SHR NOT AND OR PUSH1 0x1 DUP6 ADD SSTORE JUMPDEST PUSH1 0x40 DUP2 ADD MLOAD PUSH1 0x2 DUP6 ADD SSTORE PUSH2 0xF0E PUSH1 0x60 DUP3 ADD MLOAD ISZERO ISZERO PUSH1 0x3 DUP7 ADD SWAP1 PUSH1 0xFF DUP1 NOT DUP4 SLOAD AND SWAP2 ISZERO ISZERO AND OR SWAP1 SSTORE JUMP JUMPDEST PUSH1 0x80 DUP2 ADD MLOAD PUSH1 0x4 DUP6 ADD SSTORE ADD MLOAD SWAP2 ADD SSTORE PUSH1 0x7 DUP2 ADD SLOAD PUSH1 0xFF DUP2 AND PUSH1 0x7 DUP2 LT ISZERO PUSH2 0x96C JUMPI DUP1 ISZERO SWAP1 DUP2 ISZERO PUSH2 0xF96 JUMPI JUMPDEST POP PUSH2 0xF82 JUMPI JUMPDEST POP POP PUSH32 0xA3DCF7CEBCC4CF0937F4F95D95392671977BA143B4FF236240650322A106E8DC PUSH1 0x40 MLOAD PUSH1 0x20 DUP2 MSTORE DUP1 PUSH2 0xF7D CALLER SWAP6 PUSH1 0x4 CALLDATALOAD SWAP6 PUSH1 0x20 DUP5 ADD SWAP2 PUSH2 0x39D0 JUMP JUMPDEST SUB SWAP1 LOG3 STOP JUMPDEST PUSH1 0x2 PUSH1 0x7 SWAP2 PUSH1 0xFF NOT AND OR SWAP2 ADD SSTORE DUP3 DUP1 PUSH2 0xF3F JUMP JUMPDEST PUSH1 0x1 SWAP2 POP EQ DUP6 PUSH2 0xF39 JUMP JUMPDEST ADD MLOAD SWAP1 POP DUP10 DUP1 PUSH2 0xECD JUMP JUMPDEST SWAP1 PUSH1 0x1 DUP6 ADD PUSH1 0x0 MSTORE PUSH1 0x20 PUSH1 0x0 KECCAK256 SWAP2 PUSH1 0x0 JUMPDEST PUSH1 0x1F NOT DUP6 AND DUP2 LT PUSH2 0x1009 JUMPI POP SWAP3 PUSH1 0x5 SWAP5 SWAP3 PUSH1 0x1 SWAP3 PUSH1 0xA0 SWAP6 DUP4 PUSH1 0x1F NOT DUP2 AND LT PUSH2 0xFF0 JUMPI JUMPDEST POP POP POP DUP2 SHL ADD PUSH1 0x1 DUP6 ADD SSTORE PUSH2 0xEE5 JUMP JUMPDEST ADD MLOAD PUSH1 0x0 NOT PUSH1 0xF8 DUP5 PUSH1 0x3 SHL AND SHR NOT AND SWAP1 SSTORE DUP10 DUP1 DUP1 PUSH2 0xFE0 JUMP JUMPDEST SWAP2 SWAP3 PUSH1 0x20 PUSH1 0x1 DUP2 SWAP3 DUP7 DUP6 ADD MLOAD DUP2 SSTORE ADD SWAP5 ADD SWAP3 ADD PUSH2 0xFBD JUMP JUMPDEST PUSH1 0x1 DUP6 ADD PUSH1 0x0 MSTORE PUSH1 0x20 PUSH1 0x0 KECCAK256 PUSH1 0x1F DUP5 ADD PUSH1 0x5 SHR DUP2 ADD PUSH1 0x20 DUP6 LT PUSH2 0x1061 JUMPI JUMPDEST PUSH1 0x1F DUP4 ADD PUSH1 0x5 SHR DUP3 ADD DUP2 LT PUSH2 0x1055 JUMPI POP POP PUSH2 0xEAD JUMP JUMPDEST PUSH1 0x0 DUP2 SSTORE PUSH1 0x1 ADD PUSH2 0x103F JUMP JUMPDEST POP DUP1 PUSH2 0x103F JUMP JUMPDEST PUSH4 0x4E487B71 PUSH1 0xE0 SHL PUSH1 0x0 MSTORE PUSH1 0x41 PUSH1 0x4 MSTORE PUSH1 0x24 PUSH1 0x0 REVERT JUMPDEST PUSH4 0x4E487B71 PUSH1 0xE0 SHL PUSH1 0x0 MSTORE PUSH1 0x0 PUSH1 0x4 MSTORE PUSH1 0x24 PUSH1 0x0 REVERT JUMPDEST PUSH1 0x40 MLOAD PUSH3 0x461BCD PUSH1 0xE5 SHL DUP2 MSTORE PUSH1 0x20 PUSH1 0x4 DUP3 ADD MSTORE PUSH1 0x17 PUSH1 0x24 DUP3 ADD MSTORE PUSH32 0x4D6178207375626D697373696F6E732072656163686564000000000000000000 PUSH1 0x44 DUP3 ADD MSTORE PUSH1 0x64 SWAP1 REVERT JUMPDEST PUSH1 0x40 MLOAD PUSH3 0x461BCD PUSH1 0xE5 SHL DUP2 MSTORE PUSH1 0x20 PUSH1 0x4 DUP3 ADD MSTORE PUSH1 0x17 PUSH1 0x24 DUP3 ADD MSTORE PUSH32 0x4D696E657220616C7265616479207375626D6974746564000000000000000000 PUSH1 0x44 DUP3 ADD MSTORE PUSH1 0x64 SWAP1 REVERT JUMPDEST PUSH1 0x40 MLOAD PUSH3 0x461BCD PUSH1 0xE5 SHL DUP2 MSTORE PUSH1 0x20 PUSH1 0x4 DUP3 ADD MSTORE PUSH1 0x11 PUSH1 0x24 DUP3 ADD MSTORE PUSH17 0x8ADAE0E8F240E4CAE6EAD8E840D0C2E6D PUSH1 0x7B SHL PUSH1 0x44 DUP3 ADD MSTORE PUSH1 0x64 SWAP1 REVERT JUMPDEST PUSH1 0x40 MLOAD PUSH3 0x461BCD PUSH1 0xE5 SHL DUP2 MSTORE PUSH1 0x20 PUSH1 0x4 DUP3 ADD MSTORE PUSH1 0x1A PUSH1 0x24 DUP3 ADD MSTORE PUSH32 0x43616E6E6F74207375626D697420746F2074686973207461736B000000000000 PUSH1 0x44 DUP3 ADD MSTORE PUSH1 0x64 SWAP1 REVERT JUMPDEST SWAP1 SWAP2 POP PUSH2 0x96C JUMPI PUSH1 0x2 EQ DUP6 DUP1 PUSH2 0xD7C JUMP JUMPDEST POP PUSH1 0x1 DUP2 EQ SWAP2 POP PUSH1 0x0 PUSH2 0xD75 JUMP JUMPDEST POP PUSH1 0x4 CALLDATALOAD PUSH1 0x0 DUP2 DUP2 MSTORE PUSH1 0xC PUSH1 0x20 MSTORE PUSH1 0x40 SWAP1 KECCAK256 SLOAD EQ PUSH2 0xD36 JUMP JUMPDEST CALLVALUE PUSH2 0x2F9 JUMPI PUSH1 0x20 DUP1 PUSH1 0x3 NOT CALLDATASIZE ADD SLT PUSH2 0x2F9 JUMPI PUSH1 0x4 CALLDATALOAD PUSH2 0x11F1 PUSH2 0x3CBB JUMP JUMPDEST DUP1 ISZERO ISZERO DUP1 PUSH2 0x1419 JUMPI JUMPDEST PUSH2 0x1203 SWAP1 PUSH2 0x3A46 JUMP JUMPDEST DUP1 PUSH1 0x0 MSTORE PUSH1 0xC DUP3 MSTORE PUSH1 0x40 PUSH1 0x0 KECCAK256 PUSH1 0x7 DUP2 ADD SWAP1 DUP2 SLOAD SWAP4 PUSH1 0xFF DUP6 AND PUSH1 0x7 DUP2 LT ISZERO PUSH2 0x96C JUMPI PUSH1 0x2 SUB PUSH2 0x13D5 JUMPI PUSH1 0x8 DUP3 ADD SLOAD PUSH1 0x1 PUSH1 0x1 PUSH1 0xA0 SHL SUB SWAP3 SWAP1 DUP4 AND DUP1 ISZERO PUSH2 0x1399 JUMPI DUP6 PUSH32 0xEFEF8593EC020B84769DDB5CF4469ACCBBD22D882A354BEE97694405126CA694 PUSH1 0x40 DUP3 SWAP10 DUP8 PUSH1 0x1 DUP8 SWAP12 SWAP11 SWAP12 ADD SLOAD AND SWAP1 PUSH1 0x3 DUP8 ADD SLOAD SWAP2 PUSH1 0x4 DUP9 ADD SLOAD SWAP8 PUSH1 0x5 DUP2 ADD SLOAD SWAP13 PUSH1 0x3 PUSH1 0x9 DUP4 ADD SLOAD SWAP5 PUSH1 0xFF NOT AND OR SWAP1 SSTORE PUSH1 0xB TIMESTAMP SWAP2 ADD SSTORE PUSH1 0x0 MSTORE PUSH1 0x10 DUP9 MSTORE DUP3 PUSH1 0x0 KECCAK256 PUSH2 0x12B0 DUP2 SLOAD PUSH2 0x3C17 JUMP JUMPDEST SWAP1 SSTORE PUSH2 0x12CB PUSH2 0x12C3 DUP9 PUSH1 0x1 SHR DUP1 SWAP10 PUSH2 0x3C0A JUMP JUMPDEST PUSH1 0x16 SLOAD PUSH2 0x3962 JUMP JUMPDEST PUSH1 0x16 SSTORE DUP6 PUSH1 0x0 MSTORE PUSH1 0x11 DUP9 MSTORE DUP3 PUSH1 0x0 KECCAK256 PUSH2 0x12E5 DUP4 DUP3 SLOAD PUSH2 0x3962 JUMP JUMPDEST SWAP1 SSTORE DUP6 PUSH1 0x0 MSTORE PUSH1 0x13 DUP9 MSTORE DUP3 PUSH1 0x0 KECCAK256 PUSH2 0x12FE DUP4 DUP3 SLOAD PUSH2 0x3962 JUMP JUMPDEST SWAP1 SSTORE DUP3 MLOAD SWAP2 DUP3 MSTORE DUP8 DUP3 ADD MSTORE LOG3 DUP1 PUSH2 0x1330 JUMPI JUMPDEST POP POP POP POP DUP1 PUSH2 0x1320 JUMPI PUSH1 0x1 PUSH1 0x0 SSTORE STOP JUMPDEST PUSH2 0x1329 SWAP2 PUSH2 0x4051 JUMP JUMPDEST DUP1 DUP1 PUSH2 0xA19 JUMP JUMPDEST PUSH1 0x2 SLOAD PUSH1 0x40 MLOAD PUSH4 0xA9059CBB PUSH1 0xE0 SHL DUP5 DUP3 ADD MSTORE PUSH2 0xDEAD PUSH1 0x24 DUP3 ADD MSTORE PUSH1 0x44 DUP1 DUP3 ADD DUP5 SWAP1 MSTORE DUP2 MSTORE PUSH32 0x8BC81353CF6671D259D22783E39ED930583C86F3F4CF7E981298E6A872DFB15D SWAP5 PUSH2 0x1389 SWAP3 AND PUSH2 0x1384 DUP3 PUSH2 0x381D JUMP JUMPDEST PUSH2 0x44A3 JUMP JUMPDEST PUSH1 0x40 MLOAD SWAP1 DUP2 MSTORE LOG2 DUP2 DUP4 DUP1 DUP1 PUSH2 0x1310 JUMP JUMPDEST PUSH1 0x40 MLOAD PUSH3 0x461BCD PUSH1 0xE5 SHL DUP2 MSTORE PUSH1 0x4 DUP2 ADD DUP5 SWAP1 MSTORE PUSH1 0x14 PUSH1 0x24 DUP3 ADD MSTORE PUSH20 0x4E6F2076616C6964207375626D697373696F6E73 PUSH1 0x60 SHL PUSH1 0x44 DUP3 ADD MSTORE PUSH1 0x64 SWAP1 REVERT JUMPDEST PUSH1 0x64 SWAP1 PUSH1 0x40 MLOAD SWAP1 PUSH3 0x461BCD PUSH1 0xE5 SHL DUP3 MSTORE PUSH1 0x4 DUP3 ADD MSTORE PUSH1 0x1F PUSH1 0x24 DUP3 ADD MSTORE PUSH32 0x5461736B206E6F7420726561647920666F722066696E616C697A6174696F6E00 PUSH1 0x44 DUP3 ADD MSTORE REVERT JUMPDEST POP PUSH1 0x0 DUP2 DUP2 MSTORE PUSH1 0xC DUP4 MSTORE PUSH1 0x40 SWAP1 KECCAK256 SLOAD DUP2 EQ PUSH2 0x11FA JUMP JUMPDEST CALLVALUE PUSH2 0x2F9 JUMPI PUSH1 0x0 CALLDATASIZE PUSH1 0x3 NOT ADD SLT PUSH2 0x2F9 JUMPI PUSH2 0x1448 PUSH2 0x3D58 JUMP JUMPDEST PUSH2 0x1450 PUSH2 0x3D11 JUMP JUMPDEST PUSH1 0x1 DUP1 SLOAD PUSH1 0xFF PUSH1 0xA0 SHL NOT AND PUSH1 0x1 PUSH1 0xA0 SHL OR SWAP1 SSTORE PUSH1 0x40 MLOAD CALLER DUP2 MSTORE PUSH32 0x62E78CEA01BEE320CD4E420270B5EA74000D11B0C9F74754EBDBFC544B05A258 SWAP1 PUSH1 0x20 SWAP1 LOG1 STOP JUMPDEST CALLVALUE PUSH2 0x2F9 JUMPI PUSH1 0x20 DUP1 PUSH1 0x3 NOT CALLDATASIZE ADD SLT PUSH2 0x2F9 JUMPI PUSH1 0x4 CALLDATALOAD PUSH2 0x14AE PUSH2 0x3CBB JUMP JUMPDEST DUP1 ISZERO ISZERO DUP1 PUSH2 0x15F5 JUMPI JUMPDEST PUSH2 0x14C0 SWAP1 PUSH2 0x3A46 JUMP JUMPDEST PUSH1 0x0 DUP2 DUP2 MSTORE PUSH1 0xC DUP4 MSTORE PUSH1 0x40 SWAP1 KECCAK256 PUSH1 0x1 DUP2 ADD SLOAD SWAP1 SWAP3 PUSH1 0x1 PUSH1 0x1 PUSH1 0xA0 SHL SUB SWAP2 DUP3 AND CALLER SUB PUSH2 0x15C0 JUMPI PUSH1 0x7 DUP5 ADD SWAP3 DUP4 SLOAD SWAP4 PUSH1 0xFF DUP6 AND PUSH1 0x7 DUP2 LT ISZERO PUSH2 0x96C JUMPI PUSH2 0x157B JUMPI PUSH1 0x4 PUSH2 0x1524 DUP8 PUSH1 0x5 PUSH2 0x151B PUSH1 0x3 PUSH2 0xA19 SWAP12 ADD SLOAD DUP6 DUP5 ADD SLOAD SWAP1 PUSH2 0x3962 JUMP JUMPDEST SWAP2 ADD SLOAD SWAP1 PUSH2 0x3962 JUMP JUMPDEST SWAP6 PUSH1 0xFF NOT AND OR SWAP1 SSTORE CALLER PUSH1 0x0 MSTORE PUSH1 0x10 DUP3 MSTORE PUSH1 0x40 PUSH1 0x0 KECCAK256 PUSH2 0x1543 DUP2 SLOAD PUSH2 0x3C17 JUMP JUMPDEST SWAP1 SSTORE PUSH32 0x6F63D695245E4CF8F0B7AAE0B8DA95876A4B173BA8D0D4466CC83C357DDA3A8 PUSH1 0x40 MLOAD SWAP3 DUP6 DUP5 MSTORE CALLER SWAP4 LOG3 CALLER SWAP1 PUSH1 0x2 SLOAD AND PUSH2 0x3DB0 JUMP JUMPDEST PUSH1 0x40 MLOAD PUSH3 0x461BCD PUSH1 0xE5 SHL DUP2 MSTORE PUSH1 0x4 DUP2 ADD DUP5 SWAP1 MSTORE PUSH1 0x17 PUSH1 0x24 DUP3 ADD MSTORE PUSH32 0x43616E6E6F742063616E63656C2074686973207461736B000000000000000000 PUSH1 0x44 DUP3 ADD MSTORE PUSH1 0x64 SWAP1 REVERT JUMPDEST PUSH1 0x64 SWAP1 PUSH1 0x40 MLOAD SWAP1 PUSH3 0x461BCD PUSH1 0xE5 SHL DUP3 MSTORE PUSH1 0x4 DUP3 ADD MSTORE PUSH1 0xE PUSH1 0x24 DUP3 ADD MSTORE PUSH14 0x2737BA103A30B9B59037BBB732B9 PUSH1 0x91 SHL PUSH1 0x44 DUP3 ADD MSTORE REVERT JUMPDEST POP PUSH1 0x0 DUP2 DUP2 MSTORE PUSH1 0xC DUP4 MSTORE PUSH1 0x40 SWAP1 KECCAK256 SLOAD DUP2 EQ PUSH2 0x14B7 JUMP JUMPDEST CALLVALUE PUSH2 0x2F9 JUMPI PUSH1 0x20 CALLDATASIZE PUSH1 0x3 NOT ADD SLT PUSH2 0x2F9 JUMPI PUSH1 0x4 CALLDATALOAD PUSH1 0x0 MSTORE PUSH1 0x1F PUSH1 0x20 MSTORE PUSH1 0x20 PUSH1 0xFF PUSH1 0x40 PUSH1 0x0 KECCAK256 SLOAD AND PUSH1 0x40 MLOAD SWAP1 ISZERO ISZERO DUP2 MSTORE RETURN JUMPDEST CALLVALUE PUSH2 0x2F9 JUMPI PUSH2 0x164A CALLDATASIZE PUSH2 0x3703 JUMP JUMPDEST SWAP2 PUSH1 0x0 MSTORE PUSH1 0xF PUSH1 0x20 MSTORE PUSH1 0x40 PUSH1 0x0 KECCAK256 SWAP1 PUSH1 0x0 MSTORE PUSH1 0x20 MSTORE PUSH1 0x40 PUSH1 0x0 KECCAK256 SWAP1 PUSH1 0x1 DUP1 PUSH1 0xA0 SHL SUB AND PUSH1 0x0 MSTORE PUSH1 0x20 MSTORE PUSH1 0x20 PUSH1 0xFF PUSH1 0x40 PUSH1 0x0 KECCAK256 SLOAD AND PUSH1 0x40 MLOAD SWAP1 ISZERO ISZERO DUP2 MSTORE RETURN JUMPDEST CALLVALUE PUSH2 0x2F9 JUMPI PUSH1 0x20 CALLDATASIZE PUSH1 0x3 NOT ADD SLT PUSH2 0x2F9 JUMPI PUSH1 0x4 CALLDATALOAD PUSH1 0x0 MSTORE PUSH1 0xD PUSH1 0x20 MSTORE PUSH1 0x20 PUSH1 0x40 PUSH1 0x0 KECCAK256 SLOAD PUSH1 0x40 MLOAD SWAP1 DUP2 MSTORE RETURN JUMPDEST CALLVALUE PUSH2 0x2F9 JUMPI PUSH2 0x16C2 CALLDATASIZE PUSH2 0x36D7 JUMP JUMPDEST SWAP1 PUSH1 0x0 MSTORE PUSH1 0x1C PUSH1 0x20 MSTORE PUSH1 0x40 PUSH1 0x0 KECCAK256 SWAP1 PUSH1 0x0 MSTORE PUSH1 0x20 MSTORE PUSH1 0x20 PUSH1 0x40 PUSH1 0x0 KECCAK256 SLOAD PUSH1 0x40 MLOAD SWAP1 DUP2 MSTORE RETURN JUMPDEST CALLVALUE PUSH2 0x2F9 JUMPI PUSH1 0x0 CALLDATASIZE PUSH1 0x3 NOT ADD SLT PUSH2 0x2F9 JUMPI PUSH2 0x1700 PUSH2 0x3D58 JUMP JUMPDEST PUSH1 0x1 DUP1 SLOAD PUSH1 0x1 PUSH1 0x1 PUSH1 0xA0 SHL SUB NOT DUP2 AND SWAP1 SWAP2 SSTORE PUSH1 0x0 SWAP1 PUSH1 0x1 PUSH1 0x1 PUSH1 0xA0 SHL SUB AND PUSH32 0x8BE0079C531659141344CD1FD0A4F28419497F9722A3DAAFE3B4186F6B6457E0 DUP3 DUP1 LOG3 STOP JUMPDEST CALLVALUE PUSH2 0x2F9 JUMPI PUSH1 0x80 CALLDATASIZE PUSH1 0x3 NOT ADD SLT PUSH2 0x2F9 JUMPI PUSH1 0x4 CALLDATALOAD PUSH1 0x24 DUP1 CALLDATALOAD PUSH1 0x44 SWAP1 DUP2 CALLDATALOAD PUSH1 0x64 CALLER PUSH1 0x0 MSTORE PUSH1 0x20 SWAP1 PUSH1 0x9 DUP3 MSTORE PUSH2 0x177F PUSH1 0xFF PUSH1 0x40 PUSH1 0x0 KECCAK256 SLOAD AND PUSH2 0x3ABE JUMP JUMPDEST DUP7 ISZERO ISZERO DUP1 PUSH2 0x1B81 JUMPI JUMPDEST PUSH2 0x1791 SWAP1 PUSH2 0x3A46 JUMP JUMPDEST PUSH2 0x1799 PUSH2 0x3D11 JUMP JUMPDEST DUP7 PUSH1 0x0 MSTORE PUSH1 0xC DUP3 MSTORE PUSH1 0x40 PUSH1 0x0 KECCAK256 SWAP1 PUSH1 0xFF PUSH1 0x7 DUP4 ADD SLOAD AND PUSH1 0x7 DUP2 LT ISZERO PUSH2 0x1B6C JUMPI DUP1 PUSH1 0x2 PUSH2 0x17CD SWAP3 EQ SWAP1 DUP2 ISZERO PUSH2 0x1B61 JUMPI POP PUSH2 0x3AFC JUMP JUMPDEST DUP8 PUSH1 0x0 MSTORE PUSH1 0xD DUP4 MSTORE PUSH2 0x17E5 PUSH1 0x40 PUSH1 0x0 KECCAK256 SLOAD DUP7 LT PUSH2 0x3B48 JUMP JUMPDEST PUSH2 0x17F3 PUSH2 0x2710 DUP6 GT ISZERO PUSH2 0x3C24 JUMP JUMPDEST DUP8 PUSH1 0x0 MSTORE PUSH1 0xD DUP4 MSTORE PUSH2 0x1809 DUP6 PUSH1 0x40 PUSH1 0x0 KECCAK256 PUSH2 0x377A JUMP JUMPDEST POP SWAP1 PUSH1 0x3 DUP3 ADD SWAP8 PUSH2 0x181E PUSH1 0xFF DUP11 SLOAD AND ISZERO PUSH2 0x3B8A JUMP JUMPDEST DUP10 PUSH1 0x0 MSTORE PUSH1 0x1C DUP6 MSTORE PUSH1 0x40 PUSH1 0x0 KECCAK256 DUP8 PUSH1 0x0 MSTORE DUP6 MSTORE PUSH2 0x1843 PUSH1 0x40 PUSH1 0x0 KECCAK256 SLOAD PUSH1 0x1A SLOAD SWAP1 PUSH2 0x3962 JUMP JUMPDEST PUSH2 0x184F PUSH1 0x1B SLOAD DUP3 PUSH2 0x3962 JUMP JUMPDEST SWAP1 TIMESTAMP GT ISZERO PUSH2 0x1B20 JUMPI TIMESTAMP GT PUSH2 0x1AEB JUMPI DUP10 PUSH1 0x0 MSTORE PUSH1 0x17 DUP6 MSTORE PUSH1 0x40 PUSH1 0x0 KECCAK256 DUP8 PUSH1 0x0 MSTORE DUP6 MSTORE PUSH1 0x40 PUSH1 0x0 KECCAK256 CALLER PUSH1 0x0 MSTORE DUP6 MSTORE PUSH1 0x40 PUSH1 0x0 KECCAK256 SWAP2 DUP3 SLOAD SWAP9 DUP10 ISZERO PUSH2 0x1AB9 JUMPI PUSH1 0x2 DUP5 ADD SWAP3 DUP4 SLOAD SWAP11 PUSH1 0xFF DUP13 AND PUSH2 0x1A85 JUMPI PUSH1 0x40 MLOAD DUP10 DUP2 ADD SWAP1 DUP12 DUP3 MSTORE DUP6 CALLDATALOAD PUSH1 0x40 DUP3 ADD MSTORE PUSH1 0x40 DUP2 MSTORE PUSH2 0x18B8 DUP2 PUSH2 0x3838 JUMP JUMPDEST MLOAD SWAP1 KECCAK256 SUB PUSH2 0x1A55 JUMPI POP POP POP DUP6 SWAP2 PUSH1 0x3 SWAP2 PUSH1 0x1 PUSH1 0xFF NOT DUP1 SWAP12 AND OR SWAP1 SSTORE ADD SSTORE DUP8 PUSH1 0x0 MSTORE PUSH1 0x19 DUP4 MSTORE PUSH1 0x40 PUSH1 0x0 KECCAK256 DUP6 PUSH1 0x0 MSTORE DUP4 MSTORE PUSH1 0x40 PUSH1 0x0 KECCAK256 PUSH2 0x18F7 DUP2 SLOAD PUSH2 0x396F JUMP JUMPDEST SWAP1 SSTORE DUP8 PUSH1 0x0 MSTORE PUSH1 0xE DUP4 MSTORE PUSH1 0x40 PUSH1 0x0 KECCAK256 DUP6 PUSH1 0x0 MSTORE DUP4 MSTORE PUSH1 0x40 PUSH1 0x0 KECCAK256 CALLER PUSH1 0x0 MSTORE DUP4 MSTORE DUP4 PUSH1 0x40 PUSH1 0x0 KECCAK256 SSTORE DUP8 PUSH1 0x0 MSTORE PUSH1 0xF DUP4 MSTORE PUSH1 0x40 PUSH1 0x0 KECCAK256 DUP6 PUSH1 0x0 MSTORE DUP4 MSTORE PUSH1 0x40 PUSH1 0x0 KECCAK256 CALLER PUSH1 0x0 MSTORE DUP4 MSTORE PUSH1 0x40 PUSH1 0x0 KECCAK256 PUSH1 0x1 DUP8 DUP3 SLOAD AND OR SWAP1 SSTORE DUP8 PUSH1 0x0 MSTORE DUP3 DUP1 MSTORE PUSH1 0x40 PUSH1 0x0 KECCAK256 DUP6 PUSH1 0x0 MSTORE DUP4 MSTORE PUSH2 0x196A CALLER PUSH1 0x40 PUSH1 0x0 KECCAK256 PUSH2 0x3C80 JUMP JUMPDEST PUSH1 0x5 DUP2 ADD SWAP3 PUSH2 0x1979 DUP5 SLOAD PUSH2 0x396F JUMP JUMPDEST SWAP5 DUP6 DUP6 SSTORE PUSH1 0x40 MLOAD SWAP2 DUP8 DUP4 MSTORE DUP3 ADD MSTORE DUP9 PUSH32 0x23DEF086B3DC14DBD150F69D2E6AF648DFC789CDF251BA7D720FEECBC0625F85 PUSH1 0x40 CALLER SWAP4 LOG3 PUSH1 0xB SLOAD DUP5 LT ISZERO PUSH2 0x19BA JUMPI STOP JUMPDEST PUSH32 0xFF2FC693BB2D4A09F21F0C403FCE5ECB4B5B0B57E81C7253DEB5386BB8A8AE77 SWAP7 PUSH1 0x1 PUSH2 0x19EC PUSH2 0x841 SWAP7 DUP9 DUP13 PUSH2 0x3E2F JUMP JUMPDEST SWAP8 DUP9 PUSH1 0x2 DUP6 ADD SSTORE DUP3 SLOAD AND OR SWAP1 SSTORE PUSH1 0x9 DUP3 ADD SWAP1 DUP7 DUP3 SLOAD DUP2 GT PUSH2 0x1A2A JUMPI JUMPDEST POP POP POP POP SLOAD PUSH1 0x40 MLOAD SWAP4 DUP5 SWAP4 DUP5 PUSH1 0x40 SWAP2 SWAP5 SWAP4 SWAP3 PUSH1 0x60 DUP3 ADD SWAP6 DUP3 MSTORE PUSH1 0x20 DUP3 ADD MSTORE ADD MSTORE JUMP JUMPDEST PUSH1 0x8 SWAP3 SSTORE PUSH1 0x1 DUP1 PUSH1 0xA0 SHL SUB SWAP1 SLOAD AND SWAP2 ADD SWAP1 PUSH1 0x1 PUSH1 0x1 PUSH1 0x60 SHL SUB PUSH1 0xA0 SHL DUP3 SLOAD AND OR SWAP1 SSTORE DUP7 DUP1 DUP1 DUP7 PUSH2 0x1A08 JUMP JUMPDEST DUP8 SWAP2 PUSH1 0xD PUSH13 0x90C2E6D040DAD2E6DAC2E8C6D PUSH1 0x9B SHL SWAP3 PUSH1 0x40 MLOAD SWAP5 PUSH3 0x461BCD PUSH1 0xE5 SHL DUP7 MSTORE PUSH1 0x4 DUP7 ADD MSTORE DUP5 ADD MSTORE DUP3 ADD MSTORE REVERT JUMPDEST POP DUP8 SWAP2 PUSH1 0x10 PUSH16 0x105B1C9958591E481C995D99585B1959 PUSH1 0x82 SHL SWAP3 PUSH1 0x40 MLOAD SWAP5 PUSH3 0x461BCD PUSH1 0xE5 SHL DUP7 MSTORE PUSH1 0x4 DUP7 ADD MSTORE DUP5 ADD MSTORE DUP3 ADD MSTORE REVERT JUMPDEST PUSH15 0x139BC818DBDB5B5A5D08199BDD5B99 PUSH1 0x8A SHL DUP8 SWAP2 PUSH1 0xF DUP6 PUSH1 0x40 MLOAD SWAP5 PUSH3 0x461BCD PUSH1 0xE5 SHL DUP7 MSTORE PUSH1 0x4 DUP7 ADD MSTORE DUP5 ADD MSTORE DUP3 ADD MSTORE REVERT JUMPDEST PUSH18 0x14995D99585B081C1A185CD948195B991959 PUSH1 0x72 SHL DUP9 PUSH1 0x12 DUP8 SWAP4 PUSH1 0x40 MLOAD SWAP5 PUSH3 0x461BCD PUSH1 0xE5 SHL DUP7 MSTORE PUSH1 0x4 DUP7 ADD MSTORE DUP5 ADD MSTORE DUP3 ADD MSTORE REVERT JUMPDEST POP PUSH32 0x436F6D6D6974207068617365206E6F7420656E64656420796574000000000000 DUP9 PUSH1 0x1A DUP8 SWAP4 PUSH1 0x40 MLOAD SWAP5 PUSH3 0x461BCD PUSH1 0xE5 SHL DUP7 MSTORE PUSH1 0x4 DUP7 ADD MSTORE DUP5 ADD MSTORE DUP3 ADD MSTORE REVERT JUMPDEST PUSH1 0x1 SWAP2 POP EQ DUP11 PUSH2 0x665 JUMP JUMPDEST DUP8 PUSH4 0x4E487B71 PUSH1 0xE0 SHL PUSH1 0x0 MSTORE PUSH1 0x21 PUSH1 0x4 MSTORE PUSH1 0x0 REVERT JUMPDEST POP PUSH1 0x0 DUP8 DUP2 MSTORE PUSH1 0xC DUP4 MSTORE PUSH1 0x40 SWAP1 KECCAK256 SLOAD DUP8 EQ PUSH2 0x1788 JUMP JUMPDEST CALLVALUE PUSH2 0x2F9 JUMPI PUSH1 0x0 CALLDATASIZE PUSH1 0x3 NOT ADD SLT PUSH2 0x2F9 JUMPI PUSH1 0x20 PUSH1 0xB SLOAD PUSH1 0x40 MLOAD SWAP1 DUP2 MSTORE RETURN JUMPDEST CALLVALUE PUSH2 0x2F9 JUMPI PUSH1 0x0 CALLDATASIZE PUSH1 0x3 NOT ADD SLT PUSH2 0x2F9 JUMPI PUSH1 0x20 PUSH1 0x40 MLOAD PUSH5 0xE8D4A51000 DUP2 MSTORE RETURN JUMPDEST CALLVALUE PUSH2 0x2F9 JUMPI PUSH1 0x20 DUP1 PUSH1 0x3 NOT CALLDATASIZE ADD SLT PUSH2 0x2F9 JUMPI PUSH1 0x4 CALLDATALOAD PUSH2 0x1BF2 PUSH2 0x3CBB JUMP JUMPDEST DUP1 ISZERO ISZERO DUP1 PUSH2 0x1DB0 JUMPI JUMPDEST PUSH2 0x1C04 SWAP1 PUSH2 0x3A46 JUMP JUMPDEST DUP1 PUSH1 0x0 MSTORE PUSH1 0xC DUP3 MSTORE PUSH1 0x40 PUSH1 0x0 KECCAK256 SWAP2 PUSH1 0x7 DUP4 ADD DUP1 SLOAD SWAP3 PUSH1 0xFF DUP5 AND PUSH1 0x7 DUP2 LT ISZERO SWAP1 DUP2 PUSH2 0x96C JUMPI DUP1 ISZERO SWAP2 DUP3 ISZERO PUSH2 0x1DA2 JUMPI JUMPDEST DUP3 ISZERO PUSH2 0x1D91 JUMPI JUMPDEST POP POP ISZERO PUSH2 0x1D57 JUMPI PUSH1 0x6 DUP6 ADD SLOAD TIMESTAMP GT ISZERO PUSH2 0x1D1B JUMPI PUSH1 0x8 DUP6 ADD SLOAD PUSH1 0x1 PUSH1 0x1 PUSH1 0xA0 SHL SUB SWAP3 SWAP1 DUP4 AND PUSH2 0x1CE2 JUMPI PUSH1 0x1 DUP7 PUSH1 0x10 SWAP3 PUSH1 0x5 PUSH2 0x1C8C PUSH2 0x1C82 PUSH1 0x3 PUSH2 0xA19 SWAP13 ADD SLOAD PUSH1 0x4 DUP7 ADD SLOAD SWAP1 PUSH2 0x3962 JUMP JUMPDEST DUP3 DUP6 ADD SLOAD SWAP1 PUSH2 0x3962 JUMP JUMPDEST SWAP9 PUSH1 0xFF NOT AND OR SWAP1 SSTORE ADD SWAP4 DUP4 DUP6 SLOAD AND PUSH1 0x0 MSTORE MSTORE PUSH1 0x40 PUSH1 0x0 KECCAK256 PUSH2 0x1CAD DUP2 SLOAD PUSH2 0x3C17 JUMP JUMPDEST SWAP1 SSTORE PUSH32 0x7C2ECD5E2B7188AC57F3A370681639CB447C9CBFBBBACE0C070ADEA6C73EAA54 PUSH1 0x0 DUP1 LOG2 DUP1 PUSH1 0x2 SLOAD AND SWAP2 SLOAD AND SWAP1 PUSH2 0x3DB0 JUMP JUMPDEST PUSH1 0x40 MLOAD PUSH3 0x461BCD PUSH1 0xE5 SHL DUP2 MSTORE PUSH1 0x4 DUP2 ADD DUP6 SWAP1 MSTORE PUSH1 0x11 PUSH1 0x24 DUP3 ADD MSTORE PUSH17 0x2A30B9B5903430B99030903BB4B73732B9 PUSH1 0x79 SHL PUSH1 0x44 DUP3 ADD MSTORE PUSH1 0x64 SWAP1 REVERT JUMPDEST PUSH1 0x40 MLOAD PUSH3 0x461BCD PUSH1 0xE5 SHL DUP2 MSTORE PUSH1 0x4 DUP2 ADD DUP5 SWAP1 MSTORE PUSH1 0x14 PUSH1 0x24 DUP3 ADD MSTORE PUSH20 0x15185CDAC81B9BDD081E595D08195E1C1A5C9959 PUSH1 0x62 SHL PUSH1 0x44 DUP3 ADD MSTORE PUSH1 0x64 SWAP1 REVERT JUMPDEST PUSH1 0x40 MLOAD PUSH3 0x461BCD PUSH1 0xE5 SHL DUP2 MSTORE PUSH1 0x4 DUP2 ADD DUP5 SWAP1 MSTORE PUSH1 0x12 PUSH1 0x24 DUP3 ADD MSTORE PUSH18 0x5461736B206E6F7420657870697261626C65 PUSH1 0x70 SHL PUSH1 0x44 DUP3 ADD MSTORE PUSH1 0x64 SWAP1 REVERT JUMPDEST SWAP1 SWAP2 POP PUSH2 0x96C JUMPI PUSH1 0x2 EQ DUP7 DUP1 PUSH2 0x1C39 JUMP JUMPDEST POP PUSH1 0x1 DUP2 EQ SWAP2 POP PUSH1 0x0 PUSH2 0x1C32 JUMP JUMPDEST POP PUSH1 0x0 DUP2 DUP2 MSTORE PUSH1 0xC DUP4 MSTORE PUSH1 0x40 SWAP1 KECCAK256 SLOAD DUP2 EQ PUSH2 0x1BFB JUMP JUMPDEST CALLVALUE PUSH2 0x2F9 JUMPI PUSH1 0x0 CALLDATASIZE PUSH1 0x3 NOT ADD SLT PUSH2 0x2F9 JUMPI PUSH1 0x20 PUSH1 0xFF PUSH1 0x1 SLOAD PUSH1 0xA0 SHR AND PUSH1 0x40 MLOAD SWAP1 ISZERO ISZERO DUP2 MSTORE RETURN JUMPDEST CALLVALUE PUSH2 0x2F9 JUMPI PUSH2 0x1DFA CALLDATASIZE PUSH2 0x36D7 JUMP JUMPDEST SWAP1 PUSH1 0x0 MSTORE PUSH1 0xD PUSH1 0x20 MSTORE PUSH1 0x40 PUSH1 0x0 KECCAK256 SWAP1 DUP2 SLOAD DUP2 LT ISZERO PUSH2 0x2F9 JUMPI PUSH2 0x1E1B SWAP2 PUSH2 0x377A JUMP JUMPDEST POP DUP1 SLOAD PUSH1 0x1 PUSH1 0x1 PUSH1 0xA0 SHL SUB AND PUSH2 0x1E33 PUSH1 0x1 DUP4 ADD PUSH2 0x3874 JUMP JUMPDEST SWAP2 PUSH1 0x2 DUP2 ADD SLOAD SWAP1 PUSH1 0xFF PUSH1 0x3 DUP3 ADD SLOAD AND SWAP1 PUSH1 0x5 PUSH1 0x4 DUP3 ADD SLOAD SWAP2 ADD SLOAD SWAP2 PUSH2 0x1E6A PUSH1 0x40 MLOAD SWAP7 DUP8 SWAP7 DUP8 MSTORE PUSH1 0xC0 PUSH1 0x20 DUP9 ADD MSTORE PUSH1 0xC0 DUP8 ADD SWAP1 PUSH2 0x372D JUMP JUMPDEST SWAP4 PUSH1 0x40 DUP7 ADD MSTORE ISZERO ISZERO PUSH1 0x60 DUP6 ADD MSTORE PUSH1 0x80 DUP5 ADD MSTORE PUSH1 0xA0 DUP4 ADD MSTORE SUB SWAP1 RETURN JUMPDEST CALLVALUE PUSH2 0x2F9 JUMPI PUSH1 0x20 DUP1 PUSH1 0x3 NOT CALLDATASIZE ADD SLT PUSH2 0x2F9 JUMPI PUSH2 0x1E9F PUSH2 0x36ED JUMP JUMPDEST PUSH2 0x1EA7 PUSH2 0x3D58 JUMP JUMPDEST PUSH1 0x1 PUSH1 0x1 PUSH1 0xA0 SHL SUB AND SWAP1 PUSH2 0x1EBC DUP3 ISZERO ISZERO PUSH2 0x39F1 JUMP JUMPDEST DUP2 PUSH1 0x0 MSTORE PUSH1 0x9 DUP2 MSTORE PUSH1 0xFF PUSH1 0x40 PUSH1 0x0 KECCAK256 SLOAD AND PUSH2 0x1F88 JUMPI DUP2 PUSH1 0x0 MSTORE PUSH1 0x9 DUP2 MSTORE PUSH1 0x40 PUSH1 0x0 KECCAK256 PUSH1 0x1 PUSH1 0xFF NOT DUP3 SLOAD AND OR SWAP1 SSTORE PUSH2 0x1EF4 PUSH1 0xA SLOAD PUSH2 0x396F JUMP JUMPDEST PUSH1 0xA SSTORE DUP2 PUSH1 0x0 MSTORE PUSH1 0x14 DUP2 MSTORE PUSH1 0x2 PUSH1 0x40 PUSH1 0x0 KECCAK256 ADD SLOAD ISZERO PUSH2 0x1F36 JUMPI JUMPDEST POP PUSH32 0xE366C1C0452ED8EEC96861E9E54141EBFF23C9EC89FE27B996B45F5EC3884987 PUSH1 0x0 DUP1 LOG2 STOP JUMPDEST PUSH1 0x3 PUSH1 0x40 MLOAD SWAP2 PUSH2 0x1F45 DUP4 PUSH2 0x381D JUMP JUMPDEST PUSH1 0x0 DUP4 MSTORE DUP1 DUP4 ADD PUSH1 0x0 DUP2 MSTORE PUSH1 0x40 DUP5 ADD SWAP1 PUSH2 0x1388 DUP3 MSTORE PUSH1 0x14 PUSH1 0x60 DUP7 ADD SWAP4 TIMESTAMP DUP6 MSTORE DUP8 PUSH1 0x0 MSTORE MSTORE PUSH1 0x40 PUSH1 0x0 KECCAK256 SWAP5 MLOAD DUP6 SSTORE MLOAD PUSH1 0x1 DUP6 ADD SSTORE MLOAD PUSH1 0x2 DUP5 ADD SSTORE MLOAD SWAP2 ADD SSTORE DUP2 PUSH2 0x1F0E JUMP JUMPDEST PUSH1 0x64 SWAP1 PUSH1 0x40 MLOAD SWAP1 PUSH3 0x461BCD PUSH1 0xE5 SHL DUP3 MSTORE PUSH1 0x4 DUP3 ADD MSTORE PUSH1 0x11 PUSH1 0x24 DUP3 ADD MSTORE PUSH17 0x20B63932B0B23C903B30B634B230BA37B9 PUSH1 0x79 SHL PUSH1 0x44 DUP3 ADD MSTORE REVERT JUMPDEST CALLVALUE PUSH2 0x2F9 JUMPI PUSH1 0x0 CALLDATASIZE PUSH1 0x3 NOT ADD SLT PUSH2 0x2F9 JUMPI PUSH1 0x20 PUSH1 0x1A SLOAD PUSH1 0x40 MLOAD SWAP1 DUP2 MSTORE RETURN JUMPDEST CALLVALUE PUSH2 0x2F9 JUMPI PUSH1 0x20 CALLDATASIZE PUSH1 0x3 NOT ADD SLT PUSH2 0x2F9 JUMPI PUSH2 0x1FF7 PUSH2 0x36ED JUMP JUMPDEST PUSH2 0x1FFF PUSH2 0x3D58 JUMP JUMPDEST PUSH1 0x1 PUSH1 0x1 PUSH1 0xA0 SHL SUB AND PUSH1 0x0 DUP2 DUP2 MSTORE PUSH1 0x9 PUSH1 0x20 MSTORE PUSH1 0x40 SWAP1 KECCAK256 SLOAD PUSH2 0x2023 SWAP1 PUSH1 0xFF AND PUSH2 0x3ABE JUMP JUMPDEST DUP1 PUSH1 0x0 MSTORE PUSH1 0x9 PUSH1 0x20 MSTORE PUSH1 0x40 PUSH1 0x0 KECCAK256 PUSH1 0xFF NOT DUP2 SLOAD AND SWAP1 SSTORE PUSH2 0x2044 PUSH1 0xA SLOAD PUSH2 0x3C17 JUMP JUMPDEST PUSH1 0xA SSTORE PUSH32 0xE1434E25D6611E0DB941968FDC97811C982AC1602E951637D206F5FDDA9DD8F1 PUSH1 0x0 DUP1 LOG2 STOP JUMPDEST CALLVALUE PUSH2 0x2F9 JUMPI PUSH1 0x0 CALLDATASIZE PUSH1 0x3 NOT ADD SLT PUSH2 0x2F9 JUMPI PUSH2 0x2087 PUSH2 0x3D58 JUMP JUMPDEST PUSH1 0x1 SLOAD PUSH1 0xFF DUP2 PUSH1 0xA0 SHR AND ISZERO PUSH2 0x20CE JUMPI PUSH1 0xFF PUSH1 0xA0 SHL NOT AND PUSH1 0x1 SSTORE PUSH1 0x40 MLOAD CALLER DUP2 MSTORE PUSH32 0x5DB9EE0A495BF2E6FF9C91A7834C1BA4FDD244A5E8AA4E537BD38AEAE4B073AA SWAP1 PUSH1 0x20 SWAP1 LOG1 STOP JUMPDEST PUSH1 0x40 MLOAD PUSH3 0x461BCD PUSH1 0xE5 SHL DUP2 MSTORE PUSH1 0x20 PUSH1 0x4 DUP3 ADD MSTORE PUSH1 0x14 PUSH1 0x24 DUP3 ADD MSTORE PUSH20 0x14185D5CD8589B194E881B9BDD081C185D5CD959 PUSH1 0x62 SHL PUSH1 0x44 DUP3 ADD MSTORE PUSH1 0x64 SWAP1 REVERT JUMPDEST CALLVALUE PUSH2 0x2F9 JUMPI PUSH2 0x2118 CALLDATASIZE PUSH2 0x36D7 JUMP JUMPDEST PUSH2 0x2120 PUSH2 0x3D58 JUMP JUMPDEST PUSH2 0x12C DUP1 DUP4 LT PUSH2 0x21A8 JUMPI DUP2 LT PUSH2 0x216A JUMPI DUP2 PUSH1 0x40 SWAP2 PUSH32 0x54333DE66970050BA341FD48B02B1E37C55D85AE724EE00E32233E89E072BEA8 SWAP4 PUSH1 0x1A SSTORE DUP1 PUSH1 0x1B SSTORE DUP3 MLOAD SWAP2 DUP3 MSTORE PUSH1 0x20 DUP3 ADD MSTORE LOG1 STOP JUMPDEST PUSH1 0x40 MLOAD PUSH3 0x461BCD PUSH1 0xE5 SHL DUP2 MSTORE PUSH1 0x20 PUSH1 0x4 DUP3 ADD MSTORE PUSH1 0x16 PUSH1 0x24 DUP3 ADD MSTORE PUSH22 0x14995D99585B081C1A185CD9481D1BDBC81CDA1BDC9D PUSH1 0x52 SHL PUSH1 0x44 DUP3 ADD MSTORE PUSH1 0x64 SWAP1 REVERT JUMPDEST PUSH1 0x40 MLOAD PUSH3 0x461BCD PUSH1 0xE5 SHL DUP2 MSTORE PUSH1 0x20 PUSH1 0x4 DUP3 ADD MSTORE PUSH1 0x16 PUSH1 0x24 DUP3 ADD MSTORE PUSH22 0x10DBDB5B5A5D081C1A185CD9481D1BDBC81CDA1BDC9D PUSH1 0x52 SHL PUSH1 0x44 DUP3 ADD MSTORE PUSH1 0x64 SWAP1 REVERT JUMPDEST CALLVALUE PUSH2 0x2F9 JUMPI PUSH2 0x21F4 CALLDATASIZE PUSH2 0x3703 JUMP JUMPDEST SWAP2 PUSH1 0x0 MSTORE PUSH1 0x17 PUSH1 0x20 MSTORE PUSH1 0x40 PUSH1 0x0 KECCAK256 SWAP1 PUSH1 0x0 MSTORE PUSH1 0x20 MSTORE PUSH1 0x40 PUSH1 0x0 KECCAK256 SWAP1 PUSH1 0x1 DUP1 PUSH1 0xA0 SHL SUB AND PUSH1 0x0 MSTORE PUSH1 0x20 MSTORE PUSH1 0x80 PUSH1 0x40 PUSH1 0x0 KECCAK256 DUP1 SLOAD SWAP1 PUSH1 0x1 DUP2 ADD SLOAD SWAP1 PUSH1 0x3 PUSH1 0xFF PUSH1 0x2 DUP4 ADD SLOAD AND SWAP2 ADD SLOAD SWAP2 PUSH1 0x40 MLOAD SWAP4 DUP5 MSTORE PUSH1 0x20 DUP5 ADD MSTORE ISZERO ISZERO PUSH1 0x40 DUP4 ADD MSTORE PUSH1 0x60 DUP3 ADD MSTORE RETURN JUMPDEST CALLVALUE PUSH2 0x2F9 JUMPI PUSH1 0x0 CALLDATASIZE PUSH1 0x3 NOT ADD SLT PUSH2 0x2F9 JUMPI PUSH1 0x20 PUSH1 0x7 SLOAD PUSH1 0x40 MLOAD SWAP1 DUP2 MSTORE RETURN JUMPDEST CALLVALUE PUSH2 0x2F9 JUMPI PUSH1 0x20 CALLDATASIZE PUSH1 0x3 NOT ADD SLT PUSH2 0x2F9 JUMPI PUSH1 0x1 PUSH1 0x1 PUSH1 0xA0 SHL SUB PUSH2 0x2293 PUSH2 0x36ED JUMP JUMPDEST AND PUSH1 0x0 MSTORE PUSH1 0x12 PUSH1 0x20 MSTORE PUSH1 0x20 PUSH1 0x40 PUSH1 0x0 KECCAK256 SLOAD PUSH1 0x40 MLOAD SWAP1 DUP2 MSTORE RETURN JUMPDEST CALLVALUE PUSH2 0x2F9 JUMPI PUSH1 0x40 CALLDATASIZE PUSH1 0x3 NOT ADD SLT PUSH2 0x2F9 JUMPI PUSH1 0x24 CALLDATALOAD PUSH1 0x4 CALLDATALOAD DUP2 ISZERO ISZERO DUP3 SUB PUSH2 0x2F9 JUMPI PUSH2 0x22D4 PUSH2 0x3D58 JUMP JUMPDEST PUSH2 0x22DC PUSH2 0x3CBB JUMP JUMPDEST DUP1 ISZERO ISZERO DUP1 PUSH2 0x24AC JUMPI JUMPDEST PUSH2 0x22EE SWAP1 PUSH2 0x3A46 JUMP JUMPDEST DUP1 PUSH1 0x0 MSTORE PUSH1 0x20 SWAP1 PUSH1 0xC DUP3 MSTORE PUSH1 0x40 PUSH1 0x0 KECCAK256 PUSH1 0x7 DUP2 ADD DUP1 SLOAD PUSH1 0xFF DUP2 AND PUSH1 0x7 DUP2 LT ISZERO PUSH2 0x96C JUMPI PUSH1 0x6 SUB PUSH2 0x2476 JUMPI PUSH1 0x1F SWAP6 ISZERO PUSH2 0x242F JUMPI POP SWAP1 PUSH1 0x1 DUP1 PUSH1 0xA0 SHL SUB SWAP1 DUP4 DUP6 DUP4 PUSH1 0x8 DUP5 ADD SLOAD AND SWAP4 PUSH1 0x3 DUP5 ADD SLOAD SWAP4 DUP6 PUSH1 0x0 MSTORE PUSH1 0x13 DUP4 MSTORE DUP5 PUSH1 0x40 PUSH1 0x0 KECCAK256 SLOAD LT ISZERO PUSH1 0x0 EQ PUSH2 0x23F3 JUMPI DUP6 PUSH32 0xDF0BAF5489595EA17A097D16827D60793E2F57F3B85A982E5D7E02838B841EE6 SWAP5 SWAP6 SWAP7 PUSH1 0x0 MSTORE PUSH1 0x13 DUP5 MSTORE PUSH1 0x40 PUSH1 0x0 KECCAK256 PUSH2 0x238E DUP9 DUP3 SLOAD PUSH2 0x3C0A JUMP JUMPDEST SWAP1 SSTORE PUSH1 0x0 MSTORE PUSH1 0x11 DUP4 MSTORE PUSH1 0x40 PUSH1 0x0 KECCAK256 PUSH2 0x23A7 DUP8 DUP3 SLOAD PUSH2 0x3C0A JUMP JUMPDEST SWAP1 SSTORE PUSH2 0x23C1 DUP7 PUSH1 0x1 DUP5 PUSH1 0x2 SLOAD AND SWAP4 ADD SWAP3 DUP5 DUP5 SLOAD AND SWAP1 PUSH2 0x3DB0 JUMP JUMPDEST SLOAD AND SWAP4 PUSH1 0x40 MLOAD SWAP1 DUP2 MSTORE LOG3 JUMPDEST DUP1 SLOAD PUSH1 0xFF NOT AND PUSH1 0x4 OR SWAP1 SSTORE JUMPDEST PUSH1 0x0 MSTORE MSTORE PUSH1 0x40 PUSH1 0x0 KECCAK256 PUSH1 0xFF NOT DUP2 SLOAD AND SWAP1 SSTORE PUSH1 0x1 PUSH1 0x0 SSTORE PUSH1 0x0 DUP1 RETURN JUMPDEST SWAP3 POP SWAP4 POP POP PUSH1 0x1 SWAP2 POP ADD SLOAD AND DUP3 PUSH32 0xDF0BAF5489595EA17A097D16827D60793E2F57F3B85A982E5D7E02838B841EE6 DUP6 PUSH1 0x40 MLOAD PUSH1 0x0 DUP2 MSTORE LOG3 PUSH2 0x23CC JUMP JUMPDEST PUSH1 0x3 SWAP1 PUSH1 0xFF NOT AND OR SWAP1 SSTORE PUSH1 0x8 PUSH1 0x1 DUP1 PUSH1 0xA0 SHL SUB SWAP2 ADD SLOAD AND DUP2 PUSH32 0xDF0BAF5489595EA17A097D16827D60793E2F57F3B85A982E5D7E02838B841EE6 DUP5 PUSH1 0x40 MLOAD PUSH1 0x0 DUP2 MSTORE LOG3 PUSH2 0x23D8 JUMP JUMPDEST PUSH1 0x40 MLOAD PUSH3 0x461BCD PUSH1 0xE5 SHL DUP2 MSTORE PUSH1 0x4 DUP2 ADD DUP7 SWAP1 MSTORE PUSH1 0xE PUSH1 0x24 DUP3 ADD MSTORE PUSH14 0x4E6F7420696E2064697370757465 PUSH1 0x90 SHL PUSH1 0x44 DUP3 ADD MSTORE PUSH1 0x64 SWAP1 REVERT JUMPDEST POP PUSH1 0x0 DUP2 DUP2 MSTORE PUSH1 0xC PUSH1 0x20 MSTORE PUSH1 0x40 SWAP1 KECCAK256 SLOAD DUP2 EQ PUSH2 0x22E5 JUMP JUMPDEST CALLVALUE PUSH2 0x2F9 JUMPI PUSH1 0x20 CALLDATASIZE PUSH1 0x3 NOT ADD SLT PUSH2 0x2F9 JUMPI PUSH1 0x20 PUSH2 0x24E1 PUSH1 0x4 CALLDATALOAD PUSH2 0x3BCE JUMP JUMPDEST PUSH1 0x40 MLOAD SWAP1 DUP2 MSTORE RETURN JUMPDEST CALLVALUE PUSH2 0x2F9 JUMPI PUSH1 0x0 CALLDATASIZE PUSH1 0x3 NOT ADD SLT PUSH2 0x2F9 JUMPI PUSH1 0x20 PUSH1 0x4 SLOAD PUSH1 0x40 MLOAD SWAP1 DUP2 MSTORE RETURN JUMPDEST CALLVALUE PUSH2 0x2F9 JUMPI PUSH1 0x20 CALLDATASIZE PUSH1 0x3 NOT ADD SLT PUSH2 0x2F9 JUMPI PUSH1 0x4 CALLDATALOAD PUSH2 0x2523 PUSH2 0x3D58 JUMP JUMPDEST PUSH1 0x1 DUP2 LT PUSH2 0x25C7 JUMPI PUSH1 0xA SLOAD DUP1 DUP3 GT SWAP1 DUP2 ISZERO SWAP2 PUSH2 0x25BE JUMPI JUMPDEST POP ISZERO PUSH2 0x2579 JUMPI PUSH1 0x40 PUSH32 0xB6DB129B84DBDEF2D15FBB03E44FE1050995A5B1F855B6FAF62B419185E53DC8 SWAP2 PUSH1 0xB SLOAD SWAP1 DUP1 PUSH1 0xB SSTORE DUP3 MLOAD SWAP2 DUP3 MSTORE PUSH1 0x20 DUP3 ADD MSTORE LOG1 STOP JUMPDEST PUSH1 0x40 MLOAD PUSH3 0x461BCD PUSH1 0xE5 SHL DUP2 MSTORE PUSH1 0x20 PUSH1 0x4 DUP3 ADD MSTORE PUSH1 0x1D PUSH1 0x24 DUP3 ADD MSTORE PUSH32 0x43616E6E6F74206578636565642076616C696461746F7220636F756E74000000 PUSH1 0x44 DUP3 ADD MSTORE PUSH1 0x64 SWAP1 REVERT JUMPDEST SWAP1 POP ISZERO DUP3 PUSH2 0x253A JUMP JUMPDEST PUSH1 0x40 MLOAD PUSH3 0x461BCD PUSH1 0xE5 SHL DUP2 MSTORE PUSH1 0x20 PUSH1 0x4 DUP3 ADD MSTORE PUSH1 0x1C PUSH1 0x24 DUP3 ADD MSTORE PUSH32 0x4D696E2076616C69646174696F6E73206D757374206265203E3D203100000000 PUSH1 0x44 DUP3 ADD MSTORE PUSH1 0x64 SWAP1 REVERT JUMPDEST CALLVALUE PUSH2 0x2F9 JUMPI PUSH1 0x20 DUP1 PUSH1 0x3 NOT CALLDATASIZE ADD SLT PUSH2 0x2F9 JUMPI PUSH1 0x4 CALLDATALOAD PUSH2 0x2629 PUSH2 0x3CBB JUMP JUMPDEST DUP1 ISZERO ISZERO DUP1 PUSH2 0x27B9 JUMPI JUMPDEST PUSH2 0x263B SWAP1 PUSH2 0x3A46 JUMP JUMPDEST PUSH1 0x0 DUP2 DUP2 MSTORE PUSH1 0xC DUP4 MSTORE PUSH1 0x40 SWAP1 KECCAK256 PUSH1 0x1 DUP2 ADD SLOAD PUSH1 0x1 PUSH1 0x1 PUSH1 0xA0 SHL SUB AND CALLER SUB PUSH2 0x2774 JUMPI PUSH1 0x7 ADD DUP1 SLOAD SWAP1 PUSH1 0xFF DUP3 AND PUSH1 0x7 DUP2 LT ISZERO PUSH2 0x96C JUMPI PUSH1 0x3 SUB PUSH2 0x2731 JUMPI DUP3 PUSH1 0x0 MSTORE PUSH1 0x1F DUP5 MSTORE PUSH1 0xFF PUSH1 0x40 PUSH1 0x0 KECCAK256 SLOAD AND PUSH2 0x26F9 JUMPI PUSH1 0x6 PUSH1 0xFF NOT DUP1 SWAP4 AND OR SWAP1 SSTORE DUP2 PUSH1 0x0 MSTORE PUSH1 0x1F DUP4 MSTORE PUSH1 0x1 PUSH1 0x40 PUSH1 0x0 KECCAK256 SWAP2 DUP3 SLOAD AND OR SWAP1 SSTORE PUSH32 0x45C6EF09865025319C9F2A574B08AE087DEFCE1C8B3640347D830C463909CE7B PUSH2 0x26D9 PUSH1 0x1D SLOAD TIMESTAMP PUSH2 0x3962 JUMP JUMPDEST SWAP3 DUP3 PUSH1 0x0 MSTORE PUSH1 0x1E DUP2 MSTORE DUP4 PUSH1 0x40 PUSH1 0x0 KECCAK256 SSTORE PUSH1 0x40 MLOAD SWAP4 DUP5 MSTORE CALLER SWAP4 LOG3 PUSH1 0x1 PUSH1 0x0 SSTORE STOP JUMPDEST PUSH1 0x40 MLOAD PUSH3 0x461BCD PUSH1 0xE5 SHL DUP2 MSTORE PUSH1 0x4 DUP2 ADD DUP6 SWAP1 MSTORE PUSH1 0x10 PUSH1 0x24 DUP3 ADD MSTORE PUSH16 0x105B1C9958591E48191A5CDC1D5D1959 PUSH1 0x82 SHL PUSH1 0x44 DUP3 ADD MSTORE PUSH1 0x64 SWAP1 REVERT JUMPDEST PUSH1 0x64 DUP5 PUSH1 0x40 MLOAD SWAP1 PUSH3 0x461BCD PUSH1 0xE5 SHL DUP3 MSTORE DUP1 PUSH1 0x4 DUP4 ADD MSTORE PUSH1 0x24 DUP3 ADD MSTORE PUSH32 0x43616E206F6E6C79206469737075746520636F6D706C65746564207461736B73 PUSH1 0x44 DUP3 ADD MSTORE REVERT JUMPDEST PUSH1 0x40 MLOAD PUSH3 0x461BCD PUSH1 0xE5 SHL DUP2 MSTORE PUSH1 0x4 DUP2 ADD DUP5 SWAP1 MSTORE PUSH1 0x1A PUSH1 0x24 DUP3 ADD MSTORE PUSH32 0x4F6E6C79207265717565737465722063616E2064697370757465000000000000 PUSH1 0x44 DUP3 ADD MSTORE PUSH1 0x64 SWAP1 REVERT JUMPDEST POP PUSH1 0x0 DUP2 DUP2 MSTORE PUSH1 0xC DUP4 MSTORE PUSH1 0x40 SWAP1 KECCAK256 SLOAD DUP2 EQ PUSH2 0x2632 JUMP JUMPDEST CALLVALUE PUSH2 0x2F9 JUMPI PUSH1 0x20 CALLDATASIZE PUSH1 0x3 NOT ADD SLT PUSH2 0x2F9 JUMPI PUSH1 0x1 PUSH1 0x1 PUSH1 0xA0 SHL SUB PUSH2 0x27F0 PUSH2 0x36ED JUMP JUMPDEST AND PUSH1 0x0 MSTORE PUSH1 0x10 PUSH1 0x20 MSTORE PUSH1 0x20 PUSH1 0x40 PUSH1 0x0 KECCAK256 SLOAD PUSH1 0x40 MLOAD SWAP1 DUP2 MSTORE RETURN JUMPDEST CALLVALUE PUSH2 0x2F9 JUMPI PUSH1 0x60 CALLDATASIZE PUSH1 0x3 NOT ADD SLT PUSH2 0x2F9 JUMPI PUSH1 0x4 CALLDATALOAD PUSH1 0x24 SWAP1 DUP2 CALLDATALOAD SWAP1 PUSH1 0x44 CALLDATALOAD CALLER PUSH1 0x0 MSTORE PUSH1 0x20 SWAP1 PUSH1 0x9 DUP3 MSTORE PUSH2 0x2842 PUSH1 0xFF PUSH1 0x40 PUSH1 0x0 KECCAK256 SLOAD AND PUSH2 0x3ABE JUMP JUMPDEST DUP3 ISZERO ISZERO DUP1 PUSH2 0x2B56 JUMPI JUMPDEST PUSH2 0x2854 SWAP1 PUSH2 0x3A46 JUMP JUMPDEST PUSH2 0x285C PUSH2 0x3D11 JUMP JUMPDEST DUP3 PUSH1 0x0 MSTORE PUSH1 0xC DUP3 MSTORE PUSH1 0xFF PUSH1 0x7 PUSH1 0x40 PUSH1 0x0 KECCAK256 ADD SLOAD AND PUSH1 0x7 DUP2 LT ISZERO PUSH2 0x2B41 JUMPI DUP1 PUSH1 0x2 PUSH2 0x288E SWAP3 EQ SWAP1 DUP2 ISZERO PUSH2 0x961 JUMPI POP PUSH2 0x3AFC JUMP JUMPDEST DUP3 PUSH1 0x0 MSTORE PUSH1 0xD DUP3 MSTORE PUSH2 0x28A6 PUSH1 0x40 PUSH1 0x0 KECCAK256 SLOAD DUP6 LT PUSH2 0x3B48 JUMP JUMPDEST DUP1 ISZERO PUSH2 0x2B09 JUMPI DUP3 PUSH1 0x0 MSTORE PUSH1 0xD DUP3 MSTORE PUSH2 0x28D3 PUSH1 0xFF PUSH1 0x3 PUSH2 0x28C9 DUP8 PUSH1 0x40 PUSH1 0x0 KECCAK256 PUSH2 0x377A JUMP JUMPDEST POP ADD SLOAD AND ISZERO PUSH2 0x3B8A JUMP JUMPDEST DUP3 PUSH1 0x0 MSTORE PUSH1 0x17 DUP3 MSTORE PUSH1 0x40 PUSH1 0x0 KECCAK256 DUP5 PUSH1 0x0 MSTORE DUP3 MSTORE PUSH1 0x40 PUSH1 0x0 KECCAK256 CALLER PUSH1 0x0 MSTORE DUP3 MSTORE PUSH1 0x40 PUSH1 0x0 KECCAK256 SLOAD PUSH2 0x2AD1 JUMPI DUP3 PUSH1 0x0 MSTORE PUSH1 0xF DUP3 MSTORE PUSH1 0x40 PUSH1 0x0 KECCAK256 DUP5 PUSH1 0x0 MSTORE DUP3 MSTORE PUSH1 0x40 PUSH1 0x0 KECCAK256 CALLER PUSH1 0x0 MSTORE DUP3 MSTORE PUSH1 0xFF PUSH1 0x40 PUSH1 0x0 KECCAK256 SLOAD AND PUSH2 0x2A8D JUMPI DUP3 PUSH1 0x0 MSTORE PUSH1 0x1C DUP3 MSTORE PUSH1 0x40 PUSH1 0x0 KECCAK256 DUP5 PUSH1 0x0 MSTORE DUP3 MSTORE PUSH1 0x40 PUSH1 0x0 KECCAK256 SLOAD ISZERO PUSH2 0x2A6E JUMPI JUMPDEST DUP3 PUSH1 0x0 MSTORE PUSH1 0x1C DUP3 MSTORE PUSH1 0x40 PUSH1 0x0 KECCAK256 DUP5 PUSH1 0x0 MSTORE DUP3 MSTORE PUSH2 0x296A PUSH1 0x40 PUSH1 0x0 KECCAK256 SLOAD PUSH1 0x1A SLOAD SWAP1 PUSH2 0x3962 JUMP JUMPDEST TIMESTAMP GT PUSH2 0x2A35 JUMPI PUSH1 0x40 MLOAD PUSH32 0x96E134FDBCF6F2B8942AA1450973CC1E5914913673ABACABEBF1F0B14FE4A552 SWAP3 SWAP2 PUSH2 0x299F DUP3 PUSH2 0x381D JUMP JUMPDEST DUP2 MSTORE PUSH1 0x3 DUP3 DUP3 ADD TIMESTAMP DUP2 MSTORE PUSH2 0x2A02 PUSH1 0x40 DUP5 ADD PUSH1 0x0 DUP2 MSTORE PUSH1 0x60 DUP6 ADD SWAP3 PUSH1 0x0 DUP5 MSTORE DUP9 PUSH1 0x0 MSTORE PUSH1 0x17 DUP8 MSTORE PUSH1 0x40 PUSH1 0x0 KECCAK256 DUP11 PUSH1 0x0 MSTORE DUP8 MSTORE PUSH1 0x40 PUSH1 0x0 KECCAK256 CALLER PUSH1 0x0 MSTORE DUP8 MSTORE PUSH1 0x40 PUSH1 0x0 KECCAK256 SWAP6 MLOAD DUP7 SSTORE MLOAD PUSH1 0x1 DUP7 ADD SSTORE MLOAD ISZERO ISZERO PUSH1 0x2 DUP6 ADD SWAP1 PUSH1 0xFF DUP1 NOT DUP4 SLOAD AND SWAP2 ISZERO ISZERO AND OR SWAP1 SSTORE JUMP JUMPDEST MLOAD SWAP2 ADD SSTORE DUP3 PUSH1 0x0 MSTORE PUSH1 0x18 DUP2 MSTORE PUSH1 0x40 PUSH1 0x0 KECCAK256 DUP5 PUSH1 0x0 MSTORE DUP2 MSTORE PUSH1 0x40 PUSH1 0x0 KECCAK256 PUSH2 0x2A28 DUP2 SLOAD PUSH2 0x396F JUMP JUMPDEST SWAP1 SSTORE PUSH1 0x40 MLOAD SWAP4 DUP5 MSTORE CALLER SWAP4 LOG3 STOP JUMPDEST PUSH1 0x40 MLOAD PUSH3 0x461BCD PUSH1 0xE5 SHL DUP2 MSTORE PUSH1 0x4 DUP2 ADD DUP4 SWAP1 MSTORE PUSH1 0x12 DUP2 DUP8 ADD MSTORE PUSH18 0x10DBDB5B5A5D081C1A185CD948195B991959 PUSH1 0x72 SHL PUSH1 0x44 DUP3 ADD MSTORE PUSH1 0x64 SWAP1 REVERT JUMPDEST DUP3 PUSH1 0x0 MSTORE PUSH1 0x1C DUP3 MSTORE PUSH1 0x40 PUSH1 0x0 KECCAK256 DUP5 PUSH1 0x0 MSTORE DUP3 MSTORE TIMESTAMP PUSH1 0x40 PUSH1 0x0 KECCAK256 SSTORE PUSH2 0x2945 JUMP JUMPDEST PUSH1 0x40 MLOAD PUSH3 0x461BCD PUSH1 0xE5 SHL DUP2 MSTORE PUSH1 0x4 DUP2 ADD DUP4 SWAP1 MSTORE PUSH1 0x17 DUP2 DUP8 ADD MSTORE PUSH32 0x416C72656164792073636F726564206469726563746C79000000000000000000 PUSH1 0x44 DUP3 ADD MSTORE PUSH1 0x64 SWAP1 REVERT JUMPDEST PUSH1 0x40 MLOAD PUSH3 0x461BCD PUSH1 0xE5 SHL DUP2 MSTORE PUSH1 0x4 DUP2 ADD DUP4 SWAP1 MSTORE PUSH1 0x11 DUP2 DUP8 ADD MSTORE PUSH17 0x105B1C9958591E4818DBDB5B5A5D1D1959 PUSH1 0x7A SHL PUSH1 0x44 DUP3 ADD MSTORE PUSH1 0x64 SWAP1 REVERT JUMPDEST PUSH1 0x40 MLOAD PUSH3 0x461BCD PUSH1 0xE5 SHL DUP2 MSTORE PUSH1 0x4 DUP2 ADD DUP4 SWAP1 MSTORE PUSH1 0x11 DUP2 DUP8 ADD MSTORE PUSH17 0x8ADAE0E8F240C6DEDADAD2E840D0C2E6D PUSH1 0x7B SHL PUSH1 0x44 DUP3 ADD MSTORE PUSH1 0x64 SWAP1 REVERT JUMPDEST DUP6 PUSH4 0x4E487B71 PUSH1 0xE0 SHL PUSH1 0x0 MSTORE PUSH1 0x21 PUSH1 0x4 MSTORE PUSH1 0x0 REVERT JUMPDEST POP PUSH1 0x0 DUP4 DUP2 MSTORE PUSH1 0xC DUP4 MSTORE PUSH1 0x40 SWAP1 KECCAK256 SLOAD DUP4 EQ PUSH2 0x284B JUMP JUMPDEST CALLVALUE PUSH2 0x2F9 JUMPI PUSH1 0x20 CALLDATASIZE PUSH1 0x3 NOT ADD SLT PUSH2 0x2F9 JUMPI PUSH1 0x0 PUSH2 0x180 PUSH1 0x40 MLOAD PUSH2 0x2B8E DUP2 PUSH2 0x37E6 JUMP JUMPDEST DUP3 DUP2 MSTORE DUP3 PUSH1 0x20 DUP3 ADD MSTORE PUSH1 0x60 PUSH1 0x40 DUP3 ADD MSTORE DUP3 PUSH1 0x60 DUP3 ADD MSTORE DUP3 PUSH1 0x80 DUP3 ADD MSTORE DUP3 PUSH1 0xA0 DUP3 ADD MSTORE DUP3 PUSH1 0xC0 DUP3 ADD MSTORE DUP3 PUSH1 0xE0 DUP3 ADD MSTORE DUP3 PUSH2 0x100 DUP3 ADD MSTORE DUP3 PUSH2 0x120 DUP3 ADD MSTORE DUP3 PUSH2 0x140 DUP3 ADD MSTORE DUP3 PUSH2 0x160 DUP3 ADD MSTORE ADD MSTORE PUSH1 0x4 CALLDATALOAD PUSH1 0x0 MSTORE PUSH1 0xC PUSH1 0x20 MSTORE PUSH1 0x40 PUSH1 0x0 KECCAK256 PUSH1 0x40 MLOAD SWAP1 PUSH2 0x2BF7 DUP3 PUSH2 0x37E6 JUMP JUMPDEST DUP1 SLOAD DUP3 MSTORE PUSH1 0x1 DUP2 ADD SLOAD PUSH1 0x1 PUSH1 0x1 PUSH1 0xA0 SHL SUB AND PUSH1 0x20 DUP4 ADD MSTORE PUSH2 0x2C1A PUSH1 0x2 DUP3 ADD PUSH2 0x3874 JUMP JUMPDEST PUSH1 0x40 DUP4 ADD MSTORE PUSH1 0x3 DUP2 ADD SLOAD PUSH1 0x60 DUP4 ADD MSTORE PUSH1 0x4 DUP2 ADD SLOAD PUSH1 0x80 DUP4 ADD MSTORE PUSH1 0x5 DUP2 ADD SLOAD PUSH1 0xA0 DUP4 ADD MSTORE PUSH1 0x6 DUP2 ADD SLOAD PUSH1 0xC0 DUP4 ADD MSTORE PUSH1 0x7 DUP2 ADD SLOAD SWAP1 PUSH1 0xFF DUP3 AND SWAP2 PUSH1 0x7 DUP4 LT ISZERO PUSH2 0x96C JUMPI PUSH1 0xB SWAP3 PUSH1 0xE0 DUP6 ADD MSTORE PUSH1 0x1 DUP1 PUSH1 0xA0 SHL SUB SWAP1 PUSH1 0x8 SHR AND PUSH2 0x100 DUP5 ADD MSTORE PUSH1 0x1 DUP1 PUSH1 0xA0 SHL SUB PUSH1 0x8 DUP3 ADD SLOAD AND PUSH2 0x120 DUP5 ADD MSTORE PUSH1 0x9 DUP2 ADD SLOAD PUSH2 0x140 DUP5 ADD MSTORE PUSH1 0xA DUP2 ADD SLOAD PUSH2 0x160 DUP5 ADD MSTORE ADD SLOAD PUSH2 0x180 DUP3 ADD MSTORE PUSH1 0x40 MLOAD DUP1 SWAP2 PUSH1 0x20 DUP3 MSTORE DUP1 MLOAD PUSH1 0x20 DUP4 ADD MSTORE PUSH1 0x1 DUP1 PUSH1 0xA0 SHL SUB PUSH1 0x20 DUP3 ADD MLOAD AND PUSH1 0x40 DUP4 ADD MSTORE PUSH2 0x180 PUSH2 0x2CE6 PUSH1 0x40 DUP4 ADD MLOAD PUSH2 0x1A0 PUSH1 0x60 DUP7 ADD MSTORE PUSH2 0x1C0 DUP6 ADD SWAP1 PUSH2 0x372D JUMP JUMPDEST SWAP2 PUSH1 0x60 DUP2 ADD MLOAD PUSH1 0x80 DUP6 ADD MSTORE PUSH1 0x80 DUP2 ADD MLOAD PUSH1 0xA0 DUP6 ADD MSTORE PUSH1 0xA0 DUP2 ADD MLOAD PUSH1 0xC0 DUP6 ADD MSTORE PUSH1 0xC0 DUP2 ADD MLOAD PUSH1 0xE0 DUP6 ADD MSTORE PUSH2 0x2D22 PUSH1 0xE0 DUP3 ADD MLOAD PUSH2 0x100 DUP7 ADD SWAP1 PUSH2 0x376D JUMP JUMPDEST PUSH1 0x1 DUP1 PUSH1 0xA0 SHL SUB PUSH2 0x100 DUP3 ADD MLOAD AND PUSH2 0x120 DUP6 ADD MSTORE PUSH1 0x1 DUP1 PUSH1 0xA0 SHL SUB PUSH2 0x120 DUP3 ADD MLOAD AND PUSH2 0x140 DUP6 ADD MSTORE PUSH2 0x140 DUP2 ADD MLOAD PUSH2 0x160 DUP6 ADD MSTORE PUSH2 0x160 DUP2 ADD MLOAD DUP3 DUP6 ADD MSTORE ADD MLOAD PUSH2 0x1A0 DUP4 ADD MSTORE SUB SWAP1 RETURN JUMPDEST CALLVALUE PUSH2 0x2F9 JUMPI PUSH1 0x20 CALLDATASIZE PUSH1 0x3 NOT ADD SLT PUSH2 0x2F9 JUMPI PUSH1 0x4 CALLDATALOAD DUP1 ISZERO ISZERO DUP1 PUSH2 0x2EA4 JUMPI JUMPDEST PUSH2 0x2D92 SWAP1 PUSH2 0x3A46 JUMP JUMPDEST PUSH2 0x2D9A PUSH2 0x3D11 JUMP JUMPDEST DUP1 PUSH1 0x0 MSTORE PUSH1 0xC PUSH1 0x20 MSTORE PUSH1 0x40 PUSH1 0x0 KECCAK256 PUSH1 0x7 DUP2 ADD SWAP1 DUP2 SLOAD SWAP1 PUSH1 0xFF DUP3 AND PUSH1 0x7 DUP2 LT ISZERO PUSH2 0x96C JUMPI PUSH2 0x2E6A JUMPI PUSH1 0x6 PUSH2 0x2DD0 SWAP2 ADD SLOAD TIMESTAMP LT PUSH2 0x3A83 JUMP JUMPDEST PUSH1 0x8 SHR PUSH1 0x1 PUSH1 0x1 PUSH1 0xA0 SHL SUB AND PUSH2 0x2E32 JUMPI DUP1 SLOAD PUSH2 0x100 PUSH1 0x1 PUSH1 0xA8 SHL SUB NOT AND CALLER PUSH1 0x8 SHL PUSH2 0x100 PUSH1 0x1 PUSH1 0xA8 SHL SUB AND OR DUP2 SSTORE DUP1 SLOAD PUSH1 0xFF NOT AND PUSH1 0x1 OR SWAP1 SSTORE CALLER SWAP1 PUSH32 0xC8717B61398FB9D7CACF49FE1E296B2F10E9711226B532842B6FFD642CB6A2C6 PUSH1 0x0 DUP1 LOG3 STOP JUMPDEST PUSH1 0x40 MLOAD PUSH3 0x461BCD PUSH1 0xE5 SHL DUP2 MSTORE PUSH1 0x20 PUSH1 0x4 DUP3 ADD MSTORE PUSH1 0x10 PUSH1 0x24 DUP3 ADD MSTORE PUSH16 0x105B1C9958591E48185CDCDA59DB9959 PUSH1 0x82 SHL PUSH1 0x44 DUP3 ADD MSTORE PUSH1 0x64 SWAP1 REVERT JUMPDEST PUSH1 0x40 MLOAD PUSH3 0x461BCD PUSH1 0xE5 SHL DUP2 MSTORE PUSH1 0x20 PUSH1 0x4 DUP3 ADD MSTORE PUSH1 0x12 PUSH1 0x24 DUP3 ADD MSTORE PUSH18 0x5461736B206E6F7420617661696C61626C65 PUSH1 0x70 SHL PUSH1 0x44 DUP3 ADD MSTORE PUSH1 0x64 SWAP1 REVERT JUMPDEST POP PUSH1 0x0 DUP2 DUP2 MSTORE PUSH1 0xC PUSH1 0x20 MSTORE PUSH1 0x40 SWAP1 KECCAK256 SLOAD DUP2 EQ PUSH2 0x2D89 JUMP JUMPDEST CALLVALUE PUSH2 0x2F9 JUMPI PUSH1 0x20 DUP1 PUSH1 0x3 NOT CALLDATASIZE ADD SLT PUSH2 0x2F9 JUMPI PUSH1 0x4 CALLDATALOAD PUSH1 0x0 MSTORE PUSH1 0xD DUP2 MSTORE PUSH1 0x40 PUSH1 0x0 KECCAK256 SWAP1 DUP2 SLOAD SWAP2 PUSH2 0x2EE9 DUP4 PUSH2 0x3A2F JUMP JUMPDEST SWAP3 PUSH2 0x2EF7 PUSH1 0x40 MLOAD SWAP5 DUP6 PUSH2 0x3853 JUMP JUMPDEST DUP1 DUP5 MSTORE DUP3 DUP5 ADD DUP1 SWAP3 PUSH1 0x0 MSTORE DUP4 PUSH1 0x0 KECCAK256 PUSH1 0x0 SWAP2 JUMPDEST DUP4 DUP4 LT PUSH2 0x2FB6 JUMPI POP POP POP POP PUSH1 0x40 MLOAD SWAP2 DUP1 DUP4 ADD SWAP4 DUP2 DUP5 MSTORE MLOAD DUP1 SWAP5 MSTORE PUSH1 0x40 DUP4 ADD SWAP4 PUSH1 0x40 DUP2 PUSH1 0x5 SHL DUP6 ADD ADD SWAP3 SWAP2 PUSH1 0x0 SWAP6 JUMPDEST DUP3 DUP8 LT PUSH2 0x2F45 JUMPI DUP6 DUP6 SUB DUP7 RETURN JUMPDEST SWAP1 SWAP2 SWAP3 SWAP4 DUP3 DUP1 PUSH1 0x1 SWAP3 PUSH1 0x3F NOT DUP10 DUP3 SUB ADD DUP6 MSTORE DUP8 MLOAD SWAP1 PUSH2 0x2F7C PUSH1 0xC0 DUP7 DUP1 PUSH1 0xA0 SHL SUB DUP5 MLOAD AND DUP4 MSTORE DUP5 DUP5 ADD MLOAD SWAP1 DUP1 DUP7 DUP6 ADD MSTORE DUP4 ADD SWAP1 PUSH2 0x372D JUMP JUMPDEST SWAP2 PUSH1 0x40 DUP2 ADD MLOAD PUSH1 0x40 DUP4 ADD MSTORE PUSH1 0x60 DUP1 DUP3 ADD MLOAD ISZERO ISZERO SWAP1 DUP4 ADD MSTORE PUSH1 0x80 DUP1 DUP3 ADD MLOAD SWAP1 DUP4 ADD MSTORE PUSH1 0xA0 DUP1 SWAP2 ADD MLOAD SWAP2 ADD MSTORE SWAP7 ADD SWAP3 ADD SWAP7 ADD SWAP6 SWAP3 SWAP2 SWAP1 SWAP3 PUSH2 0x2F38 JUMP JUMPDEST PUSH1 0x6 DUP7 PUSH1 0x1 SWAP3 PUSH1 0x40 SWAP10 SWAP9 SWAP10 MLOAD PUSH2 0x2FCB DUP2 PUSH2 0x3802 JUMP JUMPDEST DUP5 DUP1 PUSH1 0xA0 SHL SUB DUP7 SLOAD AND DUP2 MSTORE PUSH2 0x2FE1 DUP6 DUP8 ADD PUSH2 0x3874 JUMP JUMPDEST DUP4 DUP3 ADD MSTORE PUSH1 0x2 DUP7 ADD SLOAD PUSH1 0x40 DUP3 ADD MSTORE PUSH1 0xFF PUSH1 0x3 DUP8 ADD SLOAD AND ISZERO ISZERO PUSH1 0x60 DUP3 ADD MSTORE PUSH1 0x4 DUP7 ADD SLOAD PUSH1 0x80 DUP3 ADD MSTORE PUSH1 0x5 DUP7 ADD SLOAD PUSH1 0xA0 DUP3 ADD MSTORE DUP2 MSTORE ADD SWAP3 ADD SWAP3 ADD SWAP2 SWAP1 SWAP6 SWAP5 SWAP6 PUSH2 0x2F0A JUMP JUMPDEST CALLVALUE PUSH2 0x2F9 JUMPI PUSH1 0x20 CALLDATASIZE PUSH1 0x3 NOT ADD SLT PUSH2 0x2F9 JUMPI PUSH2 0x303C PUSH2 0x36ED JUMP JUMPDEST PUSH2 0x3044 PUSH2 0x3D58 JUMP JUMPDEST PUSH1 0x1 PUSH1 0x1 PUSH1 0xA0 SHL SUB DUP2 DUP2 AND SWAP2 PUSH2 0x305B DUP4 ISZERO ISZERO PUSH2 0x39F1 JUMP JUMPDEST PUSH1 0x16 SLOAD SWAP2 DUP3 ISZERO PUSH2 0x30A3 JUMPI PUSH2 0x30A1 SWAP4 PUSH1 0x0 PUSH1 0x16 SSTORE PUSH32 0xC0819C13BE868895EB93E40EACEB96DE976442FA1D404E5C55F14BB65A8C489A PUSH1 0x20 PUSH1 0x40 MLOAD DUP7 DUP2 MSTORE LOG2 PUSH1 0x2 SLOAD AND PUSH2 0x3DB0 JUMP JUMPDEST STOP JUMPDEST PUSH1 0x40 MLOAD PUSH3 0x461BCD PUSH1 0xE5 SHL DUP2 MSTORE PUSH1 0x20 PUSH1 0x4 DUP3 ADD MSTORE PUSH1 0x13 PUSH1 0x24 DUP3 ADD MSTORE PUSH19 0x4E6F206665657320746F207769746864726177 PUSH1 0x68 SHL PUSH1 0x44 DUP3 ADD MSTORE PUSH1 0x64 SWAP1 REVERT JUMPDEST CALLVALUE PUSH2 0x2F9 JUMPI PUSH2 0x30EC CALLDATASIZE PUSH2 0x3703 JUMP JUMPDEST SWAP2 PUSH1 0x0 MSTORE PUSH1 0xE PUSH1 0x20 MSTORE PUSH1 0x40 PUSH1 0x0 KECCAK256 SWAP1 PUSH1 0x0 MSTORE PUSH1 0x20 MSTORE PUSH1 0x40 PUSH1 0x0 KECCAK256 SWAP1 PUSH1 0x1 DUP1 PUSH1 0xA0 SHL SUB AND PUSH1 0x0 MSTORE PUSH1 0x20 MSTORE PUSH1 0x20 PUSH1 0x40 PUSH1 0x0 KECCAK256 SLOAD PUSH1 0x40 MLOAD SWAP1 DUP2 MSTORE RETURN JUMPDEST CALLVALUE PUSH2 0x2F9 JUMPI PUSH1 0x0 CALLDATASIZE PUSH1 0x3 NOT ADD SLT PUSH2 0x2F9 JUMPI PUSH1 0x20 PUSH1 0xA SLOAD PUSH1 0x40 MLOAD SWAP1 DUP2 MSTORE RETURN JUMPDEST CALLVALUE PUSH2 0x2F9 JUMPI PUSH1 0x20 CALLDATASIZE PUSH1 0x3 NOT ADD SLT PUSH2 0x2F9 JUMPI PUSH1 0x1 PUSH1 0x1 PUSH1 0xA0 SHL SUB PUSH2 0x3164 PUSH2 0x36ED JUMP JUMPDEST AND PUSH1 0x0 MSTORE PUSH1 0x11 PUSH1 0x20 MSTORE PUSH1 0x20 PUSH1 0x40 PUSH1 0x0 KECCAK256 SLOAD PUSH1 0x40 MLOAD SWAP1 DUP2 MSTORE RETURN JUMPDEST CALLVALUE PUSH2 0x2F9 JUMPI PUSH2 0x318B CALLDATASIZE PUSH2 0x36D7 JUMP JUMPDEST SWAP1 PUSH1 0x0 MSTORE PUSH1 0x18 PUSH1 0x20 MSTORE PUSH1 0x40 PUSH1 0x0 KECCAK256 SWAP1 PUSH1 0x0 MSTORE PUSH1 0x20 MSTORE PUSH1 0x20 PUSH1 0x40 PUSH1 0x0 KECCAK256 SLOAD PUSH1 0x40 MLOAD SWAP1 DUP2 MSTORE RETURN JUMPDEST CALLVALUE PUSH2 0x2F9 JUMPI PUSH1 0x20 CALLDATASIZE PUSH1 0x3 NOT ADD SLT PUSH2 0x2F9 JUMPI PUSH1 0x4 CALLDATALOAD PUSH1 0x0 MSTORE PUSH1 0x1E PUSH1 0x20 MSTORE PUSH1 0x20 PUSH1 0x40 PUSH1 0x0 KECCAK256 SLOAD PUSH1 0x40 MLOAD SWAP1 DUP2 MSTORE RETURN JUMPDEST CALLVALUE PUSH2 0x2F9 JUMPI PUSH1 0x60 CALLDATASIZE PUSH1 0x3 NOT ADD SLT PUSH2 0x2F9 JUMPI PUSH1 0x4 CALLDATALOAD PUSH1 0x1 PUSH1 0x1 PUSH1 0x40 SHL SUB DUP2 GT PUSH2 0x2F9 JUMPI PUSH2 0x320C SWAP1 CALLDATASIZE SWAP1 PUSH1 0x4 ADD PUSH2 0x36AA JUMP JUMPDEST PUSH2 0x3214 PUSH2 0x3CBB JUMP JUMPDEST PUSH2 0x321C PUSH2 0x3D11 JUMP JUMPDEST DUP1 ISZERO PUSH2 0x3673 JUMPI PUSH1 0x5 SLOAD PUSH1 0x24 CALLDATALOAD LT PUSH2 0x363D JUMPI PUSH1 0x44 CALLDATALOAD ISZERO ISZERO DUP1 PUSH2 0x362F JUMPI JUMPDEST ISZERO PUSH2 0x35F7 JUMPI PUSH2 0x2710 SWAP1 DUP2 PUSH2 0x3250 PUSH1 0x3 SLOAD PUSH1 0x24 CALLDATALOAD PUSH2 0x3919 JUMP JUMPDEST DIV SWAP2 PUSH2 0x3260 PUSH1 0x4 SLOAD PUSH1 0x24 CALLDATALOAD PUSH2 0x3919 JUMP JUMPDEST DIV SWAP2 PUSH2 0x3277 DUP4 PUSH2 0x3272 DUP4 PUSH1 0x24 CALLDATALOAD PUSH2 0x3962 JUMP JUMPDEST PUSH2 0x3962 JUMP JUMPDEST PUSH1 0x2 SLOAD PUSH1 0x40 MLOAD PUSH4 0x23B872DD PUSH1 0xE0 SHL PUSH1 0x20 DUP3 ADD MSTORE CALLER PUSH1 0x24 DUP3 ADD MSTORE ADDRESS PUSH1 0x44 DUP3 ADD MSTORE PUSH1 0x64 DUP1 DUP3 ADD SWAP4 SWAP1 SWAP4 MSTORE SWAP2 DUP3 MSTORE PUSH1 0x1 PUSH1 0x1 PUSH1 0xA0 SHL SUB AND SWAP1 PUSH1 0x1 PUSH1 0x1 PUSH1 0x40 SHL SUB PUSH1 0xA0 DUP3 ADD SWAP1 DUP2 GT SWAP1 DUP3 GT OR PUSH2 0x1068 JUMPI PUSH2 0x32D3 SWAP2 PUSH1 0xA0 DUP3 ADD PUSH1 0x40 MSTORE PUSH2 0x44A3 JUMP JUMPDEST PUSH2 0x32DE PUSH1 0x8 SLOAD PUSH2 0x396F JUMP JUMPDEST SWAP3 DUP4 PUSH1 0x8 SSTORE PUSH2 0x32EF PUSH1 0x44 CALLDATALOAD TIMESTAMP PUSH2 0x3962 JUMP JUMPDEST SWAP1 PUSH1 0x40 MLOAD SWAP3 PUSH2 0x32FD DUP5 PUSH2 0x37E6 JUMP JUMPDEST DUP6 DUP5 MSTORE CALLER PUSH1 0x20 DUP6 ADD MSTORE PUSH2 0x3311 CALLDATASIZE DUP7 DUP10 PUSH2 0x3999 JUMP JUMPDEST PUSH1 0x40 DUP6 ADD MSTORE PUSH1 0x24 CALLDATALOAD PUSH1 0x60 DUP6 ADD MSTORE PUSH1 0x80 DUP5 ADD MSTORE PUSH1 0xA0 DUP4 ADD MSTORE PUSH1 0xC0 DUP3 ADD MSTORE PUSH1 0x0 PUSH1 0xE0 DUP3 ADD MSTORE PUSH1 0x0 PUSH2 0x100 DUP3 ADD MSTORE PUSH1 0x0 PUSH2 0x120 DUP3 ADD MSTORE PUSH1 0x0 PUSH2 0x140 DUP3 ADD MSTORE TIMESTAMP PUSH2 0x160 DUP3 ADD MSTORE PUSH1 0x0 PUSH2 0x180 DUP3 ADD MSTORE DUP3 PUSH1 0x0 MSTORE PUSH1 0xC PUSH1 0x20 MSTORE PUSH1 0x40 PUSH1 0x0 KECCAK256 SWAP4 DUP2 MLOAD DUP6 SSTORE PUSH1 0x1 DUP6 ADD PUSH1 0x1 DUP1 PUSH1 0xA0 SHL SUB PUSH1 0x20 DUP5 ADD MLOAD AND PUSH1 0x1 PUSH1 0x1 PUSH1 0x60 SHL SUB PUSH1 0xA0 SHL DUP3 SLOAD AND OR SWAP1 SSTORE PUSH1 0x40 DUP3 ADD MLOAD DUP1 MLOAD SWAP1 PUSH1 0x1 PUSH1 0x1 PUSH1 0x40 SHL SUB DUP3 GT PUSH2 0x1068 JUMPI DUP2 SWAP1 PUSH2 0x33B5 PUSH1 0x2 DUP10 ADD SLOAD PUSH2 0x37AC JUMP JUMPDEST PUSH1 0x1F DUP2 GT PUSH2 0x35A4 JUMPI JUMPDEST POP PUSH1 0x20 SWAP1 PUSH1 0x1F DUP4 GT PUSH1 0x1 EQ PUSH2 0x3532 JUMPI PUSH1 0x0 SWAP3 PUSH2 0x3527 JUMPI JUMPDEST POP POP DUP2 PUSH1 0x1 SHL SWAP2 PUSH1 0x0 NOT SWAP1 PUSH1 0x3 SHL SHR NOT AND OR PUSH1 0x2 DUP7 ADD SSTORE JUMPDEST PUSH1 0x60 DUP3 ADD MLOAD PUSH1 0x3 DUP7 ADD SSTORE PUSH1 0x80 DUP3 ADD MLOAD PUSH1 0x4 DUP7 ADD SSTORE PUSH1 0xA0 DUP3 ADD MLOAD PUSH1 0x5 DUP7 ADD SSTORE PUSH1 0xC0 DUP3 ADD MLOAD PUSH1 0x6 DUP7 ADD SSTORE PUSH1 0xE0 DUP3 ADD MLOAD SWAP1 PUSH1 0x7 DUP3 LT ISZERO PUSH2 0x96C JUMPI PUSH1 0x7 DUP7 ADD DUP1 SLOAD PUSH2 0x100 DUP6 ADD MLOAD PUSH2 0x100 PUSH1 0x1 PUSH1 0xA8 SHL SUB PUSH1 0x8 SWAP2 SWAP1 SWAP2 SHL AND PUSH1 0xFF SWAP5 SWAP1 SWAP5 AND PUSH1 0x1 PUSH1 0x1 PUSH1 0xA8 SHL SUB NOT SWAP1 SWAP2 AND OR SWAP3 SWAP1 SWAP3 OR SWAP1 SWAP2 SSTORE PUSH1 0x20 SWAP5 DUP5 SWAP3 PUSH32 0xB5E5FBF3346E9F5C610406862E51622B9D1E7FEFD46DE0E79367DE79C2B74890 SWAP3 SWAP2 SWAP1 PUSH1 0xB SWAP1 PUSH2 0x180 SWAP1 PUSH1 0x8 DUP5 ADD PUSH1 0x1 DUP1 PUSH1 0xA0 SHL SUB PUSH2 0x120 DUP4 ADD MLOAD AND PUSH1 0x1 PUSH1 0x1 PUSH1 0x60 SHL SUB PUSH1 0xA0 SHL DUP3 SLOAD AND OR SWAP1 SSTORE PUSH2 0x140 DUP2 ADD MLOAD PUSH1 0x9 DUP6 ADD SSTORE PUSH2 0x160 DUP2 ADD MLOAD PUSH1 0xA DUP6 ADD SSTORE ADD MLOAD SWAP2 ADD SSTORE CALLER PUSH1 0x0 MSTORE PUSH1 0x10 DUP7 MSTORE PUSH1 0x40 PUSH1 0x0 KECCAK256 PUSH2 0x34DF DUP2 SLOAD PUSH2 0x396F JUMP JUMPDEST SWAP1 SSTORE DUP3 PUSH1 0x0 MSTORE PUSH1 0xC DUP7 MSTORE PUSH1 0x6 PUSH1 0x40 PUSH1 0x0 KECCAK256 ADD SLOAD PUSH2 0x3517 PUSH1 0x40 MLOAD SWAP3 DUP4 SWAP3 PUSH1 0x24 CALLDATALOAD DUP5 MSTORE DUP10 DUP5 ADD MSTORE PUSH1 0x60 PUSH1 0x40 DUP5 ADD MSTORE CALLER SWAP7 PUSH1 0x60 DUP5 ADD SWAP2 PUSH2 0x39D0 JUMP JUMPDEST SUB SWAP1 LOG3 PUSH1 0x1 PUSH1 0x0 SSTORE PUSH1 0x40 MLOAD SWAP1 DUP2 MSTORE RETURN JUMPDEST ADD MLOAD SWAP1 POP DUP8 DUP1 PUSH2 0x33D5 JUMP JUMPDEST SWAP3 POP PUSH1 0x2 DUP9 ADD PUSH1 0x0 MSTORE PUSH1 0x20 PUSH1 0x0 KECCAK256 SWAP1 PUSH1 0x0 SWAP4 JUMPDEST PUSH1 0x1F NOT DUP5 AND DUP6 LT PUSH2 0x3589 JUMPI PUSH1 0x1 SWAP5 POP DUP4 PUSH1 0x1F NOT DUP2 AND LT PUSH2 0x3570 JUMPI JUMPDEST POP POP POP DUP2 SHL ADD PUSH1 0x2 DUP7 ADD SSTORE PUSH2 0x33ED JUMP JUMPDEST ADD MLOAD PUSH1 0x0 NOT PUSH1 0xF8 DUP5 PUSH1 0x3 SHL AND SHR NOT AND SWAP1 SSTORE DUP8 DUP1 DUP1 PUSH2 0x3560 JUMP JUMPDEST DUP2 DUP2 ADD MLOAD DUP4 SSTORE PUSH1 0x20 SWAP5 DUP6 ADD SWAP5 PUSH1 0x1 SWAP1 SWAP4 ADD SWAP3 SWAP1 SWAP2 ADD SWAP1 PUSH2 0x3545 JUMP JUMPDEST SWAP1 SWAP2 POP PUSH1 0x2 DUP9 ADD PUSH1 0x0 MSTORE PUSH1 0x20 PUSH1 0x0 KECCAK256 PUSH1 0x1F DUP5 ADD PUSH1 0x5 SHR DUP2 ADD PUSH1 0x20 DUP6 LT PUSH2 0x35F0 JUMPI JUMPDEST SWAP1 DUP5 SWAP4 SWAP3 SWAP2 JUMPDEST PUSH1 0x1F DUP4 ADD PUSH1 0x5 SHR DUP3 ADD DUP2 LT PUSH2 0x35E1 JUMPI POP POP PUSH2 0x33BE JUMP JUMPDEST PUSH1 0x0 DUP2 SSTORE DUP6 SWAP5 POP PUSH1 0x1 ADD PUSH2 0x35CB JUMP JUMPDEST POP DUP1 PUSH2 0x35C5 JUMP JUMPDEST PUSH1 0x40 MLOAD PUSH3 0x461BCD PUSH1 0xE5 SHL DUP2 MSTORE PUSH1 0x20 PUSH1 0x4 DUP3 ADD MSTORE PUSH1 0x10 PUSH1 0x24 DUP3 ADD MSTORE PUSH16 0x24B73B30B634B210323AB930BA34B7B7 PUSH1 0x81 SHL PUSH1 0x44 DUP3 ADD MSTORE PUSH1 0x64 SWAP1 REVERT JUMPDEST POP PUSH1 0x6 SLOAD PUSH1 0x44 CALLDATALOAD GT ISZERO PUSH2 0x3238 JUMP JUMPDEST PUSH1 0x40 MLOAD PUSH3 0x461BCD PUSH1 0xE5 SHL DUP2 MSTORE PUSH1 0x20 PUSH1 0x4 DUP3 ADD MSTORE PUSH1 0xE PUSH1 0x24 DUP3 ADD MSTORE PUSH14 0x52657761726420746F6F206C6F77 PUSH1 0x90 SHL PUSH1 0x44 DUP3 ADD MSTORE PUSH1 0x64 SWAP1 REVERT JUMPDEST PUSH1 0x40 MLOAD PUSH3 0x461BCD PUSH1 0xE5 SHL DUP2 MSTORE PUSH1 0x20 PUSH1 0x4 DUP3 ADD MSTORE PUSH1 0xF PUSH1 0x24 DUP3 ADD MSTORE PUSH15 0x8ADAE0E8F240E8C2E6D640D0C2E6D PUSH1 0x8B SHL PUSH1 0x44 DUP3 ADD MSTORE PUSH1 0x64 SWAP1 REVERT JUMPDEST SWAP2 DUP2 PUSH1 0x1F DUP5 ADD SLT ISZERO PUSH2 0x2F9 JUMPI DUP3 CALLDATALOAD SWAP2 PUSH1 0x1 PUSH1 0x1 PUSH1 0x40 SHL SUB DUP4 GT PUSH2 0x2F9 JUMPI PUSH1 0x20 DUP4 DUP2 DUP7 ADD SWAP6 ADD ADD GT PUSH2 0x2F9 JUMPI JUMP JUMPDEST PUSH1 0x40 SWAP1 PUSH1 0x3 NOT ADD SLT PUSH2 0x2F9 JUMPI PUSH1 0x4 CALLDATALOAD SWAP1 PUSH1 0x24 CALLDATALOAD SWAP1 JUMP JUMPDEST PUSH1 0x4 CALLDATALOAD SWAP1 PUSH1 0x1 PUSH1 0x1 PUSH1 0xA0 SHL SUB DUP3 AND DUP3 SUB PUSH2 0x2F9 JUMPI JUMP JUMPDEST PUSH1 0x60 SWAP1 PUSH1 0x3 NOT ADD SLT PUSH2 0x2F9 JUMPI PUSH1 0x4 CALLDATALOAD SWAP1 PUSH1 0x24 CALLDATALOAD SWAP1 PUSH1 0x44 CALLDATALOAD PUSH1 0x1 PUSH1 0x1 PUSH1 0xA0 SHL SUB DUP2 AND DUP2 SUB PUSH2 0x2F9 JUMPI SWAP1 JUMP JUMPDEST SWAP2 SWAP1 DUP3 MLOAD SWAP3 DUP4 DUP3 MSTORE PUSH1 0x0 JUMPDEST DUP5 DUP2 LT PUSH2 0x3759 JUMPI POP POP DUP3 PUSH1 0x0 PUSH1 0x20 DUP1 SWAP5 SWAP6 DUP5 ADD ADD MSTORE PUSH1 0x1F DUP1 NOT SWAP2 ADD AND ADD ADD SWAP1 JUMP JUMPDEST PUSH1 0x20 DUP2 DUP4 ADD DUP2 ADD MLOAD DUP5 DUP4 ADD DUP3 ADD MSTORE ADD PUSH2 0x3738 JUMP JUMPDEST SWAP1 PUSH1 0x7 DUP3 LT ISZERO PUSH2 0x96C JUMPI MSTORE JUMP JUMPDEST DUP1 SLOAD DUP3 LT ISZERO PUSH2 0x3796 JUMPI PUSH1 0x0 MSTORE PUSH1 0x6 PUSH1 0x20 PUSH1 0x0 KECCAK256 SWAP2 MUL ADD SWAP1 PUSH1 0x0 SWAP1 JUMP JUMPDEST PUSH4 0x4E487B71 PUSH1 0xE0 SHL PUSH1 0x0 MSTORE PUSH1 0x32 PUSH1 0x4 MSTORE PUSH1 0x24 PUSH1 0x0 REVERT JUMPDEST SWAP1 PUSH1 0x1 DUP3 DUP2 SHR SWAP3 AND DUP1 ISZERO PUSH2 0x37DC JUMPI JUMPDEST PUSH1 0x20 DUP4 LT EQ PUSH2 0x37C6 JUMPI JUMP JUMPDEST PUSH4 0x4E487B71 PUSH1 0xE0 SHL PUSH1 0x0 MSTORE PUSH1 0x22 PUSH1 0x4 MSTORE PUSH1 0x24 PUSH1 0x0 REVERT JUMPDEST SWAP2 PUSH1 0x7F AND SWAP2 PUSH2 0x37BB JUMP JUMPDEST PUSH2 0x1A0 DUP2 ADD SWAP1 DUP2 LT PUSH1 0x1 PUSH1 0x1 PUSH1 0x40 SHL SUB DUP3 GT OR PUSH2 0x1068 JUMPI PUSH1 0x40 MSTORE JUMP JUMPDEST PUSH1 0xC0 DUP2 ADD SWAP1 DUP2 LT PUSH1 0x1 PUSH1 0x1 PUSH1 0x40 SHL SUB DUP3 GT OR PUSH2 0x1068 JUMPI PUSH1 0x40 MSTORE JUMP JUMPDEST PUSH1 0x80 DUP2 ADD SWAP1 DUP2 LT PUSH1 0x1 PUSH1 0x1 PUSH1 0x40 SHL SUB DUP3 GT OR PUSH2 0x1068 JUMPI PUSH1 0x40 MSTORE JUMP JUMPDEST PUSH1 0x60 DUP2 ADD SWAP1 DUP2 LT PUSH1 0x1 PUSH1 0x1 PUSH1 0x40 SHL SUB DUP3 GT OR PUSH2 0x1068 JUMPI PUSH1 0x40 MSTORE JUMP JUMPDEST SWAP1 PUSH1 0x1F DUP1 NOT SWAP2 ADD AND DUP2 ADD SWAP1 DUP2 LT PUSH1 0x1 PUSH1 0x1 PUSH1 0x40 SHL SUB DUP3 GT OR PUSH2 0x1068 JUMPI PUSH1 0x40 MSTORE JUMP JUMPDEST SWAP1 PUSH1 0x40 MLOAD SWAP2 DUP3 PUSH1 0x0 DUP3 SLOAD PUSH2 0x3887 DUP2 PUSH2 0x37AC JUMP JUMPDEST SWAP1 DUP2 DUP5 MSTORE PUSH1 0x20 SWAP5 PUSH1 0x1 SWAP2 PUSH1 0x1 DUP2 AND SWAP1 DUP2 PUSH1 0x0 EQ PUSH2 0x38F7 JUMPI POP PUSH1 0x1 EQ PUSH2 0x38B8 JUMPI JUMPDEST POP POP POP PUSH2 0x38B6 SWAP3 POP SUB DUP4 PUSH2 0x3853 JUMP JUMPDEST JUMP JUMPDEST PUSH1 0x0 SWAP1 DUP2 MSTORE DUP6 DUP2 KECCAK256 SWAP6 SWAP4 POP SWAP2 SWAP1 JUMPDEST DUP2 DUP4 LT PUSH2 0x38DF JUMPI POP POP PUSH2 0x38B6 SWAP4 POP DUP3 ADD ADD CODESIZE DUP1 DUP1 PUSH2 0x38A7 JUMP JUMPDEST DUP6 SLOAD DUP9 DUP5 ADD DUP6 ADD MSTORE SWAP5 DUP6 ADD SWAP5 DUP8 SWAP5 POP SWAP2 DUP4 ADD SWAP2 PUSH2 0x38C6 JUMP JUMPDEST SWAP3 POP POP POP PUSH2 0x38B6 SWAP5 SWAP3 POP PUSH1 0xFF NOT AND DUP3 DUP5 ADD MSTORE ISZERO ISZERO PUSH1 0x5 SHL DUP3 ADD ADD CODESIZE DUP1 DUP1 PUSH2 0x38A7 JUMP JUMPDEST DUP2 DUP2 MUL SWAP3 SWAP2 DUP2 ISZERO SWAP2 DUP5 DIV EQ OR ISZERO PUSH2 0x392C JUMPI JUMP JUMPDEST PUSH4 0x4E487B71 PUSH1 0xE0 SHL PUSH1 0x0 MSTORE PUSH1 0x11 PUSH1 0x4 MSTORE PUSH1 0x24 PUSH1 0x0 REVERT JUMPDEST DUP2 ISZERO PUSH2 0x394C JUMPI DIV SWAP1 JUMP JUMPDEST PUSH4 0x4E487B71 PUSH1 0xE0 SHL PUSH1 0x0 MSTORE PUSH1 0x12 PUSH1 0x4 MSTORE PUSH1 0x24 PUSH1 0x0 REVERT JUMPDEST SWAP2 SWAP1 DUP3 ADD DUP1 SWAP3 GT PUSH2 0x392C JUMPI JUMP JUMPDEST PUSH1 0x0 NOT DUP2 EQ PUSH2 0x392C JUMPI PUSH1 0x1 ADD SWAP1 JUMP JUMPDEST PUSH1 0x1 PUSH1 0x1 PUSH1 0x40 SHL SUB DUP2 GT PUSH2 0x1068 JUMPI PUSH1 0x1F ADD PUSH1 0x1F NOT AND PUSH1 0x20 ADD SWAP1 JUMP JUMPDEST SWAP3 SWAP2 SWAP3 PUSH2 0x39A5 DUP3 PUSH2 0x397E JUMP JUMPDEST SWAP2 PUSH2 0x39B3 PUSH1 0x40 MLOAD SWAP4 DUP5 PUSH2 0x3853 JUMP JUMPDEST DUP3 SWAP5 DUP2 DUP5 MSTORE DUP2 DUP4 ADD GT PUSH2 0x2F9 JUMPI DUP3 DUP2 PUSH1 0x20 SWAP4 DUP5 PUSH1 0x0 SWAP7 ADD CALLDATACOPY ADD ADD MSTORE JUMP JUMPDEST SWAP1 DUP1 PUSH1 0x20 SWAP4 SWAP3 DUP2 DUP5 MSTORE DUP5 DUP5 ADD CALLDATACOPY PUSH1 0x0 DUP3 DUP3 ADD DUP5 ADD MSTORE PUSH1 0x1F ADD PUSH1 0x1F NOT AND ADD ADD SWAP1 JUMP JUMPDEST ISZERO PUSH2 0x39F8 JUMPI JUMP JUMPDEST PUSH1 0x40 MLOAD PUSH3 0x461BCD PUSH1 0xE5 SHL DUP2 MSTORE PUSH1 0x20 PUSH1 0x4 DUP3 ADD MSTORE PUSH1 0xF PUSH1 0x24 DUP3 ADD MSTORE PUSH15 0x496E76616C69642061646472657373 PUSH1 0x88 SHL PUSH1 0x44 DUP3 ADD MSTORE PUSH1 0x64 SWAP1 REVERT JUMPDEST PUSH1 0x1 PUSH1 0x1 PUSH1 0x40 SHL SUB DUP2 GT PUSH2 0x1068 JUMPI PUSH1 0x5 SHL PUSH1 0x20 ADD SWAP1 JUMP JUMPDEST ISZERO PUSH2 0x3A4D JUMPI JUMP JUMPDEST PUSH1 0x40 MLOAD PUSH3 0x461BCD PUSH1 0xE5 SHL DUP2 MSTORE PUSH1 0x20 PUSH1 0x4 DUP3 ADD MSTORE PUSH1 0xE PUSH1 0x24 DUP3 ADD MSTORE PUSH14 0x15185CDAC81B9BDD08199BDD5B99 PUSH1 0x92 SHL PUSH1 0x44 DUP3 ADD MSTORE PUSH1 0x64 SWAP1 REVERT JUMPDEST ISZERO PUSH2 0x3A8A JUMPI JUMP JUMPDEST PUSH1 0x40 MLOAD PUSH3 0x461BCD PUSH1 0xE5 SHL DUP2 MSTORE PUSH1 0x20 PUSH1 0x4 DUP3 ADD MSTORE PUSH1 0xC PUSH1 0x24 DUP3 ADD MSTORE PUSH12 0x15185CDAC8195E1C1A5C9959 PUSH1 0xA2 SHL PUSH1 0x44 DUP3 ADD MSTORE PUSH1 0x64 SWAP1 REVERT JUMPDEST ISZERO PUSH2 0x3AC5 JUMPI JUMP JUMPDEST PUSH1 0x40 MLOAD PUSH3 0x461BCD PUSH1 0xE5 SHL DUP2 MSTORE PUSH1 0x20 PUSH1 0x4 DUP3 ADD MSTORE PUSH1 0xF PUSH1 0x24 DUP3 ADD MSTORE PUSH15 0x2737BA1030903B30B634B230BA37B9 PUSH1 0x89 SHL PUSH1 0x44 DUP3 ADD MSTORE PUSH1 0x64 SWAP1 REVERT JUMPDEST ISZERO PUSH2 0x3B03 JUMPI JUMP JUMPDEST PUSH1 0x40 MLOAD PUSH3 0x461BCD PUSH1 0xE5 SHL DUP2 MSTORE PUSH1 0x20 PUSH1 0x4 DUP3 ADD MSTORE PUSH1 0x17 PUSH1 0x24 DUP3 ADD MSTORE PUSH32 0x5461736B206E6F742070656E64696E6720726576696577000000000000000000 PUSH1 0x44 DUP3 ADD MSTORE PUSH1 0x64 SWAP1 REVERT JUMPDEST ISZERO PUSH2 0x3B4F JUMPI JUMP JUMPDEST PUSH1 0x40 MLOAD PUSH3 0x461BCD PUSH1 0xE5 SHL DUP2 MSTORE PUSH1 0x20 PUSH1 0x4 DUP3 ADD MSTORE PUSH1 0x13 PUSH1 0x24 DUP3 ADD MSTORE PUSH19 0x92DCECC2D8D2C840DAD2DCCAE440D2DCC8CAF PUSH1 0x6B SHL PUSH1 0x44 DUP3 ADD MSTORE PUSH1 0x64 SWAP1 REVERT JUMPDEST ISZERO PUSH2 0x3B91 JUMPI JUMP JUMPDEST PUSH1 0x40 MLOAD PUSH3 0x461BCD PUSH1 0xE5 SHL DUP2 MSTORE PUSH1 0x20 PUSH1 0x4 DUP3 ADD MSTORE PUSH1 0x15 PUSH1 0x24 DUP3 ADD MSTORE PUSH21 0x416C72656164792068617320636F6E73656E737573 PUSH1 0x58 SHL PUSH1 0x44 DUP3 ADD MSTORE PUSH1 0x64 SWAP1 REVERT JUMPDEST PUSH1 0xB SLOAD SWAP1 PUSH5 0xE8D4A51000 DUP2 LT PUSH2 0x3BED JUMPI POP PUSH1 0x2 DUP2 ADD DUP1 SWAP2 GT PUSH2 0x392C JUMPI SWAP1 JUMP JUMPDEST PUSH5 0x174876E800 GT ISZERO PUSH2 0x3BFC JUMPI SWAP1 JUMP JUMPDEST PUSH1 0x1 DUP2 ADD DUP1 SWAP2 GT PUSH2 0x392C JUMPI SWAP1 JUMP JUMPDEST SWAP2 SWAP1 DUP3 SUB SWAP2 DUP3 GT PUSH2 0x392C JUMPI JUMP JUMPDEST DUP1 ISZERO PUSH2 0x392C JUMPI PUSH1 0x0 NOT ADD SWAP1 JUMP JUMPDEST ISZERO PUSH2 0x3C2B JUMPI JUMP JUMPDEST PUSH1 0x40 MLOAD PUSH3 0x461BCD PUSH1 0xE5 SHL DUP2 MSTORE PUSH1 0x20 PUSH1 0x4 DUP3 ADD MSTORE PUSH1 0x15 PUSH1 0x24 DUP3 ADD MSTORE PUSH21 0x53636F7265206D75737420626520302D313030303 PUSH1 0x5C SHL PUSH1 0x44 DUP3 ADD MSTORE PUSH1 0x64 SWAP1 REVERT JUMPDEST DUP1 SLOAD DUP3 LT ISZERO PUSH2 0x3796 JUMPI PUSH1 0x0 MSTORE PUSH1 0x20 PUSH1 0x0 KECCAK256 ADD SWAP1 PUSH1 0x0 SWAP1 JUMP JUMPDEST DUP1 SLOAD PUSH1 0x1 PUSH1 0x40 SHL DUP2 LT ISZERO PUSH2 0x1068 JUMPI PUSH2 0x3C9D SWAP2 PUSH1 0x1 DUP3 ADD DUP2 SSTORE PUSH2 0x3C68 JUMP JUMPDEST PUSH1 0x1 DUP1 PUSH1 0xA0 SWAP5 SWAP4 SWAP5 SHL SUB DUP1 DUP5 SLOAD SWAP3 PUSH1 0x3 SHL SWAP4 AND DUP4 SHL SWAP3 SHL NOT AND OR SWAP1 SSTORE JUMP JUMPDEST PUSH1 0x2 PUSH1 0x0 SLOAD EQ PUSH2 0x3CCC JUMPI PUSH1 0x2 PUSH1 0x0 SSTORE JUMP JUMPDEST PUSH1 0x40 MLOAD PUSH3 0x461BCD PUSH1 0xE5 SHL DUP2 MSTORE PUSH1 0x20 PUSH1 0x4 DUP3 ADD MSTORE PUSH1 0x1F PUSH1 0x24 DUP3 ADD MSTORE PUSH32 0x5265656E7472616E637947756172643A207265656E7472616E742063616C6C00 PUSH1 0x44 DUP3 ADD MSTORE PUSH1 0x64 SWAP1 REVERT JUMPDEST PUSH1 0xFF PUSH1 0x1 SLOAD PUSH1 0xA0 SHR AND PUSH2 0x3D20 JUMPI JUMP JUMPDEST PUSH1 0x40 MLOAD PUSH3 0x461BCD PUSH1 0xE5 SHL DUP2 MSTORE PUSH1 0x20 PUSH1 0x4 DUP3 ADD MSTORE PUSH1 0x10 PUSH1 0x24 DUP3 ADD MSTORE PUSH16 0x14185D5CD8589B194E881C185D5CD959 PUSH1 0x82 SHL PUSH1 0x44 DUP3 ADD MSTORE PUSH1 0x64 SWAP1 REVERT JUMPDEST PUSH1 0x1 SLOAD PUSH1 0x1 PUSH1 0x1 PUSH1 0xA0 SHL SUB AND CALLER SUB PUSH2 0x3D6C JUMPI JUMP JUMPDEST PUSH1 0x64 PUSH1 0x40 MLOAD PUSH3 0x461BCD PUSH1 0xE5 SHL DUP2 MSTORE PUSH1 0x20 PUSH1 0x4 DUP3 ADD MSTORE PUSH1 0x20 PUSH1 0x24 DUP3 ADD MSTORE PUSH32 0x4F776E61626C653A2063616C6C6572206973206E6F7420746865206F776E6572 PUSH1 0x44 DUP3 ADD MSTORE REVERT JUMPDEST PUSH1 0x40 MLOAD PUSH4 0xA9059CBB PUSH1 0xE0 SHL PUSH1 0x20 DUP3 ADD MSTORE PUSH1 0x1 PUSH1 0x1 PUSH1 0xA0 SHL SUB SWAP1 SWAP3 AND PUSH1 0x24 DUP4 ADD MSTORE PUSH1 0x44 DUP1 DUP4 ADD SWAP4 SWAP1 SWAP4 MSTORE SWAP2 DUP2 MSTORE PUSH2 0x38B6 SWAP2 PUSH2 0x1384 DUP3 PUSH2 0x381D JUMP JUMPDEST SWAP1 PUSH2 0x3DF3 DUP3 PUSH2 0x3A2F JUMP JUMPDEST PUSH2 0x3E00 PUSH1 0x40 MLOAD SWAP2 DUP3 PUSH2 0x3853 JUMP JUMPDEST DUP3 DUP2 MSTORE DUP1 SWAP3 PUSH2 0x3E11 PUSH1 0x1F NOT SWAP2 PUSH2 0x3A2F JUMP JUMPDEST ADD SWAP1 PUSH1 0x20 CALLDATASIZE SWAP2 ADD CALLDATACOPY JUMP JUMPDEST DUP1 MLOAD DUP3 LT ISZERO PUSH2 0x3796 JUMPI PUSH1 0x20 SWAP2 PUSH1 0x5 SHL ADD ADD SWAP1 JUMP JUMPDEST SWAP3 SWAP2 PUSH2 0x3E3A DUP2 PUSH2 0x3DE9 JUMP JUMPDEST SWAP2 PUSH1 0x0 JUMPDEST DUP3 DUP2 LT PUSH2 0x403B JUMPI POP DUP5 PUSH1 0x0 MSTORE PUSH1 0x20 DUP1 DUP1 MSTORE PUSH1 0x40 SWAP1 DUP2 PUSH1 0x0 KECCAK256 DUP4 PUSH1 0x0 MSTORE DUP2 MSTORE DUP2 PUSH1 0x0 KECCAK256 SWAP1 DUP2 SLOAD SWAP2 DUP6 DUP4 SUB PUSH2 0x3FF7 JUMPI SWAP2 DUP2 SWAP3 DUP5 MLOAD SWAP1 DUP2 SWAP5 DUP3 DUP5 DUP8 SWAP5 MSTORE ADD SWAP1 PUSH1 0x0 MSTORE DUP4 PUSH1 0x0 KECCAK256 SWAP3 PUSH1 0x0 JUMPDEST DUP6 DUP3 DUP3 LT PUSH2 0x3FD8 JUMPI POP POP POP PUSH2 0x3E9C SWAP3 POP SUB DUP4 PUSH2 0x3853 JUMP JUMPDEST PUSH1 0x0 JUMPDEST DUP6 DUP2 LT PUSH2 0x3F91 JUMPI POP POP POP POP POP SWAP1 SWAP2 SWAP3 POP PUSH1 0x1 JUMPDEST DUP2 DUP2 LT PUSH2 0x3F0B JUMPI POP PUSH1 0x1 DUP2 DUP2 AND SUB PUSH2 0x3ED6 JUMPI SWAP1 PUSH2 0x3ED2 SWAP2 PUSH1 0x1 SHR SWAP1 PUSH2 0x3E1B JUMP JUMPDEST MLOAD SWAP1 JUMP JUMPDEST PUSH1 0x1 SHR SWAP1 PUSH1 0x0 NOT DUP3 ADD DUP3 DUP2 GT PUSH2 0x392C JUMPI PUSH2 0x3F05 SWAP3 PUSH2 0x3EF7 PUSH2 0x3EFE SWAP3 DUP5 PUSH2 0x3E1B JUMP JUMPDEST MLOAD SWAP3 PUSH2 0x3E1B JUMP JUMPDEST MLOAD SWAP1 PUSH2 0x3962 JUMP JUMPDEST PUSH1 0x1 SHR SWAP1 JUMP JUMPDEST SWAP1 PUSH2 0x3F18 DUP3 DUP5 SWAP6 SWAP5 PUSH2 0x3E1B JUMP JUMPDEST MLOAD SWAP3 DUP3 JUMPDEST DUP1 ISZERO ISZERO DUP1 PUSH2 0x3F72 JUMPI JUMPDEST ISZERO PUSH2 0x3F5A JUMPI PUSH1 0x0 NOT DUP2 ADD SWAP1 DUP1 DUP3 GT PUSH2 0x392C JUMPI PUSH2 0x3F44 PUSH2 0x3F55 SWAP3 DUP9 PUSH2 0x3E1B JUMP JUMPDEST MLOAD PUSH2 0x3F4F DUP3 DUP10 PUSH2 0x3E1B JUMP JUMPDEST MSTORE PUSH2 0x3C17 JUMP JUMPDEST PUSH2 0x3F1C JUMP JUMPDEST SWAP4 PUSH2 0x3F6B PUSH1 0x1 SWAP4 SWAP5 SWAP3 SWAP7 SWAP6 DUP7 PUSH2 0x3E1B JUMP JUMPDEST MSTORE ADD PUSH2 0x3EB2 JUMP JUMPDEST POP PUSH1 0x0 NOT DUP2 ADD DUP2 DUP2 GT PUSH2 0x392C JUMPI PUSH2 0x3F8A DUP7 SWAP2 DUP9 PUSH2 0x3E1B JUMP JUMPDEST MLOAD GT PUSH2 0x3F25 JUMP JUMPDEST PUSH1 0x0 DUP10 DUP2 MSTORE PUSH1 0xE DUP4 MSTORE DUP5 DUP2 KECCAK256 DUP7 DUP3 MSTORE DUP4 MSTORE DUP5 SWAP1 KECCAK256 PUSH1 0x1 SWAP2 SWAP1 PUSH1 0x1 PUSH1 0x1 PUSH1 0xA0 SHL SUB PUSH2 0x3FBB DUP4 DUP8 PUSH2 0x3E1B JUMP JUMPDEST MLOAD AND PUSH1 0x0 MSTORE DUP4 MSTORE DUP5 PUSH1 0x0 KECCAK256 SLOAD PUSH2 0x3FD1 DUP3 DUP11 PUSH2 0x3E1B JUMP JUMPDEST MSTORE ADD PUSH2 0x3E9F JUMP JUMPDEST DUP6 SLOAD PUSH1 0x1 PUSH1 0x1 PUSH1 0xA0 SHL SUB AND DUP5 MSTORE PUSH1 0x1 SWAP6 DUP7 ADD SWAP6 DUP9 SWAP6 POP SWAP4 ADD SWAP3 ADD PUSH2 0x3E85 JUMP JUMPDEST DUP4 MLOAD PUSH3 0x461BCD PUSH1 0xE5 SHL DUP2 MSTORE PUSH1 0x4 DUP2 ADD DUP4 SWAP1 MSTORE PUSH1 0x1B PUSH1 0x24 DUP3 ADD MSTORE PUSH32 0x56616C696461746F7220747261636B696E67206D69736D617463680000000000 PUSH1 0x44 DUP3 ADD MSTORE PUSH1 0x64 SWAP1 REVERT JUMPDEST DUP1 PUSH1 0x0 PUSH2 0x404A PUSH1 0x1 SWAP4 DUP8 PUSH2 0x3E1B JUMP JUMPDEST MSTORE ADD PUSH2 0x3E3E JUMP JUMPDEST SWAP1 DUP2 PUSH1 0x0 MSTORE PUSH1 0xC PUSH1 0x20 MSTORE PUSH1 0x1 DUP1 PUSH1 0xA0 SHL SUB PUSH1 0x8 PUSH1 0x40 PUSH1 0x0 KECCAK256 ADD SLOAD AND PUSH1 0x0 NOT PUSH1 0xD PUSH1 0x20 MSTORE PUSH1 0x40 PUSH1 0x0 KECCAK256 SWAP2 PUSH1 0x0 SWAP1 DUP4 SLOAD SWAP2 JUMPDEST DUP3 DUP2 LT PUSH2 0x4456 JUMPI JUMPDEST POP POP POP PUSH1 0x0 NOT DUP2 EQ PUSH2 0x4447 JUMPI DUP4 PUSH1 0x0 MSTORE PUSH1 0x20 DUP1 MSTORE PUSH1 0x40 PUSH1 0x0 KECCAK256 DUP2 PUSH1 0x0 MSTORE PUSH1 0x20 MSTORE PUSH1 0x40 PUSH1 0x0 KECCAK256 SWAP1 DUP2 SLOAD SWAP3 DUP4 ISZERO PUSH2 0x4436 JUMPI PUSH2 0x40C4 DUP3 PUSH1 0x2 SWAP3 PUSH2 0x377A JUMP JUMPDEST POP ADD SLOAD SWAP5 PUSH2 0x40D1 DUP5 PUSH2 0x3DE9 JUMP JUMPDEST SWAP2 PUSH1 0x0 SWAP7 PUSH1 0x0 JUMPDEST DUP7 DUP2 LT PUSH2 0x41D7 JUMPI POP POP POP POP DUP5 ISZERO PUSH2 0x41C7 JUMPI PUSH1 0x0 SWAP5 PUSH1 0x0 JUMPDEST DUP5 DUP2 LT PUSH2 0x4118 JUMPI POP POP POP POP POP DUP1 DUP3 LT PUSH2 0x4106 JUMPI POP POP JUMP JUMPDEST PUSH2 0x4113 SWAP2 PUSH2 0x12C3 SWAP2 PUSH2 0x3C0A JUMP JUMPDEST PUSH1 0x16 SSTORE JUMP JUMPDEST DUP1 PUSH2 0x4125 PUSH1 0x1 SWAP3 DUP6 PUSH2 0x3E1B JUMP JUMPDEST MLOAD ISZERO PUSH2 0x41C2 JUMPI PUSH2 0x4152 PUSH2 0x414B DUP5 PUSH2 0x4146 PUSH2 0x413F DUP6 DUP10 PUSH2 0x3E1B JUMP JUMPDEST MLOAD DUP12 PUSH2 0x3919 JUMP JUMPDEST PUSH2 0x3942 JUMP JUMPDEST DUP1 SWAP10 PUSH2 0x3962 JUMP JUMPDEST SWAP8 PUSH2 0x415D DUP3 DUP8 PUSH2 0x3C68 JUMP JUMPDEST SWAP1 SLOAD SWAP1 PUSH1 0x3 SWAP2 DUP6 DUP1 PUSH1 0xA0 SHL SUB SWAP2 DUP4 SHL SHR AND PUSH1 0x0 MSTORE PUSH1 0x12 PUSH1 0x20 MSTORE PUSH1 0x40 PUSH1 0x0 KECCAK256 PUSH2 0x4186 DUP4 DUP3 SLOAD PUSH2 0x3962 JUMP JUMPDEST SWAP1 SSTORE PUSH2 0x4192 DUP4 DUP9 PUSH2 0x3C68 JUMP JUMPDEST DUP6 DUP1 PUSH1 0xA0 SWAP5 SWAP4 SWAP5 SHL SUB SWAP3 SLOAD SWAP2 SHL SHR AND PUSH1 0x0 MSTORE PUSH1 0x13 PUSH1 0x20 MSTORE PUSH2 0x41B9 PUSH1 0x40 PUSH1 0x0 KECCAK256 SWAP2 DUP3 SLOAD PUSH2 0x3962 JUMP JUMPDEST SWAP1 SSTORE JUMPDEST ADD PUSH2 0x40EF JUMP JUMPDEST PUSH2 0x41BC JUMP JUMPDEST POP POP POP PUSH2 0x4113 SWAP2 POP PUSH1 0x16 SLOAD PUSH2 0x3962 JUMP JUMPDEST PUSH2 0x41E1 DUP2 DUP8 PUSH2 0x3C68 JUMP JUMPDEST SWAP10 SWAP1 SLOAD SWAP10 DUP6 PUSH1 0x0 MSTORE PUSH1 0xE PUSH1 0x20 MSTORE PUSH1 0x40 PUSH1 0x0 KECCAK256 DUP6 PUSH1 0x0 MSTORE PUSH1 0x20 MSTORE PUSH1 0x40 PUSH1 0x0 KECCAK256 PUSH1 0x1 DUP1 PUSH1 0xA0 SHL SUB DUP13 DUP4 PUSH1 0x3 SHL SHR AND PUSH1 0x0 MSTORE PUSH1 0x20 MSTORE PUSH2 0x4222 DUP5 PUSH1 0x40 PUSH1 0x0 KECCAK256 SLOAD PUSH2 0x45D7 JUMP JUMPDEST SWAP11 PUSH1 0x1 DUP1 PUSH1 0xA0 SHL SUB DUP2 DUP4 PUSH1 0x3 SHL SHR AND PUSH1 0x0 MSTORE PUSH1 0x14 PUSH1 0x20 MSTORE PUSH1 0x40 PUSH1 0x0 KECCAK256 SWAP12 PUSH2 0x4249 DUP14 SLOAD PUSH2 0x396F JUMP JUMPDEST DUP14 SSTORE TIMESTAMP PUSH1 0x3 DUP15 ADD SSTORE PUSH2 0x7D0 DUP2 GT PUSH2 0x438E JUMPI PUSH1 0x1 DUP14 ADD PUSH2 0x4268 DUP2 SLOAD PUSH2 0x396F JUMP JUMPDEST SWAP1 SSTORE PUSH1 0x64 PUSH2 0x4276 DUP7 DUP12 PUSH2 0x3E1B JUMP JUMPDEST MSTORE PUSH1 0x40 MLOAD SWAP1 PUSH1 0x0 DUP3 MSTORE PUSH1 0x20 DUP3 ADD MSTORE DUP8 PUSH32 0x3D70426D5DE70B5AC8BFF45C3C0CD89DB0E473153868B8C61A938D42002584E8 PUSH1 0x40 PUSH1 0x1 DUP1 PUSH1 0xA0 SHL SUB DUP6 DUP8 PUSH1 0x3 SHL SHR AND SWAP4 LOG3 JUMPDEST DUP12 DUP1 SLOAD SWAP4 DUP5 PUSH2 0x435E JUMPI JUMPDEST PUSH2 0x42CD DUP7 DUP12 PUSH2 0x3E1B JUMP JUMPDEST MLOAD SWAP2 PUSH1 0x2 ADD SLOAD SWAP2 DUP3 PUSH2 0x42DE SWAP2 PUSH2 0x3919 JUMP JUMPDEST PUSH2 0x2710 SWAP1 DIV PUSH2 0x42ED DUP8 DUP13 PUSH2 0x3E1B JUMP JUMPDEST MSTORE PUSH2 0x42F8 DUP7 DUP12 PUSH2 0x3E1B JUMP JUMPDEST MLOAD PUSH2 0x4302 SWAP2 PUSH2 0x3962 JUMP JUMPDEST PUSH1 0x1 SWAP14 SWAP1 SWAP14 ADD SLOAD PUSH1 0x40 DUP1 MLOAD SWAP3 DUP4 MSTORE PUSH1 0x20 DUP4 ADD SWAP6 SWAP1 SWAP6 MSTORE SWAP4 DUP2 ADD SWAP4 SWAP1 SWAP4 MSTORE PUSH1 0x1 PUSH1 0x1 PUSH1 0xA0 SHL SUB PUSH1 0x3 SWAP3 SWAP1 SWAP3 SHL SHR AND SWAP1 PUSH32 0xC2FD17AD7E9F23B8607F0BD02D7A6CDCCCD5A964FA99CE5A066ED34C5B4BB55B SWAP1 PUSH1 0x60 SWAP1 LOG2 PUSH1 0x1 ADD PUSH2 0x40D8 JUMP JUMPDEST SWAP1 PUSH1 0x1 ADD SLOAD SWAP1 PUSH2 0x2710 DUP3 DUP2 DUP2 MUL DIV DUP2 EQ DUP4 ISZERO OR ISZERO PUSH2 0x392C JUMPI DUP6 DUP16 SWAP4 SWAP2 PUSH2 0x4384 SWAP3 MUL PUSH2 0x3942 JUMP JUMPDEST PUSH1 0x2 DUP4 ADD SSTORE PUSH2 0x42C3 JUMP JUMPDEST PUSH2 0x1388 DUP2 GT PUSH2 0x43EA JUMPI PUSH1 0x32 PUSH2 0x43A3 DUP7 DUP12 PUSH2 0x3E1B JUMP JUMPDEST MSTORE PUSH1 0x40 MLOAD SWAP1 PUSH1 0x0 DUP3 MSTORE PUSH1 0x20 DUP3 ADD MSTORE DUP8 PUSH32 0x3D70426D5DE70B5AC8BFF45C3C0CD89DB0E473153868B8C61A938D42002584E8 PUSH1 0x40 PUSH1 0x1 DUP1 PUSH1 0xA0 SHL SUB DUP6 DUP8 PUSH1 0x3 SHL SHR AND SWAP4 LOG3 PUSH2 0x42B9 JUMP JUMPDEST PUSH1 0x0 PUSH2 0x43F6 DUP7 DUP12 PUSH2 0x3E1B JUMP JUMPDEST MSTORE PUSH1 0x40 MLOAD SWAP1 DUP2 MSTORE DUP8 PUSH32 0x3B3050DF353576101845973A6B18BBCF16A0187F1C80D60D83D95BE509203C51 PUSH1 0x20 PUSH1 0x1 DUP1 PUSH1 0xA0 SHL SUB DUP6 DUP8 PUSH1 0x3 SHL SHR AND SWAP4 LOG3 PUSH2 0x42B9 JUMP JUMPDEST POP POP POP POP PUSH2 0x4113 SWAP2 POP PUSH1 0x16 SLOAD PUSH2 0x3962 JUMP JUMPDEST POP POP PUSH2 0x4113 SWAP2 POP PUSH1 0x16 SLOAD PUSH2 0x3962 JUMP JUMPDEST DUP2 PUSH2 0x4461 DUP3 DUP8 PUSH2 0x377A JUMP JUMPDEST POP SLOAD PUSH1 0x1 PUSH1 0x1 PUSH1 0xA0 SHL SUB AND EQ DUP1 PUSH2 0x448B JUMPI JUMPDEST PUSH2 0x447F JUMPI PUSH1 0x1 ADD PUSH2 0x4081 JUMP JUMPDEST SWAP3 POP POP POP CODESIZE DUP1 DUP1 PUSH2 0x4089 JUMP JUMPDEST POP PUSH1 0xFF PUSH1 0x3 PUSH2 0x449A DUP4 DUP9 PUSH2 0x377A JUMP JUMPDEST POP ADD SLOAD AND PUSH2 0x4473 JUMP JUMPDEST PUSH1 0x1 DUP1 PUSH1 0xA0 SHL SUB AND SWAP1 PUSH1 0x40 MLOAD PUSH1 0x40 DUP2 ADD SWAP1 DUP1 DUP3 LT PUSH1 0x1 PUSH1 0x1 PUSH1 0x40 SHL SUB DUP4 GT OR PUSH2 0x1068 JUMPI PUSH2 0x4532 SWAP2 PUSH1 0x40 MSTORE PUSH1 0x20 SWAP4 DUP5 DUP3 MSTORE PUSH32 0x5361666545524332303A206C6F772D6C6576656C2063616C6C206661696C6564 DUP6 DUP4 ADD MSTORE PUSH1 0x0 DUP1 DUP6 DUP8 DUP3 SWAP8 MLOAD SWAP2 ADD DUP3 DUP6 GAS CALL RETURNDATASIZE ISZERO PUSH2 0x45CF JUMPI RETURNDATASIZE SWAP2 PUSH2 0x4517 DUP4 PUSH2 0x397E JUMP JUMPDEST SWAP3 PUSH2 0x4525 PUSH1 0x40 MLOAD SWAP5 DUP6 PUSH2 0x3853 JUMP JUMPDEST DUP4 MSTORE RETURNDATASIZE DUP7 DUP9 DUP6 ADD RETURNDATACOPY PUSH2 0x4628 JUMP JUMPDEST DUP1 MLOAD SWAP2 DUP3 ISZERO SWAP2 DUP5 DUP4 ISZERO PUSH2 0x45A4 JUMPI JUMPDEST POP POP POP SWAP1 POP ISZERO PUSH2 0x454D JUMPI POP JUMP JUMPDEST PUSH1 0x84 SWAP1 PUSH1 0x40 MLOAD SWAP1 PUSH3 0x461BCD PUSH1 0xE5 SHL DUP3 MSTORE PUSH1 0x4 DUP3 ADD MSTORE PUSH1 0x2A PUSH1 0x24 DUP3 ADD MSTORE PUSH32 0x5361666545524332303A204552433230206F7065726174696F6E20646964206E PUSH1 0x44 DUP3 ADD MSTORE PUSH10 0x1BDD081CDD58D8D95959 PUSH1 0xB2 SHL PUSH1 0x64 DUP3 ADD MSTORE REVERT JUMPDEST SWAP2 SWAP4 DUP2 DUP1 SWAP5 POP ADD SUB SLT PUSH2 0x45CB JUMPI DUP3 ADD MLOAD SWAP1 DUP2 ISZERO ISZERO DUP3 SUB PUSH2 0x45C8 JUMPI POP DUP1 CODESIZE DUP1 DUP5 PUSH2 0x4540 JUMP JUMPDEST DUP1 REVERT JUMPDEST POP DUP1 REVERT JUMPDEST PUSH1 0x60 SWAP2 PUSH2 0x4628 JUMP JUMPDEST DUP2 ISZERO PUSH2 0x4621 JUMPI DUP2 DUP1 DUP3 GT ISZERO PUSH2 0x4611 JUMPI PUSH2 0x45EF SWAP2 PUSH2 0x3C0A JUMP JUMPDEST SWAP1 JUMPDEST PUSH2 0x2710 SWAP2 DUP3 DUP2 MUL SWAP3 DUP2 DUP5 DIV EQ SWAP1 ISZERO OR ISZERO PUSH2 0x392C JUMPI PUSH2 0x460E SWAP2 PUSH2 0x3942 JUMP JUMPDEST SWAP1 JUMP JUMPDEST SWAP1 PUSH2 0x461B SWAP2 PUSH2 0x3C0A JUMP JUMPDEST SWAP1 PUSH2 0x45F1 JUMP JUMPDEST POP POP PUSH1 0x0 SWAP1 JUMP JUMPDEST SWAP2 SWAP3 SWAP1 ISZERO PUSH2 0x468A JUMPI POP DUP2 MLOAD ISZERO PUSH2 0x463C JUMPI POP SWAP1 JUMP JUMPDEST EXTCODESIZE ISZERO PUSH2 0x4645 JUMPI SWAP1 JUMP JUMPDEST PUSH1 0x40 MLOAD PUSH3 0x461BCD PUSH1 0xE5 SHL DUP2 MSTORE PUSH1 0x20 PUSH1 0x4 DUP3 ADD MSTORE PUSH1 0x1D PUSH1 0x24 DUP3 ADD MSTORE PUSH32 0x416464726573733A2063616C6C20746F206E6F6E2D636F6E7472616374000000 PUSH1 0x44 DUP3 ADD MSTORE PUSH1 0x64 SWAP1 REVERT JUMPDEST DUP3 MLOAD SWAP1 SWAP2 POP ISZERO PUSH2 0x469D JUMPI POP DUP1 MLOAD SWAP1 PUSH1 0x20 ADD REVERT JUMPDEST PUSH1 0x40 MLOAD PUSH3 0x461BCD PUSH1 0xE5 SHL DUP2 MSTORE PUSH1 0x20 PUSH1 0x4 DUP3 ADD MSTORE SWAP1 DUP2 SWAP1 PUSH2 0x46C1 SWAP1 PUSH1 0x24 DUP4 ADD SWAP1 PUSH2 0x372D JUMP JUMPDEST SUB SWAP1 REVERT INVALID LOG2 PUSH5 0x6970667358 0x22 SLT KECCAK256 DIV DUP9 SELFBALANCE PUSH5 0x2B47C41567 DUP15 0xD2 POP PUSH25 0x766555999859CDC2FC41959708F77FC8DDFC664736F6C6343 STOP ADDMOD XOR STOP CALLER "},"methodIdentifiers":{"BURN_ADDRESS()":"fccc2813","HIGH_VALUE_THRESHOLD()":"ca7b64bb","ULTRA_VALUE_THRESHOLD()":"65617a35","acceptTask(uint256)":"1bf6912d","activeTaskCount(address)":"1ed5c43c","addValidator(address)":"4d238c8e","cancelTask(uint256)":"7eec20a8","collectedFees()":"9003adfe","commitCount(uint256,uint256)":"0ebac45a","commitPhaseDuration()":"483b4039","commitPhaseStart(uint256,uint256)":"77ad68da","commitScore(uint256,uint256,bytes32)":"1dd73e0d","createTask(string,uint256,uint256)":"059378ea","disputeDeadlines(uint256)":"0d88d409","disputeDuration()":"b6b6cc13","expireTask(uint256)":"62ecc47a","finalizeTask(uint256)":"88488c33","getAdaptiveMinValidations(uint256)":"32e540e9","getCommitHash(uint256,bytes32)":"9d7eea9f","getSubmissionCount(uint256)":"7be24cb8","getSubmissions(uint256)":"16c53ced","getTask(uint256)":"1d65e77e","getValidatorScore(uint256,uint256,address)":"d65314b3","hasMinerSubmitted(uint256,address)":"ac64c822","hasValidatorScored(uint256,uint256,address)":"7ca0ad2d","isDisputed(uint256)":"7ccc586e","isValidator(address)":"facd743b","maxSubmissionsPerTask()":"39b1185d","maxTaskDuration()":"c0be15ec","mdtToken()":"f70b5c06","minTaskReward()":"f0992c97","minValidations()":"680038c7","minerEarnings(address)":"0f0da719","openDispute(uint256)":"27d00fb0","owner()":"8da5cb5b","pause()":"8456cb59","paused()":"5c975abb","pendingWithdrawals(address)":"f3f43703","platformFeeRate()":"eeca08f0","removeValidator(address)":"40a141ff","renounceOwnership()":"715018a6","resolveDispute(uint256,bool)":"34b25ee2","revealCount(uint256,uint256)":"b46e7424","revealPhaseDuration()":"dfc75372","revealScore(uint256,uint256,uint256,bytes32)":"68a7f826","setCommitRevealConfig(uint256,uint256)":"3f422ef3","setMinValidations(uint256)":"2b52d8c3","setPlatformFeeRate(uint256)":"927fef2e","submitResult(uint256,string)":"8c0dd79a","taskSubmissions(uint256,uint256)":"53eea875","tasks(uint256)":"8d977672","totalTasks()":"d22c81e5","transferOwnership(address)":"f2fde38b","unpause()":"3f4ba83a","validateSubmission(uint256,uint256,uint256)":"b7ee5eda","validationCommits(uint256,uint256,address)":"3c9a6bf3","validatorCount()":"0f43a677","validatorEarnings(address)":"39388006","validatorReputation(address)":"d1270485","validatorRewardRate()":"2e44085d","validatorScores(uint256,uint256,address)":"0fb6d805","validators(address)":"fa52c7d8","withdrawEarnings()":"b73c6ce9","withdrawFees(address)":"164e68de"}}}}}