{"src/MDTGovernor.sol":{"MDTGovernor":{"abi":[{"inputs":[{"internalType":"address","name":"_mdtToken","type":"address"}],"stateMutability":"nonpayable","type":"constructor"},{"anonymous":false,"inputs":[{"indexed":true,"internalType":"address","name":"previousOwner","type":"address"},{"indexed":true,"internalType":"address","name":"newOwner","type":"address"}],"name":"OwnershipTransferred","type":"event"},{"anonymous":false,"inputs":[{"indexed":true,"internalType":"uint256","name":"proposalId","type":"uint256"}],"name":"ProposalCancelled","type":"event"},{"anonymous":false,"inputs":[{"indexed":true,"internalType":"uint256","name":"proposalId","type":"uint256"},{"indexed":true,"internalType":"address","name":"proposer","type":"address"},{"indexed":false,"internalType":"string","name":"description","type":"string"},{"indexed":false,"internalType":"address","name":"target","type":"address"},{"indexed":false,"internalType":"uint256","name":"startTime","type":"uint256"},{"indexed":false,"internalType":"uint256","name":"endTime","type":"uint256"}],"name":"ProposalCreated","type":"event"},{"anonymous":false,"inputs":[{"indexed":true,"internalType":"uint256","name":"proposalId","type":"uint256"}],"name":"ProposalExecuted","type":"event"},{"anonymous":false,"inputs":[{"indexed":true,"internalType":"uint256","name":"proposalId","type":"uint256"},{"indexed":true,"internalType":"address","name":"voter","type":"address"},{"indexed":false,"internalType":"bool","name":"support","type":"bool"},{"indexed":false,"internalType":"uint256","name":"weight","type":"uint256"}],"name":"VoteCast","type":"event"},{"inputs":[{"internalType":"uint256","name":"proposalId","type":"uint256"}],"name":"cancel","outputs":[],"stateMutability":"nonpayable","type":"function"},{"inputs":[{"internalType":"uint256","name":"proposalId","type":"uint256"}],"name":"execute","outputs":[],"stateMutability":"nonpayable","type":"function"},{"inputs":[],"name":"executionDelay","outputs":[{"internalType":"uint256","name":"","type":"uint256"}],"stateMutability":"view","type":"function"},{"inputs":[{"internalType":"uint256","name":"proposalId","type":"uint256"}],"name":"finalizeVoting","outputs":[],"stateMutability":"nonpayable","type":"function"},{"inputs":[{"internalType":"uint256","name":"proposalId","type":"uint256"}],"name":"getProposalState","outputs":[{"internalType":"enum MDTGovernor.ProposalState","name":"","type":"uint8"}],"stateMutability":"view","type":"function"},{"inputs":[{"internalType":"uint256","name":"proposalId","type":"uint256"}],"name":"getVotes","outputs":[{"internalType":"uint256","name":"forVotes","type":"uint256"},{"internalType":"uint256","name":"againstVotes","type":"uint256"}],"stateMutability":"view","type":"function"},{"inputs":[{"internalType":"uint256","name":"proposalId","type":"uint256"},{"internalType":"address","name":"voter","type":"address"}],"name":"hasVoted","outputs":[{"internalType":"bool","name":"","type":"bool"}],"stateMutability":"view","type":"function"},{"inputs":[],"name":"mdtToken","outputs":[{"internalType":"contract IERC20","name":"","type":"address"}],"stateMutability":"view","type":"function"},{"inputs":[],"name":"owner","outputs":[{"internalType":"address","name":"","type":"address"}],"stateMutability":"view","type":"function"},{"inputs":[],"name":"proposalCount","outputs":[{"internalType":"uint256","name":"","type":"uint256"}],"stateMutability":"view","type":"function"},{"inputs":[],"name":"proposalThreshold","outputs":[{"internalType":"uint256","name":"","type":"uint256"}],"stateMutability":"view","type":"function"},{"inputs":[{"internalType":"uint256","name":"","type":"uint256"}],"name":"proposals","outputs":[{"internalType":"uint256","name":"id","type":"uint256"},{"internalType":"address","name":"proposer","type":"address"},{"internalType":"string","name":"description","type":"string"},{"internalType":"address","name":"target","type":"address"},{"internalType":"bytes","name":"callData","type":"bytes"},{"internalType":"uint256","name":"forVotes","type":"uint256"},{"internalType":"uint256","name":"againstVotes","type":"uint256"},{"internalType":"uint256","name":"startTime","type":"uint256"},{"internalType":"uint256","name":"endTime","type":"uint256"},{"internalType":"uint256","name":"executionTime","type":"uint256"},{"internalType":"enum MDTGovernor.ProposalState","name":"state","type":"uint8"}],"stateMutability":"view","type":"function"},{"inputs":[{"internalType":"string","name":"description","type":"string"},{"internalType":"address","name":"target","type":"address"},{"internalType":"bytes","name":"callData","type":"bytes"}],"name":"propose","outputs":[{"internalType":"uint256","name":"","type":"uint256"}],"stateMutability":"nonpayable","type":"function"},{"inputs":[],"name":"quorum","outputs":[{"internalType":"uint256","name":"","type":"uint256"}],"stateMutability":"view","type":"function"},{"inputs":[],"name":"renounceOwnership","outputs":[],"stateMutability":"nonpayable","type":"function"},{"inputs":[{"internalType":"uint256","name":"_delay","type":"uint256"}],"name":"setExecutionDelay","outputs":[],"stateMutability":"nonpayable","type":"function"},{"inputs":[{"internalType":"uint256","name":"_threshold","type":"uint256"}],"name":"setProposalThreshold","outputs":[],"stateMutability":"nonpayable","type":"function"},{"inputs":[{"internalType":"uint256","name":"_quorum","type":"uint256"}],"name":"setQuorum","outputs":[],"stateMutability":"nonpayable","type":"function"},{"inputs":[{"internalType":"uint256","name":"_period","type":"uint256"}],"name":"setVotingPeriod","outputs":[],"stateMutability":"nonpayable","type":"function"},{"inputs":[{"internalType":"address","name":"newOwner","type":"address"}],"name":"transferOwnership","outputs":[],"stateMutability":"nonpayable","type":"function"},{"inputs":[{"internalType":"uint256","name":"proposalId","type":"uint256"},{"internalType":"bool","name":"support","type":"bool"}],"name":"vote","outputs":[],"stateMutability":"nonpayable","type":"function"},{"inputs":[],"name":"votingPeriod","outputs":[{"internalType":"uint256","name":"","type":"uint256"}],"stateMutability":"view","type":"function"}],"evm":{"bytecode":{"linkReferences":{},"object":"60803461010357601f6113fb38819003918201601f19168301916001600160401b038311848410176101085780849260209460405283398101031261010357516001600160a01b03808216918290036101035760016000556001549060018060a01b0319913383821617600155604051913391167f8be0079c531659141344cd1fd0a4f28419497f9722a3daafe3b4186f6b6457e0600080a364e8d4a51000806003556004556203f4806005556201518060065582156100d1575060025416176002556040516112dc908161011f8239f35b62461bcd60e51b815260206004820152600d60248201526c24b73b30b634b2103a37b5b2b760991b6044820152606490fd5b600080fd5b634e487b7160e01b600052604160045260246000fdfe608080604052600436101561001357600080fd5b60003560e01c908163013cf08b14610f6f5750806302a251a314610f515780631703a01814610f3357806340e58ee514610e195780634385963214610dc95780634944483114610cbd578063715018a614610c605780638b25798914610c425780638da5cb5b14610c195780639080936f14610be0578063b58131b014610bc2578063c1ba4e5914610ba1578063c9d27afe14610961578063d54a0ea61461054b578063da35c6641461052d578063e4917d9f1461050c578063ea0217cf146104eb578063ece40cc1146104ca578063f2fde38b146103ff578063f70b5c06146103d6578063fe0d94c11461014e5763ff9810991461011157600080fd5b346101495760203660031901126101495760043560005260086020526040806000206006600582015491015482519182526020820152f35b600080fd5b3461014957602080600319360112610149576004359060026000541461039257600260005581600052600881526040600020600a810180549060ff8216600681101561037c57600303610347576009830154421061030b57600460ff19809316179055600460018060a01b03600384015416920190604051916000918154916101d683611068565b926001928382169182156102f45750506001146102b9575b50505091816000809493819403925af13d156102b4573d67ffffffffffffffff811161029e576040519061022b601f8201601f1916850183611138565b81526000833d92013e5b1561026757507f712ae1383f79ac853f8d882153778e0260ef8f03b504e2866e0593e04d2b291f600080a26001600055005b6064906040519062461bcd60e51b82526004820152601060248201526f115e1958dd5d1a5bdb8819985a5b195960821b6044820152fd5b634e487b7160e01b600052604160045260246000fd5b610235565b909192506000528460002090856000925b8484106102e2575050509082019050816000806101ee565b805486850152920191869082016102ca565b1686525050508015150282019050816000806101ee565b60405162461bcd60e51b8152600481018590526014602482015273151a5b595b1bd8dac81b9bdd08195e1c1a5c995960621b6044820152606490fd5b60405162461bcd60e51b815260048101859052600d60248201526c139bdd081cdd58d8d959591959609a1b6044820152606490fd5b634e487b7160e01b600052602160045260246000fd5b6064906040519062461bcd60e51b82526004820152601f60248201527f5265656e7472616e637947756172643a207265656e7472616e742063616c6c006044820152fd5b34610149576000366003190112610149576002546040516001600160a01b039091168152602090f35b34610149576020366003190112610149576004356001600160a01b03818116918290036101495761042e61124e565b811561047657600154826bffffffffffffffffffffffff60a01b821617600155167f8be0079c531659141344cd1fd0a4f28419497f9722a3daafe3b4186f6b6457e0600080a3005b60405162461bcd60e51b815260206004820152602660248201527f4f776e61626c653a206e6577206f776e657220697320746865207a65726f206160448201526564647265737360d01b6064820152608490fd5b34610149576020366003190112610149576104e361124e565b600435600355005b346101495760203660031901126101495761050461124e565b600435600555005b346101495760203660031901126101495761052561124e565b600435600655005b34610149576000366003190112610149576020600754604051908152f35b346101495760603660031901126101495760043567ffffffffffffffff81116101495761057c9036906004016111bd565b906105856111a7565b9060443567ffffffffffffffff8111610149576105a69036906004016111bd565b6002546040516370a0823160e01b81523360048201529295926001600160a01b03916020908290602490829086165afa90811561095557600091610923575b50600354116108de57808516156108a8576007549460001986146108925760018681016007819055600081815260086020526040902090815590810180546001600160a01b031916331790559267ffffffffffffffff851161029e5761065b856106526002870154611068565b600287016111f8565b600085601f8111600114610825578061068a9260009161081a575b508160011b916000199060031b1c19161790565b60028501555b6003840180546001600160a01b03191683851617905567ffffffffffffffff811161029e576020976106d2826106c96004880154611068565b600488016111f8565b600090601f83116001146107ab576107039291600091836107a0575b50508160011b916000199060031b1c19161790565b60048401555b426007840155600a61071d600554426111eb565b9384600882015501600160ff1982541617905583604051956080875281608088015260a0870137600060a08587010152168584015242604084015260608301527ffcbc93e90de1f3909139448eea84876f427c600d8e1706f36918b4c5635c0213339260a0816001870194601f80199101168101030190a3600160405191018152f35b013590508a806106ee565b6004869392930160005289600020906000935b601f1984168510610803576001945083601f198116106107e9575b505050811b016004840155610709565b0135600019600384901b60f8161c191690558980806107d9565b818101358355938b01936001909201918b016107be565b90508801358b610676565b506002850160005260206000209060005b601f198816811061087a575086601f19811610610860575b5050600185811b016002850155610690565b870135600019600388901b60f8161c19169055888061084e565b9091602060018192858c013581550193019101610836565b634e487b7160e01b600052601160045260246000fd5b60405162461bcd60e51b815260206004820152600e60248201526d125b9d985b1a59081d185c99d95d60921b6044820152606490fd5b60405162461bcd60e51b815260206004820152601860248201527f42656c6f772070726f706f73616c207468726573686f6c6400000000000000006044820152606490fd5b90506020813d60201161094d575b8161093e60209383611138565b810103126101495751876105e5565b3d9150610931565b6040513d6000823e3d90fd5b346101495760403660031901126101495760248035801515916004359183810361014957826000526020906008825260406000209060ff600a830154166006811015610b8c57600103610b525760088201544211610b1f57600b82013360005280845260ff60406000205416610aeb576002546040516370a0823160e01b8152336004820152959085908790839082906001600160a01b03165afa95861561095557600096610abc575b508515610a8757503360005283526040600020600160ff19825416179055600014610a7257600501610a3e8382546111eb565b90555b6040519384528301527fcbdf6214089cba887ecbf35a0b6a734589959c9763342c756bb2a80ca2bc9f6e60403393a3005b600601610a808382546111eb565b9055610a41565b84600f6064926040519262461bcd60e51b845260048401528201526e2737903b37ba34b733903837bbb2b960891b6044820152fd5b9095508481813d8311610ae4575b610ad48183611138565b8101031261014957519488610a0b565b503d610aca565b60405162461bcd60e51b815260048101859052600d818701526c105b1c9958591e481d9bdd1959609a1b6044820152606490fd5b60405162461bcd60e51b815260048101849052600c818601526b159bdd1a5b99c8195b99195960a21b6044820152606490fd5b60405162461bcd60e51b8152600481018490526013818601527250726f706f73616c206e6f742061637469766560681b6044820152606490fd5b84634e487b7160e01b60005260216004526000fd5b3461014957602036600319011261014957610bba61124e565b600480359055005b34610149576000366003190112610149576020600354604051908152f35b34610149576020366003190112610149576004356000526008602052602060ff600a6040600020015416610c17604051809261119a565bf35b34610149576000366003190112610149576001546040516001600160a01b039091168152602090f35b34610149576000366003190112610149576020600654604051908152f35b3461014957600036600319011261014957610c7961124e565b600180546001600160a01b031981169091556000906001600160a01b03167f8be0079c531659141344cd1fd0a4f28419497f9722a3daafe3b4186f6b6457e08280a3005b346101495760203660031901126101495760043560005260086020526040600020600a8101805460ff8116600681101561037c57600103610d97576008830154421115610d5f5760058301546006840154610d1881836111eb565b60045411159182610d55575b505015610d4a5750600360ff198254161790556009610d45600654426111eb565b910155005b60ff19166002179055005b1190508480610d24565b60405162461bcd60e51b815260206004820152601060248201526f159bdd1a5b99c81b9bdd08195b99195960821b6044820152606490fd5b60405162461bcd60e51b815260206004820152600a6024820152694e6f742061637469766560b01b6044820152606490fd5b3461014957604036600319011261014957610de26111a7565b6004356000526008602052600b6040600020019060018060a01b0316600052602052602060ff604060002054166040519015158152f35b346101495760203660031901126101495760043560008181526008602052604090206001810154336001600160a01b0391821614908115610f25575b5015610eef57600a01805460ff8116600681101561037c5760018114908115610ee4575b5015610eaf5760ff191660051790557f416e669c63d9a3a5e36ee7cc7e2104b8db28ccd286aa18966e98fa230c73b08c600080a2005b60405162461bcd60e51b815260206004820152600d60248201526c10d85b9b9bdd0818d85b98d95b609a1b6044820152606490fd5b600391501484610e79565b60405162461bcd60e51b815260206004820152600e60248201526d139bdd08185d5d1a1bdc9a5e995960921b6044820152606490fd5b905060015416331483610e55565b34610149576000366003190112610149576020600454604051908152f35b34610149576000366003190112610149576020600554604051908152f35b346101495760203660031901126101495760043560005260086020526040806000209161106483549360018060a01b03908160018201541691610fc085610fb981600286016110a2565b0386611138565b600382015416938551610fe181610fda81600487016110a2565b0382611138565b60058301549561103d60068501549160078601549361102a60088801549660ff600a60098b01549a015416998d519e8f9e8f6101609384938252602082015201528d019061115a565b9160608c01528a820360808c015261115a565b9660a089015260c088015260e087015261010086015261012085015261014084019061119a565b0390f35b90600182811c92168015611098575b602083101461108257565b634e487b7160e01b600052602260045260246000fd5b91607f1691611077565b8054600093926110b182611068565b9182825260209360019160018116908160001461111957506001146110d8575b5050505050565b90939495506000929192528360002092846000945b838610611105575050505001019038808080806110d1565b8054858701830152940193859082016110ed565b60ff19168685015250505090151560051b0101915038808080806110d1565b90601f8019910116810190811067ffffffffffffffff82111761029e57604052565b919082519283825260005b848110611186575050826000602080949584010152601f8019910116010190565b602081830181015184830182015201611165565b90600682101561037c5752565b602435906001600160a01b038216820361014957565b9181601f840112156101495782359167ffffffffffffffff8311610149576020838186019501011161014957565b9190820180921161089257565b90601f811161120657505050565b6000916000526020600020906020601f850160051c83019410611244575b601f0160051c01915b82811061123957505050565b81815560010161122d565b9092508290611224565b6001546001600160a01b0316330361126257565b606460405162461bcd60e51b815260206004820152602060248201527f4f776e61626c653a2063616c6c6572206973206e6f7420746865206f776e65726044820152fdfea264697066735822122054a6646e440a6c6edf0b3599f4254891f920642e44bfc88144a909ef1b1ba22764736f6c63430008180033","opcodes":"PUSH1 0x80 CALLVALUE PUSH2 0x103 JUMPI PUSH1 0x1F PUSH2 0x13FB CODESIZE DUP2 SWAP1 SUB SWAP2 DUP3 ADD PUSH1 0x1F NOT AND DUP4 ADD SWAP2 PUSH1 0x1 PUSH1 0x1 PUSH1 0x40 SHL SUB DUP4 GT DUP5 DUP5 LT OR PUSH2 0x108 JUMPI DUP1 DUP5 SWAP3 PUSH1 0x20 SWAP5 PUSH1 0x40 MSTORE DUP4 CODECOPY DUP2 ADD SUB SLT PUSH2 0x103 JUMPI MLOAD PUSH1 0x1 PUSH1 0x1 PUSH1 0xA0 SHL SUB DUP1 DUP3 AND SWAP2 DUP3 SWAP1 SUB PUSH2 0x103 JUMPI PUSH1 0x1 PUSH1 0x0 SSTORE PUSH1 0x1 SLOAD SWAP1 PUSH1 0x1 DUP1 PUSH1 0xA0 SHL SUB NOT SWAP2 CALLER DUP4 DUP3 AND OR PUSH1 0x1 SSTORE PUSH1 0x40 MLOAD SWAP2 CALLER SWAP2 AND PUSH32 0x8BE0079C531659141344CD1FD0A4F28419497F9722A3DAAFE3B4186F6B6457E0 PUSH1 0x0 DUP1 LOG3 PUSH5 0xE8D4A51000 DUP1 PUSH1 0x3 SSTORE PUSH1 0x4 SSTORE PUSH3 0x3F480 PUSH1 0x5 SSTORE PUSH3 0x15180 PUSH1 0x6 SSTORE DUP3 ISZERO PUSH2 0xD1 JUMPI POP PUSH1 0x2 SLOAD AND OR PUSH1 0x2 SSTORE PUSH1 0x40 MLOAD PUSH2 0x12DC SWAP1 DUP2 PUSH2 0x11F DUP3 CODECOPY RETURN JUMPDEST PUSH3 0x461BCD PUSH1 0xE5 SHL DUP2 MSTORE PUSH1 0x20 PUSH1 0x4 DUP3 ADD MSTORE PUSH1 0xD PUSH1 0x24 DUP3 ADD MSTORE PUSH13 0x24B73B30B634B2103A37B5B2B7 PUSH1 0x99 SHL PUSH1 0x44 DUP3 ADD MSTORE PUSH1 0x64 SWAP1 REVERT JUMPDEST PUSH1 0x0 DUP1 REVERT JUMPDEST PUSH4 0x4E487B71 PUSH1 0xE0 SHL PUSH1 0x0 MSTORE PUSH1 0x41 PUSH1 0x4 MSTORE PUSH1 0x24 PUSH1 0x0 REVERT INVALID PUSH1 0x80 DUP1 PUSH1 0x40 MSTORE PUSH1 0x4 CALLDATASIZE LT ISZERO PUSH2 0x13 JUMPI PUSH1 0x0 DUP1 REVERT JUMPDEST PUSH1 0x0 CALLDATALOAD PUSH1 0xE0 SHR SWAP1 DUP2 PUSH4 0x13CF08B EQ PUSH2 0xF6F JUMPI POP DUP1 PUSH4 0x2A251A3 EQ PUSH2 0xF51 JUMPI DUP1 PUSH4 0x1703A018 EQ PUSH2 0xF33 JUMPI DUP1 PUSH4 0x40E58EE5 EQ PUSH2 0xE19 JUMPI DUP1 PUSH4 0x43859632 EQ PUSH2 0xDC9 JUMPI DUP1 PUSH4 0x49444831 EQ PUSH2 0xCBD JUMPI DUP1 PUSH4 0x715018A6 EQ PUSH2 0xC60 JUMPI DUP1 PUSH4 0x8B257989 EQ PUSH2 0xC42 JUMPI DUP1 PUSH4 0x8DA5CB5B EQ PUSH2 0xC19 JUMPI DUP1 PUSH4 0x9080936F EQ PUSH2 0xBE0 JUMPI DUP1 PUSH4 0xB58131B0 EQ PUSH2 0xBC2 JUMPI DUP1 PUSH4 0xC1BA4E59 EQ PUSH2 0xBA1 JUMPI DUP1 PUSH4 0xC9D27AFE EQ PUSH2 0x961 JUMPI DUP1 PUSH4 0xD54A0EA6 EQ PUSH2 0x54B JUMPI DUP1 PUSH4 0xDA35C664 EQ PUSH2 0x52D JUMPI DUP1 PUSH4 0xE4917D9F EQ PUSH2 0x50C JUMPI DUP1 PUSH4 0xEA0217CF EQ PUSH2 0x4EB JUMPI DUP1 PUSH4 0xECE40CC1 EQ PUSH2 0x4CA JUMPI DUP1 PUSH4 0xF2FDE38B EQ PUSH2 0x3FF JUMPI DUP1 PUSH4 0xF70B5C06 EQ PUSH2 0x3D6 JUMPI DUP1 PUSH4 0xFE0D94C1 EQ PUSH2 0x14E JUMPI PUSH4 0xFF981099 EQ PUSH2 0x111 JUMPI PUSH1 0x0 DUP1 REVERT JUMPDEST CALLVALUE PUSH2 0x149 JUMPI PUSH1 0x20 CALLDATASIZE PUSH1 0x3 NOT ADD SLT PUSH2 0x149 JUMPI PUSH1 0x4 CALLDATALOAD PUSH1 0x0 MSTORE PUSH1 0x8 PUSH1 0x20 MSTORE PUSH1 0x40 DUP1 PUSH1 0x0 KECCAK256 PUSH1 0x6 PUSH1 0x5 DUP3 ADD SLOAD SWAP2 ADD SLOAD DUP3 MLOAD SWAP2 DUP3 MSTORE PUSH1 0x20 DUP3 ADD MSTORE RETURN JUMPDEST PUSH1 0x0 DUP1 REVERT JUMPDEST CALLVALUE PUSH2 0x149 JUMPI PUSH1 0x20 DUP1 PUSH1 0x3 NOT CALLDATASIZE ADD SLT PUSH2 0x149 JUMPI PUSH1 0x4 CALLDATALOAD SWAP1 PUSH1 0x2 PUSH1 0x0 SLOAD EQ PUSH2 0x392 JUMPI PUSH1 0x2 PUSH1 0x0 SSTORE DUP2 PUSH1 0x0 MSTORE PUSH1 0x8 DUP2 MSTORE PUSH1 0x40 PUSH1 0x0 KECCAK256 PUSH1 0xA DUP2 ADD DUP1 SLOAD SWAP1 PUSH1 0xFF DUP3 AND PUSH1 0x6 DUP2 LT ISZERO PUSH2 0x37C JUMPI PUSH1 0x3 SUB PUSH2 0x347 JUMPI PUSH1 0x9 DUP4 ADD SLOAD TIMESTAMP LT PUSH2 0x30B JUMPI PUSH1 0x4 PUSH1 0xFF NOT DUP1 SWAP4 AND OR SWAP1 SSTORE PUSH1 0x4 PUSH1 0x1 DUP1 PUSH1 0xA0 SHL SUB PUSH1 0x3 DUP5 ADD SLOAD AND SWAP3 ADD SWAP1 PUSH1 0x40 MLOAD SWAP2 PUSH1 0x0 SWAP2 DUP2 SLOAD SWAP2 PUSH2 0x1D6 DUP4 PUSH2 0x1068 JUMP JUMPDEST SWAP3 PUSH1 0x1 SWAP3 DUP4 DUP3 AND SWAP2 DUP3 ISZERO PUSH2 0x2F4 JUMPI POP POP PUSH1 0x1 EQ PUSH2 0x2B9 JUMPI JUMPDEST POP POP POP SWAP2 DUP2 PUSH1 0x0 DUP1 SWAP5 SWAP4 DUP2 SWAP5 SUB SWAP3 GAS CALL RETURNDATASIZE ISZERO PUSH2 0x2B4 JUMPI RETURNDATASIZE PUSH8 0xFFFFFFFFFFFFFFFF DUP2 GT PUSH2 0x29E JUMPI PUSH1 0x40 MLOAD SWAP1 PUSH2 0x22B PUSH1 0x1F DUP3 ADD PUSH1 0x1F NOT AND DUP6 ADD DUP4 PUSH2 0x1138 JUMP JUMPDEST DUP2 MSTORE PUSH1 0x0 DUP4 RETURNDATASIZE SWAP3 ADD RETURNDATACOPY JUMPDEST ISZERO PUSH2 0x267 JUMPI POP PUSH32 0x712AE1383F79AC853F8D882153778E0260EF8F03B504E2866E0593E04D2B291F PUSH1 0x0 DUP1 LOG2 PUSH1 0x1 PUSH1 0x0 SSTORE STOP JUMPDEST PUSH1 0x64 SWAP1 PUSH1 0x40 MLOAD SWAP1 PUSH3 0x461BCD PUSH1 0xE5 SHL DUP3 MSTORE PUSH1 0x4 DUP3 ADD MSTORE PUSH1 0x10 PUSH1 0x24 DUP3 ADD MSTORE PUSH16 0x115E1958DD5D1A5BDB8819985A5B1959 PUSH1 0x82 SHL PUSH1 0x44 DUP3 ADD MSTORE REVERT JUMPDEST PUSH4 0x4E487B71 PUSH1 0xE0 SHL PUSH1 0x0 MSTORE PUSH1 0x41 PUSH1 0x4 MSTORE PUSH1 0x24 PUSH1 0x0 REVERT JUMPDEST PUSH2 0x235 JUMP JUMPDEST SWAP1 SWAP2 SWAP3 POP PUSH1 0x0 MSTORE DUP5 PUSH1 0x0 KECCAK256 SWAP1 DUP6 PUSH1 0x0 SWAP3 JUMPDEST DUP5 DUP5 LT PUSH2 0x2E2 JUMPI POP POP POP SWAP1 DUP3 ADD SWAP1 POP DUP2 PUSH1 0x0 DUP1 PUSH2 0x1EE JUMP JUMPDEST DUP1 SLOAD DUP7 DUP6 ADD MSTORE SWAP3 ADD SWAP2 DUP7 SWAP1 DUP3 ADD PUSH2 0x2CA JUMP JUMPDEST AND DUP7 MSTORE POP POP POP DUP1 ISZERO ISZERO MUL DUP3 ADD SWAP1 POP DUP2 PUSH1 0x0 DUP1 PUSH2 0x1EE JUMP JUMPDEST PUSH1 0x40 MLOAD PUSH3 0x461BCD PUSH1 0xE5 SHL DUP2 MSTORE PUSH1 0x4 DUP2 ADD DUP6 SWAP1 MSTORE PUSH1 0x14 PUSH1 0x24 DUP3 ADD MSTORE PUSH20 0x151A5B595B1BD8DAC81B9BDD08195E1C1A5C9959 PUSH1 0x62 SHL PUSH1 0x44 DUP3 ADD MSTORE PUSH1 0x64 SWAP1 REVERT JUMPDEST PUSH1 0x40 MLOAD PUSH3 0x461BCD PUSH1 0xE5 SHL DUP2 MSTORE PUSH1 0x4 DUP2 ADD DUP6 SWAP1 MSTORE PUSH1 0xD PUSH1 0x24 DUP3 ADD MSTORE PUSH13 0x139BDD081CDD58D8D959591959 PUSH1 0x9A SHL PUSH1 0x44 DUP3 ADD MSTORE PUSH1 0x64 SWAP1 REVERT JUMPDEST PUSH4 0x4E487B71 PUSH1 0xE0 SHL PUSH1 0x0 MSTORE PUSH1 0x21 PUSH1 0x4 MSTORE PUSH1 0x24 PUSH1 0x0 REVERT JUMPDEST PUSH1 0x64 SWAP1 PUSH1 0x40 MLOAD SWAP1 PUSH3 0x461BCD PUSH1 0xE5 SHL DUP3 MSTORE PUSH1 0x4 DUP3 ADD MSTORE PUSH1 0x1F PUSH1 0x24 DUP3 ADD MSTORE PUSH32 0x5265656E7472616E637947756172643A207265656E7472616E742063616C6C00 PUSH1 0x44 DUP3 ADD MSTORE REVERT JUMPDEST CALLVALUE PUSH2 0x149 JUMPI PUSH1 0x0 CALLDATASIZE PUSH1 0x3 NOT ADD SLT PUSH2 0x149 JUMPI PUSH1 0x2 SLOAD PUSH1 0x40 MLOAD PUSH1 0x1 PUSH1 0x1 PUSH1 0xA0 SHL SUB SWAP1 SWAP2 AND DUP2 MSTORE PUSH1 0x20 SWAP1 RETURN JUMPDEST CALLVALUE PUSH2 0x149 JUMPI PUSH1 0x20 CALLDATASIZE PUSH1 0x3 NOT ADD SLT PUSH2 0x149 JUMPI PUSH1 0x4 CALLDATALOAD PUSH1 0x1 PUSH1 0x1 PUSH1 0xA0 SHL SUB DUP2 DUP2 AND SWAP2 DUP3 SWAP1 SUB PUSH2 0x149 JUMPI PUSH2 0x42E PUSH2 0x124E JUMP JUMPDEST DUP2 ISZERO PUSH2 0x476 JUMPI PUSH1 0x1 SLOAD DUP3 PUSH12 0xFFFFFFFFFFFFFFFFFFFFFFFF PUSH1 0xA0 SHL DUP3 AND OR PUSH1 0x1 SSTORE AND PUSH32 0x8BE0079C531659141344CD1FD0A4F28419497F9722A3DAAFE3B4186F6B6457E0 PUSH1 0x0 DUP1 LOG3 STOP JUMPDEST PUSH1 0x40 MLOAD PUSH3 0x461BCD PUSH1 0xE5 SHL DUP2 MSTORE PUSH1 0x20 PUSH1 0x4 DUP3 ADD MSTORE PUSH1 0x26 PUSH1 0x24 DUP3 ADD MSTORE PUSH32 0x4F776E61626C653A206E6577206F776E657220697320746865207A65726F2061 PUSH1 0x44 DUP3 ADD MSTORE PUSH6 0x646472657373 PUSH1 0xD0 SHL PUSH1 0x64 DUP3 ADD MSTORE PUSH1 0x84 SWAP1 REVERT JUMPDEST CALLVALUE PUSH2 0x149 JUMPI PUSH1 0x20 CALLDATASIZE PUSH1 0x3 NOT ADD SLT PUSH2 0x149 JUMPI PUSH2 0x4E3 PUSH2 0x124E JUMP JUMPDEST PUSH1 0x4 CALLDATALOAD PUSH1 0x3 SSTORE STOP JUMPDEST CALLVALUE PUSH2 0x149 JUMPI PUSH1 0x20 CALLDATASIZE PUSH1 0x3 NOT ADD SLT PUSH2 0x149 JUMPI PUSH2 0x504 PUSH2 0x124E JUMP JUMPDEST PUSH1 0x4 CALLDATALOAD PUSH1 0x5 SSTORE STOP JUMPDEST CALLVALUE PUSH2 0x149 JUMPI PUSH1 0x20 CALLDATASIZE PUSH1 0x3 NOT ADD SLT PUSH2 0x149 JUMPI PUSH2 0x525 PUSH2 0x124E JUMP JUMPDEST PUSH1 0x4 CALLDATALOAD PUSH1 0x6 SSTORE STOP JUMPDEST CALLVALUE PUSH2 0x149 JUMPI PUSH1 0x0 CALLDATASIZE PUSH1 0x3 NOT ADD SLT PUSH2 0x149 JUMPI PUSH1 0x20 PUSH1 0x7 SLOAD PUSH1 0x40 MLOAD SWAP1 DUP2 MSTORE RETURN JUMPDEST CALLVALUE PUSH2 0x149 JUMPI PUSH1 0x60 CALLDATASIZE PUSH1 0x3 NOT ADD SLT PUSH2 0x149 JUMPI PUSH1 0x4 CALLDATALOAD PUSH8 0xFFFFFFFFFFFFFFFF DUP2 GT PUSH2 0x149 JUMPI PUSH2 0x57C SWAP1 CALLDATASIZE SWAP1 PUSH1 0x4 ADD PUSH2 0x11BD JUMP JUMPDEST SWAP1 PUSH2 0x585 PUSH2 0x11A7 JUMP JUMPDEST SWAP1 PUSH1 0x44 CALLDATALOAD PUSH8 0xFFFFFFFFFFFFFFFF DUP2 GT PUSH2 0x149 JUMPI PUSH2 0x5A6 SWAP1 CALLDATASIZE SWAP1 PUSH1 0x4 ADD PUSH2 0x11BD JUMP JUMPDEST PUSH1 0x2 SLOAD PUSH1 0x40 MLOAD PUSH4 0x70A08231 PUSH1 0xE0 SHL DUP2 MSTORE CALLER PUSH1 0x4 DUP3 ADD MSTORE SWAP3 SWAP6 SWAP3 PUSH1 0x1 PUSH1 0x1 PUSH1 0xA0 SHL SUB SWAP2 PUSH1 0x20 SWAP1 DUP3 SWAP1 PUSH1 0x24 SWAP1 DUP3 SWAP1 DUP7 AND GAS STATICCALL SWAP1 DUP2 ISZERO PUSH2 0x955 JUMPI PUSH1 0x0 SWAP2 PUSH2 0x923 JUMPI JUMPDEST POP PUSH1 0x3 SLOAD GT PUSH2 0x8DE JUMPI DUP1 DUP6 AND ISZERO PUSH2 0x8A8 JUMPI PUSH1 0x7 SLOAD SWAP5 PUSH1 0x0 NOT DUP7 EQ PUSH2 0x892 JUMPI PUSH1 0x1 DUP7 DUP2 ADD PUSH1 0x7 DUP2 SWAP1 SSTORE PUSH1 0x0 DUP2 DUP2 MSTORE PUSH1 0x8 PUSH1 0x20 MSTORE PUSH1 0x40 SWAP1 KECCAK256 SWAP1 DUP2 SSTORE SWAP1 DUP2 ADD DUP1 SLOAD PUSH1 0x1 PUSH1 0x1 PUSH1 0xA0 SHL SUB NOT AND CALLER OR SWAP1 SSTORE SWAP3 PUSH8 0xFFFFFFFFFFFFFFFF DUP6 GT PUSH2 0x29E JUMPI PUSH2 0x65B DUP6 PUSH2 0x652 PUSH1 0x2 DUP8 ADD SLOAD PUSH2 0x1068 JUMP JUMPDEST PUSH1 0x2 DUP8 ADD PUSH2 0x11F8 JUMP JUMPDEST PUSH1 0x0 DUP6 PUSH1 0x1F DUP2 GT PUSH1 0x1 EQ PUSH2 0x825 JUMPI DUP1 PUSH2 0x68A SWAP3 PUSH1 0x0 SWAP2 PUSH2 0x81A JUMPI JUMPDEST POP DUP2 PUSH1 0x1 SHL SWAP2 PUSH1 0x0 NOT SWAP1 PUSH1 0x3 SHL SHR NOT AND OR SWAP1 JUMP JUMPDEST PUSH1 0x2 DUP6 ADD SSTORE JUMPDEST PUSH1 0x3 DUP5 ADD DUP1 SLOAD PUSH1 0x1 PUSH1 0x1 PUSH1 0xA0 SHL SUB NOT AND DUP4 DUP6 AND OR SWAP1 SSTORE PUSH8 0xFFFFFFFFFFFFFFFF DUP2 GT PUSH2 0x29E JUMPI PUSH1 0x20 SWAP8 PUSH2 0x6D2 DUP3 PUSH2 0x6C9 PUSH1 0x4 DUP9 ADD SLOAD PUSH2 0x1068 JUMP JUMPDEST PUSH1 0x4 DUP9 ADD PUSH2 0x11F8 JUMP JUMPDEST PUSH1 0x0 SWAP1 PUSH1 0x1F DUP4 GT PUSH1 0x1 EQ PUSH2 0x7AB JUMPI PUSH2 0x703 SWAP3 SWAP2 PUSH1 0x0 SWAP2 DUP4 PUSH2 0x7A0 JUMPI JUMPDEST POP POP DUP2 PUSH1 0x1 SHL SWAP2 PUSH1 0x0 NOT SWAP1 PUSH1 0x3 SHL SHR NOT AND OR SWAP1 JUMP JUMPDEST PUSH1 0x4 DUP5 ADD SSTORE JUMPDEST TIMESTAMP PUSH1 0x7 DUP5 ADD SSTORE PUSH1 0xA PUSH2 0x71D PUSH1 0x5 SLOAD TIMESTAMP PUSH2 0x11EB JUMP JUMPDEST SWAP4 DUP5 PUSH1 0x8 DUP3 ADD SSTORE ADD PUSH1 0x1 PUSH1 0xFF NOT DUP3 SLOAD AND OR SWAP1 SSTORE DUP4 PUSH1 0x40 MLOAD SWAP6 PUSH1 0x80 DUP8 MSTORE DUP2 PUSH1 0x80 DUP9 ADD MSTORE PUSH1 0xA0 DUP8 ADD CALLDATACOPY PUSH1 0x0 PUSH1 0xA0 DUP6 DUP8 ADD ADD MSTORE AND DUP6 DUP5 ADD MSTORE TIMESTAMP PUSH1 0x40 DUP5 ADD MSTORE PUSH1 0x60 DUP4 ADD MSTORE PUSH32 0xFCBC93E90DE1F3909139448EEA84876F427C600D8E1706F36918B4C5635C0213 CALLER SWAP3 PUSH1 0xA0 DUP2 PUSH1 0x1 DUP8 ADD SWAP5 PUSH1 0x1F DUP1 NOT SWAP2 ADD AND DUP2 ADD SUB ADD SWAP1 LOG3 PUSH1 0x1 PUSH1 0x40 MLOAD SWAP2 ADD DUP2 MSTORE RETURN JUMPDEST ADD CALLDATALOAD SWAP1 POP DUP11 DUP1 PUSH2 0x6EE JUMP JUMPDEST PUSH1 0x4 DUP7 SWAP4 SWAP3 SWAP4 ADD PUSH1 0x0 MSTORE DUP10 PUSH1 0x0 KECCAK256 SWAP1 PUSH1 0x0 SWAP4 JUMPDEST PUSH1 0x1F NOT DUP5 AND DUP6 LT PUSH2 0x803 JUMPI PUSH1 0x1 SWAP5 POP DUP4 PUSH1 0x1F NOT DUP2 AND LT PUSH2 0x7E9 JUMPI JUMPDEST POP POP POP DUP2 SHL ADD PUSH1 0x4 DUP5 ADD SSTORE PUSH2 0x709 JUMP JUMPDEST ADD CALLDATALOAD PUSH1 0x0 NOT PUSH1 0x3 DUP5 SWAP1 SHL PUSH1 0xF8 AND SHR NOT AND SWAP1 SSTORE DUP10 DUP1 DUP1 PUSH2 0x7D9 JUMP JUMPDEST DUP2 DUP2 ADD CALLDATALOAD DUP4 SSTORE SWAP4 DUP12 ADD SWAP4 PUSH1 0x1 SWAP1 SWAP3 ADD SWAP2 DUP12 ADD PUSH2 0x7BE JUMP JUMPDEST SWAP1 POP DUP9 ADD CALLDATALOAD DUP12 PUSH2 0x676 JUMP JUMPDEST POP PUSH1 0x2 DUP6 ADD PUSH1 0x0 MSTORE PUSH1 0x20 PUSH1 0x0 KECCAK256 SWAP1 PUSH1 0x0 JUMPDEST PUSH1 0x1F NOT DUP9 AND DUP2 LT PUSH2 0x87A JUMPI POP DUP7 PUSH1 0x1F NOT DUP2 AND LT PUSH2 0x860 JUMPI JUMPDEST POP POP PUSH1 0x1 DUP6 DUP2 SHL ADD PUSH1 0x2 DUP6 ADD SSTORE PUSH2 0x690 JUMP JUMPDEST DUP8 ADD CALLDATALOAD PUSH1 0x0 NOT PUSH1 0x3 DUP9 SWAP1 SHL PUSH1 0xF8 AND SHR NOT AND SWAP1 SSTORE DUP9 DUP1 PUSH2 0x84E JUMP JUMPDEST SWAP1 SWAP2 PUSH1 0x20 PUSH1 0x1 DUP2 SWAP3 DUP6 DUP13 ADD CALLDATALOAD DUP2 SSTORE ADD SWAP4 ADD SWAP2 ADD PUSH2 0x836 JUMP JUMPDEST PUSH4 0x4E487B71 PUSH1 0xE0 SHL PUSH1 0x0 MSTORE PUSH1 0x11 PUSH1 0x4 MSTORE PUSH1 0x24 PUSH1 0x0 REVERT JUMPDEST PUSH1 0x40 MLOAD PUSH3 0x461BCD PUSH1 0xE5 SHL DUP2 MSTORE PUSH1 0x20 PUSH1 0x4 DUP3 ADD MSTORE PUSH1 0xE PUSH1 0x24 DUP3 ADD MSTORE PUSH14 0x125B9D985B1A59081D185C99D95D PUSH1 0x92 SHL PUSH1 0x44 DUP3 ADD MSTORE PUSH1 0x64 SWAP1 REVERT JUMPDEST PUSH1 0x40 MLOAD PUSH3 0x461BCD PUSH1 0xE5 SHL DUP2 MSTORE PUSH1 0x20 PUSH1 0x4 DUP3 ADD MSTORE PUSH1 0x18 PUSH1 0x24 DUP3 ADD MSTORE PUSH32 0x42656C6F772070726F706F73616C207468726573686F6C640000000000000000 PUSH1 0x44 DUP3 ADD MSTORE PUSH1 0x64 SWAP1 REVERT JUMPDEST SWAP1 POP PUSH1 0x20 DUP2 RETURNDATASIZE PUSH1 0x20 GT PUSH2 0x94D JUMPI JUMPDEST DUP2 PUSH2 0x93E PUSH1 0x20 SWAP4 DUP4 PUSH2 0x1138 JUMP JUMPDEST DUP2 ADD SUB SLT PUSH2 0x149 JUMPI MLOAD DUP8 PUSH2 0x5E5 JUMP JUMPDEST RETURNDATASIZE SWAP2 POP PUSH2 0x931 JUMP JUMPDEST PUSH1 0x40 MLOAD RETURNDATASIZE PUSH1 0x0 DUP3 RETURNDATACOPY RETURNDATASIZE SWAP1 REVERT JUMPDEST CALLVALUE PUSH2 0x149 JUMPI PUSH1 0x40 CALLDATASIZE PUSH1 0x3 NOT ADD SLT PUSH2 0x149 JUMPI PUSH1 0x24 DUP1 CALLDATALOAD DUP1 ISZERO ISZERO SWAP2 PUSH1 0x4 CALLDATALOAD SWAP2 DUP4 DUP2 SUB PUSH2 0x149 JUMPI DUP3 PUSH1 0x0 MSTORE PUSH1 0x20 SWAP1 PUSH1 0x8 DUP3 MSTORE PUSH1 0x40 PUSH1 0x0 KECCAK256 SWAP1 PUSH1 0xFF PUSH1 0xA DUP4 ADD SLOAD AND PUSH1 0x6 DUP2 LT ISZERO PUSH2 0xB8C JUMPI PUSH1 0x1 SUB PUSH2 0xB52 JUMPI PUSH1 0x8 DUP3 ADD SLOAD TIMESTAMP GT PUSH2 0xB1F JUMPI PUSH1 0xB DUP3 ADD CALLER PUSH1 0x0 MSTORE DUP1 DUP5 MSTORE PUSH1 0xFF PUSH1 0x40 PUSH1 0x0 KECCAK256 SLOAD AND PUSH2 0xAEB JUMPI PUSH1 0x2 SLOAD PUSH1 0x40 MLOAD PUSH4 0x70A08231 PUSH1 0xE0 SHL DUP2 MSTORE CALLER PUSH1 0x4 DUP3 ADD MSTORE SWAP6 SWAP1 DUP6 SWAP1 DUP8 SWAP1 DUP4 SWAP1 DUP3 SWAP1 PUSH1 0x1 PUSH1 0x1 PUSH1 0xA0 SHL SUB AND GAS STATICCALL SWAP6 DUP7 ISZERO PUSH2 0x955 JUMPI PUSH1 0x0 SWAP7 PUSH2 0xABC JUMPI JUMPDEST POP DUP6 ISZERO PUSH2 0xA87 JUMPI POP CALLER PUSH1 0x0 MSTORE DUP4 MSTORE PUSH1 0x40 PUSH1 0x0 KECCAK256 PUSH1 0x1 PUSH1 0xFF NOT DUP3 SLOAD AND OR SWAP1 SSTORE PUSH1 0x0 EQ PUSH2 0xA72 JUMPI PUSH1 0x5 ADD PUSH2 0xA3E DUP4 DUP3 SLOAD PUSH2 0x11EB JUMP JUMPDEST SWAP1 SSTORE JUMPDEST PUSH1 0x40 MLOAD SWAP4 DUP5 MSTORE DUP4 ADD MSTORE PUSH32 0xCBDF6214089CBA887ECBF35A0B6A734589959C9763342C756BB2A80CA2BC9F6E PUSH1 0x40 CALLER SWAP4 LOG3 STOP JUMPDEST PUSH1 0x6 ADD PUSH2 0xA80 DUP4 DUP3 SLOAD PUSH2 0x11EB JUMP JUMPDEST SWAP1 SSTORE PUSH2 0xA41 JUMP JUMPDEST DUP5 PUSH1 0xF PUSH1 0x64 SWAP3 PUSH1 0x40 MLOAD SWAP3 PUSH3 0x461BCD PUSH1 0xE5 SHL DUP5 MSTORE PUSH1 0x4 DUP5 ADD MSTORE DUP3 ADD MSTORE PUSH15 0x2737903B37BA34B733903837BBB2B9 PUSH1 0x89 SHL PUSH1 0x44 DUP3 ADD MSTORE REVERT JUMPDEST SWAP1 SWAP6 POP DUP5 DUP2 DUP2 RETURNDATASIZE DUP4 GT PUSH2 0xAE4 JUMPI JUMPDEST PUSH2 0xAD4 DUP2 DUP4 PUSH2 0x1138 JUMP JUMPDEST DUP2 ADD SUB SLT PUSH2 0x149 JUMPI MLOAD SWAP5 DUP9 PUSH2 0xA0B JUMP JUMPDEST POP RETURNDATASIZE PUSH2 0xACA JUMP JUMPDEST PUSH1 0x40 MLOAD PUSH3 0x461BCD PUSH1 0xE5 SHL DUP2 MSTORE PUSH1 0x4 DUP2 ADD DUP6 SWAP1 MSTORE PUSH1 0xD DUP2 DUP8 ADD MSTORE PUSH13 0x105B1C9958591E481D9BDD1959 PUSH1 0x9A SHL PUSH1 0x44 DUP3 ADD MSTORE PUSH1 0x64 SWAP1 REVERT JUMPDEST PUSH1 0x40 MLOAD PUSH3 0x461BCD PUSH1 0xE5 SHL DUP2 MSTORE PUSH1 0x4 DUP2 ADD DUP5 SWAP1 MSTORE PUSH1 0xC DUP2 DUP7 ADD MSTORE PUSH12 0x159BDD1A5B99C8195B991959 PUSH1 0xA2 SHL PUSH1 0x44 DUP3 ADD MSTORE PUSH1 0x64 SWAP1 REVERT JUMPDEST PUSH1 0x40 MLOAD PUSH3 0x461BCD PUSH1 0xE5 SHL DUP2 MSTORE PUSH1 0x4 DUP2 ADD DUP5 SWAP1 MSTORE PUSH1 0x13 DUP2 DUP7 ADD MSTORE PUSH19 0x50726F706F73616C206E6F7420616374697665 PUSH1 0x68 SHL PUSH1 0x44 DUP3 ADD MSTORE PUSH1 0x64 SWAP1 REVERT JUMPDEST DUP5 PUSH4 0x4E487B71 PUSH1 0xE0 SHL PUSH1 0x0 MSTORE PUSH1 0x21 PUSH1 0x4 MSTORE PUSH1 0x0 REVERT JUMPDEST CALLVALUE PUSH2 0x149 JUMPI PUSH1 0x20 CALLDATASIZE PUSH1 0x3 NOT ADD SLT PUSH2 0x149 JUMPI PUSH2 0xBBA PUSH2 0x124E JUMP JUMPDEST PUSH1 0x4 DUP1 CALLDATALOAD SWAP1 SSTORE STOP JUMPDEST CALLVALUE PUSH2 0x149 JUMPI PUSH1 0x0 CALLDATASIZE PUSH1 0x3 NOT ADD SLT PUSH2 0x149 JUMPI PUSH1 0x20 PUSH1 0x3 SLOAD PUSH1 0x40 MLOAD SWAP1 DUP2 MSTORE RETURN JUMPDEST CALLVALUE PUSH2 0x149 JUMPI PUSH1 0x20 CALLDATASIZE PUSH1 0x3 NOT ADD SLT PUSH2 0x149 JUMPI PUSH1 0x4 CALLDATALOAD PUSH1 0x0 MSTORE PUSH1 0x8 PUSH1 0x20 MSTORE PUSH1 0x20 PUSH1 0xFF PUSH1 0xA PUSH1 0x40 PUSH1 0x0 KECCAK256 ADD SLOAD AND PUSH2 0xC17 PUSH1 0x40 MLOAD DUP1 SWAP3 PUSH2 0x119A JUMP JUMPDEST RETURN JUMPDEST CALLVALUE PUSH2 0x149 JUMPI PUSH1 0x0 CALLDATASIZE PUSH1 0x3 NOT ADD SLT PUSH2 0x149 JUMPI PUSH1 0x1 SLOAD PUSH1 0x40 MLOAD PUSH1 0x1 PUSH1 0x1 PUSH1 0xA0 SHL SUB SWAP1 SWAP2 AND DUP2 MSTORE PUSH1 0x20 SWAP1 RETURN JUMPDEST CALLVALUE PUSH2 0x149 JUMPI PUSH1 0x0 CALLDATASIZE PUSH1 0x3 NOT ADD SLT PUSH2 0x149 JUMPI PUSH1 0x20 PUSH1 0x6 SLOAD PUSH1 0x40 MLOAD SWAP1 DUP2 MSTORE RETURN JUMPDEST CALLVALUE PUSH2 0x149 JUMPI PUSH1 0x0 CALLDATASIZE PUSH1 0x3 NOT ADD SLT PUSH2 0x149 JUMPI PUSH2 0xC79 PUSH2 0x124E JUMP JUMPDEST PUSH1 0x1 DUP1 SLOAD PUSH1 0x1 PUSH1 0x1 PUSH1 0xA0 SHL SUB NOT DUP2 AND SWAP1 SWAP2 SSTORE PUSH1 0x0 SWAP1 PUSH1 0x1 PUSH1 0x1 PUSH1 0xA0 SHL SUB AND PUSH32 0x8BE0079C531659141344CD1FD0A4F28419497F9722A3DAAFE3B4186F6B6457E0 DUP3 DUP1 LOG3 STOP JUMPDEST CALLVALUE PUSH2 0x149 JUMPI PUSH1 0x20 CALLDATASIZE PUSH1 0x3 NOT ADD SLT PUSH2 0x149 JUMPI PUSH1 0x4 CALLDATALOAD PUSH1 0x0 MSTORE PUSH1 0x8 PUSH1 0x20 MSTORE PUSH1 0x40 PUSH1 0x0 KECCAK256 PUSH1 0xA DUP2 ADD DUP1 SLOAD PUSH1 0xFF DUP2 AND PUSH1 0x6 DUP2 LT ISZERO PUSH2 0x37C JUMPI PUSH1 0x1 SUB PUSH2 0xD97 JUMPI PUSH1 0x8 DUP4 ADD SLOAD TIMESTAMP GT ISZERO PUSH2 0xD5F JUMPI PUSH1 0x5 DUP4 ADD SLOAD PUSH1 0x6 DUP5 ADD SLOAD PUSH2 0xD18 DUP2 DUP4 PUSH2 0x11EB JUMP JUMPDEST PUSH1 0x4 SLOAD GT ISZERO SWAP2 DUP3 PUSH2 0xD55 JUMPI JUMPDEST POP POP ISZERO PUSH2 0xD4A JUMPI POP PUSH1 0x3 PUSH1 0xFF NOT DUP3 SLOAD AND OR SWAP1 SSTORE PUSH1 0x9 PUSH2 0xD45 PUSH1 0x6 SLOAD TIMESTAMP PUSH2 0x11EB JUMP JUMPDEST SWAP2 ADD SSTORE STOP JUMPDEST PUSH1 0xFF NOT AND PUSH1 0x2 OR SWAP1 SSTORE STOP JUMPDEST GT SWAP1 POP DUP5 DUP1 PUSH2 0xD24 JUMP JUMPDEST PUSH1 0x40 MLOAD PUSH3 0x461BCD PUSH1 0xE5 SHL DUP2 MSTORE PUSH1 0x20 PUSH1 0x4 DUP3 ADD MSTORE PUSH1 0x10 PUSH1 0x24 DUP3 ADD MSTORE PUSH16 0x159BDD1A5B99C81B9BDD08195B991959 PUSH1 0x82 SHL PUSH1 0x44 DUP3 ADD MSTORE PUSH1 0x64 SWAP1 REVERT JUMPDEST PUSH1 0x40 MLOAD PUSH3 0x461BCD PUSH1 0xE5 SHL DUP2 MSTORE PUSH1 0x20 PUSH1 0x4 DUP3 ADD MSTORE PUSH1 0xA PUSH1 0x24 DUP3 ADD MSTORE PUSH10 0x4E6F7420616374697665 PUSH1 0xB0 SHL PUSH1 0x44 DUP3 ADD MSTORE PUSH1 0x64 SWAP1 REVERT JUMPDEST CALLVALUE PUSH2 0x149 JUMPI PUSH1 0x40 CALLDATASIZE PUSH1 0x3 NOT ADD SLT PUSH2 0x149 JUMPI PUSH2 0xDE2 PUSH2 0x11A7 JUMP JUMPDEST PUSH1 0x4 CALLDATALOAD PUSH1 0x0 MSTORE PUSH1 0x8 PUSH1 0x20 MSTORE PUSH1 0xB PUSH1 0x40 PUSH1 0x0 KECCAK256 ADD SWAP1 PUSH1 0x1 DUP1 PUSH1 0xA0 SHL SUB AND PUSH1 0x0 MSTORE PUSH1 0x20 MSTORE PUSH1 0x20 PUSH1 0xFF PUSH1 0x40 PUSH1 0x0 KECCAK256 SLOAD AND PUSH1 0x40 MLOAD SWAP1 ISZERO ISZERO DUP2 MSTORE RETURN JUMPDEST CALLVALUE PUSH2 0x149 JUMPI PUSH1 0x20 CALLDATASIZE PUSH1 0x3 NOT ADD SLT PUSH2 0x149 JUMPI PUSH1 0x4 CALLDATALOAD PUSH1 0x0 DUP2 DUP2 MSTORE PUSH1 0x8 PUSH1 0x20 MSTORE PUSH1 0x40 SWAP1 KECCAK256 PUSH1 0x1 DUP2 ADD SLOAD CALLER PUSH1 0x1 PUSH1 0x1 PUSH1 0xA0 SHL SUB SWAP2 DUP3 AND EQ SWAP1 DUP2 ISZERO PUSH2 0xF25 JUMPI JUMPDEST POP ISZERO PUSH2 0xEEF JUMPI PUSH1 0xA ADD DUP1 SLOAD PUSH1 0xFF DUP2 AND PUSH1 0x6 DUP2 LT ISZERO PUSH2 0x37C JUMPI PUSH1 0x1 DUP2 EQ SWAP1 DUP2 ISZERO PUSH2 0xEE4 JUMPI JUMPDEST POP ISZERO PUSH2 0xEAF JUMPI PUSH1 0xFF NOT AND PUSH1 0x5 OR SWAP1 SSTORE PUSH32 0x416E669C63D9A3A5E36EE7CC7E2104B8DB28CCD286AA18966E98FA230C73B08C PUSH1 0x0 DUP1 LOG2 STOP JUMPDEST PUSH1 0x40 MLOAD PUSH3 0x461BCD PUSH1 0xE5 SHL DUP2 MSTORE PUSH1 0x20 PUSH1 0x4 DUP3 ADD MSTORE PUSH1 0xD PUSH1 0x24 DUP3 ADD MSTORE PUSH13 0x10D85B9B9BDD0818D85B98D95B PUSH1 0x9A SHL PUSH1 0x44 DUP3 ADD MSTORE PUSH1 0x64 SWAP1 REVERT JUMPDEST PUSH1 0x3 SWAP2 POP EQ DUP5 PUSH2 0xE79 JUMP JUMPDEST PUSH1 0x40 MLOAD PUSH3 0x461BCD PUSH1 0xE5 SHL DUP2 MSTORE PUSH1 0x20 PUSH1 0x4 DUP3 ADD MSTORE PUSH1 0xE PUSH1 0x24 DUP3 ADD MSTORE PUSH14 0x139BDD08185D5D1A1BDC9A5E9959 PUSH1 0x92 SHL PUSH1 0x44 DUP3 ADD MSTORE PUSH1 0x64 SWAP1 REVERT JUMPDEST SWAP1 POP PUSH1 0x1 SLOAD AND CALLER EQ DUP4 PUSH2 0xE55 JUMP JUMPDEST CALLVALUE PUSH2 0x149 JUMPI PUSH1 0x0 CALLDATASIZE PUSH1 0x3 NOT ADD SLT PUSH2 0x149 JUMPI PUSH1 0x20 PUSH1 0x4 SLOAD PUSH1 0x40 MLOAD SWAP1 DUP2 MSTORE RETURN JUMPDEST CALLVALUE PUSH2 0x149 JUMPI PUSH1 0x0 CALLDATASIZE PUSH1 0x3 NOT ADD SLT PUSH2 0x149 JUMPI PUSH1 0x20 PUSH1 0x5 SLOAD PUSH1 0x40 MLOAD SWAP1 DUP2 MSTORE RETURN JUMPDEST CALLVALUE PUSH2 0x149 JUMPI PUSH1 0x20 CALLDATASIZE PUSH1 0x3 NOT ADD SLT PUSH2 0x149 JUMPI PUSH1 0x4 CALLDATALOAD PUSH1 0x0 MSTORE PUSH1 0x8 PUSH1 0x20 MSTORE PUSH1 0x40 DUP1 PUSH1 0x0 KECCAK256 SWAP2 PUSH2 0x1064 DUP4 SLOAD SWAP4 PUSH1 0x1 DUP1 PUSH1 0xA0 SHL SUB SWAP1 DUP2 PUSH1 0x1 DUP3 ADD SLOAD AND SWAP2 PUSH2 0xFC0 DUP6 PUSH2 0xFB9 DUP2 PUSH1 0x2 DUP7 ADD PUSH2 0x10A2 JUMP JUMPDEST SUB DUP7 PUSH2 0x1138 JUMP JUMPDEST PUSH1 0x3 DUP3 ADD SLOAD AND SWAP4 DUP6 MLOAD PUSH2 0xFE1 DUP2 PUSH2 0xFDA DUP2 PUSH1 0x4 DUP8 ADD PUSH2 0x10A2 JUMP JUMPDEST SUB DUP3 PUSH2 0x1138 JUMP JUMPDEST PUSH1 0x5 DUP4 ADD SLOAD SWAP6 PUSH2 0x103D PUSH1 0x6 DUP6 ADD SLOAD SWAP2 PUSH1 0x7 DUP7 ADD SLOAD SWAP4 PUSH2 0x102A PUSH1 0x8 DUP9 ADD SLOAD SWAP7 PUSH1 0xFF PUSH1 0xA PUSH1 0x9 DUP12 ADD SLOAD SWAP11 ADD SLOAD AND SWAP10 DUP14 MLOAD SWAP15 DUP16 SWAP15 DUP16 PUSH2 0x160 SWAP4 DUP5 SWAP4 DUP3 MSTORE PUSH1 0x20 DUP3 ADD MSTORE ADD MSTORE DUP14 ADD SWAP1 PUSH2 0x115A JUMP JUMPDEST SWAP2 PUSH1 0x60 DUP13 ADD MSTORE DUP11 DUP3 SUB PUSH1 0x80 DUP13 ADD MSTORE PUSH2 0x115A JUMP JUMPDEST SWAP7 PUSH1 0xA0 DUP10 ADD MSTORE PUSH1 0xC0 DUP9 ADD MSTORE PUSH1 0xE0 DUP8 ADD MSTORE PUSH2 0x100 DUP7 ADD MSTORE PUSH2 0x120 DUP6 ADD MSTORE PUSH2 0x140 DUP5 ADD SWAP1 PUSH2 0x119A JUMP JUMPDEST SUB SWAP1 RETURN JUMPDEST SWAP1 PUSH1 0x1 DUP3 DUP2 SHR SWAP3 AND DUP1 ISZERO PUSH2 0x1098 JUMPI JUMPDEST PUSH1 0x20 DUP4 LT EQ PUSH2 0x1082 JUMPI JUMP JUMPDEST PUSH4 0x4E487B71 PUSH1 0xE0 SHL PUSH1 0x0 MSTORE PUSH1 0x22 PUSH1 0x4 MSTORE PUSH1 0x24 PUSH1 0x0 REVERT JUMPDEST SWAP2 PUSH1 0x7F AND SWAP2 PUSH2 0x1077 JUMP JUMPDEST DUP1 SLOAD PUSH1 0x0 SWAP4 SWAP3 PUSH2 0x10B1 DUP3 PUSH2 0x1068 JUMP JUMPDEST SWAP2 DUP3 DUP3 MSTORE PUSH1 0x20 SWAP4 PUSH1 0x1 SWAP2 PUSH1 0x1 DUP2 AND SWAP1 DUP2 PUSH1 0x0 EQ PUSH2 0x1119 JUMPI POP PUSH1 0x1 EQ PUSH2 0x10D8 JUMPI JUMPDEST POP POP POP POP POP JUMP JUMPDEST SWAP1 SWAP4 SWAP5 SWAP6 POP PUSH1 0x0 SWAP3 SWAP2 SWAP3 MSTORE DUP4 PUSH1 0x0 KECCAK256 SWAP3 DUP5 PUSH1 0x0 SWAP5 JUMPDEST DUP4 DUP7 LT PUSH2 0x1105 JUMPI POP POP POP POP ADD ADD SWAP1 CODESIZE DUP1 DUP1 DUP1 DUP1 PUSH2 0x10D1 JUMP JUMPDEST DUP1 SLOAD DUP6 DUP8 ADD DUP4 ADD MSTORE SWAP5 ADD SWAP4 DUP6 SWAP1 DUP3 ADD PUSH2 0x10ED JUMP JUMPDEST PUSH1 0xFF NOT AND DUP7 DUP6 ADD MSTORE POP POP POP SWAP1 ISZERO ISZERO PUSH1 0x5 SHL ADD ADD SWAP2 POP CODESIZE DUP1 DUP1 DUP1 DUP1 PUSH2 0x10D1 JUMP JUMPDEST SWAP1 PUSH1 0x1F DUP1 NOT SWAP2 ADD AND DUP2 ADD SWAP1 DUP2 LT PUSH8 0xFFFFFFFFFFFFFFFF DUP3 GT OR PUSH2 0x29E JUMPI PUSH1 0x40 MSTORE JUMP JUMPDEST SWAP2 SWAP1 DUP3 MLOAD SWAP3 DUP4 DUP3 MSTORE PUSH1 0x0 JUMPDEST DUP5 DUP2 LT PUSH2 0x1186 JUMPI POP POP DUP3 PUSH1 0x0 PUSH1 0x20 DUP1 SWAP5 SWAP6 DUP5 ADD ADD MSTORE PUSH1 0x1F DUP1 NOT SWAP2 ADD AND ADD ADD SWAP1 JUMP JUMPDEST PUSH1 0x20 DUP2 DUP4 ADD DUP2 ADD MLOAD DUP5 DUP4 ADD DUP3 ADD MSTORE ADD PUSH2 0x1165 JUMP JUMPDEST SWAP1 PUSH1 0x6 DUP3 LT ISZERO PUSH2 0x37C JUMPI MSTORE JUMP JUMPDEST PUSH1 0x24 CALLDATALOAD SWAP1 PUSH1 0x1 PUSH1 0x1 PUSH1 0xA0 SHL SUB DUP3 AND DUP3 SUB PUSH2 0x149 JUMPI JUMP JUMPDEST SWAP2 DUP2 PUSH1 0x1F DUP5 ADD SLT ISZERO PUSH2 0x149 JUMPI DUP3 CALLDATALOAD SWAP2 PUSH8 0xFFFFFFFFFFFFFFFF DUP4 GT PUSH2 0x149 JUMPI PUSH1 0x20 DUP4 DUP2 DUP7 ADD SWAP6 ADD ADD GT PUSH2 0x149 JUMPI JUMP JUMPDEST SWAP2 SWAP1 DUP3 ADD DUP1 SWAP3 GT PUSH2 0x892 JUMPI JUMP JUMPDEST SWAP1 PUSH1 0x1F DUP2 GT PUSH2 0x1206 JUMPI POP POP POP JUMP JUMPDEST PUSH1 0x0 SWAP2 PUSH1 0x0 MSTORE PUSH1 0x20 PUSH1 0x0 KECCAK256 SWAP1 PUSH1 0x20 PUSH1 0x1F DUP6 ADD PUSH1 0x5 SHR DUP4 ADD SWAP5 LT PUSH2 0x1244 JUMPI JUMPDEST PUSH1 0x1F ADD PUSH1 0x5 SHR ADD SWAP2 JUMPDEST DUP3 DUP2 LT PUSH2 0x1239 JUMPI POP POP POP JUMP JUMPDEST DUP2 DUP2 SSTORE PUSH1 0x1 ADD PUSH2 0x122D JUMP JUMPDEST SWAP1 SWAP3 POP DUP3 SWAP1 PUSH2 0x1224 JUMP JUMPDEST PUSH1 0x1 SLOAD PUSH1 0x1 PUSH1 0x1 PUSH1 0xA0 SHL SUB AND CALLER SUB PUSH2 0x1262 JUMPI JUMP JUMPDEST PUSH1 0x64 PUSH1 0x40 MLOAD PUSH3 0x461BCD PUSH1 0xE5 SHL DUP2 MSTORE PUSH1 0x20 PUSH1 0x4 DUP3 ADD MSTORE PUSH1 0x20 PUSH1 0x24 DUP3 ADD MSTORE PUSH32 0x4F776E61626C653A2063616C6C6572206973206E6F7420746865206F776E6572 PUSH1 0x44 DUP3 ADD MSTORE REVERT INVALID LOG2 PUSH5 0x6970667358 0x22 SLT KECCAK256 SLOAD 0xA6 PUSH5 0x6E440A6C6E 0xDF SIGNEXTEND CALLDATALOAD SWAP10 DELEGATECALL 0x25 BASEFEE SWAP2 0xF9 KECCAK256 PUSH5 0x2E44BFC881 PREVRANDAO 0xA9 MULMOD 0xEF SHL SHL LOG2 0x27 PUSH5 0x736F6C6343 STOP ADDMOD XOR STOP CALLER "},"methodIdentifiers":{"cancel(uint256)":"40e58ee5","execute(uint256)":"fe0d94c1","executionDelay()":"8b257989","finalizeVoting(uint256)":"49444831","getProposalState(uint256)":"9080936f","getVotes(uint256)":"ff981099","hasVoted(uint256,address)":"43859632","mdtToken()":"f70b5c06","owner()":"8da5cb5b","proposalCount()":"da35c664","proposalThreshold()":"b58131b0","proposals(uint256)":"013cf08b","propose(string,address,bytes)":"d54a0ea6","quorum()":"1703a018","renounceOwnership()":"715018a6","setExecutionDelay(uint256)":"e4917d9f","setProposalThreshold(uint256)":"ece40cc1","setQuorum(uint256)":"c1ba4e59","setVotingPeriod(uint256)":"ea0217cf","transferOwnership(address)":"f2fde38b","vote(uint256,bool)":"c9d27afe","votingPeriod()":"02a251a3"}}}}}