{"src/Test.sol":{"Test":{"abi":[{"inputs":[],"stateMutability":"nonpayable","type":"constructor"},{"inputs":[],"name":"val","outputs":[{"internalType":"uint256","name":"","type":"uint256"}],"stateMutability":"view","type":"function"}],"evm":{"bytecode":{"linkReferences":{},"object":"60808060405234601957607b6000556078908161001f8239f35b600080fdfe6080806040526004361015601257600080fd5b600090813560e01c633c6bb43614602857600080fd5b34603e5781600319360112603e57602091548152f35b5080fdfea2646970667358221220666ae1cca88e9b0e8e148147da5498ebdd9d0b95b9309ccafbf1f6d1246100fa64736f6c63430008180033","opcodes":"PUSH1 0x80 DUP1 PUSH1 0x40 MSTORE CALLVALUE PUSH1 0x19 JUMPI PUSH1 0x7B PUSH1 0x0 SSTORE PUSH1 0x78 SWAP1 DUP2 PUSH2 0x1F DUP3 CODECOPY RETURN JUMPDEST PUSH1 0x0 DUP1 REVERT INVALID PUSH1 0x80 DUP1 PUSH1 0x40 MSTORE PUSH1 0x4 CALLDATASIZE LT ISZERO PUSH1 0x12 JUMPI PUSH1 0x0 DUP1 REVERT JUMPDEST PUSH1 0x0 SWAP1 DUP2 CALLDATALOAD PUSH1 0xE0 SHR PUSH4 0x3C6BB436 EQ PUSH1 0x28 JUMPI PUSH1 0x0 DUP1 REVERT JUMPDEST CALLVALUE PUSH1 0x3E JUMPI DUP2 PUSH1 0x3 NOT CALLDATASIZE ADD SLT PUSH1 0x3E JUMPI PUSH1 0x20 SWAP2 SLOAD DUP2 MSTORE RETURN JUMPDEST POP DUP1 REVERT INVALID LOG2 PUSH5 0x6970667358 0x22 SLT KECCAK256 PUSH7 0x6AE1CCA88E9B0E DUP15 EQ DUP2 SELFBALANCE 0xDA SLOAD SWAP9 0xEB 0xDD SWAP14 SIGNEXTEND SWAP6 0xB9 ADDRESS SWAP13 0xCA 0xFB CALL 0xF6 0xD1 0x24 PUSH2 0xFA PUSH5 0x736F6C6343 STOP ADDMOD XOR STOP CALLER "},"methodIdentifiers":{"val()":"3c6bb436"}}}}}