{"src/SubnetRegistry.sol":{"SubnetRegistry":{"abi":[{"inputs":[{"internalType":"address","name":"_mdtToken","type":"address"},{"internalType":"address","name":"_treasury","type":"address"}],"stateMutability":"nonpayable","type":"constructor"},{"anonymous":false,"inputs":[{"indexed":true,"internalType":"uint256","name":"subnetId","type":"uint256"},{"indexed":true,"internalType":"address","name":"miner","type":"address"}],"name":"MinerRegistered","type":"event"},{"anonymous":false,"inputs":[{"indexed":true,"internalType":"address","name":"previousOwner","type":"address"},{"indexed":true,"internalType":"address","name":"newOwner","type":"address"}],"name":"OwnershipTransferred","type":"event"},{"anonymous":false,"inputs":[{"indexed":false,"internalType":"address","name":"account","type":"address"}],"name":"Paused","type":"event"},{"anonymous":false,"inputs":[{"indexed":true,"internalType":"address","name":"to","type":"address"},{"indexed":false,"internalType":"uint256","name":"amount","type":"uint256"}],"name":"ProtocolFeesWithdrawn","type":"event"},{"anonymous":false,"inputs":[{"indexed":true,"internalType":"uint256","name":"subnetId","type":"uint256"},{"indexed":false,"internalType":"string","name":"name","type":"string"},{"indexed":true,"internalType":"address","name":"owner","type":"address"},{"indexed":false,"internalType":"uint256","name":"feeRate","type":"uint256"}],"name":"SubnetCreated","type":"event"},{"anonymous":false,"inputs":[{"indexed":true,"internalType":"uint256","name":"subnetId","type":"uint256"},{"indexed":false,"internalType":"uint256","name":"newFeeRate","type":"uint256"},{"indexed":false,"internalType":"enum SubnetRegistry.SubnetStatus","name":"newStatus","type":"uint8"}],"name":"SubnetUpdated","type":"event"},{"anonymous":false,"inputs":[{"indexed":true,"internalType":"uint256","name":"taskId","type":"uint256"},{"indexed":true,"internalType":"uint256","name":"subnetId","type":"uint256"},{"indexed":true,"internalType":"address","name":"winner","type":"address"},{"indexed":false,"internalType":"uint256","name":"minerReward","type":"uint256"},{"indexed":false,"internalType":"uint256","name":"protocolFee","type":"uint256"},{"indexed":false,"internalType":"uint256","name":"subnetFee","type":"uint256"}],"name":"TaskCompleted","type":"event"},{"anonymous":false,"inputs":[{"indexed":true,"internalType":"uint256","name":"taskId","type":"uint256"},{"indexed":true,"internalType":"uint256","name":"subnetId","type":"uint256"},{"indexed":true,"internalType":"address","name":"requester","type":"address"},{"indexed":false,"internalType":"uint256","name":"rewardAmount","type":"uint256"}],"name":"TaskCreated","type":"event"},{"anonymous":false,"inputs":[{"indexed":false,"internalType":"address","name":"account","type":"address"}],"name":"Unpaused","type":"event"},{"inputs":[],"name":"MAX_SUBNET_FEE_RATE","outputs":[{"internalType":"uint256","name":"","type":"uint256"}],"stateMutability":"view","type":"function"},{"inputs":[],"name":"PROTOCOL_FEE_RATE","outputs":[{"internalType":"uint256","name":"","type":"uint256"}],"stateMutability":"view","type":"function"},{"inputs":[],"name":"SUBNET_REGISTRATION_COST","outputs":[{"internalType":"uint256","name":"","type":"uint256"}],"stateMutability":"view","type":"function"},{"inputs":[{"internalType":"uint256","name":"subnetId","type":"uint256"},{"internalType":"address","name":"validator","type":"address"}],"name":"addValidator","outputs":[],"stateMutability":"nonpayable","type":"function"},{"inputs":[{"internalType":"uint256","name":"subnetId","type":"uint256"},{"internalType":"string","name":"taskHash","type":"string"},{"internalType":"uint256","name":"rewardAmount","type":"uint256"},{"internalType":"uint256","name":"duration","type":"uint256"}],"name":"createTask","outputs":[{"internalType":"uint256","name":"taskId","type":"uint256"}],"stateMutability":"nonpayable","type":"function"},{"inputs":[{"internalType":"uint256","name":"taskId","type":"uint256"}],"name":"finalizeTask","outputs":[],"stateMutability":"nonpayable","type":"function"},{"inputs":[],"name":"getActiveSubnetCount","outputs":[{"internalType":"uint256","name":"count","type":"uint256"}],"stateMutability":"view","type":"function"},{"inputs":[{"internalType":"uint256","name":"taskId","type":"uint256"}],"name":"getSubmissions","outputs":[{"components":[{"internalType":"address","name":"miner","type":"address"},{"internalType":"string","name":"resultHash","type":"string"},{"internalType":"uint256","name":"score","type":"uint256"},{"internalType":"bool","name":"validated","type":"bool"},{"internalType":"uint256","name":"submittedAt","type":"uint256"}],"internalType":"struct SubnetRegistry.MinerSubmission[]","name":"","type":"tuple[]"}],"stateMutability":"view","type":"function"},{"inputs":[{"internalType":"uint256","name":"subnetId","type":"uint256"}],"name":"getSubnet","outputs":[{"components":[{"internalType":"uint256","name":"id","type":"uint256"},{"internalType":"string","name":"name","type":"string"},{"internalType":"string","name":"description","type":"string"},{"internalType":"address","name":"owner","type":"address"},{"internalType":"uint256","name":"feeRate","type":"uint256"},{"internalType":"uint256","name":"minTaskReward","type":"uint256"},{"internalType":"uint256","name":"totalVolume","type":"uint256"},{"internalType":"uint256","name":"totalTasks","type":"uint256"},{"internalType":"uint256","name":"activeMiners","type":"uint256"},{"internalType":"enum SubnetRegistry.SubnetStatus","name":"status","type":"uint8"},{"internalType":"uint256","name":"createdAt","type":"uint256"}],"internalType":"struct SubnetRegistry.Subnet","name":"","type":"tuple"}],"stateMutability":"view","type":"function"},{"inputs":[{"internalType":"uint256","name":"taskId","type":"uint256"}],"name":"getTask","outputs":[{"components":[{"internalType":"uint256","name":"id","type":"uint256"},{"internalType":"uint256","name":"subnetId","type":"uint256"},{"internalType":"address","name":"requester","type":"address"},{"internalType":"string","name":"taskHash","type":"string"},{"internalType":"uint256","name":"rewardAmount","type":"uint256"},{"internalType":"uint256","name":"protocolFee","type":"uint256"},{"internalType":"uint256","name":"subnetFee","type":"uint256"},{"internalType":"uint256","name":"deadline","type":"uint256"},{"internalType":"enum SubnetRegistry.TaskStatus","name":"status","type":"uint8"},{"internalType":"address","name":"winningMiner","type":"address"},{"internalType":"uint256","name":"winningScore","type":"uint256"},{"internalType":"uint256","name":"createdAt","type":"uint256"}],"internalType":"struct SubnetRegistry.Task","name":"","type":"tuple"}],"stateMutability":"view","type":"function"},{"inputs":[{"internalType":"uint256","name":"subnetId","type":"uint256"},{"internalType":"address","name":"miner","type":"address"}],"name":"isMiner","outputs":[{"internalType":"bool","name":"","type":"bool"}],"stateMutability":"view","type":"function"},{"inputs":[],"name":"mdtToken","outputs":[{"internalType":"contract IERC20","name":"","type":"address"}],"stateMutability":"view","type":"function"},{"inputs":[],"name":"owner","outputs":[{"internalType":"address","name":"","type":"address"}],"stateMutability":"view","type":"function"},{"inputs":[],"name":"paused","outputs":[{"internalType":"bool","name":"","type":"bool"}],"stateMutability":"view","type":"function"},{"inputs":[],"name":"protocolTreasury","outputs":[{"internalType":"address","name":"","type":"address"}],"stateMutability":"view","type":"function"},{"inputs":[{"internalType":"uint256","name":"subnetId","type":"uint256"}],"name":"registerMiner","outputs":[],"stateMutability":"nonpayable","type":"function"},{"inputs":[{"internalType":"string","name":"name","type":"string"},{"internalType":"string","name":"description","type":"string"},{"internalType":"uint256","name":"feeRate","type":"uint256"}],"name":"registerSubnet","outputs":[{"internalType":"uint256","name":"subnetId","type":"uint256"}],"stateMutability":"nonpayable","type":"function"},{"inputs":[],"name":"renounceOwnership","outputs":[],"stateMutability":"nonpayable","type":"function"},{"inputs":[{"internalType":"address","name":"newTreasury","type":"address"}],"name":"setProtocolTreasury","outputs":[],"stateMutability":"nonpayable","type":"function"},{"inputs":[{"internalType":"uint256","name":"taskId","type":"uint256"},{"internalType":"string","name":"resultHash","type":"string"}],"name":"submitResult","outputs":[],"stateMutability":"nonpayable","type":"function"},{"inputs":[],"name":"subnetCount","outputs":[{"internalType":"uint256","name":"","type":"uint256"}],"stateMutability":"view","type":"function"},{"inputs":[{"internalType":"uint256","name":"","type":"uint256"}],"name":"subnetMinerCount","outputs":[{"internalType":"uint256","name":"","type":"uint256"}],"stateMutability":"view","type":"function"},{"inputs":[{"internalType":"uint256","name":"","type":"uint256"},{"internalType":"address","name":"","type":"address"}],"name":"subnetMiners","outputs":[{"internalType":"bool","name":"","type":"bool"}],"stateMutability":"view","type":"function"},{"inputs":[{"internalType":"uint256","name":"","type":"uint256"},{"internalType":"address","name":"","type":"address"}],"name":"subnetValidators","outputs":[{"internalType":"bool","name":"","type":"bool"}],"stateMutability":"view","type":"function"},{"inputs":[{"internalType":"uint256","name":"","type":"uint256"}],"name":"subnets","outputs":[{"internalType":"uint256","name":"id","type":"uint256"},{"internalType":"string","name":"name","type":"string"},{"internalType":"string","name":"description","type":"string"},{"internalType":"address","name":"owner","type":"address"},{"internalType":"uint256","name":"feeRate","type":"uint256"},{"internalType":"uint256","name":"minTaskReward","type":"uint256"},{"internalType":"uint256","name":"totalVolume","type":"uint256"},{"internalType":"uint256","name":"totalTasks","type":"uint256"},{"internalType":"uint256","name":"activeMiners","type":"uint256"},{"internalType":"enum SubnetRegistry.SubnetStatus","name":"status","type":"uint8"},{"internalType":"uint256","name":"createdAt","type":"uint256"}],"stateMutability":"view","type":"function"},{"inputs":[{"internalType":"uint256","name":"","type":"uint256"},{"internalType":"uint256","name":"","type":"uint256"}],"name":"taskSubmissions","outputs":[{"internalType":"address","name":"miner","type":"address"},{"internalType":"string","name":"resultHash","type":"string"},{"internalType":"uint256","name":"score","type":"uint256"},{"internalType":"bool","name":"validated","type":"bool"},{"internalType":"uint256","name":"submittedAt","type":"uint256"}],"stateMutability":"view","type":"function"},{"inputs":[{"internalType":"uint256","name":"","type":"uint256"}],"name":"tasks","outputs":[{"internalType":"uint256","name":"id","type":"uint256"},{"internalType":"uint256","name":"subnetId","type":"uint256"},{"internalType":"address","name":"requester","type":"address"},{"internalType":"string","name":"taskHash","type":"string"},{"internalType":"uint256","name":"rewardAmount","type":"uint256"},{"internalType":"uint256","name":"protocolFee","type":"uint256"},{"internalType":"uint256","name":"subnetFee","type":"uint256"},{"internalType":"uint256","name":"deadline","type":"uint256"},{"internalType":"enum SubnetRegistry.TaskStatus","name":"status","type":"uint8"},{"internalType":"address","name":"winningMiner","type":"address"},{"internalType":"uint256","name":"winningScore","type":"uint256"},{"internalType":"uint256","name":"createdAt","type":"uint256"}],"stateMutability":"view","type":"function"},{"inputs":[],"name":"totalProtocolFees","outputs":[{"internalType":"uint256","name":"","type":"uint256"}],"stateMutability":"view","type":"function"},{"inputs":[{"internalType":"address","name":"newOwner","type":"address"}],"name":"transferOwnership","outputs":[],"stateMutability":"nonpayable","type":"function"},{"inputs":[{"internalType":"uint256","name":"subnetId","type":"uint256"},{"internalType":"uint256","name":"newFeeRate","type":"uint256"},{"internalType":"enum SubnetRegistry.SubnetStatus","name":"newStatus","type":"uint8"}],"name":"updateSubnet","outputs":[],"stateMutability":"nonpayable","type":"function"},{"inputs":[{"internalType":"uint256","name":"taskId","type":"uint256"},{"internalType":"uint256","name":"submissionIndex","type":"uint256"},{"internalType":"uint256","name":"score","type":"uint256"}],"name":"validateSubmission","outputs":[],"stateMutability":"nonpayable","type":"function"},{"inputs":[],"name":"withdrawProtocolFees","outputs":[],"stateMutability":"nonpayable","type":"function"}],"evm":{"bytecode":{"linkReferences":{},"object":"6080346200067457601f62002d4e38819003918201601f19168301916001600160401b03831184841017620004f857808492604094855283398101031262000674576200005a6020620000528362000699565b920162000699565b600160005560015491604051923360018060a01b0382167f8be0079c531659141344cd1fd0a4f28419497f9722a3daafe3b4186f6b6457e0600080a36001600160a81b0319163360ff60a01b1916176001556001600160a01b03169182156200064257506001600160a01b03169081156200060a5760018060a01b0319600254161760025560018060a01b03196005541617600555620000f962000679565b601481527f47656e6572616c20496e74656c6c6967656e636500000000000000000000000060208201526200012d62000679565b602081527f546578742c20436f64652c20616e642047656e6572616c204149205461736b736020820152600354906000198214620005f45760018201600355604051906001600160401b03610160830190811190831117620004f857610160820160405282825283602083015260408201523360608201526101f460808201526305f5e10060a0820152600060c0820152600060e0820152600061010082015260006101208201524261014082015281600052600760205260406000209080518255602081015180519060018060401b038211620004f857600184015490600182811c92168015620005e9575b6020831014620004d75781601f84931162000591575b50602090601f83116001146200051a576000926200050e575b50508160011b916000199060031b1c19161760018301555b60408101518051906001600160401b038211620004f857600284015490600182811c92168015620004ed575b6020831014620004d75781601f8493116200047f575b50602090601f83116001146200040857600092620003fc575b50508160011b916000199060031b1c19161760028301555b6060810151600383810180546001600160a01b0319166001600160a01b0393909316929092179091556080820151600484015560a0820151600584015560c0820151600684015560e08201516007840155610100820151600884015561012082015160098401929091821015620003e657600a926101409260ff8019835416911617905501519101556040516040815282519283604083015260005b848110620003cf5750508060006060857f8e46dcab88334408205dfdff058de646a02ab7fddb35b9923e924e49ce505c30940101526101f460208201526060813395601f80199101168101030190a360405161269f9081620006af8239f35b806020809284010151606082860101520162000370565b634e487b7160e01b600052602160045260246000fd5b015190503880620002bc565b9250600285016000526020600020906000935b601f198416851062000463576001945083601f1981161062000449575b505050811b016002830155620002d4565b015160001960f88460031b161c1916905538808062000438565b818101518355602094850194600190930192909101906200041b565b909150600285016000526020600020601f840160051c810160208510620004cf575b90849392915b601f830160051c82018110620004bf575050620002a3565b60008155859450600101620004a7565b5080620004a1565b634e487b7160e01b600052602260045260246000fd5b91607f16916200028d565b634e487b7160e01b600052604160045260246000fd5b01519050388062000249565b9250600185016000526020600020906000935b601f198416851062000575576001945083601f198116106200055b575b505050811b01600183015562000261565b015160001960f88460031b161c191690553880806200054a565b818101518355602094850194600190930192909101906200052d565b909150600185016000526020600020601f840160051c810160208510620005e1575b90849392915b601f830160051c82018110620005d157505062000230565b60008155859450600101620005b9565b5080620005b3565b91607f16916200021a565b634e487b7160e01b600052601160045260246000fd5b60405162461bcd60e51b815260206004820152601060248201526f496e76616c696420747265617375727960801b6044820152606490fd5b62461bcd60e51b815260206004820152600d60248201526c24b73b30b634b2103a37b5b2b760991b6044820152606490fd5b600080fd5b60408051919082016001600160401b03811183821017620004f857604052565b51906001600160a01b0382168203620006745756fe608080604052600436101561001357600080fd5b60003560e01c908163072f4fc014612005575080630c5a61f814611f8657806310f0dde414611f6a57806316c53ced14611e0d5780631d65e77e14611c3a5780632fa70f4814611c0e578063475726f714611b355780634af9398814611b185780634b56175314611a6257806353eea875146119cc57806358ca7504146118125780635c975abb146117ec5780635cc9bca9146113a45780636f5474bf1461128d578063715018a6146112305780637b61748214611156578063803db96d1461112d5780638795cccb1461109357806388488c3314610efe5780638c0a4a0514610a155780638c0dd79a14610b605780638d97767214610a8b5780638da5cb5b14610a625780638ee9f6dc14610a15578063916a5c5b146109f7578063927229c614610530578063a3be1eab146104e3578063b7ee5eda14610310578063c6a1a01a1461028f578063f2fde38b146101cb578063f526e39a146101ad5763f70b5c061461017f57600080fd5b346101a85760003660031901126101a8576002546040516001600160a01b039091168152602090f35b600080fd5b346101a85760003660031901126101a8576020600654604051908152f35b346101a85760203660031901126101a8576101e4612023565b6101ec61235c565b6001600160a01b0390811690811561023b57600154826001600160601b0360a01b821617600155167f8be0079c531659141344cd1fd0a4f28419497f9722a3daafe3b4186f6b6457e0600080a3005b60405162461bcd60e51b815260206004820152602660248201527f4f776e61626c653a206e6577206f776e657220697320746865207a65726f206160448201526564647265737360d01b6064820152608490fd5b346101a85760003660031901126101a85760038054600090815b8181106102bb57602083604051908152f35b80600052600760205260ff60096040600020015416848110156102fa57156102e6575b6001016102a9565b916102f26001916122a8565b9290506102de565b634e487b7160e01b600052602160045260246000fd5b346101a85760603660031901126101a8576004356024906044359181600052602060088152604060002090600882019360ff85541660068110156104ce57600203610495576001830154600052600a8252604060002033600052825260ff604060002054161561045f57612710861161042b5760005260098152610399833560406000206121fc565b5092600384019182549160ff83166103f45750506002840186905560ff19166001179055600901805490939081116103cd57005b90925590548154610100600160a81b03191660089190911b610100600160a81b0316179055005b9060116064926040519262461bcd60e51b8452600484015282015270105b1c9958591e481d985b1a59185d1959607a1b6044820152fd5b60405162461bcd60e51b815260048101839052600d818601526c496e76616c69642073636f726560981b6044820152606490fd5b60405162461bcd60e51b815260048101839052600f818601526e2737ba1030903b30b634b230ba37b960891b6044820152606490fd5b60405162461bcd60e51b815260048101839052601281860152714e6f742070656e64696e672072657669657760701b6044820152606490fd5b84634e487b7160e01b60005260216004526000fd5b346101a85760403660031901126101a8576104fc612039565b600435600052600a60205260406000209060018060a01b0316600052602052602060ff604060002054166040519015158152f35b346101a85760603660031901126101a8576004356001600160401b0381116101a85761056090369060040161222e565b906024356001600160401b0381116101a85761058090369060040161222e565b926105896123b4565b61059161240a565b80156109c55761060992610601916105af6107d06044351115612309565b6002546040516323b872dd60e01b602082015233602482015230604482015264e8d4a5100060648083019190915281526105fa916001600160a01b03166105f5826120d6565b61249c565b36916122d2565b9236916122d2565b9060035490610617826122a8565b600355604051926106278461210d565b828452816020850152604084015233606084015260443560808401526305f5e10060a0840152600060c0840152600060e0840152600061010084015260006101208401524261014084015281600052600760205260406000208351815560208401518051906001600160401b0382116108df5781906106a9600185015461209c565b601f8111610972575b50602090601f8311600114610900576000926108f5575b50508160011b916000199060031b1c19161760018201555b60408401518051906001600160401b0382116108df578190610706600285015461209c565b601f811161088c575b50602090601f831160011461081a5760009261080f575b50508160011b916000199060031b1c19161760028201555b6003810160018060a01b036060860151166001600160601b0360a01b8254161790556080840151600482015560a0840151600582015560c0840151600682015560e0840151600782015561010084015160088201556101208401519360038510156102fa57610140600a916107b860209760098601612344565b0151910155817f8e46dcab88334408205dfdff058de646a02ab7fddb35b9923e924e49ce505c306107f46040519360408552604085019061204f565b92604435868201528033940390a36001600055604051908152f35b015190508680610726565b9250600284016000526020600020906000935b601f1984168510610871576001945083601f19811610610858575b505050811b01600282015561073e565b015160001960f88460031b161c19169055868080610848565b8181015183556020948501946001909301929091019061082d565b909150600284016000526020600020601f840160051c8101602085106108d8575b90849392915b601f830160051c820181106108c957505061070f565b600081558594506001016108b3565b50806108ad565b634e487b7160e01b600052604160045260246000fd5b0151905086806106c9565b9250600184016000526020600020906000935b601f1984168510610957576001945083601f1981161061093e575b505050811b0160018201556106e1565b015160001960f88460031b161c1916905586808061092e565b81810151835560209485019460019093019290910190610913565b909150600184016000526020600020601f840160051c8101602085106109be575b90849392915b601f830160051c820181106109af5750506106b2565b60008155859450600101610999565b5080610993565b60405162461bcd60e51b815260206004820152600a602482015269456d707479206e616d6560b01b6044820152606490fd5b346101a85760003660031901126101a8576020600354604051908152f35b346101a85760403660031901126101a857610a2e612039565b600435600052600b60205260406000209060018060a01b0316600052602052602060ff604060002054166040519015158152f35b346101a85760003660031901126101a8576001546040516001600160a01b039091168152602090f35b346101a85760203660031901126101a857600435600052600860205260406000206020815460018301549260018060a01b03908160028201541691610ad26003830161214a565b936004830154946005840154600685015490610b20600787015493600888015495600a60098a0154990154996040519d8e9d8e610180948152015260408d01528060608d01528b019061204f565b9760808a015260a089015260c088015260e0870152610b46610100870160ff831661208f565b60081c166101208501526101408401526101608301520390f35b346101a85760403660031901126101a85760246004356001600160401b0382358181116101a857610b9590369060040161222e565b91610b9e6123b4565b83600052600860205260406000209360ff6008860154166006811015610ee9578015908115610ede575b5015610eaa576007850154421015610e77576001850154600052600b60205260406000203360005260205260ff6040600020541615610e33576000526009602052610c2960406000209260405194610c1f866120d6565b33865236916122d2565b91602084019283526000604085015260006060850152426080850152805468010000000000000000811015610e1e57610c67916001820181556121fc565b929092610e0957835183546001600160a01b0319166001600160a01b0391909116178355518051909590918211610df55750610ca6600183015461209c565b601f8111610daa575b506020601f8211600114610d34579080600294939260089697600092610d29575b50508160011b916000199060031b1c19161760018201555b604082015183820155600460806003830193606081015115159460ff199560ff87835416911617905501519101558284015416179101556001600055600080f35b015190508780610cd0565b6001830160005260206000209560005b601f1984168110610d9257509160089596600192600296959483601f19811610610d79575b505050811b016001820155610ce8565b015160001960f88460031b161c19169055878080610d69565b82820151885560019097019660209283019201610d44565b600183016000526020600020601f830160051c81019160208410610deb575b601f0160051c01905b818110610ddf5750610caf565b60008155600101610dd2565b9091508190610dc9565b634e487b7160e01b60009081526041600452fd5b85634e487b7160e01b60005260006004526000fd5b86634e487b7160e01b60005260416004526000fd5b60405162461bcd60e51b8152602060048201526018818801527f4e6f74207265676973746572656420696e207375626e657400000000000000006044820152606490fd5b60405162461bcd60e51b815260206004820152600c818801526b15185cdac8195e1c1a5c995960a21b6044820152606490fd5b60405162461bcd60e51b815260206004820152600d818801526c10d85b9b9bdd081cdd589b5a5d609a1b6044820152606490fd5b600191501487610bc8565b86634e487b7160e01b60005260216004526000fd5b346101a8576020806003193601126101a85760043590610f1c6123b4565b8160005260088152604060002091600883019182549060ff821660068110156102fa57600203611063576001600160a01b0391600881901c831615611032579160609160037fae64f0a069112683796fc01e7d04ea7e255a3cd070a7dce992fdcdecbc1e6d529460ff1916178655600187019687546000526007825260406000209260048201988954610fb46006870191825461229b565b905560078501610fc481546122a8565b9055610ff76005840195610fdb875460065461229b565b6006556006846003816002541693015416950194855491612451565b61100e8260025416838b5460081c168c5491612451565b54975460081c16975492549054916040519384528301526040820152a46001600055005b60405162461bcd60e51b81526004810183905260096024820152682737903bb4b73732b960b91b6044820152606490fd5b6064906040519062461bcd60e51b8252600482015260096024820152684e6f7420726561647960b81b6044820152fd5b346101a85760003660031901126101a85760065480156110fe5760006006557fa087657e3d85162090ffd700fbfdf5070d816f63aa5da00063f6ffd369c8a6db602060018060a01b036110f0848260025416836005541690612451565b6005541692604051908152a2005b60405162461bcd60e51b81526020600482015260076024820152664e6f206665657360c81b6044820152606490fd5b346101a85760003660031901126101a8576005546040516001600160a01b039091168152602090f35b346101a85760603660031901126101a85760043560243560443560038110156101a857600083815260076020526040902060038101549092906001600160a01b031633036111f8576111f5826111e660409460097fa2191efe487e08892e9d1920150485aaf7591f089bdde895929d692ea8c4e08a976111da6107d0881115612309565b86600482015501612344565b835192835260208301906121ef565ba2005b60405162461bcd60e51b815260206004820152601060248201526f2737ba1039bab13732ba1037bbb732b960811b6044820152606490fd5b346101a85760003660031901126101a85761124961235c565b600180546001600160a01b031981169091556000906001600160a01b03167f8be0079c531659141344cd1fd0a4f28419497f9722a3daafe3b4186f6b6457e08280a3005b346101a8576020806003193601126101a85760043590816000526007815260ff6009604060002001541660038110156102fa576112ca901561225b565b81600052600b8152604060002033600052815260ff6040600020541661136b5760079082600052600b815260406000203360005281526040600020600160ff1982541617905582600052600c8152604060002061132781546122a8565b90558260005252600860406000200161134081546122a8565b905533907fbaae7a2be0ecfa867d60fcdae77877a3dda7484c504290098d77f256415abab2600080a3005b6064906040519062461bcd60e51b825260048201526012602482015271105b1c9958591e481c9959da5cdd195c995960721b6044820152fd5b346101a85760803660031901126101a8576024356001600160401b0381116101a8576113d490369060040161222e565b6064916113df6123b4565b6113e761240a565b6004356000526007602052604060002060ff60098201541660038110156102fa57611412901561225b565b6005810154604435106117b75783351515806117a9575b1561177257604435801590808602908104861482171561175c57600461271093015491826044350292604435840414171561175c5782906114b761147c83850461147785850460443561229b565b61229b565b6002546040516323b872dd60e01b60208201523360248201523060448201528a8101929092528982526001600160a01b03166105f5826120d6565b6114fa6114d4600454986114ca8a6122a8565b600455354261229b565b95604051976114e2896120f1565b89895260043560208a01523360408a015236916122d2565b606087015260443560808701520460a08501520460c083015260e08201526000610100820152600061012082015260006101408201524261016082015281600052600860205260406000209181518355602082015160018401556002830160018060a01b036040840151166001600160601b0360a01b82541617905560608201519283516001600160401b0381116108df57611599600383015461209c565b601f8111611715575b506020601f82116001146116a657819293949560009261169b575b50508160011b916000199060031b1c19161760038201555b6080830151600482015560a0830151600582015560c0830151600682015560e08301516007820155600881016101008401519060068210156102fa578054610120860151610100600160a81b0360089190911b1660ff939093166001600160a81b031990911617919091179055602092600a90610160906101408101516009850155015191015560405160443581523390827f428f55877ee911b6c5acc83ef215f08675d3787bdfac5018bbe41876df710f498560043593a46001600055604051908152f35b0151905085806115bd565b6003830160005260206000209060005b601f19841681106116fd575060019394959683601f198116106116e4575b505050811b0160038201556115d5565b015160001960f88460031b161c191690558580806116d4565b9091602060018192858b0151815501930191016116b6565b600383016000526020600020601f830160051c810160208410611755575b601f830160051c820181106117495750506115a2565b60008155600101611733565b5080611733565b634e487b7160e01b600052601160045260246000fd5b60405162461bcd60e51b815260206004820152601060248201526f24b73b30b634b210323ab930ba34b7b760811b60448201528490fd5b5062093a8084351115611429565b60405162461bcd60e51b815260206004820152600e60248201526d52657761726420746f6f206c6f7760901b60448201528490fd5b346101a85760003660031901126101a857602060ff60015460a01c166040519015158152f35b346101a85760203660031901126101a85760006101406040516118348161210d565b82815260606020820152606060408201528260608201528260808201528260a08201528260c08201528260e08201528261010082015282610120820152015260043560005260076020526040600020604051906118908261210d565b805482526118a06001820161214a565b60208301526118b16002820161214a565b60408301526003818101546001600160a01b0316606084015260048201546080840152600582015460a0840152600682015460c0840152600782015460e08401526008820154610100840152600982015460ff1691908210156102fa57600a916101208401520154610140820152604051809160208252805160208301526101406119666119506020840151610160604087015261018086019061204f565b6040840151858203601f1901606087015261204f565b9160018060a01b036060820151166080850152608081015160a085015260a081015160c085015260c081015160e085015260e08101516101008501526101008101516101208501526119c0610120820151838601906121ef565b01516101608301520390f35b346101a85760403660031901126101a857602435600435600052600960205260406000209081548110156101a857611a03916121fc565b5080546001600160a01b0316611a1b6001830161214a565b91600281015490600460ff60038301541691015490611a4c604051958695865260a0602087015260a086019061204f565b9260408501521515606084015260808301520390f35b346101a85760403660031901126101a857600435611a7e612039565b60008281526007602052604090206003015490916001600160a01b0391821633148015611b0b575b15611ad557600052600a602052604060002091166000526020526040600020600160ff19825416179055600080f35b60405162461bcd60e51b815260206004820152600e60248201526d139bdd08185d5d1a1bdc9a5e995960921b6044820152606490fd5b5081600154163314611aa6565b346101a85760003660031901126101a85760206040516107d08152f35b346101a85760203660031901126101a857600435600052600760205260406000208054611b646001830161214a565b91611b716002820161214a565b611c0460018060a01b0360038401541692600481015460058201546006830154600784015491600885015493611bd9600a60ff60098901541697015498611bcb6040519d8e9d8e610160918152816020820152019061204f565b8c810360408e01529061204f565b9860608b015260808a015260a089015260c088015260e08701526101008601526101208501906121ef565b6101408301520390f35b346101a85760203660031901126101a857600435600052600c6020526020604060002054604051908152f35b346101a85760203660031901126101a8576000610160604051611c5c816120f1565b8281528260208201528260408201526060808201528260808201528260a08201528260c08201528260e082015282610100820152826101208201528261014082015201526004356000526008602052604060002060405190611cbd826120f1565b805482526001810154602083015260028101546001600160a01b03166040830152611cea6003820161214a565b606083015260048101546080830152600581015460a0830152600681015460c0830152600781015460e083015260088101549060ff82169160068310156102fa57600a9261010085015260018060a01b039060081c1661012084015260098101546101408401520154610160820152604051809160208252805160208301526020810151604083015260018060a01b0360408201511660608301526060810151610160611da5610180928360808701526101a086019061204f565b92608081015160a086015260a081015160c086015260c081015160e086015260e0810151610100860152611de361010082015161012087019061208f565b6101208101516001600160a01b031661014086810191909152810151828601520151908301520390f35b346101a8576020806003193601126101a8576004356000526009815260406000208054906001600160401b0382116108df57829060059260405193611e57848360051b0186612129565b8185528385018093600052846000206000915b848310611f0857604080518881528951818a01819052600092600582901b83018101918a918c9085015b828710611ea15785850386f35b909192938280600192603f19898203018552875190611ed860a0868060a01b0384511683528484015190808685015283019061204f565b91604081015160408301526060808201511515908301526080809101519101529601920196019592919092611e94565b838760019260409a999a51611f1c816120d6565b848060a01b038654168152611f3285870161214a565b838201526002860154604082015260ff6003870154161515606082015260048601546080820152815201920192019190969596611e6a565b346101a85760003660031901126101a857602060405160648152f35b346101a85760203660031901126101a857611f9f612023565b611fa761235c565b6001600160a01b03168015611fce576001600160601b0360a01b6005541617600555600080f35b60405162461bcd60e51b815260206004820152600f60248201526e496e76616c6964206164647265737360881b6044820152606490fd5b346101a85760003660031901126101a8578064e8d4a5100060209252f35b600435906001600160a01b03821682036101a857565b602435906001600160a01b03821682036101a857565b919082519283825260005b84811061207b575050826000602080949584010152601f8019910116010190565b60208183018101518483018201520161205a565b9060068210156102fa5752565b90600182811c921680156120cc575b60208310146120b657565b634e487b7160e01b600052602260045260246000fd5b91607f16916120ab565b60a081019081106001600160401b038211176108df57604052565b61018081019081106001600160401b038211176108df57604052565b61016081019081106001600160401b038211176108df57604052565b90601f801991011681019081106001600160401b038211176108df57604052565b9060405191826000825461215d8161209c565b908184526020946001916001811690816000146121cd575060011461218e575b50505061218c92500383612129565b565b600090815285812095935091905b8183106121b557505061218c935082010138808061217d565b8554888401850152948501948794509183019161219c565b9250505061218c94925060ff191682840152151560051b82010138808061217d565b9060038210156102fa5752565b8054821015612218576000526005602060002091020190600090565b634e487b7160e01b600052603260045260246000fd5b9181601f840112156101a8578235916001600160401b0383116101a857602083818601950101116101a857565b1561226257565b60405162461bcd60e51b81526020600482015260116024820152705375626e6574206e6f742061637469766560781b6044820152606490fd5b9190820180921161175c57565b600019811461175c5760010190565b6001600160401b0381116108df57601f01601f191660200190565b9291926122de826122b7565b916122ec6040519384612129565b8294818452818301116101a8578281602093846000960137010152565b1561231057565b60405162461bcd60e51b815260206004820152600c60248201526b08ccaca40e8dede40d0d2ced60a31b6044820152606490fd5b9060038110156102fa5760ff80198354169116179055565b6001546001600160a01b0316330361237057565b606460405162461bcd60e51b815260206004820152602060248201527f4f776e61626c653a2063616c6c6572206973206e6f7420746865206f776e65726044820152fd5b6002600054146123c5576002600055565b60405162461bcd60e51b815260206004820152601f60248201527f5265656e7472616e637947756172643a207265656e7472616e742063616c6c006044820152606490fd5b60ff60015460a01c1661241957565b60405162461bcd60e51b815260206004820152601060248201526f14185d5cd8589b194e881c185d5cd95960821b6044820152606490fd5b60405163a9059cbb60e01b60208201526001600160a01b03909216602483015260448083019390935291815260808101916001600160401b038311828410176108df5761218c926040525b60018060a01b03169060405160408101908082106001600160401b038311176108df5761252b916040526020938482527f5361666545524332303a206c6f772d6c6576656c2063616c6c206661696c6564858301526000808587829751910182855af13d156125c8573d91612510836122b7565b9261251e6040519485612129565b83523d868885013e6125cc565b80519182159184831561259d575b5050509050156125465750565b6084906040519062461bcd60e51b82526004820152602a60248201527f5361666545524332303a204552433230206f7065726174696f6e20646964206e6044820152691bdd081cdd58d8d9595960b21b6064820152fd5b9193818094500103126125c4578201519081151582036125c1575080388084612539565b80fd5b5080fd5b6060915b9192901561262e57508151156125e0575090565b3b156125e95790565b60405162461bcd60e51b815260206004820152601d60248201527f416464726573733a2063616c6c20746f206e6f6e2d636f6e74726163740000006044820152606490fd5b8251909150156126415750805190602001fd5b60405162461bcd60e51b81526020600482015290819061266590602483019061204f565b0390fdfea264697066735822122087bf4cc18b84b2133b6d636a1e2c82bbfe2aa3f07178444f8196ab53495d69c764736f6c63430008180033","opcodes":"PUSH1 0x80 CALLVALUE PUSH3 0x674 JUMPI PUSH1 0x1F PUSH3 0x2D4E CODESIZE DUP2 SWAP1 SUB SWAP2 DUP3 ADD PUSH1 0x1F NOT AND DUP4 ADD SWAP2 PUSH1 0x1 PUSH1 0x1 PUSH1 0x40 SHL SUB DUP4 GT DUP5 DUP5 LT OR PUSH3 0x4F8 JUMPI DUP1 DUP5 SWAP3 PUSH1 0x40 SWAP5 DUP6 MSTORE DUP4 CODECOPY DUP2 ADD SUB SLT PUSH3 0x674 JUMPI PUSH3 0x5A PUSH1 0x20 PUSH3 0x52 DUP4 PUSH3 0x699 JUMP JUMPDEST SWAP3 ADD PUSH3 0x699 JUMP JUMPDEST PUSH1 0x1 PUSH1 0x0 SSTORE PUSH1 0x1 SLOAD SWAP2 PUSH1 0x40 MLOAD SWAP3 CALLER PUSH1 0x1 DUP1 PUSH1 0xA0 SHL SUB DUP3 AND PUSH32 0x8BE0079C531659141344CD1FD0A4F28419497F9722A3DAAFE3B4186F6B6457E0 PUSH1 0x0 DUP1 LOG3 PUSH1 0x1 PUSH1 0x1 PUSH1 0xA8 SHL SUB NOT AND CALLER PUSH1 0xFF PUSH1 0xA0 SHL NOT AND OR PUSH1 0x1 SSTORE PUSH1 0x1 PUSH1 0x1 PUSH1 0xA0 SHL SUB AND SWAP2 DUP3 ISZERO PUSH3 0x642 JUMPI POP PUSH1 0x1 PUSH1 0x1 PUSH1 0xA0 SHL SUB AND SWAP1 DUP2 ISZERO PUSH3 0x60A JUMPI PUSH1 0x1 DUP1 PUSH1 0xA0 SHL SUB NOT PUSH1 0x2 SLOAD AND OR PUSH1 0x2 SSTORE PUSH1 0x1 DUP1 PUSH1 0xA0 SHL SUB NOT PUSH1 0x5 SLOAD AND OR PUSH1 0x5 SSTORE PUSH3 0xF9 PUSH3 0x679 JUMP JUMPDEST PUSH1 0x14 DUP2 MSTORE PUSH32 0x47656E6572616C20496E74656C6C6967656E6365000000000000000000000000 PUSH1 0x20 DUP3 ADD MSTORE PUSH3 0x12D PUSH3 0x679 JUMP JUMPDEST PUSH1 0x20 DUP2 MSTORE PUSH32 0x546578742C20436F64652C20616E642047656E6572616C204149205461736B73 PUSH1 0x20 DUP3 ADD MSTORE PUSH1 0x3 SLOAD SWAP1 PUSH1 0x0 NOT DUP3 EQ PUSH3 0x5F4 JUMPI PUSH1 0x1 DUP3 ADD PUSH1 0x3 SSTORE PUSH1 0x40 MLOAD SWAP1 PUSH1 0x1 PUSH1 0x1 PUSH1 0x40 SHL SUB PUSH2 0x160 DUP4 ADD SWAP1 DUP2 GT SWAP1 DUP4 GT OR PUSH3 0x4F8 JUMPI PUSH2 0x160 DUP3 ADD PUSH1 0x40 MSTORE DUP3 DUP3 MSTORE DUP4 PUSH1 0x20 DUP4 ADD MSTORE PUSH1 0x40 DUP3 ADD MSTORE CALLER PUSH1 0x60 DUP3 ADD MSTORE PUSH2 0x1F4 PUSH1 0x80 DUP3 ADD MSTORE PUSH4 0x5F5E100 PUSH1 0xA0 DUP3 ADD MSTORE PUSH1 0x0 PUSH1 0xC0 DUP3 ADD MSTORE PUSH1 0x0 PUSH1 0xE0 DUP3 ADD MSTORE PUSH1 0x0 PUSH2 0x100 DUP3 ADD MSTORE PUSH1 0x0 PUSH2 0x120 DUP3 ADD MSTORE TIMESTAMP PUSH2 0x140 DUP3 ADD MSTORE DUP2 PUSH1 0x0 MSTORE PUSH1 0x7 PUSH1 0x20 MSTORE PUSH1 0x40 PUSH1 0x0 KECCAK256 SWAP1 DUP1 MLOAD DUP3 SSTORE PUSH1 0x20 DUP2 ADD MLOAD DUP1 MLOAD SWAP1 PUSH1 0x1 DUP1 PUSH1 0x40 SHL SUB DUP3 GT PUSH3 0x4F8 JUMPI PUSH1 0x1 DUP5 ADD SLOAD SWAP1 PUSH1 0x1 DUP3 DUP2 SHR SWAP3 AND DUP1 ISZERO PUSH3 0x5E9 JUMPI JUMPDEST PUSH1 0x20 DUP4 LT EQ PUSH3 0x4D7 JUMPI DUP2 PUSH1 0x1F DUP5 SWAP4 GT PUSH3 0x591 JUMPI JUMPDEST POP PUSH1 0x20 SWAP1 PUSH1 0x1F DUP4 GT PUSH1 0x1 EQ PUSH3 0x51A JUMPI PUSH1 0x0 SWAP3 PUSH3 0x50E JUMPI JUMPDEST POP POP DUP2 PUSH1 0x1 SHL SWAP2 PUSH1 0x0 NOT SWAP1 PUSH1 0x3 SHL SHR NOT AND OR PUSH1 0x1 DUP4 ADD SSTORE JUMPDEST PUSH1 0x40 DUP2 ADD MLOAD DUP1 MLOAD SWAP1 PUSH1 0x1 PUSH1 0x1 PUSH1 0x40 SHL SUB DUP3 GT PUSH3 0x4F8 JUMPI PUSH1 0x2 DUP5 ADD SLOAD SWAP1 PUSH1 0x1 DUP3 DUP2 SHR SWAP3 AND DUP1 ISZERO PUSH3 0x4ED JUMPI JUMPDEST PUSH1 0x20 DUP4 LT EQ PUSH3 0x4D7 JUMPI DUP2 PUSH1 0x1F DUP5 SWAP4 GT PUSH3 0x47F JUMPI JUMPDEST POP PUSH1 0x20 SWAP1 PUSH1 0x1F DUP4 GT PUSH1 0x1 EQ PUSH3 0x408 JUMPI PUSH1 0x0 SWAP3 PUSH3 0x3FC JUMPI JUMPDEST POP POP DUP2 PUSH1 0x1 SHL SWAP2 PUSH1 0x0 NOT SWAP1 PUSH1 0x3 SHL SHR NOT AND OR PUSH1 0x2 DUP4 ADD SSTORE JUMPDEST PUSH1 0x60 DUP2 ADD MLOAD PUSH1 0x3 DUP4 DUP2 ADD DUP1 SLOAD PUSH1 0x1 PUSH1 0x1 PUSH1 0xA0 SHL SUB NOT AND PUSH1 0x1 PUSH1 0x1 PUSH1 0xA0 SHL SUB SWAP4 SWAP1 SWAP4 AND SWAP3 SWAP1 SWAP3 OR SWAP1 SWAP2 SSTORE PUSH1 0x80 DUP3 ADD MLOAD PUSH1 0x4 DUP5 ADD SSTORE PUSH1 0xA0 DUP3 ADD MLOAD PUSH1 0x5 DUP5 ADD SSTORE PUSH1 0xC0 DUP3 ADD MLOAD PUSH1 0x6 DUP5 ADD SSTORE PUSH1 0xE0 DUP3 ADD MLOAD PUSH1 0x7 DUP5 ADD SSTORE PUSH2 0x100 DUP3 ADD MLOAD PUSH1 0x8 DUP5 ADD SSTORE PUSH2 0x120 DUP3 ADD MLOAD PUSH1 0x9 DUP5 ADD SWAP3 SWAP1 SWAP2 DUP3 LT ISZERO PUSH3 0x3E6 JUMPI PUSH1 0xA SWAP3 PUSH2 0x140 SWAP3 PUSH1 0xFF DUP1 NOT DUP4 SLOAD AND SWAP2 AND OR SWAP1 SSTORE ADD MLOAD SWAP2 ADD SSTORE PUSH1 0x40 MLOAD PUSH1 0x40 DUP2 MSTORE DUP3 MLOAD SWAP3 DUP4 PUSH1 0x40 DUP4 ADD MSTORE PUSH1 0x0 JUMPDEST DUP5 DUP2 LT PUSH3 0x3CF JUMPI POP POP DUP1 PUSH1 0x0 PUSH1 0x60 DUP6 PUSH32 0x8E46DCAB88334408205DFDFF058DE646A02AB7FDDB35B9923E924E49CE505C30 SWAP5 ADD ADD MSTORE PUSH2 0x1F4 PUSH1 0x20 DUP3 ADD MSTORE PUSH1 0x60 DUP2 CALLER SWAP6 PUSH1 0x1F DUP1 NOT SWAP2 ADD AND DUP2 ADD SUB ADD SWAP1 LOG3 PUSH1 0x40 MLOAD PUSH2 0x269F SWAP1 DUP2 PUSH3 0x6AF DUP3 CODECOPY RETURN JUMPDEST DUP1 PUSH1 0x20 DUP1 SWAP3 DUP5 ADD ADD MLOAD PUSH1 0x60 DUP3 DUP7 ADD ADD MSTORE ADD PUSH3 0x370 JUMP JUMPDEST PUSH4 0x4E487B71 PUSH1 0xE0 SHL PUSH1 0x0 MSTORE PUSH1 0x21 PUSH1 0x4 MSTORE PUSH1 0x24 PUSH1 0x0 REVERT JUMPDEST ADD MLOAD SWAP1 POP CODESIZE DUP1 PUSH3 0x2BC JUMP JUMPDEST SWAP3 POP PUSH1 0x2 DUP6 ADD PUSH1 0x0 MSTORE PUSH1 0x20 PUSH1 0x0 KECCAK256 SWAP1 PUSH1 0x0 SWAP4 JUMPDEST PUSH1 0x1F NOT DUP5 AND DUP6 LT PUSH3 0x463 JUMPI PUSH1 0x1 SWAP5 POP DUP4 PUSH1 0x1F NOT DUP2 AND LT PUSH3 0x449 JUMPI JUMPDEST POP POP POP DUP2 SHL ADD PUSH1 0x2 DUP4 ADD SSTORE PUSH3 0x2D4 JUMP JUMPDEST ADD MLOAD PUSH1 0x0 NOT PUSH1 0xF8 DUP5 PUSH1 0x3 SHL AND SHR NOT AND SWAP1 SSTORE CODESIZE DUP1 DUP1 PUSH3 0x438 JUMP JUMPDEST DUP2 DUP2 ADD MLOAD DUP4 SSTORE PUSH1 0x20 SWAP5 DUP6 ADD SWAP5 PUSH1 0x1 SWAP1 SWAP4 ADD SWAP3 SWAP1 SWAP2 ADD SWAP1 PUSH3 0x41B JUMP JUMPDEST SWAP1 SWAP2 POP PUSH1 0x2 DUP6 ADD PUSH1 0x0 MSTORE PUSH1 0x20 PUSH1 0x0 KECCAK256 PUSH1 0x1F DUP5 ADD PUSH1 0x5 SHR DUP2 ADD PUSH1 0x20 DUP6 LT PUSH3 0x4CF JUMPI JUMPDEST SWAP1 DUP5 SWAP4 SWAP3 SWAP2 JUMPDEST PUSH1 0x1F DUP4 ADD PUSH1 0x5 SHR DUP3 ADD DUP2 LT PUSH3 0x4BF JUMPI POP POP PUSH3 0x2A3 JUMP JUMPDEST PUSH1 0x0 DUP2 SSTORE DUP6 SWAP5 POP PUSH1 0x1 ADD PUSH3 0x4A7 JUMP JUMPDEST POP DUP1 PUSH3 0x4A1 JUMP JUMPDEST PUSH4 0x4E487B71 PUSH1 0xE0 SHL PUSH1 0x0 MSTORE PUSH1 0x22 PUSH1 0x4 MSTORE PUSH1 0x24 PUSH1 0x0 REVERT JUMPDEST SWAP2 PUSH1 0x7F AND SWAP2 PUSH3 0x28D JUMP JUMPDEST PUSH4 0x4E487B71 PUSH1 0xE0 SHL PUSH1 0x0 MSTORE PUSH1 0x41 PUSH1 0x4 MSTORE PUSH1 0x24 PUSH1 0x0 REVERT JUMPDEST ADD MLOAD SWAP1 POP CODESIZE DUP1 PUSH3 0x249 JUMP JUMPDEST SWAP3 POP PUSH1 0x1 DUP6 ADD PUSH1 0x0 MSTORE PUSH1 0x20 PUSH1 0x0 KECCAK256 SWAP1 PUSH1 0x0 SWAP4 JUMPDEST PUSH1 0x1F NOT DUP5 AND DUP6 LT PUSH3 0x575 JUMPI PUSH1 0x1 SWAP5 POP DUP4 PUSH1 0x1F NOT DUP2 AND LT PUSH3 0x55B JUMPI JUMPDEST POP POP POP DUP2 SHL ADD PUSH1 0x1 DUP4 ADD SSTORE PUSH3 0x261 JUMP JUMPDEST ADD MLOAD PUSH1 0x0 NOT PUSH1 0xF8 DUP5 PUSH1 0x3 SHL AND SHR NOT AND SWAP1 SSTORE CODESIZE DUP1 DUP1 PUSH3 0x54A JUMP JUMPDEST DUP2 DUP2 ADD MLOAD DUP4 SSTORE PUSH1 0x20 SWAP5 DUP6 ADD SWAP5 PUSH1 0x1 SWAP1 SWAP4 ADD SWAP3 SWAP1 SWAP2 ADD SWAP1 PUSH3 0x52D JUMP JUMPDEST SWAP1 SWAP2 POP PUSH1 0x1 DUP6 ADD PUSH1 0x0 MSTORE PUSH1 0x20 PUSH1 0x0 KECCAK256 PUSH1 0x1F DUP5 ADD PUSH1 0x5 SHR DUP2 ADD PUSH1 0x20 DUP6 LT PUSH3 0x5E1 JUMPI JUMPDEST SWAP1 DUP5 SWAP4 SWAP3 SWAP2 JUMPDEST PUSH1 0x1F DUP4 ADD PUSH1 0x5 SHR DUP3 ADD DUP2 LT PUSH3 0x5D1 JUMPI POP POP PUSH3 0x230 JUMP JUMPDEST PUSH1 0x0 DUP2 SSTORE DUP6 SWAP5 POP PUSH1 0x1 ADD PUSH3 0x5B9 JUMP JUMPDEST POP DUP1 PUSH3 0x5B3 JUMP JUMPDEST SWAP2 PUSH1 0x7F AND SWAP2 PUSH3 0x21A JUMP JUMPDEST PUSH4 0x4E487B71 PUSH1 0xE0 SHL PUSH1 0x0 MSTORE PUSH1 0x11 PUSH1 0x4 MSTORE PUSH1 0x24 PUSH1 0x0 REVERT JUMPDEST PUSH1 0x40 MLOAD PUSH3 0x461BCD PUSH1 0xE5 SHL DUP2 MSTORE PUSH1 0x20 PUSH1 0x4 DUP3 ADD MSTORE PUSH1 0x10 PUSH1 0x24 DUP3 ADD MSTORE PUSH16 0x496E76616C6964207472656173757279 PUSH1 0x80 SHL PUSH1 0x44 DUP3 ADD MSTORE PUSH1 0x64 SWAP1 REVERT JUMPDEST PUSH3 0x461BCD PUSH1 0xE5 SHL DUP2 MSTORE PUSH1 0x20 PUSH1 0x4 DUP3 ADD MSTORE PUSH1 0xD PUSH1 0x24 DUP3 ADD MSTORE PUSH13 0x24B73B30B634B2103A37B5B2B7 PUSH1 0x99 SHL PUSH1 0x44 DUP3 ADD MSTORE PUSH1 0x64 SWAP1 REVERT JUMPDEST PUSH1 0x0 DUP1 REVERT JUMPDEST PUSH1 0x40 DUP1 MLOAD SWAP2 SWAP1 DUP3 ADD PUSH1 0x1 PUSH1 0x1 PUSH1 0x40 SHL SUB DUP2 GT DUP4 DUP3 LT OR PUSH3 0x4F8 JUMPI PUSH1 0x40 MSTORE JUMP JUMPDEST MLOAD SWAP1 PUSH1 0x1 PUSH1 0x1 PUSH1 0xA0 SHL SUB DUP3 AND DUP3 SUB PUSH3 0x674 JUMPI JUMP INVALID PUSH1 0x80 DUP1 PUSH1 0x40 MSTORE PUSH1 0x4 CALLDATASIZE LT ISZERO PUSH2 0x13 JUMPI PUSH1 0x0 DUP1 REVERT JUMPDEST PUSH1 0x0 CALLDATALOAD PUSH1 0xE0 SHR SWAP1 DUP2 PUSH4 0x72F4FC0 EQ PUSH2 0x2005 JUMPI POP DUP1 PUSH4 0xC5A61F8 EQ PUSH2 0x1F86 JUMPI DUP1 PUSH4 0x10F0DDE4 EQ PUSH2 0x1F6A JUMPI DUP1 PUSH4 0x16C53CED EQ PUSH2 0x1E0D JUMPI DUP1 PUSH4 0x1D65E77E EQ PUSH2 0x1C3A JUMPI DUP1 PUSH4 0x2FA70F48 EQ PUSH2 0x1C0E JUMPI DUP1 PUSH4 0x475726F7 EQ PUSH2 0x1B35 JUMPI DUP1 PUSH4 0x4AF93988 EQ PUSH2 0x1B18 JUMPI DUP1 PUSH4 0x4B561753 EQ PUSH2 0x1A62 JUMPI DUP1 PUSH4 0x53EEA875 EQ PUSH2 0x19CC JUMPI DUP1 PUSH4 0x58CA7504 EQ PUSH2 0x1812 JUMPI DUP1 PUSH4 0x5C975ABB EQ PUSH2 0x17EC JUMPI DUP1 PUSH4 0x5CC9BCA9 EQ PUSH2 0x13A4 JUMPI DUP1 PUSH4 0x6F5474BF EQ PUSH2 0x128D JUMPI DUP1 PUSH4 0x715018A6 EQ PUSH2 0x1230 JUMPI DUP1 PUSH4 0x7B617482 EQ PUSH2 0x1156 JUMPI DUP1 PUSH4 0x803DB96D EQ PUSH2 0x112D JUMPI DUP1 PUSH4 0x8795CCCB EQ PUSH2 0x1093 JUMPI DUP1 PUSH4 0x88488C33 EQ PUSH2 0xEFE JUMPI DUP1 PUSH4 0x8C0A4A05 EQ PUSH2 0xA15 JUMPI DUP1 PUSH4 0x8C0DD79A EQ PUSH2 0xB60 JUMPI DUP1 PUSH4 0x8D977672 EQ PUSH2 0xA8B JUMPI DUP1 PUSH4 0x8DA5CB5B EQ PUSH2 0xA62 JUMPI DUP1 PUSH4 0x8EE9F6DC EQ PUSH2 0xA15 JUMPI DUP1 PUSH4 0x916A5C5B EQ PUSH2 0x9F7 JUMPI DUP1 PUSH4 0x927229C6 EQ PUSH2 0x530 JUMPI DUP1 PUSH4 0xA3BE1EAB EQ PUSH2 0x4E3 JUMPI DUP1 PUSH4 0xB7EE5EDA EQ PUSH2 0x310 JUMPI DUP1 PUSH4 0xC6A1A01A EQ PUSH2 0x28F JUMPI DUP1 PUSH4 0xF2FDE38B EQ PUSH2 0x1CB JUMPI DUP1 PUSH4 0xF526E39A EQ PUSH2 0x1AD JUMPI PUSH4 0xF70B5C06 EQ PUSH2 0x17F JUMPI PUSH1 0x0 DUP1 REVERT JUMPDEST CALLVALUE PUSH2 0x1A8 JUMPI PUSH1 0x0 CALLDATASIZE PUSH1 0x3 NOT ADD SLT PUSH2 0x1A8 JUMPI PUSH1 0x2 SLOAD PUSH1 0x40 MLOAD PUSH1 0x1 PUSH1 0x1 PUSH1 0xA0 SHL SUB SWAP1 SWAP2 AND DUP2 MSTORE PUSH1 0x20 SWAP1 RETURN JUMPDEST PUSH1 0x0 DUP1 REVERT JUMPDEST CALLVALUE PUSH2 0x1A8 JUMPI PUSH1 0x0 CALLDATASIZE PUSH1 0x3 NOT ADD SLT PUSH2 0x1A8 JUMPI PUSH1 0x20 PUSH1 0x6 SLOAD PUSH1 0x40 MLOAD SWAP1 DUP2 MSTORE RETURN JUMPDEST CALLVALUE PUSH2 0x1A8 JUMPI PUSH1 0x20 CALLDATASIZE PUSH1 0x3 NOT ADD SLT PUSH2 0x1A8 JUMPI PUSH2 0x1E4 PUSH2 0x2023 JUMP JUMPDEST PUSH2 0x1EC PUSH2 0x235C JUMP JUMPDEST PUSH1 0x1 PUSH1 0x1 PUSH1 0xA0 SHL SUB SWAP1 DUP2 AND SWAP1 DUP2 ISZERO PUSH2 0x23B JUMPI PUSH1 0x1 SLOAD DUP3 PUSH1 0x1 PUSH1 0x1 PUSH1 0x60 SHL SUB PUSH1 0xA0 SHL DUP3 AND OR PUSH1 0x1 SSTORE AND PUSH32 0x8BE0079C531659141344CD1FD0A4F28419497F9722A3DAAFE3B4186F6B6457E0 PUSH1 0x0 DUP1 LOG3 STOP JUMPDEST PUSH1 0x40 MLOAD PUSH3 0x461BCD PUSH1 0xE5 SHL DUP2 MSTORE PUSH1 0x20 PUSH1 0x4 DUP3 ADD MSTORE PUSH1 0x26 PUSH1 0x24 DUP3 ADD MSTORE PUSH32 0x4F776E61626C653A206E6577206F776E657220697320746865207A65726F2061 PUSH1 0x44 DUP3 ADD MSTORE PUSH6 0x646472657373 PUSH1 0xD0 SHL PUSH1 0x64 DUP3 ADD MSTORE PUSH1 0x84 SWAP1 REVERT JUMPDEST CALLVALUE PUSH2 0x1A8 JUMPI PUSH1 0x0 CALLDATASIZE PUSH1 0x3 NOT ADD SLT PUSH2 0x1A8 JUMPI PUSH1 0x3 DUP1 SLOAD PUSH1 0x0 SWAP1 DUP2 JUMPDEST DUP2 DUP2 LT PUSH2 0x2BB JUMPI PUSH1 0x20 DUP4 PUSH1 0x40 MLOAD SWAP1 DUP2 MSTORE RETURN JUMPDEST DUP1 PUSH1 0x0 MSTORE PUSH1 0x7 PUSH1 0x20 MSTORE PUSH1 0xFF PUSH1 0x9 PUSH1 0x40 PUSH1 0x0 KECCAK256 ADD SLOAD AND DUP5 DUP2 LT ISZERO PUSH2 0x2FA JUMPI ISZERO PUSH2 0x2E6 JUMPI JUMPDEST PUSH1 0x1 ADD PUSH2 0x2A9 JUMP JUMPDEST SWAP2 PUSH2 0x2F2 PUSH1 0x1 SWAP2 PUSH2 0x22A8 JUMP JUMPDEST SWAP3 SWAP1 POP PUSH2 0x2DE JUMP JUMPDEST PUSH4 0x4E487B71 PUSH1 0xE0 SHL PUSH1 0x0 MSTORE PUSH1 0x21 PUSH1 0x4 MSTORE PUSH1 0x24 PUSH1 0x0 REVERT JUMPDEST CALLVALUE PUSH2 0x1A8 JUMPI PUSH1 0x60 CALLDATASIZE PUSH1 0x3 NOT ADD SLT PUSH2 0x1A8 JUMPI PUSH1 0x4 CALLDATALOAD PUSH1 0x24 SWAP1 PUSH1 0x44 CALLDATALOAD SWAP2 DUP2 PUSH1 0x0 MSTORE PUSH1 0x20 PUSH1 0x8 DUP2 MSTORE PUSH1 0x40 PUSH1 0x0 KECCAK256 SWAP1 PUSH1 0x8 DUP3 ADD SWAP4 PUSH1 0xFF DUP6 SLOAD AND PUSH1 0x6 DUP2 LT ISZERO PUSH2 0x4CE JUMPI PUSH1 0x2 SUB PUSH2 0x495 JUMPI PUSH1 0x1 DUP4 ADD SLOAD PUSH1 0x0 MSTORE PUSH1 0xA DUP3 MSTORE PUSH1 0x40 PUSH1 0x0 KECCAK256 CALLER PUSH1 0x0 MSTORE DUP3 MSTORE PUSH1 0xFF PUSH1 0x40 PUSH1 0x0 KECCAK256 SLOAD AND ISZERO PUSH2 0x45F JUMPI PUSH2 0x2710 DUP7 GT PUSH2 0x42B JUMPI PUSH1 0x0 MSTORE PUSH1 0x9 DUP2 MSTORE PUSH2 0x399 DUP4 CALLDATALOAD PUSH1 0x40 PUSH1 0x0 KECCAK256 PUSH2 0x21FC JUMP JUMPDEST POP SWAP3 PUSH1 0x3 DUP5 ADD SWAP2 DUP3 SLOAD SWAP2 PUSH1 0xFF DUP4 AND PUSH2 0x3F4 JUMPI POP POP PUSH1 0x2 DUP5 ADD DUP7 SWAP1 SSTORE PUSH1 0xFF NOT AND PUSH1 0x1 OR SWAP1 SSTORE PUSH1 0x9 ADD DUP1 SLOAD SWAP1 SWAP4 SWAP1 DUP2 GT PUSH2 0x3CD JUMPI STOP JUMPDEST SWAP1 SWAP3 SSTORE SWAP1 SLOAD DUP2 SLOAD PUSH2 0x100 PUSH1 0x1 PUSH1 0xA8 SHL SUB NOT AND PUSH1 0x8 SWAP2 SWAP1 SWAP2 SHL PUSH2 0x100 PUSH1 0x1 PUSH1 0xA8 SHL SUB AND OR SWAP1 SSTORE STOP JUMPDEST SWAP1 PUSH1 0x11 PUSH1 0x64 SWAP3 PUSH1 0x40 MLOAD SWAP3 PUSH3 0x461BCD PUSH1 0xE5 SHL DUP5 MSTORE PUSH1 0x4 DUP5 ADD MSTORE DUP3 ADD MSTORE PUSH17 0x105B1C9958591E481D985B1A59185D1959 PUSH1 0x7A SHL PUSH1 0x44 DUP3 ADD MSTORE REVERT JUMPDEST PUSH1 0x40 MLOAD PUSH3 0x461BCD PUSH1 0xE5 SHL DUP2 MSTORE PUSH1 0x4 DUP2 ADD DUP4 SWAP1 MSTORE PUSH1 0xD DUP2 DUP7 ADD MSTORE PUSH13 0x496E76616C69642073636F7265 PUSH1 0x98 SHL PUSH1 0x44 DUP3 ADD MSTORE PUSH1 0x64 SWAP1 REVERT JUMPDEST PUSH1 0x40 MLOAD PUSH3 0x461BCD PUSH1 0xE5 SHL DUP2 MSTORE PUSH1 0x4 DUP2 ADD DUP4 SWAP1 MSTORE PUSH1 0xF DUP2 DUP7 ADD MSTORE PUSH15 0x2737BA1030903B30B634B230BA37B9 PUSH1 0x89 SHL PUSH1 0x44 DUP3 ADD MSTORE PUSH1 0x64 SWAP1 REVERT JUMPDEST PUSH1 0x40 MLOAD PUSH3 0x461BCD PUSH1 0xE5 SHL DUP2 MSTORE PUSH1 0x4 DUP2 ADD DUP4 SWAP1 MSTORE PUSH1 0x12 DUP2 DUP7 ADD MSTORE PUSH18 0x4E6F742070656E64696E6720726576696577 PUSH1 0x70 SHL PUSH1 0x44 DUP3 ADD MSTORE PUSH1 0x64 SWAP1 REVERT JUMPDEST DUP5 PUSH4 0x4E487B71 PUSH1 0xE0 SHL PUSH1 0x0 MSTORE PUSH1 0x21 PUSH1 0x4 MSTORE PUSH1 0x0 REVERT JUMPDEST CALLVALUE PUSH2 0x1A8 JUMPI PUSH1 0x40 CALLDATASIZE PUSH1 0x3 NOT ADD SLT PUSH2 0x1A8 JUMPI PUSH2 0x4FC PUSH2 0x2039 JUMP JUMPDEST PUSH1 0x4 CALLDATALOAD PUSH1 0x0 MSTORE PUSH1 0xA PUSH1 0x20 MSTORE PUSH1 0x40 PUSH1 0x0 KECCAK256 SWAP1 PUSH1 0x1 DUP1 PUSH1 0xA0 SHL SUB AND PUSH1 0x0 MSTORE PUSH1 0x20 MSTORE PUSH1 0x20 PUSH1 0xFF PUSH1 0x40 PUSH1 0x0 KECCAK256 SLOAD AND PUSH1 0x40 MLOAD SWAP1 ISZERO ISZERO DUP2 MSTORE RETURN JUMPDEST CALLVALUE PUSH2 0x1A8 JUMPI PUSH1 0x60 CALLDATASIZE PUSH1 0x3 NOT ADD SLT PUSH2 0x1A8 JUMPI PUSH1 0x4 CALLDATALOAD PUSH1 0x1 PUSH1 0x1 PUSH1 0x40 SHL SUB DUP2 GT PUSH2 0x1A8 JUMPI PUSH2 0x560 SWAP1 CALLDATASIZE SWAP1 PUSH1 0x4 ADD PUSH2 0x222E JUMP JUMPDEST SWAP1 PUSH1 0x24 CALLDATALOAD PUSH1 0x1 PUSH1 0x1 PUSH1 0x40 SHL SUB DUP2 GT PUSH2 0x1A8 JUMPI PUSH2 0x580 SWAP1 CALLDATASIZE SWAP1 PUSH1 0x4 ADD PUSH2 0x222E JUMP JUMPDEST SWAP3 PUSH2 0x589 PUSH2 0x23B4 JUMP JUMPDEST PUSH2 0x591 PUSH2 0x240A JUMP JUMPDEST DUP1 ISZERO PUSH2 0x9C5 JUMPI PUSH2 0x609 SWAP3 PUSH2 0x601 SWAP2 PUSH2 0x5AF PUSH2 0x7D0 PUSH1 0x44 CALLDATALOAD GT ISZERO PUSH2 0x2309 JUMP JUMPDEST PUSH1 0x2 SLOAD PUSH1 0x40 MLOAD PUSH4 0x23B872DD PUSH1 0xE0 SHL PUSH1 0x20 DUP3 ADD MSTORE CALLER PUSH1 0x24 DUP3 ADD MSTORE ADDRESS PUSH1 0x44 DUP3 ADD MSTORE PUSH5 0xE8D4A51000 PUSH1 0x64 DUP1 DUP4 ADD SWAP2 SWAP1 SWAP2 MSTORE DUP2 MSTORE PUSH2 0x5FA SWAP2 PUSH1 0x1 PUSH1 0x1 PUSH1 0xA0 SHL SUB AND PUSH2 0x5F5 DUP3 PUSH2 0x20D6 JUMP JUMPDEST PUSH2 0x249C JUMP JUMPDEST CALLDATASIZE SWAP2 PUSH2 0x22D2 JUMP JUMPDEST SWAP3 CALLDATASIZE SWAP2 PUSH2 0x22D2 JUMP JUMPDEST SWAP1 PUSH1 0x3 SLOAD SWAP1 PUSH2 0x617 DUP3 PUSH2 0x22A8 JUMP JUMPDEST PUSH1 0x3 SSTORE PUSH1 0x40 MLOAD SWAP3 PUSH2 0x627 DUP5 PUSH2 0x210D JUMP JUMPDEST DUP3 DUP5 MSTORE DUP2 PUSH1 0x20 DUP6 ADD MSTORE PUSH1 0x40 DUP5 ADD MSTORE CALLER PUSH1 0x60 DUP5 ADD MSTORE PUSH1 0x44 CALLDATALOAD PUSH1 0x80 DUP5 ADD MSTORE PUSH4 0x5F5E100 PUSH1 0xA0 DUP5 ADD MSTORE PUSH1 0x0 PUSH1 0xC0 DUP5 ADD MSTORE PUSH1 0x0 PUSH1 0xE0 DUP5 ADD MSTORE PUSH1 0x0 PUSH2 0x100 DUP5 ADD MSTORE PUSH1 0x0 PUSH2 0x120 DUP5 ADD MSTORE TIMESTAMP PUSH2 0x140 DUP5 ADD MSTORE DUP2 PUSH1 0x0 MSTORE PUSH1 0x7 PUSH1 0x20 MSTORE PUSH1 0x40 PUSH1 0x0 KECCAK256 DUP4 MLOAD DUP2 SSTORE PUSH1 0x20 DUP5 ADD MLOAD DUP1 MLOAD SWAP1 PUSH1 0x1 PUSH1 0x1 PUSH1 0x40 SHL SUB DUP3 GT PUSH2 0x8DF JUMPI DUP2 SWAP1 PUSH2 0x6A9 PUSH1 0x1 DUP6 ADD SLOAD PUSH2 0x209C JUMP JUMPDEST PUSH1 0x1F DUP2 GT PUSH2 0x972 JUMPI JUMPDEST POP PUSH1 0x20 SWAP1 PUSH1 0x1F DUP4 GT PUSH1 0x1 EQ PUSH2 0x900 JUMPI PUSH1 0x0 SWAP3 PUSH2 0x8F5 JUMPI JUMPDEST POP POP DUP2 PUSH1 0x1 SHL SWAP2 PUSH1 0x0 NOT SWAP1 PUSH1 0x3 SHL SHR NOT AND OR PUSH1 0x1 DUP3 ADD SSTORE JUMPDEST PUSH1 0x40 DUP5 ADD MLOAD DUP1 MLOAD SWAP1 PUSH1 0x1 PUSH1 0x1 PUSH1 0x40 SHL SUB DUP3 GT PUSH2 0x8DF JUMPI DUP2 SWAP1 PUSH2 0x706 PUSH1 0x2 DUP6 ADD SLOAD PUSH2 0x209C JUMP JUMPDEST PUSH1 0x1F DUP2 GT PUSH2 0x88C JUMPI JUMPDEST POP PUSH1 0x20 SWAP1 PUSH1 0x1F DUP4 GT PUSH1 0x1 EQ PUSH2 0x81A JUMPI PUSH1 0x0 SWAP3 PUSH2 0x80F JUMPI JUMPDEST POP POP DUP2 PUSH1 0x1 SHL SWAP2 PUSH1 0x0 NOT SWAP1 PUSH1 0x3 SHL SHR NOT AND OR PUSH1 0x2 DUP3 ADD SSTORE JUMPDEST PUSH1 0x3 DUP2 ADD PUSH1 0x1 DUP1 PUSH1 0xA0 SHL SUB PUSH1 0x60 DUP7 ADD MLOAD AND PUSH1 0x1 PUSH1 0x1 PUSH1 0x60 SHL SUB PUSH1 0xA0 SHL DUP3 SLOAD AND OR SWAP1 SSTORE PUSH1 0x80 DUP5 ADD MLOAD PUSH1 0x4 DUP3 ADD SSTORE PUSH1 0xA0 DUP5 ADD MLOAD PUSH1 0x5 DUP3 ADD SSTORE PUSH1 0xC0 DUP5 ADD MLOAD PUSH1 0x6 DUP3 ADD SSTORE PUSH1 0xE0 DUP5 ADD MLOAD PUSH1 0x7 DUP3 ADD SSTORE PUSH2 0x100 DUP5 ADD MLOAD PUSH1 0x8 DUP3 ADD SSTORE PUSH2 0x120 DUP5 ADD MLOAD SWAP4 PUSH1 0x3 DUP6 LT ISZERO PUSH2 0x2FA JUMPI PUSH2 0x140 PUSH1 0xA SWAP2 PUSH2 0x7B8 PUSH1 0x20 SWAP8 PUSH1 0x9 DUP7 ADD PUSH2 0x2344 JUMP JUMPDEST ADD MLOAD SWAP2 ADD SSTORE DUP2 PUSH32 0x8E46DCAB88334408205DFDFF058DE646A02AB7FDDB35B9923E924E49CE505C30 PUSH2 0x7F4 PUSH1 0x40 MLOAD SWAP4 PUSH1 0x40 DUP6 MSTORE PUSH1 0x40 DUP6 ADD SWAP1 PUSH2 0x204F JUMP JUMPDEST SWAP3 PUSH1 0x44 CALLDATALOAD DUP7 DUP3 ADD MSTORE DUP1 CALLER SWAP5 SUB SWAP1 LOG3 PUSH1 0x1 PUSH1 0x0 SSTORE PUSH1 0x40 MLOAD SWAP1 DUP2 MSTORE RETURN JUMPDEST ADD MLOAD SWAP1 POP DUP7 DUP1 PUSH2 0x726 JUMP JUMPDEST SWAP3 POP PUSH1 0x2 DUP5 ADD PUSH1 0x0 MSTORE PUSH1 0x20 PUSH1 0x0 KECCAK256 SWAP1 PUSH1 0x0 SWAP4 JUMPDEST PUSH1 0x1F NOT DUP5 AND DUP6 LT PUSH2 0x871 JUMPI PUSH1 0x1 SWAP5 POP DUP4 PUSH1 0x1F NOT DUP2 AND LT PUSH2 0x858 JUMPI JUMPDEST POP POP POP DUP2 SHL ADD PUSH1 0x2 DUP3 ADD SSTORE PUSH2 0x73E JUMP JUMPDEST ADD MLOAD PUSH1 0x0 NOT PUSH1 0xF8 DUP5 PUSH1 0x3 SHL AND SHR NOT AND SWAP1 SSTORE DUP7 DUP1 DUP1 PUSH2 0x848 JUMP JUMPDEST DUP2 DUP2 ADD MLOAD DUP4 SSTORE PUSH1 0x20 SWAP5 DUP6 ADD SWAP5 PUSH1 0x1 SWAP1 SWAP4 ADD SWAP3 SWAP1 SWAP2 ADD SWAP1 PUSH2 0x82D JUMP JUMPDEST SWAP1 SWAP2 POP PUSH1 0x2 DUP5 ADD PUSH1 0x0 MSTORE PUSH1 0x20 PUSH1 0x0 KECCAK256 PUSH1 0x1F DUP5 ADD PUSH1 0x5 SHR DUP2 ADD PUSH1 0x20 DUP6 LT PUSH2 0x8D8 JUMPI JUMPDEST SWAP1 DUP5 SWAP4 SWAP3 SWAP2 JUMPDEST PUSH1 0x1F DUP4 ADD PUSH1 0x5 SHR DUP3 ADD DUP2 LT PUSH2 0x8C9 JUMPI POP POP PUSH2 0x70F JUMP JUMPDEST PUSH1 0x0 DUP2 SSTORE DUP6 SWAP5 POP PUSH1 0x1 ADD PUSH2 0x8B3 JUMP JUMPDEST POP DUP1 PUSH2 0x8AD JUMP JUMPDEST PUSH4 0x4E487B71 PUSH1 0xE0 SHL PUSH1 0x0 MSTORE PUSH1 0x41 PUSH1 0x4 MSTORE PUSH1 0x24 PUSH1 0x0 REVERT JUMPDEST ADD MLOAD SWAP1 POP DUP7 DUP1 PUSH2 0x6C9 JUMP JUMPDEST SWAP3 POP PUSH1 0x1 DUP5 ADD PUSH1 0x0 MSTORE PUSH1 0x20 PUSH1 0x0 KECCAK256 SWAP1 PUSH1 0x0 SWAP4 JUMPDEST PUSH1 0x1F NOT DUP5 AND DUP6 LT PUSH2 0x957 JUMPI PUSH1 0x1 SWAP5 POP DUP4 PUSH1 0x1F NOT DUP2 AND LT PUSH2 0x93E JUMPI JUMPDEST POP POP POP DUP2 SHL ADD PUSH1 0x1 DUP3 ADD SSTORE PUSH2 0x6E1 JUMP JUMPDEST ADD MLOAD PUSH1 0x0 NOT PUSH1 0xF8 DUP5 PUSH1 0x3 SHL AND SHR NOT AND SWAP1 SSTORE DUP7 DUP1 DUP1 PUSH2 0x92E JUMP JUMPDEST DUP2 DUP2 ADD MLOAD DUP4 SSTORE PUSH1 0x20 SWAP5 DUP6 ADD SWAP5 PUSH1 0x1 SWAP1 SWAP4 ADD SWAP3 SWAP1 SWAP2 ADD SWAP1 PUSH2 0x913 JUMP JUMPDEST SWAP1 SWAP2 POP PUSH1 0x1 DUP5 ADD PUSH1 0x0 MSTORE PUSH1 0x20 PUSH1 0x0 KECCAK256 PUSH1 0x1F DUP5 ADD PUSH1 0x5 SHR DUP2 ADD PUSH1 0x20 DUP6 LT PUSH2 0x9BE JUMPI JUMPDEST SWAP1 DUP5 SWAP4 SWAP3 SWAP2 JUMPDEST PUSH1 0x1F DUP4 ADD PUSH1 0x5 SHR DUP3 ADD DUP2 LT PUSH2 0x9AF JUMPI POP POP PUSH2 0x6B2 JUMP JUMPDEST PUSH1 0x0 DUP2 SSTORE DUP6 SWAP5 POP PUSH1 0x1 ADD PUSH2 0x999 JUMP JUMPDEST POP DUP1 PUSH2 0x993 JUMP JUMPDEST PUSH1 0x40 MLOAD PUSH3 0x461BCD PUSH1 0xE5 SHL DUP2 MSTORE PUSH1 0x20 PUSH1 0x4 DUP3 ADD MSTORE PUSH1 0xA PUSH1 0x24 DUP3 ADD MSTORE PUSH10 0x456D707479206E616D65 PUSH1 0xB0 SHL PUSH1 0x44 DUP3 ADD MSTORE PUSH1 0x64 SWAP1 REVERT JUMPDEST CALLVALUE PUSH2 0x1A8 JUMPI PUSH1 0x0 CALLDATASIZE PUSH1 0x3 NOT ADD SLT PUSH2 0x1A8 JUMPI PUSH1 0x20 PUSH1 0x3 SLOAD PUSH1 0x40 MLOAD SWAP1 DUP2 MSTORE RETURN JUMPDEST CALLVALUE PUSH2 0x1A8 JUMPI PUSH1 0x40 CALLDATASIZE PUSH1 0x3 NOT ADD SLT PUSH2 0x1A8 JUMPI PUSH2 0xA2E PUSH2 0x2039 JUMP JUMPDEST PUSH1 0x4 CALLDATALOAD PUSH1 0x0 MSTORE PUSH1 0xB PUSH1 0x20 MSTORE PUSH1 0x40 PUSH1 0x0 KECCAK256 SWAP1 PUSH1 0x1 DUP1 PUSH1 0xA0 SHL SUB AND PUSH1 0x0 MSTORE PUSH1 0x20 MSTORE PUSH1 0x20 PUSH1 0xFF PUSH1 0x40 PUSH1 0x0 KECCAK256 SLOAD AND PUSH1 0x40 MLOAD SWAP1 ISZERO ISZERO DUP2 MSTORE RETURN JUMPDEST CALLVALUE PUSH2 0x1A8 JUMPI PUSH1 0x0 CALLDATASIZE PUSH1 0x3 NOT ADD SLT PUSH2 0x1A8 JUMPI PUSH1 0x1 SLOAD PUSH1 0x40 MLOAD PUSH1 0x1 PUSH1 0x1 PUSH1 0xA0 SHL SUB SWAP1 SWAP2 AND DUP2 MSTORE PUSH1 0x20 SWAP1 RETURN JUMPDEST CALLVALUE PUSH2 0x1A8 JUMPI PUSH1 0x20 CALLDATASIZE PUSH1 0x3 NOT ADD SLT PUSH2 0x1A8 JUMPI PUSH1 0x4 CALLDATALOAD PUSH1 0x0 MSTORE PUSH1 0x8 PUSH1 0x20 MSTORE PUSH1 0x40 PUSH1 0x0 KECCAK256 PUSH1 0x20 DUP2 SLOAD PUSH1 0x1 DUP4 ADD SLOAD SWAP3 PUSH1 0x1 DUP1 PUSH1 0xA0 SHL SUB SWAP1 DUP2 PUSH1 0x2 DUP3 ADD SLOAD AND SWAP2 PUSH2 0xAD2 PUSH1 0x3 DUP4 ADD PUSH2 0x214A JUMP JUMPDEST SWAP4 PUSH1 0x4 DUP4 ADD SLOAD SWAP5 PUSH1 0x5 DUP5 ADD SLOAD PUSH1 0x6 DUP6 ADD SLOAD SWAP1 PUSH2 0xB20 PUSH1 0x7 DUP8 ADD SLOAD SWAP4 PUSH1 0x8 DUP9 ADD SLOAD SWAP6 PUSH1 0xA PUSH1 0x9 DUP11 ADD SLOAD SWAP10 ADD SLOAD SWAP10 PUSH1 0x40 MLOAD SWAP14 DUP15 SWAP14 DUP15 PUSH2 0x180 SWAP5 DUP2 MSTORE ADD MSTORE PUSH1 0x40 DUP14 ADD MSTORE DUP1 PUSH1 0x60 DUP14 ADD MSTORE DUP12 ADD SWAP1 PUSH2 0x204F JUMP JUMPDEST SWAP8 PUSH1 0x80 DUP11 ADD MSTORE PUSH1 0xA0 DUP10 ADD MSTORE PUSH1 0xC0 DUP9 ADD MSTORE PUSH1 0xE0 DUP8 ADD MSTORE PUSH2 0xB46 PUSH2 0x100 DUP8 ADD PUSH1 0xFF DUP4 AND PUSH2 0x208F JUMP JUMPDEST PUSH1 0x8 SHR AND PUSH2 0x120 DUP6 ADD MSTORE PUSH2 0x140 DUP5 ADD MSTORE PUSH2 0x160 DUP4 ADD MSTORE SUB SWAP1 RETURN JUMPDEST CALLVALUE PUSH2 0x1A8 JUMPI PUSH1 0x40 CALLDATASIZE PUSH1 0x3 NOT ADD SLT PUSH2 0x1A8 JUMPI PUSH1 0x24 PUSH1 0x4 CALLDATALOAD PUSH1 0x1 PUSH1 0x1 PUSH1 0x40 SHL SUB DUP3 CALLDATALOAD DUP2 DUP2 GT PUSH2 0x1A8 JUMPI PUSH2 0xB95 SWAP1 CALLDATASIZE SWAP1 PUSH1 0x4 ADD PUSH2 0x222E JUMP JUMPDEST SWAP2 PUSH2 0xB9E PUSH2 0x23B4 JUMP JUMPDEST DUP4 PUSH1 0x0 MSTORE PUSH1 0x8 PUSH1 0x20 MSTORE PUSH1 0x40 PUSH1 0x0 KECCAK256 SWAP4 PUSH1 0xFF PUSH1 0x8 DUP7 ADD SLOAD AND PUSH1 0x6 DUP2 LT ISZERO PUSH2 0xEE9 JUMPI DUP1 ISZERO SWAP1 DUP2 ISZERO PUSH2 0xEDE JUMPI JUMPDEST POP ISZERO PUSH2 0xEAA JUMPI PUSH1 0x7 DUP6 ADD SLOAD TIMESTAMP LT ISZERO PUSH2 0xE77 JUMPI PUSH1 0x1 DUP6 ADD SLOAD PUSH1 0x0 MSTORE PUSH1 0xB PUSH1 0x20 MSTORE PUSH1 0x40 PUSH1 0x0 KECCAK256 CALLER PUSH1 0x0 MSTORE PUSH1 0x20 MSTORE PUSH1 0xFF PUSH1 0x40 PUSH1 0x0 KECCAK256 SLOAD AND ISZERO PUSH2 0xE33 JUMPI PUSH1 0x0 MSTORE PUSH1 0x9 PUSH1 0x20 MSTORE PUSH2 0xC29 PUSH1 0x40 PUSH1 0x0 KECCAK256 SWAP3 PUSH1 0x40 MLOAD SWAP5 PUSH2 0xC1F DUP7 PUSH2 0x20D6 JUMP JUMPDEST CALLER DUP7 MSTORE CALLDATASIZE SWAP2 PUSH2 0x22D2 JUMP JUMPDEST SWAP2 PUSH1 0x20 DUP5 ADD SWAP3 DUP4 MSTORE PUSH1 0x0 PUSH1 0x40 DUP6 ADD MSTORE PUSH1 0x0 PUSH1 0x60 DUP6 ADD MSTORE TIMESTAMP PUSH1 0x80 DUP6 ADD MSTORE DUP1 SLOAD PUSH9 0x10000000000000000 DUP2 LT ISZERO PUSH2 0xE1E JUMPI PUSH2 0xC67 SWAP2 PUSH1 0x1 DUP3 ADD DUP2 SSTORE PUSH2 0x21FC JUMP JUMPDEST SWAP3 SWAP1 SWAP3 PUSH2 0xE09 JUMPI DUP4 MLOAD DUP4 SLOAD PUSH1 0x1 PUSH1 0x1 PUSH1 0xA0 SHL SUB NOT AND PUSH1 0x1 PUSH1 0x1 PUSH1 0xA0 SHL SUB SWAP2 SWAP1 SWAP2 AND OR DUP4 SSTORE MLOAD DUP1 MLOAD SWAP1 SWAP6 SWAP1 SWAP2 DUP3 GT PUSH2 0xDF5 JUMPI POP PUSH2 0xCA6 PUSH1 0x1 DUP4 ADD SLOAD PUSH2 0x209C JUMP JUMPDEST PUSH1 0x1F DUP2 GT PUSH2 0xDAA JUMPI JUMPDEST POP PUSH1 0x20 PUSH1 0x1F DUP3 GT PUSH1 0x1 EQ PUSH2 0xD34 JUMPI SWAP1 DUP1 PUSH1 0x2 SWAP5 SWAP4 SWAP3 PUSH1 0x8 SWAP7 SWAP8 PUSH1 0x0 SWAP3 PUSH2 0xD29 JUMPI JUMPDEST POP POP DUP2 PUSH1 0x1 SHL SWAP2 PUSH1 0x0 NOT SWAP1 PUSH1 0x3 SHL SHR NOT AND OR PUSH1 0x1 DUP3 ADD SSTORE JUMPDEST PUSH1 0x40 DUP3 ADD MLOAD DUP4 DUP3 ADD SSTORE PUSH1 0x4 PUSH1 0x80 PUSH1 0x3 DUP4 ADD SWAP4 PUSH1 0x60 DUP2 ADD MLOAD ISZERO ISZERO SWAP5 PUSH1 0xFF NOT SWAP6 PUSH1 0xFF DUP8 DUP4 SLOAD AND SWAP2 AND OR SWAP1 SSTORE ADD MLOAD SWAP2 ADD SSTORE DUP3 DUP5 ADD SLOAD AND OR SWAP2 ADD SSTORE PUSH1 0x1 PUSH1 0x0 SSTORE PUSH1 0x0 DUP1 RETURN JUMPDEST ADD MLOAD SWAP1 POP DUP8 DUP1 PUSH2 0xCD0 JUMP JUMPDEST PUSH1 0x1 DUP4 ADD PUSH1 0x0 MSTORE PUSH1 0x20 PUSH1 0x0 KECCAK256 SWAP6 PUSH1 0x0 JUMPDEST PUSH1 0x1F NOT DUP5 AND DUP2 LT PUSH2 0xD92 JUMPI POP SWAP2 PUSH1 0x8 SWAP6 SWAP7 PUSH1 0x1 SWAP3 PUSH1 0x2 SWAP7 SWAP6 SWAP5 DUP4 PUSH1 0x1F NOT DUP2 AND LT PUSH2 0xD79 JUMPI JUMPDEST POP POP POP DUP2 SHL ADD PUSH1 0x1 DUP3 ADD SSTORE PUSH2 0xCE8 JUMP JUMPDEST ADD MLOAD PUSH1 0x0 NOT PUSH1 0xF8 DUP5 PUSH1 0x3 SHL AND SHR NOT AND SWAP1 SSTORE DUP8 DUP1 DUP1 PUSH2 0xD69 JUMP JUMPDEST DUP3 DUP3 ADD MLOAD DUP9 SSTORE PUSH1 0x1 SWAP1 SWAP8 ADD SWAP7 PUSH1 0x20 SWAP3 DUP4 ADD SWAP3 ADD PUSH2 0xD44 JUMP JUMPDEST PUSH1 0x1 DUP4 ADD PUSH1 0x0 MSTORE PUSH1 0x20 PUSH1 0x0 KECCAK256 PUSH1 0x1F DUP4 ADD PUSH1 0x5 SHR DUP2 ADD SWAP2 PUSH1 0x20 DUP5 LT PUSH2 0xDEB JUMPI JUMPDEST PUSH1 0x1F ADD PUSH1 0x5 SHR ADD SWAP1 JUMPDEST DUP2 DUP2 LT PUSH2 0xDDF JUMPI POP PUSH2 0xCAF JUMP JUMPDEST PUSH1 0x0 DUP2 SSTORE PUSH1 0x1 ADD PUSH2 0xDD2 JUMP JUMPDEST SWAP1 SWAP2 POP DUP2 SWAP1 PUSH2 0xDC9 JUMP JUMPDEST PUSH4 0x4E487B71 PUSH1 0xE0 SHL PUSH1 0x0 SWAP1 DUP2 MSTORE PUSH1 0x41 PUSH1 0x4 MSTORE REVERT JUMPDEST DUP6 PUSH4 0x4E487B71 PUSH1 0xE0 SHL PUSH1 0x0 MSTORE PUSH1 0x0 PUSH1 0x4 MSTORE PUSH1 0x0 REVERT JUMPDEST DUP7 PUSH4 0x4E487B71 PUSH1 0xE0 SHL PUSH1 0x0 MSTORE PUSH1 0x41 PUSH1 0x4 MSTORE PUSH1 0x0 REVERT JUMPDEST PUSH1 0x40 MLOAD PUSH3 0x461BCD PUSH1 0xE5 SHL DUP2 MSTORE PUSH1 0x20 PUSH1 0x4 DUP3 ADD MSTORE PUSH1 0x18 DUP2 DUP9 ADD MSTORE PUSH32 0x4E6F74207265676973746572656420696E207375626E65740000000000000000 PUSH1 0x44 DUP3 ADD MSTORE PUSH1 0x64 SWAP1 REVERT JUMPDEST PUSH1 0x40 MLOAD PUSH3 0x461BCD PUSH1 0xE5 SHL DUP2 MSTORE PUSH1 0x20 PUSH1 0x4 DUP3 ADD MSTORE PUSH1 0xC DUP2 DUP9 ADD MSTORE PUSH12 0x15185CDAC8195E1C1A5C9959 PUSH1 0xA2 SHL PUSH1 0x44 DUP3 ADD MSTORE PUSH1 0x64 SWAP1 REVERT JUMPDEST PUSH1 0x40 MLOAD PUSH3 0x461BCD PUSH1 0xE5 SHL DUP2 MSTORE PUSH1 0x20 PUSH1 0x4 DUP3 ADD MSTORE PUSH1 0xD DUP2 DUP9 ADD MSTORE PUSH13 0x10D85B9B9BDD081CDD589B5A5D PUSH1 0x9A SHL PUSH1 0x44 DUP3 ADD MSTORE PUSH1 0x64 SWAP1 REVERT JUMPDEST PUSH1 0x1 SWAP2 POP EQ DUP8 PUSH2 0xBC8 JUMP JUMPDEST DUP7 PUSH4 0x4E487B71 PUSH1 0xE0 SHL PUSH1 0x0 MSTORE PUSH1 0x21 PUSH1 0x4 MSTORE PUSH1 0x0 REVERT JUMPDEST CALLVALUE PUSH2 0x1A8 JUMPI PUSH1 0x20 DUP1 PUSH1 0x3 NOT CALLDATASIZE ADD SLT PUSH2 0x1A8 JUMPI PUSH1 0x4 CALLDATALOAD SWAP1 PUSH2 0xF1C PUSH2 0x23B4 JUMP JUMPDEST DUP2 PUSH1 0x0 MSTORE PUSH1 0x8 DUP2 MSTORE PUSH1 0x40 PUSH1 0x0 KECCAK256 SWAP2 PUSH1 0x8 DUP4 ADD SWAP2 DUP3 SLOAD SWAP1 PUSH1 0xFF DUP3 AND PUSH1 0x6 DUP2 LT ISZERO PUSH2 0x2FA JUMPI PUSH1 0x2 SUB PUSH2 0x1063 JUMPI PUSH1 0x1 PUSH1 0x1 PUSH1 0xA0 SHL SUB SWAP2 PUSH1 0x8 DUP2 SWAP1 SHR DUP4 AND ISZERO PUSH2 0x1032 JUMPI SWAP2 PUSH1 0x60 SWAP2 PUSH1 0x3 PUSH32 0xAE64F0A069112683796FC01E7D04EA7E255A3CD070A7DCE992FDCDECBC1E6D52 SWAP5 PUSH1 0xFF NOT AND OR DUP7 SSTORE PUSH1 0x1 DUP8 ADD SWAP7 DUP8 SLOAD PUSH1 0x0 MSTORE PUSH1 0x7 DUP3 MSTORE PUSH1 0x40 PUSH1 0x0 KECCAK256 SWAP3 PUSH1 0x4 DUP3 ADD SWAP9 DUP10 SLOAD PUSH2 0xFB4 PUSH1 0x6 DUP8 ADD SWAP2 DUP3 SLOAD PUSH2 0x229B JUMP JUMPDEST SWAP1 SSTORE PUSH1 0x7 DUP6 ADD PUSH2 0xFC4 DUP2 SLOAD PUSH2 0x22A8 JUMP JUMPDEST SWAP1 SSTORE PUSH2 0xFF7 PUSH1 0x5 DUP5 ADD SWAP6 PUSH2 0xFDB DUP8 SLOAD PUSH1 0x6 SLOAD PUSH2 0x229B JUMP JUMPDEST PUSH1 0x6 SSTORE PUSH1 0x6 DUP5 PUSH1 0x3 DUP2 PUSH1 0x2 SLOAD AND SWAP4 ADD SLOAD AND SWAP6 ADD SWAP5 DUP6 SLOAD SWAP2 PUSH2 0x2451 JUMP JUMPDEST PUSH2 0x100E DUP3 PUSH1 0x2 SLOAD AND DUP4 DUP12 SLOAD PUSH1 0x8 SHR AND DUP13 SLOAD SWAP2 PUSH2 0x2451 JUMP JUMPDEST SLOAD SWAP8 SLOAD PUSH1 0x8 SHR AND SWAP8 SLOAD SWAP3 SLOAD SWAP1 SLOAD SWAP2 PUSH1 0x40 MLOAD SWAP4 DUP5 MSTORE DUP4 ADD MSTORE PUSH1 0x40 DUP3 ADD MSTORE LOG4 PUSH1 0x1 PUSH1 0x0 SSTORE STOP JUMPDEST PUSH1 0x40 MLOAD PUSH3 0x461BCD PUSH1 0xE5 SHL DUP2 MSTORE PUSH1 0x4 DUP2 ADD DUP4 SWAP1 MSTORE PUSH1 0x9 PUSH1 0x24 DUP3 ADD MSTORE PUSH9 0x2737903BB4B73732B9 PUSH1 0xB9 SHL PUSH1 0x44 DUP3 ADD MSTORE PUSH1 0x64 SWAP1 REVERT JUMPDEST PUSH1 0x64 SWAP1 PUSH1 0x40 MLOAD SWAP1 PUSH3 0x461BCD PUSH1 0xE5 SHL DUP3 MSTORE PUSH1 0x4 DUP3 ADD MSTORE PUSH1 0x9 PUSH1 0x24 DUP3 ADD MSTORE PUSH9 0x4E6F74207265616479 PUSH1 0xB8 SHL PUSH1 0x44 DUP3 ADD MSTORE REVERT JUMPDEST CALLVALUE PUSH2 0x1A8 JUMPI PUSH1 0x0 CALLDATASIZE PUSH1 0x3 NOT ADD SLT PUSH2 0x1A8 JUMPI PUSH1 0x6 SLOAD DUP1 ISZERO PUSH2 0x10FE JUMPI PUSH1 0x0 PUSH1 0x6 SSTORE PUSH32 0xA087657E3D85162090FFD700FBFDF5070D816F63AA5DA00063F6FFD369C8A6DB PUSH1 0x20 PUSH1 0x1 DUP1 PUSH1 0xA0 SHL SUB PUSH2 0x10F0 DUP5 DUP3 PUSH1 0x2 SLOAD AND DUP4 PUSH1 0x5 SLOAD AND SWAP1 PUSH2 0x2451 JUMP JUMPDEST PUSH1 0x5 SLOAD AND SWAP3 PUSH1 0x40 MLOAD SWAP1 DUP2 MSTORE LOG2 STOP JUMPDEST PUSH1 0x40 MLOAD PUSH3 0x461BCD PUSH1 0xE5 SHL DUP2 MSTORE PUSH1 0x20 PUSH1 0x4 DUP3 ADD MSTORE PUSH1 0x7 PUSH1 0x24 DUP3 ADD MSTORE PUSH7 0x4E6F2066656573 PUSH1 0xC8 SHL PUSH1 0x44 DUP3 ADD MSTORE PUSH1 0x64 SWAP1 REVERT JUMPDEST CALLVALUE PUSH2 0x1A8 JUMPI PUSH1 0x0 CALLDATASIZE PUSH1 0x3 NOT ADD SLT PUSH2 0x1A8 JUMPI PUSH1 0x5 SLOAD PUSH1 0x40 MLOAD PUSH1 0x1 PUSH1 0x1 PUSH1 0xA0 SHL SUB SWAP1 SWAP2 AND DUP2 MSTORE PUSH1 0x20 SWAP1 RETURN JUMPDEST CALLVALUE PUSH2 0x1A8 JUMPI PUSH1 0x60 CALLDATASIZE PUSH1 0x3 NOT ADD SLT PUSH2 0x1A8 JUMPI PUSH1 0x4 CALLDATALOAD PUSH1 0x24 CALLDATALOAD PUSH1 0x44 CALLDATALOAD PUSH1 0x3 DUP2 LT ISZERO PUSH2 0x1A8 JUMPI PUSH1 0x0 DUP4 DUP2 MSTORE PUSH1 0x7 PUSH1 0x20 MSTORE PUSH1 0x40 SWAP1 KECCAK256 PUSH1 0x3 DUP2 ADD SLOAD SWAP1 SWAP3 SWAP1 PUSH1 0x1 PUSH1 0x1 PUSH1 0xA0 SHL SUB AND CALLER SUB PUSH2 0x11F8 JUMPI PUSH2 0x11F5 DUP3 PUSH2 0x11E6 PUSH1 0x40 SWAP5 PUSH1 0x9 PUSH32 0xA2191EFE487E08892E9D1920150485AAF7591F089BDDE895929D692EA8C4E08A SWAP8 PUSH2 0x11DA PUSH2 0x7D0 DUP9 GT ISZERO PUSH2 0x2309 JUMP JUMPDEST DUP7 PUSH1 0x4 DUP3 ADD SSTORE ADD PUSH2 0x2344 JUMP JUMPDEST DUP4 MLOAD SWAP3 DUP4 MSTORE PUSH1 0x20 DUP4 ADD SWAP1 PUSH2 0x21EF JUMP JUMPDEST LOG2 STOP JUMPDEST PUSH1 0x40 MLOAD PUSH3 0x461BCD PUSH1 0xE5 SHL DUP2 MSTORE PUSH1 0x20 PUSH1 0x4 DUP3 ADD MSTORE PUSH1 0x10 PUSH1 0x24 DUP3 ADD MSTORE PUSH16 0x2737BA1039BAB13732BA1037BBB732B9 PUSH1 0x81 SHL PUSH1 0x44 DUP3 ADD MSTORE PUSH1 0x64 SWAP1 REVERT JUMPDEST CALLVALUE PUSH2 0x1A8 JUMPI PUSH1 0x0 CALLDATASIZE PUSH1 0x3 NOT ADD SLT PUSH2 0x1A8 JUMPI PUSH2 0x1249 PUSH2 0x235C JUMP JUMPDEST PUSH1 0x1 DUP1 SLOAD PUSH1 0x1 PUSH1 0x1 PUSH1 0xA0 SHL SUB NOT DUP2 AND SWAP1 SWAP2 SSTORE PUSH1 0x0 SWAP1 PUSH1 0x1 PUSH1 0x1 PUSH1 0xA0 SHL SUB AND PUSH32 0x8BE0079C531659141344CD1FD0A4F28419497F9722A3DAAFE3B4186F6B6457E0 DUP3 DUP1 LOG3 STOP JUMPDEST CALLVALUE PUSH2 0x1A8 JUMPI PUSH1 0x20 DUP1 PUSH1 0x3 NOT CALLDATASIZE ADD SLT PUSH2 0x1A8 JUMPI PUSH1 0x4 CALLDATALOAD SWAP1 DUP2 PUSH1 0x0 MSTORE PUSH1 0x7 DUP2 MSTORE PUSH1 0xFF PUSH1 0x9 PUSH1 0x40 PUSH1 0x0 KECCAK256 ADD SLOAD AND PUSH1 0x3 DUP2 LT ISZERO PUSH2 0x2FA JUMPI PUSH2 0x12CA SWAP1 ISZERO PUSH2 0x225B JUMP JUMPDEST DUP2 PUSH1 0x0 MSTORE PUSH1 0xB DUP2 MSTORE PUSH1 0x40 PUSH1 0x0 KECCAK256 CALLER PUSH1 0x0 MSTORE DUP2 MSTORE PUSH1 0xFF PUSH1 0x40 PUSH1 0x0 KECCAK256 SLOAD AND PUSH2 0x136B JUMPI PUSH1 0x7 SWAP1 DUP3 PUSH1 0x0 MSTORE PUSH1 0xB DUP2 MSTORE PUSH1 0x40 PUSH1 0x0 KECCAK256 CALLER PUSH1 0x0 MSTORE DUP2 MSTORE PUSH1 0x40 PUSH1 0x0 KECCAK256 PUSH1 0x1 PUSH1 0xFF NOT DUP3 SLOAD AND OR SWAP1 SSTORE DUP3 PUSH1 0x0 MSTORE PUSH1 0xC DUP2 MSTORE PUSH1 0x40 PUSH1 0x0 KECCAK256 PUSH2 0x1327 DUP2 SLOAD PUSH2 0x22A8 JUMP JUMPDEST SWAP1 SSTORE DUP3 PUSH1 0x0 MSTORE MSTORE PUSH1 0x8 PUSH1 0x40 PUSH1 0x0 KECCAK256 ADD PUSH2 0x1340 DUP2 SLOAD PUSH2 0x22A8 JUMP JUMPDEST SWAP1 SSTORE CALLER SWAP1 PUSH32 0xBAAE7A2BE0ECFA867D60FCDAE77877A3DDA7484C504290098D77F256415ABAB2 PUSH1 0x0 DUP1 LOG3 STOP JUMPDEST PUSH1 0x64 SWAP1 PUSH1 0x40 MLOAD SWAP1 PUSH3 0x461BCD PUSH1 0xE5 SHL DUP3 MSTORE PUSH1 0x4 DUP3 ADD MSTORE PUSH1 0x12 PUSH1 0x24 DUP3 ADD MSTORE PUSH18 0x105B1C9958591E481C9959DA5CDD195C9959 PUSH1 0x72 SHL PUSH1 0x44 DUP3 ADD MSTORE REVERT JUMPDEST CALLVALUE PUSH2 0x1A8 JUMPI PUSH1 0x80 CALLDATASIZE PUSH1 0x3 NOT ADD SLT PUSH2 0x1A8 JUMPI PUSH1 0x24 CALLDATALOAD PUSH1 0x1 PUSH1 0x1 PUSH1 0x40 SHL SUB DUP2 GT PUSH2 0x1A8 JUMPI PUSH2 0x13D4 SWAP1 CALLDATASIZE SWAP1 PUSH1 0x4 ADD PUSH2 0x222E JUMP JUMPDEST PUSH1 0x64 SWAP2 PUSH2 0x13DF PUSH2 0x23B4 JUMP JUMPDEST PUSH2 0x13E7 PUSH2 0x240A JUMP JUMPDEST PUSH1 0x4 CALLDATALOAD PUSH1 0x0 MSTORE PUSH1 0x7 PUSH1 0x20 MSTORE PUSH1 0x40 PUSH1 0x0 KECCAK256 PUSH1 0xFF PUSH1 0x9 DUP3 ADD SLOAD AND PUSH1 0x3 DUP2 LT ISZERO PUSH2 0x2FA JUMPI PUSH2 0x1412 SWAP1 ISZERO PUSH2 0x225B JUMP JUMPDEST PUSH1 0x5 DUP2 ADD SLOAD PUSH1 0x44 CALLDATALOAD LT PUSH2 0x17B7 JUMPI DUP4 CALLDATALOAD ISZERO ISZERO DUP1 PUSH2 0x17A9 JUMPI JUMPDEST ISZERO PUSH2 0x1772 JUMPI PUSH1 0x44 CALLDATALOAD DUP1 ISZERO SWAP1 DUP1 DUP7 MUL SWAP1 DUP2 DIV DUP7 EQ DUP3 OR ISZERO PUSH2 0x175C JUMPI PUSH1 0x4 PUSH2 0x2710 SWAP4 ADD SLOAD SWAP2 DUP3 PUSH1 0x44 CALLDATALOAD MUL SWAP3 PUSH1 0x44 CALLDATALOAD DUP5 DIV EQ OR ISZERO PUSH2 0x175C JUMPI DUP3 SWAP1 PUSH2 0x14B7 PUSH2 0x147C DUP4 DUP6 DIV PUSH2 0x1477 DUP6 DUP6 DIV PUSH1 0x44 CALLDATALOAD PUSH2 0x229B JUMP JUMPDEST PUSH2 0x229B JUMP JUMPDEST PUSH1 0x2 SLOAD PUSH1 0x40 MLOAD PUSH4 0x23B872DD PUSH1 0xE0 SHL PUSH1 0x20 DUP3 ADD MSTORE CALLER PUSH1 0x24 DUP3 ADD MSTORE ADDRESS PUSH1 0x44 DUP3 ADD MSTORE DUP11 DUP2 ADD SWAP3 SWAP1 SWAP3 MSTORE DUP10 DUP3 MSTORE PUSH1 0x1 PUSH1 0x1 PUSH1 0xA0 SHL SUB AND PUSH2 0x5F5 DUP3 PUSH2 0x20D6 JUMP JUMPDEST PUSH2 0x14FA PUSH2 0x14D4 PUSH1 0x4 SLOAD SWAP9 PUSH2 0x14CA DUP11 PUSH2 0x22A8 JUMP JUMPDEST PUSH1 0x4 SSTORE CALLDATALOAD TIMESTAMP PUSH2 0x229B JUMP JUMPDEST SWAP6 PUSH1 0x40 MLOAD SWAP8 PUSH2 0x14E2 DUP10 PUSH2 0x20F1 JUMP JUMPDEST DUP10 DUP10 MSTORE PUSH1 0x4 CALLDATALOAD PUSH1 0x20 DUP11 ADD MSTORE CALLER PUSH1 0x40 DUP11 ADD MSTORE CALLDATASIZE SWAP2 PUSH2 0x22D2 JUMP JUMPDEST PUSH1 0x60 DUP8 ADD MSTORE PUSH1 0x44 CALLDATALOAD PUSH1 0x80 DUP8 ADD MSTORE DIV PUSH1 0xA0 DUP6 ADD MSTORE DIV PUSH1 0xC0 DUP4 ADD MSTORE PUSH1 0xE0 DUP3 ADD MSTORE PUSH1 0x0 PUSH2 0x100 DUP3 ADD MSTORE PUSH1 0x0 PUSH2 0x120 DUP3 ADD MSTORE PUSH1 0x0 PUSH2 0x140 DUP3 ADD MSTORE TIMESTAMP PUSH2 0x160 DUP3 ADD MSTORE DUP2 PUSH1 0x0 MSTORE PUSH1 0x8 PUSH1 0x20 MSTORE PUSH1 0x40 PUSH1 0x0 KECCAK256 SWAP2 DUP2 MLOAD DUP4 SSTORE PUSH1 0x20 DUP3 ADD MLOAD PUSH1 0x1 DUP5 ADD SSTORE PUSH1 0x2 DUP4 ADD PUSH1 0x1 DUP1 PUSH1 0xA0 SHL SUB PUSH1 0x40 DUP5 ADD MLOAD AND PUSH1 0x1 PUSH1 0x1 PUSH1 0x60 SHL SUB PUSH1 0xA0 SHL DUP3 SLOAD AND OR SWAP1 SSTORE PUSH1 0x60 DUP3 ADD MLOAD SWAP3 DUP4 MLOAD PUSH1 0x1 PUSH1 0x1 PUSH1 0x40 SHL SUB DUP2 GT PUSH2 0x8DF JUMPI PUSH2 0x1599 PUSH1 0x3 DUP4 ADD SLOAD PUSH2 0x209C JUMP JUMPDEST PUSH1 0x1F DUP2 GT PUSH2 0x1715 JUMPI JUMPDEST POP PUSH1 0x20 PUSH1 0x1F DUP3 GT PUSH1 0x1 EQ PUSH2 0x16A6 JUMPI DUP2 SWAP3 SWAP4 SWAP5 SWAP6 PUSH1 0x0 SWAP3 PUSH2 0x169B JUMPI JUMPDEST POP POP DUP2 PUSH1 0x1 SHL SWAP2 PUSH1 0x0 NOT SWAP1 PUSH1 0x3 SHL SHR NOT AND OR PUSH1 0x3 DUP3 ADD SSTORE JUMPDEST PUSH1 0x80 DUP4 ADD MLOAD PUSH1 0x4 DUP3 ADD SSTORE PUSH1 0xA0 DUP4 ADD MLOAD PUSH1 0x5 DUP3 ADD SSTORE PUSH1 0xC0 DUP4 ADD MLOAD PUSH1 0x6 DUP3 ADD SSTORE PUSH1 0xE0 DUP4 ADD MLOAD PUSH1 0x7 DUP3 ADD SSTORE PUSH1 0x8 DUP2 ADD PUSH2 0x100 DUP5 ADD MLOAD SWAP1 PUSH1 0x6 DUP3 LT ISZERO PUSH2 0x2FA JUMPI DUP1 SLOAD PUSH2 0x120 DUP7 ADD MLOAD PUSH2 0x100 PUSH1 0x1 PUSH1 0xA8 SHL SUB PUSH1 0x8 SWAP2 SWAP1 SWAP2 SHL AND PUSH1 0xFF SWAP4 SWAP1 SWAP4 AND PUSH1 0x1 PUSH1 0x1 PUSH1 0xA8 SHL SUB NOT SWAP1 SWAP2 AND OR SWAP2 SWAP1 SWAP2 OR SWAP1 SSTORE PUSH1 0x20 SWAP3 PUSH1 0xA SWAP1 PUSH2 0x160 SWAP1 PUSH2 0x140 DUP2 ADD MLOAD PUSH1 0x9 DUP6 ADD SSTORE ADD MLOAD SWAP2 ADD SSTORE PUSH1 0x40 MLOAD PUSH1 0x44 CALLDATALOAD DUP2 MSTORE CALLER SWAP1 DUP3 PUSH32 0x428F55877EE911B6C5ACC83EF215F08675D3787BDFAC5018BBE41876DF710F49 DUP6 PUSH1 0x4 CALLDATALOAD SWAP4 LOG4 PUSH1 0x1 PUSH1 0x0 SSTORE PUSH1 0x40 MLOAD SWAP1 DUP2 MSTORE RETURN JUMPDEST ADD MLOAD SWAP1 POP DUP6 DUP1 PUSH2 0x15BD JUMP JUMPDEST PUSH1 0x3 DUP4 ADD PUSH1 0x0 MSTORE PUSH1 0x20 PUSH1 0x0 KECCAK256 SWAP1 PUSH1 0x0 JUMPDEST PUSH1 0x1F NOT DUP5 AND DUP2 LT PUSH2 0x16FD JUMPI POP PUSH1 0x1 SWAP4 SWAP5 SWAP6 SWAP7 DUP4 PUSH1 0x1F NOT DUP2 AND LT PUSH2 0x16E4 JUMPI JUMPDEST POP POP POP DUP2 SHL ADD PUSH1 0x3 DUP3 ADD SSTORE PUSH2 0x15D5 JUMP JUMPDEST ADD MLOAD PUSH1 0x0 NOT PUSH1 0xF8 DUP5 PUSH1 0x3 SHL AND SHR NOT AND SWAP1 SSTORE DUP6 DUP1 DUP1 PUSH2 0x16D4 JUMP JUMPDEST SWAP1 SWAP2 PUSH1 0x20 PUSH1 0x1 DUP2 SWAP3 DUP6 DUP12 ADD MLOAD DUP2 SSTORE ADD SWAP4 ADD SWAP2 ADD PUSH2 0x16B6 JUMP JUMPDEST PUSH1 0x3 DUP4 ADD PUSH1 0x0 MSTORE PUSH1 0x20 PUSH1 0x0 KECCAK256 PUSH1 0x1F DUP4 ADD PUSH1 0x5 SHR DUP2 ADD PUSH1 0x20 DUP5 LT PUSH2 0x1755 JUMPI JUMPDEST PUSH1 0x1F DUP4 ADD PUSH1 0x5 SHR DUP3 ADD DUP2 LT PUSH2 0x1749 JUMPI POP POP PUSH2 0x15A2 JUMP JUMPDEST PUSH1 0x0 DUP2 SSTORE PUSH1 0x1 ADD PUSH2 0x1733 JUMP JUMPDEST POP DUP1 PUSH2 0x1733 JUMP JUMPDEST PUSH4 0x4E487B71 PUSH1 0xE0 SHL PUSH1 0x0 MSTORE PUSH1 0x11 PUSH1 0x4 MSTORE PUSH1 0x24 PUSH1 0x0 REVERT JUMPDEST PUSH1 0x40 MLOAD PUSH3 0x461BCD PUSH1 0xE5 SHL DUP2 MSTORE PUSH1 0x20 PUSH1 0x4 DUP3 ADD MSTORE PUSH1 0x10 PUSH1 0x24 DUP3 ADD MSTORE PUSH16 0x24B73B30B634B210323AB930BA34B7B7 PUSH1 0x81 SHL PUSH1 0x44 DUP3 ADD MSTORE DUP5 SWAP1 REVERT JUMPDEST POP PUSH3 0x93A80 DUP5 CALLDATALOAD GT ISZERO PUSH2 0x1429 JUMP JUMPDEST PUSH1 0x40 MLOAD PUSH3 0x461BCD PUSH1 0xE5 SHL DUP2 MSTORE PUSH1 0x20 PUSH1 0x4 DUP3 ADD MSTORE PUSH1 0xE PUSH1 0x24 DUP3 ADD MSTORE PUSH14 0x52657761726420746F6F206C6F77 PUSH1 0x90 SHL PUSH1 0x44 DUP3 ADD MSTORE DUP5 SWAP1 REVERT JUMPDEST CALLVALUE PUSH2 0x1A8 JUMPI PUSH1 0x0 CALLDATASIZE PUSH1 0x3 NOT ADD SLT PUSH2 0x1A8 JUMPI PUSH1 0x20 PUSH1 0xFF PUSH1 0x1 SLOAD PUSH1 0xA0 SHR AND PUSH1 0x40 MLOAD SWAP1 ISZERO ISZERO DUP2 MSTORE RETURN JUMPDEST CALLVALUE PUSH2 0x1A8 JUMPI PUSH1 0x20 CALLDATASIZE PUSH1 0x3 NOT ADD SLT PUSH2 0x1A8 JUMPI PUSH1 0x0 PUSH2 0x140 PUSH1 0x40 MLOAD PUSH2 0x1834 DUP2 PUSH2 0x210D JUMP JUMPDEST DUP3 DUP2 MSTORE PUSH1 0x60 PUSH1 0x20 DUP3 ADD MSTORE PUSH1 0x60 PUSH1 0x40 DUP3 ADD MSTORE DUP3 PUSH1 0x60 DUP3 ADD MSTORE DUP3 PUSH1 0x80 DUP3 ADD MSTORE DUP3 PUSH1 0xA0 DUP3 ADD MSTORE DUP3 PUSH1 0xC0 DUP3 ADD MSTORE DUP3 PUSH1 0xE0 DUP3 ADD MSTORE DUP3 PUSH2 0x100 DUP3 ADD MSTORE DUP3 PUSH2 0x120 DUP3 ADD MSTORE ADD MSTORE PUSH1 0x4 CALLDATALOAD PUSH1 0x0 MSTORE PUSH1 0x7 PUSH1 0x20 MSTORE PUSH1 0x40 PUSH1 0x0 KECCAK256 PUSH1 0x40 MLOAD SWAP1 PUSH2 0x1890 DUP3 PUSH2 0x210D JUMP JUMPDEST DUP1 SLOAD DUP3 MSTORE PUSH2 0x18A0 PUSH1 0x1 DUP3 ADD PUSH2 0x214A JUMP JUMPDEST PUSH1 0x20 DUP4 ADD MSTORE PUSH2 0x18B1 PUSH1 0x2 DUP3 ADD PUSH2 0x214A JUMP JUMPDEST PUSH1 0x40 DUP4 ADD MSTORE PUSH1 0x3 DUP2 DUP2 ADD SLOAD PUSH1 0x1 PUSH1 0x1 PUSH1 0xA0 SHL SUB AND PUSH1 0x60 DUP5 ADD MSTORE PUSH1 0x4 DUP3 ADD SLOAD PUSH1 0x80 DUP5 ADD MSTORE PUSH1 0x5 DUP3 ADD SLOAD PUSH1 0xA0 DUP5 ADD MSTORE PUSH1 0x6 DUP3 ADD SLOAD PUSH1 0xC0 DUP5 ADD MSTORE PUSH1 0x7 DUP3 ADD SLOAD PUSH1 0xE0 DUP5 ADD MSTORE PUSH1 0x8 DUP3 ADD SLOAD PUSH2 0x100 DUP5 ADD MSTORE PUSH1 0x9 DUP3 ADD SLOAD PUSH1 0xFF AND SWAP2 SWAP1 DUP3 LT ISZERO PUSH2 0x2FA JUMPI PUSH1 0xA SWAP2 PUSH2 0x120 DUP5 ADD MSTORE ADD SLOAD PUSH2 0x140 DUP3 ADD MSTORE PUSH1 0x40 MLOAD DUP1 SWAP2 PUSH1 0x20 DUP3 MSTORE DUP1 MLOAD PUSH1 0x20 DUP4 ADD MSTORE PUSH2 0x140 PUSH2 0x1966 PUSH2 0x1950 PUSH1 0x20 DUP5 ADD MLOAD PUSH2 0x160 PUSH1 0x40 DUP8 ADD MSTORE PUSH2 0x180 DUP7 ADD SWAP1 PUSH2 0x204F JUMP JUMPDEST PUSH1 0x40 DUP5 ADD MLOAD DUP6 DUP3 SUB PUSH1 0x1F NOT ADD PUSH1 0x60 DUP8 ADD MSTORE PUSH2 0x204F JUMP JUMPDEST SWAP2 PUSH1 0x1 DUP1 PUSH1 0xA0 SHL SUB PUSH1 0x60 DUP3 ADD MLOAD AND PUSH1 0x80 DUP6 ADD MSTORE PUSH1 0x80 DUP2 ADD MLOAD PUSH1 0xA0 DUP6 ADD MSTORE PUSH1 0xA0 DUP2 ADD MLOAD PUSH1 0xC0 DUP6 ADD MSTORE PUSH1 0xC0 DUP2 ADD MLOAD PUSH1 0xE0 DUP6 ADD MSTORE PUSH1 0xE0 DUP2 ADD MLOAD PUSH2 0x100 DUP6 ADD MSTORE PUSH2 0x100 DUP2 ADD MLOAD PUSH2 0x120 DUP6 ADD MSTORE PUSH2 0x19C0 PUSH2 0x120 DUP3 ADD MLOAD DUP4 DUP7 ADD SWAP1 PUSH2 0x21EF JUMP JUMPDEST ADD MLOAD PUSH2 0x160 DUP4 ADD MSTORE SUB SWAP1 RETURN JUMPDEST CALLVALUE PUSH2 0x1A8 JUMPI PUSH1 0x40 CALLDATASIZE PUSH1 0x3 NOT ADD SLT PUSH2 0x1A8 JUMPI PUSH1 0x24 CALLDATALOAD PUSH1 0x4 CALLDATALOAD PUSH1 0x0 MSTORE PUSH1 0x9 PUSH1 0x20 MSTORE PUSH1 0x40 PUSH1 0x0 KECCAK256 SWAP1 DUP2 SLOAD DUP2 LT ISZERO PUSH2 0x1A8 JUMPI PUSH2 0x1A03 SWAP2 PUSH2 0x21FC JUMP JUMPDEST POP DUP1 SLOAD PUSH1 0x1 PUSH1 0x1 PUSH1 0xA0 SHL SUB AND PUSH2 0x1A1B PUSH1 0x1 DUP4 ADD PUSH2 0x214A JUMP JUMPDEST SWAP2 PUSH1 0x2 DUP2 ADD SLOAD SWAP1 PUSH1 0x4 PUSH1 0xFF PUSH1 0x3 DUP4 ADD SLOAD AND SWAP2 ADD SLOAD SWAP1 PUSH2 0x1A4C PUSH1 0x40 MLOAD SWAP6 DUP7 SWAP6 DUP7 MSTORE PUSH1 0xA0 PUSH1 0x20 DUP8 ADD MSTORE PUSH1 0xA0 DUP7 ADD SWAP1 PUSH2 0x204F JUMP JUMPDEST SWAP3 PUSH1 0x40 DUP6 ADD MSTORE ISZERO ISZERO PUSH1 0x60 DUP5 ADD MSTORE PUSH1 0x80 DUP4 ADD MSTORE SUB SWAP1 RETURN JUMPDEST CALLVALUE PUSH2 0x1A8 JUMPI PUSH1 0x40 CALLDATASIZE PUSH1 0x3 NOT ADD SLT PUSH2 0x1A8 JUMPI PUSH1 0x4 CALLDATALOAD PUSH2 0x1A7E PUSH2 0x2039 JUMP JUMPDEST PUSH1 0x0 DUP3 DUP2 MSTORE PUSH1 0x7 PUSH1 0x20 MSTORE PUSH1 0x40 SWAP1 KECCAK256 PUSH1 0x3 ADD SLOAD SWAP1 SWAP2 PUSH1 0x1 PUSH1 0x1 PUSH1 0xA0 SHL SUB SWAP2 DUP3 AND CALLER EQ DUP1 ISZERO PUSH2 0x1B0B JUMPI JUMPDEST ISZERO PUSH2 0x1AD5 JUMPI PUSH1 0x0 MSTORE PUSH1 0xA PUSH1 0x20 MSTORE PUSH1 0x40 PUSH1 0x0 KECCAK256 SWAP2 AND PUSH1 0x0 MSTORE PUSH1 0x20 MSTORE PUSH1 0x40 PUSH1 0x0 KECCAK256 PUSH1 0x1 PUSH1 0xFF NOT DUP3 SLOAD AND OR SWAP1 SSTORE PUSH1 0x0 DUP1 RETURN JUMPDEST PUSH1 0x40 MLOAD PUSH3 0x461BCD PUSH1 0xE5 SHL DUP2 MSTORE PUSH1 0x20 PUSH1 0x4 DUP3 ADD MSTORE PUSH1 0xE PUSH1 0x24 DUP3 ADD MSTORE PUSH14 0x139BDD08185D5D1A1BDC9A5E9959 PUSH1 0x92 SHL PUSH1 0x44 DUP3 ADD MSTORE PUSH1 0x64 SWAP1 REVERT JUMPDEST POP DUP2 PUSH1 0x1 SLOAD AND CALLER EQ PUSH2 0x1AA6 JUMP JUMPDEST CALLVALUE PUSH2 0x1A8 JUMPI PUSH1 0x0 CALLDATASIZE PUSH1 0x3 NOT ADD SLT PUSH2 0x1A8 JUMPI PUSH1 0x20 PUSH1 0x40 MLOAD PUSH2 0x7D0 DUP2 MSTORE RETURN JUMPDEST CALLVALUE PUSH2 0x1A8 JUMPI PUSH1 0x20 CALLDATASIZE PUSH1 0x3 NOT ADD SLT PUSH2 0x1A8 JUMPI PUSH1 0x4 CALLDATALOAD PUSH1 0x0 MSTORE PUSH1 0x7 PUSH1 0x20 MSTORE PUSH1 0x40 PUSH1 0x0 KECCAK256 DUP1 SLOAD PUSH2 0x1B64 PUSH1 0x1 DUP4 ADD PUSH2 0x214A JUMP JUMPDEST SWAP2 PUSH2 0x1B71 PUSH1 0x2 DUP3 ADD PUSH2 0x214A JUMP JUMPDEST PUSH2 0x1C04 PUSH1 0x1 DUP1 PUSH1 0xA0 SHL SUB PUSH1 0x3 DUP5 ADD SLOAD AND SWAP3 PUSH1 0x4 DUP2 ADD SLOAD PUSH1 0x5 DUP3 ADD SLOAD PUSH1 0x6 DUP4 ADD SLOAD PUSH1 0x7 DUP5 ADD SLOAD SWAP2 PUSH1 0x8 DUP6 ADD SLOAD SWAP4 PUSH2 0x1BD9 PUSH1 0xA PUSH1 0xFF PUSH1 0x9 DUP10 ADD SLOAD AND SWAP8 ADD SLOAD SWAP9 PUSH2 0x1BCB PUSH1 0x40 MLOAD SWAP14 DUP15 SWAP14 DUP15 PUSH2 0x160 SWAP2 DUP2 MSTORE DUP2 PUSH1 0x20 DUP3 ADD MSTORE ADD SWAP1 PUSH2 0x204F JUMP JUMPDEST DUP13 DUP2 SUB PUSH1 0x40 DUP15 ADD MSTORE SWAP1 PUSH2 0x204F JUMP JUMPDEST SWAP9 PUSH1 0x60 DUP12 ADD MSTORE PUSH1 0x80 DUP11 ADD MSTORE PUSH1 0xA0 DUP10 ADD MSTORE PUSH1 0xC0 DUP9 ADD MSTORE PUSH1 0xE0 DUP8 ADD MSTORE PUSH2 0x100 DUP7 ADD MSTORE PUSH2 0x120 DUP6 ADD SWAP1 PUSH2 0x21EF JUMP JUMPDEST PUSH2 0x140 DUP4 ADD MSTORE SUB SWAP1 RETURN JUMPDEST CALLVALUE PUSH2 0x1A8 JUMPI PUSH1 0x20 CALLDATASIZE PUSH1 0x3 NOT ADD SLT PUSH2 0x1A8 JUMPI PUSH1 0x4 CALLDATALOAD PUSH1 0x0 MSTORE PUSH1 0xC PUSH1 0x20 MSTORE PUSH1 0x20 PUSH1 0x40 PUSH1 0x0 KECCAK256 SLOAD PUSH1 0x40 MLOAD SWAP1 DUP2 MSTORE RETURN JUMPDEST CALLVALUE PUSH2 0x1A8 JUMPI PUSH1 0x20 CALLDATASIZE PUSH1 0x3 NOT ADD SLT PUSH2 0x1A8 JUMPI PUSH1 0x0 PUSH2 0x160 PUSH1 0x40 MLOAD PUSH2 0x1C5C DUP2 PUSH2 0x20F1 JUMP JUMPDEST DUP3 DUP2 MSTORE DUP3 PUSH1 0x20 DUP3 ADD MSTORE DUP3 PUSH1 0x40 DUP3 ADD MSTORE PUSH1 0x60 DUP1 DUP3 ADD MSTORE DUP3 PUSH1 0x80 DUP3 ADD MSTORE DUP3 PUSH1 0xA0 DUP3 ADD MSTORE DUP3 PUSH1 0xC0 DUP3 ADD MSTORE DUP3 PUSH1 0xE0 DUP3 ADD MSTORE DUP3 PUSH2 0x100 DUP3 ADD MSTORE DUP3 PUSH2 0x120 DUP3 ADD MSTORE DUP3 PUSH2 0x140 DUP3 ADD MSTORE ADD MSTORE PUSH1 0x4 CALLDATALOAD PUSH1 0x0 MSTORE PUSH1 0x8 PUSH1 0x20 MSTORE PUSH1 0x40 PUSH1 0x0 KECCAK256 PUSH1 0x40 MLOAD SWAP1 PUSH2 0x1CBD DUP3 PUSH2 0x20F1 JUMP JUMPDEST DUP1 SLOAD DUP3 MSTORE PUSH1 0x1 DUP2 ADD SLOAD PUSH1 0x20 DUP4 ADD MSTORE PUSH1 0x2 DUP2 ADD SLOAD PUSH1 0x1 PUSH1 0x1 PUSH1 0xA0 SHL SUB AND PUSH1 0x40 DUP4 ADD MSTORE PUSH2 0x1CEA PUSH1 0x3 DUP3 ADD PUSH2 0x214A JUMP JUMPDEST PUSH1 0x60 DUP4 ADD MSTORE PUSH1 0x4 DUP2 ADD SLOAD PUSH1 0x80 DUP4 ADD MSTORE PUSH1 0x5 DUP2 ADD SLOAD PUSH1 0xA0 DUP4 ADD MSTORE PUSH1 0x6 DUP2 ADD SLOAD PUSH1 0xC0 DUP4 ADD MSTORE PUSH1 0x7 DUP2 ADD SLOAD PUSH1 0xE0 DUP4 ADD MSTORE PUSH1 0x8 DUP2 ADD SLOAD SWAP1 PUSH1 0xFF DUP3 AND SWAP2 PUSH1 0x6 DUP4 LT ISZERO PUSH2 0x2FA JUMPI PUSH1 0xA SWAP3 PUSH2 0x100 DUP6 ADD MSTORE PUSH1 0x1 DUP1 PUSH1 0xA0 SHL SUB SWAP1 PUSH1 0x8 SHR AND PUSH2 0x120 DUP5 ADD MSTORE PUSH1 0x9 DUP2 ADD SLOAD PUSH2 0x140 DUP5 ADD MSTORE ADD SLOAD PUSH2 0x160 DUP3 ADD MSTORE PUSH1 0x40 MLOAD DUP1 SWAP2 PUSH1 0x20 DUP3 MSTORE DUP1 MLOAD PUSH1 0x20 DUP4 ADD MSTORE PUSH1 0x20 DUP2 ADD MLOAD PUSH1 0x40 DUP4 ADD MSTORE PUSH1 0x1 DUP1 PUSH1 0xA0 SHL SUB PUSH1 0x40 DUP3 ADD MLOAD AND PUSH1 0x60 DUP4 ADD MSTORE PUSH1 0x60 DUP2 ADD MLOAD PUSH2 0x160 PUSH2 0x1DA5 PUSH2 0x180 SWAP3 DUP4 PUSH1 0x80 DUP8 ADD MSTORE PUSH2 0x1A0 DUP7 ADD SWAP1 PUSH2 0x204F JUMP JUMPDEST SWAP3 PUSH1 0x80 DUP2 ADD MLOAD PUSH1 0xA0 DUP7 ADD MSTORE PUSH1 0xA0 DUP2 ADD MLOAD PUSH1 0xC0 DUP7 ADD MSTORE PUSH1 0xC0 DUP2 ADD MLOAD PUSH1 0xE0 DUP7 ADD MSTORE PUSH1 0xE0 DUP2 ADD MLOAD PUSH2 0x100 DUP7 ADD MSTORE PUSH2 0x1DE3 PUSH2 0x100 DUP3 ADD MLOAD PUSH2 0x120 DUP8 ADD SWAP1 PUSH2 0x208F JUMP JUMPDEST PUSH2 0x120 DUP2 ADD MLOAD PUSH1 0x1 PUSH1 0x1 PUSH1 0xA0 SHL SUB AND PUSH2 0x140 DUP7 DUP2 ADD SWAP2 SWAP1 SWAP2 MSTORE DUP2 ADD MLOAD DUP3 DUP7 ADD MSTORE ADD MLOAD SWAP1 DUP4 ADD MSTORE SUB SWAP1 RETURN JUMPDEST CALLVALUE PUSH2 0x1A8 JUMPI PUSH1 0x20 DUP1 PUSH1 0x3 NOT CALLDATASIZE ADD SLT PUSH2 0x1A8 JUMPI PUSH1 0x4 CALLDATALOAD PUSH1 0x0 MSTORE PUSH1 0x9 DUP2 MSTORE PUSH1 0x40 PUSH1 0x0 KECCAK256 DUP1 SLOAD SWAP1 PUSH1 0x1 PUSH1 0x1 PUSH1 0x40 SHL SUB DUP3 GT PUSH2 0x8DF JUMPI DUP3 SWAP1 PUSH1 0x5 SWAP3 PUSH1 0x40 MLOAD SWAP4 PUSH2 0x1E57 DUP5 DUP4 PUSH1 0x5 SHL ADD DUP7 PUSH2 0x2129 JUMP JUMPDEST DUP2 DUP6 MSTORE DUP4 DUP6 ADD DUP1 SWAP4 PUSH1 0x0 MSTORE DUP5 PUSH1 0x0 KECCAK256 PUSH1 0x0 SWAP2 JUMPDEST DUP5 DUP4 LT PUSH2 0x1F08 JUMPI PUSH1 0x40 DUP1 MLOAD DUP9 DUP2 MSTORE DUP10 MLOAD DUP2 DUP11 ADD DUP2 SWAP1 MSTORE PUSH1 0x0 SWAP3 PUSH1 0x5 DUP3 SWAP1 SHL DUP4 ADD DUP2 ADD SWAP2 DUP11 SWAP2 DUP13 SWAP1 DUP6 ADD JUMPDEST DUP3 DUP8 LT PUSH2 0x1EA1 JUMPI DUP6 DUP6 SUB DUP7 RETURN JUMPDEST SWAP1 SWAP2 SWAP3 SWAP4 DUP3 DUP1 PUSH1 0x1 SWAP3 PUSH1 0x3F NOT DUP10 DUP3 SUB ADD DUP6 MSTORE DUP8 MLOAD SWAP1 PUSH2 0x1ED8 PUSH1 0xA0 DUP7 DUP1 PUSH1 0xA0 SHL SUB DUP5 MLOAD AND DUP4 MSTORE DUP5 DUP5 ADD MLOAD SWAP1 DUP1 DUP7 DUP6 ADD MSTORE DUP4 ADD SWAP1 PUSH2 0x204F JUMP JUMPDEST SWAP2 PUSH1 0x40 DUP2 ADD MLOAD PUSH1 0x40 DUP4 ADD MSTORE PUSH1 0x60 DUP1 DUP3 ADD MLOAD ISZERO ISZERO SWAP1 DUP4 ADD MSTORE PUSH1 0x80 DUP1 SWAP2 ADD MLOAD SWAP2 ADD MSTORE SWAP7 ADD SWAP3 ADD SWAP7 ADD SWAP6 SWAP3 SWAP2 SWAP1 SWAP3 PUSH2 0x1E94 JUMP JUMPDEST DUP4 DUP8 PUSH1 0x1 SWAP3 PUSH1 0x40 SWAP11 SWAP10 SWAP11 MLOAD PUSH2 0x1F1C DUP2 PUSH2 0x20D6 JUMP JUMPDEST DUP5 DUP1 PUSH1 0xA0 SHL SUB DUP7 SLOAD AND DUP2 MSTORE PUSH2 0x1F32 DUP6 DUP8 ADD PUSH2 0x214A JUMP JUMPDEST DUP4 DUP3 ADD MSTORE PUSH1 0x2 DUP7 ADD SLOAD PUSH1 0x40 DUP3 ADD MSTORE PUSH1 0xFF PUSH1 0x3 DUP8 ADD SLOAD AND ISZERO ISZERO PUSH1 0x60 DUP3 ADD MSTORE PUSH1 0x4 DUP7 ADD SLOAD PUSH1 0x80 DUP3 ADD MSTORE DUP2 MSTORE ADD SWAP3 ADD SWAP3 ADD SWAP2 SWAP1 SWAP7 SWAP6 SWAP7 PUSH2 0x1E6A JUMP JUMPDEST CALLVALUE PUSH2 0x1A8 JUMPI PUSH1 0x0 CALLDATASIZE PUSH1 0x3 NOT ADD SLT PUSH2 0x1A8 JUMPI PUSH1 0x20 PUSH1 0x40 MLOAD PUSH1 0x64 DUP2 MSTORE RETURN JUMPDEST CALLVALUE PUSH2 0x1A8 JUMPI PUSH1 0x20 CALLDATASIZE PUSH1 0x3 NOT ADD SLT PUSH2 0x1A8 JUMPI PUSH2 0x1F9F PUSH2 0x2023 JUMP JUMPDEST PUSH2 0x1FA7 PUSH2 0x235C JUMP JUMPDEST PUSH1 0x1 PUSH1 0x1 PUSH1 0xA0 SHL SUB AND DUP1 ISZERO PUSH2 0x1FCE JUMPI PUSH1 0x1 PUSH1 0x1 PUSH1 0x60 SHL SUB PUSH1 0xA0 SHL PUSH1 0x5 SLOAD AND OR PUSH1 0x5 SSTORE PUSH1 0x0 DUP1 RETURN JUMPDEST PUSH1 0x40 MLOAD PUSH3 0x461BCD PUSH1 0xE5 SHL DUP2 MSTORE PUSH1 0x20 PUSH1 0x4 DUP3 ADD MSTORE PUSH1 0xF PUSH1 0x24 DUP3 ADD MSTORE PUSH15 0x496E76616C69642061646472657373 PUSH1 0x88 SHL PUSH1 0x44 DUP3 ADD MSTORE PUSH1 0x64 SWAP1 REVERT JUMPDEST CALLVALUE PUSH2 0x1A8 JUMPI PUSH1 0x0 CALLDATASIZE PUSH1 0x3 NOT ADD SLT PUSH2 0x1A8 JUMPI DUP1 PUSH5 0xE8D4A51000 PUSH1 0x20 SWAP3 MSTORE RETURN JUMPDEST PUSH1 0x4 CALLDATALOAD SWAP1 PUSH1 0x1 PUSH1 0x1 PUSH1 0xA0 SHL SUB DUP3 AND DUP3 SUB PUSH2 0x1A8 JUMPI JUMP JUMPDEST PUSH1 0x24 CALLDATALOAD SWAP1 PUSH1 0x1 PUSH1 0x1 PUSH1 0xA0 SHL SUB DUP3 AND DUP3 SUB PUSH2 0x1A8 JUMPI JUMP JUMPDEST SWAP2 SWAP1 DUP3 MLOAD SWAP3 DUP4 DUP3 MSTORE PUSH1 0x0 JUMPDEST DUP5 DUP2 LT PUSH2 0x207B JUMPI POP POP DUP3 PUSH1 0x0 PUSH1 0x20 DUP1 SWAP5 SWAP6 DUP5 ADD ADD MSTORE PUSH1 0x1F DUP1 NOT SWAP2 ADD AND ADD ADD SWAP1 JUMP JUMPDEST PUSH1 0x20 DUP2 DUP4 ADD DUP2 ADD MLOAD DUP5 DUP4 ADD DUP3 ADD MSTORE ADD PUSH2 0x205A JUMP JUMPDEST SWAP1 PUSH1 0x6 DUP3 LT ISZERO PUSH2 0x2FA JUMPI MSTORE JUMP JUMPDEST SWAP1 PUSH1 0x1 DUP3 DUP2 SHR SWAP3 AND DUP1 ISZERO PUSH2 0x20CC JUMPI JUMPDEST PUSH1 0x20 DUP4 LT EQ PUSH2 0x20B6 JUMPI JUMP JUMPDEST PUSH4 0x4E487B71 PUSH1 0xE0 SHL PUSH1 0x0 MSTORE PUSH1 0x22 PUSH1 0x4 MSTORE PUSH1 0x24 PUSH1 0x0 REVERT JUMPDEST SWAP2 PUSH1 0x7F AND SWAP2 PUSH2 0x20AB JUMP JUMPDEST PUSH1 0xA0 DUP2 ADD SWAP1 DUP2 LT PUSH1 0x1 PUSH1 0x1 PUSH1 0x40 SHL SUB DUP3 GT OR PUSH2 0x8DF JUMPI PUSH1 0x40 MSTORE JUMP JUMPDEST PUSH2 0x180 DUP2 ADD SWAP1 DUP2 LT PUSH1 0x1 PUSH1 0x1 PUSH1 0x40 SHL SUB DUP3 GT OR PUSH2 0x8DF JUMPI PUSH1 0x40 MSTORE JUMP JUMPDEST PUSH2 0x160 DUP2 ADD SWAP1 DUP2 LT PUSH1 0x1 PUSH1 0x1 PUSH1 0x40 SHL SUB DUP3 GT OR PUSH2 0x8DF JUMPI PUSH1 0x40 MSTORE JUMP JUMPDEST SWAP1 PUSH1 0x1F DUP1 NOT SWAP2 ADD AND DUP2 ADD SWAP1 DUP2 LT PUSH1 0x1 PUSH1 0x1 PUSH1 0x40 SHL SUB DUP3 GT OR PUSH2 0x8DF JUMPI PUSH1 0x40 MSTORE JUMP JUMPDEST SWAP1 PUSH1 0x40 MLOAD SWAP2 DUP3 PUSH1 0x0 DUP3 SLOAD PUSH2 0x215D DUP2 PUSH2 0x209C JUMP JUMPDEST SWAP1 DUP2 DUP5 MSTORE PUSH1 0x20 SWAP5 PUSH1 0x1 SWAP2 PUSH1 0x1 DUP2 AND SWAP1 DUP2 PUSH1 0x0 EQ PUSH2 0x21CD JUMPI POP PUSH1 0x1 EQ PUSH2 0x218E JUMPI JUMPDEST POP POP POP PUSH2 0x218C SWAP3 POP SUB DUP4 PUSH2 0x2129 JUMP JUMPDEST JUMP JUMPDEST PUSH1 0x0 SWAP1 DUP2 MSTORE DUP6 DUP2 KECCAK256 SWAP6 SWAP4 POP SWAP2 SWAP1 JUMPDEST DUP2 DUP4 LT PUSH2 0x21B5 JUMPI POP POP PUSH2 0x218C SWAP4 POP DUP3 ADD ADD CODESIZE DUP1 DUP1 PUSH2 0x217D JUMP JUMPDEST DUP6 SLOAD DUP9 DUP5 ADD DUP6 ADD MSTORE SWAP5 DUP6 ADD SWAP5 DUP8 SWAP5 POP SWAP2 DUP4 ADD SWAP2 PUSH2 0x219C JUMP JUMPDEST SWAP3 POP POP POP PUSH2 0x218C SWAP5 SWAP3 POP PUSH1 0xFF NOT AND DUP3 DUP5 ADD MSTORE ISZERO ISZERO PUSH1 0x5 SHL DUP3 ADD ADD CODESIZE DUP1 DUP1 PUSH2 0x217D JUMP JUMPDEST SWAP1 PUSH1 0x3 DUP3 LT ISZERO PUSH2 0x2FA JUMPI MSTORE JUMP JUMPDEST DUP1 SLOAD DUP3 LT ISZERO PUSH2 0x2218 JUMPI PUSH1 0x0 MSTORE PUSH1 0x5 PUSH1 0x20 PUSH1 0x0 KECCAK256 SWAP2 MUL ADD SWAP1 PUSH1 0x0 SWAP1 JUMP JUMPDEST PUSH4 0x4E487B71 PUSH1 0xE0 SHL PUSH1 0x0 MSTORE PUSH1 0x32 PUSH1 0x4 MSTORE PUSH1 0x24 PUSH1 0x0 REVERT JUMPDEST SWAP2 DUP2 PUSH1 0x1F DUP5 ADD SLT ISZERO PUSH2 0x1A8 JUMPI DUP3 CALLDATALOAD SWAP2 PUSH1 0x1 PUSH1 0x1 PUSH1 0x40 SHL SUB DUP4 GT PUSH2 0x1A8 JUMPI PUSH1 0x20 DUP4 DUP2 DUP7 ADD SWAP6 ADD ADD GT PUSH2 0x1A8 JUMPI JUMP JUMPDEST ISZERO PUSH2 0x2262 JUMPI JUMP JUMPDEST PUSH1 0x40 MLOAD PUSH3 0x461BCD PUSH1 0xE5 SHL DUP2 MSTORE PUSH1 0x20 PUSH1 0x4 DUP3 ADD MSTORE PUSH1 0x11 PUSH1 0x24 DUP3 ADD MSTORE PUSH17 0x5375626E6574206E6F7420616374697665 PUSH1 0x78 SHL PUSH1 0x44 DUP3 ADD MSTORE PUSH1 0x64 SWAP1 REVERT JUMPDEST SWAP2 SWAP1 DUP3 ADD DUP1 SWAP3 GT PUSH2 0x175C JUMPI JUMP JUMPDEST PUSH1 0x0 NOT DUP2 EQ PUSH2 0x175C JUMPI PUSH1 0x1 ADD SWAP1 JUMP JUMPDEST PUSH1 0x1 PUSH1 0x1 PUSH1 0x40 SHL SUB DUP2 GT PUSH2 0x8DF JUMPI PUSH1 0x1F ADD PUSH1 0x1F NOT AND PUSH1 0x20 ADD SWAP1 JUMP JUMPDEST SWAP3 SWAP2 SWAP3 PUSH2 0x22DE DUP3 PUSH2 0x22B7 JUMP JUMPDEST SWAP2 PUSH2 0x22EC PUSH1 0x40 MLOAD SWAP4 DUP5 PUSH2 0x2129 JUMP JUMPDEST DUP3 SWAP5 DUP2 DUP5 MSTORE DUP2 DUP4 ADD GT PUSH2 0x1A8 JUMPI DUP3 DUP2 PUSH1 0x20 SWAP4 DUP5 PUSH1 0x0 SWAP7 ADD CALLDATACOPY ADD ADD MSTORE JUMP JUMPDEST ISZERO PUSH2 0x2310 JUMPI JUMP JUMPDEST PUSH1 0x40 MLOAD PUSH3 0x461BCD PUSH1 0xE5 SHL DUP2 MSTORE PUSH1 0x20 PUSH1 0x4 DUP3 ADD MSTORE PUSH1 0xC PUSH1 0x24 DUP3 ADD MSTORE PUSH12 0x8CCACA40E8DEDE40D0D2CED PUSH1 0xA3 SHL PUSH1 0x44 DUP3 ADD MSTORE PUSH1 0x64 SWAP1 REVERT JUMPDEST SWAP1 PUSH1 0x3 DUP2 LT ISZERO PUSH2 0x2FA JUMPI PUSH1 0xFF DUP1 NOT DUP4 SLOAD AND SWAP2 AND OR SWAP1 SSTORE JUMP JUMPDEST PUSH1 0x1 SLOAD PUSH1 0x1 PUSH1 0x1 PUSH1 0xA0 SHL SUB AND CALLER SUB PUSH2 0x2370 JUMPI JUMP JUMPDEST PUSH1 0x64 PUSH1 0x40 MLOAD PUSH3 0x461BCD PUSH1 0xE5 SHL DUP2 MSTORE PUSH1 0x20 PUSH1 0x4 DUP3 ADD MSTORE PUSH1 0x20 PUSH1 0x24 DUP3 ADD MSTORE PUSH32 0x4F776E61626C653A2063616C6C6572206973206E6F7420746865206F776E6572 PUSH1 0x44 DUP3 ADD MSTORE REVERT JUMPDEST PUSH1 0x2 PUSH1 0x0 SLOAD EQ PUSH2 0x23C5 JUMPI PUSH1 0x2 PUSH1 0x0 SSTORE JUMP JUMPDEST PUSH1 0x40 MLOAD PUSH3 0x461BCD PUSH1 0xE5 SHL DUP2 MSTORE PUSH1 0x20 PUSH1 0x4 DUP3 ADD MSTORE PUSH1 0x1F PUSH1 0x24 DUP3 ADD MSTORE PUSH32 0x5265656E7472616E637947756172643A207265656E7472616E742063616C6C00 PUSH1 0x44 DUP3 ADD MSTORE PUSH1 0x64 SWAP1 REVERT JUMPDEST PUSH1 0xFF PUSH1 0x1 SLOAD PUSH1 0xA0 SHR AND PUSH2 0x2419 JUMPI JUMP JUMPDEST PUSH1 0x40 MLOAD PUSH3 0x461BCD PUSH1 0xE5 SHL DUP2 MSTORE PUSH1 0x20 PUSH1 0x4 DUP3 ADD MSTORE PUSH1 0x10 PUSH1 0x24 DUP3 ADD MSTORE PUSH16 0x14185D5CD8589B194E881C185D5CD959 PUSH1 0x82 SHL PUSH1 0x44 DUP3 ADD MSTORE PUSH1 0x64 SWAP1 REVERT JUMPDEST PUSH1 0x40 MLOAD PUSH4 0xA9059CBB PUSH1 0xE0 SHL PUSH1 0x20 DUP3 ADD MSTORE PUSH1 0x1 PUSH1 0x1 PUSH1 0xA0 SHL SUB SWAP1 SWAP3 AND PUSH1 0x24 DUP4 ADD MSTORE PUSH1 0x44 DUP1 DUP4 ADD SWAP4 SWAP1 SWAP4 MSTORE SWAP2 DUP2 MSTORE PUSH1 0x80 DUP2 ADD SWAP2 PUSH1 0x1 PUSH1 0x1 PUSH1 0x40 SHL SUB DUP4 GT DUP3 DUP5 LT OR PUSH2 0x8DF JUMPI PUSH2 0x218C SWAP3 PUSH1 0x40 MSTORE JUMPDEST PUSH1 0x1 DUP1 PUSH1 0xA0 SHL SUB AND SWAP1 PUSH1 0x40 MLOAD PUSH1 0x40 DUP2 ADD SWAP1 DUP1 DUP3 LT PUSH1 0x1 PUSH1 0x1 PUSH1 0x40 SHL SUB DUP4 GT OR PUSH2 0x8DF JUMPI PUSH2 0x252B SWAP2 PUSH1 0x40 MSTORE PUSH1 0x20 SWAP4 DUP5 DUP3 MSTORE PUSH32 0x5361666545524332303A206C6F772D6C6576656C2063616C6C206661696C6564 DUP6 DUP4 ADD MSTORE PUSH1 0x0 DUP1 DUP6 DUP8 DUP3 SWAP8 MLOAD SWAP2 ADD DUP3 DUP6 GAS CALL RETURNDATASIZE ISZERO PUSH2 0x25C8 JUMPI RETURNDATASIZE SWAP2 PUSH2 0x2510 DUP4 PUSH2 0x22B7 JUMP JUMPDEST SWAP3 PUSH2 0x251E PUSH1 0x40 MLOAD SWAP5 DUP6 PUSH2 0x2129 JUMP JUMPDEST DUP4 MSTORE RETURNDATASIZE DUP7 DUP9 DUP6 ADD RETURNDATACOPY PUSH2 0x25CC JUMP JUMPDEST DUP1 MLOAD SWAP2 DUP3 ISZERO SWAP2 DUP5 DUP4 ISZERO PUSH2 0x259D JUMPI JUMPDEST POP POP POP SWAP1 POP ISZERO PUSH2 0x2546 JUMPI POP JUMP JUMPDEST PUSH1 0x84 SWAP1 PUSH1 0x40 MLOAD SWAP1 PUSH3 0x461BCD PUSH1 0xE5 SHL DUP3 MSTORE PUSH1 0x4 DUP3 ADD MSTORE PUSH1 0x2A PUSH1 0x24 DUP3 ADD MSTORE PUSH32 0x5361666545524332303A204552433230206F7065726174696F6E20646964206E PUSH1 0x44 DUP3 ADD MSTORE PUSH10 0x1BDD081CDD58D8D95959 PUSH1 0xB2 SHL PUSH1 0x64 DUP3 ADD MSTORE REVERT JUMPDEST SWAP2 SWAP4 DUP2 DUP1 SWAP5 POP ADD SUB SLT PUSH2 0x25C4 JUMPI DUP3 ADD MLOAD SWAP1 DUP2 ISZERO ISZERO DUP3 SUB PUSH2 0x25C1 JUMPI POP DUP1 CODESIZE DUP1 DUP5 PUSH2 0x2539 JUMP JUMPDEST DUP1 REVERT JUMPDEST POP DUP1 REVERT JUMPDEST PUSH1 0x60 SWAP2 JUMPDEST SWAP2 SWAP3 SWAP1 ISZERO PUSH2 0x262E JUMPI POP DUP2 MLOAD ISZERO PUSH2 0x25E0 JUMPI POP SWAP1 JUMP JUMPDEST EXTCODESIZE ISZERO PUSH2 0x25E9 JUMPI SWAP1 JUMP JUMPDEST PUSH1 0x40 MLOAD PUSH3 0x461BCD PUSH1 0xE5 SHL DUP2 MSTORE PUSH1 0x20 PUSH1 0x4 DUP3 ADD MSTORE PUSH1 0x1D PUSH1 0x24 DUP3 ADD MSTORE PUSH32 0x416464726573733A2063616C6C20746F206E6F6E2D636F6E7472616374000000 PUSH1 0x44 DUP3 ADD MSTORE PUSH1 0x64 SWAP1 REVERT JUMPDEST DUP3 MLOAD SWAP1 SWAP2 POP ISZERO PUSH2 0x2641 JUMPI POP DUP1 MLOAD SWAP1 PUSH1 0x20 ADD REVERT JUMPDEST PUSH1 0x40 MLOAD PUSH3 0x461BCD PUSH1 0xE5 SHL DUP2 MSTORE PUSH1 0x20 PUSH1 0x4 DUP3 ADD MSTORE SWAP1 DUP2 SWAP1 PUSH2 0x2665 SWAP1 PUSH1 0x24 DUP4 ADD SWAP1 PUSH2 0x204F JUMP JUMPDEST SUB SWAP1 REVERT INVALID LOG2 PUSH5 0x6970667358 0x22 SLT KECCAK256 DUP8 0xBF 0x4C 0xC1 DUP12 DUP5 0xB2 SGT EXTCODESIZE PUSH14 0x636A1E2C82BBFE2AA3F07178444F DUP2 SWAP7 0xAB MSTORE8 BLOBHASH TSTORE PUSH10 0xC764736F6C6343000818 STOP CALLER "},"methodIdentifiers":{"MAX_SUBNET_FEE_RATE()":"4af93988","PROTOCOL_FEE_RATE()":"10f0dde4","SUBNET_REGISTRATION_COST()":"072f4fc0","addValidator(uint256,address)":"4b561753","createTask(uint256,string,uint256,uint256)":"5cc9bca9","finalizeTask(uint256)":"88488c33","getActiveSubnetCount()":"c6a1a01a","getSubmissions(uint256)":"16c53ced","getSubnet(uint256)":"58ca7504","getTask(uint256)":"1d65e77e","isMiner(uint256,address)":"8ee9f6dc","mdtToken()":"f70b5c06","owner()":"8da5cb5b","paused()":"5c975abb","protocolTreasury()":"803db96d","registerMiner(uint256)":"6f5474bf","registerSubnet(string,string,uint256)":"927229c6","renounceOwnership()":"715018a6","setProtocolTreasury(address)":"0c5a61f8","submitResult(uint256,string)":"8c0dd79a","subnetCount()":"916a5c5b","subnetMinerCount(uint256)":"2fa70f48","subnetMiners(uint256,address)":"8c0a4a05","subnetValidators(uint256,address)":"a3be1eab","subnets(uint256)":"475726f7","taskSubmissions(uint256,uint256)":"53eea875","tasks(uint256)":"8d977672","totalProtocolFees()":"f526e39a","transferOwnership(address)":"f2fde38b","updateSubnet(uint256,uint256,uint8)":"7b617482","validateSubmission(uint256,uint256,uint256)":"b7ee5eda","withdrawProtocolFees()":"8795cccb"}}}}}