{"src/PaymentEscrow.sol":{"PaymentEscrow":{"abi":[{"inputs":[{"internalType":"address","name":"_mdtToken","type":"address"}],"stateMutability":"nonpayable","type":"constructor"},{"anonymous":false,"inputs":[{"indexed":true,"internalType":"uint256","name":"taskId","type":"uint256"},{"indexed":false,"internalType":"uint256","name":"minerIndex","type":"uint256"},{"indexed":false,"internalType":"uint256","name":"medianScore","type":"uint256"},{"indexed":false,"internalType":"uint256","name":"validatorCount","type":"uint256"}],"name":"ConsensusReached","type":"event"},{"anonymous":false,"inputs":[{"indexed":true,"internalType":"address","name":"to","type":"address"},{"indexed":false,"internalType":"uint256","name":"amount","type":"uint256"}],"name":"FeesWithdrawn","type":"event"},{"anonymous":false,"inputs":[{"indexed":false,"internalType":"uint256","name":"oldMin","type":"uint256"},{"indexed":false,"internalType":"uint256","name":"newMin","type":"uint256"}],"name":"MinValidationsUpdated","type":"event"},{"anonymous":false,"inputs":[{"indexed":true,"internalType":"address","name":"previousOwner","type":"address"},{"indexed":true,"internalType":"address","name":"newOwner","type":"address"}],"name":"OwnershipTransferred","type":"event"},{"anonymous":false,"inputs":[{"indexed":false,"internalType":"address","name":"account","type":"address"}],"name":"Paused","type":"event"},{"anonymous":false,"inputs":[{"indexed":false,"internalType":"uint256","name":"oldRate","type":"uint256"},{"indexed":false,"internalType":"uint256","name":"newRate","type":"uint256"}],"name":"PlatformFeeUpdated","type":"event"},{"anonymous":false,"inputs":[{"indexed":true,"internalType":"uint256","name":"taskId","type":"uint256"},{"indexed":true,"internalType":"address","name":"miner","type":"address"},{"indexed":false,"internalType":"string","name":"resultHash","type":"string"}],"name":"SubmissionReceived","type":"event"},{"anonymous":false,"inputs":[{"indexed":true,"internalType":"uint256","name":"taskId","type":"uint256"},{"indexed":true,"internalType":"address","name":"miner","type":"address"},{"indexed":false,"internalType":"uint256","name":"score","type":"uint256"},{"indexed":false,"internalType":"address","name":"validator","type":"address"}],"name":"SubmissionValidated","type":"event"},{"anonymous":false,"inputs":[{"indexed":true,"internalType":"uint256","name":"taskId","type":"uint256"},{"indexed":true,"internalType":"address","name":"miner","type":"address"}],"name":"TaskAccepted","type":"event"},{"anonymous":false,"inputs":[{"indexed":true,"internalType":"uint256","name":"taskId","type":"uint256"},{"indexed":true,"internalType":"address","name":"requester","type":"address"},{"indexed":false,"internalType":"uint256","name":"refundAmount","type":"uint256"}],"name":"TaskCancelled","type":"event"},{"anonymous":false,"inputs":[{"indexed":true,"internalType":"uint256","name":"taskId","type":"uint256"},{"indexed":true,"internalType":"address","name":"winner","type":"address"},{"indexed":false,"internalType":"uint256","name":"reward","type":"uint256"},{"indexed":false,"internalType":"uint256","name":"score","type":"uint256"}],"name":"TaskCompleted","type":"event"},{"anonymous":false,"inputs":[{"indexed":true,"internalType":"uint256","name":"taskId","type":"uint256"},{"indexed":true,"internalType":"address","name":"requester","type":"address"},{"indexed":false,"internalType":"uint256","name":"rewardAmount","type":"uint256"},{"indexed":false,"internalType":"uint256","name":"deadline","type":"uint256"},{"indexed":false,"internalType":"string","name":"taskHash","type":"string"}],"name":"TaskCreated","type":"event"},{"anonymous":false,"inputs":[{"indexed":true,"internalType":"uint256","name":"taskId","type":"uint256"}],"name":"TaskExpired","type":"event"},{"anonymous":false,"inputs":[{"indexed":false,"internalType":"address","name":"account","type":"address"}],"name":"Unpaused","type":"event"},{"anonymous":false,"inputs":[{"indexed":true,"internalType":"address","name":"validator","type":"address"}],"name":"ValidatorAdded","type":"event"},{"anonymous":false,"inputs":[{"indexed":true,"internalType":"address","name":"validator","type":"address"}],"name":"ValidatorRemoved","type":"event"},{"inputs":[{"internalType":"uint256","name":"taskId","type":"uint256"}],"name":"acceptTask","outputs":[],"stateMutability":"nonpayable","type":"function"},{"inputs":[{"internalType":"address","name":"","type":"address"}],"name":"activeTaskCount","outputs":[{"internalType":"uint256","name":"","type":"uint256"}],"stateMutability":"view","type":"function"},{"inputs":[{"internalType":"address","name":"validator","type":"address"}],"name":"addValidator","outputs":[],"stateMutability":"nonpayable","type":"function"},{"inputs":[{"internalType":"uint256","name":"taskId","type":"uint256"}],"name":"cancelTask","outputs":[],"stateMutability":"nonpayable","type":"function"},{"inputs":[],"name":"collectedFees","outputs":[{"internalType":"uint256","name":"","type":"uint256"}],"stateMutability":"view","type":"function"},{"inputs":[{"internalType":"string","name":"taskHash","type":"string"},{"internalType":"uint256","name":"rewardAmount","type":"uint256"},{"internalType":"uint256","name":"duration","type":"uint256"}],"name":"createTask","outputs":[{"internalType":"uint256","name":"taskId","type":"uint256"}],"stateMutability":"nonpayable","type":"function"},{"inputs":[{"internalType":"uint256","name":"taskId","type":"uint256"}],"name":"expireTask","outputs":[],"stateMutability":"nonpayable","type":"function"},{"inputs":[{"internalType":"uint256","name":"taskId","type":"uint256"}],"name":"finalizeTask","outputs":[],"stateMutability":"nonpayable","type":"function"},{"inputs":[{"internalType":"uint256","name":"taskId","type":"uint256"}],"name":"getSubmissionCount","outputs":[{"internalType":"uint256","name":"","type":"uint256"}],"stateMutability":"view","type":"function"},{"inputs":[{"internalType":"uint256","name":"taskId","type":"uint256"}],"name":"getSubmissions","outputs":[{"components":[{"internalType":"address","name":"miner","type":"address"},{"internalType":"string","name":"resultHash","type":"string"},{"internalType":"uint256","name":"score","type":"uint256"},{"internalType":"bool","name":"validated","type":"bool"},{"internalType":"uint256","name":"submittedAt","type":"uint256"},{"internalType":"uint256","name":"validationCount","type":"uint256"}],"internalType":"struct PaymentEscrow.MinerSubmission[]","name":"","type":"tuple[]"}],"stateMutability":"view","type":"function"},{"inputs":[{"internalType":"uint256","name":"taskId","type":"uint256"}],"name":"getTask","outputs":[{"components":[{"internalType":"uint256","name":"id","type":"uint256"},{"internalType":"address","name":"requester","type":"address"},{"internalType":"string","name":"taskHash","type":"string"},{"internalType":"uint256","name":"rewardAmount","type":"uint256"},{"internalType":"uint256","name":"platformFee","type":"uint256"},{"internalType":"uint256","name":"deadline","type":"uint256"},{"internalType":"enum PaymentEscrow.TaskStatus","name":"status","type":"uint8"},{"internalType":"address","name":"assignedMiner","type":"address"},{"internalType":"address","name":"winningMiner","type":"address"},{"internalType":"uint256","name":"winningScore","type":"uint256"},{"internalType":"uint256","name":"createdAt","type":"uint256"},{"internalType":"uint256","name":"completedAt","type":"uint256"}],"internalType":"struct PaymentEscrow.Task","name":"","type":"tuple"}],"stateMutability":"view","type":"function"},{"inputs":[{"internalType":"uint256","name":"taskId","type":"uint256"},{"internalType":"uint256","name":"minerIndex","type":"uint256"},{"internalType":"address","name":"validator","type":"address"}],"name":"getValidatorScore","outputs":[{"internalType":"uint256","name":"score","type":"uint256"},{"internalType":"bool","name":"hasScored","type":"bool"}],"stateMutability":"view","type":"function"},{"inputs":[{"internalType":"uint256","name":"","type":"uint256"},{"internalType":"uint256","name":"","type":"uint256"},{"internalType":"address","name":"","type":"address"}],"name":"hasValidatorScored","outputs":[{"internalType":"bool","name":"","type":"bool"}],"stateMutability":"view","type":"function"},{"inputs":[{"internalType":"address","name":"account","type":"address"}],"name":"isValidator","outputs":[{"internalType":"bool","name":"","type":"bool"}],"stateMutability":"view","type":"function"},{"inputs":[],"name":"maxTaskDuration","outputs":[{"internalType":"uint256","name":"","type":"uint256"}],"stateMutability":"view","type":"function"},{"inputs":[],"name":"mdtToken","outputs":[{"internalType":"contract IERC20","name":"","type":"address"}],"stateMutability":"view","type":"function"},{"inputs":[],"name":"minTaskReward","outputs":[{"internalType":"uint256","name":"","type":"uint256"}],"stateMutability":"view","type":"function"},{"inputs":[],"name":"minValidations","outputs":[{"internalType":"uint256","name":"","type":"uint256"}],"stateMutability":"view","type":"function"},{"inputs":[{"internalType":"address","name":"","type":"address"}],"name":"minerEarnings","outputs":[{"internalType":"uint256","name":"","type":"uint256"}],"stateMutability":"view","type":"function"},{"inputs":[],"name":"owner","outputs":[{"internalType":"address","name":"","type":"address"}],"stateMutability":"view","type":"function"},{"inputs":[],"name":"pause","outputs":[],"stateMutability":"nonpayable","type":"function"},{"inputs":[],"name":"paused","outputs":[{"internalType":"bool","name":"","type":"bool"}],"stateMutability":"view","type":"function"},{"inputs":[],"name":"platformFeeRate","outputs":[{"internalType":"uint256","name":"","type":"uint256"}],"stateMutability":"view","type":"function"},{"inputs":[{"internalType":"address","name":"validator","type":"address"}],"name":"removeValidator","outputs":[],"stateMutability":"nonpayable","type":"function"},{"inputs":[],"name":"renounceOwnership","outputs":[],"stateMutability":"nonpayable","type":"function"},{"inputs":[{"internalType":"uint256","name":"newMin","type":"uint256"}],"name":"setMinValidations","outputs":[],"stateMutability":"nonpayable","type":"function"},{"inputs":[{"internalType":"uint256","name":"newRate","type":"uint256"}],"name":"setPlatformFeeRate","outputs":[],"stateMutability":"nonpayable","type":"function"},{"inputs":[{"internalType":"uint256","name":"taskId","type":"uint256"},{"internalType":"string","name":"resultHash","type":"string"}],"name":"submitResult","outputs":[],"stateMutability":"nonpayable","type":"function"},{"inputs":[{"internalType":"uint256","name":"","type":"uint256"},{"internalType":"uint256","name":"","type":"uint256"}],"name":"taskSubmissions","outputs":[{"internalType":"address","name":"miner","type":"address"},{"internalType":"string","name":"resultHash","type":"string"},{"internalType":"uint256","name":"score","type":"uint256"},{"internalType":"bool","name":"validated","type":"bool"},{"internalType":"uint256","name":"submittedAt","type":"uint256"},{"internalType":"uint256","name":"validationCount","type":"uint256"}],"stateMutability":"view","type":"function"},{"inputs":[{"internalType":"uint256","name":"","type":"uint256"}],"name":"tasks","outputs":[{"internalType":"uint256","name":"id","type":"uint256"},{"internalType":"address","name":"requester","type":"address"},{"internalType":"string","name":"taskHash","type":"string"},{"internalType":"uint256","name":"rewardAmount","type":"uint256"},{"internalType":"uint256","name":"platformFee","type":"uint256"},{"internalType":"uint256","name":"deadline","type":"uint256"},{"internalType":"enum PaymentEscrow.TaskStatus","name":"status","type":"uint8"},{"internalType":"address","name":"assignedMiner","type":"address"},{"internalType":"address","name":"winningMiner","type":"address"},{"internalType":"uint256","name":"winningScore","type":"uint256"},{"internalType":"uint256","name":"createdAt","type":"uint256"},{"internalType":"uint256","name":"completedAt","type":"uint256"}],"stateMutability":"view","type":"function"},{"inputs":[],"name":"totalTasks","outputs":[{"internalType":"uint256","name":"","type":"uint256"}],"stateMutability":"view","type":"function"},{"inputs":[{"internalType":"address","name":"newOwner","type":"address"}],"name":"transferOwnership","outputs":[],"stateMutability":"nonpayable","type":"function"},{"inputs":[],"name":"unpause","outputs":[],"stateMutability":"nonpayable","type":"function"},{"inputs":[{"internalType":"uint256","name":"taskId","type":"uint256"},{"internalType":"uint256","name":"minerIndex","type":"uint256"},{"internalType":"uint256","name":"score","type":"uint256"}],"name":"validateSubmission","outputs":[],"stateMutability":"nonpayable","type":"function"},{"inputs":[],"name":"validatorCount","outputs":[{"internalType":"uint256","name":"","type":"uint256"}],"stateMutability":"view","type":"function"},{"inputs":[{"internalType":"uint256","name":"","type":"uint256"},{"internalType":"uint256","name":"","type":"uint256"},{"internalType":"address","name":"","type":"address"}],"name":"validatorScores","outputs":[{"internalType":"uint256","name":"","type":"uint256"}],"stateMutability":"view","type":"function"},{"inputs":[{"internalType":"address","name":"","type":"address"}],"name":"validators","outputs":[{"internalType":"bool","name":"","type":"bool"}],"stateMutability":"view","type":"function"},{"inputs":[{"internalType":"address","name":"to","type":"address"}],"name":"withdrawFees","outputs":[],"stateMutability":"nonpayable","type":"function"}],"evm":{"bytecode":{"linkReferences":{},"object":"6080346200012957601f62002c8838819003918201601f19168301916001600160401b038311848410176200012e578084926020946040528339810103126200012957516001600160a01b03808216918290036200012957600160005560015460405191339082167f8be0079c531659141344cd1fd0a4f28419497f9722a3daafe3b4186f6b6457e0600080a36001600160a81b0319163360ff60a01b19161760015560646003556305f5e10060045562093a8060055560026009558115620000e75750600280546001600160a01b031916919091179055604051612b439081620001458239f35b62461bcd60e51b815260206004820152601560248201527f496e76616c696420746f6b656e206164647265737300000000000000000000006044820152606490fd5b600080fd5b634e487b7160e01b600052604160045260246000fdfe6080604052600436101561001257600080fd5b60003560e01c8063059378ea14611f805780630f0da71914611f465780630f43a67714611f285780630fb6d80514611ee1578063164e68de14611e2857806316c53ced14611cc05780631bf6912d14611b815780631d65e77e1461199f5780631ed5c43c146119655780632b52d8c3146118605780633f4ba83a146117c457806340a141ff146117345780634d238c8e1461166257806353eea875146115c15780635c975abb1461159b57806362ecc47a1461142d578063680038c71461140f578063715018a6146113b25780637be24cb8146113865780637ca0ad2d1461133a5780637eec20a8146111de5780638456cb591461117c57806388488c3314610fd75780638c0dd79a14610c405780638d97767214610b695780638da5cb5b14610b405780639003adfe14610b22578063927fef2e14610a90578063b7ee5eda146103d7578063c0be15ec146103b9578063d22c81e51461039b578063d65314b31461032b578063eeca08f01461030d578063f0992c97146102ef578063f2fde38b1461022b578063f70b5c0614610202578063fa52c7d8146101be5763facd743b146101be57600080fd5b346101fd5760203660031901126101fd576001600160a01b036101df61245a565b166000526007602052602060ff604060002054166040519015158152f35b600080fd5b346101fd5760003660031901126101fd576002546040516001600160a01b039091168152602090f35b346101fd5760203660031901126101fd5761024461245a565b61024c612883565b6001600160a01b0390811690811561029b57600154826001600160601b0360a01b821617600155167f8be0079c531659141344cd1fd0a4f28419497f9722a3daafe3b4186f6b6457e0600080a3005b60405162461bcd60e51b815260206004820152602660248201527f4f776e61626c653a206e6577206f776e657220697320746865207a65726f206160448201526564647265737360d01b6064820152608490fd5b346101fd5760003660031901126101fd576020600454604051908152f35b346101fd5760003660031901126101fd576020600354604051908152f35b346101fd57604061033b36612470565b82600052602091600d835284600020816000528352846000209160018060a01b03169182600052835260ff85600020541693600052600c835284600020906000528252836000209060005281528260002054918351928352151590820152f35b346101fd5760003660031901126101fd576020600654604051908152f35b346101fd5760003660031901126101fd576020600554604051908152f35b346101fd5760603660031901126101fd5733600052600760205261040260ff6040600020541661279b565b600435600052600a60205261041f60043560406000205414612723565b61042761283c565b600435600052600a602052604060002060ff6006820154166007811015610a7a5760028114908115610a6f575b5015610a2a57600435600052600b60205260406000205460243510156109ef57612710604435116109b257600435600052600d602052604060002060243560005260205260406000203360005260205260ff6040600020541661095c57600435600052600b6020526104cc60243560406000206124e7565b5060ff60038201541661091857600435600052600c6020526040600020602435600052602052604060002033600052602052604435604060002055600435600052600d60205260406000206024356000526020526040600020336000526020526040600020600160ff19825416179055600435600052601160205260406000206024356000526020526040600020805490600160401b82101561090257600182018082558210156108ec57600052602060002001336001600160601b0360a01b82541617905561059f600582015461264a565b9081600582015560018060a01b0381541660405160443581523360208201527f424e5ad88b2accc1579e610100b12e0f295d8c9e0b02abb61ad1e413e3d63d02604060043592a36009548210156105f257005b6105fb8261270b565b916106096040519384612576565b808352601f196106188261270b565b0136602085013760005b8181106108d6575060043560005260116020526040600020602435600052602052604060002080549082820361089157906020916040519081938284869452019060005260206000209260005b81811061086f57505061068492500382612576565b60005b82811061081f57505060015b8181106107985750600181811603610748576005926106b59160011c9061292b565b51925b836002830155600160ff1960038401541617600383015583600882018054821161071f575b5050500154604051916024358352602083015260408201527fff2fc693bb2d4a09f21f0c403fce5ecb4b5b0b57e81c7253deb5386bb8a8ae77606060043592a2005b55600760018060a01b038354169101906001600160601b0360a01b8254161790558383816106dd565b60011c600019810192818411610782576107726107799261076b6005968461292b565b519261292b565b519061263d565b60011c926106b8565b634e487b7160e01b600052601160045260246000fd5b9192936107a5838661292b565b5193835b80151580610800575b156107e757600019810190808211610782576107d16107e2928961292b565b516107dc828a61292b565b526127d9565b6107a9565b946107f960019397969592958761292b565b5201610693565b5060001981018181116107825761081887918961292b565b51116107b2565b600190600435600052600c60205260406000206024356000526020526040600020828060a01b03610850838661292b565b5116600052602052604060002054610868828861292b565b5201610687565b84546001600160a01b031683526001948501948694506020909301920161066f565b60405162461bcd60e51b815260206004820152601b60248201527f56616c696461746f7220747261636b696e67206d69736d6174636800000000006044820152606490fd5b8060006108e56001938761292b565b5201610622565b634e487b7160e01b600052603260045260246000fd5b634e487b7160e01b600052604160045260246000fd5b606460405162461bcd60e51b815260206004820152602060248201527f5375626d697373696f6e20616c72656164792068617320636f6e73656e7375736044820152fd5b60405162461bcd60e51b815260206004820152602860248201527f56616c696461746f7220616c72656164792073636f72656420746869732073756044820152673136b4b9b9b4b7b760c11b6064820152608490fd5b60405162461bcd60e51b8152602060048201526015602482015274053636f7265206d75737420626520302d313030303605c1b6044820152606490fd5b60405162461bcd60e51b8152602060048201526013602482015272092dcecc2d8d2c840dad2dccae440d2dcc8caf606b1b6044820152606490fd5b60405162461bcd60e51b815260206004820152601760248201527f5461736b206e6f742070656e64696e67207265766965770000000000000000006044820152606490fd5b600191501482610454565b634e487b7160e01b600052602160045260246000fd5b346101fd5760203660031901126101fd57600435610aac612883565b6103e88111610aee5760407fd347e206f25a89b917fc9482f1a2d294d749baa4dc9bde7fb495ee11fe49164391600354908060035582519182526020820152a1005b60405162461bcd60e51b815260206004820152600c60248201526b08ccaca40e8dede40d0d2ced60a31b6044820152606490fd5b346101fd5760003660031901126101fd576020601054604051908152f35b346101fd5760003660031901126101fd576001546040516001600160a01b039091168152602090f35b346101fd5760203660031901126101fd57600435600052600a6020526040600020604081549160018060a01b03908160018201541690610bab60028201612598565b60038201549360048301549060058401546006850154908260078701541693610bfb600888015496600a60098a0154990154998c519d8e9d8e6101809384938252602082015201528c019061249a565b9860608b015260808a015260a0890152610c1b60c0890160ff83166124da565b60081c1660e08701526101008601526101208501526101408401526101608301520390f35b346101fd5760403660031901126101fd5767ffffffffffffffff6024358181116101fd57610c7290369060040161242c565b9091600435600052600a602052610c9160043560406000205414612723565b610c9961283c565b600435600052600a60205260406000209060ff6006830154166007811015610a7a578015908115610fcc575b5015610f8757610cda60058301544210612760565b8215610f4e57600435600052600b602052604060002060405191610cfd8361255a565b338352610d0b368688612675565b91602084019283526000604085015260006060850152426080850152600060a08501528054600160401b81101561090257610d4b916001820181556124e7565b929092610f3857835183546001600160a01b0319166001600160a01b0391909116178355518051918211610902578190610d886001850154612503565b601f8111610ee5575b50602090601f8311600114610e7357600092610e68575b50508160011b916000199060031b1c19161760018201555b60408201516002820155600560a06003830193606081015115159460ff199560ff878354169116179055608081015160048501550151910155600682015460ff81166007811015610a7a5715610e55575b5050507fa3dcf7cebcc4cf0937f4f95d95392671977ba143b4ff236240650322a106e8dc6040516020815280610e5033956004359560208401916126ac565b0390a3005b6006916002911617910155828080610e11565b015190508780610da8565b9250600184016000526020600020906000935b601f1984168510610eca576001945083601f19811610610eb1575b505050811b016001820155610dc0565b015160001960f88460031b161c19169055878080610ea1565b81810151835560209485019460019093019290910190610e86565b909150600184016000526020600020601f840160051c810160208510610f31575b90849392915b601f830160051c82018110610f22575050610d91565b60008155859450600101610f0c565b5080610f06565b634e487b7160e01b600052600060045260246000fd5b60405162461bcd60e51b815260206004820152601160248201527008adae0e8f240e4cae6ead8e840d0c2e6d607b1b6044820152606490fd5b60405162461bcd60e51b815260206004820152601a60248201527f43616e6e6f74207375626d697420746f2074686973207461736b0000000000006044820152606490fd5b600191501485610cc5565b346101fd576020806003193601126101fd57600435610ff46127e6565b80600052600a825261100c8160406000205414612723565b80600052600a8252604060002090600682019081549060ff82166007811015610a7a576002036111375760078401546001600160a01b039081169390929084156110fb5760406110f4978694936110c57fefef8593ec020b84769ddb5cf4469accbbd22d882a354bee97694405126ca694948860018c01541660038c01549b600481015492600360088301549660ff1916179055600a42910155600052600e8452846000206110bb81546127d9565b905560105461263d565b60105585600052600f8252826000206110df8a825461263d565b9055825191898352820152a3600254166128db565b6001600055005b60405162461bcd60e51b81526004810188905260146024820152734e6f2076616c6964207375626d697373696f6e7360601b6044820152606490fd5b60405162461bcd60e51b815260048101869052601f60248201527f5461736b206e6f7420726561647920666f722066696e616c697a6174696f6e006044820152606490fd5b346101fd5760003660031901126101fd57611195612883565b61119d61283c565b6001805460ff60a01b1916600160a01b1790556040513381527f62e78cea01bee320cd4e420270b5ea74000d11b0c9f74754ebdbfc544b05a25890602090a1005b346101fd576020806003193601126101fd576004356111fb6127e6565b80600052600a82526112138160406000205414612723565b6000818152600a835260409020600181015490926001600160a01b03918216330361130557600684019283549360ff85166007811015610a7a576112c0576004611269878260036110f49a01549101549061263d565b9560ff191617905533600052600e8252604060002061128881546127d9565b90557f06f63d695245e4cf8f0b7aae0b8da95876a4b173ba8d0d4466cc83c357dda3a8604051928584523393a33390600254166128db565b60405162461bcd60e51b815260048101849052601760248201527f43616e6e6f742063616e63656c2074686973207461736b0000000000000000006044820152606490fd5b6064906040519062461bcd60e51b82526004820152600e60248201526d2737ba103a30b9b59037bbb732b960911b6044820152fd5b346101fd5761134836612470565b91600052600d60205260406000209060005260205260406000209060018060a01b0316600052602052602060ff604060002054166040519015158152f35b346101fd5760203660031901126101fd57600435600052600b6020526020604060002054604051908152f35b346101fd5760003660031901126101fd576113cb612883565b600180546001600160a01b031981169091556000906001600160a01b03167f8be0079c531659141344cd1fd0a4f28419497f9722a3daafe3b4186f6b6457e08280a3005b346101fd5760003660031901126101fd576020600954604051908152f35b346101fd576020806003193601126101fd5760043580600052600a825261145a8160406000205414612723565b80600052600a825260406000206006810180549260ff84166007811015610a7a578015908115611590575b501561154b576005830154421061150f57600e61150d9560018060a01b039360056114c18660018901541697600460038201549101549061263d565b9760ff1916179055846000525260406000206114dd81546127d9565b90557f7c2ecd5e2b7188ac57f3a370681639cb447c9cbfbbbace0c070adea6c73eaa54600080a2600254166128db565b005b60405162461bcd60e51b815260048101869052601460248201527315185cdac81b9bdd08195e1c1a5c9959081e595d60621b6044820152606490fd5b60405162461bcd60e51b815260048101869052601760248201527f43616e6e6f74206578706972652074686973207461736b0000000000000000006044820152606490fd5b600191501486611485565b346101fd5760003660031901126101fd57602060ff60015460a01c166040519015158152f35b346101fd5760403660031901126101fd57602435600435600052600b60205260406000209081548110156101fd576115f8916124e7565b5080546001600160a01b031661161060018301612598565b9160028101549060ff600382015416906005600482015491015491611647604051968796875260c0602088015260c087019061249a565b93604086015215156060850152608084015260a08301520390f35b346101fd5760203660031901126101fd5761167b61245a565b611683612883565b6001600160a01b03166116978115156126cd565b80600052600760205260ff604060002054166116fb578060005260076020526040600020600160ff198254161790556116d160085461264a565b6008557fe366c1c0452ed8eec96861e9e54141ebff23c9ec89fe27b996b45f5ec3884987600080a2005b60405162461bcd60e51b815260206004820152601160248201527020b63932b0b23c903b30b634b230ba37b960791b6044820152606490fd5b346101fd5760203660031901126101fd5761174d61245a565b611755612883565b6001600160a01b03166000818152600760205260409020546117799060ff1661279b565b806000526007602052604060002060ff19815416905561179a6008546127d9565b6008557fe1434e25d6611e0db941968fdc97811c982ac1602e951637d206f5fdda9dd8f1600080a2005b346101fd5760003660031901126101fd576117dd612883565b60015460ff8160a01c16156118245760ff60a01b19166001556040513381527f5db9ee0a495bf2e6ff9c91a7834c1ba4fdd244a5e8aa4e537bd38aeae4b073aa90602090a1005b60405162461bcd60e51b815260206004820152601460248201527314185d5cd8589b194e881b9bdd081c185d5cd95960621b6044820152606490fd5b346101fd5760203660031901126101fd5760043561187c612883565b600181106119205760085480821190811591611917575b50156118d25760407fb6db129b84dbdef2d15fbb03e44fe1050995a5b1f855b6faf62b419185e53dc891600954908060095582519182526020820152a1005b60405162461bcd60e51b815260206004820152601d60248201527f43616e6e6f74206578636565642076616c696461746f7220636f756e740000006044820152606490fd5b90501582611893565b60405162461bcd60e51b815260206004820152601c60248201527f4d696e2076616c69646174696f6e73206d757374206265203e3d2031000000006044820152606490fd5b346101fd5760203660031901126101fd576001600160a01b0361198661245a565b16600052600e6020526020604060002054604051908152f35b346101fd5760203660031901126101fd5760006101606040516119c18161253d565b828152826020820152606060408201528260608201528260808201528260a08201528260c08201528260e08201528261010082015282610120820152826101408201520152600435600052600a602052604060002060405190611a238261253d565b8054825260018101546001600160a01b03166020830152611a4660028201612598565b60408301526003810154606083015260048101546080830152600581015460a083015260068101549060ff8216916007831015610a7a57600a9260c085015260018060a01b039060081c1660e084015260018060a01b036007820154166101008401526008810154610120840152600981015461014084015201546101608201526040518091602082528051602083015260018060a01b036020820151166040830152610160611b07604083015161018060608601526101a085019061249a565b9160608101516080850152608081015160a085015260a081015160c0850152611b3860c082015160e08601906124da565b60018060a01b0360e08201511661010085015260018060a01b03610100820151166101208501526101208101516101408501526101408101518285015201516101808301520390f35b346101fd5760203660031901126101fd5760043580600052600a602052611bae8160406000205414612723565b611bb661283c565b80600052600a6020526040600020600681019081549060ff82166007811015610a7a57611c86576005611bec9101544210612760565b60081c6001600160a01b0316611c4e578054610100600160a81b0319163360081b610100600160a81b0316178155805460ff1916600117905533907fc8717b61398fb9d7cacf49fe1e296b2f10e9711226b532842b6ffd642cb6a2c6600080a3005b60405162461bcd60e51b815260206004820152601060248201526f105b1c9958591e48185cdcda59db995960821b6044820152606490fd5b60405162461bcd60e51b81526020600482015260126024820152715461736b206e6f7420617661696c61626c6560701b6044820152606490fd5b346101fd576020806003193601126101fd57600435600052600b8152604060002090815491611cee8361270b565b92611cfc6040519485612576565b8084528284018092600052836000206000915b838310611dbb5750505050604051918083019381845251809452604083019360408160051b85010192916000955b828710611d4a5785850386f35b909192938280600192603f19898203018552875190611d8160c0868060a01b0384511683528484015190808685015283019061249a565b91604081015160408301526060808201511515908301526080808201519083015260a0809101519101529601920196019592919092611d3d565b600686600192604099989951611dd08161255a565b848060a01b038654168152611de6858701612598565b838201526002860154604082015260ff6003870154161515606082015260048601546080820152600586015460a0820152815201920192019190959495611d0f565b346101fd5760203660031901126101fd57611e4161245a565b611e49612883565b6001600160a01b0381811691611e608315156126cd565b601054918215611ea65761150d9360006010557fc0819c13be868895eb93e40eaceb96de976442fa1d404e5c55f14bb65a8c489a6020604051868152a2600254166128db565b60405162461bcd60e51b81526020600482015260136024820152724e6f206665657320746f20776974686472617760681b6044820152606490fd5b346101fd57611eef36612470565b91600052600c60205260406000209060005260205260406000209060018060a01b03166000526020526020604060002054604051908152f35b346101fd5760003660031901126101fd576020600854604051908152f35b346101fd5760203660031901126101fd576001600160a01b03611f6761245a565b16600052600f6020526020604060002054604051908152f35b346101fd5760603660031901126101fd5760043567ffffffffffffffff81116101fd57611fb190369060040161242c565b611fb96127e6565b611fc161283c565b80156123f557600454602435106123bf576044351515806123b1575b15612379576003546024358082029291811591840414171561078257612009612710830460243561263d565b6002546040516323b872dd60e01b602082015233602482015230604482015260648082019390935291825260a0820191906001600160a01b031667ffffffffffffffff831182841017610902576120629260405261293f565b61206d60065461264a565b918260065561207e6044354261263d565b6127106040519261208e8461253d565b8584523360208501526120a2368689612675565b6040850152602435606085015204608083015260a0820152600060c0820152600060e08201526000610100820152600061012082015242610140820152600061016082015282600052600a602052604060002093815185556001850160018060a01b036020840151166001600160601b0360a01b825416179055604082015180519067ffffffffffffffff82116109025781906121426002890154612503565b601f8111612326575b50602090601f83116001146122b4576000926122a9575b50508160011b916000199060031b1c19161760028601555b606082015160038601556080820151600486015560a0820151600586015560c0820151906007821015610a7a5760068601805460e0850151610100600160a81b0360089190911b1660ff949094166001600160a81b0319909116179290921790915560209484927fb5e5fbf3346e9f5c610406862e51622b9d1e7fefd46de0e79367de79c2b74890929190600a90610160906007840160018060a01b03610100830151166001600160601b0360a01b82541617905561012081015160088501556101408101516009850155015191015533600052600e86526040600020612261815461264a565b905582600052600a865260056040600020015461229960405192839260243584528984015260606040840152339660608401916126ac565b0390a36001600055604051908152f35b015190508780612162565b9250600288016000526020600020906000935b601f198416851061230b576001945083601f198116106122f2575b505050811b01600286015561217a565b015160001960f88460031b161c191690558780806122e2565b818101518355602094850194600190930192909101906122c7565b909150600288016000526020600020601f840160051c810160208510612372575b90849392915b601f830160051c8201811061236357505061214b565b6000815585945060010161234d565b5080612347565b60405162461bcd60e51b815260206004820152601060248201526f24b73b30b634b210323ab930ba34b7b760811b6044820152606490fd5b506005546044351115611fdd565b60405162461bcd60e51b815260206004820152600e60248201526d52657761726420746f6f206c6f7760901b6044820152606490fd5b60405162461bcd60e51b815260206004820152600f60248201526e08adae0e8f240e8c2e6d640d0c2e6d608b1b6044820152606490fd5b9181601f840112156101fd5782359167ffffffffffffffff83116101fd57602083818601950101116101fd57565b600435906001600160a01b03821682036101fd57565b60609060031901126101fd5760043590602435906044356001600160a01b03811681036101fd5790565b919082519283825260005b8481106124c6575050826000602080949584010152601f8019910116010190565b6020818301810151848301820152016124a5565b906007821015610a7a5752565b80548210156108ec576000526006602060002091020190600090565b90600182811c92168015612533575b602083101461251d57565b634e487b7160e01b600052602260045260246000fd5b91607f1691612512565b610180810190811067ffffffffffffffff82111761090257604052565b60c0810190811067ffffffffffffffff82111761090257604052565b90601f8019910116810190811067ffffffffffffffff82111761090257604052565b906040519182600082546125ab81612503565b9081845260209460019160018116908160001461261b57506001146125dc575b5050506125da92500383612576565b565b600090815285812095935091905b8183106126035750506125da93508201013880806125cb565b855488840185015294850194879450918301916125ea565b925050506125da94925060ff191682840152151560051b8201013880806125cb565b9190820180921161078257565b60001981146107825760010190565b67ffffffffffffffff811161090257601f01601f191660200190565b92919261268182612659565b9161268f6040519384612576565b8294818452818301116101fd578281602093846000960137010152565b908060209392818452848401376000828201840152601f01601f1916010190565b156126d457565b60405162461bcd60e51b815260206004820152600f60248201526e496e76616c6964206164647265737360881b6044820152606490fd5b67ffffffffffffffff81116109025760051b60200190565b1561272a57565b60405162461bcd60e51b815260206004820152600e60248201526d15185cdac81b9bdd08199bdd5b9960921b6044820152606490fd5b1561276757565b60405162461bcd60e51b815260206004820152600c60248201526b15185cdac8195e1c1a5c995960a21b6044820152606490fd5b156127a257565b60405162461bcd60e51b815260206004820152600f60248201526e2737ba1030903b30b634b230ba37b960891b6044820152606490fd5b8015610782576000190190565b6002600054146127f7576002600055565b60405162461bcd60e51b815260206004820152601f60248201527f5265656e7472616e637947756172643a207265656e7472616e742063616c6c006044820152606490fd5b60ff60015460a01c1661284b57565b60405162461bcd60e51b815260206004820152601060248201526f14185d5cd8589b194e881c185d5cd95960821b6044820152606490fd5b6001546001600160a01b0316330361289757565b606460405162461bcd60e51b815260206004820152602060248201527f4f776e61626c653a2063616c6c6572206973206e6f7420746865206f776e65726044820152fd5b60405163a9059cbb60e01b60208201526001600160a01b039092166024830152604480830193909352918152608081019167ffffffffffffffff831182841017610902576125da9260405261293f565b80518210156108ec5760209160051b010190565b60018060a01b031690604051604081019080821067ffffffffffffffff831117610902576129cf916040526020938482527f5361666545524332303a206c6f772d6c6576656c2063616c6c206661696c6564858301526000808587829751910182855af13d15612a6c573d916129b483612659565b926129c26040519485612576565b83523d868885013e612a70565b805191821591848315612a41575b5050509050156129ea5750565b6084906040519062461bcd60e51b82526004820152602a60248201527f5361666545524332303a204552433230206f7065726174696f6e20646964206e6044820152691bdd081cdd58d8d9595960b21b6064820152fd5b919381809450010312612a6857820151908115158203612a655750803880846129dd565b80fd5b5080fd5b6060915b91929015612ad25750815115612a84575090565b3b15612a8d5790565b60405162461bcd60e51b815260206004820152601d60248201527f416464726573733a2063616c6c20746f206e6f6e2d636f6e74726163740000006044820152606490fd5b825190915015612ae55750805190602001fd5b60405162461bcd60e51b815260206004820152908190612b0990602483019061249a565b0390fdfea264697066735822122095c618815610e98603bc162808b2e241397d2266bde6789a68aeaca270fb339064736f6c63430008180033","opcodes":"PUSH1 0x80 CALLVALUE PUSH3 0x129 JUMPI PUSH1 0x1F PUSH3 0x2C88 CODESIZE DUP2 SWAP1 SUB SWAP2 DUP3 ADD PUSH1 0x1F NOT AND DUP4 ADD SWAP2 PUSH1 0x1 PUSH1 0x1 PUSH1 0x40 SHL SUB DUP4 GT DUP5 DUP5 LT OR PUSH3 0x12E JUMPI DUP1 DUP5 SWAP3 PUSH1 0x20 SWAP5 PUSH1 0x40 MSTORE DUP4 CODECOPY DUP2 ADD SUB SLT PUSH3 0x129 JUMPI MLOAD PUSH1 0x1 PUSH1 0x1 PUSH1 0xA0 SHL SUB DUP1 DUP3 AND SWAP2 DUP3 SWAP1 SUB PUSH3 0x129 JUMPI PUSH1 0x1 PUSH1 0x0 SSTORE PUSH1 0x1 SLOAD PUSH1 0x40 MLOAD SWAP2 CALLER SWAP1 DUP3 AND PUSH32 0x8BE0079C531659141344CD1FD0A4F28419497F9722A3DAAFE3B4186F6B6457E0 PUSH1 0x0 DUP1 LOG3 PUSH1 0x1 PUSH1 0x1 PUSH1 0xA8 SHL SUB NOT AND CALLER PUSH1 0xFF PUSH1 0xA0 SHL NOT AND OR PUSH1 0x1 SSTORE PUSH1 0x64 PUSH1 0x3 SSTORE PUSH4 0x5F5E100 PUSH1 0x4 SSTORE PUSH3 0x93A80 PUSH1 0x5 SSTORE PUSH1 0x2 PUSH1 0x9 SSTORE DUP2 ISZERO PUSH3 0xE7 JUMPI POP PUSH1 0x2 DUP1 SLOAD PUSH1 0x1 PUSH1 0x1 PUSH1 0xA0 SHL SUB NOT AND SWAP2 SWAP1 SWAP2 OR SWAP1 SSTORE PUSH1 0x40 MLOAD PUSH2 0x2B43 SWAP1 DUP2 PUSH3 0x145 DUP3 CODECOPY RETURN JUMPDEST PUSH3 0x461BCD PUSH1 0xE5 SHL DUP2 MSTORE PUSH1 0x20 PUSH1 0x4 DUP3 ADD MSTORE PUSH1 0x15 PUSH1 0x24 DUP3 ADD MSTORE PUSH32 0x496E76616C696420746F6B656E20616464726573730000000000000000000000 PUSH1 0x44 DUP3 ADD MSTORE PUSH1 0x64 SWAP1 REVERT JUMPDEST PUSH1 0x0 DUP1 REVERT JUMPDEST PUSH4 0x4E487B71 PUSH1 0xE0 SHL PUSH1 0x0 MSTORE PUSH1 0x41 PUSH1 0x4 MSTORE PUSH1 0x24 PUSH1 0x0 REVERT INVALID PUSH1 0x80 PUSH1 0x40 MSTORE PUSH1 0x4 CALLDATASIZE LT ISZERO PUSH2 0x12 JUMPI PUSH1 0x0 DUP1 REVERT JUMPDEST PUSH1 0x0 CALLDATALOAD PUSH1 0xE0 SHR DUP1 PUSH4 0x59378EA EQ PUSH2 0x1F80 JUMPI DUP1 PUSH4 0xF0DA719 EQ PUSH2 0x1F46 JUMPI DUP1 PUSH4 0xF43A677 EQ PUSH2 0x1F28 JUMPI DUP1 PUSH4 0xFB6D805 EQ PUSH2 0x1EE1 JUMPI DUP1 PUSH4 0x164E68DE EQ PUSH2 0x1E28 JUMPI DUP1 PUSH4 0x16C53CED EQ PUSH2 0x1CC0 JUMPI DUP1 PUSH4 0x1BF6912D EQ PUSH2 0x1B81 JUMPI DUP1 PUSH4 0x1D65E77E EQ PUSH2 0x199F JUMPI DUP1 PUSH4 0x1ED5C43C EQ PUSH2 0x1965 JUMPI DUP1 PUSH4 0x2B52D8C3 EQ PUSH2 0x1860 JUMPI DUP1 PUSH4 0x3F4BA83A EQ PUSH2 0x17C4 JUMPI DUP1 PUSH4 0x40A141FF EQ PUSH2 0x1734 JUMPI DUP1 PUSH4 0x4D238C8E EQ PUSH2 0x1662 JUMPI DUP1 PUSH4 0x53EEA875 EQ PUSH2 0x15C1 JUMPI DUP1 PUSH4 0x5C975ABB EQ PUSH2 0x159B JUMPI DUP1 PUSH4 0x62ECC47A EQ PUSH2 0x142D JUMPI DUP1 PUSH4 0x680038C7 EQ PUSH2 0x140F JUMPI DUP1 PUSH4 0x715018A6 EQ PUSH2 0x13B2 JUMPI DUP1 PUSH4 0x7BE24CB8 EQ PUSH2 0x1386 JUMPI DUP1 PUSH4 0x7CA0AD2D EQ PUSH2 0x133A JUMPI DUP1 PUSH4 0x7EEC20A8 EQ PUSH2 0x11DE JUMPI DUP1 PUSH4 0x8456CB59 EQ PUSH2 0x117C JUMPI DUP1 PUSH4 0x88488C33 EQ PUSH2 0xFD7 JUMPI DUP1 PUSH4 0x8C0DD79A EQ PUSH2 0xC40 JUMPI DUP1 PUSH4 0x8D977672 EQ PUSH2 0xB69 JUMPI DUP1 PUSH4 0x8DA5CB5B EQ PUSH2 0xB40 JUMPI DUP1 PUSH4 0x9003ADFE EQ PUSH2 0xB22 JUMPI DUP1 PUSH4 0x927FEF2E EQ PUSH2 0xA90 JUMPI DUP1 PUSH4 0xB7EE5EDA EQ PUSH2 0x3D7 JUMPI DUP1 PUSH4 0xC0BE15EC EQ PUSH2 0x3B9 JUMPI DUP1 PUSH4 0xD22C81E5 EQ PUSH2 0x39B JUMPI DUP1 PUSH4 0xD65314B3 EQ PUSH2 0x32B JUMPI DUP1 PUSH4 0xEECA08F0 EQ PUSH2 0x30D JUMPI DUP1 PUSH4 0xF0992C97 EQ PUSH2 0x2EF JUMPI DUP1 PUSH4 0xF2FDE38B EQ PUSH2 0x22B JUMPI DUP1 PUSH4 0xF70B5C06 EQ PUSH2 0x202 JUMPI DUP1 PUSH4 0xFA52C7D8 EQ PUSH2 0x1BE JUMPI PUSH4 0xFACD743B EQ PUSH2 0x1BE JUMPI PUSH1 0x0 DUP1 REVERT JUMPDEST CALLVALUE PUSH2 0x1FD JUMPI PUSH1 0x20 CALLDATASIZE PUSH1 0x3 NOT ADD SLT PUSH2 0x1FD JUMPI PUSH1 0x1 PUSH1 0x1 PUSH1 0xA0 SHL SUB PUSH2 0x1DF PUSH2 0x245A JUMP JUMPDEST AND PUSH1 0x0 MSTORE PUSH1 0x7 PUSH1 0x20 MSTORE PUSH1 0x20 PUSH1 0xFF PUSH1 0x40 PUSH1 0x0 KECCAK256 SLOAD AND PUSH1 0x40 MLOAD SWAP1 ISZERO ISZERO DUP2 MSTORE RETURN JUMPDEST PUSH1 0x0 DUP1 REVERT JUMPDEST CALLVALUE PUSH2 0x1FD JUMPI PUSH1 0x0 CALLDATASIZE PUSH1 0x3 NOT ADD SLT PUSH2 0x1FD JUMPI PUSH1 0x2 SLOAD PUSH1 0x40 MLOAD PUSH1 0x1 PUSH1 0x1 PUSH1 0xA0 SHL SUB SWAP1 SWAP2 AND DUP2 MSTORE PUSH1 0x20 SWAP1 RETURN JUMPDEST CALLVALUE PUSH2 0x1FD JUMPI PUSH1 0x20 CALLDATASIZE PUSH1 0x3 NOT ADD SLT PUSH2 0x1FD JUMPI PUSH2 0x244 PUSH2 0x245A JUMP JUMPDEST PUSH2 0x24C PUSH2 0x2883 JUMP JUMPDEST PUSH1 0x1 PUSH1 0x1 PUSH1 0xA0 SHL SUB SWAP1 DUP2 AND SWAP1 DUP2 ISZERO PUSH2 0x29B JUMPI PUSH1 0x1 SLOAD DUP3 PUSH1 0x1 PUSH1 0x1 PUSH1 0x60 SHL SUB PUSH1 0xA0 SHL DUP3 AND OR PUSH1 0x1 SSTORE AND PUSH32 0x8BE0079C531659141344CD1FD0A4F28419497F9722A3DAAFE3B4186F6B6457E0 PUSH1 0x0 DUP1 LOG3 STOP JUMPDEST PUSH1 0x40 MLOAD PUSH3 0x461BCD PUSH1 0xE5 SHL DUP2 MSTORE PUSH1 0x20 PUSH1 0x4 DUP3 ADD MSTORE PUSH1 0x26 PUSH1 0x24 DUP3 ADD MSTORE PUSH32 0x4F776E61626C653A206E6577206F776E657220697320746865207A65726F2061 PUSH1 0x44 DUP3 ADD MSTORE PUSH6 0x646472657373 PUSH1 0xD0 SHL PUSH1 0x64 DUP3 ADD MSTORE PUSH1 0x84 SWAP1 REVERT JUMPDEST CALLVALUE PUSH2 0x1FD JUMPI PUSH1 0x0 CALLDATASIZE PUSH1 0x3 NOT ADD SLT PUSH2 0x1FD JUMPI PUSH1 0x20 PUSH1 0x4 SLOAD PUSH1 0x40 MLOAD SWAP1 DUP2 MSTORE RETURN JUMPDEST CALLVALUE PUSH2 0x1FD JUMPI PUSH1 0x0 CALLDATASIZE PUSH1 0x3 NOT ADD SLT PUSH2 0x1FD JUMPI PUSH1 0x20 PUSH1 0x3 SLOAD PUSH1 0x40 MLOAD SWAP1 DUP2 MSTORE RETURN JUMPDEST CALLVALUE PUSH2 0x1FD JUMPI PUSH1 0x40 PUSH2 0x33B CALLDATASIZE PUSH2 0x2470 JUMP JUMPDEST DUP3 PUSH1 0x0 MSTORE PUSH1 0x20 SWAP2 PUSH1 0xD DUP4 MSTORE DUP5 PUSH1 0x0 KECCAK256 DUP2 PUSH1 0x0 MSTORE DUP4 MSTORE DUP5 PUSH1 0x0 KECCAK256 SWAP2 PUSH1 0x1 DUP1 PUSH1 0xA0 SHL SUB AND SWAP2 DUP3 PUSH1 0x0 MSTORE DUP4 MSTORE PUSH1 0xFF DUP6 PUSH1 0x0 KECCAK256 SLOAD AND SWAP4 PUSH1 0x0 MSTORE PUSH1 0xC DUP4 MSTORE DUP5 PUSH1 0x0 KECCAK256 SWAP1 PUSH1 0x0 MSTORE DUP3 MSTORE DUP4 PUSH1 0x0 KECCAK256 SWAP1 PUSH1 0x0 MSTORE DUP2 MSTORE DUP3 PUSH1 0x0 KECCAK256 SLOAD SWAP2 DUP4 MLOAD SWAP3 DUP4 MSTORE ISZERO ISZERO SWAP1 DUP3 ADD MSTORE RETURN JUMPDEST CALLVALUE PUSH2 0x1FD JUMPI PUSH1 0x0 CALLDATASIZE PUSH1 0x3 NOT ADD SLT PUSH2 0x1FD JUMPI PUSH1 0x20 PUSH1 0x6 SLOAD PUSH1 0x40 MLOAD SWAP1 DUP2 MSTORE RETURN JUMPDEST CALLVALUE PUSH2 0x1FD JUMPI PUSH1 0x0 CALLDATASIZE PUSH1 0x3 NOT ADD SLT PUSH2 0x1FD JUMPI PUSH1 0x20 PUSH1 0x5 SLOAD PUSH1 0x40 MLOAD SWAP1 DUP2 MSTORE RETURN JUMPDEST CALLVALUE PUSH2 0x1FD JUMPI PUSH1 0x60 CALLDATASIZE PUSH1 0x3 NOT ADD SLT PUSH2 0x1FD JUMPI CALLER PUSH1 0x0 MSTORE PUSH1 0x7 PUSH1 0x20 MSTORE PUSH2 0x402 PUSH1 0xFF PUSH1 0x40 PUSH1 0x0 KECCAK256 SLOAD AND PUSH2 0x279B JUMP JUMPDEST PUSH1 0x4 CALLDATALOAD PUSH1 0x0 MSTORE PUSH1 0xA PUSH1 0x20 MSTORE PUSH2 0x41F PUSH1 0x4 CALLDATALOAD PUSH1 0x40 PUSH1 0x0 KECCAK256 SLOAD EQ PUSH2 0x2723 JUMP JUMPDEST PUSH2 0x427 PUSH2 0x283C JUMP JUMPDEST PUSH1 0x4 CALLDATALOAD PUSH1 0x0 MSTORE PUSH1 0xA PUSH1 0x20 MSTORE PUSH1 0x40 PUSH1 0x0 KECCAK256 PUSH1 0xFF PUSH1 0x6 DUP3 ADD SLOAD AND PUSH1 0x7 DUP2 LT ISZERO PUSH2 0xA7A JUMPI PUSH1 0x2 DUP2 EQ SWAP1 DUP2 ISZERO PUSH2 0xA6F JUMPI JUMPDEST POP ISZERO PUSH2 0xA2A JUMPI PUSH1 0x4 CALLDATALOAD PUSH1 0x0 MSTORE PUSH1 0xB PUSH1 0x20 MSTORE PUSH1 0x40 PUSH1 0x0 KECCAK256 SLOAD PUSH1 0x24 CALLDATALOAD LT ISZERO PUSH2 0x9EF JUMPI PUSH2 0x2710 PUSH1 0x44 CALLDATALOAD GT PUSH2 0x9B2 JUMPI PUSH1 0x4 CALLDATALOAD PUSH1 0x0 MSTORE PUSH1 0xD PUSH1 0x20 MSTORE PUSH1 0x40 PUSH1 0x0 KECCAK256 PUSH1 0x24 CALLDATALOAD PUSH1 0x0 MSTORE PUSH1 0x20 MSTORE PUSH1 0x40 PUSH1 0x0 KECCAK256 CALLER PUSH1 0x0 MSTORE PUSH1 0x20 MSTORE PUSH1 0xFF PUSH1 0x40 PUSH1 0x0 KECCAK256 SLOAD AND PUSH2 0x95C JUMPI PUSH1 0x4 CALLDATALOAD PUSH1 0x0 MSTORE PUSH1 0xB PUSH1 0x20 MSTORE PUSH2 0x4CC PUSH1 0x24 CALLDATALOAD PUSH1 0x40 PUSH1 0x0 KECCAK256 PUSH2 0x24E7 JUMP JUMPDEST POP PUSH1 0xFF PUSH1 0x3 DUP3 ADD SLOAD AND PUSH2 0x918 JUMPI PUSH1 0x4 CALLDATALOAD PUSH1 0x0 MSTORE PUSH1 0xC PUSH1 0x20 MSTORE PUSH1 0x40 PUSH1 0x0 KECCAK256 PUSH1 0x24 CALLDATALOAD PUSH1 0x0 MSTORE PUSH1 0x20 MSTORE PUSH1 0x40 PUSH1 0x0 KECCAK256 CALLER PUSH1 0x0 MSTORE PUSH1 0x20 MSTORE PUSH1 0x44 CALLDATALOAD PUSH1 0x40 PUSH1 0x0 KECCAK256 SSTORE PUSH1 0x4 CALLDATALOAD PUSH1 0x0 MSTORE PUSH1 0xD PUSH1 0x20 MSTORE PUSH1 0x40 PUSH1 0x0 KECCAK256 PUSH1 0x24 CALLDATALOAD PUSH1 0x0 MSTORE PUSH1 0x20 MSTORE PUSH1 0x40 PUSH1 0x0 KECCAK256 CALLER PUSH1 0x0 MSTORE PUSH1 0x20 MSTORE PUSH1 0x40 PUSH1 0x0 KECCAK256 PUSH1 0x1 PUSH1 0xFF NOT DUP3 SLOAD AND OR SWAP1 SSTORE PUSH1 0x4 CALLDATALOAD PUSH1 0x0 MSTORE PUSH1 0x11 PUSH1 0x20 MSTORE PUSH1 0x40 PUSH1 0x0 KECCAK256 PUSH1 0x24 CALLDATALOAD PUSH1 0x0 MSTORE PUSH1 0x20 MSTORE PUSH1 0x40 PUSH1 0x0 KECCAK256 DUP1 SLOAD SWAP1 PUSH1 0x1 PUSH1 0x40 SHL DUP3 LT ISZERO PUSH2 0x902 JUMPI PUSH1 0x1 DUP3 ADD DUP1 DUP3 SSTORE DUP3 LT ISZERO PUSH2 0x8EC JUMPI PUSH1 0x0 MSTORE PUSH1 0x20 PUSH1 0x0 KECCAK256 ADD CALLER PUSH1 0x1 PUSH1 0x1 PUSH1 0x60 SHL SUB PUSH1 0xA0 SHL DUP3 SLOAD AND OR SWAP1 SSTORE PUSH2 0x59F PUSH1 0x5 DUP3 ADD SLOAD PUSH2 0x264A JUMP JUMPDEST SWAP1 DUP2 PUSH1 0x5 DUP3 ADD SSTORE PUSH1 0x1 DUP1 PUSH1 0xA0 SHL SUB DUP2 SLOAD AND PUSH1 0x40 MLOAD PUSH1 0x44 CALLDATALOAD DUP2 MSTORE CALLER PUSH1 0x20 DUP3 ADD MSTORE PUSH32 0x424E5AD88B2ACCC1579E610100B12E0F295D8C9E0B02ABB61AD1E413E3D63D02 PUSH1 0x40 PUSH1 0x4 CALLDATALOAD SWAP3 LOG3 PUSH1 0x9 SLOAD DUP3 LT ISZERO PUSH2 0x5F2 JUMPI STOP JUMPDEST PUSH2 0x5FB DUP3 PUSH2 0x270B JUMP JUMPDEST SWAP2 PUSH2 0x609 PUSH1 0x40 MLOAD SWAP4 DUP5 PUSH2 0x2576 JUMP JUMPDEST DUP1 DUP4 MSTORE PUSH1 0x1F NOT PUSH2 0x618 DUP3 PUSH2 0x270B JUMP JUMPDEST ADD CALLDATASIZE PUSH1 0x20 DUP6 ADD CALLDATACOPY PUSH1 0x0 JUMPDEST DUP2 DUP2 LT PUSH2 0x8D6 JUMPI POP PUSH1 0x4 CALLDATALOAD PUSH1 0x0 MSTORE PUSH1 0x11 PUSH1 0x20 MSTORE PUSH1 0x40 PUSH1 0x0 KECCAK256 PUSH1 0x24 CALLDATALOAD PUSH1 0x0 MSTORE PUSH1 0x20 MSTORE PUSH1 0x40 PUSH1 0x0 KECCAK256 DUP1 SLOAD SWAP1 DUP3 DUP3 SUB PUSH2 0x891 JUMPI SWAP1 PUSH1 0x20 SWAP2 PUSH1 0x40 MLOAD SWAP1 DUP2 SWAP4 DUP3 DUP5 DUP7 SWAP5 MSTORE ADD SWAP1 PUSH1 0x0 MSTORE PUSH1 0x20 PUSH1 0x0 KECCAK256 SWAP3 PUSH1 0x0 JUMPDEST DUP2 DUP2 LT PUSH2 0x86F JUMPI POP POP PUSH2 0x684 SWAP3 POP SUB DUP3 PUSH2 0x2576 JUMP JUMPDEST PUSH1 0x0 JUMPDEST DUP3 DUP2 LT PUSH2 0x81F JUMPI POP POP PUSH1 0x1 JUMPDEST DUP2 DUP2 LT PUSH2 0x798 JUMPI POP PUSH1 0x1 DUP2 DUP2 AND SUB PUSH2 0x748 JUMPI PUSH1 0x5 SWAP3 PUSH2 0x6B5 SWAP2 PUSH1 0x1 SHR SWAP1 PUSH2 0x292B JUMP JUMPDEST MLOAD SWAP3 JUMPDEST DUP4 PUSH1 0x2 DUP4 ADD SSTORE PUSH1 0x1 PUSH1 0xFF NOT PUSH1 0x3 DUP5 ADD SLOAD AND OR PUSH1 0x3 DUP4 ADD SSTORE DUP4 PUSH1 0x8 DUP3 ADD DUP1 SLOAD DUP3 GT PUSH2 0x71F JUMPI JUMPDEST POP POP POP ADD SLOAD PUSH1 0x40 MLOAD SWAP2 PUSH1 0x24 CALLDATALOAD DUP4 MSTORE PUSH1 0x20 DUP4 ADD MSTORE PUSH1 0x40 DUP3 ADD MSTORE PUSH32 0xFF2FC693BB2D4A09F21F0C403FCE5ECB4B5B0B57E81C7253DEB5386BB8A8AE77 PUSH1 0x60 PUSH1 0x4 CALLDATALOAD SWAP3 LOG2 STOP JUMPDEST SSTORE PUSH1 0x7 PUSH1 0x1 DUP1 PUSH1 0xA0 SHL SUB DUP4 SLOAD AND SWAP2 ADD SWAP1 PUSH1 0x1 PUSH1 0x1 PUSH1 0x60 SHL SUB PUSH1 0xA0 SHL DUP3 SLOAD AND OR SWAP1 SSTORE DUP4 DUP4 DUP2 PUSH2 0x6DD JUMP JUMPDEST PUSH1 0x1 SHR PUSH1 0x0 NOT DUP2 ADD SWAP3 DUP2 DUP5 GT PUSH2 0x782 JUMPI PUSH2 0x772 PUSH2 0x779 SWAP3 PUSH2 0x76B PUSH1 0x5 SWAP7 DUP5 PUSH2 0x292B JUMP JUMPDEST MLOAD SWAP3 PUSH2 0x292B JUMP JUMPDEST MLOAD SWAP1 PUSH2 0x263D JUMP JUMPDEST PUSH1 0x1 SHR SWAP3 PUSH2 0x6B8 JUMP JUMPDEST PUSH4 0x4E487B71 PUSH1 0xE0 SHL PUSH1 0x0 MSTORE PUSH1 0x11 PUSH1 0x4 MSTORE PUSH1 0x24 PUSH1 0x0 REVERT JUMPDEST SWAP2 SWAP3 SWAP4 PUSH2 0x7A5 DUP4 DUP7 PUSH2 0x292B JUMP JUMPDEST MLOAD SWAP4 DUP4 JUMPDEST DUP1 ISZERO ISZERO DUP1 PUSH2 0x800 JUMPI JUMPDEST ISZERO PUSH2 0x7E7 JUMPI PUSH1 0x0 NOT DUP2 ADD SWAP1 DUP1 DUP3 GT PUSH2 0x782 JUMPI PUSH2 0x7D1 PUSH2 0x7E2 SWAP3 DUP10 PUSH2 0x292B JUMP JUMPDEST MLOAD PUSH2 0x7DC DUP3 DUP11 PUSH2 0x292B JUMP JUMPDEST MSTORE PUSH2 0x27D9 JUMP JUMPDEST PUSH2 0x7A9 JUMP JUMPDEST SWAP5 PUSH2 0x7F9 PUSH1 0x1 SWAP4 SWAP8 SWAP7 SWAP6 SWAP3 SWAP6 DUP8 PUSH2 0x292B JUMP JUMPDEST MSTORE ADD PUSH2 0x693 JUMP JUMPDEST POP PUSH1 0x0 NOT DUP2 ADD DUP2 DUP2 GT PUSH2 0x782 JUMPI PUSH2 0x818 DUP8 SWAP2 DUP10 PUSH2 0x292B JUMP JUMPDEST MLOAD GT PUSH2 0x7B2 JUMP JUMPDEST PUSH1 0x1 SWAP1 PUSH1 0x4 CALLDATALOAD PUSH1 0x0 MSTORE PUSH1 0xC PUSH1 0x20 MSTORE PUSH1 0x40 PUSH1 0x0 KECCAK256 PUSH1 0x24 CALLDATALOAD PUSH1 0x0 MSTORE PUSH1 0x20 MSTORE PUSH1 0x40 PUSH1 0x0 KECCAK256 DUP3 DUP1 PUSH1 0xA0 SHL SUB PUSH2 0x850 DUP4 DUP7 PUSH2 0x292B JUMP JUMPDEST MLOAD AND PUSH1 0x0 MSTORE PUSH1 0x20 MSTORE PUSH1 0x40 PUSH1 0x0 KECCAK256 SLOAD PUSH2 0x868 DUP3 DUP9 PUSH2 0x292B JUMP JUMPDEST MSTORE ADD PUSH2 0x687 JUMP JUMPDEST DUP5 SLOAD PUSH1 0x1 PUSH1 0x1 PUSH1 0xA0 SHL SUB AND DUP4 MSTORE PUSH1 0x1 SWAP5 DUP6 ADD SWAP5 DUP7 SWAP5 POP PUSH1 0x20 SWAP1 SWAP4 ADD SWAP3 ADD PUSH2 0x66F JUMP JUMPDEST PUSH1 0x40 MLOAD PUSH3 0x461BCD PUSH1 0xE5 SHL DUP2 MSTORE PUSH1 0x20 PUSH1 0x4 DUP3 ADD MSTORE PUSH1 0x1B PUSH1 0x24 DUP3 ADD MSTORE PUSH32 0x56616C696461746F7220747261636B696E67206D69736D617463680000000000 PUSH1 0x44 DUP3 ADD MSTORE PUSH1 0x64 SWAP1 REVERT JUMPDEST DUP1 PUSH1 0x0 PUSH2 0x8E5 PUSH1 0x1 SWAP4 DUP8 PUSH2 0x292B JUMP JUMPDEST MSTORE ADD PUSH2 0x622 JUMP JUMPDEST PUSH4 0x4E487B71 PUSH1 0xE0 SHL PUSH1 0x0 MSTORE PUSH1 0x32 PUSH1 0x4 MSTORE PUSH1 0x24 PUSH1 0x0 REVERT JUMPDEST PUSH4 0x4E487B71 PUSH1 0xE0 SHL PUSH1 0x0 MSTORE PUSH1 0x41 PUSH1 0x4 MSTORE PUSH1 0x24 PUSH1 0x0 REVERT JUMPDEST PUSH1 0x64 PUSH1 0x40 MLOAD PUSH3 0x461BCD PUSH1 0xE5 SHL DUP2 MSTORE PUSH1 0x20 PUSH1 0x4 DUP3 ADD MSTORE PUSH1 0x20 PUSH1 0x24 DUP3 ADD MSTORE PUSH32 0x5375626D697373696F6E20616C72656164792068617320636F6E73656E737573 PUSH1 0x44 DUP3 ADD MSTORE REVERT JUMPDEST PUSH1 0x40 MLOAD PUSH3 0x461BCD PUSH1 0xE5 SHL DUP2 MSTORE PUSH1 0x20 PUSH1 0x4 DUP3 ADD MSTORE PUSH1 0x28 PUSH1 0x24 DUP3 ADD MSTORE PUSH32 0x56616C696461746F7220616C72656164792073636F7265642074686973207375 PUSH1 0x44 DUP3 ADD MSTORE PUSH8 0x3136B4B9B9B4B7B7 PUSH1 0xC1 SHL PUSH1 0x64 DUP3 ADD MSTORE PUSH1 0x84 SWAP1 REVERT JUMPDEST PUSH1 0x40 MLOAD PUSH3 0x461BCD PUSH1 0xE5 SHL DUP2 MSTORE PUSH1 0x20 PUSH1 0x4 DUP3 ADD MSTORE PUSH1 0x15 PUSH1 0x24 DUP3 ADD MSTORE PUSH21 0x53636F7265206D75737420626520302D313030303 PUSH1 0x5C SHL PUSH1 0x44 DUP3 ADD MSTORE PUSH1 0x64 SWAP1 REVERT JUMPDEST PUSH1 0x40 MLOAD PUSH3 0x461BCD PUSH1 0xE5 SHL DUP2 MSTORE PUSH1 0x20 PUSH1 0x4 DUP3 ADD MSTORE PUSH1 0x13 PUSH1 0x24 DUP3 ADD MSTORE PUSH19 0x92DCECC2D8D2C840DAD2DCCAE440D2DCC8CAF PUSH1 0x6B SHL PUSH1 0x44 DUP3 ADD MSTORE PUSH1 0x64 SWAP1 REVERT JUMPDEST PUSH1 0x40 MLOAD PUSH3 0x461BCD PUSH1 0xE5 SHL DUP2 MSTORE PUSH1 0x20 PUSH1 0x4 DUP3 ADD MSTORE PUSH1 0x17 PUSH1 0x24 DUP3 ADD MSTORE PUSH32 0x5461736B206E6F742070656E64696E6720726576696577000000000000000000 PUSH1 0x44 DUP3 ADD MSTORE PUSH1 0x64 SWAP1 REVERT JUMPDEST PUSH1 0x1 SWAP2 POP EQ DUP3 PUSH2 0x454 JUMP JUMPDEST PUSH4 0x4E487B71 PUSH1 0xE0 SHL PUSH1 0x0 MSTORE PUSH1 0x21 PUSH1 0x4 MSTORE PUSH1 0x24 PUSH1 0x0 REVERT JUMPDEST CALLVALUE PUSH2 0x1FD JUMPI PUSH1 0x20 CALLDATASIZE PUSH1 0x3 NOT ADD SLT PUSH2 0x1FD JUMPI PUSH1 0x4 CALLDATALOAD PUSH2 0xAAC PUSH2 0x2883 JUMP JUMPDEST PUSH2 0x3E8 DUP2 GT PUSH2 0xAEE JUMPI PUSH1 0x40 PUSH32 0xD347E206F25A89B917FC9482F1A2D294D749BAA4DC9BDE7FB495EE11FE491643 SWAP2 PUSH1 0x3 SLOAD SWAP1 DUP1 PUSH1 0x3 SSTORE DUP3 MLOAD SWAP2 DUP3 MSTORE PUSH1 0x20 DUP3 ADD MSTORE LOG1 STOP JUMPDEST PUSH1 0x40 MLOAD PUSH3 0x461BCD PUSH1 0xE5 SHL DUP2 MSTORE PUSH1 0x20 PUSH1 0x4 DUP3 ADD MSTORE PUSH1 0xC PUSH1 0x24 DUP3 ADD MSTORE PUSH12 0x8CCACA40E8DEDE40D0D2CED PUSH1 0xA3 SHL PUSH1 0x44 DUP3 ADD MSTORE PUSH1 0x64 SWAP1 REVERT JUMPDEST CALLVALUE PUSH2 0x1FD JUMPI PUSH1 0x0 CALLDATASIZE PUSH1 0x3 NOT ADD SLT PUSH2 0x1FD JUMPI PUSH1 0x20 PUSH1 0x10 SLOAD PUSH1 0x40 MLOAD SWAP1 DUP2 MSTORE RETURN JUMPDEST CALLVALUE PUSH2 0x1FD JUMPI PUSH1 0x0 CALLDATASIZE PUSH1 0x3 NOT ADD SLT PUSH2 0x1FD JUMPI PUSH1 0x1 SLOAD PUSH1 0x40 MLOAD PUSH1 0x1 PUSH1 0x1 PUSH1 0xA0 SHL SUB SWAP1 SWAP2 AND DUP2 MSTORE PUSH1 0x20 SWAP1 RETURN JUMPDEST CALLVALUE PUSH2 0x1FD JUMPI PUSH1 0x20 CALLDATASIZE PUSH1 0x3 NOT ADD SLT PUSH2 0x1FD JUMPI PUSH1 0x4 CALLDATALOAD PUSH1 0x0 MSTORE PUSH1 0xA PUSH1 0x20 MSTORE PUSH1 0x40 PUSH1 0x0 KECCAK256 PUSH1 0x40 DUP2 SLOAD SWAP2 PUSH1 0x1 DUP1 PUSH1 0xA0 SHL SUB SWAP1 DUP2 PUSH1 0x1 DUP3 ADD SLOAD AND SWAP1 PUSH2 0xBAB PUSH1 0x2 DUP3 ADD PUSH2 0x2598 JUMP JUMPDEST PUSH1 0x3 DUP3 ADD SLOAD SWAP4 PUSH1 0x4 DUP4 ADD SLOAD SWAP1 PUSH1 0x5 DUP5 ADD SLOAD PUSH1 0x6 DUP6 ADD SLOAD SWAP1 DUP3 PUSH1 0x7 DUP8 ADD SLOAD AND SWAP4 PUSH2 0xBFB PUSH1 0x8 DUP9 ADD SLOAD SWAP7 PUSH1 0xA PUSH1 0x9 DUP11 ADD SLOAD SWAP10 ADD SLOAD SWAP10 DUP13 MLOAD SWAP14 DUP15 SWAP14 DUP15 PUSH2 0x180 SWAP4 DUP5 SWAP4 DUP3 MSTORE PUSH1 0x20 DUP3 ADD MSTORE ADD MSTORE DUP13 ADD SWAP1 PUSH2 0x249A JUMP JUMPDEST SWAP9 PUSH1 0x60 DUP12 ADD MSTORE PUSH1 0x80 DUP11 ADD MSTORE PUSH1 0xA0 DUP10 ADD MSTORE PUSH2 0xC1B PUSH1 0xC0 DUP10 ADD PUSH1 0xFF DUP4 AND PUSH2 0x24DA JUMP JUMPDEST PUSH1 0x8 SHR AND PUSH1 0xE0 DUP8 ADD MSTORE PUSH2 0x100 DUP7 ADD MSTORE PUSH2 0x120 DUP6 ADD MSTORE PUSH2 0x140 DUP5 ADD MSTORE PUSH2 0x160 DUP4 ADD MSTORE SUB SWAP1 RETURN JUMPDEST CALLVALUE PUSH2 0x1FD JUMPI PUSH1 0x40 CALLDATASIZE PUSH1 0x3 NOT ADD SLT PUSH2 0x1FD JUMPI PUSH8 0xFFFFFFFFFFFFFFFF PUSH1 0x24 CALLDATALOAD DUP2 DUP2 GT PUSH2 0x1FD JUMPI PUSH2 0xC72 SWAP1 CALLDATASIZE SWAP1 PUSH1 0x4 ADD PUSH2 0x242C JUMP JUMPDEST SWAP1 SWAP2 PUSH1 0x4 CALLDATALOAD PUSH1 0x0 MSTORE PUSH1 0xA PUSH1 0x20 MSTORE PUSH2 0xC91 PUSH1 0x4 CALLDATALOAD PUSH1 0x40 PUSH1 0x0 KECCAK256 SLOAD EQ PUSH2 0x2723 JUMP JUMPDEST PUSH2 0xC99 PUSH2 0x283C JUMP JUMPDEST PUSH1 0x4 CALLDATALOAD PUSH1 0x0 MSTORE PUSH1 0xA PUSH1 0x20 MSTORE PUSH1 0x40 PUSH1 0x0 KECCAK256 SWAP1 PUSH1 0xFF PUSH1 0x6 DUP4 ADD SLOAD AND PUSH1 0x7 DUP2 LT ISZERO PUSH2 0xA7A JUMPI DUP1 ISZERO SWAP1 DUP2 ISZERO PUSH2 0xFCC JUMPI JUMPDEST POP ISZERO PUSH2 0xF87 JUMPI PUSH2 0xCDA PUSH1 0x5 DUP4 ADD SLOAD TIMESTAMP LT PUSH2 0x2760 JUMP JUMPDEST DUP3 ISZERO PUSH2 0xF4E JUMPI PUSH1 0x4 CALLDATALOAD PUSH1 0x0 MSTORE PUSH1 0xB PUSH1 0x20 MSTORE PUSH1 0x40 PUSH1 0x0 KECCAK256 PUSH1 0x40 MLOAD SWAP2 PUSH2 0xCFD DUP4 PUSH2 0x255A JUMP JUMPDEST CALLER DUP4 MSTORE PUSH2 0xD0B CALLDATASIZE DUP7 DUP9 PUSH2 0x2675 JUMP JUMPDEST SWAP2 PUSH1 0x20 DUP5 ADD SWAP3 DUP4 MSTORE PUSH1 0x0 PUSH1 0x40 DUP6 ADD MSTORE PUSH1 0x0 PUSH1 0x60 DUP6 ADD MSTORE TIMESTAMP PUSH1 0x80 DUP6 ADD MSTORE PUSH1 0x0 PUSH1 0xA0 DUP6 ADD MSTORE DUP1 SLOAD PUSH1 0x1 PUSH1 0x40 SHL DUP2 LT ISZERO PUSH2 0x902 JUMPI PUSH2 0xD4B SWAP2 PUSH1 0x1 DUP3 ADD DUP2 SSTORE PUSH2 0x24E7 JUMP JUMPDEST SWAP3 SWAP1 SWAP3 PUSH2 0xF38 JUMPI DUP4 MLOAD DUP4 SLOAD PUSH1 0x1 PUSH1 0x1 PUSH1 0xA0 SHL SUB NOT AND PUSH1 0x1 PUSH1 0x1 PUSH1 0xA0 SHL SUB SWAP2 SWAP1 SWAP2 AND OR DUP4 SSTORE MLOAD DUP1 MLOAD SWAP2 DUP3 GT PUSH2 0x902 JUMPI DUP2 SWAP1 PUSH2 0xD88 PUSH1 0x1 DUP6 ADD SLOAD PUSH2 0x2503 JUMP JUMPDEST PUSH1 0x1F DUP2 GT PUSH2 0xEE5 JUMPI JUMPDEST POP PUSH1 0x20 SWAP1 PUSH1 0x1F DUP4 GT PUSH1 0x1 EQ PUSH2 0xE73 JUMPI PUSH1 0x0 SWAP3 PUSH2 0xE68 JUMPI JUMPDEST POP POP DUP2 PUSH1 0x1 SHL SWAP2 PUSH1 0x0 NOT SWAP1 PUSH1 0x3 SHL SHR NOT AND OR PUSH1 0x1 DUP3 ADD SSTORE JUMPDEST PUSH1 0x40 DUP3 ADD MLOAD PUSH1 0x2 DUP3 ADD SSTORE PUSH1 0x5 PUSH1 0xA0 PUSH1 0x3 DUP4 ADD SWAP4 PUSH1 0x60 DUP2 ADD MLOAD ISZERO ISZERO SWAP5 PUSH1 0xFF NOT SWAP6 PUSH1 0xFF DUP8 DUP4 SLOAD AND SWAP2 AND OR SWAP1 SSTORE PUSH1 0x80 DUP2 ADD MLOAD PUSH1 0x4 DUP6 ADD SSTORE ADD MLOAD SWAP2 ADD SSTORE PUSH1 0x6 DUP3 ADD SLOAD PUSH1 0xFF DUP2 AND PUSH1 0x7 DUP2 LT ISZERO PUSH2 0xA7A JUMPI ISZERO PUSH2 0xE55 JUMPI JUMPDEST POP POP POP PUSH32 0xA3DCF7CEBCC4CF0937F4F95D95392671977BA143B4FF236240650322A106E8DC PUSH1 0x40 MLOAD PUSH1 0x20 DUP2 MSTORE DUP1 PUSH2 0xE50 CALLER SWAP6 PUSH1 0x4 CALLDATALOAD SWAP6 PUSH1 0x20 DUP5 ADD SWAP2 PUSH2 0x26AC JUMP JUMPDEST SUB SWAP1 LOG3 STOP JUMPDEST PUSH1 0x6 SWAP2 PUSH1 0x2 SWAP2 AND OR SWAP2 ADD SSTORE DUP3 DUP1 DUP1 PUSH2 0xE11 JUMP JUMPDEST ADD MLOAD SWAP1 POP DUP8 DUP1 PUSH2 0xDA8 JUMP JUMPDEST SWAP3 POP PUSH1 0x1 DUP5 ADD PUSH1 0x0 MSTORE PUSH1 0x20 PUSH1 0x0 KECCAK256 SWAP1 PUSH1 0x0 SWAP4 JUMPDEST PUSH1 0x1F NOT DUP5 AND DUP6 LT PUSH2 0xECA JUMPI PUSH1 0x1 SWAP5 POP DUP4 PUSH1 0x1F NOT DUP2 AND LT PUSH2 0xEB1 JUMPI JUMPDEST POP POP POP DUP2 SHL ADD PUSH1 0x1 DUP3 ADD SSTORE PUSH2 0xDC0 JUMP JUMPDEST ADD MLOAD PUSH1 0x0 NOT PUSH1 0xF8 DUP5 PUSH1 0x3 SHL AND SHR NOT AND SWAP1 SSTORE DUP8 DUP1 DUP1 PUSH2 0xEA1 JUMP JUMPDEST DUP2 DUP2 ADD MLOAD DUP4 SSTORE PUSH1 0x20 SWAP5 DUP6 ADD SWAP5 PUSH1 0x1 SWAP1 SWAP4 ADD SWAP3 SWAP1 SWAP2 ADD SWAP1 PUSH2 0xE86 JUMP JUMPDEST SWAP1 SWAP2 POP PUSH1 0x1 DUP5 ADD PUSH1 0x0 MSTORE PUSH1 0x20 PUSH1 0x0 KECCAK256 PUSH1 0x1F DUP5 ADD PUSH1 0x5 SHR DUP2 ADD PUSH1 0x20 DUP6 LT PUSH2 0xF31 JUMPI JUMPDEST SWAP1 DUP5 SWAP4 SWAP3 SWAP2 JUMPDEST PUSH1 0x1F DUP4 ADD PUSH1 0x5 SHR DUP3 ADD DUP2 LT PUSH2 0xF22 JUMPI POP POP PUSH2 0xD91 JUMP JUMPDEST PUSH1 0x0 DUP2 SSTORE DUP6 SWAP5 POP PUSH1 0x1 ADD PUSH2 0xF0C JUMP JUMPDEST POP DUP1 PUSH2 0xF06 JUMP JUMPDEST PUSH4 0x4E487B71 PUSH1 0xE0 SHL PUSH1 0x0 MSTORE PUSH1 0x0 PUSH1 0x4 MSTORE PUSH1 0x24 PUSH1 0x0 REVERT JUMPDEST PUSH1 0x40 MLOAD PUSH3 0x461BCD PUSH1 0xE5 SHL DUP2 MSTORE PUSH1 0x20 PUSH1 0x4 DUP3 ADD MSTORE PUSH1 0x11 PUSH1 0x24 DUP3 ADD MSTORE PUSH17 0x8ADAE0E8F240E4CAE6EAD8E840D0C2E6D PUSH1 0x7B SHL PUSH1 0x44 DUP3 ADD MSTORE PUSH1 0x64 SWAP1 REVERT JUMPDEST PUSH1 0x40 MLOAD PUSH3 0x461BCD PUSH1 0xE5 SHL DUP2 MSTORE PUSH1 0x20 PUSH1 0x4 DUP3 ADD MSTORE PUSH1 0x1A PUSH1 0x24 DUP3 ADD MSTORE PUSH32 0x43616E6E6F74207375626D697420746F2074686973207461736B000000000000 PUSH1 0x44 DUP3 ADD MSTORE PUSH1 0x64 SWAP1 REVERT JUMPDEST PUSH1 0x1 SWAP2 POP EQ DUP6 PUSH2 0xCC5 JUMP JUMPDEST CALLVALUE PUSH2 0x1FD JUMPI PUSH1 0x20 DUP1 PUSH1 0x3 NOT CALLDATASIZE ADD SLT PUSH2 0x1FD JUMPI PUSH1 0x4 CALLDATALOAD PUSH2 0xFF4 PUSH2 0x27E6 JUMP JUMPDEST DUP1 PUSH1 0x0 MSTORE PUSH1 0xA DUP3 MSTORE PUSH2 0x100C DUP2 PUSH1 0x40 PUSH1 0x0 KECCAK256 SLOAD EQ PUSH2 0x2723 JUMP JUMPDEST DUP1 PUSH1 0x0 MSTORE PUSH1 0xA DUP3 MSTORE PUSH1 0x40 PUSH1 0x0 KECCAK256 SWAP1 PUSH1 0x6 DUP3 ADD SWAP1 DUP2 SLOAD SWAP1 PUSH1 0xFF DUP3 AND PUSH1 0x7 DUP2 LT ISZERO PUSH2 0xA7A JUMPI PUSH1 0x2 SUB PUSH2 0x1137 JUMPI PUSH1 0x7 DUP5 ADD SLOAD PUSH1 0x1 PUSH1 0x1 PUSH1 0xA0 SHL SUB SWAP1 DUP2 AND SWAP4 SWAP1 SWAP3 SWAP1 DUP5 ISZERO PUSH2 0x10FB JUMPI PUSH1 0x40 PUSH2 0x10F4 SWAP8 DUP7 SWAP5 SWAP4 PUSH2 0x10C5 PUSH32 0xEFEF8593EC020B84769DDB5CF4469ACCBBD22D882A354BEE97694405126CA694 SWAP5 DUP9 PUSH1 0x1 DUP13 ADD SLOAD AND PUSH1 0x3 DUP13 ADD SLOAD SWAP12 PUSH1 0x4 DUP2 ADD SLOAD SWAP3 PUSH1 0x3 PUSH1 0x8 DUP4 ADD SLOAD SWAP7 PUSH1 0xFF NOT AND OR SWAP1 SSTORE PUSH1 0xA TIMESTAMP SWAP2 ADD SSTORE PUSH1 0x0 MSTORE PUSH1 0xE DUP5 MSTORE DUP5 PUSH1 0x0 KECCAK256 PUSH2 0x10BB DUP2 SLOAD PUSH2 0x27D9 JUMP JUMPDEST SWAP1 SSTORE PUSH1 0x10 SLOAD PUSH2 0x263D JUMP JUMPDEST PUSH1 0x10 SSTORE DUP6 PUSH1 0x0 MSTORE PUSH1 0xF DUP3 MSTORE DUP3 PUSH1 0x0 KECCAK256 PUSH2 0x10DF DUP11 DUP3 SLOAD PUSH2 0x263D JUMP JUMPDEST SWAP1 SSTORE DUP3 MLOAD SWAP2 DUP10 DUP4 MSTORE DUP3 ADD MSTORE LOG3 PUSH1 0x2 SLOAD AND PUSH2 0x28DB JUMP JUMPDEST PUSH1 0x1 PUSH1 0x0 SSTORE STOP JUMPDEST PUSH1 0x40 MLOAD PUSH3 0x461BCD PUSH1 0xE5 SHL DUP2 MSTORE PUSH1 0x4 DUP2 ADD DUP9 SWAP1 MSTORE PUSH1 0x14 PUSH1 0x24 DUP3 ADD MSTORE PUSH20 0x4E6F2076616C6964207375626D697373696F6E73 PUSH1 0x60 SHL PUSH1 0x44 DUP3 ADD MSTORE PUSH1 0x64 SWAP1 REVERT JUMPDEST PUSH1 0x40 MLOAD PUSH3 0x461BCD PUSH1 0xE5 SHL DUP2 MSTORE PUSH1 0x4 DUP2 ADD DUP7 SWAP1 MSTORE PUSH1 0x1F PUSH1 0x24 DUP3 ADD MSTORE PUSH32 0x5461736B206E6F7420726561647920666F722066696E616C697A6174696F6E00 PUSH1 0x44 DUP3 ADD MSTORE PUSH1 0x64 SWAP1 REVERT JUMPDEST CALLVALUE PUSH2 0x1FD JUMPI PUSH1 0x0 CALLDATASIZE PUSH1 0x3 NOT ADD SLT PUSH2 0x1FD JUMPI PUSH2 0x1195 PUSH2 0x2883 JUMP JUMPDEST PUSH2 0x119D PUSH2 0x283C JUMP JUMPDEST PUSH1 0x1 DUP1 SLOAD PUSH1 0xFF PUSH1 0xA0 SHL NOT AND PUSH1 0x1 PUSH1 0xA0 SHL OR SWAP1 SSTORE PUSH1 0x40 MLOAD CALLER DUP2 MSTORE PUSH32 0x62E78CEA01BEE320CD4E420270B5EA74000D11B0C9F74754EBDBFC544B05A258 SWAP1 PUSH1 0x20 SWAP1 LOG1 STOP JUMPDEST CALLVALUE PUSH2 0x1FD JUMPI PUSH1 0x20 DUP1 PUSH1 0x3 NOT CALLDATASIZE ADD SLT PUSH2 0x1FD JUMPI PUSH1 0x4 CALLDATALOAD PUSH2 0x11FB PUSH2 0x27E6 JUMP JUMPDEST DUP1 PUSH1 0x0 MSTORE PUSH1 0xA DUP3 MSTORE PUSH2 0x1213 DUP2 PUSH1 0x40 PUSH1 0x0 KECCAK256 SLOAD EQ PUSH2 0x2723 JUMP JUMPDEST PUSH1 0x0 DUP2 DUP2 MSTORE PUSH1 0xA DUP4 MSTORE PUSH1 0x40 SWAP1 KECCAK256 PUSH1 0x1 DUP2 ADD SLOAD SWAP1 SWAP3 PUSH1 0x1 PUSH1 0x1 PUSH1 0xA0 SHL SUB SWAP2 DUP3 AND CALLER SUB PUSH2 0x1305 JUMPI PUSH1 0x6 DUP5 ADD SWAP3 DUP4 SLOAD SWAP4 PUSH1 0xFF DUP6 AND PUSH1 0x7 DUP2 LT ISZERO PUSH2 0xA7A JUMPI PUSH2 0x12C0 JUMPI PUSH1 0x4 PUSH2 0x1269 DUP8 DUP3 PUSH1 0x3 PUSH2 0x10F4 SWAP11 ADD SLOAD SWAP2 ADD SLOAD SWAP1 PUSH2 0x263D JUMP JUMPDEST SWAP6 PUSH1 0xFF NOT AND OR SWAP1 SSTORE CALLER PUSH1 0x0 MSTORE PUSH1 0xE DUP3 MSTORE PUSH1 0x40 PUSH1 0x0 KECCAK256 PUSH2 0x1288 DUP2 SLOAD PUSH2 0x27D9 JUMP JUMPDEST SWAP1 SSTORE PUSH32 0x6F63D695245E4CF8F0B7AAE0B8DA95876A4B173BA8D0D4466CC83C357DDA3A8 PUSH1 0x40 MLOAD SWAP3 DUP6 DUP5 MSTORE CALLER SWAP4 LOG3 CALLER SWAP1 PUSH1 0x2 SLOAD AND PUSH2 0x28DB JUMP JUMPDEST PUSH1 0x40 MLOAD PUSH3 0x461BCD PUSH1 0xE5 SHL DUP2 MSTORE PUSH1 0x4 DUP2 ADD DUP5 SWAP1 MSTORE PUSH1 0x17 PUSH1 0x24 DUP3 ADD MSTORE PUSH32 0x43616E6E6F742063616E63656C2074686973207461736B000000000000000000 PUSH1 0x44 DUP3 ADD MSTORE PUSH1 0x64 SWAP1 REVERT JUMPDEST PUSH1 0x64 SWAP1 PUSH1 0x40 MLOAD SWAP1 PUSH3 0x461BCD PUSH1 0xE5 SHL DUP3 MSTORE PUSH1 0x4 DUP3 ADD MSTORE PUSH1 0xE PUSH1 0x24 DUP3 ADD MSTORE PUSH14 0x2737BA103A30B9B59037BBB732B9 PUSH1 0x91 SHL PUSH1 0x44 DUP3 ADD MSTORE REVERT JUMPDEST CALLVALUE PUSH2 0x1FD JUMPI PUSH2 0x1348 CALLDATASIZE PUSH2 0x2470 JUMP JUMPDEST SWAP2 PUSH1 0x0 MSTORE PUSH1 0xD PUSH1 0x20 MSTORE PUSH1 0x40 PUSH1 0x0 KECCAK256 SWAP1 PUSH1 0x0 MSTORE PUSH1 0x20 MSTORE PUSH1 0x40 PUSH1 0x0 KECCAK256 SWAP1 PUSH1 0x1 DUP1 PUSH1 0xA0 SHL SUB AND PUSH1 0x0 MSTORE PUSH1 0x20 MSTORE PUSH1 0x20 PUSH1 0xFF PUSH1 0x40 PUSH1 0x0 KECCAK256 SLOAD AND PUSH1 0x40 MLOAD SWAP1 ISZERO ISZERO DUP2 MSTORE RETURN JUMPDEST CALLVALUE PUSH2 0x1FD JUMPI PUSH1 0x20 CALLDATASIZE PUSH1 0x3 NOT ADD SLT PUSH2 0x1FD JUMPI PUSH1 0x4 CALLDATALOAD PUSH1 0x0 MSTORE PUSH1 0xB PUSH1 0x20 MSTORE PUSH1 0x20 PUSH1 0x40 PUSH1 0x0 KECCAK256 SLOAD PUSH1 0x40 MLOAD SWAP1 DUP2 MSTORE RETURN JUMPDEST CALLVALUE PUSH2 0x1FD JUMPI PUSH1 0x0 CALLDATASIZE PUSH1 0x3 NOT ADD SLT PUSH2 0x1FD JUMPI PUSH2 0x13CB PUSH2 0x2883 JUMP JUMPDEST PUSH1 0x1 DUP1 SLOAD PUSH1 0x1 PUSH1 0x1 PUSH1 0xA0 SHL SUB NOT DUP2 AND SWAP1 SWAP2 SSTORE PUSH1 0x0 SWAP1 PUSH1 0x1 PUSH1 0x1 PUSH1 0xA0 SHL SUB AND PUSH32 0x8BE0079C531659141344CD1FD0A4F28419497F9722A3DAAFE3B4186F6B6457E0 DUP3 DUP1 LOG3 STOP JUMPDEST CALLVALUE PUSH2 0x1FD JUMPI PUSH1 0x0 CALLDATASIZE PUSH1 0x3 NOT ADD SLT PUSH2 0x1FD JUMPI PUSH1 0x20 PUSH1 0x9 SLOAD PUSH1 0x40 MLOAD SWAP1 DUP2 MSTORE RETURN JUMPDEST CALLVALUE PUSH2 0x1FD JUMPI PUSH1 0x20 DUP1 PUSH1 0x3 NOT CALLDATASIZE ADD SLT PUSH2 0x1FD JUMPI PUSH1 0x4 CALLDATALOAD DUP1 PUSH1 0x0 MSTORE PUSH1 0xA DUP3 MSTORE PUSH2 0x145A DUP2 PUSH1 0x40 PUSH1 0x0 KECCAK256 SLOAD EQ PUSH2 0x2723 JUMP JUMPDEST DUP1 PUSH1 0x0 MSTORE PUSH1 0xA DUP3 MSTORE PUSH1 0x40 PUSH1 0x0 KECCAK256 PUSH1 0x6 DUP2 ADD DUP1 SLOAD SWAP3 PUSH1 0xFF DUP5 AND PUSH1 0x7 DUP2 LT ISZERO PUSH2 0xA7A JUMPI DUP1 ISZERO SWAP1 DUP2 ISZERO PUSH2 0x1590 JUMPI JUMPDEST POP ISZERO PUSH2 0x154B JUMPI PUSH1 0x5 DUP4 ADD SLOAD TIMESTAMP LT PUSH2 0x150F JUMPI PUSH1 0xE PUSH2 0x150D SWAP6 PUSH1 0x1 DUP1 PUSH1 0xA0 SHL SUB SWAP4 PUSH1 0x5 PUSH2 0x14C1 DUP7 PUSH1 0x1 DUP10 ADD SLOAD AND SWAP8 PUSH1 0x4 PUSH1 0x3 DUP3 ADD SLOAD SWAP2 ADD SLOAD SWAP1 PUSH2 0x263D JUMP JUMPDEST SWAP8 PUSH1 0xFF NOT AND OR SWAP1 SSTORE DUP5 PUSH1 0x0 MSTORE MSTORE PUSH1 0x40 PUSH1 0x0 KECCAK256 PUSH2 0x14DD DUP2 SLOAD PUSH2 0x27D9 JUMP JUMPDEST SWAP1 SSTORE PUSH32 0x7C2ECD5E2B7188AC57F3A370681639CB447C9CBFBBBACE0C070ADEA6C73EAA54 PUSH1 0x0 DUP1 LOG2 PUSH1 0x2 SLOAD AND PUSH2 0x28DB JUMP JUMPDEST STOP JUMPDEST PUSH1 0x40 MLOAD PUSH3 0x461BCD PUSH1 0xE5 SHL DUP2 MSTORE PUSH1 0x4 DUP2 ADD DUP7 SWAP1 MSTORE PUSH1 0x14 PUSH1 0x24 DUP3 ADD MSTORE PUSH20 0x15185CDAC81B9BDD08195E1C1A5C9959081E595D PUSH1 0x62 SHL PUSH1 0x44 DUP3 ADD MSTORE PUSH1 0x64 SWAP1 REVERT JUMPDEST PUSH1 0x40 MLOAD PUSH3 0x461BCD PUSH1 0xE5 SHL DUP2 MSTORE PUSH1 0x4 DUP2 ADD DUP7 SWAP1 MSTORE PUSH1 0x17 PUSH1 0x24 DUP3 ADD MSTORE PUSH32 0x43616E6E6F74206578706972652074686973207461736B000000000000000000 PUSH1 0x44 DUP3 ADD MSTORE PUSH1 0x64 SWAP1 REVERT JUMPDEST PUSH1 0x1 SWAP2 POP EQ DUP7 PUSH2 0x1485 JUMP JUMPDEST CALLVALUE PUSH2 0x1FD JUMPI PUSH1 0x0 CALLDATASIZE PUSH1 0x3 NOT ADD SLT PUSH2 0x1FD JUMPI PUSH1 0x20 PUSH1 0xFF PUSH1 0x1 SLOAD PUSH1 0xA0 SHR AND PUSH1 0x40 MLOAD SWAP1 ISZERO ISZERO DUP2 MSTORE RETURN JUMPDEST CALLVALUE PUSH2 0x1FD JUMPI PUSH1 0x40 CALLDATASIZE PUSH1 0x3 NOT ADD SLT PUSH2 0x1FD JUMPI PUSH1 0x24 CALLDATALOAD PUSH1 0x4 CALLDATALOAD PUSH1 0x0 MSTORE PUSH1 0xB PUSH1 0x20 MSTORE PUSH1 0x40 PUSH1 0x0 KECCAK256 SWAP1 DUP2 SLOAD DUP2 LT ISZERO PUSH2 0x1FD JUMPI PUSH2 0x15F8 SWAP2 PUSH2 0x24E7 JUMP JUMPDEST POP DUP1 SLOAD PUSH1 0x1 PUSH1 0x1 PUSH1 0xA0 SHL SUB AND PUSH2 0x1610 PUSH1 0x1 DUP4 ADD PUSH2 0x2598 JUMP JUMPDEST SWAP2 PUSH1 0x2 DUP2 ADD SLOAD SWAP1 PUSH1 0xFF PUSH1 0x3 DUP3 ADD SLOAD AND SWAP1 PUSH1 0x5 PUSH1 0x4 DUP3 ADD SLOAD SWAP2 ADD SLOAD SWAP2 PUSH2 0x1647 PUSH1 0x40 MLOAD SWAP7 DUP8 SWAP7 DUP8 MSTORE PUSH1 0xC0 PUSH1 0x20 DUP9 ADD MSTORE PUSH1 0xC0 DUP8 ADD SWAP1 PUSH2 0x249A JUMP JUMPDEST SWAP4 PUSH1 0x40 DUP7 ADD MSTORE ISZERO ISZERO PUSH1 0x60 DUP6 ADD MSTORE PUSH1 0x80 DUP5 ADD MSTORE PUSH1 0xA0 DUP4 ADD MSTORE SUB SWAP1 RETURN JUMPDEST CALLVALUE PUSH2 0x1FD JUMPI PUSH1 0x20 CALLDATASIZE PUSH1 0x3 NOT ADD SLT PUSH2 0x1FD JUMPI PUSH2 0x167B PUSH2 0x245A JUMP JUMPDEST PUSH2 0x1683 PUSH2 0x2883 JUMP JUMPDEST PUSH1 0x1 PUSH1 0x1 PUSH1 0xA0 SHL SUB AND PUSH2 0x1697 DUP2 ISZERO ISZERO PUSH2 0x26CD JUMP JUMPDEST DUP1 PUSH1 0x0 MSTORE PUSH1 0x7 PUSH1 0x20 MSTORE PUSH1 0xFF PUSH1 0x40 PUSH1 0x0 KECCAK256 SLOAD AND PUSH2 0x16FB JUMPI DUP1 PUSH1 0x0 MSTORE PUSH1 0x7 PUSH1 0x20 MSTORE PUSH1 0x40 PUSH1 0x0 KECCAK256 PUSH1 0x1 PUSH1 0xFF NOT DUP3 SLOAD AND OR SWAP1 SSTORE PUSH2 0x16D1 PUSH1 0x8 SLOAD PUSH2 0x264A JUMP JUMPDEST PUSH1 0x8 SSTORE PUSH32 0xE366C1C0452ED8EEC96861E9E54141EBFF23C9EC89FE27B996B45F5EC3884987 PUSH1 0x0 DUP1 LOG2 STOP JUMPDEST PUSH1 0x40 MLOAD PUSH3 0x461BCD PUSH1 0xE5 SHL DUP2 MSTORE PUSH1 0x20 PUSH1 0x4 DUP3 ADD MSTORE PUSH1 0x11 PUSH1 0x24 DUP3 ADD MSTORE PUSH17 0x20B63932B0B23C903B30B634B230BA37B9 PUSH1 0x79 SHL PUSH1 0x44 DUP3 ADD MSTORE PUSH1 0x64 SWAP1 REVERT JUMPDEST CALLVALUE PUSH2 0x1FD JUMPI PUSH1 0x20 CALLDATASIZE PUSH1 0x3 NOT ADD SLT PUSH2 0x1FD JUMPI PUSH2 0x174D PUSH2 0x245A JUMP JUMPDEST PUSH2 0x1755 PUSH2 0x2883 JUMP JUMPDEST PUSH1 0x1 PUSH1 0x1 PUSH1 0xA0 SHL SUB AND PUSH1 0x0 DUP2 DUP2 MSTORE PUSH1 0x7 PUSH1 0x20 MSTORE PUSH1 0x40 SWAP1 KECCAK256 SLOAD PUSH2 0x1779 SWAP1 PUSH1 0xFF AND PUSH2 0x279B JUMP JUMPDEST DUP1 PUSH1 0x0 MSTORE PUSH1 0x7 PUSH1 0x20 MSTORE PUSH1 0x40 PUSH1 0x0 KECCAK256 PUSH1 0xFF NOT DUP2 SLOAD AND SWAP1 SSTORE PUSH2 0x179A PUSH1 0x8 SLOAD PUSH2 0x27D9 JUMP JUMPDEST PUSH1 0x8 SSTORE PUSH32 0xE1434E25D6611E0DB941968FDC97811C982AC1602E951637D206F5FDDA9DD8F1 PUSH1 0x0 DUP1 LOG2 STOP JUMPDEST CALLVALUE PUSH2 0x1FD JUMPI PUSH1 0x0 CALLDATASIZE PUSH1 0x3 NOT ADD SLT PUSH2 0x1FD JUMPI PUSH2 0x17DD PUSH2 0x2883 JUMP JUMPDEST PUSH1 0x1 SLOAD PUSH1 0xFF DUP2 PUSH1 0xA0 SHR AND ISZERO PUSH2 0x1824 JUMPI PUSH1 0xFF PUSH1 0xA0 SHL NOT AND PUSH1 0x1 SSTORE PUSH1 0x40 MLOAD CALLER DUP2 MSTORE PUSH32 0x5DB9EE0A495BF2E6FF9C91A7834C1BA4FDD244A5E8AA4E537BD38AEAE4B073AA SWAP1 PUSH1 0x20 SWAP1 LOG1 STOP JUMPDEST PUSH1 0x40 MLOAD PUSH3 0x461BCD PUSH1 0xE5 SHL DUP2 MSTORE PUSH1 0x20 PUSH1 0x4 DUP3 ADD MSTORE PUSH1 0x14 PUSH1 0x24 DUP3 ADD MSTORE PUSH20 0x14185D5CD8589B194E881B9BDD081C185D5CD959 PUSH1 0x62 SHL PUSH1 0x44 DUP3 ADD MSTORE PUSH1 0x64 SWAP1 REVERT JUMPDEST CALLVALUE PUSH2 0x1FD JUMPI PUSH1 0x20 CALLDATASIZE PUSH1 0x3 NOT ADD SLT PUSH2 0x1FD JUMPI PUSH1 0x4 CALLDATALOAD PUSH2 0x187C PUSH2 0x2883 JUMP JUMPDEST PUSH1 0x1 DUP2 LT PUSH2 0x1920 JUMPI PUSH1 0x8 SLOAD DUP1 DUP3 GT SWAP1 DUP2 ISZERO SWAP2 PUSH2 0x1917 JUMPI JUMPDEST POP ISZERO PUSH2 0x18D2 JUMPI PUSH1 0x40 PUSH32 0xB6DB129B84DBDEF2D15FBB03E44FE1050995A5B1F855B6FAF62B419185E53DC8 SWAP2 PUSH1 0x9 SLOAD SWAP1 DUP1 PUSH1 0x9 SSTORE DUP3 MLOAD SWAP2 DUP3 MSTORE PUSH1 0x20 DUP3 ADD MSTORE LOG1 STOP JUMPDEST PUSH1 0x40 MLOAD PUSH3 0x461BCD PUSH1 0xE5 SHL DUP2 MSTORE PUSH1 0x20 PUSH1 0x4 DUP3 ADD MSTORE PUSH1 0x1D PUSH1 0x24 DUP3 ADD MSTORE PUSH32 0x43616E6E6F74206578636565642076616C696461746F7220636F756E74000000 PUSH1 0x44 DUP3 ADD MSTORE PUSH1 0x64 SWAP1 REVERT JUMPDEST SWAP1 POP ISZERO DUP3 PUSH2 0x1893 JUMP JUMPDEST PUSH1 0x40 MLOAD PUSH3 0x461BCD PUSH1 0xE5 SHL DUP2 MSTORE PUSH1 0x20 PUSH1 0x4 DUP3 ADD MSTORE PUSH1 0x1C PUSH1 0x24 DUP3 ADD MSTORE PUSH32 0x4D696E2076616C69646174696F6E73206D757374206265203E3D203100000000 PUSH1 0x44 DUP3 ADD MSTORE PUSH1 0x64 SWAP1 REVERT JUMPDEST CALLVALUE PUSH2 0x1FD JUMPI PUSH1 0x20 CALLDATASIZE PUSH1 0x3 NOT ADD SLT PUSH2 0x1FD JUMPI PUSH1 0x1 PUSH1 0x1 PUSH1 0xA0 SHL SUB PUSH2 0x1986 PUSH2 0x245A JUMP JUMPDEST AND PUSH1 0x0 MSTORE PUSH1 0xE PUSH1 0x20 MSTORE PUSH1 0x20 PUSH1 0x40 PUSH1 0x0 KECCAK256 SLOAD PUSH1 0x40 MLOAD SWAP1 DUP2 MSTORE RETURN JUMPDEST CALLVALUE PUSH2 0x1FD JUMPI PUSH1 0x20 CALLDATASIZE PUSH1 0x3 NOT ADD SLT PUSH2 0x1FD JUMPI PUSH1 0x0 PUSH2 0x160 PUSH1 0x40 MLOAD PUSH2 0x19C1 DUP2 PUSH2 0x253D JUMP JUMPDEST DUP3 DUP2 MSTORE DUP3 PUSH1 0x20 DUP3 ADD MSTORE PUSH1 0x60 PUSH1 0x40 DUP3 ADD MSTORE DUP3 PUSH1 0x60 DUP3 ADD MSTORE DUP3 PUSH1 0x80 DUP3 ADD MSTORE DUP3 PUSH1 0xA0 DUP3 ADD MSTORE DUP3 PUSH1 0xC0 DUP3 ADD MSTORE DUP3 PUSH1 0xE0 DUP3 ADD MSTORE DUP3 PUSH2 0x100 DUP3 ADD MSTORE DUP3 PUSH2 0x120 DUP3 ADD MSTORE DUP3 PUSH2 0x140 DUP3 ADD MSTORE ADD MSTORE PUSH1 0x4 CALLDATALOAD PUSH1 0x0 MSTORE PUSH1 0xA PUSH1 0x20 MSTORE PUSH1 0x40 PUSH1 0x0 KECCAK256 PUSH1 0x40 MLOAD SWAP1 PUSH2 0x1A23 DUP3 PUSH2 0x253D JUMP JUMPDEST DUP1 SLOAD DUP3 MSTORE PUSH1 0x1 DUP2 ADD SLOAD PUSH1 0x1 PUSH1 0x1 PUSH1 0xA0 SHL SUB AND PUSH1 0x20 DUP4 ADD MSTORE PUSH2 0x1A46 PUSH1 0x2 DUP3 ADD PUSH2 0x2598 JUMP JUMPDEST PUSH1 0x40 DUP4 ADD MSTORE PUSH1 0x3 DUP2 ADD SLOAD PUSH1 0x60 DUP4 ADD MSTORE PUSH1 0x4 DUP2 ADD SLOAD PUSH1 0x80 DUP4 ADD MSTORE PUSH1 0x5 DUP2 ADD SLOAD PUSH1 0xA0 DUP4 ADD MSTORE PUSH1 0x6 DUP2 ADD SLOAD SWAP1 PUSH1 0xFF DUP3 AND SWAP2 PUSH1 0x7 DUP4 LT ISZERO PUSH2 0xA7A JUMPI PUSH1 0xA SWAP3 PUSH1 0xC0 DUP6 ADD MSTORE PUSH1 0x1 DUP1 PUSH1 0xA0 SHL SUB SWAP1 PUSH1 0x8 SHR AND PUSH1 0xE0 DUP5 ADD MSTORE PUSH1 0x1 DUP1 PUSH1 0xA0 SHL SUB PUSH1 0x7 DUP3 ADD SLOAD AND PUSH2 0x100 DUP5 ADD MSTORE PUSH1 0x8 DUP2 ADD SLOAD PUSH2 0x120 DUP5 ADD MSTORE PUSH1 0x9 DUP2 ADD SLOAD PUSH2 0x140 DUP5 ADD MSTORE ADD SLOAD PUSH2 0x160 DUP3 ADD MSTORE PUSH1 0x40 MLOAD DUP1 SWAP2 PUSH1 0x20 DUP3 MSTORE DUP1 MLOAD PUSH1 0x20 DUP4 ADD MSTORE PUSH1 0x1 DUP1 PUSH1 0xA0 SHL SUB PUSH1 0x20 DUP3 ADD MLOAD AND PUSH1 0x40 DUP4 ADD MSTORE PUSH2 0x160 PUSH2 0x1B07 PUSH1 0x40 DUP4 ADD MLOAD PUSH2 0x180 PUSH1 0x60 DUP7 ADD MSTORE PUSH2 0x1A0 DUP6 ADD SWAP1 PUSH2 0x249A JUMP JUMPDEST SWAP2 PUSH1 0x60 DUP2 ADD MLOAD PUSH1 0x80 DUP6 ADD MSTORE PUSH1 0x80 DUP2 ADD MLOAD PUSH1 0xA0 DUP6 ADD MSTORE PUSH1 0xA0 DUP2 ADD MLOAD PUSH1 0xC0 DUP6 ADD MSTORE PUSH2 0x1B38 PUSH1 0xC0 DUP3 ADD MLOAD PUSH1 0xE0 DUP7 ADD SWAP1 PUSH2 0x24DA JUMP JUMPDEST PUSH1 0x1 DUP1 PUSH1 0xA0 SHL SUB PUSH1 0xE0 DUP3 ADD MLOAD AND PUSH2 0x100 DUP6 ADD MSTORE PUSH1 0x1 DUP1 PUSH1 0xA0 SHL SUB PUSH2 0x100 DUP3 ADD MLOAD AND PUSH2 0x120 DUP6 ADD MSTORE PUSH2 0x120 DUP2 ADD MLOAD PUSH2 0x140 DUP6 ADD MSTORE PUSH2 0x140 DUP2 ADD MLOAD DUP3 DUP6 ADD MSTORE ADD MLOAD PUSH2 0x180 DUP4 ADD MSTORE SUB SWAP1 RETURN JUMPDEST CALLVALUE PUSH2 0x1FD JUMPI PUSH1 0x20 CALLDATASIZE PUSH1 0x3 NOT ADD SLT PUSH2 0x1FD JUMPI PUSH1 0x4 CALLDATALOAD DUP1 PUSH1 0x0 MSTORE PUSH1 0xA PUSH1 0x20 MSTORE PUSH2 0x1BAE DUP2 PUSH1 0x40 PUSH1 0x0 KECCAK256 SLOAD EQ PUSH2 0x2723 JUMP JUMPDEST PUSH2 0x1BB6 PUSH2 0x283C JUMP JUMPDEST DUP1 PUSH1 0x0 MSTORE PUSH1 0xA PUSH1 0x20 MSTORE PUSH1 0x40 PUSH1 0x0 KECCAK256 PUSH1 0x6 DUP2 ADD SWAP1 DUP2 SLOAD SWAP1 PUSH1 0xFF DUP3 AND PUSH1 0x7 DUP2 LT ISZERO PUSH2 0xA7A JUMPI PUSH2 0x1C86 JUMPI PUSH1 0x5 PUSH2 0x1BEC SWAP2 ADD SLOAD TIMESTAMP LT PUSH2 0x2760 JUMP JUMPDEST PUSH1 0x8 SHR PUSH1 0x1 PUSH1 0x1 PUSH1 0xA0 SHL SUB AND PUSH2 0x1C4E JUMPI DUP1 SLOAD PUSH2 0x100 PUSH1 0x1 PUSH1 0xA8 SHL SUB NOT AND CALLER PUSH1 0x8 SHL PUSH2 0x100 PUSH1 0x1 PUSH1 0xA8 SHL SUB AND OR DUP2 SSTORE DUP1 SLOAD PUSH1 0xFF NOT AND PUSH1 0x1 OR SWAP1 SSTORE CALLER SWAP1 PUSH32 0xC8717B61398FB9D7CACF49FE1E296B2F10E9711226B532842B6FFD642CB6A2C6 PUSH1 0x0 DUP1 LOG3 STOP JUMPDEST PUSH1 0x40 MLOAD PUSH3 0x461BCD PUSH1 0xE5 SHL DUP2 MSTORE PUSH1 0x20 PUSH1 0x4 DUP3 ADD MSTORE PUSH1 0x10 PUSH1 0x24 DUP3 ADD MSTORE PUSH16 0x105B1C9958591E48185CDCDA59DB9959 PUSH1 0x82 SHL PUSH1 0x44 DUP3 ADD MSTORE PUSH1 0x64 SWAP1 REVERT JUMPDEST PUSH1 0x40 MLOAD PUSH3 0x461BCD PUSH1 0xE5 SHL DUP2 MSTORE PUSH1 0x20 PUSH1 0x4 DUP3 ADD MSTORE PUSH1 0x12 PUSH1 0x24 DUP3 ADD MSTORE PUSH18 0x5461736B206E6F7420617661696C61626C65 PUSH1 0x70 SHL PUSH1 0x44 DUP3 ADD MSTORE PUSH1 0x64 SWAP1 REVERT JUMPDEST CALLVALUE PUSH2 0x1FD JUMPI PUSH1 0x20 DUP1 PUSH1 0x3 NOT CALLDATASIZE ADD SLT PUSH2 0x1FD JUMPI PUSH1 0x4 CALLDATALOAD PUSH1 0x0 MSTORE PUSH1 0xB DUP2 MSTORE PUSH1 0x40 PUSH1 0x0 KECCAK256 SWAP1 DUP2 SLOAD SWAP2 PUSH2 0x1CEE DUP4 PUSH2 0x270B JUMP JUMPDEST SWAP3 PUSH2 0x1CFC PUSH1 0x40 MLOAD SWAP5 DUP6 PUSH2 0x2576 JUMP JUMPDEST DUP1 DUP5 MSTORE DUP3 DUP5 ADD DUP1 SWAP3 PUSH1 0x0 MSTORE DUP4 PUSH1 0x0 KECCAK256 PUSH1 0x0 SWAP2 JUMPDEST DUP4 DUP4 LT PUSH2 0x1DBB JUMPI POP POP POP POP PUSH1 0x40 MLOAD SWAP2 DUP1 DUP4 ADD SWAP4 DUP2 DUP5 MSTORE MLOAD DUP1 SWAP5 MSTORE PUSH1 0x40 DUP4 ADD SWAP4 PUSH1 0x40 DUP2 PUSH1 0x5 SHL DUP6 ADD ADD SWAP3 SWAP2 PUSH1 0x0 SWAP6 JUMPDEST DUP3 DUP8 LT PUSH2 0x1D4A JUMPI DUP6 DUP6 SUB DUP7 RETURN JUMPDEST SWAP1 SWAP2 SWAP3 SWAP4 DUP3 DUP1 PUSH1 0x1 SWAP3 PUSH1 0x3F NOT DUP10 DUP3 SUB ADD DUP6 MSTORE DUP8 MLOAD SWAP1 PUSH2 0x1D81 PUSH1 0xC0 DUP7 DUP1 PUSH1 0xA0 SHL SUB DUP5 MLOAD AND DUP4 MSTORE DUP5 DUP5 ADD MLOAD SWAP1 DUP1 DUP7 DUP6 ADD MSTORE DUP4 ADD SWAP1 PUSH2 0x249A JUMP JUMPDEST SWAP2 PUSH1 0x40 DUP2 ADD MLOAD PUSH1 0x40 DUP4 ADD MSTORE PUSH1 0x60 DUP1 DUP3 ADD MLOAD ISZERO ISZERO SWAP1 DUP4 ADD MSTORE PUSH1 0x80 DUP1 DUP3 ADD MLOAD SWAP1 DUP4 ADD MSTORE PUSH1 0xA0 DUP1 SWAP2 ADD MLOAD SWAP2 ADD MSTORE SWAP7 ADD SWAP3 ADD SWAP7 ADD SWAP6 SWAP3 SWAP2 SWAP1 SWAP3 PUSH2 0x1D3D JUMP JUMPDEST PUSH1 0x6 DUP7 PUSH1 0x1 SWAP3 PUSH1 0x40 SWAP10 SWAP9 SWAP10 MLOAD PUSH2 0x1DD0 DUP2 PUSH2 0x255A JUMP JUMPDEST DUP5 DUP1 PUSH1 0xA0 SHL SUB DUP7 SLOAD AND DUP2 MSTORE PUSH2 0x1DE6 DUP6 DUP8 ADD PUSH2 0x2598 JUMP JUMPDEST DUP4 DUP3 ADD MSTORE PUSH1 0x2 DUP7 ADD SLOAD PUSH1 0x40 DUP3 ADD MSTORE PUSH1 0xFF PUSH1 0x3 DUP8 ADD SLOAD AND ISZERO ISZERO PUSH1 0x60 DUP3 ADD MSTORE PUSH1 0x4 DUP7 ADD SLOAD PUSH1 0x80 DUP3 ADD MSTORE PUSH1 0x5 DUP7 ADD SLOAD PUSH1 0xA0 DUP3 ADD MSTORE DUP2 MSTORE ADD SWAP3 ADD SWAP3 ADD SWAP2 SWAP1 SWAP6 SWAP5 SWAP6 PUSH2 0x1D0F JUMP JUMPDEST CALLVALUE PUSH2 0x1FD JUMPI PUSH1 0x20 CALLDATASIZE PUSH1 0x3 NOT ADD SLT PUSH2 0x1FD JUMPI PUSH2 0x1E41 PUSH2 0x245A JUMP JUMPDEST PUSH2 0x1E49 PUSH2 0x2883 JUMP JUMPDEST PUSH1 0x1 PUSH1 0x1 PUSH1 0xA0 SHL SUB DUP2 DUP2 AND SWAP2 PUSH2 0x1E60 DUP4 ISZERO ISZERO PUSH2 0x26CD JUMP JUMPDEST PUSH1 0x10 SLOAD SWAP2 DUP3 ISZERO PUSH2 0x1EA6 JUMPI PUSH2 0x150D SWAP4 PUSH1 0x0 PUSH1 0x10 SSTORE PUSH32 0xC0819C13BE868895EB93E40EACEB96DE976442FA1D404E5C55F14BB65A8C489A PUSH1 0x20 PUSH1 0x40 MLOAD DUP7 DUP2 MSTORE LOG2 PUSH1 0x2 SLOAD AND PUSH2 0x28DB JUMP JUMPDEST PUSH1 0x40 MLOAD PUSH3 0x461BCD PUSH1 0xE5 SHL DUP2 MSTORE PUSH1 0x20 PUSH1 0x4 DUP3 ADD MSTORE PUSH1 0x13 PUSH1 0x24 DUP3 ADD MSTORE PUSH19 0x4E6F206665657320746F207769746864726177 PUSH1 0x68 SHL PUSH1 0x44 DUP3 ADD MSTORE PUSH1 0x64 SWAP1 REVERT JUMPDEST CALLVALUE PUSH2 0x1FD JUMPI PUSH2 0x1EEF CALLDATASIZE PUSH2 0x2470 JUMP JUMPDEST SWAP2 PUSH1 0x0 MSTORE PUSH1 0xC PUSH1 0x20 MSTORE PUSH1 0x40 PUSH1 0x0 KECCAK256 SWAP1 PUSH1 0x0 MSTORE PUSH1 0x20 MSTORE PUSH1 0x40 PUSH1 0x0 KECCAK256 SWAP1 PUSH1 0x1 DUP1 PUSH1 0xA0 SHL SUB AND PUSH1 0x0 MSTORE PUSH1 0x20 MSTORE PUSH1 0x20 PUSH1 0x40 PUSH1 0x0 KECCAK256 SLOAD PUSH1 0x40 MLOAD SWAP1 DUP2 MSTORE RETURN JUMPDEST CALLVALUE PUSH2 0x1FD JUMPI PUSH1 0x0 CALLDATASIZE PUSH1 0x3 NOT ADD SLT PUSH2 0x1FD JUMPI PUSH1 0x20 PUSH1 0x8 SLOAD PUSH1 0x40 MLOAD SWAP1 DUP2 MSTORE RETURN JUMPDEST CALLVALUE PUSH2 0x1FD JUMPI PUSH1 0x20 CALLDATASIZE PUSH1 0x3 NOT ADD SLT PUSH2 0x1FD JUMPI PUSH1 0x1 PUSH1 0x1 PUSH1 0xA0 SHL SUB PUSH2 0x1F67 PUSH2 0x245A JUMP JUMPDEST AND PUSH1 0x0 MSTORE PUSH1 0xF PUSH1 0x20 MSTORE PUSH1 0x20 PUSH1 0x40 PUSH1 0x0 KECCAK256 SLOAD PUSH1 0x40 MLOAD SWAP1 DUP2 MSTORE RETURN JUMPDEST CALLVALUE PUSH2 0x1FD JUMPI PUSH1 0x60 CALLDATASIZE PUSH1 0x3 NOT ADD SLT PUSH2 0x1FD JUMPI PUSH1 0x4 CALLDATALOAD PUSH8 0xFFFFFFFFFFFFFFFF DUP2 GT PUSH2 0x1FD JUMPI PUSH2 0x1FB1 SWAP1 CALLDATASIZE SWAP1 PUSH1 0x4 ADD PUSH2 0x242C JUMP JUMPDEST PUSH2 0x1FB9 PUSH2 0x27E6 JUMP JUMPDEST PUSH2 0x1FC1 PUSH2 0x283C JUMP JUMPDEST DUP1 ISZERO PUSH2 0x23F5 JUMPI PUSH1 0x4 SLOAD PUSH1 0x24 CALLDATALOAD LT PUSH2 0x23BF JUMPI PUSH1 0x44 CALLDATALOAD ISZERO ISZERO DUP1 PUSH2 0x23B1 JUMPI JUMPDEST ISZERO PUSH2 0x2379 JUMPI PUSH1 0x3 SLOAD PUSH1 0x24 CALLDATALOAD DUP1 DUP3 MUL SWAP3 SWAP2 DUP2 ISZERO SWAP2 DUP5 DIV EQ OR ISZERO PUSH2 0x782 JUMPI PUSH2 0x2009 PUSH2 0x2710 DUP4 DIV PUSH1 0x24 CALLDATALOAD PUSH2 0x263D JUMP JUMPDEST PUSH1 0x2 SLOAD PUSH1 0x40 MLOAD PUSH4 0x23B872DD PUSH1 0xE0 SHL PUSH1 0x20 DUP3 ADD MSTORE CALLER PUSH1 0x24 DUP3 ADD MSTORE ADDRESS PUSH1 0x44 DUP3 ADD MSTORE PUSH1 0x64 DUP1 DUP3 ADD SWAP4 SWAP1 SWAP4 MSTORE SWAP2 DUP3 MSTORE PUSH1 0xA0 DUP3 ADD SWAP2 SWAP1 PUSH1 0x1 PUSH1 0x1 PUSH1 0xA0 SHL SUB AND PUSH8 0xFFFFFFFFFFFFFFFF DUP4 GT DUP3 DUP5 LT OR PUSH2 0x902 JUMPI PUSH2 0x2062 SWAP3 PUSH1 0x40 MSTORE PUSH2 0x293F JUMP JUMPDEST PUSH2 0x206D PUSH1 0x6 SLOAD PUSH2 0x264A JUMP JUMPDEST SWAP2 DUP3 PUSH1 0x6 SSTORE PUSH2 0x207E PUSH1 0x44 CALLDATALOAD TIMESTAMP PUSH2 0x263D JUMP JUMPDEST PUSH2 0x2710 PUSH1 0x40 MLOAD SWAP3 PUSH2 0x208E DUP5 PUSH2 0x253D JUMP JUMPDEST DUP6 DUP5 MSTORE CALLER PUSH1 0x20 DUP6 ADD MSTORE PUSH2 0x20A2 CALLDATASIZE DUP7 DUP10 PUSH2 0x2675 JUMP JUMPDEST PUSH1 0x40 DUP6 ADD MSTORE PUSH1 0x24 CALLDATALOAD PUSH1 0x60 DUP6 ADD MSTORE DIV PUSH1 0x80 DUP4 ADD MSTORE PUSH1 0xA0 DUP3 ADD MSTORE PUSH1 0x0 PUSH1 0xC0 DUP3 ADD MSTORE PUSH1 0x0 PUSH1 0xE0 DUP3 ADD MSTORE PUSH1 0x0 PUSH2 0x100 DUP3 ADD MSTORE PUSH1 0x0 PUSH2 0x120 DUP3 ADD MSTORE TIMESTAMP PUSH2 0x140 DUP3 ADD MSTORE PUSH1 0x0 PUSH2 0x160 DUP3 ADD MSTORE DUP3 PUSH1 0x0 MSTORE PUSH1 0xA PUSH1 0x20 MSTORE PUSH1 0x40 PUSH1 0x0 KECCAK256 SWAP4 DUP2 MLOAD DUP6 SSTORE PUSH1 0x1 DUP6 ADD PUSH1 0x1 DUP1 PUSH1 0xA0 SHL SUB PUSH1 0x20 DUP5 ADD MLOAD AND PUSH1 0x1 PUSH1 0x1 PUSH1 0x60 SHL SUB PUSH1 0xA0 SHL DUP3 SLOAD AND OR SWAP1 SSTORE PUSH1 0x40 DUP3 ADD MLOAD DUP1 MLOAD SWAP1 PUSH8 0xFFFFFFFFFFFFFFFF DUP3 GT PUSH2 0x902 JUMPI DUP2 SWAP1 PUSH2 0x2142 PUSH1 0x2 DUP10 ADD SLOAD PUSH2 0x2503 JUMP JUMPDEST PUSH1 0x1F DUP2 GT PUSH2 0x2326 JUMPI JUMPDEST POP PUSH1 0x20 SWAP1 PUSH1 0x1F DUP4 GT PUSH1 0x1 EQ PUSH2 0x22B4 JUMPI PUSH1 0x0 SWAP3 PUSH2 0x22A9 JUMPI JUMPDEST POP POP DUP2 PUSH1 0x1 SHL SWAP2 PUSH1 0x0 NOT SWAP1 PUSH1 0x3 SHL SHR NOT AND OR PUSH1 0x2 DUP7 ADD SSTORE JUMPDEST PUSH1 0x60 DUP3 ADD MLOAD PUSH1 0x3 DUP7 ADD SSTORE PUSH1 0x80 DUP3 ADD MLOAD PUSH1 0x4 DUP7 ADD SSTORE PUSH1 0xA0 DUP3 ADD MLOAD PUSH1 0x5 DUP7 ADD SSTORE PUSH1 0xC0 DUP3 ADD MLOAD SWAP1 PUSH1 0x7 DUP3 LT ISZERO PUSH2 0xA7A JUMPI PUSH1 0x6 DUP7 ADD DUP1 SLOAD PUSH1 0xE0 DUP6 ADD MLOAD PUSH2 0x100 PUSH1 0x1 PUSH1 0xA8 SHL SUB PUSH1 0x8 SWAP2 SWAP1 SWAP2 SHL AND PUSH1 0xFF SWAP5 SWAP1 SWAP5 AND PUSH1 0x1 PUSH1 0x1 PUSH1 0xA8 SHL SUB NOT SWAP1 SWAP2 AND OR SWAP3 SWAP1 SWAP3 OR SWAP1 SWAP2 SSTORE PUSH1 0x20 SWAP5 DUP5 SWAP3 PUSH32 0xB5E5FBF3346E9F5C610406862E51622B9D1E7FEFD46DE0E79367DE79C2B74890 SWAP3 SWAP2 SWAP1 PUSH1 0xA SWAP1 PUSH2 0x160 SWAP1 PUSH1 0x7 DUP5 ADD PUSH1 0x1 DUP1 PUSH1 0xA0 SHL SUB PUSH2 0x100 DUP4 ADD MLOAD AND PUSH1 0x1 PUSH1 0x1 PUSH1 0x60 SHL SUB PUSH1 0xA0 SHL DUP3 SLOAD AND OR SWAP1 SSTORE PUSH2 0x120 DUP2 ADD MLOAD PUSH1 0x8 DUP6 ADD SSTORE PUSH2 0x140 DUP2 ADD MLOAD PUSH1 0x9 DUP6 ADD SSTORE ADD MLOAD SWAP2 ADD SSTORE CALLER PUSH1 0x0 MSTORE PUSH1 0xE DUP7 MSTORE PUSH1 0x40 PUSH1 0x0 KECCAK256 PUSH2 0x2261 DUP2 SLOAD PUSH2 0x264A JUMP JUMPDEST SWAP1 SSTORE DUP3 PUSH1 0x0 MSTORE PUSH1 0xA DUP7 MSTORE PUSH1 0x5 PUSH1 0x40 PUSH1 0x0 KECCAK256 ADD SLOAD PUSH2 0x2299 PUSH1 0x40 MLOAD SWAP3 DUP4 SWAP3 PUSH1 0x24 CALLDATALOAD DUP5 MSTORE DUP10 DUP5 ADD MSTORE PUSH1 0x60 PUSH1 0x40 DUP5 ADD MSTORE CALLER SWAP7 PUSH1 0x60 DUP5 ADD SWAP2 PUSH2 0x26AC JUMP JUMPDEST SUB SWAP1 LOG3 PUSH1 0x1 PUSH1 0x0 SSTORE PUSH1 0x40 MLOAD SWAP1 DUP2 MSTORE RETURN JUMPDEST ADD MLOAD SWAP1 POP DUP8 DUP1 PUSH2 0x2162 JUMP JUMPDEST SWAP3 POP PUSH1 0x2 DUP9 ADD PUSH1 0x0 MSTORE PUSH1 0x20 PUSH1 0x0 KECCAK256 SWAP1 PUSH1 0x0 SWAP4 JUMPDEST PUSH1 0x1F NOT DUP5 AND DUP6 LT PUSH2 0x230B JUMPI PUSH1 0x1 SWAP5 POP DUP4 PUSH1 0x1F NOT DUP2 AND LT PUSH2 0x22F2 JUMPI JUMPDEST POP POP POP DUP2 SHL ADD PUSH1 0x2 DUP7 ADD SSTORE PUSH2 0x217A JUMP JUMPDEST ADD MLOAD PUSH1 0x0 NOT PUSH1 0xF8 DUP5 PUSH1 0x3 SHL AND SHR NOT AND SWAP1 SSTORE DUP8 DUP1 DUP1 PUSH2 0x22E2 JUMP JUMPDEST DUP2 DUP2 ADD MLOAD DUP4 SSTORE PUSH1 0x20 SWAP5 DUP6 ADD SWAP5 PUSH1 0x1 SWAP1 SWAP4 ADD SWAP3 SWAP1 SWAP2 ADD SWAP1 PUSH2 0x22C7 JUMP JUMPDEST SWAP1 SWAP2 POP PUSH1 0x2 DUP9 ADD PUSH1 0x0 MSTORE PUSH1 0x20 PUSH1 0x0 KECCAK256 PUSH1 0x1F DUP5 ADD PUSH1 0x5 SHR DUP2 ADD PUSH1 0x20 DUP6 LT PUSH2 0x2372 JUMPI JUMPDEST SWAP1 DUP5 SWAP4 SWAP3 SWAP2 JUMPDEST PUSH1 0x1F DUP4 ADD PUSH1 0x5 SHR DUP3 ADD DUP2 LT PUSH2 0x2363 JUMPI POP POP PUSH2 0x214B JUMP JUMPDEST PUSH1 0x0 DUP2 SSTORE DUP6 SWAP5 POP PUSH1 0x1 ADD PUSH2 0x234D JUMP JUMPDEST POP DUP1 PUSH2 0x2347 JUMP JUMPDEST PUSH1 0x40 MLOAD PUSH3 0x461BCD PUSH1 0xE5 SHL DUP2 MSTORE PUSH1 0x20 PUSH1 0x4 DUP3 ADD MSTORE PUSH1 0x10 PUSH1 0x24 DUP3 ADD MSTORE PUSH16 0x24B73B30B634B210323AB930BA34B7B7 PUSH1 0x81 SHL PUSH1 0x44 DUP3 ADD MSTORE PUSH1 0x64 SWAP1 REVERT JUMPDEST POP PUSH1 0x5 SLOAD PUSH1 0x44 CALLDATALOAD GT ISZERO PUSH2 0x1FDD JUMP JUMPDEST PUSH1 0x40 MLOAD PUSH3 0x461BCD PUSH1 0xE5 SHL DUP2 MSTORE PUSH1 0x20 PUSH1 0x4 DUP3 ADD MSTORE PUSH1 0xE PUSH1 0x24 DUP3 ADD MSTORE PUSH14 0x52657761726420746F6F206C6F77 PUSH1 0x90 SHL PUSH1 0x44 DUP3 ADD MSTORE PUSH1 0x64 SWAP1 REVERT JUMPDEST PUSH1 0x40 MLOAD PUSH3 0x461BCD PUSH1 0xE5 SHL DUP2 MSTORE PUSH1 0x20 PUSH1 0x4 DUP3 ADD MSTORE PUSH1 0xF PUSH1 0x24 DUP3 ADD MSTORE PUSH15 0x8ADAE0E8F240E8C2E6D640D0C2E6D PUSH1 0x8B SHL PUSH1 0x44 DUP3 ADD MSTORE PUSH1 0x64 SWAP1 REVERT JUMPDEST SWAP2 DUP2 PUSH1 0x1F DUP5 ADD SLT ISZERO PUSH2 0x1FD JUMPI DUP3 CALLDATALOAD SWAP2 PUSH8 0xFFFFFFFFFFFFFFFF DUP4 GT PUSH2 0x1FD JUMPI PUSH1 0x20 DUP4 DUP2 DUP7 ADD SWAP6 ADD ADD GT PUSH2 0x1FD JUMPI JUMP JUMPDEST PUSH1 0x4 CALLDATALOAD SWAP1 PUSH1 0x1 PUSH1 0x1 PUSH1 0xA0 SHL SUB DUP3 AND DUP3 SUB PUSH2 0x1FD JUMPI JUMP JUMPDEST PUSH1 0x60 SWAP1 PUSH1 0x3 NOT ADD SLT PUSH2 0x1FD JUMPI PUSH1 0x4 CALLDATALOAD SWAP1 PUSH1 0x24 CALLDATALOAD SWAP1 PUSH1 0x44 CALLDATALOAD PUSH1 0x1 PUSH1 0x1 PUSH1 0xA0 SHL SUB DUP2 AND DUP2 SUB PUSH2 0x1FD JUMPI SWAP1 JUMP JUMPDEST SWAP2 SWAP1 DUP3 MLOAD SWAP3 DUP4 DUP3 MSTORE PUSH1 0x0 JUMPDEST DUP5 DUP2 LT PUSH2 0x24C6 JUMPI POP POP DUP3 PUSH1 0x0 PUSH1 0x20 DUP1 SWAP5 SWAP6 DUP5 ADD ADD MSTORE PUSH1 0x1F DUP1 NOT SWAP2 ADD AND ADD ADD SWAP1 JUMP JUMPDEST PUSH1 0x20 DUP2 DUP4 ADD DUP2 ADD MLOAD DUP5 DUP4 ADD DUP3 ADD MSTORE ADD PUSH2 0x24A5 JUMP JUMPDEST SWAP1 PUSH1 0x7 DUP3 LT ISZERO PUSH2 0xA7A JUMPI MSTORE JUMP JUMPDEST DUP1 SLOAD DUP3 LT ISZERO PUSH2 0x8EC JUMPI PUSH1 0x0 MSTORE PUSH1 0x6 PUSH1 0x20 PUSH1 0x0 KECCAK256 SWAP2 MUL ADD SWAP1 PUSH1 0x0 SWAP1 JUMP JUMPDEST SWAP1 PUSH1 0x1 DUP3 DUP2 SHR SWAP3 AND DUP1 ISZERO PUSH2 0x2533 JUMPI JUMPDEST PUSH1 0x20 DUP4 LT EQ PUSH2 0x251D JUMPI JUMP JUMPDEST PUSH4 0x4E487B71 PUSH1 0xE0 SHL PUSH1 0x0 MSTORE PUSH1 0x22 PUSH1 0x4 MSTORE PUSH1 0x24 PUSH1 0x0 REVERT JUMPDEST SWAP2 PUSH1 0x7F AND SWAP2 PUSH2 0x2512 JUMP JUMPDEST PUSH2 0x180 DUP2 ADD SWAP1 DUP2 LT PUSH8 0xFFFFFFFFFFFFFFFF DUP3 GT OR PUSH2 0x902 JUMPI PUSH1 0x40 MSTORE JUMP JUMPDEST PUSH1 0xC0 DUP2 ADD SWAP1 DUP2 LT PUSH8 0xFFFFFFFFFFFFFFFF DUP3 GT OR PUSH2 0x902 JUMPI PUSH1 0x40 MSTORE JUMP JUMPDEST SWAP1 PUSH1 0x1F DUP1 NOT SWAP2 ADD AND DUP2 ADD SWAP1 DUP2 LT PUSH8 0xFFFFFFFFFFFFFFFF DUP3 GT OR PUSH2 0x902 JUMPI PUSH1 0x40 MSTORE JUMP JUMPDEST SWAP1 PUSH1 0x40 MLOAD SWAP2 DUP3 PUSH1 0x0 DUP3 SLOAD PUSH2 0x25AB DUP2 PUSH2 0x2503 JUMP JUMPDEST SWAP1 DUP2 DUP5 MSTORE PUSH1 0x20 SWAP5 PUSH1 0x1 SWAP2 PUSH1 0x1 DUP2 AND SWAP1 DUP2 PUSH1 0x0 EQ PUSH2 0x261B JUMPI POP PUSH1 0x1 EQ PUSH2 0x25DC JUMPI JUMPDEST POP POP POP PUSH2 0x25DA SWAP3 POP SUB DUP4 PUSH2 0x2576 JUMP JUMPDEST JUMP JUMPDEST PUSH1 0x0 SWAP1 DUP2 MSTORE DUP6 DUP2 KECCAK256 SWAP6 SWAP4 POP SWAP2 SWAP1 JUMPDEST DUP2 DUP4 LT PUSH2 0x2603 JUMPI POP POP PUSH2 0x25DA SWAP4 POP DUP3 ADD ADD CODESIZE DUP1 DUP1 PUSH2 0x25CB JUMP JUMPDEST DUP6 SLOAD DUP9 DUP5 ADD DUP6 ADD MSTORE SWAP5 DUP6 ADD SWAP5 DUP8 SWAP5 POP SWAP2 DUP4 ADD SWAP2 PUSH2 0x25EA JUMP JUMPDEST SWAP3 POP POP POP PUSH2 0x25DA SWAP5 SWAP3 POP PUSH1 0xFF NOT AND DUP3 DUP5 ADD MSTORE ISZERO ISZERO PUSH1 0x5 SHL DUP3 ADD ADD CODESIZE DUP1 DUP1 PUSH2 0x25CB JUMP JUMPDEST SWAP2 SWAP1 DUP3 ADD DUP1 SWAP3 GT PUSH2 0x782 JUMPI JUMP JUMPDEST PUSH1 0x0 NOT DUP2 EQ PUSH2 0x782 JUMPI PUSH1 0x1 ADD SWAP1 JUMP JUMPDEST PUSH8 0xFFFFFFFFFFFFFFFF DUP2 GT PUSH2 0x902 JUMPI PUSH1 0x1F ADD PUSH1 0x1F NOT AND PUSH1 0x20 ADD SWAP1 JUMP JUMPDEST SWAP3 SWAP2 SWAP3 PUSH2 0x2681 DUP3 PUSH2 0x2659 JUMP JUMPDEST SWAP2 PUSH2 0x268F PUSH1 0x40 MLOAD SWAP4 DUP5 PUSH2 0x2576 JUMP JUMPDEST DUP3 SWAP5 DUP2 DUP5 MSTORE DUP2 DUP4 ADD GT PUSH2 0x1FD JUMPI DUP3 DUP2 PUSH1 0x20 SWAP4 DUP5 PUSH1 0x0 SWAP7 ADD CALLDATACOPY ADD ADD MSTORE JUMP JUMPDEST SWAP1 DUP1 PUSH1 0x20 SWAP4 SWAP3 DUP2 DUP5 MSTORE DUP5 DUP5 ADD CALLDATACOPY PUSH1 0x0 DUP3 DUP3 ADD DUP5 ADD MSTORE PUSH1 0x1F ADD PUSH1 0x1F NOT AND ADD ADD SWAP1 JUMP JUMPDEST ISZERO PUSH2 0x26D4 JUMPI JUMP JUMPDEST PUSH1 0x40 MLOAD PUSH3 0x461BCD PUSH1 0xE5 SHL DUP2 MSTORE PUSH1 0x20 PUSH1 0x4 DUP3 ADD MSTORE PUSH1 0xF PUSH1 0x24 DUP3 ADD MSTORE PUSH15 0x496E76616C69642061646472657373 PUSH1 0x88 SHL PUSH1 0x44 DUP3 ADD MSTORE PUSH1 0x64 SWAP1 REVERT JUMPDEST PUSH8 0xFFFFFFFFFFFFFFFF DUP2 GT PUSH2 0x902 JUMPI PUSH1 0x5 SHL PUSH1 0x20 ADD SWAP1 JUMP JUMPDEST ISZERO PUSH2 0x272A JUMPI JUMP JUMPDEST PUSH1 0x40 MLOAD PUSH3 0x461BCD PUSH1 0xE5 SHL DUP2 MSTORE PUSH1 0x20 PUSH1 0x4 DUP3 ADD MSTORE PUSH1 0xE PUSH1 0x24 DUP3 ADD MSTORE PUSH14 0x15185CDAC81B9BDD08199BDD5B99 PUSH1 0x92 SHL PUSH1 0x44 DUP3 ADD MSTORE PUSH1 0x64 SWAP1 REVERT JUMPDEST ISZERO PUSH2 0x2767 JUMPI JUMP JUMPDEST PUSH1 0x40 MLOAD PUSH3 0x461BCD PUSH1 0xE5 SHL DUP2 MSTORE PUSH1 0x20 PUSH1 0x4 DUP3 ADD MSTORE PUSH1 0xC PUSH1 0x24 DUP3 ADD MSTORE PUSH12 0x15185CDAC8195E1C1A5C9959 PUSH1 0xA2 SHL PUSH1 0x44 DUP3 ADD MSTORE PUSH1 0x64 SWAP1 REVERT JUMPDEST ISZERO PUSH2 0x27A2 JUMPI JUMP JUMPDEST PUSH1 0x40 MLOAD PUSH3 0x461BCD PUSH1 0xE5 SHL DUP2 MSTORE PUSH1 0x20 PUSH1 0x4 DUP3 ADD MSTORE PUSH1 0xF PUSH1 0x24 DUP3 ADD MSTORE PUSH15 0x2737BA1030903B30B634B230BA37B9 PUSH1 0x89 SHL PUSH1 0x44 DUP3 ADD MSTORE PUSH1 0x64 SWAP1 REVERT JUMPDEST DUP1 ISZERO PUSH2 0x782 JUMPI PUSH1 0x0 NOT ADD SWAP1 JUMP JUMPDEST PUSH1 0x2 PUSH1 0x0 SLOAD EQ PUSH2 0x27F7 JUMPI PUSH1 0x2 PUSH1 0x0 SSTORE JUMP JUMPDEST PUSH1 0x40 MLOAD PUSH3 0x461BCD PUSH1 0xE5 SHL DUP2 MSTORE PUSH1 0x20 PUSH1 0x4 DUP3 ADD MSTORE PUSH1 0x1F PUSH1 0x24 DUP3 ADD MSTORE PUSH32 0x5265656E7472616E637947756172643A207265656E7472616E742063616C6C00 PUSH1 0x44 DUP3 ADD MSTORE PUSH1 0x64 SWAP1 REVERT JUMPDEST PUSH1 0xFF PUSH1 0x1 SLOAD PUSH1 0xA0 SHR AND PUSH2 0x284B JUMPI JUMP JUMPDEST PUSH1 0x40 MLOAD PUSH3 0x461BCD PUSH1 0xE5 SHL DUP2 MSTORE PUSH1 0x20 PUSH1 0x4 DUP3 ADD MSTORE PUSH1 0x10 PUSH1 0x24 DUP3 ADD MSTORE PUSH16 0x14185D5CD8589B194E881C185D5CD959 PUSH1 0x82 SHL PUSH1 0x44 DUP3 ADD MSTORE PUSH1 0x64 SWAP1 REVERT JUMPDEST PUSH1 0x1 SLOAD PUSH1 0x1 PUSH1 0x1 PUSH1 0xA0 SHL SUB AND CALLER SUB PUSH2 0x2897 JUMPI JUMP JUMPDEST PUSH1 0x64 PUSH1 0x40 MLOAD PUSH3 0x461BCD PUSH1 0xE5 SHL DUP2 MSTORE PUSH1 0x20 PUSH1 0x4 DUP3 ADD MSTORE PUSH1 0x20 PUSH1 0x24 DUP3 ADD MSTORE PUSH32 0x4F776E61626C653A2063616C6C6572206973206E6F7420746865206F776E6572 PUSH1 0x44 DUP3 ADD MSTORE REVERT JUMPDEST PUSH1 0x40 MLOAD PUSH4 0xA9059CBB PUSH1 0xE0 SHL PUSH1 0x20 DUP3 ADD MSTORE PUSH1 0x1 PUSH1 0x1 PUSH1 0xA0 SHL SUB SWAP1 SWAP3 AND PUSH1 0x24 DUP4 ADD MSTORE PUSH1 0x44 DUP1 DUP4 ADD SWAP4 SWAP1 SWAP4 MSTORE SWAP2 DUP2 MSTORE PUSH1 0x80 DUP2 ADD SWAP2 PUSH8 0xFFFFFFFFFFFFFFFF DUP4 GT DUP3 DUP5 LT OR PUSH2 0x902 JUMPI PUSH2 0x25DA SWAP3 PUSH1 0x40 MSTORE PUSH2 0x293F JUMP JUMPDEST DUP1 MLOAD DUP3 LT ISZERO PUSH2 0x8EC JUMPI PUSH1 0x20 SWAP2 PUSH1 0x5 SHL ADD ADD SWAP1 JUMP JUMPDEST PUSH1 0x1 DUP1 PUSH1 0xA0 SHL SUB AND SWAP1 PUSH1 0x40 MLOAD PUSH1 0x40 DUP2 ADD SWAP1 DUP1 DUP3 LT PUSH8 0xFFFFFFFFFFFFFFFF DUP4 GT OR PUSH2 0x902 JUMPI PUSH2 0x29CF SWAP2 PUSH1 0x40 MSTORE PUSH1 0x20 SWAP4 DUP5 DUP3 MSTORE PUSH32 0x5361666545524332303A206C6F772D6C6576656C2063616C6C206661696C6564 DUP6 DUP4 ADD MSTORE PUSH1 0x0 DUP1 DUP6 DUP8 DUP3 SWAP8 MLOAD SWAP2 ADD DUP3 DUP6 GAS CALL RETURNDATASIZE ISZERO PUSH2 0x2A6C JUMPI RETURNDATASIZE SWAP2 PUSH2 0x29B4 DUP4 PUSH2 0x2659 JUMP JUMPDEST SWAP3 PUSH2 0x29C2 PUSH1 0x40 MLOAD SWAP5 DUP6 PUSH2 0x2576 JUMP JUMPDEST DUP4 MSTORE RETURNDATASIZE DUP7 DUP9 DUP6 ADD RETURNDATACOPY PUSH2 0x2A70 JUMP JUMPDEST DUP1 MLOAD SWAP2 DUP3 ISZERO SWAP2 DUP5 DUP4 ISZERO PUSH2 0x2A41 JUMPI JUMPDEST POP POP POP SWAP1 POP ISZERO PUSH2 0x29EA JUMPI POP JUMP JUMPDEST PUSH1 0x84 SWAP1 PUSH1 0x40 MLOAD SWAP1 PUSH3 0x461BCD PUSH1 0xE5 SHL DUP3 MSTORE PUSH1 0x4 DUP3 ADD MSTORE PUSH1 0x2A PUSH1 0x24 DUP3 ADD MSTORE PUSH32 0x5361666545524332303A204552433230206F7065726174696F6E20646964206E PUSH1 0x44 DUP3 ADD MSTORE PUSH10 0x1BDD081CDD58D8D95959 PUSH1 0xB2 SHL PUSH1 0x64 DUP3 ADD MSTORE REVERT JUMPDEST SWAP2 SWAP4 DUP2 DUP1 SWAP5 POP ADD SUB SLT PUSH2 0x2A68 JUMPI DUP3 ADD MLOAD SWAP1 DUP2 ISZERO ISZERO DUP3 SUB PUSH2 0x2A65 JUMPI POP DUP1 CODESIZE DUP1 DUP5 PUSH2 0x29DD JUMP JUMPDEST DUP1 REVERT JUMPDEST POP DUP1 REVERT JUMPDEST PUSH1 0x60 SWAP2 JUMPDEST SWAP2 SWAP3 SWAP1 ISZERO PUSH2 0x2AD2 JUMPI POP DUP2 MLOAD ISZERO PUSH2 0x2A84 JUMPI POP SWAP1 JUMP JUMPDEST EXTCODESIZE ISZERO PUSH2 0x2A8D JUMPI SWAP1 JUMP JUMPDEST PUSH1 0x40 MLOAD PUSH3 0x461BCD PUSH1 0xE5 SHL DUP2 MSTORE PUSH1 0x20 PUSH1 0x4 DUP3 ADD MSTORE PUSH1 0x1D PUSH1 0x24 DUP3 ADD MSTORE PUSH32 0x416464726573733A2063616C6C20746F206E6F6E2D636F6E7472616374000000 PUSH1 0x44 DUP3 ADD MSTORE PUSH1 0x64 SWAP1 REVERT JUMPDEST DUP3 MLOAD SWAP1 SWAP2 POP ISZERO PUSH2 0x2AE5 JUMPI POP DUP1 MLOAD SWAP1 PUSH1 0x20 ADD REVERT JUMPDEST PUSH1 0x40 MLOAD PUSH3 0x461BCD PUSH1 0xE5 SHL DUP2 MSTORE PUSH1 0x20 PUSH1 0x4 DUP3 ADD MSTORE SWAP1 DUP2 SWAP1 PUSH2 0x2B09 SWAP1 PUSH1 0x24 DUP4 ADD SWAP1 PUSH2 0x249A JUMP JUMPDEST SUB SWAP1 REVERT INVALID LOG2 PUSH5 0x6970667358 0x22 SLT KECCAK256 SWAP6 0xC6 XOR DUP2 JUMP LT 0xE9 DUP7 SUB 0xBC AND 0x28 ADDMOD 0xB2 0xE2 COINBASE CODECOPY PUSH30 0x2266BDE6789A68AEACA270FB339064736F6C634300081800330000000000 "},"methodIdentifiers":{"acceptTask(uint256)":"1bf6912d","activeTaskCount(address)":"1ed5c43c","addValidator(address)":"4d238c8e","cancelTask(uint256)":"7eec20a8","collectedFees()":"9003adfe","createTask(string,uint256,uint256)":"059378ea","expireTask(uint256)":"62ecc47a","finalizeTask(uint256)":"88488c33","getSubmissionCount(uint256)":"7be24cb8","getSubmissions(uint256)":"16c53ced","getTask(uint256)":"1d65e77e","getValidatorScore(uint256,uint256,address)":"d65314b3","hasValidatorScored(uint256,uint256,address)":"7ca0ad2d","isValidator(address)":"facd743b","maxTaskDuration()":"c0be15ec","mdtToken()":"f70b5c06","minTaskReward()":"f0992c97","minValidations()":"680038c7","minerEarnings(address)":"0f0da719","owner()":"8da5cb5b","pause()":"8456cb59","paused()":"5c975abb","platformFeeRate()":"eeca08f0","removeValidator(address)":"40a141ff","renounceOwnership()":"715018a6","setMinValidations(uint256)":"2b52d8c3","setPlatformFeeRate(uint256)":"927fef2e","submitResult(uint256,string)":"8c0dd79a","taskSubmissions(uint256,uint256)":"53eea875","tasks(uint256)":"8d977672","totalTasks()":"d22c81e5","transferOwnership(address)":"f2fde38b","unpause()":"3f4ba83a","validateSubmission(uint256,uint256,uint256)":"b7ee5eda","validatorCount()":"0f43a677","validatorScores(uint256,uint256,address)":"0fb6d805","validators(address)":"fa52c7d8","withdrawFees(address)":"164e68de"}}}}}