{"src/PaymentEscrow.sol":{"PaymentEscrow":{"abi":[{"inputs":[{"internalType":"address","name":"_mdtToken","type":"address"}],"stateMutability":"nonpayable","type":"constructor"},{"anonymous":false,"inputs":[{"indexed":true,"internalType":"uint256","name":"taskId","type":"uint256"},{"indexed":false,"internalType":"uint256","name":"baseMin","type":"uint256"},{"indexed":false,"internalType":"uint256","name":"adaptiveMin","type":"uint256"}],"name":"AdaptiveValidationsApplied","type":"event"},{"anonymous":false,"inputs":[{"indexed":false,"internalType":"uint256","name":"commitDuration","type":"uint256"},{"indexed":false,"internalType":"uint256","name":"revealDuration","type":"uint256"}],"name":"CommitPhaseConfigUpdated","type":"event"},{"anonymous":false,"inputs":[{"indexed":true,"internalType":"uint256","name":"taskId","type":"uint256"},{"indexed":false,"internalType":"uint256","name":"minerIndex","type":"uint256"},{"indexed":false,"internalType":"uint256","name":"medianScore","type":"uint256"},{"indexed":false,"internalType":"uint256","name":"validatorCount","type":"uint256"}],"name":"ConsensusReached","type":"event"},{"anonymous":false,"inputs":[{"indexed":true,"internalType":"address","name":"account","type":"address"},{"indexed":false,"internalType":"uint256","name":"amount","type":"uint256"}],"name":"EarningsWithdrawn","type":"event"},{"anonymous":false,"inputs":[{"indexed":true,"internalType":"address","name":"to","type":"address"},{"indexed":false,"internalType":"uint256","name":"amount","type":"uint256"}],"name":"FeesWithdrawn","type":"event"},{"anonymous":false,"inputs":[{"indexed":false,"internalType":"uint256","name":"oldMin","type":"uint256"},{"indexed":false,"internalType":"uint256","name":"newMin","type":"uint256"}],"name":"MinValidationsUpdated","type":"event"},{"anonymous":false,"inputs":[{"indexed":true,"internalType":"address","name":"previousOwner","type":"address"},{"indexed":true,"internalType":"address","name":"newOwner","type":"address"}],"name":"OwnershipTransferred","type":"event"},{"anonymous":false,"inputs":[{"indexed":false,"internalType":"address","name":"account","type":"address"}],"name":"Paused","type":"event"},{"anonymous":false,"inputs":[{"indexed":false,"internalType":"uint256","name":"oldRate","type":"uint256"},{"indexed":false,"internalType":"uint256","name":"newRate","type":"uint256"}],"name":"PlatformFeeUpdated","type":"event"},{"anonymous":false,"inputs":[{"indexed":true,"internalType":"address","name":"validator","type":"address"},{"indexed":false,"internalType":"uint256","name":"newScore","type":"uint256"},{"indexed":false,"internalType":"uint256","name":"totalValidations","type":"uint256"},{"indexed":false,"internalType":"uint256","name":"accurateValidations","type":"uint256"}],"name":"ReputationUpdated","type":"event"},{"anonymous":false,"inputs":[{"indexed":true,"internalType":"uint256","name":"taskId","type":"uint256"},{"indexed":false,"internalType":"uint256","name":"minerIndex","type":"uint256"},{"indexed":true,"internalType":"address","name":"validator","type":"address"}],"name":"ScoreCommitted","type":"event"},{"anonymous":false,"inputs":[{"indexed":true,"internalType":"uint256","name":"taskId","type":"uint256"},{"indexed":false,"internalType":"uint256","name":"minerIndex","type":"uint256"},{"indexed":true,"internalType":"address","name":"validator","type":"address"},{"indexed":false,"internalType":"uint256","name":"score","type":"uint256"}],"name":"ScoreRevealed","type":"event"},{"anonymous":false,"inputs":[{"indexed":true,"internalType":"uint256","name":"taskId","type":"uint256"},{"indexed":true,"internalType":"address","name":"miner","type":"address"},{"indexed":false,"internalType":"string","name":"resultHash","type":"string"}],"name":"SubmissionReceived","type":"event"},{"anonymous":false,"inputs":[{"indexed":true,"internalType":"uint256","name":"taskId","type":"uint256"},{"indexed":true,"internalType":"address","name":"miner","type":"address"},{"indexed":false,"internalType":"uint256","name":"score","type":"uint256"},{"indexed":false,"internalType":"address","name":"validator","type":"address"}],"name":"SubmissionValidated","type":"event"},{"anonymous":false,"inputs":[{"indexed":true,"internalType":"uint256","name":"taskId","type":"uint256"},{"indexed":true,"internalType":"address","name":"miner","type":"address"}],"name":"TaskAccepted","type":"event"},{"anonymous":false,"inputs":[{"indexed":true,"internalType":"uint256","name":"taskId","type":"uint256"},{"indexed":true,"internalType":"address","name":"requester","type":"address"},{"indexed":false,"internalType":"uint256","name":"refundAmount","type":"uint256"}],"name":"TaskCancelled","type":"event"},{"anonymous":false,"inputs":[{"indexed":true,"internalType":"uint256","name":"taskId","type":"uint256"},{"indexed":true,"internalType":"address","name":"winner","type":"address"},{"indexed":false,"internalType":"uint256","name":"reward","type":"uint256"},{"indexed":false,"internalType":"uint256","name":"score","type":"uint256"}],"name":"TaskCompleted","type":"event"},{"anonymous":false,"inputs":[{"indexed":true,"internalType":"uint256","name":"taskId","type":"uint256"},{"indexed":true,"internalType":"address","name":"requester","type":"address"},{"indexed":false,"internalType":"uint256","name":"rewardAmount","type":"uint256"},{"indexed":false,"internalType":"uint256","name":"deadline","type":"uint256"},{"indexed":false,"internalType":"string","name":"taskHash","type":"string"}],"name":"TaskCreated","type":"event"},{"anonymous":false,"inputs":[{"indexed":true,"internalType":"uint256","name":"taskId","type":"uint256"}],"name":"TaskExpired","type":"event"},{"anonymous":false,"inputs":[{"indexed":false,"internalType":"address","name":"account","type":"address"}],"name":"Unpaused","type":"event"},{"anonymous":false,"inputs":[{"indexed":true,"internalType":"address","name":"validator","type":"address"}],"name":"ValidatorAdded","type":"event"},{"anonymous":false,"inputs":[{"indexed":true,"internalType":"uint256","name":"taskId","type":"uint256"},{"indexed":true,"internalType":"address","name":"validator","type":"address"},{"indexed":false,"internalType":"uint256","name":"deviation","type":"uint256"}],"name":"ValidatorPenalized","type":"event"},{"anonymous":false,"inputs":[{"indexed":true,"internalType":"address","name":"validator","type":"address"}],"name":"ValidatorRemoved","type":"event"},{"anonymous":false,"inputs":[{"indexed":true,"internalType":"uint256","name":"taskId","type":"uint256"},{"indexed":true,"internalType":"address","name":"validator","type":"address"},{"indexed":false,"internalType":"uint256","name":"amount","type":"uint256"},{"indexed":false,"internalType":"uint256","name":"deviation","type":"uint256"}],"name":"ValidatorRewarded","type":"event"},{"inputs":[],"name":"HIGH_VALUE_THRESHOLD","outputs":[{"internalType":"uint256","name":"","type":"uint256"}],"stateMutability":"view","type":"function"},{"inputs":[],"name":"ULTRA_VALUE_THRESHOLD","outputs":[{"internalType":"uint256","name":"","type":"uint256"}],"stateMutability":"view","type":"function"},{"inputs":[{"internalType":"uint256","name":"taskId","type":"uint256"}],"name":"acceptTask","outputs":[],"stateMutability":"nonpayable","type":"function"},{"inputs":[{"internalType":"address","name":"","type":"address"}],"name":"activeTaskCount","outputs":[{"internalType":"uint256","name":"","type":"uint256"}],"stateMutability":"view","type":"function"},{"inputs":[{"internalType":"address","name":"validator","type":"address"}],"name":"addValidator","outputs":[],"stateMutability":"nonpayable","type":"function"},{"inputs":[{"internalType":"uint256","name":"taskId","type":"uint256"}],"name":"cancelTask","outputs":[],"stateMutability":"nonpayable","type":"function"},{"inputs":[],"name":"collectedFees","outputs":[{"internalType":"uint256","name":"","type":"uint256"}],"stateMutability":"view","type":"function"},{"inputs":[{"internalType":"uint256","name":"","type":"uint256"},{"internalType":"uint256","name":"","type":"uint256"}],"name":"commitCount","outputs":[{"internalType":"uint256","name":"","type":"uint256"}],"stateMutability":"view","type":"function"},{"inputs":[],"name":"commitPhaseDuration","outputs":[{"internalType":"uint256","name":"","type":"uint256"}],"stateMutability":"view","type":"function"},{"inputs":[{"internalType":"uint256","name":"","type":"uint256"},{"internalType":"uint256","name":"","type":"uint256"}],"name":"commitPhaseStart","outputs":[{"internalType":"uint256","name":"","type":"uint256"}],"stateMutability":"view","type":"function"},{"inputs":[{"internalType":"uint256","name":"taskId","type":"uint256"},{"internalType":"uint256","name":"minerIndex","type":"uint256"},{"internalType":"bytes32","name":"commitHash","type":"bytes32"}],"name":"commitScore","outputs":[],"stateMutability":"nonpayable","type":"function"},{"inputs":[{"internalType":"string","name":"taskHash","type":"string"},{"internalType":"uint256","name":"rewardAmount","type":"uint256"},{"internalType":"uint256","name":"duration","type":"uint256"}],"name":"createTask","outputs":[{"internalType":"uint256","name":"taskId","type":"uint256"}],"stateMutability":"nonpayable","type":"function"},{"inputs":[{"internalType":"uint256","name":"taskId","type":"uint256"}],"name":"expireTask","outputs":[],"stateMutability":"nonpayable","type":"function"},{"inputs":[{"internalType":"uint256","name":"taskId","type":"uint256"}],"name":"finalizeTask","outputs":[],"stateMutability":"nonpayable","type":"function"},{"inputs":[{"internalType":"uint256","name":"rewardAmount","type":"uint256"}],"name":"getAdaptiveMinValidations","outputs":[{"internalType":"uint256","name":"","type":"uint256"}],"stateMutability":"view","type":"function"},{"inputs":[{"internalType":"uint256","name":"score","type":"uint256"},{"internalType":"bytes32","name":"salt","type":"bytes32"}],"name":"getCommitHash","outputs":[{"internalType":"bytes32","name":"","type":"bytes32"}],"stateMutability":"pure","type":"function"},{"inputs":[{"internalType":"uint256","name":"taskId","type":"uint256"}],"name":"getSubmissionCount","outputs":[{"internalType":"uint256","name":"","type":"uint256"}],"stateMutability":"view","type":"function"},{"inputs":[{"internalType":"uint256","name":"taskId","type":"uint256"}],"name":"getSubmissions","outputs":[{"components":[{"internalType":"address","name":"miner","type":"address"},{"internalType":"string","name":"resultHash","type":"string"},{"internalType":"uint256","name":"score","type":"uint256"},{"internalType":"bool","name":"validated","type":"bool"},{"internalType":"uint256","name":"submittedAt","type":"uint256"},{"internalType":"uint256","name":"validationCount","type":"uint256"}],"internalType":"struct PaymentEscrow.MinerSubmission[]","name":"","type":"tuple[]"}],"stateMutability":"view","type":"function"},{"inputs":[{"internalType":"uint256","name":"taskId","type":"uint256"}],"name":"getTask","outputs":[{"components":[{"internalType":"uint256","name":"id","type":"uint256"},{"internalType":"address","name":"requester","type":"address"},{"internalType":"string","name":"taskHash","type":"string"},{"internalType":"uint256","name":"rewardAmount","type":"uint256"},{"internalType":"uint256","name":"platformFee","type":"uint256"},{"internalType":"uint256","name":"validatorReward","type":"uint256"},{"internalType":"uint256","name":"deadline","type":"uint256"},{"internalType":"enum PaymentEscrow.TaskStatus","name":"status","type":"uint8"},{"internalType":"address","name":"assignedMiner","type":"address"},{"internalType":"address","name":"winningMiner","type":"address"},{"internalType":"uint256","name":"winningScore","type":"uint256"},{"internalType":"uint256","name":"createdAt","type":"uint256"},{"internalType":"uint256","name":"completedAt","type":"uint256"}],"internalType":"struct PaymentEscrow.Task","name":"","type":"tuple"}],"stateMutability":"view","type":"function"},{"inputs":[{"internalType":"uint256","name":"taskId","type":"uint256"},{"internalType":"uint256","name":"minerIndex","type":"uint256"},{"internalType":"address","name":"validator","type":"address"}],"name":"getValidatorScore","outputs":[{"internalType":"uint256","name":"score","type":"uint256"},{"internalType":"bool","name":"hasScored","type":"bool"}],"stateMutability":"view","type":"function"},{"inputs":[{"internalType":"uint256","name":"","type":"uint256"},{"internalType":"address","name":"","type":"address"}],"name":"hasMinerSubmitted","outputs":[{"internalType":"bool","name":"","type":"bool"}],"stateMutability":"view","type":"function"},{"inputs":[{"internalType":"uint256","name":"","type":"uint256"},{"internalType":"uint256","name":"","type":"uint256"},{"internalType":"address","name":"","type":"address"}],"name":"hasValidatorScored","outputs":[{"internalType":"bool","name":"","type":"bool"}],"stateMutability":"view","type":"function"},{"inputs":[{"internalType":"address","name":"account","type":"address"}],"name":"isValidator","outputs":[{"internalType":"bool","name":"","type":"bool"}],"stateMutability":"view","type":"function"},{"inputs":[],"name":"maxTaskDuration","outputs":[{"internalType":"uint256","name":"","type":"uint256"}],"stateMutability":"view","type":"function"},{"inputs":[],"name":"mdtToken","outputs":[{"internalType":"contract IERC20","name":"","type":"address"}],"stateMutability":"view","type":"function"},{"inputs":[],"name":"minTaskReward","outputs":[{"internalType":"uint256","name":"","type":"uint256"}],"stateMutability":"view","type":"function"},{"inputs":[],"name":"minValidations","outputs":[{"internalType":"uint256","name":"","type":"uint256"}],"stateMutability":"view","type":"function"},{"inputs":[{"internalType":"address","name":"","type":"address"}],"name":"minerEarnings","outputs":[{"internalType":"uint256","name":"","type":"uint256"}],"stateMutability":"view","type":"function"},{"inputs":[],"name":"owner","outputs":[{"internalType":"address","name":"","type":"address"}],"stateMutability":"view","type":"function"},{"inputs":[],"name":"pause","outputs":[],"stateMutability":"nonpayable","type":"function"},{"inputs":[],"name":"paused","outputs":[{"internalType":"bool","name":"","type":"bool"}],"stateMutability":"view","type":"function"},{"inputs":[{"internalType":"address","name":"","type":"address"}],"name":"pendingWithdrawals","outputs":[{"internalType":"uint256","name":"","type":"uint256"}],"stateMutability":"view","type":"function"},{"inputs":[],"name":"platformFeeRate","outputs":[{"internalType":"uint256","name":"","type":"uint256"}],"stateMutability":"view","type":"function"},{"inputs":[{"internalType":"address","name":"validator","type":"address"}],"name":"removeValidator","outputs":[],"stateMutability":"nonpayable","type":"function"},{"inputs":[],"name":"renounceOwnership","outputs":[],"stateMutability":"nonpayable","type":"function"},{"inputs":[{"internalType":"uint256","name":"","type":"uint256"},{"internalType":"uint256","name":"","type":"uint256"}],"name":"revealCount","outputs":[{"internalType":"uint256","name":"","type":"uint256"}],"stateMutability":"view","type":"function"},{"inputs":[],"name":"revealPhaseDuration","outputs":[{"internalType":"uint256","name":"","type":"uint256"}],"stateMutability":"view","type":"function"},{"inputs":[{"internalType":"uint256","name":"taskId","type":"uint256"},{"internalType":"uint256","name":"minerIndex","type":"uint256"},{"internalType":"uint256","name":"score","type":"uint256"},{"internalType":"bytes32","name":"salt","type":"bytes32"}],"name":"revealScore","outputs":[],"stateMutability":"nonpayable","type":"function"},{"inputs":[{"internalType":"uint256","name":"_commitDuration","type":"uint256"},{"internalType":"uint256","name":"_revealDuration","type":"uint256"}],"name":"setCommitRevealConfig","outputs":[],"stateMutability":"nonpayable","type":"function"},{"inputs":[{"internalType":"uint256","name":"newMin","type":"uint256"}],"name":"setMinValidations","outputs":[],"stateMutability":"nonpayable","type":"function"},{"inputs":[{"internalType":"uint256","name":"newRate","type":"uint256"}],"name":"setPlatformFeeRate","outputs":[],"stateMutability":"nonpayable","type":"function"},{"inputs":[{"internalType":"uint256","name":"taskId","type":"uint256"},{"internalType":"string","name":"resultHash","type":"string"}],"name":"submitResult","outputs":[],"stateMutability":"nonpayable","type":"function"},{"inputs":[{"internalType":"uint256","name":"","type":"uint256"},{"internalType":"uint256","name":"","type":"uint256"}],"name":"taskSubmissions","outputs":[{"internalType":"address","name":"miner","type":"address"},{"internalType":"string","name":"resultHash","type":"string"},{"internalType":"uint256","name":"score","type":"uint256"},{"internalType":"bool","name":"validated","type":"bool"},{"internalType":"uint256","name":"submittedAt","type":"uint256"},{"internalType":"uint256","name":"validationCount","type":"uint256"}],"stateMutability":"view","type":"function"},{"inputs":[{"internalType":"uint256","name":"","type":"uint256"}],"name":"tasks","outputs":[{"internalType":"uint256","name":"id","type":"uint256"},{"internalType":"address","name":"requester","type":"address"},{"internalType":"string","name":"taskHash","type":"string"},{"internalType":"uint256","name":"rewardAmount","type":"uint256"},{"internalType":"uint256","name":"platformFee","type":"uint256"},{"internalType":"uint256","name":"validatorReward","type":"uint256"},{"internalType":"uint256","name":"deadline","type":"uint256"},{"internalType":"enum PaymentEscrow.TaskStatus","name":"status","type":"uint8"},{"internalType":"address","name":"assignedMiner","type":"address"},{"internalType":"address","name":"winningMiner","type":"address"},{"internalType":"uint256","name":"winningScore","type":"uint256"},{"internalType":"uint256","name":"createdAt","type":"uint256"},{"internalType":"uint256","name":"completedAt","type":"uint256"}],"stateMutability":"view","type":"function"},{"inputs":[],"name":"totalTasks","outputs":[{"internalType":"uint256","name":"","type":"uint256"}],"stateMutability":"view","type":"function"},{"inputs":[{"internalType":"address","name":"newOwner","type":"address"}],"name":"transferOwnership","outputs":[],"stateMutability":"nonpayable","type":"function"},{"inputs":[],"name":"unpause","outputs":[],"stateMutability":"nonpayable","type":"function"},{"inputs":[{"internalType":"uint256","name":"taskId","type":"uint256"},{"internalType":"uint256","name":"minerIndex","type":"uint256"},{"internalType":"uint256","name":"score","type":"uint256"}],"name":"validateSubmission","outputs":[],"stateMutability":"nonpayable","type":"function"},{"inputs":[{"internalType":"uint256","name":"","type":"uint256"},{"internalType":"uint256","name":"","type":"uint256"},{"internalType":"address","name":"","type":"address"}],"name":"validationCommits","outputs":[{"internalType":"bytes32","name":"commitHash","type":"bytes32"},{"internalType":"uint256","name":"committedAt","type":"uint256"},{"internalType":"bool","name":"revealed","type":"bool"},{"internalType":"uint256","name":"revealedScore","type":"uint256"}],"stateMutability":"view","type":"function"},{"inputs":[],"name":"validatorCount","outputs":[{"internalType":"uint256","name":"","type":"uint256"}],"stateMutability":"view","type":"function"},{"inputs":[{"internalType":"address","name":"","type":"address"}],"name":"validatorEarnings","outputs":[{"internalType":"uint256","name":"","type":"uint256"}],"stateMutability":"view","type":"function"},{"inputs":[{"internalType":"address","name":"","type":"address"}],"name":"validatorReputation","outputs":[{"internalType":"uint256","name":"totalValidations","type":"uint256"},{"internalType":"uint256","name":"accurateValidations","type":"uint256"},{"internalType":"uint256","name":"reputationScore","type":"uint256"},{"internalType":"uint256","name":"lastActiveAt","type":"uint256"}],"stateMutability":"view","type":"function"},{"inputs":[],"name":"validatorRewardRate","outputs":[{"internalType":"uint256","name":"","type":"uint256"}],"stateMutability":"view","type":"function"},{"inputs":[{"internalType":"uint256","name":"","type":"uint256"},{"internalType":"uint256","name":"","type":"uint256"},{"internalType":"address","name":"","type":"address"}],"name":"validatorScores","outputs":[{"internalType":"uint256","name":"","type":"uint256"}],"stateMutability":"view","type":"function"},{"inputs":[{"internalType":"address","name":"","type":"address"}],"name":"validators","outputs":[{"internalType":"bool","name":"","type":"bool"}],"stateMutability":"view","type":"function"},{"inputs":[],"name":"withdrawEarnings","outputs":[],"stateMutability":"nonpayable","type":"function"},{"inputs":[{"internalType":"address","name":"to","type":"address"}],"name":"withdrawFees","outputs":[],"stateMutability":"nonpayable","type":"function"}],"evm":{"bytecode":{"linkReferences":{},"object":"6080346200013c57601f620041c238819003918201601f19168301916001600160401b0383118484101762000141578084926020946040528339810103126200013c57516001600160a01b03808216918290036200013c57600160005560015460405191339082167f8be0079c531659141344cd1fd0a4f28419497f9722a3daafe3b4186f6b6457e0600080a36001600160a81b0319163360ff60a01b1916176001556101f46003556105dc6004556305f5e10060055562093a806006556002600a55610e10601955610708601a558115620000fa5750600280546001600160a01b03191691909117905560405161406a9081620001588239f35b62461bcd60e51b815260206004820152601560248201527f496e76616c696420746f6b656e206164647265737300000000000000000000006044820152606490fd5b600080fd5b634e487b7160e01b600052604160045260246000fdfe6080604052600436101561001257600080fd5b60003560e01c8063059378ea14612b3c5780630ebac45a14612b095780630f0da71914612acf5780630f43a67714612ab15780630fb6d80514612a6a578063164e68de146129b157806316c53ced146128495780631bf6912d146126fa5780631d65e77e146124fa5780631dd73e0d146121975780631ed5c43c1461215d5780632b52d8c3146120585780632e44085d1461203a57806332e540e9146120145780633938800614611fda5780633c9a6bf314611f6c5780633f422ef314611e905780633f4ba83a14611df457806340a141ff14611d64578063483b403914611d465780634d238c8e14611c0b57806353eea87514611b725780635c975abb14611b4c57806362ecc47a146119c257806365617a35146119a2578063680038c71461198457806368a7f82614611530578063715018a6146114d357806377ad68da146114a05780637be24cb8146114745780637ca0ad2d146114285780637eec20a8146112ae5780638456cb591461124c57806388488c33146110725780638c0dd79a14610bf55780638d97767214610b135780638da5cb5b14610aea5780639003adfe14610acc578063927fef2e14610a3a5780639d7eea9f146109fb578063ac64c822146109a9578063b46e742414610976578063b73c6ce9146108b3578063b7ee5eda1461057c578063c0be15ec1461055e578063ca7b64bb1461053e578063d1270485146104e2578063d22c81e5146104c4578063d65314b314610454578063dfc7537214610436578063eeca08f014610418578063f0992c97146103fa578063f2fde38b14610336578063f3f43703146102fc578063f70b5c06146102d3578063fa52c7d81461028f5763facd743b1461028f57600080fd5b346102ce5760203660031901126102ce576001600160a01b036102b061304d565b166000526008602052602060ff604060002054166040519015158152f35b600080fd5b346102ce5760003660031901126102ce576002546040516001600160a01b039091168152602090f35b346102ce5760203660031901126102ce576001600160a01b0361031d61304d565b1660005260126020526020604060002054604051908152f35b346102ce5760203660031901126102ce5761034f61304d565b6103576136ab565b6001600160a01b039081169081156103a657600154826001600160601b0360a01b821617600155167f8be0079c531659141344cd1fd0a4f28419497f9722a3daafe3b4186f6b6457e0600080a3005b60405162461bcd60e51b815260206004820152602660248201527f4f776e61626c653a206e6577206f776e657220697320746865207a65726f206160448201526564647265737360d01b6064820152608490fd5b346102ce5760003660031901126102ce576020600554604051908152f35b346102ce5760003660031901126102ce576020600354604051908152f35b346102ce5760003660031901126102ce576020601a54604051908152f35b346102ce57604061046436613063565b82600052602091600e835284600020816000528352846000209160018060a01b03169182600052835260ff85600020541693600052600d835284600020906000528252836000209060005281528260002054918351928352151590820152f35b346102ce5760003660031901126102ce576020600754604051908152f35b346102ce5760203660031901126102ce576001600160a01b0361050361304d565b166000526013602052608060406000208054906001810154906003600282015491015491604051938452602084015260408301526060820152f35b346102ce5760003660031901126102ce57602060405164174876e8008152f35b346102ce5760003660031901126102ce576020600654604051908152f35b346102ce5760603660031901126102ce5760043560243560443533600052602091600883526105b260ff6040600020541661341e565b8315158061089d575b6105c4906133a6565b6105cc613664565b83600052600b835260406000209260ff600785015416600781101561088757806002610601921490811561087c575b5061345c565b84600052600c815261061960406000205483106134a8565b610627612710841115613577565b84600052600e81526040600020826000528152604060002033600052815260ff604060002054166108275784600052600c81526106688260406000206130da565b5092600384019460ff8654166107e45786600052600d8352604060002084600052835260406000203360005283528160406000205586600052600e83526040600020846000528352604060002033600052835260406000209460ff199560018782541617905587600052601c845260406000208560005284526106ef3360406000206135d3565b60058101926106fe84546132cf565b94858555897f424e5ad88b2accc1579e610100b12e0f295d8c9e0b02abb61ad1e413e3d63d02604060018060a01b0394858754169482519182523390820152a3600a5485101561074a57005b7fff2fc693bb2d4a09f21f0c403fce5ecb4b5b0b57e81c7253deb5386bb8a8ae7797600161077c6107bb97898d613794565b98896002860155825416179055600983019187835481116107c0575b505050505054604051938493846040919493926060820195825260208201520152565b0390a2005b6008935554169101906001600160601b0360a01b8254161790558680808087610798565b6064836040519062461bcd60e51b825280600483015260248201527f5375626d697373696f6e20616c72656164792068617320636f6e73656e7375736044820152fd5b6084906040519062461bcd60e51b82526004820152602860248201527f56616c696461746f7220616c72656164792073636f72656420746869732073756044820152673136b4b9b9b4b7b760c11b6064820152fd5b6001915014876105fb565b634e487b7160e01b600052602160045260246000fd5b506000848152600b8452604090205484146105bb565b346102ce5760003660031901126102ce576108cc61360e565b336000526012602052604060002054801561093b5761093490336000526012602052600060408120556040518181527f48dc35af7b45e2a81fffad55f6e2fafacdb1d3d0d50d24ebdc16324f5ba757f160203392a260025433906001600160a01b0316613703565b6001600055005b60405162461bcd60e51b81526020600482015260136024820152724e6f2070656e64696e67206561726e696e677360681b6044820152606490fd5b346102ce5761098436613037565b9060005260186020526040600020906000526020526020604060002054604051908152f35b346102ce5760403660031901126102ce576024356001600160a01b038116908190036102ce576004356000526014602052604060002090600052602052602060ff604060002054166040519015158152f35b346102ce5760403660031901126102ce576020604051818101906004358252602435604082015260408152610a2f81613198565b519020604051908152f35b346102ce5760203660031901126102ce57600435610a566136ab565b6103e88111610a985760407fd347e206f25a89b917fc9482f1a2d294d749baa4dc9bde7fb495ee11fe49164391600354908060035582519182526020820152a1005b60405162461bcd60e51b815260206004820152600c60248201526b08ccaca40e8dede40d0d2ced60a31b6044820152606490fd5b346102ce5760003660031901126102ce576020601554604051908152f35b346102ce5760003660031901126102ce576001546040516001600160a01b039091168152602090f35b346102ce5760203660031901126102ce57600435600052600b6020526040600020604081549160018060a01b03908160018201541690610b55600282016131d4565b600382015493600483015490600584015460068501546007860154918360088801541694610baa600989015497600b600a8b01549a01549a8d519e8f9e8f6101a09384938252602082015201528d019061308d565b9960608c015260808b015260a08a015260c0890152610bcf60e0890160ff83166130cd565b60081c166101008701526101208601526101408501526101608401526101808301520390f35b346102ce5760403660031901126102ce576001600160401b036024358181116102ce57610c2690369060040161300a565b9091600435151580611059575b610c3c906133a6565b610c44613664565b600435600052600b60205260406000209060ff6007830154166007811015908161088757801591821561104b575b821561103a575b505015610ff557610c8f600683015442106133e3565b8215610fbc57600435600052601460205260406000203360005260205260ff60406000205416610f775760043560005260146020526040600020336000526020526040600020600160ff19825416179055600435600052600c60205260406000209060405190610cfe82613162565b338252610d0c3686886132f9565b92602083019384526000604084015260006060840152426080840152600060a08401528054600160401b811015610f4b57610d4c916001820181556130da565b939093610f6157825184546001600160a01b0319166001600160a01b0391909116178455518051918211610f4b57610d87600185015461310c565b601f8111610f04575b50602090601f8311600114610e8f5791806005949260a094600092610e84575b50508160011b916000199060031b1c19161760018501555b60408101516002850155610df160608201511515600386019060ff801983541691151516179055565b608081015160048501550151910155600781015460ff81166007811015610887578015908115610e79575b50610e65575b50507fa3dcf7cebcc4cf0937f4f95d95392671977ba143b4ff236240650322a106e8dc6040516020815280610e603395600435956020840191613330565b0390a3005b600260079160ff1916179101558280610e22565b600191501485610e1c565b015190508980610db0565b906001850160005260206000209160005b601f1985168110610eec5750926005949260019260a09583601f19811610610ed3575b505050811b016001850155610dc8565b015160001960f88460031b161c19169055898080610ec3565b91926020600181928685015181550194019201610ea0565b600185016000526020600020601f840160051c810160208510610f44575b601f830160051c82018110610f38575050610d90565b60008155600101610f22565b5080610f22565b634e487b7160e01b600052604160045260246000fd5b634e487b7160e01b600052600060045260246000fd5b60405162461bcd60e51b815260206004820152601760248201527f4d696e657220616c7265616479207375626d69747465640000000000000000006044820152606490fd5b60405162461bcd60e51b815260206004820152601160248201527008adae0e8f240e4cae6ead8e840d0c2e6d607b1b6044820152606490fd5b60405162461bcd60e51b815260206004820152601a60248201527f43616e6e6f74207375626d697420746f2074686973207461736b0000000000006044820152606490fd5b909150610887576002148580610c79565b506001811491506000610c72565b506004356000818152600b602052604090205414610c33565b346102ce576020806003193601126102ce576004359061109061360e565b81151580611236575b6110a2906133a6565b81600052600b81526040600020906007820191825460ff81166007811015610887576002036111f15760088201546001600160a01b03908116939084156111b557927fefef8593ec020b84769ddb5cf4469accbbd22d882a354bee97694405126ca6949260409261115b89966001850154169360038101549460048201549160058101549b600360098301549760ff1916179055600b42910155600052600f835285600020611151815461356a565b90556015546132c2565b6015558660005260108152836000206111758482546132c2565b905586600052601281528360002061118e8482546132c2565b90558351928352820152a3806111a5576001600055005b6111ae916139b7565b8080610934565b60405162461bcd60e51b81526004810183905260146024820152734e6f2076616c6964207375626d697373696f6e7360601b6044820152606490fd5b60405162461bcd60e51b815260048101849052601f60248201527f5461736b206e6f7420726561647920666f722066696e616c697a6174696f6e006044820152606490fd5b506000828152600b825260409020548214611099565b346102ce5760003660031901126102ce576112656136ab565b61126d613664565b6001805460ff60a01b1916600160a01b1790556040513381527f62e78cea01bee320cd4e420270b5ea74000d11b0c9f74754ebdbfc544b05a25890602090a1005b346102ce576020806003193601126102ce576004356112cb61360e565b80151580611412575b6112dd906133a6565b6000818152600b835260409020600181015490926001600160a01b0391821633036113dd57600784019283549360ff851660078110156108875761139857600461134187600561133860036109349b015485840154906132c2565b910154906132c2565b9560ff191617905533600052600f82526040600020611360815461356a565b90557f06f63d695245e4cf8f0b7aae0b8da95876a4b173ba8d0d4466cc83c357dda3a8604051928584523393a3339060025416613703565b60405162461bcd60e51b815260048101849052601760248201527f43616e6e6f742063616e63656c2074686973207461736b0000000000000000006044820152606490fd5b6064906040519062461bcd60e51b82526004820152600e60248201526d2737ba103a30b9b59037bbb732b960911b6044820152fd5b506000818152600b8352604090205481146112d4565b346102ce5761143636613063565b91600052600e60205260406000209060005260205260406000209060018060a01b0316600052602052602060ff604060002054166040519015158152f35b346102ce5760203660031901126102ce57600435600052600c6020526020604060002054604051908152f35b346102ce576114ae36613037565b90600052601b6020526040600020906000526020526020604060002054604051908152f35b346102ce5760003660031901126102ce576114ec6136ab565b600180546001600160a01b031981169091556000906001600160a01b03167f8be0079c531659141344cd1fd0a4f28419497f9722a3daafe3b4186f6b6457e08280a3005b346102ce5760803660031901126102ce576004356024803560449081356064336000526020906008825261156b60ff6040600020541661341e565b8615158061196e575b61157d906133a6565b611585613664565b86600052600b825260406000209060ff6007830154166007811015611959578060026115b9921490811561194e575061345c565b87600052600c83526115d160406000205486106134a8565b6115df612710851115613577565b87600052600c83526115f58560406000206130da565b5090600382019761160a60ff8a5416156134ea565b89600052601b8552604060002087600052855261162f604060002054601954906132c2565b61163b601a54826132c2565b9042111561190d5742116118d85789600052601685526040600020876000528552604060002033600052855260406000209182549889156118a657600284019283549a60ff8c1661187257604051898101908b825285356040820152604081526116a481613198565b51902003611842575050508591600391600160ff19809b1617905501558760005260188352604060002085600052835260406000206116e381546132cf565b905587600052600d8352604060002085600052835260406000203360005283528360406000205587600052600e835260406000208560005283526040600020336000528352604060002060018782541617905587600052601c835260406000208560005283526117573360406000206135d3565b600581019261176684546132cf565b9485855560405191878352820152887f23def086b3dc14dbd150f69d2e6af648dfc789cdf251ba7d720feecbc0625f8560403393a3600a548410156117a757005b7fff2fc693bb2d4a09f21f0c403fce5ecb4b5b0b57e81c7253deb5386bb8a8ae779660016117d96107bb96888c613794565b9788600285015582541617905560098201908682548111611817575b5050505054604051938493846040919493926060820195825260208201520152565b6008925560018060a01b039054169101906001600160601b0360a01b825416179055868080866117f5565b8791600d6c090c2e6d040dad2e6dac2e8c6d609b1b926040519462461bcd60e51b86526004860152840152820152fd5b50879160106f105b1c9958591e481c995d99585b195960821b926040519462461bcd60e51b86526004860152840152820152fd5b6e139bc818dbdb5b5a5d08199bdd5b99608a1b8791600f856040519462461bcd60e51b86526004860152840152820152fd5b7114995d99585b081c1a185cd948195b99195960721b88601287936040519462461bcd60e51b86526004860152840152820152fd5b507f436f6d6d6974207068617365206e6f7420656e6465642079657400000000000088601a87936040519462461bcd60e51b86526004860152840152820152fd5b60019150148a6105fb565b87634e487b7160e01b60005260216004526000fd5b506000878152600b835260409020548714611574565b346102ce5760003660031901126102ce576020600a54604051908152f35b346102ce5760003660031901126102ce57602060405164e8d4a510008152f35b346102ce576020806003193601126102ce5760043580151580611b36575b6119e9906133a6565b6119f1613664565b80600052600b825260406000206007810180549260ff84166007811015610887578015908115611b2b575b5015611ae65760068301544210611aaa57600f611aa89560018060a01b03936005611a5c86600189015416978261133860038301546004840154906132c2565b9760ff191617905584600052526040600020611a78815461356a565b90557f7c2ecd5e2b7188ac57f3a370681639cb447c9cbfbbbace0c070adea6c73eaa54600080a260025416613703565b005b60405162461bcd60e51b815260048101869052601460248201527315185cdac81b9bdd08195e1c1a5c9959081e595d60621b6044820152606490fd5b60405162461bcd60e51b815260048101869052601760248201527f43616e6e6f74206578706972652074686973207461736b0000000000000000006044820152606490fd5b600191501486611a1c565b506000818152600b8352604090205481146119e0565b346102ce5760003660031901126102ce57602060ff60015460a01c166040519015158152f35b346102ce57611b8036613037565b90600052600c60205260406000209081548110156102ce57611ba1916130da565b5080546001600160a01b0316611bb9600183016131d4565b9160028101549060ff600382015416906005600482015491015491611bf0604051968796875260c0602088015260c087019061308d565b93604086015215156060850152608084015260a08301520390f35b346102ce576020806003193601126102ce57611c2561304d565b611c2d6136ab565b6001600160a01b031690611c42821515613351565b816000526008815260ff60406000205416611d0e5781600052600881526040600020600160ff19825416179055611c7a6009546132cf565b600955816000526013815260026040600020015415611cbc575b507fe366c1c0452ed8eec96861e9e54141ebff23c9ec89fe27b996b45f5ec3884987600080a2005b600360405191611ccb8361317d565b6000835280830160008152604084019061138882526013606086019342855287600052526040600020945185555160018501555160028401555191015581611c94565b6064906040519062461bcd60e51b82526004820152601160248201527020b63932b0b23c903b30b634b230ba37b960791b6044820152fd5b346102ce5760003660031901126102ce576020601954604051908152f35b346102ce5760203660031901126102ce57611d7d61304d565b611d856136ab565b6001600160a01b0316600081815260086020526040902054611da99060ff1661341e565b806000526008602052604060002060ff198154169055611dca60095461356a565b6009557fe1434e25d6611e0db941968fdc97811c982ac1602e951637d206f5fdda9dd8f1600080a2005b346102ce5760003660031901126102ce57611e0d6136ab565b60015460ff8160a01c1615611e545760ff60a01b19166001556040513381527f5db9ee0a495bf2e6ff9c91a7834c1ba4fdd244a5e8aa4e537bd38aeae4b073aa90602090a1005b60405162461bcd60e51b815260206004820152601460248201527314185d5cd8589b194e881b9bdd081c185d5cd95960621b6044820152606490fd5b346102ce57611e9e36613037565b611ea66136ab565b61012c808310611f2e578110611ef057816040917f54333de66970050ba341fd48b02b1e37c55d85ae724ee00e32233e89e072bea89360195580601a5582519182526020820152a1005b60405162461bcd60e51b815260206004820152601660248201527514995d99585b081c1a185cd9481d1bdbc81cda1bdc9d60521b6044820152606490fd5b60405162461bcd60e51b815260206004820152601660248201527510dbdb5b5a5d081c1a185cd9481d1bdbc81cda1bdc9d60521b6044820152606490fd5b346102ce57611f7a36613063565b91600052601660205260406000209060005260205260406000209060018060a01b031660005260205260806040600020805490600181015490600360ff600283015416910154916040519384526020840152151560408301526060820152f35b346102ce5760203660031901126102ce576001600160a01b03611ffb61304d565b1660005260116020526020604060002054604051908152f35b346102ce5760203660031901126102ce57602061203260043561352e565b604051908152f35b346102ce5760003660031901126102ce576020600454604051908152f35b346102ce5760203660031901126102ce576004356120746136ab565b60018110612118576009548082119081159161210f575b50156120ca5760407fb6db129b84dbdef2d15fbb03e44fe1050995a5b1f855b6faf62b419185e53dc891600a549080600a5582519182526020820152a1005b60405162461bcd60e51b815260206004820152601d60248201527f43616e6e6f74206578636565642076616c696461746f7220636f756e740000006044820152606490fd5b9050158261208b565b60405162461bcd60e51b815260206004820152601c60248201527f4d696e2076616c69646174696f6e73206d757374206265203e3d2031000000006044820152606490fd5b346102ce5760203660031901126102ce576001600160a01b0361217e61304d565b16600052600f6020526020604060002054604051908152f35b346102ce5760603660031901126102ce5760043560249081359060443533600052602090600882526121d060ff6040600020541661341e565b821515806124e4575b6121e2906133a6565b6121ea613664565b82600052600b825260ff6007604060002001541660078110156124cf5780600261221c921490811561087c575061345c565b82600052600c825261223460406000205485106134a8565b80156124975782600052600c825261226160ff60036122578760406000206130da565b50015416156134ea565b82600052601682526040600020846000528252604060002033600052825260406000205461245f5782600052600e82526040600020846000528252604060002033600052825260ff6040600020541661241b5782600052601b82526040600020846000528252604060002054156123fc575b82600052601b825260406000208460005282526122f8604060002054601954906132c2565b42116123c3576040517f96e134fdbcf6f2b8942aa1450973cc1e5914913673abacabebf1f0b14fe4a552929161232d8261317d565b815260038282014281526123906040840160008152606085019260008452886000526016875260406000208a60005287526040600020336000528752604060002095518655516001860155511515600285019060ff801983541691151516179055565b519101558260005260178152604060002084600052815260406000206123b681546132cf565b90556040519384523393a3005b60405162461bcd60e51b8152600481018390526012818701527110dbdb5b5a5d081c1a185cd948195b99195960721b6044820152606490fd5b82600052601b82526040600020846000528252426040600020556122d3565b60405162461bcd60e51b8152600481018390526017818701527f416c72656164792073636f726564206469726563746c790000000000000000006044820152606490fd5b60405162461bcd60e51b81526004810183905260118187015270105b1c9958591e4818dbdb5b5a5d1d1959607a1b6044820152606490fd5b60405162461bcd60e51b8152600481018390526011818701527008adae0e8f240c6dedadad2e840d0c2e6d607b1b6044820152606490fd5b85634e487b7160e01b60005260216004526000fd5b506000838152600b8352604090205483146121d9565b346102ce5760203660031901126102ce57600061018060405161251c81613146565b828152826020820152606060408201528260608201528260808201528260a08201528260c08201528260e0820152826101008201528261012082015282610140820152826101608201520152600435600052600b60205260406000206040519061258582613146565b8054825260018101546001600160a01b031660208301526125a8600282016131d4565b60408301526003810154606083015260048101546080830152600581015460a0830152600681015460c083015260078101549060ff821691600783101561088757600b9260e085015260018060a01b039060081c1661010084015260018060a01b036008820154166101208401526009810154610140840152600a81015461016084015201546101808201526040518091602082528051602083015260018060a01b03602082015116604083015261018061267460408301516101a060608601526101c085019061308d565b9160608101516080850152608081015160a085015260a081015160c085015260c081015160e08501526126b060e08201516101008601906130cd565b60018060a01b036101008201511661012085015260018060a01b03610120820151166101408501526101408101516101608501526101608101518285015201516101a08301520390f35b346102ce5760203660031901126102ce5760043580151580612832575b612720906133a6565b612728613664565b80600052600b6020526040600020600781019081549060ff82166007811015610887576127f857600661275e91015442106133e3565b60081c6001600160a01b03166127c0578054610100600160a81b0319163360081b610100600160a81b0316178155805460ff1916600117905533907fc8717b61398fb9d7cacf49fe1e296b2f10e9711226b532842b6ffd642cb6a2c6600080a3005b60405162461bcd60e51b815260206004820152601060248201526f105b1c9958591e48185cdcda59db995960821b6044820152606490fd5b60405162461bcd60e51b81526020600482015260126024820152715461736b206e6f7420617661696c61626c6560701b6044820152606490fd5b506000818152600b60205260409020548114612717565b346102ce576020806003193601126102ce57600435600052600c81526040600020908154916128778361338f565b9261288560405194856131b3565b8084528284018092600052836000206000915b8383106129445750505050604051918083019381845251809452604083019360408160051b85010192916000955b8287106128d35785850386f35b909192938280600192603f1989820301855287519061290a60c0868060a01b0384511683528484015190808685015283019061308d565b91604081015160408301526060808201511515908301526080808201519083015260a08091015191015296019201960195929190926128c6565b60068660019260409998995161295981613162565b848060a01b03865416815261296f8587016131d4565b838201526002860154604082015260ff6003870154161515606082015260048601546080820152600586015460a0820152815201920192019190959495612898565b346102ce5760203660031901126102ce576129ca61304d565b6129d26136ab565b6001600160a01b03818116916129e9831515613351565b601554918215612a2f57611aa89360006015557fc0819c13be868895eb93e40eaceb96de976442fa1d404e5c55f14bb65a8c489a6020604051868152a260025416613703565b60405162461bcd60e51b81526020600482015260136024820152724e6f206665657320746f20776974686472617760681b6044820152606490fd5b346102ce57612a7836613063565b91600052600d60205260406000209060005260205260406000209060018060a01b03166000526020526020604060002054604051908152f35b346102ce5760003660031901126102ce576020600954604051908152f35b346102ce5760203660031901126102ce576001600160a01b03612af061304d565b1660005260106020526020604060002054604051908152f35b346102ce57612b1736613037565b9060005260176020526040600020906000526020526020604060002054604051908152f35b346102ce5760603660031901126102ce576004356001600160401b0381116102ce57612b6c90369060040161300a565b612b7461360e565b612b7c613664565b8015612fd35760055460243510612f9d57604435151580612f8f575b15612f57576127109081612bb0600354602435613279565b0491612bc0600454602435613279565b0491612bd783612bd2836024356132c2565b6132c2565b6002546040516323b872dd60e01b60208201523360248201523060448201526064808201939093529182526001600160a01b0316906001600160401b0360a0820190811190821117610f4b57612c339160a08201604052613e12565b612c3e6007546132cf565b9283600755612c4f604435426132c2565b9060405192612c5d84613146565b858452336020850152612c713686896132f9565b60408501526024356060850152608084015260a083015260c0820152600060e082015260006101008201526000610120820152600061014082015242610160820152600061018082015282600052600b602052604060002093815185556001850160018060a01b036020840151166001600160601b0360a01b82541617905560408201518051906001600160401b038211610f4b578190612d15600289015461310c565b601f8111612f04575b50602090601f8311600114612e9257600092612e87575b50508160011b916000199060031b1c19161760028601555b606082015160038601556080820151600486015560a0820151600586015560c0820151600686015560e082015190600782101561088757600786018054610100850151610100600160a81b0360089190911b1660ff949094166001600160a81b0319909116179290921790915560209484927fb5e5fbf3346e9f5c610406862e51622b9d1e7fefd46de0e79367de79c2b74890929190600b90610180906008840160018060a01b03610120830151166001600160601b0360a01b8254161790556101408101516009850155610160810151600a850155015191015533600052600f86526040600020612e3f81546132cf565b905582600052600b8652600660406000200154612e776040519283926024358452898401526060604084015233966060840191613330565b0390a36001600055604051908152f35b015190508780612d35565b9250600288016000526020600020906000935b601f1984168510612ee9576001945083601f19811610612ed0575b505050811b016002860155612d4d565b015160001960f88460031b161c19169055878080612ec0565b81810151835560209485019460019093019290910190612ea5565b909150600288016000526020600020601f840160051c810160208510612f50575b90849392915b601f830160051c82018110612f41575050612d1e565b60008155859450600101612f2b565b5080612f25565b60405162461bcd60e51b815260206004820152601060248201526f24b73b30b634b210323ab930ba34b7b760811b6044820152606490fd5b506006546044351115612b98565b60405162461bcd60e51b815260206004820152600e60248201526d52657761726420746f6f206c6f7760901b6044820152606490fd5b60405162461bcd60e51b815260206004820152600f60248201526e08adae0e8f240e8c2e6d640d0c2e6d608b1b6044820152606490fd5b9181601f840112156102ce578235916001600160401b0383116102ce57602083818601950101116102ce57565b60409060031901126102ce576004359060243590565b600435906001600160a01b03821682036102ce57565b60609060031901126102ce5760043590602435906044356001600160a01b03811681036102ce5790565b919082519283825260005b8481106130b9575050826000602080949584010152601f8019910116010190565b602081830181015184830182015201613098565b9060078210156108875752565b80548210156130f6576000526006602060002091020190600090565b634e487b7160e01b600052603260045260246000fd5b90600182811c9216801561313c575b602083101461312657565b634e487b7160e01b600052602260045260246000fd5b91607f169161311b565b6101a081019081106001600160401b03821117610f4b57604052565b60c081019081106001600160401b03821117610f4b57604052565b608081019081106001600160401b03821117610f4b57604052565b606081019081106001600160401b03821117610f4b57604052565b90601f801991011681019081106001600160401b03821117610f4b57604052565b906040519182600082546131e78161310c565b908184526020946001916001811690816000146132575750600114613218575b505050613216925003836131b3565b565b600090815285812095935091905b81831061323f5750506132169350820101388080613207565b85548884018501529485019487945091830191613226565b9250505061321694925060ff191682840152151560051b820101388080613207565b8181029291811591840414171561328c57565b634e487b7160e01b600052601160045260246000fd5b81156132ac570490565b634e487b7160e01b600052601260045260246000fd5b9190820180921161328c57565b600019811461328c5760010190565b6001600160401b038111610f4b57601f01601f191660200190565b929192613305826132de565b9161331360405193846131b3565b8294818452818301116102ce578281602093846000960137010152565b908060209392818452848401376000828201840152601f01601f1916010190565b1561335857565b60405162461bcd60e51b815260206004820152600f60248201526e496e76616c6964206164647265737360881b6044820152606490fd5b6001600160401b038111610f4b5760051b60200190565b156133ad57565b60405162461bcd60e51b815260206004820152600e60248201526d15185cdac81b9bdd08199bdd5b9960921b6044820152606490fd5b156133ea57565b60405162461bcd60e51b815260206004820152600c60248201526b15185cdac8195e1c1a5c995960a21b6044820152606490fd5b1561342557565b60405162461bcd60e51b815260206004820152600f60248201526e2737ba1030903b30b634b230ba37b960891b6044820152606490fd5b1561346357565b60405162461bcd60e51b815260206004820152601760248201527f5461736b206e6f742070656e64696e67207265766965770000000000000000006044820152606490fd5b156134af57565b60405162461bcd60e51b8152602060048201526013602482015272092dcecc2d8d2c840dad2dccae440d2dcc8caf606b1b6044820152606490fd5b156134f157565b60405162461bcd60e51b8152602060048201526015602482015274416c72656164792068617320636f6e73656e73757360581b6044820152606490fd5b600a549064e8d4a51000811061354d57506002810180911161328c5790565b64174876e800111561355c5790565b6001810180911161328c5790565b801561328c576000190190565b1561357e57565b60405162461bcd60e51b8152602060048201526015602482015274053636f7265206d75737420626520302d313030303605c1b6044820152606490fd5b80548210156130f65760005260206000200190600090565b8054600160401b811015610f4b576135f0916001820181556135bb565b60018060a09493941b038084549260031b9316831b921b1916179055565b60026000541461361f576002600055565b60405162461bcd60e51b815260206004820152601f60248201527f5265656e7472616e637947756172643a207265656e7472616e742063616c6c006044820152606490fd5b60ff60015460a01c1661367357565b60405162461bcd60e51b815260206004820152601060248201526f14185d5cd8589b194e881c185d5cd95960821b6044820152606490fd5b6001546001600160a01b031633036136bf57565b606460405162461bcd60e51b815260206004820152602060248201527f4f776e61626c653a2063616c6c6572206973206e6f7420746865206f776e65726044820152fd5b60405163a9059cbb60e01b60208201526001600160a01b0390921660248301526044808301939093529181526132169161373c8261317d565b613e12565b9061374b8261338f565b61375860405191826131b3565b8281528092613769601f199161338f565b0190602036910137565b80518210156130f65760209160051b010190565b9190820391821161328c57565b929161379f81613741565b9160005b8281106139a15750846000526020601c815260409081600020836000528152816000209081549185830361395d57918192845190819482848794520190600052836000209260005b8582821061393e57505050613802925003836131b3565b60005b8581106138f75750505050509091925060015b818110613871575060018181160361383c57906138389160011c90613773565b5190565b60011c90600019820182811161328c5761386b9261385d6138649284613773565b5192613773565b51906132c2565b60011c90565b9061387e82849594613773565b5192825b801515806138d8575b156138c05760001981019080821161328c576138aa6138bb9288613773565b516138b58289613773565b5261356a565b613882565b936138d16001939492969586613773565b5201613818565b50600019810181811161328c576138f0869188613773565b511161388b565b6000898152600d83528481208682528352849020600191906001600160a01b036139218387613773565b511660005283528460002054613937828a613773565b5201613805565b85546001600160a01b03168452600195860195889550930192016137eb565b835162461bcd60e51b815260048101839052601b60248201527f56616c696461746f7220747261636b696e67206d69736d6174636800000000006044820152606490fd5b8060006139b060019387613773565b52016137a3565b9081600052600b60205260018060a01b0360086040600020015416600019600c6020526040600020916000908354915b828110613dc5575b5050506000198114613db65783600052601c6020526040600020816000526020526040600020908154928315613da557613a2b826002926130da565b50015494613a3884613741565b9160009660005b868110613b4657505050508415613b365760009460005b848110613a87575050505050808210613a6d575050565b613a8291613a7a91613787565b6015546132c2565b601555565b80613a9460019285613773565b5115613b3157613ac1613aba84613ab5613aae8589613773565b518b613279565b6132a2565b80996132c2565b97613acc82876135bb565b905490600391858060a01b0391831b1c1660005260116020526040600020613af58382546132c2565b9055613b0183886135bb565b858060a09493941b039254911b1c166000526012602052613b2860406000209182546132c2565b90555b01613a56565b613b2b565b505050613a8291506015546132c2565b613b5081876135bb565b9990549985600052600d602052604060002085600052602052604060002060018060a01b038c8360031b1c16600052602052613b9184604060002054613f46565b9a60018060a01b03818360031b1c16600052601360205260406000209b613bb88d546132cf565b8d554260038e01556107d08111613cfd5760018d01613bd781546132cf565b90556064613be5868b613773565b5260405190600082526020820152877f3d70426d5de70b5ac8bff45c3c0cd89db0e473153868b8c61a938d42002584e8604060018060a01b03858760031b1c1693a35b8b80549384613ccd575b613c3c868b613773565b5191600201549182613c4d91613279565b6127109004613c5c878c613773565b52613c67868b613773565b51613c71916132c2565b60019d909d0154604080519283526020830195909552938101939093526001600160a01b0360039290921b1c16907fc2fd17ad7e9f23b8607f0bd02d7a6cdcccd5a964fa99ce5a066ed34c5b4bb55b90606090a2600101613a3f565b906001015490612710828181020481148315171561328c57858f9391613cf392026132a2565b6002830155613c32565b6113888111613d59576032613d12868b613773565b5260405190600082526020820152877f3d70426d5de70b5ac8bff45c3c0cd89db0e473153868b8c61a938d42002584e8604060018060a01b03858760031b1c1693a3613c28565b6000613d65868b613773565b52604051908152877f3b3050df353576101845973a6b18bbcf16a0187f1c80d60d83d95be509203c51602060018060a01b03858760031b1c1693a3613c28565b50505050613a8291506015546132c2565b5050613a8291506015546132c2565b81613dd082876130da565b50546001600160a01b03161480613dfa575b613dee576001016139e7565b925050503880806139ef565b5060ff6003613e0983886130da565b50015416613de2565b60018060a01b03169060405160408101908082106001600160401b03831117610f4b57613ea1916040526020938482527f5361666545524332303a206c6f772d6c6576656c2063616c6c206661696c6564858301526000808587829751910182855af13d15613f3e573d91613e86836132de565b92613e9460405194856131b3565b83523d868885013e613f97565b805191821591848315613f13575b505050905015613ebc5750565b6084906040519062461bcd60e51b82526004820152602a60248201527f5361666545524332303a204552433230206f7065726174696f6e20646964206e6044820152691bdd081cdd58d8d9595960b21b6064820152fd5b919381809450010312613f3a57820151908115158203613f37575080388084613eaf565b80fd5b5080fd5b606091613f97565b8115613f90578180821115613f8057613f5e91613787565b905b6127109182810292818404149015171561328c57613f7d916132a2565b90565b90613f8a91613787565b90613f60565b5050600090565b91929015613ff95750815115613fab575090565b3b15613fb45790565b60405162461bcd60e51b815260206004820152601d60248201527f416464726573733a2063616c6c20746f206e6f6e2d636f6e74726163740000006044820152606490fd5b82519091501561400c5750805190602001fd5b60405162461bcd60e51b81526020600482015290819061403090602483019061308d565b0390fdfea2646970667358221220c26a5537bf659a9547a3db42769e16628443b2b28edc5e2c9e0161f755aa688c64736f6c63430008180033","opcodes":"PUSH1 0x80 CALLVALUE PUSH3 0x13C JUMPI PUSH1 0x1F PUSH3 0x41C2 CODESIZE DUP2 SWAP1 SUB SWAP2 DUP3 ADD PUSH1 0x1F NOT AND DUP4 ADD SWAP2 PUSH1 0x1 PUSH1 0x1 PUSH1 0x40 SHL SUB DUP4 GT DUP5 DUP5 LT OR PUSH3 0x141 JUMPI DUP1 DUP5 SWAP3 PUSH1 0x20 SWAP5 PUSH1 0x40 MSTORE DUP4 CODECOPY DUP2 ADD SUB SLT PUSH3 0x13C JUMPI MLOAD PUSH1 0x1 PUSH1 0x1 PUSH1 0xA0 SHL SUB DUP1 DUP3 AND SWAP2 DUP3 SWAP1 SUB PUSH3 0x13C JUMPI PUSH1 0x1 PUSH1 0x0 SSTORE PUSH1 0x1 SLOAD PUSH1 0x40 MLOAD SWAP2 CALLER SWAP1 DUP3 AND PUSH32 0x8BE0079C531659141344CD1FD0A4F28419497F9722A3DAAFE3B4186F6B6457E0 PUSH1 0x0 DUP1 LOG3 PUSH1 0x1 PUSH1 0x1 PUSH1 0xA8 SHL SUB NOT AND CALLER PUSH1 0xFF PUSH1 0xA0 SHL NOT AND OR PUSH1 0x1 SSTORE PUSH2 0x1F4 PUSH1 0x3 SSTORE PUSH2 0x5DC PUSH1 0x4 SSTORE PUSH4 0x5F5E100 PUSH1 0x5 SSTORE PUSH3 0x93A80 PUSH1 0x6 SSTORE PUSH1 0x2 PUSH1 0xA SSTORE PUSH2 0xE10 PUSH1 0x19 SSTORE PUSH2 0x708 PUSH1 0x1A SSTORE DUP2 ISZERO PUSH3 0xFA JUMPI POP PUSH1 0x2 DUP1 SLOAD PUSH1 0x1 PUSH1 0x1 PUSH1 0xA0 SHL SUB NOT AND SWAP2 SWAP1 SWAP2 OR SWAP1 SSTORE PUSH1 0x40 MLOAD PUSH2 0x406A SWAP1 DUP2 PUSH3 0x158 DUP3 CODECOPY RETURN JUMPDEST PUSH3 0x461BCD PUSH1 0xE5 SHL DUP2 MSTORE PUSH1 0x20 PUSH1 0x4 DUP3 ADD MSTORE PUSH1 0x15 PUSH1 0x24 DUP3 ADD MSTORE PUSH32 0x496E76616C696420746F6B656E20616464726573730000000000000000000000 PUSH1 0x44 DUP3 ADD MSTORE PUSH1 0x64 SWAP1 REVERT JUMPDEST PUSH1 0x0 DUP1 REVERT JUMPDEST PUSH4 0x4E487B71 PUSH1 0xE0 SHL PUSH1 0x0 MSTORE PUSH1 0x41 PUSH1 0x4 MSTORE PUSH1 0x24 PUSH1 0x0 REVERT INVALID PUSH1 0x80 PUSH1 0x40 MSTORE PUSH1 0x4 CALLDATASIZE LT ISZERO PUSH2 0x12 JUMPI PUSH1 0x0 DUP1 REVERT JUMPDEST PUSH1 0x0 CALLDATALOAD PUSH1 0xE0 SHR DUP1 PUSH4 0x59378EA EQ PUSH2 0x2B3C JUMPI DUP1 PUSH4 0xEBAC45A EQ PUSH2 0x2B09 JUMPI DUP1 PUSH4 0xF0DA719 EQ PUSH2 0x2ACF JUMPI DUP1 PUSH4 0xF43A677 EQ PUSH2 0x2AB1 JUMPI DUP1 PUSH4 0xFB6D805 EQ PUSH2 0x2A6A JUMPI DUP1 PUSH4 0x164E68DE EQ PUSH2 0x29B1 JUMPI DUP1 PUSH4 0x16C53CED EQ PUSH2 0x2849 JUMPI DUP1 PUSH4 0x1BF6912D EQ PUSH2 0x26FA JUMPI DUP1 PUSH4 0x1D65E77E EQ PUSH2 0x24FA JUMPI DUP1 PUSH4 0x1DD73E0D EQ PUSH2 0x2197 JUMPI DUP1 PUSH4 0x1ED5C43C EQ PUSH2 0x215D JUMPI DUP1 PUSH4 0x2B52D8C3 EQ PUSH2 0x2058 JUMPI DUP1 PUSH4 0x2E44085D EQ PUSH2 0x203A JUMPI DUP1 PUSH4 0x32E540E9 EQ PUSH2 0x2014 JUMPI DUP1 PUSH4 0x39388006 EQ PUSH2 0x1FDA JUMPI DUP1 PUSH4 0x3C9A6BF3 EQ PUSH2 0x1F6C JUMPI DUP1 PUSH4 0x3F422EF3 EQ PUSH2 0x1E90 JUMPI DUP1 PUSH4 0x3F4BA83A EQ PUSH2 0x1DF4 JUMPI DUP1 PUSH4 0x40A141FF EQ PUSH2 0x1D64 JUMPI DUP1 PUSH4 0x483B4039 EQ PUSH2 0x1D46 JUMPI DUP1 PUSH4 0x4D238C8E EQ PUSH2 0x1C0B JUMPI DUP1 PUSH4 0x53EEA875 EQ PUSH2 0x1B72 JUMPI DUP1 PUSH4 0x5C975ABB EQ PUSH2 0x1B4C JUMPI DUP1 PUSH4 0x62ECC47A EQ PUSH2 0x19C2 JUMPI DUP1 PUSH4 0x65617A35 EQ PUSH2 0x19A2 JUMPI DUP1 PUSH4 0x680038C7 EQ PUSH2 0x1984 JUMPI DUP1 PUSH4 0x68A7F826 EQ PUSH2 0x1530 JUMPI DUP1 PUSH4 0x715018A6 EQ PUSH2 0x14D3 JUMPI DUP1 PUSH4 0x77AD68DA EQ PUSH2 0x14A0 JUMPI DUP1 PUSH4 0x7BE24CB8 EQ PUSH2 0x1474 JUMPI DUP1 PUSH4 0x7CA0AD2D EQ PUSH2 0x1428 JUMPI DUP1 PUSH4 0x7EEC20A8 EQ PUSH2 0x12AE JUMPI DUP1 PUSH4 0x8456CB59 EQ PUSH2 0x124C JUMPI DUP1 PUSH4 0x88488C33 EQ PUSH2 0x1072 JUMPI DUP1 PUSH4 0x8C0DD79A EQ PUSH2 0xBF5 JUMPI DUP1 PUSH4 0x8D977672 EQ PUSH2 0xB13 JUMPI DUP1 PUSH4 0x8DA5CB5B EQ PUSH2 0xAEA JUMPI DUP1 PUSH4 0x9003ADFE EQ PUSH2 0xACC JUMPI DUP1 PUSH4 0x927FEF2E EQ PUSH2 0xA3A JUMPI DUP1 PUSH4 0x9D7EEA9F EQ PUSH2 0x9FB JUMPI DUP1 PUSH4 0xAC64C822 EQ PUSH2 0x9A9 JUMPI DUP1 PUSH4 0xB46E7424 EQ PUSH2 0x976 JUMPI DUP1 PUSH4 0xB73C6CE9 EQ PUSH2 0x8B3 JUMPI DUP1 PUSH4 0xB7EE5EDA EQ PUSH2 0x57C JUMPI DUP1 PUSH4 0xC0BE15EC EQ PUSH2 0x55E JUMPI DUP1 PUSH4 0xCA7B64BB EQ PUSH2 0x53E JUMPI DUP1 PUSH4 0xD1270485 EQ PUSH2 0x4E2 JUMPI DUP1 PUSH4 0xD22C81E5 EQ PUSH2 0x4C4 JUMPI DUP1 PUSH4 0xD65314B3 EQ PUSH2 0x454 JUMPI DUP1 PUSH4 0xDFC75372 EQ PUSH2 0x436 JUMPI DUP1 PUSH4 0xEECA08F0 EQ PUSH2 0x418 JUMPI DUP1 PUSH4 0xF0992C97 EQ PUSH2 0x3FA JUMPI DUP1 PUSH4 0xF2FDE38B EQ PUSH2 0x336 JUMPI DUP1 PUSH4 0xF3F43703 EQ PUSH2 0x2FC JUMPI DUP1 PUSH4 0xF70B5C06 EQ PUSH2 0x2D3 JUMPI DUP1 PUSH4 0xFA52C7D8 EQ PUSH2 0x28F JUMPI PUSH4 0xFACD743B EQ PUSH2 0x28F JUMPI PUSH1 0x0 DUP1 REVERT JUMPDEST CALLVALUE PUSH2 0x2CE JUMPI PUSH1 0x20 CALLDATASIZE PUSH1 0x3 NOT ADD SLT PUSH2 0x2CE JUMPI PUSH1 0x1 PUSH1 0x1 PUSH1 0xA0 SHL SUB PUSH2 0x2B0 PUSH2 0x304D JUMP JUMPDEST AND PUSH1 0x0 MSTORE PUSH1 0x8 PUSH1 0x20 MSTORE PUSH1 0x20 PUSH1 0xFF PUSH1 0x40 PUSH1 0x0 KECCAK256 SLOAD AND PUSH1 0x40 MLOAD SWAP1 ISZERO ISZERO DUP2 MSTORE RETURN JUMPDEST PUSH1 0x0 DUP1 REVERT JUMPDEST CALLVALUE PUSH2 0x2CE JUMPI PUSH1 0x0 CALLDATASIZE PUSH1 0x3 NOT ADD SLT PUSH2 0x2CE JUMPI PUSH1 0x2 SLOAD PUSH1 0x40 MLOAD PUSH1 0x1 PUSH1 0x1 PUSH1 0xA0 SHL SUB SWAP1 SWAP2 AND DUP2 MSTORE PUSH1 0x20 SWAP1 RETURN JUMPDEST CALLVALUE PUSH2 0x2CE JUMPI PUSH1 0x20 CALLDATASIZE PUSH1 0x3 NOT ADD SLT PUSH2 0x2CE JUMPI PUSH1 0x1 PUSH1 0x1 PUSH1 0xA0 SHL SUB PUSH2 0x31D PUSH2 0x304D JUMP JUMPDEST AND PUSH1 0x0 MSTORE PUSH1 0x12 PUSH1 0x20 MSTORE PUSH1 0x20 PUSH1 0x40 PUSH1 0x0 KECCAK256 SLOAD PUSH1 0x40 MLOAD SWAP1 DUP2 MSTORE RETURN JUMPDEST CALLVALUE PUSH2 0x2CE JUMPI PUSH1 0x20 CALLDATASIZE PUSH1 0x3 NOT ADD SLT PUSH2 0x2CE JUMPI PUSH2 0x34F PUSH2 0x304D JUMP JUMPDEST PUSH2 0x357 PUSH2 0x36AB JUMP JUMPDEST PUSH1 0x1 PUSH1 0x1 PUSH1 0xA0 SHL SUB SWAP1 DUP2 AND SWAP1 DUP2 ISZERO PUSH2 0x3A6 JUMPI PUSH1 0x1 SLOAD DUP3 PUSH1 0x1 PUSH1 0x1 PUSH1 0x60 SHL SUB PUSH1 0xA0 SHL DUP3 AND OR PUSH1 0x1 SSTORE AND PUSH32 0x8BE0079C531659141344CD1FD0A4F28419497F9722A3DAAFE3B4186F6B6457E0 PUSH1 0x0 DUP1 LOG3 STOP JUMPDEST PUSH1 0x40 MLOAD PUSH3 0x461BCD PUSH1 0xE5 SHL DUP2 MSTORE PUSH1 0x20 PUSH1 0x4 DUP3 ADD MSTORE PUSH1 0x26 PUSH1 0x24 DUP3 ADD MSTORE PUSH32 0x4F776E61626C653A206E6577206F776E657220697320746865207A65726F2061 PUSH1 0x44 DUP3 ADD MSTORE PUSH6 0x646472657373 PUSH1 0xD0 SHL PUSH1 0x64 DUP3 ADD MSTORE PUSH1 0x84 SWAP1 REVERT JUMPDEST CALLVALUE PUSH2 0x2CE JUMPI PUSH1 0x0 CALLDATASIZE PUSH1 0x3 NOT ADD SLT PUSH2 0x2CE JUMPI PUSH1 0x20 PUSH1 0x5 SLOAD PUSH1 0x40 MLOAD SWAP1 DUP2 MSTORE RETURN JUMPDEST CALLVALUE PUSH2 0x2CE JUMPI PUSH1 0x0 CALLDATASIZE PUSH1 0x3 NOT ADD SLT PUSH2 0x2CE JUMPI PUSH1 0x20 PUSH1 0x3 SLOAD PUSH1 0x40 MLOAD SWAP1 DUP2 MSTORE RETURN JUMPDEST CALLVALUE PUSH2 0x2CE JUMPI PUSH1 0x0 CALLDATASIZE PUSH1 0x3 NOT ADD SLT PUSH2 0x2CE JUMPI PUSH1 0x20 PUSH1 0x1A SLOAD PUSH1 0x40 MLOAD SWAP1 DUP2 MSTORE RETURN JUMPDEST CALLVALUE PUSH2 0x2CE JUMPI PUSH1 0x40 PUSH2 0x464 CALLDATASIZE PUSH2 0x3063 JUMP JUMPDEST DUP3 PUSH1 0x0 MSTORE PUSH1 0x20 SWAP2 PUSH1 0xE DUP4 MSTORE DUP5 PUSH1 0x0 KECCAK256 DUP2 PUSH1 0x0 MSTORE DUP4 MSTORE DUP5 PUSH1 0x0 KECCAK256 SWAP2 PUSH1 0x1 DUP1 PUSH1 0xA0 SHL SUB AND SWAP2 DUP3 PUSH1 0x0 MSTORE DUP4 MSTORE PUSH1 0xFF DUP6 PUSH1 0x0 KECCAK256 SLOAD AND SWAP4 PUSH1 0x0 MSTORE PUSH1 0xD DUP4 MSTORE DUP5 PUSH1 0x0 KECCAK256 SWAP1 PUSH1 0x0 MSTORE DUP3 MSTORE DUP4 PUSH1 0x0 KECCAK256 SWAP1 PUSH1 0x0 MSTORE DUP2 MSTORE DUP3 PUSH1 0x0 KECCAK256 SLOAD SWAP2 DUP4 MLOAD SWAP3 DUP4 MSTORE ISZERO ISZERO SWAP1 DUP3 ADD MSTORE RETURN JUMPDEST CALLVALUE PUSH2 0x2CE JUMPI PUSH1 0x0 CALLDATASIZE PUSH1 0x3 NOT ADD SLT PUSH2 0x2CE JUMPI PUSH1 0x20 PUSH1 0x7 SLOAD PUSH1 0x40 MLOAD SWAP1 DUP2 MSTORE RETURN JUMPDEST CALLVALUE PUSH2 0x2CE JUMPI PUSH1 0x20 CALLDATASIZE PUSH1 0x3 NOT ADD SLT PUSH2 0x2CE JUMPI PUSH1 0x1 PUSH1 0x1 PUSH1 0xA0 SHL SUB PUSH2 0x503 PUSH2 0x304D JUMP JUMPDEST AND PUSH1 0x0 MSTORE PUSH1 0x13 PUSH1 0x20 MSTORE PUSH1 0x80 PUSH1 0x40 PUSH1 0x0 KECCAK256 DUP1 SLOAD SWAP1 PUSH1 0x1 DUP2 ADD SLOAD SWAP1 PUSH1 0x3 PUSH1 0x2 DUP3 ADD SLOAD SWAP2 ADD SLOAD SWAP2 PUSH1 0x40 MLOAD SWAP4 DUP5 MSTORE PUSH1 0x20 DUP5 ADD MSTORE PUSH1 0x40 DUP4 ADD MSTORE PUSH1 0x60 DUP3 ADD MSTORE RETURN JUMPDEST CALLVALUE PUSH2 0x2CE JUMPI PUSH1 0x0 CALLDATASIZE PUSH1 0x3 NOT ADD SLT PUSH2 0x2CE JUMPI PUSH1 0x20 PUSH1 0x40 MLOAD PUSH5 0x174876E800 DUP2 MSTORE RETURN JUMPDEST CALLVALUE PUSH2 0x2CE JUMPI PUSH1 0x0 CALLDATASIZE PUSH1 0x3 NOT ADD SLT PUSH2 0x2CE JUMPI PUSH1 0x20 PUSH1 0x6 SLOAD PUSH1 0x40 MLOAD SWAP1 DUP2 MSTORE RETURN JUMPDEST CALLVALUE PUSH2 0x2CE JUMPI PUSH1 0x60 CALLDATASIZE PUSH1 0x3 NOT ADD SLT PUSH2 0x2CE JUMPI PUSH1 0x4 CALLDATALOAD PUSH1 0x24 CALLDATALOAD PUSH1 0x44 CALLDATALOAD CALLER PUSH1 0x0 MSTORE PUSH1 0x20 SWAP2 PUSH1 0x8 DUP4 MSTORE PUSH2 0x5B2 PUSH1 0xFF PUSH1 0x40 PUSH1 0x0 KECCAK256 SLOAD AND PUSH2 0x341E JUMP JUMPDEST DUP4 ISZERO ISZERO DUP1 PUSH2 0x89D JUMPI JUMPDEST PUSH2 0x5C4 SWAP1 PUSH2 0x33A6 JUMP JUMPDEST PUSH2 0x5CC PUSH2 0x3664 JUMP JUMPDEST DUP4 PUSH1 0x0 MSTORE PUSH1 0xB DUP4 MSTORE PUSH1 0x40 PUSH1 0x0 KECCAK256 SWAP3 PUSH1 0xFF PUSH1 0x7 DUP6 ADD SLOAD AND PUSH1 0x7 DUP2 LT ISZERO PUSH2 0x887 JUMPI DUP1 PUSH1 0x2 PUSH2 0x601 SWAP3 EQ SWAP1 DUP2 ISZERO PUSH2 0x87C JUMPI JUMPDEST POP PUSH2 0x345C JUMP JUMPDEST DUP5 PUSH1 0x0 MSTORE PUSH1 0xC DUP2 MSTORE PUSH2 0x619 PUSH1 0x40 PUSH1 0x0 KECCAK256 SLOAD DUP4 LT PUSH2 0x34A8 JUMP JUMPDEST PUSH2 0x627 PUSH2 0x2710 DUP5 GT ISZERO PUSH2 0x3577 JUMP JUMPDEST DUP5 PUSH1 0x0 MSTORE PUSH1 0xE DUP2 MSTORE PUSH1 0x40 PUSH1 0x0 KECCAK256 DUP3 PUSH1 0x0 MSTORE DUP2 MSTORE PUSH1 0x40 PUSH1 0x0 KECCAK256 CALLER PUSH1 0x0 MSTORE DUP2 MSTORE PUSH1 0xFF PUSH1 0x40 PUSH1 0x0 KECCAK256 SLOAD AND PUSH2 0x827 JUMPI DUP5 PUSH1 0x0 MSTORE PUSH1 0xC DUP2 MSTORE PUSH2 0x668 DUP3 PUSH1 0x40 PUSH1 0x0 KECCAK256 PUSH2 0x30DA JUMP JUMPDEST POP SWAP3 PUSH1 0x3 DUP5 ADD SWAP5 PUSH1 0xFF DUP7 SLOAD AND PUSH2 0x7E4 JUMPI DUP7 PUSH1 0x0 MSTORE PUSH1 0xD DUP4 MSTORE PUSH1 0x40 PUSH1 0x0 KECCAK256 DUP5 PUSH1 0x0 MSTORE DUP4 MSTORE PUSH1 0x40 PUSH1 0x0 KECCAK256 CALLER PUSH1 0x0 MSTORE DUP4 MSTORE DUP2 PUSH1 0x40 PUSH1 0x0 KECCAK256 SSTORE DUP7 PUSH1 0x0 MSTORE PUSH1 0xE DUP4 MSTORE PUSH1 0x40 PUSH1 0x0 KECCAK256 DUP5 PUSH1 0x0 MSTORE DUP4 MSTORE PUSH1 0x40 PUSH1 0x0 KECCAK256 CALLER PUSH1 0x0 MSTORE DUP4 MSTORE PUSH1 0x40 PUSH1 0x0 KECCAK256 SWAP5 PUSH1 0xFF NOT SWAP6 PUSH1 0x1 DUP8 DUP3 SLOAD AND OR SWAP1 SSTORE DUP8 PUSH1 0x0 MSTORE PUSH1 0x1C DUP5 MSTORE PUSH1 0x40 PUSH1 0x0 KECCAK256 DUP6 PUSH1 0x0 MSTORE DUP5 MSTORE PUSH2 0x6EF CALLER PUSH1 0x40 PUSH1 0x0 KECCAK256 PUSH2 0x35D3 JUMP JUMPDEST PUSH1 0x5 DUP2 ADD SWAP3 PUSH2 0x6FE DUP5 SLOAD PUSH2 0x32CF JUMP JUMPDEST SWAP5 DUP6 DUP6 SSTORE DUP10 PUSH32 0x424E5AD88B2ACCC1579E610100B12E0F295D8C9E0B02ABB61AD1E413E3D63D02 PUSH1 0x40 PUSH1 0x1 DUP1 PUSH1 0xA0 SHL SUB SWAP5 DUP6 DUP8 SLOAD AND SWAP5 DUP3 MLOAD SWAP2 DUP3 MSTORE CALLER SWAP1 DUP3 ADD MSTORE LOG3 PUSH1 0xA SLOAD DUP6 LT ISZERO PUSH2 0x74A JUMPI STOP JUMPDEST PUSH32 0xFF2FC693BB2D4A09F21F0C403FCE5ECB4B5B0B57E81C7253DEB5386BB8A8AE77 SWAP8 PUSH1 0x1 PUSH2 0x77C PUSH2 0x7BB SWAP8 DUP10 DUP14 PUSH2 0x3794 JUMP JUMPDEST SWAP9 DUP10 PUSH1 0x2 DUP7 ADD SSTORE DUP3 SLOAD AND OR SWAP1 SSTORE PUSH1 0x9 DUP4 ADD SWAP2 DUP8 DUP4 SLOAD DUP2 GT PUSH2 0x7C0 JUMPI JUMPDEST POP POP POP POP POP SLOAD PUSH1 0x40 MLOAD SWAP4 DUP5 SWAP4 DUP5 PUSH1 0x40 SWAP2 SWAP5 SWAP4 SWAP3 PUSH1 0x60 DUP3 ADD SWAP6 DUP3 MSTORE PUSH1 0x20 DUP3 ADD MSTORE ADD MSTORE JUMP JUMPDEST SUB SWAP1 LOG2 STOP JUMPDEST PUSH1 0x8 SWAP4 SSTORE SLOAD AND SWAP2 ADD SWAP1 PUSH1 0x1 PUSH1 0x1 PUSH1 0x60 SHL SUB PUSH1 0xA0 SHL DUP3 SLOAD AND OR SWAP1 SSTORE DUP7 DUP1 DUP1 DUP1 DUP8 PUSH2 0x798 JUMP JUMPDEST PUSH1 0x64 DUP4 PUSH1 0x40 MLOAD SWAP1 PUSH3 0x461BCD PUSH1 0xE5 SHL DUP3 MSTORE DUP1 PUSH1 0x4 DUP4 ADD MSTORE PUSH1 0x24 DUP3 ADD MSTORE PUSH32 0x5375626D697373696F6E20616C72656164792068617320636F6E73656E737573 PUSH1 0x44 DUP3 ADD MSTORE REVERT JUMPDEST PUSH1 0x84 SWAP1 PUSH1 0x40 MLOAD SWAP1 PUSH3 0x461BCD PUSH1 0xE5 SHL DUP3 MSTORE PUSH1 0x4 DUP3 ADD MSTORE PUSH1 0x28 PUSH1 0x24 DUP3 ADD MSTORE PUSH32 0x56616C696461746F7220616C72656164792073636F7265642074686973207375 PUSH1 0x44 DUP3 ADD MSTORE PUSH8 0x3136B4B9B9B4B7B7 PUSH1 0xC1 SHL PUSH1 0x64 DUP3 ADD MSTORE REVERT JUMPDEST PUSH1 0x1 SWAP2 POP EQ DUP8 PUSH2 0x5FB JUMP JUMPDEST PUSH4 0x4E487B71 PUSH1 0xE0 SHL PUSH1 0x0 MSTORE PUSH1 0x21 PUSH1 0x4 MSTORE PUSH1 0x24 PUSH1 0x0 REVERT JUMPDEST POP PUSH1 0x0 DUP5 DUP2 MSTORE PUSH1 0xB DUP5 MSTORE PUSH1 0x40 SWAP1 KECCAK256 SLOAD DUP5 EQ PUSH2 0x5BB JUMP JUMPDEST CALLVALUE PUSH2 0x2CE JUMPI PUSH1 0x0 CALLDATASIZE PUSH1 0x3 NOT ADD SLT PUSH2 0x2CE JUMPI PUSH2 0x8CC PUSH2 0x360E JUMP JUMPDEST CALLER PUSH1 0x0 MSTORE PUSH1 0x12 PUSH1 0x20 MSTORE PUSH1 0x40 PUSH1 0x0 KECCAK256 SLOAD DUP1 ISZERO PUSH2 0x93B JUMPI PUSH2 0x934 SWAP1 CALLER PUSH1 0x0 MSTORE PUSH1 0x12 PUSH1 0x20 MSTORE PUSH1 0x0 PUSH1 0x40 DUP2 KECCAK256 SSTORE PUSH1 0x40 MLOAD DUP2 DUP2 MSTORE PUSH32 0x48DC35AF7B45E2A81FFFAD55F6E2FAFACDB1D3D0D50D24EBDC16324F5BA757F1 PUSH1 0x20 CALLER SWAP3 LOG2 PUSH1 0x2 SLOAD CALLER SWAP1 PUSH1 0x1 PUSH1 0x1 PUSH1 0xA0 SHL SUB AND PUSH2 0x3703 JUMP JUMPDEST PUSH1 0x1 PUSH1 0x0 SSTORE STOP JUMPDEST PUSH1 0x40 MLOAD PUSH3 0x461BCD PUSH1 0xE5 SHL DUP2 MSTORE PUSH1 0x20 PUSH1 0x4 DUP3 ADD MSTORE PUSH1 0x13 PUSH1 0x24 DUP3 ADD MSTORE PUSH19 0x4E6F2070656E64696E67206561726E696E6773 PUSH1 0x68 SHL PUSH1 0x44 DUP3 ADD MSTORE PUSH1 0x64 SWAP1 REVERT JUMPDEST CALLVALUE PUSH2 0x2CE JUMPI PUSH2 0x984 CALLDATASIZE PUSH2 0x3037 JUMP JUMPDEST SWAP1 PUSH1 0x0 MSTORE PUSH1 0x18 PUSH1 0x20 MSTORE PUSH1 0x40 PUSH1 0x0 KECCAK256 SWAP1 PUSH1 0x0 MSTORE PUSH1 0x20 MSTORE PUSH1 0x20 PUSH1 0x40 PUSH1 0x0 KECCAK256 SLOAD PUSH1 0x40 MLOAD SWAP1 DUP2 MSTORE RETURN JUMPDEST CALLVALUE PUSH2 0x2CE JUMPI PUSH1 0x40 CALLDATASIZE PUSH1 0x3 NOT ADD SLT PUSH2 0x2CE JUMPI PUSH1 0x24 CALLDATALOAD PUSH1 0x1 PUSH1 0x1 PUSH1 0xA0 SHL SUB DUP2 AND SWAP1 DUP2 SWAP1 SUB PUSH2 0x2CE JUMPI PUSH1 0x4 CALLDATALOAD PUSH1 0x0 MSTORE PUSH1 0x14 PUSH1 0x20 MSTORE PUSH1 0x40 PUSH1 0x0 KECCAK256 SWAP1 PUSH1 0x0 MSTORE PUSH1 0x20 MSTORE PUSH1 0x20 PUSH1 0xFF PUSH1 0x40 PUSH1 0x0 KECCAK256 SLOAD AND PUSH1 0x40 MLOAD SWAP1 ISZERO ISZERO DUP2 MSTORE RETURN JUMPDEST CALLVALUE PUSH2 0x2CE JUMPI PUSH1 0x40 CALLDATASIZE PUSH1 0x3 NOT ADD SLT PUSH2 0x2CE JUMPI PUSH1 0x20 PUSH1 0x40 MLOAD DUP2 DUP2 ADD SWAP1 PUSH1 0x4 CALLDATALOAD DUP3 MSTORE PUSH1 0x24 CALLDATALOAD PUSH1 0x40 DUP3 ADD MSTORE PUSH1 0x40 DUP2 MSTORE PUSH2 0xA2F DUP2 PUSH2 0x3198 JUMP JUMPDEST MLOAD SWAP1 KECCAK256 PUSH1 0x40 MLOAD SWAP1 DUP2 MSTORE RETURN JUMPDEST CALLVALUE PUSH2 0x2CE JUMPI PUSH1 0x20 CALLDATASIZE PUSH1 0x3 NOT ADD SLT PUSH2 0x2CE JUMPI PUSH1 0x4 CALLDATALOAD PUSH2 0xA56 PUSH2 0x36AB JUMP JUMPDEST PUSH2 0x3E8 DUP2 GT PUSH2 0xA98 JUMPI PUSH1 0x40 PUSH32 0xD347E206F25A89B917FC9482F1A2D294D749BAA4DC9BDE7FB495EE11FE491643 SWAP2 PUSH1 0x3 SLOAD SWAP1 DUP1 PUSH1 0x3 SSTORE DUP3 MLOAD SWAP2 DUP3 MSTORE PUSH1 0x20 DUP3 ADD MSTORE LOG1 STOP JUMPDEST PUSH1 0x40 MLOAD PUSH3 0x461BCD PUSH1 0xE5 SHL DUP2 MSTORE PUSH1 0x20 PUSH1 0x4 DUP3 ADD MSTORE PUSH1 0xC PUSH1 0x24 DUP3 ADD MSTORE PUSH12 0x8CCACA40E8DEDE40D0D2CED PUSH1 0xA3 SHL PUSH1 0x44 DUP3 ADD MSTORE PUSH1 0x64 SWAP1 REVERT JUMPDEST CALLVALUE PUSH2 0x2CE JUMPI PUSH1 0x0 CALLDATASIZE PUSH1 0x3 NOT ADD SLT PUSH2 0x2CE JUMPI PUSH1 0x20 PUSH1 0x15 SLOAD PUSH1 0x40 MLOAD SWAP1 DUP2 MSTORE RETURN JUMPDEST CALLVALUE PUSH2 0x2CE JUMPI PUSH1 0x0 CALLDATASIZE PUSH1 0x3 NOT ADD SLT PUSH2 0x2CE JUMPI PUSH1 0x1 SLOAD PUSH1 0x40 MLOAD PUSH1 0x1 PUSH1 0x1 PUSH1 0xA0 SHL SUB SWAP1 SWAP2 AND DUP2 MSTORE PUSH1 0x20 SWAP1 RETURN JUMPDEST CALLVALUE PUSH2 0x2CE JUMPI PUSH1 0x20 CALLDATASIZE PUSH1 0x3 NOT ADD SLT PUSH2 0x2CE JUMPI PUSH1 0x4 CALLDATALOAD PUSH1 0x0 MSTORE PUSH1 0xB PUSH1 0x20 MSTORE PUSH1 0x40 PUSH1 0x0 KECCAK256 PUSH1 0x40 DUP2 SLOAD SWAP2 PUSH1 0x1 DUP1 PUSH1 0xA0 SHL SUB SWAP1 DUP2 PUSH1 0x1 DUP3 ADD SLOAD AND SWAP1 PUSH2 0xB55 PUSH1 0x2 DUP3 ADD PUSH2 0x31D4 JUMP JUMPDEST PUSH1 0x3 DUP3 ADD SLOAD SWAP4 PUSH1 0x4 DUP4 ADD SLOAD SWAP1 PUSH1 0x5 DUP5 ADD SLOAD PUSH1 0x6 DUP6 ADD SLOAD PUSH1 0x7 DUP7 ADD SLOAD SWAP2 DUP4 PUSH1 0x8 DUP9 ADD SLOAD AND SWAP5 PUSH2 0xBAA PUSH1 0x9 DUP10 ADD SLOAD SWAP8 PUSH1 0xB PUSH1 0xA DUP12 ADD SLOAD SWAP11 ADD SLOAD SWAP11 DUP14 MLOAD SWAP15 DUP16 SWAP15 DUP16 PUSH2 0x1A0 SWAP4 DUP5 SWAP4 DUP3 MSTORE PUSH1 0x20 DUP3 ADD MSTORE ADD MSTORE DUP14 ADD SWAP1 PUSH2 0x308D JUMP JUMPDEST SWAP10 PUSH1 0x60 DUP13 ADD MSTORE PUSH1 0x80 DUP12 ADD MSTORE PUSH1 0xA0 DUP11 ADD MSTORE PUSH1 0xC0 DUP10 ADD MSTORE PUSH2 0xBCF PUSH1 0xE0 DUP10 ADD PUSH1 0xFF DUP4 AND PUSH2 0x30CD JUMP JUMPDEST PUSH1 0x8 SHR AND PUSH2 0x100 DUP8 ADD MSTORE PUSH2 0x120 DUP7 ADD MSTORE PUSH2 0x140 DUP6 ADD MSTORE PUSH2 0x160 DUP5 ADD MSTORE PUSH2 0x180 DUP4 ADD MSTORE SUB SWAP1 RETURN JUMPDEST CALLVALUE PUSH2 0x2CE JUMPI PUSH1 0x40 CALLDATASIZE PUSH1 0x3 NOT ADD SLT PUSH2 0x2CE JUMPI PUSH1 0x1 PUSH1 0x1 PUSH1 0x40 SHL SUB PUSH1 0x24 CALLDATALOAD DUP2 DUP2 GT PUSH2 0x2CE JUMPI PUSH2 0xC26 SWAP1 CALLDATASIZE SWAP1 PUSH1 0x4 ADD PUSH2 0x300A JUMP JUMPDEST SWAP1 SWAP2 PUSH1 0x4 CALLDATALOAD ISZERO ISZERO DUP1 PUSH2 0x1059 JUMPI JUMPDEST PUSH2 0xC3C SWAP1 PUSH2 0x33A6 JUMP JUMPDEST PUSH2 0xC44 PUSH2 0x3664 JUMP JUMPDEST PUSH1 0x4 CALLDATALOAD PUSH1 0x0 MSTORE PUSH1 0xB PUSH1 0x20 MSTORE PUSH1 0x40 PUSH1 0x0 KECCAK256 SWAP1 PUSH1 0xFF PUSH1 0x7 DUP4 ADD SLOAD AND PUSH1 0x7 DUP2 LT ISZERO SWAP1 DUP2 PUSH2 0x887 JUMPI DUP1 ISZERO SWAP2 DUP3 ISZERO PUSH2 0x104B JUMPI JUMPDEST DUP3 ISZERO PUSH2 0x103A JUMPI JUMPDEST POP POP ISZERO PUSH2 0xFF5 JUMPI PUSH2 0xC8F PUSH1 0x6 DUP4 ADD SLOAD TIMESTAMP LT PUSH2 0x33E3 JUMP JUMPDEST DUP3 ISZERO PUSH2 0xFBC JUMPI PUSH1 0x4 CALLDATALOAD PUSH1 0x0 MSTORE PUSH1 0x14 PUSH1 0x20 MSTORE PUSH1 0x40 PUSH1 0x0 KECCAK256 CALLER PUSH1 0x0 MSTORE PUSH1 0x20 MSTORE PUSH1 0xFF PUSH1 0x40 PUSH1 0x0 KECCAK256 SLOAD AND PUSH2 0xF77 JUMPI PUSH1 0x4 CALLDATALOAD PUSH1 0x0 MSTORE PUSH1 0x14 PUSH1 0x20 MSTORE PUSH1 0x40 PUSH1 0x0 KECCAK256 CALLER PUSH1 0x0 MSTORE PUSH1 0x20 MSTORE PUSH1 0x40 PUSH1 0x0 KECCAK256 PUSH1 0x1 PUSH1 0xFF NOT DUP3 SLOAD AND OR SWAP1 SSTORE PUSH1 0x4 CALLDATALOAD PUSH1 0x0 MSTORE PUSH1 0xC PUSH1 0x20 MSTORE PUSH1 0x40 PUSH1 0x0 KECCAK256 SWAP1 PUSH1 0x40 MLOAD SWAP1 PUSH2 0xCFE DUP3 PUSH2 0x3162 JUMP JUMPDEST CALLER DUP3 MSTORE PUSH2 0xD0C CALLDATASIZE DUP7 DUP9 PUSH2 0x32F9 JUMP JUMPDEST SWAP3 PUSH1 0x20 DUP4 ADD SWAP4 DUP5 MSTORE PUSH1 0x0 PUSH1 0x40 DUP5 ADD MSTORE PUSH1 0x0 PUSH1 0x60 DUP5 ADD MSTORE TIMESTAMP PUSH1 0x80 DUP5 ADD MSTORE PUSH1 0x0 PUSH1 0xA0 DUP5 ADD MSTORE DUP1 SLOAD PUSH1 0x1 PUSH1 0x40 SHL DUP2 LT ISZERO PUSH2 0xF4B JUMPI PUSH2 0xD4C SWAP2 PUSH1 0x1 DUP3 ADD DUP2 SSTORE PUSH2 0x30DA JUMP JUMPDEST SWAP4 SWAP1 SWAP4 PUSH2 0xF61 JUMPI DUP3 MLOAD DUP5 SLOAD PUSH1 0x1 PUSH1 0x1 PUSH1 0xA0 SHL SUB NOT AND PUSH1 0x1 PUSH1 0x1 PUSH1 0xA0 SHL SUB SWAP2 SWAP1 SWAP2 AND OR DUP5 SSTORE MLOAD DUP1 MLOAD SWAP2 DUP3 GT PUSH2 0xF4B JUMPI PUSH2 0xD87 PUSH1 0x1 DUP6 ADD SLOAD PUSH2 0x310C JUMP JUMPDEST PUSH1 0x1F DUP2 GT PUSH2 0xF04 JUMPI JUMPDEST POP PUSH1 0x20 SWAP1 PUSH1 0x1F DUP4 GT PUSH1 0x1 EQ PUSH2 0xE8F JUMPI SWAP2 DUP1 PUSH1 0x5 SWAP5 SWAP3 PUSH1 0xA0 SWAP5 PUSH1 0x0 SWAP3 PUSH2 0xE84 JUMPI JUMPDEST POP POP DUP2 PUSH1 0x1 SHL SWAP2 PUSH1 0x0 NOT SWAP1 PUSH1 0x3 SHL SHR NOT AND OR PUSH1 0x1 DUP6 ADD SSTORE JUMPDEST PUSH1 0x40 DUP2 ADD MLOAD PUSH1 0x2 DUP6 ADD SSTORE PUSH2 0xDF1 PUSH1 0x60 DUP3 ADD MLOAD ISZERO ISZERO PUSH1 0x3 DUP7 ADD SWAP1 PUSH1 0xFF DUP1 NOT DUP4 SLOAD AND SWAP2 ISZERO ISZERO AND OR SWAP1 SSTORE JUMP JUMPDEST PUSH1 0x80 DUP2 ADD MLOAD PUSH1 0x4 DUP6 ADD SSTORE ADD MLOAD SWAP2 ADD SSTORE PUSH1 0x7 DUP2 ADD SLOAD PUSH1 0xFF DUP2 AND PUSH1 0x7 DUP2 LT ISZERO PUSH2 0x887 JUMPI DUP1 ISZERO SWAP1 DUP2 ISZERO PUSH2 0xE79 JUMPI JUMPDEST POP PUSH2 0xE65 JUMPI JUMPDEST POP POP PUSH32 0xA3DCF7CEBCC4CF0937F4F95D95392671977BA143B4FF236240650322A106E8DC PUSH1 0x40 MLOAD PUSH1 0x20 DUP2 MSTORE DUP1 PUSH2 0xE60 CALLER SWAP6 PUSH1 0x4 CALLDATALOAD SWAP6 PUSH1 0x20 DUP5 ADD SWAP2 PUSH2 0x3330 JUMP JUMPDEST SUB SWAP1 LOG3 STOP JUMPDEST PUSH1 0x2 PUSH1 0x7 SWAP2 PUSH1 0xFF NOT AND OR SWAP2 ADD SSTORE DUP3 DUP1 PUSH2 0xE22 JUMP JUMPDEST PUSH1 0x1 SWAP2 POP EQ DUP6 PUSH2 0xE1C JUMP JUMPDEST ADD MLOAD SWAP1 POP DUP10 DUP1 PUSH2 0xDB0 JUMP JUMPDEST SWAP1 PUSH1 0x1 DUP6 ADD PUSH1 0x0 MSTORE PUSH1 0x20 PUSH1 0x0 KECCAK256 SWAP2 PUSH1 0x0 JUMPDEST PUSH1 0x1F NOT DUP6 AND DUP2 LT PUSH2 0xEEC JUMPI POP SWAP3 PUSH1 0x5 SWAP5 SWAP3 PUSH1 0x1 SWAP3 PUSH1 0xA0 SWAP6 DUP4 PUSH1 0x1F NOT DUP2 AND LT PUSH2 0xED3 JUMPI JUMPDEST POP POP POP DUP2 SHL ADD PUSH1 0x1 DUP6 ADD SSTORE PUSH2 0xDC8 JUMP JUMPDEST ADD MLOAD PUSH1 0x0 NOT PUSH1 0xF8 DUP5 PUSH1 0x3 SHL AND SHR NOT AND SWAP1 SSTORE DUP10 DUP1 DUP1 PUSH2 0xEC3 JUMP JUMPDEST SWAP2 SWAP3 PUSH1 0x20 PUSH1 0x1 DUP2 SWAP3 DUP7 DUP6 ADD MLOAD DUP2 SSTORE ADD SWAP5 ADD SWAP3 ADD PUSH2 0xEA0 JUMP JUMPDEST PUSH1 0x1 DUP6 ADD PUSH1 0x0 MSTORE PUSH1 0x20 PUSH1 0x0 KECCAK256 PUSH1 0x1F DUP5 ADD PUSH1 0x5 SHR DUP2 ADD PUSH1 0x20 DUP6 LT PUSH2 0xF44 JUMPI JUMPDEST PUSH1 0x1F DUP4 ADD PUSH1 0x5 SHR DUP3 ADD DUP2 LT PUSH2 0xF38 JUMPI POP POP PUSH2 0xD90 JUMP JUMPDEST PUSH1 0x0 DUP2 SSTORE PUSH1 0x1 ADD PUSH2 0xF22 JUMP JUMPDEST POP DUP1 PUSH2 0xF22 JUMP JUMPDEST PUSH4 0x4E487B71 PUSH1 0xE0 SHL PUSH1 0x0 MSTORE PUSH1 0x41 PUSH1 0x4 MSTORE PUSH1 0x24 PUSH1 0x0 REVERT JUMPDEST PUSH4 0x4E487B71 PUSH1 0xE0 SHL PUSH1 0x0 MSTORE PUSH1 0x0 PUSH1 0x4 MSTORE PUSH1 0x24 PUSH1 0x0 REVERT JUMPDEST PUSH1 0x40 MLOAD PUSH3 0x461BCD PUSH1 0xE5 SHL DUP2 MSTORE PUSH1 0x20 PUSH1 0x4 DUP3 ADD MSTORE PUSH1 0x17 PUSH1 0x24 DUP3 ADD MSTORE PUSH32 0x4D696E657220616C7265616479207375626D6974746564000000000000000000 PUSH1 0x44 DUP3 ADD MSTORE PUSH1 0x64 SWAP1 REVERT JUMPDEST PUSH1 0x40 MLOAD PUSH3 0x461BCD PUSH1 0xE5 SHL DUP2 MSTORE PUSH1 0x20 PUSH1 0x4 DUP3 ADD MSTORE PUSH1 0x11 PUSH1 0x24 DUP3 ADD MSTORE PUSH17 0x8ADAE0E8F240E4CAE6EAD8E840D0C2E6D PUSH1 0x7B SHL PUSH1 0x44 DUP3 ADD MSTORE PUSH1 0x64 SWAP1 REVERT JUMPDEST PUSH1 0x40 MLOAD PUSH3 0x461BCD PUSH1 0xE5 SHL DUP2 MSTORE PUSH1 0x20 PUSH1 0x4 DUP3 ADD MSTORE PUSH1 0x1A PUSH1 0x24 DUP3 ADD MSTORE PUSH32 0x43616E6E6F74207375626D697420746F2074686973207461736B000000000000 PUSH1 0x44 DUP3 ADD MSTORE PUSH1 0x64 SWAP1 REVERT JUMPDEST SWAP1 SWAP2 POP PUSH2 0x887 JUMPI PUSH1 0x2 EQ DUP6 DUP1 PUSH2 0xC79 JUMP JUMPDEST POP PUSH1 0x1 DUP2 EQ SWAP2 POP PUSH1 0x0 PUSH2 0xC72 JUMP JUMPDEST POP PUSH1 0x4 CALLDATALOAD PUSH1 0x0 DUP2 DUP2 MSTORE PUSH1 0xB PUSH1 0x20 MSTORE PUSH1 0x40 SWAP1 KECCAK256 SLOAD EQ PUSH2 0xC33 JUMP JUMPDEST CALLVALUE PUSH2 0x2CE JUMPI PUSH1 0x20 DUP1 PUSH1 0x3 NOT CALLDATASIZE ADD SLT PUSH2 0x2CE JUMPI PUSH1 0x4 CALLDATALOAD SWAP1 PUSH2 0x1090 PUSH2 0x360E JUMP JUMPDEST DUP2 ISZERO ISZERO DUP1 PUSH2 0x1236 JUMPI JUMPDEST PUSH2 0x10A2 SWAP1 PUSH2 0x33A6 JUMP JUMPDEST DUP2 PUSH1 0x0 MSTORE PUSH1 0xB DUP2 MSTORE PUSH1 0x40 PUSH1 0x0 KECCAK256 SWAP1 PUSH1 0x7 DUP3 ADD SWAP2 DUP3 SLOAD PUSH1 0xFF DUP2 AND PUSH1 0x7 DUP2 LT ISZERO PUSH2 0x887 JUMPI PUSH1 0x2 SUB PUSH2 0x11F1 JUMPI PUSH1 0x8 DUP3 ADD SLOAD PUSH1 0x1 PUSH1 0x1 PUSH1 0xA0 SHL SUB SWAP1 DUP2 AND SWAP4 SWAP1 DUP5 ISZERO PUSH2 0x11B5 JUMPI SWAP3 PUSH32 0xEFEF8593EC020B84769DDB5CF4469ACCBBD22D882A354BEE97694405126CA694 SWAP3 PUSH1 0x40 SWAP3 PUSH2 0x115B DUP10 SWAP7 PUSH1 0x1 DUP6 ADD SLOAD AND SWAP4 PUSH1 0x3 DUP2 ADD SLOAD SWAP5 PUSH1 0x4 DUP3 ADD SLOAD SWAP2 PUSH1 0x5 DUP2 ADD SLOAD SWAP12 PUSH1 0x3 PUSH1 0x9 DUP4 ADD SLOAD SWAP8 PUSH1 0xFF NOT AND OR SWAP1 SSTORE PUSH1 0xB TIMESTAMP SWAP2 ADD SSTORE PUSH1 0x0 MSTORE PUSH1 0xF DUP4 MSTORE DUP6 PUSH1 0x0 KECCAK256 PUSH2 0x1151 DUP2 SLOAD PUSH2 0x356A JUMP JUMPDEST SWAP1 SSTORE PUSH1 0x15 SLOAD PUSH2 0x32C2 JUMP JUMPDEST PUSH1 0x15 SSTORE DUP7 PUSH1 0x0 MSTORE PUSH1 0x10 DUP2 MSTORE DUP4 PUSH1 0x0 KECCAK256 PUSH2 0x1175 DUP5 DUP3 SLOAD PUSH2 0x32C2 JUMP JUMPDEST SWAP1 SSTORE DUP7 PUSH1 0x0 MSTORE PUSH1 0x12 DUP2 MSTORE DUP4 PUSH1 0x0 KECCAK256 PUSH2 0x118E DUP5 DUP3 SLOAD PUSH2 0x32C2 JUMP JUMPDEST SWAP1 SSTORE DUP4 MLOAD SWAP3 DUP4 MSTORE DUP3 ADD MSTORE LOG3 DUP1 PUSH2 0x11A5 JUMPI PUSH1 0x1 PUSH1 0x0 SSTORE STOP JUMPDEST PUSH2 0x11AE SWAP2 PUSH2 0x39B7 JUMP JUMPDEST DUP1 DUP1 PUSH2 0x934 JUMP JUMPDEST PUSH1 0x40 MLOAD PUSH3 0x461BCD PUSH1 0xE5 SHL DUP2 MSTORE PUSH1 0x4 DUP2 ADD DUP4 SWAP1 MSTORE PUSH1 0x14 PUSH1 0x24 DUP3 ADD MSTORE PUSH20 0x4E6F2076616C6964207375626D697373696F6E73 PUSH1 0x60 SHL PUSH1 0x44 DUP3 ADD MSTORE PUSH1 0x64 SWAP1 REVERT JUMPDEST PUSH1 0x40 MLOAD PUSH3 0x461BCD PUSH1 0xE5 SHL DUP2 MSTORE PUSH1 0x4 DUP2 ADD DUP5 SWAP1 MSTORE PUSH1 0x1F PUSH1 0x24 DUP3 ADD MSTORE PUSH32 0x5461736B206E6F7420726561647920666F722066696E616C697A6174696F6E00 PUSH1 0x44 DUP3 ADD MSTORE PUSH1 0x64 SWAP1 REVERT JUMPDEST POP PUSH1 0x0 DUP3 DUP2 MSTORE PUSH1 0xB DUP3 MSTORE PUSH1 0x40 SWAP1 KECCAK256 SLOAD DUP3 EQ PUSH2 0x1099 JUMP JUMPDEST CALLVALUE PUSH2 0x2CE JUMPI PUSH1 0x0 CALLDATASIZE PUSH1 0x3 NOT ADD SLT PUSH2 0x2CE JUMPI PUSH2 0x1265 PUSH2 0x36AB JUMP JUMPDEST PUSH2 0x126D PUSH2 0x3664 JUMP JUMPDEST PUSH1 0x1 DUP1 SLOAD PUSH1 0xFF PUSH1 0xA0 SHL NOT AND PUSH1 0x1 PUSH1 0xA0 SHL OR SWAP1 SSTORE PUSH1 0x40 MLOAD CALLER DUP2 MSTORE PUSH32 0x62E78CEA01BEE320CD4E420270B5EA74000D11B0C9F74754EBDBFC544B05A258 SWAP1 PUSH1 0x20 SWAP1 LOG1 STOP JUMPDEST CALLVALUE PUSH2 0x2CE JUMPI PUSH1 0x20 DUP1 PUSH1 0x3 NOT CALLDATASIZE ADD SLT PUSH2 0x2CE JUMPI PUSH1 0x4 CALLDATALOAD PUSH2 0x12CB PUSH2 0x360E JUMP JUMPDEST DUP1 ISZERO ISZERO DUP1 PUSH2 0x1412 JUMPI JUMPDEST PUSH2 0x12DD SWAP1 PUSH2 0x33A6 JUMP JUMPDEST PUSH1 0x0 DUP2 DUP2 MSTORE PUSH1 0xB DUP4 MSTORE PUSH1 0x40 SWAP1 KECCAK256 PUSH1 0x1 DUP2 ADD SLOAD SWAP1 SWAP3 PUSH1 0x1 PUSH1 0x1 PUSH1 0xA0 SHL SUB SWAP2 DUP3 AND CALLER SUB PUSH2 0x13DD JUMPI PUSH1 0x7 DUP5 ADD SWAP3 DUP4 SLOAD SWAP4 PUSH1 0xFF DUP6 AND PUSH1 0x7 DUP2 LT ISZERO PUSH2 0x887 JUMPI PUSH2 0x1398 JUMPI PUSH1 0x4 PUSH2 0x1341 DUP8 PUSH1 0x5 PUSH2 0x1338 PUSH1 0x3 PUSH2 0x934 SWAP12 ADD SLOAD DUP6 DUP5 ADD SLOAD SWAP1 PUSH2 0x32C2 JUMP JUMPDEST SWAP2 ADD SLOAD SWAP1 PUSH2 0x32C2 JUMP JUMPDEST SWAP6 PUSH1 0xFF NOT AND OR SWAP1 SSTORE CALLER PUSH1 0x0 MSTORE PUSH1 0xF DUP3 MSTORE PUSH1 0x40 PUSH1 0x0 KECCAK256 PUSH2 0x1360 DUP2 SLOAD PUSH2 0x356A JUMP JUMPDEST SWAP1 SSTORE PUSH32 0x6F63D695245E4CF8F0B7AAE0B8DA95876A4B173BA8D0D4466CC83C357DDA3A8 PUSH1 0x40 MLOAD SWAP3 DUP6 DUP5 MSTORE CALLER SWAP4 LOG3 CALLER SWAP1 PUSH1 0x2 SLOAD AND PUSH2 0x3703 JUMP JUMPDEST PUSH1 0x40 MLOAD PUSH3 0x461BCD PUSH1 0xE5 SHL DUP2 MSTORE PUSH1 0x4 DUP2 ADD DUP5 SWAP1 MSTORE PUSH1 0x17 PUSH1 0x24 DUP3 ADD MSTORE PUSH32 0x43616E6E6F742063616E63656C2074686973207461736B000000000000000000 PUSH1 0x44 DUP3 ADD MSTORE PUSH1 0x64 SWAP1 REVERT JUMPDEST PUSH1 0x64 SWAP1 PUSH1 0x40 MLOAD SWAP1 PUSH3 0x461BCD PUSH1 0xE5 SHL DUP3 MSTORE PUSH1 0x4 DUP3 ADD MSTORE PUSH1 0xE PUSH1 0x24 DUP3 ADD MSTORE PUSH14 0x2737BA103A30B9B59037BBB732B9 PUSH1 0x91 SHL PUSH1 0x44 DUP3 ADD MSTORE REVERT JUMPDEST POP PUSH1 0x0 DUP2 DUP2 MSTORE PUSH1 0xB DUP4 MSTORE PUSH1 0x40 SWAP1 KECCAK256 SLOAD DUP2 EQ PUSH2 0x12D4 JUMP JUMPDEST CALLVALUE PUSH2 0x2CE JUMPI PUSH2 0x1436 CALLDATASIZE PUSH2 0x3063 JUMP JUMPDEST SWAP2 PUSH1 0x0 MSTORE PUSH1 0xE PUSH1 0x20 MSTORE PUSH1 0x40 PUSH1 0x0 KECCAK256 SWAP1 PUSH1 0x0 MSTORE PUSH1 0x20 MSTORE PUSH1 0x40 PUSH1 0x0 KECCAK256 SWAP1 PUSH1 0x1 DUP1 PUSH1 0xA0 SHL SUB AND PUSH1 0x0 MSTORE PUSH1 0x20 MSTORE PUSH1 0x20 PUSH1 0xFF PUSH1 0x40 PUSH1 0x0 KECCAK256 SLOAD AND PUSH1 0x40 MLOAD SWAP1 ISZERO ISZERO DUP2 MSTORE RETURN JUMPDEST CALLVALUE PUSH2 0x2CE JUMPI PUSH1 0x20 CALLDATASIZE PUSH1 0x3 NOT ADD SLT PUSH2 0x2CE JUMPI PUSH1 0x4 CALLDATALOAD PUSH1 0x0 MSTORE PUSH1 0xC PUSH1 0x20 MSTORE PUSH1 0x20 PUSH1 0x40 PUSH1 0x0 KECCAK256 SLOAD PUSH1 0x40 MLOAD SWAP1 DUP2 MSTORE RETURN JUMPDEST CALLVALUE PUSH2 0x2CE JUMPI PUSH2 0x14AE CALLDATASIZE PUSH2 0x3037 JUMP JUMPDEST SWAP1 PUSH1 0x0 MSTORE PUSH1 0x1B PUSH1 0x20 MSTORE PUSH1 0x40 PUSH1 0x0 KECCAK256 SWAP1 PUSH1 0x0 MSTORE PUSH1 0x20 MSTORE PUSH1 0x20 PUSH1 0x40 PUSH1 0x0 KECCAK256 SLOAD PUSH1 0x40 MLOAD SWAP1 DUP2 MSTORE RETURN JUMPDEST CALLVALUE PUSH2 0x2CE JUMPI PUSH1 0x0 CALLDATASIZE PUSH1 0x3 NOT ADD SLT PUSH2 0x2CE JUMPI PUSH2 0x14EC PUSH2 0x36AB JUMP JUMPDEST PUSH1 0x1 DUP1 SLOAD PUSH1 0x1 PUSH1 0x1 PUSH1 0xA0 SHL SUB NOT DUP2 AND SWAP1 SWAP2 SSTORE PUSH1 0x0 SWAP1 PUSH1 0x1 PUSH1 0x1 PUSH1 0xA0 SHL SUB AND PUSH32 0x8BE0079C531659141344CD1FD0A4F28419497F9722A3DAAFE3B4186F6B6457E0 DUP3 DUP1 LOG3 STOP JUMPDEST CALLVALUE PUSH2 0x2CE JUMPI PUSH1 0x80 CALLDATASIZE PUSH1 0x3 NOT ADD SLT PUSH2 0x2CE JUMPI PUSH1 0x4 CALLDATALOAD PUSH1 0x24 DUP1 CALLDATALOAD PUSH1 0x44 SWAP1 DUP2 CALLDATALOAD PUSH1 0x64 CALLER PUSH1 0x0 MSTORE PUSH1 0x20 SWAP1 PUSH1 0x8 DUP3 MSTORE PUSH2 0x156B PUSH1 0xFF PUSH1 0x40 PUSH1 0x0 KECCAK256 SLOAD AND PUSH2 0x341E JUMP JUMPDEST DUP7 ISZERO ISZERO DUP1 PUSH2 0x196E JUMPI JUMPDEST PUSH2 0x157D SWAP1 PUSH2 0x33A6 JUMP JUMPDEST PUSH2 0x1585 PUSH2 0x3664 JUMP JUMPDEST DUP7 PUSH1 0x0 MSTORE PUSH1 0xB DUP3 MSTORE PUSH1 0x40 PUSH1 0x0 KECCAK256 SWAP1 PUSH1 0xFF PUSH1 0x7 DUP4 ADD SLOAD AND PUSH1 0x7 DUP2 LT ISZERO PUSH2 0x1959 JUMPI DUP1 PUSH1 0x2 PUSH2 0x15B9 SWAP3 EQ SWAP1 DUP2 ISZERO PUSH2 0x194E JUMPI POP PUSH2 0x345C JUMP JUMPDEST DUP8 PUSH1 0x0 MSTORE PUSH1 0xC DUP4 MSTORE PUSH2 0x15D1 PUSH1 0x40 PUSH1 0x0 KECCAK256 SLOAD DUP7 LT PUSH2 0x34A8 JUMP JUMPDEST PUSH2 0x15DF PUSH2 0x2710 DUP6 GT ISZERO PUSH2 0x3577 JUMP JUMPDEST DUP8 PUSH1 0x0 MSTORE PUSH1 0xC DUP4 MSTORE PUSH2 0x15F5 DUP6 PUSH1 0x40 PUSH1 0x0 KECCAK256 PUSH2 0x30DA JUMP JUMPDEST POP SWAP1 PUSH1 0x3 DUP3 ADD SWAP8 PUSH2 0x160A PUSH1 0xFF DUP11 SLOAD AND ISZERO PUSH2 0x34EA JUMP JUMPDEST DUP10 PUSH1 0x0 MSTORE PUSH1 0x1B DUP6 MSTORE PUSH1 0x40 PUSH1 0x0 KECCAK256 DUP8 PUSH1 0x0 MSTORE DUP6 MSTORE PUSH2 0x162F PUSH1 0x40 PUSH1 0x0 KECCAK256 SLOAD PUSH1 0x19 SLOAD SWAP1 PUSH2 0x32C2 JUMP JUMPDEST PUSH2 0x163B PUSH1 0x1A SLOAD DUP3 PUSH2 0x32C2 JUMP JUMPDEST SWAP1 TIMESTAMP GT ISZERO PUSH2 0x190D JUMPI TIMESTAMP GT PUSH2 0x18D8 JUMPI DUP10 PUSH1 0x0 MSTORE PUSH1 0x16 DUP6 MSTORE PUSH1 0x40 PUSH1 0x0 KECCAK256 DUP8 PUSH1 0x0 MSTORE DUP6 MSTORE PUSH1 0x40 PUSH1 0x0 KECCAK256 CALLER PUSH1 0x0 MSTORE DUP6 MSTORE PUSH1 0x40 PUSH1 0x0 KECCAK256 SWAP2 DUP3 SLOAD SWAP9 DUP10 ISZERO PUSH2 0x18A6 JUMPI PUSH1 0x2 DUP5 ADD SWAP3 DUP4 SLOAD SWAP11 PUSH1 0xFF DUP13 AND PUSH2 0x1872 JUMPI PUSH1 0x40 MLOAD DUP10 DUP2 ADD SWAP1 DUP12 DUP3 MSTORE DUP6 CALLDATALOAD PUSH1 0x40 DUP3 ADD MSTORE PUSH1 0x40 DUP2 MSTORE PUSH2 0x16A4 DUP2 PUSH2 0x3198 JUMP JUMPDEST MLOAD SWAP1 KECCAK256 SUB PUSH2 0x1842 JUMPI POP POP POP DUP6 SWAP2 PUSH1 0x3 SWAP2 PUSH1 0x1 PUSH1 0xFF NOT DUP1 SWAP12 AND OR SWAP1 SSTORE ADD SSTORE DUP8 PUSH1 0x0 MSTORE PUSH1 0x18 DUP4 MSTORE PUSH1 0x40 PUSH1 0x0 KECCAK256 DUP6 PUSH1 0x0 MSTORE DUP4 MSTORE PUSH1 0x40 PUSH1 0x0 KECCAK256 PUSH2 0x16E3 DUP2 SLOAD PUSH2 0x32CF JUMP JUMPDEST SWAP1 SSTORE DUP8 PUSH1 0x0 MSTORE PUSH1 0xD DUP4 MSTORE PUSH1 0x40 PUSH1 0x0 KECCAK256 DUP6 PUSH1 0x0 MSTORE DUP4 MSTORE PUSH1 0x40 PUSH1 0x0 KECCAK256 CALLER PUSH1 0x0 MSTORE DUP4 MSTORE DUP4 PUSH1 0x40 PUSH1 0x0 KECCAK256 SSTORE DUP8 PUSH1 0x0 MSTORE PUSH1 0xE DUP4 MSTORE PUSH1 0x40 PUSH1 0x0 KECCAK256 DUP6 PUSH1 0x0 MSTORE DUP4 MSTORE PUSH1 0x40 PUSH1 0x0 KECCAK256 CALLER PUSH1 0x0 MSTORE DUP4 MSTORE PUSH1 0x40 PUSH1 0x0 KECCAK256 PUSH1 0x1 DUP8 DUP3 SLOAD AND OR SWAP1 SSTORE DUP8 PUSH1 0x0 MSTORE PUSH1 0x1C DUP4 MSTORE PUSH1 0x40 PUSH1 0x0 KECCAK256 DUP6 PUSH1 0x0 MSTORE DUP4 MSTORE PUSH2 0x1757 CALLER PUSH1 0x40 PUSH1 0x0 KECCAK256 PUSH2 0x35D3 JUMP JUMPDEST PUSH1 0x5 DUP2 ADD SWAP3 PUSH2 0x1766 DUP5 SLOAD PUSH2 0x32CF JUMP JUMPDEST SWAP5 DUP6 DUP6 SSTORE PUSH1 0x40 MLOAD SWAP2 DUP8 DUP4 MSTORE DUP3 ADD MSTORE DUP9 PUSH32 0x23DEF086B3DC14DBD150F69D2E6AF648DFC789CDF251BA7D720FEECBC0625F85 PUSH1 0x40 CALLER SWAP4 LOG3 PUSH1 0xA SLOAD DUP5 LT ISZERO PUSH2 0x17A7 JUMPI STOP JUMPDEST PUSH32 0xFF2FC693BB2D4A09F21F0C403FCE5ECB4B5B0B57E81C7253DEB5386BB8A8AE77 SWAP7 PUSH1 0x1 PUSH2 0x17D9 PUSH2 0x7BB SWAP7 DUP9 DUP13 PUSH2 0x3794 JUMP JUMPDEST SWAP8 DUP9 PUSH1 0x2 DUP6 ADD SSTORE DUP3 SLOAD AND OR SWAP1 SSTORE PUSH1 0x9 DUP3 ADD SWAP1 DUP7 DUP3 SLOAD DUP2 GT PUSH2 0x1817 JUMPI JUMPDEST POP POP POP POP SLOAD PUSH1 0x40 MLOAD SWAP4 DUP5 SWAP4 DUP5 PUSH1 0x40 SWAP2 SWAP5 SWAP4 SWAP3 PUSH1 0x60 DUP3 ADD SWAP6 DUP3 MSTORE PUSH1 0x20 DUP3 ADD MSTORE ADD MSTORE JUMP JUMPDEST PUSH1 0x8 SWAP3 SSTORE PUSH1 0x1 DUP1 PUSH1 0xA0 SHL SUB SWAP1 SLOAD AND SWAP2 ADD SWAP1 PUSH1 0x1 PUSH1 0x1 PUSH1 0x60 SHL SUB PUSH1 0xA0 SHL DUP3 SLOAD AND OR SWAP1 SSTORE DUP7 DUP1 DUP1 DUP7 PUSH2 0x17F5 JUMP JUMPDEST DUP8 SWAP2 PUSH1 0xD PUSH13 0x90C2E6D040DAD2E6DAC2E8C6D PUSH1 0x9B SHL SWAP3 PUSH1 0x40 MLOAD SWAP5 PUSH3 0x461BCD PUSH1 0xE5 SHL DUP7 MSTORE PUSH1 0x4 DUP7 ADD MSTORE DUP5 ADD MSTORE DUP3 ADD MSTORE REVERT JUMPDEST POP DUP8 SWAP2 PUSH1 0x10 PUSH16 0x105B1C9958591E481C995D99585B1959 PUSH1 0x82 SHL SWAP3 PUSH1 0x40 MLOAD SWAP5 PUSH3 0x461BCD PUSH1 0xE5 SHL DUP7 MSTORE PUSH1 0x4 DUP7 ADD MSTORE DUP5 ADD MSTORE DUP3 ADD MSTORE REVERT JUMPDEST PUSH15 0x139BC818DBDB5B5A5D08199BDD5B99 PUSH1 0x8A SHL DUP8 SWAP2 PUSH1 0xF DUP6 PUSH1 0x40 MLOAD SWAP5 PUSH3 0x461BCD PUSH1 0xE5 SHL DUP7 MSTORE PUSH1 0x4 DUP7 ADD MSTORE DUP5 ADD MSTORE DUP3 ADD MSTORE REVERT JUMPDEST PUSH18 0x14995D99585B081C1A185CD948195B991959 PUSH1 0x72 SHL DUP9 PUSH1 0x12 DUP8 SWAP4 PUSH1 0x40 MLOAD SWAP5 PUSH3 0x461BCD PUSH1 0xE5 SHL DUP7 MSTORE PUSH1 0x4 DUP7 ADD MSTORE DUP5 ADD MSTORE DUP3 ADD MSTORE REVERT JUMPDEST POP PUSH32 0x436F6D6D6974207068617365206E6F7420656E64656420796574000000000000 DUP9 PUSH1 0x1A DUP8 SWAP4 PUSH1 0x40 MLOAD SWAP5 PUSH3 0x461BCD PUSH1 0xE5 SHL DUP7 MSTORE PUSH1 0x4 DUP7 ADD MSTORE DUP5 ADD MSTORE DUP3 ADD MSTORE REVERT JUMPDEST PUSH1 0x1 SWAP2 POP EQ DUP11 PUSH2 0x5FB JUMP JUMPDEST DUP8 PUSH4 0x4E487B71 PUSH1 0xE0 SHL PUSH1 0x0 MSTORE PUSH1 0x21 PUSH1 0x4 MSTORE PUSH1 0x0 REVERT JUMPDEST POP PUSH1 0x0 DUP8 DUP2 MSTORE PUSH1 0xB DUP4 MSTORE PUSH1 0x40 SWAP1 KECCAK256 SLOAD DUP8 EQ PUSH2 0x1574 JUMP JUMPDEST CALLVALUE PUSH2 0x2CE JUMPI PUSH1 0x0 CALLDATASIZE PUSH1 0x3 NOT ADD SLT PUSH2 0x2CE JUMPI PUSH1 0x20 PUSH1 0xA SLOAD PUSH1 0x40 MLOAD SWAP1 DUP2 MSTORE RETURN JUMPDEST CALLVALUE PUSH2 0x2CE JUMPI PUSH1 0x0 CALLDATASIZE PUSH1 0x3 NOT ADD SLT PUSH2 0x2CE JUMPI PUSH1 0x20 PUSH1 0x40 MLOAD PUSH5 0xE8D4A51000 DUP2 MSTORE RETURN JUMPDEST CALLVALUE PUSH2 0x2CE JUMPI PUSH1 0x20 DUP1 PUSH1 0x3 NOT CALLDATASIZE ADD SLT PUSH2 0x2CE JUMPI PUSH1 0x4 CALLDATALOAD DUP1 ISZERO ISZERO DUP1 PUSH2 0x1B36 JUMPI JUMPDEST PUSH2 0x19E9 SWAP1 PUSH2 0x33A6 JUMP JUMPDEST PUSH2 0x19F1 PUSH2 0x3664 JUMP JUMPDEST DUP1 PUSH1 0x0 MSTORE PUSH1 0xB DUP3 MSTORE PUSH1 0x40 PUSH1 0x0 KECCAK256 PUSH1 0x7 DUP2 ADD DUP1 SLOAD SWAP3 PUSH1 0xFF DUP5 AND PUSH1 0x7 DUP2 LT ISZERO PUSH2 0x887 JUMPI DUP1 ISZERO SWAP1 DUP2 ISZERO PUSH2 0x1B2B JUMPI JUMPDEST POP ISZERO PUSH2 0x1AE6 JUMPI PUSH1 0x6 DUP4 ADD SLOAD TIMESTAMP LT PUSH2 0x1AAA JUMPI PUSH1 0xF PUSH2 0x1AA8 SWAP6 PUSH1 0x1 DUP1 PUSH1 0xA0 SHL SUB SWAP4 PUSH1 0x5 PUSH2 0x1A5C DUP7 PUSH1 0x1 DUP10 ADD SLOAD AND SWAP8 DUP3 PUSH2 0x1338 PUSH1 0x3 DUP4 ADD SLOAD PUSH1 0x4 DUP5 ADD SLOAD SWAP1 PUSH2 0x32C2 JUMP JUMPDEST SWAP8 PUSH1 0xFF NOT AND OR SWAP1 SSTORE DUP5 PUSH1 0x0 MSTORE MSTORE PUSH1 0x40 PUSH1 0x0 KECCAK256 PUSH2 0x1A78 DUP2 SLOAD PUSH2 0x356A JUMP JUMPDEST SWAP1 SSTORE PUSH32 0x7C2ECD5E2B7188AC57F3A370681639CB447C9CBFBBBACE0C070ADEA6C73EAA54 PUSH1 0x0 DUP1 LOG2 PUSH1 0x2 SLOAD AND PUSH2 0x3703 JUMP JUMPDEST STOP JUMPDEST PUSH1 0x40 MLOAD PUSH3 0x461BCD PUSH1 0xE5 SHL DUP2 MSTORE PUSH1 0x4 DUP2 ADD DUP7 SWAP1 MSTORE PUSH1 0x14 PUSH1 0x24 DUP3 ADD MSTORE PUSH20 0x15185CDAC81B9BDD08195E1C1A5C9959081E595D PUSH1 0x62 SHL PUSH1 0x44 DUP3 ADD MSTORE PUSH1 0x64 SWAP1 REVERT JUMPDEST PUSH1 0x40 MLOAD PUSH3 0x461BCD PUSH1 0xE5 SHL DUP2 MSTORE PUSH1 0x4 DUP2 ADD DUP7 SWAP1 MSTORE PUSH1 0x17 PUSH1 0x24 DUP3 ADD MSTORE PUSH32 0x43616E6E6F74206578706972652074686973207461736B000000000000000000 PUSH1 0x44 DUP3 ADD MSTORE PUSH1 0x64 SWAP1 REVERT JUMPDEST PUSH1 0x1 SWAP2 POP EQ DUP7 PUSH2 0x1A1C JUMP JUMPDEST POP PUSH1 0x0 DUP2 DUP2 MSTORE PUSH1 0xB DUP4 MSTORE PUSH1 0x40 SWAP1 KECCAK256 SLOAD DUP2 EQ PUSH2 0x19E0 JUMP JUMPDEST CALLVALUE PUSH2 0x2CE JUMPI PUSH1 0x0 CALLDATASIZE PUSH1 0x3 NOT ADD SLT PUSH2 0x2CE JUMPI PUSH1 0x20 PUSH1 0xFF PUSH1 0x1 SLOAD PUSH1 0xA0 SHR AND PUSH1 0x40 MLOAD SWAP1 ISZERO ISZERO DUP2 MSTORE RETURN JUMPDEST CALLVALUE PUSH2 0x2CE JUMPI PUSH2 0x1B80 CALLDATASIZE PUSH2 0x3037 JUMP JUMPDEST SWAP1 PUSH1 0x0 MSTORE PUSH1 0xC PUSH1 0x20 MSTORE PUSH1 0x40 PUSH1 0x0 KECCAK256 SWAP1 DUP2 SLOAD DUP2 LT ISZERO PUSH2 0x2CE JUMPI PUSH2 0x1BA1 SWAP2 PUSH2 0x30DA JUMP JUMPDEST POP DUP1 SLOAD PUSH1 0x1 PUSH1 0x1 PUSH1 0xA0 SHL SUB AND PUSH2 0x1BB9 PUSH1 0x1 DUP4 ADD PUSH2 0x31D4 JUMP JUMPDEST SWAP2 PUSH1 0x2 DUP2 ADD SLOAD SWAP1 PUSH1 0xFF PUSH1 0x3 DUP3 ADD SLOAD AND SWAP1 PUSH1 0x5 PUSH1 0x4 DUP3 ADD SLOAD SWAP2 ADD SLOAD SWAP2 PUSH2 0x1BF0 PUSH1 0x40 MLOAD SWAP7 DUP8 SWAP7 DUP8 MSTORE PUSH1 0xC0 PUSH1 0x20 DUP9 ADD MSTORE PUSH1 0xC0 DUP8 ADD SWAP1 PUSH2 0x308D JUMP JUMPDEST SWAP4 PUSH1 0x40 DUP7 ADD MSTORE ISZERO ISZERO PUSH1 0x60 DUP6 ADD MSTORE PUSH1 0x80 DUP5 ADD MSTORE PUSH1 0xA0 DUP4 ADD MSTORE SUB SWAP1 RETURN JUMPDEST CALLVALUE PUSH2 0x2CE JUMPI PUSH1 0x20 DUP1 PUSH1 0x3 NOT CALLDATASIZE ADD SLT PUSH2 0x2CE JUMPI PUSH2 0x1C25 PUSH2 0x304D JUMP JUMPDEST PUSH2 0x1C2D PUSH2 0x36AB JUMP JUMPDEST PUSH1 0x1 PUSH1 0x1 PUSH1 0xA0 SHL SUB AND SWAP1 PUSH2 0x1C42 DUP3 ISZERO ISZERO PUSH2 0x3351 JUMP JUMPDEST DUP2 PUSH1 0x0 MSTORE PUSH1 0x8 DUP2 MSTORE PUSH1 0xFF PUSH1 0x40 PUSH1 0x0 KECCAK256 SLOAD AND PUSH2 0x1D0E JUMPI DUP2 PUSH1 0x0 MSTORE PUSH1 0x8 DUP2 MSTORE PUSH1 0x40 PUSH1 0x0 KECCAK256 PUSH1 0x1 PUSH1 0xFF NOT DUP3 SLOAD AND OR SWAP1 SSTORE PUSH2 0x1C7A PUSH1 0x9 SLOAD PUSH2 0x32CF JUMP JUMPDEST PUSH1 0x9 SSTORE DUP2 PUSH1 0x0 MSTORE PUSH1 0x13 DUP2 MSTORE PUSH1 0x2 PUSH1 0x40 PUSH1 0x0 KECCAK256 ADD SLOAD ISZERO PUSH2 0x1CBC JUMPI JUMPDEST POP PUSH32 0xE366C1C0452ED8EEC96861E9E54141EBFF23C9EC89FE27B996B45F5EC3884987 PUSH1 0x0 DUP1 LOG2 STOP JUMPDEST PUSH1 0x3 PUSH1 0x40 MLOAD SWAP2 PUSH2 0x1CCB DUP4 PUSH2 0x317D JUMP JUMPDEST PUSH1 0x0 DUP4 MSTORE DUP1 DUP4 ADD PUSH1 0x0 DUP2 MSTORE PUSH1 0x40 DUP5 ADD SWAP1 PUSH2 0x1388 DUP3 MSTORE PUSH1 0x13 PUSH1 0x60 DUP7 ADD SWAP4 TIMESTAMP DUP6 MSTORE DUP8 PUSH1 0x0 MSTORE MSTORE PUSH1 0x40 PUSH1 0x0 KECCAK256 SWAP5 MLOAD DUP6 SSTORE MLOAD PUSH1 0x1 DUP6 ADD SSTORE MLOAD PUSH1 0x2 DUP5 ADD SSTORE MLOAD SWAP2 ADD SSTORE DUP2 PUSH2 0x1C94 JUMP JUMPDEST PUSH1 0x64 SWAP1 PUSH1 0x40 MLOAD SWAP1 PUSH3 0x461BCD PUSH1 0xE5 SHL DUP3 MSTORE PUSH1 0x4 DUP3 ADD MSTORE PUSH1 0x11 PUSH1 0x24 DUP3 ADD MSTORE PUSH17 0x20B63932B0B23C903B30B634B230BA37B9 PUSH1 0x79 SHL PUSH1 0x44 DUP3 ADD MSTORE REVERT JUMPDEST CALLVALUE PUSH2 0x2CE JUMPI PUSH1 0x0 CALLDATASIZE PUSH1 0x3 NOT ADD SLT PUSH2 0x2CE JUMPI PUSH1 0x20 PUSH1 0x19 SLOAD PUSH1 0x40 MLOAD SWAP1 DUP2 MSTORE RETURN JUMPDEST CALLVALUE PUSH2 0x2CE JUMPI PUSH1 0x20 CALLDATASIZE PUSH1 0x3 NOT ADD SLT PUSH2 0x2CE JUMPI PUSH2 0x1D7D PUSH2 0x304D JUMP JUMPDEST PUSH2 0x1D85 PUSH2 0x36AB JUMP JUMPDEST PUSH1 0x1 PUSH1 0x1 PUSH1 0xA0 SHL SUB AND PUSH1 0x0 DUP2 DUP2 MSTORE PUSH1 0x8 PUSH1 0x20 MSTORE PUSH1 0x40 SWAP1 KECCAK256 SLOAD PUSH2 0x1DA9 SWAP1 PUSH1 0xFF AND PUSH2 0x341E JUMP JUMPDEST DUP1 PUSH1 0x0 MSTORE PUSH1 0x8 PUSH1 0x20 MSTORE PUSH1 0x40 PUSH1 0x0 KECCAK256 PUSH1 0xFF NOT DUP2 SLOAD AND SWAP1 SSTORE PUSH2 0x1DCA PUSH1 0x9 SLOAD PUSH2 0x356A JUMP JUMPDEST PUSH1 0x9 SSTORE PUSH32 0xE1434E25D6611E0DB941968FDC97811C982AC1602E951637D206F5FDDA9DD8F1 PUSH1 0x0 DUP1 LOG2 STOP JUMPDEST CALLVALUE PUSH2 0x2CE JUMPI PUSH1 0x0 CALLDATASIZE PUSH1 0x3 NOT ADD SLT PUSH2 0x2CE JUMPI PUSH2 0x1E0D PUSH2 0x36AB JUMP JUMPDEST PUSH1 0x1 SLOAD PUSH1 0xFF DUP2 PUSH1 0xA0 SHR AND ISZERO PUSH2 0x1E54 JUMPI PUSH1 0xFF PUSH1 0xA0 SHL NOT AND PUSH1 0x1 SSTORE PUSH1 0x40 MLOAD CALLER DUP2 MSTORE PUSH32 0x5DB9EE0A495BF2E6FF9C91A7834C1BA4FDD244A5E8AA4E537BD38AEAE4B073AA SWAP1 PUSH1 0x20 SWAP1 LOG1 STOP JUMPDEST PUSH1 0x40 MLOAD PUSH3 0x461BCD PUSH1 0xE5 SHL DUP2 MSTORE PUSH1 0x20 PUSH1 0x4 DUP3 ADD MSTORE PUSH1 0x14 PUSH1 0x24 DUP3 ADD MSTORE PUSH20 0x14185D5CD8589B194E881B9BDD081C185D5CD959 PUSH1 0x62 SHL PUSH1 0x44 DUP3 ADD MSTORE PUSH1 0x64 SWAP1 REVERT JUMPDEST CALLVALUE PUSH2 0x2CE JUMPI PUSH2 0x1E9E CALLDATASIZE PUSH2 0x3037 JUMP JUMPDEST PUSH2 0x1EA6 PUSH2 0x36AB JUMP JUMPDEST PUSH2 0x12C DUP1 DUP4 LT PUSH2 0x1F2E JUMPI DUP2 LT PUSH2 0x1EF0 JUMPI DUP2 PUSH1 0x40 SWAP2 PUSH32 0x54333DE66970050BA341FD48B02B1E37C55D85AE724EE00E32233E89E072BEA8 SWAP4 PUSH1 0x19 SSTORE DUP1 PUSH1 0x1A SSTORE DUP3 MLOAD SWAP2 DUP3 MSTORE PUSH1 0x20 DUP3 ADD MSTORE LOG1 STOP JUMPDEST PUSH1 0x40 MLOAD PUSH3 0x461BCD PUSH1 0xE5 SHL DUP2 MSTORE PUSH1 0x20 PUSH1 0x4 DUP3 ADD MSTORE PUSH1 0x16 PUSH1 0x24 DUP3 ADD MSTORE PUSH22 0x14995D99585B081C1A185CD9481D1BDBC81CDA1BDC9D PUSH1 0x52 SHL PUSH1 0x44 DUP3 ADD MSTORE PUSH1 0x64 SWAP1 REVERT JUMPDEST PUSH1 0x40 MLOAD PUSH3 0x461BCD PUSH1 0xE5 SHL DUP2 MSTORE PUSH1 0x20 PUSH1 0x4 DUP3 ADD MSTORE PUSH1 0x16 PUSH1 0x24 DUP3 ADD MSTORE PUSH22 0x10DBDB5B5A5D081C1A185CD9481D1BDBC81CDA1BDC9D PUSH1 0x52 SHL PUSH1 0x44 DUP3 ADD MSTORE PUSH1 0x64 SWAP1 REVERT JUMPDEST CALLVALUE PUSH2 0x2CE JUMPI PUSH2 0x1F7A CALLDATASIZE PUSH2 0x3063 JUMP JUMPDEST SWAP2 PUSH1 0x0 MSTORE PUSH1 0x16 PUSH1 0x20 MSTORE PUSH1 0x40 PUSH1 0x0 KECCAK256 SWAP1 PUSH1 0x0 MSTORE PUSH1 0x20 MSTORE PUSH1 0x40 PUSH1 0x0 KECCAK256 SWAP1 PUSH1 0x1 DUP1 PUSH1 0xA0 SHL SUB AND PUSH1 0x0 MSTORE PUSH1 0x20 MSTORE PUSH1 0x80 PUSH1 0x40 PUSH1 0x0 KECCAK256 DUP1 SLOAD SWAP1 PUSH1 0x1 DUP2 ADD SLOAD SWAP1 PUSH1 0x3 PUSH1 0xFF PUSH1 0x2 DUP4 ADD SLOAD AND SWAP2 ADD SLOAD SWAP2 PUSH1 0x40 MLOAD SWAP4 DUP5 MSTORE PUSH1 0x20 DUP5 ADD MSTORE ISZERO ISZERO PUSH1 0x40 DUP4 ADD MSTORE PUSH1 0x60 DUP3 ADD MSTORE RETURN JUMPDEST CALLVALUE PUSH2 0x2CE JUMPI PUSH1 0x20 CALLDATASIZE PUSH1 0x3 NOT ADD SLT PUSH2 0x2CE JUMPI PUSH1 0x1 PUSH1 0x1 PUSH1 0xA0 SHL SUB PUSH2 0x1FFB PUSH2 0x304D JUMP JUMPDEST AND PUSH1 0x0 MSTORE PUSH1 0x11 PUSH1 0x20 MSTORE PUSH1 0x20 PUSH1 0x40 PUSH1 0x0 KECCAK256 SLOAD PUSH1 0x40 MLOAD SWAP1 DUP2 MSTORE RETURN JUMPDEST CALLVALUE PUSH2 0x2CE JUMPI PUSH1 0x20 CALLDATASIZE PUSH1 0x3 NOT ADD SLT PUSH2 0x2CE JUMPI PUSH1 0x20 PUSH2 0x2032 PUSH1 0x4 CALLDATALOAD PUSH2 0x352E JUMP JUMPDEST PUSH1 0x40 MLOAD SWAP1 DUP2 MSTORE RETURN JUMPDEST CALLVALUE PUSH2 0x2CE JUMPI PUSH1 0x0 CALLDATASIZE PUSH1 0x3 NOT ADD SLT PUSH2 0x2CE JUMPI PUSH1 0x20 PUSH1 0x4 SLOAD PUSH1 0x40 MLOAD SWAP1 DUP2 MSTORE RETURN JUMPDEST CALLVALUE PUSH2 0x2CE JUMPI PUSH1 0x20 CALLDATASIZE PUSH1 0x3 NOT ADD SLT PUSH2 0x2CE JUMPI PUSH1 0x4 CALLDATALOAD PUSH2 0x2074 PUSH2 0x36AB JUMP JUMPDEST PUSH1 0x1 DUP2 LT PUSH2 0x2118 JUMPI PUSH1 0x9 SLOAD DUP1 DUP3 GT SWAP1 DUP2 ISZERO SWAP2 PUSH2 0x210F JUMPI JUMPDEST POP ISZERO PUSH2 0x20CA JUMPI PUSH1 0x40 PUSH32 0xB6DB129B84DBDEF2D15FBB03E44FE1050995A5B1F855B6FAF62B419185E53DC8 SWAP2 PUSH1 0xA SLOAD SWAP1 DUP1 PUSH1 0xA SSTORE DUP3 MLOAD SWAP2 DUP3 MSTORE PUSH1 0x20 DUP3 ADD MSTORE LOG1 STOP JUMPDEST PUSH1 0x40 MLOAD PUSH3 0x461BCD PUSH1 0xE5 SHL DUP2 MSTORE PUSH1 0x20 PUSH1 0x4 DUP3 ADD MSTORE PUSH1 0x1D PUSH1 0x24 DUP3 ADD MSTORE PUSH32 0x43616E6E6F74206578636565642076616C696461746F7220636F756E74000000 PUSH1 0x44 DUP3 ADD MSTORE PUSH1 0x64 SWAP1 REVERT JUMPDEST SWAP1 POP ISZERO DUP3 PUSH2 0x208B JUMP JUMPDEST PUSH1 0x40 MLOAD PUSH3 0x461BCD PUSH1 0xE5 SHL DUP2 MSTORE PUSH1 0x20 PUSH1 0x4 DUP3 ADD MSTORE PUSH1 0x1C PUSH1 0x24 DUP3 ADD MSTORE PUSH32 0x4D696E2076616C69646174696F6E73206D757374206265203E3D203100000000 PUSH1 0x44 DUP3 ADD MSTORE PUSH1 0x64 SWAP1 REVERT JUMPDEST CALLVALUE PUSH2 0x2CE JUMPI PUSH1 0x20 CALLDATASIZE PUSH1 0x3 NOT ADD SLT PUSH2 0x2CE JUMPI PUSH1 0x1 PUSH1 0x1 PUSH1 0xA0 SHL SUB PUSH2 0x217E PUSH2 0x304D JUMP JUMPDEST AND PUSH1 0x0 MSTORE PUSH1 0xF PUSH1 0x20 MSTORE PUSH1 0x20 PUSH1 0x40 PUSH1 0x0 KECCAK256 SLOAD PUSH1 0x40 MLOAD SWAP1 DUP2 MSTORE RETURN JUMPDEST CALLVALUE PUSH2 0x2CE JUMPI PUSH1 0x60 CALLDATASIZE PUSH1 0x3 NOT ADD SLT PUSH2 0x2CE JUMPI PUSH1 0x4 CALLDATALOAD PUSH1 0x24 SWAP1 DUP2 CALLDATALOAD SWAP1 PUSH1 0x44 CALLDATALOAD CALLER PUSH1 0x0 MSTORE PUSH1 0x20 SWAP1 PUSH1 0x8 DUP3 MSTORE PUSH2 0x21D0 PUSH1 0xFF PUSH1 0x40 PUSH1 0x0 KECCAK256 SLOAD AND PUSH2 0x341E JUMP JUMPDEST DUP3 ISZERO ISZERO DUP1 PUSH2 0x24E4 JUMPI JUMPDEST PUSH2 0x21E2 SWAP1 PUSH2 0x33A6 JUMP JUMPDEST PUSH2 0x21EA PUSH2 0x3664 JUMP JUMPDEST DUP3 PUSH1 0x0 MSTORE PUSH1 0xB DUP3 MSTORE PUSH1 0xFF PUSH1 0x7 PUSH1 0x40 PUSH1 0x0 KECCAK256 ADD SLOAD AND PUSH1 0x7 DUP2 LT ISZERO PUSH2 0x24CF JUMPI DUP1 PUSH1 0x2 PUSH2 0x221C SWAP3 EQ SWAP1 DUP2 ISZERO PUSH2 0x87C JUMPI POP PUSH2 0x345C JUMP JUMPDEST DUP3 PUSH1 0x0 MSTORE PUSH1 0xC DUP3 MSTORE PUSH2 0x2234 PUSH1 0x40 PUSH1 0x0 KECCAK256 SLOAD DUP6 LT PUSH2 0x34A8 JUMP JUMPDEST DUP1 ISZERO PUSH2 0x2497 JUMPI DUP3 PUSH1 0x0 MSTORE PUSH1 0xC DUP3 MSTORE PUSH2 0x2261 PUSH1 0xFF PUSH1 0x3 PUSH2 0x2257 DUP8 PUSH1 0x40 PUSH1 0x0 KECCAK256 PUSH2 0x30DA JUMP JUMPDEST POP ADD SLOAD AND ISZERO PUSH2 0x34EA JUMP JUMPDEST DUP3 PUSH1 0x0 MSTORE PUSH1 0x16 DUP3 MSTORE PUSH1 0x40 PUSH1 0x0 KECCAK256 DUP5 PUSH1 0x0 MSTORE DUP3 MSTORE PUSH1 0x40 PUSH1 0x0 KECCAK256 CALLER PUSH1 0x0 MSTORE DUP3 MSTORE PUSH1 0x40 PUSH1 0x0 KECCAK256 SLOAD PUSH2 0x245F JUMPI DUP3 PUSH1 0x0 MSTORE PUSH1 0xE DUP3 MSTORE PUSH1 0x40 PUSH1 0x0 KECCAK256 DUP5 PUSH1 0x0 MSTORE DUP3 MSTORE PUSH1 0x40 PUSH1 0x0 KECCAK256 CALLER PUSH1 0x0 MSTORE DUP3 MSTORE PUSH1 0xFF PUSH1 0x40 PUSH1 0x0 KECCAK256 SLOAD AND PUSH2 0x241B JUMPI DUP3 PUSH1 0x0 MSTORE PUSH1 0x1B DUP3 MSTORE PUSH1 0x40 PUSH1 0x0 KECCAK256 DUP5 PUSH1 0x0 MSTORE DUP3 MSTORE PUSH1 0x40 PUSH1 0x0 KECCAK256 SLOAD ISZERO PUSH2 0x23FC JUMPI JUMPDEST DUP3 PUSH1 0x0 MSTORE PUSH1 0x1B DUP3 MSTORE PUSH1 0x40 PUSH1 0x0 KECCAK256 DUP5 PUSH1 0x0 MSTORE DUP3 MSTORE PUSH2 0x22F8 PUSH1 0x40 PUSH1 0x0 KECCAK256 SLOAD PUSH1 0x19 SLOAD SWAP1 PUSH2 0x32C2 JUMP JUMPDEST TIMESTAMP GT PUSH2 0x23C3 JUMPI PUSH1 0x40 MLOAD PUSH32 0x96E134FDBCF6F2B8942AA1450973CC1E5914913673ABACABEBF1F0B14FE4A552 SWAP3 SWAP2 PUSH2 0x232D DUP3 PUSH2 0x317D JUMP JUMPDEST DUP2 MSTORE PUSH1 0x3 DUP3 DUP3 ADD TIMESTAMP DUP2 MSTORE PUSH2 0x2390 PUSH1 0x40 DUP5 ADD PUSH1 0x0 DUP2 MSTORE PUSH1 0x60 DUP6 ADD SWAP3 PUSH1 0x0 DUP5 MSTORE DUP9 PUSH1 0x0 MSTORE PUSH1 0x16 DUP8 MSTORE PUSH1 0x40 PUSH1 0x0 KECCAK256 DUP11 PUSH1 0x0 MSTORE DUP8 MSTORE PUSH1 0x40 PUSH1 0x0 KECCAK256 CALLER PUSH1 0x0 MSTORE DUP8 MSTORE PUSH1 0x40 PUSH1 0x0 KECCAK256 SWAP6 MLOAD DUP7 SSTORE MLOAD PUSH1 0x1 DUP7 ADD SSTORE MLOAD ISZERO ISZERO PUSH1 0x2 DUP6 ADD SWAP1 PUSH1 0xFF DUP1 NOT DUP4 SLOAD AND SWAP2 ISZERO ISZERO AND OR SWAP1 SSTORE JUMP JUMPDEST MLOAD SWAP2 ADD SSTORE DUP3 PUSH1 0x0 MSTORE PUSH1 0x17 DUP2 MSTORE PUSH1 0x40 PUSH1 0x0 KECCAK256 DUP5 PUSH1 0x0 MSTORE DUP2 MSTORE PUSH1 0x40 PUSH1 0x0 KECCAK256 PUSH2 0x23B6 DUP2 SLOAD PUSH2 0x32CF JUMP JUMPDEST SWAP1 SSTORE PUSH1 0x40 MLOAD SWAP4 DUP5 MSTORE CALLER SWAP4 LOG3 STOP JUMPDEST PUSH1 0x40 MLOAD PUSH3 0x461BCD PUSH1 0xE5 SHL DUP2 MSTORE PUSH1 0x4 DUP2 ADD DUP4 SWAP1 MSTORE PUSH1 0x12 DUP2 DUP8 ADD MSTORE PUSH18 0x10DBDB5B5A5D081C1A185CD948195B991959 PUSH1 0x72 SHL PUSH1 0x44 DUP3 ADD MSTORE PUSH1 0x64 SWAP1 REVERT JUMPDEST DUP3 PUSH1 0x0 MSTORE PUSH1 0x1B DUP3 MSTORE PUSH1 0x40 PUSH1 0x0 KECCAK256 DUP5 PUSH1 0x0 MSTORE DUP3 MSTORE TIMESTAMP PUSH1 0x40 PUSH1 0x0 KECCAK256 SSTORE PUSH2 0x22D3 JUMP JUMPDEST PUSH1 0x40 MLOAD PUSH3 0x461BCD PUSH1 0xE5 SHL DUP2 MSTORE PUSH1 0x4 DUP2 ADD DUP4 SWAP1 MSTORE PUSH1 0x17 DUP2 DUP8 ADD MSTORE PUSH32 0x416C72656164792073636F726564206469726563746C79000000000000000000 PUSH1 0x44 DUP3 ADD MSTORE PUSH1 0x64 SWAP1 REVERT JUMPDEST PUSH1 0x40 MLOAD PUSH3 0x461BCD PUSH1 0xE5 SHL DUP2 MSTORE PUSH1 0x4 DUP2 ADD DUP4 SWAP1 MSTORE PUSH1 0x11 DUP2 DUP8 ADD MSTORE PUSH17 0x105B1C9958591E4818DBDB5B5A5D1D1959 PUSH1 0x7A SHL PUSH1 0x44 DUP3 ADD MSTORE PUSH1 0x64 SWAP1 REVERT JUMPDEST PUSH1 0x40 MLOAD PUSH3 0x461BCD PUSH1 0xE5 SHL DUP2 MSTORE PUSH1 0x4 DUP2 ADD DUP4 SWAP1 MSTORE PUSH1 0x11 DUP2 DUP8 ADD MSTORE PUSH17 0x8ADAE0E8F240C6DEDADAD2E840D0C2E6D PUSH1 0x7B SHL PUSH1 0x44 DUP3 ADD MSTORE PUSH1 0x64 SWAP1 REVERT JUMPDEST DUP6 PUSH4 0x4E487B71 PUSH1 0xE0 SHL PUSH1 0x0 MSTORE PUSH1 0x21 PUSH1 0x4 MSTORE PUSH1 0x0 REVERT JUMPDEST POP PUSH1 0x0 DUP4 DUP2 MSTORE PUSH1 0xB DUP4 MSTORE PUSH1 0x40 SWAP1 KECCAK256 SLOAD DUP4 EQ PUSH2 0x21D9 JUMP JUMPDEST CALLVALUE PUSH2 0x2CE JUMPI PUSH1 0x20 CALLDATASIZE PUSH1 0x3 NOT ADD SLT PUSH2 0x2CE JUMPI PUSH1 0x0 PUSH2 0x180 PUSH1 0x40 MLOAD PUSH2 0x251C DUP2 PUSH2 0x3146 JUMP JUMPDEST DUP3 DUP2 MSTORE DUP3 PUSH1 0x20 DUP3 ADD MSTORE PUSH1 0x60 PUSH1 0x40 DUP3 ADD MSTORE DUP3 PUSH1 0x60 DUP3 ADD MSTORE DUP3 PUSH1 0x80 DUP3 ADD MSTORE DUP3 PUSH1 0xA0 DUP3 ADD MSTORE DUP3 PUSH1 0xC0 DUP3 ADD MSTORE DUP3 PUSH1 0xE0 DUP3 ADD MSTORE DUP3 PUSH2 0x100 DUP3 ADD MSTORE DUP3 PUSH2 0x120 DUP3 ADD MSTORE DUP3 PUSH2 0x140 DUP3 ADD MSTORE DUP3 PUSH2 0x160 DUP3 ADD MSTORE ADD MSTORE PUSH1 0x4 CALLDATALOAD PUSH1 0x0 MSTORE PUSH1 0xB PUSH1 0x20 MSTORE PUSH1 0x40 PUSH1 0x0 KECCAK256 PUSH1 0x40 MLOAD SWAP1 PUSH2 0x2585 DUP3 PUSH2 0x3146 JUMP JUMPDEST DUP1 SLOAD DUP3 MSTORE PUSH1 0x1 DUP2 ADD SLOAD PUSH1 0x1 PUSH1 0x1 PUSH1 0xA0 SHL SUB AND PUSH1 0x20 DUP4 ADD MSTORE PUSH2 0x25A8 PUSH1 0x2 DUP3 ADD PUSH2 0x31D4 JUMP JUMPDEST PUSH1 0x40 DUP4 ADD MSTORE PUSH1 0x3 DUP2 ADD SLOAD PUSH1 0x60 DUP4 ADD MSTORE PUSH1 0x4 DUP2 ADD SLOAD PUSH1 0x80 DUP4 ADD MSTORE PUSH1 0x5 DUP2 ADD SLOAD PUSH1 0xA0 DUP4 ADD MSTORE PUSH1 0x6 DUP2 ADD SLOAD PUSH1 0xC0 DUP4 ADD MSTORE PUSH1 0x7 DUP2 ADD SLOAD SWAP1 PUSH1 0xFF DUP3 AND SWAP2 PUSH1 0x7 DUP4 LT ISZERO PUSH2 0x887 JUMPI PUSH1 0xB SWAP3 PUSH1 0xE0 DUP6 ADD MSTORE PUSH1 0x1 DUP1 PUSH1 0xA0 SHL SUB SWAP1 PUSH1 0x8 SHR AND PUSH2 0x100 DUP5 ADD MSTORE PUSH1 0x1 DUP1 PUSH1 0xA0 SHL SUB PUSH1 0x8 DUP3 ADD SLOAD AND PUSH2 0x120 DUP5 ADD MSTORE PUSH1 0x9 DUP2 ADD SLOAD PUSH2 0x140 DUP5 ADD MSTORE PUSH1 0xA DUP2 ADD SLOAD PUSH2 0x160 DUP5 ADD MSTORE ADD SLOAD PUSH2 0x180 DUP3 ADD MSTORE PUSH1 0x40 MLOAD DUP1 SWAP2 PUSH1 0x20 DUP3 MSTORE DUP1 MLOAD PUSH1 0x20 DUP4 ADD MSTORE PUSH1 0x1 DUP1 PUSH1 0xA0 SHL SUB PUSH1 0x20 DUP3 ADD MLOAD AND PUSH1 0x40 DUP4 ADD MSTORE PUSH2 0x180 PUSH2 0x2674 PUSH1 0x40 DUP4 ADD MLOAD PUSH2 0x1A0 PUSH1 0x60 DUP7 ADD MSTORE PUSH2 0x1C0 DUP6 ADD SWAP1 PUSH2 0x308D JUMP JUMPDEST SWAP2 PUSH1 0x60 DUP2 ADD MLOAD PUSH1 0x80 DUP6 ADD MSTORE PUSH1 0x80 DUP2 ADD MLOAD PUSH1 0xA0 DUP6 ADD MSTORE PUSH1 0xA0 DUP2 ADD MLOAD PUSH1 0xC0 DUP6 ADD MSTORE PUSH1 0xC0 DUP2 ADD MLOAD PUSH1 0xE0 DUP6 ADD MSTORE PUSH2 0x26B0 PUSH1 0xE0 DUP3 ADD MLOAD PUSH2 0x100 DUP7 ADD SWAP1 PUSH2 0x30CD JUMP JUMPDEST PUSH1 0x1 DUP1 PUSH1 0xA0 SHL SUB PUSH2 0x100 DUP3 ADD MLOAD AND PUSH2 0x120 DUP6 ADD MSTORE PUSH1 0x1 DUP1 PUSH1 0xA0 SHL SUB PUSH2 0x120 DUP3 ADD MLOAD AND PUSH2 0x140 DUP6 ADD MSTORE PUSH2 0x140 DUP2 ADD MLOAD PUSH2 0x160 DUP6 ADD MSTORE PUSH2 0x160 DUP2 ADD MLOAD DUP3 DUP6 ADD MSTORE ADD MLOAD PUSH2 0x1A0 DUP4 ADD MSTORE SUB SWAP1 RETURN JUMPDEST CALLVALUE PUSH2 0x2CE JUMPI PUSH1 0x20 CALLDATASIZE PUSH1 0x3 NOT ADD SLT PUSH2 0x2CE JUMPI PUSH1 0x4 CALLDATALOAD DUP1 ISZERO ISZERO DUP1 PUSH2 0x2832 JUMPI JUMPDEST PUSH2 0x2720 SWAP1 PUSH2 0x33A6 JUMP JUMPDEST PUSH2 0x2728 PUSH2 0x3664 JUMP JUMPDEST DUP1 PUSH1 0x0 MSTORE PUSH1 0xB PUSH1 0x20 MSTORE PUSH1 0x40 PUSH1 0x0 KECCAK256 PUSH1 0x7 DUP2 ADD SWAP1 DUP2 SLOAD SWAP1 PUSH1 0xFF DUP3 AND PUSH1 0x7 DUP2 LT ISZERO PUSH2 0x887 JUMPI PUSH2 0x27F8 JUMPI PUSH1 0x6 PUSH2 0x275E SWAP2 ADD SLOAD TIMESTAMP LT PUSH2 0x33E3 JUMP JUMPDEST PUSH1 0x8 SHR PUSH1 0x1 PUSH1 0x1 PUSH1 0xA0 SHL SUB AND PUSH2 0x27C0 JUMPI DUP1 SLOAD PUSH2 0x100 PUSH1 0x1 PUSH1 0xA8 SHL SUB NOT AND CALLER PUSH1 0x8 SHL PUSH2 0x100 PUSH1 0x1 PUSH1 0xA8 SHL SUB AND OR DUP2 SSTORE DUP1 SLOAD PUSH1 0xFF NOT AND PUSH1 0x1 OR SWAP1 SSTORE CALLER SWAP1 PUSH32 0xC8717B61398FB9D7CACF49FE1E296B2F10E9711226B532842B6FFD642CB6A2C6 PUSH1 0x0 DUP1 LOG3 STOP JUMPDEST PUSH1 0x40 MLOAD PUSH3 0x461BCD PUSH1 0xE5 SHL DUP2 MSTORE PUSH1 0x20 PUSH1 0x4 DUP3 ADD MSTORE PUSH1 0x10 PUSH1 0x24 DUP3 ADD MSTORE PUSH16 0x105B1C9958591E48185CDCDA59DB9959 PUSH1 0x82 SHL PUSH1 0x44 DUP3 ADD MSTORE PUSH1 0x64 SWAP1 REVERT JUMPDEST PUSH1 0x40 MLOAD PUSH3 0x461BCD PUSH1 0xE5 SHL DUP2 MSTORE PUSH1 0x20 PUSH1 0x4 DUP3 ADD MSTORE PUSH1 0x12 PUSH1 0x24 DUP3 ADD MSTORE PUSH18 0x5461736B206E6F7420617661696C61626C65 PUSH1 0x70 SHL PUSH1 0x44 DUP3 ADD MSTORE PUSH1 0x64 SWAP1 REVERT JUMPDEST POP PUSH1 0x0 DUP2 DUP2 MSTORE PUSH1 0xB PUSH1 0x20 MSTORE PUSH1 0x40 SWAP1 KECCAK256 SLOAD DUP2 EQ PUSH2 0x2717 JUMP JUMPDEST CALLVALUE PUSH2 0x2CE JUMPI PUSH1 0x20 DUP1 PUSH1 0x3 NOT CALLDATASIZE ADD SLT PUSH2 0x2CE JUMPI PUSH1 0x4 CALLDATALOAD PUSH1 0x0 MSTORE PUSH1 0xC DUP2 MSTORE PUSH1 0x40 PUSH1 0x0 KECCAK256 SWAP1 DUP2 SLOAD SWAP2 PUSH2 0x2877 DUP4 PUSH2 0x338F JUMP JUMPDEST SWAP3 PUSH2 0x2885 PUSH1 0x40 MLOAD SWAP5 DUP6 PUSH2 0x31B3 JUMP JUMPDEST DUP1 DUP5 MSTORE DUP3 DUP5 ADD DUP1 SWAP3 PUSH1 0x0 MSTORE DUP4 PUSH1 0x0 KECCAK256 PUSH1 0x0 SWAP2 JUMPDEST DUP4 DUP4 LT PUSH2 0x2944 JUMPI POP POP POP POP PUSH1 0x40 MLOAD SWAP2 DUP1 DUP4 ADD SWAP4 DUP2 DUP5 MSTORE MLOAD DUP1 SWAP5 MSTORE PUSH1 0x40 DUP4 ADD SWAP4 PUSH1 0x40 DUP2 PUSH1 0x5 SHL DUP6 ADD ADD SWAP3 SWAP2 PUSH1 0x0 SWAP6 JUMPDEST DUP3 DUP8 LT PUSH2 0x28D3 JUMPI DUP6 DUP6 SUB DUP7 RETURN JUMPDEST SWAP1 SWAP2 SWAP3 SWAP4 DUP3 DUP1 PUSH1 0x1 SWAP3 PUSH1 0x3F NOT DUP10 DUP3 SUB ADD DUP6 MSTORE DUP8 MLOAD SWAP1 PUSH2 0x290A PUSH1 0xC0 DUP7 DUP1 PUSH1 0xA0 SHL SUB DUP5 MLOAD AND DUP4 MSTORE DUP5 DUP5 ADD MLOAD SWAP1 DUP1 DUP7 DUP6 ADD MSTORE DUP4 ADD SWAP1 PUSH2 0x308D JUMP JUMPDEST SWAP2 PUSH1 0x40 DUP2 ADD MLOAD PUSH1 0x40 DUP4 ADD MSTORE PUSH1 0x60 DUP1 DUP3 ADD MLOAD ISZERO ISZERO SWAP1 DUP4 ADD MSTORE PUSH1 0x80 DUP1 DUP3 ADD MLOAD SWAP1 DUP4 ADD MSTORE PUSH1 0xA0 DUP1 SWAP2 ADD MLOAD SWAP2 ADD MSTORE SWAP7 ADD SWAP3 ADD SWAP7 ADD SWAP6 SWAP3 SWAP2 SWAP1 SWAP3 PUSH2 0x28C6 JUMP JUMPDEST PUSH1 0x6 DUP7 PUSH1 0x1 SWAP3 PUSH1 0x40 SWAP10 SWAP9 SWAP10 MLOAD PUSH2 0x2959 DUP2 PUSH2 0x3162 JUMP JUMPDEST DUP5 DUP1 PUSH1 0xA0 SHL SUB DUP7 SLOAD AND DUP2 MSTORE PUSH2 0x296F DUP6 DUP8 ADD PUSH2 0x31D4 JUMP JUMPDEST DUP4 DUP3 ADD MSTORE PUSH1 0x2 DUP7 ADD SLOAD PUSH1 0x40 DUP3 ADD MSTORE PUSH1 0xFF PUSH1 0x3 DUP8 ADD SLOAD AND ISZERO ISZERO PUSH1 0x60 DUP3 ADD MSTORE PUSH1 0x4 DUP7 ADD SLOAD PUSH1 0x80 DUP3 ADD MSTORE PUSH1 0x5 DUP7 ADD SLOAD PUSH1 0xA0 DUP3 ADD MSTORE DUP2 MSTORE ADD SWAP3 ADD SWAP3 ADD SWAP2 SWAP1 SWAP6 SWAP5 SWAP6 PUSH2 0x2898 JUMP JUMPDEST CALLVALUE PUSH2 0x2CE JUMPI PUSH1 0x20 CALLDATASIZE PUSH1 0x3 NOT ADD SLT PUSH2 0x2CE JUMPI PUSH2 0x29CA PUSH2 0x304D JUMP JUMPDEST PUSH2 0x29D2 PUSH2 0x36AB JUMP JUMPDEST PUSH1 0x1 PUSH1 0x1 PUSH1 0xA0 SHL SUB DUP2 DUP2 AND SWAP2 PUSH2 0x29E9 DUP4 ISZERO ISZERO PUSH2 0x3351 JUMP JUMPDEST PUSH1 0x15 SLOAD SWAP2 DUP3 ISZERO PUSH2 0x2A2F JUMPI PUSH2 0x1AA8 SWAP4 PUSH1 0x0 PUSH1 0x15 SSTORE PUSH32 0xC0819C13BE868895EB93E40EACEB96DE976442FA1D404E5C55F14BB65A8C489A PUSH1 0x20 PUSH1 0x40 MLOAD DUP7 DUP2 MSTORE LOG2 PUSH1 0x2 SLOAD AND PUSH2 0x3703 JUMP JUMPDEST PUSH1 0x40 MLOAD PUSH3 0x461BCD PUSH1 0xE5 SHL DUP2 MSTORE PUSH1 0x20 PUSH1 0x4 DUP3 ADD MSTORE PUSH1 0x13 PUSH1 0x24 DUP3 ADD MSTORE PUSH19 0x4E6F206665657320746F207769746864726177 PUSH1 0x68 SHL PUSH1 0x44 DUP3 ADD MSTORE PUSH1 0x64 SWAP1 REVERT JUMPDEST CALLVALUE PUSH2 0x2CE JUMPI PUSH2 0x2A78 CALLDATASIZE PUSH2 0x3063 JUMP JUMPDEST SWAP2 PUSH1 0x0 MSTORE PUSH1 0xD PUSH1 0x20 MSTORE PUSH1 0x40 PUSH1 0x0 KECCAK256 SWAP1 PUSH1 0x0 MSTORE PUSH1 0x20 MSTORE PUSH1 0x40 PUSH1 0x0 KECCAK256 SWAP1 PUSH1 0x1 DUP1 PUSH1 0xA0 SHL SUB AND PUSH1 0x0 MSTORE PUSH1 0x20 MSTORE PUSH1 0x20 PUSH1 0x40 PUSH1 0x0 KECCAK256 SLOAD PUSH1 0x40 MLOAD SWAP1 DUP2 MSTORE RETURN JUMPDEST CALLVALUE PUSH2 0x2CE JUMPI PUSH1 0x0 CALLDATASIZE PUSH1 0x3 NOT ADD SLT PUSH2 0x2CE JUMPI PUSH1 0x20 PUSH1 0x9 SLOAD PUSH1 0x40 MLOAD SWAP1 DUP2 MSTORE RETURN JUMPDEST CALLVALUE PUSH2 0x2CE JUMPI PUSH1 0x20 CALLDATASIZE PUSH1 0x3 NOT ADD SLT PUSH2 0x2CE JUMPI PUSH1 0x1 PUSH1 0x1 PUSH1 0xA0 SHL SUB PUSH2 0x2AF0 PUSH2 0x304D JUMP JUMPDEST AND PUSH1 0x0 MSTORE PUSH1 0x10 PUSH1 0x20 MSTORE PUSH1 0x20 PUSH1 0x40 PUSH1 0x0 KECCAK256 SLOAD PUSH1 0x40 MLOAD SWAP1 DUP2 MSTORE RETURN JUMPDEST CALLVALUE PUSH2 0x2CE JUMPI PUSH2 0x2B17 CALLDATASIZE PUSH2 0x3037 JUMP JUMPDEST SWAP1 PUSH1 0x0 MSTORE PUSH1 0x17 PUSH1 0x20 MSTORE PUSH1 0x40 PUSH1 0x0 KECCAK256 SWAP1 PUSH1 0x0 MSTORE PUSH1 0x20 MSTORE PUSH1 0x20 PUSH1 0x40 PUSH1 0x0 KECCAK256 SLOAD PUSH1 0x40 MLOAD SWAP1 DUP2 MSTORE RETURN JUMPDEST CALLVALUE PUSH2 0x2CE JUMPI PUSH1 0x60 CALLDATASIZE PUSH1 0x3 NOT ADD SLT PUSH2 0x2CE JUMPI PUSH1 0x4 CALLDATALOAD PUSH1 0x1 PUSH1 0x1 PUSH1 0x40 SHL SUB DUP2 GT PUSH2 0x2CE JUMPI PUSH2 0x2B6C SWAP1 CALLDATASIZE SWAP1 PUSH1 0x4 ADD PUSH2 0x300A JUMP JUMPDEST PUSH2 0x2B74 PUSH2 0x360E JUMP JUMPDEST PUSH2 0x2B7C PUSH2 0x3664 JUMP JUMPDEST DUP1 ISZERO PUSH2 0x2FD3 JUMPI PUSH1 0x5 SLOAD PUSH1 0x24 CALLDATALOAD LT PUSH2 0x2F9D JUMPI PUSH1 0x44 CALLDATALOAD ISZERO ISZERO DUP1 PUSH2 0x2F8F JUMPI JUMPDEST ISZERO PUSH2 0x2F57 JUMPI PUSH2 0x2710 SWAP1 DUP2 PUSH2 0x2BB0 PUSH1 0x3 SLOAD PUSH1 0x24 CALLDATALOAD PUSH2 0x3279 JUMP JUMPDEST DIV SWAP2 PUSH2 0x2BC0 PUSH1 0x4 SLOAD PUSH1 0x24 CALLDATALOAD PUSH2 0x3279 JUMP JUMPDEST DIV SWAP2 PUSH2 0x2BD7 DUP4 PUSH2 0x2BD2 DUP4 PUSH1 0x24 CALLDATALOAD PUSH2 0x32C2 JUMP JUMPDEST PUSH2 0x32C2 JUMP JUMPDEST PUSH1 0x2 SLOAD PUSH1 0x40 MLOAD PUSH4 0x23B872DD PUSH1 0xE0 SHL PUSH1 0x20 DUP3 ADD MSTORE CALLER PUSH1 0x24 DUP3 ADD MSTORE ADDRESS PUSH1 0x44 DUP3 ADD MSTORE PUSH1 0x64 DUP1 DUP3 ADD SWAP4 SWAP1 SWAP4 MSTORE SWAP2 DUP3 MSTORE PUSH1 0x1 PUSH1 0x1 PUSH1 0xA0 SHL SUB AND SWAP1 PUSH1 0x1 PUSH1 0x1 PUSH1 0x40 SHL SUB PUSH1 0xA0 DUP3 ADD SWAP1 DUP2 GT SWAP1 DUP3 GT OR PUSH2 0xF4B JUMPI PUSH2 0x2C33 SWAP2 PUSH1 0xA0 DUP3 ADD PUSH1 0x40 MSTORE PUSH2 0x3E12 JUMP JUMPDEST PUSH2 0x2C3E PUSH1 0x7 SLOAD PUSH2 0x32CF JUMP JUMPDEST SWAP3 DUP4 PUSH1 0x7 SSTORE PUSH2 0x2C4F PUSH1 0x44 CALLDATALOAD TIMESTAMP PUSH2 0x32C2 JUMP JUMPDEST SWAP1 PUSH1 0x40 MLOAD SWAP3 PUSH2 0x2C5D DUP5 PUSH2 0x3146 JUMP JUMPDEST DUP6 DUP5 MSTORE CALLER PUSH1 0x20 DUP6 ADD MSTORE PUSH2 0x2C71 CALLDATASIZE DUP7 DUP10 PUSH2 0x32F9 JUMP JUMPDEST PUSH1 0x40 DUP6 ADD MSTORE PUSH1 0x24 CALLDATALOAD PUSH1 0x60 DUP6 ADD MSTORE PUSH1 0x80 DUP5 ADD MSTORE PUSH1 0xA0 DUP4 ADD MSTORE PUSH1 0xC0 DUP3 ADD MSTORE PUSH1 0x0 PUSH1 0xE0 DUP3 ADD MSTORE PUSH1 0x0 PUSH2 0x100 DUP3 ADD MSTORE PUSH1 0x0 PUSH2 0x120 DUP3 ADD MSTORE PUSH1 0x0 PUSH2 0x140 DUP3 ADD MSTORE TIMESTAMP PUSH2 0x160 DUP3 ADD MSTORE PUSH1 0x0 PUSH2 0x180 DUP3 ADD MSTORE DUP3 PUSH1 0x0 MSTORE PUSH1 0xB PUSH1 0x20 MSTORE PUSH1 0x40 PUSH1 0x0 KECCAK256 SWAP4 DUP2 MLOAD DUP6 SSTORE PUSH1 0x1 DUP6 ADD PUSH1 0x1 DUP1 PUSH1 0xA0 SHL SUB PUSH1 0x20 DUP5 ADD MLOAD AND PUSH1 0x1 PUSH1 0x1 PUSH1 0x60 SHL SUB PUSH1 0xA0 SHL DUP3 SLOAD AND OR SWAP1 SSTORE PUSH1 0x40 DUP3 ADD MLOAD DUP1 MLOAD SWAP1 PUSH1 0x1 PUSH1 0x1 PUSH1 0x40 SHL SUB DUP3 GT PUSH2 0xF4B JUMPI DUP2 SWAP1 PUSH2 0x2D15 PUSH1 0x2 DUP10 ADD SLOAD PUSH2 0x310C JUMP JUMPDEST PUSH1 0x1F DUP2 GT PUSH2 0x2F04 JUMPI JUMPDEST POP PUSH1 0x20 SWAP1 PUSH1 0x1F DUP4 GT PUSH1 0x1 EQ PUSH2 0x2E92 JUMPI PUSH1 0x0 SWAP3 PUSH2 0x2E87 JUMPI JUMPDEST POP POP DUP2 PUSH1 0x1 SHL SWAP2 PUSH1 0x0 NOT SWAP1 PUSH1 0x3 SHL SHR NOT AND OR PUSH1 0x2 DUP7 ADD SSTORE JUMPDEST PUSH1 0x60 DUP3 ADD MLOAD PUSH1 0x3 DUP7 ADD SSTORE PUSH1 0x80 DUP3 ADD MLOAD PUSH1 0x4 DUP7 ADD SSTORE PUSH1 0xA0 DUP3 ADD MLOAD PUSH1 0x5 DUP7 ADD SSTORE PUSH1 0xC0 DUP3 ADD MLOAD PUSH1 0x6 DUP7 ADD SSTORE PUSH1 0xE0 DUP3 ADD MLOAD SWAP1 PUSH1 0x7 DUP3 LT ISZERO PUSH2 0x887 JUMPI PUSH1 0x7 DUP7 ADD DUP1 SLOAD PUSH2 0x100 DUP6 ADD MLOAD PUSH2 0x100 PUSH1 0x1 PUSH1 0xA8 SHL SUB PUSH1 0x8 SWAP2 SWAP1 SWAP2 SHL AND PUSH1 0xFF SWAP5 SWAP1 SWAP5 AND PUSH1 0x1 PUSH1 0x1 PUSH1 0xA8 SHL SUB NOT SWAP1 SWAP2 AND OR SWAP3 SWAP1 SWAP3 OR SWAP1 SWAP2 SSTORE PUSH1 0x20 SWAP5 DUP5 SWAP3 PUSH32 0xB5E5FBF3346E9F5C610406862E51622B9D1E7FEFD46DE0E79367DE79C2B74890 SWAP3 SWAP2 SWAP1 PUSH1 0xB SWAP1 PUSH2 0x180 SWAP1 PUSH1 0x8 DUP5 ADD PUSH1 0x1 DUP1 PUSH1 0xA0 SHL SUB PUSH2 0x120 DUP4 ADD MLOAD AND PUSH1 0x1 PUSH1 0x1 PUSH1 0x60 SHL SUB PUSH1 0xA0 SHL DUP3 SLOAD AND OR SWAP1 SSTORE PUSH2 0x140 DUP2 ADD MLOAD PUSH1 0x9 DUP6 ADD SSTORE PUSH2 0x160 DUP2 ADD MLOAD PUSH1 0xA DUP6 ADD SSTORE ADD MLOAD SWAP2 ADD SSTORE CALLER PUSH1 0x0 MSTORE PUSH1 0xF DUP7 MSTORE PUSH1 0x40 PUSH1 0x0 KECCAK256 PUSH2 0x2E3F DUP2 SLOAD PUSH2 0x32CF JUMP JUMPDEST SWAP1 SSTORE DUP3 PUSH1 0x0 MSTORE PUSH1 0xB DUP7 MSTORE PUSH1 0x6 PUSH1 0x40 PUSH1 0x0 KECCAK256 ADD SLOAD PUSH2 0x2E77 PUSH1 0x40 MLOAD SWAP3 DUP4 SWAP3 PUSH1 0x24 CALLDATALOAD DUP5 MSTORE DUP10 DUP5 ADD MSTORE PUSH1 0x60 PUSH1 0x40 DUP5 ADD MSTORE CALLER SWAP7 PUSH1 0x60 DUP5 ADD SWAP2 PUSH2 0x3330 JUMP JUMPDEST SUB SWAP1 LOG3 PUSH1 0x1 PUSH1 0x0 SSTORE PUSH1 0x40 MLOAD SWAP1 DUP2 MSTORE RETURN JUMPDEST ADD MLOAD SWAP1 POP DUP8 DUP1 PUSH2 0x2D35 JUMP JUMPDEST SWAP3 POP PUSH1 0x2 DUP9 ADD PUSH1 0x0 MSTORE PUSH1 0x20 PUSH1 0x0 KECCAK256 SWAP1 PUSH1 0x0 SWAP4 JUMPDEST PUSH1 0x1F NOT DUP5 AND DUP6 LT PUSH2 0x2EE9 JUMPI PUSH1 0x1 SWAP5 POP DUP4 PUSH1 0x1F NOT DUP2 AND LT PUSH2 0x2ED0 JUMPI JUMPDEST POP POP POP DUP2 SHL ADD PUSH1 0x2 DUP7 ADD SSTORE PUSH2 0x2D4D JUMP JUMPDEST ADD MLOAD PUSH1 0x0 NOT PUSH1 0xF8 DUP5 PUSH1 0x3 SHL AND SHR NOT AND SWAP1 SSTORE DUP8 DUP1 DUP1 PUSH2 0x2EC0 JUMP JUMPDEST DUP2 DUP2 ADD MLOAD DUP4 SSTORE PUSH1 0x20 SWAP5 DUP6 ADD SWAP5 PUSH1 0x1 SWAP1 SWAP4 ADD SWAP3 SWAP1 SWAP2 ADD SWAP1 PUSH2 0x2EA5 JUMP JUMPDEST SWAP1 SWAP2 POP PUSH1 0x2 DUP9 ADD PUSH1 0x0 MSTORE PUSH1 0x20 PUSH1 0x0 KECCAK256 PUSH1 0x1F DUP5 ADD PUSH1 0x5 SHR DUP2 ADD PUSH1 0x20 DUP6 LT PUSH2 0x2F50 JUMPI JUMPDEST SWAP1 DUP5 SWAP4 SWAP3 SWAP2 JUMPDEST PUSH1 0x1F DUP4 ADD PUSH1 0x5 SHR DUP3 ADD DUP2 LT PUSH2 0x2F41 JUMPI POP POP PUSH2 0x2D1E JUMP JUMPDEST PUSH1 0x0 DUP2 SSTORE DUP6 SWAP5 POP PUSH1 0x1 ADD PUSH2 0x2F2B JUMP JUMPDEST POP DUP1 PUSH2 0x2F25 JUMP JUMPDEST PUSH1 0x40 MLOAD PUSH3 0x461BCD PUSH1 0xE5 SHL DUP2 MSTORE PUSH1 0x20 PUSH1 0x4 DUP3 ADD MSTORE PUSH1 0x10 PUSH1 0x24 DUP3 ADD MSTORE PUSH16 0x24B73B30B634B210323AB930BA34B7B7 PUSH1 0x81 SHL PUSH1 0x44 DUP3 ADD MSTORE PUSH1 0x64 SWAP1 REVERT JUMPDEST POP PUSH1 0x6 SLOAD PUSH1 0x44 CALLDATALOAD GT ISZERO PUSH2 0x2B98 JUMP JUMPDEST PUSH1 0x40 MLOAD PUSH3 0x461BCD PUSH1 0xE5 SHL DUP2 MSTORE PUSH1 0x20 PUSH1 0x4 DUP3 ADD MSTORE PUSH1 0xE PUSH1 0x24 DUP3 ADD MSTORE PUSH14 0x52657761726420746F6F206C6F77 PUSH1 0x90 SHL PUSH1 0x44 DUP3 ADD MSTORE PUSH1 0x64 SWAP1 REVERT JUMPDEST PUSH1 0x40 MLOAD PUSH3 0x461BCD PUSH1 0xE5 SHL DUP2 MSTORE PUSH1 0x20 PUSH1 0x4 DUP3 ADD MSTORE PUSH1 0xF PUSH1 0x24 DUP3 ADD MSTORE PUSH15 0x8ADAE0E8F240E8C2E6D640D0C2E6D PUSH1 0x8B SHL PUSH1 0x44 DUP3 ADD MSTORE PUSH1 0x64 SWAP1 REVERT JUMPDEST SWAP2 DUP2 PUSH1 0x1F DUP5 ADD SLT ISZERO PUSH2 0x2CE JUMPI DUP3 CALLDATALOAD SWAP2 PUSH1 0x1 PUSH1 0x1 PUSH1 0x40 SHL SUB DUP4 GT PUSH2 0x2CE JUMPI PUSH1 0x20 DUP4 DUP2 DUP7 ADD SWAP6 ADD ADD GT PUSH2 0x2CE JUMPI JUMP JUMPDEST PUSH1 0x40 SWAP1 PUSH1 0x3 NOT ADD SLT PUSH2 0x2CE JUMPI PUSH1 0x4 CALLDATALOAD SWAP1 PUSH1 0x24 CALLDATALOAD SWAP1 JUMP JUMPDEST PUSH1 0x4 CALLDATALOAD SWAP1 PUSH1 0x1 PUSH1 0x1 PUSH1 0xA0 SHL SUB DUP3 AND DUP3 SUB PUSH2 0x2CE JUMPI JUMP JUMPDEST PUSH1 0x60 SWAP1 PUSH1 0x3 NOT ADD SLT PUSH2 0x2CE JUMPI PUSH1 0x4 CALLDATALOAD SWAP1 PUSH1 0x24 CALLDATALOAD SWAP1 PUSH1 0x44 CALLDATALOAD PUSH1 0x1 PUSH1 0x1 PUSH1 0xA0 SHL SUB DUP2 AND DUP2 SUB PUSH2 0x2CE JUMPI SWAP1 JUMP JUMPDEST SWAP2 SWAP1 DUP3 MLOAD SWAP3 DUP4 DUP3 MSTORE PUSH1 0x0 JUMPDEST DUP5 DUP2 LT PUSH2 0x30B9 JUMPI POP POP DUP3 PUSH1 0x0 PUSH1 0x20 DUP1 SWAP5 SWAP6 DUP5 ADD ADD MSTORE PUSH1 0x1F DUP1 NOT SWAP2 ADD AND ADD ADD SWAP1 JUMP JUMPDEST PUSH1 0x20 DUP2 DUP4 ADD DUP2 ADD MLOAD DUP5 DUP4 ADD DUP3 ADD MSTORE ADD PUSH2 0x3098 JUMP JUMPDEST SWAP1 PUSH1 0x7 DUP3 LT ISZERO PUSH2 0x887 JUMPI MSTORE JUMP JUMPDEST DUP1 SLOAD DUP3 LT ISZERO PUSH2 0x30F6 JUMPI PUSH1 0x0 MSTORE PUSH1 0x6 PUSH1 0x20 PUSH1 0x0 KECCAK256 SWAP2 MUL ADD SWAP1 PUSH1 0x0 SWAP1 JUMP JUMPDEST PUSH4 0x4E487B71 PUSH1 0xE0 SHL PUSH1 0x0 MSTORE PUSH1 0x32 PUSH1 0x4 MSTORE PUSH1 0x24 PUSH1 0x0 REVERT JUMPDEST SWAP1 PUSH1 0x1 DUP3 DUP2 SHR SWAP3 AND DUP1 ISZERO PUSH2 0x313C JUMPI JUMPDEST PUSH1 0x20 DUP4 LT EQ PUSH2 0x3126 JUMPI JUMP JUMPDEST PUSH4 0x4E487B71 PUSH1 0xE0 SHL PUSH1 0x0 MSTORE PUSH1 0x22 PUSH1 0x4 MSTORE PUSH1 0x24 PUSH1 0x0 REVERT JUMPDEST SWAP2 PUSH1 0x7F AND SWAP2 PUSH2 0x311B JUMP JUMPDEST PUSH2 0x1A0 DUP2 ADD SWAP1 DUP2 LT PUSH1 0x1 PUSH1 0x1 PUSH1 0x40 SHL SUB DUP3 GT OR PUSH2 0xF4B JUMPI PUSH1 0x40 MSTORE JUMP JUMPDEST PUSH1 0xC0 DUP2 ADD SWAP1 DUP2 LT PUSH1 0x1 PUSH1 0x1 PUSH1 0x40 SHL SUB DUP3 GT OR PUSH2 0xF4B JUMPI PUSH1 0x40 MSTORE JUMP JUMPDEST PUSH1 0x80 DUP2 ADD SWAP1 DUP2 LT PUSH1 0x1 PUSH1 0x1 PUSH1 0x40 SHL SUB DUP3 GT OR PUSH2 0xF4B JUMPI PUSH1 0x40 MSTORE JUMP JUMPDEST PUSH1 0x60 DUP2 ADD SWAP1 DUP2 LT PUSH1 0x1 PUSH1 0x1 PUSH1 0x40 SHL SUB DUP3 GT OR PUSH2 0xF4B JUMPI PUSH1 0x40 MSTORE JUMP JUMPDEST SWAP1 PUSH1 0x1F DUP1 NOT SWAP2 ADD AND DUP2 ADD SWAP1 DUP2 LT PUSH1 0x1 PUSH1 0x1 PUSH1 0x40 SHL SUB DUP3 GT OR PUSH2 0xF4B JUMPI PUSH1 0x40 MSTORE JUMP JUMPDEST SWAP1 PUSH1 0x40 MLOAD SWAP2 DUP3 PUSH1 0x0 DUP3 SLOAD PUSH2 0x31E7 DUP2 PUSH2 0x310C JUMP JUMPDEST SWAP1 DUP2 DUP5 MSTORE PUSH1 0x20 SWAP5 PUSH1 0x1 SWAP2 PUSH1 0x1 DUP2 AND SWAP1 DUP2 PUSH1 0x0 EQ PUSH2 0x3257 JUMPI POP PUSH1 0x1 EQ PUSH2 0x3218 JUMPI JUMPDEST POP POP POP PUSH2 0x3216 SWAP3 POP SUB DUP4 PUSH2 0x31B3 JUMP JUMPDEST JUMP JUMPDEST PUSH1 0x0 SWAP1 DUP2 MSTORE DUP6 DUP2 KECCAK256 SWAP6 SWAP4 POP SWAP2 SWAP1 JUMPDEST DUP2 DUP4 LT PUSH2 0x323F JUMPI POP POP PUSH2 0x3216 SWAP4 POP DUP3 ADD ADD CODESIZE DUP1 DUP1 PUSH2 0x3207 JUMP JUMPDEST DUP6 SLOAD DUP9 DUP5 ADD DUP6 ADD MSTORE SWAP5 DUP6 ADD SWAP5 DUP8 SWAP5 POP SWAP2 DUP4 ADD SWAP2 PUSH2 0x3226 JUMP JUMPDEST SWAP3 POP POP POP PUSH2 0x3216 SWAP5 SWAP3 POP PUSH1 0xFF NOT AND DUP3 DUP5 ADD MSTORE ISZERO ISZERO PUSH1 0x5 SHL DUP3 ADD ADD CODESIZE DUP1 DUP1 PUSH2 0x3207 JUMP JUMPDEST DUP2 DUP2 MUL SWAP3 SWAP2 DUP2 ISZERO SWAP2 DUP5 DIV EQ OR ISZERO PUSH2 0x328C JUMPI JUMP JUMPDEST PUSH4 0x4E487B71 PUSH1 0xE0 SHL PUSH1 0x0 MSTORE PUSH1 0x11 PUSH1 0x4 MSTORE PUSH1 0x24 PUSH1 0x0 REVERT JUMPDEST DUP2 ISZERO PUSH2 0x32AC JUMPI DIV SWAP1 JUMP JUMPDEST PUSH4 0x4E487B71 PUSH1 0xE0 SHL PUSH1 0x0 MSTORE PUSH1 0x12 PUSH1 0x4 MSTORE PUSH1 0x24 PUSH1 0x0 REVERT JUMPDEST SWAP2 SWAP1 DUP3 ADD DUP1 SWAP3 GT PUSH2 0x328C JUMPI JUMP JUMPDEST PUSH1 0x0 NOT DUP2 EQ PUSH2 0x328C JUMPI PUSH1 0x1 ADD SWAP1 JUMP JUMPDEST PUSH1 0x1 PUSH1 0x1 PUSH1 0x40 SHL SUB DUP2 GT PUSH2 0xF4B JUMPI PUSH1 0x1F ADD PUSH1 0x1F NOT AND PUSH1 0x20 ADD SWAP1 JUMP JUMPDEST SWAP3 SWAP2 SWAP3 PUSH2 0x3305 DUP3 PUSH2 0x32DE JUMP JUMPDEST SWAP2 PUSH2 0x3313 PUSH1 0x40 MLOAD SWAP4 DUP5 PUSH2 0x31B3 JUMP JUMPDEST DUP3 SWAP5 DUP2 DUP5 MSTORE DUP2 DUP4 ADD GT PUSH2 0x2CE JUMPI DUP3 DUP2 PUSH1 0x20 SWAP4 DUP5 PUSH1 0x0 SWAP7 ADD CALLDATACOPY ADD ADD MSTORE JUMP JUMPDEST SWAP1 DUP1 PUSH1 0x20 SWAP4 SWAP3 DUP2 DUP5 MSTORE DUP5 DUP5 ADD CALLDATACOPY PUSH1 0x0 DUP3 DUP3 ADD DUP5 ADD MSTORE PUSH1 0x1F ADD PUSH1 0x1F NOT AND ADD ADD SWAP1 JUMP JUMPDEST ISZERO PUSH2 0x3358 JUMPI JUMP JUMPDEST PUSH1 0x40 MLOAD PUSH3 0x461BCD PUSH1 0xE5 SHL DUP2 MSTORE PUSH1 0x20 PUSH1 0x4 DUP3 ADD MSTORE PUSH1 0xF PUSH1 0x24 DUP3 ADD MSTORE PUSH15 0x496E76616C69642061646472657373 PUSH1 0x88 SHL PUSH1 0x44 DUP3 ADD MSTORE PUSH1 0x64 SWAP1 REVERT JUMPDEST PUSH1 0x1 PUSH1 0x1 PUSH1 0x40 SHL SUB DUP2 GT PUSH2 0xF4B JUMPI PUSH1 0x5 SHL PUSH1 0x20 ADD SWAP1 JUMP JUMPDEST ISZERO PUSH2 0x33AD JUMPI JUMP JUMPDEST PUSH1 0x40 MLOAD PUSH3 0x461BCD PUSH1 0xE5 SHL DUP2 MSTORE PUSH1 0x20 PUSH1 0x4 DUP3 ADD MSTORE PUSH1 0xE PUSH1 0x24 DUP3 ADD MSTORE PUSH14 0x15185CDAC81B9BDD08199BDD5B99 PUSH1 0x92 SHL PUSH1 0x44 DUP3 ADD MSTORE PUSH1 0x64 SWAP1 REVERT JUMPDEST ISZERO PUSH2 0x33EA JUMPI JUMP JUMPDEST PUSH1 0x40 MLOAD PUSH3 0x461BCD PUSH1 0xE5 SHL DUP2 MSTORE PUSH1 0x20 PUSH1 0x4 DUP3 ADD MSTORE PUSH1 0xC PUSH1 0x24 DUP3 ADD MSTORE PUSH12 0x15185CDAC8195E1C1A5C9959 PUSH1 0xA2 SHL PUSH1 0x44 DUP3 ADD MSTORE PUSH1 0x64 SWAP1 REVERT JUMPDEST ISZERO PUSH2 0x3425 JUMPI JUMP JUMPDEST PUSH1 0x40 MLOAD PUSH3 0x461BCD PUSH1 0xE5 SHL DUP2 MSTORE PUSH1 0x20 PUSH1 0x4 DUP3 ADD MSTORE PUSH1 0xF PUSH1 0x24 DUP3 ADD MSTORE PUSH15 0x2737BA1030903B30B634B230BA37B9 PUSH1 0x89 SHL PUSH1 0x44 DUP3 ADD MSTORE PUSH1 0x64 SWAP1 REVERT JUMPDEST ISZERO PUSH2 0x3463 JUMPI JUMP JUMPDEST PUSH1 0x40 MLOAD PUSH3 0x461BCD PUSH1 0xE5 SHL DUP2 MSTORE PUSH1 0x20 PUSH1 0x4 DUP3 ADD MSTORE PUSH1 0x17 PUSH1 0x24 DUP3 ADD MSTORE PUSH32 0x5461736B206E6F742070656E64696E6720726576696577000000000000000000 PUSH1 0x44 DUP3 ADD MSTORE PUSH1 0x64 SWAP1 REVERT JUMPDEST ISZERO PUSH2 0x34AF JUMPI JUMP JUMPDEST PUSH1 0x40 MLOAD PUSH3 0x461BCD PUSH1 0xE5 SHL DUP2 MSTORE PUSH1 0x20 PUSH1 0x4 DUP3 ADD MSTORE PUSH1 0x13 PUSH1 0x24 DUP3 ADD MSTORE PUSH19 0x92DCECC2D8D2C840DAD2DCCAE440D2DCC8CAF PUSH1 0x6B SHL PUSH1 0x44 DUP3 ADD MSTORE PUSH1 0x64 SWAP1 REVERT JUMPDEST ISZERO PUSH2 0x34F1 JUMPI JUMP JUMPDEST PUSH1 0x40 MLOAD PUSH3 0x461BCD PUSH1 0xE5 SHL DUP2 MSTORE PUSH1 0x20 PUSH1 0x4 DUP3 ADD MSTORE PUSH1 0x15 PUSH1 0x24 DUP3 ADD MSTORE PUSH21 0x416C72656164792068617320636F6E73656E737573 PUSH1 0x58 SHL PUSH1 0x44 DUP3 ADD MSTORE PUSH1 0x64 SWAP1 REVERT JUMPDEST PUSH1 0xA SLOAD SWAP1 PUSH5 0xE8D4A51000 DUP2 LT PUSH2 0x354D JUMPI POP PUSH1 0x2 DUP2 ADD DUP1 SWAP2 GT PUSH2 0x328C JUMPI SWAP1 JUMP JUMPDEST PUSH5 0x174876E800 GT ISZERO PUSH2 0x355C JUMPI SWAP1 JUMP JUMPDEST PUSH1 0x1 DUP2 ADD DUP1 SWAP2 GT PUSH2 0x328C JUMPI SWAP1 JUMP JUMPDEST DUP1 ISZERO PUSH2 0x328C JUMPI PUSH1 0x0 NOT ADD SWAP1 JUMP JUMPDEST ISZERO PUSH2 0x357E JUMPI JUMP JUMPDEST PUSH1 0x40 MLOAD PUSH3 0x461BCD PUSH1 0xE5 SHL DUP2 MSTORE PUSH1 0x20 PUSH1 0x4 DUP3 ADD MSTORE PUSH1 0x15 PUSH1 0x24 DUP3 ADD MSTORE PUSH21 0x53636F7265206D75737420626520302D313030303 PUSH1 0x5C SHL PUSH1 0x44 DUP3 ADD MSTORE PUSH1 0x64 SWAP1 REVERT JUMPDEST DUP1 SLOAD DUP3 LT ISZERO PUSH2 0x30F6 JUMPI PUSH1 0x0 MSTORE PUSH1 0x20 PUSH1 0x0 KECCAK256 ADD SWAP1 PUSH1 0x0 SWAP1 JUMP JUMPDEST DUP1 SLOAD PUSH1 0x1 PUSH1 0x40 SHL DUP2 LT ISZERO PUSH2 0xF4B JUMPI PUSH2 0x35F0 SWAP2 PUSH1 0x1 DUP3 ADD DUP2 SSTORE PUSH2 0x35BB JUMP JUMPDEST PUSH1 0x1 DUP1 PUSH1 0xA0 SWAP5 SWAP4 SWAP5 SHL SUB DUP1 DUP5 SLOAD SWAP3 PUSH1 0x3 SHL SWAP4 AND DUP4 SHL SWAP3 SHL NOT AND OR SWAP1 SSTORE JUMP JUMPDEST PUSH1 0x2 PUSH1 0x0 SLOAD EQ PUSH2 0x361F JUMPI PUSH1 0x2 PUSH1 0x0 SSTORE JUMP JUMPDEST PUSH1 0x40 MLOAD PUSH3 0x461BCD PUSH1 0xE5 SHL DUP2 MSTORE PUSH1 0x20 PUSH1 0x4 DUP3 ADD MSTORE PUSH1 0x1F PUSH1 0x24 DUP3 ADD MSTORE PUSH32 0x5265656E7472616E637947756172643A207265656E7472616E742063616C6C00 PUSH1 0x44 DUP3 ADD MSTORE PUSH1 0x64 SWAP1 REVERT JUMPDEST PUSH1 0xFF PUSH1 0x1 SLOAD PUSH1 0xA0 SHR AND PUSH2 0x3673 JUMPI JUMP JUMPDEST PUSH1 0x40 MLOAD PUSH3 0x461BCD PUSH1 0xE5 SHL DUP2 MSTORE PUSH1 0x20 PUSH1 0x4 DUP3 ADD MSTORE PUSH1 0x10 PUSH1 0x24 DUP3 ADD MSTORE PUSH16 0x14185D5CD8589B194E881C185D5CD959 PUSH1 0x82 SHL PUSH1 0x44 DUP3 ADD MSTORE PUSH1 0x64 SWAP1 REVERT JUMPDEST PUSH1 0x1 SLOAD PUSH1 0x1 PUSH1 0x1 PUSH1 0xA0 SHL SUB AND CALLER SUB PUSH2 0x36BF JUMPI JUMP JUMPDEST PUSH1 0x64 PUSH1 0x40 MLOAD PUSH3 0x461BCD PUSH1 0xE5 SHL DUP2 MSTORE PUSH1 0x20 PUSH1 0x4 DUP3 ADD MSTORE PUSH1 0x20 PUSH1 0x24 DUP3 ADD MSTORE PUSH32 0x4F776E61626C653A2063616C6C6572206973206E6F7420746865206F776E6572 PUSH1 0x44 DUP3 ADD MSTORE REVERT JUMPDEST PUSH1 0x40 MLOAD PUSH4 0xA9059CBB PUSH1 0xE0 SHL PUSH1 0x20 DUP3 ADD MSTORE PUSH1 0x1 PUSH1 0x1 PUSH1 0xA0 SHL SUB SWAP1 SWAP3 AND PUSH1 0x24 DUP4 ADD MSTORE PUSH1 0x44 DUP1 DUP4 ADD SWAP4 SWAP1 SWAP4 MSTORE SWAP2 DUP2 MSTORE PUSH2 0x3216 SWAP2 PUSH2 0x373C DUP3 PUSH2 0x317D JUMP JUMPDEST PUSH2 0x3E12 JUMP JUMPDEST SWAP1 PUSH2 0x374B DUP3 PUSH2 0x338F JUMP JUMPDEST PUSH2 0x3758 PUSH1 0x40 MLOAD SWAP2 DUP3 PUSH2 0x31B3 JUMP JUMPDEST DUP3 DUP2 MSTORE DUP1 SWAP3 PUSH2 0x3769 PUSH1 0x1F NOT SWAP2 PUSH2 0x338F JUMP JUMPDEST ADD SWAP1 PUSH1 0x20 CALLDATASIZE SWAP2 ADD CALLDATACOPY JUMP JUMPDEST DUP1 MLOAD DUP3 LT ISZERO PUSH2 0x30F6 JUMPI PUSH1 0x20 SWAP2 PUSH1 0x5 SHL ADD ADD SWAP1 JUMP JUMPDEST SWAP2 SWAP1 DUP3 SUB SWAP2 DUP3 GT PUSH2 0x328C JUMPI JUMP JUMPDEST SWAP3 SWAP2 PUSH2 0x379F DUP2 PUSH2 0x3741 JUMP JUMPDEST SWAP2 PUSH1 0x0 JUMPDEST DUP3 DUP2 LT PUSH2 0x39A1 JUMPI POP DUP5 PUSH1 0x0 MSTORE PUSH1 0x20 PUSH1 0x1C DUP2 MSTORE PUSH1 0x40 SWAP1 DUP2 PUSH1 0x0 KECCAK256 DUP4 PUSH1 0x0 MSTORE DUP2 MSTORE DUP2 PUSH1 0x0 KECCAK256 SWAP1 DUP2 SLOAD SWAP2 DUP6 DUP4 SUB PUSH2 0x395D JUMPI SWAP2 DUP2 SWAP3 DUP5 MLOAD SWAP1 DUP2 SWAP5 DUP3 DUP5 DUP8 SWAP5 MSTORE ADD SWAP1 PUSH1 0x0 MSTORE DUP4 PUSH1 0x0 KECCAK256 SWAP3 PUSH1 0x0 JUMPDEST DUP6 DUP3 DUP3 LT PUSH2 0x393E JUMPI POP POP POP PUSH2 0x3802 SWAP3 POP SUB DUP4 PUSH2 0x31B3 JUMP JUMPDEST PUSH1 0x0 JUMPDEST DUP6 DUP2 LT PUSH2 0x38F7 JUMPI POP POP POP POP POP SWAP1 SWAP2 SWAP3 POP PUSH1 0x1 JUMPDEST DUP2 DUP2 LT PUSH2 0x3871 JUMPI POP PUSH1 0x1 DUP2 DUP2 AND SUB PUSH2 0x383C JUMPI SWAP1 PUSH2 0x3838 SWAP2 PUSH1 0x1 SHR SWAP1 PUSH2 0x3773 JUMP JUMPDEST MLOAD SWAP1 JUMP JUMPDEST PUSH1 0x1 SHR SWAP1 PUSH1 0x0 NOT DUP3 ADD DUP3 DUP2 GT PUSH2 0x328C JUMPI PUSH2 0x386B SWAP3 PUSH2 0x385D PUSH2 0x3864 SWAP3 DUP5 PUSH2 0x3773 JUMP JUMPDEST MLOAD SWAP3 PUSH2 0x3773 JUMP JUMPDEST MLOAD SWAP1 PUSH2 0x32C2 JUMP JUMPDEST PUSH1 0x1 SHR SWAP1 JUMP JUMPDEST SWAP1 PUSH2 0x387E DUP3 DUP5 SWAP6 SWAP5 PUSH2 0x3773 JUMP JUMPDEST MLOAD SWAP3 DUP3 JUMPDEST DUP1 ISZERO ISZERO DUP1 PUSH2 0x38D8 JUMPI JUMPDEST ISZERO PUSH2 0x38C0 JUMPI PUSH1 0x0 NOT DUP2 ADD SWAP1 DUP1 DUP3 GT PUSH2 0x328C JUMPI PUSH2 0x38AA PUSH2 0x38BB SWAP3 DUP9 PUSH2 0x3773 JUMP JUMPDEST MLOAD PUSH2 0x38B5 DUP3 DUP10 PUSH2 0x3773 JUMP JUMPDEST MSTORE PUSH2 0x356A JUMP JUMPDEST PUSH2 0x3882 JUMP JUMPDEST SWAP4 PUSH2 0x38D1 PUSH1 0x1 SWAP4 SWAP5 SWAP3 SWAP7 SWAP6 DUP7 PUSH2 0x3773 JUMP JUMPDEST MSTORE ADD PUSH2 0x3818 JUMP JUMPDEST POP PUSH1 0x0 NOT DUP2 ADD DUP2 DUP2 GT PUSH2 0x328C JUMPI PUSH2 0x38F0 DUP7 SWAP2 DUP9 PUSH2 0x3773 JUMP JUMPDEST MLOAD GT PUSH2 0x388B JUMP JUMPDEST PUSH1 0x0 DUP10 DUP2 MSTORE PUSH1 0xD DUP4 MSTORE DUP5 DUP2 KECCAK256 DUP7 DUP3 MSTORE DUP4 MSTORE DUP5 SWAP1 KECCAK256 PUSH1 0x1 SWAP2 SWAP1 PUSH1 0x1 PUSH1 0x1 PUSH1 0xA0 SHL SUB PUSH2 0x3921 DUP4 DUP8 PUSH2 0x3773 JUMP JUMPDEST MLOAD AND PUSH1 0x0 MSTORE DUP4 MSTORE DUP5 PUSH1 0x0 KECCAK256 SLOAD PUSH2 0x3937 DUP3 DUP11 PUSH2 0x3773 JUMP JUMPDEST MSTORE ADD PUSH2 0x3805 JUMP JUMPDEST DUP6 SLOAD PUSH1 0x1 PUSH1 0x1 PUSH1 0xA0 SHL SUB AND DUP5 MSTORE PUSH1 0x1 SWAP6 DUP7 ADD SWAP6 DUP9 SWAP6 POP SWAP4 ADD SWAP3 ADD PUSH2 0x37EB JUMP JUMPDEST DUP4 MLOAD PUSH3 0x461BCD PUSH1 0xE5 SHL DUP2 MSTORE PUSH1 0x4 DUP2 ADD DUP4 SWAP1 MSTORE PUSH1 0x1B PUSH1 0x24 DUP3 ADD MSTORE PUSH32 0x56616C696461746F7220747261636B696E67206D69736D617463680000000000 PUSH1 0x44 DUP3 ADD MSTORE PUSH1 0x64 SWAP1 REVERT JUMPDEST DUP1 PUSH1 0x0 PUSH2 0x39B0 PUSH1 0x1 SWAP4 DUP8 PUSH2 0x3773 JUMP JUMPDEST MSTORE ADD PUSH2 0x37A3 JUMP JUMPDEST SWAP1 DUP2 PUSH1 0x0 MSTORE PUSH1 0xB PUSH1 0x20 MSTORE PUSH1 0x1 DUP1 PUSH1 0xA0 SHL SUB PUSH1 0x8 PUSH1 0x40 PUSH1 0x0 KECCAK256 ADD SLOAD AND PUSH1 0x0 NOT PUSH1 0xC PUSH1 0x20 MSTORE PUSH1 0x40 PUSH1 0x0 KECCAK256 SWAP2 PUSH1 0x0 SWAP1 DUP4 SLOAD SWAP2 JUMPDEST DUP3 DUP2 LT PUSH2 0x3DC5 JUMPI JUMPDEST POP POP POP PUSH1 0x0 NOT DUP2 EQ PUSH2 0x3DB6 JUMPI DUP4 PUSH1 0x0 MSTORE PUSH1 0x1C PUSH1 0x20 MSTORE PUSH1 0x40 PUSH1 0x0 KECCAK256 DUP2 PUSH1 0x0 MSTORE PUSH1 0x20 MSTORE PUSH1 0x40 PUSH1 0x0 KECCAK256 SWAP1 DUP2 SLOAD SWAP3 DUP4 ISZERO PUSH2 0x3DA5 JUMPI PUSH2 0x3A2B DUP3 PUSH1 0x2 SWAP3 PUSH2 0x30DA JUMP JUMPDEST POP ADD SLOAD SWAP5 PUSH2 0x3A38 DUP5 PUSH2 0x3741 JUMP JUMPDEST SWAP2 PUSH1 0x0 SWAP7 PUSH1 0x0 JUMPDEST DUP7 DUP2 LT PUSH2 0x3B46 JUMPI POP POP POP POP DUP5 ISZERO PUSH2 0x3B36 JUMPI PUSH1 0x0 SWAP5 PUSH1 0x0 JUMPDEST DUP5 DUP2 LT PUSH2 0x3A87 JUMPI POP POP POP POP POP DUP1 DUP3 LT PUSH2 0x3A6D JUMPI POP POP JUMP JUMPDEST PUSH2 0x3A82 SWAP2 PUSH2 0x3A7A SWAP2 PUSH2 0x3787 JUMP JUMPDEST PUSH1 0x15 SLOAD PUSH2 0x32C2 JUMP JUMPDEST PUSH1 0x15 SSTORE JUMP JUMPDEST DUP1 PUSH2 0x3A94 PUSH1 0x1 SWAP3 DUP6 PUSH2 0x3773 JUMP JUMPDEST MLOAD ISZERO PUSH2 0x3B31 JUMPI PUSH2 0x3AC1 PUSH2 0x3ABA DUP5 PUSH2 0x3AB5 PUSH2 0x3AAE DUP6 DUP10 PUSH2 0x3773 JUMP JUMPDEST MLOAD DUP12 PUSH2 0x3279 JUMP JUMPDEST PUSH2 0x32A2 JUMP JUMPDEST DUP1 SWAP10 PUSH2 0x32C2 JUMP JUMPDEST SWAP8 PUSH2 0x3ACC DUP3 DUP8 PUSH2 0x35BB JUMP JUMPDEST SWAP1 SLOAD SWAP1 PUSH1 0x3 SWAP2 DUP6 DUP1 PUSH1 0xA0 SHL SUB SWAP2 DUP4 SHL SHR AND PUSH1 0x0 MSTORE PUSH1 0x11 PUSH1 0x20 MSTORE PUSH1 0x40 PUSH1 0x0 KECCAK256 PUSH2 0x3AF5 DUP4 DUP3 SLOAD PUSH2 0x32C2 JUMP JUMPDEST SWAP1 SSTORE PUSH2 0x3B01 DUP4 DUP9 PUSH2 0x35BB JUMP JUMPDEST DUP6 DUP1 PUSH1 0xA0 SWAP5 SWAP4 SWAP5 SHL SUB SWAP3 SLOAD SWAP2 SHL SHR AND PUSH1 0x0 MSTORE PUSH1 0x12 PUSH1 0x20 MSTORE PUSH2 0x3B28 PUSH1 0x40 PUSH1 0x0 KECCAK256 SWAP2 DUP3 SLOAD PUSH2 0x32C2 JUMP JUMPDEST SWAP1 SSTORE JUMPDEST ADD PUSH2 0x3A56 JUMP JUMPDEST PUSH2 0x3B2B JUMP JUMPDEST POP POP POP PUSH2 0x3A82 SWAP2 POP PUSH1 0x15 SLOAD PUSH2 0x32C2 JUMP JUMPDEST PUSH2 0x3B50 DUP2 DUP8 PUSH2 0x35BB JUMP JUMPDEST SWAP10 SWAP1 SLOAD SWAP10 DUP6 PUSH1 0x0 MSTORE PUSH1 0xD PUSH1 0x20 MSTORE PUSH1 0x40 PUSH1 0x0 KECCAK256 DUP6 PUSH1 0x0 MSTORE PUSH1 0x20 MSTORE PUSH1 0x40 PUSH1 0x0 KECCAK256 PUSH1 0x1 DUP1 PUSH1 0xA0 SHL SUB DUP13 DUP4 PUSH1 0x3 SHL SHR AND PUSH1 0x0 MSTORE PUSH1 0x20 MSTORE PUSH2 0x3B91 DUP5 PUSH1 0x40 PUSH1 0x0 KECCAK256 SLOAD PUSH2 0x3F46 JUMP JUMPDEST SWAP11 PUSH1 0x1 DUP1 PUSH1 0xA0 SHL SUB DUP2 DUP4 PUSH1 0x3 SHL SHR AND PUSH1 0x0 MSTORE PUSH1 0x13 PUSH1 0x20 MSTORE PUSH1 0x40 PUSH1 0x0 KECCAK256 SWAP12 PUSH2 0x3BB8 DUP14 SLOAD PUSH2 0x32CF JUMP JUMPDEST DUP14 SSTORE TIMESTAMP PUSH1 0x3 DUP15 ADD SSTORE PUSH2 0x7D0 DUP2 GT PUSH2 0x3CFD JUMPI PUSH1 0x1 DUP14 ADD PUSH2 0x3BD7 DUP2 SLOAD PUSH2 0x32CF JUMP JUMPDEST SWAP1 SSTORE PUSH1 0x64 PUSH2 0x3BE5 DUP7 DUP12 PUSH2 0x3773 JUMP JUMPDEST MSTORE PUSH1 0x40 MLOAD SWAP1 PUSH1 0x0 DUP3 MSTORE PUSH1 0x20 DUP3 ADD MSTORE DUP8 PUSH32 0x3D70426D5DE70B5AC8BFF45C3C0CD89DB0E473153868B8C61A938D42002584E8 PUSH1 0x40 PUSH1 0x1 DUP1 PUSH1 0xA0 SHL SUB DUP6 DUP8 PUSH1 0x3 SHL SHR AND SWAP4 LOG3 JUMPDEST DUP12 DUP1 SLOAD SWAP4 DUP5 PUSH2 0x3CCD JUMPI JUMPDEST PUSH2 0x3C3C DUP7 DUP12 PUSH2 0x3773 JUMP JUMPDEST MLOAD SWAP2 PUSH1 0x2 ADD SLOAD SWAP2 DUP3 PUSH2 0x3C4D SWAP2 PUSH2 0x3279 JUMP JUMPDEST PUSH2 0x2710 SWAP1 DIV PUSH2 0x3C5C DUP8 DUP13 PUSH2 0x3773 JUMP JUMPDEST MSTORE PUSH2 0x3C67 DUP7 DUP12 PUSH2 0x3773 JUMP JUMPDEST MLOAD PUSH2 0x3C71 SWAP2 PUSH2 0x32C2 JUMP JUMPDEST PUSH1 0x1 SWAP14 SWAP1 SWAP14 ADD SLOAD PUSH1 0x40 DUP1 MLOAD SWAP3 DUP4 MSTORE PUSH1 0x20 DUP4 ADD SWAP6 SWAP1 SWAP6 MSTORE SWAP4 DUP2 ADD SWAP4 SWAP1 SWAP4 MSTORE PUSH1 0x1 PUSH1 0x1 PUSH1 0xA0 SHL SUB PUSH1 0x3 SWAP3 SWAP1 SWAP3 SHL SHR AND SWAP1 PUSH32 0xC2FD17AD7E9F23B8607F0BD02D7A6CDCCCD5A964FA99CE5A066ED34C5B4BB55B SWAP1 PUSH1 0x60 SWAP1 LOG2 PUSH1 0x1 ADD PUSH2 0x3A3F JUMP JUMPDEST SWAP1 PUSH1 0x1 ADD SLOAD SWAP1 PUSH2 0x2710 DUP3 DUP2 DUP2 MUL DIV DUP2 EQ DUP4 ISZERO OR ISZERO PUSH2 0x328C JUMPI DUP6 DUP16 SWAP4 SWAP2 PUSH2 0x3CF3 SWAP3 MUL PUSH2 0x32A2 JUMP JUMPDEST PUSH1 0x2 DUP4 ADD SSTORE PUSH2 0x3C32 JUMP JUMPDEST PUSH2 0x1388 DUP2 GT PUSH2 0x3D59 JUMPI PUSH1 0x32 PUSH2 0x3D12 DUP7 DUP12 PUSH2 0x3773 JUMP JUMPDEST MSTORE PUSH1 0x40 MLOAD SWAP1 PUSH1 0x0 DUP3 MSTORE PUSH1 0x20 DUP3 ADD MSTORE DUP8 PUSH32 0x3D70426D5DE70B5AC8BFF45C3C0CD89DB0E473153868B8C61A938D42002584E8 PUSH1 0x40 PUSH1 0x1 DUP1 PUSH1 0xA0 SHL SUB DUP6 DUP8 PUSH1 0x3 SHL SHR AND SWAP4 LOG3 PUSH2 0x3C28 JUMP JUMPDEST PUSH1 0x0 PUSH2 0x3D65 DUP7 DUP12 PUSH2 0x3773 JUMP JUMPDEST MSTORE PUSH1 0x40 MLOAD SWAP1 DUP2 MSTORE DUP8 PUSH32 0x3B3050DF353576101845973A6B18BBCF16A0187F1C80D60D83D95BE509203C51 PUSH1 0x20 PUSH1 0x1 DUP1 PUSH1 0xA0 SHL SUB DUP6 DUP8 PUSH1 0x3 SHL SHR AND SWAP4 LOG3 PUSH2 0x3C28 JUMP JUMPDEST POP POP POP POP PUSH2 0x3A82 SWAP2 POP PUSH1 0x15 SLOAD PUSH2 0x32C2 JUMP JUMPDEST POP POP PUSH2 0x3A82 SWAP2 POP PUSH1 0x15 SLOAD PUSH2 0x32C2 JUMP JUMPDEST DUP2 PUSH2 0x3DD0 DUP3 DUP8 PUSH2 0x30DA JUMP JUMPDEST POP SLOAD PUSH1 0x1 PUSH1 0x1 PUSH1 0xA0 SHL SUB AND EQ DUP1 PUSH2 0x3DFA JUMPI JUMPDEST PUSH2 0x3DEE JUMPI PUSH1 0x1 ADD PUSH2 0x39E7 JUMP JUMPDEST SWAP3 POP POP POP CODESIZE DUP1 DUP1 PUSH2 0x39EF JUMP JUMPDEST POP PUSH1 0xFF PUSH1 0x3 PUSH2 0x3E09 DUP4 DUP9 PUSH2 0x30DA JUMP JUMPDEST POP ADD SLOAD AND PUSH2 0x3DE2 JUMP JUMPDEST PUSH1 0x1 DUP1 PUSH1 0xA0 SHL SUB AND SWAP1 PUSH1 0x40 MLOAD PUSH1 0x40 DUP2 ADD SWAP1 DUP1 DUP3 LT PUSH1 0x1 PUSH1 0x1 PUSH1 0x40 SHL SUB DUP4 GT OR PUSH2 0xF4B JUMPI PUSH2 0x3EA1 SWAP2 PUSH1 0x40 MSTORE PUSH1 0x20 SWAP4 DUP5 DUP3 MSTORE PUSH32 0x5361666545524332303A206C6F772D6C6576656C2063616C6C206661696C6564 DUP6 DUP4 ADD MSTORE PUSH1 0x0 DUP1 DUP6 DUP8 DUP3 SWAP8 MLOAD SWAP2 ADD DUP3 DUP6 GAS CALL RETURNDATASIZE ISZERO PUSH2 0x3F3E JUMPI RETURNDATASIZE SWAP2 PUSH2 0x3E86 DUP4 PUSH2 0x32DE JUMP JUMPDEST SWAP3 PUSH2 0x3E94 PUSH1 0x40 MLOAD SWAP5 DUP6 PUSH2 0x31B3 JUMP JUMPDEST DUP4 MSTORE RETURNDATASIZE DUP7 DUP9 DUP6 ADD RETURNDATACOPY PUSH2 0x3F97 JUMP JUMPDEST DUP1 MLOAD SWAP2 DUP3 ISZERO SWAP2 DUP5 DUP4 ISZERO PUSH2 0x3F13 JUMPI JUMPDEST POP POP POP SWAP1 POP ISZERO PUSH2 0x3EBC JUMPI POP JUMP JUMPDEST PUSH1 0x84 SWAP1 PUSH1 0x40 MLOAD SWAP1 PUSH3 0x461BCD PUSH1 0xE5 SHL DUP3 MSTORE PUSH1 0x4 DUP3 ADD MSTORE PUSH1 0x2A PUSH1 0x24 DUP3 ADD MSTORE PUSH32 0x5361666545524332303A204552433230206F7065726174696F6E20646964206E PUSH1 0x44 DUP3 ADD MSTORE PUSH10 0x1BDD081CDD58D8D95959 PUSH1 0xB2 SHL PUSH1 0x64 DUP3 ADD MSTORE REVERT JUMPDEST SWAP2 SWAP4 DUP2 DUP1 SWAP5 POP ADD SUB SLT PUSH2 0x3F3A JUMPI DUP3 ADD MLOAD SWAP1 DUP2 ISZERO ISZERO DUP3 SUB PUSH2 0x3F37 JUMPI POP DUP1 CODESIZE DUP1 DUP5 PUSH2 0x3EAF JUMP JUMPDEST DUP1 REVERT JUMPDEST POP DUP1 REVERT JUMPDEST PUSH1 0x60 SWAP2 PUSH2 0x3F97 JUMP JUMPDEST DUP2 ISZERO PUSH2 0x3F90 JUMPI DUP2 DUP1 DUP3 GT ISZERO PUSH2 0x3F80 JUMPI PUSH2 0x3F5E SWAP2 PUSH2 0x3787 JUMP JUMPDEST SWAP1 JUMPDEST PUSH2 0x2710 SWAP2 DUP3 DUP2 MUL SWAP3 DUP2 DUP5 DIV EQ SWAP1 ISZERO OR ISZERO PUSH2 0x328C JUMPI PUSH2 0x3F7D SWAP2 PUSH2 0x32A2 JUMP JUMPDEST SWAP1 JUMP JUMPDEST SWAP1 PUSH2 0x3F8A SWAP2 PUSH2 0x3787 JUMP JUMPDEST SWAP1 PUSH2 0x3F60 JUMP JUMPDEST POP POP PUSH1 0x0 SWAP1 JUMP JUMPDEST SWAP2 SWAP3 SWAP1 ISZERO PUSH2 0x3FF9 JUMPI POP DUP2 MLOAD ISZERO PUSH2 0x3FAB JUMPI POP SWAP1 JUMP JUMPDEST EXTCODESIZE ISZERO PUSH2 0x3FB4 JUMPI SWAP1 JUMP JUMPDEST PUSH1 0x40 MLOAD PUSH3 0x461BCD PUSH1 0xE5 SHL DUP2 MSTORE PUSH1 0x20 PUSH1 0x4 DUP3 ADD MSTORE PUSH1 0x1D PUSH1 0x24 DUP3 ADD MSTORE PUSH32 0x416464726573733A2063616C6C20746F206E6F6E2D636F6E7472616374000000 PUSH1 0x44 DUP3 ADD MSTORE PUSH1 0x64 SWAP1 REVERT JUMPDEST DUP3 MLOAD SWAP1 SWAP2 POP ISZERO PUSH2 0x400C JUMPI POP DUP1 MLOAD SWAP1 PUSH1 0x20 ADD REVERT JUMPDEST PUSH1 0x40 MLOAD PUSH3 0x461BCD PUSH1 0xE5 SHL DUP2 MSTORE PUSH1 0x20 PUSH1 0x4 DUP3 ADD MSTORE SWAP1 DUP2 SWAP1 PUSH2 0x4030 SWAP1 PUSH1 0x24 DUP4 ADD SWAP1 PUSH2 0x308D JUMP JUMPDEST SUB SWAP1 REVERT INVALID LOG2 PUSH5 0x6970667358 0x22 SLT KECCAK256 0xC2 PUSH11 0x5537BF659A9547A3DB4276 SWAP15 AND PUSH3 0x8443B2 0xB2 DUP15 0xDC MCOPY 0x2C SWAP15 ADD PUSH2 0xF755 0xAA PUSH9 0x8C64736F6C63430008 XOR STOP CALLER "},"methodIdentifiers":{"HIGH_VALUE_THRESHOLD()":"ca7b64bb","ULTRA_VALUE_THRESHOLD()":"65617a35","acceptTask(uint256)":"1bf6912d","activeTaskCount(address)":"1ed5c43c","addValidator(address)":"4d238c8e","cancelTask(uint256)":"7eec20a8","collectedFees()":"9003adfe","commitCount(uint256,uint256)":"0ebac45a","commitPhaseDuration()":"483b4039","commitPhaseStart(uint256,uint256)":"77ad68da","commitScore(uint256,uint256,bytes32)":"1dd73e0d","createTask(string,uint256,uint256)":"059378ea","expireTask(uint256)":"62ecc47a","finalizeTask(uint256)":"88488c33","getAdaptiveMinValidations(uint256)":"32e540e9","getCommitHash(uint256,bytes32)":"9d7eea9f","getSubmissionCount(uint256)":"7be24cb8","getSubmissions(uint256)":"16c53ced","getTask(uint256)":"1d65e77e","getValidatorScore(uint256,uint256,address)":"d65314b3","hasMinerSubmitted(uint256,address)":"ac64c822","hasValidatorScored(uint256,uint256,address)":"7ca0ad2d","isValidator(address)":"facd743b","maxTaskDuration()":"c0be15ec","mdtToken()":"f70b5c06","minTaskReward()":"f0992c97","minValidations()":"680038c7","minerEarnings(address)":"0f0da719","owner()":"8da5cb5b","pause()":"8456cb59","paused()":"5c975abb","pendingWithdrawals(address)":"f3f43703","platformFeeRate()":"eeca08f0","removeValidator(address)":"40a141ff","renounceOwnership()":"715018a6","revealCount(uint256,uint256)":"b46e7424","revealPhaseDuration()":"dfc75372","revealScore(uint256,uint256,uint256,bytes32)":"68a7f826","setCommitRevealConfig(uint256,uint256)":"3f422ef3","setMinValidations(uint256)":"2b52d8c3","setPlatformFeeRate(uint256)":"927fef2e","submitResult(uint256,string)":"8c0dd79a","taskSubmissions(uint256,uint256)":"53eea875","tasks(uint256)":"8d977672","totalTasks()":"d22c81e5","transferOwnership(address)":"f2fde38b","unpause()":"3f4ba83a","validateSubmission(uint256,uint256,uint256)":"b7ee5eda","validationCommits(uint256,uint256,address)":"3c9a6bf3","validatorCount()":"0f43a677","validatorEarnings(address)":"39388006","validatorReputation(address)":"d1270485","validatorRewardRate()":"2e44085d","validatorScores(uint256,uint256,address)":"0fb6d805","validators(address)":"fa52c7d8","withdrawEarnings()":"b73c6ce9","withdrawFees(address)":"164e68de"}}}}}