{"src/SubnetRegistry.sol":{"SubnetRegistry":{"abi":[{"inputs":[{"internalType":"address","name":"_mdtToken","type":"address"},{"internalType":"address","name":"_treasury","type":"address"}],"stateMutability":"nonpayable","type":"constructor"},{"anonymous":false,"inputs":[{"indexed":true,"internalType":"uint256","name":"taskId","type":"uint256"},{"indexed":false,"internalType":"uint256","name":"baseMin","type":"uint256"},{"indexed":false,"internalType":"uint256","name":"adaptiveMin","type":"uint256"}],"name":"AdaptiveValidationsApplied","type":"event"},{"anonymous":false,"inputs":[{"indexed":false,"internalType":"uint256","name":"commitDuration","type":"uint256"},{"indexed":false,"internalType":"uint256","name":"revealDuration","type":"uint256"}],"name":"CommitPhaseConfigUpdated","type":"event"},{"anonymous":false,"inputs":[{"indexed":true,"internalType":"uint256","name":"taskId","type":"uint256"},{"indexed":false,"internalType":"uint256","name":"minerIndex","type":"uint256"},{"indexed":false,"internalType":"uint256","name":"medianScore","type":"uint256"},{"indexed":false,"internalType":"uint256","name":"validatorCount","type":"uint256"}],"name":"ConsensusReached","type":"event"},{"anonymous":false,"inputs":[{"indexed":true,"internalType":"address","name":"account","type":"address"},{"indexed":false,"internalType":"uint256","name":"amount","type":"uint256"}],"name":"EarningsWithdrawn","type":"event"},{"anonymous":false,"inputs":[{"indexed":true,"internalType":"uint256","name":"subnetId","type":"uint256"},{"indexed":true,"internalType":"address","name":"miner","type":"address"}],"name":"MinerRegistered","type":"event"},{"anonymous":false,"inputs":[{"indexed":true,"internalType":"address","name":"previousOwner","type":"address"},{"indexed":true,"internalType":"address","name":"newOwner","type":"address"}],"name":"OwnershipTransferred","type":"event"},{"anonymous":false,"inputs":[{"indexed":false,"internalType":"address","name":"account","type":"address"}],"name":"Paused","type":"event"},{"anonymous":false,"inputs":[{"indexed":true,"internalType":"address","name":"to","type":"address"},{"indexed":false,"internalType":"uint256","name":"amount","type":"uint256"}],"name":"ProtocolFeesWithdrawn","type":"event"},{"anonymous":false,"inputs":[{"indexed":true,"internalType":"address","name":"validator","type":"address"},{"indexed":false,"internalType":"uint256","name":"fromSubnet","type":"uint256"},{"indexed":false,"internalType":"uint256","name":"toSubnet","type":"uint256"},{"indexed":false,"internalType":"uint256","name":"portedScore","type":"uint256"}],"name":"ReputationPorted","type":"event"},{"anonymous":false,"inputs":[{"indexed":true,"internalType":"address","name":"validator","type":"address"},{"indexed":false,"internalType":"uint256","name":"newScore","type":"uint256"},{"indexed":false,"internalType":"uint256","name":"totalValidations","type":"uint256"},{"indexed":false,"internalType":"uint256","name":"accurateValidations","type":"uint256"}],"name":"ReputationUpdated","type":"event"},{"anonymous":false,"inputs":[{"indexed":true,"internalType":"uint256","name":"taskId","type":"uint256"},{"indexed":false,"internalType":"uint256","name":"minerIndex","type":"uint256"},{"indexed":true,"internalType":"address","name":"validator","type":"address"}],"name":"ScoreCommitted","type":"event"},{"anonymous":false,"inputs":[{"indexed":true,"internalType":"uint256","name":"taskId","type":"uint256"},{"indexed":false,"internalType":"uint256","name":"minerIndex","type":"uint256"},{"indexed":true,"internalType":"address","name":"validator","type":"address"},{"indexed":false,"internalType":"uint256","name":"score","type":"uint256"}],"name":"ScoreRevealed","type":"event"},{"anonymous":false,"inputs":[{"indexed":true,"internalType":"uint256","name":"taskId","type":"uint256"},{"indexed":true,"internalType":"address","name":"miner","type":"address"},{"indexed":false,"internalType":"string","name":"resultHash","type":"string"}],"name":"SubmissionReceived","type":"event"},{"anonymous":false,"inputs":[{"indexed":true,"internalType":"uint256","name":"taskId","type":"uint256"},{"indexed":true,"internalType":"address","name":"miner","type":"address"},{"indexed":false,"internalType":"uint256","name":"score","type":"uint256"},{"indexed":false,"internalType":"address","name":"validator","type":"address"}],"name":"SubmissionValidated","type":"event"},{"anonymous":false,"inputs":[{"indexed":true,"internalType":"uint256","name":"subnetId","type":"uint256"},{"indexed":false,"internalType":"string","name":"name","type":"string"},{"indexed":true,"internalType":"address","name":"owner","type":"address"},{"indexed":false,"internalType":"uint256","name":"feeRate","type":"uint256"}],"name":"SubnetCreated","type":"event"},{"anonymous":false,"inputs":[{"indexed":true,"internalType":"uint256","name":"subnetId","type":"uint256"},{"indexed":false,"internalType":"uint256","name":"newFeeRate","type":"uint256"},{"indexed":false,"internalType":"enum SubnetRegistry.SubnetStatus","name":"newStatus","type":"uint8"}],"name":"SubnetUpdated","type":"event"},{"anonymous":false,"inputs":[{"indexed":true,"internalType":"uint256","name":"taskId","type":"uint256"},{"indexed":true,"internalType":"uint256","name":"subnetId","type":"uint256"},{"indexed":true,"internalType":"address","name":"winner","type":"address"},{"indexed":false,"internalType":"uint256","name":"minerReward","type":"uint256"},{"indexed":false,"internalType":"uint256","name":"protocolFee","type":"uint256"},{"indexed":false,"internalType":"uint256","name":"subnetFee","type":"uint256"}],"name":"TaskCompleted","type":"event"},{"anonymous":false,"inputs":[{"indexed":true,"internalType":"uint256","name":"taskId","type":"uint256"},{"indexed":true,"internalType":"uint256","name":"subnetId","type":"uint256"},{"indexed":true,"internalType":"address","name":"requester","type":"address"},{"indexed":false,"internalType":"uint256","name":"rewardAmount","type":"uint256"}],"name":"TaskCreated","type":"event"},{"anonymous":false,"inputs":[{"indexed":false,"internalType":"address","name":"account","type":"address"}],"name":"Unpaused","type":"event"},{"anonymous":false,"inputs":[{"indexed":true,"internalType":"uint256","name":"subnetId","type":"uint256"},{"indexed":true,"internalType":"address","name":"validator","type":"address"}],"name":"ValidatorAdded","type":"event"},{"anonymous":false,"inputs":[{"indexed":true,"internalType":"uint256","name":"taskId","type":"uint256"},{"indexed":true,"internalType":"address","name":"validator","type":"address"},{"indexed":false,"internalType":"uint256","name":"deviation","type":"uint256"}],"name":"ValidatorPenalized","type":"event"},{"anonymous":false,"inputs":[{"indexed":true,"internalType":"uint256","name":"subnetId","type":"uint256"},{"indexed":true,"internalType":"address","name":"validator","type":"address"}],"name":"ValidatorRemoved","type":"event"},{"anonymous":false,"inputs":[{"indexed":true,"internalType":"uint256","name":"taskId","type":"uint256"},{"indexed":true,"internalType":"address","name":"validator","type":"address"},{"indexed":false,"internalType":"uint256","name":"amount","type":"uint256"},{"indexed":false,"internalType":"uint256","name":"deviation","type":"uint256"}],"name":"ValidatorRewarded","type":"event"},{"inputs":[],"name":"HIGH_VALUE_THRESHOLD","outputs":[{"internalType":"uint256","name":"","type":"uint256"}],"stateMutability":"view","type":"function"},{"inputs":[],"name":"MAX_SUBNET_FEE_RATE","outputs":[{"internalType":"uint256","name":"","type":"uint256"}],"stateMutability":"view","type":"function"},{"inputs":[],"name":"PROTOCOL_FEE_RATE","outputs":[{"internalType":"uint256","name":"","type":"uint256"}],"stateMutability":"view","type":"function"},{"inputs":[],"name":"REPUTATION_DECAY_FACTOR","outputs":[{"internalType":"uint256","name":"","type":"uint256"}],"stateMutability":"view","type":"function"},{"inputs":[],"name":"SUBNET_REGISTRATION_COST","outputs":[{"internalType":"uint256","name":"","type":"uint256"}],"stateMutability":"view","type":"function"},{"inputs":[],"name":"ULTRA_VALUE_THRESHOLD","outputs":[{"internalType":"uint256","name":"","type":"uint256"}],"stateMutability":"view","type":"function"},{"inputs":[],"name":"VALIDATOR_REWARD_RATE","outputs":[{"internalType":"uint256","name":"","type":"uint256"}],"stateMutability":"view","type":"function"},{"inputs":[{"internalType":"uint256","name":"subnetId","type":"uint256"},{"internalType":"address","name":"validator","type":"address"}],"name":"addValidator","outputs":[],"stateMutability":"nonpayable","type":"function"},{"inputs":[{"internalType":"uint256","name":"","type":"uint256"},{"internalType":"uint256","name":"","type":"uint256"}],"name":"commitCount","outputs":[{"internalType":"uint256","name":"","type":"uint256"}],"stateMutability":"view","type":"function"},{"inputs":[],"name":"commitPhaseDuration","outputs":[{"internalType":"uint256","name":"","type":"uint256"}],"stateMutability":"view","type":"function"},{"inputs":[{"internalType":"uint256","name":"","type":"uint256"},{"internalType":"uint256","name":"","type":"uint256"}],"name":"commitPhaseStart","outputs":[{"internalType":"uint256","name":"","type":"uint256"}],"stateMutability":"view","type":"function"},{"inputs":[{"internalType":"uint256","name":"taskId","type":"uint256"},{"internalType":"uint256","name":"minerIndex","type":"uint256"},{"internalType":"bytes32","name":"commitHash","type":"bytes32"}],"name":"commitScore","outputs":[],"stateMutability":"nonpayable","type":"function"},{"inputs":[{"internalType":"uint256","name":"subnetId","type":"uint256"},{"internalType":"string","name":"taskHash","type":"string"},{"internalType":"uint256","name":"rewardAmount","type":"uint256"},{"internalType":"uint256","name":"duration","type":"uint256"}],"name":"createTask","outputs":[{"internalType":"uint256","name":"taskId","type":"uint256"}],"stateMutability":"nonpayable","type":"function"},{"inputs":[{"internalType":"uint256","name":"taskId","type":"uint256"}],"name":"finalizeTask","outputs":[],"stateMutability":"nonpayable","type":"function"},{"inputs":[],"name":"getActiveSubnetCount","outputs":[{"internalType":"uint256","name":"count","type":"uint256"}],"stateMutability":"view","type":"function"},{"inputs":[{"internalType":"uint256","name":"subnetId","type":"uint256"},{"internalType":"uint256","name":"rewardAmount","type":"uint256"}],"name":"getAdaptiveMinValidations","outputs":[{"internalType":"uint256","name":"","type":"uint256"}],"stateMutability":"view","type":"function"},{"inputs":[{"internalType":"uint256","name":"score","type":"uint256"},{"internalType":"bytes32","name":"salt","type":"bytes32"}],"name":"getCommitHash","outputs":[{"internalType":"bytes32","name":"","type":"bytes32"}],"stateMutability":"pure","type":"function"},{"inputs":[{"internalType":"uint256","name":"taskId","type":"uint256"}],"name":"getSubmissionCount","outputs":[{"internalType":"uint256","name":"","type":"uint256"}],"stateMutability":"view","type":"function"},{"inputs":[{"internalType":"uint256","name":"taskId","type":"uint256"}],"name":"getSubmissions","outputs":[{"components":[{"internalType":"address","name":"miner","type":"address"},{"internalType":"string","name":"resultHash","type":"string"},{"internalType":"uint256","name":"score","type":"uint256"},{"internalType":"bool","name":"validated","type":"bool"},{"internalType":"uint256","name":"submittedAt","type":"uint256"},{"internalType":"uint256","name":"validationCount","type":"uint256"}],"internalType":"struct SubnetRegistry.MinerSubmission[]","name":"","type":"tuple[]"}],"stateMutability":"view","type":"function"},{"inputs":[{"internalType":"uint256","name":"subnetId","type":"uint256"}],"name":"getSubnet","outputs":[{"components":[{"internalType":"uint256","name":"id","type":"uint256"},{"internalType":"string","name":"name","type":"string"},{"internalType":"string","name":"description","type":"string"},{"internalType":"address","name":"owner","type":"address"},{"internalType":"uint256","name":"feeRate","type":"uint256"},{"internalType":"uint256","name":"minTaskReward","type":"uint256"},{"internalType":"uint256","name":"totalVolume","type":"uint256"},{"internalType":"uint256","name":"totalTasks","type":"uint256"},{"internalType":"uint256","name":"activeMiners","type":"uint256"},{"internalType":"enum SubnetRegistry.SubnetStatus","name":"status","type":"uint8"},{"internalType":"uint256","name":"createdAt","type":"uint256"}],"internalType":"struct SubnetRegistry.Subnet","name":"","type":"tuple"}],"stateMutability":"view","type":"function"},{"inputs":[{"internalType":"uint256","name":"taskId","type":"uint256"}],"name":"getTask","outputs":[{"components":[{"internalType":"uint256","name":"id","type":"uint256"},{"internalType":"uint256","name":"subnetId","type":"uint256"},{"internalType":"address","name":"requester","type":"address"},{"internalType":"string","name":"taskHash","type":"string"},{"internalType":"uint256","name":"rewardAmount","type":"uint256"},{"internalType":"uint256","name":"protocolFee","type":"uint256"},{"internalType":"uint256","name":"validatorReward","type":"uint256"},{"internalType":"uint256","name":"subnetFee","type":"uint256"},{"internalType":"uint256","name":"deadline","type":"uint256"},{"internalType":"enum SubnetRegistry.TaskStatus","name":"status","type":"uint8"},{"internalType":"address","name":"winningMiner","type":"address"},{"internalType":"uint256","name":"winningScore","type":"uint256"},{"internalType":"uint256","name":"createdAt","type":"uint256"}],"internalType":"struct SubnetRegistry.Task","name":"","type":"tuple"}],"stateMutability":"view","type":"function"},{"inputs":[{"internalType":"uint256","name":"taskId","type":"uint256"},{"internalType":"uint256","name":"minerIndex","type":"uint256"},{"internalType":"address","name":"validator","type":"address"}],"name":"getValidatorScore","outputs":[{"internalType":"uint256","name":"score","type":"uint256"},{"internalType":"bool","name":"scored","type":"bool"}],"stateMutability":"view","type":"function"},{"inputs":[{"internalType":"uint256","name":"","type":"uint256"},{"internalType":"address","name":"","type":"address"}],"name":"hasMinerSubmitted","outputs":[{"internalType":"bool","name":"","type":"bool"}],"stateMutability":"view","type":"function"},{"inputs":[{"internalType":"uint256","name":"","type":"uint256"},{"internalType":"uint256","name":"","type":"uint256"},{"internalType":"address","name":"","type":"address"}],"name":"hasValidatorScored","outputs":[{"internalType":"bool","name":"","type":"bool"}],"stateMutability":"view","type":"function"},{"inputs":[{"internalType":"uint256","name":"subnetId","type":"uint256"},{"internalType":"address","name":"miner","type":"address"}],"name":"isMiner","outputs":[{"internalType":"bool","name":"","type":"bool"}],"stateMutability":"view","type":"function"},{"inputs":[{"internalType":"uint256","name":"subnetId","type":"uint256"},{"internalType":"address","name":"validator","type":"address"}],"name":"isValidator","outputs":[{"internalType":"bool","name":"","type":"bool"}],"stateMutability":"view","type":"function"},{"inputs":[],"name":"mdtToken","outputs":[{"internalType":"contract IERC20","name":"","type":"address"}],"stateMutability":"view","type":"function"},{"inputs":[{"internalType":"address","name":"","type":"address"}],"name":"minerEarnings","outputs":[{"internalType":"uint256","name":"","type":"uint256"}],"stateMutability":"view","type":"function"},{"inputs":[],"name":"owner","outputs":[{"internalType":"address","name":"","type":"address"}],"stateMutability":"view","type":"function"},{"inputs":[],"name":"paused","outputs":[{"internalType":"bool","name":"","type":"bool"}],"stateMutability":"view","type":"function"},{"inputs":[{"internalType":"address","name":"","type":"address"}],"name":"pendingWithdrawals","outputs":[{"internalType":"uint256","name":"","type":"uint256"}],"stateMutability":"view","type":"function"},{"inputs":[{"internalType":"uint256","name":"fromSubnetId","type":"uint256"},{"internalType":"uint256","name":"toSubnetId","type":"uint256"}],"name":"portReputation","outputs":[],"stateMutability":"nonpayable","type":"function"},{"inputs":[],"name":"protocolTreasury","outputs":[{"internalType":"address","name":"","type":"address"}],"stateMutability":"view","type":"function"},{"inputs":[{"internalType":"uint256","name":"subnetId","type":"uint256"}],"name":"registerMiner","outputs":[],"stateMutability":"nonpayable","type":"function"},{"inputs":[{"internalType":"string","name":"name","type":"string"},{"internalType":"string","name":"description","type":"string"},{"internalType":"uint256","name":"feeRate","type":"uint256"}],"name":"registerSubnet","outputs":[{"internalType":"uint256","name":"subnetId","type":"uint256"}],"stateMutability":"nonpayable","type":"function"},{"inputs":[{"internalType":"uint256","name":"subnetId","type":"uint256"},{"internalType":"address","name":"validator","type":"address"}],"name":"removeValidator","outputs":[],"stateMutability":"nonpayable","type":"function"},{"inputs":[],"name":"renounceOwnership","outputs":[],"stateMutability":"nonpayable","type":"function"},{"inputs":[{"internalType":"uint256","name":"","type":"uint256"},{"internalType":"uint256","name":"","type":"uint256"}],"name":"revealCount","outputs":[{"internalType":"uint256","name":"","type":"uint256"}],"stateMutability":"view","type":"function"},{"inputs":[],"name":"revealPhaseDuration","outputs":[{"internalType":"uint256","name":"","type":"uint256"}],"stateMutability":"view","type":"function"},{"inputs":[{"internalType":"uint256","name":"taskId","type":"uint256"},{"internalType":"uint256","name":"minerIndex","type":"uint256"},{"internalType":"uint256","name":"score","type":"uint256"},{"internalType":"bytes32","name":"salt","type":"bytes32"}],"name":"revealScore","outputs":[],"stateMutability":"nonpayable","type":"function"},{"inputs":[{"internalType":"uint256","name":"_commitDuration","type":"uint256"},{"internalType":"uint256","name":"_revealDuration","type":"uint256"}],"name":"setCommitRevealConfig","outputs":[],"stateMutability":"nonpayable","type":"function"},{"inputs":[{"internalType":"uint256","name":"subnetId","type":"uint256"},{"internalType":"uint256","name":"newMin","type":"uint256"}],"name":"setMinValidations","outputs":[],"stateMutability":"nonpayable","type":"function"},{"inputs":[{"internalType":"address","name":"newTreasury","type":"address"}],"name":"setProtocolTreasury","outputs":[],"stateMutability":"nonpayable","type":"function"},{"inputs":[{"internalType":"uint256","name":"taskId","type":"uint256"},{"internalType":"string","name":"resultHash","type":"string"}],"name":"submitResult","outputs":[],"stateMutability":"nonpayable","type":"function"},{"inputs":[],"name":"subnetCount","outputs":[{"internalType":"uint256","name":"","type":"uint256"}],"stateMutability":"view","type":"function"},{"inputs":[{"internalType":"uint256","name":"","type":"uint256"}],"name":"subnetMinValidations","outputs":[{"internalType":"uint256","name":"","type":"uint256"}],"stateMutability":"view","type":"function"},{"inputs":[{"internalType":"uint256","name":"","type":"uint256"}],"name":"subnetMinerCount","outputs":[{"internalType":"uint256","name":"","type":"uint256"}],"stateMutability":"view","type":"function"},{"inputs":[{"internalType":"uint256","name":"","type":"uint256"},{"internalType":"address","name":"","type":"address"}],"name":"subnetMiners","outputs":[{"internalType":"bool","name":"","type":"bool"}],"stateMutability":"view","type":"function"},{"inputs":[{"internalType":"uint256","name":"","type":"uint256"}],"name":"subnetValidatorCount","outputs":[{"internalType":"uint256","name":"","type":"uint256"}],"stateMutability":"view","type":"function"},{"inputs":[{"internalType":"uint256","name":"","type":"uint256"},{"internalType":"address","name":"","type":"address"}],"name":"subnetValidators","outputs":[{"internalType":"bool","name":"","type":"bool"}],"stateMutability":"view","type":"function"},{"inputs":[{"internalType":"uint256","name":"","type":"uint256"}],"name":"subnets","outputs":[{"internalType":"uint256","name":"id","type":"uint256"},{"internalType":"string","name":"name","type":"string"},{"internalType":"string","name":"description","type":"string"},{"internalType":"address","name":"owner","type":"address"},{"internalType":"uint256","name":"feeRate","type":"uint256"},{"internalType":"uint256","name":"minTaskReward","type":"uint256"},{"internalType":"uint256","name":"totalVolume","type":"uint256"},{"internalType":"uint256","name":"totalTasks","type":"uint256"},{"internalType":"uint256","name":"activeMiners","type":"uint256"},{"internalType":"enum SubnetRegistry.SubnetStatus","name":"status","type":"uint8"},{"internalType":"uint256","name":"createdAt","type":"uint256"}],"stateMutability":"view","type":"function"},{"inputs":[{"internalType":"uint256","name":"","type":"uint256"},{"internalType":"uint256","name":"","type":"uint256"}],"name":"taskSubmissions","outputs":[{"internalType":"address","name":"miner","type":"address"},{"internalType":"string","name":"resultHash","type":"string"},{"internalType":"uint256","name":"score","type":"uint256"},{"internalType":"bool","name":"validated","type":"bool"},{"internalType":"uint256","name":"submittedAt","type":"uint256"},{"internalType":"uint256","name":"validationCount","type":"uint256"}],"stateMutability":"view","type":"function"},{"inputs":[{"internalType":"uint256","name":"","type":"uint256"}],"name":"tasks","outputs":[{"internalType":"uint256","name":"id","type":"uint256"},{"internalType":"uint256","name":"subnetId","type":"uint256"},{"internalType":"address","name":"requester","type":"address"},{"internalType":"string","name":"taskHash","type":"string"},{"internalType":"uint256","name":"rewardAmount","type":"uint256"},{"internalType":"uint256","name":"protocolFee","type":"uint256"},{"internalType":"uint256","name":"validatorReward","type":"uint256"},{"internalType":"uint256","name":"subnetFee","type":"uint256"},{"internalType":"uint256","name":"deadline","type":"uint256"},{"internalType":"enum SubnetRegistry.TaskStatus","name":"status","type":"uint8"},{"internalType":"address","name":"winningMiner","type":"address"},{"internalType":"uint256","name":"winningScore","type":"uint256"},{"internalType":"uint256","name":"createdAt","type":"uint256"}],"stateMutability":"view","type":"function"},{"inputs":[],"name":"totalProtocolFees","outputs":[{"internalType":"uint256","name":"","type":"uint256"}],"stateMutability":"view","type":"function"},{"inputs":[{"internalType":"address","name":"newOwner","type":"address"}],"name":"transferOwnership","outputs":[],"stateMutability":"nonpayable","type":"function"},{"inputs":[{"internalType":"uint256","name":"subnetId","type":"uint256"}],"name":"unregisterSubnet","outputs":[],"stateMutability":"nonpayable","type":"function"},{"inputs":[{"internalType":"uint256","name":"subnetId","type":"uint256"},{"internalType":"uint256","name":"newFeeRate","type":"uint256"},{"internalType":"enum SubnetRegistry.SubnetStatus","name":"newStatus","type":"uint8"}],"name":"updateSubnet","outputs":[],"stateMutability":"nonpayable","type":"function"},{"inputs":[{"internalType":"uint256","name":"taskId","type":"uint256"},{"internalType":"uint256","name":"submissionIndex","type":"uint256"},{"internalType":"uint256","name":"score","type":"uint256"}],"name":"validateSubmission","outputs":[],"stateMutability":"nonpayable","type":"function"},{"inputs":[{"internalType":"uint256","name":"","type":"uint256"},{"internalType":"uint256","name":"","type":"uint256"},{"internalType":"address","name":"","type":"address"}],"name":"validationCommits","outputs":[{"internalType":"bytes32","name":"commitHash","type":"bytes32"},{"internalType":"uint256","name":"committedAt","type":"uint256"},{"internalType":"bool","name":"revealed","type":"bool"},{"internalType":"uint256","name":"revealedScore","type":"uint256"}],"stateMutability":"view","type":"function"},{"inputs":[{"internalType":"address","name":"","type":"address"}],"name":"validatorEarnings","outputs":[{"internalType":"uint256","name":"","type":"uint256"}],"stateMutability":"view","type":"function"},{"inputs":[{"internalType":"address","name":"","type":"address"}],"name":"validatorReputation","outputs":[{"internalType":"uint256","name":"totalValidations","type":"uint256"},{"internalType":"uint256","name":"accurateValidations","type":"uint256"},{"internalType":"uint256","name":"reputationScore","type":"uint256"},{"internalType":"uint256","name":"lastActiveAt","type":"uint256"}],"stateMutability":"view","type":"function"},{"inputs":[{"internalType":"uint256","name":"","type":"uint256"},{"internalType":"uint256","name":"","type":"uint256"},{"internalType":"address","name":"","type":"address"}],"name":"validatorScores","outputs":[{"internalType":"uint256","name":"","type":"uint256"}],"stateMutability":"view","type":"function"},{"inputs":[],"name":"withdrawEarnings","outputs":[],"stateMutability":"nonpayable","type":"function"},{"inputs":[],"name":"withdrawProtocolFees","outputs":[],"stateMutability":"nonpayable","type":"function"}],"evm":{"bytecode":{"linkReferences":{},"object":"6080346200069157601f62004fa838819003918201601f19168301916001600160401b038311848410176200051557808492604094855283398101031262000691576200005a60206200005283620006b6565b9201620006b6565b600160005560015491604051923360018060a01b0382167f8be0079c531659141344cd1fd0a4f28419497f9722a3daafe3b4186f6b6457e0600080a36001600160a81b0319163360ff60a01b191617600155610e10601b55610708601c556001600160a01b03169182156200065f57506001600160a01b0316908115620006275760018060a01b0319600254161760025560018060a01b031960055416176005556200010562000696565b601481527f47656e6572616c20496e74656c6c6967656e636500000000000000000000000060208201526200013962000696565b602081527f546578742c20436f64652c20616e642047656e6572616c204149205461736b736020820152600354906000198214620006115760018201600355604051906001600160401b036101608301908111908311176200051557610160820160405282825283602083015260408201523360608201526101f460808201526305f5e10060a0820152600060c0820152600060e0820152600061010082015260006101208201524261014082015281600052600860205260406000209080518255602081015180519060018060401b0382116200051557600184015490600182811c9216801562000606575b6020831014620004f45781601f849311620005ae575b50602090601f831160011462000537576000926200052b575b50508160011b916000199060031b1c19161760018301555b60408101518051906001600160401b0382116200051557600284015490600182811c921680156200050a575b6020831014620004f45781601f8493116200049c575b50602090601f8311600114620004255760009262000419575b50508160011b916000199060031b1c19161760028301555b6060810151600383810180546001600160a01b0319166001600160a01b0393909316929092179091556080820151600484015560a0820151600584015560c0820151600684015560e082015160078401556101008201516008840155610120820151600984019290918210156200040357600a926101409260ff80198354169116179055015191015580600052600760205260026040600020556040516040815282519283604083015260005b848110620003ec5750508060006060857f8e46dcab88334408205dfdff058de646a02ab7fddb35b9923e924e49ce505c30940101526101f460208201526060813395601f80199101168101030190a36040516148dc9081620006cc8239f35b80602080928401015160608286010152016200038d565b634e487b7160e01b600052602160045260246000fd5b015190503880620002c8565b9250600285016000526020600020906000935b601f198416851062000480576001945083601f1981161062000466575b505050811b016002830155620002e0565b015160001960f88460031b161c1916905538808062000455565b8181015183556020948501946001909301929091019062000438565b909150600285016000526020600020601f840160051c810160208510620004ec575b90849392915b601f830160051c82018110620004dc575050620002af565b60008155859450600101620004c4565b5080620004be565b634e487b7160e01b600052602260045260246000fd5b91607f169162000299565b634e487b7160e01b600052604160045260246000fd5b01519050388062000255565b9250600185016000526020600020906000935b601f198416851062000592576001945083601f1981161062000578575b505050811b0160018301556200026d565b015160001960f88460031b161c1916905538808062000567565b818101518355602094850194600190930192909101906200054a565b909150600185016000526020600020601f840160051c810160208510620005fe575b90849392915b601f830160051c82018110620005ee5750506200023c565b60008155859450600101620005d6565b5080620005d0565b91607f169162000226565b634e487b7160e01b600052601160045260246000fd5b60405162461bcd60e51b815260206004820152601060248201526f496e76616c696420747265617375727960801b6044820152606490fd5b62461bcd60e51b815260206004820152600d60248201526c24b73b30b634b2103a37b5b2b760991b6044820152606490fd5b600080fd5b60408051919082016001600160401b038111838210176200051557604052565b51906001600160a01b0382168203620006915756fe6080604052600436101561001257600080fd5b60003560e01c8063072f4fc0146137e65780630c5a61f8146137995780630ebac45a146137665780630f0da7191461372c5780630fb6d805146136e557806310c6bd25146136b957806310f0dde41461369c57806316c53ced146135345780631d65e77e146133415780631dc375b9146132965780631dd73e0d14612f4957806323f2a73f14610d5557806324c3fd2f14612f285780632fa70f4814612efc5780633370f06e14612edf5780633938800614612ea55780633c9a6bf314612e375780633f422ef314612d5b578063475726f714612c82578063483b403914612c645780634af9398814612c475780634b56175314612aa857806351b15b8a14612a7c57806353eea875146129e357806358ca7504146128295780635c975abb146128035780635cc9bca91461239f57806365617a351461239a57806368a7f82614611f3f5780636a0cd1f514611e615780636f5474bf14611d4a578063715018a614611ced57806377ad68da14611cba5780637b61748214611c195780637be24cb814611bed5780637ca0ad2d14611ba1578063803db96d14611b785780638795cccb14611adb57806388488c33146118ef5780638c0a4a05146112ee5780638c0dd79a146114495780638d977672146113645780638da5cb5b1461133b5780638ee9f6dc146112ee578063916a5c5b146112d0578063927229c614610dfe57806393af007614610de15780639d7eea9f14610da2578063a3be1eab14610d55578063ac64c82214610d08578063b46e742414610cd5578063b73c6ce914610c19578063b7ee5eda146108f2578063be123323146106a8578063c6a1a01a1461063d578063ca7b64bb1461061d578063d1270485146105c1578063d1faf406146104b4578063d65314b314610444578063dfc7537214610426578063f2fde38b14610362578063f3f4370314610328578063f526e39a1461030a5763f70b5c06146102dc57600080fd5b34610305576000366003190112610305576002546040516001600160a01b039091168152602090f35b600080fd5b34610305576000366003190112610305576020600654604051908152f35b34610305576020366003190112610305576001600160a01b03610349613806565b1660005260156020526020604060002054604051908152f35b346103055760203660031901126103055761037b613806565b610383613ede565b6001600160a01b039081169081156103d257600154826001600160601b0360a01b821617600155167f8be0079c531659141344cd1fd0a4f28419497f9722a3daafe3b4186f6b6457e0600080a3005b60405162461bcd60e51b815260206004820152602660248201527f4f776e61626c653a206e6577206f776e657220697320746865207a65726f206160448201526564647265737360d01b6064820152608490fd5b34610305576000366003190112610305576020601c54604051908152f35b3461030557604061045436613848565b826000526020916011835284600020816000528352846000209160018060a01b03169182600052835260ff856000205416936000526010835284600020906000528252836000209060005281528260002054918351928352151590820152f35b34610305576020366003190112610305576104cd613f36565b60043560005260086020526040600020600960018060a01b03916104f8836003830154163314613e4c565b019081549160ff831660038110156105ab5780159081156105a0575b501561056657600261055f9360ff1916179055600254166040519063a9059cbb60e01b602083015233602483015264e8d4a5100060448301526044825261055a82613930565b614684565b6001600055005b60405162461bcd60e51b8152602060048201526012602482015271105b1c9958591e4819195c1c9958d85d195960721b6044820152606490fd5b600191501484610514565b634e487b7160e01b600052602160045260246000fd5b34610305576020366003190112610305576001600160a01b036105e2613806565b166000526016602052608060406000208054906001810154906003600282015491015491604051938452602084015260408301526060820152f35b3461030557600036600319011261030557602060405164174876e8008152f35b346103055760003660031901126103055760038054600090815b81811061066957602083604051908152f35b80600052600860205260ff60096040600020015416848110156105ab5715610694575b600101610657565b916106a0600191613c6d565b92905061068c565b34610305576106b636613832565b9080600052602091600b8352604060002033600052835260ff60406000205416156108ad5780600052600b8352604060002033600052835260ff60406000205416156108685780821461083557336000526016835260406000208054156107f8576002015490611388918281028181048414821517156107e257612710900492831115610791577f28712f42bb62447cac6809da4bee68e8b6d1786eff0b73558cac4884c0fb64b6939450808311610789575b50604080519485526020850191909152830152339180606081015b0390a2005b915084610769565b60405162461bcd60e51b8152600481018690526024808201527f506f727465642073636f7265206e6f7420626574746572207468616e20646566604482015263185d5b1d60e21b6064820152608490fd5b634e487b7160e01b600052601160045260246000fd5b60405162461bcd60e51b8152600481018590526015602482015274139bc81c995c1d5d185d1a5bdb881d1bc81c1bdc9d605a1b6044820152606490fd5b60405162461bcd60e51b815260048101849052600b60248201526a14d85b59481cdd589b995d60aa1b6044820152606490fd5b60405162461bcd60e51b815260048101849052601e60248201527f4e6f742076616c696461746f7220696e20746172676574207375626e657400006044820152606490fd5b60405162461bcd60e51b815260048101849052601e60248201527f4e6f742076616c696461746f7220696e20736f75726365207375626e657400006044820152606490fd5b3461030557606036600319011261030557600435602435604435908260005260209060098252604060002092600984019260ff84541660068110156105ab578060026109479214908115610c0e575b50613b61565b60018501938454600052600b8252604060002033600052825261097160ff60406000205416613ba2565b86600052600a82526109896040600020548510613be0565b610997612710841115613db0565b86600052601182526040600020846000528252604060002033600052825260ff60406000205416610bb85786600052600a82526109d8846040600020613a70565b5090600382019360ff855416610b75578860005260108452604060002086600052845260406000203360005284528060406000205588600052601184526040600020866000528452604060002033600052845260406000209660ff199760018982541617905589600052601285526040600020876000528552610a5f336040600020613e04565b60076005850195610a708754613c6d565b9283885560018060a01b03948d7f424e5ad88b2accc1579e610100b12e0f295d8c9e0b02abb61ad1e413e3d63d026040888b54169381519081523387820152a354600052526040600020548015610b6d575b811015610acb57005b7fff2fc693bb2d4a09f21f0c403fce5ecb4b5b0b57e81c7253deb5386bb8a8ae7798610784966001610b00600a948b8f614026565b9a8b600289015582541617905501928784548111610b3c575b505050505054604051938493846040919493926060820195825260208201520152565b90935591548154610100600160a81b031916921660081b610100600160a81b03169190911790558680808087610b19565b506002610ac2565b6064846040519062461bcd60e51b825280600483015260248201527f5375626d697373696f6e20616c72656164792068617320636f6e73656e7375736044820152fd5b60405162461bcd60e51b815260048101839052602860248201527f56616c696461746f7220616c72656164792073636f72656420746869732073756044820152673136b4b9b9b4b7b760c11b6064820152608490fd5b600191501488610941565b3461030557600036600319011261030557610c32613f36565b3360005260156020526040600020548015610c9a5761055f90336000526015602052600060408120556040518181527f48dc35af7b45e2a81fffad55f6e2fafacdb1d3d0d50d24ebdc16324f5ba757f160203392a260025433906001600160a01b03166141ed565b60405162461bcd60e51b81526020600482015260136024820152724e6f2070656e64696e67206561726e696e677360681b6044820152606490fd5b3461030557610ce336613832565b9060005260196020526040600020906000526020526020604060002054604051908152f35b3461030557604036600319011261030557610d2161381c565b600435600052600f60205260406000209060018060a01b0316600052602052602060ff604060002054166040519015158152f35b3461030557604036600319011261030557610d6e61381c565b600435600052600b60205260406000209060018060a01b0316600052602052602060ff604060002054166040519015158152f35b34610305576040366003190112610305576020604051818101906004358252602435604082015260408152610dd681613982565b519020604051908152f35b346103055760003660031901126103055760206040516105dc8152f35b34610305576060366003190112610305576004356001600160401b03811161030557610e2e903690600401613aa2565b906024356001600160401b03811161030557610e4e903690600401613aa2565b92610e57613f36565b610e5f613f8c565b801561129e57610ed292610eca91610e7d6107d06044351115613e8b565b6002546040516323b872dd60e01b602082015233602482015230604482015264e8d4a510006064808301919091528152610ec3916001600160a01b031661055a82613967565b3691613d79565b923691613d79565b9060035490610ee082613c6d565b60035560405192610ef08461394b565b828452816020850152604084015233606084015260443560808401526305f5e10060a0840152600060c0840152600060e0840152600061010084015260006101208401524261014084015281600052600860205260406000208351815560208401518051906001600160401b0382116111b8578190610f7260018501546138bf565b601f811161124b575b50602090601f83116001146111d9576000926111ce575b50508160011b916000199060031b1c19161760018201555b60408401518051906001600160401b0382116111b8578190610fcf60028501546138bf565b601f8111611165575b50602090601f83116001146110f3576000926110e8575b50508160011b916000199060031b1c19161760028201555b6003810160018060a01b036060860151166001600160601b0360a01b8254161790556080840151600482015560a0840151600582015560c0840151600682015560e0840151600782015561010084015160088201556101208401519360038510156105ab57610140600a9161108160209760098601613ec6565b015191015581600052600783526002604060002055817f8e46dcab88334408205dfdff058de646a02ab7fddb35b9923e924e49ce505c306110cd60405193604085526040850190613872565b92604435868201528033940390a36001600055604051908152f35b015190508680610fef565b9250600284016000526020600020906000935b601f198416851061114a576001945083601f19811610611131575b505050811b016002820155611007565b015160001960f88460031b161c19169055868080611121565b81810151835560209485019460019093019290910190611106565b909150600284016000526020600020601f840160051c8101602085106111b1575b90849392915b601f830160051c820181106111a2575050610fd8565b6000815585945060010161118c565b5080611186565b634e487b7160e01b600052604160045260246000fd5b015190508680610f92565b9250600184016000526020600020906000935b601f1984168510611230576001945083601f19811610611217575b505050811b016001820155610faa565b015160001960f88460031b161c19169055868080611207565b818101518355602094850194600190930192909101906111ec565b909150600184016000526020600020601f840160051c810160208510611297575b90849392915b601f830160051c82018110611288575050610f7b565b60008155859450600101611272565b508061126c565b60405162461bcd60e51b815260206004820152600a602482015269456d707479206e616d6560b01b6044820152606490fd5b34610305576000366003190112610305576020600354604051908152f35b346103055760403660031901126103055761130761381c565b600435600052600d60205260406000209060018060a01b0316600052602052602060ff604060002054166040519015158152f35b34610305576000366003190112610305576001546040516001600160a01b039091168152602090f35b346103055760203660031901126103055760043560009081526009602052604090208054600182015460028301546060936001600160a01b0391821693916113ae600383016139be565b9360048301549460058401546006850154600786015491611403600888015494600989015496600b600a8b01549a01549a6040519e8f9e8f906101a094859483526020830152604082015201528c0190613872565b9860808b015260a08a015260c089015260e088015261010087015261142f610120870160ff83166138b2565b60081c166101408501526101608401526101808301520390f35b34610305576040366003190112610305576024356001600160401b03811161030557611479903690600401613aa2565b611481613f36565b6004356000526009602052604060002060ff600982015416600681101590816105ab5780159182156118e1575b82156118d0575b50501561189b576008810154421015611867576001810154600052600d60205260406000203360005260205260ff604060002054161561182257600435600052600f60205260406000203360005260205260ff604060002054166117dd57600435600052600f6020526040600020336000526020526040600020600160ff19825416179055600435600052600a602052604060002060405190611557826138f9565b338252611565368587613d79565b60208301526000604083015260006060830152426080830152600060a08301528054600160401b8110156111b8576115a291600182018155613a70565b9190916117c757805182546001600160a01b0319166001600160a01b039190911617825560208101518051906001600160401b0382116111b8576115e960018501546138bf565b601f8111611780575b50602090601f831160011461170b5791806005949260a094600092611700575b50508160011b916000199060031b1c19161760018501555b6040810151600285015561165360608201511515600386019060ff801983541691151516179055565b608081015160048501550151910155600981015460ff811660068110156105ab5780159081156116f5575b506116e1575b505080604051926020845281602085015260408401376000604082840101527fa3dcf7cebcc4cf0937f4f95d95392671977ba143b4ff236240650322a106e8dc339260408160043594601f80199101168101030190a36001600055005b600260099160ff1916179101558280611684565b60019150148561167e565b015190508980611612565b906001850160005260206000209160005b601f19851681106117685750926005949260019260a09583601f1981161061174f575b505050811b01600185015561162a565b015160001960f88460031b161c1916905589808061173f565b9192602060018192868501518155019401920161171c565b600185016000526020600020601f840160051c8101602085106117c0575b601f830160051c820181106117b45750506115f2565b6000815560010161179e565b508061179e565b634e487b7160e01b600052600060045260246000fd5b60405162461bcd60e51b815260206004820152601760248201527f4d696e657220616c7265616479207375626d69747465640000000000000000006044820152606490fd5b60405162461bcd60e51b815260206004820152601860248201527f4e6f74207265676973746572656420696e207375626e657400000000000000006044820152606490fd5b60405162461bcd60e51b815260206004820152600c60248201526b15185cdac8195e1c1a5c995960a21b6044820152606490fd5b60405162461bcd60e51b815260206004820152600d60248201526c10d85b9b9bdd081cdd589b5a5d609a1b6044820152606490fd5b9091506105ab5760021484806114b5565b5060018114915060006114ae565b3461030557602080600319360112610305576004359061190d613f36565b8160005260098152604060002090600982019081549160ff831660068110156105ab57600203611aaa576001600160a01b03600884901c811693908415611a79578692611a347fae64f0a069112683796fc01e7d04ea7e255a3cd070a7dce992fdcdecbc1e6d5293889360018501549760048601549460036007600660058a01549901549d01549460ff19161790558860005260088152604060002091600683016119b9878254613c60565b9055600783016119c98154613c6d565b90556119d787600654613c60565b6006558a6000526014825260406000206119f2878254613c60565b90558a600052601582526040600020611a0c878254613c60565b905583611a53575b505050604051938493846040919493926060820195825260208201520152565b0390a480611a43576001600055005b611a4c91614226565b808061055f565b6003601593015416600052526040600020611a6f828254613c60565b90558a8080611a14565b60405162461bcd60e51b81526004810185905260096024820152682737903bb4b73732b960b91b6044820152606490fd5b60405162461bcd60e51b81526004810183905260096024820152684e6f7420726561647960b81b6044820152606490fd5b3461030557600036600319011261030557611af4613ede565b6006548015611b4957611b4790600060065560018060a01b03806005541690817fa087657e3d85162090ffd700fbfdf5070d816f63aa5da00063f6ffd369c8a6db6020604051868152a2600254166141ed565b005b60405162461bcd60e51b81526020600482015260076024820152664e6f206665657360c81b6044820152606490fd5b34610305576000366003190112610305576005546040516001600160a01b039091168152602090f35b3461030557611baf36613848565b91600052601160205260406000209060005260205260406000209060018060a01b0316600052602052602060ff604060002054166040519015158152f35b3461030557602036600319011261030557600435600052600a6020526020604060002054604051908152f35b34610305576060366003190112610305576004356024356044356003811015610305577fa2191efe487e08892e9d1920150485aaf7591f089bdde895929d692ea8c4e08a91611cb7604092856000526008602052611ca881600986600020611c8e60018060a01b036003830154163314613e4c565b611c9c6107d0881115613e8b565b86600482015501613ec6565b83519283526020830190613a63565ba2005b3461030557611cc836613832565b90600052601a6020526040600020906000526020526020604060002054604051908152f35b3461030557600036600319011261030557611d06613ede565b600180546001600160a01b031981169091556000906001600160a01b03167f8be0079c531659141344cd1fd0a4f28419497f9722a3daafe3b4186f6b6457e08280a3005b34610305576020806003193601126103055760043590816000526008815260ff6009604060002001541660038110156105ab57611d879015613ceb565b81600052600d8152604060002033600052815260ff60406000205416611e285760089082600052600d815260406000203360005281526040600020600160ff1982541617905582600052600e81526040600020611de48154613c6d565b905582600052526008604060002001611dfd8154613c6d565b905533907fbaae7a2be0ecfa867d60fcdae77877a3dda7484c504290098d77f256415abab2600080a3005b6064906040519062461bcd60e51b825260048201526012602482015271105b1c9958591e481c9959da5cdd195c995960721b6044820152fd5b3461030557604036600319011261030557600435611e7d61381c565b9080600052600c60206008815260018060a01b03806003604060002001541633148015611f32575b611eae90613b24565b83600052600b82526040600020941693846000528152611ed560ff60406000205416613ba2565b82600052600b81526040600020846000528152604060002060ff19815416905582600052526040600020611f098154613e3f565b90557f7126bef88d1149ccdff9681ed5aecd3ba5ae70c96517551de250af09cebd1a0b600080a3005b5060015481163314611ea5565b3461030557608036600319011261030557600435602490813560449081359160648460005260209060098252604060002094600986019060ff825416600681101561238557806002611f99921490811561237a5750613b61565b60018701938454600052600b81526040600020336000528152611fc360ff60406000205416613ba2565b88600052600a8152611fdb6040600020548810613be0565b611fe9612710831115613db0565b88600052600a8152611fff876040600020613a70565b5093600385019661201460ff89541615613c1c565b8a600052601a83526040600020896000528352612039604060002054601b5490613c60565b612045601c5482613c60565b90421115612339574211612304578a600052601783526040600020896000528352604060002033600052835260406000209182549182156122d15760ff9b9c9d600285019384549d8e1661229d576040518781019089825285356040820152604081526120b181613982565b5190200361226d575050506003600793928592600160ff19809e1617905501558a60005260198152604060002088600052815260406000206120f38154613c6d565b90558a6000526010815260406000208860005281526040600020336000528152826040600020558a6000526011815260406000208860005281526040600020336000528152604060002060018a8254161790558a600052601281526040600020886000528152612167336040600020613e04565b60058501956121768754613c6d565b93848855604051908a8252838201528c7f23def086b3dc14dbd150f69d2e6af648dfc789cdf251ba7d720feecbc0625f8560403393a354600052526040600020548015612265575b8110156121c757005b7fff2fc693bb2d4a09f21f0c403fce5ecb4b5b0b57e81c7253deb5386bb8a8ae77976107849560016121fc600a948a8e614026565b998a600288015582541617905501918683548111612237575b5050505054604051938493846040919493926060820195825260208201520152565b90925590548154610100600160a81b03191660089190911b610100600160a81b031617905586808086612215565b5060026121be565b8591600d6c090c2e6d040dad2e6dac2e8c6d609b1b926040519462461bcd60e51b86526004860152840152820152fd5b50859160106f105b1c9958591e481c995d99585b195960821b926040519462461bcd60e51b86526004860152840152820152fd5b6e139bc818dbdb5b5a5d08199bdd5b99608a1b85918f600f906040519462461bcd60e51b86526004860152840152820152fd5b7114995d99585b081c1a185cd948195b99195960721b839160128e6040519462461bcd60e51b86526004860152840152820152fd5b507f436f6d6d6974207068617365206e6f7420656e646564207965740000000000008391601a8e6040519462461bcd60e51b86526004860152840152820152fd5b60019150148b610941565b89634e487b7160e01b60005260216004526000fd5b6137e6565b34610305576080366003190112610305576024356001600160401b038111610305576123cf903690600401613aa2565b6123d7613f36565b6123df613f8c565b600435600052600860205260406000209160ff60098401541660038110156105ab5761240b9015613ceb565b6005830154604435106127cd576064351515806127be575b15612786576101f480604435029360443515916044358604148217156107e257612710906105dc9283604435029360443585041417156107e25761246e600483920154604435613d2b565b04916124cd6124908461248b85850461248b878c04604435613c60565b613c60565b6002546040516323b872dd60e01b60208201523360248201523060448201526064808201939093529182526001600160a01b031661055a82613967565b81600454966124db88613c6d565b6004556125136124ed60643542613c60565b96604051986124fb8a613914565b8a8a5260043560208b01523360408b01523691613d79565b606088015260443560808801520460a08601520460c084015260e08301526101008201526000610120820152600061014082015260006101608201524261018082015281600052600960205260406000209181518355602082015160018401556002830160018060a01b036040840151166001600160601b0360a01b82541617905560608201519283516001600160401b0381116111b8576125b860038301546138bf565b601f811161273f575b506020601f82116001146126d05781929394956000926126c5575b50508160011b916000199060031b1c19161760038201555b6080830151600482015560a0830151600582015560c0830151600682015560e083015160078201556101008301516008820155600981016101208401519060068210156105ab578054610140860151610100600160a81b0360089190911b1660ff939093166001600160a81b031990911617919091179055602092600b9061018090610160810151600a850155015191015560405160443581523390827f428f55877ee911b6c5acc83ef215f08675d3787bdfac5018bbe41876df710f498560043593a46001600055604051908152f35b0151905085806125dc565b6003830160005260206000209060005b601f1984168110612727575060019394959683601f1981161061270e575b505050811b0160038201556125f4565b015160001960f88460031b161c191690558580806126fe565b9091602060018192858b0151815501930191016126e0565b600383016000526020600020601f830160051c81016020841061277f575b601f830160051c820181106127735750506125c1565b6000815560010161275d565b508061275d565b60405162461bcd60e51b815260206004820152601060248201526f24b73b30b634b210323ab930ba34b7b760811b6044820152606490fd5b5062093a806064351115612423565b60405162461bcd60e51b815260206004820152600e60248201526d52657761726420746f6f206c6f7760901b6044820152606490fd5b3461030557600036600319011261030557602060ff60015460a01c166040519015158152f35b3461030557602036600319011261030557600061014060405161284b8161394b565b82815260606020820152606060408201528260608201528260808201528260a08201528260c08201528260e08201528261010082015282610120820152015260043560005260086020526040600020604051906128a78261394b565b805482526128b7600182016139be565b60208301526128c8600282016139be565b60408301526003818101546001600160a01b0316606084015260048201546080840152600582015460a0840152600682015460c0840152600782015460e08401526008820154610100840152600982015460ff1691908210156105ab57600a9161012084015201546101408201526040518091602082528051602083015261014061297d61296760208401516101606040870152610180860190613872565b6040840151858203601f19016060870152613872565b9160018060a01b036060820151166080850152608081015160a085015260a081015160c085015260c081015160e085015260e08101516101008501526101008101516101208501526129d761012082015183860190613a63565b01516101608301520390f35b34610305576129f136613832565b90600052600a602052604060002090815481101561030557612a1291613a70565b5080546001600160a01b0316612a2a600183016139be565b9160028101549060ff600382015416906005600482015491015491612a61604051968796875260c0602088015260c0870190613872565b93604086015215156060850152608084015260a08301520390f35b3461030557602036600319011261030557600435600052600c6020526020604060002054604051908152f35b3461030557604036600319011261030557600435612ac461381c565b90806000526020916008835260018060a01b0390816003604060002001541633148015612c3a575b612af590613b24565b1691612b02831515613acf565b81600052600b8152604060002083600052815260ff60406000205416612c025781600052600b815260406000208360005281526040600020600160ff1982541617905581600052600c81526040600020612b5c8154613c6d565b9055826000526016815260406000206002810154159081612bf8575b50612ba6575b507f7429a06e9412e469f0d64f9d222640b0af359f556b709e2913588c227851b88d600080a3005b600360405191612bb583613930565b6000835280830160008152604084019061138882526016606086019342855288600052526040600020945185555160018501555160028401555191015582612b7e565b9050541584612b78565b6064906040519062461bcd60e51b82526004820152601160248201527020b63932b0b23c903b30b634b230ba37b960791b6044820152fd5b5060015482163314612aec565b346103055760003660031901126103055760206040516107d08152f35b34610305576000366003190112610305576020601b54604051908152f35b3461030557602036600319011261030557600435600052600860205260406000208054612cb1600183016139be565b91612cbe600282016139be565b612d5160018060a01b0360038401541692600481015460058201546006830154600784015491600885015493612d26600a60ff60098901541697015498612d186040519d8e9d8e6101609181528160208201520190613872565b8c810360408e015290613872565b9860608b015260808a015260a089015260c088015260e0870152610100860152610120850190613a63565b6101408301520390f35b3461030557612d6936613832565b612d71613ede565b61012c808310612df9578110612dbb57816040917f54333de66970050ba341fd48b02b1e37c55d85ae724ee00e32233e89e072bea893601b5580601c5582519182526020820152a1005b60405162461bcd60e51b815260206004820152601660248201527514995d99585b081c1a185cd9481d1bdbc81cda1bdc9d60521b6044820152606490fd5b60405162461bcd60e51b815260206004820152601660248201527510dbdb5b5a5d081c1a185cd9481d1bdbc81cda1bdc9d60521b6044820152606490fd5b3461030557612e4536613848565b91600052601760205260406000209060005260205260406000209060018060a01b031660005260205260806040600020805490600181015490600360ff600283015416910154916040519384526020840152151560408301526060820152f35b34610305576020366003190112610305576001600160a01b03612ec6613806565b1660005260136020526020604060002054604051908152f35b346103055760003660031901126103055760206040516113888152f35b3461030557602036600319011261030557600435600052600e6020526020604060002054604051908152f35b34610305576020612f41612f3b36613832565b90613c7c565b604051908152f35b34610305576060366003190112610305576004356024908135906044358160005260209060098252604060002060ff60098201541690600682101561328157612f9f826002600194149081156132775750613b61565b0154600052600b82526040600020336000528252612fc460ff60406000205416613ba2565b82600052600a8252612fdc6040600020548510613be0565b801561323f5782600052600a825261300960ff6003612fff876040600020613a70565b5001541615613c1c565b8260005260178252604060002084600052825260406000203360005282526040600020546132075782600052601182526040600020846000528252604060002033600052825260ff604060002054166131c35782600052601a82526040600020846000528252604060002054156131a4575b82600052601a825260406000208460005282526130a0604060002054601b5490613c60565b421161316b576040517f96e134fdbcf6f2b8942aa1450973cc1e5914913673abacabebf1f0b14fe4a55292916130d582613930565b815260038282014281526131386040840160008152606085019260008452886000526017875260406000208a60005287526040600020336000528752604060002095518655516001860155511515600285019060ff801983541691151516179055565b5191015582600052601881526040600020846000528152604060002061315e8154613c6d565b90556040519384523393a3005b60405162461bcd60e51b8152600481018390526012818701527110dbdb5b5a5d081c1a185cd948195b99195960721b6044820152606490fd5b82600052601a825260406000208460005282524260406000205561307b565b60405162461bcd60e51b8152600481018390526017818701527f416c72656164792073636f726564206469726563746c790000000000000000006044820152606490fd5b60405162461bcd60e51b81526004810183905260118187015270105b1c9958591e4818dbdb5b5a5d1d1959607a1b6044820152606490fd5b60405162461bcd60e51b8152600481018390526011818701527008adae0e8f240c6dedadad2e840d0c2e6d607b1b6044820152606490fd5b8491501489610941565b86634e487b7160e01b60005260216004526000fd5b34610305576132a436613832565b908060005260086020526132d360018060a01b0380600360406000200154163314908115613333575b50613b24565b600182106132ee576000526007602052604060002055600080f35b60405162461bcd60e51b815260206004820152601c60248201527f4d696e2076616c69646174696f6e73206d757374206265203e3d2031000000006044820152606490fd5b9050600154163314846132cd565b3461030557602036600319011261030557600061018060405161336381613914565b8281528260208201528260408201526060808201528260808201528260a08201528260c08201528260e082015282610100820152826101208201528261014082015282610160820152015260043560005260096020526040600020604051906133cb82613914565b805482526001810154602083015260028101546001600160a01b031660408301526133f8600382016139be565b606083015260048101546080830152600581015460a0830152600681015460c0830152600781015460e08301526008810154610100830152600981015490600660ff831610156105ab578160ff600b931661012085015260018060a01b039060081c16610140840152600a8101546101608401520154610180820152604051809160208252805160208301526020810151604083015260018060a01b0360408201511660608301526101806134be60608301516101a060808601526101c0850190613872565b91608081015160a085015260a081015160c085015260c081015160e085015260e08101516101008501526101008101516101208501526135086101208201516101408601906138b2565b6101408101516001600160a01b0316610160858101919091528101518285015201516101a08301520390f35b346103055760208060031936011261030557600435600052600a815260406000209081549161356283613b0d565b92613570604051948561399d565b8084528284018092600052836000206000915b83831061362f5750505050604051918083019381845251809452604083019360408160051b85010192916000955b8287106135be5785850386f35b909192938280600192603f198982030185528751906135f560c0868060a01b03845116835284840151908086850152830190613872565b91604081015160408301526060808201511515908301526080808201519083015260a08091015191015296019201960195929190926135b1565b600686600192604099989951613644816138f9565b848060a01b03865416815261365a8587016139be565b838201526002860154604082015260ff6003870154161515606082015260048601546080820152600586015460a0820152815201920192019190959495613583565b346103055760003660031901126103055760206040516101f48152f35b346103055760203660031901126103055760043560005260076020526020604060002054604051908152f35b34610305576136f336613848565b91600052601060205260406000209060005260205260406000209060018060a01b03166000526020526020604060002054604051908152f35b34610305576020366003190112610305576001600160a01b0361374d613806565b1660005260146020526020604060002054604051908152f35b346103055761377436613832565b9060005260186020526040600020906000526020526020604060002054604051908152f35b34610305576020366003190112610305576137b2613806565b6137ba613ede565b6001600160a01b03166137ce811515613acf565b6001600160601b0360a01b6005541617600555600080f35b3461030557600036600319011261030557602060405164e8d4a510008152f35b600435906001600160a01b038216820361030557565b602435906001600160a01b038216820361030557565b6040906003190112610305576004359060243590565b60609060031901126103055760043590602435906044356001600160a01b03811681036103055790565b919082519283825260005b84811061389e575050826000602080949584010152601f8019910116010190565b60208183018101518483018201520161387d565b9060068210156105ab5752565b90600182811c921680156138ef575b60208310146138d957565b634e487b7160e01b600052602260045260246000fd5b91607f16916138ce565b60c081019081106001600160401b038211176111b857604052565b6101a081019081106001600160401b038211176111b857604052565b608081019081106001600160401b038211176111b857604052565b61016081019081106001600160401b038211176111b857604052565b60a081019081106001600160401b038211176111b857604052565b606081019081106001600160401b038211176111b857604052565b90601f801991011681019081106001600160401b038211176111b857604052565b906040519182600082546139d1816138bf565b90818452602094600191600181169081600014613a415750600114613a02575b505050613a009250038361399d565b565b600090815285812095935091905b818310613a29575050613a0093508201013880806139f1565b85548884018501529485019487945091830191613a10565b92505050613a0094925060ff191682840152151560051b8201013880806139f1565b9060038210156105ab5752565b8054821015613a8c576000526006602060002091020190600090565b634e487b7160e01b600052603260045260246000fd5b9181601f84011215610305578235916001600160401b038311610305576020838186019501011161030557565b15613ad657565b60405162461bcd60e51b815260206004820152600f60248201526e496e76616c6964206164647265737360881b6044820152606490fd5b6001600160401b0381116111b85760051b60200190565b15613b2b57565b60405162461bcd60e51b815260206004820152600e60248201526d139bdd08185d5d1a1bdc9a5e995960921b6044820152606490fd5b15613b6857565b60405162461bcd60e51b81526020600482015260126024820152714e6f742070656e64696e672072657669657760701b6044820152606490fd5b15613ba957565b60405162461bcd60e51b815260206004820152600f60248201526e2737ba1030903b30b634b230ba37b960891b6044820152606490fd5b15613be757565b60405162461bcd60e51b815260206004820152600d60248201526c092dcecc2d8d2c840d2dcc8caf609b1b6044820152606490fd5b15613c2357565b60405162461bcd60e51b8152602060048201526015602482015274416c72656164792068617320636f6e73656e73757360581b6044820152606490fd5b919082018092116107e257565b60001981146107e25760010190565b600090815260076020526040812054918215613ce2575b64e8d4a510008110613cc3575060028201809211613caf575090565b634e487b7160e01b81526011600452602490fd5b64174876e8001115613cd3575090565b60018201809211613caf575090565b60029250613c93565b15613cf257565b60405162461bcd60e51b81526020600482015260116024820152705375626e6574206e6f742061637469766560781b6044820152606490fd5b818102929181159184041417156107e257565b8115613d48570490565b634e487b7160e01b600052601260045260246000fd5b6001600160401b0381116111b857601f01601f191660200190565b929192613d8582613d5e565b91613d93604051938461399d565b829481845281830111610305578281602093846000960137010152565b15613db757565b60405162461bcd60e51b815260206004820152600d60248201526c496e76616c69642073636f726560981b6044820152606490fd5b8054821015613a8c5760005260206000200190600090565b8054600160401b8110156111b857613e2191600182018155613dec565b60018060a09493941b038084549260031b9316831b921b1916179055565b80156107e2576000190190565b15613e5357565b60405162461bcd60e51b815260206004820152601060248201526f2737ba1039bab13732ba1037bbb732b960811b6044820152606490fd5b15613e9257565b60405162461bcd60e51b815260206004820152600c60248201526b08ccaca40e8dede40d0d2ced60a31b6044820152606490fd5b9060038110156105ab5760ff80198354169116179055565b6001546001600160a01b03163303613ef257565b606460405162461bcd60e51b815260206004820152602060248201527f4f776e61626c653a2063616c6c6572206973206e6f7420746865206f776e65726044820152fd5b600260005414613f47576002600055565b60405162461bcd60e51b815260206004820152601f60248201527f5265656e7472616e637947756172643a207265656e7472616e742063616c6c006044820152606490fd5b60ff60015460a01c16613f9b57565b60405162461bcd60e51b815260206004820152601060248201526f14185d5cd8589b194e881c185d5cd95960821b6044820152606490fd5b90613fdd82613b0d565b613fea604051918261399d565b8281528092613ffb601f1991613b0d565b0190602036910137565b8051821015613a8c5760209160051b010190565b919082039182116107e257565b919061403182613fd3565b9260009181835260209060128252604091828520828652815282852091868354036141a957855b8781106141635750505050505060015b8281106140c6575060018281160361408d5750906140899160011c90614005565b5190565b9060011c90600019820190828211613caf575082916140b26140b9926140c095614005565b5192614005565b5190613c60565b60011c90565b909392916140d48284614005565b5193825b80151580614144575b1561412a57600019810181811161411657906141006141119287614005565b5161410b8288614005565b52613e3f565b6140d8565b634e487b7160e01b88526011600452602488fd5b9461413d60019395969794929787614005565b5201614068565b5060001981018181116141165761415c879187614005565b51116140e1565b6001908688526010845285882083895284528588206141828287613dec565b848060a01b0391549060031b1c1689528452858820546141a2828c614005565b5201614058565b835162461bcd60e51b815260048101839052601b60248201527f56616c696461746f7220747261636b696e67206d69736d6174636800000000006044820152606490fd5b60405163a9059cbb60e01b60208201526001600160a01b039092166024830152604480830193909352918152613a009161055a82613930565b9081600052600960205260018060a01b0360096040600020015460081c16600019600a6020526040600020916000908354915b828110614637575b50505060001981146146285783600052601260205260406000208160005260205260406000209081549283156146175761429d82600292613a70565b500154946142aa84613fd3565b9160009660005b8681106143b8575050505084156143a85760009460005b8481106142f95750505050508082106142df575050565b6142f4916142ec91614019565b600654613c60565b600655565b8061430660019285614005565b51156143a35761433361432c846143276143208589614005565b518b613d2b565b613d3e565b8099613c60565b9761433e8287613dec565b905490600391858060a01b0391831b1c1660005260136020526040600020614367838254613c60565b90556143738388613dec565b858060a09493941b039254911b1c16600052601560205261439a6040600020918254613c60565b90555b016142c8565b61439d565b5050506142f49150600654613c60565b6143c28187613dec565b99905499856000526010602052604060002085600052602052604060002060018060a01b038c8360031b1c16600052602052614403846040600020546147b8565b9a60018060a01b03818360031b1c16600052601660205260406000209b61442a8d54613c6d565b8d554260038e01556107d0811161456f5760018d016144498154613c6d565b90556064614457868b614005565b5260405190600082526020820152877f3d70426d5de70b5ac8bff45c3c0cd89db0e473153868b8c61a938d42002584e8604060018060a01b03858760031b1c1693a35b8b8054938461453f575b6144ae868b614005565b51916002015491826144bf91613d2b565b61271090046144ce878c614005565b526144d9868b614005565b516144e391613c60565b60019d909d0154604080519283526020830195909552938101939093526001600160a01b0360039290921b1c16907fc2fd17ad7e9f23b8607f0bd02d7a6cdcccd5a964fa99ce5a066ed34c5b4bb55b90606090a26001016142b1565b90600101549061271082818102048114831517156107e257858f93916145659202613d3e565b60028301556144a4565b61138881116145cb576032614584868b614005565b5260405190600082526020820152877f3d70426d5de70b5ac8bff45c3c0cd89db0e473153868b8c61a938d42002584e8604060018060a01b03858760031b1c1693a361449a565b60006145d7868b614005565b52604051908152877f3b3050df353576101845973a6b18bbcf16a0187f1c80d60d83d95be509203c51602060018060a01b03858760031b1c1693a361449a565b505050506142f49150600654613c60565b50506142f49150600654613c60565b816146428287613a70565b50546001600160a01b0316148061466c575b61466057600101614259565b92505050388080614261565b5060ff600361467b8388613a70565b50015416614654565b60018060a01b03169060405160408101908082106001600160401b038311176111b857614713916040526020938482527f5361666545524332303a206c6f772d6c6576656c2063616c6c206661696c6564858301526000808587829751910182855af13d156147b0573d916146f883613d5e565b92614706604051948561399d565b83523d868885013e614809565b805191821591848315614785575b50505090501561472e5750565b6084906040519062461bcd60e51b82526004820152602a60248201527f5361666545524332303a204552433230206f7065726174696f6e20646964206e6044820152691bdd081cdd58d8d9595960b21b6064820152fd5b9193818094500103126147ac578201519081151582036147a9575080388084614721565b80fd5b5080fd5b606091614809565b81156148025781808211156147f2576147d091614019565b905b612710918281029281840414901517156107e2576147ef91613d3e565b90565b906147fc91614019565b906147d2565b5050600090565b9192901561486b575081511561481d575090565b3b156148265790565b60405162461bcd60e51b815260206004820152601d60248201527f416464726573733a2063616c6c20746f206e6f6e2d636f6e74726163740000006044820152606490fd5b82519091501561487e5750805190602001fd5b60405162461bcd60e51b8152602060048201529081906148a2906024830190613872565b0390fdfea264697066735822122077120c770ec19bf28c769f912008f6302357e089d2541afcc5383f608423ec0e64736f6c63430008180033","opcodes":"PUSH1 0x80 CALLVALUE PUSH3 0x691 JUMPI PUSH1 0x1F PUSH3 0x4FA8 CODESIZE DUP2 SWAP1 SUB SWAP2 DUP3 ADD PUSH1 0x1F NOT AND DUP4 ADD SWAP2 PUSH1 0x1 PUSH1 0x1 PUSH1 0x40 SHL SUB DUP4 GT DUP5 DUP5 LT OR PUSH3 0x515 JUMPI DUP1 DUP5 SWAP3 PUSH1 0x40 SWAP5 DUP6 MSTORE DUP4 CODECOPY DUP2 ADD SUB SLT PUSH3 0x691 JUMPI PUSH3 0x5A PUSH1 0x20 PUSH3 0x52 DUP4 PUSH3 0x6B6 JUMP JUMPDEST SWAP3 ADD PUSH3 0x6B6 JUMP JUMPDEST PUSH1 0x1 PUSH1 0x0 SSTORE PUSH1 0x1 SLOAD SWAP2 PUSH1 0x40 MLOAD SWAP3 CALLER PUSH1 0x1 DUP1 PUSH1 0xA0 SHL SUB DUP3 AND PUSH32 0x8BE0079C531659141344CD1FD0A4F28419497F9722A3DAAFE3B4186F6B6457E0 PUSH1 0x0 DUP1 LOG3 PUSH1 0x1 PUSH1 0x1 PUSH1 0xA8 SHL SUB NOT AND CALLER PUSH1 0xFF PUSH1 0xA0 SHL NOT AND OR PUSH1 0x1 SSTORE PUSH2 0xE10 PUSH1 0x1B SSTORE PUSH2 0x708 PUSH1 0x1C SSTORE PUSH1 0x1 PUSH1 0x1 PUSH1 0xA0 SHL SUB AND SWAP2 DUP3 ISZERO PUSH3 0x65F JUMPI POP PUSH1 0x1 PUSH1 0x1 PUSH1 0xA0 SHL SUB AND SWAP1 DUP2 ISZERO PUSH3 0x627 JUMPI PUSH1 0x1 DUP1 PUSH1 0xA0 SHL SUB NOT PUSH1 0x2 SLOAD AND OR PUSH1 0x2 SSTORE PUSH1 0x1 DUP1 PUSH1 0xA0 SHL SUB NOT PUSH1 0x5 SLOAD AND OR PUSH1 0x5 SSTORE PUSH3 0x105 PUSH3 0x696 JUMP JUMPDEST PUSH1 0x14 DUP2 MSTORE PUSH32 0x47656E6572616C20496E74656C6C6967656E6365000000000000000000000000 PUSH1 0x20 DUP3 ADD MSTORE PUSH3 0x139 PUSH3 0x696 JUMP JUMPDEST PUSH1 0x20 DUP2 MSTORE PUSH32 0x546578742C20436F64652C20616E642047656E6572616C204149205461736B73 PUSH1 0x20 DUP3 ADD MSTORE PUSH1 0x3 SLOAD SWAP1 PUSH1 0x0 NOT DUP3 EQ PUSH3 0x611 JUMPI PUSH1 0x1 DUP3 ADD PUSH1 0x3 SSTORE PUSH1 0x40 MLOAD SWAP1 PUSH1 0x1 PUSH1 0x1 PUSH1 0x40 SHL SUB PUSH2 0x160 DUP4 ADD SWAP1 DUP2 GT SWAP1 DUP4 GT OR PUSH3 0x515 JUMPI PUSH2 0x160 DUP3 ADD PUSH1 0x40 MSTORE DUP3 DUP3 MSTORE DUP4 PUSH1 0x20 DUP4 ADD MSTORE PUSH1 0x40 DUP3 ADD MSTORE CALLER PUSH1 0x60 DUP3 ADD MSTORE PUSH2 0x1F4 PUSH1 0x80 DUP3 ADD MSTORE PUSH4 0x5F5E100 PUSH1 0xA0 DUP3 ADD MSTORE PUSH1 0x0 PUSH1 0xC0 DUP3 ADD MSTORE PUSH1 0x0 PUSH1 0xE0 DUP3 ADD MSTORE PUSH1 0x0 PUSH2 0x100 DUP3 ADD MSTORE PUSH1 0x0 PUSH2 0x120 DUP3 ADD MSTORE TIMESTAMP PUSH2 0x140 DUP3 ADD MSTORE DUP2 PUSH1 0x0 MSTORE PUSH1 0x8 PUSH1 0x20 MSTORE PUSH1 0x40 PUSH1 0x0 KECCAK256 SWAP1 DUP1 MLOAD DUP3 SSTORE PUSH1 0x20 DUP2 ADD MLOAD DUP1 MLOAD SWAP1 PUSH1 0x1 DUP1 PUSH1 0x40 SHL SUB DUP3 GT PUSH3 0x515 JUMPI PUSH1 0x1 DUP5 ADD SLOAD SWAP1 PUSH1 0x1 DUP3 DUP2 SHR SWAP3 AND DUP1 ISZERO PUSH3 0x606 JUMPI JUMPDEST PUSH1 0x20 DUP4 LT EQ PUSH3 0x4F4 JUMPI DUP2 PUSH1 0x1F DUP5 SWAP4 GT PUSH3 0x5AE JUMPI JUMPDEST POP PUSH1 0x20 SWAP1 PUSH1 0x1F DUP4 GT PUSH1 0x1 EQ PUSH3 0x537 JUMPI PUSH1 0x0 SWAP3 PUSH3 0x52B JUMPI JUMPDEST POP POP DUP2 PUSH1 0x1 SHL SWAP2 PUSH1 0x0 NOT SWAP1 PUSH1 0x3 SHL SHR NOT AND OR PUSH1 0x1 DUP4 ADD SSTORE JUMPDEST PUSH1 0x40 DUP2 ADD MLOAD DUP1 MLOAD SWAP1 PUSH1 0x1 PUSH1 0x1 PUSH1 0x40 SHL SUB DUP3 GT PUSH3 0x515 JUMPI PUSH1 0x2 DUP5 ADD SLOAD SWAP1 PUSH1 0x1 DUP3 DUP2 SHR SWAP3 AND DUP1 ISZERO PUSH3 0x50A JUMPI JUMPDEST PUSH1 0x20 DUP4 LT EQ PUSH3 0x4F4 JUMPI DUP2 PUSH1 0x1F DUP5 SWAP4 GT PUSH3 0x49C JUMPI JUMPDEST POP PUSH1 0x20 SWAP1 PUSH1 0x1F DUP4 GT PUSH1 0x1 EQ PUSH3 0x425 JUMPI PUSH1 0x0 SWAP3 PUSH3 0x419 JUMPI JUMPDEST POP POP DUP2 PUSH1 0x1 SHL SWAP2 PUSH1 0x0 NOT SWAP1 PUSH1 0x3 SHL SHR NOT AND OR PUSH1 0x2 DUP4 ADD SSTORE JUMPDEST PUSH1 0x60 DUP2 ADD MLOAD PUSH1 0x3 DUP4 DUP2 ADD DUP1 SLOAD PUSH1 0x1 PUSH1 0x1 PUSH1 0xA0 SHL SUB NOT AND PUSH1 0x1 PUSH1 0x1 PUSH1 0xA0 SHL SUB SWAP4 SWAP1 SWAP4 AND SWAP3 SWAP1 SWAP3 OR SWAP1 SWAP2 SSTORE PUSH1 0x80 DUP3 ADD MLOAD PUSH1 0x4 DUP5 ADD SSTORE PUSH1 0xA0 DUP3 ADD MLOAD PUSH1 0x5 DUP5 ADD SSTORE PUSH1 0xC0 DUP3 ADD MLOAD PUSH1 0x6 DUP5 ADD SSTORE PUSH1 0xE0 DUP3 ADD MLOAD PUSH1 0x7 DUP5 ADD SSTORE PUSH2 0x100 DUP3 ADD MLOAD PUSH1 0x8 DUP5 ADD SSTORE PUSH2 0x120 DUP3 ADD MLOAD PUSH1 0x9 DUP5 ADD SWAP3 SWAP1 SWAP2 DUP3 LT ISZERO PUSH3 0x403 JUMPI PUSH1 0xA SWAP3 PUSH2 0x140 SWAP3 PUSH1 0xFF DUP1 NOT DUP4 SLOAD AND SWAP2 AND OR SWAP1 SSTORE ADD MLOAD SWAP2 ADD SSTORE DUP1 PUSH1 0x0 MSTORE PUSH1 0x7 PUSH1 0x20 MSTORE PUSH1 0x2 PUSH1 0x40 PUSH1 0x0 KECCAK256 SSTORE PUSH1 0x40 MLOAD PUSH1 0x40 DUP2 MSTORE DUP3 MLOAD SWAP3 DUP4 PUSH1 0x40 DUP4 ADD MSTORE PUSH1 0x0 JUMPDEST DUP5 DUP2 LT PUSH3 0x3EC JUMPI POP POP DUP1 PUSH1 0x0 PUSH1 0x60 DUP6 PUSH32 0x8E46DCAB88334408205DFDFF058DE646A02AB7FDDB35B9923E924E49CE505C30 SWAP5 ADD ADD MSTORE PUSH2 0x1F4 PUSH1 0x20 DUP3 ADD MSTORE PUSH1 0x60 DUP2 CALLER SWAP6 PUSH1 0x1F DUP1 NOT SWAP2 ADD AND DUP2 ADD SUB ADD SWAP1 LOG3 PUSH1 0x40 MLOAD PUSH2 0x48DC SWAP1 DUP2 PUSH3 0x6CC DUP3 CODECOPY RETURN JUMPDEST DUP1 PUSH1 0x20 DUP1 SWAP3 DUP5 ADD ADD MLOAD PUSH1 0x60 DUP3 DUP7 ADD ADD MSTORE ADD PUSH3 0x38D JUMP JUMPDEST PUSH4 0x4E487B71 PUSH1 0xE0 SHL PUSH1 0x0 MSTORE PUSH1 0x21 PUSH1 0x4 MSTORE PUSH1 0x24 PUSH1 0x0 REVERT JUMPDEST ADD MLOAD SWAP1 POP CODESIZE DUP1 PUSH3 0x2C8 JUMP JUMPDEST SWAP3 POP PUSH1 0x2 DUP6 ADD PUSH1 0x0 MSTORE PUSH1 0x20 PUSH1 0x0 KECCAK256 SWAP1 PUSH1 0x0 SWAP4 JUMPDEST PUSH1 0x1F NOT DUP5 AND DUP6 LT PUSH3 0x480 JUMPI PUSH1 0x1 SWAP5 POP DUP4 PUSH1 0x1F NOT DUP2 AND LT PUSH3 0x466 JUMPI JUMPDEST POP POP POP DUP2 SHL ADD PUSH1 0x2 DUP4 ADD SSTORE PUSH3 0x2E0 JUMP JUMPDEST ADD MLOAD PUSH1 0x0 NOT PUSH1 0xF8 DUP5 PUSH1 0x3 SHL AND SHR NOT AND SWAP1 SSTORE CODESIZE DUP1 DUP1 PUSH3 0x455 JUMP JUMPDEST DUP2 DUP2 ADD MLOAD DUP4 SSTORE PUSH1 0x20 SWAP5 DUP6 ADD SWAP5 PUSH1 0x1 SWAP1 SWAP4 ADD SWAP3 SWAP1 SWAP2 ADD SWAP1 PUSH3 0x438 JUMP JUMPDEST SWAP1 SWAP2 POP PUSH1 0x2 DUP6 ADD PUSH1 0x0 MSTORE PUSH1 0x20 PUSH1 0x0 KECCAK256 PUSH1 0x1F DUP5 ADD PUSH1 0x5 SHR DUP2 ADD PUSH1 0x20 DUP6 LT PUSH3 0x4EC JUMPI JUMPDEST SWAP1 DUP5 SWAP4 SWAP3 SWAP2 JUMPDEST PUSH1 0x1F DUP4 ADD PUSH1 0x5 SHR DUP3 ADD DUP2 LT PUSH3 0x4DC JUMPI POP POP PUSH3 0x2AF JUMP JUMPDEST PUSH1 0x0 DUP2 SSTORE DUP6 SWAP5 POP PUSH1 0x1 ADD PUSH3 0x4C4 JUMP JUMPDEST POP DUP1 PUSH3 0x4BE JUMP JUMPDEST PUSH4 0x4E487B71 PUSH1 0xE0 SHL PUSH1 0x0 MSTORE PUSH1 0x22 PUSH1 0x4 MSTORE PUSH1 0x24 PUSH1 0x0 REVERT JUMPDEST SWAP2 PUSH1 0x7F AND SWAP2 PUSH3 0x299 JUMP JUMPDEST PUSH4 0x4E487B71 PUSH1 0xE0 SHL PUSH1 0x0 MSTORE PUSH1 0x41 PUSH1 0x4 MSTORE PUSH1 0x24 PUSH1 0x0 REVERT JUMPDEST ADD MLOAD SWAP1 POP CODESIZE DUP1 PUSH3 0x255 JUMP JUMPDEST SWAP3 POP PUSH1 0x1 DUP6 ADD PUSH1 0x0 MSTORE PUSH1 0x20 PUSH1 0x0 KECCAK256 SWAP1 PUSH1 0x0 SWAP4 JUMPDEST PUSH1 0x1F NOT DUP5 AND DUP6 LT PUSH3 0x592 JUMPI PUSH1 0x1 SWAP5 POP DUP4 PUSH1 0x1F NOT DUP2 AND LT PUSH3 0x578 JUMPI JUMPDEST POP POP POP DUP2 SHL ADD PUSH1 0x1 DUP4 ADD SSTORE PUSH3 0x26D JUMP JUMPDEST ADD MLOAD PUSH1 0x0 NOT PUSH1 0xF8 DUP5 PUSH1 0x3 SHL AND SHR NOT AND SWAP1 SSTORE CODESIZE DUP1 DUP1 PUSH3 0x567 JUMP JUMPDEST DUP2 DUP2 ADD MLOAD DUP4 SSTORE PUSH1 0x20 SWAP5 DUP6 ADD SWAP5 PUSH1 0x1 SWAP1 SWAP4 ADD SWAP3 SWAP1 SWAP2 ADD SWAP1 PUSH3 0x54A JUMP JUMPDEST SWAP1 SWAP2 POP PUSH1 0x1 DUP6 ADD PUSH1 0x0 MSTORE PUSH1 0x20 PUSH1 0x0 KECCAK256 PUSH1 0x1F DUP5 ADD PUSH1 0x5 SHR DUP2 ADD PUSH1 0x20 DUP6 LT PUSH3 0x5FE JUMPI JUMPDEST SWAP1 DUP5 SWAP4 SWAP3 SWAP2 JUMPDEST PUSH1 0x1F DUP4 ADD PUSH1 0x5 SHR DUP3 ADD DUP2 LT PUSH3 0x5EE JUMPI POP POP PUSH3 0x23C JUMP JUMPDEST PUSH1 0x0 DUP2 SSTORE DUP6 SWAP5 POP PUSH1 0x1 ADD PUSH3 0x5D6 JUMP JUMPDEST POP DUP1 PUSH3 0x5D0 JUMP JUMPDEST SWAP2 PUSH1 0x7F AND SWAP2 PUSH3 0x226 JUMP JUMPDEST PUSH4 0x4E487B71 PUSH1 0xE0 SHL PUSH1 0x0 MSTORE PUSH1 0x11 PUSH1 0x4 MSTORE PUSH1 0x24 PUSH1 0x0 REVERT JUMPDEST PUSH1 0x40 MLOAD PUSH3 0x461BCD PUSH1 0xE5 SHL DUP2 MSTORE PUSH1 0x20 PUSH1 0x4 DUP3 ADD MSTORE PUSH1 0x10 PUSH1 0x24 DUP3 ADD MSTORE PUSH16 0x496E76616C6964207472656173757279 PUSH1 0x80 SHL PUSH1 0x44 DUP3 ADD MSTORE PUSH1 0x64 SWAP1 REVERT JUMPDEST PUSH3 0x461BCD PUSH1 0xE5 SHL DUP2 MSTORE PUSH1 0x20 PUSH1 0x4 DUP3 ADD MSTORE PUSH1 0xD PUSH1 0x24 DUP3 ADD MSTORE PUSH13 0x24B73B30B634B2103A37B5B2B7 PUSH1 0x99 SHL PUSH1 0x44 DUP3 ADD MSTORE PUSH1 0x64 SWAP1 REVERT JUMPDEST PUSH1 0x0 DUP1 REVERT JUMPDEST PUSH1 0x40 DUP1 MLOAD SWAP2 SWAP1 DUP3 ADD PUSH1 0x1 PUSH1 0x1 PUSH1 0x40 SHL SUB DUP2 GT DUP4 DUP3 LT OR PUSH3 0x515 JUMPI PUSH1 0x40 MSTORE JUMP JUMPDEST MLOAD SWAP1 PUSH1 0x1 PUSH1 0x1 PUSH1 0xA0 SHL SUB DUP3 AND DUP3 SUB PUSH3 0x691 JUMPI JUMP INVALID PUSH1 0x80 PUSH1 0x40 MSTORE PUSH1 0x4 CALLDATASIZE LT ISZERO PUSH2 0x12 JUMPI PUSH1 0x0 DUP1 REVERT JUMPDEST PUSH1 0x0 CALLDATALOAD PUSH1 0xE0 SHR DUP1 PUSH4 0x72F4FC0 EQ PUSH2 0x37E6 JUMPI DUP1 PUSH4 0xC5A61F8 EQ PUSH2 0x3799 JUMPI DUP1 PUSH4 0xEBAC45A EQ PUSH2 0x3766 JUMPI DUP1 PUSH4 0xF0DA719 EQ PUSH2 0x372C JUMPI DUP1 PUSH4 0xFB6D805 EQ PUSH2 0x36E5 JUMPI DUP1 PUSH4 0x10C6BD25 EQ PUSH2 0x36B9 JUMPI DUP1 PUSH4 0x10F0DDE4 EQ PUSH2 0x369C JUMPI DUP1 PUSH4 0x16C53CED EQ PUSH2 0x3534 JUMPI DUP1 PUSH4 0x1D65E77E EQ PUSH2 0x3341 JUMPI DUP1 PUSH4 0x1DC375B9 EQ PUSH2 0x3296 JUMPI DUP1 PUSH4 0x1DD73E0D EQ PUSH2 0x2F49 JUMPI DUP1 PUSH4 0x23F2A73F EQ PUSH2 0xD55 JUMPI DUP1 PUSH4 0x24C3FD2F EQ PUSH2 0x2F28 JUMPI DUP1 PUSH4 0x2FA70F48 EQ PUSH2 0x2EFC JUMPI DUP1 PUSH4 0x3370F06E EQ PUSH2 0x2EDF JUMPI DUP1 PUSH4 0x39388006 EQ PUSH2 0x2EA5 JUMPI DUP1 PUSH4 0x3C9A6BF3 EQ PUSH2 0x2E37 JUMPI DUP1 PUSH4 0x3F422EF3 EQ PUSH2 0x2D5B JUMPI DUP1 PUSH4 0x475726F7 EQ PUSH2 0x2C82 JUMPI DUP1 PUSH4 0x483B4039 EQ PUSH2 0x2C64 JUMPI DUP1 PUSH4 0x4AF93988 EQ PUSH2 0x2C47 JUMPI DUP1 PUSH4 0x4B561753 EQ PUSH2 0x2AA8 JUMPI DUP1 PUSH4 0x51B15B8A EQ PUSH2 0x2A7C JUMPI DUP1 PUSH4 0x53EEA875 EQ PUSH2 0x29E3 JUMPI DUP1 PUSH4 0x58CA7504 EQ PUSH2 0x2829 JUMPI DUP1 PUSH4 0x5C975ABB EQ PUSH2 0x2803 JUMPI DUP1 PUSH4 0x5CC9BCA9 EQ PUSH2 0x239F JUMPI DUP1 PUSH4 0x65617A35 EQ PUSH2 0x239A JUMPI DUP1 PUSH4 0x68A7F826 EQ PUSH2 0x1F3F JUMPI DUP1 PUSH4 0x6A0CD1F5 EQ PUSH2 0x1E61 JUMPI DUP1 PUSH4 0x6F5474BF EQ PUSH2 0x1D4A JUMPI DUP1 PUSH4 0x715018A6 EQ PUSH2 0x1CED JUMPI DUP1 PUSH4 0x77AD68DA EQ PUSH2 0x1CBA JUMPI DUP1 PUSH4 0x7B617482 EQ PUSH2 0x1C19 JUMPI DUP1 PUSH4 0x7BE24CB8 EQ PUSH2 0x1BED JUMPI DUP1 PUSH4 0x7CA0AD2D EQ PUSH2 0x1BA1 JUMPI DUP1 PUSH4 0x803DB96D EQ PUSH2 0x1B78 JUMPI DUP1 PUSH4 0x8795CCCB EQ PUSH2 0x1ADB JUMPI DUP1 PUSH4 0x88488C33 EQ PUSH2 0x18EF JUMPI DUP1 PUSH4 0x8C0A4A05 EQ PUSH2 0x12EE JUMPI DUP1 PUSH4 0x8C0DD79A EQ PUSH2 0x1449 JUMPI DUP1 PUSH4 0x8D977672 EQ PUSH2 0x1364 JUMPI DUP1 PUSH4 0x8DA5CB5B EQ PUSH2 0x133B JUMPI DUP1 PUSH4 0x8EE9F6DC EQ PUSH2 0x12EE JUMPI DUP1 PUSH4 0x916A5C5B EQ PUSH2 0x12D0 JUMPI DUP1 PUSH4 0x927229C6 EQ PUSH2 0xDFE JUMPI DUP1 PUSH4 0x93AF0076 EQ PUSH2 0xDE1 JUMPI DUP1 PUSH4 0x9D7EEA9F EQ PUSH2 0xDA2 JUMPI DUP1 PUSH4 0xA3BE1EAB EQ PUSH2 0xD55 JUMPI DUP1 PUSH4 0xAC64C822 EQ PUSH2 0xD08 JUMPI DUP1 PUSH4 0xB46E7424 EQ PUSH2 0xCD5 JUMPI DUP1 PUSH4 0xB73C6CE9 EQ PUSH2 0xC19 JUMPI DUP1 PUSH4 0xB7EE5EDA EQ PUSH2 0x8F2 JUMPI DUP1 PUSH4 0xBE123323 EQ PUSH2 0x6A8 JUMPI DUP1 PUSH4 0xC6A1A01A EQ PUSH2 0x63D JUMPI DUP1 PUSH4 0xCA7B64BB EQ PUSH2 0x61D JUMPI DUP1 PUSH4 0xD1270485 EQ PUSH2 0x5C1 JUMPI DUP1 PUSH4 0xD1FAF406 EQ PUSH2 0x4B4 JUMPI DUP1 PUSH4 0xD65314B3 EQ PUSH2 0x444 JUMPI DUP1 PUSH4 0xDFC75372 EQ PUSH2 0x426 JUMPI DUP1 PUSH4 0xF2FDE38B EQ PUSH2 0x362 JUMPI DUP1 PUSH4 0xF3F43703 EQ PUSH2 0x328 JUMPI DUP1 PUSH4 0xF526E39A EQ PUSH2 0x30A JUMPI PUSH4 0xF70B5C06 EQ PUSH2 0x2DC JUMPI PUSH1 0x0 DUP1 REVERT JUMPDEST CALLVALUE PUSH2 0x305 JUMPI PUSH1 0x0 CALLDATASIZE PUSH1 0x3 NOT ADD SLT PUSH2 0x305 JUMPI PUSH1 0x2 SLOAD PUSH1 0x40 MLOAD PUSH1 0x1 PUSH1 0x1 PUSH1 0xA0 SHL SUB SWAP1 SWAP2 AND DUP2 MSTORE PUSH1 0x20 SWAP1 RETURN JUMPDEST PUSH1 0x0 DUP1 REVERT JUMPDEST CALLVALUE PUSH2 0x305 JUMPI PUSH1 0x0 CALLDATASIZE PUSH1 0x3 NOT ADD SLT PUSH2 0x305 JUMPI PUSH1 0x20 PUSH1 0x6 SLOAD PUSH1 0x40 MLOAD SWAP1 DUP2 MSTORE RETURN JUMPDEST CALLVALUE PUSH2 0x305 JUMPI PUSH1 0x20 CALLDATASIZE PUSH1 0x3 NOT ADD SLT PUSH2 0x305 JUMPI PUSH1 0x1 PUSH1 0x1 PUSH1 0xA0 SHL SUB PUSH2 0x349 PUSH2 0x3806 JUMP JUMPDEST AND PUSH1 0x0 MSTORE PUSH1 0x15 PUSH1 0x20 MSTORE PUSH1 0x20 PUSH1 0x40 PUSH1 0x0 KECCAK256 SLOAD PUSH1 0x40 MLOAD SWAP1 DUP2 MSTORE RETURN JUMPDEST CALLVALUE PUSH2 0x305 JUMPI PUSH1 0x20 CALLDATASIZE PUSH1 0x3 NOT ADD SLT PUSH2 0x305 JUMPI PUSH2 0x37B PUSH2 0x3806 JUMP JUMPDEST PUSH2 0x383 PUSH2 0x3EDE JUMP JUMPDEST PUSH1 0x1 PUSH1 0x1 PUSH1 0xA0 SHL SUB SWAP1 DUP2 AND SWAP1 DUP2 ISZERO PUSH2 0x3D2 JUMPI PUSH1 0x1 SLOAD DUP3 PUSH1 0x1 PUSH1 0x1 PUSH1 0x60 SHL SUB PUSH1 0xA0 SHL DUP3 AND OR PUSH1 0x1 SSTORE AND PUSH32 0x8BE0079C531659141344CD1FD0A4F28419497F9722A3DAAFE3B4186F6B6457E0 PUSH1 0x0 DUP1 LOG3 STOP JUMPDEST PUSH1 0x40 MLOAD PUSH3 0x461BCD PUSH1 0xE5 SHL DUP2 MSTORE PUSH1 0x20 PUSH1 0x4 DUP3 ADD MSTORE PUSH1 0x26 PUSH1 0x24 DUP3 ADD MSTORE PUSH32 0x4F776E61626C653A206E6577206F776E657220697320746865207A65726F2061 PUSH1 0x44 DUP3 ADD MSTORE PUSH6 0x646472657373 PUSH1 0xD0 SHL PUSH1 0x64 DUP3 ADD MSTORE PUSH1 0x84 SWAP1 REVERT JUMPDEST CALLVALUE PUSH2 0x305 JUMPI PUSH1 0x0 CALLDATASIZE PUSH1 0x3 NOT ADD SLT PUSH2 0x305 JUMPI PUSH1 0x20 PUSH1 0x1C SLOAD PUSH1 0x40 MLOAD SWAP1 DUP2 MSTORE RETURN JUMPDEST CALLVALUE PUSH2 0x305 JUMPI PUSH1 0x40 PUSH2 0x454 CALLDATASIZE PUSH2 0x3848 JUMP JUMPDEST DUP3 PUSH1 0x0 MSTORE PUSH1 0x20 SWAP2 PUSH1 0x11 DUP4 MSTORE DUP5 PUSH1 0x0 KECCAK256 DUP2 PUSH1 0x0 MSTORE DUP4 MSTORE DUP5 PUSH1 0x0 KECCAK256 SWAP2 PUSH1 0x1 DUP1 PUSH1 0xA0 SHL SUB AND SWAP2 DUP3 PUSH1 0x0 MSTORE DUP4 MSTORE PUSH1 0xFF DUP6 PUSH1 0x0 KECCAK256 SLOAD AND SWAP4 PUSH1 0x0 MSTORE PUSH1 0x10 DUP4 MSTORE DUP5 PUSH1 0x0 KECCAK256 SWAP1 PUSH1 0x0 MSTORE DUP3 MSTORE DUP4 PUSH1 0x0 KECCAK256 SWAP1 PUSH1 0x0 MSTORE DUP2 MSTORE DUP3 PUSH1 0x0 KECCAK256 SLOAD SWAP2 DUP4 MLOAD SWAP3 DUP4 MSTORE ISZERO ISZERO SWAP1 DUP3 ADD MSTORE RETURN JUMPDEST CALLVALUE PUSH2 0x305 JUMPI PUSH1 0x20 CALLDATASIZE PUSH1 0x3 NOT ADD SLT PUSH2 0x305 JUMPI PUSH2 0x4CD PUSH2 0x3F36 JUMP JUMPDEST PUSH1 0x4 CALLDATALOAD PUSH1 0x0 MSTORE PUSH1 0x8 PUSH1 0x20 MSTORE PUSH1 0x40 PUSH1 0x0 KECCAK256 PUSH1 0x9 PUSH1 0x1 DUP1 PUSH1 0xA0 SHL SUB SWAP2 PUSH2 0x4F8 DUP4 PUSH1 0x3 DUP4 ADD SLOAD AND CALLER EQ PUSH2 0x3E4C JUMP JUMPDEST ADD SWAP1 DUP2 SLOAD SWAP2 PUSH1 0xFF DUP4 AND PUSH1 0x3 DUP2 LT ISZERO PUSH2 0x5AB JUMPI DUP1 ISZERO SWAP1 DUP2 ISZERO PUSH2 0x5A0 JUMPI JUMPDEST POP ISZERO PUSH2 0x566 JUMPI PUSH1 0x2 PUSH2 0x55F SWAP4 PUSH1 0xFF NOT AND OR SWAP1 SSTORE PUSH1 0x2 SLOAD AND PUSH1 0x40 MLOAD SWAP1 PUSH4 0xA9059CBB PUSH1 0xE0 SHL PUSH1 0x20 DUP4 ADD MSTORE CALLER PUSH1 0x24 DUP4 ADD MSTORE PUSH5 0xE8D4A51000 PUSH1 0x44 DUP4 ADD MSTORE PUSH1 0x44 DUP3 MSTORE PUSH2 0x55A DUP3 PUSH2 0x3930 JUMP JUMPDEST PUSH2 0x4684 JUMP JUMPDEST PUSH1 0x1 PUSH1 0x0 SSTORE STOP JUMPDEST PUSH1 0x40 MLOAD PUSH3 0x461BCD PUSH1 0xE5 SHL DUP2 MSTORE PUSH1 0x20 PUSH1 0x4 DUP3 ADD MSTORE PUSH1 0x12 PUSH1 0x24 DUP3 ADD MSTORE PUSH18 0x105B1C9958591E4819195C1C9958D85D1959 PUSH1 0x72 SHL PUSH1 0x44 DUP3 ADD MSTORE PUSH1 0x64 SWAP1 REVERT JUMPDEST PUSH1 0x1 SWAP2 POP EQ DUP5 PUSH2 0x514 JUMP JUMPDEST PUSH4 0x4E487B71 PUSH1 0xE0 SHL PUSH1 0x0 MSTORE PUSH1 0x21 PUSH1 0x4 MSTORE PUSH1 0x24 PUSH1 0x0 REVERT JUMPDEST CALLVALUE PUSH2 0x305 JUMPI PUSH1 0x20 CALLDATASIZE PUSH1 0x3 NOT ADD SLT PUSH2 0x305 JUMPI PUSH1 0x1 PUSH1 0x1 PUSH1 0xA0 SHL SUB PUSH2 0x5E2 PUSH2 0x3806 JUMP JUMPDEST AND PUSH1 0x0 MSTORE PUSH1 0x16 PUSH1 0x20 MSTORE PUSH1 0x80 PUSH1 0x40 PUSH1 0x0 KECCAK256 DUP1 SLOAD SWAP1 PUSH1 0x1 DUP2 ADD SLOAD SWAP1 PUSH1 0x3 PUSH1 0x2 DUP3 ADD SLOAD SWAP2 ADD SLOAD SWAP2 PUSH1 0x40 MLOAD SWAP4 DUP5 MSTORE PUSH1 0x20 DUP5 ADD MSTORE PUSH1 0x40 DUP4 ADD MSTORE PUSH1 0x60 DUP3 ADD MSTORE RETURN JUMPDEST CALLVALUE PUSH2 0x305 JUMPI PUSH1 0x0 CALLDATASIZE PUSH1 0x3 NOT ADD SLT PUSH2 0x305 JUMPI PUSH1 0x20 PUSH1 0x40 MLOAD PUSH5 0x174876E800 DUP2 MSTORE RETURN JUMPDEST CALLVALUE PUSH2 0x305 JUMPI PUSH1 0x0 CALLDATASIZE PUSH1 0x3 NOT ADD SLT PUSH2 0x305 JUMPI PUSH1 0x3 DUP1 SLOAD PUSH1 0x0 SWAP1 DUP2 JUMPDEST DUP2 DUP2 LT PUSH2 0x669 JUMPI PUSH1 0x20 DUP4 PUSH1 0x40 MLOAD SWAP1 DUP2 MSTORE RETURN JUMPDEST DUP1 PUSH1 0x0 MSTORE PUSH1 0x8 PUSH1 0x20 MSTORE PUSH1 0xFF PUSH1 0x9 PUSH1 0x40 PUSH1 0x0 KECCAK256 ADD SLOAD AND DUP5 DUP2 LT ISZERO PUSH2 0x5AB JUMPI ISZERO PUSH2 0x694 JUMPI JUMPDEST PUSH1 0x1 ADD PUSH2 0x657 JUMP JUMPDEST SWAP2 PUSH2 0x6A0 PUSH1 0x1 SWAP2 PUSH2 0x3C6D JUMP JUMPDEST SWAP3 SWAP1 POP PUSH2 0x68C JUMP JUMPDEST CALLVALUE PUSH2 0x305 JUMPI PUSH2 0x6B6 CALLDATASIZE PUSH2 0x3832 JUMP JUMPDEST SWAP1 DUP1 PUSH1 0x0 MSTORE PUSH1 0x20 SWAP2 PUSH1 0xB DUP4 MSTORE PUSH1 0x40 PUSH1 0x0 KECCAK256 CALLER PUSH1 0x0 MSTORE DUP4 MSTORE PUSH1 0xFF PUSH1 0x40 PUSH1 0x0 KECCAK256 SLOAD AND ISZERO PUSH2 0x8AD JUMPI DUP1 PUSH1 0x0 MSTORE PUSH1 0xB DUP4 MSTORE PUSH1 0x40 PUSH1 0x0 KECCAK256 CALLER PUSH1 0x0 MSTORE DUP4 MSTORE PUSH1 0xFF PUSH1 0x40 PUSH1 0x0 KECCAK256 SLOAD AND ISZERO PUSH2 0x868 JUMPI DUP1 DUP3 EQ PUSH2 0x835 JUMPI CALLER PUSH1 0x0 MSTORE PUSH1 0x16 DUP4 MSTORE PUSH1 0x40 PUSH1 0x0 KECCAK256 DUP1 SLOAD ISZERO PUSH2 0x7F8 JUMPI PUSH1 0x2 ADD SLOAD SWAP1 PUSH2 0x1388 SWAP2 DUP3 DUP2 MUL DUP2 DUP2 DIV DUP5 EQ DUP3 ISZERO OR ISZERO PUSH2 0x7E2 JUMPI PUSH2 0x2710 SWAP1 DIV SWAP3 DUP4 GT ISZERO PUSH2 0x791 JUMPI PUSH32 0x28712F42BB62447CAC6809DA4BEE68E8B6D1786EFF0B73558CAC4884C0FB64B6 SWAP4 SWAP5 POP DUP1 DUP4 GT PUSH2 0x789 JUMPI JUMPDEST POP PUSH1 0x40 DUP1 MLOAD SWAP5 DUP6 MSTORE PUSH1 0x20 DUP6 ADD SWAP2 SWAP1 SWAP2 MSTORE DUP4 ADD MSTORE CALLER SWAP2 DUP1 PUSH1 0x60 DUP2 ADD JUMPDEST SUB SWAP1 LOG2 STOP JUMPDEST SWAP2 POP DUP5 PUSH2 0x769 JUMP JUMPDEST PUSH1 0x40 MLOAD PUSH3 0x461BCD PUSH1 0xE5 SHL DUP2 MSTORE PUSH1 0x4 DUP2 ADD DUP7 SWAP1 MSTORE PUSH1 0x24 DUP1 DUP3 ADD MSTORE PUSH32 0x506F727465642073636F7265206E6F7420626574746572207468616E20646566 PUSH1 0x44 DUP3 ADD MSTORE PUSH4 0x185D5B1D PUSH1 0xE2 SHL PUSH1 0x64 DUP3 ADD MSTORE PUSH1 0x84 SWAP1 REVERT JUMPDEST PUSH4 0x4E487B71 PUSH1 0xE0 SHL PUSH1 0x0 MSTORE PUSH1 0x11 PUSH1 0x4 MSTORE PUSH1 0x24 PUSH1 0x0 REVERT JUMPDEST PUSH1 0x40 MLOAD PUSH3 0x461BCD PUSH1 0xE5 SHL DUP2 MSTORE PUSH1 0x4 DUP2 ADD DUP6 SWAP1 MSTORE PUSH1 0x15 PUSH1 0x24 DUP3 ADD MSTORE PUSH21 0x139BC81C995C1D5D185D1A5BDB881D1BC81C1BDC9D PUSH1 0x5A SHL PUSH1 0x44 DUP3 ADD MSTORE PUSH1 0x64 SWAP1 REVERT JUMPDEST PUSH1 0x40 MLOAD PUSH3 0x461BCD PUSH1 0xE5 SHL DUP2 MSTORE PUSH1 0x4 DUP2 ADD DUP5 SWAP1 MSTORE PUSH1 0xB PUSH1 0x24 DUP3 ADD MSTORE PUSH11 0x14D85B59481CDD589B995D PUSH1 0xAA SHL PUSH1 0x44 DUP3 ADD MSTORE PUSH1 0x64 SWAP1 REVERT JUMPDEST PUSH1 0x40 MLOAD PUSH3 0x461BCD PUSH1 0xE5 SHL DUP2 MSTORE PUSH1 0x4 DUP2 ADD DUP5 SWAP1 MSTORE PUSH1 0x1E PUSH1 0x24 DUP3 ADD MSTORE PUSH32 0x4E6F742076616C696461746F7220696E20746172676574207375626E65740000 PUSH1 0x44 DUP3 ADD MSTORE PUSH1 0x64 SWAP1 REVERT JUMPDEST PUSH1 0x40 MLOAD PUSH3 0x461BCD PUSH1 0xE5 SHL DUP2 MSTORE PUSH1 0x4 DUP2 ADD DUP5 SWAP1 MSTORE PUSH1 0x1E PUSH1 0x24 DUP3 ADD MSTORE PUSH32 0x4E6F742076616C696461746F7220696E20736F75726365207375626E65740000 PUSH1 0x44 DUP3 ADD MSTORE PUSH1 0x64 SWAP1 REVERT JUMPDEST CALLVALUE PUSH2 0x305 JUMPI PUSH1 0x60 CALLDATASIZE PUSH1 0x3 NOT ADD SLT PUSH2 0x305 JUMPI PUSH1 0x4 CALLDATALOAD PUSH1 0x24 CALLDATALOAD PUSH1 0x44 CALLDATALOAD SWAP1 DUP3 PUSH1 0x0 MSTORE PUSH1 0x20 SWAP1 PUSH1 0x9 DUP3 MSTORE PUSH1 0x40 PUSH1 0x0 KECCAK256 SWAP3 PUSH1 0x9 DUP5 ADD SWAP3 PUSH1 0xFF DUP5 SLOAD AND PUSH1 0x6 DUP2 LT ISZERO PUSH2 0x5AB JUMPI DUP1 PUSH1 0x2 PUSH2 0x947 SWAP3 EQ SWAP1 DUP2 ISZERO PUSH2 0xC0E JUMPI JUMPDEST POP PUSH2 0x3B61 JUMP JUMPDEST PUSH1 0x1 DUP6 ADD SWAP4 DUP5 SLOAD PUSH1 0x0 MSTORE PUSH1 0xB DUP3 MSTORE PUSH1 0x40 PUSH1 0x0 KECCAK256 CALLER PUSH1 0x0 MSTORE DUP3 MSTORE PUSH2 0x971 PUSH1 0xFF PUSH1 0x40 PUSH1 0x0 KECCAK256 SLOAD AND PUSH2 0x3BA2 JUMP JUMPDEST DUP7 PUSH1 0x0 MSTORE PUSH1 0xA DUP3 MSTORE PUSH2 0x989 PUSH1 0x40 PUSH1 0x0 KECCAK256 SLOAD DUP6 LT PUSH2 0x3BE0 JUMP JUMPDEST PUSH2 0x997 PUSH2 0x2710 DUP5 GT ISZERO PUSH2 0x3DB0 JUMP JUMPDEST DUP7 PUSH1 0x0 MSTORE PUSH1 0x11 DUP3 MSTORE PUSH1 0x40 PUSH1 0x0 KECCAK256 DUP5 PUSH1 0x0 MSTORE DUP3 MSTORE PUSH1 0x40 PUSH1 0x0 KECCAK256 CALLER PUSH1 0x0 MSTORE DUP3 MSTORE PUSH1 0xFF PUSH1 0x40 PUSH1 0x0 KECCAK256 SLOAD AND PUSH2 0xBB8 JUMPI DUP7 PUSH1 0x0 MSTORE PUSH1 0xA DUP3 MSTORE PUSH2 0x9D8 DUP5 PUSH1 0x40 PUSH1 0x0 KECCAK256 PUSH2 0x3A70 JUMP JUMPDEST POP SWAP1 PUSH1 0x3 DUP3 ADD SWAP4 PUSH1 0xFF DUP6 SLOAD AND PUSH2 0xB75 JUMPI DUP9 PUSH1 0x0 MSTORE PUSH1 0x10 DUP5 MSTORE PUSH1 0x40 PUSH1 0x0 KECCAK256 DUP7 PUSH1 0x0 MSTORE DUP5 MSTORE PUSH1 0x40 PUSH1 0x0 KECCAK256 CALLER PUSH1 0x0 MSTORE DUP5 MSTORE DUP1 PUSH1 0x40 PUSH1 0x0 KECCAK256 SSTORE DUP9 PUSH1 0x0 MSTORE PUSH1 0x11 DUP5 MSTORE PUSH1 0x40 PUSH1 0x0 KECCAK256 DUP7 PUSH1 0x0 MSTORE DUP5 MSTORE PUSH1 0x40 PUSH1 0x0 KECCAK256 CALLER PUSH1 0x0 MSTORE DUP5 MSTORE PUSH1 0x40 PUSH1 0x0 KECCAK256 SWAP7 PUSH1 0xFF NOT SWAP8 PUSH1 0x1 DUP10 DUP3 SLOAD AND OR SWAP1 SSTORE DUP10 PUSH1 0x0 MSTORE PUSH1 0x12 DUP6 MSTORE PUSH1 0x40 PUSH1 0x0 KECCAK256 DUP8 PUSH1 0x0 MSTORE DUP6 MSTORE PUSH2 0xA5F CALLER PUSH1 0x40 PUSH1 0x0 KECCAK256 PUSH2 0x3E04 JUMP JUMPDEST PUSH1 0x7 PUSH1 0x5 DUP6 ADD SWAP6 PUSH2 0xA70 DUP8 SLOAD PUSH2 0x3C6D JUMP JUMPDEST SWAP3 DUP4 DUP9 SSTORE PUSH1 0x1 DUP1 PUSH1 0xA0 SHL SUB SWAP5 DUP14 PUSH32 0x424E5AD88B2ACCC1579E610100B12E0F295D8C9E0B02ABB61AD1E413E3D63D02 PUSH1 0x40 DUP9 DUP12 SLOAD AND SWAP4 DUP2 MLOAD SWAP1 DUP2 MSTORE CALLER DUP8 DUP3 ADD MSTORE LOG3 SLOAD PUSH1 0x0 MSTORE MSTORE PUSH1 0x40 PUSH1 0x0 KECCAK256 SLOAD DUP1 ISZERO PUSH2 0xB6D JUMPI JUMPDEST DUP2 LT ISZERO PUSH2 0xACB JUMPI STOP JUMPDEST PUSH32 0xFF2FC693BB2D4A09F21F0C403FCE5ECB4B5B0B57E81C7253DEB5386BB8A8AE77 SWAP9 PUSH2 0x784 SWAP7 PUSH1 0x1 PUSH2 0xB00 PUSH1 0xA SWAP5 DUP12 DUP16 PUSH2 0x4026 JUMP JUMPDEST SWAP11 DUP12 PUSH1 0x2 DUP10 ADD SSTORE DUP3 SLOAD AND OR SWAP1 SSTORE ADD SWAP3 DUP8 DUP5 SLOAD DUP2 GT PUSH2 0xB3C JUMPI JUMPDEST POP POP POP POP POP SLOAD PUSH1 0x40 MLOAD SWAP4 DUP5 SWAP4 DUP5 PUSH1 0x40 SWAP2 SWAP5 SWAP4 SWAP3 PUSH1 0x60 DUP3 ADD SWAP6 DUP3 MSTORE PUSH1 0x20 DUP3 ADD MSTORE ADD MSTORE JUMP JUMPDEST SWAP1 SWAP4 SSTORE SWAP2 SLOAD DUP2 SLOAD PUSH2 0x100 PUSH1 0x1 PUSH1 0xA8 SHL SUB NOT AND SWAP3 AND PUSH1 0x8 SHL PUSH2 0x100 PUSH1 0x1 PUSH1 0xA8 SHL SUB AND SWAP2 SWAP1 SWAP2 OR SWAP1 SSTORE DUP7 DUP1 DUP1 DUP1 DUP8 PUSH2 0xB19 JUMP JUMPDEST POP PUSH1 0x2 PUSH2 0xAC2 JUMP JUMPDEST PUSH1 0x64 DUP5 PUSH1 0x40 MLOAD SWAP1 PUSH3 0x461BCD PUSH1 0xE5 SHL DUP3 MSTORE DUP1 PUSH1 0x4 DUP4 ADD MSTORE PUSH1 0x24 DUP3 ADD MSTORE PUSH32 0x5375626D697373696F6E20616C72656164792068617320636F6E73656E737573 PUSH1 0x44 DUP3 ADD MSTORE REVERT JUMPDEST PUSH1 0x40 MLOAD PUSH3 0x461BCD PUSH1 0xE5 SHL DUP2 MSTORE PUSH1 0x4 DUP2 ADD DUP4 SWAP1 MSTORE PUSH1 0x28 PUSH1 0x24 DUP3 ADD MSTORE PUSH32 0x56616C696461746F7220616C72656164792073636F7265642074686973207375 PUSH1 0x44 DUP3 ADD MSTORE PUSH8 0x3136B4B9B9B4B7B7 PUSH1 0xC1 SHL PUSH1 0x64 DUP3 ADD MSTORE PUSH1 0x84 SWAP1 REVERT JUMPDEST PUSH1 0x1 SWAP2 POP EQ DUP9 PUSH2 0x941 JUMP JUMPDEST CALLVALUE PUSH2 0x305 JUMPI PUSH1 0x0 CALLDATASIZE PUSH1 0x3 NOT ADD SLT PUSH2 0x305 JUMPI PUSH2 0xC32 PUSH2 0x3F36 JUMP JUMPDEST CALLER PUSH1 0x0 MSTORE PUSH1 0x15 PUSH1 0x20 MSTORE PUSH1 0x40 PUSH1 0x0 KECCAK256 SLOAD DUP1 ISZERO PUSH2 0xC9A JUMPI PUSH2 0x55F SWAP1 CALLER PUSH1 0x0 MSTORE PUSH1 0x15 PUSH1 0x20 MSTORE PUSH1 0x0 PUSH1 0x40 DUP2 KECCAK256 SSTORE PUSH1 0x40 MLOAD DUP2 DUP2 MSTORE PUSH32 0x48DC35AF7B45E2A81FFFAD55F6E2FAFACDB1D3D0D50D24EBDC16324F5BA757F1 PUSH1 0x20 CALLER SWAP3 LOG2 PUSH1 0x2 SLOAD CALLER SWAP1 PUSH1 0x1 PUSH1 0x1 PUSH1 0xA0 SHL SUB AND PUSH2 0x41ED JUMP JUMPDEST PUSH1 0x40 MLOAD PUSH3 0x461BCD PUSH1 0xE5 SHL DUP2 MSTORE PUSH1 0x20 PUSH1 0x4 DUP3 ADD MSTORE PUSH1 0x13 PUSH1 0x24 DUP3 ADD MSTORE PUSH19 0x4E6F2070656E64696E67206561726E696E6773 PUSH1 0x68 SHL PUSH1 0x44 DUP3 ADD MSTORE PUSH1 0x64 SWAP1 REVERT JUMPDEST CALLVALUE PUSH2 0x305 JUMPI PUSH2 0xCE3 CALLDATASIZE PUSH2 0x3832 JUMP JUMPDEST SWAP1 PUSH1 0x0 MSTORE PUSH1 0x19 PUSH1 0x20 MSTORE PUSH1 0x40 PUSH1 0x0 KECCAK256 SWAP1 PUSH1 0x0 MSTORE PUSH1 0x20 MSTORE PUSH1 0x20 PUSH1 0x40 PUSH1 0x0 KECCAK256 SLOAD PUSH1 0x40 MLOAD SWAP1 DUP2 MSTORE RETURN JUMPDEST CALLVALUE PUSH2 0x305 JUMPI PUSH1 0x40 CALLDATASIZE PUSH1 0x3 NOT ADD SLT PUSH2 0x305 JUMPI PUSH2 0xD21 PUSH2 0x381C JUMP JUMPDEST PUSH1 0x4 CALLDATALOAD PUSH1 0x0 MSTORE PUSH1 0xF PUSH1 0x20 MSTORE PUSH1 0x40 PUSH1 0x0 KECCAK256 SWAP1 PUSH1 0x1 DUP1 PUSH1 0xA0 SHL SUB AND PUSH1 0x0 MSTORE PUSH1 0x20 MSTORE PUSH1 0x20 PUSH1 0xFF PUSH1 0x40 PUSH1 0x0 KECCAK256 SLOAD AND PUSH1 0x40 MLOAD SWAP1 ISZERO ISZERO DUP2 MSTORE RETURN JUMPDEST CALLVALUE PUSH2 0x305 JUMPI PUSH1 0x40 CALLDATASIZE PUSH1 0x3 NOT ADD SLT PUSH2 0x305 JUMPI PUSH2 0xD6E PUSH2 0x381C JUMP JUMPDEST PUSH1 0x4 CALLDATALOAD PUSH1 0x0 MSTORE PUSH1 0xB PUSH1 0x20 MSTORE PUSH1 0x40 PUSH1 0x0 KECCAK256 SWAP1 PUSH1 0x1 DUP1 PUSH1 0xA0 SHL SUB AND PUSH1 0x0 MSTORE PUSH1 0x20 MSTORE PUSH1 0x20 PUSH1 0xFF PUSH1 0x40 PUSH1 0x0 KECCAK256 SLOAD AND PUSH1 0x40 MLOAD SWAP1 ISZERO ISZERO DUP2 MSTORE RETURN JUMPDEST CALLVALUE PUSH2 0x305 JUMPI PUSH1 0x40 CALLDATASIZE PUSH1 0x3 NOT ADD SLT PUSH2 0x305 JUMPI PUSH1 0x20 PUSH1 0x40 MLOAD DUP2 DUP2 ADD SWAP1 PUSH1 0x4 CALLDATALOAD DUP3 MSTORE PUSH1 0x24 CALLDATALOAD PUSH1 0x40 DUP3 ADD MSTORE PUSH1 0x40 DUP2 MSTORE PUSH2 0xDD6 DUP2 PUSH2 0x3982 JUMP JUMPDEST MLOAD SWAP1 KECCAK256 PUSH1 0x40 MLOAD SWAP1 DUP2 MSTORE RETURN JUMPDEST CALLVALUE PUSH2 0x305 JUMPI PUSH1 0x0 CALLDATASIZE PUSH1 0x3 NOT ADD SLT PUSH2 0x305 JUMPI PUSH1 0x20 PUSH1 0x40 MLOAD PUSH2 0x5DC DUP2 MSTORE RETURN JUMPDEST CALLVALUE PUSH2 0x305 JUMPI PUSH1 0x60 CALLDATASIZE PUSH1 0x3 NOT ADD SLT PUSH2 0x305 JUMPI PUSH1 0x4 CALLDATALOAD PUSH1 0x1 PUSH1 0x1 PUSH1 0x40 SHL SUB DUP2 GT PUSH2 0x305 JUMPI PUSH2 0xE2E SWAP1 CALLDATASIZE SWAP1 PUSH1 0x4 ADD PUSH2 0x3AA2 JUMP JUMPDEST SWAP1 PUSH1 0x24 CALLDATALOAD PUSH1 0x1 PUSH1 0x1 PUSH1 0x40 SHL SUB DUP2 GT PUSH2 0x305 JUMPI PUSH2 0xE4E SWAP1 CALLDATASIZE SWAP1 PUSH1 0x4 ADD PUSH2 0x3AA2 JUMP JUMPDEST SWAP3 PUSH2 0xE57 PUSH2 0x3F36 JUMP JUMPDEST PUSH2 0xE5F PUSH2 0x3F8C JUMP JUMPDEST DUP1 ISZERO PUSH2 0x129E JUMPI PUSH2 0xED2 SWAP3 PUSH2 0xECA SWAP2 PUSH2 0xE7D PUSH2 0x7D0 PUSH1 0x44 CALLDATALOAD GT ISZERO PUSH2 0x3E8B JUMP JUMPDEST PUSH1 0x2 SLOAD PUSH1 0x40 MLOAD PUSH4 0x23B872DD PUSH1 0xE0 SHL PUSH1 0x20 DUP3 ADD MSTORE CALLER PUSH1 0x24 DUP3 ADD MSTORE ADDRESS PUSH1 0x44 DUP3 ADD MSTORE PUSH5 0xE8D4A51000 PUSH1 0x64 DUP1 DUP4 ADD SWAP2 SWAP1 SWAP2 MSTORE DUP2 MSTORE PUSH2 0xEC3 SWAP2 PUSH1 0x1 PUSH1 0x1 PUSH1 0xA0 SHL SUB AND PUSH2 0x55A DUP3 PUSH2 0x3967 JUMP JUMPDEST CALLDATASIZE SWAP2 PUSH2 0x3D79 JUMP JUMPDEST SWAP3 CALLDATASIZE SWAP2 PUSH2 0x3D79 JUMP JUMPDEST SWAP1 PUSH1 0x3 SLOAD SWAP1 PUSH2 0xEE0 DUP3 PUSH2 0x3C6D JUMP JUMPDEST PUSH1 0x3 SSTORE PUSH1 0x40 MLOAD SWAP3 PUSH2 0xEF0 DUP5 PUSH2 0x394B JUMP JUMPDEST DUP3 DUP5 MSTORE DUP2 PUSH1 0x20 DUP6 ADD MSTORE PUSH1 0x40 DUP5 ADD MSTORE CALLER PUSH1 0x60 DUP5 ADD MSTORE PUSH1 0x44 CALLDATALOAD PUSH1 0x80 DUP5 ADD MSTORE PUSH4 0x5F5E100 PUSH1 0xA0 DUP5 ADD MSTORE PUSH1 0x0 PUSH1 0xC0 DUP5 ADD MSTORE PUSH1 0x0 PUSH1 0xE0 DUP5 ADD MSTORE PUSH1 0x0 PUSH2 0x100 DUP5 ADD MSTORE PUSH1 0x0 PUSH2 0x120 DUP5 ADD MSTORE TIMESTAMP PUSH2 0x140 DUP5 ADD MSTORE DUP2 PUSH1 0x0 MSTORE PUSH1 0x8 PUSH1 0x20 MSTORE PUSH1 0x40 PUSH1 0x0 KECCAK256 DUP4 MLOAD DUP2 SSTORE PUSH1 0x20 DUP5 ADD MLOAD DUP1 MLOAD SWAP1 PUSH1 0x1 PUSH1 0x1 PUSH1 0x40 SHL SUB DUP3 GT PUSH2 0x11B8 JUMPI DUP2 SWAP1 PUSH2 0xF72 PUSH1 0x1 DUP6 ADD SLOAD PUSH2 0x38BF JUMP JUMPDEST PUSH1 0x1F DUP2 GT PUSH2 0x124B JUMPI JUMPDEST POP PUSH1 0x20 SWAP1 PUSH1 0x1F DUP4 GT PUSH1 0x1 EQ PUSH2 0x11D9 JUMPI PUSH1 0x0 SWAP3 PUSH2 0x11CE JUMPI JUMPDEST POP POP DUP2 PUSH1 0x1 SHL SWAP2 PUSH1 0x0 NOT SWAP1 PUSH1 0x3 SHL SHR NOT AND OR PUSH1 0x1 DUP3 ADD SSTORE JUMPDEST PUSH1 0x40 DUP5 ADD MLOAD DUP1 MLOAD SWAP1 PUSH1 0x1 PUSH1 0x1 PUSH1 0x40 SHL SUB DUP3 GT PUSH2 0x11B8 JUMPI DUP2 SWAP1 PUSH2 0xFCF PUSH1 0x2 DUP6 ADD SLOAD PUSH2 0x38BF JUMP JUMPDEST PUSH1 0x1F DUP2 GT PUSH2 0x1165 JUMPI JUMPDEST POP PUSH1 0x20 SWAP1 PUSH1 0x1F DUP4 GT PUSH1 0x1 EQ PUSH2 0x10F3 JUMPI PUSH1 0x0 SWAP3 PUSH2 0x10E8 JUMPI JUMPDEST POP POP DUP2 PUSH1 0x1 SHL SWAP2 PUSH1 0x0 NOT SWAP1 PUSH1 0x3 SHL SHR NOT AND OR PUSH1 0x2 DUP3 ADD SSTORE JUMPDEST PUSH1 0x3 DUP2 ADD PUSH1 0x1 DUP1 PUSH1 0xA0 SHL SUB PUSH1 0x60 DUP7 ADD MLOAD AND PUSH1 0x1 PUSH1 0x1 PUSH1 0x60 SHL SUB PUSH1 0xA0 SHL DUP3 SLOAD AND OR SWAP1 SSTORE PUSH1 0x80 DUP5 ADD MLOAD PUSH1 0x4 DUP3 ADD SSTORE PUSH1 0xA0 DUP5 ADD MLOAD PUSH1 0x5 DUP3 ADD SSTORE PUSH1 0xC0 DUP5 ADD MLOAD PUSH1 0x6 DUP3 ADD SSTORE PUSH1 0xE0 DUP5 ADD MLOAD PUSH1 0x7 DUP3 ADD SSTORE PUSH2 0x100 DUP5 ADD MLOAD PUSH1 0x8 DUP3 ADD SSTORE PUSH2 0x120 DUP5 ADD MLOAD SWAP4 PUSH1 0x3 DUP6 LT ISZERO PUSH2 0x5AB JUMPI PUSH2 0x140 PUSH1 0xA SWAP2 PUSH2 0x1081 PUSH1 0x20 SWAP8 PUSH1 0x9 DUP7 ADD PUSH2 0x3EC6 JUMP JUMPDEST ADD MLOAD SWAP2 ADD SSTORE DUP2 PUSH1 0x0 MSTORE PUSH1 0x7 DUP4 MSTORE PUSH1 0x2 PUSH1 0x40 PUSH1 0x0 KECCAK256 SSTORE DUP2 PUSH32 0x8E46DCAB88334408205DFDFF058DE646A02AB7FDDB35B9923E924E49CE505C30 PUSH2 0x10CD PUSH1 0x40 MLOAD SWAP4 PUSH1 0x40 DUP6 MSTORE PUSH1 0x40 DUP6 ADD SWAP1 PUSH2 0x3872 JUMP JUMPDEST SWAP3 PUSH1 0x44 CALLDATALOAD DUP7 DUP3 ADD MSTORE DUP1 CALLER SWAP5 SUB SWAP1 LOG3 PUSH1 0x1 PUSH1 0x0 SSTORE PUSH1 0x40 MLOAD SWAP1 DUP2 MSTORE RETURN JUMPDEST ADD MLOAD SWAP1 POP DUP7 DUP1 PUSH2 0xFEF JUMP JUMPDEST SWAP3 POP PUSH1 0x2 DUP5 ADD PUSH1 0x0 MSTORE PUSH1 0x20 PUSH1 0x0 KECCAK256 SWAP1 PUSH1 0x0 SWAP4 JUMPDEST PUSH1 0x1F NOT DUP5 AND DUP6 LT PUSH2 0x114A JUMPI PUSH1 0x1 SWAP5 POP DUP4 PUSH1 0x1F NOT DUP2 AND LT PUSH2 0x1131 JUMPI JUMPDEST POP POP POP DUP2 SHL ADD PUSH1 0x2 DUP3 ADD SSTORE PUSH2 0x1007 JUMP JUMPDEST ADD MLOAD PUSH1 0x0 NOT PUSH1 0xF8 DUP5 PUSH1 0x3 SHL AND SHR NOT AND SWAP1 SSTORE DUP7 DUP1 DUP1 PUSH2 0x1121 JUMP JUMPDEST DUP2 DUP2 ADD MLOAD DUP4 SSTORE PUSH1 0x20 SWAP5 DUP6 ADD SWAP5 PUSH1 0x1 SWAP1 SWAP4 ADD SWAP3 SWAP1 SWAP2 ADD SWAP1 PUSH2 0x1106 JUMP JUMPDEST SWAP1 SWAP2 POP PUSH1 0x2 DUP5 ADD PUSH1 0x0 MSTORE PUSH1 0x20 PUSH1 0x0 KECCAK256 PUSH1 0x1F DUP5 ADD PUSH1 0x5 SHR DUP2 ADD PUSH1 0x20 DUP6 LT PUSH2 0x11B1 JUMPI JUMPDEST SWAP1 DUP5 SWAP4 SWAP3 SWAP2 JUMPDEST PUSH1 0x1F DUP4 ADD PUSH1 0x5 SHR DUP3 ADD DUP2 LT PUSH2 0x11A2 JUMPI POP POP PUSH2 0xFD8 JUMP JUMPDEST PUSH1 0x0 DUP2 SSTORE DUP6 SWAP5 POP PUSH1 0x1 ADD PUSH2 0x118C JUMP JUMPDEST POP DUP1 PUSH2 0x1186 JUMP JUMPDEST PUSH4 0x4E487B71 PUSH1 0xE0 SHL PUSH1 0x0 MSTORE PUSH1 0x41 PUSH1 0x4 MSTORE PUSH1 0x24 PUSH1 0x0 REVERT JUMPDEST ADD MLOAD SWAP1 POP DUP7 DUP1 PUSH2 0xF92 JUMP JUMPDEST SWAP3 POP PUSH1 0x1 DUP5 ADD PUSH1 0x0 MSTORE PUSH1 0x20 PUSH1 0x0 KECCAK256 SWAP1 PUSH1 0x0 SWAP4 JUMPDEST PUSH1 0x1F NOT DUP5 AND DUP6 LT PUSH2 0x1230 JUMPI PUSH1 0x1 SWAP5 POP DUP4 PUSH1 0x1F NOT DUP2 AND LT PUSH2 0x1217 JUMPI JUMPDEST POP POP POP DUP2 SHL ADD PUSH1 0x1 DUP3 ADD SSTORE PUSH2 0xFAA JUMP JUMPDEST ADD MLOAD PUSH1 0x0 NOT PUSH1 0xF8 DUP5 PUSH1 0x3 SHL AND SHR NOT AND SWAP1 SSTORE DUP7 DUP1 DUP1 PUSH2 0x1207 JUMP JUMPDEST DUP2 DUP2 ADD MLOAD DUP4 SSTORE PUSH1 0x20 SWAP5 DUP6 ADD SWAP5 PUSH1 0x1 SWAP1 SWAP4 ADD SWAP3 SWAP1 SWAP2 ADD SWAP1 PUSH2 0x11EC JUMP JUMPDEST SWAP1 SWAP2 POP PUSH1 0x1 DUP5 ADD PUSH1 0x0 MSTORE PUSH1 0x20 PUSH1 0x0 KECCAK256 PUSH1 0x1F DUP5 ADD PUSH1 0x5 SHR DUP2 ADD PUSH1 0x20 DUP6 LT PUSH2 0x1297 JUMPI JUMPDEST SWAP1 DUP5 SWAP4 SWAP3 SWAP2 JUMPDEST PUSH1 0x1F DUP4 ADD PUSH1 0x5 SHR DUP3 ADD DUP2 LT PUSH2 0x1288 JUMPI POP POP PUSH2 0xF7B JUMP JUMPDEST PUSH1 0x0 DUP2 SSTORE DUP6 SWAP5 POP PUSH1 0x1 ADD PUSH2 0x1272 JUMP JUMPDEST POP DUP1 PUSH2 0x126C JUMP JUMPDEST PUSH1 0x40 MLOAD PUSH3 0x461BCD PUSH1 0xE5 SHL DUP2 MSTORE PUSH1 0x20 PUSH1 0x4 DUP3 ADD MSTORE PUSH1 0xA PUSH1 0x24 DUP3 ADD MSTORE PUSH10 0x456D707479206E616D65 PUSH1 0xB0 SHL PUSH1 0x44 DUP3 ADD MSTORE PUSH1 0x64 SWAP1 REVERT JUMPDEST CALLVALUE PUSH2 0x305 JUMPI PUSH1 0x0 CALLDATASIZE PUSH1 0x3 NOT ADD SLT PUSH2 0x305 JUMPI PUSH1 0x20 PUSH1 0x3 SLOAD PUSH1 0x40 MLOAD SWAP1 DUP2 MSTORE RETURN JUMPDEST CALLVALUE PUSH2 0x305 JUMPI PUSH1 0x40 CALLDATASIZE PUSH1 0x3 NOT ADD SLT PUSH2 0x305 JUMPI PUSH2 0x1307 PUSH2 0x381C JUMP JUMPDEST PUSH1 0x4 CALLDATALOAD PUSH1 0x0 MSTORE PUSH1 0xD PUSH1 0x20 MSTORE PUSH1 0x40 PUSH1 0x0 KECCAK256 SWAP1 PUSH1 0x1 DUP1 PUSH1 0xA0 SHL SUB AND PUSH1 0x0 MSTORE PUSH1 0x20 MSTORE PUSH1 0x20 PUSH1 0xFF PUSH1 0x40 PUSH1 0x0 KECCAK256 SLOAD AND PUSH1 0x40 MLOAD SWAP1 ISZERO ISZERO DUP2 MSTORE RETURN JUMPDEST CALLVALUE PUSH2 0x305 JUMPI PUSH1 0x0 CALLDATASIZE PUSH1 0x3 NOT ADD SLT PUSH2 0x305 JUMPI PUSH1 0x1 SLOAD PUSH1 0x40 MLOAD PUSH1 0x1 PUSH1 0x1 PUSH1 0xA0 SHL SUB SWAP1 SWAP2 AND DUP2 MSTORE PUSH1 0x20 SWAP1 RETURN JUMPDEST CALLVALUE PUSH2 0x305 JUMPI PUSH1 0x20 CALLDATASIZE PUSH1 0x3 NOT ADD SLT PUSH2 0x305 JUMPI PUSH1 0x4 CALLDATALOAD PUSH1 0x0 SWAP1 DUP2 MSTORE PUSH1 0x9 PUSH1 0x20 MSTORE PUSH1 0x40 SWAP1 KECCAK256 DUP1 SLOAD PUSH1 0x1 DUP3 ADD SLOAD PUSH1 0x2 DUP4 ADD SLOAD PUSH1 0x60 SWAP4 PUSH1 0x1 PUSH1 0x1 PUSH1 0xA0 SHL SUB SWAP2 DUP3 AND SWAP4 SWAP2 PUSH2 0x13AE PUSH1 0x3 DUP4 ADD PUSH2 0x39BE JUMP JUMPDEST SWAP4 PUSH1 0x4 DUP4 ADD SLOAD SWAP5 PUSH1 0x5 DUP5 ADD SLOAD PUSH1 0x6 DUP6 ADD SLOAD PUSH1 0x7 DUP7 ADD SLOAD SWAP2 PUSH2 0x1403 PUSH1 0x8 DUP9 ADD SLOAD SWAP5 PUSH1 0x9 DUP10 ADD SLOAD SWAP7 PUSH1 0xB PUSH1 0xA DUP12 ADD SLOAD SWAP11 ADD SLOAD SWAP11 PUSH1 0x40 MLOAD SWAP15 DUP16 SWAP15 DUP16 SWAP1 PUSH2 0x1A0 SWAP5 DUP6 SWAP5 DUP4 MSTORE PUSH1 0x20 DUP4 ADD MSTORE PUSH1 0x40 DUP3 ADD MSTORE ADD MSTORE DUP13 ADD SWAP1 PUSH2 0x3872 JUMP JUMPDEST SWAP9 PUSH1 0x80 DUP12 ADD MSTORE PUSH1 0xA0 DUP11 ADD MSTORE PUSH1 0xC0 DUP10 ADD MSTORE PUSH1 0xE0 DUP9 ADD MSTORE PUSH2 0x100 DUP8 ADD MSTORE PUSH2 0x142F PUSH2 0x120 DUP8 ADD PUSH1 0xFF DUP4 AND PUSH2 0x38B2 JUMP JUMPDEST PUSH1 0x8 SHR AND PUSH2 0x140 DUP6 ADD MSTORE PUSH2 0x160 DUP5 ADD MSTORE PUSH2 0x180 DUP4 ADD MSTORE SUB SWAP1 RETURN JUMPDEST CALLVALUE PUSH2 0x305 JUMPI PUSH1 0x40 CALLDATASIZE PUSH1 0x3 NOT ADD SLT PUSH2 0x305 JUMPI PUSH1 0x24 CALLDATALOAD PUSH1 0x1 PUSH1 0x1 PUSH1 0x40 SHL SUB DUP2 GT PUSH2 0x305 JUMPI PUSH2 0x1479 SWAP1 CALLDATASIZE SWAP1 PUSH1 0x4 ADD PUSH2 0x3AA2 JUMP JUMPDEST PUSH2 0x1481 PUSH2 0x3F36 JUMP JUMPDEST PUSH1 0x4 CALLDATALOAD PUSH1 0x0 MSTORE PUSH1 0x9 PUSH1 0x20 MSTORE PUSH1 0x40 PUSH1 0x0 KECCAK256 PUSH1 0xFF PUSH1 0x9 DUP3 ADD SLOAD AND PUSH1 0x6 DUP2 LT ISZERO SWAP1 DUP2 PUSH2 0x5AB JUMPI DUP1 ISZERO SWAP2 DUP3 ISZERO PUSH2 0x18E1 JUMPI JUMPDEST DUP3 ISZERO PUSH2 0x18D0 JUMPI JUMPDEST POP POP ISZERO PUSH2 0x189B JUMPI PUSH1 0x8 DUP2 ADD SLOAD TIMESTAMP LT ISZERO PUSH2 0x1867 JUMPI PUSH1 0x1 DUP2 ADD SLOAD PUSH1 0x0 MSTORE PUSH1 0xD PUSH1 0x20 MSTORE PUSH1 0x40 PUSH1 0x0 KECCAK256 CALLER PUSH1 0x0 MSTORE PUSH1 0x20 MSTORE PUSH1 0xFF PUSH1 0x40 PUSH1 0x0 KECCAK256 SLOAD AND ISZERO PUSH2 0x1822 JUMPI PUSH1 0x4 CALLDATALOAD PUSH1 0x0 MSTORE PUSH1 0xF PUSH1 0x20 MSTORE PUSH1 0x40 PUSH1 0x0 KECCAK256 CALLER PUSH1 0x0 MSTORE PUSH1 0x20 MSTORE PUSH1 0xFF PUSH1 0x40 PUSH1 0x0 KECCAK256 SLOAD AND PUSH2 0x17DD JUMPI PUSH1 0x4 CALLDATALOAD PUSH1 0x0 MSTORE PUSH1 0xF PUSH1 0x20 MSTORE PUSH1 0x40 PUSH1 0x0 KECCAK256 CALLER PUSH1 0x0 MSTORE PUSH1 0x20 MSTORE PUSH1 0x40 PUSH1 0x0 KECCAK256 PUSH1 0x1 PUSH1 0xFF NOT DUP3 SLOAD AND OR SWAP1 SSTORE PUSH1 0x4 CALLDATALOAD PUSH1 0x0 MSTORE PUSH1 0xA PUSH1 0x20 MSTORE PUSH1 0x40 PUSH1 0x0 KECCAK256 PUSH1 0x40 MLOAD SWAP1 PUSH2 0x1557 DUP3 PUSH2 0x38F9 JUMP JUMPDEST CALLER DUP3 MSTORE PUSH2 0x1565 CALLDATASIZE DUP6 DUP8 PUSH2 0x3D79 JUMP JUMPDEST PUSH1 0x20 DUP4 ADD MSTORE PUSH1 0x0 PUSH1 0x40 DUP4 ADD MSTORE PUSH1 0x0 PUSH1 0x60 DUP4 ADD MSTORE TIMESTAMP PUSH1 0x80 DUP4 ADD MSTORE PUSH1 0x0 PUSH1 0xA0 DUP4 ADD MSTORE DUP1 SLOAD PUSH1 0x1 PUSH1 0x40 SHL DUP2 LT ISZERO PUSH2 0x11B8 JUMPI PUSH2 0x15A2 SWAP2 PUSH1 0x1 DUP3 ADD DUP2 SSTORE PUSH2 0x3A70 JUMP JUMPDEST SWAP2 SWAP1 SWAP2 PUSH2 0x17C7 JUMPI DUP1 MLOAD DUP3 SLOAD PUSH1 0x1 PUSH1 0x1 PUSH1 0xA0 SHL SUB NOT AND PUSH1 0x1 PUSH1 0x1 PUSH1 0xA0 SHL SUB SWAP2 SWAP1 SWAP2 AND OR DUP3 SSTORE PUSH1 0x20 DUP2 ADD MLOAD DUP1 MLOAD SWAP1 PUSH1 0x1 PUSH1 0x1 PUSH1 0x40 SHL SUB DUP3 GT PUSH2 0x11B8 JUMPI PUSH2 0x15E9 PUSH1 0x1 DUP6 ADD SLOAD PUSH2 0x38BF JUMP JUMPDEST PUSH1 0x1F DUP2 GT PUSH2 0x1780 JUMPI JUMPDEST POP PUSH1 0x20 SWAP1 PUSH1 0x1F DUP4 GT PUSH1 0x1 EQ PUSH2 0x170B JUMPI SWAP2 DUP1 PUSH1 0x5 SWAP5 SWAP3 PUSH1 0xA0 SWAP5 PUSH1 0x0 SWAP3 PUSH2 0x1700 JUMPI JUMPDEST POP POP DUP2 PUSH1 0x1 SHL SWAP2 PUSH1 0x0 NOT SWAP1 PUSH1 0x3 SHL SHR NOT AND OR PUSH1 0x1 DUP6 ADD SSTORE JUMPDEST PUSH1 0x40 DUP2 ADD MLOAD PUSH1 0x2 DUP6 ADD SSTORE PUSH2 0x1653 PUSH1 0x60 DUP3 ADD MLOAD ISZERO ISZERO PUSH1 0x3 DUP7 ADD SWAP1 PUSH1 0xFF DUP1 NOT DUP4 SLOAD AND SWAP2 ISZERO ISZERO AND OR SWAP1 SSTORE JUMP JUMPDEST PUSH1 0x80 DUP2 ADD MLOAD PUSH1 0x4 DUP6 ADD SSTORE ADD MLOAD SWAP2 ADD SSTORE PUSH1 0x9 DUP2 ADD SLOAD PUSH1 0xFF DUP2 AND PUSH1 0x6 DUP2 LT ISZERO PUSH2 0x5AB JUMPI DUP1 ISZERO SWAP1 DUP2 ISZERO PUSH2 0x16F5 JUMPI JUMPDEST POP PUSH2 0x16E1 JUMPI JUMPDEST POP POP DUP1 PUSH1 0x40 MLOAD SWAP3 PUSH1 0x20 DUP5 MSTORE DUP2 PUSH1 0x20 DUP6 ADD MSTORE PUSH1 0x40 DUP5 ADD CALLDATACOPY PUSH1 0x0 PUSH1 0x40 DUP3 DUP5 ADD ADD MSTORE PUSH32 0xA3DCF7CEBCC4CF0937F4F95D95392671977BA143B4FF236240650322A106E8DC CALLER SWAP3 PUSH1 0x40 DUP2 PUSH1 0x4 CALLDATALOAD SWAP5 PUSH1 0x1F DUP1 NOT SWAP2 ADD AND DUP2 ADD SUB ADD SWAP1 LOG3 PUSH1 0x1 PUSH1 0x0 SSTORE STOP JUMPDEST PUSH1 0x2 PUSH1 0x9 SWAP2 PUSH1 0xFF NOT AND OR SWAP2 ADD SSTORE DUP3 DUP1 PUSH2 0x1684 JUMP JUMPDEST PUSH1 0x1 SWAP2 POP EQ DUP6 PUSH2 0x167E JUMP JUMPDEST ADD MLOAD SWAP1 POP DUP10 DUP1 PUSH2 0x1612 JUMP JUMPDEST SWAP1 PUSH1 0x1 DUP6 ADD PUSH1 0x0 MSTORE PUSH1 0x20 PUSH1 0x0 KECCAK256 SWAP2 PUSH1 0x0 JUMPDEST PUSH1 0x1F NOT DUP6 AND DUP2 LT PUSH2 0x1768 JUMPI POP SWAP3 PUSH1 0x5 SWAP5 SWAP3 PUSH1 0x1 SWAP3 PUSH1 0xA0 SWAP6 DUP4 PUSH1 0x1F NOT DUP2 AND LT PUSH2 0x174F JUMPI JUMPDEST POP POP POP DUP2 SHL ADD PUSH1 0x1 DUP6 ADD SSTORE PUSH2 0x162A JUMP JUMPDEST ADD MLOAD PUSH1 0x0 NOT PUSH1 0xF8 DUP5 PUSH1 0x3 SHL AND SHR NOT AND SWAP1 SSTORE DUP10 DUP1 DUP1 PUSH2 0x173F JUMP JUMPDEST SWAP2 SWAP3 PUSH1 0x20 PUSH1 0x1 DUP2 SWAP3 DUP7 DUP6 ADD MLOAD DUP2 SSTORE ADD SWAP5 ADD SWAP3 ADD PUSH2 0x171C JUMP JUMPDEST PUSH1 0x1 DUP6 ADD PUSH1 0x0 MSTORE PUSH1 0x20 PUSH1 0x0 KECCAK256 PUSH1 0x1F DUP5 ADD PUSH1 0x5 SHR DUP2 ADD PUSH1 0x20 DUP6 LT PUSH2 0x17C0 JUMPI JUMPDEST PUSH1 0x1F DUP4 ADD PUSH1 0x5 SHR DUP3 ADD DUP2 LT PUSH2 0x17B4 JUMPI POP POP PUSH2 0x15F2 JUMP JUMPDEST PUSH1 0x0 DUP2 SSTORE PUSH1 0x1 ADD PUSH2 0x179E JUMP JUMPDEST POP DUP1 PUSH2 0x179E JUMP JUMPDEST PUSH4 0x4E487B71 PUSH1 0xE0 SHL PUSH1 0x0 MSTORE PUSH1 0x0 PUSH1 0x4 MSTORE PUSH1 0x24 PUSH1 0x0 REVERT JUMPDEST PUSH1 0x40 MLOAD PUSH3 0x461BCD PUSH1 0xE5 SHL DUP2 MSTORE PUSH1 0x20 PUSH1 0x4 DUP3 ADD MSTORE PUSH1 0x17 PUSH1 0x24 DUP3 ADD MSTORE PUSH32 0x4D696E657220616C7265616479207375626D6974746564000000000000000000 PUSH1 0x44 DUP3 ADD MSTORE PUSH1 0x64 SWAP1 REVERT JUMPDEST PUSH1 0x40 MLOAD PUSH3 0x461BCD PUSH1 0xE5 SHL DUP2 MSTORE PUSH1 0x20 PUSH1 0x4 DUP3 ADD MSTORE PUSH1 0x18 PUSH1 0x24 DUP3 ADD MSTORE PUSH32 0x4E6F74207265676973746572656420696E207375626E65740000000000000000 PUSH1 0x44 DUP3 ADD MSTORE PUSH1 0x64 SWAP1 REVERT JUMPDEST PUSH1 0x40 MLOAD PUSH3 0x461BCD PUSH1 0xE5 SHL DUP2 MSTORE PUSH1 0x20 PUSH1 0x4 DUP3 ADD MSTORE PUSH1 0xC PUSH1 0x24 DUP3 ADD MSTORE PUSH12 0x15185CDAC8195E1C1A5C9959 PUSH1 0xA2 SHL PUSH1 0x44 DUP3 ADD MSTORE PUSH1 0x64 SWAP1 REVERT JUMPDEST PUSH1 0x40 MLOAD PUSH3 0x461BCD PUSH1 0xE5 SHL DUP2 MSTORE PUSH1 0x20 PUSH1 0x4 DUP3 ADD MSTORE PUSH1 0xD PUSH1 0x24 DUP3 ADD MSTORE PUSH13 0x10D85B9B9BDD081CDD589B5A5D PUSH1 0x9A SHL PUSH1 0x44 DUP3 ADD MSTORE PUSH1 0x64 SWAP1 REVERT JUMPDEST SWAP1 SWAP2 POP PUSH2 0x5AB JUMPI PUSH1 0x2 EQ DUP5 DUP1 PUSH2 0x14B5 JUMP JUMPDEST POP PUSH1 0x1 DUP2 EQ SWAP2 POP PUSH1 0x0 PUSH2 0x14AE JUMP JUMPDEST CALLVALUE PUSH2 0x305 JUMPI PUSH1 0x20 DUP1 PUSH1 0x3 NOT CALLDATASIZE ADD SLT PUSH2 0x305 JUMPI PUSH1 0x4 CALLDATALOAD SWAP1 PUSH2 0x190D PUSH2 0x3F36 JUMP JUMPDEST DUP2 PUSH1 0x0 MSTORE PUSH1 0x9 DUP2 MSTORE PUSH1 0x40 PUSH1 0x0 KECCAK256 SWAP1 PUSH1 0x9 DUP3 ADD SWAP1 DUP2 SLOAD SWAP2 PUSH1 0xFF DUP4 AND PUSH1 0x6 DUP2 LT ISZERO PUSH2 0x5AB JUMPI PUSH1 0x2 SUB PUSH2 0x1AAA JUMPI PUSH1 0x1 PUSH1 0x1 PUSH1 0xA0 SHL SUB PUSH1 0x8 DUP5 SWAP1 SHR DUP2 AND SWAP4 SWAP1 DUP5 ISZERO PUSH2 0x1A79 JUMPI DUP7 SWAP3 PUSH2 0x1A34 PUSH32 0xAE64F0A069112683796FC01E7D04EA7E255A3CD070A7DCE992FDCDECBC1E6D52 SWAP4 DUP9 SWAP4 PUSH1 0x1 DUP6 ADD SLOAD SWAP8 PUSH1 0x4 DUP7 ADD SLOAD SWAP5 PUSH1 0x3 PUSH1 0x7 PUSH1 0x6 PUSH1 0x5 DUP11 ADD SLOAD SWAP10 ADD SLOAD SWAP14 ADD SLOAD SWAP5 PUSH1 0xFF NOT AND OR SWAP1 SSTORE DUP9 PUSH1 0x0 MSTORE PUSH1 0x8 DUP2 MSTORE PUSH1 0x40 PUSH1 0x0 KECCAK256 SWAP2 PUSH1 0x6 DUP4 ADD PUSH2 0x19B9 DUP8 DUP3 SLOAD PUSH2 0x3C60 JUMP JUMPDEST SWAP1 SSTORE PUSH1 0x7 DUP4 ADD PUSH2 0x19C9 DUP2 SLOAD PUSH2 0x3C6D JUMP JUMPDEST SWAP1 SSTORE PUSH2 0x19D7 DUP8 PUSH1 0x6 SLOAD PUSH2 0x3C60 JUMP JUMPDEST PUSH1 0x6 SSTORE DUP11 PUSH1 0x0 MSTORE PUSH1 0x14 DUP3 MSTORE PUSH1 0x40 PUSH1 0x0 KECCAK256 PUSH2 0x19F2 DUP8 DUP3 SLOAD PUSH2 0x3C60 JUMP JUMPDEST SWAP1 SSTORE DUP11 PUSH1 0x0 MSTORE PUSH1 0x15 DUP3 MSTORE PUSH1 0x40 PUSH1 0x0 KECCAK256 PUSH2 0x1A0C DUP8 DUP3 SLOAD PUSH2 0x3C60 JUMP JUMPDEST SWAP1 SSTORE DUP4 PUSH2 0x1A53 JUMPI JUMPDEST POP POP POP PUSH1 0x40 MLOAD SWAP4 DUP5 SWAP4 DUP5 PUSH1 0x40 SWAP2 SWAP5 SWAP4 SWAP3 PUSH1 0x60 DUP3 ADD SWAP6 DUP3 MSTORE PUSH1 0x20 DUP3 ADD MSTORE ADD MSTORE JUMP JUMPDEST SUB SWAP1 LOG4 DUP1 PUSH2 0x1A43 JUMPI PUSH1 0x1 PUSH1 0x0 SSTORE STOP JUMPDEST PUSH2 0x1A4C SWAP2 PUSH2 0x4226 JUMP JUMPDEST DUP1 DUP1 PUSH2 0x55F JUMP JUMPDEST PUSH1 0x3 PUSH1 0x15 SWAP4 ADD SLOAD AND PUSH1 0x0 MSTORE MSTORE PUSH1 0x40 PUSH1 0x0 KECCAK256 PUSH2 0x1A6F DUP3 DUP3 SLOAD PUSH2 0x3C60 JUMP JUMPDEST SWAP1 SSTORE DUP11 DUP1 DUP1 PUSH2 0x1A14 JUMP JUMPDEST PUSH1 0x40 MLOAD PUSH3 0x461BCD PUSH1 0xE5 SHL DUP2 MSTORE PUSH1 0x4 DUP2 ADD DUP6 SWAP1 MSTORE PUSH1 0x9 PUSH1 0x24 DUP3 ADD MSTORE PUSH9 0x2737903BB4B73732B9 PUSH1 0xB9 SHL PUSH1 0x44 DUP3 ADD MSTORE PUSH1 0x64 SWAP1 REVERT JUMPDEST PUSH1 0x40 MLOAD PUSH3 0x461BCD PUSH1 0xE5 SHL DUP2 MSTORE PUSH1 0x4 DUP2 ADD DUP4 SWAP1 MSTORE PUSH1 0x9 PUSH1 0x24 DUP3 ADD MSTORE PUSH9 0x4E6F74207265616479 PUSH1 0xB8 SHL PUSH1 0x44 DUP3 ADD MSTORE PUSH1 0x64 SWAP1 REVERT JUMPDEST CALLVALUE PUSH2 0x305 JUMPI PUSH1 0x0 CALLDATASIZE PUSH1 0x3 NOT ADD SLT PUSH2 0x305 JUMPI PUSH2 0x1AF4 PUSH2 0x3EDE JUMP JUMPDEST PUSH1 0x6 SLOAD DUP1 ISZERO PUSH2 0x1B49 JUMPI PUSH2 0x1B47 SWAP1 PUSH1 0x0 PUSH1 0x6 SSTORE PUSH1 0x1 DUP1 PUSH1 0xA0 SHL SUB DUP1 PUSH1 0x5 SLOAD AND SWAP1 DUP2 PUSH32 0xA087657E3D85162090FFD700FBFDF5070D816F63AA5DA00063F6FFD369C8A6DB PUSH1 0x20 PUSH1 0x40 MLOAD DUP7 DUP2 MSTORE LOG2 PUSH1 0x2 SLOAD AND PUSH2 0x41ED JUMP JUMPDEST STOP JUMPDEST PUSH1 0x40 MLOAD PUSH3 0x461BCD PUSH1 0xE5 SHL DUP2 MSTORE PUSH1 0x20 PUSH1 0x4 DUP3 ADD MSTORE PUSH1 0x7 PUSH1 0x24 DUP3 ADD MSTORE PUSH7 0x4E6F2066656573 PUSH1 0xC8 SHL PUSH1 0x44 DUP3 ADD MSTORE PUSH1 0x64 SWAP1 REVERT JUMPDEST CALLVALUE PUSH2 0x305 JUMPI PUSH1 0x0 CALLDATASIZE PUSH1 0x3 NOT ADD SLT PUSH2 0x305 JUMPI PUSH1 0x5 SLOAD PUSH1 0x40 MLOAD PUSH1 0x1 PUSH1 0x1 PUSH1 0xA0 SHL SUB SWAP1 SWAP2 AND DUP2 MSTORE PUSH1 0x20 SWAP1 RETURN JUMPDEST CALLVALUE PUSH2 0x305 JUMPI PUSH2 0x1BAF CALLDATASIZE PUSH2 0x3848 JUMP JUMPDEST SWAP2 PUSH1 0x0 MSTORE PUSH1 0x11 PUSH1 0x20 MSTORE PUSH1 0x40 PUSH1 0x0 KECCAK256 SWAP1 PUSH1 0x0 MSTORE PUSH1 0x20 MSTORE PUSH1 0x40 PUSH1 0x0 KECCAK256 SWAP1 PUSH1 0x1 DUP1 PUSH1 0xA0 SHL SUB AND PUSH1 0x0 MSTORE PUSH1 0x20 MSTORE PUSH1 0x20 PUSH1 0xFF PUSH1 0x40 PUSH1 0x0 KECCAK256 SLOAD AND PUSH1 0x40 MLOAD SWAP1 ISZERO ISZERO DUP2 MSTORE RETURN JUMPDEST CALLVALUE PUSH2 0x305 JUMPI PUSH1 0x20 CALLDATASIZE PUSH1 0x3 NOT ADD SLT PUSH2 0x305 JUMPI PUSH1 0x4 CALLDATALOAD PUSH1 0x0 MSTORE PUSH1 0xA PUSH1 0x20 MSTORE PUSH1 0x20 PUSH1 0x40 PUSH1 0x0 KECCAK256 SLOAD PUSH1 0x40 MLOAD SWAP1 DUP2 MSTORE RETURN JUMPDEST CALLVALUE PUSH2 0x305 JUMPI PUSH1 0x60 CALLDATASIZE PUSH1 0x3 NOT ADD SLT PUSH2 0x305 JUMPI PUSH1 0x4 CALLDATALOAD PUSH1 0x24 CALLDATALOAD PUSH1 0x44 CALLDATALOAD PUSH1 0x3 DUP2 LT ISZERO PUSH2 0x305 JUMPI PUSH32 0xA2191EFE487E08892E9D1920150485AAF7591F089BDDE895929D692EA8C4E08A SWAP2 PUSH2 0x1CB7 PUSH1 0x40 SWAP3 DUP6 PUSH1 0x0 MSTORE PUSH1 0x8 PUSH1 0x20 MSTORE PUSH2 0x1CA8 DUP2 PUSH1 0x9 DUP7 PUSH1 0x0 KECCAK256 PUSH2 0x1C8E PUSH1 0x1 DUP1 PUSH1 0xA0 SHL SUB PUSH1 0x3 DUP4 ADD SLOAD AND CALLER EQ PUSH2 0x3E4C JUMP JUMPDEST PUSH2 0x1C9C PUSH2 0x7D0 DUP9 GT ISZERO PUSH2 0x3E8B JUMP JUMPDEST DUP7 PUSH1 0x4 DUP3 ADD SSTORE ADD PUSH2 0x3EC6 JUMP JUMPDEST DUP4 MLOAD SWAP3 DUP4 MSTORE PUSH1 0x20 DUP4 ADD SWAP1 PUSH2 0x3A63 JUMP JUMPDEST LOG2 STOP JUMPDEST CALLVALUE PUSH2 0x305 JUMPI PUSH2 0x1CC8 CALLDATASIZE PUSH2 0x3832 JUMP JUMPDEST SWAP1 PUSH1 0x0 MSTORE PUSH1 0x1A PUSH1 0x20 MSTORE PUSH1 0x40 PUSH1 0x0 KECCAK256 SWAP1 PUSH1 0x0 MSTORE PUSH1 0x20 MSTORE PUSH1 0x20 PUSH1 0x40 PUSH1 0x0 KECCAK256 SLOAD PUSH1 0x40 MLOAD SWAP1 DUP2 MSTORE RETURN JUMPDEST CALLVALUE PUSH2 0x305 JUMPI PUSH1 0x0 CALLDATASIZE PUSH1 0x3 NOT ADD SLT PUSH2 0x305 JUMPI PUSH2 0x1D06 PUSH2 0x3EDE JUMP JUMPDEST PUSH1 0x1 DUP1 SLOAD PUSH1 0x1 PUSH1 0x1 PUSH1 0xA0 SHL SUB NOT DUP2 AND SWAP1 SWAP2 SSTORE PUSH1 0x0 SWAP1 PUSH1 0x1 PUSH1 0x1 PUSH1 0xA0 SHL SUB AND PUSH32 0x8BE0079C531659141344CD1FD0A4F28419497F9722A3DAAFE3B4186F6B6457E0 DUP3 DUP1 LOG3 STOP JUMPDEST CALLVALUE PUSH2 0x305 JUMPI PUSH1 0x20 DUP1 PUSH1 0x3 NOT CALLDATASIZE ADD SLT PUSH2 0x305 JUMPI PUSH1 0x4 CALLDATALOAD SWAP1 DUP2 PUSH1 0x0 MSTORE PUSH1 0x8 DUP2 MSTORE PUSH1 0xFF PUSH1 0x9 PUSH1 0x40 PUSH1 0x0 KECCAK256 ADD SLOAD AND PUSH1 0x3 DUP2 LT ISZERO PUSH2 0x5AB JUMPI PUSH2 0x1D87 SWAP1 ISZERO PUSH2 0x3CEB JUMP JUMPDEST DUP2 PUSH1 0x0 MSTORE PUSH1 0xD DUP2 MSTORE PUSH1 0x40 PUSH1 0x0 KECCAK256 CALLER PUSH1 0x0 MSTORE DUP2 MSTORE PUSH1 0xFF PUSH1 0x40 PUSH1 0x0 KECCAK256 SLOAD AND PUSH2 0x1E28 JUMPI PUSH1 0x8 SWAP1 DUP3 PUSH1 0x0 MSTORE PUSH1 0xD DUP2 MSTORE PUSH1 0x40 PUSH1 0x0 KECCAK256 CALLER PUSH1 0x0 MSTORE DUP2 MSTORE PUSH1 0x40 PUSH1 0x0 KECCAK256 PUSH1 0x1 PUSH1 0xFF NOT DUP3 SLOAD AND OR SWAP1 SSTORE DUP3 PUSH1 0x0 MSTORE PUSH1 0xE DUP2 MSTORE PUSH1 0x40 PUSH1 0x0 KECCAK256 PUSH2 0x1DE4 DUP2 SLOAD PUSH2 0x3C6D JUMP JUMPDEST SWAP1 SSTORE DUP3 PUSH1 0x0 MSTORE MSTORE PUSH1 0x8 PUSH1 0x40 PUSH1 0x0 KECCAK256 ADD PUSH2 0x1DFD DUP2 SLOAD PUSH2 0x3C6D JUMP JUMPDEST SWAP1 SSTORE CALLER SWAP1 PUSH32 0xBAAE7A2BE0ECFA867D60FCDAE77877A3DDA7484C504290098D77F256415ABAB2 PUSH1 0x0 DUP1 LOG3 STOP JUMPDEST PUSH1 0x64 SWAP1 PUSH1 0x40 MLOAD SWAP1 PUSH3 0x461BCD PUSH1 0xE5 SHL DUP3 MSTORE PUSH1 0x4 DUP3 ADD MSTORE PUSH1 0x12 PUSH1 0x24 DUP3 ADD MSTORE PUSH18 0x105B1C9958591E481C9959DA5CDD195C9959 PUSH1 0x72 SHL PUSH1 0x44 DUP3 ADD MSTORE REVERT JUMPDEST CALLVALUE PUSH2 0x305 JUMPI PUSH1 0x40 CALLDATASIZE PUSH1 0x3 NOT ADD SLT PUSH2 0x305 JUMPI PUSH1 0x4 CALLDATALOAD PUSH2 0x1E7D PUSH2 0x381C JUMP JUMPDEST SWAP1 DUP1 PUSH1 0x0 MSTORE PUSH1 0xC PUSH1 0x20 PUSH1 0x8 DUP2 MSTORE PUSH1 0x1 DUP1 PUSH1 0xA0 SHL SUB DUP1 PUSH1 0x3 PUSH1 0x40 PUSH1 0x0 KECCAK256 ADD SLOAD AND CALLER EQ DUP1 ISZERO PUSH2 0x1F32 JUMPI JUMPDEST PUSH2 0x1EAE SWAP1 PUSH2 0x3B24 JUMP JUMPDEST DUP4 PUSH1 0x0 MSTORE PUSH1 0xB DUP3 MSTORE PUSH1 0x40 PUSH1 0x0 KECCAK256 SWAP5 AND SWAP4 DUP5 PUSH1 0x0 MSTORE DUP2 MSTORE PUSH2 0x1ED5 PUSH1 0xFF PUSH1 0x40 PUSH1 0x0 KECCAK256 SLOAD AND PUSH2 0x3BA2 JUMP JUMPDEST DUP3 PUSH1 0x0 MSTORE PUSH1 0xB DUP2 MSTORE PUSH1 0x40 PUSH1 0x0 KECCAK256 DUP5 PUSH1 0x0 MSTORE DUP2 MSTORE PUSH1 0x40 PUSH1 0x0 KECCAK256 PUSH1 0xFF NOT DUP2 SLOAD AND SWAP1 SSTORE DUP3 PUSH1 0x0 MSTORE MSTORE PUSH1 0x40 PUSH1 0x0 KECCAK256 PUSH2 0x1F09 DUP2 SLOAD PUSH2 0x3E3F JUMP JUMPDEST SWAP1 SSTORE PUSH32 0x7126BEF88D1149CCDFF9681ED5AECD3BA5AE70C96517551DE250AF09CEBD1A0B PUSH1 0x0 DUP1 LOG3 STOP JUMPDEST POP PUSH1 0x1 SLOAD DUP2 AND CALLER EQ PUSH2 0x1EA5 JUMP JUMPDEST CALLVALUE PUSH2 0x305 JUMPI PUSH1 0x80 CALLDATASIZE PUSH1 0x3 NOT ADD SLT PUSH2 0x305 JUMPI PUSH1 0x4 CALLDATALOAD PUSH1 0x24 SWAP1 DUP2 CALLDATALOAD PUSH1 0x44 SWAP1 DUP2 CALLDATALOAD SWAP2 PUSH1 0x64 DUP5 PUSH1 0x0 MSTORE PUSH1 0x20 SWAP1 PUSH1 0x9 DUP3 MSTORE PUSH1 0x40 PUSH1 0x0 KECCAK256 SWAP5 PUSH1 0x9 DUP7 ADD SWAP1 PUSH1 0xFF DUP3 SLOAD AND PUSH1 0x6 DUP2 LT ISZERO PUSH2 0x2385 JUMPI DUP1 PUSH1 0x2 PUSH2 0x1F99 SWAP3 EQ SWAP1 DUP2 ISZERO PUSH2 0x237A JUMPI POP PUSH2 0x3B61 JUMP JUMPDEST PUSH1 0x1 DUP8 ADD SWAP4 DUP5 SLOAD PUSH1 0x0 MSTORE PUSH1 0xB DUP2 MSTORE PUSH1 0x40 PUSH1 0x0 KECCAK256 CALLER PUSH1 0x0 MSTORE DUP2 MSTORE PUSH2 0x1FC3 PUSH1 0xFF PUSH1 0x40 PUSH1 0x0 KECCAK256 SLOAD AND PUSH2 0x3BA2 JUMP JUMPDEST DUP9 PUSH1 0x0 MSTORE PUSH1 0xA DUP2 MSTORE PUSH2 0x1FDB PUSH1 0x40 PUSH1 0x0 KECCAK256 SLOAD DUP9 LT PUSH2 0x3BE0 JUMP JUMPDEST PUSH2 0x1FE9 PUSH2 0x2710 DUP4 GT ISZERO PUSH2 0x3DB0 JUMP JUMPDEST DUP9 PUSH1 0x0 MSTORE PUSH1 0xA DUP2 MSTORE PUSH2 0x1FFF DUP8 PUSH1 0x40 PUSH1 0x0 KECCAK256 PUSH2 0x3A70 JUMP JUMPDEST POP SWAP4 PUSH1 0x3 DUP6 ADD SWAP7 PUSH2 0x2014 PUSH1 0xFF DUP10 SLOAD AND ISZERO PUSH2 0x3C1C JUMP JUMPDEST DUP11 PUSH1 0x0 MSTORE PUSH1 0x1A DUP4 MSTORE PUSH1 0x40 PUSH1 0x0 KECCAK256 DUP10 PUSH1 0x0 MSTORE DUP4 MSTORE PUSH2 0x2039 PUSH1 0x40 PUSH1 0x0 KECCAK256 SLOAD PUSH1 0x1B SLOAD SWAP1 PUSH2 0x3C60 JUMP JUMPDEST PUSH2 0x2045 PUSH1 0x1C SLOAD DUP3 PUSH2 0x3C60 JUMP JUMPDEST SWAP1 TIMESTAMP GT ISZERO PUSH2 0x2339 JUMPI TIMESTAMP GT PUSH2 0x2304 JUMPI DUP11 PUSH1 0x0 MSTORE PUSH1 0x17 DUP4 MSTORE PUSH1 0x40 PUSH1 0x0 KECCAK256 DUP10 PUSH1 0x0 MSTORE DUP4 MSTORE PUSH1 0x40 PUSH1 0x0 KECCAK256 CALLER PUSH1 0x0 MSTORE DUP4 MSTORE PUSH1 0x40 PUSH1 0x0 KECCAK256 SWAP2 DUP3 SLOAD SWAP2 DUP3 ISZERO PUSH2 0x22D1 JUMPI PUSH1 0xFF SWAP12 SWAP13 SWAP14 PUSH1 0x2 DUP6 ADD SWAP4 DUP5 SLOAD SWAP14 DUP15 AND PUSH2 0x229D JUMPI PUSH1 0x40 MLOAD DUP8 DUP2 ADD SWAP1 DUP10 DUP3 MSTORE DUP6 CALLDATALOAD PUSH1 0x40 DUP3 ADD MSTORE PUSH1 0x40 DUP2 MSTORE PUSH2 0x20B1 DUP2 PUSH2 0x3982 JUMP JUMPDEST MLOAD SWAP1 KECCAK256 SUB PUSH2 0x226D JUMPI POP POP POP PUSH1 0x3 PUSH1 0x7 SWAP4 SWAP3 DUP6 SWAP3 PUSH1 0x1 PUSH1 0xFF NOT DUP1 SWAP15 AND OR SWAP1 SSTORE ADD SSTORE DUP11 PUSH1 0x0 MSTORE PUSH1 0x19 DUP2 MSTORE PUSH1 0x40 PUSH1 0x0 KECCAK256 DUP9 PUSH1 0x0 MSTORE DUP2 MSTORE PUSH1 0x40 PUSH1 0x0 KECCAK256 PUSH2 0x20F3 DUP2 SLOAD PUSH2 0x3C6D JUMP JUMPDEST SWAP1 SSTORE DUP11 PUSH1 0x0 MSTORE PUSH1 0x10 DUP2 MSTORE PUSH1 0x40 PUSH1 0x0 KECCAK256 DUP9 PUSH1 0x0 MSTORE DUP2 MSTORE PUSH1 0x40 PUSH1 0x0 KECCAK256 CALLER PUSH1 0x0 MSTORE DUP2 MSTORE DUP3 PUSH1 0x40 PUSH1 0x0 KECCAK256 SSTORE DUP11 PUSH1 0x0 MSTORE PUSH1 0x11 DUP2 MSTORE PUSH1 0x40 PUSH1 0x0 KECCAK256 DUP9 PUSH1 0x0 MSTORE DUP2 MSTORE PUSH1 0x40 PUSH1 0x0 KECCAK256 CALLER PUSH1 0x0 MSTORE DUP2 MSTORE PUSH1 0x40 PUSH1 0x0 KECCAK256 PUSH1 0x1 DUP11 DUP3 SLOAD AND OR SWAP1 SSTORE DUP11 PUSH1 0x0 MSTORE PUSH1 0x12 DUP2 MSTORE PUSH1 0x40 PUSH1 0x0 KECCAK256 DUP9 PUSH1 0x0 MSTORE DUP2 MSTORE PUSH2 0x2167 CALLER PUSH1 0x40 PUSH1 0x0 KECCAK256 PUSH2 0x3E04 JUMP JUMPDEST PUSH1 0x5 DUP6 ADD SWAP6 PUSH2 0x2176 DUP8 SLOAD PUSH2 0x3C6D JUMP JUMPDEST SWAP4 DUP5 DUP9 SSTORE PUSH1 0x40 MLOAD SWAP1 DUP11 DUP3 MSTORE DUP4 DUP3 ADD MSTORE DUP13 PUSH32 0x23DEF086B3DC14DBD150F69D2E6AF648DFC789CDF251BA7D720FEECBC0625F85 PUSH1 0x40 CALLER SWAP4 LOG3 SLOAD PUSH1 0x0 MSTORE MSTORE PUSH1 0x40 PUSH1 0x0 KECCAK256 SLOAD DUP1 ISZERO PUSH2 0x2265 JUMPI JUMPDEST DUP2 LT ISZERO PUSH2 0x21C7 JUMPI STOP JUMPDEST PUSH32 0xFF2FC693BB2D4A09F21F0C403FCE5ECB4B5B0B57E81C7253DEB5386BB8A8AE77 SWAP8 PUSH2 0x784 SWAP6 PUSH1 0x1 PUSH2 0x21FC PUSH1 0xA SWAP5 DUP11 DUP15 PUSH2 0x4026 JUMP JUMPDEST SWAP10 DUP11 PUSH1 0x2 DUP9 ADD SSTORE DUP3 SLOAD AND OR SWAP1 SSTORE ADD SWAP2 DUP7 DUP4 SLOAD DUP2 GT PUSH2 0x2237 JUMPI JUMPDEST POP POP POP POP SLOAD PUSH1 0x40 MLOAD SWAP4 DUP5 SWAP4 DUP5 PUSH1 0x40 SWAP2 SWAP5 SWAP4 SWAP3 PUSH1 0x60 DUP3 ADD SWAP6 DUP3 MSTORE PUSH1 0x20 DUP3 ADD MSTORE ADD MSTORE JUMP JUMPDEST SWAP1 SWAP3 SSTORE SWAP1 SLOAD DUP2 SLOAD PUSH2 0x100 PUSH1 0x1 PUSH1 0xA8 SHL SUB NOT AND PUSH1 0x8 SWAP2 SWAP1 SWAP2 SHL PUSH2 0x100 PUSH1 0x1 PUSH1 0xA8 SHL SUB AND OR SWAP1 SSTORE DUP7 DUP1 DUP1 DUP7 PUSH2 0x2215 JUMP JUMPDEST POP PUSH1 0x2 PUSH2 0x21BE JUMP JUMPDEST DUP6 SWAP2 PUSH1 0xD PUSH13 0x90C2E6D040DAD2E6DAC2E8C6D PUSH1 0x9B SHL SWAP3 PUSH1 0x40 MLOAD SWAP5 PUSH3 0x461BCD PUSH1 0xE5 SHL DUP7 MSTORE PUSH1 0x4 DUP7 ADD MSTORE DUP5 ADD MSTORE DUP3 ADD MSTORE REVERT JUMPDEST POP DUP6 SWAP2 PUSH1 0x10 PUSH16 0x105B1C9958591E481C995D99585B1959 PUSH1 0x82 SHL SWAP3 PUSH1 0x40 MLOAD SWAP5 PUSH3 0x461BCD PUSH1 0xE5 SHL DUP7 MSTORE PUSH1 0x4 DUP7 ADD MSTORE DUP5 ADD MSTORE DUP3 ADD MSTORE REVERT JUMPDEST PUSH15 0x139BC818DBDB5B5A5D08199BDD5B99 PUSH1 0x8A SHL DUP6 SWAP2 DUP16 PUSH1 0xF SWAP1 PUSH1 0x40 MLOAD SWAP5 PUSH3 0x461BCD PUSH1 0xE5 SHL DUP7 MSTORE PUSH1 0x4 DUP7 ADD MSTORE DUP5 ADD MSTORE DUP3 ADD MSTORE REVERT JUMPDEST PUSH18 0x14995D99585B081C1A185CD948195B991959 PUSH1 0x72 SHL DUP4 SWAP2 PUSH1 0x12 DUP15 PUSH1 0x40 MLOAD SWAP5 PUSH3 0x461BCD PUSH1 0xE5 SHL DUP7 MSTORE PUSH1 0x4 DUP7 ADD MSTORE DUP5 ADD MSTORE DUP3 ADD MSTORE REVERT JUMPDEST POP PUSH32 0x436F6D6D6974207068617365206E6F7420656E64656420796574000000000000 DUP4 SWAP2 PUSH1 0x1A DUP15 PUSH1 0x40 MLOAD SWAP5 PUSH3 0x461BCD PUSH1 0xE5 SHL DUP7 MSTORE PUSH1 0x4 DUP7 ADD MSTORE DUP5 ADD MSTORE DUP3 ADD MSTORE REVERT JUMPDEST PUSH1 0x1 SWAP2 POP EQ DUP12 PUSH2 0x941 JUMP JUMPDEST DUP10 PUSH4 0x4E487B71 PUSH1 0xE0 SHL PUSH1 0x0 MSTORE PUSH1 0x21 PUSH1 0x4 MSTORE PUSH1 0x0 REVERT JUMPDEST PUSH2 0x37E6 JUMP JUMPDEST CALLVALUE PUSH2 0x305 JUMPI PUSH1 0x80 CALLDATASIZE PUSH1 0x3 NOT ADD SLT PUSH2 0x305 JUMPI PUSH1 0x24 CALLDATALOAD PUSH1 0x1 PUSH1 0x1 PUSH1 0x40 SHL SUB DUP2 GT PUSH2 0x305 JUMPI PUSH2 0x23CF SWAP1 CALLDATASIZE SWAP1 PUSH1 0x4 ADD PUSH2 0x3AA2 JUMP JUMPDEST PUSH2 0x23D7 PUSH2 0x3F36 JUMP JUMPDEST PUSH2 0x23DF PUSH2 0x3F8C JUMP JUMPDEST PUSH1 0x4 CALLDATALOAD PUSH1 0x0 MSTORE PUSH1 0x8 PUSH1 0x20 MSTORE PUSH1 0x40 PUSH1 0x0 KECCAK256 SWAP2 PUSH1 0xFF PUSH1 0x9 DUP5 ADD SLOAD AND PUSH1 0x3 DUP2 LT ISZERO PUSH2 0x5AB JUMPI PUSH2 0x240B SWAP1 ISZERO PUSH2 0x3CEB JUMP JUMPDEST PUSH1 0x5 DUP4 ADD SLOAD PUSH1 0x44 CALLDATALOAD LT PUSH2 0x27CD JUMPI PUSH1 0x64 CALLDATALOAD ISZERO ISZERO DUP1 PUSH2 0x27BE JUMPI JUMPDEST ISZERO PUSH2 0x2786 JUMPI PUSH2 0x1F4 DUP1 PUSH1 0x44 CALLDATALOAD MUL SWAP4 PUSH1 0x44 CALLDATALOAD ISZERO SWAP2 PUSH1 0x44 CALLDATALOAD DUP7 DIV EQ DUP3 OR ISZERO PUSH2 0x7E2 JUMPI PUSH2 0x2710 SWAP1 PUSH2 0x5DC SWAP3 DUP4 PUSH1 0x44 CALLDATALOAD MUL SWAP4 PUSH1 0x44 CALLDATALOAD DUP6 DIV EQ OR ISZERO PUSH2 0x7E2 JUMPI PUSH2 0x246E PUSH1 0x4 DUP4 SWAP3 ADD SLOAD PUSH1 0x44 CALLDATALOAD PUSH2 0x3D2B JUMP JUMPDEST DIV SWAP2 PUSH2 0x24CD PUSH2 0x2490 DUP5 PUSH2 0x248B DUP6 DUP6 DIV PUSH2 0x248B DUP8 DUP13 DIV PUSH1 0x44 CALLDATALOAD PUSH2 0x3C60 JUMP JUMPDEST PUSH2 0x3C60 JUMP JUMPDEST PUSH1 0x2 SLOAD PUSH1 0x40 MLOAD PUSH4 0x23B872DD PUSH1 0xE0 SHL PUSH1 0x20 DUP3 ADD MSTORE CALLER PUSH1 0x24 DUP3 ADD MSTORE ADDRESS PUSH1 0x44 DUP3 ADD MSTORE PUSH1 0x64 DUP1 DUP3 ADD SWAP4 SWAP1 SWAP4 MSTORE SWAP2 DUP3 MSTORE PUSH1 0x1 PUSH1 0x1 PUSH1 0xA0 SHL SUB AND PUSH2 0x55A DUP3 PUSH2 0x3967 JUMP JUMPDEST DUP2 PUSH1 0x4 SLOAD SWAP7 PUSH2 0x24DB DUP9 PUSH2 0x3C6D JUMP JUMPDEST PUSH1 0x4 SSTORE PUSH2 0x2513 PUSH2 0x24ED PUSH1 0x64 CALLDATALOAD TIMESTAMP PUSH2 0x3C60 JUMP JUMPDEST SWAP7 PUSH1 0x40 MLOAD SWAP9 PUSH2 0x24FB DUP11 PUSH2 0x3914 JUMP JUMPDEST DUP11 DUP11 MSTORE PUSH1 0x4 CALLDATALOAD PUSH1 0x20 DUP12 ADD MSTORE CALLER PUSH1 0x40 DUP12 ADD MSTORE CALLDATASIZE SWAP2 PUSH2 0x3D79 JUMP JUMPDEST PUSH1 0x60 DUP9 ADD MSTORE PUSH1 0x44 CALLDATALOAD PUSH1 0x80 DUP9 ADD MSTORE DIV PUSH1 0xA0 DUP7 ADD MSTORE DIV PUSH1 0xC0 DUP5 ADD MSTORE PUSH1 0xE0 DUP4 ADD MSTORE PUSH2 0x100 DUP3 ADD MSTORE PUSH1 0x0 PUSH2 0x120 DUP3 ADD MSTORE PUSH1 0x0 PUSH2 0x140 DUP3 ADD MSTORE PUSH1 0x0 PUSH2 0x160 DUP3 ADD MSTORE TIMESTAMP PUSH2 0x180 DUP3 ADD MSTORE DUP2 PUSH1 0x0 MSTORE PUSH1 0x9 PUSH1 0x20 MSTORE PUSH1 0x40 PUSH1 0x0 KECCAK256 SWAP2 DUP2 MLOAD DUP4 SSTORE PUSH1 0x20 DUP3 ADD MLOAD PUSH1 0x1 DUP5 ADD SSTORE PUSH1 0x2 DUP4 ADD PUSH1 0x1 DUP1 PUSH1 0xA0 SHL SUB PUSH1 0x40 DUP5 ADD MLOAD AND PUSH1 0x1 PUSH1 0x1 PUSH1 0x60 SHL SUB PUSH1 0xA0 SHL DUP3 SLOAD AND OR SWAP1 SSTORE PUSH1 0x60 DUP3 ADD MLOAD SWAP3 DUP4 MLOAD PUSH1 0x1 PUSH1 0x1 PUSH1 0x40 SHL SUB DUP2 GT PUSH2 0x11B8 JUMPI PUSH2 0x25B8 PUSH1 0x3 DUP4 ADD SLOAD PUSH2 0x38BF JUMP JUMPDEST PUSH1 0x1F DUP2 GT PUSH2 0x273F JUMPI JUMPDEST POP PUSH1 0x20 PUSH1 0x1F DUP3 GT PUSH1 0x1 EQ PUSH2 0x26D0 JUMPI DUP2 SWAP3 SWAP4 SWAP5 SWAP6 PUSH1 0x0 SWAP3 PUSH2 0x26C5 JUMPI JUMPDEST POP POP DUP2 PUSH1 0x1 SHL SWAP2 PUSH1 0x0 NOT SWAP1 PUSH1 0x3 SHL SHR NOT AND OR PUSH1 0x3 DUP3 ADD SSTORE JUMPDEST PUSH1 0x80 DUP4 ADD MLOAD PUSH1 0x4 DUP3 ADD SSTORE PUSH1 0xA0 DUP4 ADD MLOAD PUSH1 0x5 DUP3 ADD SSTORE PUSH1 0xC0 DUP4 ADD MLOAD PUSH1 0x6 DUP3 ADD SSTORE PUSH1 0xE0 DUP4 ADD MLOAD PUSH1 0x7 DUP3 ADD SSTORE PUSH2 0x100 DUP4 ADD MLOAD PUSH1 0x8 DUP3 ADD SSTORE PUSH1 0x9 DUP2 ADD PUSH2 0x120 DUP5 ADD MLOAD SWAP1 PUSH1 0x6 DUP3 LT ISZERO PUSH2 0x5AB JUMPI DUP1 SLOAD PUSH2 0x140 DUP7 ADD MLOAD PUSH2 0x100 PUSH1 0x1 PUSH1 0xA8 SHL SUB PUSH1 0x8 SWAP2 SWAP1 SWAP2 SHL AND PUSH1 0xFF SWAP4 SWAP1 SWAP4 AND PUSH1 0x1 PUSH1 0x1 PUSH1 0xA8 SHL SUB NOT SWAP1 SWAP2 AND OR SWAP2 SWAP1 SWAP2 OR SWAP1 SSTORE PUSH1 0x20 SWAP3 PUSH1 0xB SWAP1 PUSH2 0x180 SWAP1 PUSH2 0x160 DUP2 ADD MLOAD PUSH1 0xA DUP6 ADD SSTORE ADD MLOAD SWAP2 ADD SSTORE PUSH1 0x40 MLOAD PUSH1 0x44 CALLDATALOAD DUP2 MSTORE CALLER SWAP1 DUP3 PUSH32 0x428F55877EE911B6C5ACC83EF215F08675D3787BDFAC5018BBE41876DF710F49 DUP6 PUSH1 0x4 CALLDATALOAD SWAP4 LOG4 PUSH1 0x1 PUSH1 0x0 SSTORE PUSH1 0x40 MLOAD SWAP1 DUP2 MSTORE RETURN JUMPDEST ADD MLOAD SWAP1 POP DUP6 DUP1 PUSH2 0x25DC JUMP JUMPDEST PUSH1 0x3 DUP4 ADD PUSH1 0x0 MSTORE PUSH1 0x20 PUSH1 0x0 KECCAK256 SWAP1 PUSH1 0x0 JUMPDEST PUSH1 0x1F NOT DUP5 AND DUP2 LT PUSH2 0x2727 JUMPI POP PUSH1 0x1 SWAP4 SWAP5 SWAP6 SWAP7 DUP4 PUSH1 0x1F NOT DUP2 AND LT PUSH2 0x270E JUMPI JUMPDEST POP POP POP DUP2 SHL ADD PUSH1 0x3 DUP3 ADD SSTORE PUSH2 0x25F4 JUMP JUMPDEST ADD MLOAD PUSH1 0x0 NOT PUSH1 0xF8 DUP5 PUSH1 0x3 SHL AND SHR NOT AND SWAP1 SSTORE DUP6 DUP1 DUP1 PUSH2 0x26FE JUMP JUMPDEST SWAP1 SWAP2 PUSH1 0x20 PUSH1 0x1 DUP2 SWAP3 DUP6 DUP12 ADD MLOAD DUP2 SSTORE ADD SWAP4 ADD SWAP2 ADD PUSH2 0x26E0 JUMP JUMPDEST PUSH1 0x3 DUP4 ADD PUSH1 0x0 MSTORE PUSH1 0x20 PUSH1 0x0 KECCAK256 PUSH1 0x1F DUP4 ADD PUSH1 0x5 SHR DUP2 ADD PUSH1 0x20 DUP5 LT PUSH2 0x277F JUMPI JUMPDEST PUSH1 0x1F DUP4 ADD PUSH1 0x5 SHR DUP3 ADD DUP2 LT PUSH2 0x2773 JUMPI POP POP PUSH2 0x25C1 JUMP JUMPDEST PUSH1 0x0 DUP2 SSTORE PUSH1 0x1 ADD PUSH2 0x275D JUMP JUMPDEST POP DUP1 PUSH2 0x275D JUMP JUMPDEST PUSH1 0x40 MLOAD PUSH3 0x461BCD PUSH1 0xE5 SHL DUP2 MSTORE PUSH1 0x20 PUSH1 0x4 DUP3 ADD MSTORE PUSH1 0x10 PUSH1 0x24 DUP3 ADD MSTORE PUSH16 0x24B73B30B634B210323AB930BA34B7B7 PUSH1 0x81 SHL PUSH1 0x44 DUP3 ADD MSTORE PUSH1 0x64 SWAP1 REVERT JUMPDEST POP PUSH3 0x93A80 PUSH1 0x64 CALLDATALOAD GT ISZERO PUSH2 0x2423 JUMP JUMPDEST PUSH1 0x40 MLOAD PUSH3 0x461BCD PUSH1 0xE5 SHL DUP2 MSTORE PUSH1 0x20 PUSH1 0x4 DUP3 ADD MSTORE PUSH1 0xE PUSH1 0x24 DUP3 ADD MSTORE PUSH14 0x52657761726420746F6F206C6F77 PUSH1 0x90 SHL PUSH1 0x44 DUP3 ADD MSTORE PUSH1 0x64 SWAP1 REVERT JUMPDEST CALLVALUE PUSH2 0x305 JUMPI PUSH1 0x0 CALLDATASIZE PUSH1 0x3 NOT ADD SLT PUSH2 0x305 JUMPI PUSH1 0x20 PUSH1 0xFF PUSH1 0x1 SLOAD PUSH1 0xA0 SHR AND PUSH1 0x40 MLOAD SWAP1 ISZERO ISZERO DUP2 MSTORE RETURN JUMPDEST CALLVALUE PUSH2 0x305 JUMPI PUSH1 0x20 CALLDATASIZE PUSH1 0x3 NOT ADD SLT PUSH2 0x305 JUMPI PUSH1 0x0 PUSH2 0x140 PUSH1 0x40 MLOAD PUSH2 0x284B DUP2 PUSH2 0x394B JUMP JUMPDEST DUP3 DUP2 MSTORE PUSH1 0x60 PUSH1 0x20 DUP3 ADD MSTORE PUSH1 0x60 PUSH1 0x40 DUP3 ADD MSTORE DUP3 PUSH1 0x60 DUP3 ADD MSTORE DUP3 PUSH1 0x80 DUP3 ADD MSTORE DUP3 PUSH1 0xA0 DUP3 ADD MSTORE DUP3 PUSH1 0xC0 DUP3 ADD MSTORE DUP3 PUSH1 0xE0 DUP3 ADD MSTORE DUP3 PUSH2 0x100 DUP3 ADD MSTORE DUP3 PUSH2 0x120 DUP3 ADD MSTORE ADD MSTORE PUSH1 0x4 CALLDATALOAD PUSH1 0x0 MSTORE PUSH1 0x8 PUSH1 0x20 MSTORE PUSH1 0x40 PUSH1 0x0 KECCAK256 PUSH1 0x40 MLOAD SWAP1 PUSH2 0x28A7 DUP3 PUSH2 0x394B JUMP JUMPDEST DUP1 SLOAD DUP3 MSTORE PUSH2 0x28B7 PUSH1 0x1 DUP3 ADD PUSH2 0x39BE JUMP JUMPDEST PUSH1 0x20 DUP4 ADD MSTORE PUSH2 0x28C8 PUSH1 0x2 DUP3 ADD PUSH2 0x39BE JUMP JUMPDEST PUSH1 0x40 DUP4 ADD MSTORE PUSH1 0x3 DUP2 DUP2 ADD SLOAD PUSH1 0x1 PUSH1 0x1 PUSH1 0xA0 SHL SUB AND PUSH1 0x60 DUP5 ADD MSTORE PUSH1 0x4 DUP3 ADD SLOAD PUSH1 0x80 DUP5 ADD MSTORE PUSH1 0x5 DUP3 ADD SLOAD PUSH1 0xA0 DUP5 ADD MSTORE PUSH1 0x6 DUP3 ADD SLOAD PUSH1 0xC0 DUP5 ADD MSTORE PUSH1 0x7 DUP3 ADD SLOAD PUSH1 0xE0 DUP5 ADD MSTORE PUSH1 0x8 DUP3 ADD SLOAD PUSH2 0x100 DUP5 ADD MSTORE PUSH1 0x9 DUP3 ADD SLOAD PUSH1 0xFF AND SWAP2 SWAP1 DUP3 LT ISZERO PUSH2 0x5AB JUMPI PUSH1 0xA SWAP2 PUSH2 0x120 DUP5 ADD MSTORE ADD SLOAD PUSH2 0x140 DUP3 ADD MSTORE PUSH1 0x40 MLOAD DUP1 SWAP2 PUSH1 0x20 DUP3 MSTORE DUP1 MLOAD PUSH1 0x20 DUP4 ADD MSTORE PUSH2 0x140 PUSH2 0x297D PUSH2 0x2967 PUSH1 0x20 DUP5 ADD MLOAD PUSH2 0x160 PUSH1 0x40 DUP8 ADD MSTORE PUSH2 0x180 DUP7 ADD SWAP1 PUSH2 0x3872 JUMP JUMPDEST PUSH1 0x40 DUP5 ADD MLOAD DUP6 DUP3 SUB PUSH1 0x1F NOT ADD PUSH1 0x60 DUP8 ADD MSTORE PUSH2 0x3872 JUMP JUMPDEST SWAP2 PUSH1 0x1 DUP1 PUSH1 0xA0 SHL SUB PUSH1 0x60 DUP3 ADD MLOAD AND PUSH1 0x80 DUP6 ADD MSTORE PUSH1 0x80 DUP2 ADD MLOAD PUSH1 0xA0 DUP6 ADD MSTORE PUSH1 0xA0 DUP2 ADD MLOAD PUSH1 0xC0 DUP6 ADD MSTORE PUSH1 0xC0 DUP2 ADD MLOAD PUSH1 0xE0 DUP6 ADD MSTORE PUSH1 0xE0 DUP2 ADD MLOAD PUSH2 0x100 DUP6 ADD MSTORE PUSH2 0x100 DUP2 ADD MLOAD PUSH2 0x120 DUP6 ADD MSTORE PUSH2 0x29D7 PUSH2 0x120 DUP3 ADD MLOAD DUP4 DUP7 ADD SWAP1 PUSH2 0x3A63 JUMP JUMPDEST ADD MLOAD PUSH2 0x160 DUP4 ADD MSTORE SUB SWAP1 RETURN JUMPDEST CALLVALUE PUSH2 0x305 JUMPI PUSH2 0x29F1 CALLDATASIZE PUSH2 0x3832 JUMP JUMPDEST SWAP1 PUSH1 0x0 MSTORE PUSH1 0xA PUSH1 0x20 MSTORE PUSH1 0x40 PUSH1 0x0 KECCAK256 SWAP1 DUP2 SLOAD DUP2 LT ISZERO PUSH2 0x305 JUMPI PUSH2 0x2A12 SWAP2 PUSH2 0x3A70 JUMP JUMPDEST POP DUP1 SLOAD PUSH1 0x1 PUSH1 0x1 PUSH1 0xA0 SHL SUB AND PUSH2 0x2A2A PUSH1 0x1 DUP4 ADD PUSH2 0x39BE JUMP JUMPDEST SWAP2 PUSH1 0x2 DUP2 ADD SLOAD SWAP1 PUSH1 0xFF PUSH1 0x3 DUP3 ADD SLOAD AND SWAP1 PUSH1 0x5 PUSH1 0x4 DUP3 ADD SLOAD SWAP2 ADD SLOAD SWAP2 PUSH2 0x2A61 PUSH1 0x40 MLOAD SWAP7 DUP8 SWAP7 DUP8 MSTORE PUSH1 0xC0 PUSH1 0x20 DUP9 ADD MSTORE PUSH1 0xC0 DUP8 ADD SWAP1 PUSH2 0x3872 JUMP JUMPDEST SWAP4 PUSH1 0x40 DUP7 ADD MSTORE ISZERO ISZERO PUSH1 0x60 DUP6 ADD MSTORE PUSH1 0x80 DUP5 ADD MSTORE PUSH1 0xA0 DUP4 ADD MSTORE SUB SWAP1 RETURN JUMPDEST CALLVALUE PUSH2 0x305 JUMPI PUSH1 0x20 CALLDATASIZE PUSH1 0x3 NOT ADD SLT PUSH2 0x305 JUMPI PUSH1 0x4 CALLDATALOAD PUSH1 0x0 MSTORE PUSH1 0xC PUSH1 0x20 MSTORE PUSH1 0x20 PUSH1 0x40 PUSH1 0x0 KECCAK256 SLOAD PUSH1 0x40 MLOAD SWAP1 DUP2 MSTORE RETURN JUMPDEST CALLVALUE PUSH2 0x305 JUMPI PUSH1 0x40 CALLDATASIZE PUSH1 0x3 NOT ADD SLT PUSH2 0x305 JUMPI PUSH1 0x4 CALLDATALOAD PUSH2 0x2AC4 PUSH2 0x381C JUMP JUMPDEST SWAP1 DUP1 PUSH1 0x0 MSTORE PUSH1 0x20 SWAP2 PUSH1 0x8 DUP4 MSTORE PUSH1 0x1 DUP1 PUSH1 0xA0 SHL SUB SWAP1 DUP2 PUSH1 0x3 PUSH1 0x40 PUSH1 0x0 KECCAK256 ADD SLOAD AND CALLER EQ DUP1 ISZERO PUSH2 0x2C3A JUMPI JUMPDEST PUSH2 0x2AF5 SWAP1 PUSH2 0x3B24 JUMP JUMPDEST AND SWAP2 PUSH2 0x2B02 DUP4 ISZERO ISZERO PUSH2 0x3ACF JUMP JUMPDEST DUP2 PUSH1 0x0 MSTORE PUSH1 0xB DUP2 MSTORE PUSH1 0x40 PUSH1 0x0 KECCAK256 DUP4 PUSH1 0x0 MSTORE DUP2 MSTORE PUSH1 0xFF PUSH1 0x40 PUSH1 0x0 KECCAK256 SLOAD AND PUSH2 0x2C02 JUMPI DUP2 PUSH1 0x0 MSTORE PUSH1 0xB DUP2 MSTORE PUSH1 0x40 PUSH1 0x0 KECCAK256 DUP4 PUSH1 0x0 MSTORE DUP2 MSTORE PUSH1 0x40 PUSH1 0x0 KECCAK256 PUSH1 0x1 PUSH1 0xFF NOT DUP3 SLOAD AND OR SWAP1 SSTORE DUP2 PUSH1 0x0 MSTORE PUSH1 0xC DUP2 MSTORE PUSH1 0x40 PUSH1 0x0 KECCAK256 PUSH2 0x2B5C DUP2 SLOAD PUSH2 0x3C6D JUMP JUMPDEST SWAP1 SSTORE DUP3 PUSH1 0x0 MSTORE PUSH1 0x16 DUP2 MSTORE PUSH1 0x40 PUSH1 0x0 KECCAK256 PUSH1 0x2 DUP2 ADD SLOAD ISZERO SWAP1 DUP2 PUSH2 0x2BF8 JUMPI JUMPDEST POP PUSH2 0x2BA6 JUMPI JUMPDEST POP PUSH32 0x7429A06E9412E469F0D64F9D222640B0AF359F556B709E2913588C227851B88D PUSH1 0x0 DUP1 LOG3 STOP JUMPDEST PUSH1 0x3 PUSH1 0x40 MLOAD SWAP2 PUSH2 0x2BB5 DUP4 PUSH2 0x3930 JUMP JUMPDEST PUSH1 0x0 DUP4 MSTORE DUP1 DUP4 ADD PUSH1 0x0 DUP2 MSTORE PUSH1 0x40 DUP5 ADD SWAP1 PUSH2 0x1388 DUP3 MSTORE PUSH1 0x16 PUSH1 0x60 DUP7 ADD SWAP4 TIMESTAMP DUP6 MSTORE DUP9 PUSH1 0x0 MSTORE MSTORE PUSH1 0x40 PUSH1 0x0 KECCAK256 SWAP5 MLOAD DUP6 SSTORE MLOAD PUSH1 0x1 DUP6 ADD SSTORE MLOAD PUSH1 0x2 DUP5 ADD SSTORE MLOAD SWAP2 ADD SSTORE DUP3 PUSH2 0x2B7E JUMP JUMPDEST SWAP1 POP SLOAD ISZERO DUP5 PUSH2 0x2B78 JUMP JUMPDEST PUSH1 0x64 SWAP1 PUSH1 0x40 MLOAD SWAP1 PUSH3 0x461BCD PUSH1 0xE5 SHL DUP3 MSTORE PUSH1 0x4 DUP3 ADD MSTORE PUSH1 0x11 PUSH1 0x24 DUP3 ADD MSTORE PUSH17 0x20B63932B0B23C903B30B634B230BA37B9 PUSH1 0x79 SHL PUSH1 0x44 DUP3 ADD MSTORE REVERT JUMPDEST POP PUSH1 0x1 SLOAD DUP3 AND CALLER EQ PUSH2 0x2AEC JUMP JUMPDEST CALLVALUE PUSH2 0x305 JUMPI PUSH1 0x0 CALLDATASIZE PUSH1 0x3 NOT ADD SLT PUSH2 0x305 JUMPI PUSH1 0x20 PUSH1 0x40 MLOAD PUSH2 0x7D0 DUP2 MSTORE RETURN JUMPDEST CALLVALUE PUSH2 0x305 JUMPI PUSH1 0x0 CALLDATASIZE PUSH1 0x3 NOT ADD SLT PUSH2 0x305 JUMPI PUSH1 0x20 PUSH1 0x1B SLOAD PUSH1 0x40 MLOAD SWAP1 DUP2 MSTORE RETURN JUMPDEST CALLVALUE PUSH2 0x305 JUMPI PUSH1 0x20 CALLDATASIZE PUSH1 0x3 NOT ADD SLT PUSH2 0x305 JUMPI PUSH1 0x4 CALLDATALOAD PUSH1 0x0 MSTORE PUSH1 0x8 PUSH1 0x20 MSTORE PUSH1 0x40 PUSH1 0x0 KECCAK256 DUP1 SLOAD PUSH2 0x2CB1 PUSH1 0x1 DUP4 ADD PUSH2 0x39BE JUMP JUMPDEST SWAP2 PUSH2 0x2CBE PUSH1 0x2 DUP3 ADD PUSH2 0x39BE JUMP JUMPDEST PUSH2 0x2D51 PUSH1 0x1 DUP1 PUSH1 0xA0 SHL SUB PUSH1 0x3 DUP5 ADD SLOAD AND SWAP3 PUSH1 0x4 DUP2 ADD SLOAD PUSH1 0x5 DUP3 ADD SLOAD PUSH1 0x6 DUP4 ADD SLOAD PUSH1 0x7 DUP5 ADD SLOAD SWAP2 PUSH1 0x8 DUP6 ADD SLOAD SWAP4 PUSH2 0x2D26 PUSH1 0xA PUSH1 0xFF PUSH1 0x9 DUP10 ADD SLOAD AND SWAP8 ADD SLOAD SWAP9 PUSH2 0x2D18 PUSH1 0x40 MLOAD SWAP14 DUP15 SWAP14 DUP15 PUSH2 0x160 SWAP2 DUP2 MSTORE DUP2 PUSH1 0x20 DUP3 ADD MSTORE ADD SWAP1 PUSH2 0x3872 JUMP JUMPDEST DUP13 DUP2 SUB PUSH1 0x40 DUP15 ADD MSTORE SWAP1 PUSH2 0x3872 JUMP JUMPDEST SWAP9 PUSH1 0x60 DUP12 ADD MSTORE PUSH1 0x80 DUP11 ADD MSTORE PUSH1 0xA0 DUP10 ADD MSTORE PUSH1 0xC0 DUP9 ADD MSTORE PUSH1 0xE0 DUP8 ADD MSTORE PUSH2 0x100 DUP7 ADD MSTORE PUSH2 0x120 DUP6 ADD SWAP1 PUSH2 0x3A63 JUMP JUMPDEST PUSH2 0x140 DUP4 ADD MSTORE SUB SWAP1 RETURN JUMPDEST CALLVALUE PUSH2 0x305 JUMPI PUSH2 0x2D69 CALLDATASIZE PUSH2 0x3832 JUMP JUMPDEST PUSH2 0x2D71 PUSH2 0x3EDE JUMP JUMPDEST PUSH2 0x12C DUP1 DUP4 LT PUSH2 0x2DF9 JUMPI DUP2 LT PUSH2 0x2DBB JUMPI DUP2 PUSH1 0x40 SWAP2 PUSH32 0x54333DE66970050BA341FD48B02B1E37C55D85AE724EE00E32233E89E072BEA8 SWAP4 PUSH1 0x1B SSTORE DUP1 PUSH1 0x1C SSTORE DUP3 MLOAD SWAP2 DUP3 MSTORE PUSH1 0x20 DUP3 ADD MSTORE LOG1 STOP JUMPDEST PUSH1 0x40 MLOAD PUSH3 0x461BCD PUSH1 0xE5 SHL DUP2 MSTORE PUSH1 0x20 PUSH1 0x4 DUP3 ADD MSTORE PUSH1 0x16 PUSH1 0x24 DUP3 ADD MSTORE PUSH22 0x14995D99585B081C1A185CD9481D1BDBC81CDA1BDC9D PUSH1 0x52 SHL PUSH1 0x44 DUP3 ADD MSTORE PUSH1 0x64 SWAP1 REVERT JUMPDEST PUSH1 0x40 MLOAD PUSH3 0x461BCD PUSH1 0xE5 SHL DUP2 MSTORE PUSH1 0x20 PUSH1 0x4 DUP3 ADD MSTORE PUSH1 0x16 PUSH1 0x24 DUP3 ADD MSTORE PUSH22 0x10DBDB5B5A5D081C1A185CD9481D1BDBC81CDA1BDC9D PUSH1 0x52 SHL PUSH1 0x44 DUP3 ADD MSTORE PUSH1 0x64 SWAP1 REVERT JUMPDEST CALLVALUE PUSH2 0x305 JUMPI PUSH2 0x2E45 CALLDATASIZE PUSH2 0x3848 JUMP JUMPDEST SWAP2 PUSH1 0x0 MSTORE PUSH1 0x17 PUSH1 0x20 MSTORE PUSH1 0x40 PUSH1 0x0 KECCAK256 SWAP1 PUSH1 0x0 MSTORE PUSH1 0x20 MSTORE PUSH1 0x40 PUSH1 0x0 KECCAK256 SWAP1 PUSH1 0x1 DUP1 PUSH1 0xA0 SHL SUB AND PUSH1 0x0 MSTORE PUSH1 0x20 MSTORE PUSH1 0x80 PUSH1 0x40 PUSH1 0x0 KECCAK256 DUP1 SLOAD SWAP1 PUSH1 0x1 DUP2 ADD SLOAD SWAP1 PUSH1 0x3 PUSH1 0xFF PUSH1 0x2 DUP4 ADD SLOAD AND SWAP2 ADD SLOAD SWAP2 PUSH1 0x40 MLOAD SWAP4 DUP5 MSTORE PUSH1 0x20 DUP5 ADD MSTORE ISZERO ISZERO PUSH1 0x40 DUP4 ADD MSTORE PUSH1 0x60 DUP3 ADD MSTORE RETURN JUMPDEST CALLVALUE PUSH2 0x305 JUMPI PUSH1 0x20 CALLDATASIZE PUSH1 0x3 NOT ADD SLT PUSH2 0x305 JUMPI PUSH1 0x1 PUSH1 0x1 PUSH1 0xA0 SHL SUB PUSH2 0x2EC6 PUSH2 0x3806 JUMP JUMPDEST AND PUSH1 0x0 MSTORE PUSH1 0x13 PUSH1 0x20 MSTORE PUSH1 0x20 PUSH1 0x40 PUSH1 0x0 KECCAK256 SLOAD PUSH1 0x40 MLOAD SWAP1 DUP2 MSTORE RETURN JUMPDEST CALLVALUE PUSH2 0x305 JUMPI PUSH1 0x0 CALLDATASIZE PUSH1 0x3 NOT ADD SLT PUSH2 0x305 JUMPI PUSH1 0x20 PUSH1 0x40 MLOAD PUSH2 0x1388 DUP2 MSTORE RETURN JUMPDEST CALLVALUE PUSH2 0x305 JUMPI PUSH1 0x20 CALLDATASIZE PUSH1 0x3 NOT ADD SLT PUSH2 0x305 JUMPI PUSH1 0x4 CALLDATALOAD PUSH1 0x0 MSTORE PUSH1 0xE PUSH1 0x20 MSTORE PUSH1 0x20 PUSH1 0x40 PUSH1 0x0 KECCAK256 SLOAD PUSH1 0x40 MLOAD SWAP1 DUP2 MSTORE RETURN JUMPDEST CALLVALUE PUSH2 0x305 JUMPI PUSH1 0x20 PUSH2 0x2F41 PUSH2 0x2F3B CALLDATASIZE PUSH2 0x3832 JUMP JUMPDEST SWAP1 PUSH2 0x3C7C JUMP JUMPDEST PUSH1 0x40 MLOAD SWAP1 DUP2 MSTORE RETURN JUMPDEST CALLVALUE PUSH2 0x305 JUMPI PUSH1 0x60 CALLDATASIZE PUSH1 0x3 NOT ADD SLT PUSH2 0x305 JUMPI PUSH1 0x4 CALLDATALOAD PUSH1 0x24 SWAP1 DUP2 CALLDATALOAD SWAP1 PUSH1 0x44 CALLDATALOAD DUP2 PUSH1 0x0 MSTORE PUSH1 0x20 SWAP1 PUSH1 0x9 DUP3 MSTORE PUSH1 0x40 PUSH1 0x0 KECCAK256 PUSH1 0xFF PUSH1 0x9 DUP3 ADD SLOAD AND SWAP1 PUSH1 0x6 DUP3 LT ISZERO PUSH2 0x3281 JUMPI PUSH2 0x2F9F DUP3 PUSH1 0x2 PUSH1 0x1 SWAP5 EQ SWAP1 DUP2 ISZERO PUSH2 0x3277 JUMPI POP PUSH2 0x3B61 JUMP JUMPDEST ADD SLOAD PUSH1 0x0 MSTORE PUSH1 0xB DUP3 MSTORE PUSH1 0x40 PUSH1 0x0 KECCAK256 CALLER PUSH1 0x0 MSTORE DUP3 MSTORE PUSH2 0x2FC4 PUSH1 0xFF PUSH1 0x40 PUSH1 0x0 KECCAK256 SLOAD AND PUSH2 0x3BA2 JUMP JUMPDEST DUP3 PUSH1 0x0 MSTORE PUSH1 0xA DUP3 MSTORE PUSH2 0x2FDC PUSH1 0x40 PUSH1 0x0 KECCAK256 SLOAD DUP6 LT PUSH2 0x3BE0 JUMP JUMPDEST DUP1 ISZERO PUSH2 0x323F JUMPI DUP3 PUSH1 0x0 MSTORE PUSH1 0xA DUP3 MSTORE PUSH2 0x3009 PUSH1 0xFF PUSH1 0x3 PUSH2 0x2FFF DUP8 PUSH1 0x40 PUSH1 0x0 KECCAK256 PUSH2 0x3A70 JUMP JUMPDEST POP ADD SLOAD AND ISZERO PUSH2 0x3C1C JUMP JUMPDEST DUP3 PUSH1 0x0 MSTORE PUSH1 0x17 DUP3 MSTORE PUSH1 0x40 PUSH1 0x0 KECCAK256 DUP5 PUSH1 0x0 MSTORE DUP3 MSTORE PUSH1 0x40 PUSH1 0x0 KECCAK256 CALLER PUSH1 0x0 MSTORE DUP3 MSTORE PUSH1 0x40 PUSH1 0x0 KECCAK256 SLOAD PUSH2 0x3207 JUMPI DUP3 PUSH1 0x0 MSTORE PUSH1 0x11 DUP3 MSTORE PUSH1 0x40 PUSH1 0x0 KECCAK256 DUP5 PUSH1 0x0 MSTORE DUP3 MSTORE PUSH1 0x40 PUSH1 0x0 KECCAK256 CALLER PUSH1 0x0 MSTORE DUP3 MSTORE PUSH1 0xFF PUSH1 0x40 PUSH1 0x0 KECCAK256 SLOAD AND PUSH2 0x31C3 JUMPI DUP3 PUSH1 0x0 MSTORE PUSH1 0x1A DUP3 MSTORE PUSH1 0x40 PUSH1 0x0 KECCAK256 DUP5 PUSH1 0x0 MSTORE DUP3 MSTORE PUSH1 0x40 PUSH1 0x0 KECCAK256 SLOAD ISZERO PUSH2 0x31A4 JUMPI JUMPDEST DUP3 PUSH1 0x0 MSTORE PUSH1 0x1A DUP3 MSTORE PUSH1 0x40 PUSH1 0x0 KECCAK256 DUP5 PUSH1 0x0 MSTORE DUP3 MSTORE PUSH2 0x30A0 PUSH1 0x40 PUSH1 0x0 KECCAK256 SLOAD PUSH1 0x1B SLOAD SWAP1 PUSH2 0x3C60 JUMP JUMPDEST TIMESTAMP GT PUSH2 0x316B JUMPI PUSH1 0x40 MLOAD PUSH32 0x96E134FDBCF6F2B8942AA1450973CC1E5914913673ABACABEBF1F0B14FE4A552 SWAP3 SWAP2 PUSH2 0x30D5 DUP3 PUSH2 0x3930 JUMP JUMPDEST DUP2 MSTORE PUSH1 0x3 DUP3 DUP3 ADD TIMESTAMP DUP2 MSTORE PUSH2 0x3138 PUSH1 0x40 DUP5 ADD PUSH1 0x0 DUP2 MSTORE PUSH1 0x60 DUP6 ADD SWAP3 PUSH1 0x0 DUP5 MSTORE DUP9 PUSH1 0x0 MSTORE PUSH1 0x17 DUP8 MSTORE PUSH1 0x40 PUSH1 0x0 KECCAK256 DUP11 PUSH1 0x0 MSTORE DUP8 MSTORE PUSH1 0x40 PUSH1 0x0 KECCAK256 CALLER PUSH1 0x0 MSTORE DUP8 MSTORE PUSH1 0x40 PUSH1 0x0 KECCAK256 SWAP6 MLOAD DUP7 SSTORE MLOAD PUSH1 0x1 DUP7 ADD SSTORE MLOAD ISZERO ISZERO PUSH1 0x2 DUP6 ADD SWAP1 PUSH1 0xFF DUP1 NOT DUP4 SLOAD AND SWAP2 ISZERO ISZERO AND OR SWAP1 SSTORE JUMP JUMPDEST MLOAD SWAP2 ADD SSTORE DUP3 PUSH1 0x0 MSTORE PUSH1 0x18 DUP2 MSTORE PUSH1 0x40 PUSH1 0x0 KECCAK256 DUP5 PUSH1 0x0 MSTORE DUP2 MSTORE PUSH1 0x40 PUSH1 0x0 KECCAK256 PUSH2 0x315E DUP2 SLOAD PUSH2 0x3C6D JUMP JUMPDEST SWAP1 SSTORE PUSH1 0x40 MLOAD SWAP4 DUP5 MSTORE CALLER SWAP4 LOG3 STOP JUMPDEST PUSH1 0x40 MLOAD PUSH3 0x461BCD PUSH1 0xE5 SHL DUP2 MSTORE PUSH1 0x4 DUP2 ADD DUP4 SWAP1 MSTORE PUSH1 0x12 DUP2 DUP8 ADD MSTORE PUSH18 0x10DBDB5B5A5D081C1A185CD948195B991959 PUSH1 0x72 SHL PUSH1 0x44 DUP3 ADD MSTORE PUSH1 0x64 SWAP1 REVERT JUMPDEST DUP3 PUSH1 0x0 MSTORE PUSH1 0x1A DUP3 MSTORE PUSH1 0x40 PUSH1 0x0 KECCAK256 DUP5 PUSH1 0x0 MSTORE DUP3 MSTORE TIMESTAMP PUSH1 0x40 PUSH1 0x0 KECCAK256 SSTORE PUSH2 0x307B JUMP JUMPDEST PUSH1 0x40 MLOAD PUSH3 0x461BCD PUSH1 0xE5 SHL DUP2 MSTORE PUSH1 0x4 DUP2 ADD DUP4 SWAP1 MSTORE PUSH1 0x17 DUP2 DUP8 ADD MSTORE PUSH32 0x416C72656164792073636F726564206469726563746C79000000000000000000 PUSH1 0x44 DUP3 ADD MSTORE PUSH1 0x64 SWAP1 REVERT JUMPDEST PUSH1 0x40 MLOAD PUSH3 0x461BCD PUSH1 0xE5 SHL DUP2 MSTORE PUSH1 0x4 DUP2 ADD DUP4 SWAP1 MSTORE PUSH1 0x11 DUP2 DUP8 ADD MSTORE PUSH17 0x105B1C9958591E4818DBDB5B5A5D1D1959 PUSH1 0x7A SHL PUSH1 0x44 DUP3 ADD MSTORE PUSH1 0x64 SWAP1 REVERT JUMPDEST PUSH1 0x40 MLOAD PUSH3 0x461BCD PUSH1 0xE5 SHL DUP2 MSTORE PUSH1 0x4 DUP2 ADD DUP4 SWAP1 MSTORE PUSH1 0x11 DUP2 DUP8 ADD MSTORE PUSH17 0x8ADAE0E8F240C6DEDADAD2E840D0C2E6D PUSH1 0x7B SHL PUSH1 0x44 DUP3 ADD MSTORE PUSH1 0x64 SWAP1 REVERT JUMPDEST DUP5 SWAP2 POP EQ DUP10 PUSH2 0x941 JUMP JUMPDEST DUP7 PUSH4 0x4E487B71 PUSH1 0xE0 SHL PUSH1 0x0 MSTORE PUSH1 0x21 PUSH1 0x4 MSTORE PUSH1 0x0 REVERT JUMPDEST CALLVALUE PUSH2 0x305 JUMPI PUSH2 0x32A4 CALLDATASIZE PUSH2 0x3832 JUMP JUMPDEST SWAP1 DUP1 PUSH1 0x0 MSTORE PUSH1 0x8 PUSH1 0x20 MSTORE PUSH2 0x32D3 PUSH1 0x1 DUP1 PUSH1 0xA0 SHL SUB DUP1 PUSH1 0x3 PUSH1 0x40 PUSH1 0x0 KECCAK256 ADD SLOAD AND CALLER EQ SWAP1 DUP2 ISZERO PUSH2 0x3333 JUMPI JUMPDEST POP PUSH2 0x3B24 JUMP JUMPDEST PUSH1 0x1 DUP3 LT PUSH2 0x32EE JUMPI PUSH1 0x0 MSTORE PUSH1 0x7 PUSH1 0x20 MSTORE PUSH1 0x40 PUSH1 0x0 KECCAK256 SSTORE PUSH1 0x0 DUP1 RETURN JUMPDEST PUSH1 0x40 MLOAD PUSH3 0x461BCD PUSH1 0xE5 SHL DUP2 MSTORE PUSH1 0x20 PUSH1 0x4 DUP3 ADD MSTORE PUSH1 0x1C PUSH1 0x24 DUP3 ADD MSTORE PUSH32 0x4D696E2076616C69646174696F6E73206D757374206265203E3D203100000000 PUSH1 0x44 DUP3 ADD MSTORE PUSH1 0x64 SWAP1 REVERT JUMPDEST SWAP1 POP PUSH1 0x1 SLOAD AND CALLER EQ DUP5 PUSH2 0x32CD JUMP JUMPDEST CALLVALUE PUSH2 0x305 JUMPI PUSH1 0x20 CALLDATASIZE PUSH1 0x3 NOT ADD SLT PUSH2 0x305 JUMPI PUSH1 0x0 PUSH2 0x180 PUSH1 0x40 MLOAD PUSH2 0x3363 DUP2 PUSH2 0x3914 JUMP JUMPDEST DUP3 DUP2 MSTORE DUP3 PUSH1 0x20 DUP3 ADD MSTORE DUP3 PUSH1 0x40 DUP3 ADD MSTORE PUSH1 0x60 DUP1 DUP3 ADD MSTORE DUP3 PUSH1 0x80 DUP3 ADD MSTORE DUP3 PUSH1 0xA0 DUP3 ADD MSTORE DUP3 PUSH1 0xC0 DUP3 ADD MSTORE DUP3 PUSH1 0xE0 DUP3 ADD MSTORE DUP3 PUSH2 0x100 DUP3 ADD MSTORE DUP3 PUSH2 0x120 DUP3 ADD MSTORE DUP3 PUSH2 0x140 DUP3 ADD MSTORE DUP3 PUSH2 0x160 DUP3 ADD MSTORE ADD MSTORE PUSH1 0x4 CALLDATALOAD PUSH1 0x0 MSTORE PUSH1 0x9 PUSH1 0x20 MSTORE PUSH1 0x40 PUSH1 0x0 KECCAK256 PUSH1 0x40 MLOAD SWAP1 PUSH2 0x33CB DUP3 PUSH2 0x3914 JUMP JUMPDEST DUP1 SLOAD DUP3 MSTORE PUSH1 0x1 DUP2 ADD SLOAD PUSH1 0x20 DUP4 ADD MSTORE PUSH1 0x2 DUP2 ADD SLOAD PUSH1 0x1 PUSH1 0x1 PUSH1 0xA0 SHL SUB AND PUSH1 0x40 DUP4 ADD MSTORE PUSH2 0x33F8 PUSH1 0x3 DUP3 ADD PUSH2 0x39BE JUMP JUMPDEST PUSH1 0x60 DUP4 ADD MSTORE PUSH1 0x4 DUP2 ADD SLOAD PUSH1 0x80 DUP4 ADD MSTORE PUSH1 0x5 DUP2 ADD SLOAD PUSH1 0xA0 DUP4 ADD MSTORE PUSH1 0x6 DUP2 ADD SLOAD PUSH1 0xC0 DUP4 ADD MSTORE PUSH1 0x7 DUP2 ADD SLOAD PUSH1 0xE0 DUP4 ADD MSTORE PUSH1 0x8 DUP2 ADD SLOAD PUSH2 0x100 DUP4 ADD MSTORE PUSH1 0x9 DUP2 ADD SLOAD SWAP1 PUSH1 0x6 PUSH1 0xFF DUP4 AND LT ISZERO PUSH2 0x5AB JUMPI DUP2 PUSH1 0xFF PUSH1 0xB SWAP4 AND PUSH2 0x120 DUP6 ADD MSTORE PUSH1 0x1 DUP1 PUSH1 0xA0 SHL SUB SWAP1 PUSH1 0x8 SHR AND PUSH2 0x140 DUP5 ADD MSTORE PUSH1 0xA DUP2 ADD SLOAD PUSH2 0x160 DUP5 ADD MSTORE ADD SLOAD PUSH2 0x180 DUP3 ADD MSTORE PUSH1 0x40 MLOAD DUP1 SWAP2 PUSH1 0x20 DUP3 MSTORE DUP1 MLOAD PUSH1 0x20 DUP4 ADD MSTORE PUSH1 0x20 DUP2 ADD MLOAD PUSH1 0x40 DUP4 ADD MSTORE PUSH1 0x1 DUP1 PUSH1 0xA0 SHL SUB PUSH1 0x40 DUP3 ADD MLOAD AND PUSH1 0x60 DUP4 ADD MSTORE PUSH2 0x180 PUSH2 0x34BE PUSH1 0x60 DUP4 ADD MLOAD PUSH2 0x1A0 PUSH1 0x80 DUP7 ADD MSTORE PUSH2 0x1C0 DUP6 ADD SWAP1 PUSH2 0x3872 JUMP JUMPDEST SWAP2 PUSH1 0x80 DUP2 ADD MLOAD PUSH1 0xA0 DUP6 ADD MSTORE PUSH1 0xA0 DUP2 ADD MLOAD PUSH1 0xC0 DUP6 ADD MSTORE PUSH1 0xC0 DUP2 ADD MLOAD PUSH1 0xE0 DUP6 ADD MSTORE PUSH1 0xE0 DUP2 ADD MLOAD PUSH2 0x100 DUP6 ADD MSTORE PUSH2 0x100 DUP2 ADD MLOAD PUSH2 0x120 DUP6 ADD MSTORE PUSH2 0x3508 PUSH2 0x120 DUP3 ADD MLOAD PUSH2 0x140 DUP7 ADD SWAP1 PUSH2 0x38B2 JUMP JUMPDEST PUSH2 0x140 DUP2 ADD MLOAD PUSH1 0x1 PUSH1 0x1 PUSH1 0xA0 SHL SUB AND PUSH2 0x160 DUP6 DUP2 ADD SWAP2 SWAP1 SWAP2 MSTORE DUP2 ADD MLOAD DUP3 DUP6 ADD MSTORE ADD MLOAD PUSH2 0x1A0 DUP4 ADD MSTORE SUB SWAP1 RETURN JUMPDEST CALLVALUE PUSH2 0x305 JUMPI PUSH1 0x20 DUP1 PUSH1 0x3 NOT CALLDATASIZE ADD SLT PUSH2 0x305 JUMPI PUSH1 0x4 CALLDATALOAD PUSH1 0x0 MSTORE PUSH1 0xA DUP2 MSTORE PUSH1 0x40 PUSH1 0x0 KECCAK256 SWAP1 DUP2 SLOAD SWAP2 PUSH2 0x3562 DUP4 PUSH2 0x3B0D JUMP JUMPDEST SWAP3 PUSH2 0x3570 PUSH1 0x40 MLOAD SWAP5 DUP6 PUSH2 0x399D JUMP JUMPDEST DUP1 DUP5 MSTORE DUP3 DUP5 ADD DUP1 SWAP3 PUSH1 0x0 MSTORE DUP4 PUSH1 0x0 KECCAK256 PUSH1 0x0 SWAP2 JUMPDEST DUP4 DUP4 LT PUSH2 0x362F JUMPI POP POP POP POP PUSH1 0x40 MLOAD SWAP2 DUP1 DUP4 ADD SWAP4 DUP2 DUP5 MSTORE MLOAD DUP1 SWAP5 MSTORE PUSH1 0x40 DUP4 ADD SWAP4 PUSH1 0x40 DUP2 PUSH1 0x5 SHL DUP6 ADD ADD SWAP3 SWAP2 PUSH1 0x0 SWAP6 JUMPDEST DUP3 DUP8 LT PUSH2 0x35BE JUMPI DUP6 DUP6 SUB DUP7 RETURN JUMPDEST SWAP1 SWAP2 SWAP3 SWAP4 DUP3 DUP1 PUSH1 0x1 SWAP3 PUSH1 0x3F NOT DUP10 DUP3 SUB ADD DUP6 MSTORE DUP8 MLOAD SWAP1 PUSH2 0x35F5 PUSH1 0xC0 DUP7 DUP1 PUSH1 0xA0 SHL SUB DUP5 MLOAD AND DUP4 MSTORE DUP5 DUP5 ADD MLOAD SWAP1 DUP1 DUP7 DUP6 ADD MSTORE DUP4 ADD SWAP1 PUSH2 0x3872 JUMP JUMPDEST SWAP2 PUSH1 0x40 DUP2 ADD MLOAD PUSH1 0x40 DUP4 ADD MSTORE PUSH1 0x60 DUP1 DUP3 ADD MLOAD ISZERO ISZERO SWAP1 DUP4 ADD MSTORE PUSH1 0x80 DUP1 DUP3 ADD MLOAD SWAP1 DUP4 ADD MSTORE PUSH1 0xA0 DUP1 SWAP2 ADD MLOAD SWAP2 ADD MSTORE SWAP7 ADD SWAP3 ADD SWAP7 ADD SWAP6 SWAP3 SWAP2 SWAP1 SWAP3 PUSH2 0x35B1 JUMP JUMPDEST PUSH1 0x6 DUP7 PUSH1 0x1 SWAP3 PUSH1 0x40 SWAP10 SWAP9 SWAP10 MLOAD PUSH2 0x3644 DUP2 PUSH2 0x38F9 JUMP JUMPDEST DUP5 DUP1 PUSH1 0xA0 SHL SUB DUP7 SLOAD AND DUP2 MSTORE PUSH2 0x365A DUP6 DUP8 ADD PUSH2 0x39BE JUMP JUMPDEST DUP4 DUP3 ADD MSTORE PUSH1 0x2 DUP7 ADD SLOAD PUSH1 0x40 DUP3 ADD MSTORE PUSH1 0xFF PUSH1 0x3 DUP8 ADD SLOAD AND ISZERO ISZERO PUSH1 0x60 DUP3 ADD MSTORE PUSH1 0x4 DUP7 ADD SLOAD PUSH1 0x80 DUP3 ADD MSTORE PUSH1 0x5 DUP7 ADD SLOAD PUSH1 0xA0 DUP3 ADD MSTORE DUP2 MSTORE ADD SWAP3 ADD SWAP3 ADD SWAP2 SWAP1 SWAP6 SWAP5 SWAP6 PUSH2 0x3583 JUMP JUMPDEST CALLVALUE PUSH2 0x305 JUMPI PUSH1 0x0 CALLDATASIZE PUSH1 0x3 NOT ADD SLT PUSH2 0x305 JUMPI PUSH1 0x20 PUSH1 0x40 MLOAD PUSH2 0x1F4 DUP2 MSTORE RETURN JUMPDEST CALLVALUE PUSH2 0x305 JUMPI PUSH1 0x20 CALLDATASIZE PUSH1 0x3 NOT ADD SLT PUSH2 0x305 JUMPI PUSH1 0x4 CALLDATALOAD PUSH1 0x0 MSTORE PUSH1 0x7 PUSH1 0x20 MSTORE PUSH1 0x20 PUSH1 0x40 PUSH1 0x0 KECCAK256 SLOAD PUSH1 0x40 MLOAD SWAP1 DUP2 MSTORE RETURN JUMPDEST CALLVALUE PUSH2 0x305 JUMPI PUSH2 0x36F3 CALLDATASIZE PUSH2 0x3848 JUMP JUMPDEST SWAP2 PUSH1 0x0 MSTORE PUSH1 0x10 PUSH1 0x20 MSTORE PUSH1 0x40 PUSH1 0x0 KECCAK256 SWAP1 PUSH1 0x0 MSTORE PUSH1 0x20 MSTORE PUSH1 0x40 PUSH1 0x0 KECCAK256 SWAP1 PUSH1 0x1 DUP1 PUSH1 0xA0 SHL SUB AND PUSH1 0x0 MSTORE PUSH1 0x20 MSTORE PUSH1 0x20 PUSH1 0x40 PUSH1 0x0 KECCAK256 SLOAD PUSH1 0x40 MLOAD SWAP1 DUP2 MSTORE RETURN JUMPDEST CALLVALUE PUSH2 0x305 JUMPI PUSH1 0x20 CALLDATASIZE PUSH1 0x3 NOT ADD SLT PUSH2 0x305 JUMPI PUSH1 0x1 PUSH1 0x1 PUSH1 0xA0 SHL SUB PUSH2 0x374D PUSH2 0x3806 JUMP JUMPDEST AND PUSH1 0x0 MSTORE PUSH1 0x14 PUSH1 0x20 MSTORE PUSH1 0x20 PUSH1 0x40 PUSH1 0x0 KECCAK256 SLOAD PUSH1 0x40 MLOAD SWAP1 DUP2 MSTORE RETURN JUMPDEST CALLVALUE PUSH2 0x305 JUMPI PUSH2 0x3774 CALLDATASIZE PUSH2 0x3832 JUMP JUMPDEST SWAP1 PUSH1 0x0 MSTORE PUSH1 0x18 PUSH1 0x20 MSTORE PUSH1 0x40 PUSH1 0x0 KECCAK256 SWAP1 PUSH1 0x0 MSTORE PUSH1 0x20 MSTORE PUSH1 0x20 PUSH1 0x40 PUSH1 0x0 KECCAK256 SLOAD PUSH1 0x40 MLOAD SWAP1 DUP2 MSTORE RETURN JUMPDEST CALLVALUE PUSH2 0x305 JUMPI PUSH1 0x20 CALLDATASIZE PUSH1 0x3 NOT ADD SLT PUSH2 0x305 JUMPI PUSH2 0x37B2 PUSH2 0x3806 JUMP JUMPDEST PUSH2 0x37BA PUSH2 0x3EDE JUMP JUMPDEST PUSH1 0x1 PUSH1 0x1 PUSH1 0xA0 SHL SUB AND PUSH2 0x37CE DUP2 ISZERO ISZERO PUSH2 0x3ACF JUMP JUMPDEST PUSH1 0x1 PUSH1 0x1 PUSH1 0x60 SHL SUB PUSH1 0xA0 SHL PUSH1 0x5 SLOAD AND OR PUSH1 0x5 SSTORE PUSH1 0x0 DUP1 RETURN JUMPDEST CALLVALUE PUSH2 0x305 JUMPI PUSH1 0x0 CALLDATASIZE PUSH1 0x3 NOT ADD SLT PUSH2 0x305 JUMPI PUSH1 0x20 PUSH1 0x40 MLOAD PUSH5 0xE8D4A51000 DUP2 MSTORE RETURN JUMPDEST PUSH1 0x4 CALLDATALOAD SWAP1 PUSH1 0x1 PUSH1 0x1 PUSH1 0xA0 SHL SUB DUP3 AND DUP3 SUB PUSH2 0x305 JUMPI JUMP JUMPDEST PUSH1 0x24 CALLDATALOAD SWAP1 PUSH1 0x1 PUSH1 0x1 PUSH1 0xA0 SHL SUB DUP3 AND DUP3 SUB PUSH2 0x305 JUMPI JUMP JUMPDEST PUSH1 0x40 SWAP1 PUSH1 0x3 NOT ADD SLT PUSH2 0x305 JUMPI PUSH1 0x4 CALLDATALOAD SWAP1 PUSH1 0x24 CALLDATALOAD SWAP1 JUMP JUMPDEST PUSH1 0x60 SWAP1 PUSH1 0x3 NOT ADD SLT PUSH2 0x305 JUMPI PUSH1 0x4 CALLDATALOAD SWAP1 PUSH1 0x24 CALLDATALOAD SWAP1 PUSH1 0x44 CALLDATALOAD PUSH1 0x1 PUSH1 0x1 PUSH1 0xA0 SHL SUB DUP2 AND DUP2 SUB PUSH2 0x305 JUMPI SWAP1 JUMP JUMPDEST SWAP2 SWAP1 DUP3 MLOAD SWAP3 DUP4 DUP3 MSTORE PUSH1 0x0 JUMPDEST DUP5 DUP2 LT PUSH2 0x389E JUMPI POP POP DUP3 PUSH1 0x0 PUSH1 0x20 DUP1 SWAP5 SWAP6 DUP5 ADD ADD MSTORE PUSH1 0x1F DUP1 NOT SWAP2 ADD AND ADD ADD SWAP1 JUMP JUMPDEST PUSH1 0x20 DUP2 DUP4 ADD DUP2 ADD MLOAD DUP5 DUP4 ADD DUP3 ADD MSTORE ADD PUSH2 0x387D JUMP JUMPDEST SWAP1 PUSH1 0x6 DUP3 LT ISZERO PUSH2 0x5AB JUMPI MSTORE JUMP JUMPDEST SWAP1 PUSH1 0x1 DUP3 DUP2 SHR SWAP3 AND DUP1 ISZERO PUSH2 0x38EF JUMPI JUMPDEST PUSH1 0x20 DUP4 LT EQ PUSH2 0x38D9 JUMPI JUMP JUMPDEST PUSH4 0x4E487B71 PUSH1 0xE0 SHL PUSH1 0x0 MSTORE PUSH1 0x22 PUSH1 0x4 MSTORE PUSH1 0x24 PUSH1 0x0 REVERT JUMPDEST SWAP2 PUSH1 0x7F AND SWAP2 PUSH2 0x38CE JUMP JUMPDEST PUSH1 0xC0 DUP2 ADD SWAP1 DUP2 LT PUSH1 0x1 PUSH1 0x1 PUSH1 0x40 SHL SUB DUP3 GT OR PUSH2 0x11B8 JUMPI PUSH1 0x40 MSTORE JUMP JUMPDEST PUSH2 0x1A0 DUP2 ADD SWAP1 DUP2 LT PUSH1 0x1 PUSH1 0x1 PUSH1 0x40 SHL SUB DUP3 GT OR PUSH2 0x11B8 JUMPI PUSH1 0x40 MSTORE JUMP JUMPDEST PUSH1 0x80 DUP2 ADD SWAP1 DUP2 LT PUSH1 0x1 PUSH1 0x1 PUSH1 0x40 SHL SUB DUP3 GT OR PUSH2 0x11B8 JUMPI PUSH1 0x40 MSTORE JUMP JUMPDEST PUSH2 0x160 DUP2 ADD SWAP1 DUP2 LT PUSH1 0x1 PUSH1 0x1 PUSH1 0x40 SHL SUB DUP3 GT OR PUSH2 0x11B8 JUMPI PUSH1 0x40 MSTORE JUMP JUMPDEST PUSH1 0xA0 DUP2 ADD SWAP1 DUP2 LT PUSH1 0x1 PUSH1 0x1 PUSH1 0x40 SHL SUB DUP3 GT OR PUSH2 0x11B8 JUMPI PUSH1 0x40 MSTORE JUMP JUMPDEST PUSH1 0x60 DUP2 ADD SWAP1 DUP2 LT PUSH1 0x1 PUSH1 0x1 PUSH1 0x40 SHL SUB DUP3 GT OR PUSH2 0x11B8 JUMPI PUSH1 0x40 MSTORE JUMP JUMPDEST SWAP1 PUSH1 0x1F DUP1 NOT SWAP2 ADD AND DUP2 ADD SWAP1 DUP2 LT PUSH1 0x1 PUSH1 0x1 PUSH1 0x40 SHL SUB DUP3 GT OR PUSH2 0x11B8 JUMPI PUSH1 0x40 MSTORE JUMP JUMPDEST SWAP1 PUSH1 0x40 MLOAD SWAP2 DUP3 PUSH1 0x0 DUP3 SLOAD PUSH2 0x39D1 DUP2 PUSH2 0x38BF JUMP JUMPDEST SWAP1 DUP2 DUP5 MSTORE PUSH1 0x20 SWAP5 PUSH1 0x1 SWAP2 PUSH1 0x1 DUP2 AND SWAP1 DUP2 PUSH1 0x0 EQ PUSH2 0x3A41 JUMPI POP PUSH1 0x1 EQ PUSH2 0x3A02 JUMPI JUMPDEST POP POP POP PUSH2 0x3A00 SWAP3 POP SUB DUP4 PUSH2 0x399D JUMP JUMPDEST JUMP JUMPDEST PUSH1 0x0 SWAP1 DUP2 MSTORE DUP6 DUP2 KECCAK256 SWAP6 SWAP4 POP SWAP2 SWAP1 JUMPDEST DUP2 DUP4 LT PUSH2 0x3A29 JUMPI POP POP PUSH2 0x3A00 SWAP4 POP DUP3 ADD ADD CODESIZE DUP1 DUP1 PUSH2 0x39F1 JUMP JUMPDEST DUP6 SLOAD DUP9 DUP5 ADD DUP6 ADD MSTORE SWAP5 DUP6 ADD SWAP5 DUP8 SWAP5 POP SWAP2 DUP4 ADD SWAP2 PUSH2 0x3A10 JUMP JUMPDEST SWAP3 POP POP POP PUSH2 0x3A00 SWAP5 SWAP3 POP PUSH1 0xFF NOT AND DUP3 DUP5 ADD MSTORE ISZERO ISZERO PUSH1 0x5 SHL DUP3 ADD ADD CODESIZE DUP1 DUP1 PUSH2 0x39F1 JUMP JUMPDEST SWAP1 PUSH1 0x3 DUP3 LT ISZERO PUSH2 0x5AB JUMPI MSTORE JUMP JUMPDEST DUP1 SLOAD DUP3 LT ISZERO PUSH2 0x3A8C JUMPI PUSH1 0x0 MSTORE PUSH1 0x6 PUSH1 0x20 PUSH1 0x0 KECCAK256 SWAP2 MUL ADD SWAP1 PUSH1 0x0 SWAP1 JUMP JUMPDEST PUSH4 0x4E487B71 PUSH1 0xE0 SHL PUSH1 0x0 MSTORE PUSH1 0x32 PUSH1 0x4 MSTORE PUSH1 0x24 PUSH1 0x0 REVERT JUMPDEST SWAP2 DUP2 PUSH1 0x1F DUP5 ADD SLT ISZERO PUSH2 0x305 JUMPI DUP3 CALLDATALOAD SWAP2 PUSH1 0x1 PUSH1 0x1 PUSH1 0x40 SHL SUB DUP4 GT PUSH2 0x305 JUMPI PUSH1 0x20 DUP4 DUP2 DUP7 ADD SWAP6 ADD ADD GT PUSH2 0x305 JUMPI JUMP JUMPDEST ISZERO PUSH2 0x3AD6 JUMPI JUMP JUMPDEST PUSH1 0x40 MLOAD PUSH3 0x461BCD PUSH1 0xE5 SHL DUP2 MSTORE PUSH1 0x20 PUSH1 0x4 DUP3 ADD MSTORE PUSH1 0xF PUSH1 0x24 DUP3 ADD MSTORE PUSH15 0x496E76616C69642061646472657373 PUSH1 0x88 SHL PUSH1 0x44 DUP3 ADD MSTORE PUSH1 0x64 SWAP1 REVERT JUMPDEST PUSH1 0x1 PUSH1 0x1 PUSH1 0x40 SHL SUB DUP2 GT PUSH2 0x11B8 JUMPI PUSH1 0x5 SHL PUSH1 0x20 ADD SWAP1 JUMP JUMPDEST ISZERO PUSH2 0x3B2B JUMPI JUMP JUMPDEST PUSH1 0x40 MLOAD PUSH3 0x461BCD PUSH1 0xE5 SHL DUP2 MSTORE PUSH1 0x20 PUSH1 0x4 DUP3 ADD MSTORE PUSH1 0xE PUSH1 0x24 DUP3 ADD MSTORE PUSH14 0x139BDD08185D5D1A1BDC9A5E9959 PUSH1 0x92 SHL PUSH1 0x44 DUP3 ADD MSTORE PUSH1 0x64 SWAP1 REVERT JUMPDEST ISZERO PUSH2 0x3B68 JUMPI JUMP JUMPDEST PUSH1 0x40 MLOAD PUSH3 0x461BCD PUSH1 0xE5 SHL DUP2 MSTORE PUSH1 0x20 PUSH1 0x4 DUP3 ADD MSTORE PUSH1 0x12 PUSH1 0x24 DUP3 ADD MSTORE PUSH18 0x4E6F742070656E64696E6720726576696577 PUSH1 0x70 SHL PUSH1 0x44 DUP3 ADD MSTORE PUSH1 0x64 SWAP1 REVERT JUMPDEST ISZERO PUSH2 0x3BA9 JUMPI JUMP JUMPDEST PUSH1 0x40 MLOAD PUSH3 0x461BCD PUSH1 0xE5 SHL DUP2 MSTORE PUSH1 0x20 PUSH1 0x4 DUP3 ADD MSTORE PUSH1 0xF PUSH1 0x24 DUP3 ADD MSTORE PUSH15 0x2737BA1030903B30B634B230BA37B9 PUSH1 0x89 SHL PUSH1 0x44 DUP3 ADD MSTORE PUSH1 0x64 SWAP1 REVERT JUMPDEST ISZERO PUSH2 0x3BE7 JUMPI JUMP JUMPDEST PUSH1 0x40 MLOAD PUSH3 0x461BCD PUSH1 0xE5 SHL DUP2 MSTORE PUSH1 0x20 PUSH1 0x4 DUP3 ADD MSTORE PUSH1 0xD PUSH1 0x24 DUP3 ADD MSTORE PUSH13 0x92DCECC2D8D2C840D2DCC8CAF PUSH1 0x9B SHL PUSH1 0x44 DUP3 ADD MSTORE PUSH1 0x64 SWAP1 REVERT JUMPDEST ISZERO PUSH2 0x3C23 JUMPI JUMP JUMPDEST PUSH1 0x40 MLOAD PUSH3 0x461BCD PUSH1 0xE5 SHL DUP2 MSTORE PUSH1 0x20 PUSH1 0x4 DUP3 ADD MSTORE PUSH1 0x15 PUSH1 0x24 DUP3 ADD MSTORE PUSH21 0x416C72656164792068617320636F6E73656E737573 PUSH1 0x58 SHL PUSH1 0x44 DUP3 ADD MSTORE PUSH1 0x64 SWAP1 REVERT JUMPDEST SWAP2 SWAP1 DUP3 ADD DUP1 SWAP3 GT PUSH2 0x7E2 JUMPI JUMP JUMPDEST PUSH1 0x0 NOT DUP2 EQ PUSH2 0x7E2 JUMPI PUSH1 0x1 ADD SWAP1 JUMP JUMPDEST PUSH1 0x0 SWAP1 DUP2 MSTORE PUSH1 0x7 PUSH1 0x20 MSTORE PUSH1 0x40 DUP2 KECCAK256 SLOAD SWAP2 DUP3 ISZERO PUSH2 0x3CE2 JUMPI JUMPDEST PUSH5 0xE8D4A51000 DUP2 LT PUSH2 0x3CC3 JUMPI POP PUSH1 0x2 DUP3 ADD DUP1 SWAP3 GT PUSH2 0x3CAF JUMPI POP SWAP1 JUMP JUMPDEST PUSH4 0x4E487B71 PUSH1 0xE0 SHL DUP2 MSTORE PUSH1 0x11 PUSH1 0x4 MSTORE PUSH1 0x24 SWAP1 REVERT JUMPDEST PUSH5 0x174876E800 GT ISZERO PUSH2 0x3CD3 JUMPI POP SWAP1 JUMP JUMPDEST PUSH1 0x1 DUP3 ADD DUP1 SWAP3 GT PUSH2 0x3CAF JUMPI POP SWAP1 JUMP JUMPDEST PUSH1 0x2 SWAP3 POP PUSH2 0x3C93 JUMP JUMPDEST ISZERO PUSH2 0x3CF2 JUMPI JUMP JUMPDEST PUSH1 0x40 MLOAD PUSH3 0x461BCD PUSH1 0xE5 SHL DUP2 MSTORE PUSH1 0x20 PUSH1 0x4 DUP3 ADD MSTORE PUSH1 0x11 PUSH1 0x24 DUP3 ADD MSTORE PUSH17 0x5375626E6574206E6F7420616374697665 PUSH1 0x78 SHL PUSH1 0x44 DUP3 ADD MSTORE PUSH1 0x64 SWAP1 REVERT JUMPDEST DUP2 DUP2 MUL SWAP3 SWAP2 DUP2 ISZERO SWAP2 DUP5 DIV EQ OR ISZERO PUSH2 0x7E2 JUMPI JUMP JUMPDEST DUP2 ISZERO PUSH2 0x3D48 JUMPI DIV SWAP1 JUMP JUMPDEST PUSH4 0x4E487B71 PUSH1 0xE0 SHL PUSH1 0x0 MSTORE PUSH1 0x12 PUSH1 0x4 MSTORE PUSH1 0x24 PUSH1 0x0 REVERT JUMPDEST PUSH1 0x1 PUSH1 0x1 PUSH1 0x40 SHL SUB DUP2 GT PUSH2 0x11B8 JUMPI PUSH1 0x1F ADD PUSH1 0x1F NOT AND PUSH1 0x20 ADD SWAP1 JUMP JUMPDEST SWAP3 SWAP2 SWAP3 PUSH2 0x3D85 DUP3 PUSH2 0x3D5E JUMP JUMPDEST SWAP2 PUSH2 0x3D93 PUSH1 0x40 MLOAD SWAP4 DUP5 PUSH2 0x399D JUMP JUMPDEST DUP3 SWAP5 DUP2 DUP5 MSTORE DUP2 DUP4 ADD GT PUSH2 0x305 JUMPI DUP3 DUP2 PUSH1 0x20 SWAP4 DUP5 PUSH1 0x0 SWAP7 ADD CALLDATACOPY ADD ADD MSTORE JUMP JUMPDEST ISZERO PUSH2 0x3DB7 JUMPI JUMP JUMPDEST PUSH1 0x40 MLOAD PUSH3 0x461BCD PUSH1 0xE5 SHL DUP2 MSTORE PUSH1 0x20 PUSH1 0x4 DUP3 ADD MSTORE PUSH1 0xD PUSH1 0x24 DUP3 ADD MSTORE PUSH13 0x496E76616C69642073636F7265 PUSH1 0x98 SHL PUSH1 0x44 DUP3 ADD MSTORE PUSH1 0x64 SWAP1 REVERT JUMPDEST DUP1 SLOAD DUP3 LT ISZERO PUSH2 0x3A8C JUMPI PUSH1 0x0 MSTORE PUSH1 0x20 PUSH1 0x0 KECCAK256 ADD SWAP1 PUSH1 0x0 SWAP1 JUMP JUMPDEST DUP1 SLOAD PUSH1 0x1 PUSH1 0x40 SHL DUP2 LT ISZERO PUSH2 0x11B8 JUMPI PUSH2 0x3E21 SWAP2 PUSH1 0x1 DUP3 ADD DUP2 SSTORE PUSH2 0x3DEC JUMP JUMPDEST PUSH1 0x1 DUP1 PUSH1 0xA0 SWAP5 SWAP4 SWAP5 SHL SUB DUP1 DUP5 SLOAD SWAP3 PUSH1 0x3 SHL SWAP4 AND DUP4 SHL SWAP3 SHL NOT AND OR SWAP1 SSTORE JUMP JUMPDEST DUP1 ISZERO PUSH2 0x7E2 JUMPI PUSH1 0x0 NOT ADD SWAP1 JUMP JUMPDEST ISZERO PUSH2 0x3E53 JUMPI JUMP JUMPDEST PUSH1 0x40 MLOAD PUSH3 0x461BCD PUSH1 0xE5 SHL DUP2 MSTORE PUSH1 0x20 PUSH1 0x4 DUP3 ADD MSTORE PUSH1 0x10 PUSH1 0x24 DUP3 ADD MSTORE PUSH16 0x2737BA1039BAB13732BA1037BBB732B9 PUSH1 0x81 SHL PUSH1 0x44 DUP3 ADD MSTORE PUSH1 0x64 SWAP1 REVERT JUMPDEST ISZERO PUSH2 0x3E92 JUMPI JUMP JUMPDEST PUSH1 0x40 MLOAD PUSH3 0x461BCD PUSH1 0xE5 SHL DUP2 MSTORE PUSH1 0x20 PUSH1 0x4 DUP3 ADD MSTORE PUSH1 0xC PUSH1 0x24 DUP3 ADD MSTORE PUSH12 0x8CCACA40E8DEDE40D0D2CED PUSH1 0xA3 SHL PUSH1 0x44 DUP3 ADD MSTORE PUSH1 0x64 SWAP1 REVERT JUMPDEST SWAP1 PUSH1 0x3 DUP2 LT ISZERO PUSH2 0x5AB JUMPI PUSH1 0xFF DUP1 NOT DUP4 SLOAD AND SWAP2 AND OR SWAP1 SSTORE JUMP JUMPDEST PUSH1 0x1 SLOAD PUSH1 0x1 PUSH1 0x1 PUSH1 0xA0 SHL SUB AND CALLER SUB PUSH2 0x3EF2 JUMPI JUMP JUMPDEST PUSH1 0x64 PUSH1 0x40 MLOAD PUSH3 0x461BCD PUSH1 0xE5 SHL DUP2 MSTORE PUSH1 0x20 PUSH1 0x4 DUP3 ADD MSTORE PUSH1 0x20 PUSH1 0x24 DUP3 ADD MSTORE PUSH32 0x4F776E61626C653A2063616C6C6572206973206E6F7420746865206F776E6572 PUSH1 0x44 DUP3 ADD MSTORE REVERT JUMPDEST PUSH1 0x2 PUSH1 0x0 SLOAD EQ PUSH2 0x3F47 JUMPI PUSH1 0x2 PUSH1 0x0 SSTORE JUMP JUMPDEST PUSH1 0x40 MLOAD PUSH3 0x461BCD PUSH1 0xE5 SHL DUP2 MSTORE PUSH1 0x20 PUSH1 0x4 DUP3 ADD MSTORE PUSH1 0x1F PUSH1 0x24 DUP3 ADD MSTORE PUSH32 0x5265656E7472616E637947756172643A207265656E7472616E742063616C6C00 PUSH1 0x44 DUP3 ADD MSTORE PUSH1 0x64 SWAP1 REVERT JUMPDEST PUSH1 0xFF PUSH1 0x1 SLOAD PUSH1 0xA0 SHR AND PUSH2 0x3F9B JUMPI JUMP JUMPDEST PUSH1 0x40 MLOAD PUSH3 0x461BCD PUSH1 0xE5 SHL DUP2 MSTORE PUSH1 0x20 PUSH1 0x4 DUP3 ADD MSTORE PUSH1 0x10 PUSH1 0x24 DUP3 ADD MSTORE PUSH16 0x14185D5CD8589B194E881C185D5CD959 PUSH1 0x82 SHL PUSH1 0x44 DUP3 ADD MSTORE PUSH1 0x64 SWAP1 REVERT JUMPDEST SWAP1 PUSH2 0x3FDD DUP3 PUSH2 0x3B0D JUMP JUMPDEST PUSH2 0x3FEA PUSH1 0x40 MLOAD SWAP2 DUP3 PUSH2 0x399D JUMP JUMPDEST DUP3 DUP2 MSTORE DUP1 SWAP3 PUSH2 0x3FFB PUSH1 0x1F NOT SWAP2 PUSH2 0x3B0D JUMP JUMPDEST ADD SWAP1 PUSH1 0x20 CALLDATASIZE SWAP2 ADD CALLDATACOPY JUMP JUMPDEST DUP1 MLOAD DUP3 LT ISZERO PUSH2 0x3A8C JUMPI PUSH1 0x20 SWAP2 PUSH1 0x5 SHL ADD ADD SWAP1 JUMP JUMPDEST SWAP2 SWAP1 DUP3 SUB SWAP2 DUP3 GT PUSH2 0x7E2 JUMPI JUMP JUMPDEST SWAP2 SWAP1 PUSH2 0x4031 DUP3 PUSH2 0x3FD3 JUMP JUMPDEST SWAP3 PUSH1 0x0 SWAP2 DUP2 DUP4 MSTORE PUSH1 0x20 SWAP1 PUSH1 0x12 DUP3 MSTORE PUSH1 0x40 SWAP2 DUP3 DUP6 KECCAK256 DUP3 DUP7 MSTORE DUP2 MSTORE DUP3 DUP6 KECCAK256 SWAP2 DUP7 DUP4 SLOAD SUB PUSH2 0x41A9 JUMPI DUP6 JUMPDEST DUP8 DUP2 LT PUSH2 0x4163 JUMPI POP POP POP POP POP POP PUSH1 0x1 JUMPDEST DUP3 DUP2 LT PUSH2 0x40C6 JUMPI POP PUSH1 0x1 DUP3 DUP2 AND SUB PUSH2 0x408D JUMPI POP SWAP1 PUSH2 0x4089 SWAP2 PUSH1 0x1 SHR SWAP1 PUSH2 0x4005 JUMP JUMPDEST MLOAD SWAP1 JUMP JUMPDEST SWAP1 PUSH1 0x1 SHR SWAP1 PUSH1 0x0 NOT DUP3 ADD SWAP1 DUP3 DUP3 GT PUSH2 0x3CAF JUMPI POP DUP3 SWAP2 PUSH2 0x40B2 PUSH2 0x40B9 SWAP3 PUSH2 0x40C0 SWAP6 PUSH2 0x4005 JUMP JUMPDEST MLOAD SWAP3 PUSH2 0x4005 JUMP JUMPDEST MLOAD SWAP1 PUSH2 0x3C60 JUMP JUMPDEST PUSH1 0x1 SHR SWAP1 JUMP JUMPDEST SWAP1 SWAP4 SWAP3 SWAP2 PUSH2 0x40D4 DUP3 DUP5 PUSH2 0x4005 JUMP JUMPDEST MLOAD SWAP4 DUP3 JUMPDEST DUP1 ISZERO ISZERO DUP1 PUSH2 0x4144 JUMPI JUMPDEST ISZERO PUSH2 0x412A JUMPI PUSH1 0x0 NOT DUP2 ADD DUP2 DUP2 GT PUSH2 0x4116 JUMPI SWAP1 PUSH2 0x4100 PUSH2 0x4111 SWAP3 DUP8 PUSH2 0x4005 JUMP JUMPDEST MLOAD PUSH2 0x410B DUP3 DUP9 PUSH2 0x4005 JUMP JUMPDEST MSTORE PUSH2 0x3E3F JUMP JUMPDEST PUSH2 0x40D8 JUMP JUMPDEST PUSH4 0x4E487B71 PUSH1 0xE0 SHL DUP9 MSTORE PUSH1 0x11 PUSH1 0x4 MSTORE PUSH1 0x24 DUP9 REVERT JUMPDEST SWAP5 PUSH2 0x413D PUSH1 0x1 SWAP4 SWAP6 SWAP7 SWAP8 SWAP5 SWAP3 SWAP8 DUP8 PUSH2 0x4005 JUMP JUMPDEST MSTORE ADD PUSH2 0x4068 JUMP JUMPDEST POP PUSH1 0x0 NOT DUP2 ADD DUP2 DUP2 GT PUSH2 0x4116 JUMPI PUSH2 0x415C DUP8 SWAP2 DUP8 PUSH2 0x4005 JUMP JUMPDEST MLOAD GT PUSH2 0x40E1 JUMP JUMPDEST PUSH1 0x1 SWAP1 DUP7 DUP9 MSTORE PUSH1 0x10 DUP5 MSTORE DUP6 DUP9 KECCAK256 DUP4 DUP10 MSTORE DUP5 MSTORE DUP6 DUP9 KECCAK256 PUSH2 0x4182 DUP3 DUP8 PUSH2 0x3DEC JUMP JUMPDEST DUP5 DUP1 PUSH1 0xA0 SHL SUB SWAP2 SLOAD SWAP1 PUSH1 0x3 SHL SHR AND DUP10 MSTORE DUP5 MSTORE DUP6 DUP9 KECCAK256 SLOAD PUSH2 0x41A2 DUP3 DUP13 PUSH2 0x4005 JUMP JUMPDEST MSTORE ADD PUSH2 0x4058 JUMP JUMPDEST DUP4 MLOAD PUSH3 0x461BCD PUSH1 0xE5 SHL DUP2 MSTORE PUSH1 0x4 DUP2 ADD DUP4 SWAP1 MSTORE PUSH1 0x1B PUSH1 0x24 DUP3 ADD MSTORE PUSH32 0x56616C696461746F7220747261636B696E67206D69736D617463680000000000 PUSH1 0x44 DUP3 ADD MSTORE PUSH1 0x64 SWAP1 REVERT JUMPDEST PUSH1 0x40 MLOAD PUSH4 0xA9059CBB PUSH1 0xE0 SHL PUSH1 0x20 DUP3 ADD MSTORE PUSH1 0x1 PUSH1 0x1 PUSH1 0xA0 SHL SUB SWAP1 SWAP3 AND PUSH1 0x24 DUP4 ADD MSTORE PUSH1 0x44 DUP1 DUP4 ADD SWAP4 SWAP1 SWAP4 MSTORE SWAP2 DUP2 MSTORE PUSH2 0x3A00 SWAP2 PUSH2 0x55A DUP3 PUSH2 0x3930 JUMP JUMPDEST SWAP1 DUP2 PUSH1 0x0 MSTORE PUSH1 0x9 PUSH1 0x20 MSTORE PUSH1 0x1 DUP1 PUSH1 0xA0 SHL SUB PUSH1 0x9 PUSH1 0x40 PUSH1 0x0 KECCAK256 ADD SLOAD PUSH1 0x8 SHR AND PUSH1 0x0 NOT PUSH1 0xA PUSH1 0x20 MSTORE PUSH1 0x40 PUSH1 0x0 KECCAK256 SWAP2 PUSH1 0x0 SWAP1 DUP4 SLOAD SWAP2 JUMPDEST DUP3 DUP2 LT PUSH2 0x4637 JUMPI JUMPDEST POP POP POP PUSH1 0x0 NOT DUP2 EQ PUSH2 0x4628 JUMPI DUP4 PUSH1 0x0 MSTORE PUSH1 0x12 PUSH1 0x20 MSTORE PUSH1 0x40 PUSH1 0x0 KECCAK256 DUP2 PUSH1 0x0 MSTORE PUSH1 0x20 MSTORE PUSH1 0x40 PUSH1 0x0 KECCAK256 SWAP1 DUP2 SLOAD SWAP3 DUP4 ISZERO PUSH2 0x4617 JUMPI PUSH2 0x429D DUP3 PUSH1 0x2 SWAP3 PUSH2 0x3A70 JUMP JUMPDEST POP ADD SLOAD SWAP5 PUSH2 0x42AA DUP5 PUSH2 0x3FD3 JUMP JUMPDEST SWAP2 PUSH1 0x0 SWAP7 PUSH1 0x0 JUMPDEST DUP7 DUP2 LT PUSH2 0x43B8 JUMPI POP POP POP POP DUP5 ISZERO PUSH2 0x43A8 JUMPI PUSH1 0x0 SWAP5 PUSH1 0x0 JUMPDEST DUP5 DUP2 LT PUSH2 0x42F9 JUMPI POP POP POP POP POP DUP1 DUP3 LT PUSH2 0x42DF JUMPI POP POP JUMP JUMPDEST PUSH2 0x42F4 SWAP2 PUSH2 0x42EC SWAP2 PUSH2 0x4019 JUMP JUMPDEST PUSH1 0x6 SLOAD PUSH2 0x3C60 JUMP JUMPDEST PUSH1 0x6 SSTORE JUMP JUMPDEST DUP1 PUSH2 0x4306 PUSH1 0x1 SWAP3 DUP6 PUSH2 0x4005 JUMP JUMPDEST MLOAD ISZERO PUSH2 0x43A3 JUMPI PUSH2 0x4333 PUSH2 0x432C DUP5 PUSH2 0x4327 PUSH2 0x4320 DUP6 DUP10 PUSH2 0x4005 JUMP JUMPDEST MLOAD DUP12 PUSH2 0x3D2B JUMP JUMPDEST PUSH2 0x3D3E JUMP JUMPDEST DUP1 SWAP10 PUSH2 0x3C60 JUMP JUMPDEST SWAP8 PUSH2 0x433E DUP3 DUP8 PUSH2 0x3DEC JUMP JUMPDEST SWAP1 SLOAD SWAP1 PUSH1 0x3 SWAP2 DUP6 DUP1 PUSH1 0xA0 SHL SUB SWAP2 DUP4 SHL SHR AND PUSH1 0x0 MSTORE PUSH1 0x13 PUSH1 0x20 MSTORE PUSH1 0x40 PUSH1 0x0 KECCAK256 PUSH2 0x4367 DUP4 DUP3 SLOAD PUSH2 0x3C60 JUMP JUMPDEST SWAP1 SSTORE PUSH2 0x4373 DUP4 DUP9 PUSH2 0x3DEC JUMP JUMPDEST DUP6 DUP1 PUSH1 0xA0 SWAP5 SWAP4 SWAP5 SHL SUB SWAP3 SLOAD SWAP2 SHL SHR AND PUSH1 0x0 MSTORE PUSH1 0x15 PUSH1 0x20 MSTORE PUSH2 0x439A PUSH1 0x40 PUSH1 0x0 KECCAK256 SWAP2 DUP3 SLOAD PUSH2 0x3C60 JUMP JUMPDEST SWAP1 SSTORE JUMPDEST ADD PUSH2 0x42C8 JUMP JUMPDEST PUSH2 0x439D JUMP JUMPDEST POP POP POP PUSH2 0x42F4 SWAP2 POP PUSH1 0x6 SLOAD PUSH2 0x3C60 JUMP JUMPDEST PUSH2 0x43C2 DUP2 DUP8 PUSH2 0x3DEC JUMP JUMPDEST SWAP10 SWAP1 SLOAD SWAP10 DUP6 PUSH1 0x0 MSTORE PUSH1 0x10 PUSH1 0x20 MSTORE PUSH1 0x40 PUSH1 0x0 KECCAK256 DUP6 PUSH1 0x0 MSTORE PUSH1 0x20 MSTORE PUSH1 0x40 PUSH1 0x0 KECCAK256 PUSH1 0x1 DUP1 PUSH1 0xA0 SHL SUB DUP13 DUP4 PUSH1 0x3 SHL SHR AND PUSH1 0x0 MSTORE PUSH1 0x20 MSTORE PUSH2 0x4403 DUP5 PUSH1 0x40 PUSH1 0x0 KECCAK256 SLOAD PUSH2 0x47B8 JUMP JUMPDEST SWAP11 PUSH1 0x1 DUP1 PUSH1 0xA0 SHL SUB DUP2 DUP4 PUSH1 0x3 SHL SHR AND PUSH1 0x0 MSTORE PUSH1 0x16 PUSH1 0x20 MSTORE PUSH1 0x40 PUSH1 0x0 KECCAK256 SWAP12 PUSH2 0x442A DUP14 SLOAD PUSH2 0x3C6D JUMP JUMPDEST DUP14 SSTORE TIMESTAMP PUSH1 0x3 DUP15 ADD SSTORE PUSH2 0x7D0 DUP2 GT PUSH2 0x456F JUMPI PUSH1 0x1 DUP14 ADD PUSH2 0x4449 DUP2 SLOAD PUSH2 0x3C6D JUMP JUMPDEST SWAP1 SSTORE PUSH1 0x64 PUSH2 0x4457 DUP7 DUP12 PUSH2 0x4005 JUMP JUMPDEST MSTORE PUSH1 0x40 MLOAD SWAP1 PUSH1 0x0 DUP3 MSTORE PUSH1 0x20 DUP3 ADD MSTORE DUP8 PUSH32 0x3D70426D5DE70B5AC8BFF45C3C0CD89DB0E473153868B8C61A938D42002584E8 PUSH1 0x40 PUSH1 0x1 DUP1 PUSH1 0xA0 SHL SUB DUP6 DUP8 PUSH1 0x3 SHL SHR AND SWAP4 LOG3 JUMPDEST DUP12 DUP1 SLOAD SWAP4 DUP5 PUSH2 0x453F JUMPI JUMPDEST PUSH2 0x44AE DUP7 DUP12 PUSH2 0x4005 JUMP JUMPDEST MLOAD SWAP2 PUSH1 0x2 ADD SLOAD SWAP2 DUP3 PUSH2 0x44BF SWAP2 PUSH2 0x3D2B JUMP JUMPDEST PUSH2 0x2710 SWAP1 DIV PUSH2 0x44CE DUP8 DUP13 PUSH2 0x4005 JUMP JUMPDEST MSTORE PUSH2 0x44D9 DUP7 DUP12 PUSH2 0x4005 JUMP JUMPDEST MLOAD PUSH2 0x44E3 SWAP2 PUSH2 0x3C60 JUMP JUMPDEST PUSH1 0x1 SWAP14 SWAP1 SWAP14 ADD SLOAD PUSH1 0x40 DUP1 MLOAD SWAP3 DUP4 MSTORE PUSH1 0x20 DUP4 ADD SWAP6 SWAP1 SWAP6 MSTORE SWAP4 DUP2 ADD SWAP4 SWAP1 SWAP4 MSTORE PUSH1 0x1 PUSH1 0x1 PUSH1 0xA0 SHL SUB PUSH1 0x3 SWAP3 SWAP1 SWAP3 SHL SHR AND SWAP1 PUSH32 0xC2FD17AD7E9F23B8607F0BD02D7A6CDCCCD5A964FA99CE5A066ED34C5B4BB55B SWAP1 PUSH1 0x60 SWAP1 LOG2 PUSH1 0x1 ADD PUSH2 0x42B1 JUMP JUMPDEST SWAP1 PUSH1 0x1 ADD SLOAD SWAP1 PUSH2 0x2710 DUP3 DUP2 DUP2 MUL DIV DUP2 EQ DUP4 ISZERO OR ISZERO PUSH2 0x7E2 JUMPI DUP6 DUP16 SWAP4 SWAP2 PUSH2 0x4565 SWAP3 MUL PUSH2 0x3D3E JUMP JUMPDEST PUSH1 0x2 DUP4 ADD SSTORE PUSH2 0x44A4 JUMP JUMPDEST PUSH2 0x1388 DUP2 GT PUSH2 0x45CB JUMPI PUSH1 0x32 PUSH2 0x4584 DUP7 DUP12 PUSH2 0x4005 JUMP JUMPDEST MSTORE PUSH1 0x40 MLOAD SWAP1 PUSH1 0x0 DUP3 MSTORE PUSH1 0x20 DUP3 ADD MSTORE DUP8 PUSH32 0x3D70426D5DE70B5AC8BFF45C3C0CD89DB0E473153868B8C61A938D42002584E8 PUSH1 0x40 PUSH1 0x1 DUP1 PUSH1 0xA0 SHL SUB DUP6 DUP8 PUSH1 0x3 SHL SHR AND SWAP4 LOG3 PUSH2 0x449A JUMP JUMPDEST PUSH1 0x0 PUSH2 0x45D7 DUP7 DUP12 PUSH2 0x4005 JUMP JUMPDEST MSTORE PUSH1 0x40 MLOAD SWAP1 DUP2 MSTORE DUP8 PUSH32 0x3B3050DF353576101845973A6B18BBCF16A0187F1C80D60D83D95BE509203C51 PUSH1 0x20 PUSH1 0x1 DUP1 PUSH1 0xA0 SHL SUB DUP6 DUP8 PUSH1 0x3 SHL SHR AND SWAP4 LOG3 PUSH2 0x449A JUMP JUMPDEST POP POP POP POP PUSH2 0x42F4 SWAP2 POP PUSH1 0x6 SLOAD PUSH2 0x3C60 JUMP JUMPDEST POP POP PUSH2 0x42F4 SWAP2 POP PUSH1 0x6 SLOAD PUSH2 0x3C60 JUMP JUMPDEST DUP2 PUSH2 0x4642 DUP3 DUP8 PUSH2 0x3A70 JUMP JUMPDEST POP SLOAD PUSH1 0x1 PUSH1 0x1 PUSH1 0xA0 SHL SUB AND EQ DUP1 PUSH2 0x466C JUMPI JUMPDEST PUSH2 0x4660 JUMPI PUSH1 0x1 ADD PUSH2 0x4259 JUMP JUMPDEST SWAP3 POP POP POP CODESIZE DUP1 DUP1 PUSH2 0x4261 JUMP JUMPDEST POP PUSH1 0xFF PUSH1 0x3 PUSH2 0x467B DUP4 DUP9 PUSH2 0x3A70 JUMP JUMPDEST POP ADD SLOAD AND PUSH2 0x4654 JUMP JUMPDEST PUSH1 0x1 DUP1 PUSH1 0xA0 SHL SUB AND SWAP1 PUSH1 0x40 MLOAD PUSH1 0x40 DUP2 ADD SWAP1 DUP1 DUP3 LT PUSH1 0x1 PUSH1 0x1 PUSH1 0x40 SHL SUB DUP4 GT OR PUSH2 0x11B8 JUMPI PUSH2 0x4713 SWAP2 PUSH1 0x40 MSTORE PUSH1 0x20 SWAP4 DUP5 DUP3 MSTORE PUSH32 0x5361666545524332303A206C6F772D6C6576656C2063616C6C206661696C6564 DUP6 DUP4 ADD MSTORE PUSH1 0x0 DUP1 DUP6 DUP8 DUP3 SWAP8 MLOAD SWAP2 ADD DUP3 DUP6 GAS CALL RETURNDATASIZE ISZERO PUSH2 0x47B0 JUMPI RETURNDATASIZE SWAP2 PUSH2 0x46F8 DUP4 PUSH2 0x3D5E JUMP JUMPDEST SWAP3 PUSH2 0x4706 PUSH1 0x40 MLOAD SWAP5 DUP6 PUSH2 0x399D JUMP JUMPDEST DUP4 MSTORE RETURNDATASIZE DUP7 DUP9 DUP6 ADD RETURNDATACOPY PUSH2 0x4809 JUMP JUMPDEST DUP1 MLOAD SWAP2 DUP3 ISZERO SWAP2 DUP5 DUP4 ISZERO PUSH2 0x4785 JUMPI JUMPDEST POP POP POP SWAP1 POP ISZERO PUSH2 0x472E JUMPI POP JUMP JUMPDEST PUSH1 0x84 SWAP1 PUSH1 0x40 MLOAD SWAP1 PUSH3 0x461BCD PUSH1 0xE5 SHL DUP3 MSTORE PUSH1 0x4 DUP3 ADD MSTORE PUSH1 0x2A PUSH1 0x24 DUP3 ADD MSTORE PUSH32 0x5361666545524332303A204552433230206F7065726174696F6E20646964206E PUSH1 0x44 DUP3 ADD MSTORE PUSH10 0x1BDD081CDD58D8D95959 PUSH1 0xB2 SHL PUSH1 0x64 DUP3 ADD MSTORE REVERT JUMPDEST SWAP2 SWAP4 DUP2 DUP1 SWAP5 POP ADD SUB SLT PUSH2 0x47AC JUMPI DUP3 ADD MLOAD SWAP1 DUP2 ISZERO ISZERO DUP3 SUB PUSH2 0x47A9 JUMPI POP DUP1 CODESIZE DUP1 DUP5 PUSH2 0x4721 JUMP JUMPDEST DUP1 REVERT JUMPDEST POP DUP1 REVERT JUMPDEST PUSH1 0x60 SWAP2 PUSH2 0x4809 JUMP JUMPDEST DUP2 ISZERO PUSH2 0x4802 JUMPI DUP2 DUP1 DUP3 GT ISZERO PUSH2 0x47F2 JUMPI PUSH2 0x47D0 SWAP2 PUSH2 0x4019 JUMP JUMPDEST SWAP1 JUMPDEST PUSH2 0x2710 SWAP2 DUP3 DUP2 MUL SWAP3 DUP2 DUP5 DIV EQ SWAP1 ISZERO OR ISZERO PUSH2 0x7E2 JUMPI PUSH2 0x47EF SWAP2 PUSH2 0x3D3E JUMP JUMPDEST SWAP1 JUMP JUMPDEST SWAP1 PUSH2 0x47FC SWAP2 PUSH2 0x4019 JUMP JUMPDEST SWAP1 PUSH2 0x47D2 JUMP JUMPDEST POP POP PUSH1 0x0 SWAP1 JUMP JUMPDEST SWAP2 SWAP3 SWAP1 ISZERO PUSH2 0x486B JUMPI POP DUP2 MLOAD ISZERO PUSH2 0x481D JUMPI POP SWAP1 JUMP JUMPDEST EXTCODESIZE ISZERO PUSH2 0x4826 JUMPI SWAP1 JUMP JUMPDEST PUSH1 0x40 MLOAD PUSH3 0x461BCD PUSH1 0xE5 SHL DUP2 MSTORE PUSH1 0x20 PUSH1 0x4 DUP3 ADD MSTORE PUSH1 0x1D PUSH1 0x24 DUP3 ADD MSTORE PUSH32 0x416464726573733A2063616C6C20746F206E6F6E2D636F6E7472616374000000 PUSH1 0x44 DUP3 ADD MSTORE PUSH1 0x64 SWAP1 REVERT JUMPDEST DUP3 MLOAD SWAP1 SWAP2 POP ISZERO PUSH2 0x487E JUMPI POP DUP1 MLOAD SWAP1 PUSH1 0x20 ADD REVERT JUMPDEST PUSH1 0x40 MLOAD PUSH3 0x461BCD PUSH1 0xE5 SHL DUP2 MSTORE PUSH1 0x20 PUSH1 0x4 DUP3 ADD MSTORE SWAP1 DUP2 SWAP1 PUSH2 0x48A2 SWAP1 PUSH1 0x24 DUP4 ADD SWAP1 PUSH2 0x3872 JUMP JUMPDEST SUB SWAP1 REVERT INVALID LOG2 PUSH5 0x6970667358 0x22 SLT KECCAK256 PUSH24 0x120C770EC19BF28C769F912008F6302357E089D2541AFCC5 CODESIZE EXTCODEHASH PUSH1 0x84 0x23 0xEC 0xE PUSH5 0x736F6C6343 STOP ADDMOD XOR STOP CALLER "},"methodIdentifiers":{"HIGH_VALUE_THRESHOLD()":"ca7b64bb","MAX_SUBNET_FEE_RATE()":"4af93988","PROTOCOL_FEE_RATE()":"10f0dde4","REPUTATION_DECAY_FACTOR()":"3370f06e","SUBNET_REGISTRATION_COST()":"072f4fc0","ULTRA_VALUE_THRESHOLD()":"65617a35","VALIDATOR_REWARD_RATE()":"93af0076","addValidator(uint256,address)":"4b561753","commitCount(uint256,uint256)":"0ebac45a","commitPhaseDuration()":"483b4039","commitPhaseStart(uint256,uint256)":"77ad68da","commitScore(uint256,uint256,bytes32)":"1dd73e0d","createTask(uint256,string,uint256,uint256)":"5cc9bca9","finalizeTask(uint256)":"88488c33","getActiveSubnetCount()":"c6a1a01a","getAdaptiveMinValidations(uint256,uint256)":"24c3fd2f","getCommitHash(uint256,bytes32)":"9d7eea9f","getSubmissionCount(uint256)":"7be24cb8","getSubmissions(uint256)":"16c53ced","getSubnet(uint256)":"58ca7504","getTask(uint256)":"1d65e77e","getValidatorScore(uint256,uint256,address)":"d65314b3","hasMinerSubmitted(uint256,address)":"ac64c822","hasValidatorScored(uint256,uint256,address)":"7ca0ad2d","isMiner(uint256,address)":"8ee9f6dc","isValidator(uint256,address)":"23f2a73f","mdtToken()":"f70b5c06","minerEarnings(address)":"0f0da719","owner()":"8da5cb5b","paused()":"5c975abb","pendingWithdrawals(address)":"f3f43703","portReputation(uint256,uint256)":"be123323","protocolTreasury()":"803db96d","registerMiner(uint256)":"6f5474bf","registerSubnet(string,string,uint256)":"927229c6","removeValidator(uint256,address)":"6a0cd1f5","renounceOwnership()":"715018a6","revealCount(uint256,uint256)":"b46e7424","revealPhaseDuration()":"dfc75372","revealScore(uint256,uint256,uint256,bytes32)":"68a7f826","setCommitRevealConfig(uint256,uint256)":"3f422ef3","setMinValidations(uint256,uint256)":"1dc375b9","setProtocolTreasury(address)":"0c5a61f8","submitResult(uint256,string)":"8c0dd79a","subnetCount()":"916a5c5b","subnetMinValidations(uint256)":"10c6bd25","subnetMinerCount(uint256)":"2fa70f48","subnetMiners(uint256,address)":"8c0a4a05","subnetValidatorCount(uint256)":"51b15b8a","subnetValidators(uint256,address)":"a3be1eab","subnets(uint256)":"475726f7","taskSubmissions(uint256,uint256)":"53eea875","tasks(uint256)":"8d977672","totalProtocolFees()":"f526e39a","transferOwnership(address)":"f2fde38b","unregisterSubnet(uint256)":"d1faf406","updateSubnet(uint256,uint256,uint8)":"7b617482","validateSubmission(uint256,uint256,uint256)":"b7ee5eda","validationCommits(uint256,uint256,address)":"3c9a6bf3","validatorEarnings(address)":"39388006","validatorReputation(address)":"d1270485","validatorScores(uint256,uint256,address)":"0fb6d805","withdrawEarnings()":"b73c6ce9","withdrawProtocolFees()":"8795cccb"}}}}}