{
  "_format": "hh-sol-artifact-1",
  "contractName": "StakingVault",
  "sourceName": "src/StakingVault.sol",
  "abi": [
    {
      "inputs": [
        {
          "internalType": "address",
          "name": "_mdtToken",
          "type": "address"
        }
      ],
      "stateMutability": "nonpayable",
      "type": "constructor"
    },
    {
      "anonymous": false,
      "inputs": [
        {
          "indexed": true,
          "internalType": "address",
          "name": "previousOwner",
          "type": "address"
        },
        {
          "indexed": true,
          "internalType": "address",
          "name": "newOwner",
          "type": "address"
        }
      ],
      "name": "OwnershipTransferred",
      "type": "event"
    },
    {
      "anonymous": false,
      "inputs": [
        {
          "indexed": false,
          "internalType": "address",
          "name": "account",
          "type": "address"
        }
      ],
      "name": "Paused",
      "type": "event"
    },
    {
      "anonymous": false,
      "inputs": [
        {
          "indexed": true,
          "internalType": "address",
          "name": "user",
          "type": "address"
        },
        {
          "indexed": false,
          "internalType": "uint256",
          "name": "amount",
          "type": "uint256"
        },
        {
          "indexed": false,
          "internalType": "string",
          "name": "reason",
          "type": "string"
        }
      ],
      "name": "Slashed",
      "type": "event"
    },
    {
      "anonymous": false,
      "inputs": [
        {
          "indexed": true,
          "internalType": "address",
          "name": "user",
          "type": "address"
        },
        {
          "indexed": false,
          "internalType": "uint256",
          "name": "additionalAmount",
          "type": "uint256"
        },
        {
          "indexed": false,
          "internalType": "uint256",
          "name": "newTotal",
          "type": "uint256"
        }
      ],
      "name": "StakeIncreased",
      "type": "event"
    },
    {
      "anonymous": false,
      "inputs": [
        {
          "indexed": true,
          "internalType": "address",
          "name": "user",
          "type": "address"
        },
        {
          "indexed": false,
          "internalType": "uint256",
          "name": "amount",
          "type": "uint256"
        },
        {
          "indexed": false,
          "internalType": "enum StakingVault.StakeRole",
          "name": "role",
          "type": "uint8"
        }
      ],
      "name": "Staked",
      "type": "event"
    },
    {
      "anonymous": false,
      "inputs": [
        {
          "indexed": false,
          "internalType": "address",
          "name": "account",
          "type": "address"
        }
      ],
      "name": "Unpaused",
      "type": "event"
    },
    {
      "anonymous": false,
      "inputs": [
        {
          "indexed": true,
          "internalType": "address",
          "name": "user",
          "type": "address"
        },
        {
          "indexed": false,
          "internalType": "uint256",
          "name": "amount",
          "type": "uint256"
        }
      ],
      "name": "UnstakeRequested",
      "type": "event"
    },
    {
      "anonymous": false,
      "inputs": [
        {
          "indexed": true,
          "internalType": "address",
          "name": "user",
          "type": "address"
        },
        {
          "indexed": false,
          "internalType": "uint256",
          "name": "amount",
          "type": "uint256"
        }
      ],
      "name": "Withdrawn",
      "type": "event"
    },
    {
      "inputs": [],
      "name": "BURN_ADDRESS",
      "outputs": [
        {
          "internalType": "address",
          "name": "",
          "type": "address"
        }
      ],
      "stateMutability": "view",
      "type": "function"
    },
    {
      "inputs": [],
      "name": "activeMinerCount",
      "outputs": [
        {
          "internalType": "uint256",
          "name": "",
          "type": "uint256"
        }
      ],
      "stateMutability": "view",
      "type": "function"
    },
    {
      "inputs": [],
      "name": "activeValidatorCount",
      "outputs": [
        {
          "internalType": "uint256",
          "name": "",
          "type": "uint256"
        }
      ],
      "stateMutability": "view",
      "type": "function"
    },
    {
      "inputs": [
        {
          "internalType": "address",
          "name": "user",
          "type": "address"
        }
      ],
      "name": "getStakeInfo",
      "outputs": [
        {
          "internalType": "uint256",
          "name": "amount",
          "type": "uint256"
        },
        {
          "internalType": "enum StakingVault.StakeRole",
          "name": "role",
          "type": "uint8"
        },
        {
          "internalType": "uint256",
          "name": "stakedAt",
          "type": "uint256"
        },
        {
          "internalType": "uint256",
          "name": "unstakeRequestedAt",
          "type": "uint256"
        },
        {
          "internalType": "bool",
          "name": "isActive",
          "type": "bool"
        }
      ],
      "stateMutability": "view",
      "type": "function"
    },
    {
      "inputs": [
        {
          "internalType": "address",
          "name": "user",
          "type": "address"
        }
      ],
      "name": "isMiner",
      "outputs": [
        {
          "internalType": "bool",
          "name": "",
          "type": "bool"
        }
      ],
      "stateMutability": "view",
      "type": "function"
    },
    {
      "inputs": [
        {
          "internalType": "address",
          "name": "user",
          "type": "address"
        }
      ],
      "name": "isStaked",
      "outputs": [
        {
          "internalType": "bool",
          "name": "",
          "type": "bool"
        }
      ],
      "stateMutability": "view",
      "type": "function"
    },
    {
      "inputs": [
        {
          "internalType": "address",
          "name": "user",
          "type": "address"
        }
      ],
      "name": "isValidator",
      "outputs": [
        {
          "internalType": "bool",
          "name": "",
          "type": "bool"
        }
      ],
      "stateMutability": "view",
      "type": "function"
    },
    {
      "inputs": [],
      "name": "mdtToken",
      "outputs": [
        {
          "internalType": "contract IERC20",
          "name": "",
          "type": "address"
        }
      ],
      "stateMutability": "view",
      "type": "function"
    },
    {
      "inputs": [],
      "name": "minMinerStake",
      "outputs": [
        {
          "internalType": "uint256",
          "name": "",
          "type": "uint256"
        }
      ],
      "stateMutability": "view",
      "type": "function"
    },
    {
      "inputs": [],
      "name": "minValidatorStake",
      "outputs": [
        {
          "internalType": "uint256",
          "name": "",
          "type": "uint256"
        }
      ],
      "stateMutability": "view",
      "type": "function"
    },
    {
      "inputs": [],
      "name": "owner",
      "outputs": [
        {
          "internalType": "address",
          "name": "",
          "type": "address"
        }
      ],
      "stateMutability": "view",
      "type": "function"
    },
    {
      "inputs": [],
      "name": "pause",
      "outputs": [],
      "stateMutability": "nonpayable",
      "type": "function"
    },
    {
      "inputs": [],
      "name": "paused",
      "outputs": [
        {
          "internalType": "bool",
          "name": "",
          "type": "bool"
        }
      ],
      "stateMutability": "view",
      "type": "function"
    },
    {
      "inputs": [],
      "name": "renounceOwnership",
      "outputs": [],
      "stateMutability": "nonpayable",
      "type": "function"
    },
    {
      "inputs": [],
      "name": "requestUnstake",
      "outputs": [],
      "stateMutability": "nonpayable",
      "type": "function"
    },
    {
      "inputs": [
        {
          "internalType": "uint256",
          "name": "_min",
          "type": "uint256"
        }
      ],
      "name": "setMinMinerStake",
      "outputs": [],
      "stateMutability": "nonpayable",
      "type": "function"
    },
    {
      "inputs": [
        {
          "internalType": "uint256",
          "name": "_min",
          "type": "uint256"
        }
      ],
      "name": "setMinValidatorStake",
      "outputs": [],
      "stateMutability": "nonpayable",
      "type": "function"
    },
    {
      "inputs": [
        {
          "internalType": "uint256",
          "name": "_cooldown",
          "type": "uint256"
        }
      ],
      "name": "setUnstakeCooldown",
      "outputs": [],
      "stateMutability": "nonpayable",
      "type": "function"
    },
    {
      "inputs": [
        {
          "internalType": "address",
          "name": "user",
          "type": "address"
        },
        {
          "internalType": "uint256",
          "name": "basisPoints",
          "type": "uint256"
        },
        {
          "internalType": "string",
          "name": "reason",
          "type": "string"
        }
      ],
      "name": "slash",
      "outputs": [],
      "stateMutability": "nonpayable",
      "type": "function"
    },
    {
      "inputs": [
        {
          "internalType": "uint256",
          "name": "amount",
          "type": "uint256"
        },
        {
          "internalType": "enum StakingVault.StakeRole",
          "name": "role",
          "type": "uint8"
        }
      ],
      "name": "stake",
      "outputs": [],
      "stateMutability": "nonpayable",
      "type": "function"
    },
    {
      "inputs": [
        {
          "internalType": "address",
          "name": "",
          "type": "address"
        }
      ],
      "name": "stakes",
      "outputs": [
        {
          "internalType": "uint256",
          "name": "amount",
          "type": "uint256"
        },
        {
          "internalType": "enum StakingVault.StakeRole",
          "name": "role",
          "type": "uint8"
        },
        {
          "internalType": "uint256",
          "name": "stakedAt",
          "type": "uint256"
        },
        {
          "internalType": "uint256",
          "name": "unstakeRequestedAt",
          "type": "uint256"
        },
        {
          "internalType": "bool",
          "name": "isActive",
          "type": "bool"
        }
      ],
      "stateMutability": "view",
      "type": "function"
    },
    {
      "inputs": [],
      "name": "totalSlashed",
      "outputs": [
        {
          "internalType": "uint256",
          "name": "",
          "type": "uint256"
        }
      ],
      "stateMutability": "view",
      "type": "function"
    },
    {
      "inputs": [],
      "name": "totalStaked",
      "outputs": [
        {
          "internalType": "uint256",
          "name": "",
          "type": "uint256"
        }
      ],
      "stateMutability": "view",
      "type": "function"
    },
    {
      "inputs": [
        {
          "internalType": "address",
          "name": "newOwner",
          "type": "address"
        }
      ],
      "name": "transferOwnership",
      "outputs": [],
      "stateMutability": "nonpayable",
      "type": "function"
    },
    {
      "inputs": [],
      "name": "unpause",
      "outputs": [],
      "stateMutability": "nonpayable",
      "type": "function"
    },
    {
      "inputs": [],
      "name": "unstakeCooldown",
      "outputs": [
        {
          "internalType": "uint256",
          "name": "",
          "type": "uint256"
        }
      ],
      "stateMutability": "view",
      "type": "function"
    },
    {
      "inputs": [],
      "name": "withdraw",
      "outputs": [],
      "stateMutability": "nonpayable",
      "type": "function"
    }
  ],
  "bytecode": "0x60803461012357601f6115e338819003918201601f19168301916001600160401b038311848410176101285780849260209460405283398101031261012357516001600160a01b038082169182900361012357600160005560015460405191339082167f8be0079c531659141344cd1fd0a4f28419497f9722a3daafe3b4186f6b6457e0600080a36001600160a81b0319163360ff60a01b19161760015564174876e80060035565048c2739500060045562093a8060055581156100e15750600280546001600160a01b0319169190911790556040516114a4908161013f8239f35b62461bcd60e51b815260206004820152601560248201527f496e76616c696420746f6b656e206164647265737300000000000000000000006044820152606490fd5b600080fd5b634e487b7160e01b600052604160045260246000fdfe608060408181526004918236101561001657600080fd5b600092833560e01c918263017ddd3514610c3f5750816310087fb114610c0057816316934fc41461047a5781632340e8d314610be15781633ccfd60b14610a5c5781633f4ba83a146109c057816342d18cca146109a15781635c975abb1461097a5781636177fd181461093a578163678b3ee2146106af578163701b70ac14610642578163715018a6146105e55781637eefd5ae146105c6578163817b1cd2146105a75781638456cb59146105465781638da5cb5b1461051d578163a201bbdd146104fe578163a3158b53146104dc578163c34531531461047a578163c69aaedf1461045b578163d11fa42914610439578163d360158514610417578163f2fde38b1461034b578163f70b5c0614610322578163facd743b146102a1578163fc63958e1461016d575063fccc28131461014e57600080fd5b346101695781600319360112610169576020905161dead8152f35b5080fd5b90503461029d578260031936011261029d576101876110d4565b338352600860205281832090808201805460ff81161561026d576003840180546102365742905560ff19169055600182015460ff169060038210156102235750600103610210576101d96009546110c7565b6009555b5490519081527f828764c21e74c28710e19919735825aba966621c95cbd913f8ed65a2d298f48c60203392a26001815580f35b61021b600a546110c7565b600a556101dd565b634e487b7160e01b855260219052602484fd5b855162461bcd60e51b81526020818601526011602482015270105b1c9958591e481c995c5d595cdd1959607a1b6044820152606490fd5b845162461bcd60e51b8152602081850152600a602482015269139bdd081cdd185ad95960b21b6044820152606490fd5b8280fd5b838334610169576020366003190112610169576001600160a01b036102c4610c5a565b16825260086020528082209160ff848401541692836102ea575b60208484519015158152f35b60ff91929350600101541692600384101561030f5750506002602092149083806102de565b634e487b7160e01b825260219052602490fd5b50503461016957816003193601126101695760025490516001600160a01b039091168152602090f35b90503461029d57602036600319011261029d57610366610c5a565b9061036f6111cc565b6001600160a01b039182169283156103c5575050600154826bffffffffffffffffffffffff60a01b821617600155167f8be0079c531659141344cd1fd0a4f28419497f9722a3daafe3b4186f6b6457e08380a380f35b906020608492519162461bcd60e51b8352820152602660248201527f4f776e61626c653a206e6577206f776e657220697320746865207a65726f206160448201526564647265737360d01b6064820152fd5b839034610169576020366003190112610169576104326111cc565b8035905580f35b839034610169576020366003190112610169576104546111cc565b3560035580f35b5050346101695781600319360112610169576020906009549051908152f35b8284346104d95760203660031901126104d9576104d59082906001600160a01b036104a3610c5a565b1681526008602052209182549260ff6001820154169460ff600283015491600384015493015416925195869586610c98565b0390f35b80fd5b839034610169576020366003190112610169576104f76111cc565b3560055580f35b5050346101695781600319360112610169576020906007549051908152f35b50503461016957816003193601126101695760015490516001600160a01b039091168152602090f35b50503461016957816003193601126101695760207f62e78cea01bee320cd4e420270b5ea74000d11b0c9f74754ebdbfc544b05a258916105846111cc565b61058c61112a565b6001805460ff60a01b1916600160a01b17905551338152a180f35b5050346101695781600319360112610169576020906006549051908152f35b5050346101695781600319360112610169576020906005549051908152f35b83346104d957806003193601126104d9576105fe6111cc565b600180546001600160a01b0319811690915581906001600160a01b03167f8be0079c531659141344cd1fd0a4f28419497f9722a3daafe3b4186f6b6457e08280a380f35b838334610169576020366003190112610169576001600160a01b03610665610c5a565b16825260086020528082209160ff8484015416928361068a5760208484519015158152f35b60ff91929350600101541692600384101561030f5750506001602092149083806102de565b83915034610169576060366003190112610169576106cb610c5a565b9260249384359060443567ffffffffffffffff918282116109365736602383011215610936578186013592831161093657368884840101116109365761070f6111cc565b6107176110d4565b8315158061092a575b156108f15760018060a01b038091169586885260086020528588209081549586156108bb5780870290878204036108a957612710610760910480976110ba565b825561076e866006546110ba565b60065561077d86600754610cc6565b60075560ff60018301541690600382101561089757936108148694606097948d947f7e947095ed288d8885423bdaef4015b7420ffa9b84d62ef67c402e8bc36a8ea99b9a986002821460001461088f5780545b83541080610882575b610846575b5050506002541688519063a9059cbb60e01b602083015261dead858301528760448301526044825261080f82610ce9565b611224565b828751978896875280602088015286015201848401378181018301879052601f01601f19168101030190a26001815580f35b909101805460ff1916905560010361086f576108636009546110c7565b6009555b8c80806107de565b61087a600a546110c7565b600a55610867565b5060ff81840154166107d9565b6003546107d0565b634e487b7160e01b8a52602190528989fd5b634e487b7160e01b8a52601182528a8afd5b875162461bcd60e51b81526020818401526011818d01527009cde40e6e8c2d6ca40e8de40e6d8c2e6d607b1b6044820152606490fd5b845162461bcd60e51b81526020818801526014818a015273496e76616c696420626173697320706f696e747360601b6044820152606490fd5b50612710841115610720565b8680fd5b90503461029d57602036600319011261029d5760209260ff919083906001600160a01b03610966610c5a565b168152600886522001541690519015158152f35b50503461016957816003193601126101695760209060ff60015460a01c1690519015158152f35b5050346101695781600319360112610169576020906003549051908152f35b90503461029d578260031936011261029d576109da6111cc565b6001549060ff8260a01c1615610a22575060ff60a01b1916600155513381527f5db9ee0a495bf2e6ff9c91a7834c1ba4fdd244a5e8aa4e537bd38aeae4b073aa90602090a180f35b606490602084519162461bcd60e51b8352820152601460248201527314185d5cd8589b194e881b9bdd081c185d5cd95960621b6044820152fd5b9190503461029d578260031936011261029d57610a776110d4565b33835260209060088252808420600381019081548015610ba957600554610a9d91610cc6565b4210610b6f578054948515610b3657507f7084f5476618d8e60b11ef0d7d3f06914655adb8793e28ff7f018d4c76d505d5939291600182888094550160ff19815416905555610aee846006546110ba565b600655600254815163a9059cbb60e01b8482015233602482015260448082018790528152610b28916001600160a01b031661080f82610ce9565b519283523392a26001815580f35b835162461bcd60e51b815290810185905260136024820152724e6f7468696e6720746f20776974686472617760681b6044820152606490fd5b50505162461bcd60e51b815291820152601460248201527310dbdbdb191bdddb881b9bdd08195e1c1a5c995960621b604482015260649150fd5b835162461bcd60e51b81528087018690526012602482015271139bc81d5b9cdd185ad9481c995c5d595cdd60721b6044820152606490fd5b505034610169578160031936011261016957602090600a549051908152f35b9190503461029d5736600319011261016957602435600381101561029d57610c3891610c2a6110d4565b610c3261112a565b35610d2a565b6001815580f35b84913461029d578260031936011261029d5760209250548152f35b600435906001600160a01b0382168203610c7057565b600080fd5b906003821015610c825752565b634e487b7160e01b600052602160045260246000fd5b939095949192610cb560809460a087019887526020870190610c75565b604085015260608401521515910152565b91908201809211610cd357565b634e487b7160e01b600052601160045260246000fd5b6080810190811067ffffffffffffffff821117610d0557604052565b634e487b7160e01b600052604160045260246000fd5b6000198114610cd35760010190565b600380831015939284610c825760018114918280156110ac575b1561107857831561103e57600092338452602091600883526040948581209860049960ff8b82015416610f175750610f045760028503610efd5788545b8710610ec457855160a0810181811067ffffffffffffffff821117610eb1578752878152848101928684528782014281526060830190848252608084019560018752338652600889528a8620945185556001850190519584871015610e9d5750927f8acf475137e0cd74ca7f611d16b1e6383ec9a9c71a8e5b85967781b9c7214d119b9c9d92610e859a99989796959260ff958619978789835416911617905551600284015551908201550192511515918354169116179055610e4687600654610cc6565b60065515610e8a57610e59600954610d1b565b6009555b600254610e78908790309033906001600160a01b0316611171565b8351958652850190610c75565b3392a2565b610e95600a54610d1b565b600a55610e5d565b634e487b7160e01b815260218f5260249150fd5b634e487b7160e01b835260418b52602483fd5b855162461bcd60e51b8152808a01859052601360248201527242656c6f77206d696e696d756d207374616b6560681b6044820152606490fd5b8154610d81565b634e487b7160e01b815260218952602490fd5b959293509060ff6001879b9698999a9b0154169161102b578382101561102b575003610fe857820154610faf57509081610f74857fe6afb5ca7cc84435baf09da39fcb42fc0fb8bdfef6c3ff2ce9fce2c70a18f821959454610cc6565b8155610f8285600654610cc6565b600655600254610fa0908690309033906001600160a01b0316611171565b549082519485528401523392a2565b835162461bcd60e51b81529081018390526013602482015272556e7374616b6520696e2070726f677265737360681b6044820152606490fd5b845162461bcd60e51b8152808301859052601f60248201527f43616e6e6f74206368616e676520726f6c65207768696c65207374616b6564006044820152606490fd5b634e487b7160e01b815260218552602490fd5b60405162461bcd60e51b81526020600482015260126024820152710416d6f756e74206d757374206265203e20360741b6044820152606490fd5b60405162461bcd60e51b815260206004820152600c60248201526b496e76616c696420726f6c6560a01b6044820152606490fd5b506000955060028214610d44565b91908203918211610cd357565b8015610cd3576000190190565b6002600054146110e5576002600055565b60405162461bcd60e51b815260206004820152601f60248201527f5265656e7472616e637947756172643a207265656e7472616e742063616c6c006044820152606490fd5b60ff60015460a01c1661113957565b60405162461bcd60e51b815260206004820152601060248201526f14185d5cd8589b194e881c185d5cd95960821b6044820152606490fd5b6040516323b872dd60e01b60208201526001600160a01b03928316602482015292909116604483015260648083019390935291815260a081019181831067ffffffffffffffff841117610d05576111ca92604052611224565b565b6001546001600160a01b031633036111e057565b606460405162461bcd60e51b815260206004820152602060248201527f4f776e61626c653a2063616c6c6572206973206e6f7420746865206f776e65726044820152fd5b6040805167ffffffffffffffff94936001600160a01b03909316929080830186811182821017610d055783526020938482527f5361666545524332303a206c6f772d6c6576656c2063616c6c206661696c6564858301526000808487829651910182855af13d1561138d573d9188831161137957601f1992865193603f81601f8401160116840199848b10908b111761136557869798996112cf96975283528286893d92013e61139a565b805191821591858315611341575b5050509050156112eb575050565b60849250519062461bcd60e51b82526004820152602a60248201527f5361666545524332303a204552433230206f7065726174696f6e20646964206e6044820152691bdd081cdd58d8d9595960b21b6064820152fd5b919381809450010312610169578301519081151582036104d95750803880856112dd565b634e487b7160e01b86526041600452602486fd5b634e487b7160e01b85526041600452602485fd5b6112cf9394959697506060915b919290156113fc57508151156113ae575090565b3b156113b75790565b60405162461bcd60e51b815260206004820152601d60248201527f416464726573733a2063616c6c20746f206e6f6e2d636f6e74726163740000006044820152606490fd5b82519091501561140f5750805190602001fd5b6040519062461bcd60e51b82528160208060048301528251908160248401526000935b828510611455575050604492506000838284010152601f80199101168101030190fd5b848101820151868601604401529381019385935061143256fea264697066735822122087446be3028011ad100ace53b29b58b6a79d48148eb8b17cc4ce1d58cecc371064736f6c63430008180033",
  "linkReferences": {},
  "deployedLinkReferences": {}
}