{
  "_format": "hh-sol-artifact-1",
  "contractName": "StakingVault",
  "sourceName": "src/StakingVault.sol",
  "abi": [
    {
      "inputs": [
        {
          "internalType": "address",
          "name": "_mdtToken",
          "type": "address"
        }
      ],
      "stateMutability": "nonpayable",
      "type": "constructor"
    },
    {
      "anonymous": false,
      "inputs": [
        {
          "indexed": false,
          "internalType": "uint256",
          "name": "oldValue",
          "type": "uint256"
        },
        {
          "indexed": false,
          "internalType": "uint256",
          "name": "newValue",
          "type": "uint256"
        }
      ],
      "name": "MinMinerStakeUpdated",
      "type": "event"
    },
    {
      "anonymous": false,
      "inputs": [
        {
          "indexed": false,
          "internalType": "uint256",
          "name": "oldValue",
          "type": "uint256"
        },
        {
          "indexed": false,
          "internalType": "uint256",
          "name": "newValue",
          "type": "uint256"
        }
      ],
      "name": "MinValidatorStakeUpdated",
      "type": "event"
    },
    {
      "anonymous": false,
      "inputs": [
        {
          "indexed": true,
          "internalType": "address",
          "name": "previousOwner",
          "type": "address"
        },
        {
          "indexed": true,
          "internalType": "address",
          "name": "newOwner",
          "type": "address"
        }
      ],
      "name": "OwnershipTransferred",
      "type": "event"
    },
    {
      "anonymous": false,
      "inputs": [
        {
          "indexed": false,
          "internalType": "address",
          "name": "account",
          "type": "address"
        }
      ],
      "name": "Paused",
      "type": "event"
    },
    {
      "anonymous": false,
      "inputs": [
        {
          "indexed": true,
          "internalType": "address",
          "name": "user",
          "type": "address"
        },
        {
          "indexed": false,
          "internalType": "uint256",
          "name": "amount",
          "type": "uint256"
        },
        {
          "indexed": false,
          "internalType": "string",
          "name": "reason",
          "type": "string"
        }
      ],
      "name": "Slashed",
      "type": "event"
    },
    {
      "anonymous": false,
      "inputs": [
        {
          "indexed": true,
          "internalType": "address",
          "name": "user",
          "type": "address"
        },
        {
          "indexed": false,
          "internalType": "uint256",
          "name": "additionalAmount",
          "type": "uint256"
        },
        {
          "indexed": false,
          "internalType": "uint256",
          "name": "newTotal",
          "type": "uint256"
        }
      ],
      "name": "StakeIncreased",
      "type": "event"
    },
    {
      "anonymous": false,
      "inputs": [
        {
          "indexed": true,
          "internalType": "address",
          "name": "user",
          "type": "address"
        },
        {
          "indexed": false,
          "internalType": "uint256",
          "name": "amount",
          "type": "uint256"
        },
        {
          "indexed": false,
          "internalType": "enum StakingVault.StakeRole",
          "name": "role",
          "type": "uint8"
        }
      ],
      "name": "Staked",
      "type": "event"
    },
    {
      "anonymous": false,
      "inputs": [
        {
          "indexed": false,
          "internalType": "address",
          "name": "account",
          "type": "address"
        }
      ],
      "name": "Unpaused",
      "type": "event"
    },
    {
      "anonymous": false,
      "inputs": [
        {
          "indexed": false,
          "internalType": "uint256",
          "name": "oldValue",
          "type": "uint256"
        },
        {
          "indexed": false,
          "internalType": "uint256",
          "name": "newValue",
          "type": "uint256"
        }
      ],
      "name": "UnstakeCooldownUpdated",
      "type": "event"
    },
    {
      "anonymous": false,
      "inputs": [
        {
          "indexed": true,
          "internalType": "address",
          "name": "user",
          "type": "address"
        },
        {
          "indexed": false,
          "internalType": "uint256",
          "name": "amount",
          "type": "uint256"
        }
      ],
      "name": "UnstakeRequested",
      "type": "event"
    },
    {
      "anonymous": false,
      "inputs": [
        {
          "indexed": true,
          "internalType": "address",
          "name": "user",
          "type": "address"
        },
        {
          "indexed": false,
          "internalType": "uint256",
          "name": "amount",
          "type": "uint256"
        }
      ],
      "name": "Withdrawn",
      "type": "event"
    },
    {
      "inputs": [],
      "name": "BURN_ADDRESS",
      "outputs": [
        {
          "internalType": "address",
          "name": "",
          "type": "address"
        }
      ],
      "stateMutability": "view",
      "type": "function"
    },
    {
      "inputs": [],
      "name": "activeMinerCount",
      "outputs": [
        {
          "internalType": "uint256",
          "name": "",
          "type": "uint256"
        }
      ],
      "stateMutability": "view",
      "type": "function"
    },
    {
      "inputs": [],
      "name": "activeValidatorCount",
      "outputs": [
        {
          "internalType": "uint256",
          "name": "",
          "type": "uint256"
        }
      ],
      "stateMutability": "view",
      "type": "function"
    },
    {
      "inputs": [
        {
          "internalType": "address",
          "name": "user",
          "type": "address"
        }
      ],
      "name": "getStakeInfo",
      "outputs": [
        {
          "internalType": "uint256",
          "name": "amount",
          "type": "uint256"
        },
        {
          "internalType": "enum StakingVault.StakeRole",
          "name": "role",
          "type": "uint8"
        },
        {
          "internalType": "uint256",
          "name": "stakedAt",
          "type": "uint256"
        },
        {
          "internalType": "uint256",
          "name": "unstakeRequestedAt",
          "type": "uint256"
        },
        {
          "internalType": "bool",
          "name": "isActive",
          "type": "bool"
        }
      ],
      "stateMutability": "view",
      "type": "function"
    },
    {
      "inputs": [
        {
          "internalType": "address",
          "name": "user",
          "type": "address"
        }
      ],
      "name": "isMiner",
      "outputs": [
        {
          "internalType": "bool",
          "name": "",
          "type": "bool"
        }
      ],
      "stateMutability": "view",
      "type": "function"
    },
    {
      "inputs": [
        {
          "internalType": "address",
          "name": "user",
          "type": "address"
        }
      ],
      "name": "isStaked",
      "outputs": [
        {
          "internalType": "bool",
          "name": "",
          "type": "bool"
        }
      ],
      "stateMutability": "view",
      "type": "function"
    },
    {
      "inputs": [
        {
          "internalType": "address",
          "name": "user",
          "type": "address"
        }
      ],
      "name": "isValidator",
      "outputs": [
        {
          "internalType": "bool",
          "name": "",
          "type": "bool"
        }
      ],
      "stateMutability": "view",
      "type": "function"
    },
    {
      "inputs": [],
      "name": "mdtToken",
      "outputs": [
        {
          "internalType": "contract IERC20",
          "name": "",
          "type": "address"
        }
      ],
      "stateMutability": "view",
      "type": "function"
    },
    {
      "inputs": [],
      "name": "minMinerStake",
      "outputs": [
        {
          "internalType": "uint256",
          "name": "",
          "type": "uint256"
        }
      ],
      "stateMutability": "view",
      "type": "function"
    },
    {
      "inputs": [],
      "name": "minValidatorStake",
      "outputs": [
        {
          "internalType": "uint256",
          "name": "",
          "type": "uint256"
        }
      ],
      "stateMutability": "view",
      "type": "function"
    },
    {
      "inputs": [],
      "name": "owner",
      "outputs": [
        {
          "internalType": "address",
          "name": "",
          "type": "address"
        }
      ],
      "stateMutability": "view",
      "type": "function"
    },
    {
      "inputs": [],
      "name": "pause",
      "outputs": [],
      "stateMutability": "nonpayable",
      "type": "function"
    },
    {
      "inputs": [],
      "name": "paused",
      "outputs": [
        {
          "internalType": "bool",
          "name": "",
          "type": "bool"
        }
      ],
      "stateMutability": "view",
      "type": "function"
    },
    {
      "inputs": [],
      "name": "renounceOwnership",
      "outputs": [],
      "stateMutability": "nonpayable",
      "type": "function"
    },
    {
      "inputs": [],
      "name": "requestUnstake",
      "outputs": [],
      "stateMutability": "nonpayable",
      "type": "function"
    },
    {
      "inputs": [
        {
          "internalType": "uint256",
          "name": "_min",
          "type": "uint256"
        }
      ],
      "name": "setMinMinerStake",
      "outputs": [],
      "stateMutability": "nonpayable",
      "type": "function"
    },
    {
      "inputs": [
        {
          "internalType": "uint256",
          "name": "_min",
          "type": "uint256"
        }
      ],
      "name": "setMinValidatorStake",
      "outputs": [],
      "stateMutability": "nonpayable",
      "type": "function"
    },
    {
      "inputs": [
        {
          "internalType": "uint256",
          "name": "_cooldown",
          "type": "uint256"
        }
      ],
      "name": "setUnstakeCooldown",
      "outputs": [],
      "stateMutability": "nonpayable",
      "type": "function"
    },
    {
      "inputs": [
        {
          "internalType": "address",
          "name": "user",
          "type": "address"
        },
        {
          "internalType": "uint256",
          "name": "basisPoints",
          "type": "uint256"
        },
        {
          "internalType": "string",
          "name": "reason",
          "type": "string"
        }
      ],
      "name": "slash",
      "outputs": [],
      "stateMutability": "nonpayable",
      "type": "function"
    },
    {
      "inputs": [
        {
          "internalType": "uint256",
          "name": "amount",
          "type": "uint256"
        },
        {
          "internalType": "enum StakingVault.StakeRole",
          "name": "role",
          "type": "uint8"
        }
      ],
      "name": "stake",
      "outputs": [],
      "stateMutability": "nonpayable",
      "type": "function"
    },
    {
      "inputs": [
        {
          "internalType": "address",
          "name": "",
          "type": "address"
        }
      ],
      "name": "stakes",
      "outputs": [
        {
          "internalType": "uint256",
          "name": "amount",
          "type": "uint256"
        },
        {
          "internalType": "enum StakingVault.StakeRole",
          "name": "role",
          "type": "uint8"
        },
        {
          "internalType": "uint256",
          "name": "stakedAt",
          "type": "uint256"
        },
        {
          "internalType": "uint256",
          "name": "unstakeRequestedAt",
          "type": "uint256"
        },
        {
          "internalType": "bool",
          "name": "isActive",
          "type": "bool"
        }
      ],
      "stateMutability": "view",
      "type": "function"
    },
    {
      "inputs": [],
      "name": "totalSlashed",
      "outputs": [
        {
          "internalType": "uint256",
          "name": "",
          "type": "uint256"
        }
      ],
      "stateMutability": "view",
      "type": "function"
    },
    {
      "inputs": [],
      "name": "totalStaked",
      "outputs": [
        {
          "internalType": "uint256",
          "name": "",
          "type": "uint256"
        }
      ],
      "stateMutability": "view",
      "type": "function"
    },
    {
      "inputs": [
        {
          "internalType": "address",
          "name": "newOwner",
          "type": "address"
        }
      ],
      "name": "transferOwnership",
      "outputs": [],
      "stateMutability": "nonpayable",
      "type": "function"
    },
    {
      "inputs": [],
      "name": "unpause",
      "outputs": [],
      "stateMutability": "nonpayable",
      "type": "function"
    },
    {
      "inputs": [],
      "name": "unstakeCooldown",
      "outputs": [
        {
          "internalType": "uint256",
          "name": "",
          "type": "uint256"
        }
      ],
      "stateMutability": "view",
      "type": "function"
    },
    {
      "inputs": [],
      "name": "withdraw",
      "outputs": [],
      "stateMutability": "nonpayable",
      "type": "function"
    }
  ],
  "bytecode": "0x60803461012357601f61179838819003918201601f19168301916001600160401b038311848410176101285780849260209460405283398101031261012357516001600160a01b038082169182900361012357600160005560015460405191339082167f8be0079c531659141344cd1fd0a4f28419497f9722a3daafe3b4186f6b6457e0600080a36001600160a81b0319163360ff60a01b19161760015564174876e80060035565048c2739500060045562093a8060055581156100e15750600280546001600160a01b031916919091179055604051611659908161013f8239f35b62461bcd60e51b815260206004820152601560248201527f496e76616c696420746f6b656e206164647265737300000000000000000000006044820152606490fd5b600080fd5b634e487b7160e01b600052604160045260246000fdfe608060408181526004918236101561001657600080fd5b600092833560e01c918263017ddd3514610d835750816310087fb114610d4457816316934fc4146105185781632340e8d314610d255781633ccfd60b14610ba05781633f4ba83a14610b0457816342d18cca14610ae55781635c975abb14610abe5781636177fd1814610a7e578163678b3ee2146107f3578163701b70ac14610786578163715018a6146107295781637eefd5ae1461070a578163817b1cd2146106eb5781638456cb591461068a5781638da5cb5b14610661578163a201bbdd14610642578163a3158b531461057a578163c345315314610518578163c69aaedf146104f9578163d11fa42914610487578163d360158514610417578163f2fde38b1461034b578163f70b5c0614610322578163facd743b146102a1578163fc63958e1461016d575063fccc28131461014e57600080fd5b346101695781600319360112610169576020905161dead8152f35b5080fd5b90503461029d578260031936011261029d57610187611289565b338352600860205281832090808201805460ff81161561026d576003840180546102365742905560ff19169055600182015460ff169060038210156102235750600103610210576101d960095461120b565b6009555b5490519081527f828764c21e74c28710e19919735825aba966621c95cbd913f8ed65a2d298f48c60203392a26001815580f35b61021b600a5461120b565b600a556101dd565b634e487b7160e01b855260219052602484fd5b855162461bcd60e51b81526020818601526011602482015270105b1c9958591e481c995c5d595cdd1959607a1b6044820152606490fd5b845162461bcd60e51b8152602081850152600a602482015269139bdd081cdd185ad95960b21b6044820152606490fd5b8280fd5b838334610169576020366003190112610169576001600160a01b036102c4610d9e565b16825260086020528082209160ff848401541692836102ea575b60208484519015158152f35b60ff91929350600101541692600384101561030f5750506002602092149083806102de565b634e487b7160e01b825260219052602490fd5b50503461016957816003193601126101695760025490516001600160a01b039091168152602090f35b90503461029d57602036600319011261029d57610366610d9e565b9061036f611381565b6001600160a01b039182169283156103c5575050600154826bffffffffffffffffffffffff60a01b821617600155167f8be0079c531659141344cd1fd0a4f28419497f9722a3daafe3b4186f6b6457e08380a380f35b906020608492519162461bcd60e51b8352820152602660248201527f4f776e61626c653a206e6577206f776e657220697320746865207a65726f206160448201526564647265737360d01b6064820152fd5b9190503461029d57602036600319011261029d57817fe2b67d0d7e29dde0f951b80feee996892a097edff2b2f9ad81de807e4231ed869235610457611381565b610462811515611218565b610474655af3107a4000821115611252565b808254925582519182526020820152a180f35b9190503461029d57602036600319011261029d577fbf4554f905e1b4391d5cef31c1e7b4285a1974aae46774539ee6a274f7fdcb2491356104c6611381565b6104d1811515611218565b6104e36509184e72a000821115611252565b600354908060035582519182526020820152a180f35b5050346101695781600319360112610169576020906009549051908152f35b828434610577576020366003190112610577576105739082906001600160a01b03610541610d9e565b1681526008602052209182549260ff6001820154169460ff600283015491600384015493015416925195869586610ddc565b0390f35b80fd5b90503461029d57602036600319011261029d57803590610598611381565b610e108210610613576276a70082116105e55750907f2a39b166fe0871f09742b63b77a4de216789aaa99f883b61b9b0299f65d1a6f891600554908060055582519182526020820152a180f35b606490602084519162461bcd60e51b83528201526008602482015267546f6f206c6f6e6760c01b6044820152fd5b606490602084519162461bcd60e51b83528201526009602482015268151bdbc81cda1bdc9d60ba1b6044820152fd5b5050346101695781600319360112610169576020906007549051908152f35b50503461016957816003193601126101695760015490516001600160a01b039091168152602090f35b50503461016957816003193601126101695760207f62e78cea01bee320cd4e420270b5ea74000d11b0c9f74754ebdbfc544b05a258916106c8611381565b6106d06112df565b6001805460ff60a01b1916600160a01b17905551338152a180f35b5050346101695781600319360112610169576020906006549051908152f35b5050346101695781600319360112610169576020906005549051908152f35b8334610577578060031936011261057757610742611381565b600180546001600160a01b0319811690915581906001600160a01b03167f8be0079c531659141344cd1fd0a4f28419497f9722a3daafe3b4186f6b6457e08280a380f35b838334610169576020366003190112610169576001600160a01b036107a9610d9e565b16825260086020528082209160ff848401541692836107ce5760208484519015158152f35b60ff91929350600101541692600384101561030f5750506001602092149083806102de565b839150346101695760603660031901126101695761080f610d9e565b9260249384359060443567ffffffffffffffff91828211610a7a5736602383011215610a7a5781860135928311610a7a5736888484010111610a7a57610853611381565b61085b611289565b83151580610a6e575b15610a355760018060a01b038091169586885260086020528588209081549586156109ff5780870290878204036109ed576127106108a4910480976111fe565b82556108b2866006546111fe565b6006556108c186600754610e0a565b60075560ff6001830154169060038210156109db57936109588694606097948d947f7e947095ed288d8885423bdaef4015b7420ffa9b84d62ef67c402e8bc36a8ea99b9a98600282146000146109d35780545b835410806109c6575b61098a575b5050506002541688519063a9059cbb60e01b602083015261dead858301528760448301526044825261095382610e2d565b6113d9565b828751978896875280602088015286015201848401378181018301879052601f01601f19168101030190a26001815580f35b909101805460ff191690556001036109b3576109a760095461120b565b6009555b8c8080610922565b6109be600a5461120b565b600a556109ab565b5060ff818401541661091d565b600354610914565b634e487b7160e01b8a52602190528989fd5b634e487b7160e01b8a52601182528a8afd5b875162461bcd60e51b81526020818401526011818d01527009cde40e6e8c2d6ca40e8de40e6d8c2e6d607b1b6044820152606490fd5b845162461bcd60e51b81526020818801526014818a015273496e76616c696420626173697320706f696e747360601b6044820152606490fd5b50612710841115610864565b8680fd5b90503461029d57602036600319011261029d5760209260ff919083906001600160a01b03610aaa610d9e565b168152600886522001541690519015158152f35b50503461016957816003193601126101695760209060ff60015460a01c1690519015158152f35b5050346101695781600319360112610169576020906003549051908152f35b90503461029d578260031936011261029d57610b1e611381565b6001549060ff8260a01c1615610b66575060ff60a01b1916600155513381527f5db9ee0a495bf2e6ff9c91a7834c1ba4fdd244a5e8aa4e537bd38aeae4b073aa90602090a180f35b606490602084519162461bcd60e51b8352820152601460248201527314185d5cd8589b194e881b9bdd081c185d5cd95960621b6044820152fd5b9190503461029d578260031936011261029d57610bbb611289565b33835260209060088252808420600381019081548015610ced57600554610be191610e0a565b4210610cb3578054948515610c7a57507f7084f5476618d8e60b11ef0d7d3f06914655adb8793e28ff7f018d4c76d505d5939291600182888094550160ff19815416905555610c32846006546111fe565b600655600254815163a9059cbb60e01b8482015233602482015260448082018790528152610c6c916001600160a01b031661095382610e2d565b519283523392a26001815580f35b835162461bcd60e51b815290810185905260136024820152724e6f7468696e6720746f20776974686472617760681b6044820152606490fd5b50505162461bcd60e51b815291820152601460248201527310dbdbdb191bdddb881b9bdd08195e1c1a5c995960621b604482015260649150fd5b835162461bcd60e51b81528087018690526012602482015271139bc81d5b9cdd185ad9481c995c5d595cdd60721b6044820152606490fd5b505034610169578160031936011261016957602090600a549051908152f35b9190503461029d5736600319011261016957602435600381101561029d57610d7c91610d6e611289565b610d766112df565b35610e6e565b6001815580f35b84913461029d578260031936011261029d5760209250548152f35b600435906001600160a01b0382168203610db457565b600080fd5b906003821015610dc65752565b634e487b7160e01b600052602160045260246000fd5b939095949192610df960809460a087019887526020870190610db9565b604085015260608401521515910152565b91908201809211610e1757565b634e487b7160e01b600052601160045260246000fd5b6080810190811067ffffffffffffffff821117610e4957604052565b634e487b7160e01b600052604160045260246000fd5b6000198114610e175760010190565b600380831015939284610dc65760018114918280156111f0575b156111bc57831561118257600092338452602091600883526040948581209860049960ff8b8201541661105b575061104857600285036110415788545b871061100857855160a0810181811067ffffffffffffffff821117610ff5578752878152848101928684528782014281526060830190848252608084019560018752338652600889528a8620945185556001850190519584871015610fe15750927f8acf475137e0cd74ca7f611d16b1e6383ec9a9c71a8e5b85967781b9c7214d119b9c9d92610fc99a99989796959260ff958619978789835416911617905551600284015551908201550192511515918354169116179055610f8a87600654610e0a565b60065515610fce57610f9d600954610e5f565b6009555b600254610fbc908790309033906001600160a01b0316611326565b8351958652850190610db9565b3392a2565b610fd9600a54610e5f565b600a55610fa1565b634e487b7160e01b815260218f5260249150fd5b634e487b7160e01b835260418b52602483fd5b855162461bcd60e51b8152808a01859052601360248201527242656c6f77206d696e696d756d207374616b6560681b6044820152606490fd5b8154610ec5565b634e487b7160e01b815260218952602490fd5b959293509060ff6001879b9698999a9b0154169161116f578382101561116f57500361112c578201546110f3575090816110b8857fe6afb5ca7cc84435baf09da39fcb42fc0fb8bdfef6c3ff2ce9fce2c70a18f821959454610e0a565b81556110c685600654610e0a565b6006556002546110e4908690309033906001600160a01b0316611326565b549082519485528401523392a2565b835162461bcd60e51b81529081018390526013602482015272556e7374616b6520696e2070726f677265737360681b6044820152606490fd5b845162461bcd60e51b8152808301859052601f60248201527f43616e6e6f74206368616e676520726f6c65207768696c65207374616b6564006044820152606490fd5b634e487b7160e01b815260218552602490fd5b60405162461bcd60e51b81526020600482015260126024820152710416d6f756e74206d757374206265203e20360741b6044820152606490fd5b60405162461bcd60e51b815260206004820152600c60248201526b496e76616c696420726f6c6560a01b6044820152606490fd5b506000955060028214610e88565b91908203918211610e1757565b8015610e17576000190190565b1561121f57565b60405162461bcd60e51b815260206004820152600b60248201526a04d757374206265203e20360ac1b6044820152606490fd5b1561125957565b60405162461bcd60e51b81526020600482015260086024820152670a8dede40d0d2ced60c31b6044820152606490fd5b60026000541461129a576002600055565b60405162461bcd60e51b815260206004820152601f60248201527f5265656e7472616e637947756172643a207265656e7472616e742063616c6c006044820152606490fd5b60ff60015460a01c166112ee57565b60405162461bcd60e51b815260206004820152601060248201526f14185d5cd8589b194e881c185d5cd95960821b6044820152606490fd5b6040516323b872dd60e01b60208201526001600160a01b03928316602482015292909116604483015260648083019390935291815260a081019181831067ffffffffffffffff841117610e495761137f926040526113d9565b565b6001546001600160a01b0316330361139557565b606460405162461bcd60e51b815260206004820152602060248201527f4f776e61626c653a2063616c6c6572206973206e6f7420746865206f776e65726044820152fd5b6040805167ffffffffffffffff94936001600160a01b03909316929080830186811182821017610e495783526020938482527f5361666545524332303a206c6f772d6c6576656c2063616c6c206661696c6564858301526000808487829651910182855af13d15611542573d9188831161152e57601f1992865193603f81601f8401160116840199848b10908b111761151a578697989961148496975283528286893d92013e61154f565b8051918215918583156114f6575b5050509050156114a0575050565b60849250519062461bcd60e51b82526004820152602a60248201527f5361666545524332303a204552433230206f7065726174696f6e20646964206e6044820152691bdd081cdd58d8d9595960b21b6064820152fd5b91938180945001031261016957830151908115158203610577575080388085611492565b634e487b7160e01b86526041600452602486fd5b634e487b7160e01b85526041600452602485fd5b6114849394959697506060915b919290156115b15750815115611563575090565b3b1561156c5790565b60405162461bcd60e51b815260206004820152601d60248201527f416464726573733a2063616c6c20746f206e6f6e2d636f6e74726163740000006044820152606490fd5b8251909150156115c45750805190602001fd5b6040519062461bcd60e51b82528160208060048301528251908160248401526000935b82851061160a575050604492506000838284010152601f80199101168101030190fd5b84810182015186860160440152938101938593506115e756fea264697066735822122008e38a351220a178ffd4c0f5fb4aa0667458690ea8974d785ed3d79564aaf67d64736f6c63430008180033",
  "linkReferences": {},
  "deployedLinkReferences": {}
}