{
  "_format": "hh-sol-artifact-1",
  "contractName": "SubnetRegistry",
  "sourceName": "src/SubnetRegistry.sol",
  "abi": [
    {
      "inputs": [
        {
          "internalType": "address",
          "name": "_mdtToken",
          "type": "address"
        },
        {
          "internalType": "address",
          "name": "_treasury",
          "type": "address"
        }
      ],
      "stateMutability": "nonpayable",
      "type": "constructor"
    },
    {
      "anonymous": false,
      "inputs": [
        {
          "indexed": true,
          "internalType": "uint256",
          "name": "taskId",
          "type": "uint256"
        },
        {
          "indexed": false,
          "internalType": "uint256",
          "name": "baseMin",
          "type": "uint256"
        },
        {
          "indexed": false,
          "internalType": "uint256",
          "name": "adaptiveMin",
          "type": "uint256"
        }
      ],
      "name": "AdaptiveValidationsApplied",
      "type": "event"
    },
    {
      "anonymous": false,
      "inputs": [
        {
          "indexed": false,
          "internalType": "uint256",
          "name": "commitDuration",
          "type": "uint256"
        },
        {
          "indexed": false,
          "internalType": "uint256",
          "name": "revealDuration",
          "type": "uint256"
        }
      ],
      "name": "CommitPhaseConfigUpdated",
      "type": "event"
    },
    {
      "anonymous": false,
      "inputs": [
        {
          "indexed": true,
          "internalType": "uint256",
          "name": "taskId",
          "type": "uint256"
        },
        {
          "indexed": false,
          "internalType": "uint256",
          "name": "minerIndex",
          "type": "uint256"
        },
        {
          "indexed": false,
          "internalType": "uint256",
          "name": "medianScore",
          "type": "uint256"
        },
        {
          "indexed": false,
          "internalType": "uint256",
          "name": "validatorCount",
          "type": "uint256"
        }
      ],
      "name": "ConsensusReached",
      "type": "event"
    },
    {
      "anonymous": false,
      "inputs": [
        {
          "indexed": true,
          "internalType": "address",
          "name": "account",
          "type": "address"
        },
        {
          "indexed": false,
          "internalType": "uint256",
          "name": "amount",
          "type": "uint256"
        }
      ],
      "name": "EarningsWithdrawn",
      "type": "event"
    },
    {
      "anonymous": false,
      "inputs": [
        {
          "indexed": true,
          "internalType": "uint256",
          "name": "subnetId",
          "type": "uint256"
        },
        {
          "indexed": true,
          "internalType": "address",
          "name": "miner",
          "type": "address"
        }
      ],
      "name": "MinerRegistered",
      "type": "event"
    },
    {
      "anonymous": false,
      "inputs": [
        {
          "indexed": true,
          "internalType": "address",
          "name": "previousOwner",
          "type": "address"
        },
        {
          "indexed": true,
          "internalType": "address",
          "name": "newOwner",
          "type": "address"
        }
      ],
      "name": "OwnershipTransferred",
      "type": "event"
    },
    {
      "anonymous": false,
      "inputs": [
        {
          "indexed": false,
          "internalType": "address",
          "name": "account",
          "type": "address"
        }
      ],
      "name": "Paused",
      "type": "event"
    },
    {
      "anonymous": false,
      "inputs": [
        {
          "indexed": true,
          "internalType": "address",
          "name": "to",
          "type": "address"
        },
        {
          "indexed": false,
          "internalType": "uint256",
          "name": "amount",
          "type": "uint256"
        }
      ],
      "name": "ProtocolFeesWithdrawn",
      "type": "event"
    },
    {
      "anonymous": false,
      "inputs": [
        {
          "indexed": true,
          "internalType": "address",
          "name": "validator",
          "type": "address"
        },
        {
          "indexed": false,
          "internalType": "uint256",
          "name": "fromSubnet",
          "type": "uint256"
        },
        {
          "indexed": false,
          "internalType": "uint256",
          "name": "toSubnet",
          "type": "uint256"
        },
        {
          "indexed": false,
          "internalType": "uint256",
          "name": "portedScore",
          "type": "uint256"
        }
      ],
      "name": "ReputationPorted",
      "type": "event"
    },
    {
      "anonymous": false,
      "inputs": [
        {
          "indexed": true,
          "internalType": "address",
          "name": "validator",
          "type": "address"
        },
        {
          "indexed": false,
          "internalType": "uint256",
          "name": "newScore",
          "type": "uint256"
        },
        {
          "indexed": false,
          "internalType": "uint256",
          "name": "totalValidations",
          "type": "uint256"
        },
        {
          "indexed": false,
          "internalType": "uint256",
          "name": "accurateValidations",
          "type": "uint256"
        }
      ],
      "name": "ReputationUpdated",
      "type": "event"
    },
    {
      "anonymous": false,
      "inputs": [
        {
          "indexed": true,
          "internalType": "uint256",
          "name": "taskId",
          "type": "uint256"
        },
        {
          "indexed": false,
          "internalType": "uint256",
          "name": "minerIndex",
          "type": "uint256"
        },
        {
          "indexed": true,
          "internalType": "address",
          "name": "validator",
          "type": "address"
        }
      ],
      "name": "ScoreCommitted",
      "type": "event"
    },
    {
      "anonymous": false,
      "inputs": [
        {
          "indexed": true,
          "internalType": "uint256",
          "name": "taskId",
          "type": "uint256"
        },
        {
          "indexed": false,
          "internalType": "uint256",
          "name": "minerIndex",
          "type": "uint256"
        },
        {
          "indexed": true,
          "internalType": "address",
          "name": "validator",
          "type": "address"
        },
        {
          "indexed": false,
          "internalType": "uint256",
          "name": "score",
          "type": "uint256"
        }
      ],
      "name": "ScoreRevealed",
      "type": "event"
    },
    {
      "anonymous": false,
      "inputs": [
        {
          "indexed": true,
          "internalType": "uint256",
          "name": "taskId",
          "type": "uint256"
        },
        {
          "indexed": true,
          "internalType": "address",
          "name": "miner",
          "type": "address"
        },
        {
          "indexed": false,
          "internalType": "string",
          "name": "resultHash",
          "type": "string"
        }
      ],
      "name": "SubmissionReceived",
      "type": "event"
    },
    {
      "anonymous": false,
      "inputs": [
        {
          "indexed": true,
          "internalType": "uint256",
          "name": "taskId",
          "type": "uint256"
        },
        {
          "indexed": true,
          "internalType": "address",
          "name": "miner",
          "type": "address"
        },
        {
          "indexed": false,
          "internalType": "uint256",
          "name": "score",
          "type": "uint256"
        },
        {
          "indexed": false,
          "internalType": "address",
          "name": "validator",
          "type": "address"
        }
      ],
      "name": "SubmissionValidated",
      "type": "event"
    },
    {
      "anonymous": false,
      "inputs": [
        {
          "indexed": true,
          "internalType": "uint256",
          "name": "subnetId",
          "type": "uint256"
        },
        {
          "indexed": false,
          "internalType": "string",
          "name": "name",
          "type": "string"
        },
        {
          "indexed": true,
          "internalType": "address",
          "name": "owner",
          "type": "address"
        },
        {
          "indexed": false,
          "internalType": "uint256",
          "name": "feeRate",
          "type": "uint256"
        }
      ],
      "name": "SubnetCreated",
      "type": "event"
    },
    {
      "anonymous": false,
      "inputs": [
        {
          "indexed": true,
          "internalType": "uint256",
          "name": "subnetId",
          "type": "uint256"
        },
        {
          "indexed": false,
          "internalType": "uint256",
          "name": "newFeeRate",
          "type": "uint256"
        },
        {
          "indexed": false,
          "internalType": "enum SubnetRegistry.SubnetStatus",
          "name": "newStatus",
          "type": "uint8"
        }
      ],
      "name": "SubnetUpdated",
      "type": "event"
    },
    {
      "anonymous": false,
      "inputs": [
        {
          "indexed": true,
          "internalType": "uint256",
          "name": "taskId",
          "type": "uint256"
        },
        {
          "indexed": true,
          "internalType": "uint256",
          "name": "subnetId",
          "type": "uint256"
        },
        {
          "indexed": true,
          "internalType": "address",
          "name": "winner",
          "type": "address"
        },
        {
          "indexed": false,
          "internalType": "uint256",
          "name": "minerReward",
          "type": "uint256"
        },
        {
          "indexed": false,
          "internalType": "uint256",
          "name": "protocolFee",
          "type": "uint256"
        },
        {
          "indexed": false,
          "internalType": "uint256",
          "name": "subnetFee",
          "type": "uint256"
        }
      ],
      "name": "TaskCompleted",
      "type": "event"
    },
    {
      "anonymous": false,
      "inputs": [
        {
          "indexed": true,
          "internalType": "uint256",
          "name": "taskId",
          "type": "uint256"
        },
        {
          "indexed": true,
          "internalType": "uint256",
          "name": "subnetId",
          "type": "uint256"
        },
        {
          "indexed": true,
          "internalType": "address",
          "name": "requester",
          "type": "address"
        },
        {
          "indexed": false,
          "internalType": "uint256",
          "name": "rewardAmount",
          "type": "uint256"
        }
      ],
      "name": "TaskCreated",
      "type": "event"
    },
    {
      "anonymous": false,
      "inputs": [
        {
          "indexed": false,
          "internalType": "address",
          "name": "account",
          "type": "address"
        }
      ],
      "name": "Unpaused",
      "type": "event"
    },
    {
      "anonymous": false,
      "inputs": [
        {
          "indexed": true,
          "internalType": "uint256",
          "name": "subnetId",
          "type": "uint256"
        },
        {
          "indexed": true,
          "internalType": "address",
          "name": "validator",
          "type": "address"
        }
      ],
      "name": "ValidatorAdded",
      "type": "event"
    },
    {
      "anonymous": false,
      "inputs": [
        {
          "indexed": true,
          "internalType": "uint256",
          "name": "taskId",
          "type": "uint256"
        },
        {
          "indexed": true,
          "internalType": "address",
          "name": "validator",
          "type": "address"
        },
        {
          "indexed": false,
          "internalType": "uint256",
          "name": "deviation",
          "type": "uint256"
        }
      ],
      "name": "ValidatorPenalized",
      "type": "event"
    },
    {
      "anonymous": false,
      "inputs": [
        {
          "indexed": true,
          "internalType": "uint256",
          "name": "subnetId",
          "type": "uint256"
        },
        {
          "indexed": true,
          "internalType": "address",
          "name": "validator",
          "type": "address"
        }
      ],
      "name": "ValidatorRemoved",
      "type": "event"
    },
    {
      "anonymous": false,
      "inputs": [
        {
          "indexed": true,
          "internalType": "uint256",
          "name": "taskId",
          "type": "uint256"
        },
        {
          "indexed": true,
          "internalType": "address",
          "name": "validator",
          "type": "address"
        },
        {
          "indexed": false,
          "internalType": "uint256",
          "name": "amount",
          "type": "uint256"
        },
        {
          "indexed": false,
          "internalType": "uint256",
          "name": "deviation",
          "type": "uint256"
        }
      ],
      "name": "ValidatorRewarded",
      "type": "event"
    },
    {
      "inputs": [],
      "name": "HIGH_VALUE_THRESHOLD",
      "outputs": [
        {
          "internalType": "uint256",
          "name": "",
          "type": "uint256"
        }
      ],
      "stateMutability": "view",
      "type": "function"
    },
    {
      "inputs": [],
      "name": "MAX_SUBNET_FEE_RATE",
      "outputs": [
        {
          "internalType": "uint256",
          "name": "",
          "type": "uint256"
        }
      ],
      "stateMutability": "view",
      "type": "function"
    },
    {
      "inputs": [],
      "name": "PORT_COOLDOWN",
      "outputs": [
        {
          "internalType": "uint256",
          "name": "",
          "type": "uint256"
        }
      ],
      "stateMutability": "view",
      "type": "function"
    },
    {
      "inputs": [],
      "name": "PROTOCOL_FEE_RATE",
      "outputs": [
        {
          "internalType": "uint256",
          "name": "",
          "type": "uint256"
        }
      ],
      "stateMutability": "view",
      "type": "function"
    },
    {
      "inputs": [],
      "name": "REPUTATION_DECAY_FACTOR",
      "outputs": [
        {
          "internalType": "uint256",
          "name": "",
          "type": "uint256"
        }
      ],
      "stateMutability": "view",
      "type": "function"
    },
    {
      "inputs": [],
      "name": "SUBNET_REGISTRATION_COST",
      "outputs": [
        {
          "internalType": "uint256",
          "name": "",
          "type": "uint256"
        }
      ],
      "stateMutability": "view",
      "type": "function"
    },
    {
      "inputs": [],
      "name": "ULTRA_VALUE_THRESHOLD",
      "outputs": [
        {
          "internalType": "uint256",
          "name": "",
          "type": "uint256"
        }
      ],
      "stateMutability": "view",
      "type": "function"
    },
    {
      "inputs": [],
      "name": "VALIDATOR_REWARD_RATE",
      "outputs": [
        {
          "internalType": "uint256",
          "name": "",
          "type": "uint256"
        }
      ],
      "stateMutability": "view",
      "type": "function"
    },
    {
      "inputs": [
        {
          "internalType": "uint256",
          "name": "subnetId",
          "type": "uint256"
        },
        {
          "internalType": "address",
          "name": "validator",
          "type": "address"
        }
      ],
      "name": "addValidator",
      "outputs": [],
      "stateMutability": "nonpayable",
      "type": "function"
    },
    {
      "inputs": [
        {
          "internalType": "uint256",
          "name": "",
          "type": "uint256"
        },
        {
          "internalType": "uint256",
          "name": "",
          "type": "uint256"
        }
      ],
      "name": "commitCount",
      "outputs": [
        {
          "internalType": "uint256",
          "name": "",
          "type": "uint256"
        }
      ],
      "stateMutability": "view",
      "type": "function"
    },
    {
      "inputs": [],
      "name": "commitPhaseDuration",
      "outputs": [
        {
          "internalType": "uint256",
          "name": "",
          "type": "uint256"
        }
      ],
      "stateMutability": "view",
      "type": "function"
    },
    {
      "inputs": [
        {
          "internalType": "uint256",
          "name": "",
          "type": "uint256"
        },
        {
          "internalType": "uint256",
          "name": "",
          "type": "uint256"
        }
      ],
      "name": "commitPhaseStart",
      "outputs": [
        {
          "internalType": "uint256",
          "name": "",
          "type": "uint256"
        }
      ],
      "stateMutability": "view",
      "type": "function"
    },
    {
      "inputs": [
        {
          "internalType": "uint256",
          "name": "taskId",
          "type": "uint256"
        },
        {
          "internalType": "uint256",
          "name": "minerIndex",
          "type": "uint256"
        },
        {
          "internalType": "bytes32",
          "name": "commitHash",
          "type": "bytes32"
        }
      ],
      "name": "commitScore",
      "outputs": [],
      "stateMutability": "nonpayable",
      "type": "function"
    },
    {
      "inputs": [
        {
          "internalType": "uint256",
          "name": "subnetId",
          "type": "uint256"
        },
        {
          "internalType": "string",
          "name": "taskHash",
          "type": "string"
        },
        {
          "internalType": "uint256",
          "name": "rewardAmount",
          "type": "uint256"
        },
        {
          "internalType": "uint256",
          "name": "duration",
          "type": "uint256"
        }
      ],
      "name": "createTask",
      "outputs": [
        {
          "internalType": "uint256",
          "name": "taskId",
          "type": "uint256"
        }
      ],
      "stateMutability": "nonpayable",
      "type": "function"
    },
    {
      "inputs": [
        {
          "internalType": "uint256",
          "name": "taskId",
          "type": "uint256"
        }
      ],
      "name": "expireTask",
      "outputs": [],
      "stateMutability": "nonpayable",
      "type": "function"
    },
    {
      "inputs": [
        {
          "internalType": "uint256",
          "name": "taskId",
          "type": "uint256"
        }
      ],
      "name": "finalizeTask",
      "outputs": [],
      "stateMutability": "nonpayable",
      "type": "function"
    },
    {
      "inputs": [],
      "name": "getActiveSubnetCount",
      "outputs": [
        {
          "internalType": "uint256",
          "name": "count",
          "type": "uint256"
        }
      ],
      "stateMutability": "view",
      "type": "function"
    },
    {
      "inputs": [
        {
          "internalType": "uint256",
          "name": "subnetId",
          "type": "uint256"
        },
        {
          "internalType": "uint256",
          "name": "rewardAmount",
          "type": "uint256"
        }
      ],
      "name": "getAdaptiveMinValidations",
      "outputs": [
        {
          "internalType": "uint256",
          "name": "",
          "type": "uint256"
        }
      ],
      "stateMutability": "view",
      "type": "function"
    },
    {
      "inputs": [
        {
          "internalType": "uint256",
          "name": "score",
          "type": "uint256"
        },
        {
          "internalType": "bytes32",
          "name": "salt",
          "type": "bytes32"
        }
      ],
      "name": "getCommitHash",
      "outputs": [
        {
          "internalType": "bytes32",
          "name": "",
          "type": "bytes32"
        }
      ],
      "stateMutability": "pure",
      "type": "function"
    },
    {
      "inputs": [
        {
          "internalType": "uint256",
          "name": "taskId",
          "type": "uint256"
        }
      ],
      "name": "getSubmissionCount",
      "outputs": [
        {
          "internalType": "uint256",
          "name": "",
          "type": "uint256"
        }
      ],
      "stateMutability": "view",
      "type": "function"
    },
    {
      "inputs": [
        {
          "internalType": "uint256",
          "name": "taskId",
          "type": "uint256"
        }
      ],
      "name": "getSubmissions",
      "outputs": [
        {
          "components": [
            {
              "internalType": "address",
              "name": "miner",
              "type": "address"
            },
            {
              "internalType": "string",
              "name": "resultHash",
              "type": "string"
            },
            {
              "internalType": "uint256",
              "name": "score",
              "type": "uint256"
            },
            {
              "internalType": "bool",
              "name": "validated",
              "type": "bool"
            },
            {
              "internalType": "uint256",
              "name": "submittedAt",
              "type": "uint256"
            },
            {
              "internalType": "uint256",
              "name": "validationCount",
              "type": "uint256"
            }
          ],
          "internalType": "struct SubnetRegistry.MinerSubmission[]",
          "name": "",
          "type": "tuple[]"
        }
      ],
      "stateMutability": "view",
      "type": "function"
    },
    {
      "inputs": [
        {
          "internalType": "uint256",
          "name": "subnetId",
          "type": "uint256"
        }
      ],
      "name": "getSubnet",
      "outputs": [
        {
          "components": [
            {
              "internalType": "uint256",
              "name": "id",
              "type": "uint256"
            },
            {
              "internalType": "string",
              "name": "name",
              "type": "string"
            },
            {
              "internalType": "string",
              "name": "description",
              "type": "string"
            },
            {
              "internalType": "address",
              "name": "owner",
              "type": "address"
            },
            {
              "internalType": "uint256",
              "name": "feeRate",
              "type": "uint256"
            },
            {
              "internalType": "uint256",
              "name": "minTaskReward",
              "type": "uint256"
            },
            {
              "internalType": "uint256",
              "name": "totalVolume",
              "type": "uint256"
            },
            {
              "internalType": "uint256",
              "name": "totalTasks",
              "type": "uint256"
            },
            {
              "internalType": "uint256",
              "name": "activeMiners",
              "type": "uint256"
            },
            {
              "internalType": "enum SubnetRegistry.SubnetStatus",
              "name": "status",
              "type": "uint8"
            },
            {
              "internalType": "uint256",
              "name": "createdAt",
              "type": "uint256"
            }
          ],
          "internalType": "struct SubnetRegistry.Subnet",
          "name": "",
          "type": "tuple"
        }
      ],
      "stateMutability": "view",
      "type": "function"
    },
    {
      "inputs": [
        {
          "internalType": "uint256",
          "name": "taskId",
          "type": "uint256"
        }
      ],
      "name": "getTask",
      "outputs": [
        {
          "components": [
            {
              "internalType": "uint256",
              "name": "id",
              "type": "uint256"
            },
            {
              "internalType": "uint256",
              "name": "subnetId",
              "type": "uint256"
            },
            {
              "internalType": "address",
              "name": "requester",
              "type": "address"
            },
            {
              "internalType": "string",
              "name": "taskHash",
              "type": "string"
            },
            {
              "internalType": "uint256",
              "name": "rewardAmount",
              "type": "uint256"
            },
            {
              "internalType": "uint256",
              "name": "protocolFee",
              "type": "uint256"
            },
            {
              "internalType": "uint256",
              "name": "validatorReward",
              "type": "uint256"
            },
            {
              "internalType": "uint256",
              "name": "subnetFee",
              "type": "uint256"
            },
            {
              "internalType": "uint256",
              "name": "deadline",
              "type": "uint256"
            },
            {
              "internalType": "enum SubnetRegistry.TaskStatus",
              "name": "status",
              "type": "uint8"
            },
            {
              "internalType": "address",
              "name": "winningMiner",
              "type": "address"
            },
            {
              "internalType": "uint256",
              "name": "winningScore",
              "type": "uint256"
            },
            {
              "internalType": "uint256",
              "name": "createdAt",
              "type": "uint256"
            }
          ],
          "internalType": "struct SubnetRegistry.Task",
          "name": "",
          "type": "tuple"
        }
      ],
      "stateMutability": "view",
      "type": "function"
    },
    {
      "inputs": [
        {
          "internalType": "uint256",
          "name": "taskId",
          "type": "uint256"
        },
        {
          "internalType": "uint256",
          "name": "minerIndex",
          "type": "uint256"
        },
        {
          "internalType": "address",
          "name": "validator",
          "type": "address"
        }
      ],
      "name": "getValidatorScore",
      "outputs": [
        {
          "internalType": "uint256",
          "name": "score",
          "type": "uint256"
        },
        {
          "internalType": "bool",
          "name": "scored",
          "type": "bool"
        }
      ],
      "stateMutability": "view",
      "type": "function"
    },
    {
      "inputs": [
        {
          "internalType": "uint256",
          "name": "",
          "type": "uint256"
        },
        {
          "internalType": "address",
          "name": "",
          "type": "address"
        }
      ],
      "name": "hasMinerSubmitted",
      "outputs": [
        {
          "internalType": "bool",
          "name": "",
          "type": "bool"
        }
      ],
      "stateMutability": "view",
      "type": "function"
    },
    {
      "inputs": [
        {
          "internalType": "uint256",
          "name": "",
          "type": "uint256"
        },
        {
          "internalType": "uint256",
          "name": "",
          "type": "uint256"
        },
        {
          "internalType": "address",
          "name": "",
          "type": "address"
        }
      ],
      "name": "hasValidatorScored",
      "outputs": [
        {
          "internalType": "bool",
          "name": "",
          "type": "bool"
        }
      ],
      "stateMutability": "view",
      "type": "function"
    },
    {
      "inputs": [
        {
          "internalType": "uint256",
          "name": "subnetId",
          "type": "uint256"
        },
        {
          "internalType": "address",
          "name": "miner",
          "type": "address"
        }
      ],
      "name": "isMiner",
      "outputs": [
        {
          "internalType": "bool",
          "name": "",
          "type": "bool"
        }
      ],
      "stateMutability": "view",
      "type": "function"
    },
    {
      "inputs": [
        {
          "internalType": "uint256",
          "name": "subnetId",
          "type": "uint256"
        },
        {
          "internalType": "address",
          "name": "validator",
          "type": "address"
        }
      ],
      "name": "isValidator",
      "outputs": [
        {
          "internalType": "bool",
          "name": "",
          "type": "bool"
        }
      ],
      "stateMutability": "view",
      "type": "function"
    },
    {
      "inputs": [
        {
          "internalType": "address",
          "name": "",
          "type": "address"
        }
      ],
      "name": "lastPortedAt",
      "outputs": [
        {
          "internalType": "uint256",
          "name": "",
          "type": "uint256"
        }
      ],
      "stateMutability": "view",
      "type": "function"
    },
    {
      "inputs": [],
      "name": "maxSubmissionsPerTask",
      "outputs": [
        {
          "internalType": "uint256",
          "name": "",
          "type": "uint256"
        }
      ],
      "stateMutability": "view",
      "type": "function"
    },
    {
      "inputs": [],
      "name": "mdtToken",
      "outputs": [
        {
          "internalType": "contract IERC20",
          "name": "",
          "type": "address"
        }
      ],
      "stateMutability": "view",
      "type": "function"
    },
    {
      "inputs": [
        {
          "internalType": "address",
          "name": "",
          "type": "address"
        }
      ],
      "name": "minerEarnings",
      "outputs": [
        {
          "internalType": "uint256",
          "name": "",
          "type": "uint256"
        }
      ],
      "stateMutability": "view",
      "type": "function"
    },
    {
      "inputs": [],
      "name": "owner",
      "outputs": [
        {
          "internalType": "address",
          "name": "",
          "type": "address"
        }
      ],
      "stateMutability": "view",
      "type": "function"
    },
    {
      "inputs": [],
      "name": "paused",
      "outputs": [
        {
          "internalType": "bool",
          "name": "",
          "type": "bool"
        }
      ],
      "stateMutability": "view",
      "type": "function"
    },
    {
      "inputs": [
        {
          "internalType": "address",
          "name": "",
          "type": "address"
        }
      ],
      "name": "pendingWithdrawals",
      "outputs": [
        {
          "internalType": "uint256",
          "name": "",
          "type": "uint256"
        }
      ],
      "stateMutability": "view",
      "type": "function"
    },
    {
      "inputs": [
        {
          "internalType": "uint256",
          "name": "fromSubnetId",
          "type": "uint256"
        },
        {
          "internalType": "uint256",
          "name": "toSubnetId",
          "type": "uint256"
        }
      ],
      "name": "portReputation",
      "outputs": [],
      "stateMutability": "nonpayable",
      "type": "function"
    },
    {
      "inputs": [
        {
          "internalType": "address",
          "name": "",
          "type": "address"
        },
        {
          "internalType": "uint256",
          "name": "",
          "type": "uint256"
        }
      ],
      "name": "portedReputationBoost",
      "outputs": [
        {
          "internalType": "uint256",
          "name": "",
          "type": "uint256"
        }
      ],
      "stateMutability": "view",
      "type": "function"
    },
    {
      "inputs": [],
      "name": "protocolTreasury",
      "outputs": [
        {
          "internalType": "address",
          "name": "",
          "type": "address"
        }
      ],
      "stateMutability": "view",
      "type": "function"
    },
    {
      "inputs": [
        {
          "internalType": "uint256",
          "name": "subnetId",
          "type": "uint256"
        }
      ],
      "name": "registerMiner",
      "outputs": [],
      "stateMutability": "nonpayable",
      "type": "function"
    },
    {
      "inputs": [
        {
          "internalType": "string",
          "name": "name",
          "type": "string"
        },
        {
          "internalType": "string",
          "name": "description",
          "type": "string"
        },
        {
          "internalType": "uint256",
          "name": "feeRate",
          "type": "uint256"
        }
      ],
      "name": "registerSubnet",
      "outputs": [
        {
          "internalType": "uint256",
          "name": "subnetId",
          "type": "uint256"
        }
      ],
      "stateMutability": "nonpayable",
      "type": "function"
    },
    {
      "inputs": [
        {
          "internalType": "uint256",
          "name": "subnetId",
          "type": "uint256"
        },
        {
          "internalType": "address",
          "name": "validator",
          "type": "address"
        }
      ],
      "name": "removeValidator",
      "outputs": [],
      "stateMutability": "nonpayable",
      "type": "function"
    },
    {
      "inputs": [],
      "name": "renounceOwnership",
      "outputs": [],
      "stateMutability": "nonpayable",
      "type": "function"
    },
    {
      "inputs": [
        {
          "internalType": "uint256",
          "name": "",
          "type": "uint256"
        },
        {
          "internalType": "uint256",
          "name": "",
          "type": "uint256"
        }
      ],
      "name": "revealCount",
      "outputs": [
        {
          "internalType": "uint256",
          "name": "",
          "type": "uint256"
        }
      ],
      "stateMutability": "view",
      "type": "function"
    },
    {
      "inputs": [],
      "name": "revealPhaseDuration",
      "outputs": [
        {
          "internalType": "uint256",
          "name": "",
          "type": "uint256"
        }
      ],
      "stateMutability": "view",
      "type": "function"
    },
    {
      "inputs": [
        {
          "internalType": "uint256",
          "name": "taskId",
          "type": "uint256"
        },
        {
          "internalType": "uint256",
          "name": "minerIndex",
          "type": "uint256"
        },
        {
          "internalType": "uint256",
          "name": "score",
          "type": "uint256"
        },
        {
          "internalType": "bytes32",
          "name": "salt",
          "type": "bytes32"
        }
      ],
      "name": "revealScore",
      "outputs": [],
      "stateMutability": "nonpayable",
      "type": "function"
    },
    {
      "inputs": [
        {
          "internalType": "uint256",
          "name": "_commitDuration",
          "type": "uint256"
        },
        {
          "internalType": "uint256",
          "name": "_revealDuration",
          "type": "uint256"
        }
      ],
      "name": "setCommitRevealConfig",
      "outputs": [],
      "stateMutability": "nonpayable",
      "type": "function"
    },
    {
      "inputs": [
        {
          "internalType": "uint256",
          "name": "subnetId",
          "type": "uint256"
        },
        {
          "internalType": "uint256",
          "name": "newMin",
          "type": "uint256"
        }
      ],
      "name": "setMinValidations",
      "outputs": [],
      "stateMutability": "nonpayable",
      "type": "function"
    },
    {
      "inputs": [
        {
          "internalType": "address",
          "name": "newTreasury",
          "type": "address"
        }
      ],
      "name": "setProtocolTreasury",
      "outputs": [],
      "stateMutability": "nonpayable",
      "type": "function"
    },
    {
      "inputs": [
        {
          "internalType": "uint256",
          "name": "taskId",
          "type": "uint256"
        },
        {
          "internalType": "string",
          "name": "resultHash",
          "type": "string"
        }
      ],
      "name": "submitResult",
      "outputs": [],
      "stateMutability": "nonpayable",
      "type": "function"
    },
    {
      "inputs": [],
      "name": "subnetCount",
      "outputs": [
        {
          "internalType": "uint256",
          "name": "",
          "type": "uint256"
        }
      ],
      "stateMutability": "view",
      "type": "function"
    },
    {
      "inputs": [
        {
          "internalType": "uint256",
          "name": "",
          "type": "uint256"
        }
      ],
      "name": "subnetMinValidations",
      "outputs": [
        {
          "internalType": "uint256",
          "name": "",
          "type": "uint256"
        }
      ],
      "stateMutability": "view",
      "type": "function"
    },
    {
      "inputs": [
        {
          "internalType": "uint256",
          "name": "",
          "type": "uint256"
        }
      ],
      "name": "subnetMinerCount",
      "outputs": [
        {
          "internalType": "uint256",
          "name": "",
          "type": "uint256"
        }
      ],
      "stateMutability": "view",
      "type": "function"
    },
    {
      "inputs": [
        {
          "internalType": "uint256",
          "name": "",
          "type": "uint256"
        },
        {
          "internalType": "address",
          "name": "",
          "type": "address"
        }
      ],
      "name": "subnetMiners",
      "outputs": [
        {
          "internalType": "bool",
          "name": "",
          "type": "bool"
        }
      ],
      "stateMutability": "view",
      "type": "function"
    },
    {
      "inputs": [
        {
          "internalType": "uint256",
          "name": "",
          "type": "uint256"
        }
      ],
      "name": "subnetValidatorCount",
      "outputs": [
        {
          "internalType": "uint256",
          "name": "",
          "type": "uint256"
        }
      ],
      "stateMutability": "view",
      "type": "function"
    },
    {
      "inputs": [
        {
          "internalType": "uint256",
          "name": "",
          "type": "uint256"
        },
        {
          "internalType": "address",
          "name": "",
          "type": "address"
        }
      ],
      "name": "subnetValidators",
      "outputs": [
        {
          "internalType": "bool",
          "name": "",
          "type": "bool"
        }
      ],
      "stateMutability": "view",
      "type": "function"
    },
    {
      "inputs": [
        {
          "internalType": "uint256",
          "name": "",
          "type": "uint256"
        }
      ],
      "name": "subnets",
      "outputs": [
        {
          "internalType": "uint256",
          "name": "id",
          "type": "uint256"
        },
        {
          "internalType": "string",
          "name": "name",
          "type": "string"
        },
        {
          "internalType": "string",
          "name": "description",
          "type": "string"
        },
        {
          "internalType": "address",
          "name": "owner",
          "type": "address"
        },
        {
          "internalType": "uint256",
          "name": "feeRate",
          "type": "uint256"
        },
        {
          "internalType": "uint256",
          "name": "minTaskReward",
          "type": "uint256"
        },
        {
          "internalType": "uint256",
          "name": "totalVolume",
          "type": "uint256"
        },
        {
          "internalType": "uint256",
          "name": "totalTasks",
          "type": "uint256"
        },
        {
          "internalType": "uint256",
          "name": "activeMiners",
          "type": "uint256"
        },
        {
          "internalType": "enum SubnetRegistry.SubnetStatus",
          "name": "status",
          "type": "uint8"
        },
        {
          "internalType": "uint256",
          "name": "createdAt",
          "type": "uint256"
        }
      ],
      "stateMutability": "view",
      "type": "function"
    },
    {
      "inputs": [
        {
          "internalType": "uint256",
          "name": "",
          "type": "uint256"
        },
        {
          "internalType": "uint256",
          "name": "",
          "type": "uint256"
        }
      ],
      "name": "taskSubmissions",
      "outputs": [
        {
          "internalType": "address",
          "name": "miner",
          "type": "address"
        },
        {
          "internalType": "string",
          "name": "resultHash",
          "type": "string"
        },
        {
          "internalType": "uint256",
          "name": "score",
          "type": "uint256"
        },
        {
          "internalType": "bool",
          "name": "validated",
          "type": "bool"
        },
        {
          "internalType": "uint256",
          "name": "submittedAt",
          "type": "uint256"
        },
        {
          "internalType": "uint256",
          "name": "validationCount",
          "type": "uint256"
        }
      ],
      "stateMutability": "view",
      "type": "function"
    },
    {
      "inputs": [
        {
          "internalType": "uint256",
          "name": "",
          "type": "uint256"
        }
      ],
      "name": "tasks",
      "outputs": [
        {
          "internalType": "uint256",
          "name": "id",
          "type": "uint256"
        },
        {
          "internalType": "uint256",
          "name": "subnetId",
          "type": "uint256"
        },
        {
          "internalType": "address",
          "name": "requester",
          "type": "address"
        },
        {
          "internalType": "string",
          "name": "taskHash",
          "type": "string"
        },
        {
          "internalType": "uint256",
          "name": "rewardAmount",
          "type": "uint256"
        },
        {
          "internalType": "uint256",
          "name": "protocolFee",
          "type": "uint256"
        },
        {
          "internalType": "uint256",
          "name": "validatorReward",
          "type": "uint256"
        },
        {
          "internalType": "uint256",
          "name": "subnetFee",
          "type": "uint256"
        },
        {
          "internalType": "uint256",
          "name": "deadline",
          "type": "uint256"
        },
        {
          "internalType": "enum SubnetRegistry.TaskStatus",
          "name": "status",
          "type": "uint8"
        },
        {
          "internalType": "address",
          "name": "winningMiner",
          "type": "address"
        },
        {
          "internalType": "uint256",
          "name": "winningScore",
          "type": "uint256"
        },
        {
          "internalType": "uint256",
          "name": "createdAt",
          "type": "uint256"
        }
      ],
      "stateMutability": "view",
      "type": "function"
    },
    {
      "inputs": [],
      "name": "totalProtocolFees",
      "outputs": [
        {
          "internalType": "uint256",
          "name": "",
          "type": "uint256"
        }
      ],
      "stateMutability": "view",
      "type": "function"
    },
    {
      "inputs": [
        {
          "internalType": "address",
          "name": "newOwner",
          "type": "address"
        }
      ],
      "name": "transferOwnership",
      "outputs": [],
      "stateMutability": "nonpayable",
      "type": "function"
    },
    {
      "inputs": [
        {
          "internalType": "uint256",
          "name": "subnetId",
          "type": "uint256"
        }
      ],
      "name": "unregisterSubnet",
      "outputs": [],
      "stateMutability": "nonpayable",
      "type": "function"
    },
    {
      "inputs": [
        {
          "internalType": "uint256",
          "name": "subnetId",
          "type": "uint256"
        },
        {
          "internalType": "uint256",
          "name": "newFeeRate",
          "type": "uint256"
        },
        {
          "internalType": "enum SubnetRegistry.SubnetStatus",
          "name": "newStatus",
          "type": "uint8"
        }
      ],
      "name": "updateSubnet",
      "outputs": [],
      "stateMutability": "nonpayable",
      "type": "function"
    },
    {
      "inputs": [
        {
          "internalType": "uint256",
          "name": "taskId",
          "type": "uint256"
        },
        {
          "internalType": "uint256",
          "name": "submissionIndex",
          "type": "uint256"
        },
        {
          "internalType": "uint256",
          "name": "score",
          "type": "uint256"
        }
      ],
      "name": "validateSubmission",
      "outputs": [],
      "stateMutability": "nonpayable",
      "type": "function"
    },
    {
      "inputs": [
        {
          "internalType": "uint256",
          "name": "",
          "type": "uint256"
        },
        {
          "internalType": "uint256",
          "name": "",
          "type": "uint256"
        },
        {
          "internalType": "address",
          "name": "",
          "type": "address"
        }
      ],
      "name": "validationCommits",
      "outputs": [
        {
          "internalType": "bytes32",
          "name": "commitHash",
          "type": "bytes32"
        },
        {
          "internalType": "uint256",
          "name": "committedAt",
          "type": "uint256"
        },
        {
          "internalType": "bool",
          "name": "revealed",
          "type": "bool"
        },
        {
          "internalType": "uint256",
          "name": "revealedScore",
          "type": "uint256"
        }
      ],
      "stateMutability": "view",
      "type": "function"
    },
    {
      "inputs": [
        {
          "internalType": "address",
          "name": "",
          "type": "address"
        }
      ],
      "name": "validatorEarnings",
      "outputs": [
        {
          "internalType": "uint256",
          "name": "",
          "type": "uint256"
        }
      ],
      "stateMutability": "view",
      "type": "function"
    },
    {
      "inputs": [
        {
          "internalType": "address",
          "name": "",
          "type": "address"
        }
      ],
      "name": "validatorReputation",
      "outputs": [
        {
          "internalType": "uint256",
          "name": "totalValidations",
          "type": "uint256"
        },
        {
          "internalType": "uint256",
          "name": "accurateValidations",
          "type": "uint256"
        },
        {
          "internalType": "uint256",
          "name": "reputationScore",
          "type": "uint256"
        },
        {
          "internalType": "uint256",
          "name": "lastActiveAt",
          "type": "uint256"
        }
      ],
      "stateMutability": "view",
      "type": "function"
    },
    {
      "inputs": [
        {
          "internalType": "uint256",
          "name": "",
          "type": "uint256"
        },
        {
          "internalType": "uint256",
          "name": "",
          "type": "uint256"
        },
        {
          "internalType": "address",
          "name": "",
          "type": "address"
        }
      ],
      "name": "validatorScores",
      "outputs": [
        {
          "internalType": "uint256",
          "name": "",
          "type": "uint256"
        }
      ],
      "stateMutability": "view",
      "type": "function"
    },
    {
      "inputs": [],
      "name": "withdrawEarnings",
      "outputs": [],
      "stateMutability": "nonpayable",
      "type": "function"
    },
    {
      "inputs": [],
      "name": "withdrawProtocolFees",
      "outputs": [],
      "stateMutability": "nonpayable",
      "type": "function"
    }
  ],
  "bytecode": "0x6080346200069657601f6200538838819003918201601f19168301916001600160401b038311848410176200051a57808492604094855283398101031262000696576200005a60206200005283620006bb565b9201620006bb565b600160005560015491604051923360018060a01b0382167f8be0079c531659141344cd1fd0a4f28419497f9722a3daafe3b4186f6b6457e0600080a36001600160a81b0319163360ff60a01b191617600155600a600555610e10601c55610708601d556001600160a01b03169182156200066457506001600160a01b03169081156200062c5760018060a01b0319600254161760025560018060a01b031960065416176006556200010a6200069b565b601481527f47656e6572616c20496e74656c6c6967656e636500000000000000000000000060208201526200013e6200069b565b602081527f546578742c20436f64652c20616e642047656e6572616c204149205461736b736020820152600354906000198214620006165760018201600355604051906001600160401b036101608301908111908311176200051a57610160820160405282825283602083015260408201523360608201526101f460808201526305f5e10060a0820152600060c0820152600060e0820152600061010082015260006101208201524261014082015281600052600960205260406000209080518255602081015180519060018060401b0382116200051a57600184015490600182811c921680156200060b575b6020831014620004f95781601f849311620005b3575b50602090601f83116001146200053c5760009262000530575b50508160011b916000199060031b1c19161760018301555b60408101518051906001600160401b0382116200051a57600284015490600182811c921680156200050f575b6020831014620004f95781601f849311620004a1575b50602090601f83116001146200042a576000926200041e575b50508160011b916000199060031b1c19161760028301555b6060810151600383810180546001600160a01b0319166001600160a01b0393909316929092179091556080820151600484015560a0820151600584015560c0820151600684015560e082015160078401556101008201516008840155610120820151600984019290918210156200040857600a926101409260ff80198354169116179055015191015580600052600860205260026040600020556040516040815282519283604083015260005b848110620003f15750508060006060857f8e46dcab88334408205dfdff058de646a02ab7fddb35b9923e924e49ce505c30940101526101f460208201526060813395601f80199101168101030190a3604051614cb79081620006d18239f35b806020809284010151606082860101520162000392565b634e487b7160e01b600052602160045260246000fd5b015190503880620002cd565b9250600285016000526020600020906000935b601f198416851062000485576001945083601f198116106200046b575b505050811b016002830155620002e5565b015160001960f88460031b161c191690553880806200045a565b818101518355602094850194600190930192909101906200043d565b909150600285016000526020600020601f840160051c810160208510620004f1575b90849392915b601f830160051c82018110620004e1575050620002b4565b60008155859450600101620004c9565b5080620004c3565b634e487b7160e01b600052602260045260246000fd5b91607f16916200029e565b634e487b7160e01b600052604160045260246000fd5b0151905038806200025a565b9250600185016000526020600020906000935b601f198416851062000597576001945083601f198116106200057d575b505050811b01600183015562000272565b015160001960f88460031b161c191690553880806200056c565b818101518355602094850194600190930192909101906200054f565b909150600185016000526020600020601f840160051c81016020851062000603575b90849392915b601f830160051c82018110620005f357505062000241565b60008155859450600101620005db565b5080620005d5565b91607f16916200022b565b634e487b7160e01b600052601160045260246000fd5b60405162461bcd60e51b815260206004820152601060248201526f496e76616c696420747265617375727960801b6044820152606490fd5b62461bcd60e51b815260206004820152600d60248201526c24b73b30b634b2103a37b5b2b760991b6044820152606490fd5b600080fd5b60408051919082016001600160401b038111838210176200051a57604052565b51906001600160a01b0382168203620006965756fe6080604052600436101561001257600080fd5b60003560e01c8063072f4fc014613bc15780630c5a61f814613b745780630ebac45a14613b415780630f0da71914613b075780630fb6d80514613ac057806310c6bd2514613a9457806310f0dde414613a7757806316c53ced1461390f5780631d65e77e1461371c5780631dc375b9146136715780631dd73e0d1461332457806323f2a73f14610eca57806324c3fd2f146133035780632fa70f48146132d75780633370f06e146132ba578063393880061461328057806339b1185d146132625780633c9a6bf3146131f45780633f422ef314613118578063475726f71461303f578063483b4039146130215780634af93988146130045780634b56175314612e6557806351b15b8a14612e3957806353eea87514612da057806358ca750414612be65780635c975abb14612bc05780635cc9bca91461275c57806362ecc47a146125cb57806365617a35146125c657806368a7f8261461216b5780636a0cd1f51461208d5780636f5474bf14611f76578063715018a614611f1957806377ad68da14611ee65780637b61748214611e455780637be24cb814611e195780637ca0ad2d14611dcd5780637d7fcda014611daf578063803db96d14611d865780638795cccb14611ce957806388488c3314611afd5780638c0a4a051461149d5780638c0dd79a146115f85780638d977672146115135780638da5cb5b146114ea5780638ee9f6dc1461149d578063916a5c5b1461147f578063927229c614610fad57806393af007614610f9057806396511dcd14610f565780639d7eea9f14610f17578063a3be1eab14610eca578063ac64c82214610e7d578063b46e742414610e4a578063b73c6ce914610d8e578063b7ee5eda146109eb578063be12332314610726578063c6a1a01a146106bc578063ca7b64bb1461069c578063d127048514610640578063d1faf40614610533578063d53580de146104eb578063d65314b31461047b578063dfc753721461045d578063f2fde38b14610399578063f3f437031461035f578063f526e39a146103415763f70b5c061461031357600080fd5b3461033c57600036600319011261033c576002546040516001600160a01b039091168152602090f35b600080fd5b3461033c57600036600319011261033c576020600754604051908152f35b3461033c57602036600319011261033c576001600160a01b03610380613be1565b1660005260166020526020604060002054604051908152f35b3461033c57602036600319011261033c576103b2613be1565b6103ba6142b9565b6001600160a01b0390811690811561040957600154826001600160601b0360a01b821617600155167f8be0079c531659141344cd1fd0a4f28419497f9722a3daafe3b4186f6b6457e0600080a3005b60405162461bcd60e51b815260206004820152602660248201527f4f776e61626c653a206e6577206f776e657220697320746865207a65726f206160448201526564647265737360d01b6064820152608490fd5b3461033c57600036600319011261033c576020601d54604051908152f35b3461033c57604061048b36613c23565b826000526020916012835284600020816000528352846000209160018060a01b03169182600052835260ff856000205416936000526011835284600020906000528252836000209060005281528260002054918351928352151590820152f35b3461033c57604036600319011261033c576001600160a01b0361050c613be1565b16600052601e60205260406000206024356000526020526020604060002054604051908152f35b3461033c57602036600319011261033c5761054c614311565b60043560005260096020526040600020600960018060a01b0391610577836003830154163314614227565b019081549160ff8316600381101561062a57801590811561061f575b50156105e55760026105de9360ff1916179055600254166040519063a9059cbb60e01b602083015233602483015264e8d4a510006044830152604482526105d982613d0b565b614a5f565b6001600055005b60405162461bcd60e51b8152602060048201526012602482015271105b1c9958591e4819195c1c9958d85d195960721b6044820152606490fd5b600191501484610593565b634e487b7160e01b600052602160045260246000fd5b3461033c57602036600319011261033c576001600160a01b03610661613be1565b166000526017602052608060406000208054906001810154906003600282015491015491604051938452602084015260408301526060820152f35b3461033c57600036600319011261033c57602060405164174876e8008152f35b3461033c57600036600319011261033c5760038054600090815b8181106106e857602083604051908152f35b8060005260ff60098060205260406000200154168481101561062a5715610712575b6001016106d6565b9161071e600191614048565b92905061070a565b3461033c5761073436613c0d565b9080600052602091600c8352604060002033600052835260ff60406000205416156109a65780600052600c8352604060002033600052835260ff60406000205416156109615780821461092e5733600052601f835260406000205462015180810180911161089f5742106108f257336000526017835260406000208054156108b5576002015490611388918281029080820484149015171561089f57612710900491821061084e57601f7f28712f42bb62447cac6809da4bee68e8b6d1786eff0b73558cac4884c0fb64b6939433600052601e81526040600020836000528152836040600020553360005252426040600020556108496040519283923396846040919493926060820195825260208201520152565b0390a2005b60405162461bcd60e51b8152600481018590526024808201527f506f727465642073636f7265206e6f7420626574746572207468616e20646566604482015263185d5b1d60e21b6064820152608490fd5b634e487b7160e01b600052601160045260246000fd5b60405162461bcd60e51b8152600481018590526015602482015274139bc81c995c1d5d185d1a5bdb881d1bc81c1bdc9d605a1b6044820152606490fd5b60405162461bcd60e51b8152600481018490526014602482015273506f727420636f6f6c646f776e2061637469766560601b6044820152606490fd5b60405162461bcd60e51b815260048101849052600b60248201526a14d85b59481cdd589b995d60aa1b6044820152606490fd5b60405162461bcd60e51b815260048101849052601e60248201527f4e6f742076616c696461746f7220696e20746172676574207375626e657400006044820152606490fd5b60405162461bcd60e51b815260048101849052601e60248201527f4e6f742076616c696461746f7220696e20736f75726365207375626e657400006044820152606490fd5b3461033c57606036600319011261033c576004356024356044359082600052602090600a8252604060002092600984019260ff845416600681101561062a57806002610a409214908115610d83575b50613f3c565b60018501938454600052600c82526040600020336000528252610a6a60ff60406000205416613f7d565b86600052600b8252610a826040600020548510613fbb565b610a9061271084111561418b565b86600052601282526040600020846000528252604060002033600052825260ff60406000205416610d2d5786600052600b8252610ad1846040600020613e4b565b5090600382019360ff855416610cea5788600052601b84526040600020866000528452604060002054610c8b578860005260118452604060002086600052845260406000203360005284528060406000205588600052601284526040600020866000528452604060002033600052845260406000209660ff199760018982541617905589600052601385526040600020876000528552610b753360406000206141df565b60086005850195610b868754614048565b9283885560018060a01b03948d7f424e5ad88b2accc1579e610100b12e0f295d8c9e0b02abb61ad1e413e3d63d026040888b54169381519081523387820152a354600052526040600020548015610c83575b811015610be157005b7fff2fc693bb2d4a09f21f0c403fce5ecb4b5b0b57e81c7253deb5386bb8a8ae7798610849966001610c16600a948b8f61443a565b9a8b600289015582541617905501928784548111610c52575b505050505054604051938493846040919493926060820195825260208201520152565b90935591548154610100600160a81b031916921660081b610100600160a81b03169190911790558680808087610c2f565b506002610bd8565b60405162461bcd60e51b815260048101859052603160248201527f436f6d6d69742d72657665616c206163746976653a2075736520636f6d6d697460448201527053636f72652f72657665616c53636f726560781b6064820152608490fd5b6064846040519062461bcd60e51b825280600483015260248201527f5375626d697373696f6e20616c72656164792068617320636f6e73656e7375736044820152fd5b60405162461bcd60e51b815260048101839052602860248201527f56616c696461746f7220616c72656164792073636f72656420746869732073756044820152673136b4b9b9b4b7b760c11b6064820152608490fd5b600191501488610a3a565b3461033c57600036600319011261033c57610da7614311565b3360005260166020526040600020548015610e0f576105de90336000526016602052600060408120556040518181527f48dc35af7b45e2a81fffad55f6e2fafacdb1d3d0d50d24ebdc16324f5ba757f160203392a260025433906001600160a01b03166143ae565b60405162461bcd60e51b81526020600482015260136024820152724e6f2070656e64696e67206561726e696e677360681b6044820152606490fd5b3461033c57610e5836613c0d565b90600052601a6020526040600020906000526020526020604060002054604051908152f35b3461033c57604036600319011261033c57610e96613bf7565b600435600052601060205260406000209060018060a01b0316600052602052602060ff604060002054166040519015158152f35b3461033c57604036600319011261033c57610ee3613bf7565b600435600052600c60205260406000209060018060a01b0316600052602052602060ff604060002054166040519015158152f35b3461033c57604036600319011261033c576020604051818101906004358252602435604082015260408152610f4b81613d5d565b519020604051908152f35b3461033c57602036600319011261033c576001600160a01b03610f77613be1565b16600052601f6020526020604060002054604051908152f35b3461033c57600036600319011261033c5760206040516105dc8152f35b3461033c57606036600319011261033c576004356001600160401b03811161033c57610fdd903690600401613e7d565b906024356001600160401b03811161033c57610ffd903690600401613e7d565b92611006614311565b61100e614367565b801561144d57611081926110799161102c6107d06044351115614266565b6002546040516323b872dd60e01b602082015233602482015230604482015264e8d4a510006064808301919091528152611072916001600160a01b03166105d982613d42565b3691614154565b923691614154565b906003549061108f82614048565b6003556040519261109f84613d26565b828452816020850152604084015233606084015260443560808401526305f5e10060a0840152600060c0840152600060e0840152600061010084015260006101208401524261014084015281600052600960205260406000208351815560208401518051906001600160401b0382116113675781906111216001850154613c9a565b601f81116113fa575b50602090601f83116001146113885760009261137d575b50508160011b916000199060031b1c19161760018201555b60408401518051906001600160401b03821161136757819061117e6002850154613c9a565b601f8111611314575b50602090601f83116001146112a257600092611297575b50508160011b916000199060031b1c19161760028201555b6003810160018060a01b036060860151166001600160601b0360a01b8254161790556080840151600482015560a0840151600582015560c0840151600682015560e08401516007820155610100840151600882015561012084015193600385101561062a57610140600a91611230602097600986016142a1565b015191015581600052600883526002604060002055817f8e46dcab88334408205dfdff058de646a02ab7fddb35b9923e924e49ce505c3061127c60405193604085526040850190613c4d565b92604435868201528033940390a36001600055604051908152f35b01519050868061119e565b9250600284016000526020600020906000935b601f19841685106112f9576001945083601f198116106112e0575b505050811b0160028201556111b6565b015160001960f88460031b161c191690558680806112d0565b818101518355602094850194600190930192909101906112b5565b909150600284016000526020600020601f840160051c810160208510611360575b90849392915b601f830160051c82018110611351575050611187565b6000815585945060010161133b565b5080611335565b634e487b7160e01b600052604160045260246000fd5b015190508680611141565b9250600184016000526020600020906000935b601f19841685106113df576001945083601f198116106113c6575b505050811b016001820155611159565b015160001960f88460031b161c191690558680806113b6565b8181015183556020948501946001909301929091019061139b565b909150600184016000526020600020601f840160051c810160208510611446575b90849392915b601f830160051c8201811061143757505061112a565b60008155859450600101611421565b508061141b565b60405162461bcd60e51b815260206004820152600a602482015269456d707479206e616d6560b01b6044820152606490fd5b3461033c57600036600319011261033c576020600354604051908152f35b3461033c57604036600319011261033c576114b6613bf7565b600435600052600e60205260406000209060018060a01b0316600052602052602060ff604060002054166040519015158152f35b3461033c57600036600319011261033c576001546040516001600160a01b039091168152602090f35b3461033c57602036600319011261033c576004356000908152600a602052604090208054600182015460028301546060936001600160a01b03918216939161155d60038301613d99565b93600483015494600584015460068501546007860154916115b2600888015494600989015496600b600a8b01549a01549a6040519e8f9e8f906101a094859483526020830152604082015201528c0190613c4d565b9860808b015260a08a015260c089015260e08801526101008701526115de610120870160ff8316613c8d565b60081c166101408501526101608401526101808301520390f35b3461033c57604036600319011261033c576024356001600160401b03811161033c57611628903690600401613e7d565b611630614311565b600435600052600a602052604060002060ff6009820154166006811015908161062a578015918215611aef575b8215611ade575b505015611aa9576008810154421015611a75576001810154600052600e60205260406000203360005260205260ff6040600020541615611a3057600435600052601060205260406000203360005260205260ff604060002054166119eb57600435600052600b60205260406000205460055411156119a65760043560005260106020526040600020336000526020526040600020600160ff19825416179055600435600052600b60205260406000206040519061172082613cd4565b33825261172e368587614154565b60208301526000604083015260006060830152426080830152600060a08301528054600160401b8110156113675761176b91600182018155613e4b565b91909161199057805182546001600160a01b0319166001600160a01b039190911617825560208101518051906001600160401b038211611367576117b26001850154613c9a565b601f8111611949575b50602090601f83116001146118d45791806005949260a0946000926118c9575b50508160011b916000199060031b1c19161760018501555b6040810151600285015561181c60608201511515600386019060ff801983541691151516179055565b608081015160048501550151910155600981015460ff8116600681101561062a5780159081156118be575b506118aa575b505080604051926020845281602085015260408401376000604082840101527fa3dcf7cebcc4cf0937f4f95d95392671977ba143b4ff236240650322a106e8dc339260408160043594601f80199101168101030190a36001600055005b600260099160ff191617910155828061184d565b600191501485611847565b0151905089806117db565b906001850160005260206000209160005b601f19851681106119315750926005949260019260a09583601f19811610611918575b505050811b0160018501556117f3565b015160001960f88460031b161c19169055898080611908565b919260206001819286850151815501940192016118e5565b600185016000526020600020601f840160051c810160208510611989575b601f830160051c8201811061197d5750506117bb565b60008155600101611967565b5080611967565b634e487b7160e01b600052600060045260246000fd5b60405162461bcd60e51b815260206004820152601760248201527f4d6178207375626d697373696f6e7320726561636865640000000000000000006044820152606490fd5b60405162461bcd60e51b815260206004820152601760248201527f4d696e657220616c7265616479207375626d69747465640000000000000000006044820152606490fd5b60405162461bcd60e51b815260206004820152601860248201527f4e6f74207265676973746572656420696e207375626e657400000000000000006044820152606490fd5b60405162461bcd60e51b815260206004820152600c60248201526b15185cdac8195e1c1a5c995960a21b6044820152606490fd5b60405162461bcd60e51b815260206004820152600d60248201526c10d85b9b9bdd081cdd589b5a5d609a1b6044820152606490fd5b90915061062a576002148480611664565b50600181149150600061165d565b3461033c5760208060031936011261033c5760043590611b1b614311565b81600052600a8152604060002090600982019081549160ff8316600681101561062a57600203611cb8576001600160a01b03600884901c811693908415611c87578692611c427fae64f0a069112683796fc01e7d04ea7e255a3cd070a7dce992fdcdecbc1e6d5293889360018501549760048601549460036007600660058a01549901549d01549460ff1916179055886000526009815260406000209160068301611bc787825461403b565b905560078301611bd78154614048565b9055611be58760075461403b565b6007558a600052601582526040600020611c0087825461403b565b90558a600052601682526040600020611c1a87825461403b565b905583611c61575b505050604051938493846040919493926060820195825260208201520152565b0390a480611c51576001600055005b611c5a91614601565b80806105de565b6003601693015416600052526040600020611c7d82825461403b565b90558a8080611c22565b60405162461bcd60e51b81526004810185905260096024820152682737903bb4b73732b960b91b6044820152606490fd5b60405162461bcd60e51b81526004810183905260096024820152684e6f7420726561647960b81b6044820152606490fd5b3461033c57600036600319011261033c57611d026142b9565b6007548015611d5757611d5590600060075560018060a01b03806006541690817fa087657e3d85162090ffd700fbfdf5070d816f63aa5da00063f6ffd369c8a6db6020604051868152a2600254166143ae565b005b60405162461bcd60e51b81526020600482015260076024820152664e6f206665657360c81b6044820152606490fd5b3461033c57600036600319011261033c576006546040516001600160a01b039091168152602090f35b3461033c57600036600319011261033c576020604051620151808152f35b3461033c57611ddb36613c23565b91600052601260205260406000209060005260205260406000209060018060a01b0316600052602052602060ff604060002054166040519015158152f35b3461033c57602036600319011261033c57600435600052600b6020526020604060002054604051908152f35b3461033c57606036600319011261033c57600435602435604435600381101561033c577fa2191efe487e08892e9d1920150485aaf7591f089bdde895929d692ea8c4e08a91611ee3604092856000526009602052611ed481600986600020611eba60018060a01b036003830154163314614227565b611ec86107d0881115614266565b866004820155016142a1565b83519283526020830190613e3e565ba2005b3461033c57611ef436613c0d565b90600052601b6020526040600020906000526020526020604060002054604051908152f35b3461033c57600036600319011261033c57611f326142b9565b600180546001600160a01b031981169091556000906001600160a01b03167f8be0079c531659141344cd1fd0a4f28419497f9722a3daafe3b4186f6b6457e08280a3005b3461033c5760208060031936011261033c5760043590816000526009815260ff60096040600020015416600381101561062a57611fb390156140c6565b81600052600e8152604060002033600052815260ff604060002054166120545760099082600052600e815260406000203360005281526040600020600160ff1982541617905582600052600f815260406000206120108154614048565b9055826000525260086040600020016120298154614048565b905533907fbaae7a2be0ecfa867d60fcdae77877a3dda7484c504290098d77f256415abab2600080a3005b6064906040519062461bcd60e51b825260048201526012602482015271105b1c9958591e481c9959da5cdd195c995960721b6044820152fd5b3461033c57604036600319011261033c576004356120a9613bf7565b9080600052600d60206009815260018060a01b0380600360406000200154163314801561215e575b6120da90613eff565b83600052600c8252604060002094169384600052815261210160ff60406000205416613f7d565b82600052600c81526040600020846000528152604060002060ff19815416905582600052526040600020612135815461421a565b90557f7126bef88d1149ccdff9681ed5aecd3ba5ae70c96517551de250af09cebd1a0b600080a3005b50600154811633146120d1565b3461033c57608036600319011261033c576004356024908135604490813591606484600052602090600a8252604060002094600986019060ff82541660068110156125b1578060026121c592149081156125a65750613f3c565b60018701938454600052600c815260406000203360005281526121ef60ff60406000205416613f7d565b88600052600b81526122076040600020548810613fbb565b61221561271083111561418b565b88600052600b815261222b876040600020613e4b565b5093600385019661224060ff89541615613ff7565b8a600052601b83526040600020896000528352612265604060002054601c549061403b565b612271601d548261403b565b90421115612565574211612530578a600052601883526040600020896000528352604060002033600052835260406000209182549182156124fd5760ff9b9c9d600285019384549d8e166124c9576040518781019089825285356040820152604081526122dd81613d5d565b51902003612499575050506003600893928592600160ff19809e1617905501558a600052601a81526040600020886000528152604060002061231f8154614048565b90558a6000526011815260406000208860005281526040600020336000528152826040600020558a6000526012815260406000208860005281526040600020336000528152604060002060018a8254161790558a6000526013815260406000208860005281526123933360406000206141df565b60058501956123a28754614048565b93848855604051908a8252838201528c7f23def086b3dc14dbd150f69d2e6af648dfc789cdf251ba7d720feecbc0625f8560403393a354600052526040600020548015612491575b8110156123f357005b7fff2fc693bb2d4a09f21f0c403fce5ecb4b5b0b57e81c7253deb5386bb8a8ae7797610849956001612428600a948a8e61443a565b998a600288015582541617905501918683548111612463575b5050505054604051938493846040919493926060820195825260208201520152565b90925590548154610100600160a81b03191660089190911b610100600160a81b031617905586808086612441565b5060026123ea565b8591600d6c090c2e6d040dad2e6dac2e8c6d609b1b926040519462461bcd60e51b86526004860152840152820152fd5b50859160106f105b1c9958591e481c995d99585b195960821b926040519462461bcd60e51b86526004860152840152820152fd5b6e139bc818dbdb5b5a5d08199bdd5b99608a1b85918f600f906040519462461bcd60e51b86526004860152840152820152fd5b7114995d99585b081c1a185cd948195b99195960721b839160128e6040519462461bcd60e51b86526004860152840152820152fd5b507f436f6d6d6974207068617365206e6f7420656e646564207965740000000000008391601a8e6040519462461bcd60e51b86526004860152840152820152fd5b60019150148b610a3a565b89634e487b7160e01b60005260216004526000fd5b613bc1565b3461033c57602036600319011261033c576125e4614311565b600435600052600a6020526040600020600981019081549060ff82166006811015908161062a57801591821561274e575b821561273d575b5050156127035760088101544211156126c7576001600160a01b03600883901c811661268e576105de93600561267661266b6126606004870154848801549061403b565b60068701549061403b565b60078601549061403b565b9460ff191617905560028181541692015416906143ae565b60405162461bcd60e51b81526020600482015260116024820152702a30b9b5903430b99030903bb4b73732b960791b6044820152606490fd5b60405162461bcd60e51b815260206004820152601460248201527315185cdac81b9bdd081e595d08195e1c1a5c995960621b6044820152606490fd5b60405162461bcd60e51b81526020600482015260126024820152715461736b206e6f7420657870697261626c6560701b6044820152606490fd5b90915061062a57600214848061261c565b506001811491506000612615565b3461033c57608036600319011261033c576024356001600160401b03811161033c5761278c903690600401613e7d565b612794614311565b61279c614367565b600435600052600960205260406000209160ff600984015416600381101561062a576127c890156140c6565b600583015460443510612b8a57606435151580612b7b575b15612b43576101f4806044350293604435159160443586041482171561089f57612710906105dc92836044350293604435850414171561089f5761282b600483920154604435614106565b049161288a61284d84612848858504612848878c0460443561403b565b61403b565b6002546040516323b872dd60e01b60208201523360248201523060448201526064808201939093529182526001600160a01b03166105d982613d42565b816004549661289888614048565b6004556128d06128aa6064354261403b565b96604051986128b88a613cef565b8a8a5260043560208b01523360408b01523691614154565b606088015260443560808801520460a08601520460c084015260e08301526101008201526000610120820152600061014082015260006101608201524261018082015281600052600a60205260406000209181518355602082015160018401556002830160018060a01b036040840151166001600160601b0360a01b82541617905560608201519283516001600160401b038111611367576129756003830154613c9a565b601f8111612afc575b506020601f8211600114612a8d578192939495600092612a82575b50508160011b916000199060031b1c19161760038201555b6080830151600482015560a0830151600582015560c0830151600682015560e0830151600782015561010083015160088201556009810161012084015190600682101561062a578054610140860151610100600160a81b0360089190911b1660ff939093166001600160a81b031990911617919091179055602092600b9061018090610160810151600a850155015191015560405160443581523390827f428f55877ee911b6c5acc83ef215f08675d3787bdfac5018bbe41876df710f498560043593a46001600055604051908152f35b015190508580612999565b6003830160005260206000209060005b601f1984168110612ae4575060019394959683601f19811610612acb575b505050811b0160038201556129b1565b015160001960f88460031b161c19169055858080612abb565b9091602060018192858b015181550193019101612a9d565b600383016000526020600020601f830160051c810160208410612b3c575b601f830160051c82018110612b3057505061297e565b60008155600101612b1a565b5080612b1a565b60405162461bcd60e51b815260206004820152601060248201526f24b73b30b634b210323ab930ba34b7b760811b6044820152606490fd5b5062093a8060643511156127e0565b60405162461bcd60e51b815260206004820152600e60248201526d52657761726420746f6f206c6f7760901b6044820152606490fd5b3461033c57600036600319011261033c57602060ff60015460a01c166040519015158152f35b3461033c57602036600319011261033c576000610140604051612c0881613d26565b82815260606020820152606060408201528260608201528260808201528260a08201528260c08201528260e0820152826101008201528261012082015201526004356000526009602052604060002060405190612c6482613d26565b80548252612c7460018201613d99565b6020830152612c8560028201613d99565b60408301526003818101546001600160a01b0316606084015260048201546080840152600582015460a0840152600682015460c0840152600782015460e08401526008820154610100840152600982015460ff16919082101561062a57600a91610120840152015461014082015260405180916020825280516020830152610140612d3a612d2460208401516101606040870152610180860190613c4d565b6040840151858203601f19016060870152613c4d565b9160018060a01b036060820151166080850152608081015160a085015260a081015160c085015260c081015160e085015260e0810151610100850152610100810151610120850152612d9461012082015183860190613e3e565b01516101608301520390f35b3461033c57612dae36613c0d565b90600052600b602052604060002090815481101561033c57612dcf91613e4b565b5080546001600160a01b0316612de760018301613d99565b9160028101549060ff600382015416906005600482015491015491612e1e604051968796875260c0602088015260c0870190613c4d565b93604086015215156060850152608084015260a08301520390f35b3461033c57602036600319011261033c57600435600052600d6020526020604060002054604051908152f35b3461033c57604036600319011261033c57600435612e81613bf7565b90806000526020916009835260018060a01b0390816003604060002001541633148015612ff7575b612eb290613eff565b1691612ebf831515613eaa565b81600052600c8152604060002083600052815260ff60406000205416612fbf5781600052600c815260406000208360005281526040600020600160ff1982541617905581600052600d81526040600020612f198154614048565b9055826000526017815260406000206002810154159081612fb5575b50612f63575b507f7429a06e9412e469f0d64f9d222640b0af359f556b709e2913588c227851b88d600080a3005b600360405191612f7283613d0b565b6000835280830160008152604084019061138882526017606086019342855288600052526040600020945185555160018501555160028401555191015582612f3b565b9050541584612f35565b6064906040519062461bcd60e51b82526004820152601160248201527020b63932b0b23c903b30b634b230ba37b960791b6044820152fd5b5060015482163314612ea9565b3461033c57600036600319011261033c5760206040516107d08152f35b3461033c57600036600319011261033c576020601c54604051908152f35b3461033c57602036600319011261033c5760043560005260096020526040600020805461306e60018301613d99565b9161307b60028201613d99565b61310e60018060a01b03600384015416926004810154600582015460068301546007840154916008850154936130e3600a60ff600989015416970154986130d56040519d8e9d8e6101609181528160208201520190613c4d565b8c810360408e015290613c4d565b9860608b015260808a015260a089015260c088015260e0870152610100860152610120850190613e3e565b6101408301520390f35b3461033c5761312636613c0d565b61312e6142b9565b61012c8083106131b657811061317857816040917f54333de66970050ba341fd48b02b1e37c55d85ae724ee00e32233e89e072bea893601c5580601d5582519182526020820152a1005b60405162461bcd60e51b815260206004820152601660248201527514995d99585b081c1a185cd9481d1bdbc81cda1bdc9d60521b6044820152606490fd5b60405162461bcd60e51b815260206004820152601660248201527510dbdb5b5a5d081c1a185cd9481d1bdbc81cda1bdc9d60521b6044820152606490fd5b3461033c5761320236613c23565b91600052601860205260406000209060005260205260406000209060018060a01b031660005260205260806040600020805490600181015490600360ff600283015416910154916040519384526020840152151560408301526060820152f35b3461033c57600036600319011261033c576020600554604051908152f35b3461033c57602036600319011261033c576001600160a01b036132a1613be1565b1660005260146020526020604060002054604051908152f35b3461033c57600036600319011261033c5760206040516113888152f35b3461033c57602036600319011261033c57600435600052600f6020526020604060002054604051908152f35b3461033c57602061331c61331636613c0d565b90614057565b604051908152f35b3461033c57606036600319011261033c5760043560249081359060443581600052602090600a8252604060002060ff60098201541690600682101561365c5761337a826002600194149081156136525750613f3c565b0154600052600c8252604060002033600052825261339f60ff60406000205416613f7d565b82600052600b82526133b76040600020548510613fbb565b801561361a5782600052600b82526133e460ff60036133da876040600020613e4b565b5001541615613ff7565b8260005260188252604060002084600052825260406000203360005282526040600020546135e25782600052601282526040600020846000528252604060002033600052825260ff6040600020541661359e5782600052601b825260406000208460005282526040600020541561357f575b82600052601b8252604060002084600052825261347b604060002054601c549061403b565b4211613546576040517f96e134fdbcf6f2b8942aa1450973cc1e5914913673abacabebf1f0b14fe4a55292916134b082613d0b565b815260038282014281526135136040840160008152606085019260008452886000526018875260406000208a60005287526040600020336000528752604060002095518655516001860155511515600285019060ff801983541691151516179055565b519101558260005260198152604060002084600052815260406000206135398154614048565b90556040519384523393a3005b60405162461bcd60e51b8152600481018390526012818701527110dbdb5b5a5d081c1a185cd948195b99195960721b6044820152606490fd5b82600052601b8252604060002084600052825242604060002055613456565b60405162461bcd60e51b8152600481018390526017818701527f416c72656164792073636f726564206469726563746c790000000000000000006044820152606490fd5b60405162461bcd60e51b81526004810183905260118187015270105b1c9958591e4818dbdb5b5a5d1d1959607a1b6044820152606490fd5b60405162461bcd60e51b8152600481018390526011818701527008adae0e8f240c6dedadad2e840d0c2e6d607b1b6044820152606490fd5b8491501489610a3a565b86634e487b7160e01b60005260216004526000fd5b3461033c5761367f36613c0d565b908060005260096020526136ae60018060a01b038060036040600020015416331490811561370e575b50613eff565b600182106136c9576000526008602052604060002055600080f35b60405162461bcd60e51b815260206004820152601c60248201527f4d696e2076616c69646174696f6e73206d757374206265203e3d2031000000006044820152606490fd5b9050600154163314846136a8565b3461033c57602036600319011261033c57600061018060405161373e81613cef565b8281528260208201528260408201526060808201528260808201528260a08201528260c08201528260e0820152826101008201528261012082015282610140820152826101608201520152600435600052600a6020526040600020604051906137a682613cef565b805482526001810154602083015260028101546001600160a01b031660408301526137d360038201613d99565b606083015260048101546080830152600581015460a0830152600681015460c0830152600781015460e08301526008810154610100830152600981015490600660ff8316101561062a578160ff600b931661012085015260018060a01b039060081c16610140840152600a8101546101608401520154610180820152604051809160208252805160208301526020810151604083015260018060a01b03604082015116606083015261018061389960608301516101a060808601526101c0850190613c4d565b91608081015160a085015260a081015160c085015260c081015160e085015260e08101516101008501526101008101516101208501526138e3610120820151610140860190613c8d565b6101408101516001600160a01b0316610160858101919091528101518285015201516101a08301520390f35b3461033c5760208060031936011261033c57600435600052600b815260406000209081549161393d83613ee8565b9261394b6040519485613d78565b8084528284018092600052836000206000915b838310613a0a5750505050604051918083019381845251809452604083019360408160051b85010192916000955b8287106139995785850386f35b909192938280600192603f198982030185528751906139d060c0868060a01b03845116835284840151908086850152830190613c4d565b91604081015160408301526060808201511515908301526080808201519083015260a080910151910152960192019601959291909261398c565b600686600192604099989951613a1f81613cd4565b848060a01b038654168152613a35858701613d99565b838201526002860154604082015260ff6003870154161515606082015260048601546080820152600586015460a082015281520192019201919095949561395e565b3461033c57600036600319011261033c5760206040516101f48152f35b3461033c57602036600319011261033c5760043560005260086020526020604060002054604051908152f35b3461033c57613ace36613c23565b91600052601160205260406000209060005260205260406000209060018060a01b03166000526020526020604060002054604051908152f35b3461033c57602036600319011261033c576001600160a01b03613b28613be1565b1660005260156020526020604060002054604051908152f35b3461033c57613b4f36613c0d565b9060005260196020526040600020906000526020526020604060002054604051908152f35b3461033c57602036600319011261033c57613b8d613be1565b613b956142b9565b6001600160a01b0316613ba9811515613eaa565b6001600160601b0360a01b6006541617600655600080f35b3461033c57600036600319011261033c57602060405164e8d4a510008152f35b600435906001600160a01b038216820361033c57565b602435906001600160a01b038216820361033c57565b604090600319011261033c576004359060243590565b606090600319011261033c5760043590602435906044356001600160a01b038116810361033c5790565b919082519283825260005b848110613c79575050826000602080949584010152601f8019910116010190565b602081830181015184830182015201613c58565b90600682101561062a5752565b90600182811c92168015613cca575b6020831014613cb457565b634e487b7160e01b600052602260045260246000fd5b91607f1691613ca9565b60c081019081106001600160401b0382111761136757604052565b6101a081019081106001600160401b0382111761136757604052565b608081019081106001600160401b0382111761136757604052565b61016081019081106001600160401b0382111761136757604052565b60a081019081106001600160401b0382111761136757604052565b606081019081106001600160401b0382111761136757604052565b90601f801991011681019081106001600160401b0382111761136757604052565b90604051918260008254613dac81613c9a565b90818452602094600191600181169081600014613e1c5750600114613ddd575b505050613ddb92500383613d78565b565b600090815285812095935091905b818310613e04575050613ddb9350820101388080613dcc565b85548884018501529485019487945091830191613deb565b92505050613ddb94925060ff191682840152151560051b820101388080613dcc565b90600382101561062a5752565b8054821015613e67576000526006602060002091020190600090565b634e487b7160e01b600052603260045260246000fd5b9181601f8401121561033c578235916001600160401b03831161033c576020838186019501011161033c57565b15613eb157565b60405162461bcd60e51b815260206004820152600f60248201526e496e76616c6964206164647265737360881b6044820152606490fd5b6001600160401b0381116113675760051b60200190565b15613f0657565b60405162461bcd60e51b815260206004820152600e60248201526d139bdd08185d5d1a1bdc9a5e995960921b6044820152606490fd5b15613f4357565b60405162461bcd60e51b81526020600482015260126024820152714e6f742070656e64696e672072657669657760701b6044820152606490fd5b15613f8457565b60405162461bcd60e51b815260206004820152600f60248201526e2737ba1030903b30b634b230ba37b960891b6044820152606490fd5b15613fc257565b60405162461bcd60e51b815260206004820152600d60248201526c092dcecc2d8d2c840d2dcc8caf609b1b6044820152606490fd5b15613ffe57565b60405162461bcd60e51b8152602060048201526015602482015274416c72656164792068617320636f6e73656e73757360581b6044820152606490fd5b9190820180921161089f57565b600019811461089f5760010190565b6000908152600860205260408120549182156140bd575b64e8d4a51000811061409e57506002820180921161408a575090565b634e487b7160e01b81526011600452602490fd5b64174876e80011156140ae575090565b6001820180921161408a575090565b6002925061406e565b156140cd57565b60405162461bcd60e51b81526020600482015260116024820152705375626e6574206e6f742061637469766560781b6044820152606490fd5b8181029291811591840414171561089f57565b8115614123570490565b634e487b7160e01b600052601260045260246000fd5b6001600160401b03811161136757601f01601f191660200190565b92919261416082614139565b9161416e6040519384613d78565b82948184528183011161033c578281602093846000960137010152565b1561419257565b60405162461bcd60e51b815260206004820152600d60248201526c496e76616c69642073636f726560981b6044820152606490fd5b8054821015613e675760005260206000200190600090565b8054600160401b811015611367576141fc916001820181556141c7565b60018060a09493941b038084549260031b9316831b921b1916179055565b801561089f576000190190565b1561422e57565b60405162461bcd60e51b815260206004820152601060248201526f2737ba1039bab13732ba1037bbb732b960811b6044820152606490fd5b1561426d57565b60405162461bcd60e51b815260206004820152600c60248201526b08ccaca40e8dede40d0d2ced60a31b6044820152606490fd5b90600381101561062a5760ff80198354169116179055565b6001546001600160a01b031633036142cd57565b606460405162461bcd60e51b815260206004820152602060248201527f4f776e61626c653a2063616c6c6572206973206e6f7420746865206f776e65726044820152fd5b600260005414614322576002600055565b60405162461bcd60e51b815260206004820152601f60248201527f5265656e7472616e637947756172643a207265656e7472616e742063616c6c006044820152606490fd5b60ff60015460a01c1661437657565b60405162461bcd60e51b815260206004820152601060248201526f14185d5cd8589b194e881c185d5cd95960821b6044820152606490fd5b60405163a9059cbb60e01b60208201526001600160a01b039092166024830152604480830193909352918152613ddb916105d982613d0b565b906143f182613ee8565b6143fe6040519182613d78565b828152809261440f601f1991613ee8565b0190602036910137565b8051821015613e675760209160051b010190565b9190820391821161089f57565b9190614445826143e7565b9260009181835260209060138252604091828520828652815282852091868354036145bd57855b8781106145775750505050505060015b8281106144da57506001828116036144a157509061449d9160011c90614419565b5190565b9060011c9060001982019082821161408a575082916144c66144cd926144d495614419565b5192614419565b519061403b565b60011c90565b909392916144e88284614419565b5193825b80151580614558575b1561453e57600019810181811161452a57906145146145259287614419565b5161451f8288614419565b5261421a565b6144ec565b634e487b7160e01b88526011600452602488fd5b9461455160019395969794929787614419565b520161447c565b50600019810181811161452a57614570879187614419565b51116144f5565b60019086885260118452858820838952845285882061459682876141c7565b848060a01b0391549060031b1c1689528452858820546145b6828c614419565b520161446c565b835162461bcd60e51b815260048101839052601b60248201527f56616c696461746f7220747261636b696e67206d69736d6174636800000000006044820152606490fd5b9081600052600a60205260018060a01b0360096040600020015460081c16600019600b6020526040600020916000908354915b828110614a12575b5050506000198114614a035783600052601360205260406000208160005260205260406000209081549283156149f25761467882600292613e4b565b50015494614685846143e7565b9160009660005b868110614793575050505084156147835760009460005b8481106146d45750505050508082106146ba575050565b6146cf916146c79161442d565b60075461403b565b600755565b806146e160019285614419565b511561477e5761470e614707846147026146fb8589614419565b518b614106565b614119565b809961403b565b9761471982876141c7565b905490600391858060a01b0391831b1c166000526014602052604060002061474283825461403b565b905561474e83886141c7565b858060a09493941b039254911b1c166000526016602052614775604060002091825461403b565b90555b016146a3565b614778565b5050506146cf915060075461403b565b61479d81876141c7565b99905499856000526011602052604060002085600052602052604060002060018060a01b038c8360031b1c166000526020526147de84604060002054614b93565b9a60018060a01b03818360031b1c16600052601760205260406000209b6148058d54614048565b8d554260038e01556107d0811161494a5760018d016148248154614048565b90556064614832868b614419565b5260405190600082526020820152877f3d70426d5de70b5ac8bff45c3c0cd89db0e473153868b8c61a938d42002584e8604060018060a01b03858760031b1c1693a35b8b8054938461491a575b614889868b614419565b519160020154918261489a91614106565b61271090046148a9878c614419565b526148b4868b614419565b516148be9161403b565b60019d909d0154604080519283526020830195909552938101939093526001600160a01b0360039290921b1c16907fc2fd17ad7e9f23b8607f0bd02d7a6cdcccd5a964fa99ce5a066ed34c5b4bb55b90606090a260010161468c565b906001015490612710828181020481148315171561089f57858f93916149409202614119565b600283015561487f565b61138881116149a657603261495f868b614419565b5260405190600082526020820152877f3d70426d5de70b5ac8bff45c3c0cd89db0e473153868b8c61a938d42002584e8604060018060a01b03858760031b1c1693a3614875565b60006149b2868b614419565b52604051908152877f3b3050df353576101845973a6b18bbcf16a0187f1c80d60d83d95be509203c51602060018060a01b03858760031b1c1693a3614875565b505050506146cf915060075461403b565b50506146cf915060075461403b565b81614a1d8287613e4b565b50546001600160a01b03161480614a47575b614a3b57600101614634565b9250505038808061463c565b5060ff6003614a568388613e4b565b50015416614a2f565b60018060a01b03169060405160408101908082106001600160401b0383111761136757614aee916040526020938482527f5361666545524332303a206c6f772d6c6576656c2063616c6c206661696c6564858301526000808587829751910182855af13d15614b8b573d91614ad383614139565b92614ae16040519485613d78565b83523d868885013e614be4565b805191821591848315614b60575b505050905015614b095750565b6084906040519062461bcd60e51b82526004820152602a60248201527f5361666545524332303a204552433230206f7065726174696f6e20646964206e6044820152691bdd081cdd58d8d9595960b21b6064820152fd5b919381809450010312614b8757820151908115158203614b84575080388084614afc565b80fd5b5080fd5b606091614be4565b8115614bdd578180821115614bcd57614bab9161442d565b905b6127109182810292818404149015171561089f57614bca91614119565b90565b90614bd79161442d565b90614bad565b5050600090565b91929015614c465750815115614bf8575090565b3b15614c015790565b60405162461bcd60e51b815260206004820152601d60248201527f416464726573733a2063616c6c20746f206e6f6e2d636f6e74726163740000006044820152606490fd5b825190915015614c595750805190602001fd5b60405162461bcd60e51b815260206004820152908190614c7d906024830190613c4d565b0390fdfea2646970667358221220aafb52c03907620f60cf2e81afca1d80d9b5c67c685f0cb5bf228caa3ee82bcd64736f6c63430008180033",
  "linkReferences": {},
  "deployedLinkReferences": {}
}