{
  "_format": "hh-sol-artifact-1",
  "contractName": "SubnetRegistry",
  "sourceName": "src/SubnetRegistry.sol",
  "abi": [
    {
      "inputs": [
        {
          "internalType": "address",
          "name": "_mdtToken",
          "type": "address"
        },
        {
          "internalType": "address",
          "name": "_treasury",
          "type": "address"
        }
      ],
      "stateMutability": "nonpayable",
      "type": "constructor"
    },
    {
      "anonymous": false,
      "inputs": [
        {
          "indexed": true,
          "internalType": "uint256",
          "name": "taskId",
          "type": "uint256"
        },
        {
          "indexed": false,
          "internalType": "uint256",
          "name": "baseMin",
          "type": "uint256"
        },
        {
          "indexed": false,
          "internalType": "uint256",
          "name": "adaptiveMin",
          "type": "uint256"
        }
      ],
      "name": "AdaptiveValidationsApplied",
      "type": "event"
    },
    {
      "anonymous": false,
      "inputs": [
        {
          "indexed": false,
          "internalType": "uint256",
          "name": "commitDuration",
          "type": "uint256"
        },
        {
          "indexed": false,
          "internalType": "uint256",
          "name": "revealDuration",
          "type": "uint256"
        }
      ],
      "name": "CommitPhaseConfigUpdated",
      "type": "event"
    },
    {
      "anonymous": false,
      "inputs": [
        {
          "indexed": true,
          "internalType": "uint256",
          "name": "taskId",
          "type": "uint256"
        },
        {
          "indexed": false,
          "internalType": "uint256",
          "name": "minerIndex",
          "type": "uint256"
        },
        {
          "indexed": false,
          "internalType": "uint256",
          "name": "medianScore",
          "type": "uint256"
        },
        {
          "indexed": false,
          "internalType": "uint256",
          "name": "validatorCount",
          "type": "uint256"
        }
      ],
      "name": "ConsensusReached",
      "type": "event"
    },
    {
      "anonymous": false,
      "inputs": [
        {
          "indexed": true,
          "internalType": "address",
          "name": "account",
          "type": "address"
        },
        {
          "indexed": false,
          "internalType": "uint256",
          "name": "amount",
          "type": "uint256"
        }
      ],
      "name": "EarningsWithdrawn",
      "type": "event"
    },
    {
      "anonymous": false,
      "inputs": [
        {
          "indexed": true,
          "internalType": "uint256",
          "name": "subnetId",
          "type": "uint256"
        },
        {
          "indexed": true,
          "internalType": "address",
          "name": "miner",
          "type": "address"
        }
      ],
      "name": "MinerRegistered",
      "type": "event"
    },
    {
      "anonymous": false,
      "inputs": [
        {
          "indexed": true,
          "internalType": "address",
          "name": "previousOwner",
          "type": "address"
        },
        {
          "indexed": true,
          "internalType": "address",
          "name": "newOwner",
          "type": "address"
        }
      ],
      "name": "OwnershipTransferred",
      "type": "event"
    },
    {
      "anonymous": false,
      "inputs": [
        {
          "indexed": false,
          "internalType": "address",
          "name": "account",
          "type": "address"
        }
      ],
      "name": "Paused",
      "type": "event"
    },
    {
      "anonymous": false,
      "inputs": [
        {
          "indexed": true,
          "internalType": "address",
          "name": "to",
          "type": "address"
        },
        {
          "indexed": false,
          "internalType": "uint256",
          "name": "amount",
          "type": "uint256"
        }
      ],
      "name": "ProtocolFeesWithdrawn",
      "type": "event"
    },
    {
      "anonymous": false,
      "inputs": [
        {
          "indexed": true,
          "internalType": "address",
          "name": "validator",
          "type": "address"
        },
        {
          "indexed": false,
          "internalType": "uint256",
          "name": "fromSubnet",
          "type": "uint256"
        },
        {
          "indexed": false,
          "internalType": "uint256",
          "name": "toSubnet",
          "type": "uint256"
        },
        {
          "indexed": false,
          "internalType": "uint256",
          "name": "portedScore",
          "type": "uint256"
        }
      ],
      "name": "ReputationPorted",
      "type": "event"
    },
    {
      "anonymous": false,
      "inputs": [
        {
          "indexed": true,
          "internalType": "address",
          "name": "validator",
          "type": "address"
        },
        {
          "indexed": false,
          "internalType": "uint256",
          "name": "newScore",
          "type": "uint256"
        },
        {
          "indexed": false,
          "internalType": "uint256",
          "name": "totalValidations",
          "type": "uint256"
        },
        {
          "indexed": false,
          "internalType": "uint256",
          "name": "accurateValidations",
          "type": "uint256"
        }
      ],
      "name": "ReputationUpdated",
      "type": "event"
    },
    {
      "anonymous": false,
      "inputs": [
        {
          "indexed": true,
          "internalType": "uint256",
          "name": "taskId",
          "type": "uint256"
        },
        {
          "indexed": false,
          "internalType": "uint256",
          "name": "minerIndex",
          "type": "uint256"
        },
        {
          "indexed": true,
          "internalType": "address",
          "name": "validator",
          "type": "address"
        }
      ],
      "name": "ScoreCommitted",
      "type": "event"
    },
    {
      "anonymous": false,
      "inputs": [
        {
          "indexed": true,
          "internalType": "uint256",
          "name": "taskId",
          "type": "uint256"
        },
        {
          "indexed": false,
          "internalType": "uint256",
          "name": "minerIndex",
          "type": "uint256"
        },
        {
          "indexed": true,
          "internalType": "address",
          "name": "validator",
          "type": "address"
        },
        {
          "indexed": false,
          "internalType": "uint256",
          "name": "score",
          "type": "uint256"
        }
      ],
      "name": "ScoreRevealed",
      "type": "event"
    },
    {
      "anonymous": false,
      "inputs": [
        {
          "indexed": true,
          "internalType": "uint256",
          "name": "taskId",
          "type": "uint256"
        },
        {
          "indexed": true,
          "internalType": "address",
          "name": "miner",
          "type": "address"
        },
        {
          "indexed": false,
          "internalType": "string",
          "name": "resultHash",
          "type": "string"
        }
      ],
      "name": "SubmissionReceived",
      "type": "event"
    },
    {
      "anonymous": false,
      "inputs": [
        {
          "indexed": true,
          "internalType": "uint256",
          "name": "taskId",
          "type": "uint256"
        },
        {
          "indexed": true,
          "internalType": "address",
          "name": "miner",
          "type": "address"
        },
        {
          "indexed": false,
          "internalType": "uint256",
          "name": "score",
          "type": "uint256"
        },
        {
          "indexed": false,
          "internalType": "address",
          "name": "validator",
          "type": "address"
        }
      ],
      "name": "SubmissionValidated",
      "type": "event"
    },
    {
      "anonymous": false,
      "inputs": [
        {
          "indexed": true,
          "internalType": "uint256",
          "name": "subnetId",
          "type": "uint256"
        },
        {
          "indexed": false,
          "internalType": "string",
          "name": "name",
          "type": "string"
        },
        {
          "indexed": true,
          "internalType": "address",
          "name": "owner",
          "type": "address"
        },
        {
          "indexed": false,
          "internalType": "uint256",
          "name": "feeRate",
          "type": "uint256"
        }
      ],
      "name": "SubnetCreated",
      "type": "event"
    },
    {
      "anonymous": false,
      "inputs": [
        {
          "indexed": true,
          "internalType": "uint256",
          "name": "subnetId",
          "type": "uint256"
        },
        {
          "indexed": false,
          "internalType": "uint256",
          "name": "newFeeRate",
          "type": "uint256"
        },
        {
          "indexed": false,
          "internalType": "enum SubnetRegistry.SubnetStatus",
          "name": "newStatus",
          "type": "uint8"
        }
      ],
      "name": "SubnetUpdated",
      "type": "event"
    },
    {
      "anonymous": false,
      "inputs": [
        {
          "indexed": true,
          "internalType": "uint256",
          "name": "taskId",
          "type": "uint256"
        },
        {
          "indexed": true,
          "internalType": "uint256",
          "name": "subnetId",
          "type": "uint256"
        },
        {
          "indexed": true,
          "internalType": "address",
          "name": "winner",
          "type": "address"
        },
        {
          "indexed": false,
          "internalType": "uint256",
          "name": "minerReward",
          "type": "uint256"
        },
        {
          "indexed": false,
          "internalType": "uint256",
          "name": "protocolFee",
          "type": "uint256"
        },
        {
          "indexed": false,
          "internalType": "uint256",
          "name": "subnetFee",
          "type": "uint256"
        }
      ],
      "name": "TaskCompleted",
      "type": "event"
    },
    {
      "anonymous": false,
      "inputs": [
        {
          "indexed": true,
          "internalType": "uint256",
          "name": "taskId",
          "type": "uint256"
        },
        {
          "indexed": true,
          "internalType": "uint256",
          "name": "subnetId",
          "type": "uint256"
        },
        {
          "indexed": true,
          "internalType": "address",
          "name": "requester",
          "type": "address"
        },
        {
          "indexed": false,
          "internalType": "uint256",
          "name": "rewardAmount",
          "type": "uint256"
        }
      ],
      "name": "TaskCreated",
      "type": "event"
    },
    {
      "anonymous": false,
      "inputs": [
        {
          "indexed": false,
          "internalType": "address",
          "name": "account",
          "type": "address"
        }
      ],
      "name": "Unpaused",
      "type": "event"
    },
    {
      "anonymous": false,
      "inputs": [
        {
          "indexed": true,
          "internalType": "uint256",
          "name": "subnetId",
          "type": "uint256"
        },
        {
          "indexed": true,
          "internalType": "address",
          "name": "validator",
          "type": "address"
        }
      ],
      "name": "ValidatorAdded",
      "type": "event"
    },
    {
      "anonymous": false,
      "inputs": [
        {
          "indexed": true,
          "internalType": "uint256",
          "name": "taskId",
          "type": "uint256"
        },
        {
          "indexed": true,
          "internalType": "address",
          "name": "validator",
          "type": "address"
        },
        {
          "indexed": false,
          "internalType": "uint256",
          "name": "deviation",
          "type": "uint256"
        }
      ],
      "name": "ValidatorPenalized",
      "type": "event"
    },
    {
      "anonymous": false,
      "inputs": [
        {
          "indexed": true,
          "internalType": "uint256",
          "name": "subnetId",
          "type": "uint256"
        },
        {
          "indexed": true,
          "internalType": "address",
          "name": "validator",
          "type": "address"
        }
      ],
      "name": "ValidatorRemoved",
      "type": "event"
    },
    {
      "anonymous": false,
      "inputs": [
        {
          "indexed": true,
          "internalType": "uint256",
          "name": "taskId",
          "type": "uint256"
        },
        {
          "indexed": true,
          "internalType": "address",
          "name": "validator",
          "type": "address"
        },
        {
          "indexed": false,
          "internalType": "uint256",
          "name": "amount",
          "type": "uint256"
        },
        {
          "indexed": false,
          "internalType": "uint256",
          "name": "deviation",
          "type": "uint256"
        }
      ],
      "name": "ValidatorRewarded",
      "type": "event"
    },
    {
      "inputs": [],
      "name": "HIGH_VALUE_THRESHOLD",
      "outputs": [
        {
          "internalType": "uint256",
          "name": "",
          "type": "uint256"
        }
      ],
      "stateMutability": "view",
      "type": "function"
    },
    {
      "inputs": [],
      "name": "MAX_SUBNET_FEE_RATE",
      "outputs": [
        {
          "internalType": "uint256",
          "name": "",
          "type": "uint256"
        }
      ],
      "stateMutability": "view",
      "type": "function"
    },
    {
      "inputs": [],
      "name": "PORT_COOLDOWN",
      "outputs": [
        {
          "internalType": "uint256",
          "name": "",
          "type": "uint256"
        }
      ],
      "stateMutability": "view",
      "type": "function"
    },
    {
      "inputs": [],
      "name": "PROTOCOL_FEE_RATE",
      "outputs": [
        {
          "internalType": "uint256",
          "name": "",
          "type": "uint256"
        }
      ],
      "stateMutability": "view",
      "type": "function"
    },
    {
      "inputs": [],
      "name": "REPUTATION_DECAY_FACTOR",
      "outputs": [
        {
          "internalType": "uint256",
          "name": "",
          "type": "uint256"
        }
      ],
      "stateMutability": "view",
      "type": "function"
    },
    {
      "inputs": [],
      "name": "SUBNET_REGISTRATION_COST",
      "outputs": [
        {
          "internalType": "uint256",
          "name": "",
          "type": "uint256"
        }
      ],
      "stateMutability": "view",
      "type": "function"
    },
    {
      "inputs": [],
      "name": "ULTRA_VALUE_THRESHOLD",
      "outputs": [
        {
          "internalType": "uint256",
          "name": "",
          "type": "uint256"
        }
      ],
      "stateMutability": "view",
      "type": "function"
    },
    {
      "inputs": [],
      "name": "VALIDATOR_REWARD_RATE",
      "outputs": [
        {
          "internalType": "uint256",
          "name": "",
          "type": "uint256"
        }
      ],
      "stateMutability": "view",
      "type": "function"
    },
    {
      "inputs": [
        {
          "internalType": "uint256",
          "name": "subnetId",
          "type": "uint256"
        },
        {
          "internalType": "address",
          "name": "validator",
          "type": "address"
        }
      ],
      "name": "addValidator",
      "outputs": [],
      "stateMutability": "nonpayable",
      "type": "function"
    },
    {
      "inputs": [
        {
          "internalType": "uint256",
          "name": "",
          "type": "uint256"
        },
        {
          "internalType": "uint256",
          "name": "",
          "type": "uint256"
        }
      ],
      "name": "commitCount",
      "outputs": [
        {
          "internalType": "uint256",
          "name": "",
          "type": "uint256"
        }
      ],
      "stateMutability": "view",
      "type": "function"
    },
    {
      "inputs": [],
      "name": "commitPhaseDuration",
      "outputs": [
        {
          "internalType": "uint256",
          "name": "",
          "type": "uint256"
        }
      ],
      "stateMutability": "view",
      "type": "function"
    },
    {
      "inputs": [
        {
          "internalType": "uint256",
          "name": "",
          "type": "uint256"
        },
        {
          "internalType": "uint256",
          "name": "",
          "type": "uint256"
        }
      ],
      "name": "commitPhaseStart",
      "outputs": [
        {
          "internalType": "uint256",
          "name": "",
          "type": "uint256"
        }
      ],
      "stateMutability": "view",
      "type": "function"
    },
    {
      "inputs": [
        {
          "internalType": "uint256",
          "name": "taskId",
          "type": "uint256"
        },
        {
          "internalType": "uint256",
          "name": "minerIndex",
          "type": "uint256"
        },
        {
          "internalType": "bytes32",
          "name": "commitHash",
          "type": "bytes32"
        }
      ],
      "name": "commitScore",
      "outputs": [],
      "stateMutability": "nonpayable",
      "type": "function"
    },
    {
      "inputs": [
        {
          "internalType": "uint256",
          "name": "subnetId",
          "type": "uint256"
        },
        {
          "internalType": "string",
          "name": "taskHash",
          "type": "string"
        },
        {
          "internalType": "uint256",
          "name": "rewardAmount",
          "type": "uint256"
        },
        {
          "internalType": "uint256",
          "name": "duration",
          "type": "uint256"
        }
      ],
      "name": "createTask",
      "outputs": [
        {
          "internalType": "uint256",
          "name": "taskId",
          "type": "uint256"
        }
      ],
      "stateMutability": "nonpayable",
      "type": "function"
    },
    {
      "inputs": [
        {
          "internalType": "uint256",
          "name": "taskId",
          "type": "uint256"
        }
      ],
      "name": "expireTask",
      "outputs": [],
      "stateMutability": "nonpayable",
      "type": "function"
    },
    {
      "inputs": [
        {
          "internalType": "uint256",
          "name": "taskId",
          "type": "uint256"
        }
      ],
      "name": "finalizeTask",
      "outputs": [],
      "stateMutability": "nonpayable",
      "type": "function"
    },
    {
      "inputs": [],
      "name": "getActiveSubnetCount",
      "outputs": [
        {
          "internalType": "uint256",
          "name": "count",
          "type": "uint256"
        }
      ],
      "stateMutability": "view",
      "type": "function"
    },
    {
      "inputs": [
        {
          "internalType": "uint256",
          "name": "subnetId",
          "type": "uint256"
        },
        {
          "internalType": "uint256",
          "name": "rewardAmount",
          "type": "uint256"
        }
      ],
      "name": "getAdaptiveMinValidations",
      "outputs": [
        {
          "internalType": "uint256",
          "name": "",
          "type": "uint256"
        }
      ],
      "stateMutability": "view",
      "type": "function"
    },
    {
      "inputs": [
        {
          "internalType": "uint256",
          "name": "score",
          "type": "uint256"
        },
        {
          "internalType": "bytes32",
          "name": "salt",
          "type": "bytes32"
        }
      ],
      "name": "getCommitHash",
      "outputs": [
        {
          "internalType": "bytes32",
          "name": "",
          "type": "bytes32"
        }
      ],
      "stateMutability": "pure",
      "type": "function"
    },
    {
      "inputs": [
        {
          "internalType": "uint256",
          "name": "taskId",
          "type": "uint256"
        }
      ],
      "name": "getSubmissionCount",
      "outputs": [
        {
          "internalType": "uint256",
          "name": "",
          "type": "uint256"
        }
      ],
      "stateMutability": "view",
      "type": "function"
    },
    {
      "inputs": [
        {
          "internalType": "uint256",
          "name": "taskId",
          "type": "uint256"
        }
      ],
      "name": "getSubmissions",
      "outputs": [
        {
          "components": [
            {
              "internalType": "address",
              "name": "miner",
              "type": "address"
            },
            {
              "internalType": "string",
              "name": "resultHash",
              "type": "string"
            },
            {
              "internalType": "uint256",
              "name": "score",
              "type": "uint256"
            },
            {
              "internalType": "bool",
              "name": "validated",
              "type": "bool"
            },
            {
              "internalType": "uint256",
              "name": "submittedAt",
              "type": "uint256"
            },
            {
              "internalType": "uint256",
              "name": "validationCount",
              "type": "uint256"
            }
          ],
          "internalType": "struct SubnetRegistry.MinerSubmission[]",
          "name": "",
          "type": "tuple[]"
        }
      ],
      "stateMutability": "view",
      "type": "function"
    },
    {
      "inputs": [
        {
          "internalType": "uint256",
          "name": "subnetId",
          "type": "uint256"
        }
      ],
      "name": "getSubnet",
      "outputs": [
        {
          "components": [
            {
              "internalType": "uint256",
              "name": "id",
              "type": "uint256"
            },
            {
              "internalType": "string",
              "name": "name",
              "type": "string"
            },
            {
              "internalType": "string",
              "name": "description",
              "type": "string"
            },
            {
              "internalType": "address",
              "name": "owner",
              "type": "address"
            },
            {
              "internalType": "uint256",
              "name": "feeRate",
              "type": "uint256"
            },
            {
              "internalType": "uint256",
              "name": "minTaskReward",
              "type": "uint256"
            },
            {
              "internalType": "uint256",
              "name": "totalVolume",
              "type": "uint256"
            },
            {
              "internalType": "uint256",
              "name": "totalTasks",
              "type": "uint256"
            },
            {
              "internalType": "uint256",
              "name": "activeMiners",
              "type": "uint256"
            },
            {
              "internalType": "enum SubnetRegistry.SubnetStatus",
              "name": "status",
              "type": "uint8"
            },
            {
              "internalType": "uint256",
              "name": "createdAt",
              "type": "uint256"
            }
          ],
          "internalType": "struct SubnetRegistry.Subnet",
          "name": "",
          "type": "tuple"
        }
      ],
      "stateMutability": "view",
      "type": "function"
    },
    {
      "inputs": [
        {
          "internalType": "uint256",
          "name": "taskId",
          "type": "uint256"
        }
      ],
      "name": "getTask",
      "outputs": [
        {
          "components": [
            {
              "internalType": "uint256",
              "name": "id",
              "type": "uint256"
            },
            {
              "internalType": "uint256",
              "name": "subnetId",
              "type": "uint256"
            },
            {
              "internalType": "address",
              "name": "requester",
              "type": "address"
            },
            {
              "internalType": "string",
              "name": "taskHash",
              "type": "string"
            },
            {
              "internalType": "uint256",
              "name": "rewardAmount",
              "type": "uint256"
            },
            {
              "internalType": "uint256",
              "name": "protocolFee",
              "type": "uint256"
            },
            {
              "internalType": "uint256",
              "name": "validatorReward",
              "type": "uint256"
            },
            {
              "internalType": "uint256",
              "name": "subnetFee",
              "type": "uint256"
            },
            {
              "internalType": "uint256",
              "name": "deadline",
              "type": "uint256"
            },
            {
              "internalType": "enum SubnetRegistry.TaskStatus",
              "name": "status",
              "type": "uint8"
            },
            {
              "internalType": "address",
              "name": "winningMiner",
              "type": "address"
            },
            {
              "internalType": "uint256",
              "name": "winningScore",
              "type": "uint256"
            },
            {
              "internalType": "uint256",
              "name": "createdAt",
              "type": "uint256"
            }
          ],
          "internalType": "struct SubnetRegistry.Task",
          "name": "",
          "type": "tuple"
        }
      ],
      "stateMutability": "view",
      "type": "function"
    },
    {
      "inputs": [
        {
          "internalType": "uint256",
          "name": "taskId",
          "type": "uint256"
        },
        {
          "internalType": "uint256",
          "name": "minerIndex",
          "type": "uint256"
        },
        {
          "internalType": "address",
          "name": "validator",
          "type": "address"
        }
      ],
      "name": "getValidatorScore",
      "outputs": [
        {
          "internalType": "uint256",
          "name": "score",
          "type": "uint256"
        },
        {
          "internalType": "bool",
          "name": "scored",
          "type": "bool"
        }
      ],
      "stateMutability": "view",
      "type": "function"
    },
    {
      "inputs": [
        {
          "internalType": "uint256",
          "name": "",
          "type": "uint256"
        },
        {
          "internalType": "address",
          "name": "",
          "type": "address"
        }
      ],
      "name": "hasMinerSubmitted",
      "outputs": [
        {
          "internalType": "bool",
          "name": "",
          "type": "bool"
        }
      ],
      "stateMutability": "view",
      "type": "function"
    },
    {
      "inputs": [
        {
          "internalType": "uint256",
          "name": "",
          "type": "uint256"
        },
        {
          "internalType": "uint256",
          "name": "",
          "type": "uint256"
        },
        {
          "internalType": "address",
          "name": "",
          "type": "address"
        }
      ],
      "name": "hasValidatorScored",
      "outputs": [
        {
          "internalType": "bool",
          "name": "",
          "type": "bool"
        }
      ],
      "stateMutability": "view",
      "type": "function"
    },
    {
      "inputs": [
        {
          "internalType": "uint256",
          "name": "subnetId",
          "type": "uint256"
        },
        {
          "internalType": "address",
          "name": "miner",
          "type": "address"
        }
      ],
      "name": "isMiner",
      "outputs": [
        {
          "internalType": "bool",
          "name": "",
          "type": "bool"
        }
      ],
      "stateMutability": "view",
      "type": "function"
    },
    {
      "inputs": [
        {
          "internalType": "uint256",
          "name": "subnetId",
          "type": "uint256"
        },
        {
          "internalType": "address",
          "name": "validator",
          "type": "address"
        }
      ],
      "name": "isValidator",
      "outputs": [
        {
          "internalType": "bool",
          "name": "",
          "type": "bool"
        }
      ],
      "stateMutability": "view",
      "type": "function"
    },
    {
      "inputs": [
        {
          "internalType": "address",
          "name": "",
          "type": "address"
        }
      ],
      "name": "lastPortedAt",
      "outputs": [
        {
          "internalType": "uint256",
          "name": "",
          "type": "uint256"
        }
      ],
      "stateMutability": "view",
      "type": "function"
    },
    {
      "inputs": [],
      "name": "maxSubmissionsPerTask",
      "outputs": [
        {
          "internalType": "uint256",
          "name": "",
          "type": "uint256"
        }
      ],
      "stateMutability": "view",
      "type": "function"
    },
    {
      "inputs": [],
      "name": "mdtToken",
      "outputs": [
        {
          "internalType": "contract IERC20",
          "name": "",
          "type": "address"
        }
      ],
      "stateMutability": "view",
      "type": "function"
    },
    {
      "inputs": [
        {
          "internalType": "address",
          "name": "",
          "type": "address"
        }
      ],
      "name": "minerEarnings",
      "outputs": [
        {
          "internalType": "uint256",
          "name": "",
          "type": "uint256"
        }
      ],
      "stateMutability": "view",
      "type": "function"
    },
    {
      "inputs": [],
      "name": "owner",
      "outputs": [
        {
          "internalType": "address",
          "name": "",
          "type": "address"
        }
      ],
      "stateMutability": "view",
      "type": "function"
    },
    {
      "inputs": [],
      "name": "paused",
      "outputs": [
        {
          "internalType": "bool",
          "name": "",
          "type": "bool"
        }
      ],
      "stateMutability": "view",
      "type": "function"
    },
    {
      "inputs": [
        {
          "internalType": "address",
          "name": "",
          "type": "address"
        }
      ],
      "name": "pendingWithdrawals",
      "outputs": [
        {
          "internalType": "uint256",
          "name": "",
          "type": "uint256"
        }
      ],
      "stateMutability": "view",
      "type": "function"
    },
    {
      "inputs": [
        {
          "internalType": "uint256",
          "name": "fromSubnetId",
          "type": "uint256"
        },
        {
          "internalType": "uint256",
          "name": "toSubnetId",
          "type": "uint256"
        }
      ],
      "name": "portReputation",
      "outputs": [],
      "stateMutability": "nonpayable",
      "type": "function"
    },
    {
      "inputs": [
        {
          "internalType": "address",
          "name": "",
          "type": "address"
        },
        {
          "internalType": "uint256",
          "name": "",
          "type": "uint256"
        }
      ],
      "name": "portedReputationBoost",
      "outputs": [
        {
          "internalType": "uint256",
          "name": "",
          "type": "uint256"
        }
      ],
      "stateMutability": "view",
      "type": "function"
    },
    {
      "inputs": [],
      "name": "protocolTreasury",
      "outputs": [
        {
          "internalType": "address",
          "name": "",
          "type": "address"
        }
      ],
      "stateMutability": "view",
      "type": "function"
    },
    {
      "inputs": [
        {
          "internalType": "uint256",
          "name": "subnetId",
          "type": "uint256"
        }
      ],
      "name": "registerMiner",
      "outputs": [],
      "stateMutability": "nonpayable",
      "type": "function"
    },
    {
      "inputs": [
        {
          "internalType": "string",
          "name": "name",
          "type": "string"
        },
        {
          "internalType": "string",
          "name": "description",
          "type": "string"
        },
        {
          "internalType": "uint256",
          "name": "feeRate",
          "type": "uint256"
        }
      ],
      "name": "registerSubnet",
      "outputs": [
        {
          "internalType": "uint256",
          "name": "subnetId",
          "type": "uint256"
        }
      ],
      "stateMutability": "nonpayable",
      "type": "function"
    },
    {
      "inputs": [
        {
          "internalType": "uint256",
          "name": "subnetId",
          "type": "uint256"
        },
        {
          "internalType": "address",
          "name": "validator",
          "type": "address"
        }
      ],
      "name": "removeValidator",
      "outputs": [],
      "stateMutability": "nonpayable",
      "type": "function"
    },
    {
      "inputs": [],
      "name": "renounceOwnership",
      "outputs": [],
      "stateMutability": "nonpayable",
      "type": "function"
    },
    {
      "inputs": [
        {
          "internalType": "uint256",
          "name": "taskId",
          "type": "uint256"
        },
        {
          "internalType": "uint256",
          "name": "minerIndex",
          "type": "uint256"
        }
      ],
      "name": "resolveUnrevealedCommits",
      "outputs": [],
      "stateMutability": "nonpayable",
      "type": "function"
    },
    {
      "inputs": [
        {
          "internalType": "uint256",
          "name": "",
          "type": "uint256"
        },
        {
          "internalType": "uint256",
          "name": "",
          "type": "uint256"
        }
      ],
      "name": "revealCount",
      "outputs": [
        {
          "internalType": "uint256",
          "name": "",
          "type": "uint256"
        }
      ],
      "stateMutability": "view",
      "type": "function"
    },
    {
      "inputs": [],
      "name": "revealPhaseDuration",
      "outputs": [
        {
          "internalType": "uint256",
          "name": "",
          "type": "uint256"
        }
      ],
      "stateMutability": "view",
      "type": "function"
    },
    {
      "inputs": [
        {
          "internalType": "uint256",
          "name": "taskId",
          "type": "uint256"
        },
        {
          "internalType": "uint256",
          "name": "minerIndex",
          "type": "uint256"
        },
        {
          "internalType": "uint256",
          "name": "score",
          "type": "uint256"
        },
        {
          "internalType": "bytes32",
          "name": "salt",
          "type": "bytes32"
        }
      ],
      "name": "revealScore",
      "outputs": [],
      "stateMutability": "nonpayable",
      "type": "function"
    },
    {
      "inputs": [
        {
          "internalType": "uint256",
          "name": "_commitDuration",
          "type": "uint256"
        },
        {
          "internalType": "uint256",
          "name": "_revealDuration",
          "type": "uint256"
        }
      ],
      "name": "setCommitRevealConfig",
      "outputs": [],
      "stateMutability": "nonpayable",
      "type": "function"
    },
    {
      "inputs": [
        {
          "internalType": "uint256",
          "name": "subnetId",
          "type": "uint256"
        },
        {
          "internalType": "uint256",
          "name": "newMin",
          "type": "uint256"
        }
      ],
      "name": "setMinValidations",
      "outputs": [],
      "stateMutability": "nonpayable",
      "type": "function"
    },
    {
      "inputs": [
        {
          "internalType": "address",
          "name": "newTreasury",
          "type": "address"
        }
      ],
      "name": "setProtocolTreasury",
      "outputs": [],
      "stateMutability": "nonpayable",
      "type": "function"
    },
    {
      "inputs": [
        {
          "internalType": "address",
          "name": "_stakingVault",
          "type": "address"
        }
      ],
      "name": "setStakingVault",
      "outputs": [],
      "stateMutability": "nonpayable",
      "type": "function"
    },
    {
      "inputs": [],
      "name": "stakingVault",
      "outputs": [
        {
          "internalType": "contract IStakingVault",
          "name": "",
          "type": "address"
        }
      ],
      "stateMutability": "view",
      "type": "function"
    },
    {
      "inputs": [
        {
          "internalType": "uint256",
          "name": "taskId",
          "type": "uint256"
        },
        {
          "internalType": "string",
          "name": "resultHash",
          "type": "string"
        }
      ],
      "name": "submitResult",
      "outputs": [],
      "stateMutability": "nonpayable",
      "type": "function"
    },
    {
      "inputs": [],
      "name": "subnetCount",
      "outputs": [
        {
          "internalType": "uint256",
          "name": "",
          "type": "uint256"
        }
      ],
      "stateMutability": "view",
      "type": "function"
    },
    {
      "inputs": [
        {
          "internalType": "uint256",
          "name": "",
          "type": "uint256"
        }
      ],
      "name": "subnetMinValidations",
      "outputs": [
        {
          "internalType": "uint256",
          "name": "",
          "type": "uint256"
        }
      ],
      "stateMutability": "view",
      "type": "function"
    },
    {
      "inputs": [
        {
          "internalType": "uint256",
          "name": "",
          "type": "uint256"
        }
      ],
      "name": "subnetMinerCount",
      "outputs": [
        {
          "internalType": "uint256",
          "name": "",
          "type": "uint256"
        }
      ],
      "stateMutability": "view",
      "type": "function"
    },
    {
      "inputs": [
        {
          "internalType": "uint256",
          "name": "",
          "type": "uint256"
        },
        {
          "internalType": "address",
          "name": "",
          "type": "address"
        }
      ],
      "name": "subnetMiners",
      "outputs": [
        {
          "internalType": "bool",
          "name": "",
          "type": "bool"
        }
      ],
      "stateMutability": "view",
      "type": "function"
    },
    {
      "inputs": [
        {
          "internalType": "uint256",
          "name": "",
          "type": "uint256"
        }
      ],
      "name": "subnetValidatorCount",
      "outputs": [
        {
          "internalType": "uint256",
          "name": "",
          "type": "uint256"
        }
      ],
      "stateMutability": "view",
      "type": "function"
    },
    {
      "inputs": [
        {
          "internalType": "uint256",
          "name": "",
          "type": "uint256"
        },
        {
          "internalType": "address",
          "name": "",
          "type": "address"
        }
      ],
      "name": "subnetValidators",
      "outputs": [
        {
          "internalType": "bool",
          "name": "",
          "type": "bool"
        }
      ],
      "stateMutability": "view",
      "type": "function"
    },
    {
      "inputs": [
        {
          "internalType": "uint256",
          "name": "",
          "type": "uint256"
        }
      ],
      "name": "subnets",
      "outputs": [
        {
          "internalType": "uint256",
          "name": "id",
          "type": "uint256"
        },
        {
          "internalType": "string",
          "name": "name",
          "type": "string"
        },
        {
          "internalType": "string",
          "name": "description",
          "type": "string"
        },
        {
          "internalType": "address",
          "name": "owner",
          "type": "address"
        },
        {
          "internalType": "uint256",
          "name": "feeRate",
          "type": "uint256"
        },
        {
          "internalType": "uint256",
          "name": "minTaskReward",
          "type": "uint256"
        },
        {
          "internalType": "uint256",
          "name": "totalVolume",
          "type": "uint256"
        },
        {
          "internalType": "uint256",
          "name": "totalTasks",
          "type": "uint256"
        },
        {
          "internalType": "uint256",
          "name": "activeMiners",
          "type": "uint256"
        },
        {
          "internalType": "enum SubnetRegistry.SubnetStatus",
          "name": "status",
          "type": "uint8"
        },
        {
          "internalType": "uint256",
          "name": "createdAt",
          "type": "uint256"
        }
      ],
      "stateMutability": "view",
      "type": "function"
    },
    {
      "inputs": [
        {
          "internalType": "uint256",
          "name": "",
          "type": "uint256"
        },
        {
          "internalType": "uint256",
          "name": "",
          "type": "uint256"
        }
      ],
      "name": "taskSubmissions",
      "outputs": [
        {
          "internalType": "address",
          "name": "miner",
          "type": "address"
        },
        {
          "internalType": "string",
          "name": "resultHash",
          "type": "string"
        },
        {
          "internalType": "uint256",
          "name": "score",
          "type": "uint256"
        },
        {
          "internalType": "bool",
          "name": "validated",
          "type": "bool"
        },
        {
          "internalType": "uint256",
          "name": "submittedAt",
          "type": "uint256"
        },
        {
          "internalType": "uint256",
          "name": "validationCount",
          "type": "uint256"
        }
      ],
      "stateMutability": "view",
      "type": "function"
    },
    {
      "inputs": [
        {
          "internalType": "uint256",
          "name": "",
          "type": "uint256"
        }
      ],
      "name": "tasks",
      "outputs": [
        {
          "internalType": "uint256",
          "name": "id",
          "type": "uint256"
        },
        {
          "internalType": "uint256",
          "name": "subnetId",
          "type": "uint256"
        },
        {
          "internalType": "address",
          "name": "requester",
          "type": "address"
        },
        {
          "internalType": "string",
          "name": "taskHash",
          "type": "string"
        },
        {
          "internalType": "uint256",
          "name": "rewardAmount",
          "type": "uint256"
        },
        {
          "internalType": "uint256",
          "name": "protocolFee",
          "type": "uint256"
        },
        {
          "internalType": "uint256",
          "name": "validatorReward",
          "type": "uint256"
        },
        {
          "internalType": "uint256",
          "name": "subnetFee",
          "type": "uint256"
        },
        {
          "internalType": "uint256",
          "name": "deadline",
          "type": "uint256"
        },
        {
          "internalType": "enum SubnetRegistry.TaskStatus",
          "name": "status",
          "type": "uint8"
        },
        {
          "internalType": "address",
          "name": "winningMiner",
          "type": "address"
        },
        {
          "internalType": "uint256",
          "name": "winningScore",
          "type": "uint256"
        },
        {
          "internalType": "uint256",
          "name": "createdAt",
          "type": "uint256"
        }
      ],
      "stateMutability": "view",
      "type": "function"
    },
    {
      "inputs": [],
      "name": "totalProtocolFees",
      "outputs": [
        {
          "internalType": "uint256",
          "name": "",
          "type": "uint256"
        }
      ],
      "stateMutability": "view",
      "type": "function"
    },
    {
      "inputs": [
        {
          "internalType": "address",
          "name": "newOwner",
          "type": "address"
        }
      ],
      "name": "transferOwnership",
      "outputs": [],
      "stateMutability": "nonpayable",
      "type": "function"
    },
    {
      "inputs": [
        {
          "internalType": "uint256",
          "name": "subnetId",
          "type": "uint256"
        }
      ],
      "name": "unregisterSubnet",
      "outputs": [],
      "stateMutability": "nonpayable",
      "type": "function"
    },
    {
      "inputs": [
        {
          "internalType": "uint256",
          "name": "subnetId",
          "type": "uint256"
        },
        {
          "internalType": "uint256",
          "name": "newFeeRate",
          "type": "uint256"
        },
        {
          "internalType": "enum SubnetRegistry.SubnetStatus",
          "name": "newStatus",
          "type": "uint8"
        }
      ],
      "name": "updateSubnet",
      "outputs": [],
      "stateMutability": "nonpayable",
      "type": "function"
    },
    {
      "inputs": [
        {
          "internalType": "uint256",
          "name": "taskId",
          "type": "uint256"
        },
        {
          "internalType": "uint256",
          "name": "submissionIndex",
          "type": "uint256"
        },
        {
          "internalType": "uint256",
          "name": "score",
          "type": "uint256"
        }
      ],
      "name": "validateSubmission",
      "outputs": [],
      "stateMutability": "nonpayable",
      "type": "function"
    },
    {
      "inputs": [
        {
          "internalType": "uint256",
          "name": "",
          "type": "uint256"
        },
        {
          "internalType": "uint256",
          "name": "",
          "type": "uint256"
        },
        {
          "internalType": "address",
          "name": "",
          "type": "address"
        }
      ],
      "name": "validationCommits",
      "outputs": [
        {
          "internalType": "bytes32",
          "name": "commitHash",
          "type": "bytes32"
        },
        {
          "internalType": "uint256",
          "name": "committedAt",
          "type": "uint256"
        },
        {
          "internalType": "bool",
          "name": "revealed",
          "type": "bool"
        },
        {
          "internalType": "uint256",
          "name": "revealedScore",
          "type": "uint256"
        }
      ],
      "stateMutability": "view",
      "type": "function"
    },
    {
      "inputs": [
        {
          "internalType": "address",
          "name": "",
          "type": "address"
        }
      ],
      "name": "validatorEarnings",
      "outputs": [
        {
          "internalType": "uint256",
          "name": "",
          "type": "uint256"
        }
      ],
      "stateMutability": "view",
      "type": "function"
    },
    {
      "inputs": [
        {
          "internalType": "address",
          "name": "",
          "type": "address"
        }
      ],
      "name": "validatorReputation",
      "outputs": [
        {
          "internalType": "uint256",
          "name": "totalValidations",
          "type": "uint256"
        },
        {
          "internalType": "uint256",
          "name": "accurateValidations",
          "type": "uint256"
        },
        {
          "internalType": "uint256",
          "name": "reputationScore",
          "type": "uint256"
        },
        {
          "internalType": "uint256",
          "name": "lastActiveAt",
          "type": "uint256"
        }
      ],
      "stateMutability": "view",
      "type": "function"
    },
    {
      "inputs": [
        {
          "internalType": "uint256",
          "name": "",
          "type": "uint256"
        },
        {
          "internalType": "uint256",
          "name": "",
          "type": "uint256"
        },
        {
          "internalType": "address",
          "name": "",
          "type": "address"
        }
      ],
      "name": "validatorScores",
      "outputs": [
        {
          "internalType": "uint256",
          "name": "",
          "type": "uint256"
        }
      ],
      "stateMutability": "view",
      "type": "function"
    },
    {
      "inputs": [],
      "name": "withdrawEarnings",
      "outputs": [],
      "stateMutability": "nonpayable",
      "type": "function"
    },
    {
      "inputs": [],
      "name": "withdrawProtocolFees",
      "outputs": [],
      "stateMutability": "nonpayable",
      "type": "function"
    }
  ],
  "bytecode": "0x6080346200069057601f6200590b38819003918201601f19168301916001600160401b038311848410176200051457808492604094855283398101031262000690576200005a60206200005283620006b5565b9201620006b5565b600160005560015491604051923360018060a01b0382167f8be0079c531659141344cd1fd0a4f28419497f9722a3daafe3b4186f6b6457e0600080a36001600160a81b0319163360ff60a01b191617600155600a600655610e10601d55610708601e556001600160a01b03169182156200065e57506001600160a01b0316908115620006265760018060a01b0319600254161760025560018060a01b031960075416176007556200010a62000695565b601481527f47656e6572616c20496e74656c6c6967656e636500000000000000000000000060208201526200013e62000695565b602081527f546578742c20436f64652c20616e642047656e6572616c204149205461736b7360208201526004549060001982146200061057600182016004556040519061016082016001600160401b03811183821017620005145760405282825283602083015260408201523360608201526101f460808201526305f5e10060a0820152600060c0820152600060e0820152600061010082015260006101208201524261014082015281600052600a60205260406000209080518255602081015180519060018060401b0382116200051457600184015490600182811c9216801562000605575b6020831014620004f35781601f849311620005ad575b50602090601f831160011462000536576000926200052a575b50508160011b916000199060031b1c19161760018301555b60408101518051906001600160401b0382116200051457600284015490600182811c9216801562000509575b6020831014620004f35781601f8493116200049b575b50602090601f8311600114620004245760009262000418575b50508160011b916000199060031b1c19161760028301555b6060810151600383810180546001600160a01b0319166001600160a01b0393909316929092179091556080820151600484015560a0820151600584015560c0820151600684015560e082015160078401556101008201516008840155610120820151600984019290918210156200040257600a926101409260ff80198354169116179055015191015580600052600960205260026040600020556040516040815282519283604083015260005b848110620003eb5750508060006060857f8e46dcab88334408205dfdff058de646a02ab7fddb35b9923e924e49ce505c30940101526101f460208201526060813395601f80199101168101030190a36040516152409081620006cb8239f35b80602080928401015160608286010152016200038c565b634e487b7160e01b600052602160045260246000fd5b015190503880620002c7565b9250600285016000526020600020906000935b601f19841685106200047f576001945083601f1981161062000465575b505050811b016002830155620002df565b015160001960f88460031b161c1916905538808062000454565b8181015183556020948501946001909301929091019062000437565b909150600285016000526020600020601f840160051c810160208510620004eb575b90849392915b601f830160051c82018110620004db575050620002ae565b60008155859450600101620004c3565b5080620004bd565b634e487b7160e01b600052602260045260246000fd5b91607f169162000298565b634e487b7160e01b600052604160045260246000fd5b01519050388062000254565b9250600185016000526020600020906000935b601f198416851062000591576001945083601f1981161062000577575b505050811b0160018301556200026c565b015160001960f88460031b161c1916905538808062000566565b8181015183556020948501946001909301929091019062000549565b909150600185016000526020600020601f840160051c810160208510620005fd575b90849392915b601f830160051c82018110620005ed5750506200023b565b60008155859450600101620005d5565b5080620005cf565b91607f169162000225565b634e487b7160e01b600052601160045260246000fd5b60405162461bcd60e51b815260206004820152601060248201526f496e76616c696420747265617375727960801b6044820152606490fd5b62461bcd60e51b815260206004820152600d60248201526c24b73b30b634b2103a37b5b2b760991b6044820152606490fd5b600080fd5b60408051919082016001600160401b038111838210176200051457604052565b51906001600160a01b0382168203620006905756fe6080604052600436101561001257600080fd5b60003560e01c8063072f4fc0146140a35780630c5a61f8146140565780630ebac45a146140235780630f0da71914613fe95780630fb6d80514613fa257806310c6bd2514613f7657806310f0dde414613f5957806316c53ced14613df15780631d65e77e14613bfe5780631dc375b914613b535780631dd73e0d146137f057806323f2a73f14610f6e57806324c3fd2f146137cf57806324e7964a146137a65780632fa70f481461377a5780633370f06e1461375d578063393880061461372357806339b1185d146137055780633c9a6bf3146136975780633f422ef3146135bb578063475726f7146134e2578063483b4039146134c45780634af93988146134a75780634b5617531461324b57806351b15b8a1461321f57806353eea8751461318657806358ca750414612fcc5780635c975abb14612fa65780635cc9bca914612b3e57806362ecc47a146129ad57806365617a35146129a857806368a7f8261461254d5780636a0cd1f51461246f5780636f5474bf1461227e578063715018a61461222157806377ad68da146121ee5780637b6174821461214d5780637be24cb8146121215780637ca0ad2d146120d55780637d7fcda0146120b7578063803db96d1461208e5780638795cccb14611ff157806388488c3314611e055780638c0a4a05146117a55780638c0dd79a146119005780638d9776721461181b5780638da5cb5b146117f25780638ee9f6dc146117a5578063916a5c5b14611787578063927229c6146112b557806393af00761461129857806396511dcd1461125f5780639d7eea9f146112205780639f3b989714610fbb578063a3be1eab14610f6e578063ac64c82214610f21578063b46e742414610eee578063b73c6ce914610e32578063b7ee5eda14610a58578063be12332314610795578063c6a1a01a1461072a578063ca7b64bb1461070a578063d1270485146106ae578063d1faf406146105a1578063d53580de14610559578063d65314b3146104e9578063dfc75372146104cb578063f2fde38b14610407578063f3f43703146103cd578063f526e39a146103af578063f70b5c06146103865763fe5607921461033457600080fd5b346103815760203660031901126103815761034d6140c3565b6103556147ff565b6001600160a01b031661036981151561438c565b6001600160601b0360a01b6003541617600355600080f35b600080fd5b34610381576000366003190112610381576002546040516001600160a01b039091168152602090f35b34610381576000366003190112610381576020600854604051908152f35b34610381576020366003190112610381576001600160a01b036103ee6140c3565b1660005260176020526020604060002054604051908152f35b34610381576020366003190112610381576104206140c3565b6104286147ff565b6001600160a01b0390811690811561047757600154826001600160601b0360a01b821617600155167f8be0079c531659141344cd1fd0a4f28419497f9722a3daafe3b4186f6b6457e0600080a3005b60405162461bcd60e51b815260206004820152602660248201527f4f776e61626c653a206e6577206f776e657220697320746865207a65726f206160448201526564647265737360d01b6064820152608490fd5b34610381576000366003190112610381576020601e54604051908152f35b346103815760406104f936614105565b826000526020916013835284600020816000528352846000209160018060a01b03169182600052835260ff856000205416936000526012835284600020906000528252836000209060005281528260002054918351928352151590820152f35b34610381576040366003190112610381576001600160a01b0361057a6140c3565b16600052601f60205260406000206024356000526020526020604060002054604051908152f35b34610381576020366003190112610381576105ba614857565b600435600052600a6020526040600020600960018060a01b03916105e583600383015416331461476d565b019081549160ff8316600381101561069857801590811561068d575b501561065357600261064c9360ff1916179055600254166040519063a9059cbb60e01b602083015233602483015264e8d4a51000604483015260448252610647826141ed565b614f74565b6001600055005b60405162461bcd60e51b8152602060048201526012602482015271105b1c9958591e4819195c1c9958d85d195960721b6044820152606490fd5b600191501484610601565b634e487b7160e01b600052602160045260246000fd5b34610381576020366003190112610381576001600160a01b036106cf6140c3565b166000526018602052608060406000208054906001810154906003600282015491015491604051938452602084015260408301526060820152f35b3461038157600036600319011261038157602060405164174876e8008152f35b3461038157600036600319011261038157600080600454905b81811061075557602083604051908152f35b80600052600a60205260ff6009604060002001541660038110156106985715610781575b600101610743565b9161078d600191614576565b929050610779565b34610381576107a3366140ef565b9080600052602091600d8352604060002033600052835260ff6040600020541615610a135780600052600d8352604060002033600052835260ff60406000205416156109ce5780821461099b573360005282805260406000205462015180810180911161090c57421061095f5733600052601883526040600020805415610922576002015490611388918281029080820484149015171561090c5761271090049182106108bb577f28712f42bb62447cac6809da4bee68e8b6d1786eff0b73558cac4884c0fb64b6929333600052601f8152604060002082600052815282604060002055336000528052426040600020556108b66040519283923396846040919493926060820195825260208201520152565b0390a2005b60405162461bcd60e51b8152600481018590526024808201527f506f727465642073636f7265206e6f7420626574746572207468616e20646566604482015263185d5b1d60e21b6064820152608490fd5b634e487b7160e01b600052601160045260246000fd5b60405162461bcd60e51b8152600481018590526015602482015274139bc81c995c1d5d185d1a5bdb881d1bc81c1bdc9d605a1b6044820152606490fd5b60405162461bcd60e51b8152600481018490526014602482015273506f727420636f6f6c646f776e2061637469766560601b6044820152606490fd5b60405162461bcd60e51b815260048101849052600b60248201526a14d85b59481cdd589b995d60aa1b6044820152606490fd5b60405162461bcd60e51b815260048101849052601e60248201527f4e6f742076616c696461746f7220696e20746172676574207375626e657400006044820152606490fd5b60405162461bcd60e51b815260048101849052601e60248201527f4e6f742076616c696461746f7220696e20736f75726365207375626e657400006044820152606490fd5b3461038157606036600319011261038157600435604435602435610a7a614857565b610a826148ad565b82600052602090600b82526040600020926009840160ff815416600681101561069857806002610abb9214908115610e27575b5061441e565b60018501908154600052600d85526040600020336000528552610ae560ff6040600020541661445f565b86600052600c8552610afd604060002054851061449d565b610b0b6127108411156146d1565b86600052601385526040600020846000528552604060002033600052855260ff60406000205416610dd15786600052600c8552610b4c84604060002061432d565b5090600382019360ff855416610d8e5782546001600160a01b039190610b7690831633141561451d565b89600052601c88526040600020876000528852604060002054610d2f5789600052601288526040600020876000528852604060002033600052885280604060002055896000526013885260406000208760005288526040600020336000528852600960406000209860ff199960018b8254161790558b600052601481526040600020896000528152610c0c336040600020614725565b6005860196610c1b8854614576565b938489558d7f424e5ad88b2accc1579e610100b12e0f295d8c9e0b02abb61ad1e413e3d63d026040888b54169381519081523387820152a354600052526040600020548015610d27575b811015610c73576001600055005b7fff2fc693bb2d4a09f21f0c403fce5ecb4b5b0b57e81c7253deb5386bb8a8ae7798610ce4966001610ca8600a948b8f614973565b9a8b600289015582541617905501928784548111610cf6575b505050505054604051938493846040919493926060820195825260208201520152565b0390a28080808080808080808061064c565b90935591548154610100600160a81b031916921660081b610100600160a81b03169190911790558680808087610cc1565b506002610c65565b60405162461bcd60e51b815260048101899052603160248201527f436f6d6d69742d72657665616c206163746976653a2075736520636f6d6d697460448201527053636f72652f72657665616c53636f726560781b6064820152608490fd5b6064876040519062461bcd60e51b825280600483015260248201527f5375626d697373696f6e20616c72656164792068617320636f6e73656e7375736044820152fd5b60405162461bcd60e51b815260048101869052602860248201527f56616c696461746f7220616c72656164792073636f72656420746869732073756044820152673136b4b9b9b4b7b760c11b6064820152608490fd5b600191501488610ab5565b3461038157600036600319011261038157610e4b614857565b3360005260176020526040600020548015610eb35761064c90336000526017602052600060408120556040518181527f48dc35af7b45e2a81fffad55f6e2fafacdb1d3d0d50d24ebdc16324f5ba757f160203392a260025433906001600160a01b03166148f4565b60405162461bcd60e51b81526020600482015260136024820152724e6f2070656e64696e67206561726e696e677360681b6044820152606490fd5b3461038157610efc366140ef565b90600052601b6020526040600020906000526020526020604060002054604051908152f35b3461038157604036600319011261038157610f3a6140d9565b600435600052601160205260406000209060018060a01b0316600052602052602060ff604060002054166040519015158152f35b3461038157604036600319011261038157610f876140d9565b600435600052600d60205260406000209060018060a01b0316600052602052602060ff604060002054166040519015158152f35b3461038157610fc9366140ef565b610fd1614857565b81600052602090600b82526040600020916009830160ff8154166006811015610698578060026110099214908115611215575061441e565b84600052600c8252611021604060002054841061449d565b84600052600c825261103783604060002061432d565b5090600382019461104c60ff875416156144d9565b86600052601c8452604060002085600052845260406000205480156111d05761107b61108491601d5490614569565b601e5490614569565b42111561118b576005830154936001820154600052600981526040600020548015611183575b851061115f5750918391600a611127946110e888977fff2fc693bb2d4a09f21f0c403fce5ecb4b5b0b57e81c7253deb5386bb8a8ae779a998c614973565b97886002860155600160ff1982541617905501918683548111611131575b50505050604051938493846040919493926060820195825260208201520152565b0390a26001600055005b90925590548154610100600160a81b03191660089190911b610100600160a81b031617905586808086611106565b95505050505091600052601c8152604060002091600052526000604081205561064c565b5060026110aa565b60405162461bcd60e51b815260048101859052601a60248201527f52657665616c207068617365206e6f7420656e646564207965740000000000006044820152606490fd5b60405162461bcd60e51b815260048101869052601860248201527f4e6f20636f6d6d69742d72657665616c207374617274656400000000000000006044820152606490fd5b600191501487610ab5565b346103815760403660031901126103815760206040518181019060043582526024356040820152604081526112548161423f565b519020604051908152f35b34610381576020366003190112610381576001600160a01b036112806140c3565b16600052602080526020604060002054604051908152f35b346103815760003660031901126103815760206040516105dc8152f35b34610381576060366003190112610381576004356001600160401b038111610381576112e590369060040161435f565b906024356001600160401b0381116103815761130590369060040161435f565b9261130e614857565b6113166148ad565b80156117555761138992611381916113346107d060443511156147ac565b6002546040516323b872dd60e01b602082015233602482015230604482015264e8d4a51000606480830191909152815261137a916001600160a01b031661064782614224565b369161469a565b92369161469a565b906004549061139782614576565b600455604051926113a784614208565b828452816020850152604084015233606084015260443560808401526305f5e10060a0840152600060c0840152600060e0840152600061010084015260006101208401524261014084015281600052600a60205260406000208351815560208401518051906001600160401b03821161166f578190611429600185015461417c565b601f8111611702575b50602090601f831160011461169057600092611685575b50508160011b916000199060031b1c19161760018201555b60408401518051906001600160401b03821161166f578190611486600285015461417c565b601f811161161c575b50602090601f83116001146115aa5760009261159f575b50508160011b916000199060031b1c19161760028201555b6003810160018060a01b036060860151166001600160601b0360a01b8254161790556080840151600482015560a0840151600582015560c0840151600682015560e08401516007820155610100840151600882015561012084015193600385101561069857610140600a91611538602097600986016147e7565b015191015581600052600983526002604060002055817f8e46dcab88334408205dfdff058de646a02ab7fddb35b9923e924e49ce505c306115846040519360408552604085019061412f565b92604435868201528033940390a36001600055604051908152f35b0151905086806114a6565b9250600284016000526020600020906000935b601f1984168510611601576001945083601f198116106115e8575b505050811b0160028201556114be565b015160001960f88460031b161c191690558680806115d8565b818101518355602094850194600190930192909101906115bd565b909150600284016000526020600020601f840160051c810160208510611668575b90849392915b601f830160051c8201811061165957505061148f565b60008155859450600101611643565b508061163d565b634e487b7160e01b600052604160045260246000fd5b015190508680611449565b9250600184016000526020600020906000935b601f19841685106116e7576001945083601f198116106116ce575b505050811b016001820155611461565b015160001960f88460031b161c191690558680806116be565b818101518355602094850194600190930192909101906116a3565b909150600184016000526020600020601f840160051c81016020851061174e575b90849392915b601f830160051c8201811061173f575050611432565b60008155859450600101611729565b5080611723565b60405162461bcd60e51b815260206004820152600a602482015269456d707479206e616d6560b01b6044820152606490fd5b34610381576000366003190112610381576020600454604051908152f35b34610381576040366003190112610381576117be6140d9565b600435600052600f60205260406000209060018060a01b0316600052602052602060ff604060002054166040519015158152f35b34610381576000366003190112610381576001546040516001600160a01b039091168152602090f35b34610381576020366003190112610381576004356000908152600b602052604090208054600182015460028301546060936001600160a01b0391821693916118656003830161427b565b93600483015494600584015460068501546007860154916118ba600888015494600989015496600b600a8b01549a01549a6040519e8f9e8f906101a094859483526020830152604082015201528c019061412f565b9860808b015260a08a015260c089015260e08801526101008701526118e6610120870160ff831661416f565b60081c166101408501526101608401526101808301520390f35b34610381576040366003190112610381576024356001600160401b0381116103815761193090369060040161435f565b611938614857565b600435600052600b602052604060002060ff60098201541660068110159081610698578015918215611df7575b8215611de6575b505015611db1576008810154421015611d7d576001810154600052600f60205260406000203360005260205260ff6040600020541615611d3857600435600052601160205260406000203360005260205260ff60406000205416611cf357600435600052600c6020526040600020546006541115611cae5760043560005260116020526040600020336000526020526040600020600160ff19825416179055600435600052600c602052604060002060405190611a28826141b6565b338252611a3636858761469a565b60208301526000604083015260006060830152426080830152600060a08301528054600160401b81101561166f57611a739160018201815561432d565b919091611c9857805182546001600160a01b0319166001600160a01b039190911617825560208101518051906001600160401b03821161166f57611aba600185015461417c565b601f8111611c51575b50602090601f8311600114611bdc5791806005949260a094600092611bd1575b50508160011b916000199060031b1c19161760018501555b60408101516002850155611b2460608201511515600386019060ff801983541691151516179055565b608081015160048501550151910155600981015460ff81166006811015610698578015908115611bc6575b50611bb2575b505080604051926020845281602085015260408401376000604082840101527fa3dcf7cebcc4cf0937f4f95d95392671977ba143b4ff236240650322a106e8dc339260408160043594601f80199101168101030190a36001600055005b600260099160ff1916179101558280611b55565b600191501485611b4f565b015190508980611ae3565b906001850160005260206000209160005b601f1985168110611c395750926005949260019260a09583601f19811610611c20575b505050811b016001850155611afb565b015160001960f88460031b161c19169055898080611c10565b91926020600181928685015181550194019201611bed565b600185016000526020600020601f840160051c810160208510611c91575b601f830160051c82018110611c85575050611ac3565b60008155600101611c6f565b5080611c6f565b634e487b7160e01b600052600060045260246000fd5b60405162461bcd60e51b815260206004820152601760248201527f4d6178207375626d697373696f6e7320726561636865640000000000000000006044820152606490fd5b60405162461bcd60e51b815260206004820152601760248201527f4d696e657220616c7265616479207375626d69747465640000000000000000006044820152606490fd5b60405162461bcd60e51b815260206004820152601860248201527f4e6f74207265676973746572656420696e207375626e657400000000000000006044820152606490fd5b60405162461bcd60e51b815260206004820152600c60248201526b15185cdac8195e1c1a5c995960a21b6044820152606490fd5b60405162461bcd60e51b815260206004820152600d60248201526c10d85b9b9bdd081cdd589b5a5d609a1b6044820152606490fd5b90915061069857600214848061196c565b506001811491506000611965565b34610381576020806003193601126103815760043590611e23614857565b81600052600b8152604060002090600982019081549160ff8316600681101561069857600203611fc0576001600160a01b03600884901c811693908415611f8f578692611f4a7fae64f0a069112683796fc01e7d04ea7e255a3cd070a7dce992fdcdecbc1e6d5293889360018501549760048601549460036007600660058a01549901549d01549460ff191617905588600052600a815260406000209160068301611ecf878254614569565b905560078301611edf8154614576565b9055611eed87600854614569565b6008558a600052601682526040600020611f08878254614569565b90558a600052601782526040600020611f22878254614569565b905583611f69575b505050604051938493846040919493926060820195825260208201520152565b0390a480611f59576001600055005b611f6291614b17565b808061064c565b6003601793015416600052526040600020611f85828254614569565b90558a8080611f2a565b60405162461bcd60e51b81526004810185905260096024820152682737903bb4b73732b960b91b6044820152606490fd5b60405162461bcd60e51b81526004810183905260096024820152684e6f7420726561647960b81b6044820152606490fd5b346103815760003660031901126103815761200a6147ff565b600854801561205f5761205d90600060085560018060a01b03806007541690817fa087657e3d85162090ffd700fbfdf5070d816f63aa5da00063f6ffd369c8a6db6020604051868152a2600254166148f4565b005b60405162461bcd60e51b81526020600482015260076024820152664e6f206665657360c81b6044820152606490fd5b34610381576000366003190112610381576007546040516001600160a01b039091168152602090f35b34610381576000366003190112610381576020604051620151808152f35b34610381576120e336614105565b91600052601360205260406000209060005260205260406000209060018060a01b0316600052602052602060ff604060002054166040519015158152f35b3461038157602036600319011261038157600435600052600c6020526020604060002054604051908152f35b34610381576060366003190112610381576004356024356044356003811015610381577fa2191efe487e08892e9d1920150485aaf7591f089bdde895929d692ea8c4e08a916121eb60409285600052600a6020526121dc816009866000206121c260018060a01b03600383015416331461476d565b6121d06107d08811156147ac565b866004820155016147e7565b83519283526020830190614320565ba2005b34610381576121fc366140ef565b90600052601c6020526040600020906000526020526020604060002054604051908152f35b346103815760003660031901126103815761223a6147ff565b600180546001600160a01b031981169091556000906001600160a01b03167f8be0079c531659141344cd1fd0a4f28419497f9722a3daafe3b4186f6b6457e08280a3005b3461038157602080600319360112610381576004359081600052600a815260ff600960406000200154166003811015610698576122bb901561460c565b81600052600f8152604060002033600052815260ff60406000205416612436576003546001600160a01b03168061236f575b50600a9082600052600f815260406000203360005281526040600020600160ff198254161790558260005260108152604060002061232b8154614576565b9055826000525260086040600020016123448154614576565b905533907fbaae7a2be0ecfa867d60fcdae77877a3dda7484c504290098d77f256415abab2600080a3005b8160249160405192838092631c06dc2b60e21b82523360048301525afa90811561242a576000916123fd575b50156123a757826122ed565b6084906040519062461bcd60e51b82526004820152602960248201527f4d757374207374616b65206173204d696e657220696e205374616b696e6756616044820152681d5b1d08199a5c9cdd60ba1b6064820152fd5b61241d9150823d8411612423575b612415818361425a565b8101906145f4565b8361239b565b503d61240b565b6040513d6000823e3d90fd5b6064906040519062461bcd60e51b825260048201526012602482015271105b1c9958591e481c9959da5cdd195c995960721b6044820152fd5b346103815760403660031901126103815760043561248b6140d9565b9080600052600e6020600a815260018060a01b03806003604060002001541633148015612540575b6124bc906143e1565b83600052600d825260406000209416938460005281526124e360ff6040600020541661445f565b82600052600d81526040600020846000528152604060002060ff198154169055826000525260406000206125178154614760565b90557f7126bef88d1149ccdff9681ed5aecd3ba5ae70c96517551de250af09cebd1a0b600080a3005b50600154811633146124b3565b34610381576080366003190112610381576004356024908135604490813591606484600052602090600b8252604060002094600986019060ff8254166006811015612993578060026125a79214908115612988575061441e565b60018701938454600052600d815260406000203360005281526125d160ff6040600020541661445f565b88600052600c81526125e9604060002054881061449d565b6125f76127108311156146d1565b88600052600c815261260d87604060002061432d565b5093600385019661262260ff895416156144d9565b8a600052601c83526040600020896000528352612647604060002054601d5490614569565b612653601e5482614569565b90421115612947574211612912578a600052601983526040600020896000528352604060002033600052835260406000209182549182156128df5760ff9b9c9d600285019384549d8e166128ab576040518781019089825285356040820152604081526126bf8161423f565b5190200361287b575050506003600993928592600160ff19809e1617905501558a600052601b8152604060002088600052815260406000206127018154614576565b90558a6000526012815260406000208860005281526040600020336000528152826040600020558a6000526013815260406000208860005281526040600020336000528152604060002060018a8254161790558a600052601481526040600020886000528152612775336040600020614725565b60058501956127848754614576565b93848855604051908a8252838201528c7f23def086b3dc14dbd150f69d2e6af648dfc789cdf251ba7d720feecbc0625f8560403393a354600052526040600020548015612873575b8110156127d557005b7fff2fc693bb2d4a09f21f0c403fce5ecb4b5b0b57e81c7253deb5386bb8a8ae77976108b695600161280a600a948a8e614973565b998a600288015582541617905501918683548111612845575b5050505054604051938493846040919493926060820195825260208201520152565b90925590548154610100600160a81b03191660089190911b610100600160a81b031617905586808086612823565b5060026127cc565b8591600d6c090c2e6d040dad2e6dac2e8c6d609b1b926040519462461bcd60e51b86526004860152840152820152fd5b50859160106f105b1c9958591e481c995d99585b195960821b926040519462461bcd60e51b86526004860152840152820152fd5b6e139bc818dbdb5b5a5d08199bdd5b99608a1b85918f600f906040519462461bcd60e51b86526004860152840152820152fd5b7114995d99585b081c1a185cd948195b99195960721b839160128e6040519462461bcd60e51b86526004860152840152820152fd5b507f436f6d6d6974207068617365206e6f7420656e646564207965740000000000008391601a8e6040519462461bcd60e51b86526004860152840152820152fd5b60019150148b610ab5565b89634e487b7160e01b60005260216004526000fd5b6140a3565b34610381576020366003190112610381576129c6614857565b600435600052600b6020526040600020600981019081549060ff821660068110159081610698578015918215612b30575b8215612b1f575b505015612ae5576008810154421115612aa9576001600160a01b03600883901c8116612a705761064c936005612a58612a4d612a4260048701548488015490614569565b600687015490614569565b600786015490614569565b9460ff191617905560028181541692015416906148f4565b60405162461bcd60e51b81526020600482015260116024820152702a30b9b5903430b99030903bb4b73732b960791b6044820152606490fd5b60405162461bcd60e51b815260206004820152601460248201527315185cdac81b9bdd081e595d08195e1c1a5c995960621b6044820152606490fd5b60405162461bcd60e51b81526020600482015260126024820152715461736b206e6f7420657870697261626c6560701b6044820152606490fd5b9091506106985760021484806129fe565b5060018114915060006129f7565b34610381576080366003190112610381576024356001600160401b03811161038157612b6e90369060040161435f565b612b76614857565b612b7e6148ad565b600435600052600a60205260406000209160ff600984015416600381101561069857612baa901561460c565b600583015460443510612f7057606435151580612f61575b15612f29576101f4806044350293604435159160443586041482171561090c576105dc91604435808402048314171561090c57612710612c0960048293015460443561464c565b0491612c6c612c2f84612c2a85856044350204612c2a878c04604435614569565b614569565b6002546040516323b872dd60e01b60208201523360248201523060448201526064808201939093529182526001600160a01b031661064782614224565b81612c78600554614576565b9687600555612cb2612c8c60643542614569565b9660405198612c9a8a6141d1565b8a8a5260043560208b01523360408b0152369161469a565b606088015260443560808801520460a0860152604435020460c084015260e08301526101008201526000610120820152600061014082015260006101608201524261018082015281600052600b60205260406000209181518355602082015160018401556002830160018060a01b036040840151166001600160601b0360a01b82541617905560608201519283516001600160401b03811161166f57612d5b600383015461417c565b601f8111612ee2575b506020601f8211600114612e73578192939495600092612e68575b50508160011b916000199060031b1c19161760038201555b6080830151600482015560a0830151600582015560c0830151600682015560e08301516007820155610100830151600882015560098101610120840151906006821015610698578054610140860151610100600160a81b0360089190911b1660ff939093166001600160a81b031990911617919091179055602092600b9061018090610160810151600a850155015191015560405160443581523390827f428f55877ee911b6c5acc83ef215f08675d3787bdfac5018bbe41876df710f498560043593a46001600055604051908152f35b015190508580612d7f565b6003830160005260206000209060005b601f1984168110612eca575060019394959683601f19811610612eb1575b505050811b016003820155612d97565b015160001960f88460031b161c19169055858080612ea1565b9091602060018192858b015181550193019101612e83565b600383016000526020600020601f830160051c810160208410612f22575b601f830160051c82018110612f16575050612d64565b60008155600101612f00565b5080612f00565b60405162461bcd60e51b815260206004820152601060248201526f24b73b30b634b210323ab930ba34b7b760811b6044820152606490fd5b5062093a806064351115612bc2565b60405162461bcd60e51b815260206004820152600e60248201526d52657761726420746f6f206c6f7760901b6044820152606490fd5b3461038157600036600319011261038157602060ff60015460a01c166040519015158152f35b34610381576020366003190112610381576000610140604051612fee81614208565b82815260606020820152606060408201528260608201528260808201528260a08201528260c08201528260e082015282610100820152826101208201520152600435600052600a60205260406000206040519061304a82614208565b8054825261305a6001820161427b565b602083015261306b6002820161427b565b60408301526003818101546001600160a01b0316606084015260048201546080840152600582015460a0840152600682015460c0840152600782015460e08401526008820154610100840152600982015460ff16919082101561069857600a9161012084015201546101408201526040518091602082528051602083015261014061312061310a6020840151610160604087015261018086019061412f565b6040840151858203601f1901606087015261412f565b9160018060a01b036060820151166080850152608081015160a085015260a081015160c085015260c081015160e085015260e081015161010085015261010081015161012085015261317a61012082015183860190614320565b01516101608301520390f35b3461038157613194366140ef565b90600052600c6020526040600020908154811015610381576131b59161432d565b5080546001600160a01b03166131cd6001830161427b565b9160028101549060ff600382015416906005600482015491015491613204604051968796875260c0602088015260c087019061412f565b93604086015215156060850152608084015260a08301520390f35b3461038157602036600319011261038157600435600052600e6020526020604060002054604051908152f35b34610381576040366003190112610381576004356132676140d9565b90806000526020600a815260018060a01b03809381600360406000200154163314801561349a575b613298906143e1565b16926132a584151561438c565b82600052600d8252604060002084600052825260ff60406000205416613461576003541681816133b2575b505081600052600d815260406000208360005281526040600020600160ff1982541617905581600052600e8152604060002061330c8154614576565b90558260005260188152604060002060028101541590816133a8575b50613356575b507f7429a06e9412e469f0d64f9d222640b0af359f556b709e2913588c227851b88d600080a3005b600360405191613365836141ed565b600083528083016000815260408401906113888252601860608601934285528860005252604060002094518555516001850155516002840155519101558261332e565b9050541584613328565b6024916040519283809263facd743b60e01b82528860048301525afa90811561242a57600091613444575b50156133ea5783816132d0565b6084906040519062461bcd60e51b82526004820152602d60248201527f4d757374207374616b652061732056616c696461746f7220696e205374616b6960448201526c1b99d5985d5b1d08199a5c9cdd609a1b6064820152fd5b61345b9150823d841161242357612415818361425a565b846133dd565b60405162461bcd60e51b815260048101839052601160248201527020b63932b0b23c903b30b634b230ba37b960791b6044820152606490fd5b506001548216331461328f565b346103815760003660031901126103815760206040516107d08152f35b34610381576000366003190112610381576020601d54604051908152f35b3461038157602036600319011261038157600435600052600a602052604060002080546135116001830161427b565b9161351e6002820161427b565b6135b160018060a01b0360038401541692600481015460058201546006830154600784015491600885015493613586600a60ff600989015416970154986135786040519d8e9d8e610160918152816020820152019061412f565b8c810360408e01529061412f565b9860608b015260808a015260a089015260c088015260e0870152610100860152610120850190614320565b6101408301520390f35b34610381576135c9366140ef565b6135d16147ff565b61012c80831061365957811061361b57816040917f54333de66970050ba341fd48b02b1e37c55d85ae724ee00e32233e89e072bea893601d5580601e5582519182526020820152a1005b60405162461bcd60e51b815260206004820152601660248201527514995d99585b081c1a185cd9481d1bdbc81cda1bdc9d60521b6044820152606490fd5b60405162461bcd60e51b815260206004820152601660248201527510dbdb5b5a5d081c1a185cd9481d1bdbc81cda1bdc9d60521b6044820152606490fd5b34610381576136a536614105565b91600052601960205260406000209060005260205260406000209060018060a01b031660005260205260806040600020805490600181015490600360ff600283015416910154916040519384526020840152151560408301526060820152f35b34610381576000366003190112610381576020600654604051908152f35b34610381576020366003190112610381576001600160a01b036137446140c3565b1660005260156020526020604060002054604051908152f35b346103815760003660031901126103815760206040516113888152f35b346103815760203660031901126103815760043560005260106020526020604060002054604051908152f35b34610381576000366003190112610381576003546040516001600160a01b039091168152602090f35b346103815760206137e86137e2366140ef565b90614585565b604051908152f35b346103815760603660031901126103815760043560249081359060443581600052602090600b8252604060002060ff600982015416906006821015613b3e5761384682600260019414908115613b34575061441e565b0154600052600d8252604060002033600052825261386b60ff6040600020541661445f565b82600052600c8252613883604060002054851061449d565b8015613afc5782600052600c82526138c66138a285604060002061432d565b506138b460ff600383015416156144d9565b546001600160a01b031633141561451d565b826000526019825260406000208460005282526040600020336000528252604060002054613ac45782600052601382526040600020846000528252604060002033600052825260ff60406000205416613a805782600052601c8252604060002084600052825260406000205415613a61575b82600052601c8252604060002084600052825261395d604060002054601d5490614569565b4211613a28576040517f96e134fdbcf6f2b8942aa1450973cc1e5914913673abacabebf1f0b14fe4a5529291613992826141ed565b815260038282014281526139f56040840160008152606085019260008452886000526019875260406000208a60005287526040600020336000528752604060002095518655516001860155511515600285019060ff801983541691151516179055565b5191015582600052601a815260406000208460005281526040600020613a1b8154614576565b90556040519384523393a3005b60405162461bcd60e51b8152600481018390526012818701527110dbdb5b5a5d081c1a185cd948195b99195960721b6044820152606490fd5b82600052601c8252604060002084600052825242604060002055613938565b60405162461bcd60e51b8152600481018390526017818701527f416c72656164792073636f726564206469726563746c790000000000000000006044820152606490fd5b60405162461bcd60e51b81526004810183905260118187015270105b1c9958591e4818dbdb5b5a5d1d1959607a1b6044820152606490fd5b60405162461bcd60e51b8152600481018390526011818701527008adae0e8f240c6dedadad2e840d0c2e6d607b1b6044820152606490fd5b8491501489610ab5565b86634e487b7160e01b60005260216004526000fd5b3461038157613b61366140ef565b9080600052600a602052613b9060018060a01b0380600360406000200154163314908115613bf0575b506143e1565b60018210613bab576000526009602052604060002055600080f35b60405162461bcd60e51b815260206004820152601c60248201527f4d696e2076616c69646174696f6e73206d757374206265203e3d2031000000006044820152606490fd5b905060015416331484613b8a565b34610381576020366003190112610381576000610180604051613c20816141d1565b8281528260208201528260408201526060808201528260808201528260a08201528260c08201528260e0820152826101008201528261012082015282610140820152826101608201520152600435600052600b602052604060002060405190613c88826141d1565b805482526001810154602083015260028101546001600160a01b03166040830152613cb56003820161427b565b606083015260048101546080830152600581015460a0830152600681015460c0830152600781015460e08301526008810154610100830152600981015490600660ff83161015610698578160ff600b931661012085015260018060a01b039060081c16610140840152600a8101546101608401520154610180820152604051809160208252805160208301526020810151604083015260018060a01b036040820151166060830152610180613d7b60608301516101a060808601526101c085019061412f565b91608081015160a085015260a081015160c085015260c081015160e085015260e0810151610100850152610100810151610120850152613dc561012082015161014086019061416f565b6101408101516001600160a01b0316610160858101919091528101518285015201516101a08301520390f35b346103815760208060031936011261038157600435600052600c8152604060002090815491613e1f836143ca565b92613e2d604051948561425a565b8084528284018092600052836000206000915b838310613eec5750505050604051918083019381845251809452604083019360408160051b85010192916000955b828710613e7b5785850386f35b909192938280600192603f19898203018552875190613eb260c0868060a01b0384511683528484015190808685015283019061412f565b91604081015160408301526060808201511515908301526080808201519083015260a0809101519101529601920196019592919092613e6e565b600686600192604099989951613f01816141b6565b848060a01b038654168152613f1785870161427b565b838201526002860154604082015260ff6003870154161515606082015260048601546080820152600586015460a0820152815201920192019190959495613e40565b346103815760003660031901126103815760206040516101f48152f35b346103815760203660031901126103815760043560005260096020526020604060002054604051908152f35b3461038157613fb036614105565b91600052601260205260406000209060005260205260406000209060018060a01b03166000526020526020604060002054604051908152f35b34610381576020366003190112610381576001600160a01b0361400a6140c3565b1660005260166020526020604060002054604051908152f35b3461038157614031366140ef565b90600052601a6020526040600020906000526020526020604060002054604051908152f35b346103815760203660031901126103815761406f6140c3565b6140776147ff565b6001600160a01b031661408b81151561438c565b6001600160601b0360a01b6007541617600755600080f35b3461038157600036600319011261038157602060405164e8d4a510008152f35b600435906001600160a01b038216820361038157565b602435906001600160a01b038216820361038157565b6040906003190112610381576004359060243590565b60609060031901126103815760043590602435906044356001600160a01b03811681036103815790565b919082519283825260005b84811061415b575050826000602080949584010152601f8019910116010190565b60208183018101518483018201520161413a565b9060068210156106985752565b90600182811c921680156141ac575b602083101461419657565b634e487b7160e01b600052602260045260246000fd5b91607f169161418b565b60c081019081106001600160401b0382111761166f57604052565b6101a081019081106001600160401b0382111761166f57604052565b608081019081106001600160401b0382111761166f57604052565b61016081019081106001600160401b0382111761166f57604052565b60a081019081106001600160401b0382111761166f57604052565b606081019081106001600160401b0382111761166f57604052565b90601f801991011681019081106001600160401b0382111761166f57604052565b9060405191826000825461428e8161417c565b908184526020946001916001811690816000146142fe57506001146142bf575b5050506142bd9250038361425a565b565b600090815285812095935091905b8183106142e65750506142bd93508201013880806142ae565b855488840185015294850194879450918301916142cd565b925050506142bd94925060ff191682840152151560051b8201013880806142ae565b9060038210156106985752565b8054821015614349576000526006602060002091020190600090565b634e487b7160e01b600052603260045260246000fd5b9181601f84011215610381578235916001600160401b038311610381576020838186019501011161038157565b1561439357565b60405162461bcd60e51b815260206004820152600f60248201526e496e76616c6964206164647265737360881b6044820152606490fd5b6001600160401b03811161166f5760051b60200190565b156143e857565b60405162461bcd60e51b815260206004820152600e60248201526d139bdd08185d5d1a1bdc9a5e995960921b6044820152606490fd5b1561442557565b60405162461bcd60e51b81526020600482015260126024820152714e6f742070656e64696e672072657669657760701b6044820152606490fd5b1561446657565b60405162461bcd60e51b815260206004820152600f60248201526e2737ba1030903b30b634b230ba37b960891b6044820152606490fd5b156144a457565b60405162461bcd60e51b815260206004820152600d60248201526c092dcecc2d8d2c840d2dcc8caf609b1b6044820152606490fd5b156144e057565b60405162461bcd60e51b8152602060048201526015602482015274416c72656164792068617320636f6e73656e73757360581b6044820152606490fd5b1561452457565b60405162461bcd60e51b815260206004820152601e60248201527f43616e6e6f742076616c6964617465206f776e207375626d697373696f6e00006044820152606490fd5b9190820180921161090c57565b600019811461090c5760010190565b6000908152600960205260408120549182156145eb575b64e8d4a5100081106145cc5750600282018092116145b8575090565b634e487b7160e01b81526011600452602490fd5b64174876e80011156145dc575090565b600182018092116145b8575090565b6002925061459c565b90816020910312610381575180151581036103815790565b1561461357565b60405162461bcd60e51b81526020600482015260116024820152705375626e6574206e6f742061637469766560781b6044820152606490fd5b8181029291811591840414171561090c57565b8115614669570490565b634e487b7160e01b600052601260045260246000fd5b6001600160401b03811161166f57601f01601f191660200190565b9291926146a68261467f565b916146b4604051938461425a565b829481845281830111610381578281602093846000960137010152565b156146d857565b60405162461bcd60e51b815260206004820152600d60248201526c496e76616c69642073636f726560981b6044820152606490fd5b80548210156143495760005260206000200190600090565b8054600160401b81101561166f576147429160018201815561470d565b60018060a09493941b038084549260031b9316831b921b1916179055565b801561090c576000190190565b1561477457565b60405162461bcd60e51b815260206004820152601060248201526f2737ba1039bab13732ba1037bbb732b960811b6044820152606490fd5b156147b357565b60405162461bcd60e51b815260206004820152600c60248201526b08ccaca40e8dede40d0d2ced60a31b6044820152606490fd5b9060038110156106985760ff80198354169116179055565b6001546001600160a01b0316330361481357565b606460405162461bcd60e51b815260206004820152602060248201527f4f776e61626c653a2063616c6c6572206973206e6f7420746865206f776e65726044820152fd5b600260005414614868576002600055565b60405162461bcd60e51b815260206004820152601f60248201527f5265656e7472616e637947756172643a207265656e7472616e742063616c6c006044820152606490fd5b60ff60015460a01c166148bc57565b60405162461bcd60e51b815260206004820152601060248201526f14185d5cd8589b194e881c185d5cd95960821b6044820152606490fd5b60405163a9059cbb60e01b60208201526001600160a01b0390921660248301526044808301939093529181526142bd91610647826141ed565b90614937826143ca565b614944604051918261425a565b8281528092614955601f19916143ca565b0190602036910137565b80518210156143495760209160051b010190565b92919061497f8261492d565b9160009185835260206014815260409182852081865282528285209784895403614ac657855b858110614a805750505050505090809293505160019160015b8281106149d557505050506149d290615092565b90565b806149e185928761495f565b5181835b6149fb575b6149f4908861495f565b52016149be565b90919281151580614a5f575b15614a5757506000198101818111614a43578691614a28614a39928a61495f565b51614a33828b61495f565b52614760565b90929190836149e5565b634e487b7160e01b85526011600452602485fd5b9291906149ea565b50506000198101818111614a435782614a7988928a61495f565b5111614a07565b600190828852601285528588208489528552858820614a9f828d61470d565b848060a01b0391549060031b1c168952855285882054614abf828b61495f565b52016149a5565b835162461bcd60e51b815260048101849052601b60248201527f56616c696461746f7220747261636b696e67206d69736d6174636800000000006044820152606490fd5b9190820391821161090c57565b6000818152600b6020908152604080832060090154600c909252822080546008959391926000199290871c6001600160a01b0316905b828110614f27575b5050506000198114614f19578360005260146020526040600020816000526020526040600020908154928315614f0957614b918260029261432d565b50015494614b9e8461492d565b9160009660005b868110614caa57505050508415614c9b5760009460005b848110614bec575050505050808210614bd457505050565b614be891614be191614b0a565b8254614569565b9055565b80614bf96001928561495f565b5115614c9657614c26614c1f84614c1a614c13858961495f565b518b61464c565b61465f565b8099614569565b97614c31828761470d565b905490600391858060a01b0391831b1c1660005260156020526040600020614c5a838254614569565b9055614c66838861470d565b858060a09493941b039254911b1c166000526017602052614c8d6040600020918254614569565b90555b01614bbc565b614c90565b505050614be891508254614569565b614cb4818761470d565b99905499856000526012602052604060002085600052602052604060002060018060a01b038c8360031b1c16600052602052614cf58460406000205461511f565b9a60018060a01b03818360031b1c16600052601860205260406000209b614d1c8d54614576565b8d554260038e01556107d08111614e615760018d01614d3b8154614576565b90556064614d49868b61495f565b5260405190600082526020820152877f3d70426d5de70b5ac8bff45c3c0cd89db0e473153868b8c61a938d42002584e8604060018060a01b03858760031b1c1693a35b8b80549384614e31575b614da0868b61495f565b5191600201549182614db19161464c565b6127109004614dc0878c61495f565b52614dcb868b61495f565b51614dd591614569565b60019d909d0154604080519283526020830195909552938101939093526001600160a01b0360039290921b1c16907fc2fd17ad7e9f23b8607f0bd02d7a6cdcccd5a964fa99ce5a066ed34c5b4bb55b90606090a2600101614ba5565b906001015490612710828181020481148315171561090c57858f9391614e57920261465f565b6002830155614d96565b6113888111614ebd576032614e76868b61495f565b5260405190600082526020820152877f3d70426d5de70b5ac8bff45c3c0cd89db0e473153868b8c61a938d42002584e8604060018060a01b03858760031b1c1693a3614d8c565b6000614ec9868b61495f565b52604051908152877f3b3050df353576101845973a6b18bbcf16a0187f1c80d60d83d95be509203c51602060018060a01b03858760031b1c1693a3614d8c565b50505050614be891508254614569565b5050614be891508254614569565b81614f32828761432d565b50546001600160a01b03161480614f5c575b614f5057600101614b4d565b92505050388080614b55565b5060ff6003614f6b838861432d565b50015416614f44565b60408051908101916001600160a01b03166001600160401b0383118284101761166f57615002926040526000806020958685527f5361666545524332303a206c6f772d6c6576656c2063616c6c206661696c656487860152868151910182855af13d1561508a573d91614fe68361467f565b92614ff4604051948561425a565b83523d60008785013e61516d565b805190828215928315615072575b5050501561501b5750565b6084906040519062461bcd60e51b82526004820152602a60248201527f5361666545524332303a204552433230206f7065726174696f6e20646964206e6044820152691bdd081cdd58d8d9595960b21b6064820152fd5b61508293508201810191016145f4565b388281615010565b60609161516d565b805180156150eb576001818116036150b657906150b29160011c9061495f565b5190565b60011c90600019820182811161090c576150e5926150d76150de928461495f565b519261495f565b5190614569565b60011c90565b60405162461bcd60e51b815260206004820152600c60248201526b456d7074792073636f72657360a01b6044820152606490fd5b81156151665781808211156151565761513791614b0a565b905b6127109182810292818404149015171561090c576149d29161465f565b9061516091614b0a565b90615139565b5050600090565b919290156151cf5750815115615181575090565b3b1561518a5790565b60405162461bcd60e51b815260206004820152601d60248201527f416464726573733a2063616c6c20746f206e6f6e2d636f6e74726163740000006044820152606490fd5b8251909150156151e25750805190602001fd5b60405162461bcd60e51b81526020600482015290819061520690602483019061412f565b0390fdfea264697066735822122076264b0aeed75ed36e067dc0ae8208a9fac53928637ce10114dd45a7965a03d064736f6c63430008180033",
  "linkReferences": {},
  "deployedLinkReferences": {}
}