{
  "_format": "hh-sol-artifact-1",
  "contractName": "SubnetRegistry",
  "sourceName": "src/SubnetRegistry.sol",
  "abi": [
    {
      "inputs": [
        {
          "internalType": "address",
          "name": "_mdtToken",
          "type": "address"
        },
        {
          "internalType": "address",
          "name": "_treasury",
          "type": "address"
        }
      ],
      "stateMutability": "nonpayable",
      "type": "constructor"
    },
    {
      "anonymous": false,
      "inputs": [
        {
          "indexed": true,
          "internalType": "uint256",
          "name": "taskId",
          "type": "uint256"
        },
        {
          "indexed": false,
          "internalType": "uint256",
          "name": "baseMin",
          "type": "uint256"
        },
        {
          "indexed": false,
          "internalType": "uint256",
          "name": "adaptiveMin",
          "type": "uint256"
        }
      ],
      "name": "AdaptiveValidationsApplied",
      "type": "event"
    },
    {
      "anonymous": false,
      "inputs": [
        {
          "indexed": false,
          "internalType": "uint256",
          "name": "commitDuration",
          "type": "uint256"
        },
        {
          "indexed": false,
          "internalType": "uint256",
          "name": "revealDuration",
          "type": "uint256"
        }
      ],
      "name": "CommitPhaseConfigUpdated",
      "type": "event"
    },
    {
      "anonymous": false,
      "inputs": [
        {
          "indexed": true,
          "internalType": "uint256",
          "name": "taskId",
          "type": "uint256"
        },
        {
          "indexed": false,
          "internalType": "uint256",
          "name": "minerIndex",
          "type": "uint256"
        },
        {
          "indexed": false,
          "internalType": "uint256",
          "name": "medianScore",
          "type": "uint256"
        },
        {
          "indexed": false,
          "internalType": "uint256",
          "name": "validatorCount",
          "type": "uint256"
        }
      ],
      "name": "ConsensusReached",
      "type": "event"
    },
    {
      "anonymous": false,
      "inputs": [
        {
          "indexed": true,
          "internalType": "address",
          "name": "account",
          "type": "address"
        },
        {
          "indexed": false,
          "internalType": "uint256",
          "name": "amount",
          "type": "uint256"
        }
      ],
      "name": "EarningsWithdrawn",
      "type": "event"
    },
    {
      "anonymous": false,
      "inputs": [
        {
          "indexed": true,
          "internalType": "uint256",
          "name": "subnetId",
          "type": "uint256"
        },
        {
          "indexed": true,
          "internalType": "address",
          "name": "miner",
          "type": "address"
        }
      ],
      "name": "MinerRegistered",
      "type": "event"
    },
    {
      "anonymous": false,
      "inputs": [
        {
          "indexed": true,
          "internalType": "address",
          "name": "previousOwner",
          "type": "address"
        },
        {
          "indexed": true,
          "internalType": "address",
          "name": "newOwner",
          "type": "address"
        }
      ],
      "name": "OwnershipTransferred",
      "type": "event"
    },
    {
      "anonymous": false,
      "inputs": [
        {
          "indexed": false,
          "internalType": "address",
          "name": "account",
          "type": "address"
        }
      ],
      "name": "Paused",
      "type": "event"
    },
    {
      "anonymous": false,
      "inputs": [
        {
          "indexed": true,
          "internalType": "address",
          "name": "to",
          "type": "address"
        },
        {
          "indexed": false,
          "internalType": "uint256",
          "name": "amount",
          "type": "uint256"
        }
      ],
      "name": "ProtocolFeesWithdrawn",
      "type": "event"
    },
    {
      "anonymous": false,
      "inputs": [
        {
          "indexed": true,
          "internalType": "address",
          "name": "validator",
          "type": "address"
        },
        {
          "indexed": false,
          "internalType": "uint256",
          "name": "fromSubnet",
          "type": "uint256"
        },
        {
          "indexed": false,
          "internalType": "uint256",
          "name": "toSubnet",
          "type": "uint256"
        },
        {
          "indexed": false,
          "internalType": "uint256",
          "name": "portedScore",
          "type": "uint256"
        }
      ],
      "name": "ReputationPorted",
      "type": "event"
    },
    {
      "anonymous": false,
      "inputs": [
        {
          "indexed": true,
          "internalType": "address",
          "name": "validator",
          "type": "address"
        },
        {
          "indexed": false,
          "internalType": "uint256",
          "name": "newScore",
          "type": "uint256"
        },
        {
          "indexed": false,
          "internalType": "uint256",
          "name": "totalValidations",
          "type": "uint256"
        },
        {
          "indexed": false,
          "internalType": "uint256",
          "name": "accurateValidations",
          "type": "uint256"
        }
      ],
      "name": "ReputationUpdated",
      "type": "event"
    },
    {
      "anonymous": false,
      "inputs": [
        {
          "indexed": true,
          "internalType": "uint256",
          "name": "taskId",
          "type": "uint256"
        },
        {
          "indexed": false,
          "internalType": "uint256",
          "name": "minerIndex",
          "type": "uint256"
        },
        {
          "indexed": true,
          "internalType": "address",
          "name": "validator",
          "type": "address"
        }
      ],
      "name": "ScoreCommitted",
      "type": "event"
    },
    {
      "anonymous": false,
      "inputs": [
        {
          "indexed": true,
          "internalType": "uint256",
          "name": "taskId",
          "type": "uint256"
        },
        {
          "indexed": false,
          "internalType": "uint256",
          "name": "minerIndex",
          "type": "uint256"
        },
        {
          "indexed": true,
          "internalType": "address",
          "name": "validator",
          "type": "address"
        },
        {
          "indexed": false,
          "internalType": "uint256",
          "name": "score",
          "type": "uint256"
        }
      ],
      "name": "ScoreRevealed",
      "type": "event"
    },
    {
      "anonymous": false,
      "inputs": [
        {
          "indexed": true,
          "internalType": "uint256",
          "name": "taskId",
          "type": "uint256"
        },
        {
          "indexed": true,
          "internalType": "address",
          "name": "miner",
          "type": "address"
        },
        {
          "indexed": false,
          "internalType": "string",
          "name": "resultHash",
          "type": "string"
        }
      ],
      "name": "SubmissionReceived",
      "type": "event"
    },
    {
      "anonymous": false,
      "inputs": [
        {
          "indexed": true,
          "internalType": "uint256",
          "name": "taskId",
          "type": "uint256"
        },
        {
          "indexed": true,
          "internalType": "address",
          "name": "miner",
          "type": "address"
        },
        {
          "indexed": false,
          "internalType": "uint256",
          "name": "score",
          "type": "uint256"
        },
        {
          "indexed": false,
          "internalType": "address",
          "name": "validator",
          "type": "address"
        }
      ],
      "name": "SubmissionValidated",
      "type": "event"
    },
    {
      "anonymous": false,
      "inputs": [
        {
          "indexed": true,
          "internalType": "uint256",
          "name": "subnetId",
          "type": "uint256"
        },
        {
          "indexed": false,
          "internalType": "string",
          "name": "name",
          "type": "string"
        },
        {
          "indexed": true,
          "internalType": "address",
          "name": "owner",
          "type": "address"
        },
        {
          "indexed": false,
          "internalType": "uint256",
          "name": "feeRate",
          "type": "uint256"
        }
      ],
      "name": "SubnetCreated",
      "type": "event"
    },
    {
      "anonymous": false,
      "inputs": [
        {
          "indexed": true,
          "internalType": "uint256",
          "name": "subnetId",
          "type": "uint256"
        },
        {
          "indexed": false,
          "internalType": "uint256",
          "name": "newFeeRate",
          "type": "uint256"
        },
        {
          "indexed": false,
          "internalType": "enum SubnetRegistry.SubnetStatus",
          "name": "newStatus",
          "type": "uint8"
        }
      ],
      "name": "SubnetUpdated",
      "type": "event"
    },
    {
      "anonymous": false,
      "inputs": [
        {
          "indexed": true,
          "internalType": "uint256",
          "name": "taskId",
          "type": "uint256"
        },
        {
          "indexed": true,
          "internalType": "uint256",
          "name": "subnetId",
          "type": "uint256"
        },
        {
          "indexed": true,
          "internalType": "address",
          "name": "winner",
          "type": "address"
        },
        {
          "indexed": false,
          "internalType": "uint256",
          "name": "minerReward",
          "type": "uint256"
        },
        {
          "indexed": false,
          "internalType": "uint256",
          "name": "protocolFee",
          "type": "uint256"
        },
        {
          "indexed": false,
          "internalType": "uint256",
          "name": "subnetFee",
          "type": "uint256"
        }
      ],
      "name": "TaskCompleted",
      "type": "event"
    },
    {
      "anonymous": false,
      "inputs": [
        {
          "indexed": true,
          "internalType": "uint256",
          "name": "taskId",
          "type": "uint256"
        },
        {
          "indexed": true,
          "internalType": "uint256",
          "name": "subnetId",
          "type": "uint256"
        },
        {
          "indexed": true,
          "internalType": "address",
          "name": "requester",
          "type": "address"
        },
        {
          "indexed": false,
          "internalType": "uint256",
          "name": "rewardAmount",
          "type": "uint256"
        }
      ],
      "name": "TaskCreated",
      "type": "event"
    },
    {
      "anonymous": false,
      "inputs": [
        {
          "indexed": false,
          "internalType": "address",
          "name": "account",
          "type": "address"
        }
      ],
      "name": "Unpaused",
      "type": "event"
    },
    {
      "anonymous": false,
      "inputs": [
        {
          "indexed": true,
          "internalType": "uint256",
          "name": "subnetId",
          "type": "uint256"
        },
        {
          "indexed": true,
          "internalType": "address",
          "name": "validator",
          "type": "address"
        }
      ],
      "name": "ValidatorAdded",
      "type": "event"
    },
    {
      "anonymous": false,
      "inputs": [
        {
          "indexed": true,
          "internalType": "uint256",
          "name": "taskId",
          "type": "uint256"
        },
        {
          "indexed": true,
          "internalType": "address",
          "name": "validator",
          "type": "address"
        },
        {
          "indexed": false,
          "internalType": "uint256",
          "name": "deviation",
          "type": "uint256"
        }
      ],
      "name": "ValidatorPenalized",
      "type": "event"
    },
    {
      "anonymous": false,
      "inputs": [
        {
          "indexed": true,
          "internalType": "uint256",
          "name": "subnetId",
          "type": "uint256"
        },
        {
          "indexed": true,
          "internalType": "address",
          "name": "validator",
          "type": "address"
        }
      ],
      "name": "ValidatorRemoved",
      "type": "event"
    },
    {
      "anonymous": false,
      "inputs": [
        {
          "indexed": true,
          "internalType": "uint256",
          "name": "taskId",
          "type": "uint256"
        },
        {
          "indexed": true,
          "internalType": "address",
          "name": "validator",
          "type": "address"
        },
        {
          "indexed": false,
          "internalType": "uint256",
          "name": "amount",
          "type": "uint256"
        },
        {
          "indexed": false,
          "internalType": "uint256",
          "name": "deviation",
          "type": "uint256"
        }
      ],
      "name": "ValidatorRewarded",
      "type": "event"
    },
    {
      "inputs": [],
      "name": "HIGH_VALUE_THRESHOLD",
      "outputs": [
        {
          "internalType": "uint256",
          "name": "",
          "type": "uint256"
        }
      ],
      "stateMutability": "view",
      "type": "function"
    },
    {
      "inputs": [],
      "name": "MAX_SUBNET_FEE_RATE",
      "outputs": [
        {
          "internalType": "uint256",
          "name": "",
          "type": "uint256"
        }
      ],
      "stateMutability": "view",
      "type": "function"
    },
    {
      "inputs": [],
      "name": "PORT_COOLDOWN",
      "outputs": [
        {
          "internalType": "uint256",
          "name": "",
          "type": "uint256"
        }
      ],
      "stateMutability": "view",
      "type": "function"
    },
    {
      "inputs": [],
      "name": "PROTOCOL_FEE_RATE",
      "outputs": [
        {
          "internalType": "uint256",
          "name": "",
          "type": "uint256"
        }
      ],
      "stateMutability": "view",
      "type": "function"
    },
    {
      "inputs": [],
      "name": "REPUTATION_DECAY_FACTOR",
      "outputs": [
        {
          "internalType": "uint256",
          "name": "",
          "type": "uint256"
        }
      ],
      "stateMutability": "view",
      "type": "function"
    },
    {
      "inputs": [],
      "name": "SUBNET_REGISTRATION_COST",
      "outputs": [
        {
          "internalType": "uint256",
          "name": "",
          "type": "uint256"
        }
      ],
      "stateMutability": "view",
      "type": "function"
    },
    {
      "inputs": [],
      "name": "ULTRA_VALUE_THRESHOLD",
      "outputs": [
        {
          "internalType": "uint256",
          "name": "",
          "type": "uint256"
        }
      ],
      "stateMutability": "view",
      "type": "function"
    },
    {
      "inputs": [],
      "name": "VALIDATOR_REWARD_RATE",
      "outputs": [
        {
          "internalType": "uint256",
          "name": "",
          "type": "uint256"
        }
      ],
      "stateMutability": "view",
      "type": "function"
    },
    {
      "inputs": [
        {
          "internalType": "uint256",
          "name": "subnetId",
          "type": "uint256"
        },
        {
          "internalType": "address",
          "name": "validator",
          "type": "address"
        }
      ],
      "name": "addValidator",
      "outputs": [],
      "stateMutability": "nonpayable",
      "type": "function"
    },
    {
      "inputs": [
        {
          "internalType": "uint256",
          "name": "",
          "type": "uint256"
        },
        {
          "internalType": "uint256",
          "name": "",
          "type": "uint256"
        }
      ],
      "name": "commitCount",
      "outputs": [
        {
          "internalType": "uint256",
          "name": "",
          "type": "uint256"
        }
      ],
      "stateMutability": "view",
      "type": "function"
    },
    {
      "inputs": [],
      "name": "commitPhaseDuration",
      "outputs": [
        {
          "internalType": "uint256",
          "name": "",
          "type": "uint256"
        }
      ],
      "stateMutability": "view",
      "type": "function"
    },
    {
      "inputs": [
        {
          "internalType": "uint256",
          "name": "",
          "type": "uint256"
        },
        {
          "internalType": "uint256",
          "name": "",
          "type": "uint256"
        }
      ],
      "name": "commitPhaseStart",
      "outputs": [
        {
          "internalType": "uint256",
          "name": "",
          "type": "uint256"
        }
      ],
      "stateMutability": "view",
      "type": "function"
    },
    {
      "inputs": [
        {
          "internalType": "uint256",
          "name": "taskId",
          "type": "uint256"
        },
        {
          "internalType": "uint256",
          "name": "minerIndex",
          "type": "uint256"
        },
        {
          "internalType": "bytes32",
          "name": "commitHash",
          "type": "bytes32"
        }
      ],
      "name": "commitScore",
      "outputs": [],
      "stateMutability": "nonpayable",
      "type": "function"
    },
    {
      "inputs": [
        {
          "internalType": "uint256",
          "name": "subnetId",
          "type": "uint256"
        },
        {
          "internalType": "string",
          "name": "taskHash",
          "type": "string"
        },
        {
          "internalType": "uint256",
          "name": "rewardAmount",
          "type": "uint256"
        },
        {
          "internalType": "uint256",
          "name": "duration",
          "type": "uint256"
        }
      ],
      "name": "createTask",
      "outputs": [
        {
          "internalType": "uint256",
          "name": "taskId",
          "type": "uint256"
        }
      ],
      "stateMutability": "nonpayable",
      "type": "function"
    },
    {
      "inputs": [
        {
          "internalType": "uint256",
          "name": "taskId",
          "type": "uint256"
        }
      ],
      "name": "expireTask",
      "outputs": [],
      "stateMutability": "nonpayable",
      "type": "function"
    },
    {
      "inputs": [
        {
          "internalType": "uint256",
          "name": "taskId",
          "type": "uint256"
        }
      ],
      "name": "finalizeTask",
      "outputs": [],
      "stateMutability": "nonpayable",
      "type": "function"
    },
    {
      "inputs": [],
      "name": "getActiveSubnetCount",
      "outputs": [
        {
          "internalType": "uint256",
          "name": "count",
          "type": "uint256"
        }
      ],
      "stateMutability": "view",
      "type": "function"
    },
    {
      "inputs": [
        {
          "internalType": "uint256",
          "name": "subnetId",
          "type": "uint256"
        },
        {
          "internalType": "uint256",
          "name": "rewardAmount",
          "type": "uint256"
        }
      ],
      "name": "getAdaptiveMinValidations",
      "outputs": [
        {
          "internalType": "uint256",
          "name": "",
          "type": "uint256"
        }
      ],
      "stateMutability": "view",
      "type": "function"
    },
    {
      "inputs": [
        {
          "internalType": "uint256",
          "name": "score",
          "type": "uint256"
        },
        {
          "internalType": "bytes32",
          "name": "salt",
          "type": "bytes32"
        }
      ],
      "name": "getCommitHash",
      "outputs": [
        {
          "internalType": "bytes32",
          "name": "",
          "type": "bytes32"
        }
      ],
      "stateMutability": "pure",
      "type": "function"
    },
    {
      "inputs": [
        {
          "internalType": "uint256",
          "name": "taskId",
          "type": "uint256"
        }
      ],
      "name": "getSubmissionCount",
      "outputs": [
        {
          "internalType": "uint256",
          "name": "",
          "type": "uint256"
        }
      ],
      "stateMutability": "view",
      "type": "function"
    },
    {
      "inputs": [
        {
          "internalType": "uint256",
          "name": "taskId",
          "type": "uint256"
        }
      ],
      "name": "getSubmissions",
      "outputs": [
        {
          "components": [
            {
              "internalType": "address",
              "name": "miner",
              "type": "address"
            },
            {
              "internalType": "string",
              "name": "resultHash",
              "type": "string"
            },
            {
              "internalType": "uint256",
              "name": "score",
              "type": "uint256"
            },
            {
              "internalType": "bool",
              "name": "validated",
              "type": "bool"
            },
            {
              "internalType": "uint256",
              "name": "submittedAt",
              "type": "uint256"
            },
            {
              "internalType": "uint256",
              "name": "validationCount",
              "type": "uint256"
            }
          ],
          "internalType": "struct SubnetRegistry.MinerSubmission[]",
          "name": "",
          "type": "tuple[]"
        }
      ],
      "stateMutability": "view",
      "type": "function"
    },
    {
      "inputs": [
        {
          "internalType": "uint256",
          "name": "subnetId",
          "type": "uint256"
        }
      ],
      "name": "getSubnet",
      "outputs": [
        {
          "components": [
            {
              "internalType": "uint256",
              "name": "id",
              "type": "uint256"
            },
            {
              "internalType": "string",
              "name": "name",
              "type": "string"
            },
            {
              "internalType": "string",
              "name": "description",
              "type": "string"
            },
            {
              "internalType": "address",
              "name": "owner",
              "type": "address"
            },
            {
              "internalType": "uint256",
              "name": "feeRate",
              "type": "uint256"
            },
            {
              "internalType": "uint256",
              "name": "minTaskReward",
              "type": "uint256"
            },
            {
              "internalType": "uint256",
              "name": "totalVolume",
              "type": "uint256"
            },
            {
              "internalType": "uint256",
              "name": "totalTasks",
              "type": "uint256"
            },
            {
              "internalType": "uint256",
              "name": "activeMiners",
              "type": "uint256"
            },
            {
              "internalType": "enum SubnetRegistry.SubnetStatus",
              "name": "status",
              "type": "uint8"
            },
            {
              "internalType": "uint256",
              "name": "createdAt",
              "type": "uint256"
            }
          ],
          "internalType": "struct SubnetRegistry.Subnet",
          "name": "",
          "type": "tuple"
        }
      ],
      "stateMutability": "view",
      "type": "function"
    },
    {
      "inputs": [
        {
          "internalType": "uint256",
          "name": "taskId",
          "type": "uint256"
        }
      ],
      "name": "getTask",
      "outputs": [
        {
          "components": [
            {
              "internalType": "uint256",
              "name": "id",
              "type": "uint256"
            },
            {
              "internalType": "uint256",
              "name": "subnetId",
              "type": "uint256"
            },
            {
              "internalType": "address",
              "name": "requester",
              "type": "address"
            },
            {
              "internalType": "string",
              "name": "taskHash",
              "type": "string"
            },
            {
              "internalType": "uint256",
              "name": "rewardAmount",
              "type": "uint256"
            },
            {
              "internalType": "uint256",
              "name": "protocolFee",
              "type": "uint256"
            },
            {
              "internalType": "uint256",
              "name": "validatorReward",
              "type": "uint256"
            },
            {
              "internalType": "uint256",
              "name": "subnetFee",
              "type": "uint256"
            },
            {
              "internalType": "uint256",
              "name": "deadline",
              "type": "uint256"
            },
            {
              "internalType": "enum SubnetRegistry.TaskStatus",
              "name": "status",
              "type": "uint8"
            },
            {
              "internalType": "address",
              "name": "winningMiner",
              "type": "address"
            },
            {
              "internalType": "uint256",
              "name": "winningScore",
              "type": "uint256"
            },
            {
              "internalType": "uint256",
              "name": "createdAt",
              "type": "uint256"
            }
          ],
          "internalType": "struct SubnetRegistry.Task",
          "name": "",
          "type": "tuple"
        }
      ],
      "stateMutability": "view",
      "type": "function"
    },
    {
      "inputs": [
        {
          "internalType": "uint256",
          "name": "taskId",
          "type": "uint256"
        },
        {
          "internalType": "uint256",
          "name": "minerIndex",
          "type": "uint256"
        },
        {
          "internalType": "address",
          "name": "validator",
          "type": "address"
        }
      ],
      "name": "getValidatorScore",
      "outputs": [
        {
          "internalType": "uint256",
          "name": "score",
          "type": "uint256"
        },
        {
          "internalType": "bool",
          "name": "scored",
          "type": "bool"
        }
      ],
      "stateMutability": "view",
      "type": "function"
    },
    {
      "inputs": [
        {
          "internalType": "uint256",
          "name": "",
          "type": "uint256"
        },
        {
          "internalType": "address",
          "name": "",
          "type": "address"
        }
      ],
      "name": "hasMinerSubmitted",
      "outputs": [
        {
          "internalType": "bool",
          "name": "",
          "type": "bool"
        }
      ],
      "stateMutability": "view",
      "type": "function"
    },
    {
      "inputs": [
        {
          "internalType": "uint256",
          "name": "",
          "type": "uint256"
        },
        {
          "internalType": "uint256",
          "name": "",
          "type": "uint256"
        },
        {
          "internalType": "address",
          "name": "",
          "type": "address"
        }
      ],
      "name": "hasValidatorScored",
      "outputs": [
        {
          "internalType": "bool",
          "name": "",
          "type": "bool"
        }
      ],
      "stateMutability": "view",
      "type": "function"
    },
    {
      "inputs": [
        {
          "internalType": "uint256",
          "name": "subnetId",
          "type": "uint256"
        },
        {
          "internalType": "address",
          "name": "miner",
          "type": "address"
        }
      ],
      "name": "isMiner",
      "outputs": [
        {
          "internalType": "bool",
          "name": "",
          "type": "bool"
        }
      ],
      "stateMutability": "view",
      "type": "function"
    },
    {
      "inputs": [
        {
          "internalType": "uint256",
          "name": "subnetId",
          "type": "uint256"
        },
        {
          "internalType": "address",
          "name": "validator",
          "type": "address"
        }
      ],
      "name": "isValidator",
      "outputs": [
        {
          "internalType": "bool",
          "name": "",
          "type": "bool"
        }
      ],
      "stateMutability": "view",
      "type": "function"
    },
    {
      "inputs": [
        {
          "internalType": "address",
          "name": "",
          "type": "address"
        }
      ],
      "name": "lastPortedAt",
      "outputs": [
        {
          "internalType": "uint256",
          "name": "",
          "type": "uint256"
        }
      ],
      "stateMutability": "view",
      "type": "function"
    },
    {
      "inputs": [],
      "name": "maxSubmissionsPerTask",
      "outputs": [
        {
          "internalType": "uint256",
          "name": "",
          "type": "uint256"
        }
      ],
      "stateMutability": "view",
      "type": "function"
    },
    {
      "inputs": [],
      "name": "mdtToken",
      "outputs": [
        {
          "internalType": "contract IERC20",
          "name": "",
          "type": "address"
        }
      ],
      "stateMutability": "view",
      "type": "function"
    },
    {
      "inputs": [
        {
          "internalType": "address",
          "name": "",
          "type": "address"
        }
      ],
      "name": "minerEarnings",
      "outputs": [
        {
          "internalType": "uint256",
          "name": "",
          "type": "uint256"
        }
      ],
      "stateMutability": "view",
      "type": "function"
    },
    {
      "inputs": [],
      "name": "owner",
      "outputs": [
        {
          "internalType": "address",
          "name": "",
          "type": "address"
        }
      ],
      "stateMutability": "view",
      "type": "function"
    },
    {
      "inputs": [],
      "name": "paused",
      "outputs": [
        {
          "internalType": "bool",
          "name": "",
          "type": "bool"
        }
      ],
      "stateMutability": "view",
      "type": "function"
    },
    {
      "inputs": [
        {
          "internalType": "address",
          "name": "",
          "type": "address"
        }
      ],
      "name": "pendingWithdrawals",
      "outputs": [
        {
          "internalType": "uint256",
          "name": "",
          "type": "uint256"
        }
      ],
      "stateMutability": "view",
      "type": "function"
    },
    {
      "inputs": [
        {
          "internalType": "uint256",
          "name": "fromSubnetId",
          "type": "uint256"
        },
        {
          "internalType": "uint256",
          "name": "toSubnetId",
          "type": "uint256"
        }
      ],
      "name": "portReputation",
      "outputs": [],
      "stateMutability": "nonpayable",
      "type": "function"
    },
    {
      "inputs": [
        {
          "internalType": "address",
          "name": "",
          "type": "address"
        },
        {
          "internalType": "uint256",
          "name": "",
          "type": "uint256"
        }
      ],
      "name": "portedReputationBoost",
      "outputs": [
        {
          "internalType": "uint256",
          "name": "",
          "type": "uint256"
        }
      ],
      "stateMutability": "view",
      "type": "function"
    },
    {
      "inputs": [],
      "name": "protocolTreasury",
      "outputs": [
        {
          "internalType": "address",
          "name": "",
          "type": "address"
        }
      ],
      "stateMutability": "view",
      "type": "function"
    },
    {
      "inputs": [
        {
          "internalType": "uint256",
          "name": "subnetId",
          "type": "uint256"
        }
      ],
      "name": "registerMiner",
      "outputs": [],
      "stateMutability": "nonpayable",
      "type": "function"
    },
    {
      "inputs": [
        {
          "internalType": "string",
          "name": "name",
          "type": "string"
        },
        {
          "internalType": "string",
          "name": "description",
          "type": "string"
        },
        {
          "internalType": "uint256",
          "name": "feeRate",
          "type": "uint256"
        }
      ],
      "name": "registerSubnet",
      "outputs": [
        {
          "internalType": "uint256",
          "name": "subnetId",
          "type": "uint256"
        }
      ],
      "stateMutability": "nonpayable",
      "type": "function"
    },
    {
      "inputs": [
        {
          "internalType": "uint256",
          "name": "subnetId",
          "type": "uint256"
        },
        {
          "internalType": "address",
          "name": "validator",
          "type": "address"
        }
      ],
      "name": "removeValidator",
      "outputs": [],
      "stateMutability": "nonpayable",
      "type": "function"
    },
    {
      "inputs": [],
      "name": "renounceOwnership",
      "outputs": [],
      "stateMutability": "nonpayable",
      "type": "function"
    },
    {
      "inputs": [
        {
          "internalType": "uint256",
          "name": "",
          "type": "uint256"
        },
        {
          "internalType": "uint256",
          "name": "",
          "type": "uint256"
        }
      ],
      "name": "revealCount",
      "outputs": [
        {
          "internalType": "uint256",
          "name": "",
          "type": "uint256"
        }
      ],
      "stateMutability": "view",
      "type": "function"
    },
    {
      "inputs": [],
      "name": "revealPhaseDuration",
      "outputs": [
        {
          "internalType": "uint256",
          "name": "",
          "type": "uint256"
        }
      ],
      "stateMutability": "view",
      "type": "function"
    },
    {
      "inputs": [
        {
          "internalType": "uint256",
          "name": "taskId",
          "type": "uint256"
        },
        {
          "internalType": "uint256",
          "name": "minerIndex",
          "type": "uint256"
        },
        {
          "internalType": "uint256",
          "name": "score",
          "type": "uint256"
        },
        {
          "internalType": "bytes32",
          "name": "salt",
          "type": "bytes32"
        }
      ],
      "name": "revealScore",
      "outputs": [],
      "stateMutability": "nonpayable",
      "type": "function"
    },
    {
      "inputs": [
        {
          "internalType": "uint256",
          "name": "_commitDuration",
          "type": "uint256"
        },
        {
          "internalType": "uint256",
          "name": "_revealDuration",
          "type": "uint256"
        }
      ],
      "name": "setCommitRevealConfig",
      "outputs": [],
      "stateMutability": "nonpayable",
      "type": "function"
    },
    {
      "inputs": [
        {
          "internalType": "uint256",
          "name": "subnetId",
          "type": "uint256"
        },
        {
          "internalType": "uint256",
          "name": "newMin",
          "type": "uint256"
        }
      ],
      "name": "setMinValidations",
      "outputs": [],
      "stateMutability": "nonpayable",
      "type": "function"
    },
    {
      "inputs": [
        {
          "internalType": "address",
          "name": "newTreasury",
          "type": "address"
        }
      ],
      "name": "setProtocolTreasury",
      "outputs": [],
      "stateMutability": "nonpayable",
      "type": "function"
    },
    {
      "inputs": [
        {
          "internalType": "uint256",
          "name": "taskId",
          "type": "uint256"
        },
        {
          "internalType": "string",
          "name": "resultHash",
          "type": "string"
        }
      ],
      "name": "submitResult",
      "outputs": [],
      "stateMutability": "nonpayable",
      "type": "function"
    },
    {
      "inputs": [],
      "name": "subnetCount",
      "outputs": [
        {
          "internalType": "uint256",
          "name": "",
          "type": "uint256"
        }
      ],
      "stateMutability": "view",
      "type": "function"
    },
    {
      "inputs": [
        {
          "internalType": "uint256",
          "name": "",
          "type": "uint256"
        }
      ],
      "name": "subnetMinValidations",
      "outputs": [
        {
          "internalType": "uint256",
          "name": "",
          "type": "uint256"
        }
      ],
      "stateMutability": "view",
      "type": "function"
    },
    {
      "inputs": [
        {
          "internalType": "uint256",
          "name": "",
          "type": "uint256"
        }
      ],
      "name": "subnetMinerCount",
      "outputs": [
        {
          "internalType": "uint256",
          "name": "",
          "type": "uint256"
        }
      ],
      "stateMutability": "view",
      "type": "function"
    },
    {
      "inputs": [
        {
          "internalType": "uint256",
          "name": "",
          "type": "uint256"
        },
        {
          "internalType": "address",
          "name": "",
          "type": "address"
        }
      ],
      "name": "subnetMiners",
      "outputs": [
        {
          "internalType": "bool",
          "name": "",
          "type": "bool"
        }
      ],
      "stateMutability": "view",
      "type": "function"
    },
    {
      "inputs": [
        {
          "internalType": "uint256",
          "name": "",
          "type": "uint256"
        }
      ],
      "name": "subnetValidatorCount",
      "outputs": [
        {
          "internalType": "uint256",
          "name": "",
          "type": "uint256"
        }
      ],
      "stateMutability": "view",
      "type": "function"
    },
    {
      "inputs": [
        {
          "internalType": "uint256",
          "name": "",
          "type": "uint256"
        },
        {
          "internalType": "address",
          "name": "",
          "type": "address"
        }
      ],
      "name": "subnetValidators",
      "outputs": [
        {
          "internalType": "bool",
          "name": "",
          "type": "bool"
        }
      ],
      "stateMutability": "view",
      "type": "function"
    },
    {
      "inputs": [
        {
          "internalType": "uint256",
          "name": "",
          "type": "uint256"
        }
      ],
      "name": "subnets",
      "outputs": [
        {
          "internalType": "uint256",
          "name": "id",
          "type": "uint256"
        },
        {
          "internalType": "string",
          "name": "name",
          "type": "string"
        },
        {
          "internalType": "string",
          "name": "description",
          "type": "string"
        },
        {
          "internalType": "address",
          "name": "owner",
          "type": "address"
        },
        {
          "internalType": "uint256",
          "name": "feeRate",
          "type": "uint256"
        },
        {
          "internalType": "uint256",
          "name": "minTaskReward",
          "type": "uint256"
        },
        {
          "internalType": "uint256",
          "name": "totalVolume",
          "type": "uint256"
        },
        {
          "internalType": "uint256",
          "name": "totalTasks",
          "type": "uint256"
        },
        {
          "internalType": "uint256",
          "name": "activeMiners",
          "type": "uint256"
        },
        {
          "internalType": "enum SubnetRegistry.SubnetStatus",
          "name": "status",
          "type": "uint8"
        },
        {
          "internalType": "uint256",
          "name": "createdAt",
          "type": "uint256"
        }
      ],
      "stateMutability": "view",
      "type": "function"
    },
    {
      "inputs": [
        {
          "internalType": "uint256",
          "name": "",
          "type": "uint256"
        },
        {
          "internalType": "uint256",
          "name": "",
          "type": "uint256"
        }
      ],
      "name": "taskSubmissions",
      "outputs": [
        {
          "internalType": "address",
          "name": "miner",
          "type": "address"
        },
        {
          "internalType": "string",
          "name": "resultHash",
          "type": "string"
        },
        {
          "internalType": "uint256",
          "name": "score",
          "type": "uint256"
        },
        {
          "internalType": "bool",
          "name": "validated",
          "type": "bool"
        },
        {
          "internalType": "uint256",
          "name": "submittedAt",
          "type": "uint256"
        },
        {
          "internalType": "uint256",
          "name": "validationCount",
          "type": "uint256"
        }
      ],
      "stateMutability": "view",
      "type": "function"
    },
    {
      "inputs": [
        {
          "internalType": "uint256",
          "name": "",
          "type": "uint256"
        }
      ],
      "name": "tasks",
      "outputs": [
        {
          "internalType": "uint256",
          "name": "id",
          "type": "uint256"
        },
        {
          "internalType": "uint256",
          "name": "subnetId",
          "type": "uint256"
        },
        {
          "internalType": "address",
          "name": "requester",
          "type": "address"
        },
        {
          "internalType": "string",
          "name": "taskHash",
          "type": "string"
        },
        {
          "internalType": "uint256",
          "name": "rewardAmount",
          "type": "uint256"
        },
        {
          "internalType": "uint256",
          "name": "protocolFee",
          "type": "uint256"
        },
        {
          "internalType": "uint256",
          "name": "validatorReward",
          "type": "uint256"
        },
        {
          "internalType": "uint256",
          "name": "subnetFee",
          "type": "uint256"
        },
        {
          "internalType": "uint256",
          "name": "deadline",
          "type": "uint256"
        },
        {
          "internalType": "enum SubnetRegistry.TaskStatus",
          "name": "status",
          "type": "uint8"
        },
        {
          "internalType": "address",
          "name": "winningMiner",
          "type": "address"
        },
        {
          "internalType": "uint256",
          "name": "winningScore",
          "type": "uint256"
        },
        {
          "internalType": "uint256",
          "name": "createdAt",
          "type": "uint256"
        }
      ],
      "stateMutability": "view",
      "type": "function"
    },
    {
      "inputs": [],
      "name": "totalProtocolFees",
      "outputs": [
        {
          "internalType": "uint256",
          "name": "",
          "type": "uint256"
        }
      ],
      "stateMutability": "view",
      "type": "function"
    },
    {
      "inputs": [
        {
          "internalType": "address",
          "name": "newOwner",
          "type": "address"
        }
      ],
      "name": "transferOwnership",
      "outputs": [],
      "stateMutability": "nonpayable",
      "type": "function"
    },
    {
      "inputs": [
        {
          "internalType": "uint256",
          "name": "subnetId",
          "type": "uint256"
        }
      ],
      "name": "unregisterSubnet",
      "outputs": [],
      "stateMutability": "nonpayable",
      "type": "function"
    },
    {
      "inputs": [
        {
          "internalType": "uint256",
          "name": "subnetId",
          "type": "uint256"
        },
        {
          "internalType": "uint256",
          "name": "newFeeRate",
          "type": "uint256"
        },
        {
          "internalType": "enum SubnetRegistry.SubnetStatus",
          "name": "newStatus",
          "type": "uint8"
        }
      ],
      "name": "updateSubnet",
      "outputs": [],
      "stateMutability": "nonpayable",
      "type": "function"
    },
    {
      "inputs": [
        {
          "internalType": "uint256",
          "name": "taskId",
          "type": "uint256"
        },
        {
          "internalType": "uint256",
          "name": "submissionIndex",
          "type": "uint256"
        },
        {
          "internalType": "uint256",
          "name": "score",
          "type": "uint256"
        }
      ],
      "name": "validateSubmission",
      "outputs": [],
      "stateMutability": "nonpayable",
      "type": "function"
    },
    {
      "inputs": [
        {
          "internalType": "uint256",
          "name": "",
          "type": "uint256"
        },
        {
          "internalType": "uint256",
          "name": "",
          "type": "uint256"
        },
        {
          "internalType": "address",
          "name": "",
          "type": "address"
        }
      ],
      "name": "validationCommits",
      "outputs": [
        {
          "internalType": "bytes32",
          "name": "commitHash",
          "type": "bytes32"
        },
        {
          "internalType": "uint256",
          "name": "committedAt",
          "type": "uint256"
        },
        {
          "internalType": "bool",
          "name": "revealed",
          "type": "bool"
        },
        {
          "internalType": "uint256",
          "name": "revealedScore",
          "type": "uint256"
        }
      ],
      "stateMutability": "view",
      "type": "function"
    },
    {
      "inputs": [
        {
          "internalType": "address",
          "name": "",
          "type": "address"
        }
      ],
      "name": "validatorEarnings",
      "outputs": [
        {
          "internalType": "uint256",
          "name": "",
          "type": "uint256"
        }
      ],
      "stateMutability": "view",
      "type": "function"
    },
    {
      "inputs": [
        {
          "internalType": "address",
          "name": "",
          "type": "address"
        }
      ],
      "name": "validatorReputation",
      "outputs": [
        {
          "internalType": "uint256",
          "name": "totalValidations",
          "type": "uint256"
        },
        {
          "internalType": "uint256",
          "name": "accurateValidations",
          "type": "uint256"
        },
        {
          "internalType": "uint256",
          "name": "reputationScore",
          "type": "uint256"
        },
        {
          "internalType": "uint256",
          "name": "lastActiveAt",
          "type": "uint256"
        }
      ],
      "stateMutability": "view",
      "type": "function"
    },
    {
      "inputs": [
        {
          "internalType": "uint256",
          "name": "",
          "type": "uint256"
        },
        {
          "internalType": "uint256",
          "name": "",
          "type": "uint256"
        },
        {
          "internalType": "address",
          "name": "",
          "type": "address"
        }
      ],
      "name": "validatorScores",
      "outputs": [
        {
          "internalType": "uint256",
          "name": "",
          "type": "uint256"
        }
      ],
      "stateMutability": "view",
      "type": "function"
    },
    {
      "inputs": [],
      "name": "withdrawEarnings",
      "outputs": [],
      "stateMutability": "nonpayable",
      "type": "function"
    },
    {
      "inputs": [],
      "name": "withdrawProtocolFees",
      "outputs": [],
      "stateMutability": "nonpayable",
      "type": "function"
    }
  ],
  "bytecode": "0x6080346200069657601f6200540838819003918201601f19168301916001600160401b038311848410176200051a57808492604094855283398101031262000696576200005a60206200005283620006bb565b9201620006bb565b600160005560015491604051923360018060a01b0382167f8be0079c531659141344cd1fd0a4f28419497f9722a3daafe3b4186f6b6457e0600080a36001600160a81b0319163360ff60a01b191617600155600a600555610e10601c55610708601d556001600160a01b03169182156200066457506001600160a01b03169081156200062c5760018060a01b0319600254161760025560018060a01b031960065416176006556200010a6200069b565b601481527f47656e6572616c20496e74656c6c6967656e636500000000000000000000000060208201526200013e6200069b565b602081527f546578742c20436f64652c20616e642047656e6572616c204149205461736b736020820152600354906000198214620006165760018201600355604051906001600160401b036101608301908111908311176200051a57610160820160405282825283602083015260408201523360608201526101f460808201526305f5e10060a0820152600060c0820152600060e0820152600061010082015260006101208201524261014082015281600052600960205260406000209080518255602081015180519060018060401b0382116200051a57600184015490600182811c921680156200060b575b6020831014620004f95781601f849311620005b3575b50602090601f83116001146200053c5760009262000530575b50508160011b916000199060031b1c19161760018301555b60408101518051906001600160401b0382116200051a57600284015490600182811c921680156200050f575b6020831014620004f95781601f849311620004a1575b50602090601f83116001146200042a576000926200041e575b50508160011b916000199060031b1c19161760028301555b6060810151600383810180546001600160a01b0319166001600160a01b0393909316929092179091556080820151600484015560a0820151600584015560c0820151600684015560e082015160078401556101008201516008840155610120820151600984019290918210156200040857600a926101409260ff80198354169116179055015191015580600052600860205260026040600020556040516040815282519283604083015260005b848110620003f15750508060006060857f8e46dcab88334408205dfdff058de646a02ab7fddb35b9923e924e49ce505c30940101526101f460208201526060813395601f80199101168101030190a3604051614d379081620006d18239f35b806020809284010151606082860101520162000392565b634e487b7160e01b600052602160045260246000fd5b015190503880620002cd565b9250600285016000526020600020906000935b601f198416851062000485576001945083601f198116106200046b575b505050811b016002830155620002e5565b015160001960f88460031b161c191690553880806200045a565b818101518355602094850194600190930192909101906200043d565b909150600285016000526020600020601f840160051c810160208510620004f1575b90849392915b601f830160051c82018110620004e1575050620002b4565b60008155859450600101620004c9565b5080620004c3565b634e487b7160e01b600052602260045260246000fd5b91607f16916200029e565b634e487b7160e01b600052604160045260246000fd5b0151905038806200025a565b9250600185016000526020600020906000935b601f198416851062000597576001945083601f198116106200057d575b505050811b01600183015562000272565b015160001960f88460031b161c191690553880806200056c565b818101518355602094850194600190930192909101906200054f565b909150600185016000526020600020601f840160051c81016020851062000603575b90849392915b601f830160051c82018110620005f357505062000241565b60008155859450600101620005db565b5080620005d5565b91607f16916200022b565b634e487b7160e01b600052601160045260246000fd5b60405162461bcd60e51b815260206004820152601060248201526f496e76616c696420747265617375727960801b6044820152606490fd5b62461bcd60e51b815260206004820152600d60248201526c24b73b30b634b2103a37b5b2b760991b6044820152606490fd5b600080fd5b60408051919082016001600160401b038111838210176200051a57604052565b51906001600160a01b0382168203620006965756fe6080604052600436101561001257600080fd5b60003560e01c8063072f4fc014613be75780630c5a61f814613b9a5780630ebac45a14613b675780630f0da71914613b2d5780630fb6d80514613ae657806310c6bd2514613aba57806310f0dde414613a9d57806316c53ced146139355780631d65e77e146137425780631dc375b9146136975780631dd73e0d1461334a57806323f2a73f14610ef057806324c3fd2f146133295780632fa70f48146132fd5780633370f06e146132e057806339388006146132a657806339b1185d146132885780633c9a6bf31461321a5780633f422ef31461313e578063475726f714613065578063483b4039146130475780634af939881461302a5780634b56175314612e8b57806351b15b8a14612e5f57806353eea87514612dc657806358ca750414612c0c5780635c975abb14612be65780635cc9bca91461278257806362ecc47a146125f157806365617a35146125ec57806368a7f826146121915780636a0cd1f5146120b35780636f5474bf14611f9c578063715018a614611f3f57806377ad68da14611f0c5780637b61748214611e6b5780637be24cb814611e3f5780637ca0ad2d14611df35780637d7fcda014611dd5578063803db96d14611dac5780638795cccb14611d0f57806388488c3314611b235780638c0a4a05146114c35780638c0dd79a1461161e5780638d977672146115395780638da5cb5b146115105780638ee9f6dc146114c3578063916a5c5b146114a5578063927229c614610fd357806393af007614610fb657806396511dcd14610f7c5780639d7eea9f14610f3d578063a3be1eab14610ef0578063ac64c82214610ea3578063b46e742414610e70578063b73c6ce914610db4578063b7ee5eda146109eb578063be12332314610726578063c6a1a01a146106bc578063ca7b64bb1461069c578063d127048514610640578063d1faf40614610533578063d53580de146104eb578063d65314b31461047b578063dfc753721461045d578063f2fde38b14610399578063f3f437031461035f578063f526e39a146103415763f70b5c061461031357600080fd5b3461033c57600036600319011261033c576002546040516001600160a01b039091168152602090f35b600080fd5b3461033c57600036600319011261033c576020600754604051908152f35b3461033c57602036600319011261033c576001600160a01b03610380613c07565b1660005260166020526020604060002054604051908152f35b3461033c57602036600319011261033c576103b2613c07565b6103ba6142df565b6001600160a01b0390811690811561040957600154826001600160601b0360a01b821617600155167f8be0079c531659141344cd1fd0a4f28419497f9722a3daafe3b4186f6b6457e0600080a3005b60405162461bcd60e51b815260206004820152602660248201527f4f776e61626c653a206e6577206f776e657220697320746865207a65726f206160448201526564647265737360d01b6064820152608490fd5b3461033c57600036600319011261033c576020601d54604051908152f35b3461033c57604061048b36613c49565b826000526020916012835284600020816000528352846000209160018060a01b03169182600052835260ff856000205416936000526011835284600020906000528252836000209060005281528260002054918351928352151590820152f35b3461033c57604036600319011261033c576001600160a01b0361050c613c07565b16600052601e60205260406000206024356000526020526020604060002054604051908152f35b3461033c57602036600319011261033c5761054c614337565b60043560005260096020526040600020600960018060a01b039161057783600383015416331461424d565b019081549160ff8316600381101561062a57801590811561061f575b50156105e55760026105de9360ff1916179055600254166040519063a9059cbb60e01b602083015233602483015264e8d4a510006044830152604482526105d982613d31565b614a55565b6001600055005b60405162461bcd60e51b8152602060048201526012602482015271105b1c9958591e4819195c1c9958d85d195960721b6044820152606490fd5b600191501484610593565b634e487b7160e01b600052602160045260246000fd5b3461033c57602036600319011261033c576001600160a01b03610661613c07565b166000526017602052608060406000208054906001810154906003600282015491015491604051938452602084015260408301526060820152f35b3461033c57600036600319011261033c57602060405164174876e8008152f35b3461033c57600036600319011261033c5760038054600090815b8181106106e857602083604051908152f35b8060005260ff60098060205260406000200154168481101561062a5715610712575b6001016106d6565b9161071e60019161406e565b92905061070a565b3461033c5761073436613c33565b9080600052602091600c8352604060002033600052835260ff60406000205416156109a65780600052600c8352604060002033600052835260ff60406000205416156109615780821461092e5733600052601f835260406000205462015180810180911161089f5742106108f257336000526017835260406000208054156108b5576002015490611388918281029080820484149015171561089f57612710900491821061084e57601f7f28712f42bb62447cac6809da4bee68e8b6d1786eff0b73558cac4884c0fb64b6939433600052601e81526040600020836000528152836040600020553360005252426040600020556108496040519283923396846040919493926060820195825260208201520152565b0390a2005b60405162461bcd60e51b8152600481018590526024808201527f506f727465642073636f7265206e6f7420626574746572207468616e20646566604482015263185d5b1d60e21b6064820152608490fd5b634e487b7160e01b600052601160045260246000fd5b60405162461bcd60e51b8152600481018590526015602482015274139bc81c995c1d5d185d1a5bdb881d1bc81c1bdc9d605a1b6044820152606490fd5b60405162461bcd60e51b8152600481018490526014602482015273506f727420636f6f6c646f776e2061637469766560601b6044820152606490fd5b60405162461bcd60e51b815260048101849052600b60248201526a14d85b59481cdd589b995d60aa1b6044820152606490fd5b60405162461bcd60e51b815260048101849052601e60248201527f4e6f742076616c696461746f7220696e20746172676574207375626e657400006044820152606490fd5b60405162461bcd60e51b815260048101849052601e60248201527f4e6f742076616c696461746f7220696e20736f75726365207375626e657400006044820152606490fd5b3461033c57606036600319011261033c57600435604435602435610a0d614337565b610a1561438d565b82600052602090600a8252604060002092600984019260ff845416600681101561062a57806002610a4f9214908115610da9575b50613f62565b60018501938454600052600c82526040600020336000528252610a7960ff60406000205416613fa3565b86600052600b8252610a916040600020548510613fe1565b610a9f6127108411156141b1565b86600052601282526040600020846000528252604060002033600052825260ff60406000205416610d535786600052600b8252610ae0846040600020613e71565b5090600382019360ff855416610d105788600052601b84526040600020866000528452604060002054610cb1578860005260118452604060002086600052845260406000203360005284528060406000205588600052601284526040600020866000528452604060002033600052845260406000209660ff199760018982541617905589600052601385526040600020876000528552610b84336040600020614205565b60086005850195610b95875461406e565b9283885560018060a01b03948d7f424e5ad88b2accc1579e610100b12e0f295d8c9e0b02abb61ad1e413e3d63d026040888b54169381519081523387820152a354600052526040600020548015610ca9575b811015610bf5576001600055005b7fff2fc693bb2d4a09f21f0c403fce5ecb4b5b0b57e81c7253deb5386bb8a8ae7798610c66966001610c2a600a948b8f614453565b9a8b600289015582541617905501928784548111610c78575b505050505054604051938493846040919493926060820195825260208201520152565b0390a2808080808080808080806105de565b90935591548154610100600160a81b031916921660081b610100600160a81b03169190911790558680808087610c43565b506002610be7565b60405162461bcd60e51b815260048101859052603160248201527f436f6d6d69742d72657665616c206163746976653a2075736520636f6d6d697460448201527053636f72652f72657665616c53636f726560781b6064820152608490fd5b6064846040519062461bcd60e51b825280600483015260248201527f5375626d697373696f6e20616c72656164792068617320636f6e73656e7375736044820152fd5b60405162461bcd60e51b815260048101839052602860248201527f56616c696461746f7220616c72656164792073636f72656420746869732073756044820152673136b4b9b9b4b7b760c11b6064820152608490fd5b600191501488610a49565b3461033c57600036600319011261033c57610dcd614337565b3360005260166020526040600020548015610e35576105de90336000526016602052600060408120556040518181527f48dc35af7b45e2a81fffad55f6e2fafacdb1d3d0d50d24ebdc16324f5ba757f160203392a260025433906001600160a01b03166143d4565b60405162461bcd60e51b81526020600482015260136024820152724e6f2070656e64696e67206561726e696e677360681b6044820152606490fd5b3461033c57610e7e36613c33565b90600052601a6020526040600020906000526020526020604060002054604051908152f35b3461033c57604036600319011261033c57610ebc613c1d565b600435600052601060205260406000209060018060a01b0316600052602052602060ff604060002054166040519015158152f35b3461033c57604036600319011261033c57610f09613c1d565b600435600052600c60205260406000209060018060a01b0316600052602052602060ff604060002054166040519015158152f35b3461033c57604036600319011261033c576020604051818101906004358252602435604082015260408152610f7181613d83565b519020604051908152f35b3461033c57602036600319011261033c576001600160a01b03610f9d613c07565b16600052601f6020526020604060002054604051908152f35b3461033c57600036600319011261033c5760206040516105dc8152f35b3461033c57606036600319011261033c576004356001600160401b03811161033c57611003903690600401613ea3565b906024356001600160401b03811161033c57611023903690600401613ea3565b9261102c614337565b61103461438d565b8015611473576110a79261109f916110526107d0604435111561428c565b6002546040516323b872dd60e01b602082015233602482015230604482015264e8d4a510006064808301919091528152611098916001600160a01b03166105d982613d68565b369161417a565b92369161417a565b90600354906110b58261406e565b600355604051926110c584613d4c565b828452816020850152604084015233606084015260443560808401526305f5e10060a0840152600060c0840152600060e0840152600061010084015260006101208401524261014084015281600052600960205260406000208351815560208401518051906001600160401b03821161138d5781906111476001850154613cc0565b601f8111611420575b50602090601f83116001146113ae576000926113a3575b50508160011b916000199060031b1c19161760018201555b60408401518051906001600160401b03821161138d5781906111a46002850154613cc0565b601f811161133a575b50602090601f83116001146112c8576000926112bd575b50508160011b916000199060031b1c19161760028201555b6003810160018060a01b036060860151166001600160601b0360a01b8254161790556080840151600482015560a0840151600582015560c0840151600682015560e08401516007820155610100840151600882015561012084015193600385101561062a57610140600a91611256602097600986016142c7565b015191015581600052600883526002604060002055817f8e46dcab88334408205dfdff058de646a02ab7fddb35b9923e924e49ce505c306112a260405193604085526040850190613c73565b92604435868201528033940390a36001600055604051908152f35b0151905086806111c4565b9250600284016000526020600020906000935b601f198416851061131f576001945083601f19811610611306575b505050811b0160028201556111dc565b015160001960f88460031b161c191690558680806112f6565b818101518355602094850194600190930192909101906112db565b909150600284016000526020600020601f840160051c810160208510611386575b90849392915b601f830160051c820181106113775750506111ad565b60008155859450600101611361565b508061135b565b634e487b7160e01b600052604160045260246000fd5b015190508680611167565b9250600184016000526020600020906000935b601f1984168510611405576001945083601f198116106113ec575b505050811b01600182015561117f565b015160001960f88460031b161c191690558680806113dc565b818101518355602094850194600190930192909101906113c1565b909150600184016000526020600020601f840160051c81016020851061146c575b90849392915b601f830160051c8201811061145d575050611150565b60008155859450600101611447565b5080611441565b60405162461bcd60e51b815260206004820152600a602482015269456d707479206e616d6560b01b6044820152606490fd5b3461033c57600036600319011261033c576020600354604051908152f35b3461033c57604036600319011261033c576114dc613c1d565b600435600052600e60205260406000209060018060a01b0316600052602052602060ff604060002054166040519015158152f35b3461033c57600036600319011261033c576001546040516001600160a01b039091168152602090f35b3461033c57602036600319011261033c576004356000908152600a602052604090208054600182015460028301546060936001600160a01b03918216939161158360038301613dbf565b93600483015494600584015460068501546007860154916115d8600888015494600989015496600b600a8b01549a01549a6040519e8f9e8f906101a094859483526020830152604082015201528c0190613c73565b9860808b015260a08a015260c089015260e0880152610100870152611604610120870160ff8316613cb3565b60081c166101408501526101608401526101808301520390f35b3461033c57604036600319011261033c576024356001600160401b03811161033c5761164e903690600401613ea3565b611656614337565b600435600052600a602052604060002060ff6009820154166006811015908161062a578015918215611b15575b8215611b04575b505015611acf576008810154421015611a9b576001810154600052600e60205260406000203360005260205260ff6040600020541615611a5657600435600052601060205260406000203360005260205260ff60406000205416611a1157600435600052600b60205260406000205460055411156119cc5760043560005260106020526040600020336000526020526040600020600160ff19825416179055600435600052600b60205260406000206040519061174682613cfa565b33825261175436858761417a565b60208301526000604083015260006060830152426080830152600060a08301528054600160401b81101561138d5761179191600182018155613e71565b9190916119b657805182546001600160a01b0319166001600160a01b039190911617825560208101518051906001600160401b03821161138d576117d86001850154613cc0565b601f811161196f575b50602090601f83116001146118fa5791806005949260a0946000926118ef575b50508160011b916000199060031b1c19161760018501555b6040810151600285015561184260608201511515600386019060ff801983541691151516179055565b608081015160048501550151910155600981015460ff8116600681101561062a5780159081156118e4575b506118d0575b505080604051926020845281602085015260408401376000604082840101527fa3dcf7cebcc4cf0937f4f95d95392671977ba143b4ff236240650322a106e8dc339260408160043594601f80199101168101030190a36001600055005b600260099160ff1916179101558280611873565b60019150148561186d565b015190508980611801565b906001850160005260206000209160005b601f19851681106119575750926005949260019260a09583601f1981161061193e575b505050811b016001850155611819565b015160001960f88460031b161c1916905589808061192e565b9192602060018192868501518155019401920161190b565b600185016000526020600020601f840160051c8101602085106119af575b601f830160051c820181106119a35750506117e1565b6000815560010161198d565b508061198d565b634e487b7160e01b600052600060045260246000fd5b60405162461bcd60e51b815260206004820152601760248201527f4d6178207375626d697373696f6e7320726561636865640000000000000000006044820152606490fd5b60405162461bcd60e51b815260206004820152601760248201527f4d696e657220616c7265616479207375626d69747465640000000000000000006044820152606490fd5b60405162461bcd60e51b815260206004820152601860248201527f4e6f74207265676973746572656420696e207375626e657400000000000000006044820152606490fd5b60405162461bcd60e51b815260206004820152600c60248201526b15185cdac8195e1c1a5c995960a21b6044820152606490fd5b60405162461bcd60e51b815260206004820152600d60248201526c10d85b9b9bdd081cdd589b5a5d609a1b6044820152606490fd5b90915061062a57600214848061168a565b506001811491506000611683565b3461033c5760208060031936011261033c5760043590611b41614337565b81600052600a8152604060002090600982019081549160ff8316600681101561062a57600203611cde576001600160a01b03600884901c811693908415611cad578692611c687fae64f0a069112683796fc01e7d04ea7e255a3cd070a7dce992fdcdecbc1e6d5293889360018501549760048601549460036007600660058a01549901549d01549460ff1916179055886000526009815260406000209160068301611bed878254614061565b905560078301611bfd815461406e565b9055611c0b87600754614061565b6007558a600052601582526040600020611c26878254614061565b90558a600052601682526040600020611c40878254614061565b905583611c87575b505050604051938493846040919493926060820195825260208201520152565b0390a480611c77576001600055005b611c80916145f7565b80806105de565b6003601693015416600052526040600020611ca3828254614061565b90558a8080611c48565b60405162461bcd60e51b81526004810185905260096024820152682737903bb4b73732b960b91b6044820152606490fd5b60405162461bcd60e51b81526004810183905260096024820152684e6f7420726561647960b81b6044820152606490fd5b3461033c57600036600319011261033c57611d286142df565b6007548015611d7d57611d7b90600060075560018060a01b03806006541690817fa087657e3d85162090ffd700fbfdf5070d816f63aa5da00063f6ffd369c8a6db6020604051868152a2600254166143d4565b005b60405162461bcd60e51b81526020600482015260076024820152664e6f206665657360c81b6044820152606490fd5b3461033c57600036600319011261033c576006546040516001600160a01b039091168152602090f35b3461033c57600036600319011261033c576020604051620151808152f35b3461033c57611e0136613c49565b91600052601260205260406000209060005260205260406000209060018060a01b0316600052602052602060ff604060002054166040519015158152f35b3461033c57602036600319011261033c57600435600052600b6020526020604060002054604051908152f35b3461033c57606036600319011261033c57600435602435604435600381101561033c577fa2191efe487e08892e9d1920150485aaf7591f089bdde895929d692ea8c4e08a91611f09604092856000526009602052611efa81600986600020611ee060018060a01b03600383015416331461424d565b611eee6107d088111561428c565b866004820155016142c7565b83519283526020830190613e64565ba2005b3461033c57611f1a36613c33565b90600052601b6020526040600020906000526020526020604060002054604051908152f35b3461033c57600036600319011261033c57611f586142df565b600180546001600160a01b031981169091556000906001600160a01b03167f8be0079c531659141344cd1fd0a4f28419497f9722a3daafe3b4186f6b6457e08280a3005b3461033c5760208060031936011261033c5760043590816000526009815260ff60096040600020015416600381101561062a57611fd990156140ec565b81600052600e8152604060002033600052815260ff6040600020541661207a5760099082600052600e815260406000203360005281526040600020600160ff1982541617905582600052600f81526040600020612036815461406e565b90558260005252600860406000200161204f815461406e565b905533907fbaae7a2be0ecfa867d60fcdae77877a3dda7484c504290098d77f256415abab2600080a3005b6064906040519062461bcd60e51b825260048201526012602482015271105b1c9958591e481c9959da5cdd195c995960721b6044820152fd5b3461033c57604036600319011261033c576004356120cf613c1d565b9080600052600d60206009815260018060a01b03806003604060002001541633148015612184575b61210090613f25565b83600052600c8252604060002094169384600052815261212760ff60406000205416613fa3565b82600052600c81526040600020846000528152604060002060ff1981541690558260005252604060002061215b8154614240565b90557f7126bef88d1149ccdff9681ed5aecd3ba5ae70c96517551de250af09cebd1a0b600080a3005b50600154811633146120f7565b3461033c57608036600319011261033c576004356024908135604490813591606484600052602090600a8252604060002094600986019060ff82541660068110156125d7578060026121eb92149081156125cc5750613f62565b60018701938454600052600c8152604060002033600052815261221560ff60406000205416613fa3565b88600052600b815261222d6040600020548810613fe1565b61223b6127108311156141b1565b88600052600b8152612251876040600020613e71565b5093600385019661226660ff8954161561401d565b8a600052601b8352604060002089600052835261228b604060002054601c5490614061565b612297601d5482614061565b9042111561258b574211612556578a600052601883526040600020896000528352604060002033600052835260406000209182549182156125235760ff9b9c9d600285019384549d8e166124ef5760405187810190898252853560408201526040815261230381613d83565b519020036124bf575050506003600893928592600160ff19809e1617905501558a600052601a815260406000208860005281526040600020612345815461406e565b90558a6000526011815260406000208860005281526040600020336000528152826040600020558a6000526012815260406000208860005281526040600020336000528152604060002060018a8254161790558a6000526013815260406000208860005281526123b9336040600020614205565b60058501956123c8875461406e565b93848855604051908a8252838201528c7f23def086b3dc14dbd150f69d2e6af648dfc789cdf251ba7d720feecbc0625f8560403393a3546000525260406000205480156124b7575b81101561241957005b7fff2fc693bb2d4a09f21f0c403fce5ecb4b5b0b57e81c7253deb5386bb8a8ae779761084995600161244e600a948a8e614453565b998a600288015582541617905501918683548111612489575b5050505054604051938493846040919493926060820195825260208201520152565b90925590548154610100600160a81b03191660089190911b610100600160a81b031617905586808086612467565b506002612410565b8591600d6c090c2e6d040dad2e6dac2e8c6d609b1b926040519462461bcd60e51b86526004860152840152820152fd5b50859160106f105b1c9958591e481c995d99585b195960821b926040519462461bcd60e51b86526004860152840152820152fd5b6e139bc818dbdb5b5a5d08199bdd5b99608a1b85918f600f906040519462461bcd60e51b86526004860152840152820152fd5b7114995d99585b081c1a185cd948195b99195960721b839160128e6040519462461bcd60e51b86526004860152840152820152fd5b507f436f6d6d6974207068617365206e6f7420656e646564207965740000000000008391601a8e6040519462461bcd60e51b86526004860152840152820152fd5b60019150148b610a49565b89634e487b7160e01b60005260216004526000fd5b613be7565b3461033c57602036600319011261033c5761260a614337565b600435600052600a6020526040600020600981019081549060ff82166006811015908161062a578015918215612774575b8215612763575b5050156127295760088101544211156126ed576001600160a01b03600883901c81166126b4576105de93600561269c61269161268660048701548488015490614061565b600687015490614061565b600786015490614061565b9460ff191617905560028181541692015416906143d4565b60405162461bcd60e51b81526020600482015260116024820152702a30b9b5903430b99030903bb4b73732b960791b6044820152606490fd5b60405162461bcd60e51b815260206004820152601460248201527315185cdac81b9bdd081e595d08195e1c1a5c995960621b6044820152606490fd5b60405162461bcd60e51b81526020600482015260126024820152715461736b206e6f7420657870697261626c6560701b6044820152606490fd5b90915061062a576002148480612642565b50600181149150600061263b565b3461033c57608036600319011261033c576024356001600160401b03811161033c576127b2903690600401613ea3565b6127ba614337565b6127c261438d565b600435600052600960205260406000209160ff600984015416600381101561062a576127ee90156140ec565b600583015460443510612bb057606435151580612ba1575b15612b69576101f4806044350293604435159160443586041482171561089f57612710906105dc92836044350293604435850414171561089f5761285160048392015460443561412c565b04916128b06128738461286e85850461286e878c04604435614061565b614061565b6002546040516323b872dd60e01b60208201523360248201523060448201526064808201939093529182526001600160a01b03166105d982613d68565b816128bc60045461406e565b96876004556128f66128d060643542614061565b96604051986128de8a613d15565b8a8a5260043560208b01523360408b0152369161417a565b606088015260443560808801520460a08601520460c084015260e08301526101008201526000610120820152600061014082015260006101608201524261018082015281600052600a60205260406000209181518355602082015160018401556002830160018060a01b036040840151166001600160601b0360a01b82541617905560608201519283516001600160401b03811161138d5761299b6003830154613cc0565b601f8111612b22575b506020601f8211600114612ab3578192939495600092612aa8575b50508160011b916000199060031b1c19161760038201555b6080830151600482015560a0830151600582015560c0830151600682015560e0830151600782015561010083015160088201556009810161012084015190600682101561062a578054610140860151610100600160a81b0360089190911b1660ff939093166001600160a81b031990911617919091179055602092600b9061018090610160810151600a850155015191015560405160443581523390827f428f55877ee911b6c5acc83ef215f08675d3787bdfac5018bbe41876df710f498560043593a46001600055604051908152f35b0151905085806129bf565b6003830160005260206000209060005b601f1984168110612b0a575060019394959683601f19811610612af1575b505050811b0160038201556129d7565b015160001960f88460031b161c19169055858080612ae1565b9091602060018192858b015181550193019101612ac3565b600383016000526020600020601f830160051c810160208410612b62575b601f830160051c82018110612b565750506129a4565b60008155600101612b40565b5080612b40565b60405162461bcd60e51b815260206004820152601060248201526f24b73b30b634b210323ab930ba34b7b760811b6044820152606490fd5b5062093a806064351115612806565b60405162461bcd60e51b815260206004820152600e60248201526d52657761726420746f6f206c6f7760901b6044820152606490fd5b3461033c57600036600319011261033c57602060ff60015460a01c166040519015158152f35b3461033c57602036600319011261033c576000610140604051612c2e81613d4c565b82815260606020820152606060408201528260608201528260808201528260a08201528260c08201528260e0820152826101008201528261012082015201526004356000526009602052604060002060405190612c8a82613d4c565b80548252612c9a60018201613dbf565b6020830152612cab60028201613dbf565b60408301526003818101546001600160a01b0316606084015260048201546080840152600582015460a0840152600682015460c0840152600782015460e08401526008820154610100840152600982015460ff16919082101561062a57600a91610120840152015461014082015260405180916020825280516020830152610140612d60612d4a60208401516101606040870152610180860190613c73565b6040840151858203601f19016060870152613c73565b9160018060a01b036060820151166080850152608081015160a085015260a081015160c085015260c081015160e085015260e0810151610100850152610100810151610120850152612dba61012082015183860190613e64565b01516101608301520390f35b3461033c57612dd436613c33565b90600052600b602052604060002090815481101561033c57612df591613e71565b5080546001600160a01b0316612e0d60018301613dbf565b9160028101549060ff600382015416906005600482015491015491612e44604051968796875260c0602088015260c0870190613c73565b93604086015215156060850152608084015260a08301520390f35b3461033c57602036600319011261033c57600435600052600d6020526020604060002054604051908152f35b3461033c57604036600319011261033c57600435612ea7613c1d565b90806000526020916009835260018060a01b039081600360406000200154163314801561301d575b612ed890613f25565b1691612ee5831515613ed0565b81600052600c8152604060002083600052815260ff60406000205416612fe55781600052600c815260406000208360005281526040600020600160ff1982541617905581600052600d81526040600020612f3f815461406e565b9055826000526017815260406000206002810154159081612fdb575b50612f89575b507f7429a06e9412e469f0d64f9d222640b0af359f556b709e2913588c227851b88d600080a3005b600360405191612f9883613d31565b6000835280830160008152604084019061138882526017606086019342855288600052526040600020945185555160018501555160028401555191015582612f61565b9050541584612f5b565b6064906040519062461bcd60e51b82526004820152601160248201527020b63932b0b23c903b30b634b230ba37b960791b6044820152fd5b5060015482163314612ecf565b3461033c57600036600319011261033c5760206040516107d08152f35b3461033c57600036600319011261033c576020601c54604051908152f35b3461033c57602036600319011261033c5760043560005260096020526040600020805461309460018301613dbf565b916130a160028201613dbf565b61313460018060a01b0360038401541692600481015460058201546006830154600784015491600885015493613109600a60ff600989015416970154986130fb6040519d8e9d8e6101609181528160208201520190613c73565b8c810360408e015290613c73565b9860608b015260808a015260a089015260c088015260e0870152610100860152610120850190613e64565b6101408301520390f35b3461033c5761314c36613c33565b6131546142df565b61012c8083106131dc57811061319e57816040917f54333de66970050ba341fd48b02b1e37c55d85ae724ee00e32233e89e072bea893601c5580601d5582519182526020820152a1005b60405162461bcd60e51b815260206004820152601660248201527514995d99585b081c1a185cd9481d1bdbc81cda1bdc9d60521b6044820152606490fd5b60405162461bcd60e51b815260206004820152601660248201527510dbdb5b5a5d081c1a185cd9481d1bdbc81cda1bdc9d60521b6044820152606490fd5b3461033c5761322836613c49565b91600052601860205260406000209060005260205260406000209060018060a01b031660005260205260806040600020805490600181015490600360ff600283015416910154916040519384526020840152151560408301526060820152f35b3461033c57600036600319011261033c576020600554604051908152f35b3461033c57602036600319011261033c576001600160a01b036132c7613c07565b1660005260146020526020604060002054604051908152f35b3461033c57600036600319011261033c5760206040516113888152f35b3461033c57602036600319011261033c57600435600052600f6020526020604060002054604051908152f35b3461033c57602061334261333c36613c33565b9061407d565b604051908152f35b3461033c57606036600319011261033c5760043560249081359060443581600052602090600a8252604060002060ff600982015416906006821015613682576133a0826002600194149081156136785750613f62565b0154600052600c825260406000203360005282526133c560ff60406000205416613fa3565b82600052600b82526133dd6040600020548510613fe1565b80156136405782600052600b825261340a60ff6003613400876040600020613e71565b500154161561401d565b8260005260188252604060002084600052825260406000203360005282526040600020546136085782600052601282526040600020846000528252604060002033600052825260ff604060002054166135c45782600052601b82526040600020846000528252604060002054156135a5575b82600052601b825260406000208460005282526134a1604060002054601c5490614061565b421161356c576040517f96e134fdbcf6f2b8942aa1450973cc1e5914913673abacabebf1f0b14fe4a55292916134d682613d31565b815260038282014281526135396040840160008152606085019260008452886000526018875260406000208a60005287526040600020336000528752604060002095518655516001860155511515600285019060ff801983541691151516179055565b5191015582600052601981526040600020846000528152604060002061355f815461406e565b90556040519384523393a3005b60405162461bcd60e51b8152600481018390526012818701527110dbdb5b5a5d081c1a185cd948195b99195960721b6044820152606490fd5b82600052601b825260406000208460005282524260406000205561347c565b60405162461bcd60e51b8152600481018390526017818701527f416c72656164792073636f726564206469726563746c790000000000000000006044820152606490fd5b60405162461bcd60e51b81526004810183905260118187015270105b1c9958591e4818dbdb5b5a5d1d1959607a1b6044820152606490fd5b60405162461bcd60e51b8152600481018390526011818701527008adae0e8f240c6dedadad2e840d0c2e6d607b1b6044820152606490fd5b8491501489610a49565b86634e487b7160e01b60005260216004526000fd5b3461033c576136a536613c33565b908060005260096020526136d460018060a01b0380600360406000200154163314908115613734575b50613f25565b600182106136ef576000526008602052604060002055600080f35b60405162461bcd60e51b815260206004820152601c60248201527f4d696e2076616c69646174696f6e73206d757374206265203e3d2031000000006044820152606490fd5b9050600154163314846136ce565b3461033c57602036600319011261033c57600061018060405161376481613d15565b8281528260208201528260408201526060808201528260808201528260a08201528260c08201528260e0820152826101008201528261012082015282610140820152826101608201520152600435600052600a6020526040600020604051906137cc82613d15565b805482526001810154602083015260028101546001600160a01b031660408301526137f960038201613dbf565b606083015260048101546080830152600581015460a0830152600681015460c0830152600781015460e08301526008810154610100830152600981015490600660ff8316101561062a578160ff600b931661012085015260018060a01b039060081c16610140840152600a8101546101608401520154610180820152604051809160208252805160208301526020810151604083015260018060a01b0360408201511660608301526101806138bf60608301516101a060808601526101c0850190613c73565b91608081015160a085015260a081015160c085015260c081015160e085015260e0810151610100850152610100810151610120850152613909610120820151610140860190613cb3565b6101408101516001600160a01b0316610160858101919091528101518285015201516101a08301520390f35b3461033c5760208060031936011261033c57600435600052600b815260406000209081549161396383613f0e565b926139716040519485613d9e565b8084528284018092600052836000206000915b838310613a305750505050604051918083019381845251809452604083019360408160051b85010192916000955b8287106139bf5785850386f35b909192938280600192603f198982030185528751906139f660c0868060a01b03845116835284840151908086850152830190613c73565b91604081015160408301526060808201511515908301526080808201519083015260a08091015191015296019201960195929190926139b2565b600686600192604099989951613a4581613cfa565b848060a01b038654168152613a5b858701613dbf565b838201526002860154604082015260ff6003870154161515606082015260048601546080820152600586015460a0820152815201920192019190959495613984565b3461033c57600036600319011261033c5760206040516101f48152f35b3461033c57602036600319011261033c5760043560005260086020526020604060002054604051908152f35b3461033c57613af436613c49565b91600052601160205260406000209060005260205260406000209060018060a01b03166000526020526020604060002054604051908152f35b3461033c57602036600319011261033c576001600160a01b03613b4e613c07565b1660005260156020526020604060002054604051908152f35b3461033c57613b7536613c33565b9060005260196020526040600020906000526020526020604060002054604051908152f35b3461033c57602036600319011261033c57613bb3613c07565b613bbb6142df565b6001600160a01b0316613bcf811515613ed0565b6001600160601b0360a01b6006541617600655600080f35b3461033c57600036600319011261033c57602060405164e8d4a510008152f35b600435906001600160a01b038216820361033c57565b602435906001600160a01b038216820361033c57565b604090600319011261033c576004359060243590565b606090600319011261033c5760043590602435906044356001600160a01b038116810361033c5790565b919082519283825260005b848110613c9f575050826000602080949584010152601f8019910116010190565b602081830181015184830182015201613c7e565b90600682101561062a5752565b90600182811c92168015613cf0575b6020831014613cda57565b634e487b7160e01b600052602260045260246000fd5b91607f1691613ccf565b60c081019081106001600160401b0382111761138d57604052565b6101a081019081106001600160401b0382111761138d57604052565b608081019081106001600160401b0382111761138d57604052565b61016081019081106001600160401b0382111761138d57604052565b60a081019081106001600160401b0382111761138d57604052565b606081019081106001600160401b0382111761138d57604052565b90601f801991011681019081106001600160401b0382111761138d57604052565b90604051918260008254613dd281613cc0565b90818452602094600191600181169081600014613e425750600114613e03575b505050613e0192500383613d9e565b565b600090815285812095935091905b818310613e2a575050613e019350820101388080613df2565b85548884018501529485019487945091830191613e11565b92505050613e0194925060ff191682840152151560051b820101388080613df2565b90600382101561062a5752565b8054821015613e8d576000526006602060002091020190600090565b634e487b7160e01b600052603260045260246000fd5b9181601f8401121561033c578235916001600160401b03831161033c576020838186019501011161033c57565b15613ed757565b60405162461bcd60e51b815260206004820152600f60248201526e496e76616c6964206164647265737360881b6044820152606490fd5b6001600160401b03811161138d5760051b60200190565b15613f2c57565b60405162461bcd60e51b815260206004820152600e60248201526d139bdd08185d5d1a1bdc9a5e995960921b6044820152606490fd5b15613f6957565b60405162461bcd60e51b81526020600482015260126024820152714e6f742070656e64696e672072657669657760701b6044820152606490fd5b15613faa57565b60405162461bcd60e51b815260206004820152600f60248201526e2737ba1030903b30b634b230ba37b960891b6044820152606490fd5b15613fe857565b60405162461bcd60e51b815260206004820152600d60248201526c092dcecc2d8d2c840d2dcc8caf609b1b6044820152606490fd5b1561402457565b60405162461bcd60e51b8152602060048201526015602482015274416c72656164792068617320636f6e73656e73757360581b6044820152606490fd5b9190820180921161089f57565b600019811461089f5760010190565b6000908152600860205260408120549182156140e3575b64e8d4a5100081106140c45750600282018092116140b0575090565b634e487b7160e01b81526011600452602490fd5b64174876e80011156140d4575090565b600182018092116140b0575090565b60029250614094565b156140f357565b60405162461bcd60e51b81526020600482015260116024820152705375626e6574206e6f742061637469766560781b6044820152606490fd5b8181029291811591840414171561089f57565b8115614149570490565b634e487b7160e01b600052601260045260246000fd5b6001600160401b03811161138d57601f01601f191660200190565b9291926141868261415f565b916141946040519384613d9e565b82948184528183011161033c578281602093846000960137010152565b156141b857565b60405162461bcd60e51b815260206004820152600d60248201526c496e76616c69642073636f726560981b6044820152606490fd5b8054821015613e8d5760005260206000200190600090565b8054600160401b81101561138d57614222916001820181556141ed565b60018060a09493941b038084549260031b9316831b921b1916179055565b801561089f576000190190565b1561425457565b60405162461bcd60e51b815260206004820152601060248201526f2737ba1039bab13732ba1037bbb732b960811b6044820152606490fd5b1561429357565b60405162461bcd60e51b815260206004820152600c60248201526b08ccaca40e8dede40d0d2ced60a31b6044820152606490fd5b90600381101561062a5760ff80198354169116179055565b6001546001600160a01b031633036142f357565b606460405162461bcd60e51b815260206004820152602060248201527f4f776e61626c653a2063616c6c6572206973206e6f7420746865206f776e65726044820152fd5b600260005414614348576002600055565b60405162461bcd60e51b815260206004820152601f60248201527f5265656e7472616e637947756172643a207265656e7472616e742063616c6c006044820152606490fd5b60ff60015460a01c1661439c57565b60405162461bcd60e51b815260206004820152601060248201526f14185d5cd8589b194e881c185d5cd95960821b6044820152606490fd5b60405163a9059cbb60e01b60208201526001600160a01b039092166024830152604480830193909352918152613e01916105d982613d31565b9061441782613f0e565b6144246040519182613d9e565b8281528092614435601f1991613f0e565b0190602036910137565b8051821015613e8d5760209160051b010190565b92919061445f8261440d565b91600091858352602060138152604091828520818652825282852097848954036145a657855b8581106145605750505050505090809293505160019160015b8281106144b557505050506144b290614b89565b90565b806144c185928761443f565b5181835b6144db575b6144d4908861443f565b520161449e565b9091928115158061453f575b1561453757506000198101818111614523578691614508614519928a61443f565b51614513828b61443f565b52614240565b90929190836144c5565b634e487b7160e01b85526011600452602485fd5b9291906144ca565b50506000198101818111614523578261455988928a61443f565b51116144e7565b60019082885260118552858820848952855285882061457f828d6141ed565b848060a01b0391549060031b1c16895285528588205461459f828b61443f565b5201614485565b835162461bcd60e51b815260048101849052601b60248201527f56616c696461746f7220747261636b696e67206d69736d6174636800000000006044820152606490fd5b9190820391821161089f57565b9081600052600a60205260018060a01b0360096040600020015460081c16600019600b6020526040600020916000908354915b828110614a08575b50505060001981146149f95783600052601360205260406000208160005260205260406000209081549283156149e85761466e82600292613e71565b5001549461467b8461440d565b9160009660005b868110614789575050505084156147795760009460005b8481106146ca5750505050508082106146b0575050565b6146c5916146bd916145ea565b600754614061565b600755565b806146d76001928561443f565b5115614774576147046146fd846146f86146f1858961443f565b518b61412c565b61413f565b8099614061565b9761470f82876141ed565b905490600391858060a01b0391831b1c1660005260146020526040600020614738838254614061565b905561474483886141ed565b858060a09493941b039254911b1c16600052601660205261476b6040600020918254614061565b90555b01614699565b61476e565b5050506146c59150600754614061565b61479381876141ed565b99905499856000526011602052604060002085600052602052604060002060018060a01b038c8360031b1c166000526020526147d484604060002054614c16565b9a60018060a01b03818360031b1c16600052601760205260406000209b6147fb8d5461406e565b8d554260038e01556107d081116149405760018d0161481a815461406e565b90556064614828868b61443f565b5260405190600082526020820152877f3d70426d5de70b5ac8bff45c3c0cd89db0e473153868b8c61a938d42002584e8604060018060a01b03858760031b1c1693a35b8b80549384614910575b61487f868b61443f565b51916002015491826148909161412c565b612710900461489f878c61443f565b526148aa868b61443f565b516148b491614061565b60019d909d0154604080519283526020830195909552938101939093526001600160a01b0360039290921b1c16907fc2fd17ad7e9f23b8607f0bd02d7a6cdcccd5a964fa99ce5a066ed34c5b4bb55b90606090a2600101614682565b906001015490612710828181020481148315171561089f57858f9391614936920261413f565b6002830155614875565b611388811161499c576032614955868b61443f565b5260405190600082526020820152877f3d70426d5de70b5ac8bff45c3c0cd89db0e473153868b8c61a938d42002584e8604060018060a01b03858760031b1c1693a361486b565b60006149a8868b61443f565b52604051908152877f3b3050df353576101845973a6b18bbcf16a0187f1c80d60d83d95be509203c51602060018060a01b03858760031b1c1693a361486b565b505050506146c59150600754614061565b50506146c59150600754614061565b81614a138287613e71565b50546001600160a01b03161480614a3d575b614a315760010161462a565b92505050388080614632565b5060ff6003614a4c8388613e71565b50015416614a25565b60018060a01b03169060405160408101908082106001600160401b0383111761138d57614ae4916040526020938482527f5361666545524332303a206c6f772d6c6576656c2063616c6c206661696c6564858301526000808587829751910182855af13d15614b81573d91614ac98361415f565b92614ad76040519485613d9e565b83523d868885013e614c64565b805191821591848315614b56575b505050905015614aff5750565b6084906040519062461bcd60e51b82526004820152602a60248201527f5361666545524332303a204552433230206f7065726174696f6e20646964206e6044820152691bdd081cdd58d8d9595960b21b6064820152fd5b919381809450010312614b7d57820151908115158203614b7a575080388084614af2565b80fd5b5080fd5b606091614c64565b80518015614be257600181811603614bad5790614ba99160011c9061443f565b5190565b60011c90600019820182811161089f57614bdc92614bce614bd5928461443f565b519261443f565b5190614061565b60011c90565b60405162461bcd60e51b815260206004820152600c60248201526b456d7074792073636f72657360a01b6044820152606490fd5b8115614c5d578180821115614c4d57614c2e916145ea565b905b6127109182810292818404149015171561089f576144b29161413f565b90614c57916145ea565b90614c30565b5050600090565b91929015614cc65750815115614c78575090565b3b15614c815790565b60405162461bcd60e51b815260206004820152601d60248201527f416464726573733a2063616c6c20746f206e6f6e2d636f6e74726163740000006044820152606490fd5b825190915015614cd95750805190602001fd5b60405162461bcd60e51b815260206004820152908190614cfd906024830190613c73565b0390fdfea264697066735822122084eb1163b1ceb609a6741f3870bac539638610b6f1ad95d044e7f5e01b33923864736f6c63430008180033",
  "linkReferences": {},
  "deployedLinkReferences": {}
}