{
  "_format": "hh-sol-artifact-1",
  "contractName": "MDTGovernor",
  "sourceName": "src/MDTGovernor.sol",
  "abi": [
    {
      "inputs": [
        {
          "internalType": "address",
          "name": "_mdtToken",
          "type": "address"
        }
      ],
      "stateMutability": "nonpayable",
      "type": "constructor"
    },
    {
      "anonymous": false,
      "inputs": [
        {
          "indexed": false,
          "internalType": "uint256",
          "name": "oldDelay",
          "type": "uint256"
        },
        {
          "indexed": false,
          "internalType": "uint256",
          "name": "newDelay",
          "type": "uint256"
        }
      ],
      "name": "ExecutionDelayUpdated",
      "type": "event"
    },
    {
      "anonymous": false,
      "inputs": [
        {
          "indexed": true,
          "internalType": "address",
          "name": "previousOwner",
          "type": "address"
        },
        {
          "indexed": true,
          "internalType": "address",
          "name": "newOwner",
          "type": "address"
        }
      ],
      "name": "OwnershipTransferred",
      "type": "event"
    },
    {
      "anonymous": false,
      "inputs": [
        {
          "indexed": true,
          "internalType": "uint256",
          "name": "proposalId",
          "type": "uint256"
        }
      ],
      "name": "ProposalCancelled",
      "type": "event"
    },
    {
      "anonymous": false,
      "inputs": [
        {
          "indexed": true,
          "internalType": "uint256",
          "name": "proposalId",
          "type": "uint256"
        },
        {
          "indexed": true,
          "internalType": "address",
          "name": "proposer",
          "type": "address"
        },
        {
          "indexed": false,
          "internalType": "string",
          "name": "description",
          "type": "string"
        },
        {
          "indexed": false,
          "internalType": "address",
          "name": "target",
          "type": "address"
        },
        {
          "indexed": false,
          "internalType": "uint256",
          "name": "startTime",
          "type": "uint256"
        },
        {
          "indexed": false,
          "internalType": "uint256",
          "name": "endTime",
          "type": "uint256"
        }
      ],
      "name": "ProposalCreated",
      "type": "event"
    },
    {
      "anonymous": false,
      "inputs": [
        {
          "indexed": true,
          "internalType": "uint256",
          "name": "proposalId",
          "type": "uint256"
        }
      ],
      "name": "ProposalExecuted",
      "type": "event"
    },
    {
      "anonymous": false,
      "inputs": [
        {
          "indexed": false,
          "internalType": "uint256",
          "name": "oldThreshold",
          "type": "uint256"
        },
        {
          "indexed": false,
          "internalType": "uint256",
          "name": "newThreshold",
          "type": "uint256"
        }
      ],
      "name": "ProposalThresholdUpdated",
      "type": "event"
    },
    {
      "anonymous": false,
      "inputs": [
        {
          "indexed": false,
          "internalType": "uint256",
          "name": "oldQuorum",
          "type": "uint256"
        },
        {
          "indexed": false,
          "internalType": "uint256",
          "name": "newQuorum",
          "type": "uint256"
        }
      ],
      "name": "QuorumUpdated",
      "type": "event"
    },
    {
      "anonymous": false,
      "inputs": [
        {
          "indexed": true,
          "internalType": "address",
          "name": "target",
          "type": "address"
        },
        {
          "indexed": false,
          "internalType": "bool",
          "name": "allowed",
          "type": "bool"
        }
      ],
      "name": "TargetWhitelisted",
      "type": "event"
    },
    {
      "anonymous": false,
      "inputs": [
        {
          "indexed": true,
          "internalType": "uint256",
          "name": "proposalId",
          "type": "uint256"
        },
        {
          "indexed": true,
          "internalType": "address",
          "name": "voter",
          "type": "address"
        },
        {
          "indexed": false,
          "internalType": "bool",
          "name": "support",
          "type": "bool"
        },
        {
          "indexed": false,
          "internalType": "uint256",
          "name": "weight",
          "type": "uint256"
        }
      ],
      "name": "VoteCast",
      "type": "event"
    },
    {
      "anonymous": false,
      "inputs": [
        {
          "indexed": false,
          "internalType": "uint256",
          "name": "oldPeriod",
          "type": "uint256"
        },
        {
          "indexed": false,
          "internalType": "uint256",
          "name": "newPeriod",
          "type": "uint256"
        }
      ],
      "name": "VotingPeriodUpdated",
      "type": "event"
    },
    {
      "inputs": [
        {
          "internalType": "address",
          "name": "",
          "type": "address"
        }
      ],
      "name": "allowedTargets",
      "outputs": [
        {
          "internalType": "bool",
          "name": "",
          "type": "bool"
        }
      ],
      "stateMutability": "view",
      "type": "function"
    },
    {
      "inputs": [
        {
          "internalType": "uint256",
          "name": "proposalId",
          "type": "uint256"
        }
      ],
      "name": "cancel",
      "outputs": [],
      "stateMutability": "nonpayable",
      "type": "function"
    },
    {
      "inputs": [
        {
          "internalType": "uint256",
          "name": "proposalId",
          "type": "uint256"
        }
      ],
      "name": "execute",
      "outputs": [],
      "stateMutability": "nonpayable",
      "type": "function"
    },
    {
      "inputs": [],
      "name": "executionDelay",
      "outputs": [
        {
          "internalType": "uint256",
          "name": "",
          "type": "uint256"
        }
      ],
      "stateMutability": "view",
      "type": "function"
    },
    {
      "inputs": [
        {
          "internalType": "uint256",
          "name": "proposalId",
          "type": "uint256"
        }
      ],
      "name": "finalizeVoting",
      "outputs": [],
      "stateMutability": "nonpayable",
      "type": "function"
    },
    {
      "inputs": [
        {
          "internalType": "uint256",
          "name": "proposalId",
          "type": "uint256"
        }
      ],
      "name": "getProposalState",
      "outputs": [
        {
          "internalType": "enum MDTGovernor.ProposalState",
          "name": "",
          "type": "uint8"
        }
      ],
      "stateMutability": "view",
      "type": "function"
    },
    {
      "inputs": [
        {
          "internalType": "uint256",
          "name": "proposalId",
          "type": "uint256"
        }
      ],
      "name": "getVotes",
      "outputs": [
        {
          "internalType": "uint256",
          "name": "forVotes",
          "type": "uint256"
        },
        {
          "internalType": "uint256",
          "name": "againstVotes",
          "type": "uint256"
        }
      ],
      "stateMutability": "view",
      "type": "function"
    },
    {
      "inputs": [
        {
          "internalType": "uint256",
          "name": "proposalId",
          "type": "uint256"
        },
        {
          "internalType": "address",
          "name": "voter",
          "type": "address"
        }
      ],
      "name": "hasVoted",
      "outputs": [
        {
          "internalType": "bool",
          "name": "",
          "type": "bool"
        }
      ],
      "stateMutability": "view",
      "type": "function"
    },
    {
      "inputs": [],
      "name": "mdtToken",
      "outputs": [
        {
          "internalType": "contract IERC20",
          "name": "",
          "type": "address"
        }
      ],
      "stateMutability": "view",
      "type": "function"
    },
    {
      "inputs": [],
      "name": "owner",
      "outputs": [
        {
          "internalType": "address",
          "name": "",
          "type": "address"
        }
      ],
      "stateMutability": "view",
      "type": "function"
    },
    {
      "inputs": [],
      "name": "proposalCount",
      "outputs": [
        {
          "internalType": "uint256",
          "name": "",
          "type": "uint256"
        }
      ],
      "stateMutability": "view",
      "type": "function"
    },
    {
      "inputs": [],
      "name": "proposalThreshold",
      "outputs": [
        {
          "internalType": "uint256",
          "name": "",
          "type": "uint256"
        }
      ],
      "stateMutability": "view",
      "type": "function"
    },
    {
      "inputs": [
        {
          "internalType": "uint256",
          "name": "",
          "type": "uint256"
        }
      ],
      "name": "proposals",
      "outputs": [
        {
          "internalType": "uint256",
          "name": "id",
          "type": "uint256"
        },
        {
          "internalType": "address",
          "name": "proposer",
          "type": "address"
        },
        {
          "internalType": "string",
          "name": "description",
          "type": "string"
        },
        {
          "internalType": "address",
          "name": "target",
          "type": "address"
        },
        {
          "internalType": "bytes",
          "name": "callData",
          "type": "bytes"
        },
        {
          "internalType": "uint256",
          "name": "forVotes",
          "type": "uint256"
        },
        {
          "internalType": "uint256",
          "name": "againstVotes",
          "type": "uint256"
        },
        {
          "internalType": "uint256",
          "name": "startTime",
          "type": "uint256"
        },
        {
          "internalType": "uint256",
          "name": "endTime",
          "type": "uint256"
        },
        {
          "internalType": "uint256",
          "name": "executionTime",
          "type": "uint256"
        },
        {
          "internalType": "enum MDTGovernor.ProposalState",
          "name": "state",
          "type": "uint8"
        }
      ],
      "stateMutability": "view",
      "type": "function"
    },
    {
      "inputs": [
        {
          "internalType": "string",
          "name": "description",
          "type": "string"
        },
        {
          "internalType": "address",
          "name": "target",
          "type": "address"
        },
        {
          "internalType": "bytes",
          "name": "callData",
          "type": "bytes"
        }
      ],
      "name": "propose",
      "outputs": [
        {
          "internalType": "uint256",
          "name": "",
          "type": "uint256"
        }
      ],
      "stateMutability": "nonpayable",
      "type": "function"
    },
    {
      "inputs": [],
      "name": "quorum",
      "outputs": [
        {
          "internalType": "uint256",
          "name": "",
          "type": "uint256"
        }
      ],
      "stateMutability": "view",
      "type": "function"
    },
    {
      "inputs": [],
      "name": "renounceOwnership",
      "outputs": [],
      "stateMutability": "nonpayable",
      "type": "function"
    },
    {
      "inputs": [
        {
          "internalType": "address",
          "name": "target",
          "type": "address"
        },
        {
          "internalType": "bool",
          "name": "allowed",
          "type": "bool"
        }
      ],
      "name": "setAllowedTarget",
      "outputs": [],
      "stateMutability": "nonpayable",
      "type": "function"
    },
    {
      "inputs": [
        {
          "internalType": "uint256",
          "name": "_delay",
          "type": "uint256"
        }
      ],
      "name": "setExecutionDelay",
      "outputs": [],
      "stateMutability": "nonpayable",
      "type": "function"
    },
    {
      "inputs": [
        {
          "internalType": "uint256",
          "name": "_threshold",
          "type": "uint256"
        }
      ],
      "name": "setProposalThreshold",
      "outputs": [],
      "stateMutability": "nonpayable",
      "type": "function"
    },
    {
      "inputs": [
        {
          "internalType": "uint256",
          "name": "_quorum",
          "type": "uint256"
        }
      ],
      "name": "setQuorum",
      "outputs": [],
      "stateMutability": "nonpayable",
      "type": "function"
    },
    {
      "inputs": [
        {
          "internalType": "uint256",
          "name": "_period",
          "type": "uint256"
        }
      ],
      "name": "setVotingPeriod",
      "outputs": [],
      "stateMutability": "nonpayable",
      "type": "function"
    },
    {
      "inputs": [
        {
          "internalType": "address",
          "name": "newOwner",
          "type": "address"
        }
      ],
      "name": "transferOwnership",
      "outputs": [],
      "stateMutability": "nonpayable",
      "type": "function"
    },
    {
      "inputs": [
        {
          "internalType": "uint256",
          "name": "proposalId",
          "type": "uint256"
        },
        {
          "internalType": "bool",
          "name": "support",
          "type": "bool"
        }
      ],
      "name": "vote",
      "outputs": [],
      "stateMutability": "nonpayable",
      "type": "function"
    },
    {
      "inputs": [],
      "name": "votingPeriod",
      "outputs": [
        {
          "internalType": "uint256",
          "name": "",
          "type": "uint256"
        }
      ],
      "stateMutability": "view",
      "type": "function"
    }
  ],
  "bytecode": "0x60803461010357601f6118c638819003918201601f19168301916001600160401b038311848410176101085780849260209460405283398101031261010357516001600160a01b03808216918290036101035760016000556001549060018060a01b0319913383821617600155604051913391167f8be0079c531659141344cd1fd0a4f28419497f9722a3daafe3b4186f6b6457e0600080a364e8d4a51000806003556004556203f4806005556201518060065582156100d1575060025416176002556040516117a7908161011f8239f35b62461bcd60e51b815260206004820152600d60248201526c24b73b30b634b2103a37b5b2b760991b6044820152606490fd5b600080fd5b634e487b7160e01b600052604160045260246000fdfe608080604052600436101561001357600080fd5b60003560e01c908163013cf08b146113d85750806302a251a3146113ba5780631703a0181461139c57806340e58ee51461128257806343859632146112325780634944483114611126578063715018a6146110c95780638b257989146110ab5780638da5cb5b146110825780639080936f14611049578063b58131b01461102b578063b8fe8d5f14610fec578063c1ba4e5914610f13578063c9d27afe14610cc1578063ca1dd22e14610c38578063d54a0ea6146107fc578063da35c664146107de578063e4917d9f14610709578063ea0217cf1461061d578063ece40cc11461053e578063f2fde38b14610475578063f70b5c061461044c578063fe0d94c1146101645763ff9810991461012757600080fd5b3461015f57602036600319011261015f5760043560005260086020526040806000206006600582015491015482519182526020820152f35b600080fd5b3461015f5760208060031936011261015f576004359060026000541461040857600260005581600052600881526040600020600a81019081549060ff821660068110156103f2576003036103bd57600981015442106103815760038101546001600160a01b0316600081815260098652604090205490939060ff161561033c57906004918260ff19809516179055019060405191600091815491610207836114d1565b926001928382169182156103255750506001146102ea575b50505091816000809493819403925af13d156102e5573d67ffffffffffffffff81116102cf576040519061025c601f8201601f19168501836115a1565b81526000833d92013e5b1561029857507f712ae1383f79ac853f8d882153778e0260ef8f03b504e2866e0593e04d2b291f600080a26001600055005b6064906040519062461bcd60e51b82526004820152601060248201526f115e1958dd5d1a5bdb8819985a5b195960821b6044820152fd5b634e487b7160e01b600052604160045260246000fd5b610266565b909192506000528460002090856000925b8484106103135750505090820190508160008061021f565b805486850152920191869082016102fb565b16865250505080151502820190508160008061021f565b60405162461bcd60e51b815260048101869052601c60248201527f546172676574206e6f206c6f6e6765722077686974656c6973746564000000006044820152606490fd5b60405162461bcd60e51b8152600481018590526014602482015273151a5b595b1bd8dac81b9bdd08195e1c1a5c995960621b6044820152606490fd5b60405162461bcd60e51b815260048101859052600d60248201526c139bdd081cdd58d8d959591959609a1b6044820152606490fd5b634e487b7160e01b600052602160045260246000fd5b6064906040519062461bcd60e51b82526004820152601f60248201527f5265656e7472616e637947756172643a207265656e7472616e742063616c6c006044820152fd5b3461015f57600036600319011261015f576002546040516001600160a01b039091168152602090f35b3461015f57602036600319011261015f5761048e611626565b610496611719565b6001600160a01b039081169081156104ea57600154826bffffffffffffffffffffffff60a01b821617600155167f8be0079c531659141344cd1fd0a4f28419497f9722a3daafe3b4186f6b6457e0600080a3005b60405162461bcd60e51b815260206004820152602660248201527f4f776e61626c653a206e6577206f776e657220697320746865207a65726f206160448201526564647265737360d01b6064820152608490fd5b3461015f57602036600319011261015f5760043561055a611719565b80156105e057655af3107a400081116105a65760407fe92242fc3efcad407a677132b517977331a6e5b65abab69fd757cc02e99c9c4e91600354908060035582519182526020820152a1005b60405162461bcd60e51b81526020600482015260126024820152710a8d0e4cae6d0ded8c840e8dede40d0d2ced60731b6044820152606490fd5b60405162461bcd60e51b815260206004820152601560248201527405468726573686f6c64206d757374206265203e203605c1b6044820152606490fd5b3461015f57602036600319011261015f57600435610639611719565b6201518081106106c45762278d0081116106865760407fffc708f072ca56e3d45ef0cb288b96cb9378f5f63e1646868bfbc9c38f4263a191600554908060055582519182526020820152a1005b60405162461bcd60e51b8152602060048201526016602482015275566f74696e6720706572696f6420746f6f206c6f6e6760501b6044820152606490fd5b60405162461bcd60e51b815260206004820152601760248201527f566f74696e6720706572696f6420746f6f2073686f72740000000000000000006044820152606490fd5b3461015f57602036600319011261015f57600435610725611719565b610e1081106107a7576212750081116107715760407fc3fea73a093f9f688b83e388026bda2c879cda83223a752528ab027f60d400e091600654908060065582519182526020820152a1005b60405162461bcd60e51b815260206004820152600e60248201526d44656c617920746f6f206c6f6e6760901b6044820152606490fd5b60405162461bcd60e51b815260206004820152600f60248201526e11195b185e481d1bdbc81cda1bdc9d608a1b6044820152606490fd5b3461015f57600036600319011261015f576020600754604051908152f35b3461015f57606036600319011261015f5760043567ffffffffffffffff811161015f5761082d90369060040161164b565b90610836611610565b9060443567ffffffffffffffff811161015f5761085790369060040161164b565b6002546040516370a0823160e01b81523360048201529295926001600160a01b03916020908290602490829086165afa908115610c2c57600091610bfa575b5060035411610bb5576108ac8186161515611686565b808516600052600960205260ff6040600020541615610b7757600754946000198614610b615760018681016007819055600081815260086020526040902090815590810180546001600160a01b031916331790559267ffffffffffffffff85116102cf5761092a8561092160028701546114d1565b600287016116c3565b600085601f8111600114610af4578061095992600091610ae9575b508160011b916000199060031b1c19161790565b60028501555b6003840180546001600160a01b03191683851617905567ffffffffffffffff81116102cf576020976109a18261099860048801546114d1565b600488016116c3565b600090601f8311600114610a7a576109d2929160009183610a6f575b50508160011b916000199060031b1c19161790565b60048401555b426007840155600a6109ec60055442611679565b9384600882015501600160ff1982541617905583604051956080875281608088015260a0870137600060a08587010152168584015242604084015260608301527ffcbc93e90de1f3909139448eea84876f427c600d8e1706f36918b4c5635c0213339260a0816001870194601f80199101168101030190a3600160405191018152f35b013590508a806109bd565b6004869392930160005289600020906000935b601f1984168510610ad2576001945083601f19811610610ab8575b505050811b0160048401556109d8565b0135600019600384901b60f8161c19169055898080610aa8565b818101358355938b01936001909201918b01610a8d565b90508801358b610945565b506002850160005260206000209060005b601f1988168110610b49575086601f19811610610b2f575b5050600185811b01600285015561095f565b870135600019600388901b60f8161c191690558880610b1d565b9091602060018192858c013581550193019101610b05565b634e487b7160e01b600052601160045260246000fd5b60405162461bcd60e51b815260206004820152601660248201527515185c99d95d081b9bdd081dda1a5d195b1a5cdd195960521b6044820152606490fd5b60405162461bcd60e51b815260206004820152601860248201527f42656c6f772070726f706f73616c207468726573686f6c6400000000000000006044820152606490fd5b90506020813d602011610c24575b81610c15602093836115a1565b8101031261015f575187610896565b3d9150610c08565b6040513d6000823e3d90fd5b3461015f57604036600319011261015f57610c51611626565b7ff6c76eeb7c8ff50ae11742b7c9c659668fd5450291aa2e196914e251b7786abe6020610c7c61163c565b92610c85611719565b6001600160a01b031692610c9a841515611686565b836000526009825260406000209015159060ff1981541660ff8316179055604051908152a2005b3461015f57604036600319011261015f57600435610cdd61163c565b908060005260206008815260406000209060ff600a8301541660068110156103f257600103610ed95760088201544211610ea657600b8201913360005282825260ff60406000205416610e7157600c81019233600052838352604060002054938415610db6575b5082526040600020805460ff191660011790558415610da157600501610d6b838254611679565b90555b60405193151584528301527fcbdf6214089cba887ecbf35a0b6a734589959c9763342c756bb2a80ca2bc9f6e60403393a3005b600601610daf838254611679565b9055610d6e565b6002546040516370a0823160e01b81523360048201529195508490829060249082906001600160a01b03165afa908115610c2c57600091610e44575b5080948115610e0d5733600052845260406000205586610d44565b60405162461bcd60e51b815260048101869052600f60248201526e2737903b37ba34b733903837bbb2b960891b6044820152606490fd5b90508381813d8311610e6a575b610e5b81836115a1565b8101031261015f575187610df2565b503d610e51565b60405162461bcd60e51b815260048101839052600d60248201526c105b1c9958591e481d9bdd1959609a1b6044820152606490fd5b6064906040519062461bcd60e51b82526004820152600c60248201526b159bdd1a5b99c8195b99195960a21b6044820152fd5b6064906040519062461bcd60e51b82526004820152601360248201527250726f706f73616c206e6f742061637469766560681b6044820152fd5b3461015f57602036600319011261015f57600435610f2f611719565b8015610fb257655af3107a40008111610f7b5760407f6784e9bcb845caaa98267d7b0918f97d3d17f7cb35a05b52010f7eb587a0acb091600454908060045582519182526020820152a1005b60405162461bcd60e51b815260206004820152600f60248201526e0a2eadee4eada40e8dede40d0d2ced608b1b6044820152606490fd5b60405162461bcd60e51b8152602060048201526012602482015271051756f72756d206d757374206265203e20360741b6044820152606490fd5b3461015f57602036600319011261015f576001600160a01b0361100d611626565b166000526009602052602060ff604060002054166040519015158152f35b3461015f57600036600319011261015f576020600354604051908152f35b3461015f57602036600319011261015f576004356000526008602052602060ff600a60406000200154166110806040518092611603565bf35b3461015f57600036600319011261015f576001546040516001600160a01b039091168152602090f35b3461015f57600036600319011261015f576020600654604051908152f35b3461015f57600036600319011261015f576110e2611719565b600180546001600160a01b031981169091556000906001600160a01b03167f8be0079c531659141344cd1fd0a4f28419497f9722a3daafe3b4186f6b6457e08280a3005b3461015f57602036600319011261015f5760043560005260086020526040600020600a8101805460ff811660068110156103f2576001036112005760088301544211156111c857600583015460068401546111818183611679565b600454111591826111be575b5050156111b35750600360ff1982541617905560096111ae60065442611679565b910155005b60ff19166002179055005b119050848061118d565b60405162461bcd60e51b815260206004820152601060248201526f159bdd1a5b99c81b9bdd08195b99195960821b6044820152606490fd5b60405162461bcd60e51b815260206004820152600a6024820152694e6f742061637469766560b01b6044820152606490fd5b3461015f57604036600319011261015f5761124b611610565b6004356000526008602052600b6040600020019060018060a01b0316600052602052602060ff604060002054166040519015158152f35b3461015f57602036600319011261015f5760043560008181526008602052604090206001810154336001600160a01b039182161490811561138e575b501561135857600a01805460ff811660068110156103f2576001811490811561134d575b50156113185760ff191660051790557f416e669c63d9a3a5e36ee7cc7e2104b8db28ccd286aa18966e98fa230c73b08c600080a2005b60405162461bcd60e51b815260206004820152600d60248201526c10d85b9b9bdd0818d85b98d95b609a1b6044820152606490fd5b6003915014846112e2565b60405162461bcd60e51b815260206004820152600e60248201526d139bdd08185d5d1a1bdc9a5e995960921b6044820152606490fd5b9050600154163314836112be565b3461015f57600036600319011261015f576020600454604051908152f35b3461015f57600036600319011261015f576020600554604051908152f35b3461015f57602036600319011261015f576004356000526008602052604080600020916114cd83549360018060a01b0390816001820154169161142985611422816002860161150b565b03866115a1565b60038201541693855161144a81611443816004870161150b565b03826115a1565b6005830154956114a660068501549160078601549361149360088801549660ff600a60098b01549a015416998d519e8f9e8f6101609384938252602082015201528d01906115c3565b9160608c01528a820360808c01526115c3565b9660a089015260c088015260e0870152610100860152610120850152610140840190611603565b0390f35b90600182811c92168015611501575b60208310146114eb57565b634e487b7160e01b600052602260045260246000fd5b91607f16916114e0565b80546000939261151a826114d1565b918282526020936001916001811690816000146115825750600114611541575b5050505050565b90939495506000929192528360002092846000945b83861061156e5750505050010190388080808061153a565b805485870183015294019385908201611556565b60ff19168685015250505090151560051b01019150388080808061153a565b90601f8019910116810190811067ffffffffffffffff8211176102cf57604052565b919082519283825260005b8481106115ef575050826000602080949584010152601f8019910116010190565b6020818301810151848301820152016115ce565b9060068210156103f25752565b602435906001600160a01b038216820361015f57565b600435906001600160a01b038216820361015f57565b60243590811515820361015f57565b9181601f8401121561015f5782359167ffffffffffffffff831161015f576020838186019501011161015f57565b91908201809211610b6157565b1561168d57565b60405162461bcd60e51b815260206004820152600e60248201526d125b9d985b1a59081d185c99d95d60921b6044820152606490fd5b90601f81116116d157505050565b6000916000526020600020906020601f850160051c8301941061170f575b601f0160051c01915b82811061170457505050565b8181556001016116f8565b90925082906116ef565b6001546001600160a01b0316330361172d57565b606460405162461bcd60e51b815260206004820152602060248201527f4f776e61626c653a2063616c6c6572206973206e6f7420746865206f776e65726044820152fdfea264697066735822122054cc2b30843dd508513065435735873c6bf7ef6de0b1d4d25ef93419a8aacd4464736f6c63430008180033",
  "linkReferences": {},
  "deployedLinkReferences": {}
}