{
  "_format": "hh-sol-artifact-1",
  "contractName": "MDTGovernor",
  "sourceName": "src/MDTGovernor.sol",
  "abi": [
    {
      "inputs": [
        {
          "internalType": "address",
          "name": "_mdtToken",
          "type": "address"
        }
      ],
      "stateMutability": "nonpayable",
      "type": "constructor"
    },
    {
      "anonymous": false,
      "inputs": [
        {
          "indexed": true,
          "internalType": "address",
          "name": "previousOwner",
          "type": "address"
        },
        {
          "indexed": true,
          "internalType": "address",
          "name": "newOwner",
          "type": "address"
        }
      ],
      "name": "OwnershipTransferred",
      "type": "event"
    },
    {
      "anonymous": false,
      "inputs": [
        {
          "indexed": true,
          "internalType": "uint256",
          "name": "proposalId",
          "type": "uint256"
        }
      ],
      "name": "ProposalCancelled",
      "type": "event"
    },
    {
      "anonymous": false,
      "inputs": [
        {
          "indexed": true,
          "internalType": "uint256",
          "name": "proposalId",
          "type": "uint256"
        },
        {
          "indexed": true,
          "internalType": "address",
          "name": "proposer",
          "type": "address"
        },
        {
          "indexed": false,
          "internalType": "string",
          "name": "description",
          "type": "string"
        },
        {
          "indexed": false,
          "internalType": "address",
          "name": "target",
          "type": "address"
        },
        {
          "indexed": false,
          "internalType": "uint256",
          "name": "startTime",
          "type": "uint256"
        },
        {
          "indexed": false,
          "internalType": "uint256",
          "name": "endTime",
          "type": "uint256"
        }
      ],
      "name": "ProposalCreated",
      "type": "event"
    },
    {
      "anonymous": false,
      "inputs": [
        {
          "indexed": true,
          "internalType": "uint256",
          "name": "proposalId",
          "type": "uint256"
        }
      ],
      "name": "ProposalExecuted",
      "type": "event"
    },
    {
      "anonymous": false,
      "inputs": [
        {
          "indexed": true,
          "internalType": "uint256",
          "name": "proposalId",
          "type": "uint256"
        },
        {
          "indexed": true,
          "internalType": "address",
          "name": "voter",
          "type": "address"
        },
        {
          "indexed": false,
          "internalType": "bool",
          "name": "support",
          "type": "bool"
        },
        {
          "indexed": false,
          "internalType": "uint256",
          "name": "weight",
          "type": "uint256"
        }
      ],
      "name": "VoteCast",
      "type": "event"
    },
    {
      "inputs": [
        {
          "internalType": "uint256",
          "name": "proposalId",
          "type": "uint256"
        }
      ],
      "name": "cancel",
      "outputs": [],
      "stateMutability": "nonpayable",
      "type": "function"
    },
    {
      "inputs": [
        {
          "internalType": "uint256",
          "name": "proposalId",
          "type": "uint256"
        }
      ],
      "name": "execute",
      "outputs": [],
      "stateMutability": "nonpayable",
      "type": "function"
    },
    {
      "inputs": [],
      "name": "executionDelay",
      "outputs": [
        {
          "internalType": "uint256",
          "name": "",
          "type": "uint256"
        }
      ],
      "stateMutability": "view",
      "type": "function"
    },
    {
      "inputs": [
        {
          "internalType": "uint256",
          "name": "proposalId",
          "type": "uint256"
        }
      ],
      "name": "finalizeVoting",
      "outputs": [],
      "stateMutability": "nonpayable",
      "type": "function"
    },
    {
      "inputs": [
        {
          "internalType": "uint256",
          "name": "proposalId",
          "type": "uint256"
        }
      ],
      "name": "getProposalState",
      "outputs": [
        {
          "internalType": "enum MDTGovernor.ProposalState",
          "name": "",
          "type": "uint8"
        }
      ],
      "stateMutability": "view",
      "type": "function"
    },
    {
      "inputs": [
        {
          "internalType": "uint256",
          "name": "proposalId",
          "type": "uint256"
        }
      ],
      "name": "getVotes",
      "outputs": [
        {
          "internalType": "uint256",
          "name": "forVotes",
          "type": "uint256"
        },
        {
          "internalType": "uint256",
          "name": "againstVotes",
          "type": "uint256"
        }
      ],
      "stateMutability": "view",
      "type": "function"
    },
    {
      "inputs": [
        {
          "internalType": "uint256",
          "name": "proposalId",
          "type": "uint256"
        },
        {
          "internalType": "address",
          "name": "voter",
          "type": "address"
        }
      ],
      "name": "hasVoted",
      "outputs": [
        {
          "internalType": "bool",
          "name": "",
          "type": "bool"
        }
      ],
      "stateMutability": "view",
      "type": "function"
    },
    {
      "inputs": [],
      "name": "mdtToken",
      "outputs": [
        {
          "internalType": "contract IERC20",
          "name": "",
          "type": "address"
        }
      ],
      "stateMutability": "view",
      "type": "function"
    },
    {
      "inputs": [],
      "name": "owner",
      "outputs": [
        {
          "internalType": "address",
          "name": "",
          "type": "address"
        }
      ],
      "stateMutability": "view",
      "type": "function"
    },
    {
      "inputs": [],
      "name": "proposalCount",
      "outputs": [
        {
          "internalType": "uint256",
          "name": "",
          "type": "uint256"
        }
      ],
      "stateMutability": "view",
      "type": "function"
    },
    {
      "inputs": [],
      "name": "proposalThreshold",
      "outputs": [
        {
          "internalType": "uint256",
          "name": "",
          "type": "uint256"
        }
      ],
      "stateMutability": "view",
      "type": "function"
    },
    {
      "inputs": [
        {
          "internalType": "uint256",
          "name": "",
          "type": "uint256"
        }
      ],
      "name": "proposals",
      "outputs": [
        {
          "internalType": "uint256",
          "name": "id",
          "type": "uint256"
        },
        {
          "internalType": "address",
          "name": "proposer",
          "type": "address"
        },
        {
          "internalType": "string",
          "name": "description",
          "type": "string"
        },
        {
          "internalType": "address",
          "name": "target",
          "type": "address"
        },
        {
          "internalType": "bytes",
          "name": "callData",
          "type": "bytes"
        },
        {
          "internalType": "uint256",
          "name": "forVotes",
          "type": "uint256"
        },
        {
          "internalType": "uint256",
          "name": "againstVotes",
          "type": "uint256"
        },
        {
          "internalType": "uint256",
          "name": "startTime",
          "type": "uint256"
        },
        {
          "internalType": "uint256",
          "name": "endTime",
          "type": "uint256"
        },
        {
          "internalType": "uint256",
          "name": "executionTime",
          "type": "uint256"
        },
        {
          "internalType": "enum MDTGovernor.ProposalState",
          "name": "state",
          "type": "uint8"
        }
      ],
      "stateMutability": "view",
      "type": "function"
    },
    {
      "inputs": [
        {
          "internalType": "string",
          "name": "description",
          "type": "string"
        },
        {
          "internalType": "address",
          "name": "target",
          "type": "address"
        },
        {
          "internalType": "bytes",
          "name": "callData",
          "type": "bytes"
        }
      ],
      "name": "propose",
      "outputs": [
        {
          "internalType": "uint256",
          "name": "",
          "type": "uint256"
        }
      ],
      "stateMutability": "nonpayable",
      "type": "function"
    },
    {
      "inputs": [],
      "name": "quorum",
      "outputs": [
        {
          "internalType": "uint256",
          "name": "",
          "type": "uint256"
        }
      ],
      "stateMutability": "view",
      "type": "function"
    },
    {
      "inputs": [],
      "name": "renounceOwnership",
      "outputs": [],
      "stateMutability": "nonpayable",
      "type": "function"
    },
    {
      "inputs": [
        {
          "internalType": "uint256",
          "name": "_delay",
          "type": "uint256"
        }
      ],
      "name": "setExecutionDelay",
      "outputs": [],
      "stateMutability": "nonpayable",
      "type": "function"
    },
    {
      "inputs": [
        {
          "internalType": "uint256",
          "name": "_threshold",
          "type": "uint256"
        }
      ],
      "name": "setProposalThreshold",
      "outputs": [],
      "stateMutability": "nonpayable",
      "type": "function"
    },
    {
      "inputs": [
        {
          "internalType": "uint256",
          "name": "_quorum",
          "type": "uint256"
        }
      ],
      "name": "setQuorum",
      "outputs": [],
      "stateMutability": "nonpayable",
      "type": "function"
    },
    {
      "inputs": [
        {
          "internalType": "uint256",
          "name": "_period",
          "type": "uint256"
        }
      ],
      "name": "setVotingPeriod",
      "outputs": [],
      "stateMutability": "nonpayable",
      "type": "function"
    },
    {
      "inputs": [
        {
          "internalType": "address",
          "name": "newOwner",
          "type": "address"
        }
      ],
      "name": "transferOwnership",
      "outputs": [],
      "stateMutability": "nonpayable",
      "type": "function"
    },
    {
      "inputs": [
        {
          "internalType": "uint256",
          "name": "proposalId",
          "type": "uint256"
        },
        {
          "internalType": "bool",
          "name": "support",
          "type": "bool"
        }
      ],
      "name": "vote",
      "outputs": [],
      "stateMutability": "nonpayable",
      "type": "function"
    },
    {
      "inputs": [],
      "name": "votingPeriod",
      "outputs": [
        {
          "internalType": "uint256",
          "name": "",
          "type": "uint256"
        }
      ],
      "stateMutability": "view",
      "type": "function"
    }
  ],
  "bytecode": "0x60803461010357601f6113fb38819003918201601f19168301916001600160401b038311848410176101085780849260209460405283398101031261010357516001600160a01b03808216918290036101035760016000556001549060018060a01b0319913383821617600155604051913391167f8be0079c531659141344cd1fd0a4f28419497f9722a3daafe3b4186f6b6457e0600080a364e8d4a51000806003556004556203f4806005556201518060065582156100d1575060025416176002556040516112dc908161011f8239f35b62461bcd60e51b815260206004820152600d60248201526c24b73b30b634b2103a37b5b2b760991b6044820152606490fd5b600080fd5b634e487b7160e01b600052604160045260246000fdfe608080604052600436101561001357600080fd5b60003560e01c908163013cf08b14610f6f5750806302a251a314610f515780631703a01814610f3357806340e58ee514610e195780634385963214610dc95780634944483114610cbd578063715018a614610c605780638b25798914610c425780638da5cb5b14610c195780639080936f14610be0578063b58131b014610bc2578063c1ba4e5914610ba1578063c9d27afe14610961578063d54a0ea61461054b578063da35c6641461052d578063e4917d9f1461050c578063ea0217cf146104eb578063ece40cc1146104ca578063f2fde38b146103ff578063f70b5c06146103d6578063fe0d94c11461014e5763ff9810991461011157600080fd5b346101495760203660031901126101495760043560005260086020526040806000206006600582015491015482519182526020820152f35b600080fd5b3461014957602080600319360112610149576004359060026000541461039257600260005581600052600881526040600020600a810180549060ff8216600681101561037c57600303610347576009830154421061030b57600460ff19809316179055600460018060a01b03600384015416920190604051916000918154916101d683611068565b926001928382169182156102f45750506001146102b9575b50505091816000809493819403925af13d156102b4573d67ffffffffffffffff811161029e576040519061022b601f8201601f1916850183611138565b81526000833d92013e5b1561026757507f712ae1383f79ac853f8d882153778e0260ef8f03b504e2866e0593e04d2b291f600080a26001600055005b6064906040519062461bcd60e51b82526004820152601060248201526f115e1958dd5d1a5bdb8819985a5b195960821b6044820152fd5b634e487b7160e01b600052604160045260246000fd5b610235565b909192506000528460002090856000925b8484106102e2575050509082019050816000806101ee565b805486850152920191869082016102ca565b1686525050508015150282019050816000806101ee565b60405162461bcd60e51b8152600481018590526014602482015273151a5b595b1bd8dac81b9bdd08195e1c1a5c995960621b6044820152606490fd5b60405162461bcd60e51b815260048101859052600d60248201526c139bdd081cdd58d8d959591959609a1b6044820152606490fd5b634e487b7160e01b600052602160045260246000fd5b6064906040519062461bcd60e51b82526004820152601f60248201527f5265656e7472616e637947756172643a207265656e7472616e742063616c6c006044820152fd5b34610149576000366003190112610149576002546040516001600160a01b039091168152602090f35b34610149576020366003190112610149576004356001600160a01b03818116918290036101495761042e61124e565b811561047657600154826bffffffffffffffffffffffff60a01b821617600155167f8be0079c531659141344cd1fd0a4f28419497f9722a3daafe3b4186f6b6457e0600080a3005b60405162461bcd60e51b815260206004820152602660248201527f4f776e61626c653a206e6577206f776e657220697320746865207a65726f206160448201526564647265737360d01b6064820152608490fd5b34610149576020366003190112610149576104e361124e565b600435600355005b346101495760203660031901126101495761050461124e565b600435600555005b346101495760203660031901126101495761052561124e565b600435600655005b34610149576000366003190112610149576020600754604051908152f35b346101495760603660031901126101495760043567ffffffffffffffff81116101495761057c9036906004016111bd565b906105856111a7565b9060443567ffffffffffffffff8111610149576105a69036906004016111bd565b6002546040516370a0823160e01b81523360048201529295926001600160a01b03916020908290602490829086165afa90811561095557600091610923575b50600354116108de57808516156108a8576007549460001986146108925760018681016007819055600081815260086020526040902090815590810180546001600160a01b031916331790559267ffffffffffffffff851161029e5761065b856106526002870154611068565b600287016111f8565b600085601f8111600114610825578061068a9260009161081a575b508160011b916000199060031b1c19161790565b60028501555b6003840180546001600160a01b03191683851617905567ffffffffffffffff811161029e576020976106d2826106c96004880154611068565b600488016111f8565b600090601f83116001146107ab576107039291600091836107a0575b50508160011b916000199060031b1c19161790565b60048401555b426007840155600a61071d600554426111eb565b9384600882015501600160ff1982541617905583604051956080875281608088015260a0870137600060a08587010152168584015242604084015260608301527ffcbc93e90de1f3909139448eea84876f427c600d8e1706f36918b4c5635c0213339260a0816001870194601f80199101168101030190a3600160405191018152f35b013590508a806106ee565b6004869392930160005289600020906000935b601f1984168510610803576001945083601f198116106107e9575b505050811b016004840155610709565b0135600019600384901b60f8161c191690558980806107d9565b818101358355938b01936001909201918b016107be565b90508801358b610676565b506002850160005260206000209060005b601f198816811061087a575086601f19811610610860575b5050600185811b016002850155610690565b870135600019600388901b60f8161c19169055888061084e565b9091602060018192858c013581550193019101610836565b634e487b7160e01b600052601160045260246000fd5b60405162461bcd60e51b815260206004820152600e60248201526d125b9d985b1a59081d185c99d95d60921b6044820152606490fd5b60405162461bcd60e51b815260206004820152601860248201527f42656c6f772070726f706f73616c207468726573686f6c6400000000000000006044820152606490fd5b90506020813d60201161094d575b8161093e60209383611138565b810103126101495751876105e5565b3d9150610931565b6040513d6000823e3d90fd5b346101495760403660031901126101495760248035801515916004359183810361014957826000526020906008825260406000209060ff600a830154166006811015610b8c57600103610b525760088201544211610b1f57600b82013360005280845260ff60406000205416610aeb576002546040516370a0823160e01b8152336004820152959085908790839082906001600160a01b03165afa95861561095557600096610abc575b508515610a8757503360005283526040600020600160ff19825416179055600014610a7257600501610a3e8382546111eb565b90555b6040519384528301527fcbdf6214089cba887ecbf35a0b6a734589959c9763342c756bb2a80ca2bc9f6e60403393a3005b600601610a808382546111eb565b9055610a41565b84600f6064926040519262461bcd60e51b845260048401528201526e2737903b37ba34b733903837bbb2b960891b6044820152fd5b9095508481813d8311610ae4575b610ad48183611138565b8101031261014957519488610a0b565b503d610aca565b60405162461bcd60e51b815260048101859052600d818701526c105b1c9958591e481d9bdd1959609a1b6044820152606490fd5b60405162461bcd60e51b815260048101849052600c818601526b159bdd1a5b99c8195b99195960a21b6044820152606490fd5b60405162461bcd60e51b8152600481018490526013818601527250726f706f73616c206e6f742061637469766560681b6044820152606490fd5b84634e487b7160e01b60005260216004526000fd5b3461014957602036600319011261014957610bba61124e565b600480359055005b34610149576000366003190112610149576020600354604051908152f35b34610149576020366003190112610149576004356000526008602052602060ff600a6040600020015416610c17604051809261119a565bf35b34610149576000366003190112610149576001546040516001600160a01b039091168152602090f35b34610149576000366003190112610149576020600654604051908152f35b3461014957600036600319011261014957610c7961124e565b600180546001600160a01b031981169091556000906001600160a01b03167f8be0079c531659141344cd1fd0a4f28419497f9722a3daafe3b4186f6b6457e08280a3005b346101495760203660031901126101495760043560005260086020526040600020600a8101805460ff8116600681101561037c57600103610d97576008830154421115610d5f5760058301546006840154610d1881836111eb565b60045411159182610d55575b505015610d4a5750600360ff198254161790556009610d45600654426111eb565b910155005b60ff19166002179055005b1190508480610d24565b60405162461bcd60e51b815260206004820152601060248201526f159bdd1a5b99c81b9bdd08195b99195960821b6044820152606490fd5b60405162461bcd60e51b815260206004820152600a6024820152694e6f742061637469766560b01b6044820152606490fd5b3461014957604036600319011261014957610de26111a7565b6004356000526008602052600b6040600020019060018060a01b0316600052602052602060ff604060002054166040519015158152f35b346101495760203660031901126101495760043560008181526008602052604090206001810154336001600160a01b0391821614908115610f25575b5015610eef57600a01805460ff8116600681101561037c5760018114908115610ee4575b5015610eaf5760ff191660051790557f416e669c63d9a3a5e36ee7cc7e2104b8db28ccd286aa18966e98fa230c73b08c600080a2005b60405162461bcd60e51b815260206004820152600d60248201526c10d85b9b9bdd0818d85b98d95b609a1b6044820152606490fd5b600391501484610e79565b60405162461bcd60e51b815260206004820152600e60248201526d139bdd08185d5d1a1bdc9a5e995960921b6044820152606490fd5b905060015416331483610e55565b34610149576000366003190112610149576020600454604051908152f35b34610149576000366003190112610149576020600554604051908152f35b346101495760203660031901126101495760043560005260086020526040806000209161106483549360018060a01b03908160018201541691610fc085610fb981600286016110a2565b0386611138565b600382015416938551610fe181610fda81600487016110a2565b0382611138565b60058301549561103d60068501549160078601549361102a60088801549660ff600a60098b01549a015416998d519e8f9e8f6101609384938252602082015201528d019061115a565b9160608c01528a820360808c015261115a565b9660a089015260c088015260e087015261010086015261012085015261014084019061119a565b0390f35b90600182811c92168015611098575b602083101461108257565b634e487b7160e01b600052602260045260246000fd5b91607f1691611077565b8054600093926110b182611068565b9182825260209360019160018116908160001461111957506001146110d8575b5050505050565b90939495506000929192528360002092846000945b838610611105575050505001019038808080806110d1565b8054858701830152940193859082016110ed565b60ff19168685015250505090151560051b0101915038808080806110d1565b90601f8019910116810190811067ffffffffffffffff82111761029e57604052565b919082519283825260005b848110611186575050826000602080949584010152601f8019910116010190565b602081830181015184830182015201611165565b90600682101561037c5752565b602435906001600160a01b038216820361014957565b9181601f840112156101495782359167ffffffffffffffff8311610149576020838186019501011161014957565b9190820180921161089257565b90601f811161120657505050565b6000916000526020600020906020601f850160051c83019410611244575b601f0160051c01915b82811061123957505050565b81815560010161122d565b9092508290611224565b6001546001600160a01b0316330361126257565b606460405162461bcd60e51b815260206004820152602060248201527f4f776e61626c653a2063616c6c6572206973206e6f7420746865206f776e65726044820152fdfea264697066735822122054a6646e440a6c6edf0b3599f4254891f920642e44bfc88144a909ef1b1ba22764736f6c63430008180033",
  "linkReferences": {},
  "deployedLinkReferences": {}
}