{
  "_format": "hh-sol-artifact-1",
  "contractName": "MDTGovernor",
  "sourceName": "src/MDTGovernor.sol",
  "abi": [
    {
      "inputs": [
        {
          "internalType": "address",
          "name": "_mdtToken",
          "type": "address"
        }
      ],
      "stateMutability": "nonpayable",
      "type": "constructor"
    },
    {
      "anonymous": false,
      "inputs": [
        {
          "indexed": false,
          "internalType": "uint256",
          "name": "oldDelay",
          "type": "uint256"
        },
        {
          "indexed": false,
          "internalType": "uint256",
          "name": "newDelay",
          "type": "uint256"
        }
      ],
      "name": "ExecutionDelayUpdated",
      "type": "event"
    },
    {
      "anonymous": false,
      "inputs": [
        {
          "indexed": true,
          "internalType": "address",
          "name": "previousOwner",
          "type": "address"
        },
        {
          "indexed": true,
          "internalType": "address",
          "name": "newOwner",
          "type": "address"
        }
      ],
      "name": "OwnershipTransferred",
      "type": "event"
    },
    {
      "anonymous": false,
      "inputs": [
        {
          "indexed": true,
          "internalType": "uint256",
          "name": "proposalId",
          "type": "uint256"
        }
      ],
      "name": "ProposalCancelled",
      "type": "event"
    },
    {
      "anonymous": false,
      "inputs": [
        {
          "indexed": true,
          "internalType": "uint256",
          "name": "proposalId",
          "type": "uint256"
        },
        {
          "indexed": true,
          "internalType": "address",
          "name": "proposer",
          "type": "address"
        },
        {
          "indexed": false,
          "internalType": "string",
          "name": "description",
          "type": "string"
        },
        {
          "indexed": false,
          "internalType": "address",
          "name": "target",
          "type": "address"
        },
        {
          "indexed": false,
          "internalType": "uint256",
          "name": "startTime",
          "type": "uint256"
        },
        {
          "indexed": false,
          "internalType": "uint256",
          "name": "endTime",
          "type": "uint256"
        }
      ],
      "name": "ProposalCreated",
      "type": "event"
    },
    {
      "anonymous": false,
      "inputs": [
        {
          "indexed": true,
          "internalType": "uint256",
          "name": "proposalId",
          "type": "uint256"
        }
      ],
      "name": "ProposalExecuted",
      "type": "event"
    },
    {
      "anonymous": false,
      "inputs": [
        {
          "indexed": false,
          "internalType": "uint256",
          "name": "oldThreshold",
          "type": "uint256"
        },
        {
          "indexed": false,
          "internalType": "uint256",
          "name": "newThreshold",
          "type": "uint256"
        }
      ],
      "name": "ProposalThresholdUpdated",
      "type": "event"
    },
    {
      "anonymous": false,
      "inputs": [
        {
          "indexed": false,
          "internalType": "uint256",
          "name": "oldQuorum",
          "type": "uint256"
        },
        {
          "indexed": false,
          "internalType": "uint256",
          "name": "newQuorum",
          "type": "uint256"
        }
      ],
      "name": "QuorumUpdated",
      "type": "event"
    },
    {
      "anonymous": false,
      "inputs": [
        {
          "indexed": true,
          "internalType": "address",
          "name": "target",
          "type": "address"
        },
        {
          "indexed": false,
          "internalType": "bool",
          "name": "allowed",
          "type": "bool"
        }
      ],
      "name": "TargetWhitelisted",
      "type": "event"
    },
    {
      "anonymous": false,
      "inputs": [
        {
          "indexed": true,
          "internalType": "uint256",
          "name": "proposalId",
          "type": "uint256"
        },
        {
          "indexed": true,
          "internalType": "address",
          "name": "voter",
          "type": "address"
        },
        {
          "indexed": false,
          "internalType": "bool",
          "name": "support",
          "type": "bool"
        },
        {
          "indexed": false,
          "internalType": "uint256",
          "name": "weight",
          "type": "uint256"
        }
      ],
      "name": "VoteCast",
      "type": "event"
    },
    {
      "anonymous": false,
      "inputs": [
        {
          "indexed": false,
          "internalType": "uint256",
          "name": "oldPeriod",
          "type": "uint256"
        },
        {
          "indexed": false,
          "internalType": "uint256",
          "name": "newPeriod",
          "type": "uint256"
        }
      ],
      "name": "VotingPeriodUpdated",
      "type": "event"
    },
    {
      "inputs": [
        {
          "internalType": "address",
          "name": "",
          "type": "address"
        }
      ],
      "name": "allowedTargets",
      "outputs": [
        {
          "internalType": "bool",
          "name": "",
          "type": "bool"
        }
      ],
      "stateMutability": "view",
      "type": "function"
    },
    {
      "inputs": [
        {
          "internalType": "uint256",
          "name": "proposalId",
          "type": "uint256"
        }
      ],
      "name": "cancel",
      "outputs": [],
      "stateMutability": "nonpayable",
      "type": "function"
    },
    {
      "inputs": [
        {
          "internalType": "uint256",
          "name": "proposalId",
          "type": "uint256"
        }
      ],
      "name": "execute",
      "outputs": [],
      "stateMutability": "nonpayable",
      "type": "function"
    },
    {
      "inputs": [],
      "name": "executionDelay",
      "outputs": [
        {
          "internalType": "uint256",
          "name": "",
          "type": "uint256"
        }
      ],
      "stateMutability": "view",
      "type": "function"
    },
    {
      "inputs": [
        {
          "internalType": "uint256",
          "name": "proposalId",
          "type": "uint256"
        }
      ],
      "name": "finalizeVoting",
      "outputs": [],
      "stateMutability": "nonpayable",
      "type": "function"
    },
    {
      "inputs": [
        {
          "internalType": "uint256",
          "name": "proposalId",
          "type": "uint256"
        }
      ],
      "name": "getProposalState",
      "outputs": [
        {
          "internalType": "enum MDTGovernor.ProposalState",
          "name": "",
          "type": "uint8"
        }
      ],
      "stateMutability": "view",
      "type": "function"
    },
    {
      "inputs": [
        {
          "internalType": "uint256",
          "name": "proposalId",
          "type": "uint256"
        }
      ],
      "name": "getVotes",
      "outputs": [
        {
          "internalType": "uint256",
          "name": "forVotes",
          "type": "uint256"
        },
        {
          "internalType": "uint256",
          "name": "againstVotes",
          "type": "uint256"
        }
      ],
      "stateMutability": "view",
      "type": "function"
    },
    {
      "inputs": [
        {
          "internalType": "uint256",
          "name": "proposalId",
          "type": "uint256"
        },
        {
          "internalType": "address",
          "name": "voter",
          "type": "address"
        }
      ],
      "name": "hasVoted",
      "outputs": [
        {
          "internalType": "bool",
          "name": "",
          "type": "bool"
        }
      ],
      "stateMutability": "view",
      "type": "function"
    },
    {
      "inputs": [],
      "name": "mdtToken",
      "outputs": [
        {
          "internalType": "contract IERC20",
          "name": "",
          "type": "address"
        }
      ],
      "stateMutability": "view",
      "type": "function"
    },
    {
      "inputs": [],
      "name": "owner",
      "outputs": [
        {
          "internalType": "address",
          "name": "",
          "type": "address"
        }
      ],
      "stateMutability": "view",
      "type": "function"
    },
    {
      "inputs": [],
      "name": "proposalCount",
      "outputs": [
        {
          "internalType": "uint256",
          "name": "",
          "type": "uint256"
        }
      ],
      "stateMutability": "view",
      "type": "function"
    },
    {
      "inputs": [],
      "name": "proposalThreshold",
      "outputs": [
        {
          "internalType": "uint256",
          "name": "",
          "type": "uint256"
        }
      ],
      "stateMutability": "view",
      "type": "function"
    },
    {
      "inputs": [
        {
          "internalType": "uint256",
          "name": "",
          "type": "uint256"
        }
      ],
      "name": "proposals",
      "outputs": [
        {
          "internalType": "uint256",
          "name": "id",
          "type": "uint256"
        },
        {
          "internalType": "address",
          "name": "proposer",
          "type": "address"
        },
        {
          "internalType": "string",
          "name": "description",
          "type": "string"
        },
        {
          "internalType": "address",
          "name": "target",
          "type": "address"
        },
        {
          "internalType": "bytes",
          "name": "callData",
          "type": "bytes"
        },
        {
          "internalType": "uint256",
          "name": "forVotes",
          "type": "uint256"
        },
        {
          "internalType": "uint256",
          "name": "againstVotes",
          "type": "uint256"
        },
        {
          "internalType": "uint256",
          "name": "startTime",
          "type": "uint256"
        },
        {
          "internalType": "uint256",
          "name": "endTime",
          "type": "uint256"
        },
        {
          "internalType": "uint256",
          "name": "executionTime",
          "type": "uint256"
        },
        {
          "internalType": "enum MDTGovernor.ProposalState",
          "name": "state",
          "type": "uint8"
        },
        {
          "internalType": "bool",
          "name": "targetAllowedAtCreation",
          "type": "bool"
        }
      ],
      "stateMutability": "view",
      "type": "function"
    },
    {
      "inputs": [
        {
          "internalType": "string",
          "name": "description",
          "type": "string"
        },
        {
          "internalType": "address",
          "name": "target",
          "type": "address"
        },
        {
          "internalType": "bytes",
          "name": "callData",
          "type": "bytes"
        }
      ],
      "name": "propose",
      "outputs": [
        {
          "internalType": "uint256",
          "name": "",
          "type": "uint256"
        }
      ],
      "stateMutability": "nonpayable",
      "type": "function"
    },
    {
      "inputs": [],
      "name": "quorum",
      "outputs": [
        {
          "internalType": "uint256",
          "name": "",
          "type": "uint256"
        }
      ],
      "stateMutability": "view",
      "type": "function"
    },
    {
      "inputs": [],
      "name": "renounceOwnership",
      "outputs": [],
      "stateMutability": "nonpayable",
      "type": "function"
    },
    {
      "inputs": [
        {
          "internalType": "address",
          "name": "target",
          "type": "address"
        },
        {
          "internalType": "bool",
          "name": "allowed",
          "type": "bool"
        }
      ],
      "name": "setAllowedTarget",
      "outputs": [],
      "stateMutability": "nonpayable",
      "type": "function"
    },
    {
      "inputs": [
        {
          "internalType": "uint256",
          "name": "_delay",
          "type": "uint256"
        }
      ],
      "name": "setExecutionDelay",
      "outputs": [],
      "stateMutability": "nonpayable",
      "type": "function"
    },
    {
      "inputs": [
        {
          "internalType": "uint256",
          "name": "_threshold",
          "type": "uint256"
        }
      ],
      "name": "setProposalThreshold",
      "outputs": [],
      "stateMutability": "nonpayable",
      "type": "function"
    },
    {
      "inputs": [
        {
          "internalType": "uint256",
          "name": "_quorum",
          "type": "uint256"
        }
      ],
      "name": "setQuorum",
      "outputs": [],
      "stateMutability": "nonpayable",
      "type": "function"
    },
    {
      "inputs": [
        {
          "internalType": "uint256",
          "name": "_period",
          "type": "uint256"
        }
      ],
      "name": "setVotingPeriod",
      "outputs": [],
      "stateMutability": "nonpayable",
      "type": "function"
    },
    {
      "inputs": [
        {
          "internalType": "address",
          "name": "newOwner",
          "type": "address"
        }
      ],
      "name": "transferOwnership",
      "outputs": [],
      "stateMutability": "nonpayable",
      "type": "function"
    },
    {
      "inputs": [
        {
          "internalType": "uint256",
          "name": "proposalId",
          "type": "uint256"
        },
        {
          "internalType": "bool",
          "name": "support",
          "type": "bool"
        }
      ],
      "name": "vote",
      "outputs": [],
      "stateMutability": "nonpayable",
      "type": "function"
    },
    {
      "inputs": [],
      "name": "votingPeriod",
      "outputs": [
        {
          "internalType": "uint256",
          "name": "",
          "type": "uint256"
        }
      ],
      "stateMutability": "view",
      "type": "function"
    }
  ],
  "bytecode": "0x60803461010357601f6118d538819003918201601f19168301916001600160401b038311848410176101085780849260209460405283398101031261010357516001600160a01b03808216918290036101035760016000556001549060018060a01b0319913383821617600155604051913391167f8be0079c531659141344cd1fd0a4f28419497f9722a3daafe3b4186f6b6457e0600080a364e8d4a51000806003556004556203f4806005556201518060065582156100d1575060025416176002556040516117b6908161011f8239f35b62461bcd60e51b815260206004820152600d60248201526c24b73b30b634b2103a37b5b2b760991b6044820152606490fd5b600080fd5b634e487b7160e01b600052604160045260246000fdfe608080604052600436101561001357600080fd5b60003560e01c908163013cf08b146113da5750806302a251a3146113bc5780631703a0181461139e57806340e58ee51461128457806343859632146112345780634944483114611128578063715018a6146110cb5780638b257989146110ad5780638da5cb5b146110845780639080936f1461104b578063b58131b01461102d578063b8fe8d5f14610fee578063c1ba4e5914610f15578063c9d27afe14610cc3578063ca1dd22e14610c3a578063d54a0ea6146107fc578063da35c664146107de578063e4917d9f14610709578063ea0217cf1461061d578063ece40cc11461053e578063f2fde38b14610475578063f70b5c061461044c578063fe0d94c1146101645763ff9810991461012757600080fd5b3461015f57602036600319011261015f5760043560005260086020526040806000206006600582015491015482519182526020820152f35b600080fd5b3461015f5760208060031936011261015f576004359060026000541461040857600260005581600052600881526040600020600a810180549060ff821660068110156103f2576003036103bd57600983015442106103815760ff8260081c161561032d57600460ff19809316179055600460018060a01b03600384015416920190604051916000918154916101f8836114e0565b926001928382169182156103165750506001146102db575b50505091816000809493819403925af13d156102d6573d67ffffffffffffffff81116102c0576040519061024d601f8201601f19168501836115b0565b81526000833d92013e5b1561028957507f712ae1383f79ac853f8d882153778e0260ef8f03b504e2866e0593e04d2b291f600080a26001600055005b6064906040519062461bcd60e51b82526004820152601060248201526f115e1958dd5d1a5bdb8819985a5b195960821b6044820152fd5b634e487b7160e01b600052604160045260246000fd5b610257565b909192506000528460002090856000925b84841061030457505050908201905081600080610210565b805486850152920191869082016102ec565b168652505050801515028201905081600080610210565b60405162461bcd60e51b815260048101859052602660248201527f54617267657420776173206e6f742077686974656c697374656420617420637260448201526532b0ba34b7b760d11b6064820152608490fd5b60405162461bcd60e51b8152600481018590526014602482015273151a5b595b1bd8dac81b9bdd08195e1c1a5c995960621b6044820152606490fd5b60405162461bcd60e51b815260048101859052600d60248201526c139bdd081cdd58d8d959591959609a1b6044820152606490fd5b634e487b7160e01b600052602160045260246000fd5b6064906040519062461bcd60e51b82526004820152601f60248201527f5265656e7472616e637947756172643a207265656e7472616e742063616c6c006044820152fd5b3461015f57600036600319011261015f576002546040516001600160a01b039091168152602090f35b3461015f57602036600319011261015f5761048e611635565b610496611728565b6001600160a01b039081169081156104ea57600154826bffffffffffffffffffffffff60a01b821617600155167f8be0079c531659141344cd1fd0a4f28419497f9722a3daafe3b4186f6b6457e0600080a3005b60405162461bcd60e51b815260206004820152602660248201527f4f776e61626c653a206e6577206f776e657220697320746865207a65726f206160448201526564647265737360d01b6064820152608490fd5b3461015f57602036600319011261015f5760043561055a611728565b80156105e057655af3107a400081116105a65760407fe92242fc3efcad407a677132b517977331a6e5b65abab69fd757cc02e99c9c4e91600354908060035582519182526020820152a1005b60405162461bcd60e51b81526020600482015260126024820152710a8d0e4cae6d0ded8c840e8dede40d0d2ced60731b6044820152606490fd5b60405162461bcd60e51b815260206004820152601560248201527405468726573686f6c64206d757374206265203e203605c1b6044820152606490fd5b3461015f57602036600319011261015f57600435610639611728565b6201518081106106c45762278d0081116106865760407fffc708f072ca56e3d45ef0cb288b96cb9378f5f63e1646868bfbc9c38f4263a191600554908060055582519182526020820152a1005b60405162461bcd60e51b8152602060048201526016602482015275566f74696e6720706572696f6420746f6f206c6f6e6760501b6044820152606490fd5b60405162461bcd60e51b815260206004820152601760248201527f566f74696e6720706572696f6420746f6f2073686f72740000000000000000006044820152606490fd5b3461015f57602036600319011261015f57600435610725611728565b610e1081106107a7576212750081116107715760407fc3fea73a093f9f688b83e388026bda2c879cda83223a752528ab027f60d400e091600654908060065582519182526020820152a1005b60405162461bcd60e51b815260206004820152600e60248201526d44656c617920746f6f206c6f6e6760901b6044820152606490fd5b60405162461bcd60e51b815260206004820152600f60248201526e11195b185e481d1bdbc81cda1bdc9d608a1b6044820152606490fd5b3461015f57600036600319011261015f576020600754604051908152f35b3461015f57606036600319011261015f5760043567ffffffffffffffff811161015f5761082d90369060040161165a565b9061083661161f565b9060443567ffffffffffffffff811161015f5761085790369060040161165a565b6002546040516370a0823160e01b81523360048201529295926001600160a01b03916020908290602490829086165afa908115610c2e57600091610bfc575b5060035411610bb7576108ac8186161515611695565b808516600052600960205260ff6040600020541615610b7957600754946000198614610b635760018681016007819055600081815260086020526040902090815590810180546001600160a01b031916331790559267ffffffffffffffff85116102c05761092a8561092160028701546114e0565b600287016116d2565b600085601f8111600114610af6578061095992600091610aeb575b508160011b916000199060031b1c19161790565b60028501555b6003840180546001600160a01b03191683851617905567ffffffffffffffff81116102c0576020976109a18261099860048801546114e0565b600488016116d2565b600090601f8311600114610a7c576109d2929160009183610a71575b50508160011b916000199060031b1c19161790565b60048401555b426007840155600a6109ec60055442611688565b938460088201550161010161ffff1982541617905583604051956080875281608088015260a0870137600060a08587010152168584015242604084015260608301527ffcbc93e90de1f3909139448eea84876f427c600d8e1706f36918b4c5635c0213339260a0816001870194601f80199101168101030190a3600160405191018152f35b013590508a806109bd565b6004869392930160005289600020906000935b601f1984168510610ad4576001945083601f19811610610aba575b505050811b0160048401556109d8565b0135600019600384901b60f8161c19169055898080610aaa565b818101358355938b01936001909201918b01610a8f565b90508801358b610945565b506002850160005260206000209060005b601f1988168110610b4b575086601f19811610610b31575b5050600185811b01600285015561095f565b870135600019600388901b60f8161c191690558880610b1f565b9091602060018192858c013581550193019101610b07565b634e487b7160e01b600052601160045260246000fd5b60405162461bcd60e51b815260206004820152601660248201527515185c99d95d081b9bdd081dda1a5d195b1a5cdd195960521b6044820152606490fd5b60405162461bcd60e51b815260206004820152601860248201527f42656c6f772070726f706f73616c207468726573686f6c6400000000000000006044820152606490fd5b90506020813d602011610c26575b81610c17602093836115b0565b8101031261015f575187610896565b3d9150610c0a565b6040513d6000823e3d90fd5b3461015f57604036600319011261015f57610c53611635565b7ff6c76eeb7c8ff50ae11742b7c9c659668fd5450291aa2e196914e251b7786abe6020610c7e61164b565b92610c87611728565b6001600160a01b031692610c9c841515611695565b836000526009825260406000209015159060ff1981541660ff8316179055604051908152a2005b3461015f57604036600319011261015f57600435610cdf61164b565b908060005260206008815260406000209060ff600a8301541660068110156103f257600103610edb5760088201544211610ea857600b8201913360005282825260ff60406000205416610e7357600c81019233600052838352604060002054938415610db8575b5082526040600020805460ff191660011790558415610da357600501610d6d838254611688565b90555b60405193151584528301527fcbdf6214089cba887ecbf35a0b6a734589959c9763342c756bb2a80ca2bc9f6e60403393a3005b600601610db1838254611688565b9055610d70565b6002546040516370a0823160e01b81523360048201529195508490829060249082906001600160a01b03165afa908115610c2e57600091610e46575b5080948115610e0f5733600052845260406000205586610d46565b60405162461bcd60e51b815260048101869052600f60248201526e2737903b37ba34b733903837bbb2b960891b6044820152606490fd5b90508381813d8311610e6c575b610e5d81836115b0565b8101031261015f575187610df4565b503d610e53565b60405162461bcd60e51b815260048101839052600d60248201526c105b1c9958591e481d9bdd1959609a1b6044820152606490fd5b6064906040519062461bcd60e51b82526004820152600c60248201526b159bdd1a5b99c8195b99195960a21b6044820152fd5b6064906040519062461bcd60e51b82526004820152601360248201527250726f706f73616c206e6f742061637469766560681b6044820152fd5b3461015f57602036600319011261015f57600435610f31611728565b8015610fb457655af3107a40008111610f7d5760407f6784e9bcb845caaa98267d7b0918f97d3d17f7cb35a05b52010f7eb587a0acb091600454908060045582519182526020820152a1005b60405162461bcd60e51b815260206004820152600f60248201526e0a2eadee4eada40e8dede40d0d2ced608b1b6044820152606490fd5b60405162461bcd60e51b8152602060048201526012602482015271051756f72756d206d757374206265203e20360741b6044820152606490fd5b3461015f57602036600319011261015f576001600160a01b0361100f611635565b166000526009602052602060ff604060002054166040519015158152f35b3461015f57600036600319011261015f576020600354604051908152f35b3461015f57602036600319011261015f576004356000526008602052602060ff600a60406000200154166110826040518092611612565bf35b3461015f57600036600319011261015f576001546040516001600160a01b039091168152602090f35b3461015f57600036600319011261015f576020600654604051908152f35b3461015f57600036600319011261015f576110e4611728565b600180546001600160a01b031981169091556000906001600160a01b03167f8be0079c531659141344cd1fd0a4f28419497f9722a3daafe3b4186f6b6457e08280a3005b3461015f57602036600319011261015f5760043560005260086020526040600020600a8101805460ff811660068110156103f2576001036112025760088301544211156111ca57600583015460068401546111838183611688565b600454111591826111c0575b5050156111b55750600360ff1982541617905560096111b060065442611688565b910155005b60ff19166002179055005b119050848061118f565b60405162461bcd60e51b815260206004820152601060248201526f159bdd1a5b99c81b9bdd08195b99195960821b6044820152606490fd5b60405162461bcd60e51b815260206004820152600a6024820152694e6f742061637469766560b01b6044820152606490fd5b3461015f57604036600319011261015f5761124d61161f565b6004356000526008602052600b6040600020019060018060a01b0316600052602052602060ff604060002054166040519015158152f35b3461015f57602036600319011261015f5760043560008181526008602052604090206001810154336001600160a01b0391821614908115611390575b501561135a57600a01805460ff811660068110156103f2576001811490811561134f575b501561131a5760ff191660051790557f416e669c63d9a3a5e36ee7cc7e2104b8db28ccd286aa18966e98fa230c73b08c600080a2005b60405162461bcd60e51b815260206004820152600d60248201526c10d85b9b9bdd0818d85b98d95b609a1b6044820152606490fd5b6003915014846112e4565b60405162461bcd60e51b815260206004820152600e60248201526d139bdd08185d5d1a1bdc9a5e995960921b6044820152606490fd5b9050600154163314836112c0565b3461015f57600036600319011261015f576020600454604051908152f35b3461015f57600036600319011261015f576020600554604051908152f35b3461015f57602036600319011261015f5760043560005260086020526040806000209160ff83549360018060a01b0390816001820154169161142a85611423816002860161151a565b03866115b0565b60038201541693855161144b81611444816004870161151a565b03826115b0565b6005830154956114a4600685015491600786015493611491600888015496600a60098a0154990154998d519e8f9e8f6101809384938252602082015201528d01906115d2565b9160608c01528a820360808c01526115d2565b9660a089015260c088015260e08701526101008601526101208501526114d06101408501838316611612565b60081c1615156101608301520390f35b90600182811c92168015611510575b60208310146114fa57565b634e487b7160e01b600052602260045260246000fd5b91607f16916114ef565b805460009392611529826114e0565b918282526020936001916001811690816000146115915750600114611550575b5050505050565b90939495506000929192528360002092846000945b83861061157d57505050500101903880808080611549565b805485870183015294019385908201611565565b60ff19168685015250505090151560051b010191503880808080611549565b90601f8019910116810190811067ffffffffffffffff8211176102c057604052565b919082519283825260005b8481106115fe575050826000602080949584010152601f8019910116010190565b6020818301810151848301820152016115dd565b9060068210156103f25752565b602435906001600160a01b038216820361015f57565b600435906001600160a01b038216820361015f57565b60243590811515820361015f57565b9181601f8401121561015f5782359167ffffffffffffffff831161015f576020838186019501011161015f57565b91908201809211610b6357565b1561169c57565b60405162461bcd60e51b815260206004820152600e60248201526d125b9d985b1a59081d185c99d95d60921b6044820152606490fd5b90601f81116116e057505050565b6000916000526020600020906020601f850160051c8301941061171e575b601f0160051c01915b82811061171357505050565b818155600101611707565b90925082906116fe565b6001546001600160a01b0316330361173c57565b606460405162461bcd60e51b815260206004820152602060248201527f4f776e61626c653a2063616c6c6572206973206e6f7420746865206f776e65726044820152fdfea26469706673582212203fde68367e1a3af5edc60bfdc016ec92a00f8a1d3249522da3af812e32c6483564736f6c63430008180033",
  "linkReferences": {},
  "deployedLinkReferences": {}
}